{
	"data": {
		"bytecode": {
			"linkReferences": {},
			"object": "6080604052348015600e575f80fd5b5061064f8061001c5f395ff3fe608060405234801561000f575f80fd5b5060043610610029575f3560e01c80637504e4331461002d575b5f80fd5b61004760048036038101906100429190610332565b61005d565b6040516100549190610427565b60405180910390f35b60606100698383610071565b905092915050565b6060818311156100b6576040517f08c379a00000000000000000000000000000000000000000000000000000000081526004016100ad906104c7565b60405180910390fd5b5f600184846100c59190610512565b6100cf9190610545565b90505f8167ffffffffffffffff8111156100ec576100eb610578565b5b60405190808252806020026020018201604052801561011a5781602001602082028036833780820191505090505b5090505f840361014e575f815f81518110610138576101376105a5565b5b60200260200101818152505080925050506102f5565b5f60018561015c9190610545565b67ffffffffffffffff81111561017557610174610578565b5b6040519080825280602002602001820160405280156101a35781602001602082028036833780820191505090505b5090505f815f815181106101ba576101b96105a5565b5b602002602001018181525050600185106101f1576001816001815181106101e4576101e36105a5565b5b6020026020010181815250505b5f600290505b858111610288578160028261020c9190610512565b8151811061021d5761021c6105a5565b5b6020026020010151826001836102339190610512565b81518110610244576102436105a5565b5b60200260200101516102569190610545565b828281518110610269576102686105a5565b5b6020026020010181815250508080610280906105d2565b9150506101f7565b505f8690505b8581116102ed578181815181106102a8576102a76105a5565b5b60200260200101518388836102bd9190610512565b815181106102ce576102cd6105a5565b5b60200260200101818152505080806102e5906105d2565b91505061028e565b508193505050505b92915050565b5f80fd5b5f819050919050565b610311816102ff565b811461031b575f80fd5b50565b5f8135905061032c81610308565b92915050565b5f8060408385031215610348576103476102fb565b5b5f6103558582860161031e565b92505060206103668582860161031e565b9150509250929050565b5f81519050919050565b5f82825260208201905092915050565b5f819050602082019050919050565b6103a2816102ff565b82525050565b5f6103b38383610399565b60208301905092915050565b5f602082019050919050565b5f6103d582610370565b6103df818561037a565b93506103ea8361038a565b805f5b8381101561041a57815161040188826103a8565b975061040c836103bf565b9250506001810190506103ed565b5085935050505092915050565b5f6020820190508181035f83015261043f81846103cb565b905092915050565b5f82825260208201905092915050565b7f537461727420696e646578206d757374206265206c657373207468616e206f725f8201527f20657175616c20746f20656e6420696e64657800000000000000000000000000602082015250565b5f6104b1603383610447565b91506104bc82610457565b604082019050919050565b5f6020820190508181035f8301526104de816104a5565b9050919050565b7f4e487b71000000000000000000000000000000000000000000000000000000005f52601160045260245ffd5b5f61051c826102ff565b9150610527836102ff565b925082820390508181111561053f5761053e6104e5565b5b92915050565b5f61054f826102ff565b915061055a836102ff565b9250828201905080821115610572576105716104e5565b5b92915050565b7f4e487b71000000000000000000000000000000000000000000000000000000005f52604160045260245ffd5b7f4e487b71000000000000000000000000000000000000000000000000000000005f52603260045260245ffd5b5f6105dc826102ff565b91507fffffffffffffffffffffffffffffffffffffffffffffffffffffffffffffffff820361060e5761060d6104e5565b5b60018201905091905056fea264697066735822122012fa9d10f6e84c35bab777c0d313a9eb760d8d586c9aafe80079b3602267f2ab64736f6c634300081a0033",
			"opcodes": "PUSH1 0x80 PUSH1 0x40 MSTORE CALLVALUE DUP1 ISZERO PUSH1 0xE JUMPI PUSH0 DUP1 REVERT JUMPDEST POP PUSH2 0x64F DUP1 PUSH2 0x1C PUSH0 CODECOPY PUSH0 RETURN INVALID PUSH1 0x80 PUSH1 0x40 MSTORE CALLVALUE DUP1 ISZERO PUSH2 0xF JUMPI PUSH0 DUP1 REVERT JUMPDEST POP PUSH1 0x4 CALLDATASIZE LT PUSH2 0x29 JUMPI PUSH0 CALLDATALOAD PUSH1 0xE0 SHR DUP1 PUSH4 0x7504E433 EQ PUSH2 0x2D JUMPI JUMPDEST PUSH0 DUP1 REVERT JUMPDEST PUSH2 0x47 PUSH1 0x4 DUP1 CALLDATASIZE SUB DUP2 ADD SWAP1 PUSH2 0x42 SWAP2 SWAP1 PUSH2 0x332 JUMP JUMPDEST PUSH2 0x5D JUMP JUMPDEST PUSH1 0x40 MLOAD PUSH2 0x54 SWAP2 SWAP1 PUSH2 0x427 JUMP JUMPDEST PUSH1 0x40 MLOAD DUP1 SWAP2 SUB SWAP1 RETURN JUMPDEST PUSH1 0x60 PUSH2 0x69 DUP4 DUP4 PUSH2 0x71 JUMP JUMPDEST SWAP1 POP SWAP3 SWAP2 POP POP JUMP JUMPDEST PUSH1 0x60 DUP2 DUP4 GT ISZERO PUSH2 0xB6 JUMPI PUSH1 0x40 MLOAD PUSH32 0x8C379A000000000000000000000000000000000000000000000000000000000 DUP2 MSTORE PUSH1 0x4 ADD PUSH2 0xAD SWAP1 PUSH2 0x4C7 JUMP JUMPDEST PUSH1 0x40 MLOAD DUP1 SWAP2 SUB SWAP1 REVERT JUMPDEST PUSH0 PUSH1 0x1 DUP5 DUP5 PUSH2 0xC5 SWAP2 SWAP1 PUSH2 0x512 JUMP JUMPDEST PUSH2 0xCF SWAP2 SWAP1 PUSH2 0x545 JUMP JUMPDEST SWAP1 POP PUSH0 DUP2 PUSH8 0xFFFFFFFFFFFFFFFF DUP2 GT ISZERO PUSH2 0xEC JUMPI PUSH2 0xEB PUSH2 0x578 JUMP JUMPDEST JUMPDEST PUSH1 0x40 MLOAD SWAP1 DUP1 DUP3 MSTORE DUP1 PUSH1 0x20 MUL PUSH1 0x20 ADD DUP3 ADD PUSH1 0x40 MSTORE DUP1 ISZERO PUSH2 0x11A JUMPI DUP2 PUSH1 0x20 ADD PUSH1 0x20 DUP3 MUL DUP1 CALLDATASIZE DUP4 CALLDATACOPY DUP1 DUP3 ADD SWAP2 POP POP SWAP1 POP JUMPDEST POP SWAP1 POP PUSH0 DUP5 SUB PUSH2 0x14E JUMPI PUSH0 DUP2 PUSH0 DUP2 MLOAD DUP2 LT PUSH2 0x138 JUMPI PUSH2 0x137 PUSH2 0x5A5 JUMP JUMPDEST JUMPDEST PUSH1 0x20 MUL PUSH1 0x20 ADD ADD DUP2 DUP2 MSTORE POP POP DUP1 SWAP3 POP POP POP PUSH2 0x2F5 JUMP JUMPDEST PUSH0 PUSH1 0x1 DUP6 PUSH2 0x15C SWAP2 SWAP1 PUSH2 0x545 JUMP JUMPDEST PUSH8 0xFFFFFFFFFFFFFFFF DUP2 GT ISZERO PUSH2 0x175 JUMPI PUSH2 0x174 PUSH2 0x578 JUMP JUMPDEST JUMPDEST PUSH1 0x40 MLOAD SWAP1 DUP1 DUP3 MSTORE DUP1 PUSH1 0x20 MUL PUSH1 0x20 ADD DUP3 ADD PUSH1 0x40 MSTORE DUP1 ISZERO PUSH2 0x1A3 JUMPI DUP2 PUSH1 0x20 ADD PUSH1 0x20 DUP3 MUL DUP1 CALLDATASIZE DUP4 CALLDATACOPY DUP1 DUP3 ADD SWAP2 POP POP SWAP1 POP JUMPDEST POP SWAP1 POP PUSH0 DUP2 PUSH0 DUP2 MLOAD DUP2 LT PUSH2 0x1BA JUMPI PUSH2 0x1B9 PUSH2 0x5A5 JUMP JUMPDEST JUMPDEST PUSH1 0x20 MUL PUSH1 0x20 ADD ADD DUP2 DUP2 MSTORE POP POP PUSH1 0x1 DUP6 LT PUSH2 0x1F1 JUMPI PUSH1 0x1 DUP2 PUSH1 0x1 DUP2 MLOAD DUP2 LT PUSH2 0x1E4 JUMPI PUSH2 0x1E3 PUSH2 0x5A5 JUMP JUMPDEST JUMPDEST PUSH1 0x20 MUL PUSH1 0x20 ADD ADD DUP2 DUP2 MSTORE POP POP JUMPDEST PUSH0 PUSH1 0x2 SWAP1 POP JUMPDEST DUP6 DUP2 GT PUSH2 0x288 JUMPI DUP2 PUSH1 0x2 DUP3 PUSH2 0x20C SWAP2 SWAP1 PUSH2 0x512 JUMP JUMPDEST DUP2 MLOAD DUP2 LT PUSH2 0x21D JUMPI PUSH2 0x21C PUSH2 0x5A5 JUMP JUMPDEST JUMPDEST PUSH1 0x20 MUL PUSH1 0x20 ADD ADD MLOAD DUP3 PUSH1 0x1 DUP4 PUSH2 0x233 SWAP2 SWAP1 PUSH2 0x512 JUMP JUMPDEST DUP2 MLOAD DUP2 LT PUSH2 0x244 JUMPI PUSH2 0x243 PUSH2 0x5A5 JUMP JUMPDEST JUMPDEST PUSH1 0x20 MUL PUSH1 0x20 ADD ADD MLOAD PUSH2 0x256 SWAP2 SWAP1 PUSH2 0x545 JUMP JUMPDEST DUP3 DUP3 DUP2 MLOAD DUP2 LT PUSH2 0x269 JUMPI PUSH2 0x268 PUSH2 0x5A5 JUMP JUMPDEST JUMPDEST PUSH1 0x20 MUL PUSH1 0x20 ADD ADD DUP2 DUP2 MSTORE POP POP DUP1 DUP1 PUSH2 0x280 SWAP1 PUSH2 0x5D2 JUMP JUMPDEST SWAP2 POP POP PUSH2 0x1F7 JUMP JUMPDEST POP PUSH0 DUP7 SWAP1 POP JUMPDEST DUP6 DUP2 GT PUSH2 0x2ED JUMPI DUP2 DUP2 DUP2 MLOAD DUP2 LT PUSH2 0x2A8 JUMPI PUSH2 0x2A7 PUSH2 0x5A5 JUMP JUMPDEST JUMPDEST PUSH1 0x20 MUL PUSH1 0x20 ADD ADD MLOAD DUP4 DUP9 DUP4 PUSH2 0x2BD SWAP2 SWAP1 PUSH2 0x512 JUMP JUMPDEST DUP2 MLOAD DUP2 LT PUSH2 0x2CE JUMPI PUSH2 0x2CD PUSH2 0x5A5 JUMP JUMPDEST JUMPDEST PUSH1 0x20 MUL PUSH1 0x20 ADD ADD DUP2 DUP2 MSTORE POP POP DUP1 DUP1 PUSH2 0x2E5 SWAP1 PUSH2 0x5D2 JUMP JUMPDEST SWAP2 POP POP PUSH2 0x28E JUMP JUMPDEST POP DUP2 SWAP4 POP POP POP POP JUMPDEST SWAP3 SWAP2 POP POP JUMP JUMPDEST PUSH0 DUP1 REVERT JUMPDEST PUSH0 DUP2 SWAP1 POP SWAP2 SWAP1 POP JUMP JUMPDEST PUSH2 0x311 DUP2 PUSH2 0x2FF JUMP JUMPDEST DUP2 EQ PUSH2 0x31B JUMPI PUSH0 DUP1 REVERT JUMPDEST POP JUMP JUMPDEST PUSH0 DUP2 CALLDATALOAD SWAP1 POP PUSH2 0x32C DUP2 PUSH2 0x308 JUMP JUMPDEST SWAP3 SWAP2 POP POP JUMP JUMPDEST PUSH0 DUP1 PUSH1 0x40 DUP4 DUP6 SUB SLT ISZERO PUSH2 0x348 JUMPI PUSH2 0x347 PUSH2 0x2FB JUMP JUMPDEST JUMPDEST PUSH0 PUSH2 0x355 DUP6 DUP3 DUP7 ADD PUSH2 0x31E JUMP JUMPDEST SWAP3 POP POP PUSH1 0x20 PUSH2 0x366 DUP6 DUP3 DUP7 ADD PUSH2 0x31E JUMP JUMPDEST SWAP2 POP POP SWAP3 POP SWAP3 SWAP1 POP JUMP JUMPDEST PUSH0 DUP2 MLOAD SWAP1 POP SWAP2 SWAP1 POP JUMP JUMPDEST PUSH0 DUP3 DUP3 MSTORE PUSH1 0x20 DUP3 ADD SWAP1 POP SWAP3 SWAP2 POP POP JUMP JUMPDEST PUSH0 DUP2 SWAP1 POP PUSH1 0x20 DUP3 ADD SWAP1 POP SWAP2 SWAP1 POP JUMP JUMPDEST PUSH2 0x3A2 DUP2 PUSH2 0x2FF JUMP JUMPDEST DUP3 MSTORE POP POP JUMP JUMPDEST PUSH0 PUSH2 0x3B3 DUP4 DUP4 PUSH2 0x399 JUMP JUMPDEST PUSH1 0x20 DUP4 ADD SWAP1 POP SWAP3 SWAP2 POP POP JUMP JUMPDEST PUSH0 PUSH1 0x20 DUP3 ADD SWAP1 POP SWAP2 SWAP1 POP JUMP JUMPDEST PUSH0 PUSH2 0x3D5 DUP3 PUSH2 0x370 JUMP JUMPDEST PUSH2 0x3DF DUP2 DUP6 PUSH2 0x37A JUMP JUMPDEST SWAP4 POP PUSH2 0x3EA DUP4 PUSH2 0x38A JUMP JUMPDEST DUP1 PUSH0 JUMPDEST DUP4 DUP2 LT ISZERO PUSH2 0x41A JUMPI DUP2 MLOAD PUSH2 0x401 DUP9 DUP3 PUSH2 0x3A8 JUMP JUMPDEST SWAP8 POP PUSH2 0x40C DUP4 PUSH2 0x3BF JUMP JUMPDEST SWAP3 POP POP PUSH1 0x1 DUP2 ADD SWAP1 POP PUSH2 0x3ED JUMP JUMPDEST POP DUP6 SWAP4 POP POP POP POP SWAP3 SWAP2 POP POP JUMP JUMPDEST PUSH0 PUSH1 0x20 DUP3 ADD SWAP1 POP DUP2 DUP2 SUB PUSH0 DUP4 ADD MSTORE PUSH2 0x43F DUP2 DUP5 PUSH2 0x3CB JUMP JUMPDEST SWAP1 POP SWAP3 SWAP2 POP POP JUMP JUMPDEST PUSH0 DUP3 DUP3 MSTORE PUSH1 0x20 DUP3 ADD SWAP1 POP SWAP3 SWAP2 POP POP JUMP JUMPDEST PUSH32 0x537461727420696E646578206D757374206265206C657373207468616E206F72 PUSH0 DUP3 ADD MSTORE PUSH32 0x20657175616C20746F20656E6420696E64657800000000000000000000000000 PUSH1 0x20 DUP3 ADD MSTORE POP JUMP JUMPDEST PUSH0 PUSH2 0x4B1 PUSH1 0x33 DUP4 PUSH2 0x447 JUMP JUMPDEST SWAP2 POP PUSH2 0x4BC DUP3 PUSH2 0x457 JUMP JUMPDEST PUSH1 0x40 DUP3 ADD SWAP1 POP SWAP2 SWAP1 POP JUMP JUMPDEST PUSH0 PUSH1 0x20 DUP3 ADD SWAP1 POP DUP2 DUP2 SUB PUSH0 DUP4 ADD MSTORE PUSH2 0x4DE DUP2 PUSH2 0x4A5 JUMP JUMPDEST SWAP1 POP SWAP2 SWAP1 POP JUMP JUMPDEST PUSH32 0x4E487B7100000000000000000000000000000000000000000000000000000000 PUSH0 MSTORE PUSH1 0x11 PUSH1 0x4 MSTORE PUSH1 0x24 PUSH0 REVERT JUMPDEST PUSH0 PUSH2 0x51C DUP3 PUSH2 0x2FF JUMP JUMPDEST SWAP2 POP PUSH2 0x527 DUP4 PUSH2 0x2FF JUMP JUMPDEST SWAP3 POP DUP3 DUP3 SUB SWAP1 POP DUP2 DUP2 GT ISZERO PUSH2 0x53F JUMPI PUSH2 0x53E PUSH2 0x4E5 JUMP JUMPDEST JUMPDEST SWAP3 SWAP2 POP POP JUMP JUMPDEST PUSH0 PUSH2 0x54F DUP3 PUSH2 0x2FF JUMP JUMPDEST SWAP2 POP PUSH2 0x55A DUP4 PUSH2 0x2FF JUMP JUMPDEST SWAP3 POP DUP3 DUP3 ADD SWAP1 POP DUP1 DUP3 GT ISZERO PUSH2 0x572 JUMPI PUSH2 0x571 PUSH2 0x4E5 JUMP JUMPDEST JUMPDEST SWAP3 SWAP2 POP POP JUMP JUMPDEST PUSH32 0x4E487B7100000000000000000000000000000000000000000000000000000000 PUSH0 MSTORE PUSH1 0x41 PUSH1 0x4 MSTORE PUSH1 0x24 PUSH0 REVERT JUMPDEST PUSH32 0x4E487B7100000000000000000000000000000000000000000000000000000000 PUSH0 MSTORE PUSH1 0x32 PUSH1 0x4 MSTORE PUSH1 0x24 PUSH0 REVERT JUMPDEST PUSH0 PUSH2 0x5DC DUP3 PUSH2 0x2FF JUMP JUMPDEST SWAP2 POP PUSH32 0xFFFFFFFFFFFFFFFFFFFFFFFFFFFFFFFFFFFFFFFFFFFFFFFFFFFFFFFFFFFFFFFF DUP3 SUB PUSH2 0x60E JUMPI PUSH2 0x60D PUSH2 0x4E5 JUMP JUMPDEST JUMPDEST PUSH1 0x1 DUP3 ADD SWAP1 POP SWAP2 SWAP1 POP JUMP INVALID LOG2 PUSH5 0x6970667358 0x22 SLT KECCAK256 SLT STATICCALL SWAP14 LT 0xF6 0xE8 0x4C CALLDATALOAD 0xBA 0xB7 PUSH24 0xC0D313A9EB760D8D586C9AAFE80079B3602267F2AB64736F PUSH13 0x634300081A0033000000000000 "
		},
		"gasEstimates": {
			"creation": {
				"codeDepositCost": "323000",
				"executionCost": "360",
				"totalCost": "323360"
			},
			"external": {
				"testFibonacci(uint256,uint256)": "infinite"
			}
		},
		"methodIdentifiers": {
			"testFibonacci(uint256,uint256)": "7504e433"
		}
	},
	"abi": [
		{
			"inputs": [
				{
					"internalType": "uint256",
					"name": "a",
					"type": "uint256"
				},
				{
					"internalType": "uint256",
					"name": "b",
					"type": "uint256"
				}
			],
			"name": "testFibonacci",
			"outputs": [
				{
					"internalType": "uint256[]",
					"name": "",
					"type": "uint256[]"
				}
			],
			"stateMutability": "pure",
			"type": "function"
		}
	]
}