{
	"Practice/Day-10/P2.sol": {
		"Student": {
			"abi": [
				{
					"inputs": [
						{
							"internalType": "string",
							"name": "_studentName",
							"type": "string"
						},
						{
							"internalType": "uint256",
							"name": "_regNo",
							"type": "uint256"
						},
						{
							"internalType": "uint256",
							"name": "_marks",
							"type": "uint256"
						},
						{
							"internalType": "string",
							"name": "_CollegeName",
							"type": "string"
						},
						{
							"internalType": "string",
							"name": "_CollegeCode",
							"type": "string"
						},
						{
							"internalType": "string",
							"name": "_deptName",
							"type": "string"
						},
						{
							"internalType": "string",
							"name": "_deptHead",
							"type": "string"
						}
					],
					"stateMutability": "nonpayable",
					"type": "constructor"
				},
				{
					"inputs": [],
					"name": "CollegeCode",
					"outputs": [
						{
							"internalType": "string",
							"name": "",
							"type": "string"
						}
					],
					"stateMutability": "view",
					"type": "function"
				},
				{
					"inputs": [],
					"name": "CollegeName",
					"outputs": [
						{
							"internalType": "string",
							"name": "",
							"type": "string"
						}
					],
					"stateMutability": "view",
					"type": "function"
				},
				{
					"inputs": [],
					"name": "collegeDetails",
					"outputs": [
						{
							"internalType": "string",
							"name": "",
							"type": "string"
						},
						{
							"internalType": "string",
							"name": "",
							"type": "string"
						}
					],
					"stateMutability": "view",
					"type": "function"
				},
				{
					"inputs": [],
					"name": "departmentDetails",
					"outputs": [
						{
							"internalType": "string",
							"name": "",
							"type": "string"
						},
						{
							"internalType": "string",
							"name": "",
							"type": "string"
						}
					],
					"stateMutability": "view",
					"type": "function"
				},
				{
					"inputs": [],
					"name": "deptHead",
					"outputs": [
						{
							"internalType": "string",
							"name": "",
							"type": "string"
						}
					],
					"stateMutability": "view",
					"type": "function"
				},
				{
					"inputs": [],
					"name": "depthName",
					"outputs": [
						{
							"internalType": "string",
							"name": "",
							"type": "string"
						}
					],
					"stateMutability": "view",
					"type": "function"
				},
				{
					"inputs": [],
					"name": "marks",
					"outputs": [
						{
							"internalType": "uint256",
							"name": "",
							"type": "uint256"
						}
					],
					"stateMutability": "view",
					"type": "function"
				},
				{
					"inputs": [],
					"name": "printReportCard",
					"outputs": [
						{
							"internalType": "string",
							"name": "",
							"type": "string"
						},
						{
							"internalType": "string",
							"name": "",
							"type": "string"
						},
						{
							"internalType": "string",
							"name": "",
							"type": "string"
						},
						{
							"internalType": "uint256",
							"name": "",
							"type": "uint256"
						},
						{
							"internalType": "string",
							"name": "",
							"type": "string"
						},
						{
							"internalType": "string",
							"name": "",
							"type": "string"
						},
						{
							"internalType": "uint256",
							"name": "",
							"type": "uint256"
						}
					],
					"stateMutability": "view",
					"type": "function"
				},
				{
					"inputs": [],
					"name": "regNo",
					"outputs": [
						{
							"internalType": "uint256",
							"name": "",
							"type": "uint256"
						}
					],
					"stateMutability": "view",
					"type": "function"
				},
				{
					"inputs": [],
					"name": "studentName",
					"outputs": [
						{
							"internalType": "string",
							"name": "",
							"type": "string"
						}
					],
					"stateMutability": "view",
					"type": "function"
				}
			],
			"devdoc": {
				"kind": "dev",
				"methods": {},
				"version": 1
			},
			"evm": {
				"assembly": "    /* \"Practice/Day-10/P2.sol\":534:1525  contract Student is Department,College {... */\n  mstore(0x40, 0x80)\n    /* \"Practice/Day-10/P2.sol\":726:1130  constructor (string memory _studentName,uint _regNo, uint _marks, string memory _CollegeName, string memory _CollegeCode, string memory _deptName, string memory _deptHead) ... */\n  callvalue\n  dup1\n  iszero\n  tag_1\n  jumpi\n  0x00\n  dup1\n  revert\ntag_1:\n  pop\n  mload(0x40)\n  sub(codesize, bytecodeSize)\n  dup1\n  bytecodeSize\n  dup4\n  codecopy\n  dup2\n  dup2\n  add\n  0x40\n  mstore\n  dup2\n  add\n  swap1\n  tag_2\n  swap2\n  swap1\n  tag_3\n  jump\t// in\ntag_2:\n    /* \"Practice/Day-10/P2.sol\":919:928  _deptName */\n  dup2\n    /* \"Practice/Day-10/P2.sol\":930:939  _deptHead */\n  dup2\n    /* \"Practice/Day-10/P2.sol\":345:354  _deptName */\n  dup2\n    /* \"Practice/Day-10/P2.sol\":333:342  depthName */\n  0x00\n    /* \"Practice/Day-10/P2.sol\":333:354  depthName = _deptName */\n  swap1\n  dup2\n  tag_7\n  swap2\n  swap1\n  tag_8\n  jump\t// in\ntag_7:\n  pop\n    /* \"Practice/Day-10/P2.sol\":376:385  _deptHead */\n  dup1\n    /* \"Practice/Day-10/P2.sol\":365:373  deptHead */\n  0x01\n    /* \"Practice/Day-10/P2.sol\":365:385  deptHead = _deptHead */\n  swap1\n  dup2\n  tag_9\n  swap2\n  swap1\n  tag_8\n  jump\t// in\ntag_9:\n  pop\n    /* \"Practice/Day-10/P2.sol\":259:393  constructor (string memory _deptName, string memory _deptHead) {... */\n  pop\n  pop\n    /* \"Practice/Day-10/P2.sol\":970:982  _studentName */\n  dup7\n    /* \"Practice/Day-10/P2.sol\":956:967  studentName */\n  0x02\n    /* \"Practice/Day-10/P2.sol\":956:982  studentName = _studentName */\n  swap1\n  dup2\n  tag_11\n  swap2\n  swap1\n  tag_8\n  jump\t// in\ntag_11:\n  pop\n    /* \"Practice/Day-10/P2.sol\":1005:1011  _regNo */\n  dup6\n    /* \"Practice/Day-10/P2.sol\":997:1002  regNo */\n  0x03\n    /* \"Practice/Day-10/P2.sol\":997:1011  regNo = _regNo */\n  dup2\n  swap1\n  sstore\n  pop\n    /* \"Practice/Day-10/P2.sol\":1034:1040  _marks */\n  dup5\n    /* \"Practice/Day-10/P2.sol\":1026:1031  marks */\n  0x04\n    /* \"Practice/Day-10/P2.sol\":1026:1040  marks = _marks */\n  dup2\n  swap1\n  sstore\n  pop\n    /* \"Practice/Day-10/P2.sol\":1069:1081  _CollegeName */\n  dup4\n    /* \"Practice/Day-10/P2.sol\":1055:1066  CollegeName */\n  0x05\n    /* \"Practice/Day-10/P2.sol\":1055:1081  CollegeName = _CollegeName */\n  swap1\n  dup2\n  tag_12\n  swap2\n  swap1\n  tag_8\n  jump\t// in\ntag_12:\n  pop\n    /* \"Practice/Day-10/P2.sol\":1110:1122  _CollegeCode */\n  dup3\n    /* \"Practice/Day-10/P2.sol\":1096:1107  CollegeCode */\n  0x06\n    /* \"Practice/Day-10/P2.sol\":1096:1122  CollegeCode = _CollegeCode */\n  swap1\n  dup2\n  tag_13\n  swap2\n  swap1\n  tag_8\n  jump\t// in\ntag_13:\n  pop\n    /* \"Practice/Day-10/P2.sol\":726:1130  constructor (string memory _studentName,uint _regNo, uint _marks, string memory _CollegeName, string memory _CollegeCode, string memory _deptName, string memory _deptHead) ... */\n  pop\n  pop\n  pop\n  pop\n  pop\n  pop\n  pop\n    /* \"Practice/Day-10/P2.sol\":534:1525  contract Student is Department,College {... */\n  jump(tag_14)\n    /* \"#utility.yul\":7:82   */\ntag_15:\n    /* \"#utility.yul\":40:46   */\n  0x00\n    /* \"#utility.yul\":73:75   */\n  0x40\n    /* \"#utility.yul\":67:76   */\n  mload\n    /* \"#utility.yul\":57:76   */\n  swap1\n  pop\n    /* \"#utility.yul\":7:82   */\n  swap1\n  jump\t// out\n    /* \"#utility.yul\":88:205   */\ntag_16:\n    /* \"#utility.yul\":197:198   */\n  0x00\n    /* \"#utility.yul\":194:195   */\n  dup1\n    /* \"#utility.yul\":187:199   */\n  revert\n    /* \"#utility.yul\":211:328   */\ntag_17:\n    /* \"#utility.yul\":320:321   */\n  0x00\n    /* \"#utility.yul\":317:318   */\n  dup1\n    /* \"#utility.yul\":310:322   */\n  revert\n    /* \"#utility.yul\":334:451   */\ntag_18:\n    /* \"#utility.yul\":443:444   */\n  0x00\n    /* \"#utility.yul\":440:441   */\n  dup1\n    /* \"#utility.yul\":433:445   */\n  revert\n    /* \"#utility.yul\":457:574   */\ntag_19:\n    /* \"#utility.yul\":566:567   */\n  0x00\n    /* \"#utility.yul\":563:564   */\n  dup1\n    /* \"#utility.yul\":556:568   */\n  revert\n    /* \"#utility.yul\":580:682   */\ntag_20:\n    /* \"#utility.yul\":621:627   */\n  0x00\n    /* \"#utility.yul\":672:674   */\n  0x1f\n    /* \"#utility.yul\":668:675   */\n  not\n    /* \"#utility.yul\":663:665   */\n  0x1f\n    /* \"#utility.yul\":656:661   */\n  dup4\n    /* \"#utility.yul\":652:666   */\n  add\n    /* \"#utility.yul\":648:676   */\n  and\n    /* \"#utility.yul\":638:676   */\n  swap1\n  pop\n    /* \"#utility.yul\":580:682   */\n  swap2\n  swap1\n  pop\n  jump\t// out\n    /* \"#utility.yul\":688:868   */\ntag_21:\n    /* \"#utility.yul\":736:813   */\n  0x4e487b7100000000000000000000000000000000000000000000000000000000\n    /* \"#utility.yul\":733:734   */\n  0x00\n    /* \"#utility.yul\":726:814   */\n  mstore\n    /* \"#utility.yul\":833:837   */\n  0x41\n    /* \"#utility.yul\":830:831   */\n  0x04\n    /* \"#utility.yul\":823:838   */\n  mstore\n    /* \"#utility.yul\":857:861   */\n  0x24\n    /* \"#utility.yul\":854:855   */\n  0x00\n    /* \"#utility.yul\":847:862   */\n  revert\n    /* \"#utility.yul\":874:1155   */\ntag_22:\n    /* \"#utility.yul\":957:984   */\n  tag_58\n    /* \"#utility.yul\":979:983   */\n  dup3\n    /* \"#utility.yul\":957:984   */\n  tag_20\n  jump\t// in\ntag_58:\n    /* \"#utility.yul\":949:955   */\n  dup2\n    /* \"#utility.yul\":945:985   */\n  add\n    /* \"#utility.yul\":1087:1093   */\n  dup2\n    /* \"#utility.yul\":1075:1085   */\n  dup2\n    /* \"#utility.yul\":1072:1094   */\n  lt\n    /* \"#utility.yul\":1051:1069   */\n  0xffffffffffffffff\n    /* \"#utility.yul\":1039:1049   */\n  dup3\n    /* \"#utility.yul\":1036:1070   */\n  gt\n    /* \"#utility.yul\":1033:1095   */\n  or\n    /* \"#utility.yul\":1030:1118   */\n  iszero\n  tag_59\n  jumpi\n    /* \"#utility.yul\":1098:1116   */\n  tag_60\n  tag_21\n  jump\t// in\ntag_60:\n    /* \"#utility.yul\":1030:1118   */\ntag_59:\n    /* \"#utility.yul\":1138:1148   */\n  dup1\n    /* \"#utility.yul\":1134:1136   */\n  0x40\n    /* \"#utility.yul\":1127:1149   */\n  mstore\n    /* \"#utility.yul\":917:1155   */\n  pop\n    /* \"#utility.yul\":874:1155   */\n  pop\n  pop\n  jump\t// out\n    /* \"#utility.yul\":1161:1290   */\ntag_23:\n    /* \"#utility.yul\":1195:1201   */\n  0x00\n    /* \"#utility.yul\":1222:1242   */\n  tag_62\n  tag_15\n  jump\t// in\ntag_62:\n    /* \"#utility.yul\":1212:1242   */\n  swap1\n  pop\n    /* \"#utility.yul\":1251:1284   */\n  tag_63\n    /* \"#utility.yul\":1279:1283   */\n  dup3\n    /* \"#utility.yul\":1271:1277   */\n  dup3\n    /* \"#utility.yul\":1251:1284   */\n  tag_22\n  jump\t// in\ntag_63:\n    /* \"#utility.yul\":1161:1290   */\n  swap2\n  swap1\n  pop\n  jump\t// out\n    /* \"#utility.yul\":1296:1604   */\ntag_24:\n    /* \"#utility.yul\":1358:1362   */\n  0x00\n    /* \"#utility.yul\":1448:1466   */\n  0xffffffffffffffff\n    /* \"#utility.yul\":1440:1446   */\n  dup3\n    /* \"#utility.yul\":1437:1467   */\n  gt\n    /* \"#utility.yul\":1434:1490   */\n  iszero\n  tag_65\n  jumpi\n    /* \"#utility.yul\":1470:1488   */\n  tag_66\n  tag_21\n  jump\t// in\ntag_66:\n    /* \"#utility.yul\":1434:1490   */\ntag_65:\n    /* \"#utility.yul\":1508:1537   */\n  tag_67\n    /* \"#utility.yul\":1530:1536   */\n  dup3\n    /* \"#utility.yul\":1508:1537   */\n  tag_20\n  jump\t// in\ntag_67:\n    /* \"#utility.yul\":1500:1537   */\n  swap1\n  pop\n    /* \"#utility.yul\":1592:1596   */\n  0x20\n    /* \"#utility.yul\":1586:1590   */\n  dup2\n    /* \"#utility.yul\":1582:1597   */\n  add\n    /* \"#utility.yul\":1574:1597   */\n  swap1\n  pop\n    /* \"#utility.yul\":1296:1604   */\n  swap2\n  swap1\n  pop\n  jump\t// out\n    /* \"#utility.yul\":1610:1749   */\ntag_25:\n    /* \"#utility.yul\":1699:1705   */\n  dup3\n    /* \"#utility.yul\":1694:1697   */\n  dup2\n    /* \"#utility.yul\":1689:1692   */\n  dup4\n    /* \"#utility.yul\":1683:1706   */\n  mcopy\n    /* \"#utility.yul\":1740:1741   */\n  0x00\n    /* \"#utility.yul\":1731:1737   */\n  dup4\n    /* \"#utility.yul\":1726:1729   */\n  dup4\n    /* \"#utility.yul\":1722:1738   */\n  add\n    /* \"#utility.yul\":1715:1742   */\n  mstore\n    /* \"#utility.yul\":1610:1749   */\n  pop\n  pop\n  pop\n  jump\t// out\n    /* \"#utility.yul\":1755:2189   */\ntag_26:\n    /* \"#utility.yul\":1844:1849   */\n  0x00\n    /* \"#utility.yul\":1869:1935   */\n  tag_70\n    /* \"#utility.yul\":1885:1934   */\n  tag_71\n    /* \"#utility.yul\":1927:1933   */\n  dup5\n    /* \"#utility.yul\":1885:1934   */\n  tag_24\n  jump\t// in\ntag_71:\n    /* \"#utility.yul\":1869:1935   */\n  tag_23\n  jump\t// in\ntag_70:\n    /* \"#utility.yul\":1860:1935   */\n  swap1\n  pop\n    /* \"#utility.yul\":1958:1964   */\n  dup3\n    /* \"#utility.yul\":1951:1956   */\n  dup2\n    /* \"#utility.yul\":1944:1965   */\n  mstore\n    /* \"#utility.yul\":1996:2000   */\n  0x20\n    /* \"#utility.yul\":1989:1994   */\n  dup2\n    /* \"#utility.yul\":1985:2001   */\n  add\n    /* \"#utility.yul\":2034:2037   */\n  dup5\n    /* \"#utility.yul\":2025:2031   */\n  dup5\n    /* \"#utility.yul\":2020:2023   */\n  dup5\n    /* \"#utility.yul\":2016:2032   */\n  add\n    /* \"#utility.yul\":2013:2038   */\n  gt\n    /* \"#utility.yul\":2010:2122   */\n  iszero\n  tag_72\n  jumpi\n    /* \"#utility.yul\":2041:2120   */\n  tag_73\n  tag_19\n  jump\t// in\ntag_73:\n    /* \"#utility.yul\":2010:2122   */\ntag_72:\n    /* \"#utility.yul\":2131:2183   */\n  tag_74\n    /* \"#utility.yul\":2176:2182   */\n  dup5\n    /* \"#utility.yul\":2171:2174   */\n  dup3\n    /* \"#utility.yul\":2166:2169   */\n  dup6\n    /* \"#utility.yul\":2131:2183   */\n  tag_25\n  jump\t// in\ntag_74:\n    /* \"#utility.yul\":1850:2189   */\n  pop\n    /* \"#utility.yul\":1755:2189   */\n  swap4\n  swap3\n  pop\n  pop\n  pop\n  jump\t// out\n    /* \"#utility.yul\":2209:2564   */\ntag_27:\n    /* \"#utility.yul\":2276:2281   */\n  0x00\n    /* \"#utility.yul\":2325:2328   */\n  dup3\n    /* \"#utility.yul\":2318:2322   */\n  0x1f\n    /* \"#utility.yul\":2310:2316   */\n  dup4\n    /* \"#utility.yul\":2306:2323   */\n  add\n    /* \"#utility.yul\":2302:2329   */\n  slt\n    /* \"#utility.yul\":2292:2414   */\n  tag_76\n  jumpi\n    /* \"#utility.yul\":2333:2412   */\n  tag_77\n  tag_18\n  jump\t// in\ntag_77:\n    /* \"#utility.yul\":2292:2414   */\ntag_76:\n    /* \"#utility.yul\":2443:2449   */\n  dup2\n    /* \"#utility.yul\":2437:2450   */\n  mload\n    /* \"#utility.yul\":2468:2558   */\n  tag_78\n    /* \"#utility.yul\":2554:2557   */\n  dup5\n    /* \"#utility.yul\":2546:2552   */\n  dup3\n    /* \"#utility.yul\":2539:2543   */\n  0x20\n    /* \"#utility.yul\":2531:2537   */\n  dup7\n    /* \"#utility.yul\":2527:2544   */\n  add\n    /* \"#utility.yul\":2468:2558   */\n  tag_26\n  jump\t// in\ntag_78:\n    /* \"#utility.yul\":2459:2558   */\n  swap2\n  pop\n    /* \"#utility.yul\":2282:2564   */\n  pop\n    /* \"#utility.yul\":2209:2564   */\n  swap3\n  swap2\n  pop\n  pop\n  jump\t// out\n    /* \"#utility.yul\":2570:2647   */\ntag_28:\n    /* \"#utility.yul\":2607:2614   */\n  0x00\n    /* \"#utility.yul\":2636:2641   */\n  dup2\n    /* \"#utility.yul\":2625:2641   */\n  swap1\n  pop\n    /* \"#utility.yul\":2570:2647   */\n  swap2\n  swap1\n  pop\n  jump\t// out\n    /* \"#utility.yul\":2653:2775   */\ntag_29:\n    /* \"#utility.yul\":2726:2750   */\n  tag_81\n    /* \"#utility.yul\":2744:2749   */\n  dup2\n    /* \"#utility.yul\":2726:2750   */\n  tag_28\n  jump\t// in\ntag_81:\n    /* \"#utility.yul\":2719:2724   */\n  dup2\n    /* \"#utility.yul\":2716:2751   */\n  eq\n    /* \"#utility.yul\":2706:2769   */\n  tag_82\n  jumpi\n    /* \"#utility.yul\":2765:2766   */\n  0x00\n    /* \"#utility.yul\":2762:2763   */\n  dup1\n    /* \"#utility.yul\":2755:2767   */\n  revert\n    /* \"#utility.yul\":2706:2769   */\ntag_82:\n    /* \"#utility.yul\":2653:2775   */\n  pop\n  jump\t// out\n    /* \"#utility.yul\":2781:2924   */\ntag_30:\n    /* \"#utility.yul\":2838:2843   */\n  0x00\n    /* \"#utility.yul\":2869:2875   */\n  dup2\n    /* \"#utility.yul\":2863:2876   */\n  mload\n    /* \"#utility.yul\":2854:2876   */\n  swap1\n  pop\n    /* \"#utility.yul\":2885:2918   */\n  tag_84\n    /* \"#utility.yul\":2912:2917   */\n  dup2\n    /* \"#utility.yul\":2885:2918   */\n  tag_29\n  jump\t// in\ntag_84:\n    /* \"#utility.yul\":2781:2924   */\n  swap3\n  swap2\n  pop\n  pop\n  jump\t// out\n    /* \"#utility.yul\":2930:5086   */\ntag_3:\n    /* \"#utility.yul\":3104:3110   */\n  0x00\n    /* \"#utility.yul\":3112:3118   */\n  dup1\n    /* \"#utility.yul\":3120:3126   */\n  0x00\n    /* \"#utility.yul\":3128:3134   */\n  dup1\n    /* \"#utility.yul\":3136:3142   */\n  0x00\n    /* \"#utility.yul\":3144:3150   */\n  dup1\n    /* \"#utility.yul\":3152:3158   */\n  0x00\n    /* \"#utility.yul\":3201:3204   */\n  0xe0\n    /* \"#utility.yul\":3189:3198   */\n  dup9\n    /* \"#utility.yul\":3180:3187   */\n  dup11\n    /* \"#utility.yul\":3176:3199   */\n  sub\n    /* \"#utility.yul\":3172:3205   */\n  slt\n    /* \"#utility.yul\":3169:3289   */\n  iszero\n  tag_86\n  jumpi\n    /* \"#utility.yul\":3208:3287   */\n  tag_87\n  tag_16\n  jump\t// in\ntag_87:\n    /* \"#utility.yul\":3169:3289   */\ntag_86:\n    /* \"#utility.yul\":3349:3350   */\n  0x00\n    /* \"#utility.yul\":3338:3347   */\n  dup9\n    /* \"#utility.yul\":3334:3351   */\n  add\n    /* \"#utility.yul\":3328:3352   */\n  mload\n    /* \"#utility.yul\":3379:3397   */\n  0xffffffffffffffff\n    /* \"#utility.yul\":3371:3377   */\n  dup2\n    /* \"#utility.yul\":3368:3398   */\n  gt\n    /* \"#utility.yul\":3365:3482   */\n  iszero\n  tag_88\n  jumpi\n    /* \"#utility.yul\":3401:3480   */\n  tag_89\n  tag_17\n  jump\t// in\ntag_89:\n    /* \"#utility.yul\":3365:3482   */\ntag_88:\n    /* \"#utility.yul\":3506:3580   */\n  tag_90\n    /* \"#utility.yul\":3572:3579   */\n  dup11\n    /* \"#utility.yul\":3563:3569   */\n  dup3\n    /* \"#utility.yul\":3552:3561   */\n  dup12\n    /* \"#utility.yul\":3548:3570   */\n  add\n    /* \"#utility.yul\":3506:3580   */\n  tag_27\n  jump\t// in\ntag_90:\n    /* \"#utility.yul\":3496:3580   */\n  swap8\n  pop\n    /* \"#utility.yul\":3299:3590   */\n  pop\n    /* \"#utility.yul\":3629:3631   */\n  0x20\n    /* \"#utility.yul\":3655:3719   */\n  tag_91\n    /* \"#utility.yul\":3711:3718   */\n  dup11\n    /* \"#utility.yul\":3702:3708   */\n  dup3\n    /* \"#utility.yul\":3691:3700   */\n  dup12\n    /* \"#utility.yul\":3687:3709   */\n  add\n    /* \"#utility.yul\":3655:3719   */\n  tag_30\n  jump\t// in\ntag_91:\n    /* \"#utility.yul\":3645:3719   */\n  swap7\n  pop\n    /* \"#utility.yul\":3600:3729   */\n  pop\n    /* \"#utility.yul\":3768:3770   */\n  0x40\n    /* \"#utility.yul\":3794:3858   */\n  tag_92\n    /* \"#utility.yul\":3850:3857   */\n  dup11\n    /* \"#utility.yul\":3841:3847   */\n  dup3\n    /* \"#utility.yul\":3830:3839   */\n  dup12\n    /* \"#utility.yul\":3826:3848   */\n  add\n    /* \"#utility.yul\":3794:3858   */\n  tag_30\n  jump\t// in\ntag_92:\n    /* \"#utility.yul\":3784:3858   */\n  swap6\n  pop\n    /* \"#utility.yul\":3739:3868   */\n  pop\n    /* \"#utility.yul\":3928:3930   */\n  0x60\n    /* \"#utility.yul\":3917:3926   */\n  dup9\n    /* \"#utility.yul\":3913:3931   */\n  add\n    /* \"#utility.yul\":3907:3932   */\n  mload\n    /* \"#utility.yul\":3959:3977   */\n  0xffffffffffffffff\n    /* \"#utility.yul\":3951:3957   */\n  dup2\n    /* \"#utility.yul\":3948:3978   */\n  gt\n    /* \"#utility.yul\":3945:4062   */\n  iszero\n  tag_93\n  jumpi\n    /* \"#utility.yul\":3981:4060   */\n  tag_94\n  tag_17\n  jump\t// in\ntag_94:\n    /* \"#utility.yul\":3945:4062   */\ntag_93:\n    /* \"#utility.yul\":4086:4160   */\n  tag_95\n    /* \"#utility.yul\":4152:4159   */\n  dup11\n    /* \"#utility.yul\":4143:4149   */\n  dup3\n    /* \"#utility.yul\":4132:4141   */\n  dup12\n    /* \"#utility.yul\":4128:4150   */\n  add\n    /* \"#utility.yul\":4086:4160   */\n  tag_27\n  jump\t// in\ntag_95:\n    /* \"#utility.yul\":4076:4160   */\n  swap5\n  pop\n    /* \"#utility.yul\":3878:4170   */\n  pop\n    /* \"#utility.yul\":4230:4233   */\n  0x80\n    /* \"#utility.yul\":4219:4228   */\n  dup9\n    /* \"#utility.yul\":4215:4234   */\n  add\n    /* \"#utility.yul\":4209:4235   */\n  mload\n    /* \"#utility.yul\":4262:4280   */\n  0xffffffffffffffff\n    /* \"#utility.yul\":4254:4260   */\n  dup2\n    /* \"#utility.yul\":4251:4281   */\n  gt\n    /* \"#utility.yul\":4248:4365   */\n  iszero\n  tag_96\n  jumpi\n    /* \"#utility.yul\":4284:4363   */\n  tag_97\n  tag_17\n  jump\t// in\ntag_97:\n    /* \"#utility.yul\":4248:4365   */\ntag_96:\n    /* \"#utility.yul\":4389:4463   */\n  tag_98\n    /* \"#utility.yul\":4455:4462   */\n  dup11\n    /* \"#utility.yul\":4446:4452   */\n  dup3\n    /* \"#utility.yul\":4435:4444   */\n  dup12\n    /* \"#utility.yul\":4431:4453   */\n  add\n    /* \"#utility.yul\":4389:4463   */\n  tag_27\n  jump\t// in\ntag_98:\n    /* \"#utility.yul\":4379:4463   */\n  swap4\n  pop\n    /* \"#utility.yul\":4180:4473   */\n  pop\n    /* \"#utility.yul\":4533:4536   */\n  0xa0\n    /* \"#utility.yul\":4522:4531   */\n  dup9\n    /* \"#utility.yul\":4518:4537   */\n  add\n    /* \"#utility.yul\":4512:4538   */\n  mload\n    /* \"#utility.yul\":4565:4583   */\n  0xffffffffffffffff\n    /* \"#utility.yul\":4557:4563   */\n  dup2\n    /* \"#utility.yul\":4554:4584   */\n  gt\n    /* \"#utility.yul\":4551:4668   */\n  iszero\n  tag_99\n  jumpi\n    /* \"#utility.yul\":4587:4666   */\n  tag_100\n  tag_17\n  jump\t// in\ntag_100:\n    /* \"#utility.yul\":4551:4668   */\ntag_99:\n    /* \"#utility.yul\":4692:4766   */\n  tag_101\n    /* \"#utility.yul\":4758:4765   */\n  dup11\n    /* \"#utility.yul\":4749:4755   */\n  dup3\n    /* \"#utility.yul\":4738:4747   */\n  dup12\n    /* \"#utility.yul\":4734:4756   */\n  add\n    /* \"#utility.yul\":4692:4766   */\n  tag_27\n  jump\t// in\ntag_101:\n    /* \"#utility.yul\":4682:4766   */\n  swap3\n  pop\n    /* \"#utility.yul\":4483:4776   */\n  pop\n    /* \"#utility.yul\":4836:4839   */\n  0xc0\n    /* \"#utility.yul\":4825:4834   */\n  dup9\n    /* \"#utility.yul\":4821:4840   */\n  add\n    /* \"#utility.yul\":4815:4841   */\n  mload\n    /* \"#utility.yul\":4868:4886   */\n  0xffffffffffffffff\n    /* \"#utility.yul\":4860:4866   */\n  dup2\n    /* \"#utility.yul\":4857:4887   */\n  gt\n    /* \"#utility.yul\":4854:4971   */\n  iszero\n  tag_102\n  jumpi\n    /* \"#utility.yul\":4890:4969   */\n  tag_103\n  tag_17\n  jump\t// in\ntag_103:\n    /* \"#utility.yul\":4854:4971   */\ntag_102:\n    /* \"#utility.yul\":4995:5069   */\n  tag_104\n    /* \"#utility.yul\":5061:5068   */\n  dup11\n    /* \"#utility.yul\":5052:5058   */\n  dup3\n    /* \"#utility.yul\":5041:5050   */\n  dup12\n    /* \"#utility.yul\":5037:5059   */\n  add\n    /* \"#utility.yul\":4995:5069   */\n  tag_27\n  jump\t// in\ntag_104:\n    /* \"#utility.yul\":4985:5069   */\n  swap2\n  pop\n    /* \"#utility.yul\":4786:5079   */\n  pop\n    /* \"#utility.yul\":2930:5086   */\n  swap3\n  swap6\n  swap9\n  swap2\n  swap5\n  swap8\n  pop\n  swap3\n  swap6\n  pop\n  jump\t// out\n    /* \"#utility.yul\":5092:5191   */\ntag_31:\n    /* \"#utility.yul\":5144:5150   */\n  0x00\n    /* \"#utility.yul\":5178:5183   */\n  dup2\n    /* \"#utility.yul\":5172:5184   */\n  mload\n    /* \"#utility.yul\":5162:5184   */\n  swap1\n  pop\n    /* \"#utility.yul\":5092:5191   */\n  swap2\n  swap1\n  pop\n  jump\t// out\n    /* \"#utility.yul\":5197:5377   */\ntag_32:\n    /* \"#utility.yul\":5245:5322   */\n  0x4e487b7100000000000000000000000000000000000000000000000000000000\n    /* \"#utility.yul\":5242:5243   */\n  0x00\n    /* \"#utility.yul\":5235:5323   */\n  mstore\n    /* \"#utility.yul\":5342:5346   */\n  0x22\n    /* \"#utility.yul\":5339:5340   */\n  0x04\n    /* \"#utility.yul\":5332:5347   */\n  mstore\n    /* \"#utility.yul\":5366:5370   */\n  0x24\n    /* \"#utility.yul\":5363:5364   */\n  0x00\n    /* \"#utility.yul\":5356:5371   */\n  revert\n    /* \"#utility.yul\":5383:5703   */\ntag_33:\n    /* \"#utility.yul\":5427:5433   */\n  0x00\n    /* \"#utility.yul\":5464:5465   */\n  0x02\n    /* \"#utility.yul\":5458:5462   */\n  dup3\n    /* \"#utility.yul\":5454:5466   */\n  div\n    /* \"#utility.yul\":5444:5466   */\n  swap1\n  pop\n    /* \"#utility.yul\":5511:5512   */\n  0x01\n    /* \"#utility.yul\":5505:5509   */\n  dup3\n    /* \"#utility.yul\":5501:5513   */\n  and\n    /* \"#utility.yul\":5532:5550   */\n  dup1\n    /* \"#utility.yul\":5522:5603   */\n  tag_108\n  jumpi\n    /* \"#utility.yul\":5588:5592   */\n  0x7f\n    /* \"#utility.yul\":5580:5586   */\n  dup3\n    /* \"#utility.yul\":5576:5593   */\n  and\n    /* \"#utility.yul\":5566:5593   */\n  swap2\n  pop\n    /* \"#utility.yul\":5522:5603   */\ntag_108:\n    /* \"#utility.yul\":5650:5652   */\n  0x20\n    /* \"#utility.yul\":5642:5648   */\n  dup3\n    /* \"#utility.yul\":5639:5653   */\n  lt\n    /* \"#utility.yul\":5619:5637   */\n  dup2\n    /* \"#utility.yul\":5616:5654   */\n  sub\n    /* \"#utility.yul\":5613:5697   */\n  tag_109\n  jumpi\n    /* \"#utility.yul\":5669:5687   */\n  tag_110\n  tag_32\n  jump\t// in\ntag_110:\n    /* \"#utility.yul\":5613:5697   */\ntag_109:\n    /* \"#utility.yul\":5434:5703   */\n  pop\n    /* \"#utility.yul\":5383:5703   */\n  swap2\n  swap1\n  pop\n  jump\t// out\n    /* \"#utility.yul\":5709:5850   */\ntag_34:\n    /* \"#utility.yul\":5758:5762   */\n  0x00\n    /* \"#utility.yul\":5781:5784   */\n  dup2\n    /* \"#utility.yul\":5773:5784   */\n  swap1\n  pop\n    /* \"#utility.yul\":5804:5807   */\n  dup2\n    /* \"#utility.yul\":5801:5802   */\n  0x00\n    /* \"#utility.yul\":5794:5808   */\n  mstore\n    /* \"#utility.yul\":5838:5842   */\n  0x20\n    /* \"#utility.yul\":5835:5836   */\n  0x00\n    /* \"#utility.yul\":5825:5843   */\n  keccak256\n    /* \"#utility.yul\":5817:5843   */\n  swap1\n  pop\n    /* \"#utility.yul\":5709:5850   */\n  swap2\n  swap1\n  pop\n  jump\t// out\n    /* \"#utility.yul\":5856:5949   */\ntag_35:\n    /* \"#utility.yul\":5893:5899   */\n  0x00\n    /* \"#utility.yul\":5940:5942   */\n  0x20\n    /* \"#utility.yul\":5935:5937   */\n  0x1f\n    /* \"#utility.yul\":5928:5933   */\n  dup4\n    /* \"#utility.yul\":5924:5938   */\n  add\n    /* \"#utility.yul\":5920:5943   */\n  div\n    /* \"#utility.yul\":5910:5943   */\n  swap1\n  pop\n    /* \"#utility.yul\":5856:5949   */\n  swap2\n  swap1\n  pop\n  jump\t// out\n    /* \"#utility.yul\":5955:6062   */\ntag_36:\n    /* \"#utility.yul\":5999:6007   */\n  0x00\n    /* \"#utility.yul\":6049:6054   */\n  dup3\n    /* \"#utility.yul\":6043:6047   */\n  dup3\n    /* \"#utility.yul\":6039:6055   */\n  shl\n    /* \"#utility.yul\":6018:6055   */\n  swap1\n  pop\n    /* \"#utility.yul\":5955:6062   */\n  swap3\n  swap2\n  pop\n  pop\n  jump\t// out\n    /* \"#utility.yul\":6068:6461   */\ntag_37:\n    /* \"#utility.yul\":6137:6143   */\n  0x00\n    /* \"#utility.yul\":6187:6188   */\n  0x08\n    /* \"#utility.yul\":6175:6185   */\n  dup4\n    /* \"#utility.yul\":6171:6189   */\n  mul\n    /* \"#utility.yul\":6210:6307   */\n  tag_115\n    /* \"#utility.yul\":6240:6306   */\n  0xffffffffffffffffffffffffffffffffffffffffffffffffffffffffffffffff\n    /* \"#utility.yul\":6229:6238   */\n  dup3\n    /* \"#utility.yul\":6210:6307   */\n  tag_36\n  jump\t// in\ntag_115:\n    /* \"#utility.yul\":6328:6367   */\n  tag_116\n    /* \"#utility.yul\":6358:6366   */\n  dup7\n    /* \"#utility.yul\":6347:6356   */\n  dup4\n    /* \"#utility.yul\":6328:6367   */\n  tag_36\n  jump\t// in\ntag_116:\n    /* \"#utility.yul\":6316:6367   */\n  swap6\n  pop\n    /* \"#utility.yul\":6400:6404   */\n  dup1\n    /* \"#utility.yul\":6396:6405   */\n  not\n    /* \"#utility.yul\":6389:6394   */\n  dup5\n    /* \"#utility.yul\":6385:6406   */\n  and\n    /* \"#utility.yul\":6376:6406   */\n  swap4\n  pop\n    /* \"#utility.yul\":6449:6453   */\n  dup1\n    /* \"#utility.yul\":6439:6447   */\n  dup7\n    /* \"#utility.yul\":6435:6454   */\n  and\n    /* \"#utility.yul\":6428:6433   */\n  dup5\n    /* \"#utility.yul\":6425:6455   */\n  or\n    /* \"#utility.yul\":6415:6455   */\n  swap3\n  pop\n    /* \"#utility.yul\":6144:6461   */\n  pop\n  pop\n    /* \"#utility.yul\":6068:6461   */\n  swap4\n  swap3\n  pop\n  pop\n  pop\n  jump\t// out\n    /* \"#utility.yul\":6467:6527   */\ntag_38:\n    /* \"#utility.yul\":6495:6498   */\n  0x00\n    /* \"#utility.yul\":6516:6521   */\n  dup2\n    /* \"#utility.yul\":6509:6521   */\n  swap1\n  pop\n    /* \"#utility.yul\":6467:6527   */\n  swap2\n  swap1\n  pop\n  jump\t// out\n    /* \"#utility.yul\":6533:6675   */\ntag_39:\n    /* \"#utility.yul\":6583:6592   */\n  0x00\n    /* \"#utility.yul\":6616:6669   */\n  tag_119\n    /* \"#utility.yul\":6634:6668   */\n  tag_120\n    /* \"#utility.yul\":6643:6667   */\n  tag_121\n    /* \"#utility.yul\":6661:6666   */\n  dup5\n    /* \"#utility.yul\":6643:6667   */\n  tag_28\n  jump\t// in\ntag_121:\n    /* \"#utility.yul\":6634:6668   */\n  tag_38\n  jump\t// in\ntag_120:\n    /* \"#utility.yul\":6616:6669   */\n  tag_28\n  jump\t// in\ntag_119:\n    /* \"#utility.yul\":6603:6669   */\n  swap1\n  pop\n    /* \"#utility.yul\":6533:6675   */\n  swap2\n  swap1\n  pop\n  jump\t// out\n    /* \"#utility.yul\":6681:6756   */\ntag_40:\n    /* \"#utility.yul\":6724:6727   */\n  0x00\n    /* \"#utility.yul\":6745:6750   */\n  dup2\n    /* \"#utility.yul\":6738:6750   */\n  swap1\n  pop\n    /* \"#utility.yul\":6681:6756   */\n  swap2\n  swap1\n  pop\n  jump\t// out\n    /* \"#utility.yul\":6762:7031   */\ntag_41:\n    /* \"#utility.yul\":6872:6911   */\n  tag_124\n    /* \"#utility.yul\":6903:6910   */\n  dup4\n    /* \"#utility.yul\":6872:6911   */\n  tag_39\n  jump\t// in\ntag_124:\n    /* \"#utility.yul\":6933:7024   */\n  tag_125\n    /* \"#utility.yul\":6982:7023   */\n  tag_126\n    /* \"#utility.yul\":7006:7022   */\n  dup3\n    /* \"#utility.yul\":6982:7023   */\n  tag_40\n  jump\t// in\ntag_126:\n    /* \"#utility.yul\":6974:6980   */\n  dup5\n    /* \"#utility.yul\":6967:6971   */\n  dup5\n    /* \"#utility.yul\":6961:6972   */\n  sload\n    /* \"#utility.yul\":6933:7024   */\n  tag_37\n  jump\t// in\ntag_125:\n    /* \"#utility.yul\":6927:6931   */\n  dup3\n    /* \"#utility.yul\":6920:7025   */\n  sstore\n    /* \"#utility.yul\":6838:7031   */\n  pop\n    /* \"#utility.yul\":6762:7031   */\n  pop\n  pop\n  pop\n  jump\t// out\n    /* \"#utility.yul\":7037:7110   */\ntag_42:\n    /* \"#utility.yul\":7082:7085   */\n  0x00\n    /* \"#utility.yul\":7037:7110   */\n  swap1\n  jump\t// out\n    /* \"#utility.yul\":7116:7305   */\ntag_43:\n    /* \"#utility.yul\":7193:7225   */\n  tag_129\n  tag_42\n  jump\t// in\ntag_129:\n    /* \"#utility.yul\":7234:7299   */\n  tag_130\n    /* \"#utility.yul\":7292:7298   */\n  dup2\n    /* \"#utility.yul\":7284:7290   */\n  dup5\n    /* \"#utility.yul\":7278:7282   */\n  dup5\n    /* \"#utility.yul\":7234:7299   */\n  tag_41\n  jump\t// in\ntag_130:\n    /* \"#utility.yul\":7169:7305   */\n  pop\n    /* \"#utility.yul\":7116:7305   */\n  pop\n  pop\n  jump\t// out\n    /* \"#utility.yul\":7311:7497   */\ntag_44:\n    /* \"#utility.yul\":7371:7491   */\ntag_132:\n    /* \"#utility.yul\":7388:7391   */\n  dup2\n    /* \"#utility.yul\":7381:7386   */\n  dup2\n    /* \"#utility.yul\":7378:7392   */\n  lt\n    /* \"#utility.yul\":7371:7491   */\n  iszero\n  tag_134\n  jumpi\n    /* \"#utility.yul\":7442:7481   */\n  tag_135\n    /* \"#utility.yul\":7479:7480   */\n  0x00\n    /* \"#utility.yul\":7472:7477   */\n  dup3\n    /* \"#utility.yul\":7442:7481   */\n  tag_43\n  jump\t// in\ntag_135:\n    /* \"#utility.yul\":7415:7416   */\n  0x01\n    /* \"#utility.yul\":7408:7413   */\n  dup2\n    /* \"#utility.yul\":7404:7417   */\n  add\n    /* \"#utility.yul\":7395:7417   */\n  swap1\n  pop\n    /* \"#utility.yul\":7371:7491   */\n  jump(tag_132)\ntag_134:\n    /* \"#utility.yul\":7311:7497   */\n  pop\n  pop\n  jump\t// out\n    /* \"#utility.yul\":7503:8046   */\ntag_45:\n    /* \"#utility.yul\":7604:7606   */\n  0x1f\n    /* \"#utility.yul\":7599:7602   */\n  dup3\n    /* \"#utility.yul\":7596:7607   */\n  gt\n    /* \"#utility.yul\":7593:8039   */\n  iszero\n  tag_137\n  jumpi\n    /* \"#utility.yul\":7638:7676   */\n  tag_138\n    /* \"#utility.yul\":7670:7675   */\n  dup2\n    /* \"#utility.yul\":7638:7676   */\n  tag_34\n  jump\t// in\ntag_138:\n    /* \"#utility.yul\":7722:7751   */\n  tag_139\n    /* \"#utility.yul\":7740:7750   */\n  dup5\n    /* \"#utility.yul\":7722:7751   */\n  tag_35\n  jump\t// in\ntag_139:\n    /* \"#utility.yul\":7712:7720   */\n  dup2\n    /* \"#utility.yul\":7708:7752   */\n  add\n    /* \"#utility.yul\":7905:7907   */\n  0x20\n    /* \"#utility.yul\":7893:7903   */\n  dup6\n    /* \"#utility.yul\":7890:7908   */\n  lt\n    /* \"#utility.yul\":7887:7936   */\n  iszero\n  tag_140\n  jumpi\n    /* \"#utility.yul\":7926:7934   */\n  dup2\n    /* \"#utility.yul\":7911:7934   */\n  swap1\n  pop\n    /* \"#utility.yul\":7887:7936   */\ntag_140:\n    /* \"#utility.yul\":7949:8029   */\n  tag_141\n    /* \"#utility.yul\":8005:8027   */\n  tag_142\n    /* \"#utility.yul\":8023:8026   */\n  dup6\n    /* \"#utility.yul\":8005:8027   */\n  tag_35\n  jump\t// in\ntag_142:\n    /* \"#utility.yul\":7995:8003   */\n  dup4\n    /* \"#utility.yul\":7991:8028   */\n  add\n    /* \"#utility.yul\":7978:7989   */\n  dup3\n    /* \"#utility.yul\":7949:8029   */\n  tag_44\n  jump\t// in\ntag_141:\n    /* \"#utility.yul\":7608:8039   */\n  pop\n  pop\n    /* \"#utility.yul\":7593:8039   */\ntag_137:\n    /* \"#utility.yul\":7503:8046   */\n  pop\n  pop\n  pop\n  jump\t// out\n    /* \"#utility.yul\":8052:8169   */\ntag_46:\n    /* \"#utility.yul\":8106:8114   */\n  0x00\n    /* \"#utility.yul\":8156:8161   */\n  dup3\n    /* \"#utility.yul\":8150:8154   */\n  dup3\n    /* \"#utility.yul\":8146:8162   */\n  shr\n    /* \"#utility.yul\":8125:8162   */\n  swap1\n  pop\n    /* \"#utility.yul\":8052:8169   */\n  swap3\n  swap2\n  pop\n  pop\n  jump\t// out\n    /* \"#utility.yul\":8175:8344   */\ntag_47:\n    /* \"#utility.yul\":8219:8225   */\n  0x00\n    /* \"#utility.yul\":8252:8303   */\n  tag_145\n    /* \"#utility.yul\":8300:8301   */\n  0x00\n    /* \"#utility.yul\":8296:8302   */\n  not\n    /* \"#utility.yul\":8288:8293   */\n  dup5\n    /* \"#utility.yul\":8285:8286   */\n  0x08\n    /* \"#utility.yul\":8281:8294   */\n  mul\n    /* \"#utility.yul\":8252:8303   */\n  tag_46\n  jump\t// in\ntag_145:\n    /* \"#utility.yul\":8248:8304   */\n  not\n    /* \"#utility.yul\":8333:8337   */\n  dup1\n    /* \"#utility.yul\":8327:8331   */\n  dup4\n    /* \"#utility.yul\":8323:8338   */\n  and\n    /* \"#utility.yul\":8313:8338   */\n  swap2\n  pop\n    /* \"#utility.yul\":8226:8344   */\n  pop\n    /* \"#utility.yul\":8175:8344   */\n  swap3\n  swap2\n  pop\n  pop\n  jump\t// out\n    /* \"#utility.yul\":8349:8644   */\ntag_48:\n    /* \"#utility.yul\":8425:8429   */\n  0x00\n    /* \"#utility.yul\":8571:8600   */\n  tag_147\n    /* \"#utility.yul\":8596:8599   */\n  dup4\n    /* \"#utility.yul\":8590:8594   */\n  dup4\n    /* \"#utility.yul\":8571:8600   */\n  tag_47\n  jump\t// in\ntag_147:\n    /* \"#utility.yul\":8563:8600   */\n  swap2\n  pop\n    /* \"#utility.yul\":8633:8636   */\n  dup3\n    /* \"#utility.yul\":8630:8631   */\n  0x02\n    /* \"#utility.yul\":8626:8637   */\n  mul\n    /* \"#utility.yul\":8620:8624   */\n  dup3\n    /* \"#utility.yul\":8617:8638   */\n  or\n    /* \"#utility.yul\":8609:8638   */\n  swap1\n  pop\n    /* \"#utility.yul\":8349:8644   */\n  swap3\n  swap2\n  pop\n  pop\n  jump\t// out\n    /* \"#utility.yul\":8649:10044   */\ntag_8:\n    /* \"#utility.yul\":8766:8803   */\n  tag_149\n    /* \"#utility.yul\":8799:8802   */\n  dup3\n    /* \"#utility.yul\":8766:8803   */\n  tag_31\n  jump\t// in\ntag_149:\n    /* \"#utility.yul\":8868:8886   */\n  0xffffffffffffffff\n    /* \"#utility.yul\":8860:8866   */\n  dup2\n    /* \"#utility.yul\":8857:8887   */\n  gt\n    /* \"#utility.yul\":8854:8910   */\n  iszero\n  tag_150\n  jumpi\n    /* \"#utility.yul\":8890:8908   */\n  tag_151\n  tag_21\n  jump\t// in\ntag_151:\n    /* \"#utility.yul\":8854:8910   */\ntag_150:\n    /* \"#utility.yul\":8934:8972   */\n  tag_152\n    /* \"#utility.yul\":8966:8970   */\n  dup3\n    /* \"#utility.yul\":8960:8971   */\n  sload\n    /* \"#utility.yul\":8934:8972   */\n  tag_33\n  jump\t// in\ntag_152:\n    /* \"#utility.yul\":9019:9086   */\n  tag_153\n    /* \"#utility.yul\":9079:9085   */\n  dup3\n    /* \"#utility.yul\":9071:9077   */\n  dup3\n    /* \"#utility.yul\":9065:9069   */\n  dup6\n    /* \"#utility.yul\":9019:9086   */\n  tag_45\n  jump\t// in\ntag_153:\n    /* \"#utility.yul\":9113:9114   */\n  0x00\n    /* \"#utility.yul\":9137:9141   */\n  0x20\n    /* \"#utility.yul\":9124:9141   */\n  swap1\n  pop\n    /* \"#utility.yul\":9169:9171   */\n  0x1f\n    /* \"#utility.yul\":9161:9167   */\n  dup4\n    /* \"#utility.yul\":9158:9172   */\n  gt\n    /* \"#utility.yul\":9186:9187   */\n  0x01\n    /* \"#utility.yul\":9181:9799   */\n  dup2\n  eq\n  tag_155\n  jumpi\n    /* \"#utility.yul\":9843:9844   */\n  0x00\n    /* \"#utility.yul\":9860:9866   */\n  dup5\n    /* \"#utility.yul\":9857:9934   */\n  iszero\n  tag_156\n  jumpi\n    /* \"#utility.yul\":9909:9918   */\n  dup3\n    /* \"#utility.yul\":9904:9907   */\n  dup8\n    /* \"#utility.yul\":9900:9919   */\n  add\n    /* \"#utility.yul\":9894:9920   */\n  mload\n    /* \"#utility.yul\":9885:9920   */\n  swap1\n  pop\n    /* \"#utility.yul\":9857:9934   */\ntag_156:\n    /* \"#utility.yul\":9960:10027   */\n  tag_157\n    /* \"#utility.yul\":10020:10026   */\n  dup6\n    /* \"#utility.yul\":10013:10018   */\n  dup3\n    /* \"#utility.yul\":9960:10027   */\n  tag_48\n  jump\t// in\ntag_157:\n    /* \"#utility.yul\":9954:9958   */\n  dup7\n    /* \"#utility.yul\":9947:10028   */\n  sstore\n    /* \"#utility.yul\":9816:10038   */\n  pop\n    /* \"#utility.yul\":9151:10038   */\n  jump(tag_154)\n    /* \"#utility.yul\":9181:9799   */\ntag_155:\n    /* \"#utility.yul\":9233:9237   */\n  0x1f\n    /* \"#utility.yul\":9229:9238   */\n  not\n    /* \"#utility.yul\":9221:9227   */\n  dup5\n    /* \"#utility.yul\":9217:9239   */\n  and\n    /* \"#utility.yul\":9267:9304   */\n  tag_158\n    /* \"#utility.yul\":9299:9303   */\n  dup7\n    /* \"#utility.yul\":9267:9304   */\n  tag_34\n  jump\t// in\ntag_158:\n    /* \"#utility.yul\":9326:9327   */\n  0x00\n    /* \"#utility.yul\":9340:9548   */\ntag_159:\n    /* \"#utility.yul\":9354:9361   */\n  dup3\n    /* \"#utility.yul\":9351:9352   */\n  dup2\n    /* \"#utility.yul\":9348:9362   */\n  lt\n    /* \"#utility.yul\":9340:9548   */\n  iszero\n  tag_161\n  jumpi\n    /* \"#utility.yul\":9433:9442   */\n  dup5\n    /* \"#utility.yul\":9428:9431   */\n  dup10\n    /* \"#utility.yul\":9424:9443   */\n  add\n    /* \"#utility.yul\":9418:9444   */\n  mload\n    /* \"#utility.yul\":9410:9416   */\n  dup3\n    /* \"#utility.yul\":9403:9445   */\n  sstore\n    /* \"#utility.yul\":9484:9485   */\n  0x01\n    /* \"#utility.yul\":9476:9482   */\n  dup3\n    /* \"#utility.yul\":9472:9486   */\n  add\n    /* \"#utility.yul\":9462:9486   */\n  swap2\n  pop\n    /* \"#utility.yul\":9531:9533   */\n  0x20\n    /* \"#utility.yul\":9520:9529   */\n  dup6\n    /* \"#utility.yul\":9516:9534   */\n  add\n    /* \"#utility.yul\":9503:9534   */\n  swap5\n  pop\n    /* \"#utility.yul\":9377:9381   */\n  0x20\n    /* \"#utility.yul\":9374:9375   */\n  dup2\n    /* \"#utility.yul\":9370:9382   */\n  add\n    /* \"#utility.yul\":9365:9382   */\n  swap1\n  pop\n    /* \"#utility.yul\":9340:9548   */\n  jump(tag_159)\ntag_161:\n    /* \"#utility.yul\":9576:9582   */\n  dup7\n    /* \"#utility.yul\":9567:9574   */\n  dup4\n    /* \"#utility.yul\":9564:9583   */\n  lt\n    /* \"#utility.yul\":9561:9740   */\n  iszero\n  tag_162\n  jumpi\n    /* \"#utility.yul\":9634:9643   */\n  dup5\n    /* \"#utility.yul\":9629:9632   */\n  dup10\n    /* \"#utility.yul\":9625:9644   */\n  add\n    /* \"#utility.yul\":9619:9645   */\n  mload\n    /* \"#utility.yul\":9677:9725   */\n  tag_163\n    /* \"#utility.yul\":9719:9723   */\n  0x1f\n    /* \"#utility.yul\":9711:9717   */\n  dup10\n    /* \"#utility.yul\":9707:9724   */\n  and\n    /* \"#utility.yul\":9696:9705   */\n  dup3\n    /* \"#utility.yul\":9677:9725   */\n  tag_47\n  jump\t// in\ntag_163:\n    /* \"#utility.yul\":9669:9675   */\n  dup4\n    /* \"#utility.yul\":9662:9726   */\n  sstore\n    /* \"#utility.yul\":9584:9740   */\n  pop\n    /* \"#utility.yul\":9561:9740   */\ntag_162:\n    /* \"#utility.yul\":9786:9787   */\n  0x01\n    /* \"#utility.yul\":9782:9783   */\n  0x02\n    /* \"#utility.yul\":9774:9780   */\n  dup9\n    /* \"#utility.yul\":9770:9784   */\n  mul\n    /* \"#utility.yul\":9766:9788   */\n  add\n    /* \"#utility.yul\":9760:9764   */\n  dup9\n    /* \"#utility.yul\":9753:9789   */\n  sstore\n    /* \"#utility.yul\":9188:9799   */\n  pop\n  pop\n  pop\n    /* \"#utility.yul\":9151:10038   */\ntag_154:\n  pop\n    /* \"#utility.yul\":8741:10044   */\n  pop\n  pop\n  pop\n    /* \"#utility.yul\":8649:10044   */\n  pop\n  pop\n  jump\t// out\n    /* \"Practice/Day-10/P2.sol\":534:1525  contract Student is Department,College {... */\ntag_14:\n  dataSize(sub_0)\n  dup1\n  dataOffset(sub_0)\n  0x00\n  codecopy\n  0x00\n  return\nstop\n\nsub_0: assembly {\n        /* \"Practice/Day-10/P2.sol\":534:1525  contract Student is Department,College {... */\n      mstore(0x40, 0x80)\n      callvalue\n      dup1\n      iszero\n      tag_1\n      jumpi\n      0x00\n      dup1\n      revert\n    tag_1:\n      pop\n      jumpi(tag_2, lt(calldatasize, 0x04))\n      shr(0xe0, calldataload(0x00))\n      dup1\n      0xa8970da7\n      gt\n      tag_13\n      jumpi\n      dup1\n      0xa8970da7\n      eq\n      tag_8\n      jumpi\n      dup1\n      0xb508ba31\n      eq\n      tag_9\n      jumpi\n      dup1\n      0xc9126482\n      eq\n      tag_10\n      jumpi\n      dup1\n      0xeb96548f\n      eq\n      tag_11\n      jumpi\n      dup1\n      0xf6c97f91\n      eq\n      tag_12\n      jumpi\n      jump(tag_2)\n    tag_13:\n      dup1\n      0x3c84c5a5\n      eq\n      tag_3\n      jumpi\n      dup1\n      0x6ef9a278\n      eq\n      tag_4\n      jumpi\n      dup1\n      0x70d1f986\n      eq\n      tag_5\n      jumpi\n      dup1\n      0x75cda915\n      eq\n      tag_6\n      jumpi\n      dup1\n      0x75d88032\n      eq\n      tag_7\n      jumpi\n    tag_2:\n      0x00\n      dup1\n      revert\n        /* \"Practice/Day-10/P2.sol\":636:653  uint public marks */\n    tag_3:\n      tag_14\n      tag_15\n      jump\t// in\n    tag_14:\n      mload(0x40)\n      tag_16\n      swap2\n      swap1\n      tag_17\n      jump\t// in\n    tag_16:\n      mload(0x40)\n      dup1\n      swap2\n      sub\n      swap1\n      return\n        /* \"Practice/Day-10/P2.sol\":612:629  uint public regNo */\n    tag_4:\n      tag_18\n      tag_19\n      jump\t// in\n    tag_18:\n      mload(0x40)\n      tag_20\n      swap2\n      swap1\n      tag_17\n      jump\t// in\n    tag_20:\n      mload(0x40)\n      dup1\n      swap2\n      sub\n      swap1\n      return\n        /* \"Practice/Day-10/P2.sol\":1289:1522  function printReportCard() public view returns(string memory, string memory, string memory, uint, string memory, string memory, uint) {... */\n    tag_5:\n      tag_21\n      tag_22\n      jump\t// in\n    tag_21:\n      mload(0x40)\n      tag_23\n      swap8\n      swap7\n      swap6\n      swap5\n      swap4\n      swap3\n      swap2\n      swap1\n      tag_24\n      jump\t// in\n    tag_23:\n      mload(0x40)\n      dup1\n      swap2\n      sub\n      swap1\n      return\n        /* \"Practice/Day-10/P2.sol\":660:685  string public CollegeName */\n    tag_6:\n      tag_25\n      tag_26\n      jump\t// in\n    tag_25:\n      mload(0x40)\n      tag_27\n      swap2\n      swap1\n      tag_28\n      jump\t// in\n    tag_27:\n      mload(0x40)\n      dup1\n      swap2\n      sub\n      swap1\n      return\n        /* \"Practice/Day-10/P2.sol\":692:717  string public CollegeCode */\n    tag_7:\n      tag_29\n      tag_30\n      jump\t// in\n    tag_29:\n      mload(0x40)\n      tag_31\n      swap2\n      swap1\n      tag_28\n      jump\t// in\n    tag_31:\n      mload(0x40)\n      dup1\n      swap2\n      sub\n      swap1\n      return\n        /* \"Practice/Day-10/P2.sol\":198:221  string public depthName */\n    tag_8:\n      tag_32\n      tag_33\n      jump\t// in\n    tag_32:\n      mload(0x40)\n      tag_34\n      swap2\n      swap1\n      tag_28\n      jump\t// in\n    tag_34:\n      mload(0x40)\n      dup1\n      swap2\n      sub\n      swap1\n      return\n        /* \"Practice/Day-10/P2.sol\":580:605  string public studentName */\n    tag_9:\n      tag_35\n      tag_36\n      jump\t// in\n    tag_35:\n      mload(0x40)\n      tag_37\n      swap2\n      swap1\n      tag_28\n      jump\t// in\n    tag_37:\n      mload(0x40)\n      dup1\n      swap2\n      sub\n      swap1\n      return\n        /* \"Practice/Day-10/P2.sol\":1138:1277  function collegeDetails() external override view returns(string memory, string memory) {... */\n    tag_10:\n      tag_38\n      tag_39\n      jump\t// in\n    tag_38:\n      mload(0x40)\n      tag_40\n      swap3\n      swap2\n      swap1\n      tag_41\n      jump\t// in\n    tag_40:\n      mload(0x40)\n      dup1\n      swap2\n      sub\n      swap1\n      return\n        /* \"Practice/Day-10/P2.sol\":228:250  string public deptHead */\n    tag_11:\n      tag_42\n      tag_43\n      jump\t// in\n    tag_42:\n      mload(0x40)\n      tag_44\n      swap2\n      swap1\n      tag_28\n      jump\t// in\n    tag_44:\n      mload(0x40)\n      dup1\n      swap2\n      sub\n      swap1\n      return\n        /* \"Practice/Day-10/P2.sol\":401:527  function departmentDetails() public view returns(string memory, string memory) {... */\n    tag_12:\n      tag_45\n      tag_46\n      jump\t// in\n    tag_45:\n      mload(0x40)\n      tag_47\n      swap3\n      swap2\n      swap1\n      tag_41\n      jump\t// in\n    tag_47:\n      mload(0x40)\n      dup1\n      swap2\n      sub\n      swap1\n      return\n        /* \"Practice/Day-10/P2.sol\":636:653  uint public marks */\n    tag_15:\n      sload(0x04)\n      dup2\n      jump\t// out\n        /* \"Practice/Day-10/P2.sol\":612:629  uint public regNo */\n    tag_19:\n      sload(0x03)\n      dup2\n      jump\t// out\n        /* \"Practice/Day-10/P2.sol\":1289:1522  function printReportCard() public view returns(string memory, string memory, string memory, uint, string memory, string memory, uint) {... */\n    tag_22:\n        /* \"Practice/Day-10/P2.sol\":1336:1349  string memory */\n      0x60\n        /* \"Practice/Day-10/P2.sol\":1351:1364  string memory */\n      dup1\n        /* \"Practice/Day-10/P2.sol\":1366:1379  string memory */\n      0x60\n        /* \"Practice/Day-10/P2.sol\":1381:1385  uint */\n      0x00\n        /* \"Practice/Day-10/P2.sol\":1387:1400  string memory */\n      0x60\n        /* \"Practice/Day-10/P2.sol\":1402:1415  string memory */\n      dup1\n        /* \"Practice/Day-10/P2.sol\":1417:1421  uint */\n      0x00\n        /* \"Practice/Day-10/P2.sol\":1442:1453  studentName */\n      0x02\n        /* \"Practice/Day-10/P2.sol\":1455:1466  CollegeName */\n      0x05\n        /* \"Practice/Day-10/P2.sol\":1468:1479  CollegeCode */\n      0x06\n        /* \"Practice/Day-10/P2.sol\":1481:1486  regNo */\n      sload(0x03)\n        /* \"Practice/Day-10/P2.sol\":1488:1497  depthName */\n      0x00\n        /* \"Practice/Day-10/P2.sol\":1499:1507  deptHead */\n      0x01\n        /* \"Practice/Day-10/P2.sol\":1508:1513  marks */\n      sload(0x04)\n        /* \"Practice/Day-10/P2.sol\":1434:1514  return (studentName, CollegeName, CollegeCode, regNo, depthName, deptHead,marks) */\n      dup7\n      dup1\n      sload\n      tag_49\n      swap1\n      tag_50\n      jump\t// in\n    tag_49:\n      dup1\n      0x1f\n      add\n      0x20\n      dup1\n      swap2\n      div\n      mul\n      0x20\n      add\n      mload(0x40)\n      swap1\n      dup2\n      add\n      0x40\n      mstore\n      dup1\n      swap3\n      swap2\n      swap1\n      dup2\n      dup2\n      mstore\n      0x20\n      add\n      dup3\n      dup1\n      sload\n      tag_51\n      swap1\n      tag_50\n      jump\t// in\n    tag_51:\n      dup1\n      iszero\n      tag_52\n      jumpi\n      dup1\n      0x1f\n      lt\n      tag_53\n      jumpi\n      0x0100\n      dup1\n      dup4\n      sload\n      div\n      mul\n      dup4\n      mstore\n      swap2\n      0x20\n      add\n      swap2\n      jump(tag_52)\n    tag_53:\n      dup3\n      add\n      swap2\n      swap1\n      0x00\n      mstore\n      keccak256(0x00, 0x20)\n      swap1\n    tag_54:\n      dup2\n      sload\n      dup2\n      mstore\n      swap1\n      0x01\n      add\n      swap1\n      0x20\n      add\n      dup1\n      dup4\n      gt\n      tag_54\n      jumpi\n      dup3\n      swap1\n      sub\n      0x1f\n      and\n      dup3\n      add\n      swap2\n    tag_52:\n      pop\n      pop\n      pop\n      pop\n      pop\n      swap7\n      pop\n      dup6\n      dup1\n      sload\n      tag_55\n      swap1\n      tag_50\n      jump\t// in\n    tag_55:\n      dup1\n      0x1f\n      add\n      0x20\n      dup1\n      swap2\n      div\n      mul\n      0x20\n      add\n      mload(0x40)\n      swap1\n      dup2\n      add\n      0x40\n      mstore\n      dup1\n      swap3\n      swap2\n      swap1\n      dup2\n      dup2\n      mstore\n      0x20\n      add\n      dup3\n      dup1\n      sload\n      tag_56\n      swap1\n      tag_50\n      jump\t// in\n    tag_56:\n      dup1\n      iszero\n      tag_57\n      jumpi\n      dup1\n      0x1f\n      lt\n      tag_58\n      jumpi\n      0x0100\n      dup1\n      dup4\n      sload\n      div\n      mul\n      dup4\n      mstore\n      swap2\n      0x20\n      add\n      swap2\n      jump(tag_57)\n    tag_58:\n      dup3\n      add\n      swap2\n      swap1\n      0x00\n      mstore\n      keccak256(0x00, 0x20)\n      swap1\n    tag_59:\n      dup2\n      sload\n      dup2\n      mstore\n      swap1\n      0x01\n      add\n      swap1\n      0x20\n      add\n      dup1\n      dup4\n      gt\n      tag_59\n      jumpi\n      dup3\n      swap1\n      sub\n      0x1f\n      and\n      dup3\n      add\n      swap2\n    tag_57:\n      pop\n      pop\n      pop\n      pop\n      pop\n      swap6\n      pop\n      dup5\n      dup1\n      sload\n      tag_60\n      swap1\n      tag_50\n      jump\t// in\n    tag_60:\n      dup1\n      0x1f\n      add\n      0x20\n      dup1\n      swap2\n      div\n      mul\n      0x20\n      add\n      mload(0x40)\n      swap1\n      dup2\n      add\n      0x40\n      mstore\n      dup1\n      swap3\n      swap2\n      swap1\n      dup2\n      dup2\n      mstore\n      0x20\n      add\n      dup3\n      dup1\n      sload\n      tag_61\n      swap1\n      tag_50\n      jump\t// in\n    tag_61:\n      dup1\n      iszero\n      tag_62\n      jumpi\n      dup1\n      0x1f\n      lt\n      tag_63\n      jumpi\n      0x0100\n      dup1\n      dup4\n      sload\n      div\n      mul\n      dup4\n      mstore\n      swap2\n      0x20\n      add\n      swap2\n      jump(tag_62)\n    tag_63:\n      dup3\n      add\n      swap2\n      swap1\n      0x00\n      mstore\n      keccak256(0x00, 0x20)\n      swap1\n    tag_64:\n      dup2\n      sload\n      dup2\n      mstore\n      swap1\n      0x01\n      add\n      swap1\n      0x20\n      add\n      dup1\n      dup4\n      gt\n      tag_64\n      jumpi\n      dup3\n      swap1\n      sub\n      0x1f\n      and\n      dup3\n      add\n      swap2\n    tag_62:\n      pop\n      pop\n      pop\n      pop\n      pop\n      swap5\n      pop\n      dup3\n      dup1\n      sload\n      tag_65\n      swap1\n      tag_50\n      jump\t// in\n    tag_65:\n      dup1\n      0x1f\n      add\n      0x20\n      dup1\n      swap2\n      div\n      mul\n      0x20\n      add\n      mload(0x40)\n      swap1\n      dup2\n      add\n      0x40\n      mstore\n      dup1\n      swap3\n      swap2\n      swap1\n      dup2\n      dup2\n      mstore\n      0x20\n      add\n      dup3\n      dup1\n      sload\n      tag_66\n      swap1\n      tag_50\n      jump\t// in\n    tag_66:\n      dup1\n      iszero\n      tag_67\n      jumpi\n      dup1\n      0x1f\n      lt\n      tag_68\n      jumpi\n      0x0100\n      dup1\n      dup4\n      sload\n      div\n      mul\n      dup4\n      mstore\n      swap2\n      0x20\n      add\n      swap2\n      jump(tag_67)\n    tag_68:\n      dup3\n      add\n      swap2\n      swap1\n      0x00\n      mstore\n      keccak256(0x00, 0x20)\n      swap1\n    tag_69:\n      dup2\n      sload\n      dup2\n      mstore\n      swap1\n      0x01\n      add\n      swap1\n      0x20\n      add\n      dup1\n      dup4\n      gt\n      tag_69\n      jumpi\n      dup3\n      swap1\n      sub\n      0x1f\n      and\n      dup3\n      add\n      swap2\n    tag_67:\n      pop\n      pop\n      pop\n      pop\n      pop\n      swap3\n      pop\n      dup2\n      dup1\n      sload\n      tag_70\n      swap1\n      tag_50\n      jump\t// in\n    tag_70:\n      dup1\n      0x1f\n      add\n      0x20\n      dup1\n      swap2\n      div\n      mul\n      0x20\n      add\n      mload(0x40)\n      swap1\n      dup2\n      add\n      0x40\n      mstore\n      dup1\n      swap3\n      swap2\n      swap1\n      dup2\n      dup2\n      mstore\n      0x20\n      add\n      dup3\n      dup1\n      sload\n      tag_71\n      swap1\n      tag_50\n      jump\t// in\n    tag_71:\n      dup1\n      iszero\n      tag_72\n      jumpi\n      dup1\n      0x1f\n      lt\n      tag_73\n      jumpi\n      0x0100\n      dup1\n      dup4\n      sload\n      div\n      mul\n      dup4\n      mstore\n      swap2\n      0x20\n      add\n      swap2\n      jump(tag_72)\n    tag_73:\n      dup3\n      add\n      swap2\n      swap1\n      0x00\n      mstore\n      keccak256(0x00, 0x20)\n      swap1\n    tag_74:\n      dup2\n      sload\n      dup2\n      mstore\n      swap1\n      0x01\n      add\n      swap1\n      0x20\n      add\n      dup1\n      dup4\n      gt\n      tag_74\n      jumpi\n      dup3\n      swap1\n      sub\n      0x1f\n      and\n      dup3\n      add\n      swap2\n    tag_72:\n      pop\n      pop\n      pop\n      pop\n      pop\n      swap2\n      pop\n      swap7\n      pop\n      swap7\n      pop\n      swap7\n      pop\n      swap7\n      pop\n      swap7\n      pop\n      swap7\n      pop\n      swap7\n      pop\n        /* \"Practice/Day-10/P2.sol\":1289:1522  function printReportCard() public view returns(string memory, string memory, string memory, uint, string memory, string memory, uint) {... */\n      swap1\n      swap2\n      swap3\n      swap4\n      swap5\n      swap6\n      swap7\n      jump\t// out\n        /* \"Practice/Day-10/P2.sol\":660:685  string public CollegeName */\n    tag_26:\n      0x05\n      dup1\n      sload\n      tag_75\n      swap1\n      tag_50\n      jump\t// in\n    tag_75:\n      dup1\n      0x1f\n      add\n      0x20\n      dup1\n      swap2\n      div\n      mul\n      0x20\n      add\n      mload(0x40)\n      swap1\n      dup2\n      add\n      0x40\n      mstore\n      dup1\n      swap3\n      swap2\n      swap1\n      dup2\n      dup2\n      mstore\n      0x20\n      add\n      dup3\n      dup1\n      sload\n      tag_76\n      swap1\n      tag_50\n      jump\t// in\n    tag_76:\n      dup1\n      iszero\n      tag_77\n      jumpi\n      dup1\n      0x1f\n      lt\n      tag_78\n      jumpi\n      0x0100\n      dup1\n      dup4\n      sload\n      div\n      mul\n      dup4\n      mstore\n      swap2\n      0x20\n      add\n      swap2\n      jump(tag_77)\n    tag_78:\n      dup3\n      add\n      swap2\n      swap1\n      0x00\n      mstore\n      keccak256(0x00, 0x20)\n      swap1\n    tag_79:\n      dup2\n      sload\n      dup2\n      mstore\n      swap1\n      0x01\n      add\n      swap1\n      0x20\n      add\n      dup1\n      dup4\n      gt\n      tag_79\n      jumpi\n      dup3\n      swap1\n      sub\n      0x1f\n      and\n      dup3\n      add\n      swap2\n    tag_77:\n      pop\n      pop\n      pop\n      pop\n      pop\n      dup2\n      jump\t// out\n        /* \"Practice/Day-10/P2.sol\":692:717  string public CollegeCode */\n    tag_30:\n      0x06\n      dup1\n      sload\n      tag_80\n      swap1\n      tag_50\n      jump\t// in\n    tag_80:\n      dup1\n      0x1f\n      add\n      0x20\n      dup1\n      swap2\n      div\n      mul\n      0x20\n      add\n      mload(0x40)\n      swap1\n      dup2\n      add\n      0x40\n      mstore\n      dup1\n      swap3\n      swap2\n      swap1\n      dup2\n      dup2\n      mstore\n      0x20\n      add\n      dup3\n      dup1\n      sload\n      tag_81\n      swap1\n      tag_50\n      jump\t// in\n    tag_81:\n      dup1\n      iszero\n      tag_82\n      jumpi\n      dup1\n      0x1f\n      lt\n      tag_83\n      jumpi\n      0x0100\n      dup1\n      dup4\n      sload\n      div\n      mul\n      dup4\n      mstore\n      swap2\n      0x20\n      add\n      swap2\n      jump(tag_82)\n    tag_83:\n      dup3\n      add\n      swap2\n      swap1\n      0x00\n      mstore\n      keccak256(0x00, 0x20)\n      swap1\n    tag_84:\n      dup2\n      sload\n      dup2\n      mstore\n      swap1\n      0x01\n      add\n      swap1\n      0x20\n      add\n      dup1\n      dup4\n      gt\n      tag_84\n      jumpi\n      dup3\n      swap1\n      sub\n      0x1f\n      and\n      dup3\n      add\n      swap2\n    tag_82:\n      pop\n      pop\n      pop\n      pop\n      pop\n      dup2\n      jump\t// out\n        /* \"Practice/Day-10/P2.sol\":198:221  string public depthName */\n    tag_33:\n      0x00\n      dup1\n      sload\n      tag_85\n      swap1\n      tag_50\n      jump\t// in\n    tag_85:\n      dup1\n      0x1f\n      add\n      0x20\n      dup1\n      swap2\n      div\n      mul\n      0x20\n      add\n      mload(0x40)\n      swap1\n      dup2\n      add\n      0x40\n      mstore\n      dup1\n      swap3\n      swap2\n      swap1\n      dup2\n      dup2\n      mstore\n      0x20\n      add\n      dup3\n      dup1\n      sload\n      tag_86\n      swap1\n      tag_50\n      jump\t// in\n    tag_86:\n      dup1\n      iszero\n      tag_87\n      jumpi\n      dup1\n      0x1f\n      lt\n      tag_88\n      jumpi\n      0x0100\n      dup1\n      dup4\n      sload\n      div\n      mul\n      dup4\n      mstore\n      swap2\n      0x20\n      add\n      swap2\n      jump(tag_87)\n    tag_88:\n      dup3\n      add\n      swap2\n      swap1\n      0x00\n      mstore\n      keccak256(0x00, 0x20)\n      swap1\n    tag_89:\n      dup2\n      sload\n      dup2\n      mstore\n      swap1\n      0x01\n      add\n      swap1\n      0x20\n      add\n      dup1\n      dup4\n      gt\n      tag_89\n      jumpi\n      dup3\n      swap1\n      sub\n      0x1f\n      and\n      dup3\n      add\n      swap2\n    tag_87:\n      pop\n      pop\n      pop\n      pop\n      pop\n      dup2\n      jump\t// out\n        /* \"Practice/Day-10/P2.sol\":580:605  string public studentName */\n    tag_36:\n      0x02\n      dup1\n      sload\n      tag_90\n      swap1\n      tag_50\n      jump\t// in\n    tag_90:\n      dup1\n      0x1f\n      add\n      0x20\n      dup1\n      swap2\n      div\n      mul\n      0x20\n      add\n      mload(0x40)\n      swap1\n      dup2\n      add\n      0x40\n      mstore\n      dup1\n      swap3\n      swap2\n      swap1\n      dup2\n      dup2\n      mstore\n      0x20\n      add\n      dup3\n      dup1\n      sload\n      tag_91\n      swap1\n      tag_50\n      jump\t// in\n    tag_91:\n      dup1\n      iszero\n      tag_92\n      jumpi\n      dup1\n      0x1f\n      lt\n      tag_93\n      jumpi\n      0x0100\n      dup1\n      dup4\n      sload\n      div\n      mul\n      dup4\n      mstore\n      swap2\n      0x20\n      add\n      swap2\n      jump(tag_92)\n    tag_93:\n      dup3\n      add\n      swap2\n      swap1\n      0x00\n      mstore\n      keccak256(0x00, 0x20)\n      swap1\n    tag_94:\n      dup2\n      sload\n      dup2\n      mstore\n      swap1\n      0x01\n      add\n      swap1\n      0x20\n      add\n      dup1\n      dup4\n      gt\n      tag_94\n      jumpi\n      dup3\n      swap1\n      sub\n      0x1f\n      and\n      dup3\n      add\n      swap2\n    tag_92:\n      pop\n      pop\n      pop\n      pop\n      pop\n      dup2\n      jump\t// out\n        /* \"Practice/Day-10/P2.sol\":1138:1277  function collegeDetails() external override view returns(string memory, string memory) {... */\n    tag_39:\n        /* \"Practice/Day-10/P2.sol\":1195:1208  string memory */\n      0x60\n        /* \"Practice/Day-10/P2.sol\":1210:1223  string memory */\n      dup1\n        /* \"Practice/Day-10/P2.sol\":1244:1255  CollegeName */\n      0x05\n        /* \"Practice/Day-10/P2.sol\":1257:1268  CollegeCode */\n      0x06\n        /* \"Practice/Day-10/P2.sol\":1236:1269  return (CollegeName, CollegeCode) */\n      dup2\n      dup1\n      sload\n      tag_96\n      swap1\n      tag_50\n      jump\t// in\n    tag_96:\n      dup1\n      0x1f\n      add\n      0x20\n      dup1\n      swap2\n      div\n      mul\n      0x20\n      add\n      mload(0x40)\n      swap1\n      dup2\n      add\n      0x40\n      mstore\n      dup1\n      swap3\n      swap2\n      swap1\n      dup2\n      dup2\n      mstore\n      0x20\n      add\n      dup3\n      dup1\n      sload\n      tag_97\n      swap1\n      tag_50\n      jump\t// in\n    tag_97:\n      dup1\n      iszero\n      tag_98\n      jumpi\n      dup1\n      0x1f\n      lt\n      tag_99\n      jumpi\n      0x0100\n      dup1\n      dup4\n      sload\n      div\n      mul\n      dup4\n      mstore\n      swap2\n      0x20\n      add\n      swap2\n      jump(tag_98)\n    tag_99:\n      dup3\n      add\n      swap2\n      swap1\n      0x00\n      mstore\n      keccak256(0x00, 0x20)\n      swap1\n    tag_100:\n      dup2\n      sload\n      dup2\n      mstore\n      swap1\n      0x01\n      add\n      swap1\n      0x20\n      add\n      dup1\n      dup4\n      gt\n      tag_100\n      jumpi\n      dup3\n      swap1\n      sub\n      0x1f\n      and\n      dup3\n      add\n      swap2\n    tag_98:\n      pop\n      pop\n      pop\n      pop\n      pop\n      swap2\n      pop\n      dup1\n      dup1\n      sload\n      tag_101\n      swap1\n      tag_50\n      jump\t// in\n    tag_101:\n      dup1\n      0x1f\n      add\n      0x20\n      dup1\n      swap2\n      div\n      mul\n      0x20\n      add\n      mload(0x40)\n      swap1\n      dup2\n      add\n      0x40\n      mstore\n      dup1\n      swap3\n      swap2\n      swap1\n      dup2\n      dup2\n      mstore\n      0x20\n      add\n      dup3\n      dup1\n      sload\n      tag_102\n      swap1\n      tag_50\n      jump\t// in\n    tag_102:\n      dup1\n      iszero\n      tag_103\n      jumpi\n      dup1\n      0x1f\n      lt\n      tag_104\n      jumpi\n      0x0100\n      dup1\n      dup4\n      sload\n      div\n      mul\n      dup4\n      mstore\n      swap2\n      0x20\n      add\n      swap2\n      jump(tag_103)\n    tag_104:\n      dup3\n      add\n      swap2\n      swap1\n      0x00\n      mstore\n      keccak256(0x00, 0x20)\n      swap1\n    tag_105:\n      dup2\n      sload\n      dup2\n      mstore\n      swap1\n      0x01\n      add\n      swap1\n      0x20\n      add\n      dup1\n      dup4\n      gt\n      tag_105\n      jumpi\n      dup3\n      swap1\n      sub\n      0x1f\n      and\n      dup3\n      add\n      swap2\n    tag_103:\n      pop\n      pop\n      pop\n      pop\n      pop\n      swap1\n      pop\n      swap2\n      pop\n      swap2\n      pop\n        /* \"Practice/Day-10/P2.sol\":1138:1277  function collegeDetails() external override view returns(string memory, string memory) {... */\n      swap1\n      swap2\n      jump\t// out\n        /* \"Practice/Day-10/P2.sol\":228:250  string public deptHead */\n    tag_43:\n      0x01\n      dup1\n      sload\n      tag_106\n      swap1\n      tag_50\n      jump\t// in\n    tag_106:\n      dup1\n      0x1f\n      add\n      0x20\n      dup1\n      swap2\n      div\n      mul\n      0x20\n      add\n      mload(0x40)\n      swap1\n      dup2\n      add\n      0x40\n      mstore\n      dup1\n      swap3\n      swap2\n      swap1\n      dup2\n      dup2\n      mstore\n      0x20\n      add\n      dup3\n      dup1\n      sload\n      tag_107\n      swap1\n      tag_50\n      jump\t// in\n    tag_107:\n      dup1\n      iszero\n      tag_108\n      jumpi\n      dup1\n      0x1f\n      lt\n      tag_109\n      jumpi\n      0x0100\n      dup1\n      dup4\n      sload\n      div\n      mul\n      dup4\n      mstore\n      swap2\n      0x20\n      add\n      swap2\n      jump(tag_108)\n    tag_109:\n      dup3\n      add\n      swap2\n      swap1\n      0x00\n      mstore\n      keccak256(0x00, 0x20)\n      swap1\n    tag_110:\n      dup2\n      sload\n      dup2\n      mstore\n      swap1\n      0x01\n      add\n      swap1\n      0x20\n      add\n      dup1\n      dup4\n      gt\n      tag_110\n      jumpi\n      dup3\n      swap1\n      sub\n      0x1f\n      and\n      dup3\n      add\n      swap2\n    tag_108:\n      pop\n      pop\n      pop\n      pop\n      pop\n      dup2\n      jump\t// out\n        /* \"Practice/Day-10/P2.sol\":401:527  function departmentDetails() public view returns(string memory, string memory) {... */\n    tag_46:\n        /* \"Practice/Day-10/P2.sol\":450:463  string memory */\n      0x60\n        /* \"Practice/Day-10/P2.sol\":465:478  string memory */\n      dup1\n        /* \"Practice/Day-10/P2.sol\":499:508  depthName */\n      0x00\n        /* \"Practice/Day-10/P2.sol\":510:518  deptHead */\n      0x01\n        /* \"Practice/Day-10/P2.sol\":491:519  return (depthName, deptHead) */\n      dup2\n      dup1\n      sload\n      tag_112\n      swap1\n      tag_50\n      jump\t// in\n    tag_112:\n      dup1\n      0x1f\n      add\n      0x20\n      dup1\n      swap2\n      div\n      mul\n      0x20\n      add\n      mload(0x40)\n      swap1\n      dup2\n      add\n      0x40\n      mstore\n      dup1\n      swap3\n      swap2\n      swap1\n      dup2\n      dup2\n      mstore\n      0x20\n      add\n      dup3\n      dup1\n      sload\n      tag_113\n      swap1\n      tag_50\n      jump\t// in\n    tag_113:\n      dup1\n      iszero\n      tag_114\n      jumpi\n      dup1\n      0x1f\n      lt\n      tag_115\n      jumpi\n      0x0100\n      dup1\n      dup4\n      sload\n      div\n      mul\n      dup4\n      mstore\n      swap2\n      0x20\n      add\n      swap2\n      jump(tag_114)\n    tag_115:\n      dup3\n      add\n      swap2\n      swap1\n      0x00\n      mstore\n      keccak256(0x00, 0x20)\n      swap1\n    tag_116:\n      dup2\n      sload\n      dup2\n      mstore\n      swap1\n      0x01\n      add\n      swap1\n      0x20\n      add\n      dup1\n      dup4\n      gt\n      tag_116\n      jumpi\n      dup3\n      swap1\n      sub\n      0x1f\n      and\n      dup3\n      add\n      swap2\n    tag_114:\n      pop\n      pop\n      pop\n      pop\n      pop\n      swap2\n      pop\n      dup1\n      dup1\n      sload\n      tag_117\n      swap1\n      tag_50\n      jump\t// in\n    tag_117:\n      dup1\n      0x1f\n      add\n      0x20\n      dup1\n      swap2\n      div\n      mul\n      0x20\n      add\n      mload(0x40)\n      swap1\n      dup2\n      add\n      0x40\n      mstore\n      dup1\n      swap3\n      swap2\n      swap1\n      dup2\n      dup2\n      mstore\n      0x20\n      add\n      dup3\n      dup1\n      sload\n      tag_118\n      swap1\n      tag_50\n      jump\t// in\n    tag_118:\n      dup1\n      iszero\n      tag_119\n      jumpi\n      dup1\n      0x1f\n      lt\n      tag_120\n      jumpi\n      0x0100\n      dup1\n      dup4\n      sload\n      div\n      mul\n      dup4\n      mstore\n      swap2\n      0x20\n      add\n      swap2\n      jump(tag_119)\n    tag_120:\n      dup3\n      add\n      swap2\n      swap1\n      0x00\n      mstore\n      keccak256(0x00, 0x20)\n      swap1\n    tag_121:\n      dup2\n      sload\n      dup2\n      mstore\n      swap1\n      0x01\n      add\n      swap1\n      0x20\n      add\n      dup1\n      dup4\n      gt\n      tag_121\n      jumpi\n      dup3\n      swap1\n      sub\n      0x1f\n      and\n      dup3\n      add\n      swap2\n    tag_119:\n      pop\n      pop\n      pop\n      pop\n      pop\n      swap1\n      pop\n      swap2\n      pop\n      swap2\n      pop\n        /* \"Practice/Day-10/P2.sol\":401:527  function departmentDetails() public view returns(string memory, string memory) {... */\n      swap1\n      swap2\n      jump\t// out\n        /* \"#utility.yul\":7:84   */\n    tag_122:\n        /* \"#utility.yul\":44:51   */\n      0x00\n        /* \"#utility.yul\":73:78   */\n      dup2\n        /* \"#utility.yul\":62:78   */\n      swap1\n      pop\n        /* \"#utility.yul\":7:84   */\n      swap2\n      swap1\n      pop\n      jump\t// out\n        /* \"#utility.yul\":90:208   */\n    tag_123:\n        /* \"#utility.yul\":177:201   */\n      tag_133\n        /* \"#utility.yul\":195:200   */\n      dup2\n        /* \"#utility.yul\":177:201   */\n      tag_122\n      jump\t// in\n    tag_133:\n        /* \"#utility.yul\":172:175   */\n      dup3\n        /* \"#utility.yul\":165:202   */\n      mstore\n        /* \"#utility.yul\":90:208   */\n      pop\n      pop\n      jump\t// out\n        /* \"#utility.yul\":214:436   */\n    tag_17:\n        /* \"#utility.yul\":307:311   */\n      0x00\n        /* \"#utility.yul\":345:347   */\n      0x20\n        /* \"#utility.yul\":334:343   */\n      dup3\n        /* \"#utility.yul\":330:348   */\n      add\n        /* \"#utility.yul\":322:348   */\n      swap1\n      pop\n        /* \"#utility.yul\":358:429   */\n      tag_135\n        /* \"#utility.yul\":426:427   */\n      0x00\n        /* \"#utility.yul\":415:424   */\n      dup4\n        /* \"#utility.yul\":411:428   */\n      add\n        /* \"#utility.yul\":402:408   */\n      dup5\n        /* \"#utility.yul\":358:429   */\n      tag_123\n      jump\t// in\n    tag_135:\n        /* \"#utility.yul\":214:436   */\n      swap3\n      swap2\n      pop\n      pop\n      jump\t// out\n        /* \"#utility.yul\":442:541   */\n    tag_124:\n        /* \"#utility.yul\":494:500   */\n      0x00\n        /* \"#utility.yul\":528:533   */\n      dup2\n        /* \"#utility.yul\":522:534   */\n      mload\n        /* \"#utility.yul\":512:534   */\n      swap1\n      pop\n        /* \"#utility.yul\":442:541   */\n      swap2\n      swap1\n      pop\n      jump\t// out\n        /* \"#utility.yul\":547:716   */\n    tag_125:\n        /* \"#utility.yul\":631:642   */\n      0x00\n        /* \"#utility.yul\":665:671   */\n      dup3\n        /* \"#utility.yul\":660:663   */\n      dup3\n        /* \"#utility.yul\":653:672   */\n      mstore\n        /* \"#utility.yul\":705:709   */\n      0x20\n        /* \"#utility.yul\":700:703   */\n      dup3\n        /* \"#utility.yul\":696:710   */\n      add\n        /* \"#utility.yul\":681:710   */\n      swap1\n      pop\n        /* \"#utility.yul\":547:716   */\n      swap3\n      swap2\n      pop\n      pop\n      jump\t// out\n        /* \"#utility.yul\":722:861   */\n    tag_126:\n        /* \"#utility.yul\":811:817   */\n      dup3\n        /* \"#utility.yul\":806:809   */\n      dup2\n        /* \"#utility.yul\":801:804   */\n      dup4\n        /* \"#utility.yul\":795:818   */\n      mcopy\n        /* \"#utility.yul\":852:853   */\n      0x00\n        /* \"#utility.yul\":843:849   */\n      dup4\n        /* \"#utility.yul\":838:841   */\n      dup4\n        /* \"#utility.yul\":834:850   */\n      add\n        /* \"#utility.yul\":827:854   */\n      mstore\n        /* \"#utility.yul\":722:861   */\n      pop\n      pop\n      pop\n      jump\t// out\n        /* \"#utility.yul\":867:969   */\n    tag_127:\n        /* \"#utility.yul\":908:914   */\n      0x00\n        /* \"#utility.yul\":959:961   */\n      0x1f\n        /* \"#utility.yul\":955:962   */\n      not\n        /* \"#utility.yul\":950:952   */\n      0x1f\n        /* \"#utility.yul\":943:948   */\n      dup4\n        /* \"#utility.yul\":939:953   */\n      add\n        /* \"#utility.yul\":935:963   */\n      and\n        /* \"#utility.yul\":925:963   */\n      swap1\n      pop\n        /* \"#utility.yul\":867:969   */\n      swap2\n      swap1\n      pop\n      jump\t// out\n        /* \"#utility.yul\":975:1352   */\n    tag_128:\n        /* \"#utility.yul\":1063:1066   */\n      0x00\n        /* \"#utility.yul\":1091:1130   */\n      tag_141\n        /* \"#utility.yul\":1124:1129   */\n      dup3\n        /* \"#utility.yul\":1091:1130   */\n      tag_124\n      jump\t// in\n    tag_141:\n        /* \"#utility.yul\":1146:1217   */\n      tag_142\n        /* \"#utility.yul\":1210:1216   */\n      dup2\n        /* \"#utility.yul\":1205:1208   */\n      dup6\n        /* \"#utility.yul\":1146:1217   */\n      tag_125\n      jump\t// in\n    tag_142:\n        /* \"#utility.yul\":1139:1217   */\n      swap4\n      pop\n        /* \"#utility.yul\":1226:1291   */\n      tag_143\n        /* \"#utility.yul\":1284:1290   */\n      dup2\n        /* \"#utility.yul\":1279:1282   */\n      dup6\n        /* \"#utility.yul\":1272:1276   */\n      0x20\n        /* \"#utility.yul\":1265:1270   */\n      dup7\n        /* \"#utility.yul\":1261:1277   */\n      add\n        /* \"#utility.yul\":1226:1291   */\n      tag_126\n      jump\t// in\n    tag_143:\n        /* \"#utility.yul\":1316:1345   */\n      tag_144\n        /* \"#utility.yul\":1338:1344   */\n      dup2\n        /* \"#utility.yul\":1316:1345   */\n      tag_127\n      jump\t// in\n    tag_144:\n        /* \"#utility.yul\":1311:1314   */\n      dup5\n        /* \"#utility.yul\":1307:1346   */\n      add\n        /* \"#utility.yul\":1300:1346   */\n      swap2\n      pop\n        /* \"#utility.yul\":1067:1352   */\n      pop\n        /* \"#utility.yul\":975:1352   */\n      swap3\n      swap2\n      pop\n      pop\n      jump\t// out\n        /* \"#utility.yul\":1358:2699   */\n    tag_24:\n        /* \"#utility.yul\":1719:1723   */\n      0x00\n        /* \"#utility.yul\":1757:1760   */\n      0xe0\n        /* \"#utility.yul\":1746:1755   */\n      dup3\n        /* \"#utility.yul\":1742:1761   */\n      add\n        /* \"#utility.yul\":1734:1761   */\n      swap1\n      pop\n        /* \"#utility.yul\":1807:1816   */\n      dup2\n        /* \"#utility.yul\":1801:1805   */\n      dup2\n        /* \"#utility.yul\":1797:1817   */\n      sub\n        /* \"#utility.yul\":1793:1794   */\n      0x00\n        /* \"#utility.yul\":1782:1791   */\n      dup4\n        /* \"#utility.yul\":1778:1795   */\n      add\n        /* \"#utility.yul\":1771:1818   */\n      mstore\n        /* \"#utility.yul\":1835:1913   */\n      tag_146\n        /* \"#utility.yul\":1908:1912   */\n      dup2\n        /* \"#utility.yul\":1899:1905   */\n      dup11\n        /* \"#utility.yul\":1835:1913   */\n      tag_128\n      jump\t// in\n    tag_146:\n        /* \"#utility.yul\":1827:1913   */\n      swap1\n      pop\n        /* \"#utility.yul\":1960:1969   */\n      dup2\n        /* \"#utility.yul\":1954:1958   */\n      dup2\n        /* \"#utility.yul\":1950:1970   */\n      sub\n        /* \"#utility.yul\":1945:1947   */\n      0x20\n        /* \"#utility.yul\":1934:1943   */\n      dup4\n        /* \"#utility.yul\":1930:1948   */\n      add\n        /* \"#utility.yul\":1923:1971   */\n      mstore\n        /* \"#utility.yul\":1988:2066   */\n      tag_147\n        /* \"#utility.yul\":2061:2065   */\n      dup2\n        /* \"#utility.yul\":2052:2058   */\n      dup10\n        /* \"#utility.yul\":1988:2066   */\n      tag_128\n      jump\t// in\n    tag_147:\n        /* \"#utility.yul\":1980:2066   */\n      swap1\n      pop\n        /* \"#utility.yul\":2113:2122   */\n      dup2\n        /* \"#utility.yul\":2107:2111   */\n      dup2\n        /* \"#utility.yul\":2103:2123   */\n      sub\n        /* \"#utility.yul\":2098:2100   */\n      0x40\n        /* \"#utility.yul\":2087:2096   */\n      dup4\n        /* \"#utility.yul\":2083:2101   */\n      add\n        /* \"#utility.yul\":2076:2124   */\n      mstore\n        /* \"#utility.yul\":2141:2219   */\n      tag_148\n        /* \"#utility.yul\":2214:2218   */\n      dup2\n        /* \"#utility.yul\":2205:2211   */\n      dup9\n        /* \"#utility.yul\":2141:2219   */\n      tag_128\n      jump\t// in\n    tag_148:\n        /* \"#utility.yul\":2133:2219   */\n      swap1\n      pop\n        /* \"#utility.yul\":2229:2301   */\n      tag_149\n        /* \"#utility.yul\":2297:2299   */\n      0x60\n        /* \"#utility.yul\":2286:2295   */\n      dup4\n        /* \"#utility.yul\":2282:2300   */\n      add\n        /* \"#utility.yul\":2273:2279   */\n      dup8\n        /* \"#utility.yul\":2229:2301   */\n      tag_123\n      jump\t// in\n    tag_149:\n        /* \"#utility.yul\":2349:2358   */\n      dup2\n        /* \"#utility.yul\":2343:2347   */\n      dup2\n        /* \"#utility.yul\":2339:2359   */\n      sub\n        /* \"#utility.yul\":2333:2336   */\n      0x80\n        /* \"#utility.yul\":2322:2331   */\n      dup4\n        /* \"#utility.yul\":2318:2337   */\n      add\n        /* \"#utility.yul\":2311:2360   */\n      mstore\n        /* \"#utility.yul\":2377:2455   */\n      tag_150\n        /* \"#utility.yul\":2450:2454   */\n      dup2\n        /* \"#utility.yul\":2441:2447   */\n      dup7\n        /* \"#utility.yul\":2377:2455   */\n      tag_128\n      jump\t// in\n    tag_150:\n        /* \"#utility.yul\":2369:2455   */\n      swap1\n      pop\n        /* \"#utility.yul\":2503:2512   */\n      dup2\n        /* \"#utility.yul\":2497:2501   */\n      dup2\n        /* \"#utility.yul\":2493:2513   */\n      sub\n        /* \"#utility.yul\":2487:2490   */\n      0xa0\n        /* \"#utility.yul\":2476:2485   */\n      dup4\n        /* \"#utility.yul\":2472:2491   */\n      add\n        /* \"#utility.yul\":2465:2514   */\n      mstore\n        /* \"#utility.yul\":2531:2609   */\n      tag_151\n        /* \"#utility.yul\":2604:2608   */\n      dup2\n        /* \"#utility.yul\":2595:2601   */\n      dup6\n        /* \"#utility.yul\":2531:2609   */\n      tag_128\n      jump\t// in\n    tag_151:\n        /* \"#utility.yul\":2523:2609   */\n      swap1\n      pop\n        /* \"#utility.yul\":2619:2692   */\n      tag_152\n        /* \"#utility.yul\":2687:2690   */\n      0xc0\n        /* \"#utility.yul\":2676:2685   */\n      dup4\n        /* \"#utility.yul\":2672:2691   */\n      add\n        /* \"#utility.yul\":2663:2669   */\n      dup5\n        /* \"#utility.yul\":2619:2692   */\n      tag_123\n      jump\t// in\n    tag_152:\n        /* \"#utility.yul\":1358:2699   */\n      swap9\n      swap8\n      pop\n      pop\n      pop\n      pop\n      pop\n      pop\n      pop\n      pop\n      jump\t// out\n        /* \"#utility.yul\":2705:3018   */\n    tag_28:\n        /* \"#utility.yul\":2818:2822   */\n      0x00\n        /* \"#utility.yul\":2856:2858   */\n      0x20\n        /* \"#utility.yul\":2845:2854   */\n      dup3\n        /* \"#utility.yul\":2841:2859   */\n      add\n        /* \"#utility.yul\":2833:2859   */\n      swap1\n      pop\n        /* \"#utility.yul\":2905:2914   */\n      dup2\n        /* \"#utility.yul\":2899:2903   */\n      dup2\n        /* \"#utility.yul\":2895:2915   */\n      sub\n        /* \"#utility.yul\":2891:2892   */\n      0x00\n        /* \"#utility.yul\":2880:2889   */\n      dup4\n        /* \"#utility.yul\":2876:2893   */\n      add\n        /* \"#utility.yul\":2869:2916   */\n      mstore\n        /* \"#utility.yul\":2933:3011   */\n      tag_154\n        /* \"#utility.yul\":3006:3010   */\n      dup2\n        /* \"#utility.yul\":2997:3003   */\n      dup5\n        /* \"#utility.yul\":2933:3011   */\n      tag_128\n      jump\t// in\n    tag_154:\n        /* \"#utility.yul\":2925:3011   */\n      swap1\n      pop\n        /* \"#utility.yul\":2705:3018   */\n      swap3\n      swap2\n      pop\n      pop\n      jump\t// out\n        /* \"#utility.yul\":3024:3538   */\n    tag_41:\n        /* \"#utility.yul\":3185:3189   */\n      0x00\n        /* \"#utility.yul\":3223:3225   */\n      0x40\n        /* \"#utility.yul\":3212:3221   */\n      dup3\n        /* \"#utility.yul\":3208:3226   */\n      add\n        /* \"#utility.yul\":3200:3226   */\n      swap1\n      pop\n        /* \"#utility.yul\":3272:3281   */\n      dup2\n        /* \"#utility.yul\":3266:3270   */\n      dup2\n        /* \"#utility.yul\":3262:3282   */\n      sub\n        /* \"#utility.yul\":3258:3259   */\n      0x00\n        /* \"#utility.yul\":3247:3256   */\n      dup4\n        /* \"#utility.yul\":3243:3260   */\n      add\n        /* \"#utility.yul\":3236:3283   */\n      mstore\n        /* \"#utility.yul\":3300:3378   */\n      tag_156\n        /* \"#utility.yul\":3373:3377   */\n      dup2\n        /* \"#utility.yul\":3364:3370   */\n      dup6\n        /* \"#utility.yul\":3300:3378   */\n      tag_128\n      jump\t// in\n    tag_156:\n        /* \"#utility.yul\":3292:3378   */\n      swap1\n      pop\n        /* \"#utility.yul\":3425:3434   */\n      dup2\n        /* \"#utility.yul\":3419:3423   */\n      dup2\n        /* \"#utility.yul\":3415:3435   */\n      sub\n        /* \"#utility.yul\":3410:3412   */\n      0x20\n        /* \"#utility.yul\":3399:3408   */\n      dup4\n        /* \"#utility.yul\":3395:3413   */\n      add\n        /* \"#utility.yul\":3388:3436   */\n      mstore\n        /* \"#utility.yul\":3453:3531   */\n      tag_157\n        /* \"#utility.yul\":3526:3530   */\n      dup2\n        /* \"#utility.yul\":3517:3523   */\n      dup5\n        /* \"#utility.yul\":3453:3531   */\n      tag_128\n      jump\t// in\n    tag_157:\n        /* \"#utility.yul\":3445:3531   */\n      swap1\n      pop\n        /* \"#utility.yul\":3024:3538   */\n      swap4\n      swap3\n      pop\n      pop\n      pop\n      jump\t// out\n        /* \"#utility.yul\":3544:3724   */\n    tag_129:\n        /* \"#utility.yul\":3592:3669   */\n      0x4e487b7100000000000000000000000000000000000000000000000000000000\n        /* \"#utility.yul\":3589:3590   */\n      0x00\n        /* \"#utility.yul\":3582:3670   */\n      mstore\n        /* \"#utility.yul\":3689:3693   */\n      0x22\n        /* \"#utility.yul\":3686:3687   */\n      0x04\n        /* \"#utility.yul\":3679:3694   */\n      mstore\n        /* \"#utility.yul\":3713:3717   */\n      0x24\n        /* \"#utility.yul\":3710:3711   */\n      0x00\n        /* \"#utility.yul\":3703:3718   */\n      revert\n        /* \"#utility.yul\":3730:4050   */\n    tag_50:\n        /* \"#utility.yul\":3774:3780   */\n      0x00\n        /* \"#utility.yul\":3811:3812   */\n      0x02\n        /* \"#utility.yul\":3805:3809   */\n      dup3\n        /* \"#utility.yul\":3801:3813   */\n      div\n        /* \"#utility.yul\":3791:3813   */\n      swap1\n      pop\n        /* \"#utility.yul\":3858:3859   */\n      0x01\n        /* \"#utility.yul\":3852:3856   */\n      dup3\n        /* \"#utility.yul\":3848:3860   */\n      and\n        /* \"#utility.yul\":3879:3897   */\n      dup1\n        /* \"#utility.yul\":3869:3950   */\n      tag_160\n      jumpi\n        /* \"#utility.yul\":3935:3939   */\n      0x7f\n        /* \"#utility.yul\":3927:3933   */\n      dup3\n        /* \"#utility.yul\":3923:3940   */\n      and\n        /* \"#utility.yul\":3913:3940   */\n      swap2\n      pop\n        /* \"#utility.yul\":3869:3950   */\n    tag_160:\n        /* \"#utility.yul\":3997:3999   */\n      0x20\n        /* \"#utility.yul\":3989:3995   */\n      dup3\n        /* \"#utility.yul\":3986:4000   */\n      lt\n        /* \"#utility.yul\":3966:3984   */\n      dup2\n        /* \"#utility.yul\":3963:4001   */\n      sub\n        /* \"#utility.yul\":3960:4044   */\n      tag_161\n      jumpi\n        /* \"#utility.yul\":4016:4034   */\n      tag_162\n      tag_129\n      jump\t// in\n    tag_162:\n        /* \"#utility.yul\":3960:4044   */\n    tag_161:\n        /* \"#utility.yul\":3781:4050   */\n      pop\n        /* \"#utility.yul\":3730:4050   */\n      swap2\n      swap1\n      pop\n      jump\t// out\n\n    auxdata: 0xa26469706673582212204c39e0e04c782d7179fff987189b800d1ecedbafad2fd0313e92ba490a4c155d64736f6c634300081a0033\n}\n",
				"bytecode": {
					"linkReferences": {},
					"object": "608060405234801561000f575f80fd5b506040516112023803806112028339818101604052810190610031919061021e565b8181815f9081610041919061054b565b508060019081610051919061054b565b5050508660029081610063919061054b565b5085600381905550846004819055508360059081610081919061054b565b508260069081610091919061054b565b505050505050505061061a565b5f604051905090565b5f80fd5b5f80fd5b5f80fd5b5f80fd5b5f601f19601f8301169050919050565b7f4e487b71000000000000000000000000000000000000000000000000000000005f52604160045260245ffd5b6100fd826100b7565b810181811067ffffffffffffffff8211171561011c5761011b6100c7565b5b80604052505050565b5f61012e61009e565b905061013a82826100f4565b919050565b5f67ffffffffffffffff821115610159576101586100c7565b5b610162826100b7565b9050602081019050919050565b8281835e5f83830152505050565b5f61018f61018a8461013f565b610125565b9050828152602081018484840111156101ab576101aa6100b3565b5b6101b684828561016f565b509392505050565b5f82601f8301126101d2576101d16100af565b5b81516101e284826020860161017d565b91505092915050565b5f819050919050565b6101fd816101eb565b8114610207575f80fd5b50565b5f81519050610218816101f4565b92915050565b5f805f805f805f60e0888a031215610239576102386100a7565b5b5f88015167ffffffffffffffff811115610256576102556100ab565b5b6102628a828b016101be565b97505060206102738a828b0161020a565b96505060406102848a828b0161020a565b955050606088015167ffffffffffffffff8111156102a5576102a46100ab565b5b6102b18a828b016101be565b945050608088015167ffffffffffffffff8111156102d2576102d16100ab565b5b6102de8a828b016101be565b93505060a088015167ffffffffffffffff8111156102ff576102fe6100ab565b5b61030b8a828b016101be565b92505060c088015167ffffffffffffffff81111561032c5761032b6100ab565b5b6103388a828b016101be565b91505092959891949750929550565b5f81519050919050565b7f4e487b71000000000000000000000000000000000000000000000000000000005f52602260045260245ffd5b5f600282049050600182168061039557607f821691505b6020821081036103a8576103a7610351565b5b50919050565b5f819050815f5260205f209050919050565b5f6020601f8301049050919050565b5f82821b905092915050565b5f6008830261040a7fffffffffffffffffffffffffffffffffffffffffffffffffffffffffffffffff826103cf565b61041486836103cf565b95508019841693508086168417925050509392505050565b5f819050919050565b5f61044f61044a610445846101eb565b61042c565b6101eb565b9050919050565b5f819050919050565b61046883610435565b61047c61047482610456565b8484546103db565b825550505050565b5f90565b610490610484565b61049b81848461045f565b505050565b5b818110156104be576104b35f82610488565b6001810190506104a1565b5050565b601f821115610503576104d4816103ae565b6104dd846103c0565b810160208510156104ec578190505b6105006104f8856103c0565b8301826104a0565b50505b505050565b5f82821c905092915050565b5f6105235f1984600802610508565b1980831691505092915050565b5f61053b8383610514565b9150826002028217905092915050565b61055482610347565b67ffffffffffffffff81111561056d5761056c6100c7565b5b610577825461037e565b6105828282856104c2565b5f60209050601f8311600181146105b3575f84156105a1578287015190505b6105ab8582610530565b865550610612565b601f1984166105c1866103ae565b5f5b828110156105e8578489015182556001820191506020850194506020810190506105c3565b868310156106055784890151610601601f891682610514565b8355505b6001600288020188555050505b505050505050565b610bdb806106275f395ff3fe608060405234801561000f575f80fd5b506004361061009c575f3560e01c8063a8970da711610064578063a8970da71461013c578063b508ba311461015a578063c912648214610178578063eb96548f14610197578063f6c97f91146101b55761009c565b80633c84c5a5146100a05780636ef9a278146100be57806370d1f986146100dc57806375cda9151461010057806375d880321461011e575b5f80fd5b6100a86101d4565b6040516100b591906109da565b60405180910390f35b6100c66101da565b6040516100d391906109da565b60405180910390f35b6100e46101e0565b6040516100f79796959493929190610a63565b60405180910390f35b6101086104c2565b6040516101159190610af3565b60405180910390f35b61012661054e565b6040516101339190610af3565b60405180910390f35b6101446105da565b6040516101519190610af3565b60405180910390f35b610162610665565b60405161016f9190610af3565b60405180910390f35b6101806106f1565b60405161018e929190610b13565b60405180910390f35b61019f610814565b6040516101ac9190610af3565b60405180910390f35b6101bd6108a0565b6040516101cb929190610b13565b60405180910390f35b60045481565b60035481565b60608060605f6060805f6002600560066003545f600160045486805461020590610b75565b80601f016020809104026020016040519081016040528092919081815260200182805461023190610b75565b801561027c5780601f106102535761010080835404028352916020019161027c565b820191905f5260205f20905b81548152906001019060200180831161025f57829003601f168201915b5050505050965085805461028f90610b75565b80601f01602080910402602001604051908101604052809291908181526020018280546102bb90610b75565b80156103065780601f106102dd57610100808354040283529160200191610306565b820191905f5260205f20905b8154815290600101906020018083116102e957829003601f168201915b5050505050955084805461031990610b75565b80601f016020809104026020016040519081016040528092919081815260200182805461034590610b75565b80156103905780601f1061036757610100808354040283529160200191610390565b820191905f5260205f20905b81548152906001019060200180831161037357829003601f168201915b505050505094508280546103a390610b75565b80601f01602080910402602001604051908101604052809291908181526020018280546103cf90610b75565b801561041a5780601f106103f15761010080835404028352916020019161041a565b820191905f5260205f20905b8154815290600101906020018083116103fd57829003601f168201915b5050505050925081805461042d90610b75565b80601f016020809104026020016040519081016040528092919081815260200182805461045990610b75565b80156104a45780601f1061047b576101008083540402835291602001916104a4565b820191905f5260205f20905b81548152906001019060200180831161048757829003601f168201915b50505050509150965096509650965096509650965090919293949596565b600580546104cf90610b75565b80601f01602080910402602001604051908101604052809291908181526020018280546104fb90610b75565b80156105465780601f1061051d57610100808354040283529160200191610546565b820191905f5260205f20905b81548152906001019060200180831161052957829003601f168201915b505050505081565b6006805461055b90610b75565b80601f016020809104026020016040519081016040528092919081815260200182805461058790610b75565b80156105d25780601f106105a9576101008083540402835291602001916105d2565b820191905f5260205f20905b8154815290600101906020018083116105b557829003601f168201915b505050505081565b5f80546105e690610b75565b80601f016020809104026020016040519081016040528092919081815260200182805461061290610b75565b801561065d5780601f106106345761010080835404028352916020019161065d565b820191905f5260205f20905b81548152906001019060200180831161064057829003601f168201915b505050505081565b6002805461067290610b75565b80601f016020809104026020016040519081016040528092919081815260200182805461069e90610b75565b80156106e95780601f106106c0576101008083540402835291602001916106e9565b820191905f5260205f20905b8154815290600101906020018083116106cc57829003601f168201915b505050505081565b6060806005600681805461070490610b75565b80601f016020809104026020016040519081016040528092919081815260200182805461073090610b75565b801561077b5780601f106107525761010080835404028352916020019161077b565b820191905f5260205f20905b81548152906001019060200180831161075e57829003601f168201915b5050505050915080805461078e90610b75565b80601f01602080910402602001604051908101604052809291908181526020018280546107ba90610b75565b80156108055780601f106107dc57610100808354040283529160200191610805565b820191905f5260205f20905b8154815290600101906020018083116107e857829003601f168201915b50505050509050915091509091565b6001805461082190610b75565b80601f016020809104026020016040519081016040528092919081815260200182805461084d90610b75565b80156108985780601f1061086f57610100808354040283529160200191610898565b820191905f5260205f20905b81548152906001019060200180831161087b57829003601f168201915b505050505081565b6060805f60018180546108b290610b75565b80601f01602080910402602001604051908101604052809291908181526020018280546108de90610b75565b80156109295780601f1061090057610100808354040283529160200191610929565b820191905f5260205f20905b81548152906001019060200180831161090c57829003601f168201915b5050505050915080805461093c90610b75565b80601f016020809104026020016040519081016040528092919081815260200182805461096890610b75565b80156109b35780601f1061098a576101008083540402835291602001916109b3565b820191905f5260205f20905b81548152906001019060200180831161099657829003601f168201915b50505050509050915091509091565b5f819050919050565b6109d4816109c2565b82525050565b5f6020820190506109ed5f8301846109cb565b92915050565b5f81519050919050565b5f82825260208201905092915050565b8281835e5f83830152505050565b5f601f19601f8301169050919050565b5f610a35826109f3565b610a3f81856109fd565b9350610a4f818560208601610a0d565b610a5881610a1b565b840191505092915050565b5f60e0820190508181035f830152610a7b818a610a2b565b90508181036020830152610a8f8189610a2b565b90508181036040830152610aa38188610a2b565b9050610ab260608301876109cb565b8181036080830152610ac48186610a2b565b905081810360a0830152610ad88185610a2b565b9050610ae760c08301846109cb565b98975050505050505050565b5f6020820190508181035f830152610b0b8184610a2b565b905092915050565b5f6040820190508181035f830152610b2b8185610a2b565b90508181036020830152610b3f8184610a2b565b90509392505050565b7f4e487b71000000000000000000000000000000000000000000000000000000005f52602260045260245ffd5b5f6002820490506001821680610b8c57607f821691505b602082108103610b9f57610b9e610b48565b5b5091905056fea26469706673582212204c39e0e04c782d7179fff987189b800d1ecedbafad2fd0313e92ba490a4c155d64736f6c634300081a0033",
					"opcodes": "PUSH1 0x80 PUSH1 0x40 MSTORE CALLVALUE DUP1 ISZERO PUSH2 0xF JUMPI PUSH0 DUP1 REVERT JUMPDEST POP PUSH1 0x40 MLOAD PUSH2 0x1202 CODESIZE SUB DUP1 PUSH2 0x1202 DUP4 CODECOPY DUP2 DUP2 ADD PUSH1 0x40 MSTORE DUP2 ADD SWAP1 PUSH2 0x31 SWAP2 SWAP1 PUSH2 0x21E JUMP JUMPDEST DUP2 DUP2 DUP2 PUSH0 SWAP1 DUP2 PUSH2 0x41 SWAP2 SWAP1 PUSH2 0x54B JUMP JUMPDEST POP DUP1 PUSH1 0x1 SWAP1 DUP2 PUSH2 0x51 SWAP2 SWAP1 PUSH2 0x54B JUMP JUMPDEST POP POP POP DUP7 PUSH1 0x2 SWAP1 DUP2 PUSH2 0x63 SWAP2 SWAP1 PUSH2 0x54B JUMP JUMPDEST POP DUP6 PUSH1 0x3 DUP2 SWAP1 SSTORE POP DUP5 PUSH1 0x4 DUP2 SWAP1 SSTORE POP DUP4 PUSH1 0x5 SWAP1 DUP2 PUSH2 0x81 SWAP2 SWAP1 PUSH2 0x54B JUMP JUMPDEST POP DUP3 PUSH1 0x6 SWAP1 DUP2 PUSH2 0x91 SWAP2 SWAP1 PUSH2 0x54B JUMP JUMPDEST POP POP POP POP POP POP POP POP PUSH2 0x61A JUMP JUMPDEST PUSH0 PUSH1 0x40 MLOAD SWAP1 POP SWAP1 JUMP JUMPDEST PUSH0 DUP1 REVERT JUMPDEST PUSH0 DUP1 REVERT JUMPDEST PUSH0 DUP1 REVERT JUMPDEST PUSH0 DUP1 REVERT JUMPDEST PUSH0 PUSH1 0x1F NOT PUSH1 0x1F DUP4 ADD AND SWAP1 POP SWAP2 SWAP1 POP JUMP JUMPDEST PUSH32 0x4E487B7100000000000000000000000000000000000000000000000000000000 PUSH0 MSTORE PUSH1 0x41 PUSH1 0x4 MSTORE PUSH1 0x24 PUSH0 REVERT JUMPDEST PUSH2 0xFD DUP3 PUSH2 0xB7 JUMP JUMPDEST DUP2 ADD DUP2 DUP2 LT PUSH8 0xFFFFFFFFFFFFFFFF DUP3 GT OR ISZERO PUSH2 0x11C JUMPI PUSH2 0x11B PUSH2 0xC7 JUMP JUMPDEST JUMPDEST DUP1 PUSH1 0x40 MSTORE POP POP POP JUMP JUMPDEST PUSH0 PUSH2 0x12E PUSH2 0x9E JUMP JUMPDEST SWAP1 POP PUSH2 0x13A DUP3 DUP3 PUSH2 0xF4 JUMP JUMPDEST SWAP2 SWAP1 POP JUMP JUMPDEST PUSH0 PUSH8 0xFFFFFFFFFFFFFFFF DUP3 GT ISZERO PUSH2 0x159 JUMPI PUSH2 0x158 PUSH2 0xC7 JUMP JUMPDEST JUMPDEST PUSH2 0x162 DUP3 PUSH2 0xB7 JUMP JUMPDEST SWAP1 POP PUSH1 0x20 DUP2 ADD SWAP1 POP SWAP2 SWAP1 POP JUMP JUMPDEST DUP3 DUP2 DUP4 MCOPY PUSH0 DUP4 DUP4 ADD MSTORE POP POP POP JUMP JUMPDEST PUSH0 PUSH2 0x18F PUSH2 0x18A DUP5 PUSH2 0x13F JUMP JUMPDEST PUSH2 0x125 JUMP JUMPDEST SWAP1 POP DUP3 DUP2 MSTORE PUSH1 0x20 DUP2 ADD DUP5 DUP5 DUP5 ADD GT ISZERO PUSH2 0x1AB JUMPI PUSH2 0x1AA PUSH2 0xB3 JUMP JUMPDEST JUMPDEST PUSH2 0x1B6 DUP5 DUP3 DUP6 PUSH2 0x16F JUMP JUMPDEST POP SWAP4 SWAP3 POP POP POP JUMP JUMPDEST PUSH0 DUP3 PUSH1 0x1F DUP4 ADD SLT PUSH2 0x1D2 JUMPI PUSH2 0x1D1 PUSH2 0xAF JUMP JUMPDEST JUMPDEST DUP2 MLOAD PUSH2 0x1E2 DUP5 DUP3 PUSH1 0x20 DUP7 ADD PUSH2 0x17D JUMP JUMPDEST SWAP2 POP POP SWAP3 SWAP2 POP POP JUMP JUMPDEST PUSH0 DUP2 SWAP1 POP SWAP2 SWAP1 POP JUMP JUMPDEST PUSH2 0x1FD DUP2 PUSH2 0x1EB JUMP JUMPDEST DUP2 EQ PUSH2 0x207 JUMPI PUSH0 DUP1 REVERT JUMPDEST POP JUMP JUMPDEST PUSH0 DUP2 MLOAD SWAP1 POP PUSH2 0x218 DUP2 PUSH2 0x1F4 JUMP JUMPDEST SWAP3 SWAP2 POP POP JUMP JUMPDEST PUSH0 DUP1 PUSH0 DUP1 PUSH0 DUP1 PUSH0 PUSH1 0xE0 DUP9 DUP11 SUB SLT ISZERO PUSH2 0x239 JUMPI PUSH2 0x238 PUSH2 0xA7 JUMP JUMPDEST JUMPDEST PUSH0 DUP9 ADD MLOAD PUSH8 0xFFFFFFFFFFFFFFFF DUP2 GT ISZERO PUSH2 0x256 JUMPI PUSH2 0x255 PUSH2 0xAB JUMP JUMPDEST JUMPDEST PUSH2 0x262 DUP11 DUP3 DUP12 ADD PUSH2 0x1BE JUMP JUMPDEST SWAP8 POP POP PUSH1 0x20 PUSH2 0x273 DUP11 DUP3 DUP12 ADD PUSH2 0x20A JUMP JUMPDEST SWAP7 POP POP PUSH1 0x40 PUSH2 0x284 DUP11 DUP3 DUP12 ADD PUSH2 0x20A JUMP JUMPDEST SWAP6 POP POP PUSH1 0x60 DUP9 ADD MLOAD PUSH8 0xFFFFFFFFFFFFFFFF DUP2 GT ISZERO PUSH2 0x2A5 JUMPI PUSH2 0x2A4 PUSH2 0xAB JUMP JUMPDEST JUMPDEST PUSH2 0x2B1 DUP11 DUP3 DUP12 ADD PUSH2 0x1BE JUMP JUMPDEST SWAP5 POP POP PUSH1 0x80 DUP9 ADD MLOAD PUSH8 0xFFFFFFFFFFFFFFFF DUP2 GT ISZERO PUSH2 0x2D2 JUMPI PUSH2 0x2D1 PUSH2 0xAB JUMP JUMPDEST JUMPDEST PUSH2 0x2DE DUP11 DUP3 DUP12 ADD PUSH2 0x1BE JUMP JUMPDEST SWAP4 POP POP PUSH1 0xA0 DUP9 ADD MLOAD PUSH8 0xFFFFFFFFFFFFFFFF DUP2 GT ISZERO PUSH2 0x2FF JUMPI PUSH2 0x2FE PUSH2 0xAB JUMP JUMPDEST JUMPDEST PUSH2 0x30B DUP11 DUP3 DUP12 ADD PUSH2 0x1BE JUMP JUMPDEST SWAP3 POP POP PUSH1 0xC0 DUP9 ADD MLOAD PUSH8 0xFFFFFFFFFFFFFFFF DUP2 GT ISZERO PUSH2 0x32C JUMPI PUSH2 0x32B PUSH2 0xAB JUMP JUMPDEST JUMPDEST PUSH2 0x338 DUP11 DUP3 DUP12 ADD PUSH2 0x1BE JUMP JUMPDEST SWAP2 POP POP SWAP3 SWAP6 SWAP9 SWAP2 SWAP5 SWAP8 POP SWAP3 SWAP6 POP JUMP JUMPDEST PUSH0 DUP2 MLOAD SWAP1 POP SWAP2 SWAP1 POP JUMP JUMPDEST PUSH32 0x4E487B7100000000000000000000000000000000000000000000000000000000 PUSH0 MSTORE PUSH1 0x22 PUSH1 0x4 MSTORE PUSH1 0x24 PUSH0 REVERT JUMPDEST PUSH0 PUSH1 0x2 DUP3 DIV SWAP1 POP PUSH1 0x1 DUP3 AND DUP1 PUSH2 0x395 JUMPI PUSH1 0x7F DUP3 AND SWAP2 POP JUMPDEST PUSH1 0x20 DUP3 LT DUP2 SUB PUSH2 0x3A8 JUMPI PUSH2 0x3A7 PUSH2 0x351 JUMP JUMPDEST JUMPDEST POP SWAP2 SWAP1 POP JUMP JUMPDEST PUSH0 DUP2 SWAP1 POP DUP2 PUSH0 MSTORE PUSH1 0x20 PUSH0 KECCAK256 SWAP1 POP SWAP2 SWAP1 POP JUMP JUMPDEST PUSH0 PUSH1 0x20 PUSH1 0x1F DUP4 ADD DIV SWAP1 POP SWAP2 SWAP1 POP JUMP JUMPDEST PUSH0 DUP3 DUP3 SHL SWAP1 POP SWAP3 SWAP2 POP POP JUMP JUMPDEST PUSH0 PUSH1 0x8 DUP4 MUL PUSH2 0x40A PUSH32 0xFFFFFFFFFFFFFFFFFFFFFFFFFFFFFFFFFFFFFFFFFFFFFFFFFFFFFFFFFFFFFFFF DUP3 PUSH2 0x3CF JUMP JUMPDEST PUSH2 0x414 DUP7 DUP4 PUSH2 0x3CF JUMP JUMPDEST SWAP6 POP DUP1 NOT DUP5 AND SWAP4 POP DUP1 DUP7 AND DUP5 OR SWAP3 POP POP POP SWAP4 SWAP3 POP POP POP JUMP JUMPDEST PUSH0 DUP2 SWAP1 POP SWAP2 SWAP1 POP JUMP JUMPDEST PUSH0 PUSH2 0x44F PUSH2 0x44A PUSH2 0x445 DUP5 PUSH2 0x1EB JUMP JUMPDEST PUSH2 0x42C JUMP JUMPDEST PUSH2 0x1EB JUMP JUMPDEST SWAP1 POP SWAP2 SWAP1 POP JUMP JUMPDEST PUSH0 DUP2 SWAP1 POP SWAP2 SWAP1 POP JUMP JUMPDEST PUSH2 0x468 DUP4 PUSH2 0x435 JUMP JUMPDEST PUSH2 0x47C PUSH2 0x474 DUP3 PUSH2 0x456 JUMP JUMPDEST DUP5 DUP5 SLOAD PUSH2 0x3DB JUMP JUMPDEST DUP3 SSTORE POP POP POP POP JUMP JUMPDEST PUSH0 SWAP1 JUMP JUMPDEST PUSH2 0x490 PUSH2 0x484 JUMP JUMPDEST PUSH2 0x49B DUP2 DUP5 DUP5 PUSH2 0x45F JUMP JUMPDEST POP POP POP JUMP JUMPDEST JUMPDEST DUP2 DUP2 LT ISZERO PUSH2 0x4BE JUMPI PUSH2 0x4B3 PUSH0 DUP3 PUSH2 0x488 JUMP JUMPDEST PUSH1 0x1 DUP2 ADD SWAP1 POP PUSH2 0x4A1 JUMP JUMPDEST POP POP JUMP JUMPDEST PUSH1 0x1F DUP3 GT ISZERO PUSH2 0x503 JUMPI PUSH2 0x4D4 DUP2 PUSH2 0x3AE JUMP JUMPDEST PUSH2 0x4DD DUP5 PUSH2 0x3C0 JUMP JUMPDEST DUP2 ADD PUSH1 0x20 DUP6 LT ISZERO PUSH2 0x4EC JUMPI DUP2 SWAP1 POP JUMPDEST PUSH2 0x500 PUSH2 0x4F8 DUP6 PUSH2 0x3C0 JUMP JUMPDEST DUP4 ADD DUP3 PUSH2 0x4A0 JUMP JUMPDEST POP POP JUMPDEST POP POP POP JUMP JUMPDEST PUSH0 DUP3 DUP3 SHR SWAP1 POP SWAP3 SWAP2 POP POP JUMP JUMPDEST PUSH0 PUSH2 0x523 PUSH0 NOT DUP5 PUSH1 0x8 MUL PUSH2 0x508 JUMP JUMPDEST NOT DUP1 DUP4 AND SWAP2 POP POP SWAP3 SWAP2 POP POP JUMP JUMPDEST PUSH0 PUSH2 0x53B DUP4 DUP4 PUSH2 0x514 JUMP JUMPDEST SWAP2 POP DUP3 PUSH1 0x2 MUL DUP3 OR SWAP1 POP SWAP3 SWAP2 POP POP JUMP JUMPDEST PUSH2 0x554 DUP3 PUSH2 0x347 JUMP JUMPDEST PUSH8 0xFFFFFFFFFFFFFFFF DUP2 GT ISZERO PUSH2 0x56D JUMPI PUSH2 0x56C PUSH2 0xC7 JUMP JUMPDEST JUMPDEST PUSH2 0x577 DUP3 SLOAD PUSH2 0x37E JUMP JUMPDEST PUSH2 0x582 DUP3 DUP3 DUP6 PUSH2 0x4C2 JUMP JUMPDEST PUSH0 PUSH1 0x20 SWAP1 POP PUSH1 0x1F DUP4 GT PUSH1 0x1 DUP2 EQ PUSH2 0x5B3 JUMPI PUSH0 DUP5 ISZERO PUSH2 0x5A1 JUMPI DUP3 DUP8 ADD MLOAD SWAP1 POP JUMPDEST PUSH2 0x5AB DUP6 DUP3 PUSH2 0x530 JUMP JUMPDEST DUP7 SSTORE POP PUSH2 0x612 JUMP JUMPDEST PUSH1 0x1F NOT DUP5 AND PUSH2 0x5C1 DUP7 PUSH2 0x3AE JUMP JUMPDEST PUSH0 JUMPDEST DUP3 DUP2 LT ISZERO PUSH2 0x5E8 JUMPI DUP5 DUP10 ADD MLOAD DUP3 SSTORE PUSH1 0x1 DUP3 ADD SWAP2 POP PUSH1 0x20 DUP6 ADD SWAP5 POP PUSH1 0x20 DUP2 ADD SWAP1 POP PUSH2 0x5C3 JUMP JUMPDEST DUP7 DUP4 LT ISZERO PUSH2 0x605 JUMPI DUP5 DUP10 ADD MLOAD PUSH2 0x601 PUSH1 0x1F DUP10 AND DUP3 PUSH2 0x514 JUMP JUMPDEST DUP4 SSTORE POP JUMPDEST PUSH1 0x1 PUSH1 0x2 DUP9 MUL ADD DUP9 SSTORE POP POP POP JUMPDEST POP POP POP POP POP POP JUMP JUMPDEST PUSH2 0xBDB DUP1 PUSH2 0x627 PUSH0 CODECOPY PUSH0 RETURN INVALID PUSH1 0x80 PUSH1 0x40 MSTORE CALLVALUE DUP1 ISZERO PUSH2 0xF JUMPI PUSH0 DUP1 REVERT JUMPDEST POP PUSH1 0x4 CALLDATASIZE LT PUSH2 0x9C JUMPI PUSH0 CALLDATALOAD PUSH1 0xE0 SHR DUP1 PUSH4 0xA8970DA7 GT PUSH2 0x64 JUMPI DUP1 PUSH4 0xA8970DA7 EQ PUSH2 0x13C JUMPI DUP1 PUSH4 0xB508BA31 EQ PUSH2 0x15A JUMPI DUP1 PUSH4 0xC9126482 EQ PUSH2 0x178 JUMPI DUP1 PUSH4 0xEB96548F EQ PUSH2 0x197 JUMPI DUP1 PUSH4 0xF6C97F91 EQ PUSH2 0x1B5 JUMPI PUSH2 0x9C JUMP JUMPDEST DUP1 PUSH4 0x3C84C5A5 EQ PUSH2 0xA0 JUMPI DUP1 PUSH4 0x6EF9A278 EQ PUSH2 0xBE JUMPI DUP1 PUSH4 0x70D1F986 EQ PUSH2 0xDC JUMPI DUP1 PUSH4 0x75CDA915 EQ PUSH2 0x100 JUMPI DUP1 PUSH4 0x75D88032 EQ PUSH2 0x11E JUMPI JUMPDEST PUSH0 DUP1 REVERT JUMPDEST PUSH2 0xA8 PUSH2 0x1D4 JUMP JUMPDEST PUSH1 0x40 MLOAD PUSH2 0xB5 SWAP2 SWAP1 PUSH2 0x9DA JUMP JUMPDEST PUSH1 0x40 MLOAD DUP1 SWAP2 SUB SWAP1 RETURN JUMPDEST PUSH2 0xC6 PUSH2 0x1DA JUMP JUMPDEST PUSH1 0x40 MLOAD PUSH2 0xD3 SWAP2 SWAP1 PUSH2 0x9DA JUMP JUMPDEST PUSH1 0x40 MLOAD DUP1 SWAP2 SUB SWAP1 RETURN JUMPDEST PUSH2 0xE4 PUSH2 0x1E0 JUMP JUMPDEST PUSH1 0x40 MLOAD PUSH2 0xF7 SWAP8 SWAP7 SWAP6 SWAP5 SWAP4 SWAP3 SWAP2 SWAP1 PUSH2 0xA63 JUMP JUMPDEST PUSH1 0x40 MLOAD DUP1 SWAP2 SUB SWAP1 RETURN JUMPDEST PUSH2 0x108 PUSH2 0x4C2 JUMP JUMPDEST PUSH1 0x40 MLOAD PUSH2 0x115 SWAP2 SWAP1 PUSH2 0xAF3 JUMP JUMPDEST PUSH1 0x40 MLOAD DUP1 SWAP2 SUB SWAP1 RETURN JUMPDEST PUSH2 0x126 PUSH2 0x54E JUMP JUMPDEST PUSH1 0x40 MLOAD PUSH2 0x133 SWAP2 SWAP1 PUSH2 0xAF3 JUMP JUMPDEST PUSH1 0x40 MLOAD DUP1 SWAP2 SUB SWAP1 RETURN JUMPDEST PUSH2 0x144 PUSH2 0x5DA JUMP JUMPDEST PUSH1 0x40 MLOAD PUSH2 0x151 SWAP2 SWAP1 PUSH2 0xAF3 JUMP JUMPDEST PUSH1 0x40 MLOAD DUP1 SWAP2 SUB SWAP1 RETURN JUMPDEST PUSH2 0x162 PUSH2 0x665 JUMP JUMPDEST PUSH1 0x40 MLOAD PUSH2 0x16F SWAP2 SWAP1 PUSH2 0xAF3 JUMP JUMPDEST PUSH1 0x40 MLOAD DUP1 SWAP2 SUB SWAP1 RETURN JUMPDEST PUSH2 0x180 PUSH2 0x6F1 JUMP JUMPDEST PUSH1 0x40 MLOAD PUSH2 0x18E SWAP3 SWAP2 SWAP1 PUSH2 0xB13 JUMP JUMPDEST PUSH1 0x40 MLOAD DUP1 SWAP2 SUB SWAP1 RETURN JUMPDEST PUSH2 0x19F PUSH2 0x814 JUMP JUMPDEST PUSH1 0x40 MLOAD PUSH2 0x1AC SWAP2 SWAP1 PUSH2 0xAF3 JUMP JUMPDEST PUSH1 0x40 MLOAD DUP1 SWAP2 SUB SWAP1 RETURN JUMPDEST PUSH2 0x1BD PUSH2 0x8A0 JUMP JUMPDEST PUSH1 0x40 MLOAD PUSH2 0x1CB SWAP3 SWAP2 SWAP1 PUSH2 0xB13 JUMP JUMPDEST PUSH1 0x40 MLOAD DUP1 SWAP2 SUB SWAP1 RETURN JUMPDEST PUSH1 0x4 SLOAD DUP2 JUMP JUMPDEST PUSH1 0x3 SLOAD DUP2 JUMP JUMPDEST PUSH1 0x60 DUP1 PUSH1 0x60 PUSH0 PUSH1 0x60 DUP1 PUSH0 PUSH1 0x2 PUSH1 0x5 PUSH1 0x6 PUSH1 0x3 SLOAD PUSH0 PUSH1 0x1 PUSH1 0x4 SLOAD DUP7 DUP1 SLOAD PUSH2 0x205 SWAP1 PUSH2 0xB75 JUMP JUMPDEST DUP1 PUSH1 0x1F ADD PUSH1 0x20 DUP1 SWAP2 DIV MUL PUSH1 0x20 ADD PUSH1 0x40 MLOAD SWAP1 DUP2 ADD PUSH1 0x40 MSTORE DUP1 SWAP3 SWAP2 SWAP1 DUP2 DUP2 MSTORE PUSH1 0x20 ADD DUP3 DUP1 SLOAD PUSH2 0x231 SWAP1 PUSH2 0xB75 JUMP JUMPDEST DUP1 ISZERO PUSH2 0x27C JUMPI DUP1 PUSH1 0x1F LT PUSH2 0x253 JUMPI PUSH2 0x100 DUP1 DUP4 SLOAD DIV MUL DUP4 MSTORE SWAP2 PUSH1 0x20 ADD SWAP2 PUSH2 0x27C JUMP JUMPDEST DUP3 ADD SWAP2 SWAP1 PUSH0 MSTORE PUSH1 0x20 PUSH0 KECCAK256 SWAP1 JUMPDEST DUP2 SLOAD DUP2 MSTORE SWAP1 PUSH1 0x1 ADD SWAP1 PUSH1 0x20 ADD DUP1 DUP4 GT PUSH2 0x25F JUMPI DUP3 SWAP1 SUB PUSH1 0x1F AND DUP3 ADD SWAP2 JUMPDEST POP POP POP POP POP SWAP7 POP DUP6 DUP1 SLOAD PUSH2 0x28F SWAP1 PUSH2 0xB75 JUMP JUMPDEST DUP1 PUSH1 0x1F ADD PUSH1 0x20 DUP1 SWAP2 DIV MUL PUSH1 0x20 ADD PUSH1 0x40 MLOAD SWAP1 DUP2 ADD PUSH1 0x40 MSTORE DUP1 SWAP3 SWAP2 SWAP1 DUP2 DUP2 MSTORE PUSH1 0x20 ADD DUP3 DUP1 SLOAD PUSH2 0x2BB SWAP1 PUSH2 0xB75 JUMP JUMPDEST DUP1 ISZERO PUSH2 0x306 JUMPI DUP1 PUSH1 0x1F LT PUSH2 0x2DD JUMPI PUSH2 0x100 DUP1 DUP4 SLOAD DIV MUL DUP4 MSTORE SWAP2 PUSH1 0x20 ADD SWAP2 PUSH2 0x306 JUMP JUMPDEST DUP3 ADD SWAP2 SWAP1 PUSH0 MSTORE PUSH1 0x20 PUSH0 KECCAK256 SWAP1 JUMPDEST DUP2 SLOAD DUP2 MSTORE SWAP1 PUSH1 0x1 ADD SWAP1 PUSH1 0x20 ADD DUP1 DUP4 GT PUSH2 0x2E9 JUMPI DUP3 SWAP1 SUB PUSH1 0x1F AND DUP3 ADD SWAP2 JUMPDEST POP POP POP POP POP SWAP6 POP DUP5 DUP1 SLOAD PUSH2 0x319 SWAP1 PUSH2 0xB75 JUMP JUMPDEST DUP1 PUSH1 0x1F ADD PUSH1 0x20 DUP1 SWAP2 DIV MUL PUSH1 0x20 ADD PUSH1 0x40 MLOAD SWAP1 DUP2 ADD PUSH1 0x40 MSTORE DUP1 SWAP3 SWAP2 SWAP1 DUP2 DUP2 MSTORE PUSH1 0x20 ADD DUP3 DUP1 SLOAD PUSH2 0x345 SWAP1 PUSH2 0xB75 JUMP JUMPDEST DUP1 ISZERO PUSH2 0x390 JUMPI DUP1 PUSH1 0x1F LT PUSH2 0x367 JUMPI PUSH2 0x100 DUP1 DUP4 SLOAD DIV MUL DUP4 MSTORE SWAP2 PUSH1 0x20 ADD SWAP2 PUSH2 0x390 JUMP JUMPDEST DUP3 ADD SWAP2 SWAP1 PUSH0 MSTORE PUSH1 0x20 PUSH0 KECCAK256 SWAP1 JUMPDEST DUP2 SLOAD DUP2 MSTORE SWAP1 PUSH1 0x1 ADD SWAP1 PUSH1 0x20 ADD DUP1 DUP4 GT PUSH2 0x373 JUMPI DUP3 SWAP1 SUB PUSH1 0x1F AND DUP3 ADD SWAP2 JUMPDEST POP POP POP POP POP SWAP5 POP DUP3 DUP1 SLOAD PUSH2 0x3A3 SWAP1 PUSH2 0xB75 JUMP JUMPDEST DUP1 PUSH1 0x1F ADD PUSH1 0x20 DUP1 SWAP2 DIV MUL PUSH1 0x20 ADD PUSH1 0x40 MLOAD SWAP1 DUP2 ADD PUSH1 0x40 MSTORE DUP1 SWAP3 SWAP2 SWAP1 DUP2 DUP2 MSTORE PUSH1 0x20 ADD DUP3 DUP1 SLOAD PUSH2 0x3CF SWAP1 PUSH2 0xB75 JUMP JUMPDEST DUP1 ISZERO PUSH2 0x41A JUMPI DUP1 PUSH1 0x1F LT PUSH2 0x3F1 JUMPI PUSH2 0x100 DUP1 DUP4 SLOAD DIV MUL DUP4 MSTORE SWAP2 PUSH1 0x20 ADD SWAP2 PUSH2 0x41A JUMP JUMPDEST DUP3 ADD SWAP2 SWAP1 PUSH0 MSTORE PUSH1 0x20 PUSH0 KECCAK256 SWAP1 JUMPDEST DUP2 SLOAD DUP2 MSTORE SWAP1 PUSH1 0x1 ADD SWAP1 PUSH1 0x20 ADD DUP1 DUP4 GT PUSH2 0x3FD JUMPI DUP3 SWAP1 SUB PUSH1 0x1F AND DUP3 ADD SWAP2 JUMPDEST POP POP POP POP POP SWAP3 POP DUP2 DUP1 SLOAD PUSH2 0x42D SWAP1 PUSH2 0xB75 JUMP JUMPDEST DUP1 PUSH1 0x1F ADD PUSH1 0x20 DUP1 SWAP2 DIV MUL PUSH1 0x20 ADD PUSH1 0x40 MLOAD SWAP1 DUP2 ADD PUSH1 0x40 MSTORE DUP1 SWAP3 SWAP2 SWAP1 DUP2 DUP2 MSTORE PUSH1 0x20 ADD DUP3 DUP1 SLOAD PUSH2 0x459 SWAP1 PUSH2 0xB75 JUMP JUMPDEST DUP1 ISZERO PUSH2 0x4A4 JUMPI DUP1 PUSH1 0x1F LT PUSH2 0x47B JUMPI PUSH2 0x100 DUP1 DUP4 SLOAD DIV MUL DUP4 MSTORE SWAP2 PUSH1 0x20 ADD SWAP2 PUSH2 0x4A4 JUMP JUMPDEST DUP3 ADD SWAP2 SWAP1 PUSH0 MSTORE PUSH1 0x20 PUSH0 KECCAK256 SWAP1 JUMPDEST DUP2 SLOAD DUP2 MSTORE SWAP1 PUSH1 0x1 ADD SWAP1 PUSH1 0x20 ADD DUP1 DUP4 GT PUSH2 0x487 JUMPI DUP3 SWAP1 SUB PUSH1 0x1F AND DUP3 ADD SWAP2 JUMPDEST POP POP POP POP POP SWAP2 POP SWAP7 POP SWAP7 POP SWAP7 POP SWAP7 POP SWAP7 POP SWAP7 POP SWAP7 POP SWAP1 SWAP2 SWAP3 SWAP4 SWAP5 SWAP6 SWAP7 JUMP JUMPDEST PUSH1 0x5 DUP1 SLOAD PUSH2 0x4CF SWAP1 PUSH2 0xB75 JUMP JUMPDEST DUP1 PUSH1 0x1F ADD PUSH1 0x20 DUP1 SWAP2 DIV MUL PUSH1 0x20 ADD PUSH1 0x40 MLOAD SWAP1 DUP2 ADD PUSH1 0x40 MSTORE DUP1 SWAP3 SWAP2 SWAP1 DUP2 DUP2 MSTORE PUSH1 0x20 ADD DUP3 DUP1 SLOAD PUSH2 0x4FB SWAP1 PUSH2 0xB75 JUMP JUMPDEST DUP1 ISZERO PUSH2 0x546 JUMPI DUP1 PUSH1 0x1F LT PUSH2 0x51D JUMPI PUSH2 0x100 DUP1 DUP4 SLOAD DIV MUL DUP4 MSTORE SWAP2 PUSH1 0x20 ADD SWAP2 PUSH2 0x546 JUMP JUMPDEST DUP3 ADD SWAP2 SWAP1 PUSH0 MSTORE PUSH1 0x20 PUSH0 KECCAK256 SWAP1 JUMPDEST DUP2 SLOAD DUP2 MSTORE SWAP1 PUSH1 0x1 ADD SWAP1 PUSH1 0x20 ADD DUP1 DUP4 GT PUSH2 0x529 JUMPI DUP3 SWAP1 SUB PUSH1 0x1F AND DUP3 ADD SWAP2 JUMPDEST POP POP POP POP POP DUP2 JUMP JUMPDEST PUSH1 0x6 DUP1 SLOAD PUSH2 0x55B SWAP1 PUSH2 0xB75 JUMP JUMPDEST DUP1 PUSH1 0x1F ADD PUSH1 0x20 DUP1 SWAP2 DIV MUL PUSH1 0x20 ADD PUSH1 0x40 MLOAD SWAP1 DUP2 ADD PUSH1 0x40 MSTORE DUP1 SWAP3 SWAP2 SWAP1 DUP2 DUP2 MSTORE PUSH1 0x20 ADD DUP3 DUP1 SLOAD PUSH2 0x587 SWAP1 PUSH2 0xB75 JUMP JUMPDEST DUP1 ISZERO PUSH2 0x5D2 JUMPI DUP1 PUSH1 0x1F LT PUSH2 0x5A9 JUMPI PUSH2 0x100 DUP1 DUP4 SLOAD DIV MUL DUP4 MSTORE SWAP2 PUSH1 0x20 ADD SWAP2 PUSH2 0x5D2 JUMP JUMPDEST DUP3 ADD SWAP2 SWAP1 PUSH0 MSTORE PUSH1 0x20 PUSH0 KECCAK256 SWAP1 JUMPDEST DUP2 SLOAD DUP2 MSTORE SWAP1 PUSH1 0x1 ADD SWAP1 PUSH1 0x20 ADD DUP1 DUP4 GT PUSH2 0x5B5 JUMPI DUP3 SWAP1 SUB PUSH1 0x1F AND DUP3 ADD SWAP2 JUMPDEST POP POP POP POP POP DUP2 JUMP JUMPDEST PUSH0 DUP1 SLOAD PUSH2 0x5E6 SWAP1 PUSH2 0xB75 JUMP JUMPDEST DUP1 PUSH1 0x1F ADD PUSH1 0x20 DUP1 SWAP2 DIV MUL PUSH1 0x20 ADD PUSH1 0x40 MLOAD SWAP1 DUP2 ADD PUSH1 0x40 MSTORE DUP1 SWAP3 SWAP2 SWAP1 DUP2 DUP2 MSTORE PUSH1 0x20 ADD DUP3 DUP1 SLOAD PUSH2 0x612 SWAP1 PUSH2 0xB75 JUMP JUMPDEST DUP1 ISZERO PUSH2 0x65D JUMPI DUP1 PUSH1 0x1F LT PUSH2 0x634 JUMPI PUSH2 0x100 DUP1 DUP4 SLOAD DIV MUL DUP4 MSTORE SWAP2 PUSH1 0x20 ADD SWAP2 PUSH2 0x65D JUMP JUMPDEST DUP3 ADD SWAP2 SWAP1 PUSH0 MSTORE PUSH1 0x20 PUSH0 KECCAK256 SWAP1 JUMPDEST DUP2 SLOAD DUP2 MSTORE SWAP1 PUSH1 0x1 ADD SWAP1 PUSH1 0x20 ADD DUP1 DUP4 GT PUSH2 0x640 JUMPI DUP3 SWAP1 SUB PUSH1 0x1F AND DUP3 ADD SWAP2 JUMPDEST POP POP POP POP POP DUP2 JUMP JUMPDEST PUSH1 0x2 DUP1 SLOAD PUSH2 0x672 SWAP1 PUSH2 0xB75 JUMP JUMPDEST DUP1 PUSH1 0x1F ADD PUSH1 0x20 DUP1 SWAP2 DIV MUL PUSH1 0x20 ADD PUSH1 0x40 MLOAD SWAP1 DUP2 ADD PUSH1 0x40 MSTORE DUP1 SWAP3 SWAP2 SWAP1 DUP2 DUP2 MSTORE PUSH1 0x20 ADD DUP3 DUP1 SLOAD PUSH2 0x69E SWAP1 PUSH2 0xB75 JUMP JUMPDEST DUP1 ISZERO PUSH2 0x6E9 JUMPI DUP1 PUSH1 0x1F LT PUSH2 0x6C0 JUMPI PUSH2 0x100 DUP1 DUP4 SLOAD DIV MUL DUP4 MSTORE SWAP2 PUSH1 0x20 ADD SWAP2 PUSH2 0x6E9 JUMP JUMPDEST DUP3 ADD SWAP2 SWAP1 PUSH0 MSTORE PUSH1 0x20 PUSH0 KECCAK256 SWAP1 JUMPDEST DUP2 SLOAD DUP2 MSTORE SWAP1 PUSH1 0x1 ADD SWAP1 PUSH1 0x20 ADD DUP1 DUP4 GT PUSH2 0x6CC JUMPI DUP3 SWAP1 SUB PUSH1 0x1F AND DUP3 ADD SWAP2 JUMPDEST POP POP POP POP POP DUP2 JUMP JUMPDEST PUSH1 0x60 DUP1 PUSH1 0x5 PUSH1 0x6 DUP2 DUP1 SLOAD PUSH2 0x704 SWAP1 PUSH2 0xB75 JUMP JUMPDEST DUP1 PUSH1 0x1F ADD PUSH1 0x20 DUP1 SWAP2 DIV MUL PUSH1 0x20 ADD PUSH1 0x40 MLOAD SWAP1 DUP2 ADD PUSH1 0x40 MSTORE DUP1 SWAP3 SWAP2 SWAP1 DUP2 DUP2 MSTORE PUSH1 0x20 ADD DUP3 DUP1 SLOAD PUSH2 0x730 SWAP1 PUSH2 0xB75 JUMP JUMPDEST DUP1 ISZERO PUSH2 0x77B JUMPI DUP1 PUSH1 0x1F LT PUSH2 0x752 JUMPI PUSH2 0x100 DUP1 DUP4 SLOAD DIV MUL DUP4 MSTORE SWAP2 PUSH1 0x20 ADD SWAP2 PUSH2 0x77B JUMP JUMPDEST DUP3 ADD SWAP2 SWAP1 PUSH0 MSTORE PUSH1 0x20 PUSH0 KECCAK256 SWAP1 JUMPDEST DUP2 SLOAD DUP2 MSTORE SWAP1 PUSH1 0x1 ADD SWAP1 PUSH1 0x20 ADD DUP1 DUP4 GT PUSH2 0x75E JUMPI DUP3 SWAP1 SUB PUSH1 0x1F AND DUP3 ADD SWAP2 JUMPDEST POP POP POP POP POP SWAP2 POP DUP1 DUP1 SLOAD PUSH2 0x78E SWAP1 PUSH2 0xB75 JUMP JUMPDEST DUP1 PUSH1 0x1F ADD PUSH1 0x20 DUP1 SWAP2 DIV MUL PUSH1 0x20 ADD PUSH1 0x40 MLOAD SWAP1 DUP2 ADD PUSH1 0x40 MSTORE DUP1 SWAP3 SWAP2 SWAP1 DUP2 DUP2 MSTORE PUSH1 0x20 ADD DUP3 DUP1 SLOAD PUSH2 0x7BA SWAP1 PUSH2 0xB75 JUMP JUMPDEST DUP1 ISZERO PUSH2 0x805 JUMPI DUP1 PUSH1 0x1F LT PUSH2 0x7DC JUMPI PUSH2 0x100 DUP1 DUP4 SLOAD DIV MUL DUP4 MSTORE SWAP2 PUSH1 0x20 ADD SWAP2 PUSH2 0x805 JUMP JUMPDEST DUP3 ADD SWAP2 SWAP1 PUSH0 MSTORE PUSH1 0x20 PUSH0 KECCAK256 SWAP1 JUMPDEST DUP2 SLOAD DUP2 MSTORE SWAP1 PUSH1 0x1 ADD SWAP1 PUSH1 0x20 ADD DUP1 DUP4 GT PUSH2 0x7E8 JUMPI DUP3 SWAP1 SUB PUSH1 0x1F AND DUP3 ADD SWAP2 JUMPDEST POP POP POP POP POP SWAP1 POP SWAP2 POP SWAP2 POP SWAP1 SWAP2 JUMP JUMPDEST PUSH1 0x1 DUP1 SLOAD PUSH2 0x821 SWAP1 PUSH2 0xB75 JUMP JUMPDEST DUP1 PUSH1 0x1F ADD PUSH1 0x20 DUP1 SWAP2 DIV MUL PUSH1 0x20 ADD PUSH1 0x40 MLOAD SWAP1 DUP2 ADD PUSH1 0x40 MSTORE DUP1 SWAP3 SWAP2 SWAP1 DUP2 DUP2 MSTORE PUSH1 0x20 ADD DUP3 DUP1 SLOAD PUSH2 0x84D SWAP1 PUSH2 0xB75 JUMP JUMPDEST DUP1 ISZERO PUSH2 0x898 JUMPI DUP1 PUSH1 0x1F LT PUSH2 0x86F JUMPI PUSH2 0x100 DUP1 DUP4 SLOAD DIV MUL DUP4 MSTORE SWAP2 PUSH1 0x20 ADD SWAP2 PUSH2 0x898 JUMP JUMPDEST DUP3 ADD SWAP2 SWAP1 PUSH0 MSTORE PUSH1 0x20 PUSH0 KECCAK256 SWAP1 JUMPDEST DUP2 SLOAD DUP2 MSTORE SWAP1 PUSH1 0x1 ADD SWAP1 PUSH1 0x20 ADD DUP1 DUP4 GT PUSH2 0x87B JUMPI DUP3 SWAP1 SUB PUSH1 0x1F AND DUP3 ADD SWAP2 JUMPDEST POP POP POP POP POP DUP2 JUMP JUMPDEST PUSH1 0x60 DUP1 PUSH0 PUSH1 0x1 DUP2 DUP1 SLOAD PUSH2 0x8B2 SWAP1 PUSH2 0xB75 JUMP JUMPDEST DUP1 PUSH1 0x1F ADD PUSH1 0x20 DUP1 SWAP2 DIV MUL PUSH1 0x20 ADD PUSH1 0x40 MLOAD SWAP1 DUP2 ADD PUSH1 0x40 MSTORE DUP1 SWAP3 SWAP2 SWAP1 DUP2 DUP2 MSTORE PUSH1 0x20 ADD DUP3 DUP1 SLOAD PUSH2 0x8DE SWAP1 PUSH2 0xB75 JUMP JUMPDEST DUP1 ISZERO PUSH2 0x929 JUMPI DUP1 PUSH1 0x1F LT PUSH2 0x900 JUMPI PUSH2 0x100 DUP1 DUP4 SLOAD DIV MUL DUP4 MSTORE SWAP2 PUSH1 0x20 ADD SWAP2 PUSH2 0x929 JUMP JUMPDEST DUP3 ADD SWAP2 SWAP1 PUSH0 MSTORE PUSH1 0x20 PUSH0 KECCAK256 SWAP1 JUMPDEST DUP2 SLOAD DUP2 MSTORE SWAP1 PUSH1 0x1 ADD SWAP1 PUSH1 0x20 ADD DUP1 DUP4 GT PUSH2 0x90C JUMPI DUP3 SWAP1 SUB PUSH1 0x1F AND DUP3 ADD SWAP2 JUMPDEST POP POP POP POP POP SWAP2 POP DUP1 DUP1 SLOAD PUSH2 0x93C SWAP1 PUSH2 0xB75 JUMP JUMPDEST DUP1 PUSH1 0x1F ADD PUSH1 0x20 DUP1 SWAP2 DIV MUL PUSH1 0x20 ADD PUSH1 0x40 MLOAD SWAP1 DUP2 ADD PUSH1 0x40 MSTORE DUP1 SWAP3 SWAP2 SWAP1 DUP2 DUP2 MSTORE PUSH1 0x20 ADD DUP3 DUP1 SLOAD PUSH2 0x968 SWAP1 PUSH2 0xB75 JUMP JUMPDEST DUP1 ISZERO PUSH2 0x9B3 JUMPI DUP1 PUSH1 0x1F LT PUSH2 0x98A JUMPI PUSH2 0x100 DUP1 DUP4 SLOAD DIV MUL DUP4 MSTORE SWAP2 PUSH1 0x20 ADD SWAP2 PUSH2 0x9B3 JUMP JUMPDEST DUP3 ADD SWAP2 SWAP1 PUSH0 MSTORE PUSH1 0x20 PUSH0 KECCAK256 SWAP1 JUMPDEST DUP2 SLOAD DUP2 MSTORE SWAP1 PUSH1 0x1 ADD SWAP1 PUSH1 0x20 ADD DUP1 DUP4 GT PUSH2 0x996 JUMPI DUP3 SWAP1 SUB PUSH1 0x1F AND DUP3 ADD SWAP2 JUMPDEST POP POP POP POP POP SWAP1 POP SWAP2 POP SWAP2 POP SWAP1 SWAP2 JUMP JUMPDEST PUSH0 DUP2 SWAP1 POP SWAP2 SWAP1 POP JUMP JUMPDEST PUSH2 0x9D4 DUP2 PUSH2 0x9C2 JUMP JUMPDEST DUP3 MSTORE POP POP JUMP JUMPDEST PUSH0 PUSH1 0x20 DUP3 ADD SWAP1 POP PUSH2 0x9ED PUSH0 DUP4 ADD DUP5 PUSH2 0x9CB JUMP JUMPDEST SWAP3 SWAP2 POP POP JUMP JUMPDEST PUSH0 DUP2 MLOAD SWAP1 POP SWAP2 SWAP1 POP JUMP JUMPDEST PUSH0 DUP3 DUP3 MSTORE PUSH1 0x20 DUP3 ADD SWAP1 POP SWAP3 SWAP2 POP POP JUMP JUMPDEST DUP3 DUP2 DUP4 MCOPY PUSH0 DUP4 DUP4 ADD MSTORE POP POP POP JUMP JUMPDEST PUSH0 PUSH1 0x1F NOT PUSH1 0x1F DUP4 ADD AND SWAP1 POP SWAP2 SWAP1 POP JUMP JUMPDEST PUSH0 PUSH2 0xA35 DUP3 PUSH2 0x9F3 JUMP JUMPDEST PUSH2 0xA3F DUP2 DUP6 PUSH2 0x9FD JUMP JUMPDEST SWAP4 POP PUSH2 0xA4F DUP2 DUP6 PUSH1 0x20 DUP7 ADD PUSH2 0xA0D JUMP JUMPDEST PUSH2 0xA58 DUP2 PUSH2 0xA1B JUMP JUMPDEST DUP5 ADD SWAP2 POP POP SWAP3 SWAP2 POP POP JUMP JUMPDEST PUSH0 PUSH1 0xE0 DUP3 ADD SWAP1 POP DUP2 DUP2 SUB PUSH0 DUP4 ADD MSTORE PUSH2 0xA7B DUP2 DUP11 PUSH2 0xA2B JUMP JUMPDEST SWAP1 POP DUP2 DUP2 SUB PUSH1 0x20 DUP4 ADD MSTORE PUSH2 0xA8F DUP2 DUP10 PUSH2 0xA2B JUMP JUMPDEST SWAP1 POP DUP2 DUP2 SUB PUSH1 0x40 DUP4 ADD MSTORE PUSH2 0xAA3 DUP2 DUP9 PUSH2 0xA2B JUMP JUMPDEST SWAP1 POP PUSH2 0xAB2 PUSH1 0x60 DUP4 ADD DUP8 PUSH2 0x9CB JUMP JUMPDEST DUP2 DUP2 SUB PUSH1 0x80 DUP4 ADD MSTORE PUSH2 0xAC4 DUP2 DUP7 PUSH2 0xA2B JUMP JUMPDEST SWAP1 POP DUP2 DUP2 SUB PUSH1 0xA0 DUP4 ADD MSTORE PUSH2 0xAD8 DUP2 DUP6 PUSH2 0xA2B JUMP JUMPDEST SWAP1 POP PUSH2 0xAE7 PUSH1 0xC0 DUP4 ADD DUP5 PUSH2 0x9CB JUMP JUMPDEST SWAP9 SWAP8 POP POP POP POP POP POP POP POP JUMP JUMPDEST PUSH0 PUSH1 0x20 DUP3 ADD SWAP1 POP DUP2 DUP2 SUB PUSH0 DUP4 ADD MSTORE PUSH2 0xB0B DUP2 DUP5 PUSH2 0xA2B JUMP JUMPDEST SWAP1 POP SWAP3 SWAP2 POP POP JUMP JUMPDEST PUSH0 PUSH1 0x40 DUP3 ADD SWAP1 POP DUP2 DUP2 SUB PUSH0 DUP4 ADD MSTORE PUSH2 0xB2B DUP2 DUP6 PUSH2 0xA2B JUMP JUMPDEST SWAP1 POP DUP2 DUP2 SUB PUSH1 0x20 DUP4 ADD MSTORE PUSH2 0xB3F DUP2 DUP5 PUSH2 0xA2B JUMP JUMPDEST SWAP1 POP SWAP4 SWAP3 POP POP POP JUMP JUMPDEST PUSH32 0x4E487B7100000000000000000000000000000000000000000000000000000000 PUSH0 MSTORE PUSH1 0x22 PUSH1 0x4 MSTORE PUSH1 0x24 PUSH0 REVERT JUMPDEST PUSH0 PUSH1 0x2 DUP3 DIV SWAP1 POP PUSH1 0x1 DUP3 AND DUP1 PUSH2 0xB8C JUMPI PUSH1 0x7F DUP3 AND SWAP2 POP JUMPDEST PUSH1 0x20 DUP3 LT DUP2 SUB PUSH2 0xB9F JUMPI PUSH2 0xB9E PUSH2 0xB48 JUMP JUMPDEST JUMPDEST POP SWAP2 SWAP1 POP JUMP INVALID LOG2 PUSH5 0x6970667358 0x22 SLT KECCAK256 0x4C CODECOPY 0xE0 0xE0 0x4C PUSH25 0x2D7179FFF987189B800D1ECEDBAFAD2FD0313E92BA490A4C15 TSTORE PUSH5 0x736F6C6343 STOP ADDMOD BYTE STOP CALLER "
				},
				"gasEstimates": {
					"creation": {
						"codeDepositCost": "607000",
						"executionCost": "infinite",
						"totalCost": "infinite"
					},
					"external": {
						"CollegeCode()": "infinite",
						"CollegeName()": "infinite",
						"collegeDetails()": "infinite",
						"departmentDetails()": "infinite",
						"deptHead()": "infinite",
						"depthName()": "infinite",
						"marks()": "2426",
						"printReportCard()": "infinite",
						"regNo()": "2448",
						"studentName()": "infinite"
					}
				},
				"methodIdentifiers": {
					"CollegeCode()": "75d88032",
					"CollegeName()": "75cda915",
					"collegeDetails()": "c9126482",
					"departmentDetails()": "f6c97f91",
					"deptHead()": "eb96548f",
					"depthName()": "a8970da7",
					"marks()": "3c84c5a5",
					"printReportCard()": "70d1f986",
					"regNo()": "6ef9a278",
					"studentName()": "b508ba31"
				}
			},
			"storageLayout": {
				"storage": [
					{
						"astId": 11,
						"contract": "Practice/Day-10/P2.sol:Student",
						"label": "depthName",
						"offset": 0,
						"slot": "0",
						"type": "t_string_storage"
					},
					{
						"astId": 13,
						"contract": "Practice/Day-10/P2.sol:Student",
						"label": "deptHead",
						"offset": 0,
						"slot": "1",
						"type": "t_string_storage"
					},
					{
						"astId": 48,
						"contract": "Practice/Day-10/P2.sol:Student",
						"label": "studentName",
						"offset": 0,
						"slot": "2",
						"type": "t_string_storage"
					},
					{
						"astId": 50,
						"contract": "Practice/Day-10/P2.sol:Student",
						"label": "regNo",
						"offset": 0,
						"slot": "3",
						"type": "t_uint256"
					},
					{
						"astId": 52,
						"contract": "Practice/Day-10/P2.sol:Student",
						"label": "marks",
						"offset": 0,
						"slot": "4",
						"type": "t_uint256"
					},
					{
						"astId": 54,
						"contract": "Practice/Day-10/P2.sol:Student",
						"label": "CollegeName",
						"offset": 0,
						"slot": "5",
						"type": "t_string_storage"
					},
					{
						"astId": 56,
						"contract": "Practice/Day-10/P2.sol:Student",
						"label": "CollegeCode",
						"offset": 0,
						"slot": "6",
						"type": "t_string_storage"
					}
				],
				"types": {
					"t_string_storage": {
						"encoding": "bytes",
						"label": "string",
						"numberOfBytes": "32"
					},
					"t_uint256": {
						"encoding": "inplace",
						"label": "uint256",
						"numberOfBytes": "32"
					}
				}
			},
			"userdoc": {
				"kind": "user",
				"methods": {},
				"version": 1
			}
		}
	}
}