{
	"Practice/Day-10/P1.sol": {
		"Student": {
			"abi": [
				{
					"inputs": [
						{
							"internalType": "string",
							"name": "_studentName",
							"type": "string"
						},
						{
							"internalType": "uint256",
							"name": "_regdNo",
							"type": "uint256"
						},
						{
							"internalType": "string",
							"name": "_elective",
							"type": "string"
						},
						{
							"internalType": "uint256",
							"name": "_marks",
							"type": "uint256"
						},
						{
							"internalType": "string",
							"name": "_hostelName",
							"type": "string"
						},
						{
							"internalType": "string",
							"name": "_hostelLocation",
							"type": "string"
						},
						{
							"internalType": "uint256",
							"name": "_rooms",
							"type": "uint256"
						},
						{
							"internalType": "string",
							"name": "_deptName",
							"type": "string"
						},
						{
							"internalType": "string",
							"name": "_deptHead",
							"type": "string"
						}
					],
					"stateMutability": "nonpayable",
					"type": "constructor"
				},
				{
					"inputs": [],
					"name": "avgMarks",
					"outputs": [
						{
							"internalType": "uint256",
							"name": "",
							"type": "uint256"
						}
					],
					"stateMutability": "view",
					"type": "function"
				},
				{
					"inputs": [],
					"name": "deptHead",
					"outputs": [
						{
							"internalType": "string",
							"name": "",
							"type": "string"
						}
					],
					"stateMutability": "view",
					"type": "function"
				},
				{
					"inputs": [],
					"name": "deptName",
					"outputs": [
						{
							"internalType": "string",
							"name": "",
							"type": "string"
						}
					],
					"stateMutability": "view",
					"type": "function"
				},
				{
					"inputs": [],
					"name": "electiveSubject",
					"outputs": [
						{
							"internalType": "string",
							"name": "",
							"type": "string"
						}
					],
					"stateMutability": "view",
					"type": "function"
				},
				{
					"inputs": [],
					"name": "getHostelData",
					"outputs": [
						{
							"internalType": "string",
							"name": "",
							"type": "string"
						},
						{
							"internalType": "string",
							"name": "",
							"type": "string"
						},
						{
							"internalType": "uint256",
							"name": "",
							"type": "uint256"
						}
					],
					"stateMutability": "view",
					"type": "function"
				},
				{
					"inputs": [],
					"name": "getStudentData",
					"outputs": [
						{
							"internalType": "string",
							"name": "",
							"type": "string"
						},
						{
							"internalType": "uint256",
							"name": "",
							"type": "uint256"
						},
						{
							"internalType": "string",
							"name": "",
							"type": "string"
						},
						{
							"internalType": "uint256",
							"name": "",
							"type": "uint256"
						}
					],
					"stateMutability": "view",
					"type": "function"
				},
				{
					"inputs": [],
					"name": "hostelLocation",
					"outputs": [
						{
							"internalType": "string",
							"name": "",
							"type": "string"
						}
					],
					"stateMutability": "view",
					"type": "function"
				},
				{
					"inputs": [],
					"name": "hostelName",
					"outputs": [
						{
							"internalType": "string",
							"name": "",
							"type": "string"
						}
					],
					"stateMutability": "view",
					"type": "function"
				},
				{
					"inputs": [],
					"name": "numberOfRooms",
					"outputs": [
						{
							"internalType": "uint256",
							"name": "",
							"type": "uint256"
						}
					],
					"stateMutability": "view",
					"type": "function"
				},
				{
					"inputs": [],
					"name": "printDepartment",
					"outputs": [
						{
							"internalType": "string",
							"name": "",
							"type": "string"
						},
						{
							"internalType": "string",
							"name": "",
							"type": "string"
						}
					],
					"stateMutability": "view",
					"type": "function"
				},
				{
					"inputs": [],
					"name": "regdNo",
					"outputs": [
						{
							"internalType": "uint256",
							"name": "",
							"type": "uint256"
						}
					],
					"stateMutability": "view",
					"type": "function"
				},
				{
					"inputs": [],
					"name": "studentName",
					"outputs": [
						{
							"internalType": "string",
							"name": "",
							"type": "string"
						}
					],
					"stateMutability": "view",
					"type": "function"
				}
			],
			"devdoc": {
				"kind": "dev",
				"methods": {},
				"version": 1
			},
			"evm": {
				"assembly": "    /* \"Practice/Day-10/P1.sol\":642:1731  contract Student is Hostel, Department {... */\n  mstore(0x40, 0x80)\n    /* \"Practice/Day-10/P1.sol\":868:1414  constructor(... */\n  callvalue\n  dup1\n  iszero\n  tag_1\n  jumpi\n  0x00\n  dup1\n  revert\ntag_1:\n  pop\n  mload(0x40)\n  sub(codesize, bytecodeSize)\n  dup1\n  bytecodeSize\n  dup4\n  codecopy\n  dup2\n  dup2\n  add\n  0x40\n  mstore\n  dup2\n  add\n  swap1\n  tag_2\n  swap2\n  swap1\n  tag_3\n  jump\t// in\ntag_2:\n    /* \"Practice/Day-10/P1.sol\":1176:1187  _hostelName */\n  dup5\n    /* \"Practice/Day-10/P1.sol\":1189:1204  _hostelLocation */\n  dup5\n    /* \"Practice/Day-10/P1.sol\":1206:1212  _rooms */\n  dup5\n    /* \"Practice/Day-10/P1.sol\":393:398  _name */\n  dup3\n    /* \"Practice/Day-10/P1.sol\":380:390  hostelName */\n  0x00\n    /* \"Practice/Day-10/P1.sol\":380:398  hostelName = _name */\n  swap1\n  dup2\n  tag_7\n  swap2\n  swap1\n  tag_8\n  jump\t// in\ntag_7:\n  pop\n    /* \"Practice/Day-10/P1.sol\":426:435  _location */\n  dup2\n    /* \"Practice/Day-10/P1.sol\":409:423  hostelLocation */\n  0x01\n    /* \"Practice/Day-10/P1.sol\":409:435  hostelLocation = _location */\n  swap1\n  dup2\n  tag_9\n  swap2\n  swap1\n  tag_8\n  jump\t// in\ntag_9:\n  pop\n    /* \"Practice/Day-10/P1.sol\":462:468  _rooms */\n  dup1\n    /* \"Practice/Day-10/P1.sol\":446:459  numberOfRooms */\n  0x02\n    /* \"Practice/Day-10/P1.sol\":446:468  numberOfRooms = _rooms */\n  dup2\n  swap1\n  sstore\n  pop\n    /* \"Practice/Day-10/P1.sol\":298:476  constructor(string memory _name, string memory _location, uint _rooms) {... */\n  pop\n  pop\n  pop\n    /* \"Practice/Day-10/P1.sol\":1239:1251  _studentName */\n  dup9\n    /* \"Practice/Day-10/P1.sol\":1225:1236  studentName */\n  0x03\n    /* \"Practice/Day-10/P1.sol\":1225:1251  studentName = _studentName */\n  swap1\n  dup2\n  tag_11\n  swap2\n  swap1\n  tag_8\n  jump\t// in\ntag_11:\n  pop\n    /* \"Practice/Day-10/P1.sol\":1271:1278  _regdNo */\n  dup8\n    /* \"Practice/Day-10/P1.sol\":1262:1268  regdNo */\n  0x04\n    /* \"Practice/Day-10/P1.sol\":1262:1278  regdNo = _regdNo */\n  dup2\n  swap1\n  sstore\n  pop\n    /* \"Practice/Day-10/P1.sol\":1307:1316  _elective */\n  dup7\n    /* \"Practice/Day-10/P1.sol\":1289:1304  electiveSubject */\n  0x05\n    /* \"Practice/Day-10/P1.sol\":1289:1316  electiveSubject = _elective */\n  swap1\n  dup2\n  tag_12\n  swap2\n  swap1\n  tag_8\n  jump\t// in\ntag_12:\n  pop\n    /* \"Practice/Day-10/P1.sol\":1338:1344  _marks */\n  dup6\n    /* \"Practice/Day-10/P1.sol\":1327:1335  avgMarks */\n  0x06\n    /* \"Practice/Day-10/P1.sol\":1327:1344  avgMarks = _marks */\n  dup2\n  swap1\n  sstore\n  pop\n    /* \"Practice/Day-10/P1.sol\":1366:1375  _deptName */\n  dup2\n    /* \"Practice/Day-10/P1.sol\":1355:1363  deptName */\n  0x07\n    /* \"Practice/Day-10/P1.sol\":1355:1375  deptName = _deptName */\n  swap1\n  dup2\n  tag_13\n  swap2\n  swap1\n  tag_8\n  jump\t// in\ntag_13:\n  pop\n    /* \"Practice/Day-10/P1.sol\":1397:1406  _deptHead */\n  dup1\n    /* \"Practice/Day-10/P1.sol\":1386:1394  deptHead */\n  0x08\n    /* \"Practice/Day-10/P1.sol\":1386:1406  deptHead = _deptHead */\n  swap1\n  dup2\n  tag_14\n  swap2\n  swap1\n  tag_8\n  jump\t// in\ntag_14:\n  pop\n    /* \"Practice/Day-10/P1.sol\":868:1414  constructor(... */\n  pop\n  pop\n  pop\n  pop\n  pop\n  pop\n  pop\n  pop\n  pop\n    /* \"Practice/Day-10/P1.sol\":642:1731  contract Student is Hostel, Department {... */\n  jump(tag_15)\n    /* \"#utility.yul\":7:82   */\ntag_16:\n    /* \"#utility.yul\":40:46   */\n  0x00\n    /* \"#utility.yul\":73:75   */\n  0x40\n    /* \"#utility.yul\":67:76   */\n  mload\n    /* \"#utility.yul\":57:76   */\n  swap1\n  pop\n    /* \"#utility.yul\":7:82   */\n  swap1\n  jump\t// out\n    /* \"#utility.yul\":88:205   */\ntag_17:\n    /* \"#utility.yul\":197:198   */\n  0x00\n    /* \"#utility.yul\":194:195   */\n  dup1\n    /* \"#utility.yul\":187:199   */\n  revert\n    /* \"#utility.yul\":211:328   */\ntag_18:\n    /* \"#utility.yul\":320:321   */\n  0x00\n    /* \"#utility.yul\":317:318   */\n  dup1\n    /* \"#utility.yul\":310:322   */\n  revert\n    /* \"#utility.yul\":334:451   */\ntag_19:\n    /* \"#utility.yul\":443:444   */\n  0x00\n    /* \"#utility.yul\":440:441   */\n  dup1\n    /* \"#utility.yul\":433:445   */\n  revert\n    /* \"#utility.yul\":457:574   */\ntag_20:\n    /* \"#utility.yul\":566:567   */\n  0x00\n    /* \"#utility.yul\":563:564   */\n  dup1\n    /* \"#utility.yul\":556:568   */\n  revert\n    /* \"#utility.yul\":580:682   */\ntag_21:\n    /* \"#utility.yul\":621:627   */\n  0x00\n    /* \"#utility.yul\":672:674   */\n  0x1f\n    /* \"#utility.yul\":668:675   */\n  not\n    /* \"#utility.yul\":663:665   */\n  0x1f\n    /* \"#utility.yul\":656:661   */\n  dup4\n    /* \"#utility.yul\":652:666   */\n  add\n    /* \"#utility.yul\":648:676   */\n  and\n    /* \"#utility.yul\":638:676   */\n  swap1\n  pop\n    /* \"#utility.yul\":580:682   */\n  swap2\n  swap1\n  pop\n  jump\t// out\n    /* \"#utility.yul\":688:868   */\ntag_22:\n    /* \"#utility.yul\":736:813   */\n  0x4e487b7100000000000000000000000000000000000000000000000000000000\n    /* \"#utility.yul\":733:734   */\n  0x00\n    /* \"#utility.yul\":726:814   */\n  mstore\n    /* \"#utility.yul\":833:837   */\n  0x41\n    /* \"#utility.yul\":830:831   */\n  0x04\n    /* \"#utility.yul\":823:838   */\n  mstore\n    /* \"#utility.yul\":857:861   */\n  0x24\n    /* \"#utility.yul\":854:855   */\n  0x00\n    /* \"#utility.yul\":847:862   */\n  revert\n    /* \"#utility.yul\":874:1155   */\ntag_23:\n    /* \"#utility.yul\":957:984   */\n  tag_59\n    /* \"#utility.yul\":979:983   */\n  dup3\n    /* \"#utility.yul\":957:984   */\n  tag_21\n  jump\t// in\ntag_59:\n    /* \"#utility.yul\":949:955   */\n  dup2\n    /* \"#utility.yul\":945:985   */\n  add\n    /* \"#utility.yul\":1087:1093   */\n  dup2\n    /* \"#utility.yul\":1075:1085   */\n  dup2\n    /* \"#utility.yul\":1072:1094   */\n  lt\n    /* \"#utility.yul\":1051:1069   */\n  0xffffffffffffffff\n    /* \"#utility.yul\":1039:1049   */\n  dup3\n    /* \"#utility.yul\":1036:1070   */\n  gt\n    /* \"#utility.yul\":1033:1095   */\n  or\n    /* \"#utility.yul\":1030:1118   */\n  iszero\n  tag_60\n  jumpi\n    /* \"#utility.yul\":1098:1116   */\n  tag_61\n  tag_22\n  jump\t// in\ntag_61:\n    /* \"#utility.yul\":1030:1118   */\ntag_60:\n    /* \"#utility.yul\":1138:1148   */\n  dup1\n    /* \"#utility.yul\":1134:1136   */\n  0x40\n    /* \"#utility.yul\":1127:1149   */\n  mstore\n    /* \"#utility.yul\":917:1155   */\n  pop\n    /* \"#utility.yul\":874:1155   */\n  pop\n  pop\n  jump\t// out\n    /* \"#utility.yul\":1161:1290   */\ntag_24:\n    /* \"#utility.yul\":1195:1201   */\n  0x00\n    /* \"#utility.yul\":1222:1242   */\n  tag_63\n  tag_16\n  jump\t// in\ntag_63:\n    /* \"#utility.yul\":1212:1242   */\n  swap1\n  pop\n    /* \"#utility.yul\":1251:1284   */\n  tag_64\n    /* \"#utility.yul\":1279:1283   */\n  dup3\n    /* \"#utility.yul\":1271:1277   */\n  dup3\n    /* \"#utility.yul\":1251:1284   */\n  tag_23\n  jump\t// in\ntag_64:\n    /* \"#utility.yul\":1161:1290   */\n  swap2\n  swap1\n  pop\n  jump\t// out\n    /* \"#utility.yul\":1296:1604   */\ntag_25:\n    /* \"#utility.yul\":1358:1362   */\n  0x00\n    /* \"#utility.yul\":1448:1466   */\n  0xffffffffffffffff\n    /* \"#utility.yul\":1440:1446   */\n  dup3\n    /* \"#utility.yul\":1437:1467   */\n  gt\n    /* \"#utility.yul\":1434:1490   */\n  iszero\n  tag_66\n  jumpi\n    /* \"#utility.yul\":1470:1488   */\n  tag_67\n  tag_22\n  jump\t// in\ntag_67:\n    /* \"#utility.yul\":1434:1490   */\ntag_66:\n    /* \"#utility.yul\":1508:1537   */\n  tag_68\n    /* \"#utility.yul\":1530:1536   */\n  dup3\n    /* \"#utility.yul\":1508:1537   */\n  tag_21\n  jump\t// in\ntag_68:\n    /* \"#utility.yul\":1500:1537   */\n  swap1\n  pop\n    /* \"#utility.yul\":1592:1596   */\n  0x20\n    /* \"#utility.yul\":1586:1590   */\n  dup2\n    /* \"#utility.yul\":1582:1597   */\n  add\n    /* \"#utility.yul\":1574:1597   */\n  swap1\n  pop\n    /* \"#utility.yul\":1296:1604   */\n  swap2\n  swap1\n  pop\n  jump\t// out\n    /* \"#utility.yul\":1610:1749   */\ntag_26:\n    /* \"#utility.yul\":1699:1705   */\n  dup3\n    /* \"#utility.yul\":1694:1697   */\n  dup2\n    /* \"#utility.yul\":1689:1692   */\n  dup4\n    /* \"#utility.yul\":1683:1706   */\n  mcopy\n    /* \"#utility.yul\":1740:1741   */\n  0x00\n    /* \"#utility.yul\":1731:1737   */\n  dup4\n    /* \"#utility.yul\":1726:1729   */\n  dup4\n    /* \"#utility.yul\":1722:1738   */\n  add\n    /* \"#utility.yul\":1715:1742   */\n  mstore\n    /* \"#utility.yul\":1610:1749   */\n  pop\n  pop\n  pop\n  jump\t// out\n    /* \"#utility.yul\":1755:2189   */\ntag_27:\n    /* \"#utility.yul\":1844:1849   */\n  0x00\n    /* \"#utility.yul\":1869:1935   */\n  tag_71\n    /* \"#utility.yul\":1885:1934   */\n  tag_72\n    /* \"#utility.yul\":1927:1933   */\n  dup5\n    /* \"#utility.yul\":1885:1934   */\n  tag_25\n  jump\t// in\ntag_72:\n    /* \"#utility.yul\":1869:1935   */\n  tag_24\n  jump\t// in\ntag_71:\n    /* \"#utility.yul\":1860:1935   */\n  swap1\n  pop\n    /* \"#utility.yul\":1958:1964   */\n  dup3\n    /* \"#utility.yul\":1951:1956   */\n  dup2\n    /* \"#utility.yul\":1944:1965   */\n  mstore\n    /* \"#utility.yul\":1996:2000   */\n  0x20\n    /* \"#utility.yul\":1989:1994   */\n  dup2\n    /* \"#utility.yul\":1985:2001   */\n  add\n    /* \"#utility.yul\":2034:2037   */\n  dup5\n    /* \"#utility.yul\":2025:2031   */\n  dup5\n    /* \"#utility.yul\":2020:2023   */\n  dup5\n    /* \"#utility.yul\":2016:2032   */\n  add\n    /* \"#utility.yul\":2013:2038   */\n  gt\n    /* \"#utility.yul\":2010:2122   */\n  iszero\n  tag_73\n  jumpi\n    /* \"#utility.yul\":2041:2120   */\n  tag_74\n  tag_20\n  jump\t// in\ntag_74:\n    /* \"#utility.yul\":2010:2122   */\ntag_73:\n    /* \"#utility.yul\":2131:2183   */\n  tag_75\n    /* \"#utility.yul\":2176:2182   */\n  dup5\n    /* \"#utility.yul\":2171:2174   */\n  dup3\n    /* \"#utility.yul\":2166:2169   */\n  dup6\n    /* \"#utility.yul\":2131:2183   */\n  tag_26\n  jump\t// in\ntag_75:\n    /* \"#utility.yul\":1850:2189   */\n  pop\n    /* \"#utility.yul\":1755:2189   */\n  swap4\n  swap3\n  pop\n  pop\n  pop\n  jump\t// out\n    /* \"#utility.yul\":2209:2564   */\ntag_28:\n    /* \"#utility.yul\":2276:2281   */\n  0x00\n    /* \"#utility.yul\":2325:2328   */\n  dup3\n    /* \"#utility.yul\":2318:2322   */\n  0x1f\n    /* \"#utility.yul\":2310:2316   */\n  dup4\n    /* \"#utility.yul\":2306:2323   */\n  add\n    /* \"#utility.yul\":2302:2329   */\n  slt\n    /* \"#utility.yul\":2292:2414   */\n  tag_77\n  jumpi\n    /* \"#utility.yul\":2333:2412   */\n  tag_78\n  tag_19\n  jump\t// in\ntag_78:\n    /* \"#utility.yul\":2292:2414   */\ntag_77:\n    /* \"#utility.yul\":2443:2449   */\n  dup2\n    /* \"#utility.yul\":2437:2450   */\n  mload\n    /* \"#utility.yul\":2468:2558   */\n  tag_79\n    /* \"#utility.yul\":2554:2557   */\n  dup5\n    /* \"#utility.yul\":2546:2552   */\n  dup3\n    /* \"#utility.yul\":2539:2543   */\n  0x20\n    /* \"#utility.yul\":2531:2537   */\n  dup7\n    /* \"#utility.yul\":2527:2544   */\n  add\n    /* \"#utility.yul\":2468:2558   */\n  tag_27\n  jump\t// in\ntag_79:\n    /* \"#utility.yul\":2459:2558   */\n  swap2\n  pop\n    /* \"#utility.yul\":2282:2564   */\n  pop\n    /* \"#utility.yul\":2209:2564   */\n  swap3\n  swap2\n  pop\n  pop\n  jump\t// out\n    /* \"#utility.yul\":2570:2647   */\ntag_29:\n    /* \"#utility.yul\":2607:2614   */\n  0x00\n    /* \"#utility.yul\":2636:2641   */\n  dup2\n    /* \"#utility.yul\":2625:2641   */\n  swap1\n  pop\n    /* \"#utility.yul\":2570:2647   */\n  swap2\n  swap1\n  pop\n  jump\t// out\n    /* \"#utility.yul\":2653:2775   */\ntag_30:\n    /* \"#utility.yul\":2726:2750   */\n  tag_82\n    /* \"#utility.yul\":2744:2749   */\n  dup2\n    /* \"#utility.yul\":2726:2750   */\n  tag_29\n  jump\t// in\ntag_82:\n    /* \"#utility.yul\":2719:2724   */\n  dup2\n    /* \"#utility.yul\":2716:2751   */\n  eq\n    /* \"#utility.yul\":2706:2769   */\n  tag_83\n  jumpi\n    /* \"#utility.yul\":2765:2766   */\n  0x00\n    /* \"#utility.yul\":2762:2763   */\n  dup1\n    /* \"#utility.yul\":2755:2767   */\n  revert\n    /* \"#utility.yul\":2706:2769   */\ntag_83:\n    /* \"#utility.yul\":2653:2775   */\n  pop\n  jump\t// out\n    /* \"#utility.yul\":2781:2924   */\ntag_31:\n    /* \"#utility.yul\":2838:2843   */\n  0x00\n    /* \"#utility.yul\":2869:2875   */\n  dup2\n    /* \"#utility.yul\":2863:2876   */\n  mload\n    /* \"#utility.yul\":2854:2876   */\n  swap1\n  pop\n    /* \"#utility.yul\":2885:2918   */\n  tag_85\n    /* \"#utility.yul\":2912:2917   */\n  dup2\n    /* \"#utility.yul\":2885:2918   */\n  tag_30\n  jump\t// in\ntag_85:\n    /* \"#utility.yul\":2781:2924   */\n  swap3\n  swap2\n  pop\n  pop\n  jump\t// out\n    /* \"#utility.yul\":2930:5573   */\ntag_3:\n    /* \"#utility.yul\":3132:3138   */\n  0x00\n    /* \"#utility.yul\":3140:3146   */\n  dup1\n    /* \"#utility.yul\":3148:3154   */\n  0x00\n    /* \"#utility.yul\":3156:3162   */\n  dup1\n    /* \"#utility.yul\":3164:3170   */\n  0x00\n    /* \"#utility.yul\":3172:3178   */\n  dup1\n    /* \"#utility.yul\":3180:3186   */\n  0x00\n    /* \"#utility.yul\":3188:3194   */\n  dup1\n    /* \"#utility.yul\":3196:3202   */\n  0x00\n    /* \"#utility.yul\":3245:3248   */\n  0x0120\n    /* \"#utility.yul\":3233:3242   */\n  dup11\n    /* \"#utility.yul\":3224:3231   */\n  dup13\n    /* \"#utility.yul\":3220:3243   */\n  sub\n    /* \"#utility.yul\":3216:3249   */\n  slt\n    /* \"#utility.yul\":3213:3333   */\n  iszero\n  tag_87\n  jumpi\n    /* \"#utility.yul\":3252:3331   */\n  tag_88\n  tag_17\n  jump\t// in\ntag_88:\n    /* \"#utility.yul\":3213:3333   */\ntag_87:\n    /* \"#utility.yul\":3393:3394   */\n  0x00\n    /* \"#utility.yul\":3382:3391   */\n  dup11\n    /* \"#utility.yul\":3378:3395   */\n  add\n    /* \"#utility.yul\":3372:3396   */\n  mload\n    /* \"#utility.yul\":3423:3441   */\n  0xffffffffffffffff\n    /* \"#utility.yul\":3415:3421   */\n  dup2\n    /* \"#utility.yul\":3412:3442   */\n  gt\n    /* \"#utility.yul\":3409:3526   */\n  iszero\n  tag_89\n  jumpi\n    /* \"#utility.yul\":3445:3524   */\n  tag_90\n  tag_18\n  jump\t// in\ntag_90:\n    /* \"#utility.yul\":3409:3526   */\ntag_89:\n    /* \"#utility.yul\":3550:3624   */\n  tag_91\n    /* \"#utility.yul\":3616:3623   */\n  dup13\n    /* \"#utility.yul\":3607:3613   */\n  dup3\n    /* \"#utility.yul\":3596:3605   */\n  dup14\n    /* \"#utility.yul\":3592:3614   */\n  add\n    /* \"#utility.yul\":3550:3624   */\n  tag_28\n  jump\t// in\ntag_91:\n    /* \"#utility.yul\":3540:3624   */\n  swap10\n  pop\n    /* \"#utility.yul\":3343:3634   */\n  pop\n    /* \"#utility.yul\":3673:3675   */\n  0x20\n    /* \"#utility.yul\":3699:3763   */\n  tag_92\n    /* \"#utility.yul\":3755:3762   */\n  dup13\n    /* \"#utility.yul\":3746:3752   */\n  dup3\n    /* \"#utility.yul\":3735:3744   */\n  dup14\n    /* \"#utility.yul\":3731:3753   */\n  add\n    /* \"#utility.yul\":3699:3763   */\n  tag_31\n  jump\t// in\ntag_92:\n    /* \"#utility.yul\":3689:3763   */\n  swap9\n  pop\n    /* \"#utility.yul\":3644:3773   */\n  pop\n    /* \"#utility.yul\":3833:3835   */\n  0x40\n    /* \"#utility.yul\":3822:3831   */\n  dup11\n    /* \"#utility.yul\":3818:3836   */\n  add\n    /* \"#utility.yul\":3812:3837   */\n  mload\n    /* \"#utility.yul\":3864:3882   */\n  0xffffffffffffffff\n    /* \"#utility.yul\":3856:3862   */\n  dup2\n    /* \"#utility.yul\":3853:3883   */\n  gt\n    /* \"#utility.yul\":3850:3967   */\n  iszero\n  tag_93\n  jumpi\n    /* \"#utility.yul\":3886:3965   */\n  tag_94\n  tag_18\n  jump\t// in\ntag_94:\n    /* \"#utility.yul\":3850:3967   */\ntag_93:\n    /* \"#utility.yul\":3991:4065   */\n  tag_95\n    /* \"#utility.yul\":4057:4064   */\n  dup13\n    /* \"#utility.yul\":4048:4054   */\n  dup3\n    /* \"#utility.yul\":4037:4046   */\n  dup14\n    /* \"#utility.yul\":4033:4055   */\n  add\n    /* \"#utility.yul\":3991:4065   */\n  tag_28\n  jump\t// in\ntag_95:\n    /* \"#utility.yul\":3981:4065   */\n  swap8\n  pop\n    /* \"#utility.yul\":3783:4075   */\n  pop\n    /* \"#utility.yul\":4114:4116   */\n  0x60\n    /* \"#utility.yul\":4140:4204   */\n  tag_96\n    /* \"#utility.yul\":4196:4203   */\n  dup13\n    /* \"#utility.yul\":4187:4193   */\n  dup3\n    /* \"#utility.yul\":4176:4185   */\n  dup14\n    /* \"#utility.yul\":4172:4194   */\n  add\n    /* \"#utility.yul\":4140:4204   */\n  tag_31\n  jump\t// in\ntag_96:\n    /* \"#utility.yul\":4130:4204   */\n  swap7\n  pop\n    /* \"#utility.yul\":4085:4214   */\n  pop\n    /* \"#utility.yul\":4274:4277   */\n  0x80\n    /* \"#utility.yul\":4263:4272   */\n  dup11\n    /* \"#utility.yul\":4259:4278   */\n  add\n    /* \"#utility.yul\":4253:4279   */\n  mload\n    /* \"#utility.yul\":4306:4324   */\n  0xffffffffffffffff\n    /* \"#utility.yul\":4298:4304   */\n  dup2\n    /* \"#utility.yul\":4295:4325   */\n  gt\n    /* \"#utility.yul\":4292:4409   */\n  iszero\n  tag_97\n  jumpi\n    /* \"#utility.yul\":4328:4407   */\n  tag_98\n  tag_18\n  jump\t// in\ntag_98:\n    /* \"#utility.yul\":4292:4409   */\ntag_97:\n    /* \"#utility.yul\":4433:4507   */\n  tag_99\n    /* \"#utility.yul\":4499:4506   */\n  dup13\n    /* \"#utility.yul\":4490:4496   */\n  dup3\n    /* \"#utility.yul\":4479:4488   */\n  dup14\n    /* \"#utility.yul\":4475:4497   */\n  add\n    /* \"#utility.yul\":4433:4507   */\n  tag_28\n  jump\t// in\ntag_99:\n    /* \"#utility.yul\":4423:4507   */\n  swap6\n  pop\n    /* \"#utility.yul\":4224:4517   */\n  pop\n    /* \"#utility.yul\":4577:4580   */\n  0xa0\n    /* \"#utility.yul\":4566:4575   */\n  dup11\n    /* \"#utility.yul\":4562:4581   */\n  add\n    /* \"#utility.yul\":4556:4582   */\n  mload\n    /* \"#utility.yul\":4609:4627   */\n  0xffffffffffffffff\n    /* \"#utility.yul\":4601:4607   */\n  dup2\n    /* \"#utility.yul\":4598:4628   */\n  gt\n    /* \"#utility.yul\":4595:4712   */\n  iszero\n  tag_100\n  jumpi\n    /* \"#utility.yul\":4631:4710   */\n  tag_101\n  tag_18\n  jump\t// in\ntag_101:\n    /* \"#utility.yul\":4595:4712   */\ntag_100:\n    /* \"#utility.yul\":4736:4810   */\n  tag_102\n    /* \"#utility.yul\":4802:4809   */\n  dup13\n    /* \"#utility.yul\":4793:4799   */\n  dup3\n    /* \"#utility.yul\":4782:4791   */\n  dup14\n    /* \"#utility.yul\":4778:4800   */\n  add\n    /* \"#utility.yul\":4736:4810   */\n  tag_28\n  jump\t// in\ntag_102:\n    /* \"#utility.yul\":4726:4810   */\n  swap5\n  pop\n    /* \"#utility.yul\":4527:4820   */\n  pop\n    /* \"#utility.yul\":4859:4862   */\n  0xc0\n    /* \"#utility.yul\":4886:4950   */\n  tag_103\n    /* \"#utility.yul\":4942:4949   */\n  dup13\n    /* \"#utility.yul\":4933:4939   */\n  dup3\n    /* \"#utility.yul\":4922:4931   */\n  dup14\n    /* \"#utility.yul\":4918:4940   */\n  add\n    /* \"#utility.yul\":4886:4950   */\n  tag_31\n  jump\t// in\ntag_103:\n    /* \"#utility.yul\":4876:4950   */\n  swap4\n  pop\n    /* \"#utility.yul\":4830:4960   */\n  pop\n    /* \"#utility.yul\":5020:5023   */\n  0xe0\n    /* \"#utility.yul\":5009:5018   */\n  dup11\n    /* \"#utility.yul\":5005:5024   */\n  add\n    /* \"#utility.yul\":4999:5025   */\n  mload\n    /* \"#utility.yul\":5052:5070   */\n  0xffffffffffffffff\n    /* \"#utility.yul\":5044:5050   */\n  dup2\n    /* \"#utility.yul\":5041:5071   */\n  gt\n    /* \"#utility.yul\":5038:5155   */\n  iszero\n  tag_104\n  jumpi\n    /* \"#utility.yul\":5074:5153   */\n  tag_105\n  tag_18\n  jump\t// in\ntag_105:\n    /* \"#utility.yul\":5038:5155   */\ntag_104:\n    /* \"#utility.yul\":5179:5253   */\n  tag_106\n    /* \"#utility.yul\":5245:5252   */\n  dup13\n    /* \"#utility.yul\":5236:5242   */\n  dup3\n    /* \"#utility.yul\":5225:5234   */\n  dup14\n    /* \"#utility.yul\":5221:5243   */\n  add\n    /* \"#utility.yul\":5179:5253   */\n  tag_28\n  jump\t// in\ntag_106:\n    /* \"#utility.yul\":5169:5253   */\n  swap3\n  pop\n    /* \"#utility.yul\":4970:5263   */\n  pop\n    /* \"#utility.yul\":5323:5326   */\n  0x0100\n    /* \"#utility.yul\":5312:5321   */\n  dup11\n    /* \"#utility.yul\":5308:5327   */\n  add\n    /* \"#utility.yul\":5302:5328   */\n  mload\n    /* \"#utility.yul\":5355:5373   */\n  0xffffffffffffffff\n    /* \"#utility.yul\":5347:5353   */\n  dup2\n    /* \"#utility.yul\":5344:5374   */\n  gt\n    /* \"#utility.yul\":5341:5458   */\n  iszero\n  tag_107\n  jumpi\n    /* \"#utility.yul\":5377:5456   */\n  tag_108\n  tag_18\n  jump\t// in\ntag_108:\n    /* \"#utility.yul\":5341:5458   */\ntag_107:\n    /* \"#utility.yul\":5482:5556   */\n  tag_109\n    /* \"#utility.yul\":5548:5555   */\n  dup13\n    /* \"#utility.yul\":5539:5545   */\n  dup3\n    /* \"#utility.yul\":5528:5537   */\n  dup14\n    /* \"#utility.yul\":5524:5546   */\n  add\n    /* \"#utility.yul\":5482:5556   */\n  tag_28\n  jump\t// in\ntag_109:\n    /* \"#utility.yul\":5472:5556   */\n  swap2\n  pop\n    /* \"#utility.yul\":5273:5566   */\n  pop\n    /* \"#utility.yul\":2930:5573   */\n  swap3\n  swap6\n  swap9\n  pop\n  swap3\n  swap6\n  swap9\n  pop\n  swap3\n  swap6\n  swap9\n  jump\t// out\n    /* \"#utility.yul\":5579:5678   */\ntag_32:\n    /* \"#utility.yul\":5631:5637   */\n  0x00\n    /* \"#utility.yul\":5665:5670   */\n  dup2\n    /* \"#utility.yul\":5659:5671   */\n  mload\n    /* \"#utility.yul\":5649:5671   */\n  swap1\n  pop\n    /* \"#utility.yul\":5579:5678   */\n  swap2\n  swap1\n  pop\n  jump\t// out\n    /* \"#utility.yul\":5684:5864   */\ntag_33:\n    /* \"#utility.yul\":5732:5809   */\n  0x4e487b7100000000000000000000000000000000000000000000000000000000\n    /* \"#utility.yul\":5729:5730   */\n  0x00\n    /* \"#utility.yul\":5722:5810   */\n  mstore\n    /* \"#utility.yul\":5829:5833   */\n  0x22\n    /* \"#utility.yul\":5826:5827   */\n  0x04\n    /* \"#utility.yul\":5819:5834   */\n  mstore\n    /* \"#utility.yul\":5853:5857   */\n  0x24\n    /* \"#utility.yul\":5850:5851   */\n  0x00\n    /* \"#utility.yul\":5843:5858   */\n  revert\n    /* \"#utility.yul\":5870:6190   */\ntag_34:\n    /* \"#utility.yul\":5914:5920   */\n  0x00\n    /* \"#utility.yul\":5951:5952   */\n  0x02\n    /* \"#utility.yul\":5945:5949   */\n  dup3\n    /* \"#utility.yul\":5941:5953   */\n  div\n    /* \"#utility.yul\":5931:5953   */\n  swap1\n  pop\n    /* \"#utility.yul\":5998:5999   */\n  0x01\n    /* \"#utility.yul\":5992:5996   */\n  dup3\n    /* \"#utility.yul\":5988:6000   */\n  and\n    /* \"#utility.yul\":6019:6037   */\n  dup1\n    /* \"#utility.yul\":6009:6090   */\n  tag_113\n  jumpi\n    /* \"#utility.yul\":6075:6079   */\n  0x7f\n    /* \"#utility.yul\":6067:6073   */\n  dup3\n    /* \"#utility.yul\":6063:6080   */\n  and\n    /* \"#utility.yul\":6053:6080   */\n  swap2\n  pop\n    /* \"#utility.yul\":6009:6090   */\ntag_113:\n    /* \"#utility.yul\":6137:6139   */\n  0x20\n    /* \"#utility.yul\":6129:6135   */\n  dup3\n    /* \"#utility.yul\":6126:6140   */\n  lt\n    /* \"#utility.yul\":6106:6124   */\n  dup2\n    /* \"#utility.yul\":6103:6141   */\n  sub\n    /* \"#utility.yul\":6100:6184   */\n  tag_114\n  jumpi\n    /* \"#utility.yul\":6156:6174   */\n  tag_115\n  tag_33\n  jump\t// in\ntag_115:\n    /* \"#utility.yul\":6100:6184   */\ntag_114:\n    /* \"#utility.yul\":5921:6190   */\n  pop\n    /* \"#utility.yul\":5870:6190   */\n  swap2\n  swap1\n  pop\n  jump\t// out\n    /* \"#utility.yul\":6196:6337   */\ntag_35:\n    /* \"#utility.yul\":6245:6249   */\n  0x00\n    /* \"#utility.yul\":6268:6271   */\n  dup2\n    /* \"#utility.yul\":6260:6271   */\n  swap1\n  pop\n    /* \"#utility.yul\":6291:6294   */\n  dup2\n    /* \"#utility.yul\":6288:6289   */\n  0x00\n    /* \"#utility.yul\":6281:6295   */\n  mstore\n    /* \"#utility.yul\":6325:6329   */\n  0x20\n    /* \"#utility.yul\":6322:6323   */\n  0x00\n    /* \"#utility.yul\":6312:6330   */\n  keccak256\n    /* \"#utility.yul\":6304:6330   */\n  swap1\n  pop\n    /* \"#utility.yul\":6196:6337   */\n  swap2\n  swap1\n  pop\n  jump\t// out\n    /* \"#utility.yul\":6343:6436   */\ntag_36:\n    /* \"#utility.yul\":6380:6386   */\n  0x00\n    /* \"#utility.yul\":6427:6429   */\n  0x20\n    /* \"#utility.yul\":6422:6424   */\n  0x1f\n    /* \"#utility.yul\":6415:6420   */\n  dup4\n    /* \"#utility.yul\":6411:6425   */\n  add\n    /* \"#utility.yul\":6407:6430   */\n  div\n    /* \"#utility.yul\":6397:6430   */\n  swap1\n  pop\n    /* \"#utility.yul\":6343:6436   */\n  swap2\n  swap1\n  pop\n  jump\t// out\n    /* \"#utility.yul\":6442:6549   */\ntag_37:\n    /* \"#utility.yul\":6486:6494   */\n  0x00\n    /* \"#utility.yul\":6536:6541   */\n  dup3\n    /* \"#utility.yul\":6530:6534   */\n  dup3\n    /* \"#utility.yul\":6526:6542   */\n  shl\n    /* \"#utility.yul\":6505:6542   */\n  swap1\n  pop\n    /* \"#utility.yul\":6442:6549   */\n  swap3\n  swap2\n  pop\n  pop\n  jump\t// out\n    /* \"#utility.yul\":6555:6948   */\ntag_38:\n    /* \"#utility.yul\":6624:6630   */\n  0x00\n    /* \"#utility.yul\":6674:6675   */\n  0x08\n    /* \"#utility.yul\":6662:6672   */\n  dup4\n    /* \"#utility.yul\":6658:6676   */\n  mul\n    /* \"#utility.yul\":6697:6794   */\n  tag_120\n    /* \"#utility.yul\":6727:6793   */\n  0xffffffffffffffffffffffffffffffffffffffffffffffffffffffffffffffff\n    /* \"#utility.yul\":6716:6725   */\n  dup3\n    /* \"#utility.yul\":6697:6794   */\n  tag_37\n  jump\t// in\ntag_120:\n    /* \"#utility.yul\":6815:6854   */\n  tag_121\n    /* \"#utility.yul\":6845:6853   */\n  dup7\n    /* \"#utility.yul\":6834:6843   */\n  dup4\n    /* \"#utility.yul\":6815:6854   */\n  tag_37\n  jump\t// in\ntag_121:\n    /* \"#utility.yul\":6803:6854   */\n  swap6\n  pop\n    /* \"#utility.yul\":6887:6891   */\n  dup1\n    /* \"#utility.yul\":6883:6892   */\n  not\n    /* \"#utility.yul\":6876:6881   */\n  dup5\n    /* \"#utility.yul\":6872:6893   */\n  and\n    /* \"#utility.yul\":6863:6893   */\n  swap4\n  pop\n    /* \"#utility.yul\":6936:6940   */\n  dup1\n    /* \"#utility.yul\":6926:6934   */\n  dup7\n    /* \"#utility.yul\":6922:6941   */\n  and\n    /* \"#utility.yul\":6915:6920   */\n  dup5\n    /* \"#utility.yul\":6912:6942   */\n  or\n    /* \"#utility.yul\":6902:6942   */\n  swap3\n  pop\n    /* \"#utility.yul\":6631:6948   */\n  pop\n  pop\n    /* \"#utility.yul\":6555:6948   */\n  swap4\n  swap3\n  pop\n  pop\n  pop\n  jump\t// out\n    /* \"#utility.yul\":6954:7014   */\ntag_39:\n    /* \"#utility.yul\":6982:6985   */\n  0x00\n    /* \"#utility.yul\":7003:7008   */\n  dup2\n    /* \"#utility.yul\":6996:7008   */\n  swap1\n  pop\n    /* \"#utility.yul\":6954:7014   */\n  swap2\n  swap1\n  pop\n  jump\t// out\n    /* \"#utility.yul\":7020:7162   */\ntag_40:\n    /* \"#utility.yul\":7070:7079   */\n  0x00\n    /* \"#utility.yul\":7103:7156   */\n  tag_124\n    /* \"#utility.yul\":7121:7155   */\n  tag_125\n    /* \"#utility.yul\":7130:7154   */\n  tag_126\n    /* \"#utility.yul\":7148:7153   */\n  dup5\n    /* \"#utility.yul\":7130:7154   */\n  tag_29\n  jump\t// in\ntag_126:\n    /* \"#utility.yul\":7121:7155   */\n  tag_39\n  jump\t// in\ntag_125:\n    /* \"#utility.yul\":7103:7156   */\n  tag_29\n  jump\t// in\ntag_124:\n    /* \"#utility.yul\":7090:7156   */\n  swap1\n  pop\n    /* \"#utility.yul\":7020:7162   */\n  swap2\n  swap1\n  pop\n  jump\t// out\n    /* \"#utility.yul\":7168:7243   */\ntag_41:\n    /* \"#utility.yul\":7211:7214   */\n  0x00\n    /* \"#utility.yul\":7232:7237   */\n  dup2\n    /* \"#utility.yul\":7225:7237   */\n  swap1\n  pop\n    /* \"#utility.yul\":7168:7243   */\n  swap2\n  swap1\n  pop\n  jump\t// out\n    /* \"#utility.yul\":7249:7518   */\ntag_42:\n    /* \"#utility.yul\":7359:7398   */\n  tag_129\n    /* \"#utility.yul\":7390:7397   */\n  dup4\n    /* \"#utility.yul\":7359:7398   */\n  tag_40\n  jump\t// in\ntag_129:\n    /* \"#utility.yul\":7420:7511   */\n  tag_130\n    /* \"#utility.yul\":7469:7510   */\n  tag_131\n    /* \"#utility.yul\":7493:7509   */\n  dup3\n    /* \"#utility.yul\":7469:7510   */\n  tag_41\n  jump\t// in\ntag_131:\n    /* \"#utility.yul\":7461:7467   */\n  dup5\n    /* \"#utility.yul\":7454:7458   */\n  dup5\n    /* \"#utility.yul\":7448:7459   */\n  sload\n    /* \"#utility.yul\":7420:7511   */\n  tag_38\n  jump\t// in\ntag_130:\n    /* \"#utility.yul\":7414:7418   */\n  dup3\n    /* \"#utility.yul\":7407:7512   */\n  sstore\n    /* \"#utility.yul\":7325:7518   */\n  pop\n    /* \"#utility.yul\":7249:7518   */\n  pop\n  pop\n  pop\n  jump\t// out\n    /* \"#utility.yul\":7524:7597   */\ntag_43:\n    /* \"#utility.yul\":7569:7572   */\n  0x00\n    /* \"#utility.yul\":7524:7597   */\n  swap1\n  jump\t// out\n    /* \"#utility.yul\":7603:7792   */\ntag_44:\n    /* \"#utility.yul\":7680:7712   */\n  tag_134\n  tag_43\n  jump\t// in\ntag_134:\n    /* \"#utility.yul\":7721:7786   */\n  tag_135\n    /* \"#utility.yul\":7779:7785   */\n  dup2\n    /* \"#utility.yul\":7771:7777   */\n  dup5\n    /* \"#utility.yul\":7765:7769   */\n  dup5\n    /* \"#utility.yul\":7721:7786   */\n  tag_42\n  jump\t// in\ntag_135:\n    /* \"#utility.yul\":7656:7792   */\n  pop\n    /* \"#utility.yul\":7603:7792   */\n  pop\n  pop\n  jump\t// out\n    /* \"#utility.yul\":7798:7984   */\ntag_45:\n    /* \"#utility.yul\":7858:7978   */\ntag_137:\n    /* \"#utility.yul\":7875:7878   */\n  dup2\n    /* \"#utility.yul\":7868:7873   */\n  dup2\n    /* \"#utility.yul\":7865:7879   */\n  lt\n    /* \"#utility.yul\":7858:7978   */\n  iszero\n  tag_139\n  jumpi\n    /* \"#utility.yul\":7929:7968   */\n  tag_140\n    /* \"#utility.yul\":7966:7967   */\n  0x00\n    /* \"#utility.yul\":7959:7964   */\n  dup3\n    /* \"#utility.yul\":7929:7968   */\n  tag_44\n  jump\t// in\ntag_140:\n    /* \"#utility.yul\":7902:7903   */\n  0x01\n    /* \"#utility.yul\":7895:7900   */\n  dup2\n    /* \"#utility.yul\":7891:7904   */\n  add\n    /* \"#utility.yul\":7882:7904   */\n  swap1\n  pop\n    /* \"#utility.yul\":7858:7978   */\n  jump(tag_137)\ntag_139:\n    /* \"#utility.yul\":7798:7984   */\n  pop\n  pop\n  jump\t// out\n    /* \"#utility.yul\":7990:8533   */\ntag_46:\n    /* \"#utility.yul\":8091:8093   */\n  0x1f\n    /* \"#utility.yul\":8086:8089   */\n  dup3\n    /* \"#utility.yul\":8083:8094   */\n  gt\n    /* \"#utility.yul\":8080:8526   */\n  iszero\n  tag_142\n  jumpi\n    /* \"#utility.yul\":8125:8163   */\n  tag_143\n    /* \"#utility.yul\":8157:8162   */\n  dup2\n    /* \"#utility.yul\":8125:8163   */\n  tag_35\n  jump\t// in\ntag_143:\n    /* \"#utility.yul\":8209:8238   */\n  tag_144\n    /* \"#utility.yul\":8227:8237   */\n  dup5\n    /* \"#utility.yul\":8209:8238   */\n  tag_36\n  jump\t// in\ntag_144:\n    /* \"#utility.yul\":8199:8207   */\n  dup2\n    /* \"#utility.yul\":8195:8239   */\n  add\n    /* \"#utility.yul\":8392:8394   */\n  0x20\n    /* \"#utility.yul\":8380:8390   */\n  dup6\n    /* \"#utility.yul\":8377:8395   */\n  lt\n    /* \"#utility.yul\":8374:8423   */\n  iszero\n  tag_145\n  jumpi\n    /* \"#utility.yul\":8413:8421   */\n  dup2\n    /* \"#utility.yul\":8398:8421   */\n  swap1\n  pop\n    /* \"#utility.yul\":8374:8423   */\ntag_145:\n    /* \"#utility.yul\":8436:8516   */\n  tag_146\n    /* \"#utility.yul\":8492:8514   */\n  tag_147\n    /* \"#utility.yul\":8510:8513   */\n  dup6\n    /* \"#utility.yul\":8492:8514   */\n  tag_36\n  jump\t// in\ntag_147:\n    /* \"#utility.yul\":8482:8490   */\n  dup4\n    /* \"#utility.yul\":8478:8515   */\n  add\n    /* \"#utility.yul\":8465:8476   */\n  dup3\n    /* \"#utility.yul\":8436:8516   */\n  tag_45\n  jump\t// in\ntag_146:\n    /* \"#utility.yul\":8095:8526   */\n  pop\n  pop\n    /* \"#utility.yul\":8080:8526   */\ntag_142:\n    /* \"#utility.yul\":7990:8533   */\n  pop\n  pop\n  pop\n  jump\t// out\n    /* \"#utility.yul\":8539:8656   */\ntag_47:\n    /* \"#utility.yul\":8593:8601   */\n  0x00\n    /* \"#utility.yul\":8643:8648   */\n  dup3\n    /* \"#utility.yul\":8637:8641   */\n  dup3\n    /* \"#utility.yul\":8633:8649   */\n  shr\n    /* \"#utility.yul\":8612:8649   */\n  swap1\n  pop\n    /* \"#utility.yul\":8539:8656   */\n  swap3\n  swap2\n  pop\n  pop\n  jump\t// out\n    /* \"#utility.yul\":8662:8831   */\ntag_48:\n    /* \"#utility.yul\":8706:8712   */\n  0x00\n    /* \"#utility.yul\":8739:8790   */\n  tag_150\n    /* \"#utility.yul\":8787:8788   */\n  0x00\n    /* \"#utility.yul\":8783:8789   */\n  not\n    /* \"#utility.yul\":8775:8780   */\n  dup5\n    /* \"#utility.yul\":8772:8773   */\n  0x08\n    /* \"#utility.yul\":8768:8781   */\n  mul\n    /* \"#utility.yul\":8739:8790   */\n  tag_47\n  jump\t// in\ntag_150:\n    /* \"#utility.yul\":8735:8791   */\n  not\n    /* \"#utility.yul\":8820:8824   */\n  dup1\n    /* \"#utility.yul\":8814:8818   */\n  dup4\n    /* \"#utility.yul\":8810:8825   */\n  and\n    /* \"#utility.yul\":8800:8825   */\n  swap2\n  pop\n    /* \"#utility.yul\":8713:8831   */\n  pop\n    /* \"#utility.yul\":8662:8831   */\n  swap3\n  swap2\n  pop\n  pop\n  jump\t// out\n    /* \"#utility.yul\":8836:9131   */\ntag_49:\n    /* \"#utility.yul\":8912:8916   */\n  0x00\n    /* \"#utility.yul\":9058:9087   */\n  tag_152\n    /* \"#utility.yul\":9083:9086   */\n  dup4\n    /* \"#utility.yul\":9077:9081   */\n  dup4\n    /* \"#utility.yul\":9058:9087   */\n  tag_48\n  jump\t// in\ntag_152:\n    /* \"#utility.yul\":9050:9087   */\n  swap2\n  pop\n    /* \"#utility.yul\":9120:9123   */\n  dup3\n    /* \"#utility.yul\":9117:9118   */\n  0x02\n    /* \"#utility.yul\":9113:9124   */\n  mul\n    /* \"#utility.yul\":9107:9111   */\n  dup3\n    /* \"#utility.yul\":9104:9125   */\n  or\n    /* \"#utility.yul\":9096:9125   */\n  swap1\n  pop\n    /* \"#utility.yul\":8836:9131   */\n  swap3\n  swap2\n  pop\n  pop\n  jump\t// out\n    /* \"#utility.yul\":9136:10531   */\ntag_8:\n    /* \"#utility.yul\":9253:9290   */\n  tag_154\n    /* \"#utility.yul\":9286:9289   */\n  dup3\n    /* \"#utility.yul\":9253:9290   */\n  tag_32\n  jump\t// in\ntag_154:\n    /* \"#utility.yul\":9355:9373   */\n  0xffffffffffffffff\n    /* \"#utility.yul\":9347:9353   */\n  dup2\n    /* \"#utility.yul\":9344:9374   */\n  gt\n    /* \"#utility.yul\":9341:9397   */\n  iszero\n  tag_155\n  jumpi\n    /* \"#utility.yul\":9377:9395   */\n  tag_156\n  tag_22\n  jump\t// in\ntag_156:\n    /* \"#utility.yul\":9341:9397   */\ntag_155:\n    /* \"#utility.yul\":9421:9459   */\n  tag_157\n    /* \"#utility.yul\":9453:9457   */\n  dup3\n    /* \"#utility.yul\":9447:9458   */\n  sload\n    /* \"#utility.yul\":9421:9459   */\n  tag_34\n  jump\t// in\ntag_157:\n    /* \"#utility.yul\":9506:9573   */\n  tag_158\n    /* \"#utility.yul\":9566:9572   */\n  dup3\n    /* \"#utility.yul\":9558:9564   */\n  dup3\n    /* \"#utility.yul\":9552:9556   */\n  dup6\n    /* \"#utility.yul\":9506:9573   */\n  tag_46\n  jump\t// in\ntag_158:\n    /* \"#utility.yul\":9600:9601   */\n  0x00\n    /* \"#utility.yul\":9624:9628   */\n  0x20\n    /* \"#utility.yul\":9611:9628   */\n  swap1\n  pop\n    /* \"#utility.yul\":9656:9658   */\n  0x1f\n    /* \"#utility.yul\":9648:9654   */\n  dup4\n    /* \"#utility.yul\":9645:9659   */\n  gt\n    /* \"#utility.yul\":9673:9674   */\n  0x01\n    /* \"#utility.yul\":9668:10286   */\n  dup2\n  eq\n  tag_160\n  jumpi\n    /* \"#utility.yul\":10330:10331   */\n  0x00\n    /* \"#utility.yul\":10347:10353   */\n  dup5\n    /* \"#utility.yul\":10344:10421   */\n  iszero\n  tag_161\n  jumpi\n    /* \"#utility.yul\":10396:10405   */\n  dup3\n    /* \"#utility.yul\":10391:10394   */\n  dup8\n    /* \"#utility.yul\":10387:10406   */\n  add\n    /* \"#utility.yul\":10381:10407   */\n  mload\n    /* \"#utility.yul\":10372:10407   */\n  swap1\n  pop\n    /* \"#utility.yul\":10344:10421   */\ntag_161:\n    /* \"#utility.yul\":10447:10514   */\n  tag_162\n    /* \"#utility.yul\":10507:10513   */\n  dup6\n    /* \"#utility.yul\":10500:10505   */\n  dup3\n    /* \"#utility.yul\":10447:10514   */\n  tag_49\n  jump\t// in\ntag_162:\n    /* \"#utility.yul\":10441:10445   */\n  dup7\n    /* \"#utility.yul\":10434:10515   */\n  sstore\n    /* \"#utility.yul\":10303:10525   */\n  pop\n    /* \"#utility.yul\":9638:10525   */\n  jump(tag_159)\n    /* \"#utility.yul\":9668:10286   */\ntag_160:\n    /* \"#utility.yul\":9720:9724   */\n  0x1f\n    /* \"#utility.yul\":9716:9725   */\n  not\n    /* \"#utility.yul\":9708:9714   */\n  dup5\n    /* \"#utility.yul\":9704:9726   */\n  and\n    /* \"#utility.yul\":9754:9791   */\n  tag_163\n    /* \"#utility.yul\":9786:9790   */\n  dup7\n    /* \"#utility.yul\":9754:9791   */\n  tag_35\n  jump\t// in\ntag_163:\n    /* \"#utility.yul\":9813:9814   */\n  0x00\n    /* \"#utility.yul\":9827:10035   */\ntag_164:\n    /* \"#utility.yul\":9841:9848   */\n  dup3\n    /* \"#utility.yul\":9838:9839   */\n  dup2\n    /* \"#utility.yul\":9835:9849   */\n  lt\n    /* \"#utility.yul\":9827:10035   */\n  iszero\n  tag_166\n  jumpi\n    /* \"#utility.yul\":9920:9929   */\n  dup5\n    /* \"#utility.yul\":9915:9918   */\n  dup10\n    /* \"#utility.yul\":9911:9930   */\n  add\n    /* \"#utility.yul\":9905:9931   */\n  mload\n    /* \"#utility.yul\":9897:9903   */\n  dup3\n    /* \"#utility.yul\":9890:9932   */\n  sstore\n    /* \"#utility.yul\":9971:9972   */\n  0x01\n    /* \"#utility.yul\":9963:9969   */\n  dup3\n    /* \"#utility.yul\":9959:9973   */\n  add\n    /* \"#utility.yul\":9949:9973   */\n  swap2\n  pop\n    /* \"#utility.yul\":10018:10020   */\n  0x20\n    /* \"#utility.yul\":10007:10016   */\n  dup6\n    /* \"#utility.yul\":10003:10021   */\n  add\n    /* \"#utility.yul\":9990:10021   */\n  swap5\n  pop\n    /* \"#utility.yul\":9864:9868   */\n  0x20\n    /* \"#utility.yul\":9861:9862   */\n  dup2\n    /* \"#utility.yul\":9857:9869   */\n  add\n    /* \"#utility.yul\":9852:9869   */\n  swap1\n  pop\n    /* \"#utility.yul\":9827:10035   */\n  jump(tag_164)\ntag_166:\n    /* \"#utility.yul\":10063:10069   */\n  dup7\n    /* \"#utility.yul\":10054:10061   */\n  dup4\n    /* \"#utility.yul\":10051:10070   */\n  lt\n    /* \"#utility.yul\":10048:10227   */\n  iszero\n  tag_167\n  jumpi\n    /* \"#utility.yul\":10121:10130   */\n  dup5\n    /* \"#utility.yul\":10116:10119   */\n  dup10\n    /* \"#utility.yul\":10112:10131   */\n  add\n    /* \"#utility.yul\":10106:10132   */\n  mload\n    /* \"#utility.yul\":10164:10212   */\n  tag_168\n    /* \"#utility.yul\":10206:10210   */\n  0x1f\n    /* \"#utility.yul\":10198:10204   */\n  dup10\n    /* \"#utility.yul\":10194:10211   */\n  and\n    /* \"#utility.yul\":10183:10192   */\n  dup3\n    /* \"#utility.yul\":10164:10212   */\n  tag_48\n  jump\t// in\ntag_168:\n    /* \"#utility.yul\":10156:10162   */\n  dup4\n    /* \"#utility.yul\":10149:10213   */\n  sstore\n    /* \"#utility.yul\":10071:10227   */\n  pop\n    /* \"#utility.yul\":10048:10227   */\ntag_167:\n    /* \"#utility.yul\":10273:10274   */\n  0x01\n    /* \"#utility.yul\":10269:10270   */\n  0x02\n    /* \"#utility.yul\":10261:10267   */\n  dup9\n    /* \"#utility.yul\":10257:10271   */\n  mul\n    /* \"#utility.yul\":10253:10275   */\n  add\n    /* \"#utility.yul\":10247:10251   */\n  dup9\n    /* \"#utility.yul\":10240:10276   */\n  sstore\n    /* \"#utility.yul\":9675:10286   */\n  pop\n  pop\n  pop\n    /* \"#utility.yul\":9638:10525   */\ntag_159:\n  pop\n    /* \"#utility.yul\":9228:10531   */\n  pop\n  pop\n  pop\n    /* \"#utility.yul\":9136:10531   */\n  pop\n  pop\n  jump\t// out\n    /* \"Practice/Day-10/P1.sol\":642:1731  contract Student is Hostel, Department {... */\ntag_15:\n  dataSize(sub_0)\n  dup1\n  dataOffset(sub_0)\n  0x00\n  codecopy\n  0x00\n  return\nstop\n\nsub_0: assembly {\n        /* \"Practice/Day-10/P1.sol\":642:1731  contract Student is Hostel, Department {... */\n      mstore(0x40, 0x80)\n      callvalue\n      dup1\n      iszero\n      tag_1\n      jumpi\n      0x00\n      dup1\n      revert\n    tag_1:\n      pop\n      jumpi(tag_2, lt(calldatasize, 0x04))\n      shr(0xe0, calldataload(0x00))\n      dup1\n      0xbb489e80\n      gt\n      tag_15\n      jumpi\n      dup1\n      0xbb489e80\n      eq\n      tag_9\n      jumpi\n      dup1\n      0xc48cb7ba\n      eq\n      tag_10\n      jumpi\n      dup1\n      0xc607ba4d\n      eq\n      tag_11\n      jumpi\n      dup1\n      0xcb9cb0c2\n      eq\n      tag_12\n      jumpi\n      dup1\n      0xd57831f5\n      eq\n      tag_13\n      jumpi\n      dup1\n      0xeb96548f\n      eq\n      tag_14\n      jumpi\n      jump(tag_2)\n    tag_15:\n      dup1\n      0x11ebae41\n      eq\n      tag_3\n      jumpi\n      dup1\n      0x5fd7b16a\n      eq\n      tag_4\n      jumpi\n      dup1\n      0x8d1d2d90\n      eq\n      tag_5\n      jumpi\n      dup1\n      0x99d568b3\n      eq\n      tag_6\n      jumpi\n      dup1\n      0xb508ba31\n      eq\n      tag_7\n      jumpi\n      dup1\n      0xb975abb3\n      eq\n      tag_8\n      jumpi\n    tag_2:\n      0x00\n      dup1\n      revert\n        /* \"Practice/Day-10/P1.sol\":229:257  string public hostelLocation */\n    tag_3:\n      tag_16\n      tag_17\n      jump\t// in\n    tag_16:\n      mload(0x40)\n      tag_18\n      swap2\n      swap1\n      tag_19\n      jump\t// in\n    tag_18:\n      mload(0x40)\n      dup1\n      swap2\n      sub\n      swap1\n      return\n        /* \"Practice/Day-10/P1.sol\":1565:1728  function getStudentData() public view returns (string memory, uint, string memory, uint) {... */\n    tag_4:\n      tag_20\n      tag_21\n      jump\t// in\n    tag_20:\n      mload(0x40)\n      tag_22\n      swap5\n      swap4\n      swap3\n      swap2\n      swap1\n      tag_23\n      jump\t// in\n    tag_22:\n      mload(0x40)\n      dup1\n      swap2\n      sub\n      swap1\n      return\n        /* \"Practice/Day-10/P1.sol\":720:738  uint public regdNo */\n    tag_5:\n      tag_24\n      tag_25\n      jump\t// in\n    tag_24:\n      mload(0x40)\n      tag_26\n      swap2\n      swap1\n      tag_27\n      jump\t// in\n    tag_26:\n      mload(0x40)\n      dup1\n      swap2\n      sub\n      swap1\n      return\n        /* \"Practice/Day-10/P1.sol\":264:289  uint public numberOfRooms */\n    tag_6:\n      tag_28\n      tag_29\n      jump\t// in\n    tag_28:\n      mload(0x40)\n      tag_30\n      swap2\n      swap1\n      tag_27\n      jump\t// in\n    tag_30:\n      mload(0x40)\n      dup1\n      swap2\n      sub\n      swap1\n      return\n        /* \"Practice/Day-10/P1.sol\":688:713  string public studentName */\n    tag_7:\n      tag_31\n      tag_32\n      jump\t// in\n    tag_31:\n      mload(0x40)\n      tag_33\n      swap2\n      swap1\n      tag_19\n      jump\t// in\n    tag_33:\n      mload(0x40)\n      dup1\n      swap2\n      sub\n      swap1\n      return\n        /* \"Practice/Day-10/P1.sol\":808:830  string public deptName */\n    tag_8:\n      tag_34\n      tag_35\n      jump\t// in\n    tag_34:\n      mload(0x40)\n      tag_36\n      swap2\n      swap1\n      tag_19\n      jump\t// in\n    tag_36:\n      mload(0x40)\n      dup1\n      swap2\n      sub\n      swap1\n      return\n        /* \"Practice/Day-10/P1.sol\":1422:1557  function printDepartment() external view override returns (string memory, string memory) {... */\n    tag_9:\n      tag_37\n      tag_38\n      jump\t// in\n    tag_37:\n      mload(0x40)\n      tag_39\n      swap3\n      swap2\n      swap1\n      tag_40\n      jump\t// in\n    tag_39:\n      mload(0x40)\n      dup1\n      swap2\n      sub\n      swap1\n      return\n        /* \"Practice/Day-10/P1.sol\":484:635  function getHostelData() public view returns (string memory, string memory, uint) {... */\n    tag_10:\n      tag_41\n      tag_42\n      jump\t// in\n    tag_41:\n      mload(0x40)\n      tag_43\n      swap4\n      swap3\n      swap2\n      swap1\n      tag_44\n      jump\t// in\n    tag_43:\n      mload(0x40)\n      dup1\n      swap2\n      sub\n      swap1\n      return\n        /* \"Practice/Day-10/P1.sol\":745:774  string public electiveSubject */\n    tag_11:\n      tag_45\n      tag_46\n      jump\t// in\n    tag_45:\n      mload(0x40)\n      tag_47\n      swap2\n      swap1\n      tag_19\n      jump\t// in\n    tag_47:\n      mload(0x40)\n      dup1\n      swap2\n      sub\n      swap1\n      return\n        /* \"Practice/Day-10/P1.sol\":198:222  string public hostelName */\n    tag_12:\n      tag_48\n      tag_49\n      jump\t// in\n    tag_48:\n      mload(0x40)\n      tag_50\n      swap2\n      swap1\n      tag_19\n      jump\t// in\n    tag_50:\n      mload(0x40)\n      dup1\n      swap2\n      sub\n      swap1\n      return\n        /* \"Practice/Day-10/P1.sol\":781:801  uint public avgMarks */\n    tag_13:\n      tag_51\n      tag_52\n      jump\t// in\n    tag_51:\n      mload(0x40)\n      tag_53\n      swap2\n      swap1\n      tag_27\n      jump\t// in\n    tag_53:\n      mload(0x40)\n      dup1\n      swap2\n      sub\n      swap1\n      return\n        /* \"Practice/Day-10/P1.sol\":837:859  string public deptHead */\n    tag_14:\n      tag_54\n      tag_55\n      jump\t// in\n    tag_54:\n      mload(0x40)\n      tag_56\n      swap2\n      swap1\n      tag_19\n      jump\t// in\n    tag_56:\n      mload(0x40)\n      dup1\n      swap2\n      sub\n      swap1\n      return\n        /* \"Practice/Day-10/P1.sol\":229:257  string public hostelLocation */\n    tag_17:\n      0x01\n      dup1\n      sload\n      tag_57\n      swap1\n      tag_58\n      jump\t// in\n    tag_57:\n      dup1\n      0x1f\n      add\n      0x20\n      dup1\n      swap2\n      div\n      mul\n      0x20\n      add\n      mload(0x40)\n      swap1\n      dup2\n      add\n      0x40\n      mstore\n      dup1\n      swap3\n      swap2\n      swap1\n      dup2\n      dup2\n      mstore\n      0x20\n      add\n      dup3\n      dup1\n      sload\n      tag_59\n      swap1\n      tag_58\n      jump\t// in\n    tag_59:\n      dup1\n      iszero\n      tag_60\n      jumpi\n      dup1\n      0x1f\n      lt\n      tag_61\n      jumpi\n      0x0100\n      dup1\n      dup4\n      sload\n      div\n      mul\n      dup4\n      mstore\n      swap2\n      0x20\n      add\n      swap2\n      jump(tag_60)\n    tag_61:\n      dup3\n      add\n      swap2\n      swap1\n      0x00\n      mstore\n      keccak256(0x00, 0x20)\n      swap1\n    tag_62:\n      dup2\n      sload\n      dup2\n      mstore\n      swap1\n      0x01\n      add\n      swap1\n      0x20\n      add\n      dup1\n      dup4\n      gt\n      tag_62\n      jumpi\n      dup3\n      swap1\n      sub\n      0x1f\n      and\n      dup3\n      add\n      swap2\n    tag_60:\n      pop\n      pop\n      pop\n      pop\n      pop\n      dup2\n      jump\t// out\n        /* \"Practice/Day-10/P1.sol\":1565:1728  function getStudentData() public view returns (string memory, uint, string memory, uint) {... */\n    tag_21:\n        /* \"Practice/Day-10/P1.sol\":1612:1625  string memory */\n      0x60\n        /* \"Practice/Day-10/P1.sol\":1627:1631  uint */\n      0x00\n        /* \"Practice/Day-10/P1.sol\":1633:1646  string memory */\n      0x60\n        /* \"Practice/Day-10/P1.sol\":1648:1652  uint */\n      0x00\n        /* \"Practice/Day-10/P1.sol\":1673:1684  studentName */\n      0x03\n        /* \"Practice/Day-10/P1.sol\":1686:1692  regdNo */\n      sload(0x04)\n        /* \"Practice/Day-10/P1.sol\":1694:1709  electiveSubject */\n      0x05\n        /* \"Practice/Day-10/P1.sol\":1711:1719  avgMarks */\n      sload(0x06)\n        /* \"Practice/Day-10/P1.sol\":1665:1720  return (studentName, regdNo, electiveSubject, avgMarks) */\n      dup4\n      dup1\n      sload\n      tag_64\n      swap1\n      tag_58\n      jump\t// in\n    tag_64:\n      dup1\n      0x1f\n      add\n      0x20\n      dup1\n      swap2\n      div\n      mul\n      0x20\n      add\n      mload(0x40)\n      swap1\n      dup2\n      add\n      0x40\n      mstore\n      dup1\n      swap3\n      swap2\n      swap1\n      dup2\n      dup2\n      mstore\n      0x20\n      add\n      dup3\n      dup1\n      sload\n      tag_65\n      swap1\n      tag_58\n      jump\t// in\n    tag_65:\n      dup1\n      iszero\n      tag_66\n      jumpi\n      dup1\n      0x1f\n      lt\n      tag_67\n      jumpi\n      0x0100\n      dup1\n      dup4\n      sload\n      div\n      mul\n      dup4\n      mstore\n      swap2\n      0x20\n      add\n      swap2\n      jump(tag_66)\n    tag_67:\n      dup3\n      add\n      swap2\n      swap1\n      0x00\n      mstore\n      keccak256(0x00, 0x20)\n      swap1\n    tag_68:\n      dup2\n      sload\n      dup2\n      mstore\n      swap1\n      0x01\n      add\n      swap1\n      0x20\n      add\n      dup1\n      dup4\n      gt\n      tag_68\n      jumpi\n      dup3\n      swap1\n      sub\n      0x1f\n      and\n      dup3\n      add\n      swap2\n    tag_66:\n      pop\n      pop\n      pop\n      pop\n      pop\n      swap4\n      pop\n      dup2\n      dup1\n      sload\n      tag_69\n      swap1\n      tag_58\n      jump\t// in\n    tag_69:\n      dup1\n      0x1f\n      add\n      0x20\n      dup1\n      swap2\n      div\n      mul\n      0x20\n      add\n      mload(0x40)\n      swap1\n      dup2\n      add\n      0x40\n      mstore\n      dup1\n      swap3\n      swap2\n      swap1\n      dup2\n      dup2\n      mstore\n      0x20\n      add\n      dup3\n      dup1\n      sload\n      tag_70\n      swap1\n      tag_58\n      jump\t// in\n    tag_70:\n      dup1\n      iszero\n      tag_71\n      jumpi\n      dup1\n      0x1f\n      lt\n      tag_72\n      jumpi\n      0x0100\n      dup1\n      dup4\n      sload\n      div\n      mul\n      dup4\n      mstore\n      swap2\n      0x20\n      add\n      swap2\n      jump(tag_71)\n    tag_72:\n      dup3\n      add\n      swap2\n      swap1\n      0x00\n      mstore\n      keccak256(0x00, 0x20)\n      swap1\n    tag_73:\n      dup2\n      sload\n      dup2\n      mstore\n      swap1\n      0x01\n      add\n      swap1\n      0x20\n      add\n      dup1\n      dup4\n      gt\n      tag_73\n      jumpi\n      dup3\n      swap1\n      sub\n      0x1f\n      and\n      dup3\n      add\n      swap2\n    tag_71:\n      pop\n      pop\n      pop\n      pop\n      pop\n      swap2\n      pop\n      swap4\n      pop\n      swap4\n      pop\n      swap4\n      pop\n      swap4\n      pop\n        /* \"Practice/Day-10/P1.sol\":1565:1728  function getStudentData() public view returns (string memory, uint, string memory, uint) {... */\n      swap1\n      swap2\n      swap3\n      swap4\n      jump\t// out\n        /* \"Practice/Day-10/P1.sol\":720:738  uint public regdNo */\n    tag_25:\n      sload(0x04)\n      dup2\n      jump\t// out\n        /* \"Practice/Day-10/P1.sol\":264:289  uint public numberOfRooms */\n    tag_29:\n      sload(0x02)\n      dup2\n      jump\t// out\n        /* \"Practice/Day-10/P1.sol\":688:713  string public studentName */\n    tag_32:\n      0x03\n      dup1\n      sload\n      tag_74\n      swap1\n      tag_58\n      jump\t// in\n    tag_74:\n      dup1\n      0x1f\n      add\n      0x20\n      dup1\n      swap2\n      div\n      mul\n      0x20\n      add\n      mload(0x40)\n      swap1\n      dup2\n      add\n      0x40\n      mstore\n      dup1\n      swap3\n      swap2\n      swap1\n      dup2\n      dup2\n      mstore\n      0x20\n      add\n      dup3\n      dup1\n      sload\n      tag_75\n      swap1\n      tag_58\n      jump\t// in\n    tag_75:\n      dup1\n      iszero\n      tag_76\n      jumpi\n      dup1\n      0x1f\n      lt\n      tag_77\n      jumpi\n      0x0100\n      dup1\n      dup4\n      sload\n      div\n      mul\n      dup4\n      mstore\n      swap2\n      0x20\n      add\n      swap2\n      jump(tag_76)\n    tag_77:\n      dup3\n      add\n      swap2\n      swap1\n      0x00\n      mstore\n      keccak256(0x00, 0x20)\n      swap1\n    tag_78:\n      dup2\n      sload\n      dup2\n      mstore\n      swap1\n      0x01\n      add\n      swap1\n      0x20\n      add\n      dup1\n      dup4\n      gt\n      tag_78\n      jumpi\n      dup3\n      swap1\n      sub\n      0x1f\n      and\n      dup3\n      add\n      swap2\n    tag_76:\n      pop\n      pop\n      pop\n      pop\n      pop\n      dup2\n      jump\t// out\n        /* \"Practice/Day-10/P1.sol\":808:830  string public deptName */\n    tag_35:\n      0x07\n      dup1\n      sload\n      tag_79\n      swap1\n      tag_58\n      jump\t// in\n    tag_79:\n      dup1\n      0x1f\n      add\n      0x20\n      dup1\n      swap2\n      div\n      mul\n      0x20\n      add\n      mload(0x40)\n      swap1\n      dup2\n      add\n      0x40\n      mstore\n      dup1\n      swap3\n      swap2\n      swap1\n      dup2\n      dup2\n      mstore\n      0x20\n      add\n      dup3\n      dup1\n      sload\n      tag_80\n      swap1\n      tag_58\n      jump\t// in\n    tag_80:\n      dup1\n      iszero\n      tag_81\n      jumpi\n      dup1\n      0x1f\n      lt\n      tag_82\n      jumpi\n      0x0100\n      dup1\n      dup4\n      sload\n      div\n      mul\n      dup4\n      mstore\n      swap2\n      0x20\n      add\n      swap2\n      jump(tag_81)\n    tag_82:\n      dup3\n      add\n      swap2\n      swap1\n      0x00\n      mstore\n      keccak256(0x00, 0x20)\n      swap1\n    tag_83:\n      dup2\n      sload\n      dup2\n      mstore\n      swap1\n      0x01\n      add\n      swap1\n      0x20\n      add\n      dup1\n      dup4\n      gt\n      tag_83\n      jumpi\n      dup3\n      swap1\n      sub\n      0x1f\n      and\n      dup3\n      add\n      swap2\n    tag_81:\n      pop\n      pop\n      pop\n      pop\n      pop\n      dup2\n      jump\t// out\n        /* \"Practice/Day-10/P1.sol\":1422:1557  function printDepartment() external view override returns (string memory, string memory) {... */\n    tag_38:\n        /* \"Practice/Day-10/P1.sol\":1481:1494  string memory */\n      0x60\n        /* \"Practice/Day-10/P1.sol\":1496:1509  string memory */\n      dup1\n        /* \"Practice/Day-10/P1.sol\":1530:1538  deptName */\n      0x07\n        /* \"Practice/Day-10/P1.sol\":1540:1548  deptHead */\n      0x08\n        /* \"Practice/Day-10/P1.sol\":1522:1549  return (deptName, deptHead) */\n      dup2\n      dup1\n      sload\n      tag_85\n      swap1\n      tag_58\n      jump\t// in\n    tag_85:\n      dup1\n      0x1f\n      add\n      0x20\n      dup1\n      swap2\n      div\n      mul\n      0x20\n      add\n      mload(0x40)\n      swap1\n      dup2\n      add\n      0x40\n      mstore\n      dup1\n      swap3\n      swap2\n      swap1\n      dup2\n      dup2\n      mstore\n      0x20\n      add\n      dup3\n      dup1\n      sload\n      tag_86\n      swap1\n      tag_58\n      jump\t// in\n    tag_86:\n      dup1\n      iszero\n      tag_87\n      jumpi\n      dup1\n      0x1f\n      lt\n      tag_88\n      jumpi\n      0x0100\n      dup1\n      dup4\n      sload\n      div\n      mul\n      dup4\n      mstore\n      swap2\n      0x20\n      add\n      swap2\n      jump(tag_87)\n    tag_88:\n      dup3\n      add\n      swap2\n      swap1\n      0x00\n      mstore\n      keccak256(0x00, 0x20)\n      swap1\n    tag_89:\n      dup2\n      sload\n      dup2\n      mstore\n      swap1\n      0x01\n      add\n      swap1\n      0x20\n      add\n      dup1\n      dup4\n      gt\n      tag_89\n      jumpi\n      dup3\n      swap1\n      sub\n      0x1f\n      and\n      dup3\n      add\n      swap2\n    tag_87:\n      pop\n      pop\n      pop\n      pop\n      pop\n      swap2\n      pop\n      dup1\n      dup1\n      sload\n      tag_90\n      swap1\n      tag_58\n      jump\t// in\n    tag_90:\n      dup1\n      0x1f\n      add\n      0x20\n      dup1\n      swap2\n      div\n      mul\n      0x20\n      add\n      mload(0x40)\n      swap1\n      dup2\n      add\n      0x40\n      mstore\n      dup1\n      swap3\n      swap2\n      swap1\n      dup2\n      dup2\n      mstore\n      0x20\n      add\n      dup3\n      dup1\n      sload\n      tag_91\n      swap1\n      tag_58\n      jump\t// in\n    tag_91:\n      dup1\n      iszero\n      tag_92\n      jumpi\n      dup1\n      0x1f\n      lt\n      tag_93\n      jumpi\n      0x0100\n      dup1\n      dup4\n      sload\n      div\n      mul\n      dup4\n      mstore\n      swap2\n      0x20\n      add\n      swap2\n      jump(tag_92)\n    tag_93:\n      dup3\n      add\n      swap2\n      swap1\n      0x00\n      mstore\n      keccak256(0x00, 0x20)\n      swap1\n    tag_94:\n      dup2\n      sload\n      dup2\n      mstore\n      swap1\n      0x01\n      add\n      swap1\n      0x20\n      add\n      dup1\n      dup4\n      gt\n      tag_94\n      jumpi\n      dup3\n      swap1\n      sub\n      0x1f\n      and\n      dup3\n      add\n      swap2\n    tag_92:\n      pop\n      pop\n      pop\n      pop\n      pop\n      swap1\n      pop\n      swap2\n      pop\n      swap2\n      pop\n        /* \"Practice/Day-10/P1.sol\":1422:1557  function printDepartment() external view override returns (string memory, string memory) {... */\n      swap1\n      swap2\n      jump\t// out\n        /* \"Practice/Day-10/P1.sol\":484:635  function getHostelData() public view returns (string memory, string memory, uint) {... */\n    tag_42:\n        /* \"Practice/Day-10/P1.sol\":530:543  string memory */\n      0x60\n        /* \"Practice/Day-10/P1.sol\":545:558  string memory */\n      dup1\n        /* \"Practice/Day-10/P1.sol\":560:564  uint */\n      0x00\n        /* \"Practice/Day-10/P1.sol\":585:595  hostelName */\n      dup1\n        /* \"Practice/Day-10/P1.sol\":597:611  hostelLocation */\n      0x01\n        /* \"Practice/Day-10/P1.sol\":613:626  numberOfRooms */\n      sload(0x02)\n        /* \"Practice/Day-10/P1.sol\":577:627  return (hostelName, hostelLocation, numberOfRooms) */\n      dup3\n      dup1\n      sload\n      tag_96\n      swap1\n      tag_58\n      jump\t// in\n    tag_96:\n      dup1\n      0x1f\n      add\n      0x20\n      dup1\n      swap2\n      div\n      mul\n      0x20\n      add\n      mload(0x40)\n      swap1\n      dup2\n      add\n      0x40\n      mstore\n      dup1\n      swap3\n      swap2\n      swap1\n      dup2\n      dup2\n      mstore\n      0x20\n      add\n      dup3\n      dup1\n      sload\n      tag_97\n      swap1\n      tag_58\n      jump\t// in\n    tag_97:\n      dup1\n      iszero\n      tag_98\n      jumpi\n      dup1\n      0x1f\n      lt\n      tag_99\n      jumpi\n      0x0100\n      dup1\n      dup4\n      sload\n      div\n      mul\n      dup4\n      mstore\n      swap2\n      0x20\n      add\n      swap2\n      jump(tag_98)\n    tag_99:\n      dup3\n      add\n      swap2\n      swap1\n      0x00\n      mstore\n      keccak256(0x00, 0x20)\n      swap1\n    tag_100:\n      dup2\n      sload\n      dup2\n      mstore\n      swap1\n      0x01\n      add\n      swap1\n      0x20\n      add\n      dup1\n      dup4\n      gt\n      tag_100\n      jumpi\n      dup3\n      swap1\n      sub\n      0x1f\n      and\n      dup3\n      add\n      swap2\n    tag_98:\n      pop\n      pop\n      pop\n      pop\n      pop\n      swap3\n      pop\n      dup2\n      dup1\n      sload\n      tag_101\n      swap1\n      tag_58\n      jump\t// in\n    tag_101:\n      dup1\n      0x1f\n      add\n      0x20\n      dup1\n      swap2\n      div\n      mul\n      0x20\n      add\n      mload(0x40)\n      swap1\n      dup2\n      add\n      0x40\n      mstore\n      dup1\n      swap3\n      swap2\n      swap1\n      dup2\n      dup2\n      mstore\n      0x20\n      add\n      dup3\n      dup1\n      sload\n      tag_102\n      swap1\n      tag_58\n      jump\t// in\n    tag_102:\n      dup1\n      iszero\n      tag_103\n      jumpi\n      dup1\n      0x1f\n      lt\n      tag_104\n      jumpi\n      0x0100\n      dup1\n      dup4\n      sload\n      div\n      mul\n      dup4\n      mstore\n      swap2\n      0x20\n      add\n      swap2\n      jump(tag_103)\n    tag_104:\n      dup3\n      add\n      swap2\n      swap1\n      0x00\n      mstore\n      keccak256(0x00, 0x20)\n      swap1\n    tag_105:\n      dup2\n      sload\n      dup2\n      mstore\n      swap1\n      0x01\n      add\n      swap1\n      0x20\n      add\n      dup1\n      dup4\n      gt\n      tag_105\n      jumpi\n      dup3\n      swap1\n      sub\n      0x1f\n      and\n      dup3\n      add\n      swap2\n    tag_103:\n      pop\n      pop\n      pop\n      pop\n      pop\n      swap2\n      pop\n      swap3\n      pop\n      swap3\n      pop\n      swap3\n      pop\n        /* \"Practice/Day-10/P1.sol\":484:635  function getHostelData() public view returns (string memory, string memory, uint) {... */\n      swap1\n      swap2\n      swap3\n      jump\t// out\n        /* \"Practice/Day-10/P1.sol\":745:774  string public electiveSubject */\n    tag_46:\n      0x05\n      dup1\n      sload\n      tag_106\n      swap1\n      tag_58\n      jump\t// in\n    tag_106:\n      dup1\n      0x1f\n      add\n      0x20\n      dup1\n      swap2\n      div\n      mul\n      0x20\n      add\n      mload(0x40)\n      swap1\n      dup2\n      add\n      0x40\n      mstore\n      dup1\n      swap3\n      swap2\n      swap1\n      dup2\n      dup2\n      mstore\n      0x20\n      add\n      dup3\n      dup1\n      sload\n      tag_107\n      swap1\n      tag_58\n      jump\t// in\n    tag_107:\n      dup1\n      iszero\n      tag_108\n      jumpi\n      dup1\n      0x1f\n      lt\n      tag_109\n      jumpi\n      0x0100\n      dup1\n      dup4\n      sload\n      div\n      mul\n      dup4\n      mstore\n      swap2\n      0x20\n      add\n      swap2\n      jump(tag_108)\n    tag_109:\n      dup3\n      add\n      swap2\n      swap1\n      0x00\n      mstore\n      keccak256(0x00, 0x20)\n      swap1\n    tag_110:\n      dup2\n      sload\n      dup2\n      mstore\n      swap1\n      0x01\n      add\n      swap1\n      0x20\n      add\n      dup1\n      dup4\n      gt\n      tag_110\n      jumpi\n      dup3\n      swap1\n      sub\n      0x1f\n      and\n      dup3\n      add\n      swap2\n    tag_108:\n      pop\n      pop\n      pop\n      pop\n      pop\n      dup2\n      jump\t// out\n        /* \"Practice/Day-10/P1.sol\":198:222  string public hostelName */\n    tag_49:\n      0x00\n      dup1\n      sload\n      tag_111\n      swap1\n      tag_58\n      jump\t// in\n    tag_111:\n      dup1\n      0x1f\n      add\n      0x20\n      dup1\n      swap2\n      div\n      mul\n      0x20\n      add\n      mload(0x40)\n      swap1\n      dup2\n      add\n      0x40\n      mstore\n      dup1\n      swap3\n      swap2\n      swap1\n      dup2\n      dup2\n      mstore\n      0x20\n      add\n      dup3\n      dup1\n      sload\n      tag_112\n      swap1\n      tag_58\n      jump\t// in\n    tag_112:\n      dup1\n      iszero\n      tag_113\n      jumpi\n      dup1\n      0x1f\n      lt\n      tag_114\n      jumpi\n      0x0100\n      dup1\n      dup4\n      sload\n      div\n      mul\n      dup4\n      mstore\n      swap2\n      0x20\n      add\n      swap2\n      jump(tag_113)\n    tag_114:\n      dup3\n      add\n      swap2\n      swap1\n      0x00\n      mstore\n      keccak256(0x00, 0x20)\n      swap1\n    tag_115:\n      dup2\n      sload\n      dup2\n      mstore\n      swap1\n      0x01\n      add\n      swap1\n      0x20\n      add\n      dup1\n      dup4\n      gt\n      tag_115\n      jumpi\n      dup3\n      swap1\n      sub\n      0x1f\n      and\n      dup3\n      add\n      swap2\n    tag_113:\n      pop\n      pop\n      pop\n      pop\n      pop\n      dup2\n      jump\t// out\n        /* \"Practice/Day-10/P1.sol\":781:801  uint public avgMarks */\n    tag_52:\n      sload(0x06)\n      dup2\n      jump\t// out\n        /* \"Practice/Day-10/P1.sol\":837:859  string public deptHead */\n    tag_55:\n      0x08\n      dup1\n      sload\n      tag_116\n      swap1\n      tag_58\n      jump\t// in\n    tag_116:\n      dup1\n      0x1f\n      add\n      0x20\n      dup1\n      swap2\n      div\n      mul\n      0x20\n      add\n      mload(0x40)\n      swap1\n      dup2\n      add\n      0x40\n      mstore\n      dup1\n      swap3\n      swap2\n      swap1\n      dup2\n      dup2\n      mstore\n      0x20\n      add\n      dup3\n      dup1\n      sload\n      tag_117\n      swap1\n      tag_58\n      jump\t// in\n    tag_117:\n      dup1\n      iszero\n      tag_118\n      jumpi\n      dup1\n      0x1f\n      lt\n      tag_119\n      jumpi\n      0x0100\n      dup1\n      dup4\n      sload\n      div\n      mul\n      dup4\n      mstore\n      swap2\n      0x20\n      add\n      swap2\n      jump(tag_118)\n    tag_119:\n      dup3\n      add\n      swap2\n      swap1\n      0x00\n      mstore\n      keccak256(0x00, 0x20)\n      swap1\n    tag_120:\n      dup2\n      sload\n      dup2\n      mstore\n      swap1\n      0x01\n      add\n      swap1\n      0x20\n      add\n      dup1\n      dup4\n      gt\n      tag_120\n      jumpi\n      dup3\n      swap1\n      sub\n      0x1f\n      and\n      dup3\n      add\n      swap2\n    tag_118:\n      pop\n      pop\n      pop\n      pop\n      pop\n      dup2\n      jump\t// out\n        /* \"#utility.yul\":7:106   */\n    tag_121:\n        /* \"#utility.yul\":59:65   */\n      0x00\n        /* \"#utility.yul\":93:98   */\n      dup2\n        /* \"#utility.yul\":87:99   */\n      mload\n        /* \"#utility.yul\":77:99   */\n      swap1\n      pop\n        /* \"#utility.yul\":7:106   */\n      swap2\n      swap1\n      pop\n      jump\t// out\n        /* \"#utility.yul\":112:281   */\n    tag_122:\n        /* \"#utility.yul\":196:207   */\n      0x00\n        /* \"#utility.yul\":230:236   */\n      dup3\n        /* \"#utility.yul\":225:228   */\n      dup3\n        /* \"#utility.yul\":218:237   */\n      mstore\n        /* \"#utility.yul\":270:274   */\n      0x20\n        /* \"#utility.yul\":265:268   */\n      dup3\n        /* \"#utility.yul\":261:275   */\n      add\n        /* \"#utility.yul\":246:275   */\n      swap1\n      pop\n        /* \"#utility.yul\":112:281   */\n      swap3\n      swap2\n      pop\n      pop\n      jump\t// out\n        /* \"#utility.yul\":287:426   */\n    tag_123:\n        /* \"#utility.yul\":376:382   */\n      dup3\n        /* \"#utility.yul\":371:374   */\n      dup2\n        /* \"#utility.yul\":366:369   */\n      dup4\n        /* \"#utility.yul\":360:383   */\n      mcopy\n        /* \"#utility.yul\":417:418   */\n      0x00\n        /* \"#utility.yul\":408:414   */\n      dup4\n        /* \"#utility.yul\":403:406   */\n      dup4\n        /* \"#utility.yul\":399:415   */\n      add\n        /* \"#utility.yul\":392:419   */\n      mstore\n        /* \"#utility.yul\":287:426   */\n      pop\n      pop\n      pop\n      jump\t// out\n        /* \"#utility.yul\":432:534   */\n    tag_124:\n        /* \"#utility.yul\":473:479   */\n      0x00\n        /* \"#utility.yul\":524:526   */\n      0x1f\n        /* \"#utility.yul\":520:527   */\n      not\n        /* \"#utility.yul\":515:517   */\n      0x1f\n        /* \"#utility.yul\":508:513   */\n      dup4\n        /* \"#utility.yul\":504:518   */\n      add\n        /* \"#utility.yul\":500:528   */\n      and\n        /* \"#utility.yul\":490:528   */\n      swap1\n      pop\n        /* \"#utility.yul\":432:534   */\n      swap2\n      swap1\n      pop\n      jump\t// out\n        /* \"#utility.yul\":540:917   */\n    tag_125:\n        /* \"#utility.yul\":628:631   */\n      0x00\n        /* \"#utility.yul\":656:695   */\n      tag_135\n        /* \"#utility.yul\":689:694   */\n      dup3\n        /* \"#utility.yul\":656:695   */\n      tag_121\n      jump\t// in\n    tag_135:\n        /* \"#utility.yul\":711:782   */\n      tag_136\n        /* \"#utility.yul\":775:781   */\n      dup2\n        /* \"#utility.yul\":770:773   */\n      dup6\n        /* \"#utility.yul\":711:782   */\n      tag_122\n      jump\t// in\n    tag_136:\n        /* \"#utility.yul\":704:782   */\n      swap4\n      pop\n        /* \"#utility.yul\":791:856   */\n      tag_137\n        /* \"#utility.yul\":849:855   */\n      dup2\n        /* \"#utility.yul\":844:847   */\n      dup6\n        /* \"#utility.yul\":837:841   */\n      0x20\n        /* \"#utility.yul\":830:835   */\n      dup7\n        /* \"#utility.yul\":826:842   */\n      add\n        /* \"#utility.yul\":791:856   */\n      tag_123\n      jump\t// in\n    tag_137:\n        /* \"#utility.yul\":881:910   */\n      tag_138\n        /* \"#utility.yul\":903:909   */\n      dup2\n        /* \"#utility.yul\":881:910   */\n      tag_124\n      jump\t// in\n    tag_138:\n        /* \"#utility.yul\":876:879   */\n      dup5\n        /* \"#utility.yul\":872:911   */\n      add\n        /* \"#utility.yul\":865:911   */\n      swap2\n      pop\n        /* \"#utility.yul\":632:917   */\n      pop\n        /* \"#utility.yul\":540:917   */\n      swap3\n      swap2\n      pop\n      pop\n      jump\t// out\n        /* \"#utility.yul\":923:1236   */\n    tag_19:\n        /* \"#utility.yul\":1036:1040   */\n      0x00\n        /* \"#utility.yul\":1074:1076   */\n      0x20\n        /* \"#utility.yul\":1063:1072   */\n      dup3\n        /* \"#utility.yul\":1059:1077   */\n      add\n        /* \"#utility.yul\":1051:1077   */\n      swap1\n      pop\n        /* \"#utility.yul\":1123:1132   */\n      dup2\n        /* \"#utility.yul\":1117:1121   */\n      dup2\n        /* \"#utility.yul\":1113:1133   */\n      sub\n        /* \"#utility.yul\":1109:1110   */\n      0x00\n        /* \"#utility.yul\":1098:1107   */\n      dup4\n        /* \"#utility.yul\":1094:1111   */\n      add\n        /* \"#utility.yul\":1087:1134   */\n      mstore\n        /* \"#utility.yul\":1151:1229   */\n      tag_140\n        /* \"#utility.yul\":1224:1228   */\n      dup2\n        /* \"#utility.yul\":1215:1221   */\n      dup5\n        /* \"#utility.yul\":1151:1229   */\n      tag_125\n      jump\t// in\n    tag_140:\n        /* \"#utility.yul\":1143:1229   */\n      swap1\n      pop\n        /* \"#utility.yul\":923:1236   */\n      swap3\n      swap2\n      pop\n      pop\n      jump\t// out\n        /* \"#utility.yul\":1242:1319   */\n    tag_126:\n        /* \"#utility.yul\":1279:1286   */\n      0x00\n        /* \"#utility.yul\":1308:1313   */\n      dup2\n        /* \"#utility.yul\":1297:1313   */\n      swap1\n      pop\n        /* \"#utility.yul\":1242:1319   */\n      swap2\n      swap1\n      pop\n      jump\t// out\n        /* \"#utility.yul\":1325:1443   */\n    tag_127:\n        /* \"#utility.yul\":1412:1436   */\n      tag_143\n        /* \"#utility.yul\":1430:1435   */\n      dup2\n        /* \"#utility.yul\":1412:1436   */\n      tag_126\n      jump\t// in\n    tag_143:\n        /* \"#utility.yul\":1407:1410   */\n      dup3\n        /* \"#utility.yul\":1400:1437   */\n      mstore\n        /* \"#utility.yul\":1325:1443   */\n      pop\n      pop\n      jump\t// out\n        /* \"#utility.yul\":1449:2184   */\n    tag_23:\n        /* \"#utility.yul\":1666:1670   */\n      0x00\n        /* \"#utility.yul\":1704:1707   */\n      0x80\n        /* \"#utility.yul\":1693:1702   */\n      dup3\n        /* \"#utility.yul\":1689:1708   */\n      add\n        /* \"#utility.yul\":1681:1708   */\n      swap1\n      pop\n        /* \"#utility.yul\":1754:1763   */\n      dup2\n        /* \"#utility.yul\":1748:1752   */\n      dup2\n        /* \"#utility.yul\":1744:1764   */\n      sub\n        /* \"#utility.yul\":1740:1741   */\n      0x00\n        /* \"#utility.yul\":1729:1738   */\n      dup4\n        /* \"#utility.yul\":1725:1742   */\n      add\n        /* \"#utility.yul\":1718:1765   */\n      mstore\n        /* \"#utility.yul\":1782:1860   */\n      tag_145\n        /* \"#utility.yul\":1855:1859   */\n      dup2\n        /* \"#utility.yul\":1846:1852   */\n      dup8\n        /* \"#utility.yul\":1782:1860   */\n      tag_125\n      jump\t// in\n    tag_145:\n        /* \"#utility.yul\":1774:1860   */\n      swap1\n      pop\n        /* \"#utility.yul\":1870:1942   */\n      tag_146\n        /* \"#utility.yul\":1938:1940   */\n      0x20\n        /* \"#utility.yul\":1927:1936   */\n      dup4\n        /* \"#utility.yul\":1923:1941   */\n      add\n        /* \"#utility.yul\":1914:1920   */\n      dup7\n        /* \"#utility.yul\":1870:1942   */\n      tag_127\n      jump\t// in\n    tag_146:\n        /* \"#utility.yul\":1989:1998   */\n      dup2\n        /* \"#utility.yul\":1983:1987   */\n      dup2\n        /* \"#utility.yul\":1979:1999   */\n      sub\n        /* \"#utility.yul\":1974:1976   */\n      0x40\n        /* \"#utility.yul\":1963:1972   */\n      dup4\n        /* \"#utility.yul\":1959:1977   */\n      add\n        /* \"#utility.yul\":1952:2000   */\n      mstore\n        /* \"#utility.yul\":2017:2095   */\n      tag_147\n        /* \"#utility.yul\":2090:2094   */\n      dup2\n        /* \"#utility.yul\":2081:2087   */\n      dup6\n        /* \"#utility.yul\":2017:2095   */\n      tag_125\n      jump\t// in\n    tag_147:\n        /* \"#utility.yul\":2009:2095   */\n      swap1\n      pop\n        /* \"#utility.yul\":2105:2177   */\n      tag_148\n        /* \"#utility.yul\":2173:2175   */\n      0x60\n        /* \"#utility.yul\":2162:2171   */\n      dup4\n        /* \"#utility.yul\":2158:2176   */\n      add\n        /* \"#utility.yul\":2149:2155   */\n      dup5\n        /* \"#utility.yul\":2105:2177   */\n      tag_127\n      jump\t// in\n    tag_148:\n        /* \"#utility.yul\":1449:2184   */\n      swap6\n      swap5\n      pop\n      pop\n      pop\n      pop\n      pop\n      jump\t// out\n        /* \"#utility.yul\":2190:2412   */\n    tag_27:\n        /* \"#utility.yul\":2283:2287   */\n      0x00\n        /* \"#utility.yul\":2321:2323   */\n      0x20\n        /* \"#utility.yul\":2310:2319   */\n      dup3\n        /* \"#utility.yul\":2306:2324   */\n      add\n        /* \"#utility.yul\":2298:2324   */\n      swap1\n      pop\n        /* \"#utility.yul\":2334:2405   */\n      tag_150\n        /* \"#utility.yul\":2402:2403   */\n      0x00\n        /* \"#utility.yul\":2391:2400   */\n      dup4\n        /* \"#utility.yul\":2387:2404   */\n      add\n        /* \"#utility.yul\":2378:2384   */\n      dup5\n        /* \"#utility.yul\":2334:2405   */\n      tag_127\n      jump\t// in\n    tag_150:\n        /* \"#utility.yul\":2190:2412   */\n      swap3\n      swap2\n      pop\n      pop\n      jump\t// out\n        /* \"#utility.yul\":2418:2932   */\n    tag_40:\n        /* \"#utility.yul\":2579:2583   */\n      0x00\n        /* \"#utility.yul\":2617:2619   */\n      0x40\n        /* \"#utility.yul\":2606:2615   */\n      dup3\n        /* \"#utility.yul\":2602:2620   */\n      add\n        /* \"#utility.yul\":2594:2620   */\n      swap1\n      pop\n        /* \"#utility.yul\":2666:2675   */\n      dup2\n        /* \"#utility.yul\":2660:2664   */\n      dup2\n        /* \"#utility.yul\":2656:2676   */\n      sub\n        /* \"#utility.yul\":2652:2653   */\n      0x00\n        /* \"#utility.yul\":2641:2650   */\n      dup4\n        /* \"#utility.yul\":2637:2654   */\n      add\n        /* \"#utility.yul\":2630:2677   */\n      mstore\n        /* \"#utility.yul\":2694:2772   */\n      tag_152\n        /* \"#utility.yul\":2767:2771   */\n      dup2\n        /* \"#utility.yul\":2758:2764   */\n      dup6\n        /* \"#utility.yul\":2694:2772   */\n      tag_125\n      jump\t// in\n    tag_152:\n        /* \"#utility.yul\":2686:2772   */\n      swap1\n      pop\n        /* \"#utility.yul\":2819:2828   */\n      dup2\n        /* \"#utility.yul\":2813:2817   */\n      dup2\n        /* \"#utility.yul\":2809:2829   */\n      sub\n        /* \"#utility.yul\":2804:2806   */\n      0x20\n        /* \"#utility.yul\":2793:2802   */\n      dup4\n        /* \"#utility.yul\":2789:2807   */\n      add\n        /* \"#utility.yul\":2782:2830   */\n      mstore\n        /* \"#utility.yul\":2847:2925   */\n      tag_153\n        /* \"#utility.yul\":2920:2924   */\n      dup2\n        /* \"#utility.yul\":2911:2917   */\n      dup5\n        /* \"#utility.yul\":2847:2925   */\n      tag_125\n      jump\t// in\n    tag_153:\n        /* \"#utility.yul\":2839:2925   */\n      swap1\n      pop\n        /* \"#utility.yul\":2418:2932   */\n      swap4\n      swap3\n      pop\n      pop\n      pop\n      jump\t// out\n        /* \"#utility.yul\":2938:3562   */\n    tag_44:\n        /* \"#utility.yul\":3127:3131   */\n      0x00\n        /* \"#utility.yul\":3165:3167   */\n      0x60\n        /* \"#utility.yul\":3154:3163   */\n      dup3\n        /* \"#utility.yul\":3150:3168   */\n      add\n        /* \"#utility.yul\":3142:3168   */\n      swap1\n      pop\n        /* \"#utility.yul\":3214:3223   */\n      dup2\n        /* \"#utility.yul\":3208:3212   */\n      dup2\n        /* \"#utility.yul\":3204:3224   */\n      sub\n        /* \"#utility.yul\":3200:3201   */\n      0x00\n        /* \"#utility.yul\":3189:3198   */\n      dup4\n        /* \"#utility.yul\":3185:3202   */\n      add\n        /* \"#utility.yul\":3178:3225   */\n      mstore\n        /* \"#utility.yul\":3242:3320   */\n      tag_155\n        /* \"#utility.yul\":3315:3319   */\n      dup2\n        /* \"#utility.yul\":3306:3312   */\n      dup7\n        /* \"#utility.yul\":3242:3320   */\n      tag_125\n      jump\t// in\n    tag_155:\n        /* \"#utility.yul\":3234:3320   */\n      swap1\n      pop\n        /* \"#utility.yul\":3367:3376   */\n      dup2\n        /* \"#utility.yul\":3361:3365   */\n      dup2\n        /* \"#utility.yul\":3357:3377   */\n      sub\n        /* \"#utility.yul\":3352:3354   */\n      0x20\n        /* \"#utility.yul\":3341:3350   */\n      dup4\n        /* \"#utility.yul\":3337:3355   */\n      add\n        /* \"#utility.yul\":3330:3378   */\n      mstore\n        /* \"#utility.yul\":3395:3473   */\n      tag_156\n        /* \"#utility.yul\":3468:3472   */\n      dup2\n        /* \"#utility.yul\":3459:3465   */\n      dup6\n        /* \"#utility.yul\":3395:3473   */\n      tag_125\n      jump\t// in\n    tag_156:\n        /* \"#utility.yul\":3387:3473   */\n      swap1\n      pop\n        /* \"#utility.yul\":3483:3555   */\n      tag_157\n        /* \"#utility.yul\":3551:3553   */\n      0x40\n        /* \"#utility.yul\":3540:3549   */\n      dup4\n        /* \"#utility.yul\":3536:3554   */\n      add\n        /* \"#utility.yul\":3527:3533   */\n      dup5\n        /* \"#utility.yul\":3483:3555   */\n      tag_127\n      jump\t// in\n    tag_157:\n        /* \"#utility.yul\":2938:3562   */\n      swap5\n      swap4\n      pop\n      pop\n      pop\n      pop\n      jump\t// out\n        /* \"#utility.yul\":3568:3748   */\n    tag_128:\n        /* \"#utility.yul\":3616:3693   */\n      0x4e487b7100000000000000000000000000000000000000000000000000000000\n        /* \"#utility.yul\":3613:3614   */\n      0x00\n        /* \"#utility.yul\":3606:3694   */\n      mstore\n        /* \"#utility.yul\":3713:3717   */\n      0x22\n        /* \"#utility.yul\":3710:3711   */\n      0x04\n        /* \"#utility.yul\":3703:3718   */\n      mstore\n        /* \"#utility.yul\":3737:3741   */\n      0x24\n        /* \"#utility.yul\":3734:3735   */\n      0x00\n        /* \"#utility.yul\":3727:3742   */\n      revert\n        /* \"#utility.yul\":3754:4074   */\n    tag_58:\n        /* \"#utility.yul\":3798:3804   */\n      0x00\n        /* \"#utility.yul\":3835:3836   */\n      0x02\n        /* \"#utility.yul\":3829:3833   */\n      dup3\n        /* \"#utility.yul\":3825:3837   */\n      div\n        /* \"#utility.yul\":3815:3837   */\n      swap1\n      pop\n        /* \"#utility.yul\":3882:3883   */\n      0x01\n        /* \"#utility.yul\":3876:3880   */\n      dup3\n        /* \"#utility.yul\":3872:3884   */\n      and\n        /* \"#utility.yul\":3903:3921   */\n      dup1\n        /* \"#utility.yul\":3893:3974   */\n      tag_160\n      jumpi\n        /* \"#utility.yul\":3959:3963   */\n      0x7f\n        /* \"#utility.yul\":3951:3957   */\n      dup3\n        /* \"#utility.yul\":3947:3964   */\n      and\n        /* \"#utility.yul\":3937:3964   */\n      swap2\n      pop\n        /* \"#utility.yul\":3893:3974   */\n    tag_160:\n        /* \"#utility.yul\":4021:4023   */\n      0x20\n        /* \"#utility.yul\":4013:4019   */\n      dup3\n        /* \"#utility.yul\":4010:4024   */\n      lt\n        /* \"#utility.yul\":3990:4008   */\n      dup2\n        /* \"#utility.yul\":3987:4025   */\n      sub\n        /* \"#utility.yul\":3984:4068   */\n      tag_161\n      jumpi\n        /* \"#utility.yul\":4040:4058   */\n      tag_162\n      tag_128\n      jump\t// in\n    tag_162:\n        /* \"#utility.yul\":3984:4068   */\n    tag_161:\n        /* \"#utility.yul\":3805:4074   */\n      pop\n        /* \"#utility.yul\":3754:4074   */\n      swap2\n      swap1\n      pop\n      jump\t// out\n\n    auxdata: 0xa26469706673582212207bab9cd9c6d46d6798bd2505239909d706d807d24ea99a947a9fbf62923d5cce64736f6c634300081a0033\n}\n",
				"bytecode": {
					"linkReferences": {},
					"object": "608060405234801561000f575f80fd5b5060405161119d38038061119d83398181016040528101906100319190610239565b848484825f908161004291906105a9565b50816001908161005291906105a9565b5080600281905550505050886003908161006c91906105a9565b5087600481905550866005908161008391906105a9565b5085600681905550816007908161009a91906105a9565b5080600890816100aa91906105a9565b50505050505050505050610678565b5f604051905090565b5f80fd5b5f80fd5b5f80fd5b5f80fd5b5f601f19601f8301169050919050565b7f4e487b71000000000000000000000000000000000000000000000000000000005f52604160045260245ffd5b610118826100d2565b810181811067ffffffffffffffff82111715610137576101366100e2565b5b80604052505050565b5f6101496100b9565b9050610155828261010f565b919050565b5f67ffffffffffffffff821115610174576101736100e2565b5b61017d826100d2565b9050602081019050919050565b8281835e5f83830152505050565b5f6101aa6101a58461015a565b610140565b9050828152602081018484840111156101c6576101c56100ce565b5b6101d184828561018a565b509392505050565b5f82601f8301126101ed576101ec6100ca565b5b81516101fd848260208601610198565b91505092915050565b5f819050919050565b61021881610206565b8114610222575f80fd5b50565b5f815190506102338161020f565b92915050565b5f805f805f805f805f6101208a8c031215610257576102566100c2565b5b5f8a015167ffffffffffffffff811115610274576102736100c6565b5b6102808c828d016101d9565b99505060206102918c828d01610225565b98505060408a015167ffffffffffffffff8111156102b2576102b16100c6565b5b6102be8c828d016101d9565b97505060606102cf8c828d01610225565b96505060808a015167ffffffffffffffff8111156102f0576102ef6100c6565b5b6102fc8c828d016101d9565b95505060a08a015167ffffffffffffffff81111561031d5761031c6100c6565b5b6103298c828d016101d9565b94505060c061033a8c828d01610225565b93505060e08a015167ffffffffffffffff81111561035b5761035a6100c6565b5b6103678c828d016101d9565b9250506101008a015167ffffffffffffffff811115610389576103886100c6565b5b6103958c828d016101d9565b9150509295985092959850929598565b5f81519050919050565b7f4e487b71000000000000000000000000000000000000000000000000000000005f52602260045260245ffd5b5f60028204905060018216806103f357607f821691505b602082108103610406576104056103af565b5b50919050565b5f819050815f5260205f209050919050565b5f6020601f8301049050919050565b5f82821b905092915050565b5f600883026104687fffffffffffffffffffffffffffffffffffffffffffffffffffffffffffffffff8261042d565b610472868361042d565b95508019841693508086168417925050509392505050565b5f819050919050565b5f6104ad6104a86104a384610206565b61048a565b610206565b9050919050565b5f819050919050565b6104c683610493565b6104da6104d2826104b4565b848454610439565b825550505050565b5f90565b6104ee6104e2565b6104f98184846104bd565b505050565b5b8181101561051c576105115f826104e6565b6001810190506104ff565b5050565b601f821115610561576105328161040c565b61053b8461041e565b8101602085101561054a578190505b61055e6105568561041e565b8301826104fe565b50505b505050565b5f82821c905092915050565b5f6105815f1984600802610566565b1980831691505092915050565b5f6105998383610572565b9150826002028217905092915050565b6105b2826103a5565b67ffffffffffffffff8111156105cb576105ca6100e2565b5b6105d582546103dc565b6105e0828285610520565b5f60209050601f831160018114610611575f84156105ff578287015190505b610609858261058e565b865550610670565b601f19841661061f8661040c565b5f5b8281101561064657848901518255600182019150602085019450602081019050610621565b86831015610663578489015161065f601f891682610572565b8355505b6001600288020188555050505b505050505050565b610b18806106855f395ff3fe608060405234801561000f575f80fd5b50600436106100b2575f3560e01c8063bb489e801161006f578063bb489e801461016d578063c48cb7ba1461018c578063c607ba4d146101ac578063cb9cb0c2146101ca578063d57831f5146101e8578063eb96548f14610206576100b2565b806311ebae41146100b65780635fd7b16a146100d45780638d1d2d90146100f557806399d568b314610113578063b508ba3114610131578063b975abb31461014f575b5f80fd5b6100be610224565b6040516100cb919061096b565b60405180910390f35b6100dc6102b0565b6040516100ec94939291906109a3565b60405180910390f35b6100fd6103e2565b60405161010a91906109f4565b60405180910390f35b61011b6103e8565b60405161012891906109f4565b60405180910390f35b6101396103ee565b604051610146919061096b565b60405180910390f35b61015761047a565b604051610164919061096b565b60405180910390f35b610175610506565b604051610183929190610a0d565b60405180910390f35b610194610629565b6040516101a393929190610a42565b60405180910390f35b6101b4610752565b6040516101c1919061096b565b60405180910390f35b6101d26107de565b6040516101df919061096b565b60405180910390f35b6101f0610869565b6040516101fd91906109f4565b60405180910390f35b61020e61086f565b60405161021b919061096b565b60405180910390f35b6001805461023190610ab2565b80601f016020809104026020016040519081016040528092919081815260200182805461025d90610ab2565b80156102a85780601f1061027f576101008083540402835291602001916102a8565b820191905f5260205f20905b81548152906001019060200180831161028b57829003601f168201915b505050505081565b60605f60605f600360045460056006548380546102cc90610ab2565b80601f01602080910402602001604051908101604052809291908181526020018280546102f890610ab2565b80156103435780601f1061031a57610100808354040283529160200191610343565b820191905f5260205f20905b81548152906001019060200180831161032657829003601f168201915b5050505050935081805461035690610ab2565b80601f016020809104026020016040519081016040528092919081815260200182805461038290610ab2565b80156103cd5780601f106103a4576101008083540402835291602001916103cd565b820191905f5260205f20905b8154815290600101906020018083116103b057829003601f168201915b50505050509150935093509350935090919293565b60045481565b60025481565b600380546103fb90610ab2565b80601f016020809104026020016040519081016040528092919081815260200182805461042790610ab2565b80156104725780601f1061044957610100808354040283529160200191610472565b820191905f5260205f20905b81548152906001019060200180831161045557829003601f168201915b505050505081565b6007805461048790610ab2565b80601f01602080910402602001604051908101604052809291908181526020018280546104b390610ab2565b80156104fe5780601f106104d5576101008083540402835291602001916104fe565b820191905f5260205f20905b8154815290600101906020018083116104e157829003601f168201915b505050505081565b6060806007600881805461051990610ab2565b80601f016020809104026020016040519081016040528092919081815260200182805461054590610ab2565b80156105905780601f1061056757610100808354040283529160200191610590565b820191905f5260205f20905b81548152906001019060200180831161057357829003601f168201915b505050505091508080546105a390610ab2565b80601f01602080910402602001604051908101604052809291908181526020018280546105cf90610ab2565b801561061a5780601f106105f15761010080835404028352916020019161061a565b820191905f5260205f20905b8154815290600101906020018083116105fd57829003601f168201915b50505050509050915091509091565b6060805f80600160025482805461063f90610ab2565b80601f016020809104026020016040519081016040528092919081815260200182805461066b90610ab2565b80156106b65780601f1061068d576101008083540402835291602001916106b6565b820191905f5260205f20905b81548152906001019060200180831161069957829003601f168201915b505050505092508180546106c990610ab2565b80601f01602080910402602001604051908101604052809291908181526020018280546106f590610ab2565b80156107405780601f1061071757610100808354040283529160200191610740565b820191905f5260205f20905b81548152906001019060200180831161072357829003601f168201915b50505050509150925092509250909192565b6005805461075f90610ab2565b80601f016020809104026020016040519081016040528092919081815260200182805461078b90610ab2565b80156107d65780601f106107ad576101008083540402835291602001916107d6565b820191905f5260205f20905b8154815290600101906020018083116107b957829003601f168201915b505050505081565b5f80546107ea90610ab2565b80601f016020809104026020016040519081016040528092919081815260200182805461081690610ab2565b80156108615780601f1061083857610100808354040283529160200191610861565b820191905f5260205f20905b81548152906001019060200180831161084457829003601f168201915b505050505081565b60065481565b6008805461087c90610ab2565b80601f01602080910402602001604051908101604052809291908181526020018280546108a890610ab2565b80156108f35780601f106108ca576101008083540402835291602001916108f3565b820191905f5260205f20905b8154815290600101906020018083116108d657829003601f168201915b505050505081565b5f81519050919050565b5f82825260208201905092915050565b8281835e5f83830152505050565b5f601f19601f8301169050919050565b5f61093d826108fb565b6109478185610905565b9350610957818560208601610915565b61096081610923565b840191505092915050565b5f6020820190508181035f8301526109838184610933565b905092915050565b5f819050919050565b61099d8161098b565b82525050565b5f6080820190508181035f8301526109bb8187610933565b90506109ca6020830186610994565b81810360408301526109dc8185610933565b90506109eb6060830184610994565b95945050505050565b5f602082019050610a075f830184610994565b92915050565b5f6040820190508181035f830152610a258185610933565b90508181036020830152610a398184610933565b90509392505050565b5f6060820190508181035f830152610a5a8186610933565b90508181036020830152610a6e8185610933565b9050610a7d6040830184610994565b949350505050565b7f4e487b71000000000000000000000000000000000000000000000000000000005f52602260045260245ffd5b5f6002820490506001821680610ac957607f821691505b602082108103610adc57610adb610a85565b5b5091905056fea26469706673582212207bab9cd9c6d46d6798bd2505239909d706d807d24ea99a947a9fbf62923d5cce64736f6c634300081a0033",
					"opcodes": "PUSH1 0x80 PUSH1 0x40 MSTORE CALLVALUE DUP1 ISZERO PUSH2 0xF JUMPI PUSH0 DUP1 REVERT JUMPDEST POP PUSH1 0x40 MLOAD PUSH2 0x119D CODESIZE SUB DUP1 PUSH2 0x119D DUP4 CODECOPY DUP2 DUP2 ADD PUSH1 0x40 MSTORE DUP2 ADD SWAP1 PUSH2 0x31 SWAP2 SWAP1 PUSH2 0x239 JUMP JUMPDEST DUP5 DUP5 DUP5 DUP3 PUSH0 SWAP1 DUP2 PUSH2 0x42 SWAP2 SWAP1 PUSH2 0x5A9 JUMP JUMPDEST POP DUP2 PUSH1 0x1 SWAP1 DUP2 PUSH2 0x52 SWAP2 SWAP1 PUSH2 0x5A9 JUMP JUMPDEST POP DUP1 PUSH1 0x2 DUP2 SWAP1 SSTORE POP POP POP POP DUP9 PUSH1 0x3 SWAP1 DUP2 PUSH2 0x6C SWAP2 SWAP1 PUSH2 0x5A9 JUMP JUMPDEST POP DUP8 PUSH1 0x4 DUP2 SWAP1 SSTORE POP DUP7 PUSH1 0x5 SWAP1 DUP2 PUSH2 0x83 SWAP2 SWAP1 PUSH2 0x5A9 JUMP JUMPDEST POP DUP6 PUSH1 0x6 DUP2 SWAP1 SSTORE POP DUP2 PUSH1 0x7 SWAP1 DUP2 PUSH2 0x9A SWAP2 SWAP1 PUSH2 0x5A9 JUMP JUMPDEST POP DUP1 PUSH1 0x8 SWAP1 DUP2 PUSH2 0xAA SWAP2 SWAP1 PUSH2 0x5A9 JUMP JUMPDEST POP POP POP POP POP POP POP POP POP POP PUSH2 0x678 JUMP JUMPDEST PUSH0 PUSH1 0x40 MLOAD SWAP1 POP SWAP1 JUMP JUMPDEST PUSH0 DUP1 REVERT JUMPDEST PUSH0 DUP1 REVERT JUMPDEST PUSH0 DUP1 REVERT JUMPDEST PUSH0 DUP1 REVERT JUMPDEST PUSH0 PUSH1 0x1F NOT PUSH1 0x1F DUP4 ADD AND SWAP1 POP SWAP2 SWAP1 POP JUMP JUMPDEST PUSH32 0x4E487B7100000000000000000000000000000000000000000000000000000000 PUSH0 MSTORE PUSH1 0x41 PUSH1 0x4 MSTORE PUSH1 0x24 PUSH0 REVERT JUMPDEST PUSH2 0x118 DUP3 PUSH2 0xD2 JUMP JUMPDEST DUP2 ADD DUP2 DUP2 LT PUSH8 0xFFFFFFFFFFFFFFFF DUP3 GT OR ISZERO PUSH2 0x137 JUMPI PUSH2 0x136 PUSH2 0xE2 JUMP JUMPDEST JUMPDEST DUP1 PUSH1 0x40 MSTORE POP POP POP JUMP JUMPDEST PUSH0 PUSH2 0x149 PUSH2 0xB9 JUMP JUMPDEST SWAP1 POP PUSH2 0x155 DUP3 DUP3 PUSH2 0x10F JUMP JUMPDEST SWAP2 SWAP1 POP JUMP JUMPDEST PUSH0 PUSH8 0xFFFFFFFFFFFFFFFF DUP3 GT ISZERO PUSH2 0x174 JUMPI PUSH2 0x173 PUSH2 0xE2 JUMP JUMPDEST JUMPDEST PUSH2 0x17D DUP3 PUSH2 0xD2 JUMP JUMPDEST SWAP1 POP PUSH1 0x20 DUP2 ADD SWAP1 POP SWAP2 SWAP1 POP JUMP JUMPDEST DUP3 DUP2 DUP4 MCOPY PUSH0 DUP4 DUP4 ADD MSTORE POP POP POP JUMP JUMPDEST PUSH0 PUSH2 0x1AA PUSH2 0x1A5 DUP5 PUSH2 0x15A JUMP JUMPDEST PUSH2 0x140 JUMP JUMPDEST SWAP1 POP DUP3 DUP2 MSTORE PUSH1 0x20 DUP2 ADD DUP5 DUP5 DUP5 ADD GT ISZERO PUSH2 0x1C6 JUMPI PUSH2 0x1C5 PUSH2 0xCE JUMP JUMPDEST JUMPDEST PUSH2 0x1D1 DUP5 DUP3 DUP6 PUSH2 0x18A JUMP JUMPDEST POP SWAP4 SWAP3 POP POP POP JUMP JUMPDEST PUSH0 DUP3 PUSH1 0x1F DUP4 ADD SLT PUSH2 0x1ED JUMPI PUSH2 0x1EC PUSH2 0xCA JUMP JUMPDEST JUMPDEST DUP2 MLOAD PUSH2 0x1FD DUP5 DUP3 PUSH1 0x20 DUP7 ADD PUSH2 0x198 JUMP JUMPDEST SWAP2 POP POP SWAP3 SWAP2 POP POP JUMP JUMPDEST PUSH0 DUP2 SWAP1 POP SWAP2 SWAP1 POP JUMP JUMPDEST PUSH2 0x218 DUP2 PUSH2 0x206 JUMP JUMPDEST DUP2 EQ PUSH2 0x222 JUMPI PUSH0 DUP1 REVERT JUMPDEST POP JUMP JUMPDEST PUSH0 DUP2 MLOAD SWAP1 POP PUSH2 0x233 DUP2 PUSH2 0x20F JUMP JUMPDEST SWAP3 SWAP2 POP POP JUMP JUMPDEST PUSH0 DUP1 PUSH0 DUP1 PUSH0 DUP1 PUSH0 DUP1 PUSH0 PUSH2 0x120 DUP11 DUP13 SUB SLT ISZERO PUSH2 0x257 JUMPI PUSH2 0x256 PUSH2 0xC2 JUMP JUMPDEST JUMPDEST PUSH0 DUP11 ADD MLOAD PUSH8 0xFFFFFFFFFFFFFFFF DUP2 GT ISZERO PUSH2 0x274 JUMPI PUSH2 0x273 PUSH2 0xC6 JUMP JUMPDEST JUMPDEST PUSH2 0x280 DUP13 DUP3 DUP14 ADD PUSH2 0x1D9 JUMP JUMPDEST SWAP10 POP POP PUSH1 0x20 PUSH2 0x291 DUP13 DUP3 DUP14 ADD PUSH2 0x225 JUMP JUMPDEST SWAP9 POP POP PUSH1 0x40 DUP11 ADD MLOAD PUSH8 0xFFFFFFFFFFFFFFFF DUP2 GT ISZERO PUSH2 0x2B2 JUMPI PUSH2 0x2B1 PUSH2 0xC6 JUMP JUMPDEST JUMPDEST PUSH2 0x2BE DUP13 DUP3 DUP14 ADD PUSH2 0x1D9 JUMP JUMPDEST SWAP8 POP POP PUSH1 0x60 PUSH2 0x2CF DUP13 DUP3 DUP14 ADD PUSH2 0x225 JUMP JUMPDEST SWAP7 POP POP PUSH1 0x80 DUP11 ADD MLOAD PUSH8 0xFFFFFFFFFFFFFFFF DUP2 GT ISZERO PUSH2 0x2F0 JUMPI PUSH2 0x2EF PUSH2 0xC6 JUMP JUMPDEST JUMPDEST PUSH2 0x2FC DUP13 DUP3 DUP14 ADD PUSH2 0x1D9 JUMP JUMPDEST SWAP6 POP POP PUSH1 0xA0 DUP11 ADD MLOAD PUSH8 0xFFFFFFFFFFFFFFFF DUP2 GT ISZERO PUSH2 0x31D JUMPI PUSH2 0x31C PUSH2 0xC6 JUMP JUMPDEST JUMPDEST PUSH2 0x329 DUP13 DUP3 DUP14 ADD PUSH2 0x1D9 JUMP JUMPDEST SWAP5 POP POP PUSH1 0xC0 PUSH2 0x33A DUP13 DUP3 DUP14 ADD PUSH2 0x225 JUMP JUMPDEST SWAP4 POP POP PUSH1 0xE0 DUP11 ADD MLOAD PUSH8 0xFFFFFFFFFFFFFFFF DUP2 GT ISZERO PUSH2 0x35B JUMPI PUSH2 0x35A PUSH2 0xC6 JUMP JUMPDEST JUMPDEST PUSH2 0x367 DUP13 DUP3 DUP14 ADD PUSH2 0x1D9 JUMP JUMPDEST SWAP3 POP POP PUSH2 0x100 DUP11 ADD MLOAD PUSH8 0xFFFFFFFFFFFFFFFF DUP2 GT ISZERO PUSH2 0x389 JUMPI PUSH2 0x388 PUSH2 0xC6 JUMP JUMPDEST JUMPDEST PUSH2 0x395 DUP13 DUP3 DUP14 ADD PUSH2 0x1D9 JUMP JUMPDEST SWAP2 POP POP SWAP3 SWAP6 SWAP9 POP SWAP3 SWAP6 SWAP9 POP SWAP3 SWAP6 SWAP9 JUMP JUMPDEST PUSH0 DUP2 MLOAD SWAP1 POP SWAP2 SWAP1 POP JUMP JUMPDEST PUSH32 0x4E487B7100000000000000000000000000000000000000000000000000000000 PUSH0 MSTORE PUSH1 0x22 PUSH1 0x4 MSTORE PUSH1 0x24 PUSH0 REVERT JUMPDEST PUSH0 PUSH1 0x2 DUP3 DIV SWAP1 POP PUSH1 0x1 DUP3 AND DUP1 PUSH2 0x3F3 JUMPI PUSH1 0x7F DUP3 AND SWAP2 POP JUMPDEST PUSH1 0x20 DUP3 LT DUP2 SUB PUSH2 0x406 JUMPI PUSH2 0x405 PUSH2 0x3AF JUMP JUMPDEST JUMPDEST POP SWAP2 SWAP1 POP JUMP JUMPDEST PUSH0 DUP2 SWAP1 POP DUP2 PUSH0 MSTORE PUSH1 0x20 PUSH0 KECCAK256 SWAP1 POP SWAP2 SWAP1 POP JUMP JUMPDEST PUSH0 PUSH1 0x20 PUSH1 0x1F DUP4 ADD DIV SWAP1 POP SWAP2 SWAP1 POP JUMP JUMPDEST PUSH0 DUP3 DUP3 SHL SWAP1 POP SWAP3 SWAP2 POP POP JUMP JUMPDEST PUSH0 PUSH1 0x8 DUP4 MUL PUSH2 0x468 PUSH32 0xFFFFFFFFFFFFFFFFFFFFFFFFFFFFFFFFFFFFFFFFFFFFFFFFFFFFFFFFFFFFFFFF DUP3 PUSH2 0x42D JUMP JUMPDEST PUSH2 0x472 DUP7 DUP4 PUSH2 0x42D JUMP JUMPDEST SWAP6 POP DUP1 NOT DUP5 AND SWAP4 POP DUP1 DUP7 AND DUP5 OR SWAP3 POP POP POP SWAP4 SWAP3 POP POP POP JUMP JUMPDEST PUSH0 DUP2 SWAP1 POP SWAP2 SWAP1 POP JUMP JUMPDEST PUSH0 PUSH2 0x4AD PUSH2 0x4A8 PUSH2 0x4A3 DUP5 PUSH2 0x206 JUMP JUMPDEST PUSH2 0x48A JUMP JUMPDEST PUSH2 0x206 JUMP JUMPDEST SWAP1 POP SWAP2 SWAP1 POP JUMP JUMPDEST PUSH0 DUP2 SWAP1 POP SWAP2 SWAP1 POP JUMP JUMPDEST PUSH2 0x4C6 DUP4 PUSH2 0x493 JUMP JUMPDEST PUSH2 0x4DA PUSH2 0x4D2 DUP3 PUSH2 0x4B4 JUMP JUMPDEST DUP5 DUP5 SLOAD PUSH2 0x439 JUMP JUMPDEST DUP3 SSTORE POP POP POP POP JUMP JUMPDEST PUSH0 SWAP1 JUMP JUMPDEST PUSH2 0x4EE PUSH2 0x4E2 JUMP JUMPDEST PUSH2 0x4F9 DUP2 DUP5 DUP5 PUSH2 0x4BD JUMP JUMPDEST POP POP POP JUMP JUMPDEST JUMPDEST DUP2 DUP2 LT ISZERO PUSH2 0x51C JUMPI PUSH2 0x511 PUSH0 DUP3 PUSH2 0x4E6 JUMP JUMPDEST PUSH1 0x1 DUP2 ADD SWAP1 POP PUSH2 0x4FF JUMP JUMPDEST POP POP JUMP JUMPDEST PUSH1 0x1F DUP3 GT ISZERO PUSH2 0x561 JUMPI PUSH2 0x532 DUP2 PUSH2 0x40C JUMP JUMPDEST PUSH2 0x53B DUP5 PUSH2 0x41E JUMP JUMPDEST DUP2 ADD PUSH1 0x20 DUP6 LT ISZERO PUSH2 0x54A JUMPI DUP2 SWAP1 POP JUMPDEST PUSH2 0x55E PUSH2 0x556 DUP6 PUSH2 0x41E JUMP JUMPDEST DUP4 ADD DUP3 PUSH2 0x4FE JUMP JUMPDEST POP POP JUMPDEST POP POP POP JUMP JUMPDEST PUSH0 DUP3 DUP3 SHR SWAP1 POP SWAP3 SWAP2 POP POP JUMP JUMPDEST PUSH0 PUSH2 0x581 PUSH0 NOT DUP5 PUSH1 0x8 MUL PUSH2 0x566 JUMP JUMPDEST NOT DUP1 DUP4 AND SWAP2 POP POP SWAP3 SWAP2 POP POP JUMP JUMPDEST PUSH0 PUSH2 0x599 DUP4 DUP4 PUSH2 0x572 JUMP JUMPDEST SWAP2 POP DUP3 PUSH1 0x2 MUL DUP3 OR SWAP1 POP SWAP3 SWAP2 POP POP JUMP JUMPDEST PUSH2 0x5B2 DUP3 PUSH2 0x3A5 JUMP JUMPDEST PUSH8 0xFFFFFFFFFFFFFFFF DUP2 GT ISZERO PUSH2 0x5CB JUMPI PUSH2 0x5CA PUSH2 0xE2 JUMP JUMPDEST JUMPDEST PUSH2 0x5D5 DUP3 SLOAD PUSH2 0x3DC JUMP JUMPDEST PUSH2 0x5E0 DUP3 DUP3 DUP6 PUSH2 0x520 JUMP JUMPDEST PUSH0 PUSH1 0x20 SWAP1 POP PUSH1 0x1F DUP4 GT PUSH1 0x1 DUP2 EQ PUSH2 0x611 JUMPI PUSH0 DUP5 ISZERO PUSH2 0x5FF JUMPI DUP3 DUP8 ADD MLOAD SWAP1 POP JUMPDEST PUSH2 0x609 DUP6 DUP3 PUSH2 0x58E JUMP JUMPDEST DUP7 SSTORE POP PUSH2 0x670 JUMP JUMPDEST PUSH1 0x1F NOT DUP5 AND PUSH2 0x61F DUP7 PUSH2 0x40C JUMP JUMPDEST PUSH0 JUMPDEST DUP3 DUP2 LT ISZERO PUSH2 0x646 JUMPI DUP5 DUP10 ADD MLOAD DUP3 SSTORE PUSH1 0x1 DUP3 ADD SWAP2 POP PUSH1 0x20 DUP6 ADD SWAP5 POP PUSH1 0x20 DUP2 ADD SWAP1 POP PUSH2 0x621 JUMP JUMPDEST DUP7 DUP4 LT ISZERO PUSH2 0x663 JUMPI DUP5 DUP10 ADD MLOAD PUSH2 0x65F PUSH1 0x1F DUP10 AND DUP3 PUSH2 0x572 JUMP JUMPDEST DUP4 SSTORE POP JUMPDEST PUSH1 0x1 PUSH1 0x2 DUP9 MUL ADD DUP9 SSTORE POP POP POP JUMPDEST POP POP POP POP POP POP JUMP JUMPDEST PUSH2 0xB18 DUP1 PUSH2 0x685 PUSH0 CODECOPY PUSH0 RETURN INVALID PUSH1 0x80 PUSH1 0x40 MSTORE CALLVALUE DUP1 ISZERO PUSH2 0xF JUMPI PUSH0 DUP1 REVERT JUMPDEST POP PUSH1 0x4 CALLDATASIZE LT PUSH2 0xB2 JUMPI PUSH0 CALLDATALOAD PUSH1 0xE0 SHR DUP1 PUSH4 0xBB489E80 GT PUSH2 0x6F JUMPI DUP1 PUSH4 0xBB489E80 EQ PUSH2 0x16D JUMPI DUP1 PUSH4 0xC48CB7BA EQ PUSH2 0x18C JUMPI DUP1 PUSH4 0xC607BA4D EQ PUSH2 0x1AC JUMPI DUP1 PUSH4 0xCB9CB0C2 EQ PUSH2 0x1CA JUMPI DUP1 PUSH4 0xD57831F5 EQ PUSH2 0x1E8 JUMPI DUP1 PUSH4 0xEB96548F EQ PUSH2 0x206 JUMPI PUSH2 0xB2 JUMP JUMPDEST DUP1 PUSH4 0x11EBAE41 EQ PUSH2 0xB6 JUMPI DUP1 PUSH4 0x5FD7B16A EQ PUSH2 0xD4 JUMPI DUP1 PUSH4 0x8D1D2D90 EQ PUSH2 0xF5 JUMPI DUP1 PUSH4 0x99D568B3 EQ PUSH2 0x113 JUMPI DUP1 PUSH4 0xB508BA31 EQ PUSH2 0x131 JUMPI DUP1 PUSH4 0xB975ABB3 EQ PUSH2 0x14F JUMPI JUMPDEST PUSH0 DUP1 REVERT JUMPDEST PUSH2 0xBE PUSH2 0x224 JUMP JUMPDEST PUSH1 0x40 MLOAD PUSH2 0xCB SWAP2 SWAP1 PUSH2 0x96B JUMP JUMPDEST PUSH1 0x40 MLOAD DUP1 SWAP2 SUB SWAP1 RETURN JUMPDEST PUSH2 0xDC PUSH2 0x2B0 JUMP JUMPDEST PUSH1 0x40 MLOAD PUSH2 0xEC SWAP5 SWAP4 SWAP3 SWAP2 SWAP1 PUSH2 0x9A3 JUMP JUMPDEST PUSH1 0x40 MLOAD DUP1 SWAP2 SUB SWAP1 RETURN JUMPDEST PUSH2 0xFD PUSH2 0x3E2 JUMP JUMPDEST PUSH1 0x40 MLOAD PUSH2 0x10A SWAP2 SWAP1 PUSH2 0x9F4 JUMP JUMPDEST PUSH1 0x40 MLOAD DUP1 SWAP2 SUB SWAP1 RETURN JUMPDEST PUSH2 0x11B PUSH2 0x3E8 JUMP JUMPDEST PUSH1 0x40 MLOAD PUSH2 0x128 SWAP2 SWAP1 PUSH2 0x9F4 JUMP JUMPDEST PUSH1 0x40 MLOAD DUP1 SWAP2 SUB SWAP1 RETURN JUMPDEST PUSH2 0x139 PUSH2 0x3EE JUMP JUMPDEST PUSH1 0x40 MLOAD PUSH2 0x146 SWAP2 SWAP1 PUSH2 0x96B JUMP JUMPDEST PUSH1 0x40 MLOAD DUP1 SWAP2 SUB SWAP1 RETURN JUMPDEST PUSH2 0x157 PUSH2 0x47A JUMP JUMPDEST PUSH1 0x40 MLOAD PUSH2 0x164 SWAP2 SWAP1 PUSH2 0x96B JUMP JUMPDEST PUSH1 0x40 MLOAD DUP1 SWAP2 SUB SWAP1 RETURN JUMPDEST PUSH2 0x175 PUSH2 0x506 JUMP JUMPDEST PUSH1 0x40 MLOAD PUSH2 0x183 SWAP3 SWAP2 SWAP1 PUSH2 0xA0D JUMP JUMPDEST PUSH1 0x40 MLOAD DUP1 SWAP2 SUB SWAP1 RETURN JUMPDEST PUSH2 0x194 PUSH2 0x629 JUMP JUMPDEST PUSH1 0x40 MLOAD PUSH2 0x1A3 SWAP4 SWAP3 SWAP2 SWAP1 PUSH2 0xA42 JUMP JUMPDEST PUSH1 0x40 MLOAD DUP1 SWAP2 SUB SWAP1 RETURN JUMPDEST PUSH2 0x1B4 PUSH2 0x752 JUMP JUMPDEST PUSH1 0x40 MLOAD PUSH2 0x1C1 SWAP2 SWAP1 PUSH2 0x96B JUMP JUMPDEST PUSH1 0x40 MLOAD DUP1 SWAP2 SUB SWAP1 RETURN JUMPDEST PUSH2 0x1D2 PUSH2 0x7DE JUMP JUMPDEST PUSH1 0x40 MLOAD PUSH2 0x1DF SWAP2 SWAP1 PUSH2 0x96B JUMP JUMPDEST PUSH1 0x40 MLOAD DUP1 SWAP2 SUB SWAP1 RETURN JUMPDEST PUSH2 0x1F0 PUSH2 0x869 JUMP JUMPDEST PUSH1 0x40 MLOAD PUSH2 0x1FD SWAP2 SWAP1 PUSH2 0x9F4 JUMP JUMPDEST PUSH1 0x40 MLOAD DUP1 SWAP2 SUB SWAP1 RETURN JUMPDEST PUSH2 0x20E PUSH2 0x86F JUMP JUMPDEST PUSH1 0x40 MLOAD PUSH2 0x21B SWAP2 SWAP1 PUSH2 0x96B JUMP JUMPDEST PUSH1 0x40 MLOAD DUP1 SWAP2 SUB SWAP1 RETURN JUMPDEST PUSH1 0x1 DUP1 SLOAD PUSH2 0x231 SWAP1 PUSH2 0xAB2 JUMP JUMPDEST DUP1 PUSH1 0x1F ADD PUSH1 0x20 DUP1 SWAP2 DIV MUL PUSH1 0x20 ADD PUSH1 0x40 MLOAD SWAP1 DUP2 ADD PUSH1 0x40 MSTORE DUP1 SWAP3 SWAP2 SWAP1 DUP2 DUP2 MSTORE PUSH1 0x20 ADD DUP3 DUP1 SLOAD PUSH2 0x25D SWAP1 PUSH2 0xAB2 JUMP JUMPDEST DUP1 ISZERO PUSH2 0x2A8 JUMPI DUP1 PUSH1 0x1F LT PUSH2 0x27F JUMPI PUSH2 0x100 DUP1 DUP4 SLOAD DIV MUL DUP4 MSTORE SWAP2 PUSH1 0x20 ADD SWAP2 PUSH2 0x2A8 JUMP JUMPDEST DUP3 ADD SWAP2 SWAP1 PUSH0 MSTORE PUSH1 0x20 PUSH0 KECCAK256 SWAP1 JUMPDEST DUP2 SLOAD DUP2 MSTORE SWAP1 PUSH1 0x1 ADD SWAP1 PUSH1 0x20 ADD DUP1 DUP4 GT PUSH2 0x28B JUMPI DUP3 SWAP1 SUB PUSH1 0x1F AND DUP3 ADD SWAP2 JUMPDEST POP POP POP POP POP DUP2 JUMP JUMPDEST PUSH1 0x60 PUSH0 PUSH1 0x60 PUSH0 PUSH1 0x3 PUSH1 0x4 SLOAD PUSH1 0x5 PUSH1 0x6 SLOAD DUP4 DUP1 SLOAD PUSH2 0x2CC SWAP1 PUSH2 0xAB2 JUMP JUMPDEST DUP1 PUSH1 0x1F ADD PUSH1 0x20 DUP1 SWAP2 DIV MUL PUSH1 0x20 ADD PUSH1 0x40 MLOAD SWAP1 DUP2 ADD PUSH1 0x40 MSTORE DUP1 SWAP3 SWAP2 SWAP1 DUP2 DUP2 MSTORE PUSH1 0x20 ADD DUP3 DUP1 SLOAD PUSH2 0x2F8 SWAP1 PUSH2 0xAB2 JUMP JUMPDEST DUP1 ISZERO PUSH2 0x343 JUMPI DUP1 PUSH1 0x1F LT PUSH2 0x31A JUMPI PUSH2 0x100 DUP1 DUP4 SLOAD DIV MUL DUP4 MSTORE SWAP2 PUSH1 0x20 ADD SWAP2 PUSH2 0x343 JUMP JUMPDEST DUP3 ADD SWAP2 SWAP1 PUSH0 MSTORE PUSH1 0x20 PUSH0 KECCAK256 SWAP1 JUMPDEST DUP2 SLOAD DUP2 MSTORE SWAP1 PUSH1 0x1 ADD SWAP1 PUSH1 0x20 ADD DUP1 DUP4 GT PUSH2 0x326 JUMPI DUP3 SWAP1 SUB PUSH1 0x1F AND DUP3 ADD SWAP2 JUMPDEST POP POP POP POP POP SWAP4 POP DUP2 DUP1 SLOAD PUSH2 0x356 SWAP1 PUSH2 0xAB2 JUMP JUMPDEST DUP1 PUSH1 0x1F ADD PUSH1 0x20 DUP1 SWAP2 DIV MUL PUSH1 0x20 ADD PUSH1 0x40 MLOAD SWAP1 DUP2 ADD PUSH1 0x40 MSTORE DUP1 SWAP3 SWAP2 SWAP1 DUP2 DUP2 MSTORE PUSH1 0x20 ADD DUP3 DUP1 SLOAD PUSH2 0x382 SWAP1 PUSH2 0xAB2 JUMP JUMPDEST DUP1 ISZERO PUSH2 0x3CD JUMPI DUP1 PUSH1 0x1F LT PUSH2 0x3A4 JUMPI PUSH2 0x100 DUP1 DUP4 SLOAD DIV MUL DUP4 MSTORE SWAP2 PUSH1 0x20 ADD SWAP2 PUSH2 0x3CD JUMP JUMPDEST DUP3 ADD SWAP2 SWAP1 PUSH0 MSTORE PUSH1 0x20 PUSH0 KECCAK256 SWAP1 JUMPDEST DUP2 SLOAD DUP2 MSTORE SWAP1 PUSH1 0x1 ADD SWAP1 PUSH1 0x20 ADD DUP1 DUP4 GT PUSH2 0x3B0 JUMPI DUP3 SWAP1 SUB PUSH1 0x1F AND DUP3 ADD SWAP2 JUMPDEST POP POP POP POP POP SWAP2 POP SWAP4 POP SWAP4 POP SWAP4 POP SWAP4 POP SWAP1 SWAP2 SWAP3 SWAP4 JUMP JUMPDEST PUSH1 0x4 SLOAD DUP2 JUMP JUMPDEST PUSH1 0x2 SLOAD DUP2 JUMP JUMPDEST PUSH1 0x3 DUP1 SLOAD PUSH2 0x3FB SWAP1 PUSH2 0xAB2 JUMP JUMPDEST DUP1 PUSH1 0x1F ADD PUSH1 0x20 DUP1 SWAP2 DIV MUL PUSH1 0x20 ADD PUSH1 0x40 MLOAD SWAP1 DUP2 ADD PUSH1 0x40 MSTORE DUP1 SWAP3 SWAP2 SWAP1 DUP2 DUP2 MSTORE PUSH1 0x20 ADD DUP3 DUP1 SLOAD PUSH2 0x427 SWAP1 PUSH2 0xAB2 JUMP JUMPDEST DUP1 ISZERO PUSH2 0x472 JUMPI DUP1 PUSH1 0x1F LT PUSH2 0x449 JUMPI PUSH2 0x100 DUP1 DUP4 SLOAD DIV MUL DUP4 MSTORE SWAP2 PUSH1 0x20 ADD SWAP2 PUSH2 0x472 JUMP JUMPDEST DUP3 ADD SWAP2 SWAP1 PUSH0 MSTORE PUSH1 0x20 PUSH0 KECCAK256 SWAP1 JUMPDEST DUP2 SLOAD DUP2 MSTORE SWAP1 PUSH1 0x1 ADD SWAP1 PUSH1 0x20 ADD DUP1 DUP4 GT PUSH2 0x455 JUMPI DUP3 SWAP1 SUB PUSH1 0x1F AND DUP3 ADD SWAP2 JUMPDEST POP POP POP POP POP DUP2 JUMP JUMPDEST PUSH1 0x7 DUP1 SLOAD PUSH2 0x487 SWAP1 PUSH2 0xAB2 JUMP JUMPDEST DUP1 PUSH1 0x1F ADD PUSH1 0x20 DUP1 SWAP2 DIV MUL PUSH1 0x20 ADD PUSH1 0x40 MLOAD SWAP1 DUP2 ADD PUSH1 0x40 MSTORE DUP1 SWAP3 SWAP2 SWAP1 DUP2 DUP2 MSTORE PUSH1 0x20 ADD DUP3 DUP1 SLOAD PUSH2 0x4B3 SWAP1 PUSH2 0xAB2 JUMP JUMPDEST DUP1 ISZERO PUSH2 0x4FE JUMPI DUP1 PUSH1 0x1F LT PUSH2 0x4D5 JUMPI PUSH2 0x100 DUP1 DUP4 SLOAD DIV MUL DUP4 MSTORE SWAP2 PUSH1 0x20 ADD SWAP2 PUSH2 0x4FE JUMP JUMPDEST DUP3 ADD SWAP2 SWAP1 PUSH0 MSTORE PUSH1 0x20 PUSH0 KECCAK256 SWAP1 JUMPDEST DUP2 SLOAD DUP2 MSTORE SWAP1 PUSH1 0x1 ADD SWAP1 PUSH1 0x20 ADD DUP1 DUP4 GT PUSH2 0x4E1 JUMPI DUP3 SWAP1 SUB PUSH1 0x1F AND DUP3 ADD SWAP2 JUMPDEST POP POP POP POP POP DUP2 JUMP JUMPDEST PUSH1 0x60 DUP1 PUSH1 0x7 PUSH1 0x8 DUP2 DUP1 SLOAD PUSH2 0x519 SWAP1 PUSH2 0xAB2 JUMP JUMPDEST DUP1 PUSH1 0x1F ADD PUSH1 0x20 DUP1 SWAP2 DIV MUL PUSH1 0x20 ADD PUSH1 0x40 MLOAD SWAP1 DUP2 ADD PUSH1 0x40 MSTORE DUP1 SWAP3 SWAP2 SWAP1 DUP2 DUP2 MSTORE PUSH1 0x20 ADD DUP3 DUP1 SLOAD PUSH2 0x545 SWAP1 PUSH2 0xAB2 JUMP JUMPDEST DUP1 ISZERO PUSH2 0x590 JUMPI DUP1 PUSH1 0x1F LT PUSH2 0x567 JUMPI PUSH2 0x100 DUP1 DUP4 SLOAD DIV MUL DUP4 MSTORE SWAP2 PUSH1 0x20 ADD SWAP2 PUSH2 0x590 JUMP JUMPDEST DUP3 ADD SWAP2 SWAP1 PUSH0 MSTORE PUSH1 0x20 PUSH0 KECCAK256 SWAP1 JUMPDEST DUP2 SLOAD DUP2 MSTORE SWAP1 PUSH1 0x1 ADD SWAP1 PUSH1 0x20 ADD DUP1 DUP4 GT PUSH2 0x573 JUMPI DUP3 SWAP1 SUB PUSH1 0x1F AND DUP3 ADD SWAP2 JUMPDEST POP POP POP POP POP SWAP2 POP DUP1 DUP1 SLOAD PUSH2 0x5A3 SWAP1 PUSH2 0xAB2 JUMP JUMPDEST DUP1 PUSH1 0x1F ADD PUSH1 0x20 DUP1 SWAP2 DIV MUL PUSH1 0x20 ADD PUSH1 0x40 MLOAD SWAP1 DUP2 ADD PUSH1 0x40 MSTORE DUP1 SWAP3 SWAP2 SWAP1 DUP2 DUP2 MSTORE PUSH1 0x20 ADD DUP3 DUP1 SLOAD PUSH2 0x5CF SWAP1 PUSH2 0xAB2 JUMP JUMPDEST DUP1 ISZERO PUSH2 0x61A JUMPI DUP1 PUSH1 0x1F LT PUSH2 0x5F1 JUMPI PUSH2 0x100 DUP1 DUP4 SLOAD DIV MUL DUP4 MSTORE SWAP2 PUSH1 0x20 ADD SWAP2 PUSH2 0x61A JUMP JUMPDEST DUP3 ADD SWAP2 SWAP1 PUSH0 MSTORE PUSH1 0x20 PUSH0 KECCAK256 SWAP1 JUMPDEST DUP2 SLOAD DUP2 MSTORE SWAP1 PUSH1 0x1 ADD SWAP1 PUSH1 0x20 ADD DUP1 DUP4 GT PUSH2 0x5FD JUMPI DUP3 SWAP1 SUB PUSH1 0x1F AND DUP3 ADD SWAP2 JUMPDEST POP POP POP POP POP SWAP1 POP SWAP2 POP SWAP2 POP SWAP1 SWAP2 JUMP JUMPDEST PUSH1 0x60 DUP1 PUSH0 DUP1 PUSH1 0x1 PUSH1 0x2 SLOAD DUP3 DUP1 SLOAD PUSH2 0x63F SWAP1 PUSH2 0xAB2 JUMP JUMPDEST DUP1 PUSH1 0x1F ADD PUSH1 0x20 DUP1 SWAP2 DIV MUL PUSH1 0x20 ADD PUSH1 0x40 MLOAD SWAP1 DUP2 ADD PUSH1 0x40 MSTORE DUP1 SWAP3 SWAP2 SWAP1 DUP2 DUP2 MSTORE PUSH1 0x20 ADD DUP3 DUP1 SLOAD PUSH2 0x66B SWAP1 PUSH2 0xAB2 JUMP JUMPDEST DUP1 ISZERO PUSH2 0x6B6 JUMPI DUP1 PUSH1 0x1F LT PUSH2 0x68D JUMPI PUSH2 0x100 DUP1 DUP4 SLOAD DIV MUL DUP4 MSTORE SWAP2 PUSH1 0x20 ADD SWAP2 PUSH2 0x6B6 JUMP JUMPDEST DUP3 ADD SWAP2 SWAP1 PUSH0 MSTORE PUSH1 0x20 PUSH0 KECCAK256 SWAP1 JUMPDEST DUP2 SLOAD DUP2 MSTORE SWAP1 PUSH1 0x1 ADD SWAP1 PUSH1 0x20 ADD DUP1 DUP4 GT PUSH2 0x699 JUMPI DUP3 SWAP1 SUB PUSH1 0x1F AND DUP3 ADD SWAP2 JUMPDEST POP POP POP POP POP SWAP3 POP DUP2 DUP1 SLOAD PUSH2 0x6C9 SWAP1 PUSH2 0xAB2 JUMP JUMPDEST DUP1 PUSH1 0x1F ADD PUSH1 0x20 DUP1 SWAP2 DIV MUL PUSH1 0x20 ADD PUSH1 0x40 MLOAD SWAP1 DUP2 ADD PUSH1 0x40 MSTORE DUP1 SWAP3 SWAP2 SWAP1 DUP2 DUP2 MSTORE PUSH1 0x20 ADD DUP3 DUP1 SLOAD PUSH2 0x6F5 SWAP1 PUSH2 0xAB2 JUMP JUMPDEST DUP1 ISZERO PUSH2 0x740 JUMPI DUP1 PUSH1 0x1F LT PUSH2 0x717 JUMPI PUSH2 0x100 DUP1 DUP4 SLOAD DIV MUL DUP4 MSTORE SWAP2 PUSH1 0x20 ADD SWAP2 PUSH2 0x740 JUMP JUMPDEST DUP3 ADD SWAP2 SWAP1 PUSH0 MSTORE PUSH1 0x20 PUSH0 KECCAK256 SWAP1 JUMPDEST DUP2 SLOAD DUP2 MSTORE SWAP1 PUSH1 0x1 ADD SWAP1 PUSH1 0x20 ADD DUP1 DUP4 GT PUSH2 0x723 JUMPI DUP3 SWAP1 SUB PUSH1 0x1F AND DUP3 ADD SWAP2 JUMPDEST POP POP POP POP POP SWAP2 POP SWAP3 POP SWAP3 POP SWAP3 POP SWAP1 SWAP2 SWAP3 JUMP JUMPDEST PUSH1 0x5 DUP1 SLOAD PUSH2 0x75F SWAP1 PUSH2 0xAB2 JUMP JUMPDEST DUP1 PUSH1 0x1F ADD PUSH1 0x20 DUP1 SWAP2 DIV MUL PUSH1 0x20 ADD PUSH1 0x40 MLOAD SWAP1 DUP2 ADD PUSH1 0x40 MSTORE DUP1 SWAP3 SWAP2 SWAP1 DUP2 DUP2 MSTORE PUSH1 0x20 ADD DUP3 DUP1 SLOAD PUSH2 0x78B SWAP1 PUSH2 0xAB2 JUMP JUMPDEST DUP1 ISZERO PUSH2 0x7D6 JUMPI DUP1 PUSH1 0x1F LT PUSH2 0x7AD JUMPI PUSH2 0x100 DUP1 DUP4 SLOAD DIV MUL DUP4 MSTORE SWAP2 PUSH1 0x20 ADD SWAP2 PUSH2 0x7D6 JUMP JUMPDEST DUP3 ADD SWAP2 SWAP1 PUSH0 MSTORE PUSH1 0x20 PUSH0 KECCAK256 SWAP1 JUMPDEST DUP2 SLOAD DUP2 MSTORE SWAP1 PUSH1 0x1 ADD SWAP1 PUSH1 0x20 ADD DUP1 DUP4 GT PUSH2 0x7B9 JUMPI DUP3 SWAP1 SUB PUSH1 0x1F AND DUP3 ADD SWAP2 JUMPDEST POP POP POP POP POP DUP2 JUMP JUMPDEST PUSH0 DUP1 SLOAD PUSH2 0x7EA SWAP1 PUSH2 0xAB2 JUMP JUMPDEST DUP1 PUSH1 0x1F ADD PUSH1 0x20 DUP1 SWAP2 DIV MUL PUSH1 0x20 ADD PUSH1 0x40 MLOAD SWAP1 DUP2 ADD PUSH1 0x40 MSTORE DUP1 SWAP3 SWAP2 SWAP1 DUP2 DUP2 MSTORE PUSH1 0x20 ADD DUP3 DUP1 SLOAD PUSH2 0x816 SWAP1 PUSH2 0xAB2 JUMP JUMPDEST DUP1 ISZERO PUSH2 0x861 JUMPI DUP1 PUSH1 0x1F LT PUSH2 0x838 JUMPI PUSH2 0x100 DUP1 DUP4 SLOAD DIV MUL DUP4 MSTORE SWAP2 PUSH1 0x20 ADD SWAP2 PUSH2 0x861 JUMP JUMPDEST DUP3 ADD SWAP2 SWAP1 PUSH0 MSTORE PUSH1 0x20 PUSH0 KECCAK256 SWAP1 JUMPDEST DUP2 SLOAD DUP2 MSTORE SWAP1 PUSH1 0x1 ADD SWAP1 PUSH1 0x20 ADD DUP1 DUP4 GT PUSH2 0x844 JUMPI DUP3 SWAP1 SUB PUSH1 0x1F AND DUP3 ADD SWAP2 JUMPDEST POP POP POP POP POP DUP2 JUMP JUMPDEST PUSH1 0x6 SLOAD DUP2 JUMP JUMPDEST PUSH1 0x8 DUP1 SLOAD PUSH2 0x87C SWAP1 PUSH2 0xAB2 JUMP JUMPDEST DUP1 PUSH1 0x1F ADD PUSH1 0x20 DUP1 SWAP2 DIV MUL PUSH1 0x20 ADD PUSH1 0x40 MLOAD SWAP1 DUP2 ADD PUSH1 0x40 MSTORE DUP1 SWAP3 SWAP2 SWAP1 DUP2 DUP2 MSTORE PUSH1 0x20 ADD DUP3 DUP1 SLOAD PUSH2 0x8A8 SWAP1 PUSH2 0xAB2 JUMP JUMPDEST DUP1 ISZERO PUSH2 0x8F3 JUMPI DUP1 PUSH1 0x1F LT PUSH2 0x8CA JUMPI PUSH2 0x100 DUP1 DUP4 SLOAD DIV MUL DUP4 MSTORE SWAP2 PUSH1 0x20 ADD SWAP2 PUSH2 0x8F3 JUMP JUMPDEST DUP3 ADD SWAP2 SWAP1 PUSH0 MSTORE PUSH1 0x20 PUSH0 KECCAK256 SWAP1 JUMPDEST DUP2 SLOAD DUP2 MSTORE SWAP1 PUSH1 0x1 ADD SWAP1 PUSH1 0x20 ADD DUP1 DUP4 GT PUSH2 0x8D6 JUMPI DUP3 SWAP1 SUB PUSH1 0x1F AND DUP3 ADD SWAP2 JUMPDEST POP POP POP POP POP DUP2 JUMP JUMPDEST PUSH0 DUP2 MLOAD SWAP1 POP SWAP2 SWAP1 POP JUMP JUMPDEST PUSH0 DUP3 DUP3 MSTORE PUSH1 0x20 DUP3 ADD SWAP1 POP SWAP3 SWAP2 POP POP JUMP JUMPDEST DUP3 DUP2 DUP4 MCOPY PUSH0 DUP4 DUP4 ADD MSTORE POP POP POP JUMP JUMPDEST PUSH0 PUSH1 0x1F NOT PUSH1 0x1F DUP4 ADD AND SWAP1 POP SWAP2 SWAP1 POP JUMP JUMPDEST PUSH0 PUSH2 0x93D DUP3 PUSH2 0x8FB JUMP JUMPDEST PUSH2 0x947 DUP2 DUP6 PUSH2 0x905 JUMP JUMPDEST SWAP4 POP PUSH2 0x957 DUP2 DUP6 PUSH1 0x20 DUP7 ADD PUSH2 0x915 JUMP JUMPDEST PUSH2 0x960 DUP2 PUSH2 0x923 JUMP JUMPDEST DUP5 ADD SWAP2 POP POP SWAP3 SWAP2 POP POP JUMP JUMPDEST PUSH0 PUSH1 0x20 DUP3 ADD SWAP1 POP DUP2 DUP2 SUB PUSH0 DUP4 ADD MSTORE PUSH2 0x983 DUP2 DUP5 PUSH2 0x933 JUMP JUMPDEST SWAP1 POP SWAP3 SWAP2 POP POP JUMP JUMPDEST PUSH0 DUP2 SWAP1 POP SWAP2 SWAP1 POP JUMP JUMPDEST PUSH2 0x99D DUP2 PUSH2 0x98B JUMP JUMPDEST DUP3 MSTORE POP POP JUMP JUMPDEST PUSH0 PUSH1 0x80 DUP3 ADD SWAP1 POP DUP2 DUP2 SUB PUSH0 DUP4 ADD MSTORE PUSH2 0x9BB DUP2 DUP8 PUSH2 0x933 JUMP JUMPDEST SWAP1 POP PUSH2 0x9CA PUSH1 0x20 DUP4 ADD DUP7 PUSH2 0x994 JUMP JUMPDEST DUP2 DUP2 SUB PUSH1 0x40 DUP4 ADD MSTORE PUSH2 0x9DC DUP2 DUP6 PUSH2 0x933 JUMP JUMPDEST SWAP1 POP PUSH2 0x9EB PUSH1 0x60 DUP4 ADD DUP5 PUSH2 0x994 JUMP JUMPDEST SWAP6 SWAP5 POP POP POP POP POP JUMP JUMPDEST PUSH0 PUSH1 0x20 DUP3 ADD SWAP1 POP PUSH2 0xA07 PUSH0 DUP4 ADD DUP5 PUSH2 0x994 JUMP JUMPDEST SWAP3 SWAP2 POP POP JUMP JUMPDEST PUSH0 PUSH1 0x40 DUP3 ADD SWAP1 POP DUP2 DUP2 SUB PUSH0 DUP4 ADD MSTORE PUSH2 0xA25 DUP2 DUP6 PUSH2 0x933 JUMP JUMPDEST SWAP1 POP DUP2 DUP2 SUB PUSH1 0x20 DUP4 ADD MSTORE PUSH2 0xA39 DUP2 DUP5 PUSH2 0x933 JUMP JUMPDEST SWAP1 POP SWAP4 SWAP3 POP POP POP JUMP JUMPDEST PUSH0 PUSH1 0x60 DUP3 ADD SWAP1 POP DUP2 DUP2 SUB PUSH0 DUP4 ADD MSTORE PUSH2 0xA5A DUP2 DUP7 PUSH2 0x933 JUMP JUMPDEST SWAP1 POP DUP2 DUP2 SUB PUSH1 0x20 DUP4 ADD MSTORE PUSH2 0xA6E DUP2 DUP6 PUSH2 0x933 JUMP JUMPDEST SWAP1 POP PUSH2 0xA7D PUSH1 0x40 DUP4 ADD DUP5 PUSH2 0x994 JUMP JUMPDEST SWAP5 SWAP4 POP POP POP POP JUMP JUMPDEST PUSH32 0x4E487B7100000000000000000000000000000000000000000000000000000000 PUSH0 MSTORE PUSH1 0x22 PUSH1 0x4 MSTORE PUSH1 0x24 PUSH0 REVERT JUMPDEST PUSH0 PUSH1 0x2 DUP3 DIV SWAP1 POP PUSH1 0x1 DUP3 AND DUP1 PUSH2 0xAC9 JUMPI PUSH1 0x7F DUP3 AND SWAP2 POP JUMPDEST PUSH1 0x20 DUP3 LT DUP2 SUB PUSH2 0xADC JUMPI PUSH2 0xADB PUSH2 0xA85 JUMP JUMPDEST JUMPDEST POP SWAP2 SWAP1 POP JUMP INVALID LOG2 PUSH5 0x6970667358 0x22 SLT KECCAK256 PUSH28 0xAB9CD9C6D46D6798BD2505239909D706D807D24EA99A947A9FBF6292 RETURNDATASIZE TLOAD 0xCE PUSH5 0x736F6C6343 STOP ADDMOD BYTE STOP CALLER "
				},
				"gasEstimates": {
					"creation": {
						"codeDepositCost": "568000",
						"executionCost": "infinite",
						"totalCost": "infinite"
					},
					"external": {
						"avgMarks()": "2513",
						"deptHead()": "infinite",
						"deptName()": "infinite",
						"electiveSubject()": "infinite",
						"getHostelData()": "infinite",
						"getStudentData()": "infinite",
						"hostelLocation()": "infinite",
						"hostelName()": "infinite",
						"numberOfRooms()": "2492",
						"printDepartment()": "infinite",
						"regdNo()": "2470",
						"studentName()": "infinite"
					}
				},
				"methodIdentifiers": {
					"avgMarks()": "d57831f5",
					"deptHead()": "eb96548f",
					"deptName()": "b975abb3",
					"electiveSubject()": "c607ba4d",
					"getHostelData()": "c48cb7ba",
					"getStudentData()": "5fd7b16a",
					"hostelLocation()": "11ebae41",
					"hostelName()": "cb9cb0c2",
					"numberOfRooms()": "99d568b3",
					"printDepartment()": "bb489e80",
					"regdNo()": "8d1d2d90",
					"studentName()": "b508ba31"
				}
			},
			"storageLayout": {
				"storage": [
					{
						"astId": 11,
						"contract": "Practice/Day-10/P1.sol:Student",
						"label": "hostelName",
						"offset": 0,
						"slot": "0",
						"type": "t_string_storage"
					},
					{
						"astId": 13,
						"contract": "Practice/Day-10/P1.sol:Student",
						"label": "hostelLocation",
						"offset": 0,
						"slot": "1",
						"type": "t_string_storage"
					},
					{
						"astId": 15,
						"contract": "Practice/Day-10/P1.sol:Student",
						"label": "numberOfRooms",
						"offset": 0,
						"slot": "2",
						"type": "t_uint256"
					},
					{
						"astId": 59,
						"contract": "Practice/Day-10/P1.sol:Student",
						"label": "studentName",
						"offset": 0,
						"slot": "3",
						"type": "t_string_storage"
					},
					{
						"astId": 61,
						"contract": "Practice/Day-10/P1.sol:Student",
						"label": "regdNo",
						"offset": 0,
						"slot": "4",
						"type": "t_uint256"
					},
					{
						"astId": 63,
						"contract": "Practice/Day-10/P1.sol:Student",
						"label": "electiveSubject",
						"offset": 0,
						"slot": "5",
						"type": "t_string_storage"
					},
					{
						"astId": 65,
						"contract": "Practice/Day-10/P1.sol:Student",
						"label": "avgMarks",
						"offset": 0,
						"slot": "6",
						"type": "t_uint256"
					},
					{
						"astId": 67,
						"contract": "Practice/Day-10/P1.sol:Student",
						"label": "deptName",
						"offset": 0,
						"slot": "7",
						"type": "t_string_storage"
					},
					{
						"astId": 69,
						"contract": "Practice/Day-10/P1.sol:Student",
						"label": "deptHead",
						"offset": 0,
						"slot": "8",
						"type": "t_string_storage"
					}
				],
				"types": {
					"t_string_storage": {
						"encoding": "bytes",
						"label": "string",
						"numberOfBytes": "32"
					},
					"t_uint256": {
						"encoding": "inplace",
						"label": "uint256",
						"numberOfBytes": "32"
					}
				}
			},
			"userdoc": {
				"kind": "user",
				"methods": {},
				"version": 1
			}
		}
	}
}