{
	"Practice/Day-10/P3.sol": {
		"ShapeTester": {
			"abi": [
				{
					"inputs": [
						{
							"internalType": "uint256",
							"name": "cubeSide",
							"type": "uint256"
						},
						{
							"internalType": "uint256",
							"name": "cylRadius",
							"type": "uint256"
						},
						{
							"internalType": "uint256",
							"name": "cylHeight",
							"type": "uint256"
						},
						{
							"internalType": "uint256",
							"name": "coneRadius",
							"type": "uint256"
						},
						{
							"internalType": "uint256",
							"name": "coneHeight",
							"type": "uint256"
						}
					],
					"name": "testShapes",
					"outputs": [
						{
							"internalType": "uint256",
							"name": "cubeSA",
							"type": "uint256"
						},
						{
							"internalType": "uint256",
							"name": "cubeVol",
							"type": "uint256"
						},
						{
							"internalType": "uint256",
							"name": "cylSA",
							"type": "uint256"
						},
						{
							"internalType": "uint256",
							"name": "cylVol",
							"type": "uint256"
						},
						{
							"internalType": "uint256",
							"name": "coneSA",
							"type": "uint256"
						},
						{
							"internalType": "uint256",
							"name": "coneVol",
							"type": "uint256"
						}
					],
					"stateMutability": "nonpayable",
					"type": "function"
				}
			],
			"devdoc": {
				"kind": "dev",
				"methods": {},
				"version": 1
			},
			"evm": {
				"assembly": "    /* \"Practice/Day-10/P3.sol\":2207:2913  contract ShapeTester {... */\n  mstore(0x40, 0x80)\n  callvalue\n  dup1\n  iszero\n  tag_1\n  jumpi\n  0x00\n  dup1\n  revert\ntag_1:\n  pop\n  dataSize(sub_0)\n  dup1\n  dataOffset(sub_0)\n  0x00\n  codecopy\n  0x00\n  return\nstop\n\nsub_0: assembly {\n        /* \"Practice/Day-10/P3.sol\":2207:2913  contract ShapeTester {... */\n      mstore(0x40, 0x80)\n      callvalue\n      dup1\n      iszero\n      tag_1\n      jumpi\n      0x00\n      dup1\n      revert\n    tag_1:\n      pop\n      jumpi(tag_2, lt(calldatasize, 0x04))\n      shr(0xe0, calldataload(0x00))\n      dup1\n      0x23475a10\n      eq\n      tag_3\n      jumpi\n    tag_2:\n      0x00\n      dup1\n      revert\n        /* \"Practice/Day-10/P3.sol\":2235:2910  function testShapes(... */\n    tag_3:\n      tag_4\n      0x04\n      dup1\n      calldatasize\n      sub\n      dup2\n      add\n      swap1\n      tag_5\n      swap2\n      swap1\n      tag_6\n      jump\t// in\n    tag_5:\n      tag_7\n      jump\t// in\n    tag_4:\n      mload(0x40)\n      tag_8\n      swap7\n      swap6\n      swap5\n      swap4\n      swap3\n      swap2\n      swap1\n      tag_9\n      jump\t// in\n    tag_8:\n      mload(0x40)\n      dup1\n      swap2\n      sub\n      swap1\n      return\n    tag_7:\n        /* \"Practice/Day-10/P3.sol\":2414:2425  uint cubeSA */\n      0x00\n        /* \"Practice/Day-10/P3.sol\":2427:2439  uint cubeVol */\n      dup1\n        /* \"Practice/Day-10/P3.sol\":2450:2460  uint cylSA */\n      0x00\n        /* \"Practice/Day-10/P3.sol\":2462:2473  uint cylVol */\n      dup1\n        /* \"Practice/Day-10/P3.sol\":2484:2495  uint coneSA */\n      0x00\n        /* \"Practice/Day-10/P3.sol\":2497:2509  uint coneVol */\n      dup1\n        /* \"Practice/Day-10/P3.sol\":2528:2537  Cube cube */\n      0x00\n        /* \"Practice/Day-10/P3.sol\":2549:2557  cubeSide */\n      dup12\n        /* \"Practice/Day-10/P3.sol\":2540:2558  new Cube(cubeSide) */\n      mload(0x40)\n      tag_11\n      swap1\n      tag_12\n      jump\t// in\n    tag_11:\n      tag_13\n      swap2\n      swap1\n      tag_14\n      jump\t// in\n    tag_13:\n      mload(0x40)\n      dup1\n      swap2\n      sub\n      swap1\n      0x00\n      create\n      dup1\n      iszero\n      dup1\n      iszero\n      tag_15\n      jumpi\n      returndatasize\n      0x00\n      dup1\n      returndatacopy\n      revert(0x00, returndatasize)\n    tag_15:\n      pop\n        /* \"Practice/Day-10/P3.sol\":2528:2558  Cube cube = new Cube(cubeSide) */\n      swap1\n      pop\n        /* \"Practice/Day-10/P3.sol\":2569:2586  Cylinder cylinder */\n      0x00\n        /* \"Practice/Day-10/P3.sol\":2602:2611  cylRadius */\n      dup12\n        /* \"Practice/Day-10/P3.sol\":2613:2622  cylHeight */\n      dup12\n        /* \"Practice/Day-10/P3.sol\":2589:2623  new Cylinder(cylRadius, cylHeight) */\n      mload(0x40)\n      tag_16\n      swap1\n      tag_17\n      jump\t// in\n    tag_16:\n      tag_18\n      swap3\n      swap2\n      swap1\n      tag_19\n      jump\t// in\n    tag_18:\n      mload(0x40)\n      dup1\n      swap2\n      sub\n      swap1\n      0x00\n      create\n      dup1\n      iszero\n      dup1\n      iszero\n      tag_20\n      jumpi\n      returndatasize\n      0x00\n      dup1\n      returndatacopy\n      revert(0x00, returndatasize)\n    tag_20:\n      pop\n        /* \"Practice/Day-10/P3.sol\":2569:2623  Cylinder cylinder = new Cylinder(cylRadius, cylHeight) */\n      swap1\n      pop\n        /* \"Practice/Day-10/P3.sol\":2634:2643  Cone cone */\n      0x00\n        /* \"Practice/Day-10/P3.sol\":2655:2665  coneRadius */\n      dup11\n        /* \"Practice/Day-10/P3.sol\":2667:2677  coneHeight */\n      dup11\n        /* \"Practice/Day-10/P3.sol\":2646:2678  new Cone(coneRadius, coneHeight) */\n      mload(0x40)\n      tag_21\n      swap1\n      tag_22\n      jump\t// in\n    tag_21:\n      tag_23\n      swap3\n      swap2\n      swap1\n      tag_19\n      jump\t// in\n    tag_23:\n      mload(0x40)\n      dup1\n      swap2\n      sub\n      swap1\n      0x00\n      create\n      dup1\n      iszero\n      dup1\n      iszero\n      tag_24\n      jumpi\n      returndatasize\n      0x00\n      dup1\n      returndatacopy\n      revert(0x00, returndatasize)\n    tag_24:\n      pop\n        /* \"Practice/Day-10/P3.sol\":2634:2678  Cone cone = new Cone(coneRadius, coneHeight) */\n      swap1\n      pop\n        /* \"Practice/Day-10/P3.sol\":2700:2704  cube */\n      dup3\n        /* \"Practice/Day-10/P3.sol\":2700:2716  cube.surfaceArea */\n      0xffffffffffffffffffffffffffffffffffffffff\n      and\n      0x89e7995f\n        /* \"Practice/Day-10/P3.sol\":2700:2718  cube.surfaceArea() */\n      mload(0x40)\n      dup2\n      0xffffffff\n      and\n      0xe0\n      shl\n      dup2\n      mstore\n      0x04\n      add\n      0x20\n      mload(0x40)\n      dup1\n      dup4\n      sub\n      dup2\n      dup7\n      gas\n      staticcall\n      iszero\n      dup1\n      iszero\n      tag_26\n      jumpi\n      returndatasize\n      0x00\n      dup1\n      returndatacopy\n      revert(0x00, returndatasize)\n    tag_26:\n      pop\n      pop\n      pop\n      pop\n      mload(0x40)\n      returndatasize\n      not(0x1f)\n      0x1f\n      dup3\n      add\n      and\n      dup3\n      add\n      dup1\n      0x40\n      mstore\n      pop\n      dup2\n      add\n      swap1\n      tag_27\n      swap2\n      swap1\n      tag_28\n      jump\t// in\n    tag_27:\n        /* \"Practice/Day-10/P3.sol\":2691:2718  cubeSA = cube.surfaceArea() */\n      swap9\n      pop\n        /* \"Practice/Day-10/P3.sol\":2739:2743  cube */\n      dup3\n        /* \"Practice/Day-10/P3.sol\":2739:2750  cube.volume */\n      0xffffffffffffffffffffffffffffffffffffffff\n      and\n      0xc618a1e4\n        /* \"Practice/Day-10/P3.sol\":2739:2752  cube.volume() */\n      mload(0x40)\n      dup2\n      0xffffffff\n      and\n      0xe0\n      shl\n      dup2\n      mstore\n      0x04\n      add\n      0x20\n      mload(0x40)\n      dup1\n      dup4\n      sub\n      dup2\n      dup7\n      gas\n      staticcall\n      iszero\n      dup1\n      iszero\n      tag_30\n      jumpi\n      returndatasize\n      0x00\n      dup1\n      returndatacopy\n      revert(0x00, returndatasize)\n    tag_30:\n      pop\n      pop\n      pop\n      pop\n      mload(0x40)\n      returndatasize\n      not(0x1f)\n      0x1f\n      dup3\n      add\n      and\n      dup3\n      add\n      dup1\n      0x40\n      mstore\n      pop\n      dup2\n      add\n      swap1\n      tag_31\n      swap2\n      swap1\n      tag_28\n      jump\t// in\n    tag_31:\n        /* \"Practice/Day-10/P3.sol\":2729:2752  cubeVol = cube.volume() */\n      swap8\n      pop\n        /* \"Practice/Day-10/P3.sol\":2771:2779  cylinder */\n      dup2\n        /* \"Practice/Day-10/P3.sol\":2771:2791  cylinder.surfaceArea */\n      0xffffffffffffffffffffffffffffffffffffffff\n      and\n      0x89e7995f\n        /* \"Practice/Day-10/P3.sol\":2771:2793  cylinder.surfaceArea() */\n      mload(0x40)\n      dup2\n      0xffffffff\n      and\n      0xe0\n      shl\n      dup2\n      mstore\n      0x04\n      add\n      0x20\n      mload(0x40)\n      dup1\n      dup4\n      sub\n      dup2\n      dup7\n      gas\n      staticcall\n      iszero\n      dup1\n      iszero\n      tag_33\n      jumpi\n      returndatasize\n      0x00\n      dup1\n      returndatacopy\n      revert(0x00, returndatasize)\n    tag_33:\n      pop\n      pop\n      pop\n      pop\n      mload(0x40)\n      returndatasize\n      not(0x1f)\n      0x1f\n      dup3\n      add\n      and\n      dup3\n      add\n      dup1\n      0x40\n      mstore\n      pop\n      dup2\n      add\n      swap1\n      tag_34\n      swap2\n      swap1\n      tag_28\n      jump\t// in\n    tag_34:\n        /* \"Practice/Day-10/P3.sol\":2763:2793  cylSA = cylinder.surfaceArea() */\n      swap7\n      pop\n        /* \"Practice/Day-10/P3.sol\":2813:2821  cylinder */\n      dup2\n        /* \"Practice/Day-10/P3.sol\":2813:2828  cylinder.volume */\n      0xffffffffffffffffffffffffffffffffffffffff\n      and\n      0xc618a1e4\n        /* \"Practice/Day-10/P3.sol\":2813:2830  cylinder.volume() */\n      mload(0x40)\n      dup2\n      0xffffffff\n      and\n      0xe0\n      shl\n      dup2\n      mstore\n      0x04\n      add\n      0x20\n      mload(0x40)\n      dup1\n      dup4\n      sub\n      dup2\n      dup7\n      gas\n      staticcall\n      iszero\n      dup1\n      iszero\n      tag_36\n      jumpi\n      returndatasize\n      0x00\n      dup1\n      returndatacopy\n      revert(0x00, returndatasize)\n    tag_36:\n      pop\n      pop\n      pop\n      pop\n      mload(0x40)\n      returndatasize\n      not(0x1f)\n      0x1f\n      dup3\n      add\n      and\n      dup3\n      add\n      dup1\n      0x40\n      mstore\n      pop\n      dup2\n      add\n      swap1\n      tag_37\n      swap2\n      swap1\n      tag_28\n      jump\t// in\n    tag_37:\n        /* \"Practice/Day-10/P3.sol\":2804:2830  cylVol = cylinder.volume() */\n      swap6\n      pop\n        /* \"Practice/Day-10/P3.sol\":2850:2854  cone */\n      dup1\n        /* \"Practice/Day-10/P3.sol\":2850:2866  cone.surfaceArea */\n      0xffffffffffffffffffffffffffffffffffffffff\n      and\n      0x89e7995f\n        /* \"Practice/Day-10/P3.sol\":2850:2868  cone.surfaceArea() */\n      mload(0x40)\n      dup2\n      0xffffffff\n      and\n      0xe0\n      shl\n      dup2\n      mstore\n      0x04\n      add\n      0x20\n      mload(0x40)\n      dup1\n      dup4\n      sub\n      dup2\n      dup7\n      gas\n      staticcall\n      iszero\n      dup1\n      iszero\n      tag_39\n      jumpi\n      returndatasize\n      0x00\n      dup1\n      returndatacopy\n      revert(0x00, returndatasize)\n    tag_39:\n      pop\n      pop\n      pop\n      pop\n      mload(0x40)\n      returndatasize\n      not(0x1f)\n      0x1f\n      dup3\n      add\n      and\n      dup3\n      add\n      dup1\n      0x40\n      mstore\n      pop\n      dup2\n      add\n      swap1\n      tag_40\n      swap2\n      swap1\n      tag_28\n      jump\t// in\n    tag_40:\n        /* \"Practice/Day-10/P3.sol\":2841:2868  coneSA = cone.surfaceArea() */\n      swap5\n      pop\n        /* \"Practice/Day-10/P3.sol\":2889:2893  cone */\n      dup1\n        /* \"Practice/Day-10/P3.sol\":2889:2900  cone.volume */\n      0xffffffffffffffffffffffffffffffffffffffff\n      and\n      0xc618a1e4\n        /* \"Practice/Day-10/P3.sol\":2889:2902  cone.volume() */\n      mload(0x40)\n      dup2\n      0xffffffff\n      and\n      0xe0\n      shl\n      dup2\n      mstore\n      0x04\n      add\n      0x20\n      mload(0x40)\n      dup1\n      dup4\n      sub\n      dup2\n      dup7\n      gas\n      staticcall\n      iszero\n      dup1\n      iszero\n      tag_42\n      jumpi\n      returndatasize\n      0x00\n      dup1\n      returndatacopy\n      revert(0x00, returndatasize)\n    tag_42:\n      pop\n      pop\n      pop\n      pop\n      mload(0x40)\n      returndatasize\n      not(0x1f)\n      0x1f\n      dup3\n      add\n      and\n      dup3\n      add\n      dup1\n      0x40\n      mstore\n      pop\n      dup2\n      add\n      swap1\n      tag_43\n      swap2\n      swap1\n      tag_28\n      jump\t// in\n    tag_43:\n        /* \"Practice/Day-10/P3.sol\":2879:2902  coneVol = cone.volume() */\n      swap4\n      pop\n        /* \"Practice/Day-10/P3.sol\":2517:2910  {... */\n      pop\n      pop\n      pop\n        /* \"Practice/Day-10/P3.sol\":2235:2910  function testShapes(... */\n      swap6\n      pop\n      swap6\n      pop\n      swap6\n      pop\n      swap6\n      pop\n      swap6\n      pop\n      swap6\n      jump\t// out\n    tag_12:\n      dataSize(sub_0)\n      dup1\n      dataOffset(sub_0)\n      dup4\n      codecopy\n      add\n      swap1\n      jump\t// out\n    tag_17:\n      dataSize(sub_1)\n      dup1\n      dataOffset(sub_1)\n      dup4\n      codecopy\n      add\n      swap1\n      jump\t// out\n    tag_22:\n      dataSize(sub_2)\n      dup1\n      dataOffset(sub_2)\n      dup4\n      codecopy\n      add\n      swap1\n      jump\t// out\n        /* \"#utility.yul\":88:205   */\n    tag_45:\n        /* \"#utility.yul\":197:198   */\n      0x00\n        /* \"#utility.yul\":194:195   */\n      dup1\n        /* \"#utility.yul\":187:199   */\n      revert\n        /* \"#utility.yul\":334:411   */\n    tag_47:\n        /* \"#utility.yul\":371:378   */\n      0x00\n        /* \"#utility.yul\":400:405   */\n      dup2\n        /* \"#utility.yul\":389:405   */\n      swap1\n      pop\n        /* \"#utility.yul\":334:411   */\n      swap2\n      swap1\n      pop\n      jump\t// out\n        /* \"#utility.yul\":417:539   */\n    tag_48:\n        /* \"#utility.yul\":490:514   */\n      tag_58\n        /* \"#utility.yul\":508:513   */\n      dup2\n        /* \"#utility.yul\":490:514   */\n      tag_47\n      jump\t// in\n    tag_58:\n        /* \"#utility.yul\":483:488   */\n      dup2\n        /* \"#utility.yul\":480:515   */\n      eq\n        /* \"#utility.yul\":470:533   */\n      tag_59\n      jumpi\n        /* \"#utility.yul\":529:530   */\n      0x00\n        /* \"#utility.yul\":526:527   */\n      dup1\n        /* \"#utility.yul\":519:531   */\n      revert\n        /* \"#utility.yul\":470:533   */\n    tag_59:\n        /* \"#utility.yul\":417:539   */\n      pop\n      jump\t// out\n        /* \"#utility.yul\":545:684   */\n    tag_49:\n        /* \"#utility.yul\":591:596   */\n      0x00\n        /* \"#utility.yul\":629:635   */\n      dup2\n        /* \"#utility.yul\":616:636   */\n      calldataload\n        /* \"#utility.yul\":607:636   */\n      swap1\n      pop\n        /* \"#utility.yul\":645:678   */\n      tag_61\n        /* \"#utility.yul\":672:677   */\n      dup2\n        /* \"#utility.yul\":645:678   */\n      tag_48\n      jump\t// in\n    tag_61:\n        /* \"#utility.yul\":545:684   */\n      swap3\n      swap2\n      pop\n      pop\n      jump\t// out\n        /* \"#utility.yul\":690:1601   */\n    tag_6:\n        /* \"#utility.yul\":785:791   */\n      0x00\n        /* \"#utility.yul\":793:799   */\n      dup1\n        /* \"#utility.yul\":801:807   */\n      0x00\n        /* \"#utility.yul\":809:815   */\n      dup1\n        /* \"#utility.yul\":817:823   */\n      0x00\n        /* \"#utility.yul\":866:869   */\n      0xa0\n        /* \"#utility.yul\":854:863   */\n      dup7\n        /* \"#utility.yul\":845:852   */\n      dup9\n        /* \"#utility.yul\":841:864   */\n      sub\n        /* \"#utility.yul\":837:870   */\n      slt\n        /* \"#utility.yul\":834:954   */\n      iszero\n      tag_63\n      jumpi\n        /* \"#utility.yul\":873:952   */\n      tag_64\n      tag_45\n      jump\t// in\n    tag_64:\n        /* \"#utility.yul\":834:954   */\n    tag_63:\n        /* \"#utility.yul\":993:994   */\n      0x00\n        /* \"#utility.yul\":1018:1071   */\n      tag_65\n        /* \"#utility.yul\":1063:1070   */\n      dup9\n        /* \"#utility.yul\":1054:1060   */\n      dup3\n        /* \"#utility.yul\":1043:1052   */\n      dup10\n        /* \"#utility.yul\":1039:1061   */\n      add\n        /* \"#utility.yul\":1018:1071   */\n      tag_49\n      jump\t// in\n    tag_65:\n        /* \"#utility.yul\":1008:1071   */\n      swap6\n      pop\n        /* \"#utility.yul\":964:1081   */\n      pop\n        /* \"#utility.yul\":1120:1122   */\n      0x20\n        /* \"#utility.yul\":1146:1199   */\n      tag_66\n        /* \"#utility.yul\":1191:1198   */\n      dup9\n        /* \"#utility.yul\":1182:1188   */\n      dup3\n        /* \"#utility.yul\":1171:1180   */\n      dup10\n        /* \"#utility.yul\":1167:1189   */\n      add\n        /* \"#utility.yul\":1146:1199   */\n      tag_49\n      jump\t// in\n    tag_66:\n        /* \"#utility.yul\":1136:1199   */\n      swap5\n      pop\n        /* \"#utility.yul\":1091:1209   */\n      pop\n        /* \"#utility.yul\":1248:1250   */\n      0x40\n        /* \"#utility.yul\":1274:1327   */\n      tag_67\n        /* \"#utility.yul\":1319:1326   */\n      dup9\n        /* \"#utility.yul\":1310:1316   */\n      dup3\n        /* \"#utility.yul\":1299:1308   */\n      dup10\n        /* \"#utility.yul\":1295:1317   */\n      add\n        /* \"#utility.yul\":1274:1327   */\n      tag_49\n      jump\t// in\n    tag_67:\n        /* \"#utility.yul\":1264:1327   */\n      swap4\n      pop\n        /* \"#utility.yul\":1219:1337   */\n      pop\n        /* \"#utility.yul\":1376:1378   */\n      0x60\n        /* \"#utility.yul\":1402:1455   */\n      tag_68\n        /* \"#utility.yul\":1447:1454   */\n      dup9\n        /* \"#utility.yul\":1438:1444   */\n      dup3\n        /* \"#utility.yul\":1427:1436   */\n      dup10\n        /* \"#utility.yul\":1423:1445   */\n      add\n        /* \"#utility.yul\":1402:1455   */\n      tag_49\n      jump\t// in\n    tag_68:\n        /* \"#utility.yul\":1392:1455   */\n      swap3\n      pop\n        /* \"#utility.yul\":1347:1465   */\n      pop\n        /* \"#utility.yul\":1504:1507   */\n      0x80\n        /* \"#utility.yul\":1531:1584   */\n      tag_69\n        /* \"#utility.yul\":1576:1583   */\n      dup9\n        /* \"#utility.yul\":1567:1573   */\n      dup3\n        /* \"#utility.yul\":1556:1565   */\n      dup10\n        /* \"#utility.yul\":1552:1574   */\n      add\n        /* \"#utility.yul\":1531:1584   */\n      tag_49\n      jump\t// in\n    tag_69:\n        /* \"#utility.yul\":1521:1584   */\n      swap2\n      pop\n        /* \"#utility.yul\":1475:1594   */\n      pop\n        /* \"#utility.yul\":690:1601   */\n      swap3\n      swap6\n      pop\n      swap3\n      swap6\n      swap1\n      swap4\n      pop\n      jump\t// out\n        /* \"#utility.yul\":1607:1725   */\n    tag_50:\n        /* \"#utility.yul\":1694:1718   */\n      tag_71\n        /* \"#utility.yul\":1712:1717   */\n      dup2\n        /* \"#utility.yul\":1694:1718   */\n      tag_47\n      jump\t// in\n    tag_71:\n        /* \"#utility.yul\":1689:1692   */\n      dup3\n        /* \"#utility.yul\":1682:1719   */\n      mstore\n        /* \"#utility.yul\":1607:1725   */\n      pop\n      pop\n      jump\t// out\n        /* \"#utility.yul\":1731:2506   */\n    tag_9:\n        /* \"#utility.yul\":1964:1968   */\n      0x00\n        /* \"#utility.yul\":2002:2005   */\n      0xc0\n        /* \"#utility.yul\":1991:2000   */\n      dup3\n        /* \"#utility.yul\":1987:2006   */\n      add\n        /* \"#utility.yul\":1979:2006   */\n      swap1\n      pop\n        /* \"#utility.yul\":2016:2087   */\n      tag_73\n        /* \"#utility.yul\":2084:2085   */\n      0x00\n        /* \"#utility.yul\":2073:2082   */\n      dup4\n        /* \"#utility.yul\":2069:2086   */\n      add\n        /* \"#utility.yul\":2060:2066   */\n      dup10\n        /* \"#utility.yul\":2016:2087   */\n      tag_50\n      jump\t// in\n    tag_73:\n        /* \"#utility.yul\":2097:2169   */\n      tag_74\n        /* \"#utility.yul\":2165:2167   */\n      0x20\n        /* \"#utility.yul\":2154:2163   */\n      dup4\n        /* \"#utility.yul\":2150:2168   */\n      add\n        /* \"#utility.yul\":2141:2147   */\n      dup9\n        /* \"#utility.yul\":2097:2169   */\n      tag_50\n      jump\t// in\n    tag_74:\n        /* \"#utility.yul\":2179:2251   */\n      tag_75\n        /* \"#utility.yul\":2247:2249   */\n      0x40\n        /* \"#utility.yul\":2236:2245   */\n      dup4\n        /* \"#utility.yul\":2232:2250   */\n      add\n        /* \"#utility.yul\":2223:2229   */\n      dup8\n        /* \"#utility.yul\":2179:2251   */\n      tag_50\n      jump\t// in\n    tag_75:\n        /* \"#utility.yul\":2261:2333   */\n      tag_76\n        /* \"#utility.yul\":2329:2331   */\n      0x60\n        /* \"#utility.yul\":2318:2327   */\n      dup4\n        /* \"#utility.yul\":2314:2332   */\n      add\n        /* \"#utility.yul\":2305:2311   */\n      dup7\n        /* \"#utility.yul\":2261:2333   */\n      tag_50\n      jump\t// in\n    tag_76:\n        /* \"#utility.yul\":2343:2416   */\n      tag_77\n        /* \"#utility.yul\":2411:2414   */\n      0x80\n        /* \"#utility.yul\":2400:2409   */\n      dup4\n        /* \"#utility.yul\":2396:2415   */\n      add\n        /* \"#utility.yul\":2387:2393   */\n      dup6\n        /* \"#utility.yul\":2343:2416   */\n      tag_50\n      jump\t// in\n    tag_77:\n        /* \"#utility.yul\":2426:2499   */\n      tag_78\n        /* \"#utility.yul\":2494:2497   */\n      0xa0\n        /* \"#utility.yul\":2483:2492   */\n      dup4\n        /* \"#utility.yul\":2479:2498   */\n      add\n        /* \"#utility.yul\":2470:2476   */\n      dup5\n        /* \"#utility.yul\":2426:2499   */\n      tag_50\n      jump\t// in\n    tag_78:\n        /* \"#utility.yul\":1731:2506   */\n      swap8\n      swap7\n      pop\n      pop\n      pop\n      pop\n      pop\n      pop\n      pop\n      jump\t// out\n        /* \"#utility.yul\":2512:2734   */\n    tag_14:\n        /* \"#utility.yul\":2605:2609   */\n      0x00\n        /* \"#utility.yul\":2643:2645   */\n      0x20\n        /* \"#utility.yul\":2632:2641   */\n      dup3\n        /* \"#utility.yul\":2628:2646   */\n      add\n        /* \"#utility.yul\":2620:2646   */\n      swap1\n      pop\n        /* \"#utility.yul\":2656:2727   */\n      tag_80\n        /* \"#utility.yul\":2724:2725   */\n      0x00\n        /* \"#utility.yul\":2713:2722   */\n      dup4\n        /* \"#utility.yul\":2709:2726   */\n      add\n        /* \"#utility.yul\":2700:2706   */\n      dup5\n        /* \"#utility.yul\":2656:2727   */\n      tag_50\n      jump\t// in\n    tag_80:\n        /* \"#utility.yul\":2512:2734   */\n      swap3\n      swap2\n      pop\n      pop\n      jump\t// out\n        /* \"#utility.yul\":2740:3072   */\n    tag_19:\n        /* \"#utility.yul\":2861:2865   */\n      0x00\n        /* \"#utility.yul\":2899:2901   */\n      0x40\n        /* \"#utility.yul\":2888:2897   */\n      dup3\n        /* \"#utility.yul\":2884:2902   */\n      add\n        /* \"#utility.yul\":2876:2902   */\n      swap1\n      pop\n        /* \"#utility.yul\":2912:2983   */\n      tag_82\n        /* \"#utility.yul\":2980:2981   */\n      0x00\n        /* \"#utility.yul\":2969:2978   */\n      dup4\n        /* \"#utility.yul\":2965:2982   */\n      add\n        /* \"#utility.yul\":2956:2962   */\n      dup6\n        /* \"#utility.yul\":2912:2983   */\n      tag_50\n      jump\t// in\n    tag_82:\n        /* \"#utility.yul\":2993:3065   */\n      tag_83\n        /* \"#utility.yul\":3061:3063   */\n      0x20\n        /* \"#utility.yul\":3050:3059   */\n      dup4\n        /* \"#utility.yul\":3046:3064   */\n      add\n        /* \"#utility.yul\":3037:3043   */\n      dup5\n        /* \"#utility.yul\":2993:3065   */\n      tag_50\n      jump\t// in\n    tag_83:\n        /* \"#utility.yul\":2740:3072   */\n      swap4\n      swap3\n      pop\n      pop\n      pop\n      jump\t// out\n        /* \"#utility.yul\":3078:3221   */\n    tag_51:\n        /* \"#utility.yul\":3135:3140   */\n      0x00\n        /* \"#utility.yul\":3166:3172   */\n      dup2\n        /* \"#utility.yul\":3160:3173   */\n      mload\n        /* \"#utility.yul\":3151:3173   */\n      swap1\n      pop\n        /* \"#utility.yul\":3182:3215   */\n      tag_85\n        /* \"#utility.yul\":3209:3214   */\n      dup2\n        /* \"#utility.yul\":3182:3215   */\n      tag_48\n      jump\t// in\n    tag_85:\n        /* \"#utility.yul\":3078:3221   */\n      swap3\n      swap2\n      pop\n      pop\n      jump\t// out\n        /* \"#utility.yul\":3227:3578   */\n    tag_28:\n        /* \"#utility.yul\":3297:3303   */\n      0x00\n        /* \"#utility.yul\":3346:3348   */\n      0x20\n        /* \"#utility.yul\":3334:3343   */\n      dup3\n        /* \"#utility.yul\":3325:3332   */\n      dup5\n        /* \"#utility.yul\":3321:3344   */\n      sub\n        /* \"#utility.yul\":3317:3349   */\n      slt\n        /* \"#utility.yul\":3314:3433   */\n      iszero\n      tag_87\n      jumpi\n        /* \"#utility.yul\":3352:3431   */\n      tag_88\n      tag_45\n      jump\t// in\n    tag_88:\n        /* \"#utility.yul\":3314:3433   */\n    tag_87:\n        /* \"#utility.yul\":3472:3473   */\n      0x00\n        /* \"#utility.yul\":3497:3561   */\n      tag_89\n        /* \"#utility.yul\":3553:3560   */\n      dup5\n        /* \"#utility.yul\":3544:3550   */\n      dup3\n        /* \"#utility.yul\":3533:3542   */\n      dup6\n        /* \"#utility.yul\":3529:3551   */\n      add\n        /* \"#utility.yul\":3497:3561   */\n      tag_51\n      jump\t// in\n    tag_89:\n        /* \"#utility.yul\":3487:3561   */\n      swap2\n      pop\n        /* \"#utility.yul\":3443:3571   */\n      pop\n        /* \"#utility.yul\":3227:3578   */\n      swap3\n      swap2\n      pop\n      pop\n      jump\t// out\n    stop\n\n    sub_0: assembly {\n            /* \"Practice/Day-10/P3.sol\":739:1073  contract Cube is ThreeDObject {... */\n          mstore(0x40, 0x80)\n            /* \"Practice/Day-10/P3.sol\":801:856  constructor(uint _side) {... */\n          callvalue\n          dup1\n          iszero\n          tag_1\n          jumpi\n          0x00\n          dup1\n          revert\n        tag_1:\n          pop\n          mload(0x40)\n          sub(codesize, bytecodeSize)\n          dup1\n          bytecodeSize\n          dup4\n          codecopy\n          dup2\n          dup2\n          add\n          0x40\n          mstore\n          dup2\n          add\n          swap1\n          tag_2\n          swap2\n          swap1\n          tag_3\n          jump\t// in\n        tag_2:\n            /* \"Practice/Day-10/P3.sol\":843:848  _side */\n          dup1\n            /* \"Practice/Day-10/P3.sol\":836:840  side */\n          0x00\n            /* \"Practice/Day-10/P3.sol\":836:848  side = _side */\n          dup2\n          swap1\n          sstore\n          pop\n            /* \"Practice/Day-10/P3.sol\":801:856  constructor(uint _side) {... */\n          pop\n            /* \"Practice/Day-10/P3.sol\":739:1073  contract Cube is ThreeDObject {... */\n          jump(tag_6)\n            /* \"#utility.yul\":88:205   */\n        tag_8:\n            /* \"#utility.yul\":197:198   */\n          0x00\n            /* \"#utility.yul\":194:195   */\n          dup1\n            /* \"#utility.yul\":187:199   */\n          revert\n            /* \"#utility.yul\":334:411   */\n        tag_10:\n            /* \"#utility.yul\":371:378   */\n          0x00\n            /* \"#utility.yul\":400:405   */\n          dup2\n            /* \"#utility.yul\":389:405   */\n          swap1\n          pop\n            /* \"#utility.yul\":334:411   */\n          swap2\n          swap1\n          pop\n          jump\t// out\n            /* \"#utility.yul\":417:539   */\n        tag_11:\n            /* \"#utility.yul\":490:514   */\n          tag_19\n            /* \"#utility.yul\":508:513   */\n          dup2\n            /* \"#utility.yul\":490:514   */\n          tag_10\n          jump\t// in\n        tag_19:\n            /* \"#utility.yul\":483:488   */\n          dup2\n            /* \"#utility.yul\":480:515   */\n          eq\n            /* \"#utility.yul\":470:533   */\n          tag_20\n          jumpi\n            /* \"#utility.yul\":529:530   */\n          0x00\n            /* \"#utility.yul\":526:527   */\n          dup1\n            /* \"#utility.yul\":519:531   */\n          revert\n            /* \"#utility.yul\":470:533   */\n        tag_20:\n            /* \"#utility.yul\":417:539   */\n          pop\n          jump\t// out\n            /* \"#utility.yul\":545:688   */\n        tag_12:\n            /* \"#utility.yul\":602:607   */\n          0x00\n            /* \"#utility.yul\":633:639   */\n          dup2\n            /* \"#utility.yul\":627:640   */\n          mload\n            /* \"#utility.yul\":618:640   */\n          swap1\n          pop\n            /* \"#utility.yul\":649:682   */\n          tag_22\n            /* \"#utility.yul\":676:681   */\n          dup2\n            /* \"#utility.yul\":649:682   */\n          tag_11\n          jump\t// in\n        tag_22:\n            /* \"#utility.yul\":545:688   */\n          swap3\n          swap2\n          pop\n          pop\n          jump\t// out\n            /* \"#utility.yul\":694:1045   */\n        tag_3:\n            /* \"#utility.yul\":764:770   */\n          0x00\n            /* \"#utility.yul\":813:815   */\n          0x20\n            /* \"#utility.yul\":801:810   */\n          dup3\n            /* \"#utility.yul\":792:799   */\n          dup5\n            /* \"#utility.yul\":788:811   */\n          sub\n            /* \"#utility.yul\":784:816   */\n          slt\n            /* \"#utility.yul\":781:900   */\n          iszero\n          tag_24\n          jumpi\n            /* \"#utility.yul\":819:898   */\n          tag_25\n          tag_8\n          jump\t// in\n        tag_25:\n            /* \"#utility.yul\":781:900   */\n        tag_24:\n            /* \"#utility.yul\":939:940   */\n          0x00\n            /* \"#utility.yul\":964:1028   */\n          tag_26\n            /* \"#utility.yul\":1020:1027   */\n          dup5\n            /* \"#utility.yul\":1011:1017   */\n          dup3\n            /* \"#utility.yul\":1000:1009   */\n          dup6\n            /* \"#utility.yul\":996:1018   */\n          add\n            /* \"#utility.yul\":964:1028   */\n          tag_12\n          jump\t// in\n        tag_26:\n            /* \"#utility.yul\":954:1028   */\n          swap2\n          pop\n            /* \"#utility.yul\":910:1038   */\n          pop\n            /* \"#utility.yul\":694:1045   */\n          swap3\n          swap2\n          pop\n          pop\n          jump\t// out\n            /* \"Practice/Day-10/P3.sol\":739:1073  contract Cube is ThreeDObject {... */\n        tag_6:\n          dataSize(sub_0)\n          dup1\n          dataOffset(sub_0)\n          0x00\n          codecopy\n          0x00\n          return\n        stop\n\n        sub_0: assembly {\n                /* \"Practice/Day-10/P3.sol\":739:1073  contract Cube is ThreeDObject {... */\n              mstore(0x40, 0x80)\n              callvalue\n              dup1\n              iszero\n              tag_1\n              jumpi\n              0x00\n              dup1\n              revert\n            tag_1:\n              pop\n              jumpi(tag_2, lt(calldatasize, 0x04))\n              shr(0xe0, calldataload(0x00))\n              dup1\n              0x8475c028\n              eq\n              tag_3\n              jumpi\n              dup1\n              0x89e7995f\n              eq\n              tag_4\n              jumpi\n              dup1\n              0xc618a1e4\n              eq\n              tag_5\n              jumpi\n            tag_2:\n              0x00\n              dup1\n              revert\n                /* \"Practice/Day-10/P3.sol\":776:792  uint public side */\n            tag_3:\n              tag_6\n              tag_7\n              jump\t// in\n            tag_6:\n              mload(0x40)\n              tag_8\n              swap2\n              swap1\n              tag_9\n              jump\t// in\n            tag_8:\n              mload(0x40)\n              dup1\n              swap2\n              sub\n              swap1\n              return\n                /* \"Practice/Day-10/P3.sol\":864:964  function surfaceArea() public view override returns (uint) {... */\n            tag_4:\n              tag_10\n              tag_11\n              jump\t// in\n            tag_10:\n              mload(0x40)\n              tag_12\n              swap2\n              swap1\n              tag_9\n              jump\t// in\n            tag_12:\n              mload(0x40)\n              dup1\n              swap2\n              sub\n              swap1\n              return\n                /* \"Practice/Day-10/P3.sol\":972:1070  function volume() public view override returns (uint) {... */\n            tag_5:\n              tag_13\n              tag_14\n              jump\t// in\n            tag_13:\n              mload(0x40)\n              tag_15\n              swap2\n              swap1\n              tag_9\n              jump\t// in\n            tag_15:\n              mload(0x40)\n              dup1\n              swap2\n              sub\n              swap1\n              return\n                /* \"Practice/Day-10/P3.sol\":776:792  uint public side */\n            tag_7:\n              sload(0x00)\n              dup2\n              jump\t// out\n                /* \"Practice/Day-10/P3.sol\":864:964  function surfaceArea() public view override returns (uint) {... */\n            tag_11:\n                /* \"Practice/Day-10/P3.sol\":917:921  uint */\n              0x00\n                /* \"Practice/Day-10/P3.sol\":952:956  side */\n              dup1\n              sload\n                /* \"Practice/Day-10/P3.sol\":945:949  side */\n              sload(0x00)\n                /* \"Practice/Day-10/P3.sol\":941:942  6 */\n              0x06\n                /* \"Practice/Day-10/P3.sol\":941:949  6 * side */\n              tag_17\n              swap2\n              swap1\n              tag_18\n              jump\t// in\n            tag_17:\n                /* \"Practice/Day-10/P3.sol\":941:956  6 * side * side */\n              tag_19\n              swap2\n              swap1\n              tag_18\n              jump\t// in\n            tag_19:\n                /* \"Practice/Day-10/P3.sol\":934:956  return 6 * side * side */\n              swap1\n              pop\n                /* \"Practice/Day-10/P3.sol\":864:964  function surfaceArea() public view override returns (uint) {... */\n              swap1\n              jump\t// out\n                /* \"Practice/Day-10/P3.sol\":972:1070  function volume() public view override returns (uint) {... */\n            tag_14:\n                /* \"Practice/Day-10/P3.sol\":1020:1024  uint */\n              0x00\n                /* \"Practice/Day-10/P3.sol\":1058:1062  side */\n              dup1\n              sload\n                /* \"Practice/Day-10/P3.sol\":1051:1055  side */\n              sload(0x00)\n                /* \"Practice/Day-10/P3.sol\":1044:1048  side */\n              sload(0x00)\n                /* \"Practice/Day-10/P3.sol\":1044:1055  side * side */\n              tag_21\n              swap2\n              swap1\n              tag_18\n              jump\t// in\n            tag_21:\n                /* \"Practice/Day-10/P3.sol\":1044:1062  side * side * side */\n              tag_22\n              swap2\n              swap1\n              tag_18\n              jump\t// in\n            tag_22:\n                /* \"Practice/Day-10/P3.sol\":1037:1062  return side * side * side */\n              swap1\n              pop\n                /* \"Practice/Day-10/P3.sol\":972:1070  function volume() public view override returns (uint) {... */\n              swap1\n              jump\t// out\n                /* \"#utility.yul\":7:84   */\n            tag_23:\n                /* \"#utility.yul\":44:51   */\n              0x00\n                /* \"#utility.yul\":73:78   */\n              dup2\n                /* \"#utility.yul\":62:78   */\n              swap1\n              pop\n                /* \"#utility.yul\":7:84   */\n              swap2\n              swap1\n              pop\n              jump\t// out\n                /* \"#utility.yul\":90:208   */\n            tag_24:\n                /* \"#utility.yul\":177:201   */\n              tag_29\n                /* \"#utility.yul\":195:200   */\n              dup2\n                /* \"#utility.yul\":177:201   */\n              tag_23\n              jump\t// in\n            tag_29:\n                /* \"#utility.yul\":172:175   */\n              dup3\n                /* \"#utility.yul\":165:202   */\n              mstore\n                /* \"#utility.yul\":90:208   */\n              pop\n              pop\n              jump\t// out\n                /* \"#utility.yul\":214:436   */\n            tag_9:\n                /* \"#utility.yul\":307:311   */\n              0x00\n                /* \"#utility.yul\":345:347   */\n              0x20\n                /* \"#utility.yul\":334:343   */\n              dup3\n                /* \"#utility.yul\":330:348   */\n              add\n                /* \"#utility.yul\":322:348   */\n              swap1\n              pop\n                /* \"#utility.yul\":358:429   */\n              tag_31\n                /* \"#utility.yul\":426:427   */\n              0x00\n                /* \"#utility.yul\":415:424   */\n              dup4\n                /* \"#utility.yul\":411:428   */\n              add\n                /* \"#utility.yul\":402:408   */\n              dup5\n                /* \"#utility.yul\":358:429   */\n              tag_24\n              jump\t// in\n            tag_31:\n                /* \"#utility.yul\":214:436   */\n              swap3\n              swap2\n              pop\n              pop\n              jump\t// out\n                /* \"#utility.yul\":442:622   */\n            tag_25:\n                /* \"#utility.yul\":490:567   */\n              0x4e487b7100000000000000000000000000000000000000000000000000000000\n                /* \"#utility.yul\":487:488   */\n              0x00\n                /* \"#utility.yul\":480:568   */\n              mstore\n                /* \"#utility.yul\":587:591   */\n              0x11\n                /* \"#utility.yul\":584:585   */\n              0x04\n                /* \"#utility.yul\":577:592   */\n              mstore\n                /* \"#utility.yul\":611:615   */\n              0x24\n                /* \"#utility.yul\":608:609   */\n              0x00\n                /* \"#utility.yul\":601:616   */\n              revert\n                /* \"#utility.yul\":628:1038   */\n            tag_18:\n                /* \"#utility.yul\":668:675   */\n              0x00\n                /* \"#utility.yul\":691:711   */\n              tag_34\n                /* \"#utility.yul\":709:710   */\n              dup3\n                /* \"#utility.yul\":691:711   */\n              tag_23\n              jump\t// in\n            tag_34:\n                /* \"#utility.yul\":686:711   */\n              swap2\n              pop\n                /* \"#utility.yul\":725:745   */\n              tag_35\n                /* \"#utility.yul\":743:744   */\n              dup4\n                /* \"#utility.yul\":725:745   */\n              tag_23\n              jump\t// in\n            tag_35:\n                /* \"#utility.yul\":720:745   */\n              swap3\n              pop\n                /* \"#utility.yul\":780:781   */\n              dup3\n                /* \"#utility.yul\":777:778   */\n              dup3\n                /* \"#utility.yul\":773:782   */\n              mul\n                /* \"#utility.yul\":802:832   */\n              tag_36\n                /* \"#utility.yul\":820:831   */\n              dup2\n                /* \"#utility.yul\":802:832   */\n              tag_23\n              jump\t// in\n            tag_36:\n                /* \"#utility.yul\":791:832   */\n              swap2\n              pop\n                /* \"#utility.yul\":981:982   */\n              dup3\n                /* \"#utility.yul\":972:979   */\n              dup3\n                /* \"#utility.yul\":968:983   */\n              div\n                /* \"#utility.yul\":965:966   */\n              dup5\n                /* \"#utility.yul\":962:984   */\n              eq\n                /* \"#utility.yul\":942:943   */\n              dup4\n                /* \"#utility.yul\":935:944   */\n              iszero\n                /* \"#utility.yul\":915:998   */\n              or\n                /* \"#utility.yul\":892:1031   */\n              tag_37\n              jumpi\n                /* \"#utility.yul\":1011:1029   */\n              tag_38\n              tag_25\n              jump\t// in\n            tag_38:\n                /* \"#utility.yul\":892:1031   */\n            tag_37:\n                /* \"#utility.yul\":676:1038   */\n              pop\n                /* \"#utility.yul\":628:1038   */\n              swap3\n              swap2\n              pop\n              pop\n              jump\t// out\n\n            auxdata: 0xa264697066735822122088b37bc2778bb729e158d4ce17daed3e5ef838d05acbb5b8c58bf7270f0ee40064736f6c634300081a0033\n        }\n    }\n\n    sub_1: assembly {\n            /* \"Practice/Day-10/P3.sol\":1077:1604  contract Cylinder is ThreeDObject {... */\n          mstore(0x40, 0x80)\n            /* \"Practice/Day-10/P3.sol\":1230:1332  constructor(uint _radius, uint _height) {... */\n          callvalue\n          dup1\n          iszero\n          tag_1\n          jumpi\n          0x00\n          dup1\n          revert\n        tag_1:\n          pop\n          mload(0x40)\n          sub(codesize, bytecodeSize)\n          dup1\n          bytecodeSize\n          dup4\n          codecopy\n          dup2\n          dup2\n          add\n          0x40\n          mstore\n          dup2\n          add\n          swap1\n          tag_2\n          swap2\n          swap1\n          tag_3\n          jump\t// in\n        tag_2:\n            /* \"Practice/Day-10/P3.sol\":1290:1297  _radius */\n          dup2\n            /* \"Practice/Day-10/P3.sol\":1281:1287  radius */\n          0x00\n            /* \"Practice/Day-10/P3.sol\":1281:1297  radius = _radius */\n          dup2\n          swap1\n          sstore\n          pop\n            /* \"Practice/Day-10/P3.sol\":1317:1324  _height */\n          dup1\n            /* \"Practice/Day-10/P3.sol\":1308:1314  height */\n          0x01\n            /* \"Practice/Day-10/P3.sol\":1308:1324  height = _height */\n          dup2\n          swap1\n          sstore\n          pop\n            /* \"Practice/Day-10/P3.sol\":1230:1332  constructor(uint _radius, uint _height) {... */\n          pop\n          pop\n            /* \"Practice/Day-10/P3.sol\":1077:1604  contract Cylinder is ThreeDObject {... */\n          jump(tag_6)\n            /* \"#utility.yul\":88:205   */\n        tag_8:\n            /* \"#utility.yul\":197:198   */\n          0x00\n            /* \"#utility.yul\":194:195   */\n          dup1\n            /* \"#utility.yul\":187:199   */\n          revert\n            /* \"#utility.yul\":334:411   */\n        tag_10:\n            /* \"#utility.yul\":371:378   */\n          0x00\n            /* \"#utility.yul\":400:405   */\n          dup2\n            /* \"#utility.yul\":389:405   */\n          swap1\n          pop\n            /* \"#utility.yul\":334:411   */\n          swap2\n          swap1\n          pop\n          jump\t// out\n            /* \"#utility.yul\":417:539   */\n        tag_11:\n            /* \"#utility.yul\":490:514   */\n          tag_19\n            /* \"#utility.yul\":508:513   */\n          dup2\n            /* \"#utility.yul\":490:514   */\n          tag_10\n          jump\t// in\n        tag_19:\n            /* \"#utility.yul\":483:488   */\n          dup2\n            /* \"#utility.yul\":480:515   */\n          eq\n            /* \"#utility.yul\":470:533   */\n          tag_20\n          jumpi\n            /* \"#utility.yul\":529:530   */\n          0x00\n            /* \"#utility.yul\":526:527   */\n          dup1\n            /* \"#utility.yul\":519:531   */\n          revert\n            /* \"#utility.yul\":470:533   */\n        tag_20:\n            /* \"#utility.yul\":417:539   */\n          pop\n          jump\t// out\n            /* \"#utility.yul\":545:688   */\n        tag_12:\n            /* \"#utility.yul\":602:607   */\n          0x00\n            /* \"#utility.yul\":633:639   */\n          dup2\n            /* \"#utility.yul\":627:640   */\n          mload\n            /* \"#utility.yul\":618:640   */\n          swap1\n          pop\n            /* \"#utility.yul\":649:682   */\n          tag_22\n            /* \"#utility.yul\":676:681   */\n          dup2\n            /* \"#utility.yul\":649:682   */\n          tag_11\n          jump\t// in\n        tag_22:\n            /* \"#utility.yul\":545:688   */\n          swap3\n          swap2\n          pop\n          pop\n          jump\t// out\n            /* \"#utility.yul\":694:1201   */\n        tag_3:\n            /* \"#utility.yul\":773:779   */\n          0x00\n            /* \"#utility.yul\":781:787   */\n          dup1\n            /* \"#utility.yul\":830:832   */\n          0x40\n            /* \"#utility.yul\":818:827   */\n          dup4\n            /* \"#utility.yul\":809:816   */\n          dup6\n            /* \"#utility.yul\":805:828   */\n          sub\n            /* \"#utility.yul\":801:833   */\n          slt\n            /* \"#utility.yul\":798:917   */\n          iszero\n          tag_24\n          jumpi\n            /* \"#utility.yul\":836:915   */\n          tag_25\n          tag_8\n          jump\t// in\n        tag_25:\n            /* \"#utility.yul\":798:917   */\n        tag_24:\n            /* \"#utility.yul\":956:957   */\n          0x00\n            /* \"#utility.yul\":981:1045   */\n          tag_26\n            /* \"#utility.yul\":1037:1044   */\n          dup6\n            /* \"#utility.yul\":1028:1034   */\n          dup3\n            /* \"#utility.yul\":1017:1026   */\n          dup7\n            /* \"#utility.yul\":1013:1035   */\n          add\n            /* \"#utility.yul\":981:1045   */\n          tag_12\n          jump\t// in\n        tag_26:\n            /* \"#utility.yul\":971:1045   */\n          swap3\n          pop\n            /* \"#utility.yul\":927:1055   */\n          pop\n            /* \"#utility.yul\":1094:1096   */\n          0x20\n            /* \"#utility.yul\":1120:1184   */\n          tag_27\n            /* \"#utility.yul\":1176:1183   */\n          dup6\n            /* \"#utility.yul\":1167:1173   */\n          dup3\n            /* \"#utility.yul\":1156:1165   */\n          dup7\n            /* \"#utility.yul\":1152:1174   */\n          add\n            /* \"#utility.yul\":1120:1184   */\n          tag_12\n          jump\t// in\n        tag_27:\n            /* \"#utility.yul\":1110:1184   */\n          swap2\n          pop\n            /* \"#utility.yul\":1065:1194   */\n          pop\n            /* \"#utility.yul\":694:1201   */\n          swap3\n          pop\n          swap3\n          swap1\n          pop\n          jump\t// out\n            /* \"Practice/Day-10/P3.sol\":1077:1604  contract Cylinder is ThreeDObject {... */\n        tag_6:\n          dataSize(sub_0)\n          dup1\n          dataOffset(sub_0)\n          0x00\n          codecopy\n          0x00\n          return\n        stop\n\n        sub_0: assembly {\n                /* \"Practice/Day-10/P3.sol\":1077:1604  contract Cylinder is ThreeDObject {... */\n              mstore(0x40, 0x80)\n              callvalue\n              dup1\n              iszero\n              tag_1\n              jumpi\n              0x00\n              dup1\n              revert\n            tag_1:\n              pop\n              jumpi(tag_2, lt(calldatasize, 0x04))\n              shr(0xe0, calldataload(0x00))\n              dup1\n              0x0ef26743\n              eq\n              tag_3\n              jumpi\n              dup1\n              0x217f4353\n              eq\n              tag_4\n              jumpi\n              dup1\n              0x89e7995f\n              eq\n              tag_5\n              jumpi\n              dup1\n              0xc618a1e4\n              eq\n              tag_6\n              jumpi\n            tag_2:\n              0x00\n              dup1\n              revert\n                /* \"Practice/Day-10/P3.sol\":1143:1161  uint public height */\n            tag_3:\n              tag_7\n              tag_8\n              jump\t// in\n            tag_7:\n              mload(0x40)\n              tag_9\n              swap2\n              swap1\n              tag_10\n              jump\t// in\n            tag_9:\n              mload(0x40)\n              dup1\n              swap2\n              sub\n              swap1\n              return\n                /* \"Practice/Day-10/P3.sol\":1118:1136  uint public radius */\n            tag_4:\n              tag_11\n              tag_12\n              jump\t// in\n            tag_11:\n              mload(0x40)\n              tag_13\n              swap2\n              swap1\n              tag_10\n              jump\t// in\n            tag_13:\n              mload(0x40)\n              dup1\n              swap2\n              sub\n              swap1\n              return\n                /* \"Practice/Day-10/P3.sol\":1340:1472  function surfaceArea() public view override returns (uint) {... */\n            tag_5:\n              tag_14\n              tag_15\n              jump\t// in\n            tag_14:\n              mload(0x40)\n              tag_16\n              swap2\n              swap1\n              tag_10\n              jump\t// in\n            tag_16:\n              mload(0x40)\n              dup1\n              swap2\n              sub\n              swap1\n              return\n                /* \"Practice/Day-10/P3.sol\":1480:1601  function volume() public view override returns (uint) {... */\n            tag_6:\n              tag_17\n              tag_18\n              jump\t// in\n            tag_17:\n              mload(0x40)\n              tag_19\n              swap2\n              swap1\n              tag_10\n              jump\t// in\n            tag_19:\n              mload(0x40)\n              dup1\n              swap2\n              sub\n              swap1\n              return\n                /* \"Practice/Day-10/P3.sol\":1143:1161  uint public height */\n            tag_8:\n              sload(0x01)\n              dup2\n              jump\t// out\n                /* \"Practice/Day-10/P3.sol\":1118:1136  uint public radius */\n            tag_12:\n              sload(0x00)\n              dup2\n              jump\t// out\n                /* \"Practice/Day-10/P3.sol\":1340:1472  function surfaceArea() public view override returns (uint) {... */\n            tag_15:\n                /* \"Practice/Day-10/P3.sol\":1393:1397  uint */\n              0x00\n                /* \"Practice/Day-10/P3.sol\":1457:1464  1000000 */\n              0x0f4240\n                /* \"Practice/Day-10/P3.sol\":1446:1452  height */\n              sload(0x01)\n                /* \"Practice/Day-10/P3.sol\":1437:1443  radius */\n              sload(0x00)\n                /* \"Practice/Day-10/P3.sol\":1437:1452  radius + height */\n              tag_21\n              swap2\n              swap1\n              tag_22\n              jump\t// in\n            tag_21:\n                /* \"Practice/Day-10/P3.sol\":1427:1433  radius */\n              sload(0x00)\n                /* \"Practice/Day-10/P3.sol\":1187:1194  3141592 */\n              0x2fefd8\n                /* \"Practice/Day-10/P3.sol\":1418:1419  2 */\n              0x02\n                /* \"Practice/Day-10/P3.sol\":1418:1424  2 * PI */\n              tag_23\n              swap2\n              swap1\n              tag_24\n              jump\t// in\n            tag_23:\n                /* \"Practice/Day-10/P3.sol\":1418:1433  2 * PI * radius */\n              tag_25\n              swap2\n              swap1\n              tag_24\n              jump\t// in\n            tag_25:\n                /* \"Practice/Day-10/P3.sol\":1418:1453  2 * PI * radius * (radius + height) */\n              tag_26\n              swap2\n              swap1\n              tag_24\n              jump\t// in\n            tag_26:\n                /* \"Practice/Day-10/P3.sol\":1417:1464  (2 * PI * radius * (radius + height)) / 1000000 */\n              tag_27\n              swap2\n              swap1\n              tag_28\n              jump\t// in\n            tag_27:\n                /* \"Practice/Day-10/P3.sol\":1410:1464  return (2 * PI * radius * (radius + height)) / 1000000 */\n              swap1\n              pop\n                /* \"Practice/Day-10/P3.sol\":1340:1472  function surfaceArea() public view override returns (uint) {... */\n              swap1\n              jump\t// out\n                /* \"Practice/Day-10/P3.sol\":1480:1601  function volume() public view override returns (uint) {... */\n            tag_18:\n                /* \"Practice/Day-10/P3.sol\":1528:1532  uint */\n              0x00\n                /* \"Practice/Day-10/P3.sol\":1586:1593  1000000 */\n              0x0f4240\n                /* \"Practice/Day-10/P3.sol\":1576:1582  height */\n              sload(0x01)\n                /* \"Practice/Day-10/P3.sol\":1567:1573  radius */\n              sload(0x00)\n                /* \"Practice/Day-10/P3.sol\":1558:1564  radius */\n              sload(0x00)\n                /* \"Practice/Day-10/P3.sol\":1187:1194  3141592 */\n              0x2fefd8\n                /* \"Practice/Day-10/P3.sol\":1553:1564  PI * radius */\n              tag_30\n              swap2\n              swap1\n              tag_24\n              jump\t// in\n            tag_30:\n                /* \"Practice/Day-10/P3.sol\":1553:1573  PI * radius * radius */\n              tag_31\n              swap2\n              swap1\n              tag_24\n              jump\t// in\n            tag_31:\n                /* \"Practice/Day-10/P3.sol\":1553:1582  PI * radius * radius * height */\n              tag_32\n              swap2\n              swap1\n              tag_24\n              jump\t// in\n            tag_32:\n                /* \"Practice/Day-10/P3.sol\":1552:1593  (PI * radius * radius * height) / 1000000 */\n              tag_33\n              swap2\n              swap1\n              tag_28\n              jump\t// in\n            tag_33:\n                /* \"Practice/Day-10/P3.sol\":1545:1593  return (PI * radius * radius * height) / 1000000 */\n              swap1\n              pop\n                /* \"Practice/Day-10/P3.sol\":1480:1601  function volume() public view override returns (uint) {... */\n              swap1\n              jump\t// out\n                /* \"#utility.yul\":7:84   */\n            tag_34:\n                /* \"#utility.yul\":44:51   */\n              0x00\n                /* \"#utility.yul\":73:78   */\n              dup2\n                /* \"#utility.yul\":62:78   */\n              swap1\n              pop\n                /* \"#utility.yul\":7:84   */\n              swap2\n              swap1\n              pop\n              jump\t// out\n                /* \"#utility.yul\":90:208   */\n            tag_35:\n                /* \"#utility.yul\":177:201   */\n              tag_41\n                /* \"#utility.yul\":195:200   */\n              dup2\n                /* \"#utility.yul\":177:201   */\n              tag_34\n              jump\t// in\n            tag_41:\n                /* \"#utility.yul\":172:175   */\n              dup3\n                /* \"#utility.yul\":165:202   */\n              mstore\n                /* \"#utility.yul\":90:208   */\n              pop\n              pop\n              jump\t// out\n                /* \"#utility.yul\":214:436   */\n            tag_10:\n                /* \"#utility.yul\":307:311   */\n              0x00\n                /* \"#utility.yul\":345:347   */\n              0x20\n                /* \"#utility.yul\":334:343   */\n              dup3\n                /* \"#utility.yul\":330:348   */\n              add\n                /* \"#utility.yul\":322:348   */\n              swap1\n              pop\n                /* \"#utility.yul\":358:429   */\n              tag_43\n                /* \"#utility.yul\":426:427   */\n              0x00\n                /* \"#utility.yul\":415:424   */\n              dup4\n                /* \"#utility.yul\":411:428   */\n              add\n                /* \"#utility.yul\":402:408   */\n              dup5\n                /* \"#utility.yul\":358:429   */\n              tag_35\n              jump\t// in\n            tag_43:\n                /* \"#utility.yul\":214:436   */\n              swap3\n              swap2\n              pop\n              pop\n              jump\t// out\n                /* \"#utility.yul\":442:622   */\n            tag_36:\n                /* \"#utility.yul\":490:567   */\n              0x4e487b7100000000000000000000000000000000000000000000000000000000\n                /* \"#utility.yul\":487:488   */\n              0x00\n                /* \"#utility.yul\":480:568   */\n              mstore\n                /* \"#utility.yul\":587:591   */\n              0x11\n                /* \"#utility.yul\":584:585   */\n              0x04\n                /* \"#utility.yul\":577:592   */\n              mstore\n                /* \"#utility.yul\":611:615   */\n              0x24\n                /* \"#utility.yul\":608:609   */\n              0x00\n                /* \"#utility.yul\":601:616   */\n              revert\n                /* \"#utility.yul\":628:819   */\n            tag_22:\n                /* \"#utility.yul\":668:671   */\n              0x00\n                /* \"#utility.yul\":687:707   */\n              tag_46\n                /* \"#utility.yul\":705:706   */\n              dup3\n                /* \"#utility.yul\":687:707   */\n              tag_34\n              jump\t// in\n            tag_46:\n                /* \"#utility.yul\":682:707   */\n              swap2\n              pop\n                /* \"#utility.yul\":721:741   */\n              tag_47\n                /* \"#utility.yul\":739:740   */\n              dup4\n                /* \"#utility.yul\":721:741   */\n              tag_34\n              jump\t// in\n            tag_47:\n                /* \"#utility.yul\":716:741   */\n              swap3\n              pop\n                /* \"#utility.yul\":764:765   */\n              dup3\n                /* \"#utility.yul\":761:762   */\n              dup3\n                /* \"#utility.yul\":757:766   */\n              add\n                /* \"#utility.yul\":750:766   */\n              swap1\n              pop\n                /* \"#utility.yul\":785:788   */\n              dup1\n                /* \"#utility.yul\":782:783   */\n              dup3\n                /* \"#utility.yul\":779:789   */\n              gt\n                /* \"#utility.yul\":776:812   */\n              iszero\n              tag_48\n              jumpi\n                /* \"#utility.yul\":792:810   */\n              tag_49\n              tag_36\n              jump\t// in\n            tag_49:\n                /* \"#utility.yul\":776:812   */\n            tag_48:\n                /* \"#utility.yul\":628:819   */\n              swap3\n              swap2\n              pop\n              pop\n              jump\t// out\n                /* \"#utility.yul\":825:1235   */\n            tag_24:\n                /* \"#utility.yul\":865:872   */\n              0x00\n                /* \"#utility.yul\":888:908   */\n              tag_51\n                /* \"#utility.yul\":906:907   */\n              dup3\n                /* \"#utility.yul\":888:908   */\n              tag_34\n              jump\t// in\n            tag_51:\n                /* \"#utility.yul\":883:908   */\n              swap2\n              pop\n                /* \"#utility.yul\":922:942   */\n              tag_52\n                /* \"#utility.yul\":940:941   */\n              dup4\n                /* \"#utility.yul\":922:942   */\n              tag_34\n              jump\t// in\n            tag_52:\n                /* \"#utility.yul\":917:942   */\n              swap3\n              pop\n                /* \"#utility.yul\":977:978   */\n              dup3\n                /* \"#utility.yul\":974:975   */\n              dup3\n                /* \"#utility.yul\":970:979   */\n              mul\n                /* \"#utility.yul\":999:1029   */\n              tag_53\n                /* \"#utility.yul\":1017:1028   */\n              dup2\n                /* \"#utility.yul\":999:1029   */\n              tag_34\n              jump\t// in\n            tag_53:\n                /* \"#utility.yul\":988:1029   */\n              swap2\n              pop\n                /* \"#utility.yul\":1178:1179   */\n              dup3\n                /* \"#utility.yul\":1169:1176   */\n              dup3\n                /* \"#utility.yul\":1165:1180   */\n              div\n                /* \"#utility.yul\":1162:1163   */\n              dup5\n                /* \"#utility.yul\":1159:1181   */\n              eq\n                /* \"#utility.yul\":1139:1140   */\n              dup4\n                /* \"#utility.yul\":1132:1141   */\n              iszero\n                /* \"#utility.yul\":1112:1195   */\n              or\n                /* \"#utility.yul\":1089:1228   */\n              tag_54\n              jumpi\n                /* \"#utility.yul\":1208:1226   */\n              tag_55\n              tag_36\n              jump\t// in\n            tag_55:\n                /* \"#utility.yul\":1089:1228   */\n            tag_54:\n                /* \"#utility.yul\":873:1235   */\n              pop\n                /* \"#utility.yul\":825:1235   */\n              swap3\n              swap2\n              pop\n              pop\n              jump\t// out\n                /* \"#utility.yul\":1241:1421   */\n            tag_37:\n                /* \"#utility.yul\":1289:1366   */\n              0x4e487b7100000000000000000000000000000000000000000000000000000000\n                /* \"#utility.yul\":1286:1287   */\n              0x00\n                /* \"#utility.yul\":1279:1367   */\n              mstore\n                /* \"#utility.yul\":1386:1390   */\n              0x12\n                /* \"#utility.yul\":1383:1384   */\n              0x04\n                /* \"#utility.yul\":1376:1391   */\n              mstore\n                /* \"#utility.yul\":1410:1414   */\n              0x24\n                /* \"#utility.yul\":1407:1408   */\n              0x00\n                /* \"#utility.yul\":1400:1415   */\n              revert\n                /* \"#utility.yul\":1427:1612   */\n            tag_28:\n                /* \"#utility.yul\":1467:1468   */\n              0x00\n                /* \"#utility.yul\":1484:1504   */\n              tag_58\n                /* \"#utility.yul\":1502:1503   */\n              dup3\n                /* \"#utility.yul\":1484:1504   */\n              tag_34\n              jump\t// in\n            tag_58:\n                /* \"#utility.yul\":1479:1504   */\n              swap2\n              pop\n                /* \"#utility.yul\":1518:1538   */\n              tag_59\n                /* \"#utility.yul\":1536:1537   */\n              dup4\n                /* \"#utility.yul\":1518:1538   */\n              tag_34\n              jump\t// in\n            tag_59:\n                /* \"#utility.yul\":1513:1538   */\n              swap3\n              pop\n                /* \"#utility.yul\":1557:1558   */\n              dup3\n                /* \"#utility.yul\":1547:1582   */\n              tag_60\n              jumpi\n                /* \"#utility.yul\":1562:1580   */\n              tag_61\n              tag_37\n              jump\t// in\n            tag_61:\n                /* \"#utility.yul\":1547:1582   */\n            tag_60:\n                /* \"#utility.yul\":1604:1605   */\n              dup3\n                /* \"#utility.yul\":1601:1602   */\n              dup3\n                /* \"#utility.yul\":1597:1606   */\n              div\n                /* \"#utility.yul\":1592:1606   */\n              swap1\n              pop\n                /* \"#utility.yul\":1427:1612   */\n              swap3\n              swap2\n              pop\n              pop\n              jump\t// out\n\n            auxdata: 0xa26469706673582212205490f56daaeef06afe651c0454898a42674f10b2ae066c35d4a46d0540822be264736f6c634300081a0033\n        }\n    }\n\n    sub_2: assembly {\n            /* \"Practice/Day-10/P3.sol\":1608:2203  contract Cone is ThreeDObject {... */\n          mstore(0x40, 0x80)\n            /* \"Practice/Day-10/P3.sol\":1730:1832  constructor(uint _radius, uint _height) {... */\n          callvalue\n          dup1\n          iszero\n          tag_1\n          jumpi\n          0x00\n          dup1\n          revert\n        tag_1:\n          pop\n          mload(0x40)\n          sub(codesize, bytecodeSize)\n          dup1\n          bytecodeSize\n          dup4\n          codecopy\n          dup2\n          dup2\n          add\n          0x40\n          mstore\n          dup2\n          add\n          swap1\n          tag_2\n          swap2\n          swap1\n          tag_3\n          jump\t// in\n        tag_2:\n            /* \"Practice/Day-10/P3.sol\":1790:1797  _radius */\n          dup2\n            /* \"Practice/Day-10/P3.sol\":1781:1787  radius */\n          0x00\n            /* \"Practice/Day-10/P3.sol\":1781:1797  radius = _radius */\n          dup2\n          swap1\n          sstore\n          pop\n            /* \"Practice/Day-10/P3.sol\":1817:1824  _height */\n          dup1\n            /* \"Practice/Day-10/P3.sol\":1808:1814  height */\n          0x01\n            /* \"Practice/Day-10/P3.sol\":1808:1824  height = _height */\n          dup2\n          swap1\n          sstore\n          pop\n            /* \"Practice/Day-10/P3.sol\":1730:1832  constructor(uint _radius, uint _height) {... */\n          pop\n          pop\n            /* \"Practice/Day-10/P3.sol\":1608:2203  contract Cone is ThreeDObject {... */\n          jump(tag_6)\n            /* \"#utility.yul\":88:205   */\n        tag_8:\n            /* \"#utility.yul\":197:198   */\n          0x00\n            /* \"#utility.yul\":194:195   */\n          dup1\n            /* \"#utility.yul\":187:199   */\n          revert\n            /* \"#utility.yul\":334:411   */\n        tag_10:\n            /* \"#utility.yul\":371:378   */\n          0x00\n            /* \"#utility.yul\":400:405   */\n          dup2\n            /* \"#utility.yul\":389:405   */\n          swap1\n          pop\n            /* \"#utility.yul\":334:411   */\n          swap2\n          swap1\n          pop\n          jump\t// out\n            /* \"#utility.yul\":417:539   */\n        tag_11:\n            /* \"#utility.yul\":490:514   */\n          tag_19\n            /* \"#utility.yul\":508:513   */\n          dup2\n            /* \"#utility.yul\":490:514   */\n          tag_10\n          jump\t// in\n        tag_19:\n            /* \"#utility.yul\":483:488   */\n          dup2\n            /* \"#utility.yul\":480:515   */\n          eq\n            /* \"#utility.yul\":470:533   */\n          tag_20\n          jumpi\n            /* \"#utility.yul\":529:530   */\n          0x00\n            /* \"#utility.yul\":526:527   */\n          dup1\n            /* \"#utility.yul\":519:531   */\n          revert\n            /* \"#utility.yul\":470:533   */\n        tag_20:\n            /* \"#utility.yul\":417:539   */\n          pop\n          jump\t// out\n            /* \"#utility.yul\":545:688   */\n        tag_12:\n            /* \"#utility.yul\":602:607   */\n          0x00\n            /* \"#utility.yul\":633:639   */\n          dup2\n            /* \"#utility.yul\":627:640   */\n          mload\n            /* \"#utility.yul\":618:640   */\n          swap1\n          pop\n            /* \"#utility.yul\":649:682   */\n          tag_22\n            /* \"#utility.yul\":676:681   */\n          dup2\n            /* \"#utility.yul\":649:682   */\n          tag_11\n          jump\t// in\n        tag_22:\n            /* \"#utility.yul\":545:688   */\n          swap3\n          swap2\n          pop\n          pop\n          jump\t// out\n            /* \"#utility.yul\":694:1201   */\n        tag_3:\n            /* \"#utility.yul\":773:779   */\n          0x00\n            /* \"#utility.yul\":781:787   */\n          dup1\n            /* \"#utility.yul\":830:832   */\n          0x40\n            /* \"#utility.yul\":818:827   */\n          dup4\n            /* \"#utility.yul\":809:816   */\n          dup6\n            /* \"#utility.yul\":805:828   */\n          sub\n            /* \"#utility.yul\":801:833   */\n          slt\n            /* \"#utility.yul\":798:917   */\n          iszero\n          tag_24\n          jumpi\n            /* \"#utility.yul\":836:915   */\n          tag_25\n          tag_8\n          jump\t// in\n        tag_25:\n            /* \"#utility.yul\":798:917   */\n        tag_24:\n            /* \"#utility.yul\":956:957   */\n          0x00\n            /* \"#utility.yul\":981:1045   */\n          tag_26\n            /* \"#utility.yul\":1037:1044   */\n          dup6\n            /* \"#utility.yul\":1028:1034   */\n          dup3\n            /* \"#utility.yul\":1017:1026   */\n          dup7\n            /* \"#utility.yul\":1013:1035   */\n          add\n            /* \"#utility.yul\":981:1045   */\n          tag_12\n          jump\t// in\n        tag_26:\n            /* \"#utility.yul\":971:1045   */\n          swap3\n          pop\n            /* \"#utility.yul\":927:1055   */\n          pop\n            /* \"#utility.yul\":1094:1096   */\n          0x20\n            /* \"#utility.yul\":1120:1184   */\n          tag_27\n            /* \"#utility.yul\":1176:1183   */\n          dup6\n            /* \"#utility.yul\":1167:1173   */\n          dup3\n            /* \"#utility.yul\":1156:1165   */\n          dup7\n            /* \"#utility.yul\":1152:1174   */\n          add\n            /* \"#utility.yul\":1120:1184   */\n          tag_12\n          jump\t// in\n        tag_27:\n            /* \"#utility.yul\":1110:1184   */\n          swap2\n          pop\n            /* \"#utility.yul\":1065:1194   */\n          pop\n            /* \"#utility.yul\":694:1201   */\n          swap3\n          pop\n          swap3\n          swap1\n          pop\n          jump\t// out\n            /* \"Practice/Day-10/P3.sol\":1608:2203  contract Cone is ThreeDObject {... */\n        tag_6:\n          dataSize(sub_0)\n          dup1\n          dataOffset(sub_0)\n          0x00\n          codecopy\n          0x00\n          return\n        stop\n\n        sub_0: assembly {\n                /* \"Practice/Day-10/P3.sol\":1608:2203  contract Cone is ThreeDObject {... */\n              mstore(0x40, 0x80)\n              callvalue\n              dup1\n              iszero\n              tag_1\n              jumpi\n              0x00\n              dup1\n              revert\n            tag_1:\n              pop\n              jumpi(tag_2, lt(calldatasize, 0x04))\n              shr(0xe0, calldataload(0x00))\n              dup1\n              0x0ef26743\n              eq\n              tag_3\n              jumpi\n              dup1\n              0x217f4353\n              eq\n              tag_4\n              jumpi\n              dup1\n              0x89e7995f\n              eq\n              tag_5\n              jumpi\n              dup1\n              0xc618a1e4\n              eq\n              tag_6\n              jumpi\n            tag_2:\n              0x00\n              dup1\n              revert\n                /* \"Practice/Day-10/P3.sol\":1670:1688  uint public height */\n            tag_3:\n              tag_7\n              tag_8\n              jump\t// in\n            tag_7:\n              mload(0x40)\n              tag_9\n              swap2\n              swap1\n              tag_10\n              jump\t// in\n            tag_9:\n              mload(0x40)\n              dup1\n              swap2\n              sub\n              swap1\n              return\n                /* \"Practice/Day-10/P3.sol\":1645:1663  uint public radius */\n            tag_4:\n              tag_11\n              tag_12\n              jump\t// in\n            tag_11:\n              mload(0x40)\n              tag_13\n              swap2\n              swap1\n              tag_10\n              jump\t// in\n            tag_13:\n              mload(0x40)\n              dup1\n              swap2\n              sub\n              swap1\n              return\n                /* \"Practice/Day-10/P3.sol\":1840:2065  function surfaceArea() public view override returns (uint) {... */\n            tag_5:\n              tag_14\n              tag_15\n              jump\t// in\n            tag_14:\n              mload(0x40)\n              tag_16\n              swap2\n              swap1\n              tag_10\n              jump\t// in\n            tag_16:\n              mload(0x40)\n              dup1\n              swap2\n              sub\n              swap1\n              return\n                /* \"Practice/Day-10/P3.sol\":2073:2200  function volume() public view override returns (uint) {... */\n            tag_6:\n              tag_17\n              tag_18\n              jump\t// in\n            tag_17:\n              mload(0x40)\n              tag_19\n              swap2\n              swap1\n              tag_10\n              jump\t// in\n            tag_19:\n              mload(0x40)\n              dup1\n              swap2\n              sub\n              swap1\n              return\n                /* \"Practice/Day-10/P3.sol\":1670:1688  uint public height */\n            tag_8:\n              sload(0x01)\n              dup2\n              jump\t// out\n                /* \"Practice/Day-10/P3.sol\":1645:1663  uint public radius */\n            tag_12:\n              sload(0x00)\n              dup2\n              jump\t// out\n                /* \"Practice/Day-10/P3.sol\":1840:2065  function surfaceArea() public view override returns (uint) {... */\n            tag_15:\n                /* \"Practice/Day-10/P3.sol\":1893:1897  uint */\n              0x00\n                /* \"Practice/Day-10/P3.sol\":1910:1926  uint slantHeight */\n              dup1\n                /* \"Practice/Day-10/P3.sol\":1967:1974  1000000 */\n              0x0f4240\n                /* \"Practice/Day-10/P3.sol\":1957:1963  height */\n              sload(0x01)\n                /* \"Practice/Day-10/P3.sol\":1948:1954  height */\n              sload(0x01)\n                /* \"Practice/Day-10/P3.sol\":1948:1963  height * height */\n              tag_21\n              swap2\n              swap1\n              tag_22\n              jump\t// in\n            tag_21:\n                /* \"Practice/Day-10/P3.sol\":1939:1945  radius */\n              sload(0x00)\n                /* \"Practice/Day-10/P3.sol\":1930:1936  radius */\n              sload(0x00)\n                /* \"Practice/Day-10/P3.sol\":1930:1945  radius * radius */\n              tag_23\n              swap2\n              swap1\n              tag_22\n              jump\t// in\n            tag_23:\n                /* \"Practice/Day-10/P3.sol\":1930:1963  radius * radius + height * height */\n              tag_24\n              swap2\n              swap1\n              tag_25\n              jump\t// in\n            tag_24:\n                /* \"Practice/Day-10/P3.sol\":1929:1974  (radius * radius + height * height) / 1000000 */\n              tag_26\n              swap2\n              swap1\n              tag_27\n              jump\t// in\n            tag_26:\n                /* \"Practice/Day-10/P3.sol\":1910:1974  uint slantHeight = (radius * radius + height * height) / 1000000 */\n              swap1\n              pop\n                /* \"Practice/Day-10/P3.sol\":2050:2057  1000000 */\n              0x0f4240\n                /* \"Practice/Day-10/P3.sol\":2034:2045  slantHeight */\n              dup2\n                /* \"Practice/Day-10/P3.sol\":2025:2031  radius */\n              sload(0x00)\n                /* \"Practice/Day-10/P3.sol\":2025:2045  radius + slantHeight */\n              tag_28\n              swap2\n              swap1\n              tag_25\n              jump\t// in\n            tag_28:\n                /* \"Practice/Day-10/P3.sol\":2015:2021  radius */\n              sload(0x00)\n                /* \"Practice/Day-10/P3.sol\":1714:1721  3141592 */\n              0x2fefd8\n                /* \"Practice/Day-10/P3.sol\":2010:2021  PI * radius */\n              tag_29\n              swap2\n              swap1\n              tag_22\n              jump\t// in\n            tag_29:\n                /* \"Practice/Day-10/P3.sol\":2010:2046  PI * radius * (radius + slantHeight) */\n              tag_30\n              swap2\n              swap1\n              tag_22\n              jump\t// in\n            tag_30:\n                /* \"Practice/Day-10/P3.sol\":2009:2057  (PI * radius * (radius + slantHeight)) / 1000000 */\n              tag_31\n              swap2\n              swap1\n              tag_27\n              jump\t// in\n            tag_31:\n                /* \"Practice/Day-10/P3.sol\":2002:2057  return (PI * radius * (radius + slantHeight)) / 1000000 */\n              swap2\n              pop\n              pop\n                /* \"Practice/Day-10/P3.sol\":1840:2065  function surfaceArea() public view override returns (uint) {... */\n              swap1\n              jump\t// out\n                /* \"Practice/Day-10/P3.sol\":2073:2200  function volume() public view override returns (uint) {... */\n            tag_18:\n                /* \"Practice/Day-10/P3.sol\":2121:2125  uint */\n              0x00\n                /* \"Practice/Day-10/P3.sol\":2180:2191  3 * 1000000 */\n              0x2dc6c0\n                /* \"Practice/Day-10/P3.sol\":2169:2175  height */\n              sload(0x01)\n                /* \"Practice/Day-10/P3.sol\":2160:2166  radius */\n              sload(0x00)\n                /* \"Practice/Day-10/P3.sol\":2151:2157  radius */\n              sload(0x00)\n                /* \"Practice/Day-10/P3.sol\":1714:1721  3141592 */\n              0x2fefd8\n                /* \"Practice/Day-10/P3.sol\":2146:2157  PI * radius */\n              tag_33\n              swap2\n              swap1\n              tag_22\n              jump\t// in\n            tag_33:\n                /* \"Practice/Day-10/P3.sol\":2146:2166  PI * radius * radius */\n              tag_34\n              swap2\n              swap1\n              tag_22\n              jump\t// in\n            tag_34:\n                /* \"Practice/Day-10/P3.sol\":2146:2175  PI * radius * radius * height */\n              tag_35\n              swap2\n              swap1\n              tag_22\n              jump\t// in\n            tag_35:\n                /* \"Practice/Day-10/P3.sol\":2145:2192  (PI * radius * radius * height) / (3 * 1000000) */\n              tag_36\n              swap2\n              swap1\n              tag_27\n              jump\t// in\n            tag_36:\n                /* \"Practice/Day-10/P3.sol\":2138:2192  return (PI * radius * radius * height) / (3 * 1000000) */\n              swap1\n              pop\n                /* \"Practice/Day-10/P3.sol\":2073:2200  function volume() public view override returns (uint) {... */\n              swap1\n              jump\t// out\n                /* \"#utility.yul\":7:84   */\n            tag_37:\n                /* \"#utility.yul\":44:51   */\n              0x00\n                /* \"#utility.yul\":73:78   */\n              dup2\n                /* \"#utility.yul\":62:78   */\n              swap1\n              pop\n                /* \"#utility.yul\":7:84   */\n              swap2\n              swap1\n              pop\n              jump\t// out\n                /* \"#utility.yul\":90:208   */\n            tag_38:\n                /* \"#utility.yul\":177:201   */\n              tag_44\n                /* \"#utility.yul\":195:200   */\n              dup2\n                /* \"#utility.yul\":177:201   */\n              tag_37\n              jump\t// in\n            tag_44:\n                /* \"#utility.yul\":172:175   */\n              dup3\n                /* \"#utility.yul\":165:202   */\n              mstore\n                /* \"#utility.yul\":90:208   */\n              pop\n              pop\n              jump\t// out\n                /* \"#utility.yul\":214:436   */\n            tag_10:\n                /* \"#utility.yul\":307:311   */\n              0x00\n                /* \"#utility.yul\":345:347   */\n              0x20\n                /* \"#utility.yul\":334:343   */\n              dup3\n                /* \"#utility.yul\":330:348   */\n              add\n                /* \"#utility.yul\":322:348   */\n              swap1\n              pop\n                /* \"#utility.yul\":358:429   */\n              tag_46\n                /* \"#utility.yul\":426:427   */\n              0x00\n                /* \"#utility.yul\":415:424   */\n              dup4\n                /* \"#utility.yul\":411:428   */\n              add\n                /* \"#utility.yul\":402:408   */\n              dup5\n                /* \"#utility.yul\":358:429   */\n              tag_38\n              jump\t// in\n            tag_46:\n                /* \"#utility.yul\":214:436   */\n              swap3\n              swap2\n              pop\n              pop\n              jump\t// out\n                /* \"#utility.yul\":442:622   */\n            tag_39:\n                /* \"#utility.yul\":490:567   */\n              0x4e487b7100000000000000000000000000000000000000000000000000000000\n                /* \"#utility.yul\":487:488   */\n              0x00\n                /* \"#utility.yul\":480:568   */\n              mstore\n                /* \"#utility.yul\":587:591   */\n              0x11\n                /* \"#utility.yul\":584:585   */\n              0x04\n                /* \"#utility.yul\":577:592   */\n              mstore\n                /* \"#utility.yul\":611:615   */\n              0x24\n                /* \"#utility.yul\":608:609   */\n              0x00\n                /* \"#utility.yul\":601:616   */\n              revert\n                /* \"#utility.yul\":628:1038   */\n            tag_22:\n                /* \"#utility.yul\":668:675   */\n              0x00\n                /* \"#utility.yul\":691:711   */\n              tag_49\n                /* \"#utility.yul\":709:710   */\n              dup3\n                /* \"#utility.yul\":691:711   */\n              tag_37\n              jump\t// in\n            tag_49:\n                /* \"#utility.yul\":686:711   */\n              swap2\n              pop\n                /* \"#utility.yul\":725:745   */\n              tag_50\n                /* \"#utility.yul\":743:744   */\n              dup4\n                /* \"#utility.yul\":725:745   */\n              tag_37\n              jump\t// in\n            tag_50:\n                /* \"#utility.yul\":720:745   */\n              swap3\n              pop\n                /* \"#utility.yul\":780:781   */\n              dup3\n                /* \"#utility.yul\":777:778   */\n              dup3\n                /* \"#utility.yul\":773:782   */\n              mul\n                /* \"#utility.yul\":802:832   */\n              tag_51\n                /* \"#utility.yul\":820:831   */\n              dup2\n                /* \"#utility.yul\":802:832   */\n              tag_37\n              jump\t// in\n            tag_51:\n                /* \"#utility.yul\":791:832   */\n              swap2\n              pop\n                /* \"#utility.yul\":981:982   */\n              dup3\n                /* \"#utility.yul\":972:979   */\n              dup3\n                /* \"#utility.yul\":968:983   */\n              div\n                /* \"#utility.yul\":965:966   */\n              dup5\n                /* \"#utility.yul\":962:984   */\n              eq\n                /* \"#utility.yul\":942:943   */\n              dup4\n                /* \"#utility.yul\":935:944   */\n              iszero\n                /* \"#utility.yul\":915:998   */\n              or\n                /* \"#utility.yul\":892:1031   */\n              tag_52\n              jumpi\n                /* \"#utility.yul\":1011:1029   */\n              tag_53\n              tag_39\n              jump\t// in\n            tag_53:\n                /* \"#utility.yul\":892:1031   */\n            tag_52:\n                /* \"#utility.yul\":676:1038   */\n              pop\n                /* \"#utility.yul\":628:1038   */\n              swap3\n              swap2\n              pop\n              pop\n              jump\t// out\n                /* \"#utility.yul\":1044:1235   */\n            tag_25:\n                /* \"#utility.yul\":1084:1087   */\n              0x00\n                /* \"#utility.yul\":1103:1123   */\n              tag_55\n                /* \"#utility.yul\":1121:1122   */\n              dup3\n                /* \"#utility.yul\":1103:1123   */\n              tag_37\n              jump\t// in\n            tag_55:\n                /* \"#utility.yul\":1098:1123   */\n              swap2\n              pop\n                /* \"#utility.yul\":1137:1157   */\n              tag_56\n                /* \"#utility.yul\":1155:1156   */\n              dup4\n                /* \"#utility.yul\":1137:1157   */\n              tag_37\n              jump\t// in\n            tag_56:\n                /* \"#utility.yul\":1132:1157   */\n              swap3\n              pop\n                /* \"#utility.yul\":1180:1181   */\n              dup3\n                /* \"#utility.yul\":1177:1178   */\n              dup3\n                /* \"#utility.yul\":1173:1182   */\n              add\n                /* \"#utility.yul\":1166:1182   */\n              swap1\n              pop\n                /* \"#utility.yul\":1201:1204   */\n              dup1\n                /* \"#utility.yul\":1198:1199   */\n              dup3\n                /* \"#utility.yul\":1195:1205   */\n              gt\n                /* \"#utility.yul\":1192:1228   */\n              iszero\n              tag_57\n              jumpi\n                /* \"#utility.yul\":1208:1226   */\n              tag_58\n              tag_39\n              jump\t// in\n            tag_58:\n                /* \"#utility.yul\":1192:1228   */\n            tag_57:\n                /* \"#utility.yul\":1044:1235   */\n              swap3\n              swap2\n              pop\n              pop\n              jump\t// out\n                /* \"#utility.yul\":1241:1421   */\n            tag_40:\n                /* \"#utility.yul\":1289:1366   */\n              0x4e487b7100000000000000000000000000000000000000000000000000000000\n                /* \"#utility.yul\":1286:1287   */\n              0x00\n                /* \"#utility.yul\":1279:1367   */\n              mstore\n                /* \"#utility.yul\":1386:1390   */\n              0x12\n                /* \"#utility.yul\":1383:1384   */\n              0x04\n                /* \"#utility.yul\":1376:1391   */\n              mstore\n                /* \"#utility.yul\":1410:1414   */\n              0x24\n                /* \"#utility.yul\":1407:1408   */\n              0x00\n                /* \"#utility.yul\":1400:1415   */\n              revert\n                /* \"#utility.yul\":1427:1612   */\n            tag_27:\n                /* \"#utility.yul\":1467:1468   */\n              0x00\n                /* \"#utility.yul\":1484:1504   */\n              tag_61\n                /* \"#utility.yul\":1502:1503   */\n              dup3\n                /* \"#utility.yul\":1484:1504   */\n              tag_37\n              jump\t// in\n            tag_61:\n                /* \"#utility.yul\":1479:1504   */\n              swap2\n              pop\n                /* \"#utility.yul\":1518:1538   */\n              tag_62\n                /* \"#utility.yul\":1536:1537   */\n              dup4\n                /* \"#utility.yul\":1518:1538   */\n              tag_37\n              jump\t// in\n            tag_62:\n                /* \"#utility.yul\":1513:1538   */\n              swap3\n              pop\n                /* \"#utility.yul\":1557:1558   */\n              dup3\n                /* \"#utility.yul\":1547:1582   */\n              tag_63\n              jumpi\n                /* \"#utility.yul\":1562:1580   */\n              tag_64\n              tag_40\n              jump\t// in\n            tag_64:\n                /* \"#utility.yul\":1547:1582   */\n            tag_63:\n                /* \"#utility.yul\":1604:1605   */\n              dup3\n                /* \"#utility.yul\":1601:1602   */\n              dup3\n                /* \"#utility.yul\":1597:1606   */\n              div\n                /* \"#utility.yul\":1592:1606   */\n              swap1\n              pop\n                /* \"#utility.yul\":1427:1612   */\n              swap3\n              swap2\n              pop\n              pop\n              jump\t// out\n\n            auxdata: 0xa26469706673582212205533bbe5ea0db7ae21570f046bcb0192e22a3ebcf203823388f6d88a4fc44ba464736f6c634300081a0033\n        }\n    }\n\n    auxdata: 0xa2646970667358221220f38ca0e250bead87a7f55f2359a9cf55e4963f3f069d97a7fc4a16f175a9137064736f6c634300081a0033\n}\n",
				"bytecode": {
					"linkReferences": {},
					"object": "6080604052348015600e575f80fd5b50610f118061001c5f395ff3fe608060405234801561000f575f80fd5b5060043610610029575f3560e01c806323475a101461002d575b5f80fd5b61004760048036038101906100429190610410565b610062565b60405161005996959493929190610496565b60405180910390f35b5f805f805f805f8b604051610076906103b2565b61008091906104f5565b604051809103905ff080158015610099573d5f803e3d5ffd5b5090505f8b8b6040516100ab906103bf565b6100b692919061050e565b604051809103905ff0801580156100cf573d5f803e3d5ffd5b5090505f8a8a6040516100e1906103cc565b6100ec92919061050e565b604051809103905ff080158015610105573d5f803e3d5ffd5b5090508273ffffffffffffffffffffffffffffffffffffffff166389e7995f6040518163ffffffff1660e01b8152600401602060405180830381865afa158015610151573d5f803e3d5ffd5b505050506040513d601f19601f820116820180604052508101906101759190610549565b98508273ffffffffffffffffffffffffffffffffffffffff1663c618a1e46040518163ffffffff1660e01b8152600401602060405180830381865afa1580156101c0573d5f803e3d5ffd5b505050506040513d601f19601f820116820180604052508101906101e49190610549565b97508173ffffffffffffffffffffffffffffffffffffffff166389e7995f6040518163ffffffff1660e01b8152600401602060405180830381865afa15801561022f573d5f803e3d5ffd5b505050506040513d601f19601f820116820180604052508101906102539190610549565b96508173ffffffffffffffffffffffffffffffffffffffff1663c618a1e46040518163ffffffff1660e01b8152600401602060405180830381865afa15801561029e573d5f803e3d5ffd5b505050506040513d601f19601f820116820180604052508101906102c29190610549565b95508073ffffffffffffffffffffffffffffffffffffffff166389e7995f6040518163ffffffff1660e01b8152600401602060405180830381865afa15801561030d573d5f803e3d5ffd5b505050506040513d601f19601f820116820180604052508101906103319190610549565b94508073ffffffffffffffffffffffffffffffffffffffff1663c618a1e46040518163ffffffff1660e01b8152600401602060405180830381865afa15801561037c573d5f803e3d5ffd5b505050506040513d601f19601f820116820180604052508101906103a09190610549565b93505050509550955095509550955095565b6102558061057583390190565b610373806107ca83390190565b61039f80610b3d83390190565b5f80fd5b5f819050919050565b6103ef816103dd565b81146103f9575f80fd5b50565b5f8135905061040a816103e6565b92915050565b5f805f805f60a08688031215610429576104286103d9565b5b5f610436888289016103fc565b9550506020610447888289016103fc565b9450506040610458888289016103fc565b9350506060610469888289016103fc565b925050608061047a888289016103fc565b9150509295509295909350565b610490816103dd565b82525050565b5f60c0820190506104a95f830189610487565b6104b66020830188610487565b6104c36040830187610487565b6104d06060830186610487565b6104dd6080830185610487565b6104ea60a0830184610487565b979650505050505050565b5f6020820190506105085f830184610487565b92915050565b5f6040820190506105215f830185610487565b61052e6020830184610487565b9392505050565b5f81519050610543816103e6565b92915050565b5f6020828403121561055e5761055d6103d9565b5b5f61056b84828501610535565b9150509291505056fe6080604052348015600e575f80fd5b506040516102553803806102558339818101604052810190602e9190606b565b805f81905550506091565b5f80fd5b5f819050919050565b604d81603d565b81146056575f80fd5b50565b5f815190506065816046565b92915050565b5f60208284031215607d57607c6039565b5b5f6088848285016059565b91505092915050565b6101b78061009e5f395ff3fe608060405234801561000f575f80fd5b506004361061003f575f3560e01c80638475c0281461004357806389e7995f14610061578063c618a1e41461007f575b5f80fd5b61004b61009d565b60405161005891906100fa565b60405180910390f35b6100696100a2565b60405161007691906100fa565b60405180910390f35b6100876100c2565b60405161009491906100fa565b60405180910390f35b5f5481565b5f80545f5460066100b39190610140565b6100bd9190610140565b905090565b5f80545f545f546100d39190610140565b6100dd9190610140565b905090565b5f819050919050565b6100f4816100e2565b82525050565b5f60208201905061010d5f8301846100eb565b92915050565b7f4e487b71000000000000000000000000000000000000000000000000000000005f52601160045260245ffd5b5f61014a826100e2565b9150610155836100e2565b9250828202610163816100e2565b9150828204841483151761017a57610179610113565b5b509291505056fea264697066735822122088b37bc2778bb729e158d4ce17daed3e5ef838d05acbb5b8c58bf7270f0ee40064736f6c634300081a00336080604052348015600e575f80fd5b506040516103733803806103738339818101604052810190602e91906073565b815f8190555080600181905550505060aa565b5f80fd5b5f819050919050565b6055816045565b8114605e575f80fd5b50565b5f81519050606d81604e565b92915050565b5f806040838503121560865760856041565b5b5f6091858286016061565b925050602060a0858286016061565b9150509250929050565b6102bc806100b75f395ff3fe608060405234801561000f575f80fd5b506004361061004a575f3560e01c80630ef267431461004e578063217f43531461006c57806389e7995f1461008a578063c618a1e4146100a8575b5f80fd5b6100566100c6565b604051610063919061016f565b60405180910390f35b6100746100cc565b604051610081919061016f565b60405180910390f35b6100926100d1565b60405161009f919061016f565b60405180910390f35b6100b061011a565b6040516100bd919061016f565b60405180910390f35b60015481565b5f5481565b5f620f42406001545f546100e591906101b5565b5f54622fefd860026100f791906101e8565b61010191906101e8565b61010b91906101e8565b6101159190610256565b905090565b5f620f42406001545f545f54622fefd861013491906101e8565b61013e91906101e8565b61014891906101e8565b6101529190610256565b905090565b5f819050919050565b61016981610157565b82525050565b5f6020820190506101825f830184610160565b92915050565b7f4e487b71000000000000000000000000000000000000000000000000000000005f52601160045260245ffd5b5f6101bf82610157565b91506101ca83610157565b92508282019050808211156101e2576101e1610188565b5b92915050565b5f6101f282610157565b91506101fd83610157565b925082820261020b81610157565b9150828204841483151761022257610221610188565b5b5092915050565b7f4e487b71000000000000000000000000000000000000000000000000000000005f52601260045260245ffd5b5f61026082610157565b915061026b83610157565b92508261027b5761027a610229565b5b82820490509291505056fea26469706673582212205490f56daaeef06afe651c0454898a42674f10b2ae066c35d4a46d0540822be264736f6c634300081a00336080604052348015600e575f80fd5b5060405161039f38038061039f8339818101604052810190602e91906073565b815f8190555080600181905550505060aa565b5f80fd5b5f819050919050565b6055816045565b8114605e575f80fd5b50565b5f81519050606d81604e565b92915050565b5f806040838503121560865760856041565b5b5f6091858286016061565b925050602060a0858286016061565b9150509250929050565b6102e8806100b75f395ff3fe608060405234801561000f575f80fd5b506004361061004a575f3560e01c80630ef267431461004e578063217f43531461006c57806389e7995f1461008a578063c618a1e4146100a8575b5f80fd5b6100566100c6565b604051610063919061019b565b60405180910390f35b6100746100cc565b604051610081919061019b565b60405180910390f35b6100926100d1565b60405161009f919061019b565b60405180910390f35b6100b0610146565b6040516100bd919061019b565b60405180910390f35b60015481565b5f5481565b5f80620f42406001546001546100e791906101e1565b5f545f546100f591906101e1565b6100ff9190610222565b6101099190610282565b9050620f4240815f5461011c9190610222565b5f54622fefd861012c91906101e1565b61013691906101e1565b6101409190610282565b91505090565b5f622dc6c06001545f545f54622fefd861016091906101e1565b61016a91906101e1565b61017491906101e1565b61017e9190610282565b905090565b5f819050919050565b61019581610183565b82525050565b5f6020820190506101ae5f83018461018c565b92915050565b7f4e487b71000000000000000000000000000000000000000000000000000000005f52601160045260245ffd5b5f6101eb82610183565b91506101f683610183565b925082820261020481610183565b9150828204841483151761021b5761021a6101b4565b5b5092915050565b5f61022c82610183565b915061023783610183565b925082820190508082111561024f5761024e6101b4565b5b92915050565b7f4e487b71000000000000000000000000000000000000000000000000000000005f52601260045260245ffd5b5f61028c82610183565b915061029783610183565b9250826102a7576102a6610255565b5b82820490509291505056fea26469706673582212205533bbe5ea0db7ae21570f046bcb0192e22a3ebcf203823388f6d88a4fc44ba464736f6c634300081a0033a2646970667358221220f38ca0e250bead87a7f55f2359a9cf55e4963f3f069d97a7fc4a16f175a9137064736f6c634300081a0033",
					"opcodes": "PUSH1 0x80 PUSH1 0x40 MSTORE CALLVALUE DUP1 ISZERO PUSH1 0xE JUMPI PUSH0 DUP1 REVERT JUMPDEST POP PUSH2 0xF11 DUP1 PUSH2 0x1C PUSH0 CODECOPY PUSH0 RETURN INVALID PUSH1 0x80 PUSH1 0x40 MSTORE CALLVALUE DUP1 ISZERO PUSH2 0xF JUMPI PUSH0 DUP1 REVERT JUMPDEST POP PUSH1 0x4 CALLDATASIZE LT PUSH2 0x29 JUMPI PUSH0 CALLDATALOAD PUSH1 0xE0 SHR DUP1 PUSH4 0x23475A10 EQ PUSH2 0x2D JUMPI JUMPDEST PUSH0 DUP1 REVERT JUMPDEST PUSH2 0x47 PUSH1 0x4 DUP1 CALLDATASIZE SUB DUP2 ADD SWAP1 PUSH2 0x42 SWAP2 SWAP1 PUSH2 0x410 JUMP JUMPDEST PUSH2 0x62 JUMP JUMPDEST PUSH1 0x40 MLOAD PUSH2 0x59 SWAP7 SWAP6 SWAP5 SWAP4 SWAP3 SWAP2 SWAP1 PUSH2 0x496 JUMP JUMPDEST PUSH1 0x40 MLOAD DUP1 SWAP2 SUB SWAP1 RETURN JUMPDEST PUSH0 DUP1 PUSH0 DUP1 PUSH0 DUP1 PUSH0 DUP12 PUSH1 0x40 MLOAD PUSH2 0x76 SWAP1 PUSH2 0x3B2 JUMP JUMPDEST PUSH2 0x80 SWAP2 SWAP1 PUSH2 0x4F5 JUMP JUMPDEST PUSH1 0x40 MLOAD DUP1 SWAP2 SUB SWAP1 PUSH0 CREATE DUP1 ISZERO DUP1 ISZERO PUSH2 0x99 JUMPI RETURNDATASIZE PUSH0 DUP1 RETURNDATACOPY RETURNDATASIZE PUSH0 REVERT JUMPDEST POP SWAP1 POP PUSH0 DUP12 DUP12 PUSH1 0x40 MLOAD PUSH2 0xAB SWAP1 PUSH2 0x3BF JUMP JUMPDEST PUSH2 0xB6 SWAP3 SWAP2 SWAP1 PUSH2 0x50E JUMP JUMPDEST PUSH1 0x40 MLOAD DUP1 SWAP2 SUB SWAP1 PUSH0 CREATE DUP1 ISZERO DUP1 ISZERO PUSH2 0xCF JUMPI RETURNDATASIZE PUSH0 DUP1 RETURNDATACOPY RETURNDATASIZE PUSH0 REVERT JUMPDEST POP SWAP1 POP PUSH0 DUP11 DUP11 PUSH1 0x40 MLOAD PUSH2 0xE1 SWAP1 PUSH2 0x3CC JUMP JUMPDEST PUSH2 0xEC SWAP3 SWAP2 SWAP1 PUSH2 0x50E JUMP JUMPDEST PUSH1 0x40 MLOAD DUP1 SWAP2 SUB SWAP1 PUSH0 CREATE DUP1 ISZERO DUP1 ISZERO PUSH2 0x105 JUMPI RETURNDATASIZE PUSH0 DUP1 RETURNDATACOPY RETURNDATASIZE PUSH0 REVERT JUMPDEST POP SWAP1 POP DUP3 PUSH20 0xFFFFFFFFFFFFFFFFFFFFFFFFFFFFFFFFFFFFFFFF AND PUSH4 0x89E7995F PUSH1 0x40 MLOAD DUP2 PUSH4 0xFFFFFFFF AND PUSH1 0xE0 SHL DUP2 MSTORE PUSH1 0x4 ADD PUSH1 0x20 PUSH1 0x40 MLOAD DUP1 DUP4 SUB DUP2 DUP7 GAS STATICCALL ISZERO DUP1 ISZERO PUSH2 0x151 JUMPI RETURNDATASIZE PUSH0 DUP1 RETURNDATACOPY RETURNDATASIZE PUSH0 REVERT JUMPDEST POP POP POP POP PUSH1 0x40 MLOAD RETURNDATASIZE PUSH1 0x1F NOT PUSH1 0x1F DUP3 ADD AND DUP3 ADD DUP1 PUSH1 0x40 MSTORE POP DUP2 ADD SWAP1 PUSH2 0x175 SWAP2 SWAP1 PUSH2 0x549 JUMP JUMPDEST SWAP9 POP DUP3 PUSH20 0xFFFFFFFFFFFFFFFFFFFFFFFFFFFFFFFFFFFFFFFF AND PUSH4 0xC618A1E4 PUSH1 0x40 MLOAD DUP2 PUSH4 0xFFFFFFFF AND PUSH1 0xE0 SHL DUP2 MSTORE PUSH1 0x4 ADD PUSH1 0x20 PUSH1 0x40 MLOAD DUP1 DUP4 SUB DUP2 DUP7 GAS STATICCALL ISZERO DUP1 ISZERO PUSH2 0x1C0 JUMPI RETURNDATASIZE PUSH0 DUP1 RETURNDATACOPY RETURNDATASIZE PUSH0 REVERT JUMPDEST POP POP POP POP PUSH1 0x40 MLOAD RETURNDATASIZE PUSH1 0x1F NOT PUSH1 0x1F DUP3 ADD AND DUP3 ADD DUP1 PUSH1 0x40 MSTORE POP DUP2 ADD SWAP1 PUSH2 0x1E4 SWAP2 SWAP1 PUSH2 0x549 JUMP JUMPDEST SWAP8 POP DUP2 PUSH20 0xFFFFFFFFFFFFFFFFFFFFFFFFFFFFFFFFFFFFFFFF AND PUSH4 0x89E7995F PUSH1 0x40 MLOAD DUP2 PUSH4 0xFFFFFFFF AND PUSH1 0xE0 SHL DUP2 MSTORE PUSH1 0x4 ADD PUSH1 0x20 PUSH1 0x40 MLOAD DUP1 DUP4 SUB DUP2 DUP7 GAS STATICCALL ISZERO DUP1 ISZERO PUSH2 0x22F JUMPI RETURNDATASIZE PUSH0 DUP1 RETURNDATACOPY RETURNDATASIZE PUSH0 REVERT JUMPDEST POP POP POP POP PUSH1 0x40 MLOAD RETURNDATASIZE PUSH1 0x1F NOT PUSH1 0x1F DUP3 ADD AND DUP3 ADD DUP1 PUSH1 0x40 MSTORE POP DUP2 ADD SWAP1 PUSH2 0x253 SWAP2 SWAP1 PUSH2 0x549 JUMP JUMPDEST SWAP7 POP DUP2 PUSH20 0xFFFFFFFFFFFFFFFFFFFFFFFFFFFFFFFFFFFFFFFF AND PUSH4 0xC618A1E4 PUSH1 0x40 MLOAD DUP2 PUSH4 0xFFFFFFFF AND PUSH1 0xE0 SHL DUP2 MSTORE PUSH1 0x4 ADD PUSH1 0x20 PUSH1 0x40 MLOAD DUP1 DUP4 SUB DUP2 DUP7 GAS STATICCALL ISZERO DUP1 ISZERO PUSH2 0x29E JUMPI RETURNDATASIZE PUSH0 DUP1 RETURNDATACOPY RETURNDATASIZE PUSH0 REVERT JUMPDEST POP POP POP POP PUSH1 0x40 MLOAD RETURNDATASIZE PUSH1 0x1F NOT PUSH1 0x1F DUP3 ADD AND DUP3 ADD DUP1 PUSH1 0x40 MSTORE POP DUP2 ADD SWAP1 PUSH2 0x2C2 SWAP2 SWAP1 PUSH2 0x549 JUMP JUMPDEST SWAP6 POP DUP1 PUSH20 0xFFFFFFFFFFFFFFFFFFFFFFFFFFFFFFFFFFFFFFFF AND PUSH4 0x89E7995F PUSH1 0x40 MLOAD DUP2 PUSH4 0xFFFFFFFF AND PUSH1 0xE0 SHL DUP2 MSTORE PUSH1 0x4 ADD PUSH1 0x20 PUSH1 0x40 MLOAD DUP1 DUP4 SUB DUP2 DUP7 GAS STATICCALL ISZERO DUP1 ISZERO PUSH2 0x30D JUMPI RETURNDATASIZE PUSH0 DUP1 RETURNDATACOPY RETURNDATASIZE PUSH0 REVERT JUMPDEST POP POP POP POP PUSH1 0x40 MLOAD RETURNDATASIZE PUSH1 0x1F NOT PUSH1 0x1F DUP3 ADD AND DUP3 ADD DUP1 PUSH1 0x40 MSTORE POP DUP2 ADD SWAP1 PUSH2 0x331 SWAP2 SWAP1 PUSH2 0x549 JUMP JUMPDEST SWAP5 POP DUP1 PUSH20 0xFFFFFFFFFFFFFFFFFFFFFFFFFFFFFFFFFFFFFFFF AND PUSH4 0xC618A1E4 PUSH1 0x40 MLOAD DUP2 PUSH4 0xFFFFFFFF AND PUSH1 0xE0 SHL DUP2 MSTORE PUSH1 0x4 ADD PUSH1 0x20 PUSH1 0x40 MLOAD DUP1 DUP4 SUB DUP2 DUP7 GAS STATICCALL ISZERO DUP1 ISZERO PUSH2 0x37C JUMPI RETURNDATASIZE PUSH0 DUP1 RETURNDATACOPY RETURNDATASIZE PUSH0 REVERT JUMPDEST POP POP POP POP PUSH1 0x40 MLOAD RETURNDATASIZE PUSH1 0x1F NOT PUSH1 0x1F DUP3 ADD AND DUP3 ADD DUP1 PUSH1 0x40 MSTORE POP DUP2 ADD SWAP1 PUSH2 0x3A0 SWAP2 SWAP1 PUSH2 0x549 JUMP JUMPDEST SWAP4 POP POP POP POP SWAP6 POP SWAP6 POP SWAP6 POP SWAP6 POP SWAP6 POP SWAP6 JUMP JUMPDEST PUSH2 0x255 DUP1 PUSH2 0x575 DUP4 CODECOPY ADD SWAP1 JUMP JUMPDEST PUSH2 0x373 DUP1 PUSH2 0x7CA DUP4 CODECOPY ADD SWAP1 JUMP JUMPDEST PUSH2 0x39F DUP1 PUSH2 0xB3D DUP4 CODECOPY ADD SWAP1 JUMP JUMPDEST PUSH0 DUP1 REVERT JUMPDEST PUSH0 DUP2 SWAP1 POP SWAP2 SWAP1 POP JUMP JUMPDEST PUSH2 0x3EF DUP2 PUSH2 0x3DD JUMP JUMPDEST DUP2 EQ PUSH2 0x3F9 JUMPI PUSH0 DUP1 REVERT JUMPDEST POP JUMP JUMPDEST PUSH0 DUP2 CALLDATALOAD SWAP1 POP PUSH2 0x40A DUP2 PUSH2 0x3E6 JUMP JUMPDEST SWAP3 SWAP2 POP POP JUMP JUMPDEST PUSH0 DUP1 PUSH0 DUP1 PUSH0 PUSH1 0xA0 DUP7 DUP9 SUB SLT ISZERO PUSH2 0x429 JUMPI PUSH2 0x428 PUSH2 0x3D9 JUMP JUMPDEST JUMPDEST PUSH0 PUSH2 0x436 DUP9 DUP3 DUP10 ADD PUSH2 0x3FC JUMP JUMPDEST SWAP6 POP POP PUSH1 0x20 PUSH2 0x447 DUP9 DUP3 DUP10 ADD PUSH2 0x3FC JUMP JUMPDEST SWAP5 POP POP PUSH1 0x40 PUSH2 0x458 DUP9 DUP3 DUP10 ADD PUSH2 0x3FC JUMP JUMPDEST SWAP4 POP POP PUSH1 0x60 PUSH2 0x469 DUP9 DUP3 DUP10 ADD PUSH2 0x3FC JUMP JUMPDEST SWAP3 POP POP PUSH1 0x80 PUSH2 0x47A DUP9 DUP3 DUP10 ADD PUSH2 0x3FC JUMP JUMPDEST SWAP2 POP POP SWAP3 SWAP6 POP SWAP3 SWAP6 SWAP1 SWAP4 POP JUMP JUMPDEST PUSH2 0x490 DUP2 PUSH2 0x3DD JUMP JUMPDEST DUP3 MSTORE POP POP JUMP JUMPDEST PUSH0 PUSH1 0xC0 DUP3 ADD SWAP1 POP PUSH2 0x4A9 PUSH0 DUP4 ADD DUP10 PUSH2 0x487 JUMP JUMPDEST PUSH2 0x4B6 PUSH1 0x20 DUP4 ADD DUP9 PUSH2 0x487 JUMP JUMPDEST PUSH2 0x4C3 PUSH1 0x40 DUP4 ADD DUP8 PUSH2 0x487 JUMP JUMPDEST PUSH2 0x4D0 PUSH1 0x60 DUP4 ADD DUP7 PUSH2 0x487 JUMP JUMPDEST PUSH2 0x4DD PUSH1 0x80 DUP4 ADD DUP6 PUSH2 0x487 JUMP JUMPDEST PUSH2 0x4EA PUSH1 0xA0 DUP4 ADD DUP5 PUSH2 0x487 JUMP JUMPDEST SWAP8 SWAP7 POP POP POP POP POP POP POP JUMP JUMPDEST PUSH0 PUSH1 0x20 DUP3 ADD SWAP1 POP PUSH2 0x508 PUSH0 DUP4 ADD DUP5 PUSH2 0x487 JUMP JUMPDEST SWAP3 SWAP2 POP POP JUMP JUMPDEST PUSH0 PUSH1 0x40 DUP3 ADD SWAP1 POP PUSH2 0x521 PUSH0 DUP4 ADD DUP6 PUSH2 0x487 JUMP JUMPDEST PUSH2 0x52E PUSH1 0x20 DUP4 ADD DUP5 PUSH2 0x487 JUMP JUMPDEST SWAP4 SWAP3 POP POP POP JUMP JUMPDEST PUSH0 DUP2 MLOAD SWAP1 POP PUSH2 0x543 DUP2 PUSH2 0x3E6 JUMP JUMPDEST SWAP3 SWAP2 POP POP JUMP JUMPDEST PUSH0 PUSH1 0x20 DUP3 DUP5 SUB SLT ISZERO PUSH2 0x55E JUMPI PUSH2 0x55D PUSH2 0x3D9 JUMP JUMPDEST JUMPDEST PUSH0 PUSH2 0x56B DUP5 DUP3 DUP6 ADD PUSH2 0x535 JUMP JUMPDEST SWAP2 POP POP SWAP3 SWAP2 POP POP JUMP INVALID PUSH1 0x80 PUSH1 0x40 MSTORE CALLVALUE DUP1 ISZERO PUSH1 0xE JUMPI PUSH0 DUP1 REVERT JUMPDEST POP PUSH1 0x40 MLOAD PUSH2 0x255 CODESIZE SUB DUP1 PUSH2 0x255 DUP4 CODECOPY DUP2 DUP2 ADD PUSH1 0x40 MSTORE DUP2 ADD SWAP1 PUSH1 0x2E SWAP2 SWAP1 PUSH1 0x6B JUMP JUMPDEST DUP1 PUSH0 DUP2 SWAP1 SSTORE POP POP PUSH1 0x91 JUMP JUMPDEST PUSH0 DUP1 REVERT JUMPDEST PUSH0 DUP2 SWAP1 POP SWAP2 SWAP1 POP JUMP JUMPDEST PUSH1 0x4D DUP2 PUSH1 0x3D JUMP JUMPDEST DUP2 EQ PUSH1 0x56 JUMPI PUSH0 DUP1 REVERT JUMPDEST POP JUMP JUMPDEST PUSH0 DUP2 MLOAD SWAP1 POP PUSH1 0x65 DUP2 PUSH1 0x46 JUMP JUMPDEST SWAP3 SWAP2 POP POP JUMP JUMPDEST PUSH0 PUSH1 0x20 DUP3 DUP5 SUB SLT ISZERO PUSH1 0x7D JUMPI PUSH1 0x7C PUSH1 0x39 JUMP JUMPDEST JUMPDEST PUSH0 PUSH1 0x88 DUP5 DUP3 DUP6 ADD PUSH1 0x59 JUMP JUMPDEST SWAP2 POP POP SWAP3 SWAP2 POP POP JUMP JUMPDEST PUSH2 0x1B7 DUP1 PUSH2 0x9E PUSH0 CODECOPY PUSH0 RETURN INVALID PUSH1 0x80 PUSH1 0x40 MSTORE CALLVALUE DUP1 ISZERO PUSH2 0xF JUMPI PUSH0 DUP1 REVERT JUMPDEST POP PUSH1 0x4 CALLDATASIZE LT PUSH2 0x3F JUMPI PUSH0 CALLDATALOAD PUSH1 0xE0 SHR DUP1 PUSH4 0x8475C028 EQ PUSH2 0x43 JUMPI DUP1 PUSH4 0x89E7995F EQ PUSH2 0x61 JUMPI DUP1 PUSH4 0xC618A1E4 EQ PUSH2 0x7F JUMPI JUMPDEST PUSH0 DUP1 REVERT JUMPDEST PUSH2 0x4B PUSH2 0x9D JUMP JUMPDEST PUSH1 0x40 MLOAD PUSH2 0x58 SWAP2 SWAP1 PUSH2 0xFA JUMP JUMPDEST PUSH1 0x40 MLOAD DUP1 SWAP2 SUB SWAP1 RETURN JUMPDEST PUSH2 0x69 PUSH2 0xA2 JUMP JUMPDEST PUSH1 0x40 MLOAD PUSH2 0x76 SWAP2 SWAP1 PUSH2 0xFA JUMP JUMPDEST PUSH1 0x40 MLOAD DUP1 SWAP2 SUB SWAP1 RETURN JUMPDEST PUSH2 0x87 PUSH2 0xC2 JUMP JUMPDEST PUSH1 0x40 MLOAD PUSH2 0x94 SWAP2 SWAP1 PUSH2 0xFA JUMP JUMPDEST PUSH1 0x40 MLOAD DUP1 SWAP2 SUB SWAP1 RETURN JUMPDEST PUSH0 SLOAD DUP2 JUMP JUMPDEST PUSH0 DUP1 SLOAD PUSH0 SLOAD PUSH1 0x6 PUSH2 0xB3 SWAP2 SWAP1 PUSH2 0x140 JUMP JUMPDEST PUSH2 0xBD SWAP2 SWAP1 PUSH2 0x140 JUMP JUMPDEST SWAP1 POP SWAP1 JUMP JUMPDEST PUSH0 DUP1 SLOAD PUSH0 SLOAD PUSH0 SLOAD PUSH2 0xD3 SWAP2 SWAP1 PUSH2 0x140 JUMP JUMPDEST PUSH2 0xDD SWAP2 SWAP1 PUSH2 0x140 JUMP JUMPDEST SWAP1 POP SWAP1 JUMP JUMPDEST PUSH0 DUP2 SWAP1 POP SWAP2 SWAP1 POP JUMP JUMPDEST PUSH2 0xF4 DUP2 PUSH2 0xE2 JUMP JUMPDEST DUP3 MSTORE POP POP JUMP JUMPDEST PUSH0 PUSH1 0x20 DUP3 ADD SWAP1 POP PUSH2 0x10D PUSH0 DUP4 ADD DUP5 PUSH2 0xEB JUMP JUMPDEST SWAP3 SWAP2 POP POP JUMP JUMPDEST PUSH32 0x4E487B7100000000000000000000000000000000000000000000000000000000 PUSH0 MSTORE PUSH1 0x11 PUSH1 0x4 MSTORE PUSH1 0x24 PUSH0 REVERT JUMPDEST PUSH0 PUSH2 0x14A DUP3 PUSH2 0xE2 JUMP JUMPDEST SWAP2 POP PUSH2 0x155 DUP4 PUSH2 0xE2 JUMP JUMPDEST SWAP3 POP DUP3 DUP3 MUL PUSH2 0x163 DUP2 PUSH2 0xE2 JUMP JUMPDEST SWAP2 POP DUP3 DUP3 DIV DUP5 EQ DUP4 ISZERO OR PUSH2 0x17A JUMPI PUSH2 0x179 PUSH2 0x113 JUMP JUMPDEST JUMPDEST POP SWAP3 SWAP2 POP POP JUMP INVALID LOG2 PUSH5 0x6970667358 0x22 SLT KECCAK256 DUP9 0xB3 PUSH28 0xC2778BB729E158D4CE17DAED3E5EF838D05ACBB5B8C58BF7270F0EE4 STOP PUSH5 0x736F6C6343 STOP ADDMOD BYTE STOP CALLER PUSH1 0x80 PUSH1 0x40 MSTORE CALLVALUE DUP1 ISZERO PUSH1 0xE JUMPI PUSH0 DUP1 REVERT JUMPDEST POP PUSH1 0x40 MLOAD PUSH2 0x373 CODESIZE SUB DUP1 PUSH2 0x373 DUP4 CODECOPY DUP2 DUP2 ADD PUSH1 0x40 MSTORE DUP2 ADD SWAP1 PUSH1 0x2E SWAP2 SWAP1 PUSH1 0x73 JUMP JUMPDEST DUP2 PUSH0 DUP2 SWAP1 SSTORE POP DUP1 PUSH1 0x1 DUP2 SWAP1 SSTORE POP POP POP PUSH1 0xAA JUMP JUMPDEST PUSH0 DUP1 REVERT JUMPDEST PUSH0 DUP2 SWAP1 POP SWAP2 SWAP1 POP JUMP JUMPDEST PUSH1 0x55 DUP2 PUSH1 0x45 JUMP JUMPDEST DUP2 EQ PUSH1 0x5E JUMPI PUSH0 DUP1 REVERT JUMPDEST POP JUMP JUMPDEST PUSH0 DUP2 MLOAD SWAP1 POP PUSH1 0x6D DUP2 PUSH1 0x4E JUMP JUMPDEST SWAP3 SWAP2 POP POP JUMP JUMPDEST PUSH0 DUP1 PUSH1 0x40 DUP4 DUP6 SUB SLT ISZERO PUSH1 0x86 JUMPI PUSH1 0x85 PUSH1 0x41 JUMP JUMPDEST JUMPDEST PUSH0 PUSH1 0x91 DUP6 DUP3 DUP7 ADD PUSH1 0x61 JUMP JUMPDEST SWAP3 POP POP PUSH1 0x20 PUSH1 0xA0 DUP6 DUP3 DUP7 ADD PUSH1 0x61 JUMP JUMPDEST SWAP2 POP POP SWAP3 POP SWAP3 SWAP1 POP JUMP JUMPDEST PUSH2 0x2BC DUP1 PUSH2 0xB7 PUSH0 CODECOPY PUSH0 RETURN INVALID PUSH1 0x80 PUSH1 0x40 MSTORE CALLVALUE DUP1 ISZERO PUSH2 0xF JUMPI PUSH0 DUP1 REVERT JUMPDEST POP PUSH1 0x4 CALLDATASIZE LT PUSH2 0x4A JUMPI PUSH0 CALLDATALOAD PUSH1 0xE0 SHR DUP1 PUSH4 0xEF26743 EQ PUSH2 0x4E JUMPI DUP1 PUSH4 0x217F4353 EQ PUSH2 0x6C JUMPI DUP1 PUSH4 0x89E7995F EQ PUSH2 0x8A JUMPI DUP1 PUSH4 0xC618A1E4 EQ PUSH2 0xA8 JUMPI JUMPDEST PUSH0 DUP1 REVERT JUMPDEST PUSH2 0x56 PUSH2 0xC6 JUMP JUMPDEST PUSH1 0x40 MLOAD PUSH2 0x63 SWAP2 SWAP1 PUSH2 0x16F JUMP JUMPDEST PUSH1 0x40 MLOAD DUP1 SWAP2 SUB SWAP1 RETURN JUMPDEST PUSH2 0x74 PUSH2 0xCC JUMP JUMPDEST PUSH1 0x40 MLOAD PUSH2 0x81 SWAP2 SWAP1 PUSH2 0x16F JUMP JUMPDEST PUSH1 0x40 MLOAD DUP1 SWAP2 SUB SWAP1 RETURN JUMPDEST PUSH2 0x92 PUSH2 0xD1 JUMP JUMPDEST PUSH1 0x40 MLOAD PUSH2 0x9F SWAP2 SWAP1 PUSH2 0x16F JUMP JUMPDEST PUSH1 0x40 MLOAD DUP1 SWAP2 SUB SWAP1 RETURN JUMPDEST PUSH2 0xB0 PUSH2 0x11A JUMP JUMPDEST PUSH1 0x40 MLOAD PUSH2 0xBD SWAP2 SWAP1 PUSH2 0x16F JUMP JUMPDEST PUSH1 0x40 MLOAD DUP1 SWAP2 SUB SWAP1 RETURN JUMPDEST PUSH1 0x1 SLOAD DUP2 JUMP JUMPDEST PUSH0 SLOAD DUP2 JUMP JUMPDEST PUSH0 PUSH3 0xF4240 PUSH1 0x1 SLOAD PUSH0 SLOAD PUSH2 0xE5 SWAP2 SWAP1 PUSH2 0x1B5 JUMP JUMPDEST PUSH0 SLOAD PUSH3 0x2FEFD8 PUSH1 0x2 PUSH2 0xF7 SWAP2 SWAP1 PUSH2 0x1E8 JUMP JUMPDEST PUSH2 0x101 SWAP2 SWAP1 PUSH2 0x1E8 JUMP JUMPDEST PUSH2 0x10B SWAP2 SWAP1 PUSH2 0x1E8 JUMP JUMPDEST PUSH2 0x115 SWAP2 SWAP1 PUSH2 0x256 JUMP JUMPDEST SWAP1 POP SWAP1 JUMP JUMPDEST PUSH0 PUSH3 0xF4240 PUSH1 0x1 SLOAD PUSH0 SLOAD PUSH0 SLOAD PUSH3 0x2FEFD8 PUSH2 0x134 SWAP2 SWAP1 PUSH2 0x1E8 JUMP JUMPDEST PUSH2 0x13E SWAP2 SWAP1 PUSH2 0x1E8 JUMP JUMPDEST PUSH2 0x148 SWAP2 SWAP1 PUSH2 0x1E8 JUMP JUMPDEST PUSH2 0x152 SWAP2 SWAP1 PUSH2 0x256 JUMP JUMPDEST SWAP1 POP SWAP1 JUMP JUMPDEST PUSH0 DUP2 SWAP1 POP SWAP2 SWAP1 POP JUMP JUMPDEST PUSH2 0x169 DUP2 PUSH2 0x157 JUMP JUMPDEST DUP3 MSTORE POP POP JUMP JUMPDEST PUSH0 PUSH1 0x20 DUP3 ADD SWAP1 POP PUSH2 0x182 PUSH0 DUP4 ADD DUP5 PUSH2 0x160 JUMP JUMPDEST SWAP3 SWAP2 POP POP JUMP JUMPDEST PUSH32 0x4E487B7100000000000000000000000000000000000000000000000000000000 PUSH0 MSTORE PUSH1 0x11 PUSH1 0x4 MSTORE PUSH1 0x24 PUSH0 REVERT JUMPDEST PUSH0 PUSH2 0x1BF DUP3 PUSH2 0x157 JUMP JUMPDEST SWAP2 POP PUSH2 0x1CA DUP4 PUSH2 0x157 JUMP JUMPDEST SWAP3 POP DUP3 DUP3 ADD SWAP1 POP DUP1 DUP3 GT ISZERO PUSH2 0x1E2 JUMPI PUSH2 0x1E1 PUSH2 0x188 JUMP JUMPDEST JUMPDEST SWAP3 SWAP2 POP POP JUMP JUMPDEST PUSH0 PUSH2 0x1F2 DUP3 PUSH2 0x157 JUMP JUMPDEST SWAP2 POP PUSH2 0x1FD DUP4 PUSH2 0x157 JUMP JUMPDEST SWAP3 POP DUP3 DUP3 MUL PUSH2 0x20B DUP2 PUSH2 0x157 JUMP JUMPDEST SWAP2 POP DUP3 DUP3 DIV DUP5 EQ DUP4 ISZERO OR PUSH2 0x222 JUMPI PUSH2 0x221 PUSH2 0x188 JUMP JUMPDEST JUMPDEST POP SWAP3 SWAP2 POP POP JUMP JUMPDEST PUSH32 0x4E487B7100000000000000000000000000000000000000000000000000000000 PUSH0 MSTORE PUSH1 0x12 PUSH1 0x4 MSTORE PUSH1 0x24 PUSH0 REVERT JUMPDEST PUSH0 PUSH2 0x260 DUP3 PUSH2 0x157 JUMP JUMPDEST SWAP2 POP PUSH2 0x26B DUP4 PUSH2 0x157 JUMP JUMPDEST SWAP3 POP DUP3 PUSH2 0x27B JUMPI PUSH2 0x27A PUSH2 0x229 JUMP JUMPDEST JUMPDEST DUP3 DUP3 DIV SWAP1 POP SWAP3 SWAP2 POP POP JUMP INVALID LOG2 PUSH5 0x6970667358 0x22 SLT KECCAK256 SLOAD SWAP1 CREATE2 PUSH14 0xAAEEF06AFE651C0454898A42674F LT 0xB2 0xAE MOD PUSH13 0x35D4A46D0540822BE264736F6C PUSH4 0x4300081A STOP CALLER PUSH1 0x80 PUSH1 0x40 MSTORE CALLVALUE DUP1 ISZERO PUSH1 0xE JUMPI PUSH0 DUP1 REVERT JUMPDEST POP PUSH1 0x40 MLOAD PUSH2 0x39F CODESIZE SUB DUP1 PUSH2 0x39F DUP4 CODECOPY DUP2 DUP2 ADD PUSH1 0x40 MSTORE DUP2 ADD SWAP1 PUSH1 0x2E SWAP2 SWAP1 PUSH1 0x73 JUMP JUMPDEST DUP2 PUSH0 DUP2 SWAP1 SSTORE POP DUP1 PUSH1 0x1 DUP2 SWAP1 SSTORE POP POP POP PUSH1 0xAA JUMP JUMPDEST PUSH0 DUP1 REVERT JUMPDEST PUSH0 DUP2 SWAP1 POP SWAP2 SWAP1 POP JUMP JUMPDEST PUSH1 0x55 DUP2 PUSH1 0x45 JUMP JUMPDEST DUP2 EQ PUSH1 0x5E JUMPI PUSH0 DUP1 REVERT JUMPDEST POP JUMP JUMPDEST PUSH0 DUP2 MLOAD SWAP1 POP PUSH1 0x6D DUP2 PUSH1 0x4E JUMP JUMPDEST SWAP3 SWAP2 POP POP JUMP JUMPDEST PUSH0 DUP1 PUSH1 0x40 DUP4 DUP6 SUB SLT ISZERO PUSH1 0x86 JUMPI PUSH1 0x85 PUSH1 0x41 JUMP JUMPDEST JUMPDEST PUSH0 PUSH1 0x91 DUP6 DUP3 DUP7 ADD PUSH1 0x61 JUMP JUMPDEST SWAP3 POP POP PUSH1 0x20 PUSH1 0xA0 DUP6 DUP3 DUP7 ADD PUSH1 0x61 JUMP JUMPDEST SWAP2 POP POP SWAP3 POP SWAP3 SWAP1 POP JUMP JUMPDEST PUSH2 0x2E8 DUP1 PUSH2 0xB7 PUSH0 CODECOPY PUSH0 RETURN INVALID PUSH1 0x80 PUSH1 0x40 MSTORE CALLVALUE DUP1 ISZERO PUSH2 0xF JUMPI PUSH0 DUP1 REVERT JUMPDEST POP PUSH1 0x4 CALLDATASIZE LT PUSH2 0x4A JUMPI PUSH0 CALLDATALOAD PUSH1 0xE0 SHR DUP1 PUSH4 0xEF26743 EQ PUSH2 0x4E JUMPI DUP1 PUSH4 0x217F4353 EQ PUSH2 0x6C JUMPI DUP1 PUSH4 0x89E7995F EQ PUSH2 0x8A JUMPI DUP1 PUSH4 0xC618A1E4 EQ PUSH2 0xA8 JUMPI JUMPDEST PUSH0 DUP1 REVERT JUMPDEST PUSH2 0x56 PUSH2 0xC6 JUMP JUMPDEST PUSH1 0x40 MLOAD PUSH2 0x63 SWAP2 SWAP1 PUSH2 0x19B JUMP JUMPDEST PUSH1 0x40 MLOAD DUP1 SWAP2 SUB SWAP1 RETURN JUMPDEST PUSH2 0x74 PUSH2 0xCC JUMP JUMPDEST PUSH1 0x40 MLOAD PUSH2 0x81 SWAP2 SWAP1 PUSH2 0x19B JUMP JUMPDEST PUSH1 0x40 MLOAD DUP1 SWAP2 SUB SWAP1 RETURN JUMPDEST PUSH2 0x92 PUSH2 0xD1 JUMP JUMPDEST PUSH1 0x40 MLOAD PUSH2 0x9F SWAP2 SWAP1 PUSH2 0x19B JUMP JUMPDEST PUSH1 0x40 MLOAD DUP1 SWAP2 SUB SWAP1 RETURN JUMPDEST PUSH2 0xB0 PUSH2 0x146 JUMP JUMPDEST PUSH1 0x40 MLOAD PUSH2 0xBD SWAP2 SWAP1 PUSH2 0x19B JUMP JUMPDEST PUSH1 0x40 MLOAD DUP1 SWAP2 SUB SWAP1 RETURN JUMPDEST PUSH1 0x1 SLOAD DUP2 JUMP JUMPDEST PUSH0 SLOAD DUP2 JUMP JUMPDEST PUSH0 DUP1 PUSH3 0xF4240 PUSH1 0x1 SLOAD PUSH1 0x1 SLOAD PUSH2 0xE7 SWAP2 SWAP1 PUSH2 0x1E1 JUMP JUMPDEST PUSH0 SLOAD PUSH0 SLOAD PUSH2 0xF5 SWAP2 SWAP1 PUSH2 0x1E1 JUMP JUMPDEST PUSH2 0xFF SWAP2 SWAP1 PUSH2 0x222 JUMP JUMPDEST PUSH2 0x109 SWAP2 SWAP1 PUSH2 0x282 JUMP JUMPDEST SWAP1 POP PUSH3 0xF4240 DUP2 PUSH0 SLOAD PUSH2 0x11C SWAP2 SWAP1 PUSH2 0x222 JUMP JUMPDEST PUSH0 SLOAD PUSH3 0x2FEFD8 PUSH2 0x12C SWAP2 SWAP1 PUSH2 0x1E1 JUMP JUMPDEST PUSH2 0x136 SWAP2 SWAP1 PUSH2 0x1E1 JUMP JUMPDEST PUSH2 0x140 SWAP2 SWAP1 PUSH2 0x282 JUMP JUMPDEST SWAP2 POP POP SWAP1 JUMP JUMPDEST PUSH0 PUSH3 0x2DC6C0 PUSH1 0x1 SLOAD PUSH0 SLOAD PUSH0 SLOAD PUSH3 0x2FEFD8 PUSH2 0x160 SWAP2 SWAP1 PUSH2 0x1E1 JUMP JUMPDEST PUSH2 0x16A SWAP2 SWAP1 PUSH2 0x1E1 JUMP JUMPDEST PUSH2 0x174 SWAP2 SWAP1 PUSH2 0x1E1 JUMP JUMPDEST PUSH2 0x17E SWAP2 SWAP1 PUSH2 0x282 JUMP JUMPDEST SWAP1 POP SWAP1 JUMP JUMPDEST PUSH0 DUP2 SWAP1 POP SWAP2 SWAP1 POP JUMP JUMPDEST PUSH2 0x195 DUP2 PUSH2 0x183 JUMP JUMPDEST DUP3 MSTORE POP POP JUMP JUMPDEST PUSH0 PUSH1 0x20 DUP3 ADD SWAP1 POP PUSH2 0x1AE PUSH0 DUP4 ADD DUP5 PUSH2 0x18C JUMP JUMPDEST SWAP3 SWAP2 POP POP JUMP JUMPDEST PUSH32 0x4E487B7100000000000000000000000000000000000000000000000000000000 PUSH0 MSTORE PUSH1 0x11 PUSH1 0x4 MSTORE PUSH1 0x24 PUSH0 REVERT JUMPDEST PUSH0 PUSH2 0x1EB DUP3 PUSH2 0x183 JUMP JUMPDEST SWAP2 POP PUSH2 0x1F6 DUP4 PUSH2 0x183 JUMP JUMPDEST SWAP3 POP DUP3 DUP3 MUL PUSH2 0x204 DUP2 PUSH2 0x183 JUMP JUMPDEST SWAP2 POP DUP3 DUP3 DIV DUP5 EQ DUP4 ISZERO OR PUSH2 0x21B JUMPI PUSH2 0x21A PUSH2 0x1B4 JUMP JUMPDEST JUMPDEST POP SWAP3 SWAP2 POP POP JUMP JUMPDEST PUSH0 PUSH2 0x22C DUP3 PUSH2 0x183 JUMP JUMPDEST SWAP2 POP PUSH2 0x237 DUP4 PUSH2 0x183 JUMP JUMPDEST SWAP3 POP DUP3 DUP3 ADD SWAP1 POP DUP1 DUP3 GT ISZERO PUSH2 0x24F JUMPI PUSH2 0x24E PUSH2 0x1B4 JUMP JUMPDEST JUMPDEST SWAP3 SWAP2 POP POP JUMP JUMPDEST PUSH32 0x4E487B7100000000000000000000000000000000000000000000000000000000 PUSH0 MSTORE PUSH1 0x12 PUSH1 0x4 MSTORE PUSH1 0x24 PUSH0 REVERT JUMPDEST PUSH0 PUSH2 0x28C DUP3 PUSH2 0x183 JUMP JUMPDEST SWAP2 POP PUSH2 0x297 DUP4 PUSH2 0x183 JUMP JUMPDEST SWAP3 POP DUP3 PUSH2 0x2A7 JUMPI PUSH2 0x2A6 PUSH2 0x255 JUMP JUMPDEST JUMPDEST DUP3 DUP3 DIV SWAP1 POP SWAP3 SWAP2 POP POP JUMP INVALID LOG2 PUSH5 0x6970667358 0x22 SLT KECCAK256 SSTORE CALLER 0xBB 0xE5 0xEA 0xD 0xB7 0xAE 0x21 JUMPI 0xF DIV PUSH12 0xCB0192E22A3EBCF203823388 0xF6 0xD8 DUP11 0x4F 0xC4 0x4B LOG4 PUSH5 0x736F6C6343 STOP ADDMOD BYTE STOP CALLER LOG2 PUSH5 0x6970667358 0x22 SLT KECCAK256 RETURN DUP13 LOG0 0xE2 POP 0xBE 0xAD DUP8 0xA7 CREATE2 PUSH0 0x23 MSIZE 0xA9 0xCF SSTORE 0xE4 SWAP7 EXTCODEHASH EXTCODEHASH MOD SWAP14 SWAP8 0xA7 0xFC BLOBBASEFEE AND CALL PUSH22 0xA9137064736F6C634300081A00330000000000000000 "
				},
				"gasEstimates": {
					"creation": {
						"codeDepositCost": "771400",
						"executionCost": "803",
						"totalCost": "772203"
					},
					"external": {
						"testShapes(uint256,uint256,uint256,uint256,uint256)": "infinite"
					}
				},
				"methodIdentifiers": {
					"testShapes(uint256,uint256,uint256,uint256,uint256)": "23475a10"
				}
			},
			"storageLayout": {
				"storage": [],
				"types": null
			},
			"userdoc": {
				"kind": "user",
				"methods": {},
				"version": 1
			}
		}
	}
}