{
	"Day-04/D4P1.sol": {
		"MatrixOperations": {
			"abi": [
				{
					"inputs": [
						{
							"internalType": "int256[][]",
							"name": "A",
							"type": "int256[][]"
						},
						{
							"internalType": "int256[][]",
							"name": "B",
							"type": "int256[][]"
						}
					],
					"name": "addMatrices",
					"outputs": [
						{
							"internalType": "int256[][]",
							"name": "",
							"type": "int256[][]"
						}
					],
					"stateMutability": "pure",
					"type": "function"
				},
				{
					"inputs": [
						{
							"internalType": "int256[][]",
							"name": "A",
							"type": "int256[][]"
						},
						{
							"internalType": "int256[][]",
							"name": "B",
							"type": "int256[][]"
						}
					],
					"name": "multiplyMatrices",
					"outputs": [
						{
							"internalType": "int256[][]",
							"name": "",
							"type": "int256[][]"
						}
					],
					"stateMutability": "pure",
					"type": "function"
				},
				{
					"inputs": [
						{
							"internalType": "int256[][]",
							"name": "A",
							"type": "int256[][]"
						},
						{
							"internalType": "int256[][]",
							"name": "B",
							"type": "int256[][]"
						}
					],
					"name": "subtractMatrices",
					"outputs": [
						{
							"internalType": "int256[][]",
							"name": "",
							"type": "int256[][]"
						}
					],
					"stateMutability": "pure",
					"type": "function"
				}
			],
			"devdoc": {
				"kind": "dev",
				"methods": {},
				"version": 1
			},
			"evm": {
				"assembly": "    /* \"Day-04/D4P1.sol\":60:1661  contract MatrixOperations {... */\n  mstore(0x40, 0x80)\n  callvalue\n  dup1\n  iszero\n  tag_1\n  jumpi\n  0x00\n  dup1\n  revert\ntag_1:\n  pop\n  dataSize(sub_0)\n  dup1\n  dataOffset(sub_0)\n  0x00\n  codecopy\n  0x00\n  return\nstop\n\nsub_0: assembly {\n        /* \"Day-04/D4P1.sol\":60:1661  contract MatrixOperations {... */\n      mstore(0x40, 0x80)\n      callvalue\n      dup1\n      iszero\n      tag_1\n      jumpi\n      0x00\n      dup1\n      revert\n    tag_1:\n      pop\n      jumpi(tag_2, lt(calldatasize, 0x04))\n      shr(0xe0, calldataload(0x00))\n      dup1\n      0x21a8f355\n      eq\n      tag_3\n      jumpi\n      dup1\n      0x71852ab2\n      eq\n      tag_4\n      jumpi\n      dup1\n      0x8ea9e16c\n      eq\n      tag_5\n      jumpi\n    tag_2:\n      0x00\n      dup1\n      revert\n        /* \"Day-04/D4P1.sol\":1038:1658  function multiplyMatrices(int256[][] memory A, int256[][] memory B) public pure returns (int256[][] memory) {... */\n    tag_3:\n      tag_6\n      0x04\n      dup1\n      calldatasize\n      sub\n      dup2\n      add\n      swap1\n      tag_7\n      swap2\n      swap1\n      tag_8\n      jump\t// in\n    tag_7:\n      tag_9\n      jump\t// in\n    tag_6:\n      mload(0x40)\n      tag_10\n      swap2\n      swap1\n      tag_11\n      jump\t// in\n    tag_10:\n      mload(0x40)\n      dup1\n      swap2\n      sub\n      swap1\n      return\n        /* \"Day-04/D4P1.sol\":563:1030  function subtractMatrices(int256[][] memory A, int256[][] memory B) public pure returns (int256[][] memory) {... */\n    tag_4:\n      tag_12\n      0x04\n      dup1\n      calldatasize\n      sub\n      dup2\n      add\n      swap1\n      tag_13\n      swap2\n      swap1\n      tag_8\n      jump\t// in\n    tag_13:\n      tag_14\n      jump\t// in\n    tag_12:\n      mload(0x40)\n      tag_15\n      swap2\n      swap1\n      tag_11\n      jump\t// in\n    tag_15:\n      mload(0x40)\n      dup1\n      swap2\n      sub\n      swap1\n      return\n        /* \"Day-04/D4P1.sol\":93:555  function addMatrices(int256[][] memory A, int256[][] memory B) public pure returns (int256[][] memory) {... */\n    tag_5:\n      tag_16\n      0x04\n      dup1\n      calldatasize\n      sub\n      dup2\n      add\n      swap1\n      tag_17\n      swap2\n      swap1\n      tag_8\n      jump\t// in\n    tag_17:\n      tag_18\n      jump\t// in\n    tag_16:\n      mload(0x40)\n      tag_19\n      swap2\n      swap1\n      tag_11\n      jump\t// in\n    tag_19:\n      mload(0x40)\n      dup1\n      swap2\n      sub\n      swap1\n      return\n        /* \"Day-04/D4P1.sol\":1038:1658  function multiplyMatrices(int256[][] memory A, int256[][] memory B) public pure returns (int256[][] memory) {... */\n    tag_9:\n        /* \"Day-04/D4P1.sol\":1127:1144  int256[][] memory */\n      0x60\n        /* \"Day-04/D4P1.sol\":1157:1170  uint256 rowsA */\n      0x00\n        /* \"Day-04/D4P1.sol\":1173:1174  A */\n      dup4\n        /* \"Day-04/D4P1.sol\":1173:1181  A.length */\n      mload\n        /* \"Day-04/D4P1.sol\":1157:1181  uint256 rowsA = A.length */\n      swap1\n      pop\n        /* \"Day-04/D4P1.sol\":1192:1205  uint256 colsA */\n      0x00\n        /* \"Day-04/D4P1.sol\":1208:1209  A */\n      dup5\n        /* \"Day-04/D4P1.sol\":1210:1211  0 */\n      0x00\n        /* \"Day-04/D4P1.sol\":1208:1212  A[0] */\n      dup2\n      mload\n      dup2\n      lt\n      tag_21\n      jumpi\n      tag_22\n      tag_23\n      jump\t// in\n    tag_22:\n    tag_21:\n      0x20\n      mul\n      0x20\n      add\n      add\n      mload\n        /* \"Day-04/D4P1.sol\":1208:1219  A[0].length */\n      mload\n        /* \"Day-04/D4P1.sol\":1192:1219  uint256 colsA = A[0].length */\n      swap1\n      pop\n        /* \"Day-04/D4P1.sol\":1230:1243  uint256 colsB */\n      0x00\n        /* \"Day-04/D4P1.sol\":1246:1247  B */\n      dup5\n        /* \"Day-04/D4P1.sol\":1248:1249  0 */\n      0x00\n        /* \"Day-04/D4P1.sol\":1246:1250  B[0] */\n      dup2\n      mload\n      dup2\n      lt\n      tag_24\n      jumpi\n      tag_25\n      tag_23\n      jump\t// in\n    tag_25:\n    tag_24:\n      0x20\n      mul\n      0x20\n      add\n      add\n      mload\n        /* \"Day-04/D4P1.sol\":1246:1257  B[0].length */\n      mload\n        /* \"Day-04/D4P1.sol\":1230:1257  uint256 colsB = B[0].length */\n      swap1\n      pop\n        /* \"Day-04/D4P1.sol\":1268:1287  int256[][] memory C */\n      0x00\n        /* \"Day-04/D4P1.sol\":1305:1310  rowsA */\n      dup4\n        /* \"Day-04/D4P1.sol\":1290:1311  new int256[][](rowsA) */\n      0xffffffffffffffff\n      dup2\n      gt\n      iszero\n      tag_26\n      jumpi\n      tag_27\n      tag_28\n      jump\t// in\n    tag_27:\n    tag_26:\n      mload(0x40)\n      swap1\n      dup1\n      dup3\n      mstore\n      dup1\n      0x20\n      mul\n      0x20\n      add\n      dup3\n      add\n      0x40\n      mstore\n      dup1\n      iszero\n      tag_29\n      jumpi\n      dup2\n      0x20\n      add\n    tag_30:\n      0x60\n      dup2\n      mstore\n      0x20\n      add\n      swap1\n      0x01\n      swap1\n      sub\n      swap1\n      dup2\n      tag_30\n      jumpi\n      swap1\n      pop\n    tag_29:\n      pop\n        /* \"Day-04/D4P1.sol\":1268:1311  int256[][] memory C = new int256[][](rowsA) */\n      swap1\n      pop\n        /* \"Day-04/D4P1.sol\":1327:1336  uint256 i */\n      0x00\n        /* \"Day-04/D4P1.sol\":1322:1632  for (uint256 i = 0; i < rowsA; i++) {... */\n    tag_31:\n        /* \"Day-04/D4P1.sol\":1346:1351  rowsA */\n      dup5\n        /* \"Day-04/D4P1.sol\":1342:1343  i */\n      dup2\n        /* \"Day-04/D4P1.sol\":1342:1351  i < rowsA */\n      lt\n        /* \"Day-04/D4P1.sol\":1322:1632  for (uint256 i = 0; i < rowsA; i++) {... */\n      iszero\n      tag_32\n      jumpi\n        /* \"Day-04/D4P1.sol\":1393:1398  colsB */\n      dup3\n        /* \"Day-04/D4P1.sol\":1380:1399  new int256[](colsB) */\n      0xffffffffffffffff\n      dup2\n      gt\n      iszero\n      tag_34\n      jumpi\n      tag_35\n      tag_28\n      jump\t// in\n    tag_35:\n    tag_34:\n      mload(0x40)\n      swap1\n      dup1\n      dup3\n      mstore\n      dup1\n      0x20\n      mul\n      0x20\n      add\n      dup3\n      add\n      0x40\n      mstore\n      dup1\n      iszero\n      tag_36\n      jumpi\n      dup2\n      0x20\n      add\n      0x20\n      dup3\n      mul\n      dup1\n      calldatasize\n      dup4\n      calldatacopy\n      dup1\n      dup3\n      add\n      swap2\n      pop\n      pop\n      swap1\n      pop\n    tag_36:\n      pop\n        /* \"Day-04/D4P1.sol\":1373:1374  C */\n      dup3\n        /* \"Day-04/D4P1.sol\":1375:1376  i */\n      dup3\n        /* \"Day-04/D4P1.sol\":1373:1377  C[i] */\n      dup2\n      mload\n      dup2\n      lt\n      tag_37\n      jumpi\n      tag_38\n      tag_23\n      jump\t// in\n    tag_38:\n    tag_37:\n      0x20\n      mul\n      0x20\n      add\n      add\n        /* \"Day-04/D4P1.sol\":1373:1399  C[i] = new int256[](colsB) */\n      dup2\n      swap1\n      mstore\n      pop\n        /* \"Day-04/D4P1.sol\":1419:1428  uint256 j */\n      0x00\n        /* \"Day-04/D4P1.sol\":1414:1621  for (uint256 j = 0; j < colsB; j++) {... */\n    tag_39:\n        /* \"Day-04/D4P1.sol\":1438:1443  colsB */\n      dup4\n        /* \"Day-04/D4P1.sol\":1434:1435  j */\n      dup2\n        /* \"Day-04/D4P1.sol\":1434:1443  j < colsB */\n      lt\n        /* \"Day-04/D4P1.sol\":1414:1621  for (uint256 j = 0; j < colsB; j++) {... */\n      iszero\n      tag_40\n      jumpi\n        /* \"Day-04/D4P1.sol\":1479:1480  0 */\n      0x00\n        /* \"Day-04/D4P1.sol\":1469:1470  C */\n      dup4\n        /* \"Day-04/D4P1.sol\":1471:1472  i */\n      dup4\n        /* \"Day-04/D4P1.sol\":1469:1473  C[i] */\n      dup2\n      mload\n      dup2\n      lt\n      tag_42\n      jumpi\n      tag_43\n      tag_23\n      jump\t// in\n    tag_43:\n    tag_42:\n      0x20\n      mul\n      0x20\n      add\n      add\n      mload\n        /* \"Day-04/D4P1.sol\":1474:1475  j */\n      dup3\n        /* \"Day-04/D4P1.sol\":1469:1476  C[i][j] */\n      dup2\n      mload\n      dup2\n      lt\n      tag_44\n      jumpi\n      tag_45\n      tag_23\n      jump\t// in\n    tag_45:\n    tag_44:\n      0x20\n      mul\n      0x20\n      add\n      add\n        /* \"Day-04/D4P1.sol\":1469:1480  C[i][j] = 0 */\n      dup2\n      dup2\n      mstore\n      pop\n      pop\n        /* \"Day-04/D4P1.sol\":1504:1513  uint256 k */\n      0x00\n        /* \"Day-04/D4P1.sol\":1499:1606  for (uint256 k = 0; k < colsA; k++) {... */\n    tag_46:\n        /* \"Day-04/D4P1.sol\":1523:1528  colsA */\n      dup6\n        /* \"Day-04/D4P1.sol\":1519:1520  k */\n      dup2\n        /* \"Day-04/D4P1.sol\":1519:1528  k < colsA */\n      lt\n        /* \"Day-04/D4P1.sol\":1499:1606  for (uint256 k = 0; k < colsA; k++) {... */\n      iszero\n      tag_47\n      jumpi\n        /* \"Day-04/D4P1.sol\":1579:1580  B */\n      dup9\n        /* \"Day-04/D4P1.sol\":1581:1582  k */\n      dup2\n        /* \"Day-04/D4P1.sol\":1579:1583  B[k] */\n      dup2\n      mload\n      dup2\n      lt\n      tag_49\n      jumpi\n      tag_50\n      tag_23\n      jump\t// in\n    tag_50:\n    tag_49:\n      0x20\n      mul\n      0x20\n      add\n      add\n      mload\n        /* \"Day-04/D4P1.sol\":1584:1585  j */\n      dup3\n        /* \"Day-04/D4P1.sol\":1579:1586  B[k][j] */\n      dup2\n      mload\n      dup2\n      lt\n      tag_51\n      jumpi\n      tag_52\n      tag_23\n      jump\t// in\n    tag_52:\n    tag_51:\n      0x20\n      mul\n      0x20\n      add\n      add\n      mload\n        /* \"Day-04/D4P1.sol\":1569:1570  A */\n      dup11\n        /* \"Day-04/D4P1.sol\":1571:1572  i */\n      dup5\n        /* \"Day-04/D4P1.sol\":1569:1573  A[i] */\n      dup2\n      mload\n      dup2\n      lt\n      tag_53\n      jumpi\n      tag_54\n      tag_23\n      jump\t// in\n    tag_54:\n    tag_53:\n      0x20\n      mul\n      0x20\n      add\n      add\n      mload\n        /* \"Day-04/D4P1.sol\":1574:1575  k */\n      dup3\n        /* \"Day-04/D4P1.sol\":1569:1576  A[i][k] */\n      dup2\n      mload\n      dup2\n      lt\n      tag_55\n      jumpi\n      tag_56\n      tag_23\n      jump\t// in\n    tag_56:\n    tag_55:\n      0x20\n      mul\n      0x20\n      add\n      add\n      mload\n        /* \"Day-04/D4P1.sol\":1569:1586  A[i][k] * B[k][j] */\n      tag_57\n      swap2\n      swap1\n      tag_58\n      jump\t// in\n    tag_57:\n        /* \"Day-04/D4P1.sol\":1558:1559  C */\n      dup5\n        /* \"Day-04/D4P1.sol\":1560:1561  i */\n      dup5\n        /* \"Day-04/D4P1.sol\":1558:1562  C[i] */\n      dup2\n      mload\n      dup2\n      lt\n      tag_59\n      jumpi\n      tag_60\n      tag_23\n      jump\t// in\n    tag_60:\n    tag_59:\n      0x20\n      mul\n      0x20\n      add\n      add\n      mload\n        /* \"Day-04/D4P1.sol\":1563:1564  j */\n      dup4\n        /* \"Day-04/D4P1.sol\":1558:1565  C[i][j] */\n      dup2\n      mload\n      dup2\n      lt\n      tag_61\n      jumpi\n      tag_62\n      tag_23\n      jump\t// in\n    tag_62:\n    tag_61:\n      0x20\n      mul\n      0x20\n      add\n      add\n        /* \"Day-04/D4P1.sol\":1558:1586  C[i][j] += A[i][k] * B[k][j] */\n      dup2\n      dup2\n      mload\n      tag_63\n      swap2\n      swap1\n      tag_64\n      jump\t// in\n    tag_63:\n      swap2\n      pop\n      dup2\n      dup2\n      mstore\n      pop\n      pop\n        /* \"Day-04/D4P1.sol\":1530:1533  k++ */\n      dup1\n      dup1\n      0x01\n      add\n      swap2\n      pop\n      pop\n        /* \"Day-04/D4P1.sol\":1499:1606  for (uint256 k = 0; k < colsA; k++) {... */\n      jump(tag_46)\n    tag_47:\n      pop\n        /* \"Day-04/D4P1.sol\":1445:1448  j++ */\n      dup1\n      dup1\n      0x01\n      add\n      swap2\n      pop\n      pop\n        /* \"Day-04/D4P1.sol\":1414:1621  for (uint256 j = 0; j < colsB; j++) {... */\n      jump(tag_39)\n    tag_40:\n      pop\n        /* \"Day-04/D4P1.sol\":1353:1356  i++ */\n      dup1\n      dup1\n      0x01\n      add\n      swap2\n      pop\n      pop\n        /* \"Day-04/D4P1.sol\":1322:1632  for (uint256 i = 0; i < rowsA; i++) {... */\n      jump(tag_31)\n    tag_32:\n      pop\n        /* \"Day-04/D4P1.sol\":1649:1650  C */\n      dup1\n        /* \"Day-04/D4P1.sol\":1642:1650  return C */\n      swap5\n      pop\n      pop\n      pop\n      pop\n      pop\n        /* \"Day-04/D4P1.sol\":1038:1658  function multiplyMatrices(int256[][] memory A, int256[][] memory B) public pure returns (int256[][] memory) {... */\n      swap3\n      swap2\n      pop\n      pop\n      jump\t// out\n        /* \"Day-04/D4P1.sol\":563:1030  function subtractMatrices(int256[][] memory A, int256[][] memory B) public pure returns (int256[][] memory) {... */\n    tag_14:\n        /* \"Day-04/D4P1.sol\":652:669  int256[][] memory */\n      0x60\n        /* \"Day-04/D4P1.sol\":682:694  uint256 rows */\n      0x00\n        /* \"Day-04/D4P1.sol\":697:698  A */\n      dup4\n        /* \"Day-04/D4P1.sol\":697:705  A.length */\n      mload\n        /* \"Day-04/D4P1.sol\":682:705  uint256 rows = A.length */\n      swap1\n      pop\n        /* \"Day-04/D4P1.sol\":716:728  uint256 cols */\n      0x00\n        /* \"Day-04/D4P1.sol\":731:732  A */\n      dup5\n        /* \"Day-04/D4P1.sol\":733:734  0 */\n      0x00\n        /* \"Day-04/D4P1.sol\":731:735  A[0] */\n      dup2\n      mload\n      dup2\n      lt\n      tag_66\n      jumpi\n      tag_67\n      tag_23\n      jump\t// in\n    tag_67:\n    tag_66:\n      0x20\n      mul\n      0x20\n      add\n      add\n      mload\n        /* \"Day-04/D4P1.sol\":731:742  A[0].length */\n      mload\n        /* \"Day-04/D4P1.sol\":716:742  uint256 cols = A[0].length */\n      swap1\n      pop\n        /* \"Day-04/D4P1.sol\":753:772  int256[][] memory C */\n      0x00\n        /* \"Day-04/D4P1.sol\":790:794  rows */\n      dup3\n        /* \"Day-04/D4P1.sol\":775:795  new int256[][](rows) */\n      0xffffffffffffffff\n      dup2\n      gt\n      iszero\n      tag_68\n      jumpi\n      tag_69\n      tag_28\n      jump\t// in\n    tag_69:\n    tag_68:\n      mload(0x40)\n      swap1\n      dup1\n      dup3\n      mstore\n      dup1\n      0x20\n      mul\n      0x20\n      add\n      dup3\n      add\n      0x40\n      mstore\n      dup1\n      iszero\n      tag_70\n      jumpi\n      dup2\n      0x20\n      add\n    tag_71:\n      0x60\n      dup2\n      mstore\n      0x20\n      add\n      swap1\n      0x01\n      swap1\n      sub\n      swap1\n      dup2\n      tag_71\n      jumpi\n      swap1\n      pop\n    tag_70:\n      pop\n        /* \"Day-04/D4P1.sol\":753:795  int256[][] memory C = new int256[][](rows) */\n      swap1\n      pop\n        /* \"Day-04/D4P1.sol\":811:820  uint256 i */\n      0x00\n        /* \"Day-04/D4P1.sol\":806:1004  for (uint256 i = 0; i < rows; i++) {... */\n    tag_72:\n        /* \"Day-04/D4P1.sol\":830:834  rows */\n      dup4\n        /* \"Day-04/D4P1.sol\":826:827  i */\n      dup2\n        /* \"Day-04/D4P1.sol\":826:834  i < rows */\n      lt\n        /* \"Day-04/D4P1.sol\":806:1004  for (uint256 i = 0; i < rows; i++) {... */\n      iszero\n      tag_73\n      jumpi\n        /* \"Day-04/D4P1.sol\":876:880  cols */\n      dup3\n        /* \"Day-04/D4P1.sol\":863:881  new int256[](cols) */\n      0xffffffffffffffff\n      dup2\n      gt\n      iszero\n      tag_75\n      jumpi\n      tag_76\n      tag_28\n      jump\t// in\n    tag_76:\n    tag_75:\n      mload(0x40)\n      swap1\n      dup1\n      dup3\n      mstore\n      dup1\n      0x20\n      mul\n      0x20\n      add\n      dup3\n      add\n      0x40\n      mstore\n      dup1\n      iszero\n      tag_77\n      jumpi\n      dup2\n      0x20\n      add\n      0x20\n      dup3\n      mul\n      dup1\n      calldatasize\n      dup4\n      calldatacopy\n      dup1\n      dup3\n      add\n      swap2\n      pop\n      pop\n      swap1\n      pop\n    tag_77:\n      pop\n        /* \"Day-04/D4P1.sol\":856:857  C */\n      dup3\n        /* \"Day-04/D4P1.sol\":858:859  i */\n      dup3\n        /* \"Day-04/D4P1.sol\":856:860  C[i] */\n      dup2\n      mload\n      dup2\n      lt\n      tag_78\n      jumpi\n      tag_79\n      tag_23\n      jump\t// in\n    tag_79:\n    tag_78:\n      0x20\n      mul\n      0x20\n      add\n      add\n        /* \"Day-04/D4P1.sol\":856:881  C[i] = new int256[](cols) */\n      dup2\n      swap1\n      mstore\n      pop\n        /* \"Day-04/D4P1.sol\":901:910  uint256 j */\n      0x00\n        /* \"Day-04/D4P1.sol\":896:993  for (uint256 j = 0; j < cols; j++) {... */\n    tag_80:\n        /* \"Day-04/D4P1.sol\":920:924  cols */\n      dup4\n        /* \"Day-04/D4P1.sol\":916:917  j */\n      dup2\n        /* \"Day-04/D4P1.sol\":916:924  j < cols */\n      lt\n        /* \"Day-04/D4P1.sol\":896:993  for (uint256 j = 0; j < cols; j++) {... */\n      iszero\n      tag_81\n      jumpi\n        /* \"Day-04/D4P1.sol\":970:971  B */\n      dup7\n        /* \"Day-04/D4P1.sol\":972:973  i */\n      dup3\n        /* \"Day-04/D4P1.sol\":970:974  B[i] */\n      dup2\n      mload\n      dup2\n      lt\n      tag_83\n      jumpi\n      tag_84\n      tag_23\n      jump\t// in\n    tag_84:\n    tag_83:\n      0x20\n      mul\n      0x20\n      add\n      add\n      mload\n        /* \"Day-04/D4P1.sol\":975:976  j */\n      dup2\n        /* \"Day-04/D4P1.sol\":970:977  B[i][j] */\n      dup2\n      mload\n      dup2\n      lt\n      tag_85\n      jumpi\n      tag_86\n      tag_23\n      jump\t// in\n    tag_86:\n    tag_85:\n      0x20\n      mul\n      0x20\n      add\n      add\n      mload\n        /* \"Day-04/D4P1.sol\":960:961  A */\n      dup9\n        /* \"Day-04/D4P1.sol\":962:963  i */\n      dup4\n        /* \"Day-04/D4P1.sol\":960:964  A[i] */\n      dup2\n      mload\n      dup2\n      lt\n      tag_87\n      jumpi\n      tag_88\n      tag_23\n      jump\t// in\n    tag_88:\n    tag_87:\n      0x20\n      mul\n      0x20\n      add\n      add\n      mload\n        /* \"Day-04/D4P1.sol\":965:966  j */\n      dup3\n        /* \"Day-04/D4P1.sol\":960:967  A[i][j] */\n      dup2\n      mload\n      dup2\n      lt\n      tag_89\n      jumpi\n      tag_90\n      tag_23\n      jump\t// in\n    tag_90:\n    tag_89:\n      0x20\n      mul\n      0x20\n      add\n      add\n      mload\n        /* \"Day-04/D4P1.sol\":960:977  A[i][j] - B[i][j] */\n      tag_91\n      swap2\n      swap1\n      tag_92\n      jump\t// in\n    tag_91:\n        /* \"Day-04/D4P1.sol\":950:951  C */\n      dup4\n        /* \"Day-04/D4P1.sol\":952:953  i */\n      dup4\n        /* \"Day-04/D4P1.sol\":950:954  C[i] */\n      dup2\n      mload\n      dup2\n      lt\n      tag_93\n      jumpi\n      tag_94\n      tag_23\n      jump\t// in\n    tag_94:\n    tag_93:\n      0x20\n      mul\n      0x20\n      add\n      add\n      mload\n        /* \"Day-04/D4P1.sol\":955:956  j */\n      dup3\n        /* \"Day-04/D4P1.sol\":950:957  C[i][j] */\n      dup2\n      mload\n      dup2\n      lt\n      tag_95\n      jumpi\n      tag_96\n      tag_23\n      jump\t// in\n    tag_96:\n    tag_95:\n      0x20\n      mul\n      0x20\n      add\n      add\n        /* \"Day-04/D4P1.sol\":950:977  C[i][j] = A[i][j] - B[i][j] */\n      dup2\n      dup2\n      mstore\n      pop\n      pop\n        /* \"Day-04/D4P1.sol\":926:929  j++ */\n      dup1\n      dup1\n      0x01\n      add\n      swap2\n      pop\n      pop\n        /* \"Day-04/D4P1.sol\":896:993  for (uint256 j = 0; j < cols; j++) {... */\n      jump(tag_80)\n    tag_81:\n      pop\n        /* \"Day-04/D4P1.sol\":836:839  i++ */\n      dup1\n      dup1\n      0x01\n      add\n      swap2\n      pop\n      pop\n        /* \"Day-04/D4P1.sol\":806:1004  for (uint256 i = 0; i < rows; i++) {... */\n      jump(tag_72)\n    tag_73:\n      pop\n        /* \"Day-04/D4P1.sol\":1021:1022  C */\n      dup1\n        /* \"Day-04/D4P1.sol\":1014:1022  return C */\n      swap4\n      pop\n      pop\n      pop\n      pop\n        /* \"Day-04/D4P1.sol\":563:1030  function subtractMatrices(int256[][] memory A, int256[][] memory B) public pure returns (int256[][] memory) {... */\n      swap3\n      swap2\n      pop\n      pop\n      jump\t// out\n        /* \"Day-04/D4P1.sol\":93:555  function addMatrices(int256[][] memory A, int256[][] memory B) public pure returns (int256[][] memory) {... */\n    tag_18:\n        /* \"Day-04/D4P1.sol\":177:194  int256[][] memory */\n      0x60\n        /* \"Day-04/D4P1.sol\":207:219  uint256 rows */\n      0x00\n        /* \"Day-04/D4P1.sol\":222:223  A */\n      dup4\n        /* \"Day-04/D4P1.sol\":222:230  A.length */\n      mload\n        /* \"Day-04/D4P1.sol\":207:230  uint256 rows = A.length */\n      swap1\n      pop\n        /* \"Day-04/D4P1.sol\":241:253  uint256 cols */\n      0x00\n        /* \"Day-04/D4P1.sol\":256:257  A */\n      dup5\n        /* \"Day-04/D4P1.sol\":258:259  0 */\n      0x00\n        /* \"Day-04/D4P1.sol\":256:260  A[0] */\n      dup2\n      mload\n      dup2\n      lt\n      tag_98\n      jumpi\n      tag_99\n      tag_23\n      jump\t// in\n    tag_99:\n    tag_98:\n      0x20\n      mul\n      0x20\n      add\n      add\n      mload\n        /* \"Day-04/D4P1.sol\":256:267  A[0].length */\n      mload\n        /* \"Day-04/D4P1.sol\":241:267  uint256 cols = A[0].length */\n      swap1\n      pop\n        /* \"Day-04/D4P1.sol\":278:297  int256[][] memory C */\n      0x00\n        /* \"Day-04/D4P1.sol\":315:319  rows */\n      dup3\n        /* \"Day-04/D4P1.sol\":300:320  new int256[][](rows) */\n      0xffffffffffffffff\n      dup2\n      gt\n      iszero\n      tag_100\n      jumpi\n      tag_101\n      tag_28\n      jump\t// in\n    tag_101:\n    tag_100:\n      mload(0x40)\n      swap1\n      dup1\n      dup3\n      mstore\n      dup1\n      0x20\n      mul\n      0x20\n      add\n      dup3\n      add\n      0x40\n      mstore\n      dup1\n      iszero\n      tag_102\n      jumpi\n      dup2\n      0x20\n      add\n    tag_103:\n      0x60\n      dup2\n      mstore\n      0x20\n      add\n      swap1\n      0x01\n      swap1\n      sub\n      swap1\n      dup2\n      tag_103\n      jumpi\n      swap1\n      pop\n    tag_102:\n      pop\n        /* \"Day-04/D4P1.sol\":278:320  int256[][] memory C = new int256[][](rows) */\n      swap1\n      pop\n        /* \"Day-04/D4P1.sol\":336:345  uint256 i */\n      0x00\n        /* \"Day-04/D4P1.sol\":331:529  for (uint256 i = 0; i < rows; i++) {... */\n    tag_104:\n        /* \"Day-04/D4P1.sol\":355:359  rows */\n      dup4\n        /* \"Day-04/D4P1.sol\":351:352  i */\n      dup2\n        /* \"Day-04/D4P1.sol\":351:359  i < rows */\n      lt\n        /* \"Day-04/D4P1.sol\":331:529  for (uint256 i = 0; i < rows; i++) {... */\n      iszero\n      tag_105\n      jumpi\n        /* \"Day-04/D4P1.sol\":401:405  cols */\n      dup3\n        /* \"Day-04/D4P1.sol\":388:406  new int256[](cols) */\n      0xffffffffffffffff\n      dup2\n      gt\n      iszero\n      tag_107\n      jumpi\n      tag_108\n      tag_28\n      jump\t// in\n    tag_108:\n    tag_107:\n      mload(0x40)\n      swap1\n      dup1\n      dup3\n      mstore\n      dup1\n      0x20\n      mul\n      0x20\n      add\n      dup3\n      add\n      0x40\n      mstore\n      dup1\n      iszero\n      tag_109\n      jumpi\n      dup2\n      0x20\n      add\n      0x20\n      dup3\n      mul\n      dup1\n      calldatasize\n      dup4\n      calldatacopy\n      dup1\n      dup3\n      add\n      swap2\n      pop\n      pop\n      swap1\n      pop\n    tag_109:\n      pop\n        /* \"Day-04/D4P1.sol\":381:382  C */\n      dup3\n        /* \"Day-04/D4P1.sol\":383:384  i */\n      dup3\n        /* \"Day-04/D4P1.sol\":381:385  C[i] */\n      dup2\n      mload\n      dup2\n      lt\n      tag_110\n      jumpi\n      tag_111\n      tag_23\n      jump\t// in\n    tag_111:\n    tag_110:\n      0x20\n      mul\n      0x20\n      add\n      add\n        /* \"Day-04/D4P1.sol\":381:406  C[i] = new int256[](cols) */\n      dup2\n      swap1\n      mstore\n      pop\n        /* \"Day-04/D4P1.sol\":426:435  uint256 j */\n      0x00\n        /* \"Day-04/D4P1.sol\":421:518  for (uint256 j = 0; j < cols; j++) {... */\n    tag_112:\n        /* \"Day-04/D4P1.sol\":445:449  cols */\n      dup4\n        /* \"Day-04/D4P1.sol\":441:442  j */\n      dup2\n        /* \"Day-04/D4P1.sol\":441:449  j < cols */\n      lt\n        /* \"Day-04/D4P1.sol\":421:518  for (uint256 j = 0; j < cols; j++) {... */\n      iszero\n      tag_113\n      jumpi\n        /* \"Day-04/D4P1.sol\":495:496  B */\n      dup7\n        /* \"Day-04/D4P1.sol\":497:498  i */\n      dup3\n        /* \"Day-04/D4P1.sol\":495:499  B[i] */\n      dup2\n      mload\n      dup2\n      lt\n      tag_115\n      jumpi\n      tag_116\n      tag_23\n      jump\t// in\n    tag_116:\n    tag_115:\n      0x20\n      mul\n      0x20\n      add\n      add\n      mload\n        /* \"Day-04/D4P1.sol\":500:501  j */\n      dup2\n        /* \"Day-04/D4P1.sol\":495:502  B[i][j] */\n      dup2\n      mload\n      dup2\n      lt\n      tag_117\n      jumpi\n      tag_118\n      tag_23\n      jump\t// in\n    tag_118:\n    tag_117:\n      0x20\n      mul\n      0x20\n      add\n      add\n      mload\n        /* \"Day-04/D4P1.sol\":485:486  A */\n      dup9\n        /* \"Day-04/D4P1.sol\":487:488  i */\n      dup4\n        /* \"Day-04/D4P1.sol\":485:489  A[i] */\n      dup2\n      mload\n      dup2\n      lt\n      tag_119\n      jumpi\n      tag_120\n      tag_23\n      jump\t// in\n    tag_120:\n    tag_119:\n      0x20\n      mul\n      0x20\n      add\n      add\n      mload\n        /* \"Day-04/D4P1.sol\":490:491  j */\n      dup3\n        /* \"Day-04/D4P1.sol\":485:492  A[i][j] */\n      dup2\n      mload\n      dup2\n      lt\n      tag_121\n      jumpi\n      tag_122\n      tag_23\n      jump\t// in\n    tag_122:\n    tag_121:\n      0x20\n      mul\n      0x20\n      add\n      add\n      mload\n        /* \"Day-04/D4P1.sol\":485:502  A[i][j] + B[i][j] */\n      tag_123\n      swap2\n      swap1\n      tag_64\n      jump\t// in\n    tag_123:\n        /* \"Day-04/D4P1.sol\":475:476  C */\n      dup4\n        /* \"Day-04/D4P1.sol\":477:478  i */\n      dup4\n        /* \"Day-04/D4P1.sol\":475:479  C[i] */\n      dup2\n      mload\n      dup2\n      lt\n      tag_124\n      jumpi\n      tag_125\n      tag_23\n      jump\t// in\n    tag_125:\n    tag_124:\n      0x20\n      mul\n      0x20\n      add\n      add\n      mload\n        /* \"Day-04/D4P1.sol\":480:481  j */\n      dup3\n        /* \"Day-04/D4P1.sol\":475:482  C[i][j] */\n      dup2\n      mload\n      dup2\n      lt\n      tag_126\n      jumpi\n      tag_127\n      tag_23\n      jump\t// in\n    tag_127:\n    tag_126:\n      0x20\n      mul\n      0x20\n      add\n      add\n        /* \"Day-04/D4P1.sol\":475:502  C[i][j] = A[i][j] + B[i][j] */\n      dup2\n      dup2\n      mstore\n      pop\n      pop\n        /* \"Day-04/D4P1.sol\":451:454  j++ */\n      dup1\n      dup1\n      0x01\n      add\n      swap2\n      pop\n      pop\n        /* \"Day-04/D4P1.sol\":421:518  for (uint256 j = 0; j < cols; j++) {... */\n      jump(tag_112)\n    tag_113:\n      pop\n        /* \"Day-04/D4P1.sol\":361:364  i++ */\n      dup1\n      dup1\n      0x01\n      add\n      swap2\n      pop\n      pop\n        /* \"Day-04/D4P1.sol\":331:529  for (uint256 i = 0; i < rows; i++) {... */\n      jump(tag_104)\n    tag_105:\n      pop\n        /* \"Day-04/D4P1.sol\":546:547  C */\n      dup1\n        /* \"Day-04/D4P1.sol\":539:547  return C */\n      swap4\n      pop\n      pop\n      pop\n      pop\n        /* \"Day-04/D4P1.sol\":93:555  function addMatrices(int256[][] memory A, int256[][] memory B) public pure returns (int256[][] memory) {... */\n      swap3\n      swap2\n      pop\n      pop\n      jump\t// out\n        /* \"#utility.yul\":7:82   */\n    tag_128:\n        /* \"#utility.yul\":40:46   */\n      0x00\n        /* \"#utility.yul\":73:75   */\n      0x40\n        /* \"#utility.yul\":67:76   */\n      mload\n        /* \"#utility.yul\":57:76   */\n      swap1\n      pop\n        /* \"#utility.yul\":7:82   */\n      swap1\n      jump\t// out\n        /* \"#utility.yul\":88:205   */\n    tag_129:\n        /* \"#utility.yul\":197:198   */\n      0x00\n        /* \"#utility.yul\":194:195   */\n      dup1\n        /* \"#utility.yul\":187:199   */\n      revert\n        /* \"#utility.yul\":211:328   */\n    tag_130:\n        /* \"#utility.yul\":320:321   */\n      0x00\n        /* \"#utility.yul\":317:318   */\n      dup1\n        /* \"#utility.yul\":310:322   */\n      revert\n        /* \"#utility.yul\":334:451   */\n    tag_131:\n        /* \"#utility.yul\":443:444   */\n      0x00\n        /* \"#utility.yul\":440:441   */\n      dup1\n        /* \"#utility.yul\":433:445   */\n      revert\n        /* \"#utility.yul\":457:559   */\n    tag_132:\n        /* \"#utility.yul\":498:504   */\n      0x00\n        /* \"#utility.yul\":549:551   */\n      0x1f\n        /* \"#utility.yul\":545:552   */\n      not\n        /* \"#utility.yul\":540:542   */\n      0x1f\n        /* \"#utility.yul\":533:538   */\n      dup4\n        /* \"#utility.yul\":529:543   */\n      add\n        /* \"#utility.yul\":525:553   */\n      and\n        /* \"#utility.yul\":515:553   */\n      swap1\n      pop\n        /* \"#utility.yul\":457:559   */\n      swap2\n      swap1\n      pop\n      jump\t// out\n        /* \"#utility.yul\":565:745   */\n    tag_28:\n        /* \"#utility.yul\":613:690   */\n      0x4e487b7100000000000000000000000000000000000000000000000000000000\n        /* \"#utility.yul\":610:611   */\n      0x00\n        /* \"#utility.yul\":603:691   */\n      mstore\n        /* \"#utility.yul\":710:714   */\n      0x41\n        /* \"#utility.yul\":707:708   */\n      0x04\n        /* \"#utility.yul\":700:715   */\n      mstore\n        /* \"#utility.yul\":734:738   */\n      0x24\n        /* \"#utility.yul\":731:732   */\n      0x00\n        /* \"#utility.yul\":724:739   */\n      revert\n        /* \"#utility.yul\":751:1032   */\n    tag_133:\n        /* \"#utility.yul\":834:861   */\n      tag_167\n        /* \"#utility.yul\":856:860   */\n      dup3\n        /* \"#utility.yul\":834:861   */\n      tag_132\n      jump\t// in\n    tag_167:\n        /* \"#utility.yul\":826:832   */\n      dup2\n        /* \"#utility.yul\":822:862   */\n      add\n        /* \"#utility.yul\":964:970   */\n      dup2\n        /* \"#utility.yul\":952:962   */\n      dup2\n        /* \"#utility.yul\":949:971   */\n      lt\n        /* \"#utility.yul\":928:946   */\n      0xffffffffffffffff\n        /* \"#utility.yul\":916:926   */\n      dup3\n        /* \"#utility.yul\":913:947   */\n      gt\n        /* \"#utility.yul\":910:972   */\n      or\n        /* \"#utility.yul\":907:995   */\n      iszero\n      tag_168\n      jumpi\n        /* \"#utility.yul\":975:993   */\n      tag_169\n      tag_28\n      jump\t// in\n    tag_169:\n        /* \"#utility.yul\":907:995   */\n    tag_168:\n        /* \"#utility.yul\":1015:1025   */\n      dup1\n        /* \"#utility.yul\":1011:1013   */\n      0x40\n        /* \"#utility.yul\":1004:1026   */\n      mstore\n        /* \"#utility.yul\":794:1032   */\n      pop\n        /* \"#utility.yul\":751:1032   */\n      pop\n      pop\n      jump\t// out\n        /* \"#utility.yul\":1038:1167   */\n    tag_134:\n        /* \"#utility.yul\":1072:1078   */\n      0x00\n        /* \"#utility.yul\":1099:1119   */\n      tag_171\n      tag_128\n      jump\t// in\n    tag_171:\n        /* \"#utility.yul\":1089:1119   */\n      swap1\n      pop\n        /* \"#utility.yul\":1128:1161   */\n      tag_172\n        /* \"#utility.yul\":1156:1160   */\n      dup3\n        /* \"#utility.yul\":1148:1154   */\n      dup3\n        /* \"#utility.yul\":1128:1161   */\n      tag_133\n      jump\t// in\n    tag_172:\n        /* \"#utility.yul\":1038:1167   */\n      swap2\n      swap1\n      pop\n      jump\t// out\n        /* \"#utility.yul\":1173:1508   */\n    tag_135:\n        /* \"#utility.yul\":1274:1278   */\n      0x00\n        /* \"#utility.yul\":1364:1382   */\n      0xffffffffffffffff\n        /* \"#utility.yul\":1356:1362   */\n      dup3\n        /* \"#utility.yul\":1353:1383   */\n      gt\n        /* \"#utility.yul\":1350:1406   */\n      iszero\n      tag_174\n      jumpi\n        /* \"#utility.yul\":1386:1404   */\n      tag_175\n      tag_28\n      jump\t// in\n    tag_175:\n        /* \"#utility.yul\":1350:1406   */\n    tag_174:\n        /* \"#utility.yul\":1436:1440   */\n      0x20\n        /* \"#utility.yul\":1428:1434   */\n      dup3\n        /* \"#utility.yul\":1424:1441   */\n      mul\n        /* \"#utility.yul\":1416:1441   */\n      swap1\n      pop\n        /* \"#utility.yul\":1496:1500   */\n      0x20\n        /* \"#utility.yul\":1490:1494   */\n      dup2\n        /* \"#utility.yul\":1486:1501   */\n      add\n        /* \"#utility.yul\":1478:1501   */\n      swap1\n      pop\n        /* \"#utility.yul\":1173:1508   */\n      swap2\n      swap1\n      pop\n      jump\t// out\n        /* \"#utility.yul\":1514:1631   */\n    tag_136:\n        /* \"#utility.yul\":1623:1624   */\n      0x00\n        /* \"#utility.yul\":1620:1621   */\n      dup1\n        /* \"#utility.yul\":1613:1625   */\n      revert\n        /* \"#utility.yul\":1637:1947   */\n    tag_137:\n        /* \"#utility.yul\":1713:1717   */\n      0x00\n        /* \"#utility.yul\":1803:1821   */\n      0xffffffffffffffff\n        /* \"#utility.yul\":1795:1801   */\n      dup3\n        /* \"#utility.yul\":1792:1822   */\n      gt\n        /* \"#utility.yul\":1789:1845   */\n      iszero\n      tag_178\n      jumpi\n        /* \"#utility.yul\":1825:1843   */\n      tag_179\n      tag_28\n      jump\t// in\n    tag_179:\n        /* \"#utility.yul\":1789:1845   */\n    tag_178:\n        /* \"#utility.yul\":1875:1879   */\n      0x20\n        /* \"#utility.yul\":1867:1873   */\n      dup3\n        /* \"#utility.yul\":1863:1880   */\n      mul\n        /* \"#utility.yul\":1855:1880   */\n      swap1\n      pop\n        /* \"#utility.yul\":1935:1939   */\n      0x20\n        /* \"#utility.yul\":1929:1933   */\n      dup2\n        /* \"#utility.yul\":1925:1940   */\n      add\n        /* \"#utility.yul\":1917:1940   */\n      swap1\n      pop\n        /* \"#utility.yul\":1637:1947   */\n      swap2\n      swap1\n      pop\n      jump\t// out\n        /* \"#utility.yul\":1953:2029   */\n    tag_138:\n        /* \"#utility.yul\":1989:1996   */\n      0x00\n        /* \"#utility.yul\":2018:2023   */\n      dup2\n        /* \"#utility.yul\":2007:2023   */\n      swap1\n      pop\n        /* \"#utility.yul\":1953:2029   */\n      swap2\n      swap1\n      pop\n      jump\t// out\n        /* \"#utility.yul\":2035:2155   */\n    tag_139:\n        /* \"#utility.yul\":2107:2130   */\n      tag_182\n        /* \"#utility.yul\":2124:2129   */\n      dup2\n        /* \"#utility.yul\":2107:2130   */\n      tag_138\n      jump\t// in\n    tag_182:\n        /* \"#utility.yul\":2100:2105   */\n      dup2\n        /* \"#utility.yul\":2097:2131   */\n      eq\n        /* \"#utility.yul\":2087:2149   */\n      tag_183\n      jumpi\n        /* \"#utility.yul\":2145:2146   */\n      0x00\n        /* \"#utility.yul\":2142:2143   */\n      dup1\n        /* \"#utility.yul\":2135:2147   */\n      revert\n        /* \"#utility.yul\":2087:2149   */\n    tag_183:\n        /* \"#utility.yul\":2035:2155   */\n      pop\n      jump\t// out\n        /* \"#utility.yul\":2161:2298   */\n    tag_140:\n        /* \"#utility.yul\":2206:2211   */\n      0x00\n        /* \"#utility.yul\":2244:2250   */\n      dup2\n        /* \"#utility.yul\":2231:2251   */\n      calldataload\n        /* \"#utility.yul\":2222:2251   */\n      swap1\n      pop\n        /* \"#utility.yul\":2260:2292   */\n      tag_185\n        /* \"#utility.yul\":2286:2291   */\n      dup2\n        /* \"#utility.yul\":2260:2292   */\n      tag_139\n      jump\t// in\n    tag_185:\n        /* \"#utility.yul\":2161:2298   */\n      swap3\n      swap2\n      pop\n      pop\n      jump\t// out\n        /* \"#utility.yul\":2320:3027   */\n    tag_141:\n        /* \"#utility.yul\":2415:2420   */\n      0x00\n        /* \"#utility.yul\":2440:2520   */\n      tag_187\n        /* \"#utility.yul\":2456:2519   */\n      tag_188\n        /* \"#utility.yul\":2512:2518   */\n      dup5\n        /* \"#utility.yul\":2456:2519   */\n      tag_137\n      jump\t// in\n    tag_188:\n        /* \"#utility.yul\":2440:2520   */\n      tag_134\n      jump\t// in\n    tag_187:\n        /* \"#utility.yul\":2431:2520   */\n      swap1\n      pop\n        /* \"#utility.yul\":2540:2545   */\n      dup1\n        /* \"#utility.yul\":2569:2575   */\n      dup4\n        /* \"#utility.yul\":2562:2567   */\n      dup3\n        /* \"#utility.yul\":2555:2576   */\n      mstore\n        /* \"#utility.yul\":2603:2607   */\n      0x20\n        /* \"#utility.yul\":2596:2601   */\n      dup3\n        /* \"#utility.yul\":2592:2608   */\n      add\n        /* \"#utility.yul\":2585:2608   */\n      swap1\n      pop\n        /* \"#utility.yul\":2656:2660   */\n      0x20\n        /* \"#utility.yul\":2648:2654   */\n      dup5\n        /* \"#utility.yul\":2644:2661   */\n      mul\n        /* \"#utility.yul\":2636:2642   */\n      dup4\n        /* \"#utility.yul\":2632:2662   */\n      add\n        /* \"#utility.yul\":2685:2688   */\n      dup6\n        /* \"#utility.yul\":2677:2683   */\n      dup2\n        /* \"#utility.yul\":2674:2689   */\n      gt\n        /* \"#utility.yul\":2671:2793   */\n      iszero\n      tag_189\n      jumpi\n        /* \"#utility.yul\":2704:2783   */\n      tag_190\n      tag_136\n      jump\t// in\n    tag_190:\n        /* \"#utility.yul\":2671:2793   */\n    tag_189:\n        /* \"#utility.yul\":2819:2825   */\n      dup4\n        /* \"#utility.yul\":2802:3021   */\n    tag_191:\n        /* \"#utility.yul\":2836:2842   */\n      dup2\n        /* \"#utility.yul\":2831:2834   */\n      dup2\n        /* \"#utility.yul\":2828:2843   */\n      lt\n        /* \"#utility.yul\":2802:3021   */\n      iszero\n      tag_193\n      jumpi\n        /* \"#utility.yul\":2911:2914   */\n      dup1\n        /* \"#utility.yul\":2940:2976   */\n      tag_194\n        /* \"#utility.yul\":2972:2975   */\n      dup9\n        /* \"#utility.yul\":2960:2970   */\n      dup3\n        /* \"#utility.yul\":2940:2976   */\n      tag_140\n      jump\t// in\n    tag_194:\n        /* \"#utility.yul\":2935:2938   */\n      dup5\n        /* \"#utility.yul\":2928:2977   */\n      mstore\n        /* \"#utility.yul\":3006:3010   */\n      0x20\n        /* \"#utility.yul\":3001:3004   */\n      dup5\n        /* \"#utility.yul\":2997:3011   */\n      add\n        /* \"#utility.yul\":2990:3011   */\n      swap4\n      pop\n        /* \"#utility.yul\":2878:3021   */\n      pop\n        /* \"#utility.yul\":2862:2866   */\n      0x20\n        /* \"#utility.yul\":2857:2860   */\n      dup2\n        /* \"#utility.yul\":2853:2867   */\n      add\n        /* \"#utility.yul\":2846:2867   */\n      swap1\n      pop\n        /* \"#utility.yul\":2802:3021   */\n      jump(tag_191)\n    tag_193:\n        /* \"#utility.yul\":2806:2827   */\n      pop\n        /* \"#utility.yul\":2421:3027   */\n      pop\n      pop\n        /* \"#utility.yul\":2320:3027   */\n      swap4\n      swap3\n      pop\n      pop\n      pop\n      jump\t// out\n        /* \"#utility.yul\":3049:3417   */\n    tag_142:\n        /* \"#utility.yul\":3119:3124   */\n      0x00\n        /* \"#utility.yul\":3168:3171   */\n      dup3\n        /* \"#utility.yul\":3161:3165   */\n      0x1f\n        /* \"#utility.yul\":3153:3159   */\n      dup4\n        /* \"#utility.yul\":3149:3166   */\n      add\n        /* \"#utility.yul\":3145:3172   */\n      slt\n        /* \"#utility.yul\":3135:3257   */\n      tag_196\n      jumpi\n        /* \"#utility.yul\":3176:3255   */\n      tag_197\n      tag_131\n      jump\t// in\n    tag_197:\n        /* \"#utility.yul\":3135:3257   */\n    tag_196:\n        /* \"#utility.yul\":3293:3299   */\n      dup2\n        /* \"#utility.yul\":3280:3300   */\n      calldataload\n        /* \"#utility.yul\":3318:3411   */\n      tag_198\n        /* \"#utility.yul\":3407:3410   */\n      dup5\n        /* \"#utility.yul\":3399:3405   */\n      dup3\n        /* \"#utility.yul\":3392:3396   */\n      0x20\n        /* \"#utility.yul\":3384:3390   */\n      dup7\n        /* \"#utility.yul\":3380:3397   */\n      add\n        /* \"#utility.yul\":3318:3411   */\n      tag_141\n      jump\t// in\n    tag_198:\n        /* \"#utility.yul\":3309:3411   */\n      swap2\n      pop\n        /* \"#utility.yul\":3125:3417   */\n      pop\n        /* \"#utility.yul\":3049:3417   */\n      swap3\n      swap2\n      pop\n      pop\n      jump\t// out\n        /* \"#utility.yul\":3441:4428   */\n    tag_143:\n        /* \"#utility.yul\":3561:3566   */\n      0x00\n        /* \"#utility.yul\":3586:3691   */\n      tag_200\n        /* \"#utility.yul\":3602:3690   */\n      tag_201\n        /* \"#utility.yul\":3683:3689   */\n      dup5\n        /* \"#utility.yul\":3602:3690   */\n      tag_135\n      jump\t// in\n    tag_201:\n        /* \"#utility.yul\":3586:3691   */\n      tag_134\n      jump\t// in\n    tag_200:\n        /* \"#utility.yul\":3577:3691   */\n      swap1\n      pop\n        /* \"#utility.yul\":3711:3716   */\n      dup1\n        /* \"#utility.yul\":3740:3746   */\n      dup4\n        /* \"#utility.yul\":3733:3738   */\n      dup3\n        /* \"#utility.yul\":3726:3747   */\n      mstore\n        /* \"#utility.yul\":3774:3778   */\n      0x20\n        /* \"#utility.yul\":3767:3772   */\n      dup3\n        /* \"#utility.yul\":3763:3779   */\n      add\n        /* \"#utility.yul\":3756:3779   */\n      swap1\n      pop\n        /* \"#utility.yul\":3827:3831   */\n      0x20\n        /* \"#utility.yul\":3819:3825   */\n      dup5\n        /* \"#utility.yul\":3815:3832   */\n      mul\n        /* \"#utility.yul\":3807:3813   */\n      dup4\n        /* \"#utility.yul\":3803:3833   */\n      add\n        /* \"#utility.yul\":3856:3859   */\n      dup6\n        /* \"#utility.yul\":3848:3854   */\n      dup2\n        /* \"#utility.yul\":3845:3860   */\n      gt\n        /* \"#utility.yul\":3842:3964   */\n      iszero\n      tag_202\n      jumpi\n        /* \"#utility.yul\":3875:3954   */\n      tag_203\n      tag_136\n      jump\t// in\n    tag_203:\n        /* \"#utility.yul\":3842:3964   */\n    tag_202:\n        /* \"#utility.yul\":3990:3996   */\n      dup4\n        /* \"#utility.yul\":3973:4422   */\n    tag_204:\n        /* \"#utility.yul\":4007:4013   */\n      dup2\n        /* \"#utility.yul\":4002:4005   */\n      dup2\n        /* \"#utility.yul\":3999:4014   */\n      lt\n        /* \"#utility.yul\":3973:4422   */\n      iszero\n      tag_206\n      jumpi\n        /* \"#utility.yul\":4096:4099   */\n      dup1\n        /* \"#utility.yul\":4083:4100   */\n      calldataload\n        /* \"#utility.yul\":4132:4150   */\n      0xffffffffffffffff\n        /* \"#utility.yul\":4119:4130   */\n      dup2\n        /* \"#utility.yul\":4116:4151   */\n      gt\n        /* \"#utility.yul\":4113:4235   */\n      iszero\n      tag_207\n      jumpi\n        /* \"#utility.yul\":4154:4233   */\n      tag_208\n      tag_131\n      jump\t// in\n    tag_208:\n        /* \"#utility.yul\":4113:4235   */\n    tag_207:\n        /* \"#utility.yul\":4278:4289   */\n      dup1\n        /* \"#utility.yul\":4270:4276   */\n      dup7\n        /* \"#utility.yul\":4266:4290   */\n      add\n        /* \"#utility.yul\":4316:4377   */\n      tag_209\n        /* \"#utility.yul\":4373:4376   */\n      dup10\n        /* \"#utility.yul\":4361:4371   */\n      dup3\n        /* \"#utility.yul\":4316:4377   */\n      tag_142\n      jump\t// in\n    tag_209:\n        /* \"#utility.yul\":4311:4314   */\n      dup6\n        /* \"#utility.yul\":4304:4378   */\n      mstore\n        /* \"#utility.yul\":4407:4411   */\n      0x20\n        /* \"#utility.yul\":4402:4405   */\n      dup6\n        /* \"#utility.yul\":4398:4412   */\n      add\n        /* \"#utility.yul\":4391:4412   */\n      swap5\n      pop\n        /* \"#utility.yul\":4049:4422   */\n      pop\n      pop\n        /* \"#utility.yul\":4033:4037   */\n      0x20\n        /* \"#utility.yul\":4028:4031   */\n      dup2\n        /* \"#utility.yul\":4024:4038   */\n      add\n        /* \"#utility.yul\":4017:4038   */\n      swap1\n      pop\n        /* \"#utility.yul\":3973:4422   */\n      jump(tag_204)\n    tag_206:\n        /* \"#utility.yul\":3977:3998   */\n      pop\n        /* \"#utility.yul\":3567:4428   */\n      pop\n      pop\n        /* \"#utility.yul\":3441:4428   */\n      swap4\n      swap3\n      pop\n      pop\n      pop\n      jump\t// out\n        /* \"#utility.yul\":4452:4870   */\n    tag_144:\n        /* \"#utility.yul\":4547:4552   */\n      0x00\n        /* \"#utility.yul\":4596:4599   */\n      dup3\n        /* \"#utility.yul\":4589:4593   */\n      0x1f\n        /* \"#utility.yul\":4581:4587   */\n      dup4\n        /* \"#utility.yul\":4577:4594   */\n      add\n        /* \"#utility.yul\":4573:4600   */\n      slt\n        /* \"#utility.yul\":4563:4685   */\n      tag_211\n      jumpi\n        /* \"#utility.yul\":4604:4683   */\n      tag_212\n      tag_131\n      jump\t// in\n    tag_212:\n        /* \"#utility.yul\":4563:4685   */\n    tag_211:\n        /* \"#utility.yul\":4721:4727   */\n      dup2\n        /* \"#utility.yul\":4708:4728   */\n      calldataload\n        /* \"#utility.yul\":4746:4864   */\n      tag_213\n        /* \"#utility.yul\":4860:4863   */\n      dup5\n        /* \"#utility.yul\":4852:4858   */\n      dup3\n        /* \"#utility.yul\":4845:4849   */\n      0x20\n        /* \"#utility.yul\":4837:4843   */\n      dup7\n        /* \"#utility.yul\":4833:4850   */\n      add\n        /* \"#utility.yul\":4746:4864   */\n      tag_143\n      jump\t// in\n    tag_213:\n        /* \"#utility.yul\":4737:4864   */\n      swap2\n      pop\n        /* \"#utility.yul\":4553:4870   */\n      pop\n        /* \"#utility.yul\":4452:4870   */\n      swap3\n      swap2\n      pop\n      pop\n      jump\t// out\n        /* \"#utility.yul\":4876:5866   */\n    tag_8:\n        /* \"#utility.yul\":5042:5048   */\n      0x00\n        /* \"#utility.yul\":5050:5056   */\n      dup1\n        /* \"#utility.yul\":5099:5101   */\n      0x40\n        /* \"#utility.yul\":5087:5096   */\n      dup4\n        /* \"#utility.yul\":5078:5085   */\n      dup6\n        /* \"#utility.yul\":5074:5097   */\n      sub\n        /* \"#utility.yul\":5070:5102   */\n      slt\n        /* \"#utility.yul\":5067:5186   */\n      iszero\n      tag_215\n      jumpi\n        /* \"#utility.yul\":5105:5184   */\n      tag_216\n      tag_129\n      jump\t// in\n    tag_216:\n        /* \"#utility.yul\":5067:5186   */\n    tag_215:\n        /* \"#utility.yul\":5253:5254   */\n      0x00\n        /* \"#utility.yul\":5242:5251   */\n      dup4\n        /* \"#utility.yul\":5238:5255   */\n      add\n        /* \"#utility.yul\":5225:5256   */\n      calldataload\n        /* \"#utility.yul\":5283:5301   */\n      0xffffffffffffffff\n        /* \"#utility.yul\":5275:5281   */\n      dup2\n        /* \"#utility.yul\":5272:5302   */\n      gt\n        /* \"#utility.yul\":5269:5386   */\n      iszero\n      tag_217\n      jumpi\n        /* \"#utility.yul\":5305:5384   */\n      tag_218\n      tag_130\n      jump\t// in\n    tag_218:\n        /* \"#utility.yul\":5269:5386   */\n    tag_217:\n        /* \"#utility.yul\":5410:5512   */\n      tag_219\n        /* \"#utility.yul\":5504:5511   */\n      dup6\n        /* \"#utility.yul\":5495:5501   */\n      dup3\n        /* \"#utility.yul\":5484:5493   */\n      dup7\n        /* \"#utility.yul\":5480:5502   */\n      add\n        /* \"#utility.yul\":5410:5512   */\n      tag_144\n      jump\t// in\n    tag_219:\n        /* \"#utility.yul\":5400:5512   */\n      swap3\n      pop\n        /* \"#utility.yul\":5196:5522   */\n      pop\n        /* \"#utility.yul\":5589:5591   */\n      0x20\n        /* \"#utility.yul\":5578:5587   */\n      dup4\n        /* \"#utility.yul\":5574:5592   */\n      add\n        /* \"#utility.yul\":5561:5593   */\n      calldataload\n        /* \"#utility.yul\":5620:5638   */\n      0xffffffffffffffff\n        /* \"#utility.yul\":5612:5618   */\n      dup2\n        /* \"#utility.yul\":5609:5639   */\n      gt\n        /* \"#utility.yul\":5606:5723   */\n      iszero\n      tag_220\n      jumpi\n        /* \"#utility.yul\":5642:5721   */\n      tag_221\n      tag_130\n      jump\t// in\n    tag_221:\n        /* \"#utility.yul\":5606:5723   */\n    tag_220:\n        /* \"#utility.yul\":5747:5849   */\n      tag_222\n        /* \"#utility.yul\":5841:5848   */\n      dup6\n        /* \"#utility.yul\":5832:5838   */\n      dup3\n        /* \"#utility.yul\":5821:5830   */\n      dup7\n        /* \"#utility.yul\":5817:5839   */\n      add\n        /* \"#utility.yul\":5747:5849   */\n      tag_144\n      jump\t// in\n    tag_222:\n        /* \"#utility.yul\":5737:5849   */\n      swap2\n      pop\n        /* \"#utility.yul\":5532:5859   */\n      pop\n        /* \"#utility.yul\":4876:5866   */\n      swap3\n      pop\n      swap3\n      swap1\n      pop\n      jump\t// out\n        /* \"#utility.yul\":5872:6010   */\n    tag_145:\n        /* \"#utility.yul\":5963:5969   */\n      0x00\n        /* \"#utility.yul\":5997:6002   */\n      dup2\n        /* \"#utility.yul\":5991:6003   */\n      mload\n        /* \"#utility.yul\":5981:6003   */\n      swap1\n      pop\n        /* \"#utility.yul\":5872:6010   */\n      swap2\n      swap1\n      pop\n      jump\t// out\n        /* \"#utility.yul\":6016:6224   */\n    tag_146:\n        /* \"#utility.yul\":6139:6150   */\n      0x00\n        /* \"#utility.yul\":6173:6179   */\n      dup3\n        /* \"#utility.yul\":6168:6171   */\n      dup3\n        /* \"#utility.yul\":6161:6180   */\n      mstore\n        /* \"#utility.yul\":6213:6217   */\n      0x20\n        /* \"#utility.yul\":6208:6211   */\n      dup3\n        /* \"#utility.yul\":6204:6218   */\n      add\n        /* \"#utility.yul\":6189:6218   */\n      swap1\n      pop\n        /* \"#utility.yul\":6016:6224   */\n      swap3\n      swap2\n      pop\n      pop\n      jump\t// out\n        /* \"#utility.yul\":6230:6386   */\n    tag_147:\n        /* \"#utility.yul\":6321:6325   */\n      0x00\n        /* \"#utility.yul\":6344:6347   */\n      dup2\n        /* \"#utility.yul\":6336:6347   */\n      swap1\n      pop\n        /* \"#utility.yul\":6374:6378   */\n      0x20\n        /* \"#utility.yul\":6369:6372   */\n      dup3\n        /* \"#utility.yul\":6365:6379   */\n      add\n        /* \"#utility.yul\":6357:6379   */\n      swap1\n      pop\n        /* \"#utility.yul\":6230:6386   */\n      swap2\n      swap1\n      pop\n      jump\t// out\n        /* \"#utility.yul\":6392:6505   */\n    tag_148:\n        /* \"#utility.yul\":6458:6464   */\n      0x00\n        /* \"#utility.yul\":6492:6497   */\n      dup2\n        /* \"#utility.yul\":6486:6498   */\n      mload\n        /* \"#utility.yul\":6476:6498   */\n      swap1\n      pop\n        /* \"#utility.yul\":6392:6505   */\n      swap2\n      swap1\n      pop\n      jump\t// out\n        /* \"#utility.yul\":6511:6684   */\n    tag_149:\n        /* \"#utility.yul\":6599:6610   */\n      0x00\n        /* \"#utility.yul\":6633:6639   */\n      dup3\n        /* \"#utility.yul\":6628:6631   */\n      dup3\n        /* \"#utility.yul\":6621:6640   */\n      mstore\n        /* \"#utility.yul\":6673:6677   */\n      0x20\n        /* \"#utility.yul\":6668:6671   */\n      dup3\n        /* \"#utility.yul\":6664:6678   */\n      add\n        /* \"#utility.yul\":6649:6678   */\n      swap1\n      pop\n        /* \"#utility.yul\":6511:6684   */\n      swap3\n      swap2\n      pop\n      pop\n      jump\t// out\n        /* \"#utility.yul\":6690:6821   */\n    tag_150:\n        /* \"#utility.yul\":6756:6760   */\n      0x00\n        /* \"#utility.yul\":6779:6782   */\n      dup2\n        /* \"#utility.yul\":6771:6782   */\n      swap1\n      pop\n        /* \"#utility.yul\":6809:6813   */\n      0x20\n        /* \"#utility.yul\":6804:6807   */\n      dup3\n        /* \"#utility.yul\":6800:6814   */\n      add\n        /* \"#utility.yul\":6792:6814   */\n      swap1\n      pop\n        /* \"#utility.yul\":6690:6821   */\n      swap2\n      swap1\n      pop\n      jump\t// out\n        /* \"#utility.yul\":6827:6932   */\n    tag_151:\n        /* \"#utility.yul\":6902:6925   */\n      tag_230\n        /* \"#utility.yul\":6919:6924   */\n      dup2\n        /* \"#utility.yul\":6902:6925   */\n      tag_138\n      jump\t// in\n    tag_230:\n        /* \"#utility.yul\":6897:6900   */\n      dup3\n        /* \"#utility.yul\":6890:6926   */\n      mstore\n        /* \"#utility.yul\":6827:6932   */\n      pop\n      pop\n      jump\t// out\n        /* \"#utility.yul\":6938:7113   */\n    tag_152:\n        /* \"#utility.yul\":7005:7015   */\n      0x00\n        /* \"#utility.yul\":7026:7070   */\n      tag_232\n        /* \"#utility.yul\":7066:7069   */\n      dup4\n        /* \"#utility.yul\":7058:7064   */\n      dup4\n        /* \"#utility.yul\":7026:7070   */\n      tag_151\n      jump\t// in\n    tag_232:\n        /* \"#utility.yul\":7102:7106   */\n      0x20\n        /* \"#utility.yul\":7097:7100   */\n      dup4\n        /* \"#utility.yul\":7093:7107   */\n      add\n        /* \"#utility.yul\":7079:7107   */\n      swap1\n      pop\n        /* \"#utility.yul\":6938:7113   */\n      swap3\n      swap2\n      pop\n      pop\n      jump\t// out\n        /* \"#utility.yul\":7119:7231   */\n    tag_153:\n        /* \"#utility.yul\":7188:7192   */\n      0x00\n        /* \"#utility.yul\":7220:7224   */\n      0x20\n        /* \"#utility.yul\":7215:7218   */\n      dup3\n        /* \"#utility.yul\":7211:7225   */\n      add\n        /* \"#utility.yul\":7203:7225   */\n      swap1\n      pop\n        /* \"#utility.yul\":7119:7231   */\n      swap2\n      swap1\n      pop\n      jump\t// out\n        /* \"#utility.yul\":7265:7969   */\n    tag_154:\n        /* \"#utility.yul\":7372:7375   */\n      0x00\n        /* \"#utility.yul\":7401:7454   */\n      tag_235\n        /* \"#utility.yul\":7448:7453   */\n      dup3\n        /* \"#utility.yul\":7401:7454   */\n      tag_148\n      jump\t// in\n    tag_235:\n        /* \"#utility.yul\":7470:7545   */\n      tag_236\n        /* \"#utility.yul\":7538:7544   */\n      dup2\n        /* \"#utility.yul\":7533:7536   */\n      dup6\n        /* \"#utility.yul\":7470:7545   */\n      tag_149\n      jump\t// in\n    tag_236:\n        /* \"#utility.yul\":7463:7545   */\n      swap4\n      pop\n        /* \"#utility.yul\":7569:7624   */\n      tag_237\n        /* \"#utility.yul\":7618:7623   */\n      dup4\n        /* \"#utility.yul\":7569:7624   */\n      tag_150\n      jump\t// in\n    tag_237:\n        /* \"#utility.yul\":7647:7654   */\n      dup1\n        /* \"#utility.yul\":7678:7679   */\n      0x00\n        /* \"#utility.yul\":7663:7944   */\n    tag_238:\n        /* \"#utility.yul\":7688:7694   */\n      dup4\n        /* \"#utility.yul\":7685:7686   */\n      dup2\n        /* \"#utility.yul\":7682:7695   */\n      lt\n        /* \"#utility.yul\":7663:7944   */\n      iszero\n      tag_240\n      jumpi\n        /* \"#utility.yul\":7764:7770   */\n      dup2\n        /* \"#utility.yul\":7758:7771   */\n      mload\n        /* \"#utility.yul\":7791:7852   */\n      tag_241\n        /* \"#utility.yul\":7848:7851   */\n      dup9\n        /* \"#utility.yul\":7833:7846   */\n      dup3\n        /* \"#utility.yul\":7791:7852   */\n      tag_152\n      jump\t// in\n    tag_241:\n        /* \"#utility.yul\":7784:7852   */\n      swap8\n      pop\n        /* \"#utility.yul\":7875:7934   */\n      tag_242\n        /* \"#utility.yul\":7927:7933   */\n      dup4\n        /* \"#utility.yul\":7875:7934   */\n      tag_153\n      jump\t// in\n    tag_242:\n        /* \"#utility.yul\":7865:7934   */\n      swap3\n      pop\n        /* \"#utility.yul\":7723:7944   */\n      pop\n        /* \"#utility.yul\":7710:7711   */\n      0x01\n        /* \"#utility.yul\":7707:7708   */\n      dup2\n        /* \"#utility.yul\":7703:7712   */\n      add\n        /* \"#utility.yul\":7698:7712   */\n      swap1\n      pop\n        /* \"#utility.yul\":7663:7944   */\n      jump(tag_238)\n    tag_240:\n        /* \"#utility.yul\":7667:7681   */\n      pop\n        /* \"#utility.yul\":7960:7963   */\n      dup6\n        /* \"#utility.yul\":7953:7963   */\n      swap4\n      pop\n        /* \"#utility.yul\":7377:7969   */\n      pop\n      pop\n      pop\n        /* \"#utility.yul\":7265:7969   */\n      swap3\n      swap2\n      pop\n      pop\n      jump\t// out\n        /* \"#utility.yul\":7975:8227   */\n    tag_155:\n        /* \"#utility.yul\":8092:8102   */\n      0x00\n        /* \"#utility.yul\":8127:8221   */\n      tag_244\n        /* \"#utility.yul\":8217:8220   */\n      dup4\n        /* \"#utility.yul\":8209:8215   */\n      dup4\n        /* \"#utility.yul\":8127:8221   */\n      tag_154\n      jump\t// in\n    tag_244:\n        /* \"#utility.yul\":8113:8221   */\n      swap1\n      pop\n        /* \"#utility.yul\":7975:8227   */\n      swap3\n      swap2\n      pop\n      pop\n      jump\t// out\n        /* \"#utility.yul\":8233:8370   */\n    tag_156:\n        /* \"#utility.yul\":8327:8331   */\n      0x00\n        /* \"#utility.yul\":8359:8363   */\n      0x20\n        /* \"#utility.yul\":8354:8357   */\n      dup3\n        /* \"#utility.yul\":8350:8364   */\n      add\n        /* \"#utility.yul\":8342:8364   */\n      swap1\n      pop\n        /* \"#utility.yul\":8233:8370   */\n      swap2\n      swap1\n      pop\n      jump\t// out\n        /* \"#utility.yul\":8408:9511   */\n    tag_157:\n        /* \"#utility.yul\":8575:8578   */\n      0x00\n        /* \"#utility.yul\":8604:8682   */\n      tag_247\n        /* \"#utility.yul\":8676:8681   */\n      dup3\n        /* \"#utility.yul\":8604:8682   */\n      tag_145\n      jump\t// in\n    tag_247:\n        /* \"#utility.yul\":8698:8808   */\n      tag_248\n        /* \"#utility.yul\":8801:8807   */\n      dup2\n        /* \"#utility.yul\":8796:8799   */\n      dup6\n        /* \"#utility.yul\":8698:8808   */\n      tag_146\n      jump\t// in\n    tag_248:\n        /* \"#utility.yul\":8691:8808   */\n      swap4\n      pop\n        /* \"#utility.yul\":8834:8837   */\n      dup4\n        /* \"#utility.yul\":8879:8883   */\n      0x20\n        /* \"#utility.yul\":8871:8877   */\n      dup3\n        /* \"#utility.yul\":8867:8884   */\n      mul\n        /* \"#utility.yul\":8862:8865   */\n      dup6\n        /* \"#utility.yul\":8858:8885   */\n      add\n        /* \"#utility.yul\":8909:8989   */\n      tag_249\n        /* \"#utility.yul\":8983:8988   */\n      dup6\n        /* \"#utility.yul\":8909:8989   */\n      tag_147\n      jump\t// in\n    tag_249:\n        /* \"#utility.yul\":9012:9019   */\n      dup1\n        /* \"#utility.yul\":9043:9044   */\n      0x00\n        /* \"#utility.yul\":9028:9466   */\n    tag_250:\n        /* \"#utility.yul\":9053:9059   */\n      dup6\n        /* \"#utility.yul\":9050:9051   */\n      dup2\n        /* \"#utility.yul\":9047:9060   */\n      lt\n        /* \"#utility.yul\":9028:9466   */\n      iszero\n      tag_252\n      jumpi\n        /* \"#utility.yul\":9124:9133   */\n      dup5\n        /* \"#utility.yul\":9118:9122   */\n      dup5\n        /* \"#utility.yul\":9114:9134   */\n      sub\n        /* \"#utility.yul\":9109:9112   */\n      dup10\n        /* \"#utility.yul\":9102:9135   */\n      mstore\n        /* \"#utility.yul\":9175:9181   */\n      dup2\n        /* \"#utility.yul\":9169:9182   */\n      mload\n        /* \"#utility.yul\":9203:9315   */\n      tag_253\n        /* \"#utility.yul\":9310:9314   */\n      dup6\n        /* \"#utility.yul\":9295:9308   */\n      dup3\n        /* \"#utility.yul\":9203:9315   */\n      tag_155\n      jump\t// in\n    tag_253:\n        /* \"#utility.yul\":9195:9315   */\n      swap5\n      pop\n        /* \"#utility.yul\":9338:9422   */\n      tag_254\n        /* \"#utility.yul\":9415:9421   */\n      dup4\n        /* \"#utility.yul\":9338:9422   */\n      tag_156\n      jump\t// in\n    tag_254:\n        /* \"#utility.yul\":9328:9422   */\n      swap3\n      pop\n        /* \"#utility.yul\":9451:9455   */\n      0x20\n        /* \"#utility.yul\":9446:9449   */\n      dup11\n        /* \"#utility.yul\":9442:9456   */\n      add\n        /* \"#utility.yul\":9435:9456   */\n      swap10\n      pop\n        /* \"#utility.yul\":9088:9466   */\n      pop\n        /* \"#utility.yul\":9075:9076   */\n      0x01\n        /* \"#utility.yul\":9072:9073   */\n      dup2\n        /* \"#utility.yul\":9068:9077   */\n      add\n        /* \"#utility.yul\":9063:9077   */\n      swap1\n      pop\n        /* \"#utility.yul\":9028:9466   */\n      jump(tag_250)\n    tag_252:\n        /* \"#utility.yul\":9032:9046   */\n      pop\n        /* \"#utility.yul\":9482:9486   */\n      dup3\n        /* \"#utility.yul\":9475:9486   */\n      swap8\n      pop\n        /* \"#utility.yul\":9502:9505   */\n      dup8\n        /* \"#utility.yul\":9495:9505   */\n      swap6\n      pop\n        /* \"#utility.yul\":8580:9511   */\n      pop\n      pop\n      pop\n      pop\n      pop\n        /* \"#utility.yul\":8408:9511   */\n      swap3\n      swap2\n      pop\n      pop\n      jump\t// out\n        /* \"#utility.yul\":9517:9986   */\n    tag_11:\n        /* \"#utility.yul\":9708:9712   */\n      0x00\n        /* \"#utility.yul\":9746:9748   */\n      0x20\n        /* \"#utility.yul\":9735:9744   */\n      dup3\n        /* \"#utility.yul\":9731:9749   */\n      add\n        /* \"#utility.yul\":9723:9749   */\n      swap1\n      pop\n        /* \"#utility.yul\":9795:9804   */\n      dup2\n        /* \"#utility.yul\":9789:9793   */\n      dup2\n        /* \"#utility.yul\":9785:9805   */\n      sub\n        /* \"#utility.yul\":9781:9782   */\n      0x00\n        /* \"#utility.yul\":9770:9779   */\n      dup4\n        /* \"#utility.yul\":9766:9783   */\n      add\n        /* \"#utility.yul\":9759:9806   */\n      mstore\n        /* \"#utility.yul\":9823:9979   */\n      tag_256\n        /* \"#utility.yul\":9974:9978   */\n      dup2\n        /* \"#utility.yul\":9965:9971   */\n      dup5\n        /* \"#utility.yul\":9823:9979   */\n      tag_157\n      jump\t// in\n    tag_256:\n        /* \"#utility.yul\":9815:9979   */\n      swap1\n      pop\n        /* \"#utility.yul\":9517:9986   */\n      swap3\n      swap2\n      pop\n      pop\n      jump\t// out\n        /* \"#utility.yul\":9992:10172   */\n    tag_23:\n        /* \"#utility.yul\":10040:10117   */\n      0x4e487b7100000000000000000000000000000000000000000000000000000000\n        /* \"#utility.yul\":10037:10038   */\n      0x00\n        /* \"#utility.yul\":10030:10118   */\n      mstore\n        /* \"#utility.yul\":10137:10141   */\n      0x32\n        /* \"#utility.yul\":10134:10135   */\n      0x04\n        /* \"#utility.yul\":10127:10142   */\n      mstore\n        /* \"#utility.yul\":10161:10165   */\n      0x24\n        /* \"#utility.yul\":10158:10159   */\n      0x00\n        /* \"#utility.yul\":10151:10166   */\n      revert\n        /* \"#utility.yul\":10178:10358   */\n    tag_158:\n        /* \"#utility.yul\":10226:10303   */\n      0x4e487b7100000000000000000000000000000000000000000000000000000000\n        /* \"#utility.yul\":10223:10224   */\n      0x00\n        /* \"#utility.yul\":10216:10304   */\n      mstore\n        /* \"#utility.yul\":10323:10327   */\n      0x11\n        /* \"#utility.yul\":10320:10321   */\n      0x04\n        /* \"#utility.yul\":10313:10328   */\n      mstore\n        /* \"#utility.yul\":10347:10351   */\n      0x24\n        /* \"#utility.yul\":10344:10345   */\n      0x00\n        /* \"#utility.yul\":10337:10352   */\n      revert\n        /* \"#utility.yul\":10364:10920   */\n    tag_58:\n        /* \"#utility.yul\":10403:10410   */\n      0x00\n        /* \"#utility.yul\":10426:10445   */\n      tag_260\n        /* \"#utility.yul\":10443:10444   */\n      dup3\n        /* \"#utility.yul\":10426:10445   */\n      tag_138\n      jump\t// in\n    tag_260:\n        /* \"#utility.yul\":10421:10445   */\n      swap2\n      pop\n        /* \"#utility.yul\":10459:10478   */\n      tag_261\n        /* \"#utility.yul\":10476:10477   */\n      dup4\n        /* \"#utility.yul\":10459:10478   */\n      tag_138\n      jump\t// in\n    tag_261:\n        /* \"#utility.yul\":10454:10478   */\n      swap3\n      pop\n        /* \"#utility.yul\":10513:10514   */\n      dup3\n        /* \"#utility.yul\":10510:10511   */\n      dup3\n        /* \"#utility.yul\":10506:10515   */\n      mul\n        /* \"#utility.yul\":10535:10564   */\n      tag_262\n        /* \"#utility.yul\":10552:10563   */\n      dup2\n        /* \"#utility.yul\":10535:10564   */\n      tag_138\n      jump\t// in\n    tag_262:\n        /* \"#utility.yul\":10524:10564   */\n      swap2\n      pop\n        /* \"#utility.yul\":10622:10688   */\n      0x8000000000000000000000000000000000000000000000000000000000000000\n        /* \"#utility.yul\":10619:10620   */\n      dup5\n        /* \"#utility.yul\":10616:10689   */\n      eq\n        /* \"#utility.yul\":10612:10613   */\n      0x00\n        /* \"#utility.yul\":10609:10610   */\n      dup5\n        /* \"#utility.yul\":10605:10614   */\n      slt\n        /* \"#utility.yul\":10601:10690   */\n      and\n        /* \"#utility.yul\":10598:10713   */\n      iszero\n      tag_263\n      jumpi\n        /* \"#utility.yul\":10693:10711   */\n      tag_264\n      tag_158\n      jump\t// in\n    tag_264:\n        /* \"#utility.yul\":10598:10713   */\n    tag_263:\n        /* \"#utility.yul\":10863:10864   */\n      dup3\n        /* \"#utility.yul\":10854:10861   */\n      dup3\n        /* \"#utility.yul\":10849:10865   */\n      sdiv\n        /* \"#utility.yul\":10846:10847   */\n      dup5\n        /* \"#utility.yul\":10843:10866   */\n      eq\n        /* \"#utility.yul\":10823:10824   */\n      dup4\n        /* \"#utility.yul\":10816:10825   */\n      iszero\n        /* \"#utility.yul\":10796:10880   */\n      or\n        /* \"#utility.yul\":10773:10913   */\n      tag_265\n      jumpi\n        /* \"#utility.yul\":10893:10911   */\n      tag_266\n      tag_158\n      jump\t// in\n    tag_266:\n        /* \"#utility.yul\":10773:10913   */\n    tag_265:\n        /* \"#utility.yul\":10411:10920   */\n      pop\n        /* \"#utility.yul\":10364:10920   */\n      swap3\n      swap2\n      pop\n      pop\n      jump\t// out\n        /* \"#utility.yul\":10926:11301   */\n    tag_64:\n        /* \"#utility.yul\":10965:10968   */\n      0x00\n        /* \"#utility.yul\":10984:11003   */\n      tag_268\n        /* \"#utility.yul\":11001:11002   */\n      dup3\n        /* \"#utility.yul\":10984:11003   */\n      tag_138\n      jump\t// in\n    tag_268:\n        /* \"#utility.yul\":10979:11003   */\n      swap2\n      pop\n        /* \"#utility.yul\":11017:11036   */\n      tag_269\n        /* \"#utility.yul\":11034:11035   */\n      dup4\n        /* \"#utility.yul\":11017:11036   */\n      tag_138\n      jump\t// in\n    tag_269:\n        /* \"#utility.yul\":11012:11036   */\n      swap3\n      pop\n        /* \"#utility.yul\":11059:11060   */\n      dup3\n        /* \"#utility.yul\":11056:11057   */\n      dup3\n        /* \"#utility.yul\":11052:11061   */\n      add\n        /* \"#utility.yul\":11045:11061   */\n      swap1\n      pop\n        /* \"#utility.yul\":11257:11258   */\n      dup3\n        /* \"#utility.yul\":11252:11255   */\n      dup2\n        /* \"#utility.yul\":11248:11259   */\n      slt\n        /* \"#utility.yul\":11241:11260   */\n      iszero\n        /* \"#utility.yul\":11237:11238   */\n      0x00\n        /* \"#utility.yul\":11234:11235   */\n      dup4\n        /* \"#utility.yul\":11230:11239   */\n      slt\n        /* \"#utility.yul\":11226:11261   */\n      and\n        /* \"#utility.yul\":11209:11210   */\n      dup4\n        /* \"#utility.yul\":11204:11207   */\n      dup3\n        /* \"#utility.yul\":11200:11211   */\n      slt\n        /* \"#utility.yul\":11195:11196   */\n      0x00\n        /* \"#utility.yul\":11192:11193   */\n      dup5\n        /* \"#utility.yul\":11188:11197   */\n      slt\n        /* \"#utility.yul\":11181:11198   */\n      iszero\n        /* \"#utility.yul\":11177:11212   */\n      and\n        /* \"#utility.yul\":11161:11271   */\n      or\n        /* \"#utility.yul\":11158:11294   */\n      iszero\n      tag_270\n      jumpi\n        /* \"#utility.yul\":11274:11292   */\n      tag_271\n      tag_158\n      jump\t// in\n    tag_271:\n        /* \"#utility.yul\":11158:11294   */\n    tag_270:\n        /* \"#utility.yul\":10926:11301   */\n      swap3\n      swap2\n      pop\n      pop\n      jump\t// out\n        /* \"#utility.yul\":11307:11679   */\n    tag_92:\n        /* \"#utility.yul\":11346:11350   */\n      0x00\n        /* \"#utility.yul\":11366:11385   */\n      tag_273\n        /* \"#utility.yul\":11383:11384   */\n      dup3\n        /* \"#utility.yul\":11366:11385   */\n      tag_138\n      jump\t// in\n    tag_273:\n        /* \"#utility.yul\":11361:11385   */\n      swap2\n      pop\n        /* \"#utility.yul\":11399:11418   */\n      tag_274\n        /* \"#utility.yul\":11416:11417   */\n      dup4\n        /* \"#utility.yul\":11399:11418   */\n      tag_138\n      jump\t// in\n    tag_274:\n        /* \"#utility.yul\":11394:11418   */\n      swap3\n      pop\n        /* \"#utility.yul\":11442:11443   */\n      dup3\n        /* \"#utility.yul\":11439:11440   */\n      dup3\n        /* \"#utility.yul\":11435:11444   */\n      sub\n        /* \"#utility.yul\":11427:11444   */\n      swap1\n      pop\n        /* \"#utility.yul\":11636:11637   */\n      dup2\n        /* \"#utility.yul\":11630:11634   */\n      dup2\n        /* \"#utility.yul\":11626:11638   */\n      slt\n        /* \"#utility.yul\":11622:11623   */\n      0x00\n        /* \"#utility.yul\":11619:11620   */\n      dup5\n        /* \"#utility.yul\":11615:11624   */\n      slt\n        /* \"#utility.yul\":11611:11639   */\n      and\n        /* \"#utility.yul\":11594:11595   */\n      dup3\n        /* \"#utility.yul\":11588:11592   */\n      dup3\n        /* \"#utility.yul\":11584:11596   */\n      sgt\n        /* \"#utility.yul\":11579:11580   */\n      0x00\n        /* \"#utility.yul\":11576:11577   */\n      dup6\n        /* \"#utility.yul\":11572:11581   */\n      slt\n        /* \"#utility.yul\":11565:11582   */\n      iszero\n        /* \"#utility.yul\":11561:11597   */\n      and\n        /* \"#utility.yul\":11545:11649   */\n      or\n        /* \"#utility.yul\":11542:11672   */\n      iszero\n      tag_275\n      jumpi\n        /* \"#utility.yul\":11652:11670   */\n      tag_276\n      tag_158\n      jump\t// in\n    tag_276:\n        /* \"#utility.yul\":11542:11672   */\n    tag_275:\n        /* \"#utility.yul\":11307:11679   */\n      swap3\n      swap2\n      pop\n      pop\n      jump\t// out\n\n    auxdata: 0xa26469706673582212202055400219b955ed145d459d9d2ab6f53bb2e7e6d826c4aeba638443da2f73b764736f6c634300081a0033\n}\n",
				"bytecode": {
					"linkReferences": {},
					"object": "6080604052348015600e575f80fd5b50610caa8061001c5f395ff3fe608060405234801561000f575f80fd5b506004361061003f575f3560e01c806321a8f3551461004357806371852ab2146100735780638ea9e16c146100a3575b5f80fd5b61005d6004803603810190610058919061091b565b6100d3565b60405161006a9190610b03565b60405180910390f35b61008d6004803603810190610088919061091b565b61031b565b60405161009a9190610b03565b60405180910390f35b6100bd60048036038101906100b8919061091b565b6104e2565b6040516100ca9190610b03565b60405180910390f35b60605f835190505f845f815181106100ee576100ed610b23565b5b60200260200101515190505f845f8151811061010d5761010c610b23565b5b60200260200101515190505f8367ffffffffffffffff811115610133576101326106ce565b5b60405190808252806020026020018201604052801561016657816020015b60608152602001906001900390816101515790505b5090505f5b8481101561030d578267ffffffffffffffff81111561018d5761018c6106ce565b5b6040519080825280602002602001820160405280156101bb5781602001602082028036833780820191505090505b508282815181106101cf576101ce610b23565b5b60200260200101819052505f5b838110156102ff575f8383815181106101f8576101f7610b23565b5b6020026020010151828151811061021257610211610b23565b5b6020026020010181815250505f5b858110156102f15788818151811061023b5761023a610b23565b5b6020026020010151828151811061025557610254610b23565b5b60200260200101518a84815181106102705761026f610b23565b5b6020026020010151828151811061028a57610289610b23565b5b602002602001015161029c9190610b7d565b8484815181106102af576102ae610b23565b5b602002602001015183815181106102c9576102c8610b23565b5b602002602001018181516102dd9190610bf3565b915081815250508080600101915050610220565b5080806001019150506101dc565b50808060010191505061016b565b508094505050505092915050565b60605f835190505f845f8151811061033657610335610b23565b5b60200260200101515190505f8267ffffffffffffffff81111561035c5761035b6106ce565b5b60405190808252806020026020018201604052801561038f57816020015b606081526020019060019003908161037a5790505b5090505f5b838110156104d5578267ffffffffffffffff8111156103b6576103b56106ce565b5b6040519080825280602002602001820160405280156103e45781602001602082028036833780820191505090505b508282815181106103f8576103f7610b23565b5b60200260200101819052505f5b838110156104c7578682815181106104205761041f610b23565b5b6020026020010151818151811061043a57610439610b23565b5b602002602001015188838151811061045557610454610b23565b5b6020026020010151828151811061046f5761046e610b23565b5b60200260200101516104819190610c34565b83838151811061049457610493610b23565b5b602002602001015182815181106104ae576104ad610b23565b5b6020026020010181815250508080600101915050610405565b508080600101915050610394565b5080935050505092915050565b60605f835190505f845f815181106104fd576104fc610b23565b5b60200260200101515190505f8267ffffffffffffffff811115610523576105226106ce565b5b60405190808252806020026020018201604052801561055657816020015b60608152602001906001900390816105415790505b5090505f5b8381101561069c578267ffffffffffffffff81111561057d5761057c6106ce565b5b6040519080825280602002602001820160405280156105ab5781602001602082028036833780820191505090505b508282815181106105bf576105be610b23565b5b60200260200101819052505f5b8381101561068e578682815181106105e7576105e6610b23565b5b6020026020010151818151811061060157610600610b23565b5b602002602001015188838151811061061c5761061b610b23565b5b6020026020010151828151811061063657610635610b23565b5b60200260200101516106489190610bf3565b83838151811061065b5761065a610b23565b5b6020026020010151828151811061067557610674610b23565b5b60200260200101818152505080806001019150506105cc565b50808060010191505061055b565b5080935050505092915050565b5f604051905090565b5f80fd5b5f80fd5b5f80fd5b5f601f19601f8301169050919050565b7f4e487b71000000000000000000000000000000000000000000000000000000005f52604160045260245ffd5b610704826106be565b810181811067ffffffffffffffff82111715610723576107226106ce565b5b80604052505050565b5f6107356106a9565b905061074182826106fb565b919050565b5f67ffffffffffffffff8211156107605761075f6106ce565b5b602082029050602081019050919050565b5f80fd5b5f67ffffffffffffffff82111561078f5761078e6106ce565b5b602082029050602081019050919050565b5f819050919050565b6107b2816107a0565b81146107bc575f80fd5b50565b5f813590506107cd816107a9565b92915050565b5f6107e56107e084610775565b61072c565b9050808382526020820190506020840283018581111561080857610807610771565b5b835b81811015610831578061081d88826107bf565b84526020840193505060208101905061080a565b5050509392505050565b5f82601f83011261084f5761084e6106ba565b5b813561085f8482602086016107d3565b91505092915050565b5f61087a61087584610746565b61072c565b9050808382526020820190506020840283018581111561089d5761089c610771565b5b835b818110156108e457803567ffffffffffffffff8111156108c2576108c16106ba565b5b8086016108cf898261083b565b8552602085019450505060208101905061089f565b5050509392505050565b5f82601f830112610902576109016106ba565b5b8135610912848260208601610868565b91505092915050565b5f8060408385031215610931576109306106b2565b5b5f83013567ffffffffffffffff81111561094e5761094d6106b6565b5b61095a858286016108ee565b925050602083013567ffffffffffffffff81111561097b5761097a6106b6565b5b610987858286016108ee565b9150509250929050565b5f81519050919050565b5f82825260208201905092915050565b5f819050602082019050919050565b5f81519050919050565b5f82825260208201905092915050565b5f819050602082019050919050565b6109ec816107a0565b82525050565b5f6109fd83836109e3565b60208301905092915050565b5f602082019050919050565b5f610a1f826109ba565b610a2981856109c4565b9350610a34836109d4565b805f5b83811015610a64578151610a4b88826109f2565b9750610a5683610a09565b925050600181019050610a37565b5085935050505092915050565b5f610a7c8383610a15565b905092915050565b5f602082019050919050565b5f610a9a82610991565b610aa4818561099b565b935083602082028501610ab6856109ab565b805f5b85811015610af15784840389528151610ad28582610a71565b9450610add83610a84565b925060208a01995050600181019050610ab9565b50829750879550505050505092915050565b5f6020820190508181035f830152610b1b8184610a90565b905092915050565b7f4e487b71000000000000000000000000000000000000000000000000000000005f52603260045260245ffd5b7f4e487b71000000000000000000000000000000000000000000000000000000005f52601160045260245ffd5b5f610b87826107a0565b9150610b92836107a0565b9250828202610ba0816107a0565b91507f800000000000000000000000000000000000000000000000000000000000000084145f84121615610bd757610bd6610b50565b5b8282058414831517610bec57610beb610b50565b5b5092915050565b5f610bfd826107a0565b9150610c08836107a0565b92508282019050828112155f8312168382125f841215161715610c2e57610c2d610b50565b5b92915050565b5f610c3e826107a0565b9150610c49836107a0565b925082820390508181125f8412168282135f851215161715610c6e57610c6d610b50565b5b9291505056fea26469706673582212202055400219b955ed145d459d9d2ab6f53bb2e7e6d826c4aeba638443da2f73b764736f6c634300081a0033",
					"opcodes": "PUSH1 0x80 PUSH1 0x40 MSTORE CALLVALUE DUP1 ISZERO PUSH1 0xE JUMPI PUSH0 DUP1 REVERT JUMPDEST POP PUSH2 0xCAA DUP1 PUSH2 0x1C PUSH0 CODECOPY PUSH0 RETURN INVALID PUSH1 0x80 PUSH1 0x40 MSTORE CALLVALUE DUP1 ISZERO PUSH2 0xF JUMPI PUSH0 DUP1 REVERT JUMPDEST POP PUSH1 0x4 CALLDATASIZE LT PUSH2 0x3F JUMPI PUSH0 CALLDATALOAD PUSH1 0xE0 SHR DUP1 PUSH4 0x21A8F355 EQ PUSH2 0x43 JUMPI DUP1 PUSH4 0x71852AB2 EQ PUSH2 0x73 JUMPI DUP1 PUSH4 0x8EA9E16C EQ PUSH2 0xA3 JUMPI JUMPDEST PUSH0 DUP1 REVERT JUMPDEST PUSH2 0x5D PUSH1 0x4 DUP1 CALLDATASIZE SUB DUP2 ADD SWAP1 PUSH2 0x58 SWAP2 SWAP1 PUSH2 0x91B JUMP JUMPDEST PUSH2 0xD3 JUMP JUMPDEST PUSH1 0x40 MLOAD PUSH2 0x6A SWAP2 SWAP1 PUSH2 0xB03 JUMP JUMPDEST PUSH1 0x40 MLOAD DUP1 SWAP2 SUB SWAP1 RETURN JUMPDEST PUSH2 0x8D PUSH1 0x4 DUP1 CALLDATASIZE SUB DUP2 ADD SWAP1 PUSH2 0x88 SWAP2 SWAP1 PUSH2 0x91B JUMP JUMPDEST PUSH2 0x31B JUMP JUMPDEST PUSH1 0x40 MLOAD PUSH2 0x9A SWAP2 SWAP1 PUSH2 0xB03 JUMP JUMPDEST PUSH1 0x40 MLOAD DUP1 SWAP2 SUB SWAP1 RETURN JUMPDEST PUSH2 0xBD PUSH1 0x4 DUP1 CALLDATASIZE SUB DUP2 ADD SWAP1 PUSH2 0xB8 SWAP2 SWAP1 PUSH2 0x91B JUMP JUMPDEST PUSH2 0x4E2 JUMP JUMPDEST PUSH1 0x40 MLOAD PUSH2 0xCA SWAP2 SWAP1 PUSH2 0xB03 JUMP JUMPDEST PUSH1 0x40 MLOAD DUP1 SWAP2 SUB SWAP1 RETURN JUMPDEST PUSH1 0x60 PUSH0 DUP4 MLOAD SWAP1 POP PUSH0 DUP5 PUSH0 DUP2 MLOAD DUP2 LT PUSH2 0xEE JUMPI PUSH2 0xED PUSH2 0xB23 JUMP JUMPDEST JUMPDEST PUSH1 0x20 MUL PUSH1 0x20 ADD ADD MLOAD MLOAD SWAP1 POP PUSH0 DUP5 PUSH0 DUP2 MLOAD DUP2 LT PUSH2 0x10D JUMPI PUSH2 0x10C PUSH2 0xB23 JUMP JUMPDEST JUMPDEST PUSH1 0x20 MUL PUSH1 0x20 ADD ADD MLOAD MLOAD SWAP1 POP PUSH0 DUP4 PUSH8 0xFFFFFFFFFFFFFFFF DUP2 GT ISZERO PUSH2 0x133 JUMPI PUSH2 0x132 PUSH2 0x6CE JUMP JUMPDEST JUMPDEST PUSH1 0x40 MLOAD SWAP1 DUP1 DUP3 MSTORE DUP1 PUSH1 0x20 MUL PUSH1 0x20 ADD DUP3 ADD PUSH1 0x40 MSTORE DUP1 ISZERO PUSH2 0x166 JUMPI DUP2 PUSH1 0x20 ADD JUMPDEST PUSH1 0x60 DUP2 MSTORE PUSH1 0x20 ADD SWAP1 PUSH1 0x1 SWAP1 SUB SWAP1 DUP2 PUSH2 0x151 JUMPI SWAP1 POP JUMPDEST POP SWAP1 POP PUSH0 JUMPDEST DUP5 DUP2 LT ISZERO PUSH2 0x30D JUMPI DUP3 PUSH8 0xFFFFFFFFFFFFFFFF DUP2 GT ISZERO PUSH2 0x18D JUMPI PUSH2 0x18C PUSH2 0x6CE JUMP JUMPDEST JUMPDEST PUSH1 0x40 MLOAD SWAP1 DUP1 DUP3 MSTORE DUP1 PUSH1 0x20 MUL PUSH1 0x20 ADD DUP3 ADD PUSH1 0x40 MSTORE DUP1 ISZERO PUSH2 0x1BB JUMPI DUP2 PUSH1 0x20 ADD PUSH1 0x20 DUP3 MUL DUP1 CALLDATASIZE DUP4 CALLDATACOPY DUP1 DUP3 ADD SWAP2 POP POP SWAP1 POP JUMPDEST POP DUP3 DUP3 DUP2 MLOAD DUP2 LT PUSH2 0x1CF JUMPI PUSH2 0x1CE PUSH2 0xB23 JUMP JUMPDEST JUMPDEST PUSH1 0x20 MUL PUSH1 0x20 ADD ADD DUP2 SWAP1 MSTORE POP PUSH0 JUMPDEST DUP4 DUP2 LT ISZERO PUSH2 0x2FF JUMPI PUSH0 DUP4 DUP4 DUP2 MLOAD DUP2 LT PUSH2 0x1F8 JUMPI PUSH2 0x1F7 PUSH2 0xB23 JUMP JUMPDEST JUMPDEST PUSH1 0x20 MUL PUSH1 0x20 ADD ADD MLOAD DUP3 DUP2 MLOAD DUP2 LT PUSH2 0x212 JUMPI PUSH2 0x211 PUSH2 0xB23 JUMP JUMPDEST JUMPDEST PUSH1 0x20 MUL PUSH1 0x20 ADD ADD DUP2 DUP2 MSTORE POP POP PUSH0 JUMPDEST DUP6 DUP2 LT ISZERO PUSH2 0x2F1 JUMPI DUP9 DUP2 DUP2 MLOAD DUP2 LT PUSH2 0x23B JUMPI PUSH2 0x23A PUSH2 0xB23 JUMP JUMPDEST JUMPDEST PUSH1 0x20 MUL PUSH1 0x20 ADD ADD MLOAD DUP3 DUP2 MLOAD DUP2 LT PUSH2 0x255 JUMPI PUSH2 0x254 PUSH2 0xB23 JUMP JUMPDEST JUMPDEST PUSH1 0x20 MUL PUSH1 0x20 ADD ADD MLOAD DUP11 DUP5 DUP2 MLOAD DUP2 LT PUSH2 0x270 JUMPI PUSH2 0x26F PUSH2 0xB23 JUMP JUMPDEST JUMPDEST PUSH1 0x20 MUL PUSH1 0x20 ADD ADD MLOAD DUP3 DUP2 MLOAD DUP2 LT PUSH2 0x28A JUMPI PUSH2 0x289 PUSH2 0xB23 JUMP JUMPDEST JUMPDEST PUSH1 0x20 MUL PUSH1 0x20 ADD ADD MLOAD PUSH2 0x29C SWAP2 SWAP1 PUSH2 0xB7D JUMP JUMPDEST DUP5 DUP5 DUP2 MLOAD DUP2 LT PUSH2 0x2AF JUMPI PUSH2 0x2AE PUSH2 0xB23 JUMP JUMPDEST JUMPDEST PUSH1 0x20 MUL PUSH1 0x20 ADD ADD MLOAD DUP4 DUP2 MLOAD DUP2 LT PUSH2 0x2C9 JUMPI PUSH2 0x2C8 PUSH2 0xB23 JUMP JUMPDEST JUMPDEST PUSH1 0x20 MUL PUSH1 0x20 ADD ADD DUP2 DUP2 MLOAD PUSH2 0x2DD SWAP2 SWAP1 PUSH2 0xBF3 JUMP JUMPDEST SWAP2 POP DUP2 DUP2 MSTORE POP POP DUP1 DUP1 PUSH1 0x1 ADD SWAP2 POP POP PUSH2 0x220 JUMP JUMPDEST POP DUP1 DUP1 PUSH1 0x1 ADD SWAP2 POP POP PUSH2 0x1DC JUMP JUMPDEST POP DUP1 DUP1 PUSH1 0x1 ADD SWAP2 POP POP PUSH2 0x16B JUMP JUMPDEST POP DUP1 SWAP5 POP POP POP POP POP SWAP3 SWAP2 POP POP JUMP JUMPDEST PUSH1 0x60 PUSH0 DUP4 MLOAD SWAP1 POP PUSH0 DUP5 PUSH0 DUP2 MLOAD DUP2 LT PUSH2 0x336 JUMPI PUSH2 0x335 PUSH2 0xB23 JUMP JUMPDEST JUMPDEST PUSH1 0x20 MUL PUSH1 0x20 ADD ADD MLOAD MLOAD SWAP1 POP PUSH0 DUP3 PUSH8 0xFFFFFFFFFFFFFFFF DUP2 GT ISZERO PUSH2 0x35C JUMPI PUSH2 0x35B PUSH2 0x6CE JUMP JUMPDEST JUMPDEST PUSH1 0x40 MLOAD SWAP1 DUP1 DUP3 MSTORE DUP1 PUSH1 0x20 MUL PUSH1 0x20 ADD DUP3 ADD PUSH1 0x40 MSTORE DUP1 ISZERO PUSH2 0x38F JUMPI DUP2 PUSH1 0x20 ADD JUMPDEST PUSH1 0x60 DUP2 MSTORE PUSH1 0x20 ADD SWAP1 PUSH1 0x1 SWAP1 SUB SWAP1 DUP2 PUSH2 0x37A JUMPI SWAP1 POP JUMPDEST POP SWAP1 POP PUSH0 JUMPDEST DUP4 DUP2 LT ISZERO PUSH2 0x4D5 JUMPI DUP3 PUSH8 0xFFFFFFFFFFFFFFFF DUP2 GT ISZERO PUSH2 0x3B6 JUMPI PUSH2 0x3B5 PUSH2 0x6CE JUMP JUMPDEST JUMPDEST PUSH1 0x40 MLOAD SWAP1 DUP1 DUP3 MSTORE DUP1 PUSH1 0x20 MUL PUSH1 0x20 ADD DUP3 ADD PUSH1 0x40 MSTORE DUP1 ISZERO PUSH2 0x3E4 JUMPI DUP2 PUSH1 0x20 ADD PUSH1 0x20 DUP3 MUL DUP1 CALLDATASIZE DUP4 CALLDATACOPY DUP1 DUP3 ADD SWAP2 POP POP SWAP1 POP JUMPDEST POP DUP3 DUP3 DUP2 MLOAD DUP2 LT PUSH2 0x3F8 JUMPI PUSH2 0x3F7 PUSH2 0xB23 JUMP JUMPDEST JUMPDEST PUSH1 0x20 MUL PUSH1 0x20 ADD ADD DUP2 SWAP1 MSTORE POP PUSH0 JUMPDEST DUP4 DUP2 LT ISZERO PUSH2 0x4C7 JUMPI DUP7 DUP3 DUP2 MLOAD DUP2 LT PUSH2 0x420 JUMPI PUSH2 0x41F PUSH2 0xB23 JUMP JUMPDEST JUMPDEST PUSH1 0x20 MUL PUSH1 0x20 ADD ADD MLOAD DUP2 DUP2 MLOAD DUP2 LT PUSH2 0x43A JUMPI PUSH2 0x439 PUSH2 0xB23 JUMP JUMPDEST JUMPDEST PUSH1 0x20 MUL PUSH1 0x20 ADD ADD MLOAD DUP9 DUP4 DUP2 MLOAD DUP2 LT PUSH2 0x455 JUMPI PUSH2 0x454 PUSH2 0xB23 JUMP JUMPDEST JUMPDEST PUSH1 0x20 MUL PUSH1 0x20 ADD ADD MLOAD DUP3 DUP2 MLOAD DUP2 LT PUSH2 0x46F JUMPI PUSH2 0x46E PUSH2 0xB23 JUMP JUMPDEST JUMPDEST PUSH1 0x20 MUL PUSH1 0x20 ADD ADD MLOAD PUSH2 0x481 SWAP2 SWAP1 PUSH2 0xC34 JUMP JUMPDEST DUP4 DUP4 DUP2 MLOAD DUP2 LT PUSH2 0x494 JUMPI PUSH2 0x493 PUSH2 0xB23 JUMP JUMPDEST JUMPDEST PUSH1 0x20 MUL PUSH1 0x20 ADD ADD MLOAD DUP3 DUP2 MLOAD DUP2 LT PUSH2 0x4AE JUMPI PUSH2 0x4AD PUSH2 0xB23 JUMP JUMPDEST JUMPDEST PUSH1 0x20 MUL PUSH1 0x20 ADD ADD DUP2 DUP2 MSTORE POP POP DUP1 DUP1 PUSH1 0x1 ADD SWAP2 POP POP PUSH2 0x405 JUMP JUMPDEST POP DUP1 DUP1 PUSH1 0x1 ADD SWAP2 POP POP PUSH2 0x394 JUMP JUMPDEST POP DUP1 SWAP4 POP POP POP POP SWAP3 SWAP2 POP POP JUMP JUMPDEST PUSH1 0x60 PUSH0 DUP4 MLOAD SWAP1 POP PUSH0 DUP5 PUSH0 DUP2 MLOAD DUP2 LT PUSH2 0x4FD JUMPI PUSH2 0x4FC PUSH2 0xB23 JUMP JUMPDEST JUMPDEST PUSH1 0x20 MUL PUSH1 0x20 ADD ADD MLOAD MLOAD SWAP1 POP PUSH0 DUP3 PUSH8 0xFFFFFFFFFFFFFFFF DUP2 GT ISZERO PUSH2 0x523 JUMPI PUSH2 0x522 PUSH2 0x6CE JUMP JUMPDEST JUMPDEST PUSH1 0x40 MLOAD SWAP1 DUP1 DUP3 MSTORE DUP1 PUSH1 0x20 MUL PUSH1 0x20 ADD DUP3 ADD PUSH1 0x40 MSTORE DUP1 ISZERO PUSH2 0x556 JUMPI DUP2 PUSH1 0x20 ADD JUMPDEST PUSH1 0x60 DUP2 MSTORE PUSH1 0x20 ADD SWAP1 PUSH1 0x1 SWAP1 SUB SWAP1 DUP2 PUSH2 0x541 JUMPI SWAP1 POP JUMPDEST POP SWAP1 POP PUSH0 JUMPDEST DUP4 DUP2 LT ISZERO PUSH2 0x69C JUMPI DUP3 PUSH8 0xFFFFFFFFFFFFFFFF DUP2 GT ISZERO PUSH2 0x57D JUMPI PUSH2 0x57C PUSH2 0x6CE JUMP JUMPDEST JUMPDEST PUSH1 0x40 MLOAD SWAP1 DUP1 DUP3 MSTORE DUP1 PUSH1 0x20 MUL PUSH1 0x20 ADD DUP3 ADD PUSH1 0x40 MSTORE DUP1 ISZERO PUSH2 0x5AB JUMPI DUP2 PUSH1 0x20 ADD PUSH1 0x20 DUP3 MUL DUP1 CALLDATASIZE DUP4 CALLDATACOPY DUP1 DUP3 ADD SWAP2 POP POP SWAP1 POP JUMPDEST POP DUP3 DUP3 DUP2 MLOAD DUP2 LT PUSH2 0x5BF JUMPI PUSH2 0x5BE PUSH2 0xB23 JUMP JUMPDEST JUMPDEST PUSH1 0x20 MUL PUSH1 0x20 ADD ADD DUP2 SWAP1 MSTORE POP PUSH0 JUMPDEST DUP4 DUP2 LT ISZERO PUSH2 0x68E JUMPI DUP7 DUP3 DUP2 MLOAD DUP2 LT PUSH2 0x5E7 JUMPI PUSH2 0x5E6 PUSH2 0xB23 JUMP JUMPDEST JUMPDEST PUSH1 0x20 MUL PUSH1 0x20 ADD ADD MLOAD DUP2 DUP2 MLOAD DUP2 LT PUSH2 0x601 JUMPI PUSH2 0x600 PUSH2 0xB23 JUMP JUMPDEST JUMPDEST PUSH1 0x20 MUL PUSH1 0x20 ADD ADD MLOAD DUP9 DUP4 DUP2 MLOAD DUP2 LT PUSH2 0x61C JUMPI PUSH2 0x61B PUSH2 0xB23 JUMP JUMPDEST JUMPDEST PUSH1 0x20 MUL PUSH1 0x20 ADD ADD MLOAD DUP3 DUP2 MLOAD DUP2 LT PUSH2 0x636 JUMPI PUSH2 0x635 PUSH2 0xB23 JUMP JUMPDEST JUMPDEST PUSH1 0x20 MUL PUSH1 0x20 ADD ADD MLOAD PUSH2 0x648 SWAP2 SWAP1 PUSH2 0xBF3 JUMP JUMPDEST DUP4 DUP4 DUP2 MLOAD DUP2 LT PUSH2 0x65B JUMPI PUSH2 0x65A PUSH2 0xB23 JUMP JUMPDEST JUMPDEST PUSH1 0x20 MUL PUSH1 0x20 ADD ADD MLOAD DUP3 DUP2 MLOAD DUP2 LT PUSH2 0x675 JUMPI PUSH2 0x674 PUSH2 0xB23 JUMP JUMPDEST JUMPDEST PUSH1 0x20 MUL PUSH1 0x20 ADD ADD DUP2 DUP2 MSTORE POP POP DUP1 DUP1 PUSH1 0x1 ADD SWAP2 POP POP PUSH2 0x5CC JUMP JUMPDEST POP DUP1 DUP1 PUSH1 0x1 ADD SWAP2 POP POP PUSH2 0x55B JUMP JUMPDEST POP DUP1 SWAP4 POP POP POP POP SWAP3 SWAP2 POP POP JUMP JUMPDEST PUSH0 PUSH1 0x40 MLOAD SWAP1 POP SWAP1 JUMP JUMPDEST PUSH0 DUP1 REVERT JUMPDEST PUSH0 DUP1 REVERT JUMPDEST PUSH0 DUP1 REVERT JUMPDEST PUSH0 PUSH1 0x1F NOT PUSH1 0x1F DUP4 ADD AND SWAP1 POP SWAP2 SWAP1 POP JUMP JUMPDEST PUSH32 0x4E487B7100000000000000000000000000000000000000000000000000000000 PUSH0 MSTORE PUSH1 0x41 PUSH1 0x4 MSTORE PUSH1 0x24 PUSH0 REVERT JUMPDEST PUSH2 0x704 DUP3 PUSH2 0x6BE JUMP JUMPDEST DUP2 ADD DUP2 DUP2 LT PUSH8 0xFFFFFFFFFFFFFFFF DUP3 GT OR ISZERO PUSH2 0x723 JUMPI PUSH2 0x722 PUSH2 0x6CE JUMP JUMPDEST JUMPDEST DUP1 PUSH1 0x40 MSTORE POP POP POP JUMP JUMPDEST PUSH0 PUSH2 0x735 PUSH2 0x6A9 JUMP JUMPDEST SWAP1 POP PUSH2 0x741 DUP3 DUP3 PUSH2 0x6FB JUMP JUMPDEST SWAP2 SWAP1 POP JUMP JUMPDEST PUSH0 PUSH8 0xFFFFFFFFFFFFFFFF DUP3 GT ISZERO PUSH2 0x760 JUMPI PUSH2 0x75F PUSH2 0x6CE JUMP JUMPDEST JUMPDEST PUSH1 0x20 DUP3 MUL SWAP1 POP PUSH1 0x20 DUP2 ADD SWAP1 POP SWAP2 SWAP1 POP JUMP JUMPDEST PUSH0 DUP1 REVERT JUMPDEST PUSH0 PUSH8 0xFFFFFFFFFFFFFFFF DUP3 GT ISZERO PUSH2 0x78F JUMPI PUSH2 0x78E PUSH2 0x6CE JUMP JUMPDEST JUMPDEST PUSH1 0x20 DUP3 MUL SWAP1 POP PUSH1 0x20 DUP2 ADD SWAP1 POP SWAP2 SWAP1 POP JUMP JUMPDEST PUSH0 DUP2 SWAP1 POP SWAP2 SWAP1 POP JUMP JUMPDEST PUSH2 0x7B2 DUP2 PUSH2 0x7A0 JUMP JUMPDEST DUP2 EQ PUSH2 0x7BC JUMPI PUSH0 DUP1 REVERT JUMPDEST POP JUMP JUMPDEST PUSH0 DUP2 CALLDATALOAD SWAP1 POP PUSH2 0x7CD DUP2 PUSH2 0x7A9 JUMP JUMPDEST SWAP3 SWAP2 POP POP JUMP JUMPDEST PUSH0 PUSH2 0x7E5 PUSH2 0x7E0 DUP5 PUSH2 0x775 JUMP JUMPDEST PUSH2 0x72C JUMP JUMPDEST SWAP1 POP DUP1 DUP4 DUP3 MSTORE PUSH1 0x20 DUP3 ADD SWAP1 POP PUSH1 0x20 DUP5 MUL DUP4 ADD DUP6 DUP2 GT ISZERO PUSH2 0x808 JUMPI PUSH2 0x807 PUSH2 0x771 JUMP JUMPDEST JUMPDEST DUP4 JUMPDEST DUP2 DUP2 LT ISZERO PUSH2 0x831 JUMPI DUP1 PUSH2 0x81D DUP9 DUP3 PUSH2 0x7BF JUMP JUMPDEST DUP5 MSTORE PUSH1 0x20 DUP5 ADD SWAP4 POP POP PUSH1 0x20 DUP2 ADD SWAP1 POP PUSH2 0x80A JUMP JUMPDEST POP POP POP SWAP4 SWAP3 POP POP POP JUMP JUMPDEST PUSH0 DUP3 PUSH1 0x1F DUP4 ADD SLT PUSH2 0x84F JUMPI PUSH2 0x84E PUSH2 0x6BA JUMP JUMPDEST JUMPDEST DUP2 CALLDATALOAD PUSH2 0x85F DUP5 DUP3 PUSH1 0x20 DUP7 ADD PUSH2 0x7D3 JUMP JUMPDEST SWAP2 POP POP SWAP3 SWAP2 POP POP JUMP JUMPDEST PUSH0 PUSH2 0x87A PUSH2 0x875 DUP5 PUSH2 0x746 JUMP JUMPDEST PUSH2 0x72C JUMP JUMPDEST SWAP1 POP DUP1 DUP4 DUP3 MSTORE PUSH1 0x20 DUP3 ADD SWAP1 POP PUSH1 0x20 DUP5 MUL DUP4 ADD DUP6 DUP2 GT ISZERO PUSH2 0x89D JUMPI PUSH2 0x89C PUSH2 0x771 JUMP JUMPDEST JUMPDEST DUP4 JUMPDEST DUP2 DUP2 LT ISZERO PUSH2 0x8E4 JUMPI DUP1 CALLDATALOAD PUSH8 0xFFFFFFFFFFFFFFFF DUP2 GT ISZERO PUSH2 0x8C2 JUMPI PUSH2 0x8C1 PUSH2 0x6BA JUMP JUMPDEST JUMPDEST DUP1 DUP7 ADD PUSH2 0x8CF DUP10 DUP3 PUSH2 0x83B JUMP JUMPDEST DUP6 MSTORE PUSH1 0x20 DUP6 ADD SWAP5 POP POP POP PUSH1 0x20 DUP2 ADD SWAP1 POP PUSH2 0x89F JUMP JUMPDEST POP POP POP SWAP4 SWAP3 POP POP POP JUMP JUMPDEST PUSH0 DUP3 PUSH1 0x1F DUP4 ADD SLT PUSH2 0x902 JUMPI PUSH2 0x901 PUSH2 0x6BA JUMP JUMPDEST JUMPDEST DUP2 CALLDATALOAD PUSH2 0x912 DUP5 DUP3 PUSH1 0x20 DUP7 ADD PUSH2 0x868 JUMP JUMPDEST SWAP2 POP POP SWAP3 SWAP2 POP POP JUMP JUMPDEST PUSH0 DUP1 PUSH1 0x40 DUP4 DUP6 SUB SLT ISZERO PUSH2 0x931 JUMPI PUSH2 0x930 PUSH2 0x6B2 JUMP JUMPDEST JUMPDEST PUSH0 DUP4 ADD CALLDATALOAD PUSH8 0xFFFFFFFFFFFFFFFF DUP2 GT ISZERO PUSH2 0x94E JUMPI PUSH2 0x94D PUSH2 0x6B6 JUMP JUMPDEST JUMPDEST PUSH2 0x95A DUP6 DUP3 DUP7 ADD PUSH2 0x8EE JUMP JUMPDEST SWAP3 POP POP PUSH1 0x20 DUP4 ADD CALLDATALOAD PUSH8 0xFFFFFFFFFFFFFFFF DUP2 GT ISZERO PUSH2 0x97B JUMPI PUSH2 0x97A PUSH2 0x6B6 JUMP JUMPDEST JUMPDEST PUSH2 0x987 DUP6 DUP3 DUP7 ADD PUSH2 0x8EE JUMP JUMPDEST SWAP2 POP POP SWAP3 POP SWAP3 SWAP1 POP JUMP JUMPDEST PUSH0 DUP2 MLOAD SWAP1 POP SWAP2 SWAP1 POP JUMP JUMPDEST PUSH0 DUP3 DUP3 MSTORE PUSH1 0x20 DUP3 ADD SWAP1 POP SWAP3 SWAP2 POP POP JUMP JUMPDEST PUSH0 DUP2 SWAP1 POP PUSH1 0x20 DUP3 ADD SWAP1 POP SWAP2 SWAP1 POP JUMP JUMPDEST PUSH0 DUP2 MLOAD SWAP1 POP SWAP2 SWAP1 POP JUMP JUMPDEST PUSH0 DUP3 DUP3 MSTORE PUSH1 0x20 DUP3 ADD SWAP1 POP SWAP3 SWAP2 POP POP JUMP JUMPDEST PUSH0 DUP2 SWAP1 POP PUSH1 0x20 DUP3 ADD SWAP1 POP SWAP2 SWAP1 POP JUMP JUMPDEST PUSH2 0x9EC DUP2 PUSH2 0x7A0 JUMP JUMPDEST DUP3 MSTORE POP POP JUMP JUMPDEST PUSH0 PUSH2 0x9FD DUP4 DUP4 PUSH2 0x9E3 JUMP JUMPDEST PUSH1 0x20 DUP4 ADD SWAP1 POP SWAP3 SWAP2 POP POP JUMP JUMPDEST PUSH0 PUSH1 0x20 DUP3 ADD SWAP1 POP SWAP2 SWAP1 POP JUMP JUMPDEST PUSH0 PUSH2 0xA1F DUP3 PUSH2 0x9BA JUMP JUMPDEST PUSH2 0xA29 DUP2 DUP6 PUSH2 0x9C4 JUMP JUMPDEST SWAP4 POP PUSH2 0xA34 DUP4 PUSH2 0x9D4 JUMP JUMPDEST DUP1 PUSH0 JUMPDEST DUP4 DUP2 LT ISZERO PUSH2 0xA64 JUMPI DUP2 MLOAD PUSH2 0xA4B DUP9 DUP3 PUSH2 0x9F2 JUMP JUMPDEST SWAP8 POP PUSH2 0xA56 DUP4 PUSH2 0xA09 JUMP JUMPDEST SWAP3 POP POP PUSH1 0x1 DUP2 ADD SWAP1 POP PUSH2 0xA37 JUMP JUMPDEST POP DUP6 SWAP4 POP POP POP POP SWAP3 SWAP2 POP POP JUMP JUMPDEST PUSH0 PUSH2 0xA7C DUP4 DUP4 PUSH2 0xA15 JUMP JUMPDEST SWAP1 POP SWAP3 SWAP2 POP POP JUMP JUMPDEST PUSH0 PUSH1 0x20 DUP3 ADD SWAP1 POP SWAP2 SWAP1 POP JUMP JUMPDEST PUSH0 PUSH2 0xA9A DUP3 PUSH2 0x991 JUMP JUMPDEST PUSH2 0xAA4 DUP2 DUP6 PUSH2 0x99B JUMP JUMPDEST SWAP4 POP DUP4 PUSH1 0x20 DUP3 MUL DUP6 ADD PUSH2 0xAB6 DUP6 PUSH2 0x9AB JUMP JUMPDEST DUP1 PUSH0 JUMPDEST DUP6 DUP2 LT ISZERO PUSH2 0xAF1 JUMPI DUP5 DUP5 SUB DUP10 MSTORE DUP2 MLOAD PUSH2 0xAD2 DUP6 DUP3 PUSH2 0xA71 JUMP JUMPDEST SWAP5 POP PUSH2 0xADD DUP4 PUSH2 0xA84 JUMP JUMPDEST SWAP3 POP PUSH1 0x20 DUP11 ADD SWAP10 POP POP PUSH1 0x1 DUP2 ADD SWAP1 POP PUSH2 0xAB9 JUMP JUMPDEST POP DUP3 SWAP8 POP DUP8 SWAP6 POP POP POP POP POP POP SWAP3 SWAP2 POP POP JUMP JUMPDEST PUSH0 PUSH1 0x20 DUP3 ADD SWAP1 POP DUP2 DUP2 SUB PUSH0 DUP4 ADD MSTORE PUSH2 0xB1B DUP2 DUP5 PUSH2 0xA90 JUMP JUMPDEST SWAP1 POP SWAP3 SWAP2 POP POP JUMP JUMPDEST PUSH32 0x4E487B7100000000000000000000000000000000000000000000000000000000 PUSH0 MSTORE PUSH1 0x32 PUSH1 0x4 MSTORE PUSH1 0x24 PUSH0 REVERT JUMPDEST PUSH32 0x4E487B7100000000000000000000000000000000000000000000000000000000 PUSH0 MSTORE PUSH1 0x11 PUSH1 0x4 MSTORE PUSH1 0x24 PUSH0 REVERT JUMPDEST PUSH0 PUSH2 0xB87 DUP3 PUSH2 0x7A0 JUMP JUMPDEST SWAP2 POP PUSH2 0xB92 DUP4 PUSH2 0x7A0 JUMP JUMPDEST SWAP3 POP DUP3 DUP3 MUL PUSH2 0xBA0 DUP2 PUSH2 0x7A0 JUMP JUMPDEST SWAP2 POP PUSH32 0x8000000000000000000000000000000000000000000000000000000000000000 DUP5 EQ PUSH0 DUP5 SLT AND ISZERO PUSH2 0xBD7 JUMPI PUSH2 0xBD6 PUSH2 0xB50 JUMP JUMPDEST JUMPDEST DUP3 DUP3 SDIV DUP5 EQ DUP4 ISZERO OR PUSH2 0xBEC JUMPI PUSH2 0xBEB PUSH2 0xB50 JUMP JUMPDEST JUMPDEST POP SWAP3 SWAP2 POP POP JUMP JUMPDEST PUSH0 PUSH2 0xBFD DUP3 PUSH2 0x7A0 JUMP JUMPDEST SWAP2 POP PUSH2 0xC08 DUP4 PUSH2 0x7A0 JUMP JUMPDEST SWAP3 POP DUP3 DUP3 ADD SWAP1 POP DUP3 DUP2 SLT ISZERO PUSH0 DUP4 SLT AND DUP4 DUP3 SLT PUSH0 DUP5 SLT ISZERO AND OR ISZERO PUSH2 0xC2E JUMPI PUSH2 0xC2D PUSH2 0xB50 JUMP JUMPDEST JUMPDEST SWAP3 SWAP2 POP POP JUMP JUMPDEST PUSH0 PUSH2 0xC3E DUP3 PUSH2 0x7A0 JUMP JUMPDEST SWAP2 POP PUSH2 0xC49 DUP4 PUSH2 0x7A0 JUMP JUMPDEST SWAP3 POP DUP3 DUP3 SUB SWAP1 POP DUP2 DUP2 SLT PUSH0 DUP5 SLT AND DUP3 DUP3 SGT PUSH0 DUP6 SLT ISZERO AND OR ISZERO PUSH2 0xC6E JUMPI PUSH2 0xC6D PUSH2 0xB50 JUMP JUMPDEST JUMPDEST SWAP3 SWAP2 POP POP JUMP INVALID LOG2 PUSH5 0x6970667358 0x22 SLT KECCAK256 KECCAK256 SSTORE BLOCKHASH MUL NOT 0xB9 SSTORE 0xED EQ TSTORE GASLIMIT SWAP14 SWAP14 0x2A 0xB6 CREATE2 EXTCODESIZE 0xB2 0xE7 0xE6 0xD8 0x26 0xC4 0xAE 0xBA PUSH4 0x8443DA2F PUSH20 0xB764736F6C634300081A00330000000000000000 "
				},
				"gasEstimates": {
					"creation": {
						"codeDepositCost": "648400",
						"executionCost": "681",
						"totalCost": "649081"
					},
					"external": {
						"addMatrices(int256[][],int256[][])": "infinite",
						"multiplyMatrices(int256[][],int256[][])": "infinite",
						"subtractMatrices(int256[][],int256[][])": "infinite"
					}
				},
				"methodIdentifiers": {
					"addMatrices(int256[][],int256[][])": "8ea9e16c",
					"multiplyMatrices(int256[][],int256[][])": "21a8f355",
					"subtractMatrices(int256[][],int256[][])": "71852ab2"
				}
			},
			"storageLayout": {
				"storage": [],
				"types": null
			},
			"userdoc": {
				"kind": "user",
				"methods": {},
				"version": 1
			}
		}
	}
}