{
	"Day-01/HomeWork/D1H2.sol": {
		"SalaryCalculator": {
			"abi": [
				{
					"inputs": [
						{
							"internalType": "uint256",
							"name": "basic",
							"type": "uint256"
						},
						{
							"internalType": "uint256",
							"name": "da",
							"type": "uint256"
						},
						{
							"internalType": "uint256",
							"name": "hra",
							"type": "uint256"
						}
					],
					"name": "calculateTotalPay",
					"outputs": [
						{
							"internalType": "uint256",
							"name": "",
							"type": "uint256"
						}
					],
					"stateMutability": "pure",
					"type": "function"
				}
			],
			"devdoc": {
				"kind": "dev",
				"methods": {},
				"version": 1
			},
			"evm": {
				"assembly": "    /* \"Day-01/HomeWork/D1H2.sol\":64:586  contract SalaryCalculator {... */\n  mstore(0x40, 0x80)\n  callvalue\n  dup1\n  iszero\n  tag_1\n  jumpi\n  0x00\n  dup1\n  revert\ntag_1:\n  pop\n  dataSize(sub_0)\n  dup1\n  dataOffset(sub_0)\n  0x00\n  codecopy\n  0x00\n  return\nstop\n\nsub_0: assembly {\n        /* \"Day-01/HomeWork/D1H2.sol\":64:586  contract SalaryCalculator {... */\n      mstore(0x40, 0x80)\n      callvalue\n      dup1\n      iszero\n      tag_1\n      jumpi\n      0x00\n      dup1\n      revert\n    tag_1:\n      pop\n      jumpi(tag_2, lt(calldatasize, 0x04))\n      shr(0xe0, calldataload(0x00))\n      dup1\n      0x9cd781a2\n      eq\n      tag_3\n      jumpi\n    tag_2:\n      0x00\n      dup1\n      revert\n        /* \"Day-01/HomeWork/D1H2.sol\":141:583  function calculateTotalPay(uint basic, uint da, uint hra) public pure returns (uint) {... */\n    tag_3:\n      tag_4\n      0x04\n      dup1\n      calldatasize\n      sub\n      dup2\n      add\n      swap1\n      tag_5\n      swap2\n      swap1\n      tag_6\n      jump\t// in\n    tag_5:\n      tag_7\n      jump\t// in\n    tag_4:\n      mload(0x40)\n      tag_8\n      swap2\n      swap1\n      tag_9\n      jump\t// in\n    tag_8:\n      mload(0x40)\n      dup1\n      swap2\n      sub\n      swap1\n      return\n    tag_7:\n        /* \"Day-01/HomeWork/D1H2.sol\":220:224  uint */\n      0x00\n        /* \"Day-01/HomeWork/D1H2.sol\":323:324  0 */\n      dup1\n        /* \"Day-01/HomeWork/D1H2.sol\":315:320  basic */\n      dup5\n        /* \"Day-01/HomeWork/D1H2.sol\":315:324  basic > 0 */\n      gt\n        /* \"Day-01/HomeWork/D1H2.sol\":307:364  require(basic > 0, \"Basic salary must be greater than 0\") */\n      tag_11\n      jumpi\n      mload(0x40)\n      0x08c379a000000000000000000000000000000000000000000000000000000000\n      dup2\n      mstore\n      0x04\n      add\n      tag_12\n      swap1\n      tag_13\n      jump\t// in\n    tag_12:\n      mload(0x40)\n      dup1\n      swap2\n      sub\n      swap1\n      revert\n    tag_11:\n        /* \"Day-01/HomeWork/D1H2.sol\":389:390  0 */\n      0x00\n        /* \"Day-01/HomeWork/D1H2.sol\":383:385  da */\n      dup4\n        /* \"Day-01/HomeWork/D1H2.sol\":383:390  da >= 0 */\n      lt\n      iszero\n        /* \"Day-01/HomeWork/D1H2.sol\":375:416  require(da >= 0, \"DA cannot be negative\") */\n      tag_14\n      jumpi\n      mload(0x40)\n      0x08c379a000000000000000000000000000000000000000000000000000000000\n      dup2\n      mstore\n      0x04\n      add\n      tag_15\n      swap1\n      tag_16\n      jump\t// in\n    tag_15:\n      mload(0x40)\n      dup1\n      swap2\n      sub\n      swap1\n      revert\n    tag_14:\n        /* \"Day-01/HomeWork/D1H2.sol\":442:443  0 */\n      0x00\n        /* \"Day-01/HomeWork/D1H2.sol\":435:438  hra */\n      dup3\n        /* \"Day-01/HomeWork/D1H2.sol\":435:443  hra >= 0 */\n      lt\n      iszero\n        /* \"Day-01/HomeWork/D1H2.sol\":427:470  require(hra >= 0, \"HRA cannot be negative\") */\n      tag_17\n      jumpi\n      mload(0x40)\n      0x08c379a000000000000000000000000000000000000000000000000000000000\n      dup2\n      mstore\n      0x04\n      add\n      tag_18\n      swap1\n      tag_19\n      jump\t// in\n    tag_18:\n      mload(0x40)\n      dup1\n      swap2\n      sub\n      swap1\n      revert\n    tag_17:\n        /* \"Day-01/HomeWork/D1H2.sol\":515:528  uint totalPay */\n      0x00\n        /* \"Day-01/HomeWork/D1H2.sol\":544:547  hra */\n      dup3\n        /* \"Day-01/HomeWork/D1H2.sol\":539:541  da */\n      dup5\n        /* \"Day-01/HomeWork/D1H2.sol\":531:536  basic */\n      dup7\n        /* \"Day-01/HomeWork/D1H2.sol\":531:541  basic + da */\n      tag_20\n      swap2\n      swap1\n      tag_21\n      jump\t// in\n    tag_20:\n        /* \"Day-01/HomeWork/D1H2.sol\":531:547  basic + da + hra */\n      tag_22\n      swap2\n      swap1\n      tag_21\n      jump\t// in\n    tag_22:\n        /* \"Day-01/HomeWork/D1H2.sol\":515:547  uint totalPay = basic + da + hra */\n      swap1\n      pop\n        /* \"Day-01/HomeWork/D1H2.sol\":567:575  totalPay */\n      dup1\n        /* \"Day-01/HomeWork/D1H2.sol\":560:575  return totalPay */\n      swap2\n      pop\n      pop\n        /* \"Day-01/HomeWork/D1H2.sol\":141:583  function calculateTotalPay(uint basic, uint da, uint hra) public pure returns (uint) {... */\n      swap4\n      swap3\n      pop\n      pop\n      pop\n      jump\t// out\n        /* \"#utility.yul\":88:205   */\n    tag_24:\n        /* \"#utility.yul\":197:198   */\n      0x00\n        /* \"#utility.yul\":194:195   */\n      dup1\n        /* \"#utility.yul\":187:199   */\n      revert\n        /* \"#utility.yul\":334:411   */\n    tag_26:\n        /* \"#utility.yul\":371:378   */\n      0x00\n        /* \"#utility.yul\":400:405   */\n      dup2\n        /* \"#utility.yul\":389:405   */\n      swap1\n      pop\n        /* \"#utility.yul\":334:411   */\n      swap2\n      swap1\n      pop\n      jump\t// out\n        /* \"#utility.yul\":417:539   */\n    tag_27:\n        /* \"#utility.yul\":490:514   */\n      tag_44\n        /* \"#utility.yul\":508:513   */\n      dup2\n        /* \"#utility.yul\":490:514   */\n      tag_26\n      jump\t// in\n    tag_44:\n        /* \"#utility.yul\":483:488   */\n      dup2\n        /* \"#utility.yul\":480:515   */\n      eq\n        /* \"#utility.yul\":470:533   */\n      tag_45\n      jumpi\n        /* \"#utility.yul\":529:530   */\n      0x00\n        /* \"#utility.yul\":526:527   */\n      dup1\n        /* \"#utility.yul\":519:531   */\n      revert\n        /* \"#utility.yul\":470:533   */\n    tag_45:\n        /* \"#utility.yul\":417:539   */\n      pop\n      jump\t// out\n        /* \"#utility.yul\":545:684   */\n    tag_28:\n        /* \"#utility.yul\":591:596   */\n      0x00\n        /* \"#utility.yul\":629:635   */\n      dup2\n        /* \"#utility.yul\":616:636   */\n      calldataload\n        /* \"#utility.yul\":607:636   */\n      swap1\n      pop\n        /* \"#utility.yul\":645:678   */\n      tag_47\n        /* \"#utility.yul\":672:677   */\n      dup2\n        /* \"#utility.yul\":645:678   */\n      tag_27\n      jump\t// in\n    tag_47:\n        /* \"#utility.yul\":545:684   */\n      swap3\n      swap2\n      pop\n      pop\n      jump\t// out\n        /* \"#utility.yul\":690:1309   */\n    tag_6:\n        /* \"#utility.yul\":767:773   */\n      0x00\n        /* \"#utility.yul\":775:781   */\n      dup1\n        /* \"#utility.yul\":783:789   */\n      0x00\n        /* \"#utility.yul\":832:834   */\n      0x60\n        /* \"#utility.yul\":820:829   */\n      dup5\n        /* \"#utility.yul\":811:818   */\n      dup7\n        /* \"#utility.yul\":807:830   */\n      sub\n        /* \"#utility.yul\":803:835   */\n      slt\n        /* \"#utility.yul\":800:919   */\n      iszero\n      tag_49\n      jumpi\n        /* \"#utility.yul\":838:917   */\n      tag_50\n      tag_24\n      jump\t// in\n    tag_50:\n        /* \"#utility.yul\":800:919   */\n    tag_49:\n        /* \"#utility.yul\":958:959   */\n      0x00\n        /* \"#utility.yul\":983:1036   */\n      tag_51\n        /* \"#utility.yul\":1028:1035   */\n      dup7\n        /* \"#utility.yul\":1019:1025   */\n      dup3\n        /* \"#utility.yul\":1008:1017   */\n      dup8\n        /* \"#utility.yul\":1004:1026   */\n      add\n        /* \"#utility.yul\":983:1036   */\n      tag_28\n      jump\t// in\n    tag_51:\n        /* \"#utility.yul\":973:1036   */\n      swap4\n      pop\n        /* \"#utility.yul\":929:1046   */\n      pop\n        /* \"#utility.yul\":1085:1087   */\n      0x20\n        /* \"#utility.yul\":1111:1164   */\n      tag_52\n        /* \"#utility.yul\":1156:1163   */\n      dup7\n        /* \"#utility.yul\":1147:1153   */\n      dup3\n        /* \"#utility.yul\":1136:1145   */\n      dup8\n        /* \"#utility.yul\":1132:1154   */\n      add\n        /* \"#utility.yul\":1111:1164   */\n      tag_28\n      jump\t// in\n    tag_52:\n        /* \"#utility.yul\":1101:1164   */\n      swap3\n      pop\n        /* \"#utility.yul\":1056:1174   */\n      pop\n        /* \"#utility.yul\":1213:1215   */\n      0x40\n        /* \"#utility.yul\":1239:1292   */\n      tag_53\n        /* \"#utility.yul\":1284:1291   */\n      dup7\n        /* \"#utility.yul\":1275:1281   */\n      dup3\n        /* \"#utility.yul\":1264:1273   */\n      dup8\n        /* \"#utility.yul\":1260:1282   */\n      add\n        /* \"#utility.yul\":1239:1292   */\n      tag_28\n      jump\t// in\n    tag_53:\n        /* \"#utility.yul\":1229:1292   */\n      swap2\n      pop\n        /* \"#utility.yul\":1184:1302   */\n      pop\n        /* \"#utility.yul\":690:1309   */\n      swap3\n      pop\n      swap3\n      pop\n      swap3\n      jump\t// out\n        /* \"#utility.yul\":1315:1433   */\n    tag_29:\n        /* \"#utility.yul\":1402:1426   */\n      tag_55\n        /* \"#utility.yul\":1420:1425   */\n      dup2\n        /* \"#utility.yul\":1402:1426   */\n      tag_26\n      jump\t// in\n    tag_55:\n        /* \"#utility.yul\":1397:1400   */\n      dup3\n        /* \"#utility.yul\":1390:1427   */\n      mstore\n        /* \"#utility.yul\":1315:1433   */\n      pop\n      pop\n      jump\t// out\n        /* \"#utility.yul\":1439:1661   */\n    tag_9:\n        /* \"#utility.yul\":1532:1536   */\n      0x00\n        /* \"#utility.yul\":1570:1572   */\n      0x20\n        /* \"#utility.yul\":1559:1568   */\n      dup3\n        /* \"#utility.yul\":1555:1573   */\n      add\n        /* \"#utility.yul\":1547:1573   */\n      swap1\n      pop\n        /* \"#utility.yul\":1583:1654   */\n      tag_57\n        /* \"#utility.yul\":1651:1652   */\n      0x00\n        /* \"#utility.yul\":1640:1649   */\n      dup4\n        /* \"#utility.yul\":1636:1653   */\n      add\n        /* \"#utility.yul\":1627:1633   */\n      dup5\n        /* \"#utility.yul\":1583:1654   */\n      tag_29\n      jump\t// in\n    tag_57:\n        /* \"#utility.yul\":1439:1661   */\n      swap3\n      swap2\n      pop\n      pop\n      jump\t// out\n        /* \"#utility.yul\":1667:1836   */\n    tag_30:\n        /* \"#utility.yul\":1751:1762   */\n      0x00\n        /* \"#utility.yul\":1785:1791   */\n      dup3\n        /* \"#utility.yul\":1780:1783   */\n      dup3\n        /* \"#utility.yul\":1773:1792   */\n      mstore\n        /* \"#utility.yul\":1825:1829   */\n      0x20\n        /* \"#utility.yul\":1820:1823   */\n      dup3\n        /* \"#utility.yul\":1816:1830   */\n      add\n        /* \"#utility.yul\":1801:1830   */\n      swap1\n      pop\n        /* \"#utility.yul\":1667:1836   */\n      swap3\n      swap2\n      pop\n      pop\n      jump\t// out\n        /* \"#utility.yul\":1842:2064   */\n    tag_31:\n        /* \"#utility.yul\":1982:2016   */\n      0x42617369632073616c617279206d757374206265206772656174657220746861\n        /* \"#utility.yul\":1978:1979   */\n      0x00\n        /* \"#utility.yul\":1970:1976   */\n      dup3\n        /* \"#utility.yul\":1966:1980   */\n      add\n        /* \"#utility.yul\":1959:2017   */\n      mstore\n        /* \"#utility.yul\":2051:2056   */\n      0x6e20300000000000000000000000000000000000000000000000000000000000\n        /* \"#utility.yul\":2046:2048   */\n      0x20\n        /* \"#utility.yul\":2038:2044   */\n      dup3\n        /* \"#utility.yul\":2034:2049   */\n      add\n        /* \"#utility.yul\":2027:2057   */\n      mstore\n        /* \"#utility.yul\":1842:2064   */\n      pop\n      jump\t// out\n        /* \"#utility.yul\":2070:2436   */\n    tag_32:\n        /* \"#utility.yul\":2212:2215   */\n      0x00\n        /* \"#utility.yul\":2233:2300   */\n      tag_61\n        /* \"#utility.yul\":2297:2299   */\n      0x23\n        /* \"#utility.yul\":2292:2295   */\n      dup4\n        /* \"#utility.yul\":2233:2300   */\n      tag_30\n      jump\t// in\n    tag_61:\n        /* \"#utility.yul\":2226:2300   */\n      swap2\n      pop\n        /* \"#utility.yul\":2309:2402   */\n      tag_62\n        /* \"#utility.yul\":2398:2401   */\n      dup3\n        /* \"#utility.yul\":2309:2402   */\n      tag_31\n      jump\t// in\n    tag_62:\n        /* \"#utility.yul\":2427:2429   */\n      0x40\n        /* \"#utility.yul\":2422:2425   */\n      dup3\n        /* \"#utility.yul\":2418:2430   */\n      add\n        /* \"#utility.yul\":2411:2430   */\n      swap1\n      pop\n        /* \"#utility.yul\":2070:2436   */\n      swap2\n      swap1\n      pop\n      jump\t// out\n        /* \"#utility.yul\":2442:2861   */\n    tag_13:\n        /* \"#utility.yul\":2608:2612   */\n      0x00\n        /* \"#utility.yul\":2646:2648   */\n      0x20\n        /* \"#utility.yul\":2635:2644   */\n      dup3\n        /* \"#utility.yul\":2631:2649   */\n      add\n        /* \"#utility.yul\":2623:2649   */\n      swap1\n      pop\n        /* \"#utility.yul\":2695:2704   */\n      dup2\n        /* \"#utility.yul\":2689:2693   */\n      dup2\n        /* \"#utility.yul\":2685:2705   */\n      sub\n        /* \"#utility.yul\":2681:2682   */\n      0x00\n        /* \"#utility.yul\":2670:2679   */\n      dup4\n        /* \"#utility.yul\":2666:2683   */\n      add\n        /* \"#utility.yul\":2659:2706   */\n      mstore\n        /* \"#utility.yul\":2723:2854   */\n      tag_64\n        /* \"#utility.yul\":2849:2853   */\n      dup2\n        /* \"#utility.yul\":2723:2854   */\n      tag_32\n      jump\t// in\n    tag_64:\n        /* \"#utility.yul\":2715:2854   */\n      swap1\n      pop\n        /* \"#utility.yul\":2442:2861   */\n      swap2\n      swap1\n      pop\n      jump\t// out\n        /* \"#utility.yul\":2867:3038   */\n    tag_33:\n        /* \"#utility.yul\":3007:3030   */\n      0x44412063616e6e6f74206265206e656761746976650000000000000000000000\n        /* \"#utility.yul\":3003:3004   */\n      0x00\n        /* \"#utility.yul\":2995:3001   */\n      dup3\n        /* \"#utility.yul\":2991:3005   */\n      add\n        /* \"#utility.yul\":2984:3031   */\n      mstore\n        /* \"#utility.yul\":2867:3038   */\n      pop\n      jump\t// out\n        /* \"#utility.yul\":3044:3410   */\n    tag_34:\n        /* \"#utility.yul\":3186:3189   */\n      0x00\n        /* \"#utility.yul\":3207:3274   */\n      tag_67\n        /* \"#utility.yul\":3271:3273   */\n      0x15\n        /* \"#utility.yul\":3266:3269   */\n      dup4\n        /* \"#utility.yul\":3207:3274   */\n      tag_30\n      jump\t// in\n    tag_67:\n        /* \"#utility.yul\":3200:3274   */\n      swap2\n      pop\n        /* \"#utility.yul\":3283:3376   */\n      tag_68\n        /* \"#utility.yul\":3372:3375   */\n      dup3\n        /* \"#utility.yul\":3283:3376   */\n      tag_33\n      jump\t// in\n    tag_68:\n        /* \"#utility.yul\":3401:3403   */\n      0x20\n        /* \"#utility.yul\":3396:3399   */\n      dup3\n        /* \"#utility.yul\":3392:3404   */\n      add\n        /* \"#utility.yul\":3385:3404   */\n      swap1\n      pop\n        /* \"#utility.yul\":3044:3410   */\n      swap2\n      swap1\n      pop\n      jump\t// out\n        /* \"#utility.yul\":3416:3835   */\n    tag_16:\n        /* \"#utility.yul\":3582:3586   */\n      0x00\n        /* \"#utility.yul\":3620:3622   */\n      0x20\n        /* \"#utility.yul\":3609:3618   */\n      dup3\n        /* \"#utility.yul\":3605:3623   */\n      add\n        /* \"#utility.yul\":3597:3623   */\n      swap1\n      pop\n        /* \"#utility.yul\":3669:3678   */\n      dup2\n        /* \"#utility.yul\":3663:3667   */\n      dup2\n        /* \"#utility.yul\":3659:3679   */\n      sub\n        /* \"#utility.yul\":3655:3656   */\n      0x00\n        /* \"#utility.yul\":3644:3653   */\n      dup4\n        /* \"#utility.yul\":3640:3657   */\n      add\n        /* \"#utility.yul\":3633:3680   */\n      mstore\n        /* \"#utility.yul\":3697:3828   */\n      tag_70\n        /* \"#utility.yul\":3823:3827   */\n      dup2\n        /* \"#utility.yul\":3697:3828   */\n      tag_34\n      jump\t// in\n    tag_70:\n        /* \"#utility.yul\":3689:3828   */\n      swap1\n      pop\n        /* \"#utility.yul\":3416:3835   */\n      swap2\n      swap1\n      pop\n      jump\t// out\n        /* \"#utility.yul\":3841:4013   */\n    tag_35:\n        /* \"#utility.yul\":3981:4005   */\n      0x4852412063616e6e6f74206265206e6567617469766500000000000000000000\n        /* \"#utility.yul\":3977:3978   */\n      0x00\n        /* \"#utility.yul\":3969:3975   */\n      dup3\n        /* \"#utility.yul\":3965:3979   */\n      add\n        /* \"#utility.yul\":3958:4006   */\n      mstore\n        /* \"#utility.yul\":3841:4013   */\n      pop\n      jump\t// out\n        /* \"#utility.yul\":4019:4385   */\n    tag_36:\n        /* \"#utility.yul\":4161:4164   */\n      0x00\n        /* \"#utility.yul\":4182:4249   */\n      tag_73\n        /* \"#utility.yul\":4246:4248   */\n      0x16\n        /* \"#utility.yul\":4241:4244   */\n      dup4\n        /* \"#utility.yul\":4182:4249   */\n      tag_30\n      jump\t// in\n    tag_73:\n        /* \"#utility.yul\":4175:4249   */\n      swap2\n      pop\n        /* \"#utility.yul\":4258:4351   */\n      tag_74\n        /* \"#utility.yul\":4347:4350   */\n      dup3\n        /* \"#utility.yul\":4258:4351   */\n      tag_35\n      jump\t// in\n    tag_74:\n        /* \"#utility.yul\":4376:4378   */\n      0x20\n        /* \"#utility.yul\":4371:4374   */\n      dup3\n        /* \"#utility.yul\":4367:4379   */\n      add\n        /* \"#utility.yul\":4360:4379   */\n      swap1\n      pop\n        /* \"#utility.yul\":4019:4385   */\n      swap2\n      swap1\n      pop\n      jump\t// out\n        /* \"#utility.yul\":4391:4810   */\n    tag_19:\n        /* \"#utility.yul\":4557:4561   */\n      0x00\n        /* \"#utility.yul\":4595:4597   */\n      0x20\n        /* \"#utility.yul\":4584:4593   */\n      dup3\n        /* \"#utility.yul\":4580:4598   */\n      add\n        /* \"#utility.yul\":4572:4598   */\n      swap1\n      pop\n        /* \"#utility.yul\":4644:4653   */\n      dup2\n        /* \"#utility.yul\":4638:4642   */\n      dup2\n        /* \"#utility.yul\":4634:4654   */\n      sub\n        /* \"#utility.yul\":4630:4631   */\n      0x00\n        /* \"#utility.yul\":4619:4628   */\n      dup4\n        /* \"#utility.yul\":4615:4632   */\n      add\n        /* \"#utility.yul\":4608:4655   */\n      mstore\n        /* \"#utility.yul\":4672:4803   */\n      tag_76\n        /* \"#utility.yul\":4798:4802   */\n      dup2\n        /* \"#utility.yul\":4672:4803   */\n      tag_36\n      jump\t// in\n    tag_76:\n        /* \"#utility.yul\":4664:4803   */\n      swap1\n      pop\n        /* \"#utility.yul\":4391:4810   */\n      swap2\n      swap1\n      pop\n      jump\t// out\n        /* \"#utility.yul\":4816:4996   */\n    tag_37:\n        /* \"#utility.yul\":4864:4941   */\n      0x4e487b7100000000000000000000000000000000000000000000000000000000\n        /* \"#utility.yul\":4861:4862   */\n      0x00\n        /* \"#utility.yul\":4854:4942   */\n      mstore\n        /* \"#utility.yul\":4961:4965   */\n      0x11\n        /* \"#utility.yul\":4958:4959   */\n      0x04\n        /* \"#utility.yul\":4951:4966   */\n      mstore\n        /* \"#utility.yul\":4985:4989   */\n      0x24\n        /* \"#utility.yul\":4982:4983   */\n      0x00\n        /* \"#utility.yul\":4975:4990   */\n      revert\n        /* \"#utility.yul\":5002:5193   */\n    tag_21:\n        /* \"#utility.yul\":5042:5045   */\n      0x00\n        /* \"#utility.yul\":5061:5081   */\n      tag_79\n        /* \"#utility.yul\":5079:5080   */\n      dup3\n        /* \"#utility.yul\":5061:5081   */\n      tag_26\n      jump\t// in\n    tag_79:\n        /* \"#utility.yul\":5056:5081   */\n      swap2\n      pop\n        /* \"#utility.yul\":5095:5115   */\n      tag_80\n        /* \"#utility.yul\":5113:5114   */\n      dup4\n        /* \"#utility.yul\":5095:5115   */\n      tag_26\n      jump\t// in\n    tag_80:\n        /* \"#utility.yul\":5090:5115   */\n      swap3\n      pop\n        /* \"#utility.yul\":5138:5139   */\n      dup3\n        /* \"#utility.yul\":5135:5136   */\n      dup3\n        /* \"#utility.yul\":5131:5140   */\n      add\n        /* \"#utility.yul\":5124:5140   */\n      swap1\n      pop\n        /* \"#utility.yul\":5159:5162   */\n      dup1\n        /* \"#utility.yul\":5156:5157   */\n      dup3\n        /* \"#utility.yul\":5153:5163   */\n      gt\n        /* \"#utility.yul\":5150:5186   */\n      iszero\n      tag_81\n      jumpi\n        /* \"#utility.yul\":5166:5184   */\n      tag_82\n      tag_37\n      jump\t// in\n    tag_82:\n        /* \"#utility.yul\":5150:5186   */\n    tag_81:\n        /* \"#utility.yul\":5002:5193   */\n      swap3\n      swap2\n      pop\n      pop\n      jump\t// out\n\n    auxdata: 0xa26469706673582212204624cde8a0271648bc17772a8e5fe7be825ae040deeac802027d3f31f62b7c6c64736f6c634300081a0033\n}\n",
				"bytecode": {
					"linkReferences": {},
					"object": "6080604052348015600e575f80fd5b506103fe8061001c5f395ff3fe608060405234801561000f575f80fd5b5060043610610029575f3560e01c80639cd781a21461002d575b5f80fd5b61004760048036038101906100429190610182565b61005d565b60405161005491906101e1565b60405180910390f35b5f8084116100a0576040517f08c379a00000000000000000000000000000000000000000000000000000000081526004016100979061027a565b60405180910390fd5b5f8310156100e3576040517f08c379a00000000000000000000000000000000000000000000000000000000081526004016100da906102e2565b60405180910390fd5b5f821015610126576040517f08c379a000000000000000000000000000000000000000000000000000000000815260040161011d9061034a565b60405180910390fd5b5f8284866101349190610395565b61013e9190610395565b9050809150509392505050565b5f80fd5b5f819050919050565b6101618161014f565b811461016b575f80fd5b50565b5f8135905061017c81610158565b92915050565b5f805f606084860312156101995761019861014b565b5b5f6101a68682870161016e565b93505060206101b78682870161016e565b92505060406101c88682870161016e565b9150509250925092565b6101db8161014f565b82525050565b5f6020820190506101f45f8301846101d2565b92915050565b5f82825260208201905092915050565b7f42617369632073616c617279206d7573742062652067726561746572207468615f8201527f6e20300000000000000000000000000000000000000000000000000000000000602082015250565b5f6102646023836101fa565b915061026f8261020a565b604082019050919050565b5f6020820190508181035f83015261029181610258565b9050919050565b7f44412063616e6e6f74206265206e6567617469766500000000000000000000005f82015250565b5f6102cc6015836101fa565b91506102d782610298565b602082019050919050565b5f6020820190508181035f8301526102f9816102c0565b9050919050565b7f4852412063616e6e6f74206265206e65676174697665000000000000000000005f82015250565b5f6103346016836101fa565b915061033f82610300565b602082019050919050565b5f6020820190508181035f83015261036181610328565b9050919050565b7f4e487b71000000000000000000000000000000000000000000000000000000005f52601160045260245ffd5b5f61039f8261014f565b91506103aa8361014f565b92508282019050808211156103c2576103c1610368565b5b9291505056fea26469706673582212204624cde8a0271648bc17772a8e5fe7be825ae040deeac802027d3f31f62b7c6c64736f6c634300081a0033",
					"opcodes": "PUSH1 0x80 PUSH1 0x40 MSTORE CALLVALUE DUP1 ISZERO PUSH1 0xE JUMPI PUSH0 DUP1 REVERT JUMPDEST POP PUSH2 0x3FE DUP1 PUSH2 0x1C PUSH0 CODECOPY PUSH0 RETURN INVALID PUSH1 0x80 PUSH1 0x40 MSTORE CALLVALUE DUP1 ISZERO PUSH2 0xF JUMPI PUSH0 DUP1 REVERT JUMPDEST POP PUSH1 0x4 CALLDATASIZE LT PUSH2 0x29 JUMPI PUSH0 CALLDATALOAD PUSH1 0xE0 SHR DUP1 PUSH4 0x9CD781A2 EQ PUSH2 0x2D JUMPI JUMPDEST PUSH0 DUP1 REVERT JUMPDEST PUSH2 0x47 PUSH1 0x4 DUP1 CALLDATASIZE SUB DUP2 ADD SWAP1 PUSH2 0x42 SWAP2 SWAP1 PUSH2 0x182 JUMP JUMPDEST PUSH2 0x5D JUMP JUMPDEST PUSH1 0x40 MLOAD PUSH2 0x54 SWAP2 SWAP1 PUSH2 0x1E1 JUMP JUMPDEST PUSH1 0x40 MLOAD DUP1 SWAP2 SUB SWAP1 RETURN JUMPDEST PUSH0 DUP1 DUP5 GT PUSH2 0xA0 JUMPI PUSH1 0x40 MLOAD PUSH32 0x8C379A000000000000000000000000000000000000000000000000000000000 DUP2 MSTORE PUSH1 0x4 ADD PUSH2 0x97 SWAP1 PUSH2 0x27A JUMP JUMPDEST PUSH1 0x40 MLOAD DUP1 SWAP2 SUB SWAP1 REVERT JUMPDEST PUSH0 DUP4 LT ISZERO PUSH2 0xE3 JUMPI PUSH1 0x40 MLOAD PUSH32 0x8C379A000000000000000000000000000000000000000000000000000000000 DUP2 MSTORE PUSH1 0x4 ADD PUSH2 0xDA SWAP1 PUSH2 0x2E2 JUMP JUMPDEST PUSH1 0x40 MLOAD DUP1 SWAP2 SUB SWAP1 REVERT JUMPDEST PUSH0 DUP3 LT ISZERO PUSH2 0x126 JUMPI PUSH1 0x40 MLOAD PUSH32 0x8C379A000000000000000000000000000000000000000000000000000000000 DUP2 MSTORE PUSH1 0x4 ADD PUSH2 0x11D SWAP1 PUSH2 0x34A JUMP JUMPDEST PUSH1 0x40 MLOAD DUP1 SWAP2 SUB SWAP1 REVERT JUMPDEST PUSH0 DUP3 DUP5 DUP7 PUSH2 0x134 SWAP2 SWAP1 PUSH2 0x395 JUMP JUMPDEST PUSH2 0x13E SWAP2 SWAP1 PUSH2 0x395 JUMP JUMPDEST SWAP1 POP DUP1 SWAP2 POP POP SWAP4 SWAP3 POP POP POP JUMP JUMPDEST PUSH0 DUP1 REVERT JUMPDEST PUSH0 DUP2 SWAP1 POP SWAP2 SWAP1 POP JUMP JUMPDEST PUSH2 0x161 DUP2 PUSH2 0x14F JUMP JUMPDEST DUP2 EQ PUSH2 0x16B JUMPI PUSH0 DUP1 REVERT JUMPDEST POP JUMP JUMPDEST PUSH0 DUP2 CALLDATALOAD SWAP1 POP PUSH2 0x17C DUP2 PUSH2 0x158 JUMP JUMPDEST SWAP3 SWAP2 POP POP JUMP JUMPDEST PUSH0 DUP1 PUSH0 PUSH1 0x60 DUP5 DUP7 SUB SLT ISZERO PUSH2 0x199 JUMPI PUSH2 0x198 PUSH2 0x14B JUMP JUMPDEST JUMPDEST PUSH0 PUSH2 0x1A6 DUP7 DUP3 DUP8 ADD PUSH2 0x16E JUMP JUMPDEST SWAP4 POP POP PUSH1 0x20 PUSH2 0x1B7 DUP7 DUP3 DUP8 ADD PUSH2 0x16E JUMP JUMPDEST SWAP3 POP POP PUSH1 0x40 PUSH2 0x1C8 DUP7 DUP3 DUP8 ADD PUSH2 0x16E JUMP JUMPDEST SWAP2 POP POP SWAP3 POP SWAP3 POP SWAP3 JUMP JUMPDEST PUSH2 0x1DB DUP2 PUSH2 0x14F JUMP JUMPDEST DUP3 MSTORE POP POP JUMP JUMPDEST PUSH0 PUSH1 0x20 DUP3 ADD SWAP1 POP PUSH2 0x1F4 PUSH0 DUP4 ADD DUP5 PUSH2 0x1D2 JUMP JUMPDEST SWAP3 SWAP2 POP POP JUMP JUMPDEST PUSH0 DUP3 DUP3 MSTORE PUSH1 0x20 DUP3 ADD SWAP1 POP SWAP3 SWAP2 POP POP JUMP JUMPDEST PUSH32 0x42617369632073616C617279206D757374206265206772656174657220746861 PUSH0 DUP3 ADD MSTORE PUSH32 0x6E20300000000000000000000000000000000000000000000000000000000000 PUSH1 0x20 DUP3 ADD MSTORE POP JUMP JUMPDEST PUSH0 PUSH2 0x264 PUSH1 0x23 DUP4 PUSH2 0x1FA JUMP JUMPDEST SWAP2 POP PUSH2 0x26F DUP3 PUSH2 0x20A JUMP JUMPDEST PUSH1 0x40 DUP3 ADD SWAP1 POP SWAP2 SWAP1 POP JUMP JUMPDEST PUSH0 PUSH1 0x20 DUP3 ADD SWAP1 POP DUP2 DUP2 SUB PUSH0 DUP4 ADD MSTORE PUSH2 0x291 DUP2 PUSH2 0x258 JUMP JUMPDEST SWAP1 POP SWAP2 SWAP1 POP JUMP JUMPDEST PUSH32 0x44412063616E6E6F74206265206E656761746976650000000000000000000000 PUSH0 DUP3 ADD MSTORE POP JUMP JUMPDEST PUSH0 PUSH2 0x2CC PUSH1 0x15 DUP4 PUSH2 0x1FA JUMP JUMPDEST SWAP2 POP PUSH2 0x2D7 DUP3 PUSH2 0x298 JUMP JUMPDEST PUSH1 0x20 DUP3 ADD SWAP1 POP SWAP2 SWAP1 POP JUMP JUMPDEST PUSH0 PUSH1 0x20 DUP3 ADD SWAP1 POP DUP2 DUP2 SUB PUSH0 DUP4 ADD MSTORE PUSH2 0x2F9 DUP2 PUSH2 0x2C0 JUMP JUMPDEST SWAP1 POP SWAP2 SWAP1 POP JUMP JUMPDEST PUSH32 0x4852412063616E6E6F74206265206E6567617469766500000000000000000000 PUSH0 DUP3 ADD MSTORE POP JUMP JUMPDEST PUSH0 PUSH2 0x334 PUSH1 0x16 DUP4 PUSH2 0x1FA JUMP JUMPDEST SWAP2 POP PUSH2 0x33F DUP3 PUSH2 0x300 JUMP JUMPDEST PUSH1 0x20 DUP3 ADD SWAP1 POP SWAP2 SWAP1 POP JUMP JUMPDEST PUSH0 PUSH1 0x20 DUP3 ADD SWAP1 POP DUP2 DUP2 SUB PUSH0 DUP4 ADD MSTORE PUSH2 0x361 DUP2 PUSH2 0x328 JUMP JUMPDEST SWAP1 POP SWAP2 SWAP1 POP JUMP JUMPDEST PUSH32 0x4E487B7100000000000000000000000000000000000000000000000000000000 PUSH0 MSTORE PUSH1 0x11 PUSH1 0x4 MSTORE PUSH1 0x24 PUSH0 REVERT JUMPDEST PUSH0 PUSH2 0x39F DUP3 PUSH2 0x14F JUMP JUMPDEST SWAP2 POP PUSH2 0x3AA DUP4 PUSH2 0x14F JUMP JUMPDEST SWAP3 POP DUP3 DUP3 ADD SWAP1 POP DUP1 DUP3 GT ISZERO PUSH2 0x3C2 JUMPI PUSH2 0x3C1 PUSH2 0x368 JUMP JUMPDEST JUMPDEST SWAP3 SWAP2 POP POP JUMP INVALID LOG2 PUSH5 0x6970667358 0x22 SLT KECCAK256 CHAINID 0x24 0xCD 0xE8 LOG0 0x27 AND BASEFEE 0xBC OR PUSH24 0x2A8E5FE7BE825AE040DEEAC802027D3F31F62B7C6C64736F PUSH13 0x634300081A0033000000000000 "
				},
				"gasEstimates": {
					"creation": {
						"codeDepositCost": "204400",
						"executionCost": "243",
						"totalCost": "204643"
					},
					"external": {
						"calculateTotalPay(uint256,uint256,uint256)": "infinite"
					}
				},
				"methodIdentifiers": {
					"calculateTotalPay(uint256,uint256,uint256)": "9cd781a2"
				}
			},
			"storageLayout": {
				"storage": [],
				"types": null
			},
			"userdoc": {
				"kind": "user",
				"methods": {},
				"version": 1
			}
		}
	}
}