{
	"data": {
		"bytecode": {
			"linkReferences": {},
			"object": "608060405234801561001057600080fd5b5060405161044c38038061044c8339818101604052810190610032919061009a565b84600081905550836001819055508260028190555081600381905550806004819055505050505050610115565b600080fd5b6000819050919050565b61007781610064565b811461008257600080fd5b50565b6000815190506100948161006e565b92915050565b600080600080600060a086880312156100b6576100b561005f565b5b60006100c488828901610085565b95505060206100d588828901610085565b94505060406100e688828901610085565b93505060606100f788828901610085565b925050608061010888828901610085565b9150509295509295909350565b610328806101246000396000f3fe608060405234801561001057600080fd5b506004361061007d5760003560e01c80635001f3b51161005b5780635001f3b5146100dc5780637ebeb19c146100fa57806385be3e6214610118578063e7bd19d9146101365761007d565b80630ef26743146100825780631cbe93f2146100a057806332e8be6b146100be575b600080fd5b61008a610154565b60405161009791906101d2565b60405180910390f35b6100a861015a565b6040516100b591906101d2565b60405180910390f35b6100c6610160565b6040516100d391906101d2565b60405180910390f35b6100e4610166565b6040516100f191906101d2565b60405180910390f35b61010261016c565b60405161010f91906101d2565b60405180910390f35b610120610190565b60405161012d91906101d2565b60405180910390f35b61013e6101b3565b60405161014b91906101d2565b60405180910390f35b60045481565b60025481565b60015481565b60035481565b6000600254600154600054610181919061021c565b61018b919061021c565b905090565b600060026004546003546101a49190610250565b6101ae91906102c1565b905090565b60005481565b6000819050919050565b6101cc816101b9565b82525050565b60006020820190506101e760008301846101c3565b92915050565b7f4e487b7100000000000000000000000000000000000000000000000000000000600052601160045260246000fd5b6000610227826101b9565b9150610232836101b9565b925082820190508082111561024a576102496101ed565b5b92915050565b600061025b826101b9565b9150610266836101b9565b9250828202610274816101b9565b9150828204841483151761028b5761028a6101ed565b5b5092915050565b7f4e487b7100000000000000000000000000000000000000000000000000000000600052601260045260246000fd5b60006102cc826101b9565b91506102d7836101b9565b9250826102e7576102e6610292565b5b82820490509291505056fea26469706673582212200723a1e1d9559fffcfdc3ead83f56e4eec020d61666359693521c4adb2437b5c64736f6c63430008120033",
			"opcodes": "PUSH1 0x80 PUSH1 0x40 MSTORE CALLVALUE DUP1 ISZERO PUSH2 0x10 JUMPI PUSH1 0x0 DUP1 REVERT JUMPDEST POP PUSH1 0x40 MLOAD PUSH2 0x44C CODESIZE SUB DUP1 PUSH2 0x44C DUP4 CODECOPY DUP2 DUP2 ADD PUSH1 0x40 MSTORE DUP2 ADD SWAP1 PUSH2 0x32 SWAP2 SWAP1 PUSH2 0x9A JUMP JUMPDEST DUP5 PUSH1 0x0 DUP2 SWAP1 SSTORE POP DUP4 PUSH1 0x1 DUP2 SWAP1 SSTORE POP DUP3 PUSH1 0x2 DUP2 SWAP1 SSTORE POP DUP2 PUSH1 0x3 DUP2 SWAP1 SSTORE POP DUP1 PUSH1 0x4 DUP2 SWAP1 SSTORE POP POP POP POP POP POP PUSH2 0x115 JUMP JUMPDEST PUSH1 0x0 DUP1 REVERT JUMPDEST PUSH1 0x0 DUP2 SWAP1 POP SWAP2 SWAP1 POP JUMP JUMPDEST PUSH2 0x77 DUP2 PUSH2 0x64 JUMP JUMPDEST DUP2 EQ PUSH2 0x82 JUMPI PUSH1 0x0 DUP1 REVERT JUMPDEST POP JUMP JUMPDEST PUSH1 0x0 DUP2 MLOAD SWAP1 POP PUSH2 0x94 DUP2 PUSH2 0x6E JUMP JUMPDEST SWAP3 SWAP2 POP POP JUMP JUMPDEST PUSH1 0x0 DUP1 PUSH1 0x0 DUP1 PUSH1 0x0 PUSH1 0xA0 DUP7 DUP9 SUB SLT ISZERO PUSH2 0xB6 JUMPI PUSH2 0xB5 PUSH2 0x5F JUMP JUMPDEST JUMPDEST PUSH1 0x0 PUSH2 0xC4 DUP9 DUP3 DUP10 ADD PUSH2 0x85 JUMP JUMPDEST SWAP6 POP POP PUSH1 0x20 PUSH2 0xD5 DUP9 DUP3 DUP10 ADD PUSH2 0x85 JUMP JUMPDEST SWAP5 POP POP PUSH1 0x40 PUSH2 0xE6 DUP9 DUP3 DUP10 ADD PUSH2 0x85 JUMP JUMPDEST SWAP4 POP POP PUSH1 0x60 PUSH2 0xF7 DUP9 DUP3 DUP10 ADD PUSH2 0x85 JUMP JUMPDEST SWAP3 POP POP PUSH1 0x80 PUSH2 0x108 DUP9 DUP3 DUP10 ADD PUSH2 0x85 JUMP JUMPDEST SWAP2 POP POP SWAP3 SWAP6 POP SWAP3 SWAP6 SWAP1 SWAP4 POP JUMP JUMPDEST PUSH2 0x328 DUP1 PUSH2 0x124 PUSH1 0x0 CODECOPY PUSH1 0x0 RETURN INVALID PUSH1 0x80 PUSH1 0x40 MSTORE CALLVALUE DUP1 ISZERO PUSH2 0x10 JUMPI PUSH1 0x0 DUP1 REVERT JUMPDEST POP PUSH1 0x4 CALLDATASIZE LT PUSH2 0x7D JUMPI PUSH1 0x0 CALLDATALOAD PUSH1 0xE0 SHR DUP1 PUSH4 0x5001F3B5 GT PUSH2 0x5B JUMPI DUP1 PUSH4 0x5001F3B5 EQ PUSH2 0xDC JUMPI DUP1 PUSH4 0x7EBEB19C EQ PUSH2 0xFA JUMPI DUP1 PUSH4 0x85BE3E62 EQ PUSH2 0x118 JUMPI DUP1 PUSH4 0xE7BD19D9 EQ PUSH2 0x136 JUMPI PUSH2 0x7D JUMP JUMPDEST DUP1 PUSH4 0xEF26743 EQ PUSH2 0x82 JUMPI DUP1 PUSH4 0x1CBE93F2 EQ PUSH2 0xA0 JUMPI DUP1 PUSH4 0x32E8BE6B EQ PUSH2 0xBE JUMPI JUMPDEST PUSH1 0x0 DUP1 REVERT JUMPDEST PUSH2 0x8A PUSH2 0x154 JUMP JUMPDEST PUSH1 0x40 MLOAD PUSH2 0x97 SWAP2 SWAP1 PUSH2 0x1D2 JUMP JUMPDEST PUSH1 0x40 MLOAD DUP1 SWAP2 SUB SWAP1 RETURN JUMPDEST PUSH2 0xA8 PUSH2 0x15A JUMP JUMPDEST PUSH1 0x40 MLOAD PUSH2 0xB5 SWAP2 SWAP1 PUSH2 0x1D2 JUMP JUMPDEST PUSH1 0x40 MLOAD DUP1 SWAP2 SUB SWAP1 RETURN JUMPDEST PUSH2 0xC6 PUSH2 0x160 JUMP JUMPDEST PUSH1 0x40 MLOAD PUSH2 0xD3 SWAP2 SWAP1 PUSH2 0x1D2 JUMP JUMPDEST PUSH1 0x40 MLOAD DUP1 SWAP2 SUB SWAP1 RETURN JUMPDEST PUSH2 0xE4 PUSH2 0x166 JUMP JUMPDEST PUSH1 0x40 MLOAD PUSH2 0xF1 SWAP2 SWAP1 PUSH2 0x1D2 JUMP JUMPDEST PUSH1 0x40 MLOAD DUP1 SWAP2 SUB SWAP1 RETURN JUMPDEST PUSH2 0x102 PUSH2 0x16C JUMP JUMPDEST PUSH1 0x40 MLOAD PUSH2 0x10F SWAP2 SWAP1 PUSH2 0x1D2 JUMP JUMPDEST PUSH1 0x40 MLOAD DUP1 SWAP2 SUB SWAP1 RETURN JUMPDEST PUSH2 0x120 PUSH2 0x190 JUMP JUMPDEST PUSH1 0x40 MLOAD PUSH2 0x12D SWAP2 SWAP1 PUSH2 0x1D2 JUMP JUMPDEST PUSH1 0x40 MLOAD DUP1 SWAP2 SUB SWAP1 RETURN JUMPDEST PUSH2 0x13E PUSH2 0x1B3 JUMP JUMPDEST PUSH1 0x40 MLOAD PUSH2 0x14B SWAP2 SWAP1 PUSH2 0x1D2 JUMP JUMPDEST PUSH1 0x40 MLOAD DUP1 SWAP2 SUB SWAP1 RETURN JUMPDEST PUSH1 0x4 SLOAD DUP2 JUMP JUMPDEST PUSH1 0x2 SLOAD DUP2 JUMP JUMPDEST PUSH1 0x1 SLOAD DUP2 JUMP JUMPDEST PUSH1 0x3 SLOAD DUP2 JUMP JUMPDEST PUSH1 0x0 PUSH1 0x2 SLOAD PUSH1 0x1 SLOAD PUSH1 0x0 SLOAD PUSH2 0x181 SWAP2 SWAP1 PUSH2 0x21C JUMP JUMPDEST PUSH2 0x18B SWAP2 SWAP1 PUSH2 0x21C JUMP JUMPDEST SWAP1 POP SWAP1 JUMP JUMPDEST PUSH1 0x0 PUSH1 0x2 PUSH1 0x4 SLOAD PUSH1 0x3 SLOAD PUSH2 0x1A4 SWAP2 SWAP1 PUSH2 0x250 JUMP JUMPDEST PUSH2 0x1AE SWAP2 SWAP1 PUSH2 0x2C1 JUMP JUMPDEST SWAP1 POP SWAP1 JUMP JUMPDEST PUSH1 0x0 SLOAD DUP2 JUMP JUMPDEST PUSH1 0x0 DUP2 SWAP1 POP SWAP2 SWAP1 POP JUMP JUMPDEST PUSH2 0x1CC DUP2 PUSH2 0x1B9 JUMP JUMPDEST DUP3 MSTORE POP POP JUMP JUMPDEST PUSH1 0x0 PUSH1 0x20 DUP3 ADD SWAP1 POP PUSH2 0x1E7 PUSH1 0x0 DUP4 ADD DUP5 PUSH2 0x1C3 JUMP JUMPDEST SWAP3 SWAP2 POP POP JUMP JUMPDEST PUSH32 0x4E487B7100000000000000000000000000000000000000000000000000000000 PUSH1 0x0 MSTORE PUSH1 0x11 PUSH1 0x4 MSTORE PUSH1 0x24 PUSH1 0x0 REVERT JUMPDEST PUSH1 0x0 PUSH2 0x227 DUP3 PUSH2 0x1B9 JUMP JUMPDEST SWAP2 POP PUSH2 0x232 DUP4 PUSH2 0x1B9 JUMP JUMPDEST SWAP3 POP DUP3 DUP3 ADD SWAP1 POP DUP1 DUP3 GT ISZERO PUSH2 0x24A JUMPI PUSH2 0x249 PUSH2 0x1ED JUMP JUMPDEST JUMPDEST SWAP3 SWAP2 POP POP JUMP JUMPDEST PUSH1 0x0 PUSH2 0x25B DUP3 PUSH2 0x1B9 JUMP JUMPDEST SWAP2 POP PUSH2 0x266 DUP4 PUSH2 0x1B9 JUMP JUMPDEST SWAP3 POP DUP3 DUP3 MUL PUSH2 0x274 DUP2 PUSH2 0x1B9 JUMP JUMPDEST SWAP2 POP DUP3 DUP3 DIV DUP5 EQ DUP4 ISZERO OR PUSH2 0x28B JUMPI PUSH2 0x28A PUSH2 0x1ED JUMP JUMPDEST JUMPDEST POP SWAP3 SWAP2 POP POP JUMP JUMPDEST PUSH32 0x4E487B7100000000000000000000000000000000000000000000000000000000 PUSH1 0x0 MSTORE PUSH1 0x12 PUSH1 0x4 MSTORE PUSH1 0x24 PUSH1 0x0 REVERT JUMPDEST PUSH1 0x0 PUSH2 0x2CC DUP3 PUSH2 0x1B9 JUMP JUMPDEST SWAP2 POP PUSH2 0x2D7 DUP4 PUSH2 0x1B9 JUMP JUMPDEST SWAP3 POP DUP3 PUSH2 0x2E7 JUMPI PUSH2 0x2E6 PUSH2 0x292 JUMP JUMPDEST JUMPDEST DUP3 DUP3 DIV SWAP1 POP SWAP3 SWAP2 POP POP JUMP INVALID LOG2 PUSH5 0x6970667358 0x22 SLT KECCAK256 SMOD 0x23 LOG1 0xE1 0xD9 SSTORE SWAP16 SELFDESTRUCT 0xCF 0xDC RETURNDATACOPY 0xAD DUP4 CREATE2 PUSH15 0x4EEC020D61666359693521C4ADB243 PUSH28 0x5C64736F6C6343000812003300000000000000000000000000000000 "
		},
		"gasEstimates": {
			"creation": {
				"codeDepositCost": "161600",
				"executionCost": "infinite",
				"totalCost": "infinite"
			},
			"external": {
				"base()": "2429",
				"getArea()": "infinite",
				"getPerimeter()": "infinite",
				"height()": "2430",
				"side1()": "2495",
				"side2()": "2474",
				"side3()": "2452"
			}
		},
		"methodIdentifiers": {
			"base()": "5001f3b5",
			"getArea()": "85be3e62",
			"getPerimeter()": "7ebeb19c",
			"height()": "0ef26743",
			"side1()": "e7bd19d9",
			"side2()": "32e8be6b",
			"side3()": "1cbe93f2"
		}
	},
	"abi": [
		{
			"inputs": [
				{
					"internalType": "uint256",
					"name": "_side1",
					"type": "uint256"
				},
				{
					"internalType": "uint256",
					"name": "_side2",
					"type": "uint256"
				},
				{
					"internalType": "uint256",
					"name": "_side3",
					"type": "uint256"
				},
				{
					"internalType": "uint256",
					"name": "_base",
					"type": "uint256"
				},
				{
					"internalType": "uint256",
					"name": "_height",
					"type": "uint256"
				}
			],
			"stateMutability": "nonpayable",
			"type": "constructor"
		},
		{
			"inputs": [],
			"name": "base",
			"outputs": [
				{
					"internalType": "uint256",
					"name": "",
					"type": "uint256"
				}
			],
			"stateMutability": "view",
			"type": "function"
		},
		{
			"inputs": [],
			"name": "getArea",
			"outputs": [
				{
					"internalType": "uint256",
					"name": "",
					"type": "uint256"
				}
			],
			"stateMutability": "view",
			"type": "function"
		},
		{
			"inputs": [],
			"name": "getPerimeter",
			"outputs": [
				{
					"internalType": "uint256",
					"name": "",
					"type": "uint256"
				}
			],
			"stateMutability": "view",
			"type": "function"
		},
		{
			"inputs": [],
			"name": "height",
			"outputs": [
				{
					"internalType": "uint256",
					"name": "",
					"type": "uint256"
				}
			],
			"stateMutability": "view",
			"type": "function"
		},
		{
			"inputs": [],
			"name": "side1",
			"outputs": [
				{
					"internalType": "uint256",
					"name": "",
					"type": "uint256"
				}
			],
			"stateMutability": "view",
			"type": "function"
		},
		{
			"inputs": [],
			"name": "side2",
			"outputs": [
				{
					"internalType": "uint256",
					"name": "",
					"type": "uint256"
				}
			],
			"stateMutability": "view",
			"type": "function"
		},
		{
			"inputs": [],
			"name": "side3",
			"outputs": [
				{
					"internalType": "uint256",
					"name": "",
					"type": "uint256"
				}
			],
			"stateMutability": "view",
			"type": "function"
		}
	]
}