{
	"data": {
		"bytecode": {
			"linkReferences": {},
			"object": "608060405234801561000f575f80fd5b506105b98061001d5f395ff3fe608060405234801561000f575f80fd5b5060043610610086575f3560e01c8063808545c611610059578063808545c614610100578063a06842511461011e578063b53b8d7a1461013c578063f3593cd01461015a57610086565b80630f5fcd9e1461008a57806339d7425a146100a85780634f2be91f146100c45780636deebae3146100e2575b5f80fd5b610092610178565b60405161009f919061029d565b60405180910390f35b6100c260048036038101906100bd91906102e4565b61017e565b005b6100cc61018f565b6040516100d9919061029d565b60405180910390f35b6100ea6101a4565b6040516100f7919061029d565b60405180910390f35b6101086101b9565b604051610115919061029d565b60405180910390f35b6101266101be565b604051610133919061029d565b60405180910390f35b610144610217565b604051610151919061029d565b60405180910390f35b610162610270565b60405161016f919061029d565b60405180910390f35b60015481565b815f81905550806001819055505050565b5f6001545f5461019f919061034f565b905090565b5f6001545f546101b49190610390565b905090565b5f5481565b5f8060015403610203576040517f08c379a00000000000000000000000000000000000000000000000000000000081526004016101fa9061042a565b60405180910390fd5b6001545f546102129190610475565b905090565b5f806001540361025c576040517f08c379a00000000000000000000000000000000000000000000000000000000081526004016102539061042a565b60405180910390fd5b6001545f5461026b91906104a5565b905090565b5f6001545f54610280919061050d565b905090565b5f819050919050565b61029781610285565b82525050565b5f6020820190506102b05f83018461028e565b92915050565b5f80fd5b6102c381610285565b81146102cd575f80fd5b50565b5f813590506102de816102ba565b92915050565b5f80604083850312156102fa576102f96102b6565b5b5f610307858286016102d0565b9250506020610318858286016102d0565b9150509250929050565b7f4e487b71000000000000000000000000000000000000000000000000000000005f52601160045260245ffd5b5f61035982610285565b915061036483610285565b92508282019050828112155f8312168382125f84121516171561038a57610389610322565b5b92915050565b5f61039a82610285565b91506103a583610285565b925082820390508181125f8412168282135f8512151617156103ca576103c9610322565b5b92915050565b5f82825260208201905092915050565b7f43616e6e6f7420646976696465206279207a65726f00000000000000000000005f82015250565b5f6104146015836103d0565b915061041f826103e0565b602082019050919050565b5f6020820190508181035f83015261044181610408565b9050919050565b7f4e487b71000000000000000000000000000000000000000000000000000000005f52601260045260245ffd5b5f61047f82610285565b915061048a83610285565b92508261049a57610499610448565b5b828207905092915050565b5f6104af82610285565b91506104ba83610285565b9250826104ca576104c9610448565b5b60015f0383147f80000000000000000000000000000000000000000000000000000000000000008314161561050257610501610322565b5b828205905092915050565b5f61051782610285565b915061052283610285565b925082820261053081610285565b91507f800000000000000000000000000000000000000000000000000000000000000084145f8412161561056757610566610322565b5b828205841483151761057c5761057b610322565b5b509291505056fea2646970667358221220815e20e0b4b498f43d91dba6aaffe9ea281bd87c6f04aefd8d2a79267462655b64736f6c63430008140033",
			"opcodes": "PUSH1 0x80 PUSH1 0x40 MSTORE CALLVALUE DUP1 ISZERO PUSH2 0xF JUMPI PUSH0 DUP1 REVERT JUMPDEST POP PUSH2 0x5B9 DUP1 PUSH2 0x1D PUSH0 CODECOPY PUSH0 RETURN INVALID PUSH1 0x80 PUSH1 0x40 MSTORE CALLVALUE DUP1 ISZERO PUSH2 0xF JUMPI PUSH0 DUP1 REVERT JUMPDEST POP PUSH1 0x4 CALLDATASIZE LT PUSH2 0x86 JUMPI PUSH0 CALLDATALOAD PUSH1 0xE0 SHR DUP1 PUSH4 0x808545C6 GT PUSH2 0x59 JUMPI DUP1 PUSH4 0x808545C6 EQ PUSH2 0x100 JUMPI DUP1 PUSH4 0xA0684251 EQ PUSH2 0x11E JUMPI DUP1 PUSH4 0xB53B8D7A EQ PUSH2 0x13C JUMPI DUP1 PUSH4 0xF3593CD0 EQ PUSH2 0x15A JUMPI PUSH2 0x86 JUMP JUMPDEST DUP1 PUSH4 0xF5FCD9E EQ PUSH2 0x8A JUMPI DUP1 PUSH4 0x39D7425A EQ PUSH2 0xA8 JUMPI DUP1 PUSH4 0x4F2BE91F EQ PUSH2 0xC4 JUMPI DUP1 PUSH4 0x6DEEBAE3 EQ PUSH2 0xE2 JUMPI JUMPDEST PUSH0 DUP1 REVERT JUMPDEST PUSH2 0x92 PUSH2 0x178 JUMP JUMPDEST PUSH1 0x40 MLOAD PUSH2 0x9F SWAP2 SWAP1 PUSH2 0x29D JUMP JUMPDEST PUSH1 0x40 MLOAD DUP1 SWAP2 SUB SWAP1 RETURN JUMPDEST PUSH2 0xC2 PUSH1 0x4 DUP1 CALLDATASIZE SUB DUP2 ADD SWAP1 PUSH2 0xBD SWAP2 SWAP1 PUSH2 0x2E4 JUMP JUMPDEST PUSH2 0x17E JUMP JUMPDEST STOP JUMPDEST PUSH2 0xCC PUSH2 0x18F JUMP JUMPDEST PUSH1 0x40 MLOAD PUSH2 0xD9 SWAP2 SWAP1 PUSH2 0x29D JUMP JUMPDEST PUSH1 0x40 MLOAD DUP1 SWAP2 SUB SWAP1 RETURN JUMPDEST PUSH2 0xEA PUSH2 0x1A4 JUMP JUMPDEST PUSH1 0x40 MLOAD PUSH2 0xF7 SWAP2 SWAP1 PUSH2 0x29D JUMP JUMPDEST PUSH1 0x40 MLOAD DUP1 SWAP2 SUB SWAP1 RETURN JUMPDEST PUSH2 0x108 PUSH2 0x1B9 JUMP JUMPDEST PUSH1 0x40 MLOAD PUSH2 0x115 SWAP2 SWAP1 PUSH2 0x29D JUMP JUMPDEST PUSH1 0x40 MLOAD DUP1 SWAP2 SUB SWAP1 RETURN JUMPDEST PUSH2 0x126 PUSH2 0x1BE JUMP JUMPDEST PUSH1 0x40 MLOAD PUSH2 0x133 SWAP2 SWAP1 PUSH2 0x29D JUMP JUMPDEST PUSH1 0x40 MLOAD DUP1 SWAP2 SUB SWAP1 RETURN JUMPDEST PUSH2 0x144 PUSH2 0x217 JUMP JUMPDEST PUSH1 0x40 MLOAD PUSH2 0x151 SWAP2 SWAP1 PUSH2 0x29D JUMP JUMPDEST PUSH1 0x40 MLOAD DUP1 SWAP2 SUB SWAP1 RETURN JUMPDEST PUSH2 0x162 PUSH2 0x270 JUMP JUMPDEST PUSH1 0x40 MLOAD PUSH2 0x16F SWAP2 SWAP1 PUSH2 0x29D JUMP JUMPDEST PUSH1 0x40 MLOAD DUP1 SWAP2 SUB SWAP1 RETURN JUMPDEST PUSH1 0x1 SLOAD DUP2 JUMP JUMPDEST DUP2 PUSH0 DUP2 SWAP1 SSTORE POP DUP1 PUSH1 0x1 DUP2 SWAP1 SSTORE POP POP POP JUMP JUMPDEST PUSH0 PUSH1 0x1 SLOAD PUSH0 SLOAD PUSH2 0x19F SWAP2 SWAP1 PUSH2 0x34F JUMP JUMPDEST SWAP1 POP SWAP1 JUMP JUMPDEST PUSH0 PUSH1 0x1 SLOAD PUSH0 SLOAD PUSH2 0x1B4 SWAP2 SWAP1 PUSH2 0x390 JUMP JUMPDEST SWAP1 POP SWAP1 JUMP JUMPDEST PUSH0 SLOAD DUP2 JUMP JUMPDEST PUSH0 DUP1 PUSH1 0x1 SLOAD SUB PUSH2 0x203 JUMPI PUSH1 0x40 MLOAD PUSH32 0x8C379A000000000000000000000000000000000000000000000000000000000 DUP2 MSTORE PUSH1 0x4 ADD PUSH2 0x1FA SWAP1 PUSH2 0x42A JUMP JUMPDEST PUSH1 0x40 MLOAD DUP1 SWAP2 SUB SWAP1 REVERT JUMPDEST PUSH1 0x1 SLOAD PUSH0 SLOAD PUSH2 0x212 SWAP2 SWAP1 PUSH2 0x475 JUMP JUMPDEST SWAP1 POP SWAP1 JUMP JUMPDEST PUSH0 DUP1 PUSH1 0x1 SLOAD SUB PUSH2 0x25C JUMPI PUSH1 0x40 MLOAD PUSH32 0x8C379A000000000000000000000000000000000000000000000000000000000 DUP2 MSTORE PUSH1 0x4 ADD PUSH2 0x253 SWAP1 PUSH2 0x42A JUMP JUMPDEST PUSH1 0x40 MLOAD DUP1 SWAP2 SUB SWAP1 REVERT JUMPDEST PUSH1 0x1 SLOAD PUSH0 SLOAD PUSH2 0x26B SWAP2 SWAP1 PUSH2 0x4A5 JUMP JUMPDEST SWAP1 POP SWAP1 JUMP JUMPDEST PUSH0 PUSH1 0x1 SLOAD PUSH0 SLOAD PUSH2 0x280 SWAP2 SWAP1 PUSH2 0x50D JUMP JUMPDEST SWAP1 POP SWAP1 JUMP JUMPDEST PUSH0 DUP2 SWAP1 POP SWAP2 SWAP1 POP JUMP JUMPDEST PUSH2 0x297 DUP2 PUSH2 0x285 JUMP JUMPDEST DUP3 MSTORE POP POP JUMP JUMPDEST PUSH0 PUSH1 0x20 DUP3 ADD SWAP1 POP PUSH2 0x2B0 PUSH0 DUP4 ADD DUP5 PUSH2 0x28E JUMP JUMPDEST SWAP3 SWAP2 POP POP JUMP JUMPDEST PUSH0 DUP1 REVERT JUMPDEST PUSH2 0x2C3 DUP2 PUSH2 0x285 JUMP JUMPDEST DUP2 EQ PUSH2 0x2CD JUMPI PUSH0 DUP1 REVERT JUMPDEST POP JUMP JUMPDEST PUSH0 DUP2 CALLDATALOAD SWAP1 POP PUSH2 0x2DE DUP2 PUSH2 0x2BA JUMP JUMPDEST SWAP3 SWAP2 POP POP JUMP JUMPDEST PUSH0 DUP1 PUSH1 0x40 DUP4 DUP6 SUB SLT ISZERO PUSH2 0x2FA JUMPI PUSH2 0x2F9 PUSH2 0x2B6 JUMP JUMPDEST JUMPDEST PUSH0 PUSH2 0x307 DUP6 DUP3 DUP7 ADD PUSH2 0x2D0 JUMP JUMPDEST SWAP3 POP POP PUSH1 0x20 PUSH2 0x318 DUP6 DUP3 DUP7 ADD PUSH2 0x2D0 JUMP JUMPDEST SWAP2 POP POP SWAP3 POP SWAP3 SWAP1 POP JUMP JUMPDEST PUSH32 0x4E487B7100000000000000000000000000000000000000000000000000000000 PUSH0 MSTORE PUSH1 0x11 PUSH1 0x4 MSTORE PUSH1 0x24 PUSH0 REVERT JUMPDEST PUSH0 PUSH2 0x359 DUP3 PUSH2 0x285 JUMP JUMPDEST SWAP2 POP PUSH2 0x364 DUP4 PUSH2 0x285 JUMP JUMPDEST SWAP3 POP DUP3 DUP3 ADD SWAP1 POP DUP3 DUP2 SLT ISZERO PUSH0 DUP4 SLT AND DUP4 DUP3 SLT PUSH0 DUP5 SLT ISZERO AND OR ISZERO PUSH2 0x38A JUMPI PUSH2 0x389 PUSH2 0x322 JUMP JUMPDEST JUMPDEST SWAP3 SWAP2 POP POP JUMP JUMPDEST PUSH0 PUSH2 0x39A DUP3 PUSH2 0x285 JUMP JUMPDEST SWAP2 POP PUSH2 0x3A5 DUP4 PUSH2 0x285 JUMP JUMPDEST SWAP3 POP DUP3 DUP3 SUB SWAP1 POP DUP2 DUP2 SLT PUSH0 DUP5 SLT AND DUP3 DUP3 SGT PUSH0 DUP6 SLT ISZERO AND OR ISZERO PUSH2 0x3CA JUMPI PUSH2 0x3C9 PUSH2 0x322 JUMP JUMPDEST JUMPDEST SWAP3 SWAP2 POP POP JUMP JUMPDEST PUSH0 DUP3 DUP3 MSTORE PUSH1 0x20 DUP3 ADD SWAP1 POP SWAP3 SWAP2 POP POP JUMP JUMPDEST PUSH32 0x43616E6E6F7420646976696465206279207A65726F0000000000000000000000 PUSH0 DUP3 ADD MSTORE POP JUMP JUMPDEST PUSH0 PUSH2 0x414 PUSH1 0x15 DUP4 PUSH2 0x3D0 JUMP JUMPDEST SWAP2 POP PUSH2 0x41F DUP3 PUSH2 0x3E0 JUMP JUMPDEST PUSH1 0x20 DUP3 ADD SWAP1 POP SWAP2 SWAP1 POP JUMP JUMPDEST PUSH0 PUSH1 0x20 DUP3 ADD SWAP1 POP DUP2 DUP2 SUB PUSH0 DUP4 ADD MSTORE PUSH2 0x441 DUP2 PUSH2 0x408 JUMP JUMPDEST SWAP1 POP SWAP2 SWAP1 POP JUMP JUMPDEST PUSH32 0x4E487B7100000000000000000000000000000000000000000000000000000000 PUSH0 MSTORE PUSH1 0x12 PUSH1 0x4 MSTORE PUSH1 0x24 PUSH0 REVERT JUMPDEST PUSH0 PUSH2 0x47F DUP3 PUSH2 0x285 JUMP JUMPDEST SWAP2 POP PUSH2 0x48A DUP4 PUSH2 0x285 JUMP JUMPDEST SWAP3 POP DUP3 PUSH2 0x49A JUMPI PUSH2 0x499 PUSH2 0x448 JUMP JUMPDEST JUMPDEST DUP3 DUP3 SMOD SWAP1 POP SWAP3 SWAP2 POP POP JUMP JUMPDEST PUSH0 PUSH2 0x4AF DUP3 PUSH2 0x285 JUMP JUMPDEST SWAP2 POP PUSH2 0x4BA DUP4 PUSH2 0x285 JUMP JUMPDEST SWAP3 POP DUP3 PUSH2 0x4CA JUMPI PUSH2 0x4C9 PUSH2 0x448 JUMP JUMPDEST JUMPDEST PUSH1 0x1 PUSH0 SUB DUP4 EQ PUSH32 0x8000000000000000000000000000000000000000000000000000000000000000 DUP4 EQ AND ISZERO PUSH2 0x502 JUMPI PUSH2 0x501 PUSH2 0x322 JUMP JUMPDEST JUMPDEST DUP3 DUP3 SDIV SWAP1 POP SWAP3 SWAP2 POP POP JUMP JUMPDEST PUSH0 PUSH2 0x517 DUP3 PUSH2 0x285 JUMP JUMPDEST SWAP2 POP PUSH2 0x522 DUP4 PUSH2 0x285 JUMP JUMPDEST SWAP3 POP DUP3 DUP3 MUL PUSH2 0x530 DUP2 PUSH2 0x285 JUMP JUMPDEST SWAP2 POP PUSH32 0x8000000000000000000000000000000000000000000000000000000000000000 DUP5 EQ PUSH0 DUP5 SLT AND ISZERO PUSH2 0x567 JUMPI PUSH2 0x566 PUSH2 0x322 JUMP JUMPDEST JUMPDEST DUP3 DUP3 SDIV DUP5 EQ DUP4 ISZERO OR PUSH2 0x57C JUMPI PUSH2 0x57B PUSH2 0x322 JUMP JUMPDEST JUMPDEST POP SWAP3 SWAP2 POP POP JUMP INVALID LOG2 PUSH5 0x6970667358 0x22 SLT KECCAK256 DUP2 0x5E KECCAK256 0xE0 0xB4 0xB4 SWAP9 DELEGATECALL RETURNDATASIZE SWAP2 0xDB 0xA6 0xAA SELFDESTRUCT 0xE9 0xEA 0x28 SHL 0xD8 PUSH29 0x6F04AEFD8D2A79267462655B64736F6C63430008140033000000000000 "
		},
		"gasEstimates": {
			"creation": {
				"codeDepositCost": "293000",
				"executionCost": "329",
				"totalCost": "293329"
			},
			"external": {
				"add()": "infinite",
				"divide()": "infinite",
				"inputA()": "2424",
				"inputB()": "2426",
				"multiply()": "infinite",
				"remainder()": "infinite",
				"setInputs(int256,int256)": "infinite",
				"subtract()": "infinite"
			}
		},
		"methodIdentifiers": {
			"add()": "4f2be91f",
			"divide()": "b53b8d7a",
			"inputA()": "808545c6",
			"inputB()": "0f5fcd9e",
			"multiply()": "f3593cd0",
			"remainder()": "a0684251",
			"setInputs(int256,int256)": "39d7425a",
			"subtract()": "6deebae3"
		}
	},
	"abi": [
		{
			"inputs": [],
			"name": "add",
			"outputs": [
				{
					"internalType": "int256",
					"name": "",
					"type": "int256"
				}
			],
			"stateMutability": "view",
			"type": "function"
		},
		{
			"inputs": [],
			"name": "divide",
			"outputs": [
				{
					"internalType": "int256",
					"name": "",
					"type": "int256"
				}
			],
			"stateMutability": "view",
			"type": "function"
		},
		{
			"inputs": [],
			"name": "inputA",
			"outputs": [
				{
					"internalType": "int256",
					"name": "",
					"type": "int256"
				}
			],
			"stateMutability": "view",
			"type": "function"
		},
		{
			"inputs": [],
			"name": "inputB",
			"outputs": [
				{
					"internalType": "int256",
					"name": "",
					"type": "int256"
				}
			],
			"stateMutability": "view",
			"type": "function"
		},
		{
			"inputs": [],
			"name": "multiply",
			"outputs": [
				{
					"internalType": "int256",
					"name": "",
					"type": "int256"
				}
			],
			"stateMutability": "view",
			"type": "function"
		},
		{
			"inputs": [],
			"name": "remainder",
			"outputs": [
				{
					"internalType": "int256",
					"name": "",
					"type": "int256"
				}
			],
			"stateMutability": "view",
			"type": "function"
		},
		{
			"inputs": [
				{
					"internalType": "int256",
					"name": "a",
					"type": "int256"
				},
				{
					"internalType": "int256",
					"name": "b",
					"type": "int256"
				}
			],
			"name": "setInputs",
			"outputs": [],
			"stateMutability": "nonpayable",
			"type": "function"
		},
		{
			"inputs": [],
			"name": "subtract",
			"outputs": [
				{
					"internalType": "int256",
					"name": "",
					"type": "int256"
				}
			],
			"stateMutability": "view",
			"type": "function"
		}
	]
}