{
	"data": {
		"bytecode": {
			"linkReferences": {},
			"object": "608060405234801561001057600080fd5b50610834806100206000396000f3fe608060405234801561001057600080fd5b506004361061004c5760003560e01c8063041a4e56146100515780631ec12603146100815780633d41c222146100b157806342703494146100e1575b600080fd5b61006b60048036038101906100669190610412565b610111565b604051610078919061045a565b60405180910390f35b61009b60048036038101906100969190610412565b610169565b6040516100a89190610533565b60405180910390f35b6100cb60048036038101906100c69190610412565b610263565b6040516100d89190610564565b60405180910390f35b6100fb60048036038101906100f69190610412565b610306565b604051610108919061045a565b60405180910390f35b60008082905060005b600084111561015d57600a8461013091906105ae565b600a8261013d919061060e565b6101479190610650565b9050600a846101569190610684565b935061011a565b80821492505050919050565b6060600080600290505b8381116101aa5761018381610306565b15610197578180610193906106b5565b9250505b80806101a2906106b5565b915050610173565b5060008167ffffffffffffffff8111156101c7576101c66106fd565b5b6040519080825280602002602001820160405280156101f55781602001602082028036833780820191505090505b509050600080600290505b8581116102575761021081610306565b1561024457808383815181106102295761022861072c565b5b6020026020010181815250508180610240906106b5565b9250505b808061024f906106b5565b915050610200565b50819350505050919050565b600060148211156102a9576040517f08c379a00000000000000000000000000000000000000000000000000000000081526004016102a0906107de565b60405180910390fd5b60008214806102b85750600182145b156102c65760019050610301565b6000600190506000600290505b8381116102fb5780826102e6919061060e565b915080806102f3906106b5565b9150506102d3565b50809150505b919050565b60006001821161031957600090506103d2565b6003821161032a57600190506103d2565b600060028361033991906105ae565b14806103515750600060038361034f91906105ae565b145b1561035f57600090506103d2565b6000600590505b828182610373919061060e565b116103cc576000818461038691906105ae565b14806103a95750600060028261039c9190610650565b846103a791906105ae565b145b156103b85760009150506103d2565b6006816103c59190610650565b9050610366565b50600190505b919050565b600080fd5b6000819050919050565b6103ef816103dc565b81146103fa57600080fd5b50565b60008135905061040c816103e6565b92915050565b600060208284031215610428576104276103d7565b5b6000610436848285016103fd565b91505092915050565b60008115159050919050565b6104548161043f565b82525050565b600060208201905061046f600083018461044b565b92915050565b600081519050919050565b600082825260208201905092915050565b6000819050602082019050919050565b6104aa816103dc565b82525050565b60006104bc83836104a1565b60208301905092915050565b6000602082019050919050565b60006104e082610475565b6104ea8185610480565b93506104f583610491565b8060005b8381101561052657815161050d88826104b0565b9750610518836104c8565b9250506001810190506104f9565b5085935050505092915050565b6000602082019050818103600083015261054d81846104d5565b905092915050565b61055e816103dc565b82525050565b60006020820190506105796000830184610555565b92915050565b7f4e487b7100000000000000000000000000000000000000000000000000000000600052601260045260246000fd5b60006105b9826103dc565b91506105c4836103dc565b9250826105d4576105d361057f565b5b828206905092915050565b7f4e487b7100000000000000000000000000000000000000000000000000000000600052601160045260246000fd5b6000610619826103dc565b9150610624836103dc565b9250828202610632816103dc565b91508282048414831517610649576106486105df565b5b5092915050565b600061065b826103dc565b9150610666836103dc565b925082820190508082111561067e5761067d6105df565b5b92915050565b600061068f826103dc565b915061069a836103dc565b9250826106aa576106a961057f565b5b828204905092915050565b60006106c0826103dc565b91507fffffffffffffffffffffffffffffffffffffffffffffffffffffffffffffffff82036106f2576106f16105df565b5b600182019050919050565b7f4e487b7100000000000000000000000000000000000000000000000000000000600052604160045260246000fd5b7f4e487b7100000000000000000000000000000000000000000000000000000000600052603260045260246000fd5b600082825260208201905092915050565b7f4e756d62657220746f6f206c6172676520666f7220666163746f7269616c206360008201527f616c63756c6174696f6e00000000000000000000000000000000000000000000602082015250565b60006107c8602a8361075b565b91506107d38261076c565b604082019050919050565b600060208201905081810360008301526107f7816107bb565b905091905056fea264697066735822122084f6d292cfc789006c4e41d0cdb0075dae2c3a3353a471885ebe6bd3d478817764736f6c63430008120033",
			"opcodes": "PUSH1 0x80 PUSH1 0x40 MSTORE CALLVALUE DUP1 ISZERO PUSH2 0x10 JUMPI PUSH1 0x0 DUP1 REVERT JUMPDEST POP PUSH2 0x834 DUP1 PUSH2 0x20 PUSH1 0x0 CODECOPY PUSH1 0x0 RETURN INVALID PUSH1 0x80 PUSH1 0x40 MSTORE CALLVALUE DUP1 ISZERO PUSH2 0x10 JUMPI PUSH1 0x0 DUP1 REVERT JUMPDEST POP PUSH1 0x4 CALLDATASIZE LT PUSH2 0x4C JUMPI PUSH1 0x0 CALLDATALOAD PUSH1 0xE0 SHR DUP1 PUSH4 0x41A4E56 EQ PUSH2 0x51 JUMPI DUP1 PUSH4 0x1EC12603 EQ PUSH2 0x81 JUMPI DUP1 PUSH4 0x3D41C222 EQ PUSH2 0xB1 JUMPI DUP1 PUSH4 0x42703494 EQ PUSH2 0xE1 JUMPI JUMPDEST PUSH1 0x0 DUP1 REVERT JUMPDEST PUSH2 0x6B PUSH1 0x4 DUP1 CALLDATASIZE SUB DUP2 ADD SWAP1 PUSH2 0x66 SWAP2 SWAP1 PUSH2 0x412 JUMP JUMPDEST PUSH2 0x111 JUMP JUMPDEST PUSH1 0x40 MLOAD PUSH2 0x78 SWAP2 SWAP1 PUSH2 0x45A JUMP JUMPDEST PUSH1 0x40 MLOAD DUP1 SWAP2 SUB SWAP1 RETURN JUMPDEST PUSH2 0x9B PUSH1 0x4 DUP1 CALLDATASIZE SUB DUP2 ADD SWAP1 PUSH2 0x96 SWAP2 SWAP1 PUSH2 0x412 JUMP JUMPDEST PUSH2 0x169 JUMP JUMPDEST PUSH1 0x40 MLOAD PUSH2 0xA8 SWAP2 SWAP1 PUSH2 0x533 JUMP JUMPDEST PUSH1 0x40 MLOAD DUP1 SWAP2 SUB SWAP1 RETURN JUMPDEST PUSH2 0xCB PUSH1 0x4 DUP1 CALLDATASIZE SUB DUP2 ADD SWAP1 PUSH2 0xC6 SWAP2 SWAP1 PUSH2 0x412 JUMP JUMPDEST PUSH2 0x263 JUMP JUMPDEST PUSH1 0x40 MLOAD PUSH2 0xD8 SWAP2 SWAP1 PUSH2 0x564 JUMP JUMPDEST PUSH1 0x40 MLOAD DUP1 SWAP2 SUB SWAP1 RETURN JUMPDEST PUSH2 0xFB PUSH1 0x4 DUP1 CALLDATASIZE SUB DUP2 ADD SWAP1 PUSH2 0xF6 SWAP2 SWAP1 PUSH2 0x412 JUMP JUMPDEST PUSH2 0x306 JUMP JUMPDEST PUSH1 0x40 MLOAD PUSH2 0x108 SWAP2 SWAP1 PUSH2 0x45A JUMP JUMPDEST PUSH1 0x40 MLOAD DUP1 SWAP2 SUB SWAP1 RETURN JUMPDEST PUSH1 0x0 DUP1 DUP3 SWAP1 POP PUSH1 0x0 JUMPDEST PUSH1 0x0 DUP5 GT ISZERO PUSH2 0x15D JUMPI PUSH1 0xA DUP5 PUSH2 0x130 SWAP2 SWAP1 PUSH2 0x5AE JUMP JUMPDEST PUSH1 0xA DUP3 PUSH2 0x13D SWAP2 SWAP1 PUSH2 0x60E JUMP JUMPDEST PUSH2 0x147 SWAP2 SWAP1 PUSH2 0x650 JUMP JUMPDEST SWAP1 POP PUSH1 0xA DUP5 PUSH2 0x156 SWAP2 SWAP1 PUSH2 0x684 JUMP JUMPDEST SWAP4 POP PUSH2 0x11A JUMP JUMPDEST DUP1 DUP3 EQ SWAP3 POP POP POP SWAP2 SWAP1 POP JUMP JUMPDEST PUSH1 0x60 PUSH1 0x0 DUP1 PUSH1 0x2 SWAP1 POP JUMPDEST DUP4 DUP2 GT PUSH2 0x1AA JUMPI PUSH2 0x183 DUP2 PUSH2 0x306 JUMP JUMPDEST ISZERO PUSH2 0x197 JUMPI DUP2 DUP1 PUSH2 0x193 SWAP1 PUSH2 0x6B5 JUMP JUMPDEST SWAP3 POP POP JUMPDEST DUP1 DUP1 PUSH2 0x1A2 SWAP1 PUSH2 0x6B5 JUMP JUMPDEST SWAP2 POP POP PUSH2 0x173 JUMP JUMPDEST POP PUSH1 0x0 DUP2 PUSH8 0xFFFFFFFFFFFFFFFF DUP2 GT ISZERO PUSH2 0x1C7 JUMPI PUSH2 0x1C6 PUSH2 0x6FD JUMP JUMPDEST JUMPDEST PUSH1 0x40 MLOAD SWAP1 DUP1 DUP3 MSTORE DUP1 PUSH1 0x20 MUL PUSH1 0x20 ADD DUP3 ADD PUSH1 0x40 MSTORE DUP1 ISZERO PUSH2 0x1F5 JUMPI DUP2 PUSH1 0x20 ADD PUSH1 0x20 DUP3 MUL DUP1 CALLDATASIZE DUP4 CALLDATACOPY DUP1 DUP3 ADD SWAP2 POP POP SWAP1 POP JUMPDEST POP SWAP1 POP PUSH1 0x0 DUP1 PUSH1 0x2 SWAP1 POP JUMPDEST DUP6 DUP2 GT PUSH2 0x257 JUMPI PUSH2 0x210 DUP2 PUSH2 0x306 JUMP JUMPDEST ISZERO PUSH2 0x244 JUMPI DUP1 DUP4 DUP4 DUP2 MLOAD DUP2 LT PUSH2 0x229 JUMPI PUSH2 0x228 PUSH2 0x72C JUMP JUMPDEST JUMPDEST PUSH1 0x20 MUL PUSH1 0x20 ADD ADD DUP2 DUP2 MSTORE POP POP DUP2 DUP1 PUSH2 0x240 SWAP1 PUSH2 0x6B5 JUMP JUMPDEST SWAP3 POP POP JUMPDEST DUP1 DUP1 PUSH2 0x24F SWAP1 PUSH2 0x6B5 JUMP JUMPDEST SWAP2 POP POP PUSH2 0x200 JUMP JUMPDEST POP DUP2 SWAP4 POP POP POP POP SWAP2 SWAP1 POP JUMP JUMPDEST PUSH1 0x0 PUSH1 0x14 DUP3 GT ISZERO PUSH2 0x2A9 JUMPI PUSH1 0x40 MLOAD PUSH32 0x8C379A000000000000000000000000000000000000000000000000000000000 DUP2 MSTORE PUSH1 0x4 ADD PUSH2 0x2A0 SWAP1 PUSH2 0x7DE JUMP JUMPDEST PUSH1 0x40 MLOAD DUP1 SWAP2 SUB SWAP1 REVERT JUMPDEST PUSH1 0x0 DUP3 EQ DUP1 PUSH2 0x2B8 JUMPI POP PUSH1 0x1 DUP3 EQ JUMPDEST ISZERO PUSH2 0x2C6 JUMPI PUSH1 0x1 SWAP1 POP PUSH2 0x301 JUMP JUMPDEST PUSH1 0x0 PUSH1 0x1 SWAP1 POP PUSH1 0x0 PUSH1 0x2 SWAP1 POP JUMPDEST DUP4 DUP2 GT PUSH2 0x2FB JUMPI DUP1 DUP3 PUSH2 0x2E6 SWAP2 SWAP1 PUSH2 0x60E JUMP JUMPDEST SWAP2 POP DUP1 DUP1 PUSH2 0x2F3 SWAP1 PUSH2 0x6B5 JUMP JUMPDEST SWAP2 POP POP PUSH2 0x2D3 JUMP JUMPDEST POP DUP1 SWAP2 POP POP JUMPDEST SWAP2 SWAP1 POP JUMP JUMPDEST PUSH1 0x0 PUSH1 0x1 DUP3 GT PUSH2 0x319 JUMPI PUSH1 0x0 SWAP1 POP PUSH2 0x3D2 JUMP JUMPDEST PUSH1 0x3 DUP3 GT PUSH2 0x32A JUMPI PUSH1 0x1 SWAP1 POP PUSH2 0x3D2 JUMP JUMPDEST PUSH1 0x0 PUSH1 0x2 DUP4 PUSH2 0x339 SWAP2 SWAP1 PUSH2 0x5AE JUMP JUMPDEST EQ DUP1 PUSH2 0x351 JUMPI POP PUSH1 0x0 PUSH1 0x3 DUP4 PUSH2 0x34F SWAP2 SWAP1 PUSH2 0x5AE JUMP JUMPDEST EQ JUMPDEST ISZERO PUSH2 0x35F JUMPI PUSH1 0x0 SWAP1 POP PUSH2 0x3D2 JUMP JUMPDEST PUSH1 0x0 PUSH1 0x5 SWAP1 POP JUMPDEST DUP3 DUP2 DUP3 PUSH2 0x373 SWAP2 SWAP1 PUSH2 0x60E JUMP JUMPDEST GT PUSH2 0x3CC JUMPI PUSH1 0x0 DUP2 DUP5 PUSH2 0x386 SWAP2 SWAP1 PUSH2 0x5AE JUMP JUMPDEST EQ DUP1 PUSH2 0x3A9 JUMPI POP PUSH1 0x0 PUSH1 0x2 DUP3 PUSH2 0x39C SWAP2 SWAP1 PUSH2 0x650 JUMP JUMPDEST DUP5 PUSH2 0x3A7 SWAP2 SWAP1 PUSH2 0x5AE JUMP JUMPDEST EQ JUMPDEST ISZERO PUSH2 0x3B8 JUMPI PUSH1 0x0 SWAP2 POP POP PUSH2 0x3D2 JUMP JUMPDEST PUSH1 0x6 DUP2 PUSH2 0x3C5 SWAP2 SWAP1 PUSH2 0x650 JUMP JUMPDEST SWAP1 POP PUSH2 0x366 JUMP JUMPDEST POP PUSH1 0x1 SWAP1 POP JUMPDEST SWAP2 SWAP1 POP JUMP JUMPDEST PUSH1 0x0 DUP1 REVERT JUMPDEST PUSH1 0x0 DUP2 SWAP1 POP SWAP2 SWAP1 POP JUMP JUMPDEST PUSH2 0x3EF DUP2 PUSH2 0x3DC JUMP JUMPDEST DUP2 EQ PUSH2 0x3FA JUMPI PUSH1 0x0 DUP1 REVERT JUMPDEST POP JUMP JUMPDEST PUSH1 0x0 DUP2 CALLDATALOAD SWAP1 POP PUSH2 0x40C DUP2 PUSH2 0x3E6 JUMP JUMPDEST SWAP3 SWAP2 POP POP JUMP JUMPDEST PUSH1 0x0 PUSH1 0x20 DUP3 DUP5 SUB SLT ISZERO PUSH2 0x428 JUMPI PUSH2 0x427 PUSH2 0x3D7 JUMP JUMPDEST JUMPDEST PUSH1 0x0 PUSH2 0x436 DUP5 DUP3 DUP6 ADD PUSH2 0x3FD JUMP JUMPDEST SWAP2 POP POP SWAP3 SWAP2 POP POP JUMP JUMPDEST PUSH1 0x0 DUP2 ISZERO ISZERO SWAP1 POP SWAP2 SWAP1 POP JUMP JUMPDEST PUSH2 0x454 DUP2 PUSH2 0x43F JUMP JUMPDEST DUP3 MSTORE POP POP JUMP JUMPDEST PUSH1 0x0 PUSH1 0x20 DUP3 ADD SWAP1 POP PUSH2 0x46F PUSH1 0x0 DUP4 ADD DUP5 PUSH2 0x44B JUMP JUMPDEST SWAP3 SWAP2 POP POP JUMP JUMPDEST PUSH1 0x0 DUP2 MLOAD SWAP1 POP SWAP2 SWAP1 POP JUMP JUMPDEST PUSH1 0x0 DUP3 DUP3 MSTORE PUSH1 0x20 DUP3 ADD SWAP1 POP SWAP3 SWAP2 POP POP JUMP JUMPDEST PUSH1 0x0 DUP2 SWAP1 POP PUSH1 0x20 DUP3 ADD SWAP1 POP SWAP2 SWAP1 POP JUMP JUMPDEST PUSH2 0x4AA DUP2 PUSH2 0x3DC JUMP JUMPDEST DUP3 MSTORE POP POP JUMP JUMPDEST PUSH1 0x0 PUSH2 0x4BC DUP4 DUP4 PUSH2 0x4A1 JUMP JUMPDEST PUSH1 0x20 DUP4 ADD SWAP1 POP SWAP3 SWAP2 POP POP JUMP JUMPDEST PUSH1 0x0 PUSH1 0x20 DUP3 ADD SWAP1 POP SWAP2 SWAP1 POP JUMP JUMPDEST PUSH1 0x0 PUSH2 0x4E0 DUP3 PUSH2 0x475 JUMP JUMPDEST PUSH2 0x4EA DUP2 DUP6 PUSH2 0x480 JUMP JUMPDEST SWAP4 POP PUSH2 0x4F5 DUP4 PUSH2 0x491 JUMP JUMPDEST DUP1 PUSH1 0x0 JUMPDEST DUP4 DUP2 LT ISZERO PUSH2 0x526 JUMPI DUP2 MLOAD PUSH2 0x50D DUP9 DUP3 PUSH2 0x4B0 JUMP JUMPDEST SWAP8 POP PUSH2 0x518 DUP4 PUSH2 0x4C8 JUMP JUMPDEST SWAP3 POP POP PUSH1 0x1 DUP2 ADD SWAP1 POP PUSH2 0x4F9 JUMP JUMPDEST POP DUP6 SWAP4 POP POP POP POP SWAP3 SWAP2 POP POP JUMP JUMPDEST PUSH1 0x0 PUSH1 0x20 DUP3 ADD SWAP1 POP DUP2 DUP2 SUB PUSH1 0x0 DUP4 ADD MSTORE PUSH2 0x54D DUP2 DUP5 PUSH2 0x4D5 JUMP JUMPDEST SWAP1 POP SWAP3 SWAP2 POP POP JUMP JUMPDEST PUSH2 0x55E DUP2 PUSH2 0x3DC JUMP JUMPDEST DUP3 MSTORE POP POP JUMP JUMPDEST PUSH1 0x0 PUSH1 0x20 DUP3 ADD SWAP1 POP PUSH2 0x579 PUSH1 0x0 DUP4 ADD DUP5 PUSH2 0x555 JUMP JUMPDEST SWAP3 SWAP2 POP POP JUMP JUMPDEST PUSH32 0x4E487B7100000000000000000000000000000000000000000000000000000000 PUSH1 0x0 MSTORE PUSH1 0x12 PUSH1 0x4 MSTORE PUSH1 0x24 PUSH1 0x0 REVERT JUMPDEST PUSH1 0x0 PUSH2 0x5B9 DUP3 PUSH2 0x3DC JUMP JUMPDEST SWAP2 POP PUSH2 0x5C4 DUP4 PUSH2 0x3DC JUMP JUMPDEST SWAP3 POP DUP3 PUSH2 0x5D4 JUMPI PUSH2 0x5D3 PUSH2 0x57F JUMP JUMPDEST JUMPDEST DUP3 DUP3 MOD SWAP1 POP SWAP3 SWAP2 POP POP JUMP JUMPDEST PUSH32 0x4E487B7100000000000000000000000000000000000000000000000000000000 PUSH1 0x0 MSTORE PUSH1 0x11 PUSH1 0x4 MSTORE PUSH1 0x24 PUSH1 0x0 REVERT JUMPDEST PUSH1 0x0 PUSH2 0x619 DUP3 PUSH2 0x3DC JUMP JUMPDEST SWAP2 POP PUSH2 0x624 DUP4 PUSH2 0x3DC JUMP JUMPDEST SWAP3 POP DUP3 DUP3 MUL PUSH2 0x632 DUP2 PUSH2 0x3DC JUMP JUMPDEST SWAP2 POP DUP3 DUP3 DIV DUP5 EQ DUP4 ISZERO OR PUSH2 0x649 JUMPI PUSH2 0x648 PUSH2 0x5DF JUMP JUMPDEST JUMPDEST POP SWAP3 SWAP2 POP POP JUMP JUMPDEST PUSH1 0x0 PUSH2 0x65B DUP3 PUSH2 0x3DC JUMP JUMPDEST SWAP2 POP PUSH2 0x666 DUP4 PUSH2 0x3DC JUMP JUMPDEST SWAP3 POP DUP3 DUP3 ADD SWAP1 POP DUP1 DUP3 GT ISZERO PUSH2 0x67E JUMPI PUSH2 0x67D PUSH2 0x5DF JUMP JUMPDEST JUMPDEST SWAP3 SWAP2 POP POP JUMP JUMPDEST PUSH1 0x0 PUSH2 0x68F DUP3 PUSH2 0x3DC JUMP JUMPDEST SWAP2 POP PUSH2 0x69A DUP4 PUSH2 0x3DC JUMP JUMPDEST SWAP3 POP DUP3 PUSH2 0x6AA JUMPI PUSH2 0x6A9 PUSH2 0x57F JUMP JUMPDEST JUMPDEST DUP3 DUP3 DIV SWAP1 POP SWAP3 SWAP2 POP POP JUMP JUMPDEST PUSH1 0x0 PUSH2 0x6C0 DUP3 PUSH2 0x3DC JUMP JUMPDEST SWAP2 POP PUSH32 0xFFFFFFFFFFFFFFFFFFFFFFFFFFFFFFFFFFFFFFFFFFFFFFFFFFFFFFFFFFFFFFFF DUP3 SUB PUSH2 0x6F2 JUMPI PUSH2 0x6F1 PUSH2 0x5DF JUMP JUMPDEST JUMPDEST PUSH1 0x1 DUP3 ADD SWAP1 POP SWAP2 SWAP1 POP JUMP JUMPDEST PUSH32 0x4E487B7100000000000000000000000000000000000000000000000000000000 PUSH1 0x0 MSTORE PUSH1 0x41 PUSH1 0x4 MSTORE PUSH1 0x24 PUSH1 0x0 REVERT JUMPDEST PUSH32 0x4E487B7100000000000000000000000000000000000000000000000000000000 PUSH1 0x0 MSTORE PUSH1 0x32 PUSH1 0x4 MSTORE PUSH1 0x24 PUSH1 0x0 REVERT JUMPDEST PUSH1 0x0 DUP3 DUP3 MSTORE PUSH1 0x20 DUP3 ADD SWAP1 POP SWAP3 SWAP2 POP POP JUMP JUMPDEST PUSH32 0x4E756D62657220746F6F206C6172676520666F7220666163746F7269616C2063 PUSH1 0x0 DUP3 ADD MSTORE PUSH32 0x616C63756C6174696F6E00000000000000000000000000000000000000000000 PUSH1 0x20 DUP3 ADD MSTORE POP JUMP JUMPDEST PUSH1 0x0 PUSH2 0x7C8 PUSH1 0x2A DUP4 PUSH2 0x75B JUMP JUMPDEST SWAP2 POP PUSH2 0x7D3 DUP3 PUSH2 0x76C JUMP JUMPDEST PUSH1 0x40 DUP3 ADD SWAP1 POP SWAP2 SWAP1 POP JUMP JUMPDEST PUSH1 0x0 PUSH1 0x20 DUP3 ADD SWAP1 POP DUP2 DUP2 SUB PUSH1 0x0 DUP4 ADD MSTORE PUSH2 0x7F7 DUP2 PUSH2 0x7BB JUMP JUMPDEST SWAP1 POP SWAP2 SWAP1 POP JUMP INVALID LOG2 PUSH5 0x6970667358 0x22 SLT KECCAK256 DUP5 0xF6 0xD2 SWAP3 0xCF 0xC7 DUP10 STOP PUSH13 0x4E41D0CDB0075DAE2C3A3353A4 PUSH18 0x885EBE6BD3D478817764736F6C6343000812 STOP CALLER "
		},
		"gasEstimates": {
			"creation": {
				"codeDepositCost": "420000",
				"executionCost": "455",
				"totalCost": "420455"
			},
			"external": {
				"calculateFactorial(uint256)": "infinite",
				"getPrimesUpTo(uint256)": "infinite",
				"isPalindrome(uint256)": "infinite",
				"isPrime(uint256)": "infinite"
			}
		},
		"methodIdentifiers": {
			"calculateFactorial(uint256)": "3d41c222",
			"getPrimesUpTo(uint256)": "1ec12603",
			"isPalindrome(uint256)": "041a4e56",
			"isPrime(uint256)": "42703494"
		}
	},
	"abi": [
		{
			"inputs": [
				{
					"internalType": "uint256",
					"name": "n",
					"type": "uint256"
				}
			],
			"name": "calculateFactorial",
			"outputs": [
				{
					"internalType": "uint256",
					"name": "",
					"type": "uint256"
				}
			],
			"stateMutability": "pure",
			"type": "function"
		},
		{
			"inputs": [
				{
					"internalType": "uint256",
					"name": "n",
					"type": "uint256"
				}
			],
			"name": "getPrimesUpTo",
			"outputs": [
				{
					"internalType": "uint256[]",
					"name": "",
					"type": "uint256[]"
				}
			],
			"stateMutability": "pure",
			"type": "function"
		},
		{
			"inputs": [
				{
					"internalType": "uint256",
					"name": "n",
					"type": "uint256"
				}
			],
			"name": "isPalindrome",
			"outputs": [
				{
					"internalType": "bool",
					"name": "",
					"type": "bool"
				}
			],
			"stateMutability": "pure",
			"type": "function"
		},
		{
			"inputs": [
				{
					"internalType": "uint256",
					"name": "n",
					"type": "uint256"
				}
			],
			"name": "isPrime",
			"outputs": [
				{
					"internalType": "bool",
					"name": "",
					"type": "bool"
				}
			],
			"stateMutability": "pure",
			"type": "function"
		}
	]
}