{
	"data": {
		"bytecode": {
			"linkReferences": {},
			"object": "608060405234801561001057600080fd5b50610733806100206000396000f3fe608060405234801561001057600080fd5b50600436106100415760003560e01c8063996bce2b146100465780639bbe88b114610076578063cdabd4f7146100a6575b600080fd5b610060600480360381019061005b91906103b4565b6100d6565b60405161006d91906103fc565b60405180910390f35b610090600480360381019061008b91906103b4565b610176565b60405161009d9190610426565b60405180910390f35b6100c060048036038101906100bb91906103b4565b610214565b6040516100cd91906104ff565b60405180910390f35b6000600182116100e95760009050610171565b6000600190506000600290505b8381826101039190610550565b11610169576000818561011691906105c1565b0361015657808261012791906105f2565b915080846101359190610626565b81146101555780846101479190610626565b8261015291906105f2565b91505b5b808061016190610657565b9150506100f6565b508281149150505b919050565b600060018211610189576000905061020f565b6000600190506000600290505b8381826101a39190610550565b1161020957600081856101b691906105c1565b036101f65780826101c791906105f2565b915080846101d59190610626565b81146101f55780846101e79190610626565b826101f291906105f2565b91505b5b808061020190610657565b915050610196565b50809150505b919050565b6060600182116102745760008067ffffffffffffffff81111561023a5761023961069f565b5b6040519080825280602002602001820160405280156102685781602001602082028036833780820191505090505b50905080915050610374565b600080600190505b838110156102b9576000818561029291906105c1565b036102a65781806102a290610657565b9250505b80806102b190610657565b91505061027c565b5060008167ffffffffffffffff8111156102d6576102d561069f565b5b6040519080825280602002602001820160405280156103045781602001602082028036833780820191505090505b509050600080600190505b8581101561036c576000818761032591906105c1565b03610359578083838151811061033e5761033d6106ce565b5b602002602001018181525050818061035590610657565b9250505b808061036490610657565b91505061030f565b508193505050505b919050565b600080fd5b6000819050919050565b6103918161037e565b811461039c57600080fd5b50565b6000813590506103ae81610388565b92915050565b6000602082840312156103ca576103c9610379565b5b60006103d88482850161039f565b91505092915050565b60008115159050919050565b6103f6816103e1565b82525050565b600060208201905061041160008301846103ed565b92915050565b6104208161037e565b82525050565b600060208201905061043b6000830184610417565b92915050565b600081519050919050565b600082825260208201905092915050565b6000819050602082019050919050565b6104768161037e565b82525050565b6000610488838361046d565b60208301905092915050565b6000602082019050919050565b60006104ac82610441565b6104b6818561044c565b93506104c18361045d565b8060005b838110156104f25781516104d9888261047c565b97506104e483610494565b9250506001810190506104c5565b5085935050505092915050565b6000602082019050818103600083015261051981846104a1565b905092915050565b7f4e487b7100000000000000000000000000000000000000000000000000000000600052601160045260246000fd5b600061055b8261037e565b91506105668361037e565b92508282026105748161037e565b9150828204841483151761058b5761058a610521565b5b5092915050565b7f4e487b7100000000000000000000000000000000000000000000000000000000600052601260045260246000fd5b60006105cc8261037e565b91506105d78361037e565b9250826105e7576105e6610592565b5b828206905092915050565b60006105fd8261037e565b91506106088361037e565b92508282019050808211156106205761061f610521565b5b92915050565b60006106318261037e565b915061063c8361037e565b92508261064c5761064b610592565b5b828204905092915050565b60006106628261037e565b91507fffffffffffffffffffffffffffffffffffffffffffffffffffffffffffffffff820361069457610693610521565b5b600182019050919050565b7f4e487b7100000000000000000000000000000000000000000000000000000000600052604160045260246000fd5b7f4e487b7100000000000000000000000000000000000000000000000000000000600052603260045260246000fdfea26469706673582212207f5cb2d90dfe28145532611be34d6a2b933178814162e36e12222cd62424c87864736f6c63430008120033",
			"opcodes": "PUSH1 0x80 PUSH1 0x40 MSTORE CALLVALUE DUP1 ISZERO PUSH2 0x10 JUMPI PUSH1 0x0 DUP1 REVERT JUMPDEST POP PUSH2 0x733 DUP1 PUSH2 0x20 PUSH1 0x0 CODECOPY PUSH1 0x0 RETURN INVALID PUSH1 0x80 PUSH1 0x40 MSTORE CALLVALUE DUP1 ISZERO PUSH2 0x10 JUMPI PUSH1 0x0 DUP1 REVERT JUMPDEST POP PUSH1 0x4 CALLDATASIZE LT PUSH2 0x41 JUMPI PUSH1 0x0 CALLDATALOAD PUSH1 0xE0 SHR DUP1 PUSH4 0x996BCE2B EQ PUSH2 0x46 JUMPI DUP1 PUSH4 0x9BBE88B1 EQ PUSH2 0x76 JUMPI DUP1 PUSH4 0xCDABD4F7 EQ PUSH2 0xA6 JUMPI JUMPDEST PUSH1 0x0 DUP1 REVERT JUMPDEST PUSH2 0x60 PUSH1 0x4 DUP1 CALLDATASIZE SUB DUP2 ADD SWAP1 PUSH2 0x5B SWAP2 SWAP1 PUSH2 0x3B4 JUMP JUMPDEST PUSH2 0xD6 JUMP JUMPDEST PUSH1 0x40 MLOAD PUSH2 0x6D SWAP2 SWAP1 PUSH2 0x3FC JUMP JUMPDEST PUSH1 0x40 MLOAD DUP1 SWAP2 SUB SWAP1 RETURN JUMPDEST PUSH2 0x90 PUSH1 0x4 DUP1 CALLDATASIZE SUB DUP2 ADD SWAP1 PUSH2 0x8B SWAP2 SWAP1 PUSH2 0x3B4 JUMP JUMPDEST PUSH2 0x176 JUMP JUMPDEST PUSH1 0x40 MLOAD PUSH2 0x9D SWAP2 SWAP1 PUSH2 0x426 JUMP JUMPDEST PUSH1 0x40 MLOAD DUP1 SWAP2 SUB SWAP1 RETURN JUMPDEST PUSH2 0xC0 PUSH1 0x4 DUP1 CALLDATASIZE SUB DUP2 ADD SWAP1 PUSH2 0xBB SWAP2 SWAP1 PUSH2 0x3B4 JUMP JUMPDEST PUSH2 0x214 JUMP JUMPDEST PUSH1 0x40 MLOAD PUSH2 0xCD SWAP2 SWAP1 PUSH2 0x4FF JUMP JUMPDEST PUSH1 0x40 MLOAD DUP1 SWAP2 SUB SWAP1 RETURN JUMPDEST PUSH1 0x0 PUSH1 0x1 DUP3 GT PUSH2 0xE9 JUMPI PUSH1 0x0 SWAP1 POP PUSH2 0x171 JUMP JUMPDEST PUSH1 0x0 PUSH1 0x1 SWAP1 POP PUSH1 0x0 PUSH1 0x2 SWAP1 POP JUMPDEST DUP4 DUP2 DUP3 PUSH2 0x103 SWAP2 SWAP1 PUSH2 0x550 JUMP JUMPDEST GT PUSH2 0x169 JUMPI PUSH1 0x0 DUP2 DUP6 PUSH2 0x116 SWAP2 SWAP1 PUSH2 0x5C1 JUMP JUMPDEST SUB PUSH2 0x156 JUMPI DUP1 DUP3 PUSH2 0x127 SWAP2 SWAP1 PUSH2 0x5F2 JUMP JUMPDEST SWAP2 POP DUP1 DUP5 PUSH2 0x135 SWAP2 SWAP1 PUSH2 0x626 JUMP JUMPDEST DUP2 EQ PUSH2 0x155 JUMPI DUP1 DUP5 PUSH2 0x147 SWAP2 SWAP1 PUSH2 0x626 JUMP JUMPDEST DUP3 PUSH2 0x152 SWAP2 SWAP1 PUSH2 0x5F2 JUMP JUMPDEST SWAP2 POP JUMPDEST JUMPDEST DUP1 DUP1 PUSH2 0x161 SWAP1 PUSH2 0x657 JUMP JUMPDEST SWAP2 POP POP PUSH2 0xF6 JUMP JUMPDEST POP DUP3 DUP2 EQ SWAP2 POP POP JUMPDEST SWAP2 SWAP1 POP JUMP JUMPDEST PUSH1 0x0 PUSH1 0x1 DUP3 GT PUSH2 0x189 JUMPI PUSH1 0x0 SWAP1 POP PUSH2 0x20F JUMP JUMPDEST PUSH1 0x0 PUSH1 0x1 SWAP1 POP PUSH1 0x0 PUSH1 0x2 SWAP1 POP JUMPDEST DUP4 DUP2 DUP3 PUSH2 0x1A3 SWAP2 SWAP1 PUSH2 0x550 JUMP JUMPDEST GT PUSH2 0x209 JUMPI PUSH1 0x0 DUP2 DUP6 PUSH2 0x1B6 SWAP2 SWAP1 PUSH2 0x5C1 JUMP JUMPDEST SUB PUSH2 0x1F6 JUMPI DUP1 DUP3 PUSH2 0x1C7 SWAP2 SWAP1 PUSH2 0x5F2 JUMP JUMPDEST SWAP2 POP DUP1 DUP5 PUSH2 0x1D5 SWAP2 SWAP1 PUSH2 0x626 JUMP JUMPDEST DUP2 EQ PUSH2 0x1F5 JUMPI DUP1 DUP5 PUSH2 0x1E7 SWAP2 SWAP1 PUSH2 0x626 JUMP JUMPDEST DUP3 PUSH2 0x1F2 SWAP2 SWAP1 PUSH2 0x5F2 JUMP JUMPDEST SWAP2 POP JUMPDEST JUMPDEST DUP1 DUP1 PUSH2 0x201 SWAP1 PUSH2 0x657 JUMP JUMPDEST SWAP2 POP POP PUSH2 0x196 JUMP JUMPDEST POP DUP1 SWAP2 POP POP JUMPDEST SWAP2 SWAP1 POP JUMP JUMPDEST PUSH1 0x60 PUSH1 0x1 DUP3 GT PUSH2 0x274 JUMPI PUSH1 0x0 DUP1 PUSH8 0xFFFFFFFFFFFFFFFF DUP2 GT ISZERO PUSH2 0x23A JUMPI PUSH2 0x239 PUSH2 0x69F JUMP JUMPDEST JUMPDEST PUSH1 0x40 MLOAD SWAP1 DUP1 DUP3 MSTORE DUP1 PUSH1 0x20 MUL PUSH1 0x20 ADD DUP3 ADD PUSH1 0x40 MSTORE DUP1 ISZERO PUSH2 0x268 JUMPI DUP2 PUSH1 0x20 ADD PUSH1 0x20 DUP3 MUL DUP1 CALLDATASIZE DUP4 CALLDATACOPY DUP1 DUP3 ADD SWAP2 POP POP SWAP1 POP JUMPDEST POP SWAP1 POP DUP1 SWAP2 POP POP PUSH2 0x374 JUMP JUMPDEST PUSH1 0x0 DUP1 PUSH1 0x1 SWAP1 POP JUMPDEST DUP4 DUP2 LT ISZERO PUSH2 0x2B9 JUMPI PUSH1 0x0 DUP2 DUP6 PUSH2 0x292 SWAP2 SWAP1 PUSH2 0x5C1 JUMP JUMPDEST SUB PUSH2 0x2A6 JUMPI DUP2 DUP1 PUSH2 0x2A2 SWAP1 PUSH2 0x657 JUMP JUMPDEST SWAP3 POP POP JUMPDEST DUP1 DUP1 PUSH2 0x2B1 SWAP1 PUSH2 0x657 JUMP JUMPDEST SWAP2 POP POP PUSH2 0x27C JUMP JUMPDEST POP PUSH1 0x0 DUP2 PUSH8 0xFFFFFFFFFFFFFFFF DUP2 GT ISZERO PUSH2 0x2D6 JUMPI PUSH2 0x2D5 PUSH2 0x69F JUMP JUMPDEST JUMPDEST PUSH1 0x40 MLOAD SWAP1 DUP1 DUP3 MSTORE DUP1 PUSH1 0x20 MUL PUSH1 0x20 ADD DUP3 ADD PUSH1 0x40 MSTORE DUP1 ISZERO PUSH2 0x304 JUMPI DUP2 PUSH1 0x20 ADD PUSH1 0x20 DUP3 MUL DUP1 CALLDATASIZE DUP4 CALLDATACOPY DUP1 DUP3 ADD SWAP2 POP POP SWAP1 POP JUMPDEST POP SWAP1 POP PUSH1 0x0 DUP1 PUSH1 0x1 SWAP1 POP JUMPDEST DUP6 DUP2 LT ISZERO PUSH2 0x36C JUMPI PUSH1 0x0 DUP2 DUP8 PUSH2 0x325 SWAP2 SWAP1 PUSH2 0x5C1 JUMP JUMPDEST SUB PUSH2 0x359 JUMPI DUP1 DUP4 DUP4 DUP2 MLOAD DUP2 LT PUSH2 0x33E JUMPI PUSH2 0x33D PUSH2 0x6CE JUMP JUMPDEST JUMPDEST PUSH1 0x20 MUL PUSH1 0x20 ADD ADD DUP2 DUP2 MSTORE POP POP DUP2 DUP1 PUSH2 0x355 SWAP1 PUSH2 0x657 JUMP JUMPDEST SWAP3 POP POP JUMPDEST DUP1 DUP1 PUSH2 0x364 SWAP1 PUSH2 0x657 JUMP JUMPDEST SWAP2 POP POP PUSH2 0x30F JUMP JUMPDEST POP DUP2 SWAP4 POP POP POP POP JUMPDEST SWAP2 SWAP1 POP JUMP JUMPDEST PUSH1 0x0 DUP1 REVERT JUMPDEST PUSH1 0x0 DUP2 SWAP1 POP SWAP2 SWAP1 POP JUMP JUMPDEST PUSH2 0x391 DUP2 PUSH2 0x37E JUMP JUMPDEST DUP2 EQ PUSH2 0x39C JUMPI PUSH1 0x0 DUP1 REVERT JUMPDEST POP JUMP JUMPDEST PUSH1 0x0 DUP2 CALLDATALOAD SWAP1 POP PUSH2 0x3AE DUP2 PUSH2 0x388 JUMP JUMPDEST SWAP3 SWAP2 POP POP JUMP JUMPDEST PUSH1 0x0 PUSH1 0x20 DUP3 DUP5 SUB SLT ISZERO PUSH2 0x3CA JUMPI PUSH2 0x3C9 PUSH2 0x379 JUMP JUMPDEST JUMPDEST PUSH1 0x0 PUSH2 0x3D8 DUP5 DUP3 DUP6 ADD PUSH2 0x39F JUMP JUMPDEST SWAP2 POP POP SWAP3 SWAP2 POP POP JUMP JUMPDEST PUSH1 0x0 DUP2 ISZERO ISZERO SWAP1 POP SWAP2 SWAP1 POP JUMP JUMPDEST PUSH2 0x3F6 DUP2 PUSH2 0x3E1 JUMP JUMPDEST DUP3 MSTORE POP POP JUMP JUMPDEST PUSH1 0x0 PUSH1 0x20 DUP3 ADD SWAP1 POP PUSH2 0x411 PUSH1 0x0 DUP4 ADD DUP5 PUSH2 0x3ED JUMP JUMPDEST SWAP3 SWAP2 POP POP JUMP JUMPDEST PUSH2 0x420 DUP2 PUSH2 0x37E JUMP JUMPDEST DUP3 MSTORE POP POP JUMP JUMPDEST PUSH1 0x0 PUSH1 0x20 DUP3 ADD SWAP1 POP PUSH2 0x43B PUSH1 0x0 DUP4 ADD DUP5 PUSH2 0x417 JUMP JUMPDEST SWAP3 SWAP2 POP POP JUMP JUMPDEST PUSH1 0x0 DUP2 MLOAD SWAP1 POP SWAP2 SWAP1 POP JUMP JUMPDEST PUSH1 0x0 DUP3 DUP3 MSTORE PUSH1 0x20 DUP3 ADD SWAP1 POP SWAP3 SWAP2 POP POP JUMP JUMPDEST PUSH1 0x0 DUP2 SWAP1 POP PUSH1 0x20 DUP3 ADD SWAP1 POP SWAP2 SWAP1 POP JUMP JUMPDEST PUSH2 0x476 DUP2 PUSH2 0x37E JUMP JUMPDEST DUP3 MSTORE POP POP JUMP JUMPDEST PUSH1 0x0 PUSH2 0x488 DUP4 DUP4 PUSH2 0x46D JUMP JUMPDEST PUSH1 0x20 DUP4 ADD SWAP1 POP SWAP3 SWAP2 POP POP JUMP JUMPDEST PUSH1 0x0 PUSH1 0x20 DUP3 ADD SWAP1 POP SWAP2 SWAP1 POP JUMP JUMPDEST PUSH1 0x0 PUSH2 0x4AC DUP3 PUSH2 0x441 JUMP JUMPDEST PUSH2 0x4B6 DUP2 DUP6 PUSH2 0x44C JUMP JUMPDEST SWAP4 POP PUSH2 0x4C1 DUP4 PUSH2 0x45D JUMP JUMPDEST DUP1 PUSH1 0x0 JUMPDEST DUP4 DUP2 LT ISZERO PUSH2 0x4F2 JUMPI DUP2 MLOAD PUSH2 0x4D9 DUP9 DUP3 PUSH2 0x47C JUMP JUMPDEST SWAP8 POP PUSH2 0x4E4 DUP4 PUSH2 0x494 JUMP JUMPDEST SWAP3 POP POP PUSH1 0x1 DUP2 ADD SWAP1 POP PUSH2 0x4C5 JUMP JUMPDEST POP DUP6 SWAP4 POP POP POP POP SWAP3 SWAP2 POP POP JUMP JUMPDEST PUSH1 0x0 PUSH1 0x20 DUP3 ADD SWAP1 POP DUP2 DUP2 SUB PUSH1 0x0 DUP4 ADD MSTORE PUSH2 0x519 DUP2 DUP5 PUSH2 0x4A1 JUMP JUMPDEST SWAP1 POP SWAP3 SWAP2 POP POP JUMP JUMPDEST PUSH32 0x4E487B7100000000000000000000000000000000000000000000000000000000 PUSH1 0x0 MSTORE PUSH1 0x11 PUSH1 0x4 MSTORE PUSH1 0x24 PUSH1 0x0 REVERT JUMPDEST PUSH1 0x0 PUSH2 0x55B DUP3 PUSH2 0x37E JUMP JUMPDEST SWAP2 POP PUSH2 0x566 DUP4 PUSH2 0x37E JUMP JUMPDEST SWAP3 POP DUP3 DUP3 MUL PUSH2 0x574 DUP2 PUSH2 0x37E JUMP JUMPDEST SWAP2 POP DUP3 DUP3 DIV DUP5 EQ DUP4 ISZERO OR PUSH2 0x58B JUMPI PUSH2 0x58A PUSH2 0x521 JUMP JUMPDEST JUMPDEST POP SWAP3 SWAP2 POP POP JUMP JUMPDEST PUSH32 0x4E487B7100000000000000000000000000000000000000000000000000000000 PUSH1 0x0 MSTORE PUSH1 0x12 PUSH1 0x4 MSTORE PUSH1 0x24 PUSH1 0x0 REVERT JUMPDEST PUSH1 0x0 PUSH2 0x5CC DUP3 PUSH2 0x37E JUMP JUMPDEST SWAP2 POP PUSH2 0x5D7 DUP4 PUSH2 0x37E JUMP JUMPDEST SWAP3 POP DUP3 PUSH2 0x5E7 JUMPI PUSH2 0x5E6 PUSH2 0x592 JUMP JUMPDEST JUMPDEST DUP3 DUP3 MOD SWAP1 POP SWAP3 SWAP2 POP POP JUMP JUMPDEST PUSH1 0x0 PUSH2 0x5FD DUP3 PUSH2 0x37E JUMP JUMPDEST SWAP2 POP PUSH2 0x608 DUP4 PUSH2 0x37E JUMP JUMPDEST SWAP3 POP DUP3 DUP3 ADD SWAP1 POP DUP1 DUP3 GT ISZERO PUSH2 0x620 JUMPI PUSH2 0x61F PUSH2 0x521 JUMP JUMPDEST JUMPDEST SWAP3 SWAP2 POP POP JUMP JUMPDEST PUSH1 0x0 PUSH2 0x631 DUP3 PUSH2 0x37E JUMP JUMPDEST SWAP2 POP PUSH2 0x63C DUP4 PUSH2 0x37E JUMP JUMPDEST SWAP3 POP DUP3 PUSH2 0x64C JUMPI PUSH2 0x64B PUSH2 0x592 JUMP JUMPDEST JUMPDEST DUP3 DUP3 DIV SWAP1 POP SWAP3 SWAP2 POP POP JUMP JUMPDEST PUSH1 0x0 PUSH2 0x662 DUP3 PUSH2 0x37E JUMP JUMPDEST SWAP2 POP PUSH32 0xFFFFFFFFFFFFFFFFFFFFFFFFFFFFFFFFFFFFFFFFFFFFFFFFFFFFFFFFFFFFFFFF DUP3 SUB PUSH2 0x694 JUMPI PUSH2 0x693 PUSH2 0x521 JUMP JUMPDEST JUMPDEST PUSH1 0x1 DUP3 ADD SWAP1 POP SWAP2 SWAP1 POP JUMP JUMPDEST PUSH32 0x4E487B7100000000000000000000000000000000000000000000000000000000 PUSH1 0x0 MSTORE PUSH1 0x41 PUSH1 0x4 MSTORE PUSH1 0x24 PUSH1 0x0 REVERT JUMPDEST PUSH32 0x4E487B7100000000000000000000000000000000000000000000000000000000 PUSH1 0x0 MSTORE PUSH1 0x32 PUSH1 0x4 MSTORE PUSH1 0x24 PUSH1 0x0 REVERT INVALID LOG2 PUSH5 0x6970667358 0x22 SLT KECCAK256 PUSH32 0x5CB2D90DFE28145532611BE34D6A2B933178814162E36E12222CD62424C87864 PUSH20 0x6F6C634300081200330000000000000000000000 "
		},
		"gasEstimates": {
			"creation": {
				"codeDepositCost": "368600",
				"executionCost": "405",
				"totalCost": "369005"
			},
			"external": {
				"getProperDivisors(uint256)": "infinite",
				"isPerfectNumber(uint256)": "infinite",
				"sumOfProperDivisors(uint256)": "infinite"
			}
		},
		"methodIdentifiers": {
			"getProperDivisors(uint256)": "cdabd4f7",
			"isPerfectNumber(uint256)": "996bce2b",
			"sumOfProperDivisors(uint256)": "9bbe88b1"
		}
	},
	"abi": [
		{
			"inputs": [
				{
					"internalType": "uint256",
					"name": "num",
					"type": "uint256"
				}
			],
			"name": "getProperDivisors",
			"outputs": [
				{
					"internalType": "uint256[]",
					"name": "",
					"type": "uint256[]"
				}
			],
			"stateMutability": "pure",
			"type": "function"
		},
		{
			"inputs": [
				{
					"internalType": "uint256",
					"name": "num",
					"type": "uint256"
				}
			],
			"name": "isPerfectNumber",
			"outputs": [
				{
					"internalType": "bool",
					"name": "",
					"type": "bool"
				}
			],
			"stateMutability": "pure",
			"type": "function"
		},
		{
			"inputs": [
				{
					"internalType": "uint256",
					"name": "num",
					"type": "uint256"
				}
			],
			"name": "sumOfProperDivisors",
			"outputs": [
				{
					"internalType": "uint256",
					"name": "",
					"type": "uint256"
				}
			],
			"stateMutability": "pure",
			"type": "function"
		}
	]
}