{
	"data": {
		"bytecode": {
			"linkReferences": {},
			"object": "608060405234801561001057600080fd5b5061042e806100206000396000f3fe608060405234801561001057600080fd5b50600436106100415760003560e01c80632568000d146100465780634afbcfcb14610076578063b08665e6146100a6575b600080fd5b610060600480360381019061005b91906101f0565b6100d9565b60405161006d9190610238565b60405180910390f35b610090600480360381019061008b91906101f0565b610122565b60405161009d9190610262565b60405180910390f35b6100c060048036038101906100bb91906101f0565b610176565b6040516100d0949392919061027d565b60405180910390f35b6000806100e583610122565b9050600083846100f591906102f1565b90506000828361010591906102f1565b9050600061011283610122565b9050808214945050505050919050565b600080600090505b600083111561016d57600a836101409190610362565b600a8261014d91906102f1565b6101579190610393565b9050600a8361016691906103c7565b925061012a565b80915050919050565b60008060008061018585610122565b9350848561019391906102f1565b925083846101a191906102f1565b91506101ac83610122565b90509193509193565b600080fd5b6000819050919050565b6101cd816101ba565b81146101d857600080fd5b50565b6000813590506101ea816101c4565b92915050565b600060208284031215610206576102056101b5565b5b6000610214848285016101db565b91505092915050565b60008115159050919050565b6102328161021d565b82525050565b600060208201905061024d6000830184610229565b92915050565b61025c816101ba565b82525050565b60006020820190506102776000830184610253565b92915050565b60006080820190506102926000830187610253565b61029f6020830186610253565b6102ac6040830185610253565b6102b96060830184610253565b95945050505050565b7f4e487b7100000000000000000000000000000000000000000000000000000000600052601160045260246000fd5b60006102fc826101ba565b9150610307836101ba565b9250828202610315816101ba565b9150828204841483151761032c5761032b6102c2565b5b5092915050565b7f4e487b7100000000000000000000000000000000000000000000000000000000600052601260045260246000fd5b600061036d826101ba565b9150610378836101ba565b92508261038857610387610333565b5b828206905092915050565b600061039e826101ba565b91506103a9836101ba565b92508282019050808211156103c1576103c06102c2565b5b92915050565b60006103d2826101ba565b91506103dd836101ba565b9250826103ed576103ec610333565b5b82820490509291505056fea2646970667358221220120c2f9a19726bd320e431b88f5ff845ad0a2ba324e790bcecd1fc25ab9b8b7c64736f6c63430008120033",
			"opcodes": "PUSH1 0x80 PUSH1 0x40 MSTORE CALLVALUE DUP1 ISZERO PUSH2 0x10 JUMPI PUSH1 0x0 DUP1 REVERT JUMPDEST POP PUSH2 0x42E DUP1 PUSH2 0x20 PUSH1 0x0 CODECOPY PUSH1 0x0 RETURN INVALID PUSH1 0x80 PUSH1 0x40 MSTORE CALLVALUE DUP1 ISZERO PUSH2 0x10 JUMPI PUSH1 0x0 DUP1 REVERT JUMPDEST POP PUSH1 0x4 CALLDATASIZE LT PUSH2 0x41 JUMPI PUSH1 0x0 CALLDATALOAD PUSH1 0xE0 SHR DUP1 PUSH4 0x2568000D EQ PUSH2 0x46 JUMPI DUP1 PUSH4 0x4AFBCFCB EQ PUSH2 0x76 JUMPI DUP1 PUSH4 0xB08665E6 EQ PUSH2 0xA6 JUMPI JUMPDEST PUSH1 0x0 DUP1 REVERT JUMPDEST PUSH2 0x60 PUSH1 0x4 DUP1 CALLDATASIZE SUB DUP2 ADD SWAP1 PUSH2 0x5B SWAP2 SWAP1 PUSH2 0x1F0 JUMP JUMPDEST PUSH2 0xD9 JUMP JUMPDEST PUSH1 0x40 MLOAD PUSH2 0x6D SWAP2 SWAP1 PUSH2 0x238 JUMP JUMPDEST PUSH1 0x40 MLOAD DUP1 SWAP2 SUB SWAP1 RETURN JUMPDEST PUSH2 0x90 PUSH1 0x4 DUP1 CALLDATASIZE SUB DUP2 ADD SWAP1 PUSH2 0x8B SWAP2 SWAP1 PUSH2 0x1F0 JUMP JUMPDEST PUSH2 0x122 JUMP JUMPDEST PUSH1 0x40 MLOAD PUSH2 0x9D SWAP2 SWAP1 PUSH2 0x262 JUMP JUMPDEST PUSH1 0x40 MLOAD DUP1 SWAP2 SUB SWAP1 RETURN JUMPDEST PUSH2 0xC0 PUSH1 0x4 DUP1 CALLDATASIZE SUB DUP2 ADD SWAP1 PUSH2 0xBB SWAP2 SWAP1 PUSH2 0x1F0 JUMP JUMPDEST PUSH2 0x176 JUMP JUMPDEST PUSH1 0x40 MLOAD PUSH2 0xD0 SWAP5 SWAP4 SWAP3 SWAP2 SWAP1 PUSH2 0x27D JUMP JUMPDEST PUSH1 0x40 MLOAD DUP1 SWAP2 SUB SWAP1 RETURN JUMPDEST PUSH1 0x0 DUP1 PUSH2 0xE5 DUP4 PUSH2 0x122 JUMP JUMPDEST SWAP1 POP PUSH1 0x0 DUP4 DUP5 PUSH2 0xF5 SWAP2 SWAP1 PUSH2 0x2F1 JUMP JUMPDEST SWAP1 POP PUSH1 0x0 DUP3 DUP4 PUSH2 0x105 SWAP2 SWAP1 PUSH2 0x2F1 JUMP JUMPDEST SWAP1 POP PUSH1 0x0 PUSH2 0x112 DUP4 PUSH2 0x122 JUMP JUMPDEST SWAP1 POP DUP1 DUP3 EQ SWAP5 POP POP POP POP POP SWAP2 SWAP1 POP JUMP JUMPDEST PUSH1 0x0 DUP1 PUSH1 0x0 SWAP1 POP JUMPDEST PUSH1 0x0 DUP4 GT ISZERO PUSH2 0x16D JUMPI PUSH1 0xA DUP4 PUSH2 0x140 SWAP2 SWAP1 PUSH2 0x362 JUMP JUMPDEST PUSH1 0xA DUP3 PUSH2 0x14D SWAP2 SWAP1 PUSH2 0x2F1 JUMP JUMPDEST PUSH2 0x157 SWAP2 SWAP1 PUSH2 0x393 JUMP JUMPDEST SWAP1 POP PUSH1 0xA DUP4 PUSH2 0x166 SWAP2 SWAP1 PUSH2 0x3C7 JUMP JUMPDEST SWAP3 POP PUSH2 0x12A JUMP JUMPDEST DUP1 SWAP2 POP POP SWAP2 SWAP1 POP JUMP JUMPDEST PUSH1 0x0 DUP1 PUSH1 0x0 DUP1 PUSH2 0x185 DUP6 PUSH2 0x122 JUMP JUMPDEST SWAP4 POP DUP5 DUP6 PUSH2 0x193 SWAP2 SWAP1 PUSH2 0x2F1 JUMP JUMPDEST SWAP3 POP DUP4 DUP5 PUSH2 0x1A1 SWAP2 SWAP1 PUSH2 0x2F1 JUMP JUMPDEST SWAP2 POP PUSH2 0x1AC DUP4 PUSH2 0x122 JUMP JUMPDEST SWAP1 POP SWAP2 SWAP4 POP SWAP2 SWAP4 JUMP JUMPDEST PUSH1 0x0 DUP1 REVERT JUMPDEST PUSH1 0x0 DUP2 SWAP1 POP SWAP2 SWAP1 POP JUMP JUMPDEST PUSH2 0x1CD DUP2 PUSH2 0x1BA JUMP JUMPDEST DUP2 EQ PUSH2 0x1D8 JUMPI PUSH1 0x0 DUP1 REVERT JUMPDEST POP JUMP JUMPDEST PUSH1 0x0 DUP2 CALLDATALOAD SWAP1 POP PUSH2 0x1EA DUP2 PUSH2 0x1C4 JUMP JUMPDEST SWAP3 SWAP2 POP POP JUMP JUMPDEST PUSH1 0x0 PUSH1 0x20 DUP3 DUP5 SUB SLT ISZERO PUSH2 0x206 JUMPI PUSH2 0x205 PUSH2 0x1B5 JUMP JUMPDEST JUMPDEST PUSH1 0x0 PUSH2 0x214 DUP5 DUP3 DUP6 ADD PUSH2 0x1DB JUMP JUMPDEST SWAP2 POP POP SWAP3 SWAP2 POP POP JUMP JUMPDEST PUSH1 0x0 DUP2 ISZERO ISZERO SWAP1 POP SWAP2 SWAP1 POP JUMP JUMPDEST PUSH2 0x232 DUP2 PUSH2 0x21D JUMP JUMPDEST DUP3 MSTORE POP POP JUMP JUMPDEST PUSH1 0x0 PUSH1 0x20 DUP3 ADD SWAP1 POP PUSH2 0x24D PUSH1 0x0 DUP4 ADD DUP5 PUSH2 0x229 JUMP JUMPDEST SWAP3 SWAP2 POP POP JUMP JUMPDEST PUSH2 0x25C DUP2 PUSH2 0x1BA JUMP JUMPDEST DUP3 MSTORE POP POP JUMP JUMPDEST PUSH1 0x0 PUSH1 0x20 DUP3 ADD SWAP1 POP PUSH2 0x277 PUSH1 0x0 DUP4 ADD DUP5 PUSH2 0x253 JUMP JUMPDEST SWAP3 SWAP2 POP POP JUMP JUMPDEST PUSH1 0x0 PUSH1 0x80 DUP3 ADD SWAP1 POP PUSH2 0x292 PUSH1 0x0 DUP4 ADD DUP8 PUSH2 0x253 JUMP JUMPDEST PUSH2 0x29F PUSH1 0x20 DUP4 ADD DUP7 PUSH2 0x253 JUMP JUMPDEST PUSH2 0x2AC PUSH1 0x40 DUP4 ADD DUP6 PUSH2 0x253 JUMP JUMPDEST PUSH2 0x2B9 PUSH1 0x60 DUP4 ADD DUP5 PUSH2 0x253 JUMP JUMPDEST SWAP6 SWAP5 POP POP POP POP POP JUMP JUMPDEST PUSH32 0x4E487B7100000000000000000000000000000000000000000000000000000000 PUSH1 0x0 MSTORE PUSH1 0x11 PUSH1 0x4 MSTORE PUSH1 0x24 PUSH1 0x0 REVERT JUMPDEST PUSH1 0x0 PUSH2 0x2FC DUP3 PUSH2 0x1BA JUMP JUMPDEST SWAP2 POP PUSH2 0x307 DUP4 PUSH2 0x1BA JUMP JUMPDEST SWAP3 POP DUP3 DUP3 MUL PUSH2 0x315 DUP2 PUSH2 0x1BA JUMP JUMPDEST SWAP2 POP DUP3 DUP3 DIV DUP5 EQ DUP4 ISZERO OR PUSH2 0x32C JUMPI PUSH2 0x32B PUSH2 0x2C2 JUMP JUMPDEST JUMPDEST POP SWAP3 SWAP2 POP POP JUMP JUMPDEST PUSH32 0x4E487B7100000000000000000000000000000000000000000000000000000000 PUSH1 0x0 MSTORE PUSH1 0x12 PUSH1 0x4 MSTORE PUSH1 0x24 PUSH1 0x0 REVERT JUMPDEST PUSH1 0x0 PUSH2 0x36D DUP3 PUSH2 0x1BA JUMP JUMPDEST SWAP2 POP PUSH2 0x378 DUP4 PUSH2 0x1BA JUMP JUMPDEST SWAP3 POP DUP3 PUSH2 0x388 JUMPI PUSH2 0x387 PUSH2 0x333 JUMP JUMPDEST JUMPDEST DUP3 DUP3 MOD SWAP1 POP SWAP3 SWAP2 POP POP JUMP JUMPDEST PUSH1 0x0 PUSH2 0x39E DUP3 PUSH2 0x1BA JUMP JUMPDEST SWAP2 POP PUSH2 0x3A9 DUP4 PUSH2 0x1BA JUMP JUMPDEST SWAP3 POP DUP3 DUP3 ADD SWAP1 POP DUP1 DUP3 GT ISZERO PUSH2 0x3C1 JUMPI PUSH2 0x3C0 PUSH2 0x2C2 JUMP JUMPDEST JUMPDEST SWAP3 SWAP2 POP POP JUMP JUMPDEST PUSH1 0x0 PUSH2 0x3D2 DUP3 PUSH2 0x1BA JUMP JUMPDEST SWAP2 POP PUSH2 0x3DD DUP4 PUSH2 0x1BA JUMP JUMPDEST SWAP3 POP DUP3 PUSH2 0x3ED JUMPI PUSH2 0x3EC PUSH2 0x333 JUMP JUMPDEST JUMPDEST DUP3 DUP3 DIV SWAP1 POP SWAP3 SWAP2 POP POP JUMP INVALID LOG2 PUSH5 0x6970667358 0x22 SLT KECCAK256 SLT 0xC 0x2F SWAP11 NOT PUSH19 0x6BD320E431B88F5FF845AD0A2BA324E790BCEC 0xD1 0xFC 0x25 0xAB SWAP12 DUP12 PUSH29 0x64736F6C63430008120033000000000000000000000000000000000000 "
		},
		"gasEstimates": {
			"creation": {
				"codeDepositCost": "214000",
				"executionCost": "257",
				"totalCost": "214257"
			},
			"external": {
				"checkReverseSquareProperty(uint256)": "infinite",
				"getCalculations(uint256)": "infinite",
				"reverseNumber(uint256)": "infinite"
			}
		},
		"methodIdentifiers": {
			"checkReverseSquareProperty(uint256)": "2568000d",
			"getCalculations(uint256)": "b08665e6",
			"reverseNumber(uint256)": "4afbcfcb"
		}
	},
	"abi": [
		{
			"inputs": [
				{
					"internalType": "uint256",
					"name": "num",
					"type": "uint256"
				}
			],
			"name": "checkReverseSquareProperty",
			"outputs": [
				{
					"internalType": "bool",
					"name": "",
					"type": "bool"
				}
			],
			"stateMutability": "pure",
			"type": "function"
		},
		{
			"inputs": [
				{
					"internalType": "uint256",
					"name": "num",
					"type": "uint256"
				}
			],
			"name": "getCalculations",
			"outputs": [
				{
					"internalType": "uint256",
					"name": "reverseOfNum",
					"type": "uint256"
				},
				{
					"internalType": "uint256",
					"name": "squareOfNum",
					"type": "uint256"
				},
				{
					"internalType": "uint256",
					"name": "squareOfReverseNum",
					"type": "uint256"
				},
				{
					"internalType": "uint256",
					"name": "reverseOfSquare",
					"type": "uint256"
				}
			],
			"stateMutability": "pure",
			"type": "function"
		},
		{
			"inputs": [
				{
					"internalType": "uint256",
					"name": "num",
					"type": "uint256"
				}
			],
			"name": "reverseNumber",
			"outputs": [
				{
					"internalType": "uint256",
					"name": "",
					"type": "uint256"
				}
			],
			"stateMutability": "pure",
			"type": "function"
		}
	]
}