{
	"data": {
		"bytecode": {
			"linkReferences": {},
			"object": "608060405234801561001057600080fd5b5061058e806100206000396000f3fe608060405234801561001057600080fd5b506004361061004c5760003560e01c806337b39481146100515780635a5fb98714610081578063a5c5a0ce146100b1578063fbf73382146100e1575b600080fd5b61006b6004803603810190610066919061028e565b610111565b60405161007891906102ca565b60405180910390f35b61009b6004803603810190610096919061028e565b610193565b6040516100a891906102ca565b60405180910390f35b6100cb60048036038101906100c6919061028e565b6101c0565b6040516100d891906102ca565b60405180910390f35b6100fb60048036038101906100f6919061031d565b6101d5565b60405161010891906102ca565b60405180910390f35b60006001600283610122919061038c565b14610162576040517f08c379a00000000000000000000000000000000000000000000000000000000081526004016101599061041a565b60405180910390fd5b600060026001846101739190610469565b61017d919061049d565b9050808161018b91906104ce565b915050919050565b600060026001836101a49190610469565b836101af91906104ce565b6101b9919061049d565b9050919050565b600081826101ce91906104ce565b9050919050565b600080600090508215610218576000600190505b8481116102125780826101fc9190610469565b915060028161020b9190610469565b90506101e9565b50610249565b6000600190505b8481116102475780826102329190610469565b9150808061023f90610510565b91505061021f565b505b8091505092915050565b600080fd5b6000819050919050565b61026b81610258565b811461027657600080fd5b50565b60008135905061028881610262565b92915050565b6000602082840312156102a4576102a3610253565b5b60006102b284828501610279565b91505092915050565b6102c481610258565b82525050565b60006020820190506102df60008301846102bb565b92915050565b60008115159050919050565b6102fa816102e5565b811461030557600080fd5b50565b600081359050610317816102f1565b92915050565b6000806040838503121561033457610333610253565b5b600061034285828601610279565b925050602061035385828601610308565b9150509250929050565b7f4e487b7100000000000000000000000000000000000000000000000000000000600052601260045260246000fd5b600061039782610258565b91506103a283610258565b9250826103b2576103b161035d565b5b828206905092915050565b600082825260208201905092915050565b7f4e206d757374206265206f646400000000000000000000000000000000000000600082015250565b6000610404600d836103bd565b915061040f826103ce565b602082019050919050565b60006020820190508181036000830152610433816103f7565b9050919050565b7f4e487b7100000000000000000000000000000000000000000000000000000000600052601160045260246000fd5b600061047482610258565b915061047f83610258565b92508282019050808211156104975761049661043a565b5b92915050565b60006104a882610258565b91506104b383610258565b9250826104c3576104c261035d565b5b828204905092915050565b60006104d982610258565b91506104e483610258565b92508282026104f281610258565b915082820484148315176105095761050861043a565b5b5092915050565b600061051b82610258565b91507fffffffffffffffffffffffffffffffffffffffffffffffffffffffffffffffff820361054d5761054c61043a565b5b60018201905091905056fea2646970667358221220fb43c7b12b2857398cf41cade86e2f2b38f85e55866dde45f1cb5671a83cc56c64736f6c63430008120033",
			"opcodes": "PUSH1 0x80 PUSH1 0x40 MSTORE CALLVALUE DUP1 ISZERO PUSH2 0x10 JUMPI PUSH1 0x0 DUP1 REVERT JUMPDEST POP PUSH2 0x58E DUP1 PUSH2 0x20 PUSH1 0x0 CODECOPY PUSH1 0x0 RETURN INVALID PUSH1 0x80 PUSH1 0x40 MSTORE CALLVALUE DUP1 ISZERO PUSH2 0x10 JUMPI PUSH1 0x0 DUP1 REVERT JUMPDEST POP PUSH1 0x4 CALLDATASIZE LT PUSH2 0x4C JUMPI PUSH1 0x0 CALLDATALOAD PUSH1 0xE0 SHR DUP1 PUSH4 0x37B39481 EQ PUSH2 0x51 JUMPI DUP1 PUSH4 0x5A5FB987 EQ PUSH2 0x81 JUMPI DUP1 PUSH4 0xA5C5A0CE EQ PUSH2 0xB1 JUMPI DUP1 PUSH4 0xFBF73382 EQ PUSH2 0xE1 JUMPI JUMPDEST PUSH1 0x0 DUP1 REVERT JUMPDEST PUSH2 0x6B PUSH1 0x4 DUP1 CALLDATASIZE SUB DUP2 ADD SWAP1 PUSH2 0x66 SWAP2 SWAP1 PUSH2 0x28E JUMP JUMPDEST PUSH2 0x111 JUMP JUMPDEST PUSH1 0x40 MLOAD PUSH2 0x78 SWAP2 SWAP1 PUSH2 0x2CA JUMP JUMPDEST PUSH1 0x40 MLOAD DUP1 SWAP2 SUB SWAP1 RETURN JUMPDEST PUSH2 0x9B PUSH1 0x4 DUP1 CALLDATASIZE SUB DUP2 ADD SWAP1 PUSH2 0x96 SWAP2 SWAP1 PUSH2 0x28E JUMP JUMPDEST PUSH2 0x193 JUMP JUMPDEST PUSH1 0x40 MLOAD PUSH2 0xA8 SWAP2 SWAP1 PUSH2 0x2CA JUMP JUMPDEST PUSH1 0x40 MLOAD DUP1 SWAP2 SUB SWAP1 RETURN JUMPDEST PUSH2 0xCB PUSH1 0x4 DUP1 CALLDATASIZE SUB DUP2 ADD SWAP1 PUSH2 0xC6 SWAP2 SWAP1 PUSH2 0x28E JUMP JUMPDEST PUSH2 0x1C0 JUMP JUMPDEST PUSH1 0x40 MLOAD PUSH2 0xD8 SWAP2 SWAP1 PUSH2 0x2CA JUMP JUMPDEST PUSH1 0x40 MLOAD DUP1 SWAP2 SUB SWAP1 RETURN JUMPDEST PUSH2 0xFB PUSH1 0x4 DUP1 CALLDATASIZE SUB DUP2 ADD SWAP1 PUSH2 0xF6 SWAP2 SWAP1 PUSH2 0x31D JUMP JUMPDEST PUSH2 0x1D5 JUMP JUMPDEST PUSH1 0x40 MLOAD PUSH2 0x108 SWAP2 SWAP1 PUSH2 0x2CA JUMP JUMPDEST PUSH1 0x40 MLOAD DUP1 SWAP2 SUB SWAP1 RETURN JUMPDEST PUSH1 0x0 PUSH1 0x1 PUSH1 0x2 DUP4 PUSH2 0x122 SWAP2 SWAP1 PUSH2 0x38C JUMP JUMPDEST EQ PUSH2 0x162 JUMPI PUSH1 0x40 MLOAD PUSH32 0x8C379A000000000000000000000000000000000000000000000000000000000 DUP2 MSTORE PUSH1 0x4 ADD PUSH2 0x159 SWAP1 PUSH2 0x41A JUMP JUMPDEST PUSH1 0x40 MLOAD DUP1 SWAP2 SUB SWAP1 REVERT JUMPDEST PUSH1 0x0 PUSH1 0x2 PUSH1 0x1 DUP5 PUSH2 0x173 SWAP2 SWAP1 PUSH2 0x469 JUMP JUMPDEST PUSH2 0x17D SWAP2 SWAP1 PUSH2 0x49D JUMP JUMPDEST SWAP1 POP DUP1 DUP2 PUSH2 0x18B SWAP2 SWAP1 PUSH2 0x4CE JUMP JUMPDEST SWAP2 POP POP SWAP2 SWAP1 POP JUMP JUMPDEST PUSH1 0x0 PUSH1 0x2 PUSH1 0x1 DUP4 PUSH2 0x1A4 SWAP2 SWAP1 PUSH2 0x469 JUMP JUMPDEST DUP4 PUSH2 0x1AF SWAP2 SWAP1 PUSH2 0x4CE JUMP JUMPDEST PUSH2 0x1B9 SWAP2 SWAP1 PUSH2 0x49D JUMP JUMPDEST SWAP1 POP SWAP2 SWAP1 POP JUMP JUMPDEST PUSH1 0x0 DUP2 DUP3 PUSH2 0x1CE SWAP2 SWAP1 PUSH2 0x4CE JUMP JUMPDEST SWAP1 POP SWAP2 SWAP1 POP JUMP JUMPDEST PUSH1 0x0 DUP1 PUSH1 0x0 SWAP1 POP DUP3 ISZERO PUSH2 0x218 JUMPI PUSH1 0x0 PUSH1 0x1 SWAP1 POP JUMPDEST DUP5 DUP2 GT PUSH2 0x212 JUMPI DUP1 DUP3 PUSH2 0x1FC SWAP2 SWAP1 PUSH2 0x469 JUMP JUMPDEST SWAP2 POP PUSH1 0x2 DUP2 PUSH2 0x20B SWAP2 SWAP1 PUSH2 0x469 JUMP JUMPDEST SWAP1 POP PUSH2 0x1E9 JUMP JUMPDEST POP PUSH2 0x249 JUMP JUMPDEST PUSH1 0x0 PUSH1 0x1 SWAP1 POP JUMPDEST DUP5 DUP2 GT PUSH2 0x247 JUMPI DUP1 DUP3 PUSH2 0x232 SWAP2 SWAP1 PUSH2 0x469 JUMP JUMPDEST SWAP2 POP DUP1 DUP1 PUSH2 0x23F SWAP1 PUSH2 0x510 JUMP JUMPDEST SWAP2 POP POP PUSH2 0x21F JUMP JUMPDEST POP JUMPDEST DUP1 SWAP2 POP POP SWAP3 SWAP2 POP POP JUMP JUMPDEST PUSH1 0x0 DUP1 REVERT JUMPDEST PUSH1 0x0 DUP2 SWAP1 POP SWAP2 SWAP1 POP JUMP JUMPDEST PUSH2 0x26B DUP2 PUSH2 0x258 JUMP JUMPDEST DUP2 EQ PUSH2 0x276 JUMPI PUSH1 0x0 DUP1 REVERT JUMPDEST POP JUMP JUMPDEST PUSH1 0x0 DUP2 CALLDATALOAD SWAP1 POP PUSH2 0x288 DUP2 PUSH2 0x262 JUMP JUMPDEST SWAP3 SWAP2 POP POP JUMP JUMPDEST PUSH1 0x0 PUSH1 0x20 DUP3 DUP5 SUB SLT ISZERO PUSH2 0x2A4 JUMPI PUSH2 0x2A3 PUSH2 0x253 JUMP JUMPDEST JUMPDEST PUSH1 0x0 PUSH2 0x2B2 DUP5 DUP3 DUP6 ADD PUSH2 0x279 JUMP JUMPDEST SWAP2 POP POP SWAP3 SWAP2 POP POP JUMP JUMPDEST PUSH2 0x2C4 DUP2 PUSH2 0x258 JUMP JUMPDEST DUP3 MSTORE POP POP JUMP JUMPDEST PUSH1 0x0 PUSH1 0x20 DUP3 ADD SWAP1 POP PUSH2 0x2DF PUSH1 0x0 DUP4 ADD DUP5 PUSH2 0x2BB JUMP JUMPDEST SWAP3 SWAP2 POP POP JUMP JUMPDEST PUSH1 0x0 DUP2 ISZERO ISZERO SWAP1 POP SWAP2 SWAP1 POP JUMP JUMPDEST PUSH2 0x2FA DUP2 PUSH2 0x2E5 JUMP JUMPDEST DUP2 EQ PUSH2 0x305 JUMPI PUSH1 0x0 DUP1 REVERT JUMPDEST POP JUMP JUMPDEST PUSH1 0x0 DUP2 CALLDATALOAD SWAP1 POP PUSH2 0x317 DUP2 PUSH2 0x2F1 JUMP JUMPDEST SWAP3 SWAP2 POP POP JUMP JUMPDEST PUSH1 0x0 DUP1 PUSH1 0x40 DUP4 DUP6 SUB SLT ISZERO PUSH2 0x334 JUMPI PUSH2 0x333 PUSH2 0x253 JUMP JUMPDEST JUMPDEST PUSH1 0x0 PUSH2 0x342 DUP6 DUP3 DUP7 ADD PUSH2 0x279 JUMP JUMPDEST SWAP3 POP POP PUSH1 0x20 PUSH2 0x353 DUP6 DUP3 DUP7 ADD PUSH2 0x308 JUMP JUMPDEST SWAP2 POP POP SWAP3 POP SWAP3 SWAP1 POP JUMP JUMPDEST PUSH32 0x4E487B7100000000000000000000000000000000000000000000000000000000 PUSH1 0x0 MSTORE PUSH1 0x12 PUSH1 0x4 MSTORE PUSH1 0x24 PUSH1 0x0 REVERT JUMPDEST PUSH1 0x0 PUSH2 0x397 DUP3 PUSH2 0x258 JUMP JUMPDEST SWAP2 POP PUSH2 0x3A2 DUP4 PUSH2 0x258 JUMP JUMPDEST SWAP3 POP DUP3 PUSH2 0x3B2 JUMPI PUSH2 0x3B1 PUSH2 0x35D JUMP JUMPDEST JUMPDEST DUP3 DUP3 MOD SWAP1 POP SWAP3 SWAP2 POP POP JUMP JUMPDEST PUSH1 0x0 DUP3 DUP3 MSTORE PUSH1 0x20 DUP3 ADD SWAP1 POP SWAP3 SWAP2 POP POP JUMP JUMPDEST PUSH32 0x4E206D757374206265206F646400000000000000000000000000000000000000 PUSH1 0x0 DUP3 ADD MSTORE POP JUMP JUMPDEST PUSH1 0x0 PUSH2 0x404 PUSH1 0xD DUP4 PUSH2 0x3BD JUMP JUMPDEST SWAP2 POP PUSH2 0x40F DUP3 PUSH2 0x3CE JUMP JUMPDEST PUSH1 0x20 DUP3 ADD SWAP1 POP SWAP2 SWAP1 POP JUMP JUMPDEST PUSH1 0x0 PUSH1 0x20 DUP3 ADD SWAP1 POP DUP2 DUP2 SUB PUSH1 0x0 DUP4 ADD MSTORE PUSH2 0x433 DUP2 PUSH2 0x3F7 JUMP JUMPDEST SWAP1 POP SWAP2 SWAP1 POP JUMP JUMPDEST PUSH32 0x4E487B7100000000000000000000000000000000000000000000000000000000 PUSH1 0x0 MSTORE PUSH1 0x11 PUSH1 0x4 MSTORE PUSH1 0x24 PUSH1 0x0 REVERT JUMPDEST PUSH1 0x0 PUSH2 0x474 DUP3 PUSH2 0x258 JUMP JUMPDEST SWAP2 POP PUSH2 0x47F DUP4 PUSH2 0x258 JUMP JUMPDEST SWAP3 POP DUP3 DUP3 ADD SWAP1 POP DUP1 DUP3 GT ISZERO PUSH2 0x497 JUMPI PUSH2 0x496 PUSH2 0x43A JUMP JUMPDEST JUMPDEST SWAP3 SWAP2 POP POP JUMP JUMPDEST PUSH1 0x0 PUSH2 0x4A8 DUP3 PUSH2 0x258 JUMP JUMPDEST SWAP2 POP PUSH2 0x4B3 DUP4 PUSH2 0x258 JUMP JUMPDEST SWAP3 POP DUP3 PUSH2 0x4C3 JUMPI PUSH2 0x4C2 PUSH2 0x35D JUMP JUMPDEST JUMPDEST DUP3 DUP3 DIV SWAP1 POP SWAP3 SWAP2 POP POP JUMP JUMPDEST PUSH1 0x0 PUSH2 0x4D9 DUP3 PUSH2 0x258 JUMP JUMPDEST SWAP2 POP PUSH2 0x4E4 DUP4 PUSH2 0x258 JUMP JUMPDEST SWAP3 POP DUP3 DUP3 MUL PUSH2 0x4F2 DUP2 PUSH2 0x258 JUMP JUMPDEST SWAP2 POP DUP3 DUP3 DIV DUP5 EQ DUP4 ISZERO OR PUSH2 0x509 JUMPI PUSH2 0x508 PUSH2 0x43A JUMP JUMPDEST JUMPDEST POP SWAP3 SWAP2 POP POP JUMP JUMPDEST PUSH1 0x0 PUSH2 0x51B DUP3 PUSH2 0x258 JUMP JUMPDEST SWAP2 POP PUSH32 0xFFFFFFFFFFFFFFFFFFFFFFFFFFFFFFFFFFFFFFFFFFFFFFFFFFFFFFFFFFFFFFFF DUP3 SUB PUSH2 0x54D JUMPI PUSH2 0x54C PUSH2 0x43A JUMP JUMPDEST JUMPDEST PUSH1 0x1 DUP3 ADD SWAP1 POP SWAP2 SWAP1 POP JUMP INVALID LOG2 PUSH5 0x6970667358 0x22 SLT KECCAK256 0xFB NUMBER 0xC7 0xB1 0x2B 0x28 JUMPI CODECOPY DUP13 DELEGATECALL SHR 0xAD 0xE8 PUSH15 0x2F2B38F85E55866DDE45F1CB5671A8 EXTCODECOPY 0xC5 PUSH13 0x64736F6C634300081200330000 "
		},
		"gasEstimates": {
			"creation": {
				"codeDepositCost": "284400",
				"executionCost": "324",
				"totalCost": "284724"
			},
			"external": {
				"calculateFirstNOddNumbersSum(uint256)": "infinite",
				"calculateNaturalNumbersSum(uint256)": "infinite",
				"calculateOddNumbersSum(uint256)": "infinite",
				"calculateSumByIteration(uint256,bool)": "infinite"
			}
		},
		"methodIdentifiers": {
			"calculateFirstNOddNumbersSum(uint256)": "a5c5a0ce",
			"calculateNaturalNumbersSum(uint256)": "5a5fb987",
			"calculateOddNumbersSum(uint256)": "37b39481",
			"calculateSumByIteration(uint256,bool)": "fbf73382"
		}
	},
	"abi": [
		{
			"inputs": [
				{
					"internalType": "uint256",
					"name": "n",
					"type": "uint256"
				}
			],
			"name": "calculateFirstNOddNumbersSum",
			"outputs": [
				{
					"internalType": "uint256",
					"name": "",
					"type": "uint256"
				}
			],
			"stateMutability": "pure",
			"type": "function"
		},
		{
			"inputs": [
				{
					"internalType": "uint256",
					"name": "n",
					"type": "uint256"
				}
			],
			"name": "calculateNaturalNumbersSum",
			"outputs": [
				{
					"internalType": "uint256",
					"name": "",
					"type": "uint256"
				}
			],
			"stateMutability": "pure",
			"type": "function"
		},
		{
			"inputs": [
				{
					"internalType": "uint256",
					"name": "n",
					"type": "uint256"
				}
			],
			"name": "calculateOddNumbersSum",
			"outputs": [
				{
					"internalType": "uint256",
					"name": "",
					"type": "uint256"
				}
			],
			"stateMutability": "pure",
			"type": "function"
		},
		{
			"inputs": [
				{
					"internalType": "uint256",
					"name": "n",
					"type": "uint256"
				},
				{
					"internalType": "bool",
					"name": "oddOnly",
					"type": "bool"
				}
			],
			"name": "calculateSumByIteration",
			"outputs": [
				{
					"internalType": "uint256",
					"name": "",
					"type": "uint256"
				}
			],
			"stateMutability": "pure",
			"type": "function"
		}
	]
}