{
	"data": {
		"bytecode": {
			"linkReferences": {},
			"object": "6080604052348015600e575f80fd5b50610cac8061001c5f395ff3fe608060405234801561000f575f80fd5b506004361061003f575f3560e01c806306ead22e1461004357806374facd7e14610078578063b9b112eb14610096575b5f80fd5b61005d60048036038101906100589190610499565b6100b2565b60405161006f96959493929190610543565b60405180910390f35b61008061017e565b60405161008d9190610741565b60405180910390f35b6100b060048036038101906100ab919061088d565b610397565b005b5f81815481106100c0575f80fd5b905f5260205f2090600602015f91509050805f0154908060010180546100e59061094d565b80601f01602080910402602001604051908101604052809291908181526020018280546101119061094d565b801561015c5780601f106101335761010080835404028352916020019161015c565b820191905f5260205f20905b81548152906001019060200180831161013f57829003601f168201915b5050505050908060020154908060030154908060040154908060050154905086565b60605f80805480602002602001604051908101604052809291908181526020015f905b82821015610292578382905f5260205f2090600602016040518060c00160405290815f82015481526020016001820180546101db9061094d565b80601f01602080910402602001604051908101604052809291908181526020018280546102079061094d565b80156102525780601f1061022957610100808354040283529160200191610252565b820191905f5260205f20905b81548152906001019060200180831161023557829003601f168201915b50505050508152602001600282015481526020016003820154815260200160048201548152602001600582015481525050815260200190600101906101a1565b5050505090505f5b815181101561038f575f6001826102b191906109aa565b90505b8251811015610381578281815181106102d0576102cf6109dd565b5b602002602001015160a001518383815181106102ef576102ee6109dd565b5b602002602001015160a00151101561037457828181518110610314576103136109dd565b5b602002602001015183838151811061032f5761032e6109dd565b5b602002602001015184848151811061034a576103496109dd565b5b60200260200101858481518110610364576103636109dd565b5b6020026020010182905282905250505b80806001019150506102b4565b50808060010191505061029a565b508091505090565b5f8183856103a591906109aa565b6103af91906109aa565b90505f6040518060c0016040528088815260200187815260200186815260200185815260200184815260200183815250908060018154018082558091505060019003905f5260205f2090600602015f909190919091505f820151815f015560208201518160010190816104229190610ba7565b5060408201518160020155606082015181600301556080820151816004015560a082015181600501555050505050505050565b5f604051905090565b5f80fd5b5f80fd5b5f819050919050565b61047881610466565b8114610482575f80fd5b50565b5f813590506104938161046f565b92915050565b5f602082840312156104ae576104ad61045e565b5b5f6104bb84828501610485565b91505092915050565b6104cd81610466565b82525050565b5f81519050919050565b5f82825260208201905092915050565b8281835e5f83830152505050565b5f601f19601f8301169050919050565b5f610515826104d3565b61051f81856104dd565b935061052f8185602086016104ed565b610538816104fb565b840191505092915050565b5f60c0820190506105565f8301896104c4565b8181036020830152610568818861050b565b905061057760408301876104c4565b61058460608301866104c4565b61059160808301856104c4565b61059e60a08301846104c4565b979650505050505050565b5f81519050919050565b5f82825260208201905092915050565b5f819050602082019050919050565b6105db81610466565b82525050565b5f82825260208201905092915050565b5f6105fb826104d3565b61060581856105e1565b93506106158185602086016104ed565b61061e816104fb565b840191505092915050565b5f60c083015f83015161063e5f8601826105d2565b506020830151848203602086015261065682826105f1565b915050604083015161066b60408601826105d2565b50606083015161067e60608601826105d2565b50608083015161069160808601826105d2565b5060a08301516106a460a08601826105d2565b508091505092915050565b5f6106ba8383610629565b905092915050565b5f602082019050919050565b5f6106d8826105a9565b6106e281856105b3565b9350836020820285016106f4856105c3565b805f5b8581101561072f578484038952815161071085826106af565b945061071b836106c2565b925060208a019950506001810190506106f7565b50829750879550505050505092915050565b5f6020820190508181035f83015261075981846106ce565b905092915050565b5f80fd5b5f80fd5b7f4e487b71000000000000000000000000000000000000000000000000000000005f52604160045260245ffd5b61079f826104fb565b810181811067ffffffffffffffff821117156107be576107bd610769565b5b80604052505050565b5f6107d0610455565b90506107dc8282610796565b919050565b5f67ffffffffffffffff8211156107fb576107fa610769565b5b610804826104fb565b9050602081019050919050565b828183375f83830152505050565b5f61083161082c846107e1565b6107c7565b90508281526020810184848401111561084d5761084c610765565b5b610858848285610811565b509392505050565b5f82601f83011261087457610873610761565b5b813561088484826020860161081f565b91505092915050565b5f805f805f60a086880312156108a6576108a561045e565b5b5f6108b388828901610485565b955050602086013567ffffffffffffffff8111156108d4576108d3610462565b5b6108e088828901610860565b94505060406108f188828901610485565b935050606061090288828901610485565b925050608061091388828901610485565b9150509295509295909350565b7f4e487b71000000000000000000000000000000000000000000000000000000005f52602260045260245ffd5b5f600282049050600182168061096457607f821691505b60208210810361097757610976610920565b5b50919050565b7f4e487b71000000000000000000000000000000000000000000000000000000005f52601160045260245ffd5b5f6109b482610466565b91506109bf83610466565b92508282019050808211156109d7576109d661097d565b5b92915050565b7f4e487b71000000000000000000000000000000000000000000000000000000005f52603260045260245ffd5b5f819050815f5260205f209050919050565b5f6020601f8301049050919050565b5f82821b905092915050565b5f60088302610a667fffffffffffffffffffffffffffffffffffffffffffffffffffffffffffffffff82610a2b565b610a708683610a2b565b95508019841693508086168417925050509392505050565b5f819050919050565b5f610aab610aa6610aa184610466565b610a88565b610466565b9050919050565b5f819050919050565b610ac483610a91565b610ad8610ad082610ab2565b848454610a37565b825550505050565b5f90565b610aec610ae0565b610af7818484610abb565b505050565b5b81811015610b1a57610b0f5f82610ae4565b600181019050610afd565b5050565b601f821115610b5f57610b3081610a0a565b610b3984610a1c565b81016020851015610b48578190505b610b5c610b5485610a1c565b830182610afc565b50505b505050565b5f82821c905092915050565b5f610b7f5f1984600802610b64565b1980831691505092915050565b5f610b978383610b70565b9150826002028217905092915050565b610bb0826104d3565b67ffffffffffffffff811115610bc957610bc8610769565b5b610bd3825461094d565b610bde828285610b1e565b5f60209050601f831160018114610c0f575f8415610bfd578287015190505b610c078582610b8c565b865550610c6e565b601f198416610c1d86610a0a565b5f5b82811015610c4457848901518255600182019150602085019450602081019050610c1f565b86831015610c615784890151610c5d601f891682610b70565b8355505b6001600288020188555050505b50505050505056fea264697066735822122007b1354c1563e240d6ee7b051cd34138dcfb82f48d6caa29939991e5b0052ba264736f6c634300081a0033",
			"opcodes": "PUSH1 0x80 PUSH1 0x40 MSTORE CALLVALUE DUP1 ISZERO PUSH1 0xE JUMPI PUSH0 DUP1 REVERT JUMPDEST POP PUSH2 0xCAC DUP1 PUSH2 0x1C PUSH0 CODECOPY PUSH0 RETURN INVALID PUSH1 0x80 PUSH1 0x40 MSTORE CALLVALUE DUP1 ISZERO PUSH2 0xF JUMPI PUSH0 DUP1 REVERT JUMPDEST POP PUSH1 0x4 CALLDATASIZE LT PUSH2 0x3F JUMPI PUSH0 CALLDATALOAD PUSH1 0xE0 SHR DUP1 PUSH4 0x6EAD22E EQ PUSH2 0x43 JUMPI DUP1 PUSH4 0x74FACD7E EQ PUSH2 0x78 JUMPI DUP1 PUSH4 0xB9B112EB EQ PUSH2 0x96 JUMPI JUMPDEST PUSH0 DUP1 REVERT JUMPDEST PUSH2 0x5D PUSH1 0x4 DUP1 CALLDATASIZE SUB DUP2 ADD SWAP1 PUSH2 0x58 SWAP2 SWAP1 PUSH2 0x499 JUMP JUMPDEST PUSH2 0xB2 JUMP JUMPDEST PUSH1 0x40 MLOAD PUSH2 0x6F SWAP7 SWAP6 SWAP5 SWAP4 SWAP3 SWAP2 SWAP1 PUSH2 0x543 JUMP JUMPDEST PUSH1 0x40 MLOAD DUP1 SWAP2 SUB SWAP1 RETURN JUMPDEST PUSH2 0x80 PUSH2 0x17E JUMP JUMPDEST PUSH1 0x40 MLOAD PUSH2 0x8D SWAP2 SWAP1 PUSH2 0x741 JUMP JUMPDEST PUSH1 0x40 MLOAD DUP1 SWAP2 SUB SWAP1 RETURN JUMPDEST PUSH2 0xB0 PUSH1 0x4 DUP1 CALLDATASIZE SUB DUP2 ADD SWAP1 PUSH2 0xAB SWAP2 SWAP1 PUSH2 0x88D JUMP JUMPDEST PUSH2 0x397 JUMP JUMPDEST STOP JUMPDEST PUSH0 DUP2 DUP2 SLOAD DUP2 LT PUSH2 0xC0 JUMPI PUSH0 DUP1 REVERT JUMPDEST SWAP1 PUSH0 MSTORE PUSH1 0x20 PUSH0 KECCAK256 SWAP1 PUSH1 0x6 MUL ADD PUSH0 SWAP2 POP SWAP1 POP DUP1 PUSH0 ADD SLOAD SWAP1 DUP1 PUSH1 0x1 ADD DUP1 SLOAD PUSH2 0xE5 SWAP1 PUSH2 0x94D JUMP JUMPDEST DUP1 PUSH1 0x1F ADD PUSH1 0x20 DUP1 SWAP2 DIV MUL PUSH1 0x20 ADD PUSH1 0x40 MLOAD SWAP1 DUP2 ADD PUSH1 0x40 MSTORE DUP1 SWAP3 SWAP2 SWAP1 DUP2 DUP2 MSTORE PUSH1 0x20 ADD DUP3 DUP1 SLOAD PUSH2 0x111 SWAP1 PUSH2 0x94D JUMP JUMPDEST DUP1 ISZERO PUSH2 0x15C JUMPI DUP1 PUSH1 0x1F LT PUSH2 0x133 JUMPI PUSH2 0x100 DUP1 DUP4 SLOAD DIV MUL DUP4 MSTORE SWAP2 PUSH1 0x20 ADD SWAP2 PUSH2 0x15C JUMP JUMPDEST DUP3 ADD SWAP2 SWAP1 PUSH0 MSTORE PUSH1 0x20 PUSH0 KECCAK256 SWAP1 JUMPDEST DUP2 SLOAD DUP2 MSTORE SWAP1 PUSH1 0x1 ADD SWAP1 PUSH1 0x20 ADD DUP1 DUP4 GT PUSH2 0x13F JUMPI DUP3 SWAP1 SUB PUSH1 0x1F AND DUP3 ADD SWAP2 JUMPDEST POP POP POP POP POP SWAP1 DUP1 PUSH1 0x2 ADD SLOAD SWAP1 DUP1 PUSH1 0x3 ADD SLOAD SWAP1 DUP1 PUSH1 0x4 ADD SLOAD SWAP1 DUP1 PUSH1 0x5 ADD SLOAD SWAP1 POP DUP7 JUMP JUMPDEST PUSH1 0x60 PUSH0 DUP1 DUP1 SLOAD DUP1 PUSH1 0x20 MUL PUSH1 0x20 ADD PUSH1 0x40 MLOAD SWAP1 DUP2 ADD PUSH1 0x40 MSTORE DUP1 SWAP3 SWAP2 SWAP1 DUP2 DUP2 MSTORE PUSH1 0x20 ADD PUSH0 SWAP1 JUMPDEST DUP3 DUP3 LT ISZERO PUSH2 0x292 JUMPI DUP4 DUP3 SWAP1 PUSH0 MSTORE PUSH1 0x20 PUSH0 KECCAK256 SWAP1 PUSH1 0x6 MUL ADD PUSH1 0x40 MLOAD DUP1 PUSH1 0xC0 ADD PUSH1 0x40 MSTORE SWAP1 DUP2 PUSH0 DUP3 ADD SLOAD DUP2 MSTORE PUSH1 0x20 ADD PUSH1 0x1 DUP3 ADD DUP1 SLOAD PUSH2 0x1DB SWAP1 PUSH2 0x94D JUMP JUMPDEST DUP1 PUSH1 0x1F ADD PUSH1 0x20 DUP1 SWAP2 DIV MUL PUSH1 0x20 ADD PUSH1 0x40 MLOAD SWAP1 DUP2 ADD PUSH1 0x40 MSTORE DUP1 SWAP3 SWAP2 SWAP1 DUP2 DUP2 MSTORE PUSH1 0x20 ADD DUP3 DUP1 SLOAD PUSH2 0x207 SWAP1 PUSH2 0x94D JUMP JUMPDEST DUP1 ISZERO PUSH2 0x252 JUMPI DUP1 PUSH1 0x1F LT PUSH2 0x229 JUMPI PUSH2 0x100 DUP1 DUP4 SLOAD DIV MUL DUP4 MSTORE SWAP2 PUSH1 0x20 ADD SWAP2 PUSH2 0x252 JUMP JUMPDEST DUP3 ADD SWAP2 SWAP1 PUSH0 MSTORE PUSH1 0x20 PUSH0 KECCAK256 SWAP1 JUMPDEST DUP2 SLOAD DUP2 MSTORE SWAP1 PUSH1 0x1 ADD SWAP1 PUSH1 0x20 ADD DUP1 DUP4 GT PUSH2 0x235 JUMPI DUP3 SWAP1 SUB PUSH1 0x1F AND DUP3 ADD SWAP2 JUMPDEST POP POP POP POP POP DUP2 MSTORE PUSH1 0x20 ADD PUSH1 0x2 DUP3 ADD SLOAD DUP2 MSTORE PUSH1 0x20 ADD PUSH1 0x3 DUP3 ADD SLOAD DUP2 MSTORE PUSH1 0x20 ADD PUSH1 0x4 DUP3 ADD SLOAD DUP2 MSTORE PUSH1 0x20 ADD PUSH1 0x5 DUP3 ADD SLOAD DUP2 MSTORE POP POP DUP2 MSTORE PUSH1 0x20 ADD SWAP1 PUSH1 0x1 ADD SWAP1 PUSH2 0x1A1 JUMP JUMPDEST POP POP POP POP SWAP1 POP PUSH0 JUMPDEST DUP2 MLOAD DUP2 LT ISZERO PUSH2 0x38F JUMPI PUSH0 PUSH1 0x1 DUP3 PUSH2 0x2B1 SWAP2 SWAP1 PUSH2 0x9AA JUMP JUMPDEST SWAP1 POP JUMPDEST DUP3 MLOAD DUP2 LT ISZERO PUSH2 0x381 JUMPI DUP3 DUP2 DUP2 MLOAD DUP2 LT PUSH2 0x2D0 JUMPI PUSH2 0x2CF PUSH2 0x9DD JUMP JUMPDEST JUMPDEST PUSH1 0x20 MUL PUSH1 0x20 ADD ADD MLOAD PUSH1 0xA0 ADD MLOAD DUP4 DUP4 DUP2 MLOAD DUP2 LT PUSH2 0x2EF JUMPI PUSH2 0x2EE PUSH2 0x9DD JUMP JUMPDEST JUMPDEST PUSH1 0x20 MUL PUSH1 0x20 ADD ADD MLOAD PUSH1 0xA0 ADD MLOAD LT ISZERO PUSH2 0x374 JUMPI DUP3 DUP2 DUP2 MLOAD DUP2 LT PUSH2 0x314 JUMPI PUSH2 0x313 PUSH2 0x9DD JUMP JUMPDEST JUMPDEST PUSH1 0x20 MUL PUSH1 0x20 ADD ADD MLOAD DUP4 DUP4 DUP2 MLOAD DUP2 LT PUSH2 0x32F JUMPI PUSH2 0x32E PUSH2 0x9DD JUMP JUMPDEST JUMPDEST PUSH1 0x20 MUL PUSH1 0x20 ADD ADD MLOAD DUP5 DUP5 DUP2 MLOAD DUP2 LT PUSH2 0x34A JUMPI PUSH2 0x349 PUSH2 0x9DD JUMP JUMPDEST JUMPDEST PUSH1 0x20 MUL PUSH1 0x20 ADD ADD DUP6 DUP5 DUP2 MLOAD DUP2 LT PUSH2 0x364 JUMPI PUSH2 0x363 PUSH2 0x9DD JUMP JUMPDEST JUMPDEST PUSH1 0x20 MUL PUSH1 0x20 ADD ADD DUP3 SWAP1 MSTORE DUP3 SWAP1 MSTORE POP POP JUMPDEST DUP1 DUP1 PUSH1 0x1 ADD SWAP2 POP POP PUSH2 0x2B4 JUMP JUMPDEST POP DUP1 DUP1 PUSH1 0x1 ADD SWAP2 POP POP PUSH2 0x29A JUMP JUMPDEST POP DUP1 SWAP2 POP POP SWAP1 JUMP JUMPDEST PUSH0 DUP2 DUP4 DUP6 PUSH2 0x3A5 SWAP2 SWAP1 PUSH2 0x9AA JUMP JUMPDEST PUSH2 0x3AF SWAP2 SWAP1 PUSH2 0x9AA JUMP JUMPDEST SWAP1 POP PUSH0 PUSH1 0x40 MLOAD DUP1 PUSH1 0xC0 ADD PUSH1 0x40 MSTORE DUP1 DUP9 DUP2 MSTORE PUSH1 0x20 ADD DUP8 DUP2 MSTORE PUSH1 0x20 ADD DUP7 DUP2 MSTORE PUSH1 0x20 ADD DUP6 DUP2 MSTORE PUSH1 0x20 ADD DUP5 DUP2 MSTORE PUSH1 0x20 ADD DUP4 DUP2 MSTORE POP SWAP1 DUP1 PUSH1 0x1 DUP2 SLOAD ADD DUP1 DUP3 SSTORE DUP1 SWAP2 POP POP PUSH1 0x1 SWAP1 SUB SWAP1 PUSH0 MSTORE PUSH1 0x20 PUSH0 KECCAK256 SWAP1 PUSH1 0x6 MUL ADD PUSH0 SWAP1 SWAP2 SWAP1 SWAP2 SWAP1 SWAP2 POP PUSH0 DUP3 ADD MLOAD DUP2 PUSH0 ADD SSTORE PUSH1 0x20 DUP3 ADD MLOAD DUP2 PUSH1 0x1 ADD SWAP1 DUP2 PUSH2 0x422 SWAP2 SWAP1 PUSH2 0xBA7 JUMP JUMPDEST POP PUSH1 0x40 DUP3 ADD MLOAD DUP2 PUSH1 0x2 ADD SSTORE PUSH1 0x60 DUP3 ADD MLOAD DUP2 PUSH1 0x3 ADD SSTORE PUSH1 0x80 DUP3 ADD MLOAD DUP2 PUSH1 0x4 ADD SSTORE PUSH1 0xA0 DUP3 ADD MLOAD DUP2 PUSH1 0x5 ADD SSTORE POP POP POP POP POP POP POP POP JUMP JUMPDEST PUSH0 PUSH1 0x40 MLOAD SWAP1 POP SWAP1 JUMP JUMPDEST PUSH0 DUP1 REVERT JUMPDEST PUSH0 DUP1 REVERT JUMPDEST PUSH0 DUP2 SWAP1 POP SWAP2 SWAP1 POP JUMP JUMPDEST PUSH2 0x478 DUP2 PUSH2 0x466 JUMP JUMPDEST DUP2 EQ PUSH2 0x482 JUMPI PUSH0 DUP1 REVERT JUMPDEST POP JUMP JUMPDEST PUSH0 DUP2 CALLDATALOAD SWAP1 POP PUSH2 0x493 DUP2 PUSH2 0x46F JUMP JUMPDEST SWAP3 SWAP2 POP POP JUMP JUMPDEST PUSH0 PUSH1 0x20 DUP3 DUP5 SUB SLT ISZERO PUSH2 0x4AE JUMPI PUSH2 0x4AD PUSH2 0x45E JUMP JUMPDEST JUMPDEST PUSH0 PUSH2 0x4BB DUP5 DUP3 DUP6 ADD PUSH2 0x485 JUMP JUMPDEST SWAP2 POP POP SWAP3 SWAP2 POP POP JUMP JUMPDEST PUSH2 0x4CD DUP2 PUSH2 0x466 JUMP JUMPDEST DUP3 MSTORE POP POP JUMP JUMPDEST PUSH0 DUP2 MLOAD SWAP1 POP SWAP2 SWAP1 POP JUMP JUMPDEST PUSH0 DUP3 DUP3 MSTORE PUSH1 0x20 DUP3 ADD SWAP1 POP SWAP3 SWAP2 POP POP JUMP JUMPDEST DUP3 DUP2 DUP4 MCOPY PUSH0 DUP4 DUP4 ADD MSTORE POP POP POP JUMP JUMPDEST PUSH0 PUSH1 0x1F NOT PUSH1 0x1F DUP4 ADD AND SWAP1 POP SWAP2 SWAP1 POP JUMP JUMPDEST PUSH0 PUSH2 0x515 DUP3 PUSH2 0x4D3 JUMP JUMPDEST PUSH2 0x51F DUP2 DUP6 PUSH2 0x4DD JUMP JUMPDEST SWAP4 POP PUSH2 0x52F DUP2 DUP6 PUSH1 0x20 DUP7 ADD PUSH2 0x4ED JUMP JUMPDEST PUSH2 0x538 DUP2 PUSH2 0x4FB JUMP JUMPDEST DUP5 ADD SWAP2 POP POP SWAP3 SWAP2 POP POP JUMP JUMPDEST PUSH0 PUSH1 0xC0 DUP3 ADD SWAP1 POP PUSH2 0x556 PUSH0 DUP4 ADD DUP10 PUSH2 0x4C4 JUMP JUMPDEST DUP2 DUP2 SUB PUSH1 0x20 DUP4 ADD MSTORE PUSH2 0x568 DUP2 DUP9 PUSH2 0x50B JUMP JUMPDEST SWAP1 POP PUSH2 0x577 PUSH1 0x40 DUP4 ADD DUP8 PUSH2 0x4C4 JUMP JUMPDEST PUSH2 0x584 PUSH1 0x60 DUP4 ADD DUP7 PUSH2 0x4C4 JUMP JUMPDEST PUSH2 0x591 PUSH1 0x80 DUP4 ADD DUP6 PUSH2 0x4C4 JUMP JUMPDEST PUSH2 0x59E PUSH1 0xA0 DUP4 ADD DUP5 PUSH2 0x4C4 JUMP JUMPDEST SWAP8 SWAP7 POP POP POP POP POP POP POP JUMP JUMPDEST PUSH0 DUP2 MLOAD SWAP1 POP SWAP2 SWAP1 POP JUMP JUMPDEST PUSH0 DUP3 DUP3 MSTORE PUSH1 0x20 DUP3 ADD SWAP1 POP SWAP3 SWAP2 POP POP JUMP JUMPDEST PUSH0 DUP2 SWAP1 POP PUSH1 0x20 DUP3 ADD SWAP1 POP SWAP2 SWAP1 POP JUMP JUMPDEST PUSH2 0x5DB DUP2 PUSH2 0x466 JUMP JUMPDEST DUP3 MSTORE POP POP JUMP JUMPDEST PUSH0 DUP3 DUP3 MSTORE PUSH1 0x20 DUP3 ADD SWAP1 POP SWAP3 SWAP2 POP POP JUMP JUMPDEST PUSH0 PUSH2 0x5FB DUP3 PUSH2 0x4D3 JUMP JUMPDEST PUSH2 0x605 DUP2 DUP6 PUSH2 0x5E1 JUMP JUMPDEST SWAP4 POP PUSH2 0x615 DUP2 DUP6 PUSH1 0x20 DUP7 ADD PUSH2 0x4ED JUMP JUMPDEST PUSH2 0x61E DUP2 PUSH2 0x4FB JUMP JUMPDEST DUP5 ADD SWAP2 POP POP SWAP3 SWAP2 POP POP JUMP JUMPDEST PUSH0 PUSH1 0xC0 DUP4 ADD PUSH0 DUP4 ADD MLOAD PUSH2 0x63E PUSH0 DUP7 ADD DUP3 PUSH2 0x5D2 JUMP JUMPDEST POP PUSH1 0x20 DUP4 ADD MLOAD DUP5 DUP3 SUB PUSH1 0x20 DUP7 ADD MSTORE PUSH2 0x656 DUP3 DUP3 PUSH2 0x5F1 JUMP JUMPDEST SWAP2 POP POP PUSH1 0x40 DUP4 ADD MLOAD PUSH2 0x66B PUSH1 0x40 DUP7 ADD DUP3 PUSH2 0x5D2 JUMP JUMPDEST POP PUSH1 0x60 DUP4 ADD MLOAD PUSH2 0x67E PUSH1 0x60 DUP7 ADD DUP3 PUSH2 0x5D2 JUMP JUMPDEST POP PUSH1 0x80 DUP4 ADD MLOAD PUSH2 0x691 PUSH1 0x80 DUP7 ADD DUP3 PUSH2 0x5D2 JUMP JUMPDEST POP PUSH1 0xA0 DUP4 ADD MLOAD PUSH2 0x6A4 PUSH1 0xA0 DUP7 ADD DUP3 PUSH2 0x5D2 JUMP JUMPDEST POP DUP1 SWAP2 POP POP SWAP3 SWAP2 POP POP JUMP JUMPDEST PUSH0 PUSH2 0x6BA DUP4 DUP4 PUSH2 0x629 JUMP JUMPDEST SWAP1 POP SWAP3 SWAP2 POP POP JUMP JUMPDEST PUSH0 PUSH1 0x20 DUP3 ADD SWAP1 POP SWAP2 SWAP1 POP JUMP JUMPDEST PUSH0 PUSH2 0x6D8 DUP3 PUSH2 0x5A9 JUMP JUMPDEST PUSH2 0x6E2 DUP2 DUP6 PUSH2 0x5B3 JUMP JUMPDEST SWAP4 POP DUP4 PUSH1 0x20 DUP3 MUL DUP6 ADD PUSH2 0x6F4 DUP6 PUSH2 0x5C3 JUMP JUMPDEST DUP1 PUSH0 JUMPDEST DUP6 DUP2 LT ISZERO PUSH2 0x72F JUMPI DUP5 DUP5 SUB DUP10 MSTORE DUP2 MLOAD PUSH2 0x710 DUP6 DUP3 PUSH2 0x6AF JUMP JUMPDEST SWAP5 POP PUSH2 0x71B DUP4 PUSH2 0x6C2 JUMP JUMPDEST SWAP3 POP PUSH1 0x20 DUP11 ADD SWAP10 POP POP PUSH1 0x1 DUP2 ADD SWAP1 POP PUSH2 0x6F7 JUMP JUMPDEST POP DUP3 SWAP8 POP DUP8 SWAP6 POP POP POP POP POP POP SWAP3 SWAP2 POP POP JUMP JUMPDEST PUSH0 PUSH1 0x20 DUP3 ADD SWAP1 POP DUP2 DUP2 SUB PUSH0 DUP4 ADD MSTORE PUSH2 0x759 DUP2 DUP5 PUSH2 0x6CE JUMP JUMPDEST SWAP1 POP SWAP3 SWAP2 POP POP JUMP JUMPDEST PUSH0 DUP1 REVERT JUMPDEST PUSH0 DUP1 REVERT JUMPDEST PUSH32 0x4E487B7100000000000000000000000000000000000000000000000000000000 PUSH0 MSTORE PUSH1 0x41 PUSH1 0x4 MSTORE PUSH1 0x24 PUSH0 REVERT JUMPDEST PUSH2 0x79F DUP3 PUSH2 0x4FB JUMP JUMPDEST DUP2 ADD DUP2 DUP2 LT PUSH8 0xFFFFFFFFFFFFFFFF DUP3 GT OR ISZERO PUSH2 0x7BE JUMPI PUSH2 0x7BD PUSH2 0x769 JUMP JUMPDEST JUMPDEST DUP1 PUSH1 0x40 MSTORE POP POP POP JUMP JUMPDEST PUSH0 PUSH2 0x7D0 PUSH2 0x455 JUMP JUMPDEST SWAP1 POP PUSH2 0x7DC DUP3 DUP3 PUSH2 0x796 JUMP JUMPDEST SWAP2 SWAP1 POP JUMP JUMPDEST PUSH0 PUSH8 0xFFFFFFFFFFFFFFFF DUP3 GT ISZERO PUSH2 0x7FB JUMPI PUSH2 0x7FA PUSH2 0x769 JUMP JUMPDEST JUMPDEST PUSH2 0x804 DUP3 PUSH2 0x4FB JUMP JUMPDEST SWAP1 POP PUSH1 0x20 DUP2 ADD SWAP1 POP SWAP2 SWAP1 POP JUMP JUMPDEST DUP3 DUP2 DUP4 CALLDATACOPY PUSH0 DUP4 DUP4 ADD MSTORE POP POP POP JUMP JUMPDEST PUSH0 PUSH2 0x831 PUSH2 0x82C DUP5 PUSH2 0x7E1 JUMP JUMPDEST PUSH2 0x7C7 JUMP JUMPDEST SWAP1 POP DUP3 DUP2 MSTORE PUSH1 0x20 DUP2 ADD DUP5 DUP5 DUP5 ADD GT ISZERO PUSH2 0x84D JUMPI PUSH2 0x84C PUSH2 0x765 JUMP JUMPDEST JUMPDEST PUSH2 0x858 DUP5 DUP3 DUP6 PUSH2 0x811 JUMP JUMPDEST POP SWAP4 SWAP3 POP POP POP JUMP JUMPDEST PUSH0 DUP3 PUSH1 0x1F DUP4 ADD SLT PUSH2 0x874 JUMPI PUSH2 0x873 PUSH2 0x761 JUMP JUMPDEST JUMPDEST DUP2 CALLDATALOAD PUSH2 0x884 DUP5 DUP3 PUSH1 0x20 DUP7 ADD PUSH2 0x81F JUMP JUMPDEST SWAP2 POP POP SWAP3 SWAP2 POP POP JUMP JUMPDEST PUSH0 DUP1 PUSH0 DUP1 PUSH0 PUSH1 0xA0 DUP7 DUP9 SUB SLT ISZERO PUSH2 0x8A6 JUMPI PUSH2 0x8A5 PUSH2 0x45E JUMP JUMPDEST JUMPDEST PUSH0 PUSH2 0x8B3 DUP9 DUP3 DUP10 ADD PUSH2 0x485 JUMP JUMPDEST SWAP6 POP POP PUSH1 0x20 DUP7 ADD CALLDATALOAD PUSH8 0xFFFFFFFFFFFFFFFF DUP2 GT ISZERO PUSH2 0x8D4 JUMPI PUSH2 0x8D3 PUSH2 0x462 JUMP JUMPDEST JUMPDEST PUSH2 0x8E0 DUP9 DUP3 DUP10 ADD PUSH2 0x860 JUMP JUMPDEST SWAP5 POP POP PUSH1 0x40 PUSH2 0x8F1 DUP9 DUP3 DUP10 ADD PUSH2 0x485 JUMP JUMPDEST SWAP4 POP POP PUSH1 0x60 PUSH2 0x902 DUP9 DUP3 DUP10 ADD PUSH2 0x485 JUMP JUMPDEST SWAP3 POP POP PUSH1 0x80 PUSH2 0x913 DUP9 DUP3 DUP10 ADD PUSH2 0x485 JUMP JUMPDEST SWAP2 POP POP SWAP3 SWAP6 POP SWAP3 SWAP6 SWAP1 SWAP4 POP JUMP JUMPDEST PUSH32 0x4E487B7100000000000000000000000000000000000000000000000000000000 PUSH0 MSTORE PUSH1 0x22 PUSH1 0x4 MSTORE PUSH1 0x24 PUSH0 REVERT JUMPDEST PUSH0 PUSH1 0x2 DUP3 DIV SWAP1 POP PUSH1 0x1 DUP3 AND DUP1 PUSH2 0x964 JUMPI PUSH1 0x7F DUP3 AND SWAP2 POP JUMPDEST PUSH1 0x20 DUP3 LT DUP2 SUB PUSH2 0x977 JUMPI PUSH2 0x976 PUSH2 0x920 JUMP JUMPDEST JUMPDEST POP SWAP2 SWAP1 POP JUMP JUMPDEST PUSH32 0x4E487B7100000000000000000000000000000000000000000000000000000000 PUSH0 MSTORE PUSH1 0x11 PUSH1 0x4 MSTORE PUSH1 0x24 PUSH0 REVERT JUMPDEST PUSH0 PUSH2 0x9B4 DUP3 PUSH2 0x466 JUMP JUMPDEST SWAP2 POP PUSH2 0x9BF DUP4 PUSH2 0x466 JUMP JUMPDEST SWAP3 POP DUP3 DUP3 ADD SWAP1 POP DUP1 DUP3 GT ISZERO PUSH2 0x9D7 JUMPI PUSH2 0x9D6 PUSH2 0x97D JUMP JUMPDEST JUMPDEST SWAP3 SWAP2 POP POP JUMP JUMPDEST PUSH32 0x4E487B7100000000000000000000000000000000000000000000000000000000 PUSH0 MSTORE PUSH1 0x32 PUSH1 0x4 MSTORE PUSH1 0x24 PUSH0 REVERT JUMPDEST PUSH0 DUP2 SWAP1 POP DUP2 PUSH0 MSTORE PUSH1 0x20 PUSH0 KECCAK256 SWAP1 POP SWAP2 SWAP1 POP JUMP JUMPDEST PUSH0 PUSH1 0x20 PUSH1 0x1F DUP4 ADD DIV SWAP1 POP SWAP2 SWAP1 POP JUMP JUMPDEST PUSH0 DUP3 DUP3 SHL SWAP1 POP SWAP3 SWAP2 POP POP JUMP JUMPDEST PUSH0 PUSH1 0x8 DUP4 MUL PUSH2 0xA66 PUSH32 0xFFFFFFFFFFFFFFFFFFFFFFFFFFFFFFFFFFFFFFFFFFFFFFFFFFFFFFFFFFFFFFFF DUP3 PUSH2 0xA2B JUMP JUMPDEST PUSH2 0xA70 DUP7 DUP4 PUSH2 0xA2B JUMP JUMPDEST SWAP6 POP DUP1 NOT DUP5 AND SWAP4 POP DUP1 DUP7 AND DUP5 OR SWAP3 POP POP POP SWAP4 SWAP3 POP POP POP JUMP JUMPDEST PUSH0 DUP2 SWAP1 POP SWAP2 SWAP1 POP JUMP JUMPDEST PUSH0 PUSH2 0xAAB PUSH2 0xAA6 PUSH2 0xAA1 DUP5 PUSH2 0x466 JUMP JUMPDEST PUSH2 0xA88 JUMP JUMPDEST PUSH2 0x466 JUMP JUMPDEST SWAP1 POP SWAP2 SWAP1 POP JUMP JUMPDEST PUSH0 DUP2 SWAP1 POP SWAP2 SWAP1 POP JUMP JUMPDEST PUSH2 0xAC4 DUP4 PUSH2 0xA91 JUMP JUMPDEST PUSH2 0xAD8 PUSH2 0xAD0 DUP3 PUSH2 0xAB2 JUMP JUMPDEST DUP5 DUP5 SLOAD PUSH2 0xA37 JUMP JUMPDEST DUP3 SSTORE POP POP POP POP JUMP JUMPDEST PUSH0 SWAP1 JUMP JUMPDEST PUSH2 0xAEC PUSH2 0xAE0 JUMP JUMPDEST PUSH2 0xAF7 DUP2 DUP5 DUP5 PUSH2 0xABB JUMP JUMPDEST POP POP POP JUMP JUMPDEST JUMPDEST DUP2 DUP2 LT ISZERO PUSH2 0xB1A JUMPI PUSH2 0xB0F PUSH0 DUP3 PUSH2 0xAE4 JUMP JUMPDEST PUSH1 0x1 DUP2 ADD SWAP1 POP PUSH2 0xAFD JUMP JUMPDEST POP POP JUMP JUMPDEST PUSH1 0x1F DUP3 GT ISZERO PUSH2 0xB5F JUMPI PUSH2 0xB30 DUP2 PUSH2 0xA0A JUMP JUMPDEST PUSH2 0xB39 DUP5 PUSH2 0xA1C JUMP JUMPDEST DUP2 ADD PUSH1 0x20 DUP6 LT ISZERO PUSH2 0xB48 JUMPI DUP2 SWAP1 POP JUMPDEST PUSH2 0xB5C PUSH2 0xB54 DUP6 PUSH2 0xA1C JUMP JUMPDEST DUP4 ADD DUP3 PUSH2 0xAFC JUMP JUMPDEST POP POP JUMPDEST POP POP POP JUMP JUMPDEST PUSH0 DUP3 DUP3 SHR SWAP1 POP SWAP3 SWAP2 POP POP JUMP JUMPDEST PUSH0 PUSH2 0xB7F PUSH0 NOT DUP5 PUSH1 0x8 MUL PUSH2 0xB64 JUMP JUMPDEST NOT DUP1 DUP4 AND SWAP2 POP POP SWAP3 SWAP2 POP POP JUMP JUMPDEST PUSH0 PUSH2 0xB97 DUP4 DUP4 PUSH2 0xB70 JUMP JUMPDEST SWAP2 POP DUP3 PUSH1 0x2 MUL DUP3 OR SWAP1 POP SWAP3 SWAP2 POP POP JUMP JUMPDEST PUSH2 0xBB0 DUP3 PUSH2 0x4D3 JUMP JUMPDEST PUSH8 0xFFFFFFFFFFFFFFFF DUP2 GT ISZERO PUSH2 0xBC9 JUMPI PUSH2 0xBC8 PUSH2 0x769 JUMP JUMPDEST JUMPDEST PUSH2 0xBD3 DUP3 SLOAD PUSH2 0x94D JUMP JUMPDEST PUSH2 0xBDE DUP3 DUP3 DUP6 PUSH2 0xB1E JUMP JUMPDEST PUSH0 PUSH1 0x20 SWAP1 POP PUSH1 0x1F DUP4 GT PUSH1 0x1 DUP2 EQ PUSH2 0xC0F JUMPI PUSH0 DUP5 ISZERO PUSH2 0xBFD JUMPI DUP3 DUP8 ADD MLOAD SWAP1 POP JUMPDEST PUSH2 0xC07 DUP6 DUP3 PUSH2 0xB8C JUMP JUMPDEST DUP7 SSTORE POP PUSH2 0xC6E JUMP JUMPDEST PUSH1 0x1F NOT DUP5 AND PUSH2 0xC1D DUP7 PUSH2 0xA0A JUMP JUMPDEST PUSH0 JUMPDEST DUP3 DUP2 LT ISZERO PUSH2 0xC44 JUMPI DUP5 DUP10 ADD MLOAD DUP3 SSTORE PUSH1 0x1 DUP3 ADD SWAP2 POP PUSH1 0x20 DUP6 ADD SWAP5 POP PUSH1 0x20 DUP2 ADD SWAP1 POP PUSH2 0xC1F JUMP JUMPDEST DUP7 DUP4 LT ISZERO PUSH2 0xC61 JUMPI DUP5 DUP10 ADD MLOAD PUSH2 0xC5D PUSH1 0x1F DUP10 AND DUP3 PUSH2 0xB70 JUMP JUMPDEST DUP4 SSTORE POP JUMPDEST PUSH1 0x1 PUSH1 0x2 DUP9 MUL ADD DUP9 SSTORE POP POP POP JUMPDEST POP POP POP POP POP POP JUMP INVALID LOG2 PUSH5 0x6970667358 0x22 SLT KECCAK256 SMOD 0xB1 CALLDATALOAD 0x4C ISZERO PUSH4 0xE240D6EE PUSH28 0x51CD34138DCFB82F48D6CAA29939991E5B0052BA264736F6C634300 ADDMOD BYTE STOP CALLER "
		},
		"gasEstimates": {
			"creation": {
				"codeDepositCost": "648800",
				"executionCost": "681",
				"totalCost": "649481"
			},
			"external": {
				"addStudent(uint256,string,uint256,uint256,uint256)": "infinite",
				"displayStudents()": "infinite",
				"students(uint256)": "infinite"
			}
		},
		"methodIdentifiers": {
			"addStudent(uint256,string,uint256,uint256,uint256)": "b9b112eb",
			"displayStudents()": "74facd7e",
			"students(uint256)": "06ead22e"
		}
	},
	"abi": [
		{
			"inputs": [
				{
					"internalType": "uint256",
					"name": "_roll",
					"type": "uint256"
				},
				{
					"internalType": "string",
					"name": "_name",
					"type": "string"
				},
				{
					"internalType": "uint256",
					"name": "_phy",
					"type": "uint256"
				},
				{
					"internalType": "uint256",
					"name": "_chem",
					"type": "uint256"
				},
				{
					"internalType": "uint256",
					"name": "_maths",
					"type": "uint256"
				}
			],
			"name": "addStudent",
			"outputs": [],
			"stateMutability": "nonpayable",
			"type": "function"
		},
		{
			"inputs": [],
			"name": "displayStudents",
			"outputs": [
				{
					"components": [
						{
							"internalType": "uint256",
							"name": "roll",
							"type": "uint256"
						},
						{
							"internalType": "string",
							"name": "name",
							"type": "string"
						},
						{
							"internalType": "uint256",
							"name": "marks_Physics",
							"type": "uint256"
						},
						{
							"internalType": "uint256",
							"name": "marks_Chemistry",
							"type": "uint256"
						},
						{
							"internalType": "uint256",
							"name": "marks_Maths",
							"type": "uint256"
						},
						{
							"internalType": "uint256",
							"name": "totalMarks",
							"type": "uint256"
						}
					],
					"internalType": "struct StudentRecords.Student[]",
					"name": "",
					"type": "tuple[]"
				}
			],
			"stateMutability": "view",
			"type": "function"
		},
		{
			"inputs": [
				{
					"internalType": "uint256",
					"name": "",
					"type": "uint256"
				}
			],
			"name": "students",
			"outputs": [
				{
					"internalType": "uint256",
					"name": "roll",
					"type": "uint256"
				},
				{
					"internalType": "string",
					"name": "name",
					"type": "string"
				},
				{
					"internalType": "uint256",
					"name": "marks_Physics",
					"type": "uint256"
				},
				{
					"internalType": "uint256",
					"name": "marks_Chemistry",
					"type": "uint256"
				},
				{
					"internalType": "uint256",
					"name": "marks_Maths",
					"type": "uint256"
				},
				{
					"internalType": "uint256",
					"name": "totalMarks",
					"type": "uint256"
				}
			],
			"stateMutability": "view",
			"type": "function"
		}
	]
}