{
	"data": {
		"bytecode": {
			"linkReferences": {},
			"object": "608060405234801561001057600080fd5b5061065f806100206000396000f3fe608060405234801561001057600080fd5b506004361061007d5760003560e01c80636cc99ad51161005b5780636cc99ad5146100da57806371e5ee5f146100f6578063939b676714610126578063d504ea1d146101565761007d565b806315d4266c146100825780633b9eac4b146100a0578063669e48aa146100be575b600080fd5b61008a610174565b604051610097919061034f565b60405180910390f35b6100a861017a565b6040516100b5919061034f565b60405180910390f35b6100d860048036038101906100d3919061039b565b610180565b005b6100f460048036038101906100ef919061039b565b610192565b005b610110600480360381019061010b91906103db565b61022b565b60405161011d919061034f565b60405180910390f35b610140600480360381019061013b919061039b565b61024f565b60405161014d9190610423565b60405180910390f35b61015e6102a0565b60405161016b91906104fc565b60405180910390f35b60015481565b60005481565b81600081905550806001819055505050565b600260006101a091906102f8565b60008290505b8181116102265760006001826101bc919061054d565b90505b828111610212576101d0828261024f565b156101ff5760028290806001815401808255809150506001900390600052602060002001600090919091909150555b808061020a90610581565b9150506101bf565b50808061021e90610581565b9150506101a6565b505050565b6002818154811061023b57600080fd5b906000526020600020016000915090505481565b60008083905060008390508082111561026d57808280925081935050505b5b60008114610292576000819050818361028791906105f8565b91508092505061026e565b600182149250505092915050565b606060028054806020026020016040519081016040528092919081815260200182805480156102ee57602002820191906000526020600020905b8154815260200190600101908083116102da575b5050505050905090565b50805460008255906000526020600020908101906103169190610319565b50565b5b8082111561033257600081600090555060010161031a565b5090565b6000819050919050565b61034981610336565b82525050565b60006020820190506103646000830184610340565b92915050565b600080fd5b61037881610336565b811461038357600080fd5b50565b6000813590506103958161036f565b92915050565b600080604083850312156103b2576103b161036a565b5b60006103c085828601610386565b92505060206103d185828601610386565b9150509250929050565b6000602082840312156103f1576103f061036a565b5b60006103ff84828501610386565b91505092915050565b60008115159050919050565b61041d81610408565b82525050565b60006020820190506104386000830184610414565b92915050565b600081519050919050565b600082825260208201905092915050565b6000819050602082019050919050565b61047381610336565b82525050565b6000610485838361046a565b60208301905092915050565b6000602082019050919050565b60006104a98261043e565b6104b38185610449565b93506104be8361045a565b8060005b838110156104ef5781516104d68882610479565b97506104e183610491565b9250506001810190506104c2565b5085935050505092915050565b60006020820190508181036000830152610516818461049e565b905092915050565b7f4e487b7100000000000000000000000000000000000000000000000000000000600052601160045260246000fd5b600061055882610336565b915061056383610336565b925082820190508082111561057b5761057a61051e565b5b92915050565b600061058c82610336565b91507fffffffffffffffffffffffffffffffffffffffffffffffffffffffffffffffff82036105be576105bd61051e565b5b600182019050919050565b7f4e487b7100000000000000000000000000000000000000000000000000000000600052601260045260246000fd5b600061060382610336565b915061060e83610336565b92508261061e5761061d6105c9565b5b82820690509291505056fea2646970667358221220a07e328807017600d13e0a67d785a8a5433cbae6bc77d17ebb7aa53e5e03973f64736f6c63430008120033",
			"opcodes": "PUSH1 0x80 PUSH1 0x40 MSTORE CALLVALUE DUP1 ISZERO PUSH2 0x10 JUMPI PUSH1 0x0 DUP1 REVERT JUMPDEST POP PUSH2 0x65F DUP1 PUSH2 0x20 PUSH1 0x0 CODECOPY PUSH1 0x0 RETURN INVALID PUSH1 0x80 PUSH1 0x40 MSTORE CALLVALUE DUP1 ISZERO PUSH2 0x10 JUMPI PUSH1 0x0 DUP1 REVERT JUMPDEST POP PUSH1 0x4 CALLDATASIZE LT PUSH2 0x7D JUMPI PUSH1 0x0 CALLDATALOAD PUSH1 0xE0 SHR DUP1 PUSH4 0x6CC99AD5 GT PUSH2 0x5B JUMPI DUP1 PUSH4 0x6CC99AD5 EQ PUSH2 0xDA JUMPI DUP1 PUSH4 0x71E5EE5F EQ PUSH2 0xF6 JUMPI DUP1 PUSH4 0x939B6767 EQ PUSH2 0x126 JUMPI DUP1 PUSH4 0xD504EA1D EQ PUSH2 0x156 JUMPI PUSH2 0x7D JUMP JUMPDEST DUP1 PUSH4 0x15D4266C EQ PUSH2 0x82 JUMPI DUP1 PUSH4 0x3B9EAC4B EQ PUSH2 0xA0 JUMPI DUP1 PUSH4 0x669E48AA EQ PUSH2 0xBE JUMPI JUMPDEST PUSH1 0x0 DUP1 REVERT JUMPDEST PUSH2 0x8A PUSH2 0x174 JUMP JUMPDEST PUSH1 0x40 MLOAD PUSH2 0x97 SWAP2 SWAP1 PUSH2 0x34F JUMP JUMPDEST PUSH1 0x40 MLOAD DUP1 SWAP2 SUB SWAP1 RETURN JUMPDEST PUSH2 0xA8 PUSH2 0x17A JUMP JUMPDEST PUSH1 0x40 MLOAD PUSH2 0xB5 SWAP2 SWAP1 PUSH2 0x34F JUMP JUMPDEST PUSH1 0x40 MLOAD DUP1 SWAP2 SUB SWAP1 RETURN JUMPDEST PUSH2 0xD8 PUSH1 0x4 DUP1 CALLDATASIZE SUB DUP2 ADD SWAP1 PUSH2 0xD3 SWAP2 SWAP1 PUSH2 0x39B JUMP JUMPDEST PUSH2 0x180 JUMP JUMPDEST STOP JUMPDEST PUSH2 0xF4 PUSH1 0x4 DUP1 CALLDATASIZE SUB DUP2 ADD SWAP1 PUSH2 0xEF SWAP2 SWAP1 PUSH2 0x39B JUMP JUMPDEST PUSH2 0x192 JUMP JUMPDEST STOP JUMPDEST PUSH2 0x110 PUSH1 0x4 DUP1 CALLDATASIZE SUB DUP2 ADD SWAP1 PUSH2 0x10B SWAP2 SWAP1 PUSH2 0x3DB JUMP JUMPDEST PUSH2 0x22B JUMP JUMPDEST PUSH1 0x40 MLOAD PUSH2 0x11D SWAP2 SWAP1 PUSH2 0x34F JUMP JUMPDEST PUSH1 0x40 MLOAD DUP1 SWAP2 SUB SWAP1 RETURN JUMPDEST PUSH2 0x140 PUSH1 0x4 DUP1 CALLDATASIZE SUB DUP2 ADD SWAP1 PUSH2 0x13B SWAP2 SWAP1 PUSH2 0x39B JUMP JUMPDEST PUSH2 0x24F JUMP JUMPDEST PUSH1 0x40 MLOAD PUSH2 0x14D SWAP2 SWAP1 PUSH2 0x423 JUMP JUMPDEST PUSH1 0x40 MLOAD DUP1 SWAP2 SUB SWAP1 RETURN JUMPDEST PUSH2 0x15E PUSH2 0x2A0 JUMP JUMPDEST PUSH1 0x40 MLOAD PUSH2 0x16B SWAP2 SWAP1 PUSH2 0x4FC JUMP JUMPDEST PUSH1 0x40 MLOAD DUP1 SWAP2 SUB SWAP1 RETURN JUMPDEST PUSH1 0x1 SLOAD DUP2 JUMP JUMPDEST PUSH1 0x0 SLOAD DUP2 JUMP JUMPDEST DUP2 PUSH1 0x0 DUP2 SWAP1 SSTORE POP DUP1 PUSH1 0x1 DUP2 SWAP1 SSTORE POP POP POP JUMP JUMPDEST PUSH1 0x2 PUSH1 0x0 PUSH2 0x1A0 SWAP2 SWAP1 PUSH2 0x2F8 JUMP JUMPDEST PUSH1 0x0 DUP3 SWAP1 POP JUMPDEST DUP2 DUP2 GT PUSH2 0x226 JUMPI PUSH1 0x0 PUSH1 0x1 DUP3 PUSH2 0x1BC SWAP2 SWAP1 PUSH2 0x54D JUMP JUMPDEST SWAP1 POP JUMPDEST DUP3 DUP2 GT PUSH2 0x212 JUMPI PUSH2 0x1D0 DUP3 DUP3 PUSH2 0x24F JUMP JUMPDEST ISZERO PUSH2 0x1FF JUMPI PUSH1 0x2 DUP3 SWAP1 DUP1 PUSH1 0x1 DUP2 SLOAD ADD DUP1 DUP3 SSTORE DUP1 SWAP2 POP POP PUSH1 0x1 SWAP1 SUB SWAP1 PUSH1 0x0 MSTORE PUSH1 0x20 PUSH1 0x0 KECCAK256 ADD PUSH1 0x0 SWAP1 SWAP2 SWAP1 SWAP2 SWAP1 SWAP2 POP SSTORE JUMPDEST DUP1 DUP1 PUSH2 0x20A SWAP1 PUSH2 0x581 JUMP JUMPDEST SWAP2 POP POP PUSH2 0x1BF JUMP JUMPDEST POP DUP1 DUP1 PUSH2 0x21E SWAP1 PUSH2 0x581 JUMP JUMPDEST SWAP2 POP POP PUSH2 0x1A6 JUMP JUMPDEST POP POP POP JUMP JUMPDEST PUSH1 0x2 DUP2 DUP2 SLOAD DUP2 LT PUSH2 0x23B JUMPI PUSH1 0x0 DUP1 REVERT JUMPDEST SWAP1 PUSH1 0x0 MSTORE PUSH1 0x20 PUSH1 0x0 KECCAK256 ADD PUSH1 0x0 SWAP2 POP SWAP1 POP SLOAD DUP2 JUMP JUMPDEST PUSH1 0x0 DUP1 DUP4 SWAP1 POP PUSH1 0x0 DUP4 SWAP1 POP DUP1 DUP3 GT ISZERO PUSH2 0x26D JUMPI DUP1 DUP3 DUP1 SWAP3 POP DUP2 SWAP4 POP POP POP JUMPDEST JUMPDEST PUSH1 0x0 DUP2 EQ PUSH2 0x292 JUMPI PUSH1 0x0 DUP2 SWAP1 POP DUP2 DUP4 PUSH2 0x287 SWAP2 SWAP1 PUSH2 0x5F8 JUMP JUMPDEST SWAP2 POP DUP1 SWAP3 POP POP PUSH2 0x26E JUMP JUMPDEST PUSH1 0x1 DUP3 EQ SWAP3 POP POP POP SWAP3 SWAP2 POP POP JUMP JUMPDEST PUSH1 0x60 PUSH1 0x2 DUP1 SLOAD DUP1 PUSH1 0x20 MUL PUSH1 0x20 ADD PUSH1 0x40 MLOAD SWAP1 DUP2 ADD PUSH1 0x40 MSTORE DUP1 SWAP3 SWAP2 SWAP1 DUP2 DUP2 MSTORE PUSH1 0x20 ADD DUP3 DUP1 SLOAD DUP1 ISZERO PUSH2 0x2EE JUMPI PUSH1 0x20 MUL DUP3 ADD SWAP2 SWAP1 PUSH1 0x0 MSTORE PUSH1 0x20 PUSH1 0x0 KECCAK256 SWAP1 JUMPDEST DUP2 SLOAD DUP2 MSTORE PUSH1 0x20 ADD SWAP1 PUSH1 0x1 ADD SWAP1 DUP1 DUP4 GT PUSH2 0x2DA JUMPI JUMPDEST POP POP POP POP POP SWAP1 POP SWAP1 JUMP JUMPDEST POP DUP1 SLOAD PUSH1 0x0 DUP3 SSTORE SWAP1 PUSH1 0x0 MSTORE PUSH1 0x20 PUSH1 0x0 KECCAK256 SWAP1 DUP2 ADD SWAP1 PUSH2 0x316 SWAP2 SWAP1 PUSH2 0x319 JUMP JUMPDEST POP JUMP JUMPDEST JUMPDEST DUP1 DUP3 GT ISZERO PUSH2 0x332 JUMPI PUSH1 0x0 DUP2 PUSH1 0x0 SWAP1 SSTORE POP PUSH1 0x1 ADD PUSH2 0x31A JUMP JUMPDEST POP SWAP1 JUMP JUMPDEST PUSH1 0x0 DUP2 SWAP1 POP SWAP2 SWAP1 POP JUMP JUMPDEST PUSH2 0x349 DUP2 PUSH2 0x336 JUMP JUMPDEST DUP3 MSTORE POP POP JUMP JUMPDEST PUSH1 0x0 PUSH1 0x20 DUP3 ADD SWAP1 POP PUSH2 0x364 PUSH1 0x0 DUP4 ADD DUP5 PUSH2 0x340 JUMP JUMPDEST SWAP3 SWAP2 POP POP JUMP JUMPDEST PUSH1 0x0 DUP1 REVERT JUMPDEST PUSH2 0x378 DUP2 PUSH2 0x336 JUMP JUMPDEST DUP2 EQ PUSH2 0x383 JUMPI PUSH1 0x0 DUP1 REVERT JUMPDEST POP JUMP JUMPDEST PUSH1 0x0 DUP2 CALLDATALOAD SWAP1 POP PUSH2 0x395 DUP2 PUSH2 0x36F JUMP JUMPDEST SWAP3 SWAP2 POP POP JUMP JUMPDEST PUSH1 0x0 DUP1 PUSH1 0x40 DUP4 DUP6 SUB SLT ISZERO PUSH2 0x3B2 JUMPI PUSH2 0x3B1 PUSH2 0x36A JUMP JUMPDEST JUMPDEST PUSH1 0x0 PUSH2 0x3C0 DUP6 DUP3 DUP7 ADD PUSH2 0x386 JUMP JUMPDEST SWAP3 POP POP PUSH1 0x20 PUSH2 0x3D1 DUP6 DUP3 DUP7 ADD PUSH2 0x386 JUMP JUMPDEST SWAP2 POP POP SWAP3 POP SWAP3 SWAP1 POP JUMP JUMPDEST PUSH1 0x0 PUSH1 0x20 DUP3 DUP5 SUB SLT ISZERO PUSH2 0x3F1 JUMPI PUSH2 0x3F0 PUSH2 0x36A JUMP JUMPDEST JUMPDEST PUSH1 0x0 PUSH2 0x3FF DUP5 DUP3 DUP6 ADD PUSH2 0x386 JUMP JUMPDEST SWAP2 POP POP SWAP3 SWAP2 POP POP JUMP JUMPDEST PUSH1 0x0 DUP2 ISZERO ISZERO SWAP1 POP SWAP2 SWAP1 POP JUMP JUMPDEST PUSH2 0x41D DUP2 PUSH2 0x408 JUMP JUMPDEST DUP3 MSTORE POP POP JUMP JUMPDEST PUSH1 0x0 PUSH1 0x20 DUP3 ADD SWAP1 POP PUSH2 0x438 PUSH1 0x0 DUP4 ADD DUP5 PUSH2 0x414 JUMP JUMPDEST SWAP3 SWAP2 POP POP JUMP JUMPDEST PUSH1 0x0 DUP2 MLOAD SWAP1 POP SWAP2 SWAP1 POP JUMP JUMPDEST PUSH1 0x0 DUP3 DUP3 MSTORE PUSH1 0x20 DUP3 ADD SWAP1 POP SWAP3 SWAP2 POP POP JUMP JUMPDEST PUSH1 0x0 DUP2 SWAP1 POP PUSH1 0x20 DUP3 ADD SWAP1 POP SWAP2 SWAP1 POP JUMP JUMPDEST PUSH2 0x473 DUP2 PUSH2 0x336 JUMP JUMPDEST DUP3 MSTORE POP POP JUMP JUMPDEST PUSH1 0x0 PUSH2 0x485 DUP4 DUP4 PUSH2 0x46A JUMP JUMPDEST PUSH1 0x20 DUP4 ADD SWAP1 POP SWAP3 SWAP2 POP POP JUMP JUMPDEST PUSH1 0x0 PUSH1 0x20 DUP3 ADD SWAP1 POP SWAP2 SWAP1 POP JUMP JUMPDEST PUSH1 0x0 PUSH2 0x4A9 DUP3 PUSH2 0x43E JUMP JUMPDEST PUSH2 0x4B3 DUP2 DUP6 PUSH2 0x449 JUMP JUMPDEST SWAP4 POP PUSH2 0x4BE DUP4 PUSH2 0x45A JUMP JUMPDEST DUP1 PUSH1 0x0 JUMPDEST DUP4 DUP2 LT ISZERO PUSH2 0x4EF JUMPI DUP2 MLOAD PUSH2 0x4D6 DUP9 DUP3 PUSH2 0x479 JUMP JUMPDEST SWAP8 POP PUSH2 0x4E1 DUP4 PUSH2 0x491 JUMP JUMPDEST SWAP3 POP POP PUSH1 0x1 DUP2 ADD SWAP1 POP PUSH2 0x4C2 JUMP JUMPDEST POP DUP6 SWAP4 POP POP POP POP SWAP3 SWAP2 POP POP JUMP JUMPDEST PUSH1 0x0 PUSH1 0x20 DUP3 ADD SWAP1 POP DUP2 DUP2 SUB PUSH1 0x0 DUP4 ADD MSTORE PUSH2 0x516 DUP2 DUP5 PUSH2 0x49E JUMP JUMPDEST SWAP1 POP SWAP3 SWAP2 POP POP JUMP JUMPDEST PUSH32 0x4E487B7100000000000000000000000000000000000000000000000000000000 PUSH1 0x0 MSTORE PUSH1 0x11 PUSH1 0x4 MSTORE PUSH1 0x24 PUSH1 0x0 REVERT JUMPDEST PUSH1 0x0 PUSH2 0x558 DUP3 PUSH2 0x336 JUMP JUMPDEST SWAP2 POP PUSH2 0x563 DUP4 PUSH2 0x336 JUMP JUMPDEST SWAP3 POP DUP3 DUP3 ADD SWAP1 POP DUP1 DUP3 GT ISZERO PUSH2 0x57B JUMPI PUSH2 0x57A PUSH2 0x51E JUMP JUMPDEST JUMPDEST SWAP3 SWAP2 POP POP JUMP JUMPDEST PUSH1 0x0 PUSH2 0x58C DUP3 PUSH2 0x336 JUMP JUMPDEST SWAP2 POP PUSH32 0xFFFFFFFFFFFFFFFFFFFFFFFFFFFFFFFFFFFFFFFFFFFFFFFFFFFFFFFFFFFFFFFF DUP3 SUB PUSH2 0x5BE JUMPI PUSH2 0x5BD PUSH2 0x51E JUMP JUMPDEST JUMPDEST PUSH1 0x1 DUP3 ADD SWAP1 POP SWAP2 SWAP1 POP JUMP JUMPDEST PUSH32 0x4E487B7100000000000000000000000000000000000000000000000000000000 PUSH1 0x0 MSTORE PUSH1 0x12 PUSH1 0x4 MSTORE PUSH1 0x24 PUSH1 0x0 REVERT JUMPDEST PUSH1 0x0 PUSH2 0x603 DUP3 PUSH2 0x336 JUMP JUMPDEST SWAP2 POP PUSH2 0x60E DUP4 PUSH2 0x336 JUMP JUMPDEST SWAP3 POP DUP3 PUSH2 0x61E JUMPI PUSH2 0x61D PUSH2 0x5C9 JUMP JUMPDEST JUMPDEST DUP3 DUP3 MOD SWAP1 POP SWAP3 SWAP2 POP POP JUMP INVALID LOG2 PUSH5 0x6970667358 0x22 SLT KECCAK256 LOG0 PUSH31 0x328807017600D13E0A67D785A8A5433CBAE6BC77D17EBB7AA53E5E03973F64 PUSH20 0x6F6C634300081200330000000000000000000000 "
		},
		"gasEstimates": {
			"creation": {
				"codeDepositCost": "326200",
				"executionCost": "362",
				"totalCost": "326562"
			},
			"external": {
				"arr(uint256)": "infinite",
				"checkRange(uint256,uint256)": "infinite",
				"checkcoprime(uint256,uint256)": "infinite",
				"get(uint256,uint256)": "infinite",
				"getArray()": "infinite",
				"num1()": "2452",
				"num2()": "2430"
			}
		},
		"methodIdentifiers": {
			"arr(uint256)": "71e5ee5f",
			"checkRange(uint256,uint256)": "6cc99ad5",
			"checkcoprime(uint256,uint256)": "939b6767",
			"get(uint256,uint256)": "669e48aa",
			"getArray()": "d504ea1d",
			"num1()": "3b9eac4b",
			"num2()": "15d4266c"
		}
	},
	"abi": [
		{
			"inputs": [
				{
					"internalType": "uint256",
					"name": "",
					"type": "uint256"
				}
			],
			"name": "arr",
			"outputs": [
				{
					"internalType": "uint256",
					"name": "",
					"type": "uint256"
				}
			],
			"stateMutability": "view",
			"type": "function"
		},
		{
			"inputs": [
				{
					"internalType": "uint256",
					"name": "start",
					"type": "uint256"
				},
				{
					"internalType": "uint256",
					"name": "end",
					"type": "uint256"
				}
			],
			"name": "checkRange",
			"outputs": [],
			"stateMutability": "nonpayable",
			"type": "function"
		},
		{
			"inputs": [
				{
					"internalType": "uint256",
					"name": "n1",
					"type": "uint256"
				},
				{
					"internalType": "uint256",
					"name": "n2",
					"type": "uint256"
				}
			],
			"name": "checkcoprime",
			"outputs": [
				{
					"internalType": "bool",
					"name": "",
					"type": "bool"
				}
			],
			"stateMutability": "pure",
			"type": "function"
		},
		{
			"inputs": [
				{
					"internalType": "uint256",
					"name": "n1",
					"type": "uint256"
				},
				{
					"internalType": "uint256",
					"name": "n2",
					"type": "uint256"
				}
			],
			"name": "get",
			"outputs": [],
			"stateMutability": "nonpayable",
			"type": "function"
		},
		{
			"inputs": [],
			"name": "getArray",
			"outputs": [
				{
					"internalType": "uint256[]",
					"name": "",
					"type": "uint256[]"
				}
			],
			"stateMutability": "view",
			"type": "function"
		},
		{
			"inputs": [],
			"name": "num1",
			"outputs": [
				{
					"internalType": "uint256",
					"name": "",
					"type": "uint256"
				}
			],
			"stateMutability": "view",
			"type": "function"
		},
		{
			"inputs": [],
			"name": "num2",
			"outputs": [
				{
					"internalType": "uint256",
					"name": "",
					"type": "uint256"
				}
			],
			"stateMutability": "view",
			"type": "function"
		}
	]
}