{
	"data": {
		"bytecode": {
			"linkReferences": {},
			"object": "608060405234801561001057600080fd5b506107a5806100206000396000f3fe608060405234801561001057600080fd5b50600436106100935760003560e01c80639be6ae64116100665780639be6ae64146100fc578063b3d642681461011a578063b92abc9414610138578063ccbac9f514610156578063dbdff2c11461017457610093565b8063192c9040146100985780631a8056e1146100b657806327e605ec146100d457806342a3e93f146100de575b600080fd5b6100a0610192565b6040516100ad91906105d5565b60405180910390f35b6100be6101bc565b6040516100cb91906105d5565b60405180910390f35b6100dc6101e6565b005b6100e66104eb565b6040516100f391906105d5565b60405180910390f35b61010461050f565b60405161011191906105d5565b60405180910390f35b610122610535565b60405161012f91906105d5565b60405180910390f35b61014061055b565b60405161014d91906105d5565b60405180910390f35b61015e610584565b60405161016b9190610609565b60405180910390f35b61017c61058a565b6040516101899190610609565b60405180910390f35b6000600160009054906101000a900473ffffffffffffffffffffffffffffffffffffffff16905090565b6000600260009054906101000a900473ffffffffffffffffffffffffffffffffffffffff16905090565b60006103e84244336040516020016102009392919061068d565b6040516020818303038152906040528051906020012060001c61022391906106f9565b90508060038190555060008060006101000a81548173ffffffffffffffffffffffffffffffffffffffff021916908373ffffffffffffffffffffffffffffffffffffffff1602179055506000600160006101000a81548173ffffffffffffffffffffffffffffffffffffffff021916908373ffffffffffffffffffffffffffffffffffffffff1602179055506000600260006101000a81548173ffffffffffffffffffffffffffffffffffffffff021916908373ffffffffffffffffffffffffffffffffffffffff160217905550600060038261030091906106f9565b1480156103195750600060058261031791906106f9565b145b1561036357336000806101000a81548173ffffffffffffffffffffffffffffffffffffffff021916908373ffffffffffffffffffffffffffffffffffffffff160217905550610447565b600060078261037291906106f9565b148061038a57506000600b8261038891906106f9565b145b156103d55733600160006101000a81548173ffffffffffffffffffffffffffffffffffffffff021916908373ffffffffffffffffffffffffffffffffffffffff160217905550610446565b60006005826103e491906106f9565b1480156103fe57506000600a826103fb91906106f9565b14155b156104455733600260006101000a81548173ffffffffffffffffffffffffffffffffffffffff021916908373ffffffffffffffffffffffffffffffffffffffff1602179055505b5b5b7fc3c1f65fc96cbd14a085f7ddbb1e3dcc87916f31dba1f4d1586b92ca62e3eed28160008054906101000a900473ffffffffffffffffffffffffffffffffffffffff16600160009054906101000a900473ffffffffffffffffffffffffffffffffffffffff16600260009054906101000a900473ffffffffffffffffffffffffffffffffffffffff166040516104e0949392919061072a565b60405180910390a150565b60008054906101000a900473ffffffffffffffffffffffffffffffffffffffff1681565b600260009054906101000a900473ffffffffffffffffffffffffffffffffffffffff1681565b600160009054906101000a900473ffffffffffffffffffffffffffffffffffffffff1681565b60008060009054906101000a900473ffffffffffffffffffffffffffffffffffffffff16905090565b60035481565b6000600354905090565b600073ffffffffffffffffffffffffffffffffffffffff82169050919050565b60006105bf82610594565b9050919050565b6105cf816105b4565b82525050565b60006020820190506105ea60008301846105c6565b92915050565b6000819050919050565b610603816105f0565b82525050565b600060208201905061061e60008301846105fa565b92915050565b6000819050919050565b61063f61063a826105f0565b610624565b82525050565b60008160601b9050919050565b600061065d82610645565b9050919050565b600061066f82610652565b9050919050565b610687610682826105b4565b610664565b82525050565b6000610699828661062e565b6020820191506106a9828561062e565b6020820191506106b98284610676565b601482019150819050949350505050565b7f4e487b7100000000000000000000000000000000000000000000000000000000600052601260045260246000fd5b6000610704826105f0565b915061070f836105f0565b92508261071f5761071e6106ca565b5b828206905092915050565b600060808201905061073f60008301876105fa565b61074c60208301866105c6565b61075960408301856105c6565b61076660608301846105c6565b9594505050505056fea2646970667358221220bf84f1884ebd95543a7a1da935976a3ec1999dd81ea0abeba4dde8fc9d8bc5b064736f6c63430008120033",
			"opcodes": "PUSH1 0x80 PUSH1 0x40 MSTORE CALLVALUE DUP1 ISZERO PUSH2 0x10 JUMPI PUSH1 0x0 DUP1 REVERT JUMPDEST POP PUSH2 0x7A5 DUP1 PUSH2 0x20 PUSH1 0x0 CODECOPY PUSH1 0x0 RETURN INVALID PUSH1 0x80 PUSH1 0x40 MSTORE CALLVALUE DUP1 ISZERO PUSH2 0x10 JUMPI PUSH1 0x0 DUP1 REVERT JUMPDEST POP PUSH1 0x4 CALLDATASIZE LT PUSH2 0x93 JUMPI PUSH1 0x0 CALLDATALOAD PUSH1 0xE0 SHR DUP1 PUSH4 0x9BE6AE64 GT PUSH2 0x66 JUMPI DUP1 PUSH4 0x9BE6AE64 EQ PUSH2 0xFC JUMPI DUP1 PUSH4 0xB3D64268 EQ PUSH2 0x11A JUMPI DUP1 PUSH4 0xB92ABC94 EQ PUSH2 0x138 JUMPI DUP1 PUSH4 0xCCBAC9F5 EQ PUSH2 0x156 JUMPI DUP1 PUSH4 0xDBDFF2C1 EQ PUSH2 0x174 JUMPI PUSH2 0x93 JUMP JUMPDEST DUP1 PUSH4 0x192C9040 EQ PUSH2 0x98 JUMPI DUP1 PUSH4 0x1A8056E1 EQ PUSH2 0xB6 JUMPI DUP1 PUSH4 0x27E605EC EQ PUSH2 0xD4 JUMPI DUP1 PUSH4 0x42A3E93F EQ PUSH2 0xDE JUMPI JUMPDEST PUSH1 0x0 DUP1 REVERT JUMPDEST PUSH2 0xA0 PUSH2 0x192 JUMP JUMPDEST PUSH1 0x40 MLOAD PUSH2 0xAD SWAP2 SWAP1 PUSH2 0x5D5 JUMP JUMPDEST PUSH1 0x40 MLOAD DUP1 SWAP2 SUB SWAP1 RETURN JUMPDEST PUSH2 0xBE PUSH2 0x1BC JUMP JUMPDEST PUSH1 0x40 MLOAD PUSH2 0xCB SWAP2 SWAP1 PUSH2 0x5D5 JUMP JUMPDEST PUSH1 0x40 MLOAD DUP1 SWAP2 SUB SWAP1 RETURN JUMPDEST PUSH2 0xDC PUSH2 0x1E6 JUMP JUMPDEST STOP JUMPDEST PUSH2 0xE6 PUSH2 0x4EB JUMP JUMPDEST PUSH1 0x40 MLOAD PUSH2 0xF3 SWAP2 SWAP1 PUSH2 0x5D5 JUMP JUMPDEST PUSH1 0x40 MLOAD DUP1 SWAP2 SUB SWAP1 RETURN JUMPDEST PUSH2 0x104 PUSH2 0x50F JUMP JUMPDEST PUSH1 0x40 MLOAD PUSH2 0x111 SWAP2 SWAP1 PUSH2 0x5D5 JUMP JUMPDEST PUSH1 0x40 MLOAD DUP1 SWAP2 SUB SWAP1 RETURN JUMPDEST PUSH2 0x122 PUSH2 0x535 JUMP JUMPDEST PUSH1 0x40 MLOAD PUSH2 0x12F SWAP2 SWAP1 PUSH2 0x5D5 JUMP JUMPDEST PUSH1 0x40 MLOAD DUP1 SWAP2 SUB SWAP1 RETURN JUMPDEST PUSH2 0x140 PUSH2 0x55B JUMP JUMPDEST PUSH1 0x40 MLOAD PUSH2 0x14D SWAP2 SWAP1 PUSH2 0x5D5 JUMP JUMPDEST PUSH1 0x40 MLOAD DUP1 SWAP2 SUB SWAP1 RETURN JUMPDEST PUSH2 0x15E PUSH2 0x584 JUMP JUMPDEST PUSH1 0x40 MLOAD PUSH2 0x16B SWAP2 SWAP1 PUSH2 0x609 JUMP JUMPDEST PUSH1 0x40 MLOAD DUP1 SWAP2 SUB SWAP1 RETURN JUMPDEST PUSH2 0x17C PUSH2 0x58A JUMP JUMPDEST PUSH1 0x40 MLOAD PUSH2 0x189 SWAP2 SWAP1 PUSH2 0x609 JUMP JUMPDEST PUSH1 0x40 MLOAD DUP1 SWAP2 SUB SWAP1 RETURN JUMPDEST PUSH1 0x0 PUSH1 0x1 PUSH1 0x0 SWAP1 SLOAD SWAP1 PUSH2 0x100 EXP SWAP1 DIV PUSH20 0xFFFFFFFFFFFFFFFFFFFFFFFFFFFFFFFFFFFFFFFF AND SWAP1 POP SWAP1 JUMP JUMPDEST PUSH1 0x0 PUSH1 0x2 PUSH1 0x0 SWAP1 SLOAD SWAP1 PUSH2 0x100 EXP SWAP1 DIV PUSH20 0xFFFFFFFFFFFFFFFFFFFFFFFFFFFFFFFFFFFFFFFF AND SWAP1 POP SWAP1 JUMP JUMPDEST PUSH1 0x0 PUSH2 0x3E8 TIMESTAMP PREVRANDAO CALLER PUSH1 0x40 MLOAD PUSH1 0x20 ADD PUSH2 0x200 SWAP4 SWAP3 SWAP2 SWAP1 PUSH2 0x68D JUMP JUMPDEST PUSH1 0x40 MLOAD PUSH1 0x20 DUP2 DUP4 SUB SUB DUP2 MSTORE SWAP1 PUSH1 0x40 MSTORE DUP1 MLOAD SWAP1 PUSH1 0x20 ADD KECCAK256 PUSH1 0x0 SHR PUSH2 0x223 SWAP2 SWAP1 PUSH2 0x6F9 JUMP JUMPDEST SWAP1 POP DUP1 PUSH1 0x3 DUP2 SWAP1 SSTORE POP PUSH1 0x0 DUP1 PUSH1 0x0 PUSH2 0x100 EXP DUP2 SLOAD DUP2 PUSH20 0xFFFFFFFFFFFFFFFFFFFFFFFFFFFFFFFFFFFFFFFF MUL NOT AND SWAP1 DUP4 PUSH20 0xFFFFFFFFFFFFFFFFFFFFFFFFFFFFFFFFFFFFFFFF AND MUL OR SWAP1 SSTORE POP PUSH1 0x0 PUSH1 0x1 PUSH1 0x0 PUSH2 0x100 EXP DUP2 SLOAD DUP2 PUSH20 0xFFFFFFFFFFFFFFFFFFFFFFFFFFFFFFFFFFFFFFFF MUL NOT AND SWAP1 DUP4 PUSH20 0xFFFFFFFFFFFFFFFFFFFFFFFFFFFFFFFFFFFFFFFF AND MUL OR SWAP1 SSTORE POP PUSH1 0x0 PUSH1 0x2 PUSH1 0x0 PUSH2 0x100 EXP DUP2 SLOAD DUP2 PUSH20 0xFFFFFFFFFFFFFFFFFFFFFFFFFFFFFFFFFFFFFFFF MUL NOT AND SWAP1 DUP4 PUSH20 0xFFFFFFFFFFFFFFFFFFFFFFFFFFFFFFFFFFFFFFFF AND MUL OR SWAP1 SSTORE POP PUSH1 0x0 PUSH1 0x3 DUP3 PUSH2 0x300 SWAP2 SWAP1 PUSH2 0x6F9 JUMP JUMPDEST EQ DUP1 ISZERO PUSH2 0x319 JUMPI POP PUSH1 0x0 PUSH1 0x5 DUP3 PUSH2 0x317 SWAP2 SWAP1 PUSH2 0x6F9 JUMP JUMPDEST EQ JUMPDEST ISZERO PUSH2 0x363 JUMPI CALLER PUSH1 0x0 DUP1 PUSH2 0x100 EXP DUP2 SLOAD DUP2 PUSH20 0xFFFFFFFFFFFFFFFFFFFFFFFFFFFFFFFFFFFFFFFF MUL NOT AND SWAP1 DUP4 PUSH20 0xFFFFFFFFFFFFFFFFFFFFFFFFFFFFFFFFFFFFFFFF AND MUL OR SWAP1 SSTORE POP PUSH2 0x447 JUMP JUMPDEST PUSH1 0x0 PUSH1 0x7 DUP3 PUSH2 0x372 SWAP2 SWAP1 PUSH2 0x6F9 JUMP JUMPDEST EQ DUP1 PUSH2 0x38A JUMPI POP PUSH1 0x0 PUSH1 0xB DUP3 PUSH2 0x388 SWAP2 SWAP1 PUSH2 0x6F9 JUMP JUMPDEST EQ JUMPDEST ISZERO PUSH2 0x3D5 JUMPI CALLER PUSH1 0x1 PUSH1 0x0 PUSH2 0x100 EXP DUP2 SLOAD DUP2 PUSH20 0xFFFFFFFFFFFFFFFFFFFFFFFFFFFFFFFFFFFFFFFF MUL NOT AND SWAP1 DUP4 PUSH20 0xFFFFFFFFFFFFFFFFFFFFFFFFFFFFFFFFFFFFFFFF AND MUL OR SWAP1 SSTORE POP PUSH2 0x446 JUMP JUMPDEST PUSH1 0x0 PUSH1 0x5 DUP3 PUSH2 0x3E4 SWAP2 SWAP1 PUSH2 0x6F9 JUMP JUMPDEST EQ DUP1 ISZERO PUSH2 0x3FE JUMPI POP PUSH1 0x0 PUSH1 0xA DUP3 PUSH2 0x3FB SWAP2 SWAP1 PUSH2 0x6F9 JUMP JUMPDEST EQ ISZERO JUMPDEST ISZERO PUSH2 0x445 JUMPI CALLER PUSH1 0x2 PUSH1 0x0 PUSH2 0x100 EXP DUP2 SLOAD DUP2 PUSH20 0xFFFFFFFFFFFFFFFFFFFFFFFFFFFFFFFFFFFFFFFF MUL NOT AND SWAP1 DUP4 PUSH20 0xFFFFFFFFFFFFFFFFFFFFFFFFFFFFFFFFFFFFFFFF AND MUL OR SWAP1 SSTORE POP JUMPDEST JUMPDEST JUMPDEST PUSH32 0xC3C1F65FC96CBD14A085F7DDBB1E3DCC87916F31DBA1F4D1586B92CA62E3EED2 DUP2 PUSH1 0x0 DUP1 SLOAD SWAP1 PUSH2 0x100 EXP SWAP1 DIV PUSH20 0xFFFFFFFFFFFFFFFFFFFFFFFFFFFFFFFFFFFFFFFF AND PUSH1 0x1 PUSH1 0x0 SWAP1 SLOAD SWAP1 PUSH2 0x100 EXP SWAP1 DIV PUSH20 0xFFFFFFFFFFFFFFFFFFFFFFFFFFFFFFFFFFFFFFFF AND PUSH1 0x2 PUSH1 0x0 SWAP1 SLOAD SWAP1 PUSH2 0x100 EXP SWAP1 DIV PUSH20 0xFFFFFFFFFFFFFFFFFFFFFFFFFFFFFFFFFFFFFFFF AND PUSH1 0x40 MLOAD PUSH2 0x4E0 SWAP5 SWAP4 SWAP3 SWAP2 SWAP1 PUSH2 0x72A JUMP JUMPDEST PUSH1 0x40 MLOAD DUP1 SWAP2 SUB SWAP1 LOG1 POP JUMP JUMPDEST PUSH1 0x0 DUP1 SLOAD SWAP1 PUSH2 0x100 EXP SWAP1 DIV PUSH20 0xFFFFFFFFFFFFFFFFFFFFFFFFFFFFFFFFFFFFFFFF AND DUP2 JUMP JUMPDEST PUSH1 0x2 PUSH1 0x0 SWAP1 SLOAD SWAP1 PUSH2 0x100 EXP SWAP1 DIV PUSH20 0xFFFFFFFFFFFFFFFFFFFFFFFFFFFFFFFFFFFFFFFF AND DUP2 JUMP JUMPDEST PUSH1 0x1 PUSH1 0x0 SWAP1 SLOAD SWAP1 PUSH2 0x100 EXP SWAP1 DIV PUSH20 0xFFFFFFFFFFFFFFFFFFFFFFFFFFFFFFFFFFFFFFFF AND DUP2 JUMP JUMPDEST PUSH1 0x0 DUP1 PUSH1 0x0 SWAP1 SLOAD SWAP1 PUSH2 0x100 EXP SWAP1 DIV PUSH20 0xFFFFFFFFFFFFFFFFFFFFFFFFFFFFFFFFFFFFFFFF AND SWAP1 POP SWAP1 JUMP JUMPDEST PUSH1 0x3 SLOAD DUP2 JUMP JUMPDEST PUSH1 0x0 PUSH1 0x3 SLOAD SWAP1 POP SWAP1 JUMP JUMPDEST PUSH1 0x0 PUSH20 0xFFFFFFFFFFFFFFFFFFFFFFFFFFFFFFFFFFFFFFFF DUP3 AND SWAP1 POP SWAP2 SWAP1 POP JUMP JUMPDEST PUSH1 0x0 PUSH2 0x5BF DUP3 PUSH2 0x594 JUMP JUMPDEST SWAP1 POP SWAP2 SWAP1 POP JUMP JUMPDEST PUSH2 0x5CF DUP2 PUSH2 0x5B4 JUMP JUMPDEST DUP3 MSTORE POP POP JUMP JUMPDEST PUSH1 0x0 PUSH1 0x20 DUP3 ADD SWAP1 POP PUSH2 0x5EA PUSH1 0x0 DUP4 ADD DUP5 PUSH2 0x5C6 JUMP JUMPDEST SWAP3 SWAP2 POP POP JUMP JUMPDEST PUSH1 0x0 DUP2 SWAP1 POP SWAP2 SWAP1 POP JUMP JUMPDEST PUSH2 0x603 DUP2 PUSH2 0x5F0 JUMP JUMPDEST DUP3 MSTORE POP POP JUMP JUMPDEST PUSH1 0x0 PUSH1 0x20 DUP3 ADD SWAP1 POP PUSH2 0x61E PUSH1 0x0 DUP4 ADD DUP5 PUSH2 0x5FA JUMP JUMPDEST SWAP3 SWAP2 POP POP JUMP JUMPDEST PUSH1 0x0 DUP2 SWAP1 POP SWAP2 SWAP1 POP JUMP JUMPDEST PUSH2 0x63F PUSH2 0x63A DUP3 PUSH2 0x5F0 JUMP JUMPDEST PUSH2 0x624 JUMP JUMPDEST DUP3 MSTORE POP POP JUMP JUMPDEST PUSH1 0x0 DUP2 PUSH1 0x60 SHL SWAP1 POP SWAP2 SWAP1 POP JUMP JUMPDEST PUSH1 0x0 PUSH2 0x65D DUP3 PUSH2 0x645 JUMP JUMPDEST SWAP1 POP SWAP2 SWAP1 POP JUMP JUMPDEST PUSH1 0x0 PUSH2 0x66F DUP3 PUSH2 0x652 JUMP JUMPDEST SWAP1 POP SWAP2 SWAP1 POP JUMP JUMPDEST PUSH2 0x687 PUSH2 0x682 DUP3 PUSH2 0x5B4 JUMP JUMPDEST PUSH2 0x664 JUMP JUMPDEST DUP3 MSTORE POP POP JUMP JUMPDEST PUSH1 0x0 PUSH2 0x699 DUP3 DUP7 PUSH2 0x62E JUMP JUMPDEST PUSH1 0x20 DUP3 ADD SWAP2 POP PUSH2 0x6A9 DUP3 DUP6 PUSH2 0x62E JUMP JUMPDEST PUSH1 0x20 DUP3 ADD SWAP2 POP PUSH2 0x6B9 DUP3 DUP5 PUSH2 0x676 JUMP JUMPDEST PUSH1 0x14 DUP3 ADD SWAP2 POP DUP2 SWAP1 POP SWAP5 SWAP4 POP POP POP POP JUMP JUMPDEST PUSH32 0x4E487B7100000000000000000000000000000000000000000000000000000000 PUSH1 0x0 MSTORE PUSH1 0x12 PUSH1 0x4 MSTORE PUSH1 0x24 PUSH1 0x0 REVERT JUMPDEST PUSH1 0x0 PUSH2 0x704 DUP3 PUSH2 0x5F0 JUMP JUMPDEST SWAP2 POP PUSH2 0x70F DUP4 PUSH2 0x5F0 JUMP JUMPDEST SWAP3 POP DUP3 PUSH2 0x71F JUMPI PUSH2 0x71E PUSH2 0x6CA JUMP JUMPDEST JUMPDEST DUP3 DUP3 MOD SWAP1 POP SWAP3 SWAP2 POP POP JUMP JUMPDEST PUSH1 0x0 PUSH1 0x80 DUP3 ADD SWAP1 POP PUSH2 0x73F PUSH1 0x0 DUP4 ADD DUP8 PUSH2 0x5FA JUMP JUMPDEST PUSH2 0x74C PUSH1 0x20 DUP4 ADD DUP7 PUSH2 0x5C6 JUMP JUMPDEST PUSH2 0x759 PUSH1 0x40 DUP4 ADD DUP6 PUSH2 0x5C6 JUMP JUMPDEST PUSH2 0x766 PUSH1 0x60 DUP4 ADD DUP5 PUSH2 0x5C6 JUMP JUMPDEST SWAP6 SWAP5 POP POP POP POP POP JUMP INVALID LOG2 PUSH5 0x6970667358 0x22 SLT KECCAK256 0xBF DUP5 CALL DUP9 0x4E 0xBD SWAP6 SLOAD GASPRICE PUSH27 0x1DA935976A3EC1999DD81EA0ABEBA4DDE8FC9D8BC5B064736F6C63 NUMBER STOP ADDMOD SLT STOP CALLER "
		},
		"gasEstimates": {
			"creation": {
				"codeDepositCost": "391400",
				"executionCost": "430",
				"totalCost": "391830"
			},
			"external": {
				"drawLottery()": "infinite",
				"firstPrizeWinner()": "2578",
				"getFirstPrizeWinner()": "2566",
				"getRandomNumber()": "2525",
				"getSecondPrizeWinner()": "2523",
				"getThirdPrizeWinner()": "2545",
				"randomNumber()": "2495",
				"secondPrizeWinner()": "2536",
				"thirdPrizeWinner()": "2514"
			}
		},
		"methodIdentifiers": {
			"drawLottery()": "27e605ec",
			"firstPrizeWinner()": "42a3e93f",
			"getFirstPrizeWinner()": "b92abc94",
			"getRandomNumber()": "dbdff2c1",
			"getSecondPrizeWinner()": "192c9040",
			"getThirdPrizeWinner()": "1a8056e1",
			"randomNumber()": "ccbac9f5",
			"secondPrizeWinner()": "b3d64268",
			"thirdPrizeWinner()": "9be6ae64"
		}
	},
	"abi": [
		{
			"anonymous": false,
			"inputs": [
				{
					"indexed": false,
					"internalType": "uint256",
					"name": "winningNumber",
					"type": "uint256"
				},
				{
					"indexed": false,
					"internalType": "address",
					"name": "firstPrizeWinner",
					"type": "address"
				},
				{
					"indexed": false,
					"internalType": "address",
					"name": "secondPrizeWinner",
					"type": "address"
				},
				{
					"indexed": false,
					"internalType": "address",
					"name": "thirdPrizeWinner",
					"type": "address"
				}
			],
			"name": "LotteryDrawn",
			"type": "event"
		},
		{
			"inputs": [],
			"name": "drawLottery",
			"outputs": [],
			"stateMutability": "nonpayable",
			"type": "function"
		},
		{
			"inputs": [],
			"name": "firstPrizeWinner",
			"outputs": [
				{
					"internalType": "address",
					"name": "",
					"type": "address"
				}
			],
			"stateMutability": "view",
			"type": "function"
		},
		{
			"inputs": [],
			"name": "getFirstPrizeWinner",
			"outputs": [
				{
					"internalType": "address",
					"name": "",
					"type": "address"
				}
			],
			"stateMutability": "view",
			"type": "function"
		},
		{
			"inputs": [],
			"name": "getRandomNumber",
			"outputs": [
				{
					"internalType": "uint256",
					"name": "",
					"type": "uint256"
				}
			],
			"stateMutability": "view",
			"type": "function"
		},
		{
			"inputs": [],
			"name": "getSecondPrizeWinner",
			"outputs": [
				{
					"internalType": "address",
					"name": "",
					"type": "address"
				}
			],
			"stateMutability": "view",
			"type": "function"
		},
		{
			"inputs": [],
			"name": "getThirdPrizeWinner",
			"outputs": [
				{
					"internalType": "address",
					"name": "",
					"type": "address"
				}
			],
			"stateMutability": "view",
			"type": "function"
		},
		{
			"inputs": [],
			"name": "randomNumber",
			"outputs": [
				{
					"internalType": "uint256",
					"name": "",
					"type": "uint256"
				}
			],
			"stateMutability": "view",
			"type": "function"
		},
		{
			"inputs": [],
			"name": "secondPrizeWinner",
			"outputs": [
				{
					"internalType": "address",
					"name": "",
					"type": "address"
				}
			],
			"stateMutability": "view",
			"type": "function"
		},
		{
			"inputs": [],
			"name": "thirdPrizeWinner",
			"outputs": [
				{
					"internalType": "address",
					"name": "",
					"type": "address"
				}
			],
			"stateMutability": "view",
			"type": "function"
		}
	]
}