{
	"Practice/Day-07/P1.sol": {
		"Calculate": {
			"abi": [
				{
					"inputs": [
						{
							"internalType": "uint256",
							"name": "n",
							"type": "uint256"
						}
					],
					"name": "Armstrong",
					"outputs": [
						{
							"internalType": "bool",
							"name": "",
							"type": "bool"
						}
					],
					"stateMutability": "pure",
					"type": "function"
				},
				{
					"inputs": [
						{
							"internalType": "uint256",
							"name": "n",
							"type": "uint256"
						}
					],
					"name": "factorial",
					"outputs": [
						{
							"internalType": "uint256",
							"name": "",
							"type": "uint256"
						}
					],
					"stateMutability": "pure",
					"type": "function"
				},
				{
					"inputs": [
						{
							"internalType": "uint256",
							"name": "a",
							"type": "uint256"
						},
						{
							"internalType": "uint256",
							"name": "b",
							"type": "uint256"
						}
					],
					"name": "fibonacci",
					"outputs": [
						{
							"internalType": "uint256[]",
							"name": "",
							"type": "uint256[]"
						}
					],
					"stateMutability": "pure",
					"type": "function"
				},
				{
					"inputs": [
						{
							"internalType": "uint256",
							"name": "a",
							"type": "uint256"
						},
						{
							"internalType": "uint256",
							"name": "b",
							"type": "uint256"
						}
					],
					"name": "max",
					"outputs": [
						{
							"internalType": "uint256",
							"name": "",
							"type": "uint256"
						}
					],
					"stateMutability": "pure",
					"type": "function"
				},
				{
					"inputs": [
						{
							"internalType": "uint256",
							"name": "a",
							"type": "uint256"
						},
						{
							"internalType": "uint256",
							"name": "b",
							"type": "uint256"
						}
					],
					"name": "min",
					"outputs": [
						{
							"internalType": "uint256",
							"name": "",
							"type": "uint256"
						}
					],
					"stateMutability": "pure",
					"type": "function"
				}
			],
			"devdoc": {
				"kind": "dev",
				"methods": {},
				"version": 1
			},
			"evm": {
				"assembly": "    /* \"Practice/Day-07/P1.sol\":88:690  contract Calculate {... */\n  mstore(0x40, 0x80)\n  callvalue\n  dup1\n  iszero\n  tag_1\n  jumpi\n  0x00\n  dup1\n  revert\ntag_1:\n  pop\n  dataSize(sub_0)\n  dup1\n  dataOffset(sub_0)\n  0x00\n  codecopy\n  0x00\n  return\nstop\n\nsub_0: assembly {\n        /* \"Practice/Day-07/P1.sol\":88:690  contract Calculate {... */\n      mstore(0x40, 0x80)\n      callvalue\n      dup1\n      iszero\n      tag_1\n      jumpi\n      0x00\n      dup1\n      revert\n    tag_1:\n      pop\n      jumpi(tag_2, lt(calldatasize, 0x04))\n      shr(0xe0, calldataload(0x00))\n      dup1\n      0x421ec765\n      eq\n      tag_3\n      jumpi\n      dup1\n      0x6d5433e6\n      eq\n      tag_4\n      jumpi\n      dup1\n      0x7ae2b5c7\n      eq\n      tag_5\n      jumpi\n      dup1\n      0x83714834\n      eq\n      tag_6\n      jumpi\n      dup1\n      0xa1abcfca\n      eq\n      tag_7\n      jumpi\n    tag_2:\n      0x00\n      dup1\n      revert\n        /* \"Practice/Day-07/P1.sol\":460:578  function fibonacci(uint a, uint b) public pure returns(uint[] memory) {... */\n    tag_3:\n      tag_8\n      0x04\n      dup1\n      calldatasize\n      sub\n      dup2\n      add\n      swap1\n      tag_9\n      swap2\n      swap1\n      tag_10\n      jump\t// in\n    tag_9:\n      tag_11\n      jump\t// in\n    tag_8:\n      mload(0x40)\n      tag_12\n      swap2\n      swap1\n      tag_13\n      jump\t// in\n    tag_12:\n      mload(0x40)\n      dup1\n      swap2\n      sub\n      swap1\n      return\n        /* \"Practice/Day-07/P1.sol\":143:240  function max(uint a, uint b) public pure returns(uint) {... */\n    tag_4:\n      tag_14\n      0x04\n      dup1\n      calldatasize\n      sub\n      dup2\n      add\n      swap1\n      tag_15\n      swap2\n      swap1\n      tag_10\n      jump\t// in\n    tag_15:\n      tag_16\n      jump\t// in\n    tag_14:\n      mload(0x40)\n      tag_17\n      swap2\n      swap1\n      tag_18\n      jump\t// in\n    tag_17:\n      mload(0x40)\n      dup1\n      swap2\n      sub\n      swap1\n      return\n        /* \"Practice/Day-07/P1.sol\":248:345  function min(uint a, uint b) public pure returns(uint) {... */\n    tag_5:\n      tag_19\n      0x04\n      dup1\n      calldatasize\n      sub\n      dup2\n      add\n      swap1\n      tag_20\n      swap2\n      swap1\n      tag_10\n      jump\t// in\n    tag_20:\n      tag_21\n      jump\t// in\n    tag_19:\n      mload(0x40)\n      tag_22\n      swap2\n      swap1\n      tag_18\n      jump\t// in\n    tag_22:\n      mload(0x40)\n      dup1\n      swap2\n      sub\n      swap1\n      return\n        /* \"Practice/Day-07/P1.sol\":353:452  function factorial(uint n) public pure returns(uint) {... */\n    tag_6:\n      tag_23\n      0x04\n      dup1\n      calldatasize\n      sub\n      dup2\n      add\n      swap1\n      tag_24\n      swap2\n      swap1\n      tag_25\n      jump\t// in\n    tag_24:\n      tag_26\n      jump\t// in\n    tag_23:\n      mload(0x40)\n      tag_27\n      swap2\n      swap1\n      tag_18\n      jump\t// in\n    tag_27:\n      mload(0x40)\n      dup1\n      swap2\n      sub\n      swap1\n      return\n        /* \"Practice/Day-07/P1.sol\":586:687  function Armstrong(uint n) public pure returns(bool) {... */\n    tag_7:\n      tag_28\n      0x04\n      dup1\n      calldatasize\n      sub\n      dup2\n      add\n      swap1\n      tag_29\n      swap2\n      swap1\n      tag_25\n      jump\t// in\n    tag_29:\n      tag_30\n      jump\t// in\n    tag_28:\n      mload(0x40)\n      tag_31\n      swap2\n      swap1\n      tag_32\n      jump\t// in\n    tag_31:\n      mload(0x40)\n      dup1\n      swap2\n      sub\n      swap1\n      return\n        /* \"Practice/Day-07/P1.sol\":460:578  function fibonacci(uint a, uint b) public pure returns(uint[] memory) {... */\n    tag_11:\n        /* \"Practice/Day-07/P1.sol\":515:528  uint[] memory */\n      0x60\n        /* \"Practice/Day-07/P1.sol\":548:570  Numbers.fibonacci(a,b) */\n      tag_34\n        /* \"Practice/Day-07/P1.sol\":566:567  a */\n      dup4\n        /* \"Practice/Day-07/P1.sol\":568:569  b */\n      dup4\n        /* \"Practice/Day-07/P1.sol\":548:565  Numbers.fibonacci */\n      tag_35\n        /* \"Practice/Day-07/P1.sol\":548:570  Numbers.fibonacci(a,b) */\n      jump\t// in\n    tag_34:\n        /* \"Practice/Day-07/P1.sol\":541:570  return Numbers.fibonacci(a,b) */\n      swap1\n      pop\n        /* \"Practice/Day-07/P1.sol\":460:578  function fibonacci(uint a, uint b) public pure returns(uint[] memory) {... */\n      swap3\n      swap2\n      pop\n      pop\n      jump\t// out\n        /* \"Practice/Day-07/P1.sol\":143:240  function max(uint a, uint b) public pure returns(uint) {... */\n    tag_16:\n        /* \"Practice/Day-07/P1.sol\":192:196  uint */\n      0x00\n        /* \"Practice/Day-07/P1.sol\":216:232  Numbers.max(a,b) */\n      tag_37\n        /* \"Practice/Day-07/P1.sol\":228:229  a */\n      dup4\n        /* \"Practice/Day-07/P1.sol\":230:231  b */\n      dup4\n        /* \"Practice/Day-07/P1.sol\":216:227  Numbers.max */\n      tag_38\n        /* \"Practice/Day-07/P1.sol\":216:232  Numbers.max(a,b) */\n      jump\t// in\n    tag_37:\n        /* \"Practice/Day-07/P1.sol\":209:232  return Numbers.max(a,b) */\n      swap1\n      pop\n        /* \"Practice/Day-07/P1.sol\":143:240  function max(uint a, uint b) public pure returns(uint) {... */\n      swap3\n      swap2\n      pop\n      pop\n      jump\t// out\n        /* \"Practice/Day-07/P1.sol\":248:345  function min(uint a, uint b) public pure returns(uint) {... */\n    tag_21:\n        /* \"Practice/Day-07/P1.sol\":297:301  uint */\n      0x00\n        /* \"Practice/Day-07/P1.sol\":321:337  Numbers.min(a,b) */\n      tag_40\n        /* \"Practice/Day-07/P1.sol\":333:334  a */\n      dup4\n        /* \"Practice/Day-07/P1.sol\":335:336  b */\n      dup4\n        /* \"Practice/Day-07/P1.sol\":321:332  Numbers.min */\n      tag_41\n        /* \"Practice/Day-07/P1.sol\":321:337  Numbers.min(a,b) */\n      jump\t// in\n    tag_40:\n        /* \"Practice/Day-07/P1.sol\":314:337  return Numbers.min(a,b) */\n      swap1\n      pop\n        /* \"Practice/Day-07/P1.sol\":248:345  function min(uint a, uint b) public pure returns(uint) {... */\n      swap3\n      swap2\n      pop\n      pop\n      jump\t// out\n        /* \"Practice/Day-07/P1.sol\":353:452  function factorial(uint n) public pure returns(uint) {... */\n    tag_26:\n        /* \"Practice/Day-07/P1.sol\":400:404  uint */\n      0x00\n        /* \"Practice/Day-07/P1.sol\":424:444  Numbers.factorial(n) */\n      tag_43\n        /* \"Practice/Day-07/P1.sol\":442:443  n */\n      dup3\n        /* \"Practice/Day-07/P1.sol\":424:441  Numbers.factorial */\n      tag_44\n        /* \"Practice/Day-07/P1.sol\":424:444  Numbers.factorial(n) */\n      jump\t// in\n    tag_43:\n        /* \"Practice/Day-07/P1.sol\":417:444  return Numbers.factorial(n) */\n      swap1\n      pop\n        /* \"Practice/Day-07/P1.sol\":353:452  function factorial(uint n) public pure returns(uint) {... */\n      swap2\n      swap1\n      pop\n      jump\t// out\n        /* \"Practice/Day-07/P1.sol\":586:687  function Armstrong(uint n) public pure returns(bool) {... */\n    tag_30:\n        /* \"Practice/Day-07/P1.sol\":633:637  bool */\n      0x00\n        /* \"Practice/Day-07/P1.sol\":657:679  Numbers.isArmstrong(n) */\n      tag_46\n        /* \"Practice/Day-07/P1.sol\":677:678  n */\n      dup3\n        /* \"Practice/Day-07/P1.sol\":657:676  Numbers.isArmstrong */\n      tag_47\n        /* \"Practice/Day-07/P1.sol\":657:679  Numbers.isArmstrong(n) */\n      jump\t// in\n    tag_46:\n        /* \"Practice/Day-07/P1.sol\":650:679  return Numbers.isArmstrong(n) */\n      swap1\n      pop\n        /* \"Practice/Day-07/P1.sol\":586:687  function Armstrong(uint n) public pure returns(bool) {... */\n      swap2\n      swap1\n      pop\n      jump\t// out\n        /* \"Practice/Day-07/Numbers.sol\":448:1124  function fibonacci(uint a, uint b) internal pure returns(uint[] memory) {... */\n    tag_35:\n        /* \"Practice/Day-07/Numbers.sol\":505:518  uint[] memory */\n      0x60\n        /* \"Practice/Day-07/Numbers.sol\":544:545  b */\n      dup2\n        /* \"Practice/Day-07/Numbers.sol\":539:540  a */\n      dup4\n        /* \"Practice/Day-07/Numbers.sol\":539:545  a <= b */\n      gt\n      iszero\n        /* \"Practice/Day-07/Numbers.sol\":531:593  require(a <= b, \"Start Index must be less than the End index\") */\n      tag_49\n      jumpi\n      mload(0x40)\n      0x08c379a000000000000000000000000000000000000000000000000000000000\n      dup2\n      mstore\n      0x04\n      add\n      tag_50\n      swap1\n      tag_51\n      jump\t// in\n    tag_50:\n      mload(0x40)\n      dup1\n      swap2\n      sub\n      swap1\n      revert\n    tag_49:\n        /* \"Practice/Day-07/Numbers.sol\":606:617  uint length */\n      0x00\n        /* \"Practice/Day-07/Numbers.sol\":628:629  1 */\n      0x01\n        /* \"Practice/Day-07/Numbers.sol\":624:625  a */\n      dup5\n        /* \"Practice/Day-07/Numbers.sol\":620:621  b */\n      dup5\n        /* \"Practice/Day-07/Numbers.sol\":620:625  b - a */\n      tag_52\n      swap2\n      swap1\n      tag_53\n      jump\t// in\n    tag_52:\n        /* \"Practice/Day-07/Numbers.sol\":620:629  b - a + 1 */\n      tag_54\n      swap2\n      swap1\n      tag_55\n      jump\t// in\n    tag_54:\n        /* \"Practice/Day-07/Numbers.sol\":606:629  uint length = b - a + 1 */\n      swap1\n      pop\n        /* \"Practice/Day-07/Numbers.sol\":640:660  uint[] memory result */\n      0x00\n        /* \"Practice/Day-07/Numbers.sol\":674:680  length */\n      dup2\n        /* \"Practice/Day-07/Numbers.sol\":663:681  new uint[](length) */\n      0xffffffffffffffff\n      dup2\n      gt\n      iszero\n      tag_56\n      jumpi\n      tag_57\n      tag_58\n      jump\t// in\n    tag_57:\n    tag_56:\n      mload(0x40)\n      swap1\n      dup1\n      dup3\n      mstore\n      dup1\n      0x20\n      mul\n      0x20\n      add\n      dup3\n      add\n      0x40\n      mstore\n      dup1\n      iszero\n      tag_59\n      jumpi\n      dup2\n      0x20\n      add\n      0x20\n      dup3\n      mul\n      dup1\n      calldatasize\n      dup4\n      calldatacopy\n      dup1\n      dup3\n      add\n      swap2\n      pop\n      pop\n      swap1\n      pop\n    tag_59:\n      pop\n        /* \"Practice/Day-07/Numbers.sol\":640:681  uint[] memory result = new uint[](length) */\n      swap1\n      pop\n        /* \"Practice/Day-07/Numbers.sol\":702:703  0 */\n      0x00\n        /* \"Practice/Day-07/Numbers.sol\":697:698  b */\n      dup5\n        /* \"Practice/Day-07/Numbers.sol\":697:703  b == 0 */\n      sub\n        /* \"Practice/Day-07/Numbers.sol\":694:773  if(b == 0) {... */\n      tag_60\n      jumpi\n        /* \"Practice/Day-07/Numbers.sol\":732:733  0 */\n      0x00\n        /* \"Practice/Day-07/Numbers.sol\":720:726  result */\n      dup2\n        /* \"Practice/Day-07/Numbers.sol\":727:728  0 */\n      0x00\n        /* \"Practice/Day-07/Numbers.sol\":720:729  result[0] */\n      dup2\n      mload\n      dup2\n      lt\n      tag_61\n      jumpi\n      tag_62\n      tag_63\n      jump\t// in\n    tag_62:\n    tag_61:\n      0x20\n      mul\n      0x20\n      add\n      add\n        /* \"Practice/Day-07/Numbers.sol\":720:733  result[0] = 0 */\n      dup2\n      dup2\n      mstore\n      pop\n      pop\n        /* \"Practice/Day-07/Numbers.sol\":755:761  result */\n      dup1\n        /* \"Practice/Day-07/Numbers.sol\":748:761  return result */\n      swap3\n      pop\n      pop\n      pop\n      jump(tag_48)\n        /* \"Practice/Day-07/Numbers.sol\":694:773  if(b == 0) {... */\n    tag_60:\n        /* \"Practice/Day-07/Numbers.sol\":785:802  uint[] memory fib */\n      0x00\n        /* \"Practice/Day-07/Numbers.sol\":820:821  1 */\n      0x01\n        /* \"Practice/Day-07/Numbers.sol\":816:817  b */\n      dup6\n        /* \"Practice/Day-07/Numbers.sol\":816:821  b + 1 */\n      tag_64\n      swap2\n      swap1\n      tag_55\n      jump\t// in\n    tag_64:\n        /* \"Practice/Day-07/Numbers.sol\":805:822  new uint[](b + 1) */\n      0xffffffffffffffff\n      dup2\n      gt\n      iszero\n      tag_65\n      jumpi\n      tag_66\n      tag_58\n      jump\t// in\n    tag_66:\n    tag_65:\n      mload(0x40)\n      swap1\n      dup1\n      dup3\n      mstore\n      dup1\n      0x20\n      mul\n      0x20\n      add\n      dup3\n      add\n      0x40\n      mstore\n      dup1\n      iszero\n      tag_67\n      jumpi\n      dup2\n      0x20\n      add\n      0x20\n      dup3\n      mul\n      dup1\n      calldatasize\n      dup4\n      calldatacopy\n      dup1\n      dup3\n      add\n      swap2\n      pop\n      pop\n      swap1\n      pop\n    tag_67:\n      pop\n        /* \"Practice/Day-07/Numbers.sol\":785:822  uint[] memory fib = new uint[](b + 1) */\n      swap1\n      pop\n        /* \"Practice/Day-07/Numbers.sol\":842:843  0 */\n      0x00\n        /* \"Practice/Day-07/Numbers.sol\":833:836  fib */\n      dup2\n        /* \"Practice/Day-07/Numbers.sol\":837:838  0 */\n      0x00\n        /* \"Practice/Day-07/Numbers.sol\":833:839  fib[0] */\n      dup2\n      mload\n      dup2\n      lt\n      tag_68\n      jumpi\n      tag_69\n      tag_63\n      jump\t// in\n    tag_69:\n    tag_68:\n      0x20\n      mul\n      0x20\n      add\n      add\n        /* \"Practice/Day-07/Numbers.sol\":833:843  fib[0] = 0 */\n      dup2\n      dup2\n      mstore\n      pop\n      pop\n        /* \"Practice/Day-07/Numbers.sol\":861:862  0 */\n      0x00\n        /* \"Practice/Day-07/Numbers.sol\":857:858  b */\n      dup6\n        /* \"Practice/Day-07/Numbers.sol\":857:862  b > 0 */\n      gt\n        /* \"Practice/Day-07/Numbers.sol\":854:901  if(b > 0) {... */\n      iszero\n      tag_70\n      jumpi\n        /* \"Practice/Day-07/Numbers.sol\":888:889  1 */\n      0x01\n        /* \"Practice/Day-07/Numbers.sol\":879:882  fib */\n      dup2\n        /* \"Practice/Day-07/Numbers.sol\":883:884  1 */\n      0x01\n        /* \"Practice/Day-07/Numbers.sol\":879:885  fib[1] */\n      dup2\n      mload\n      dup2\n      lt\n      tag_71\n      jumpi\n      tag_72\n      tag_63\n      jump\t// in\n    tag_72:\n    tag_71:\n      0x20\n      mul\n      0x20\n      add\n      add\n        /* \"Practice/Day-07/Numbers.sol\":879:889  fib[1] = 1 */\n      dup2\n      dup2\n      mstore\n      pop\n      pop\n        /* \"Practice/Day-07/Numbers.sol\":854:901  if(b > 0) {... */\n    tag_70:\n        /* \"Practice/Day-07/Numbers.sol\":917:923  uint i */\n      0x00\n        /* \"Practice/Day-07/Numbers.sol\":926:927  2 */\n      0x02\n        /* \"Practice/Day-07/Numbers.sol\":917:927  uint i = 2 */\n      swap1\n      pop\n        /* \"Practice/Day-07/Numbers.sol\":913:1001  for(uint i = 2; i <= b; i++) {... */\n    tag_73:\n        /* \"Practice/Day-07/Numbers.sol\":934:935  b */\n      dup6\n        /* \"Practice/Day-07/Numbers.sol\":929:930  i */\n      dup2\n        /* \"Practice/Day-07/Numbers.sol\":929:935  i <= b */\n      gt\n        /* \"Practice/Day-07/Numbers.sol\":913:1001  for(uint i = 2; i <= b; i++) {... */\n      tag_74\n      jumpi\n        /* \"Practice/Day-07/Numbers.sol\":979:982  fib */\n      dup2\n        /* \"Practice/Day-07/Numbers.sol\":987:988  2 */\n      0x02\n        /* \"Practice/Day-07/Numbers.sol\":983:984  i */\n      dup3\n        /* \"Practice/Day-07/Numbers.sol\":983:988  i - 2 */\n      tag_76\n      swap2\n      swap1\n      tag_53\n      jump\t// in\n    tag_76:\n        /* \"Practice/Day-07/Numbers.sol\":979:989  fib[i - 2] */\n      dup2\n      mload\n      dup2\n      lt\n      tag_77\n      jumpi\n      tag_78\n      tag_63\n      jump\t// in\n    tag_78:\n    tag_77:\n      0x20\n      mul\n      0x20\n      add\n      add\n      mload\n        /* \"Practice/Day-07/Numbers.sol\":966:969  fib */\n      dup3\n        /* \"Practice/Day-07/Numbers.sol\":974:975  1 */\n      0x01\n        /* \"Practice/Day-07/Numbers.sol\":970:971  i */\n      dup4\n        /* \"Practice/Day-07/Numbers.sol\":970:975  i - 1 */\n      tag_79\n      swap2\n      swap1\n      tag_53\n      jump\t// in\n    tag_79:\n        /* \"Practice/Day-07/Numbers.sol\":966:976  fib[i - 1] */\n      dup2\n      mload\n      dup2\n      lt\n      tag_80\n      jumpi\n      tag_81\n      tag_63\n      jump\t// in\n    tag_81:\n    tag_80:\n      0x20\n      mul\n      0x20\n      add\n      add\n      mload\n        /* \"Practice/Day-07/Numbers.sol\":966:989  fib[i - 1] + fib[i - 2] */\n      tag_82\n      swap2\n      swap1\n      tag_55\n      jump\t// in\n    tag_82:\n        /* \"Practice/Day-07/Numbers.sol\":957:960  fib */\n      dup3\n        /* \"Practice/Day-07/Numbers.sol\":961:962  i */\n      dup3\n        /* \"Practice/Day-07/Numbers.sol\":957:963  fib[i] */\n      dup2\n      mload\n      dup2\n      lt\n      tag_83\n      jumpi\n      tag_84\n      tag_63\n      jump\t// in\n    tag_84:\n    tag_83:\n      0x20\n      mul\n      0x20\n      add\n      add\n        /* \"Practice/Day-07/Numbers.sol\":957:989  fib[i] = fib[i - 1] + fib[i - 2] */\n      dup2\n      dup2\n      mstore\n      pop\n      pop\n        /* \"Practice/Day-07/Numbers.sol\":937:940  i++ */\n      dup1\n      dup1\n      tag_85\n      swap1\n      tag_86\n      jump\t// in\n    tag_85:\n      swap2\n      pop\n      pop\n        /* \"Practice/Day-07/Numbers.sol\":913:1001  for(uint i = 2; i <= b; i++) {... */\n      jump(tag_73)\n    tag_74:\n      pop\n        /* \"Practice/Day-07/Numbers.sol\":1017:1023  uint i */\n      0x00\n        /* \"Practice/Day-07/Numbers.sol\":1026:1027  a */\n      dup7\n        /* \"Practice/Day-07/Numbers.sol\":1017:1027  uint i = a */\n      swap1\n      pop\n        /* \"Practice/Day-07/Numbers.sol\":1013:1091  for(uint i = a; i <= b; i++) {... */\n    tag_87:\n        /* \"Practice/Day-07/Numbers.sol\":1034:1035  b */\n      dup6\n        /* \"Practice/Day-07/Numbers.sol\":1029:1030  i */\n      dup2\n        /* \"Practice/Day-07/Numbers.sol\":1029:1035  i <= b */\n      gt\n        /* \"Practice/Day-07/Numbers.sol\":1013:1091  for(uint i = a; i <= b; i++) {... */\n      tag_88\n      jumpi\n        /* \"Practice/Day-07/Numbers.sol\":1073:1076  fib */\n      dup2\n        /* \"Practice/Day-07/Numbers.sol\":1077:1078  i */\n      dup2\n        /* \"Practice/Day-07/Numbers.sol\":1073:1079  fib[i] */\n      dup2\n      mload\n      dup2\n      lt\n      tag_90\n      jumpi\n      tag_91\n      tag_63\n      jump\t// in\n    tag_91:\n    tag_90:\n      0x20\n      mul\n      0x20\n      add\n      add\n      mload\n        /* \"Practice/Day-07/Numbers.sol\":1057:1063  result */\n      dup4\n        /* \"Practice/Day-07/Numbers.sol\":1068:1069  a */\n      dup9\n        /* \"Practice/Day-07/Numbers.sol\":1064:1065  i */\n      dup4\n        /* \"Practice/Day-07/Numbers.sol\":1064:1069  i - a */\n      tag_92\n      swap2\n      swap1\n      tag_53\n      jump\t// in\n    tag_92:\n        /* \"Practice/Day-07/Numbers.sol\":1057:1070  result[i - a] */\n      dup2\n      mload\n      dup2\n      lt\n      tag_93\n      jumpi\n      tag_94\n      tag_63\n      jump\t// in\n    tag_94:\n    tag_93:\n      0x20\n      mul\n      0x20\n      add\n      add\n        /* \"Practice/Day-07/Numbers.sol\":1057:1079  result[i - a] = fib[i] */\n      dup2\n      dup2\n      mstore\n      pop\n      pop\n        /* \"Practice/Day-07/Numbers.sol\":1037:1040  i++ */\n      dup1\n      dup1\n      tag_95\n      swap1\n      tag_86\n      jump\t// in\n    tag_95:\n      swap2\n      pop\n      pop\n        /* \"Practice/Day-07/Numbers.sol\":1013:1091  for(uint i = a; i <= b; i++) {... */\n      jump(tag_87)\n    tag_88:\n      pop\n        /* \"Practice/Day-07/Numbers.sol\":1110:1116  result */\n      dup2\n        /* \"Practice/Day-07/Numbers.sol\":1103:1116  return result */\n      swap4\n      pop\n      pop\n      pop\n      pop\n        /* \"Practice/Day-07/Numbers.sol\":448:1124  function fibonacci(uint a, uint b) internal pure returns(uint[] memory) {... */\n    tag_48:\n      swap3\n      swap2\n      pop\n      pop\n      jump\t// out\n        /* \"Practice/Day-07/Numbers.sol\":84:180  function max(uint a, uint b) internal pure returns(uint) {... */\n    tag_38:\n        /* \"Practice/Day-07/Numbers.sol\":135:139  uint */\n      0x00\n        /* \"Practice/Day-07/Numbers.sol\":163:164  b */\n      dup2\n        /* \"Practice/Day-07/Numbers.sol\":159:160  a */\n      dup4\n        /* \"Practice/Day-07/Numbers.sol\":159:164  a > b */\n      gt\n        /* \"Practice/Day-07/Numbers.sol\":159:172  a > b ? a : b */\n      tag_97\n      jumpi\n        /* \"Practice/Day-07/Numbers.sol\":171:172  b */\n      dup2\n        /* \"Practice/Day-07/Numbers.sol\":159:172  a > b ? a : b */\n      jump(tag_98)\n    tag_97:\n        /* \"Practice/Day-07/Numbers.sol\":167:168  a */\n      dup3\n        /* \"Practice/Day-07/Numbers.sol\":159:172  a > b ? a : b */\n    tag_98:\n        /* \"Practice/Day-07/Numbers.sol\":152:172  return a > b ? a : b */\n      swap1\n      pop\n        /* \"Practice/Day-07/Numbers.sol\":84:180  function max(uint a, uint b) internal pure returns(uint) {... */\n      swap3\n      swap2\n      pop\n      pop\n      jump\t// out\n        /* \"Practice/Day-07/Numbers.sol\":188:284  function min(uint a, uint b) internal pure returns(uint) {... */\n    tag_41:\n        /* \"Practice/Day-07/Numbers.sol\":239:243  uint */\n      0x00\n        /* \"Practice/Day-07/Numbers.sol\":267:268  b */\n      dup2\n        /* \"Practice/Day-07/Numbers.sol\":263:264  a */\n      dup4\n        /* \"Practice/Day-07/Numbers.sol\":263:268  a < b */\n      lt\n        /* \"Practice/Day-07/Numbers.sol\":263:276  a < b ? a : b */\n      tag_100\n      jumpi\n        /* \"Practice/Day-07/Numbers.sol\":275:276  b */\n      dup2\n        /* \"Practice/Day-07/Numbers.sol\":263:276  a < b ? a : b */\n      jump(tag_101)\n    tag_100:\n        /* \"Practice/Day-07/Numbers.sol\":271:272  a */\n      dup3\n        /* \"Practice/Day-07/Numbers.sol\":263:276  a < b ? a : b */\n    tag_101:\n        /* \"Practice/Day-07/Numbers.sol\":256:276  return a < b ? a : b */\n      swap1\n      pop\n        /* \"Practice/Day-07/Numbers.sol\":188:284  function min(uint a, uint b) internal pure returns(uint) {... */\n      swap3\n      swap2\n      pop\n      pop\n      jump\t// out\n        /* \"Practice/Day-07/Numbers.sol\":292:436  function factorial(uint n) internal pure returns(uint) {... */\n    tag_44:\n        /* \"Practice/Day-07/Numbers.sol\":341:345  uint */\n      0x00\n        /* \"Practice/Day-07/Numbers.sol\":366:367  0 */\n      dup1\n        /* \"Practice/Day-07/Numbers.sol\":361:362  n */\n      dup3\n        /* \"Practice/Day-07/Numbers.sol\":361:367  n == 0 */\n      eq\n        /* \"Practice/Day-07/Numbers.sol\":361:377  n == 0 || n == 1 */\n      dup1\n      tag_103\n      jumpi\n      pop\n        /* \"Practice/Day-07/Numbers.sol\":376:377  1 */\n      0x01\n        /* \"Practice/Day-07/Numbers.sol\":371:372  n */\n      dup3\n        /* \"Practice/Day-07/Numbers.sol\":371:377  n == 1 */\n      eq\n        /* \"Practice/Day-07/Numbers.sol\":361:377  n == 0 || n == 1 */\n    tag_103:\n        /* \"Practice/Day-07/Numbers.sol\":358:428  if(n == 0 || n == 1) return 1;... */\n      iszero\n      tag_104\n      jumpi\n        /* \"Practice/Day-07/Numbers.sol\":386:387  1 */\n      0x01\n        /* \"Practice/Day-07/Numbers.sol\":379:387  return 1 */\n      swap1\n      pop\n      jump(tag_102)\n        /* \"Practice/Day-07/Numbers.sol\":358:428  if(n == 0 || n == 1) return 1;... */\n    tag_104:\n        /* \"Practice/Day-07/Numbers.sol\":414:428  factorial(n-1) */\n      tag_106\n        /* \"Practice/Day-07/Numbers.sol\":426:427  1 */\n      0x01\n        /* \"Practice/Day-07/Numbers.sol\":424:425  n */\n      dup4\n        /* \"Practice/Day-07/Numbers.sol\":424:427  n-1 */\n      tag_107\n      swap2\n      swap1\n      tag_53\n      jump\t// in\n    tag_107:\n        /* \"Practice/Day-07/Numbers.sol\":414:423  factorial */\n      tag_44\n        /* \"Practice/Day-07/Numbers.sol\":414:428  factorial(n-1) */\n      jump\t// in\n    tag_106:\n        /* \"Practice/Day-07/Numbers.sol\":410:411  n */\n      dup3\n        /* \"Practice/Day-07/Numbers.sol\":410:428  n * factorial(n-1) */\n      tag_108\n      swap2\n      swap1\n      tag_109\n      jump\t// in\n    tag_108:\n        /* \"Practice/Day-07/Numbers.sol\":403:428  return n * factorial(n-1) */\n      swap1\n      pop\n        /* \"Practice/Day-07/Numbers.sol\":292:436  function factorial(uint n) internal pure returns(uint) {... */\n    tag_102:\n      swap2\n      swap1\n      pop\n      jump\t// out\n        /* \"Practice/Day-07/Numbers.sol\":1132:1529  function isArmstrong(uint n) internal pure returns(bool) {... */\n    tag_47:\n        /* \"Practice/Day-07/Numbers.sol\":1183:1187  bool */\n      0x00\n        /* \"Practice/Day-07/Numbers.sol\":1200:1209  uint temp */\n      dup1\n        /* \"Practice/Day-07/Numbers.sol\":1212:1213  n */\n      dup3\n        /* \"Practice/Day-07/Numbers.sol\":1200:1213  uint temp = n */\n      swap1\n      pop\n        /* \"Practice/Day-07/Numbers.sol\":1224:1235  uint digits */\n      0x00\n        /* \"Practice/Day-07/Numbers.sol\":1250:1258  uint sum */\n      dup1\n        /* \"Practice/Day-07/Numbers.sol\":1275:1351  while(temp > 0) {... */\n    tag_111:\n        /* \"Practice/Day-07/Numbers.sol\":1288:1289  0 */\n      0x00\n        /* \"Practice/Day-07/Numbers.sol\":1281:1285  temp */\n      dup4\n        /* \"Practice/Day-07/Numbers.sol\":1281:1289  temp > 0 */\n      gt\n        /* \"Practice/Day-07/Numbers.sol\":1275:1351  while(temp > 0) {... */\n      iszero\n      tag_112\n      jumpi\n        /* \"Practice/Day-07/Numbers.sol\":1306:1314  digits++ */\n      dup2\n      dup1\n      tag_113\n      swap1\n      tag_86\n      jump\t// in\n    tag_113:\n      swap3\n      pop\n      pop\n        /* \"Practice/Day-07/Numbers.sol\":1337:1339  10 */\n      0x0a\n        /* \"Practice/Day-07/Numbers.sol\":1329:1339  temp /= 10 */\n      dup4\n      tag_114\n      swap2\n      swap1\n      tag_115\n      jump\t// in\n    tag_114:\n      swap3\n      pop\n        /* \"Practice/Day-07/Numbers.sol\":1275:1351  while(temp > 0) {... */\n      jump(tag_111)\n    tag_112:\n        /* \"Practice/Day-07/Numbers.sol\":1363:1369  uint t */\n      0x00\n        /* \"Practice/Day-07/Numbers.sol\":1372:1373  n */\n      dup6\n        /* \"Practice/Day-07/Numbers.sol\":1363:1373  uint t = n */\n      swap1\n      pop\n        /* \"Practice/Day-07/Numbers.sol\":1384:1494  while(t > 0) {... */\n    tag_116:\n        /* \"Practice/Day-07/Numbers.sol\":1394:1395  0 */\n      0x00\n        /* \"Practice/Day-07/Numbers.sol\":1390:1391  t */\n      dup2\n        /* \"Practice/Day-07/Numbers.sol\":1390:1395  t > 0 */\n      gt\n        /* \"Practice/Day-07/Numbers.sol\":1384:1494  while(t > 0) {... */\n      iszero\n      tag_117\n      jumpi\n        /* \"Practice/Day-07/Numbers.sol\":1412:1418  uint d */\n      0x00\n        /* \"Practice/Day-07/Numbers.sol\":1425:1427  10 */\n      0x0a\n        /* \"Practice/Day-07/Numbers.sol\":1421:1422  t */\n      dup3\n        /* \"Practice/Day-07/Numbers.sol\":1421:1427  t % 10 */\n      tag_118\n      swap2\n      swap1\n      tag_119\n      jump\t// in\n    tag_118:\n        /* \"Practice/Day-07/Numbers.sol\":1412:1427  uint d = t % 10 */\n      swap1\n      pop\n        /* \"Practice/Day-07/Numbers.sol\":1454:1460  digits */\n      dup4\n        /* \"Practice/Day-07/Numbers.sol\":1449:1450  d */\n      dup2\n        /* \"Practice/Day-07/Numbers.sol\":1449:1460  d ** digits */\n      tag_120\n      swap2\n      swap1\n      tag_121\n      jump\t// in\n    tag_120:\n        /* \"Practice/Day-07/Numbers.sol\":1442:1460  sum += d ** digits */\n      dup4\n      tag_122\n      swap2\n      swap1\n      tag_55\n      jump\t// in\n    tag_122:\n      swap3\n      pop\n        /* \"Practice/Day-07/Numbers.sol\":1480:1482  10 */\n      0x0a\n        /* \"Practice/Day-07/Numbers.sol\":1475:1482  t /= 10 */\n      dup3\n      tag_123\n      swap2\n      swap1\n      tag_115\n      jump\t// in\n    tag_123:\n      swap2\n      pop\n        /* \"Practice/Day-07/Numbers.sol\":1397:1494  {... */\n      pop\n        /* \"Practice/Day-07/Numbers.sol\":1384:1494  while(t > 0) {... */\n      jump(tag_116)\n    tag_117:\n        /* \"Practice/Day-07/Numbers.sol\":1520:1521  n */\n      dup6\n        /* \"Practice/Day-07/Numbers.sol\":1513:1516  sum */\n      dup3\n        /* \"Practice/Day-07/Numbers.sol\":1513:1521  sum == n */\n      eq\n        /* \"Practice/Day-07/Numbers.sol\":1506:1521  return sum == n */\n      swap5\n      pop\n      pop\n      pop\n      pop\n      pop\n        /* \"Practice/Day-07/Numbers.sol\":1132:1529  function isArmstrong(uint n) internal pure returns(bool) {... */\n      swap2\n      swap1\n      pop\n      jump\t// out\n        /* \"#utility.yul\":88:205   */\n    tag_125:\n        /* \"#utility.yul\":197:198   */\n      0x00\n        /* \"#utility.yul\":194:195   */\n      dup1\n        /* \"#utility.yul\":187:199   */\n      revert\n        /* \"#utility.yul\":334:411   */\n    tag_127:\n        /* \"#utility.yul\":371:378   */\n      0x00\n        /* \"#utility.yul\":400:405   */\n      dup2\n        /* \"#utility.yul\":389:405   */\n      swap1\n      pop\n        /* \"#utility.yul\":334:411   */\n      swap2\n      swap1\n      pop\n      jump\t// out\n        /* \"#utility.yul\":417:539   */\n    tag_128:\n        /* \"#utility.yul\":490:514   */\n      tag_154\n        /* \"#utility.yul\":508:513   */\n      dup2\n        /* \"#utility.yul\":490:514   */\n      tag_127\n      jump\t// in\n    tag_154:\n        /* \"#utility.yul\":483:488   */\n      dup2\n        /* \"#utility.yul\":480:515   */\n      eq\n        /* \"#utility.yul\":470:533   */\n      tag_155\n      jumpi\n        /* \"#utility.yul\":529:530   */\n      0x00\n        /* \"#utility.yul\":526:527   */\n      dup1\n        /* \"#utility.yul\":519:531   */\n      revert\n        /* \"#utility.yul\":470:533   */\n    tag_155:\n        /* \"#utility.yul\":417:539   */\n      pop\n      jump\t// out\n        /* \"#utility.yul\":545:684   */\n    tag_129:\n        /* \"#utility.yul\":591:596   */\n      0x00\n        /* \"#utility.yul\":629:635   */\n      dup2\n        /* \"#utility.yul\":616:636   */\n      calldataload\n        /* \"#utility.yul\":607:636   */\n      swap1\n      pop\n        /* \"#utility.yul\":645:678   */\n      tag_157\n        /* \"#utility.yul\":672:677   */\n      dup2\n        /* \"#utility.yul\":645:678   */\n      tag_128\n      jump\t// in\n    tag_157:\n        /* \"#utility.yul\":545:684   */\n      swap3\n      swap2\n      pop\n      pop\n      jump\t// out\n        /* \"#utility.yul\":690:1164   */\n    tag_10:\n        /* \"#utility.yul\":758:764   */\n      0x00\n        /* \"#utility.yul\":766:772   */\n      dup1\n        /* \"#utility.yul\":815:817   */\n      0x40\n        /* \"#utility.yul\":803:812   */\n      dup4\n        /* \"#utility.yul\":794:801   */\n      dup6\n        /* \"#utility.yul\":790:813   */\n      sub\n        /* \"#utility.yul\":786:818   */\n      slt\n        /* \"#utility.yul\":783:902   */\n      iszero\n      tag_159\n      jumpi\n        /* \"#utility.yul\":821:900   */\n      tag_160\n      tag_125\n      jump\t// in\n    tag_160:\n        /* \"#utility.yul\":783:902   */\n    tag_159:\n        /* \"#utility.yul\":941:942   */\n      0x00\n        /* \"#utility.yul\":966:1019   */\n      tag_161\n        /* \"#utility.yul\":1011:1018   */\n      dup6\n        /* \"#utility.yul\":1002:1008   */\n      dup3\n        /* \"#utility.yul\":991:1000   */\n      dup7\n        /* \"#utility.yul\":987:1009   */\n      add\n        /* \"#utility.yul\":966:1019   */\n      tag_129\n      jump\t// in\n    tag_161:\n        /* \"#utility.yul\":956:1019   */\n      swap3\n      pop\n        /* \"#utility.yul\":912:1029   */\n      pop\n        /* \"#utility.yul\":1068:1070   */\n      0x20\n        /* \"#utility.yul\":1094:1147   */\n      tag_162\n        /* \"#utility.yul\":1139:1146   */\n      dup6\n        /* \"#utility.yul\":1130:1136   */\n      dup3\n        /* \"#utility.yul\":1119:1128   */\n      dup7\n        /* \"#utility.yul\":1115:1137   */\n      add\n        /* \"#utility.yul\":1094:1147   */\n      tag_129\n      jump\t// in\n    tag_162:\n        /* \"#utility.yul\":1084:1147   */\n      swap2\n      pop\n        /* \"#utility.yul\":1039:1157   */\n      pop\n        /* \"#utility.yul\":690:1164   */\n      swap3\n      pop\n      swap3\n      swap1\n      pop\n      jump\t// out\n        /* \"#utility.yul\":1170:1284   */\n    tag_130:\n        /* \"#utility.yul\":1237:1243   */\n      0x00\n        /* \"#utility.yul\":1271:1276   */\n      dup2\n        /* \"#utility.yul\":1265:1277   */\n      mload\n        /* \"#utility.yul\":1255:1277   */\n      swap1\n      pop\n        /* \"#utility.yul\":1170:1284   */\n      swap2\n      swap1\n      pop\n      jump\t// out\n        /* \"#utility.yul\":1290:1474   */\n    tag_131:\n        /* \"#utility.yul\":1389:1400   */\n      0x00\n        /* \"#utility.yul\":1423:1429   */\n      dup3\n        /* \"#utility.yul\":1418:1421   */\n      dup3\n        /* \"#utility.yul\":1411:1430   */\n      mstore\n        /* \"#utility.yul\":1463:1467   */\n      0x20\n        /* \"#utility.yul\":1458:1461   */\n      dup3\n        /* \"#utility.yul\":1454:1468   */\n      add\n        /* \"#utility.yul\":1439:1468   */\n      swap1\n      pop\n        /* \"#utility.yul\":1290:1474   */\n      swap3\n      swap2\n      pop\n      pop\n      jump\t// out\n        /* \"#utility.yul\":1480:1612   */\n    tag_132:\n        /* \"#utility.yul\":1547:1551   */\n      0x00\n        /* \"#utility.yul\":1570:1573   */\n      dup2\n        /* \"#utility.yul\":1562:1573   */\n      swap1\n      pop\n        /* \"#utility.yul\":1600:1604   */\n      0x20\n        /* \"#utility.yul\":1595:1598   */\n      dup3\n        /* \"#utility.yul\":1591:1605   */\n      add\n        /* \"#utility.yul\":1583:1605   */\n      swap1\n      pop\n        /* \"#utility.yul\":1480:1612   */\n      swap2\n      swap1\n      pop\n      jump\t// out\n        /* \"#utility.yul\":1618:1726   */\n    tag_133:\n        /* \"#utility.yul\":1695:1719   */\n      tag_167\n        /* \"#utility.yul\":1713:1718   */\n      dup2\n        /* \"#utility.yul\":1695:1719   */\n      tag_127\n      jump\t// in\n    tag_167:\n        /* \"#utility.yul\":1690:1693   */\n      dup3\n        /* \"#utility.yul\":1683:1720   */\n      mstore\n        /* \"#utility.yul\":1618:1726   */\n      pop\n      pop\n      jump\t// out\n        /* \"#utility.yul\":1732:1911   */\n    tag_134:\n        /* \"#utility.yul\":1801:1811   */\n      0x00\n        /* \"#utility.yul\":1822:1868   */\n      tag_169\n        /* \"#utility.yul\":1864:1867   */\n      dup4\n        /* \"#utility.yul\":1856:1862   */\n      dup4\n        /* \"#utility.yul\":1822:1868   */\n      tag_133\n      jump\t// in\n    tag_169:\n        /* \"#utility.yul\":1900:1904   */\n      0x20\n        /* \"#utility.yul\":1895:1898   */\n      dup4\n        /* \"#utility.yul\":1891:1905   */\n      add\n        /* \"#utility.yul\":1877:1905   */\n      swap1\n      pop\n        /* \"#utility.yul\":1732:1911   */\n      swap3\n      swap2\n      pop\n      pop\n      jump\t// out\n        /* \"#utility.yul\":1917:2030   */\n    tag_135:\n        /* \"#utility.yul\":1987:1991   */\n      0x00\n        /* \"#utility.yul\":2019:2023   */\n      0x20\n        /* \"#utility.yul\":2014:2017   */\n      dup3\n        /* \"#utility.yul\":2010:2024   */\n      add\n        /* \"#utility.yul\":2002:2024   */\n      swap1\n      pop\n        /* \"#utility.yul\":1917:2030   */\n      swap2\n      swap1\n      pop\n      jump\t// out\n        /* \"#utility.yul\":2066:2798   */\n    tag_136:\n        /* \"#utility.yul\":2185:2188   */\n      0x00\n        /* \"#utility.yul\":2214:2268   */\n      tag_172\n        /* \"#utility.yul\":2262:2267   */\n      dup3\n        /* \"#utility.yul\":2214:2268   */\n      tag_130\n      jump\t// in\n    tag_172:\n        /* \"#utility.yul\":2284:2370   */\n      tag_173\n        /* \"#utility.yul\":2363:2369   */\n      dup2\n        /* \"#utility.yul\":2358:2361   */\n      dup6\n        /* \"#utility.yul\":2284:2370   */\n      tag_131\n      jump\t// in\n    tag_173:\n        /* \"#utility.yul\":2277:2370   */\n      swap4\n      pop\n        /* \"#utility.yul\":2394:2450   */\n      tag_174\n        /* \"#utility.yul\":2444:2449   */\n      dup4\n        /* \"#utility.yul\":2394:2450   */\n      tag_132\n      jump\t// in\n    tag_174:\n        /* \"#utility.yul\":2473:2480   */\n      dup1\n        /* \"#utility.yul\":2504:2505   */\n      0x00\n        /* \"#utility.yul\":2489:2773   */\n    tag_175:\n        /* \"#utility.yul\":2514:2520   */\n      dup4\n        /* \"#utility.yul\":2511:2512   */\n      dup2\n        /* \"#utility.yul\":2508:2521   */\n      lt\n        /* \"#utility.yul\":2489:2773   */\n      iszero\n      tag_177\n      jumpi\n        /* \"#utility.yul\":2590:2596   */\n      dup2\n        /* \"#utility.yul\":2584:2597   */\n      mload\n        /* \"#utility.yul\":2617:2680   */\n      tag_178\n        /* \"#utility.yul\":2676:2679   */\n      dup9\n        /* \"#utility.yul\":2661:2674   */\n      dup3\n        /* \"#utility.yul\":2617:2680   */\n      tag_134\n      jump\t// in\n    tag_178:\n        /* \"#utility.yul\":2610:2680   */\n      swap8\n      pop\n        /* \"#utility.yul\":2703:2763   */\n      tag_179\n        /* \"#utility.yul\":2756:2762   */\n      dup4\n        /* \"#utility.yul\":2703:2763   */\n      tag_135\n      jump\t// in\n    tag_179:\n        /* \"#utility.yul\":2693:2763   */\n      swap3\n      pop\n        /* \"#utility.yul\":2549:2773   */\n      pop\n        /* \"#utility.yul\":2536:2537   */\n      0x01\n        /* \"#utility.yul\":2533:2534   */\n      dup2\n        /* \"#utility.yul\":2529:2538   */\n      add\n        /* \"#utility.yul\":2524:2538   */\n      swap1\n      pop\n        /* \"#utility.yul\":2489:2773   */\n      jump(tag_175)\n    tag_177:\n        /* \"#utility.yul\":2493:2507   */\n      pop\n        /* \"#utility.yul\":2789:2792   */\n      dup6\n        /* \"#utility.yul\":2782:2792   */\n      swap4\n      pop\n        /* \"#utility.yul\":2190:2798   */\n      pop\n      pop\n      pop\n        /* \"#utility.yul\":2066:2798   */\n      swap3\n      swap2\n      pop\n      pop\n      jump\t// out\n        /* \"#utility.yul\":2804:3177   */\n    tag_13:\n        /* \"#utility.yul\":2947:2951   */\n      0x00\n        /* \"#utility.yul\":2985:2987   */\n      0x20\n        /* \"#utility.yul\":2974:2983   */\n      dup3\n        /* \"#utility.yul\":2970:2988   */\n      add\n        /* \"#utility.yul\":2962:2988   */\n      swap1\n      pop\n        /* \"#utility.yul\":3034:3043   */\n      dup2\n        /* \"#utility.yul\":3028:3032   */\n      dup2\n        /* \"#utility.yul\":3024:3044   */\n      sub\n        /* \"#utility.yul\":3020:3021   */\n      0x00\n        /* \"#utility.yul\":3009:3018   */\n      dup4\n        /* \"#utility.yul\":3005:3022   */\n      add\n        /* \"#utility.yul\":2998:3045   */\n      mstore\n        /* \"#utility.yul\":3062:3170   */\n      tag_181\n        /* \"#utility.yul\":3165:3169   */\n      dup2\n        /* \"#utility.yul\":3156:3162   */\n      dup5\n        /* \"#utility.yul\":3062:3170   */\n      tag_136\n      jump\t// in\n    tag_181:\n        /* \"#utility.yul\":3054:3170   */\n      swap1\n      pop\n        /* \"#utility.yul\":2804:3177   */\n      swap3\n      swap2\n      pop\n      pop\n      jump\t// out\n        /* \"#utility.yul\":3183:3301   */\n    tag_137:\n        /* \"#utility.yul\":3270:3294   */\n      tag_183\n        /* \"#utility.yul\":3288:3293   */\n      dup2\n        /* \"#utility.yul\":3270:3294   */\n      tag_127\n      jump\t// in\n    tag_183:\n        /* \"#utility.yul\":3265:3268   */\n      dup3\n        /* \"#utility.yul\":3258:3295   */\n      mstore\n        /* \"#utility.yul\":3183:3301   */\n      pop\n      pop\n      jump\t// out\n        /* \"#utility.yul\":3307:3529   */\n    tag_18:\n        /* \"#utility.yul\":3400:3404   */\n      0x00\n        /* \"#utility.yul\":3438:3440   */\n      0x20\n        /* \"#utility.yul\":3427:3436   */\n      dup3\n        /* \"#utility.yul\":3423:3441   */\n      add\n        /* \"#utility.yul\":3415:3441   */\n      swap1\n      pop\n        /* \"#utility.yul\":3451:3522   */\n      tag_185\n        /* \"#utility.yul\":3519:3520   */\n      0x00\n        /* \"#utility.yul\":3508:3517   */\n      dup4\n        /* \"#utility.yul\":3504:3521   */\n      add\n        /* \"#utility.yul\":3495:3501   */\n      dup5\n        /* \"#utility.yul\":3451:3522   */\n      tag_137\n      jump\t// in\n    tag_185:\n        /* \"#utility.yul\":3307:3529   */\n      swap3\n      swap2\n      pop\n      pop\n      jump\t// out\n        /* \"#utility.yul\":3535:3864   */\n    tag_25:\n        /* \"#utility.yul\":3594:3600   */\n      0x00\n        /* \"#utility.yul\":3643:3645   */\n      0x20\n        /* \"#utility.yul\":3631:3640   */\n      dup3\n        /* \"#utility.yul\":3622:3629   */\n      dup5\n        /* \"#utility.yul\":3618:3641   */\n      sub\n        /* \"#utility.yul\":3614:3646   */\n      slt\n        /* \"#utility.yul\":3611:3730   */\n      iszero\n      tag_187\n      jumpi\n        /* \"#utility.yul\":3649:3728   */\n      tag_188\n      tag_125\n      jump\t// in\n    tag_188:\n        /* \"#utility.yul\":3611:3730   */\n    tag_187:\n        /* \"#utility.yul\":3769:3770   */\n      0x00\n        /* \"#utility.yul\":3794:3847   */\n      tag_189\n        /* \"#utility.yul\":3839:3846   */\n      dup5\n        /* \"#utility.yul\":3830:3836   */\n      dup3\n        /* \"#utility.yul\":3819:3828   */\n      dup6\n        /* \"#utility.yul\":3815:3837   */\n      add\n        /* \"#utility.yul\":3794:3847   */\n      tag_129\n      jump\t// in\n    tag_189:\n        /* \"#utility.yul\":3784:3847   */\n      swap2\n      pop\n        /* \"#utility.yul\":3740:3857   */\n      pop\n        /* \"#utility.yul\":3535:3864   */\n      swap3\n      swap2\n      pop\n      pop\n      jump\t// out\n        /* \"#utility.yul\":3870:3960   */\n    tag_138:\n        /* \"#utility.yul\":3904:3911   */\n      0x00\n        /* \"#utility.yul\":3947:3952   */\n      dup2\n        /* \"#utility.yul\":3940:3953   */\n      iszero\n        /* \"#utility.yul\":3933:3954   */\n      iszero\n        /* \"#utility.yul\":3922:3954   */\n      swap1\n      pop\n        /* \"#utility.yul\":3870:3960   */\n      swap2\n      swap1\n      pop\n      jump\t// out\n        /* \"#utility.yul\":3966:4075   */\n    tag_139:\n        /* \"#utility.yul\":4047:4068   */\n      tag_192\n        /* \"#utility.yul\":4062:4067   */\n      dup2\n        /* \"#utility.yul\":4047:4068   */\n      tag_138\n      jump\t// in\n    tag_192:\n        /* \"#utility.yul\":4042:4045   */\n      dup3\n        /* \"#utility.yul\":4035:4069   */\n      mstore\n        /* \"#utility.yul\":3966:4075   */\n      pop\n      pop\n      jump\t// out\n        /* \"#utility.yul\":4081:4291   */\n    tag_32:\n        /* \"#utility.yul\":4168:4172   */\n      0x00\n        /* \"#utility.yul\":4206:4208   */\n      0x20\n        /* \"#utility.yul\":4195:4204   */\n      dup3\n        /* \"#utility.yul\":4191:4209   */\n      add\n        /* \"#utility.yul\":4183:4209   */\n      swap1\n      pop\n        /* \"#utility.yul\":4219:4284   */\n      tag_194\n        /* \"#utility.yul\":4281:4282   */\n      0x00\n        /* \"#utility.yul\":4270:4279   */\n      dup4\n        /* \"#utility.yul\":4266:4283   */\n      add\n        /* \"#utility.yul\":4257:4263   */\n      dup5\n        /* \"#utility.yul\":4219:4284   */\n      tag_139\n      jump\t// in\n    tag_194:\n        /* \"#utility.yul\":4081:4291   */\n      swap3\n      swap2\n      pop\n      pop\n      jump\t// out\n        /* \"#utility.yul\":4297:4466   */\n    tag_140:\n        /* \"#utility.yul\":4381:4392   */\n      0x00\n        /* \"#utility.yul\":4415:4421   */\n      dup3\n        /* \"#utility.yul\":4410:4413   */\n      dup3\n        /* \"#utility.yul\":4403:4422   */\n      mstore\n        /* \"#utility.yul\":4455:4459   */\n      0x20\n        /* \"#utility.yul\":4450:4453   */\n      dup3\n        /* \"#utility.yul\":4446:4460   */\n      add\n        /* \"#utility.yul\":4431:4460   */\n      swap1\n      pop\n        /* \"#utility.yul\":4297:4466   */\n      swap3\n      swap2\n      pop\n      pop\n      jump\t// out\n        /* \"#utility.yul\":4472:4702   */\n    tag_141:\n        /* \"#utility.yul\":4612:4646   */\n      0x537461727420496e646578206d757374206265206c657373207468616e207468\n        /* \"#utility.yul\":4608:4609   */\n      0x00\n        /* \"#utility.yul\":4600:4606   */\n      dup3\n        /* \"#utility.yul\":4596:4610   */\n      add\n        /* \"#utility.yul\":4589:4647   */\n      mstore\n        /* \"#utility.yul\":4681:4694   */\n      0x6520456e6420696e646578000000000000000000000000000000000000000000\n        /* \"#utility.yul\":4676:4678   */\n      0x20\n        /* \"#utility.yul\":4668:4674   */\n      dup3\n        /* \"#utility.yul\":4664:4679   */\n      add\n        /* \"#utility.yul\":4657:4695   */\n      mstore\n        /* \"#utility.yul\":4472:4702   */\n      pop\n      jump\t// out\n        /* \"#utility.yul\":4708:5074   */\n    tag_142:\n        /* \"#utility.yul\":4850:4853   */\n      0x00\n        /* \"#utility.yul\":4871:4938   */\n      tag_198\n        /* \"#utility.yul\":4935:4937   */\n      0x2b\n        /* \"#utility.yul\":4930:4933   */\n      dup4\n        /* \"#utility.yul\":4871:4938   */\n      tag_140\n      jump\t// in\n    tag_198:\n        /* \"#utility.yul\":4864:4938   */\n      swap2\n      pop\n        /* \"#utility.yul\":4947:5040   */\n      tag_199\n        /* \"#utility.yul\":5036:5039   */\n      dup3\n        /* \"#utility.yul\":4947:5040   */\n      tag_141\n      jump\t// in\n    tag_199:\n        /* \"#utility.yul\":5065:5067   */\n      0x40\n        /* \"#utility.yul\":5060:5063   */\n      dup3\n        /* \"#utility.yul\":5056:5068   */\n      add\n        /* \"#utility.yul\":5049:5068   */\n      swap1\n      pop\n        /* \"#utility.yul\":4708:5074   */\n      swap2\n      swap1\n      pop\n      jump\t// out\n        /* \"#utility.yul\":5080:5499   */\n    tag_51:\n        /* \"#utility.yul\":5246:5250   */\n      0x00\n        /* \"#utility.yul\":5284:5286   */\n      0x20\n        /* \"#utility.yul\":5273:5282   */\n      dup3\n        /* \"#utility.yul\":5269:5287   */\n      add\n        /* \"#utility.yul\":5261:5287   */\n      swap1\n      pop\n        /* \"#utility.yul\":5333:5342   */\n      dup2\n        /* \"#utility.yul\":5327:5331   */\n      dup2\n        /* \"#utility.yul\":5323:5343   */\n      sub\n        /* \"#utility.yul\":5319:5320   */\n      0x00\n        /* \"#utility.yul\":5308:5317   */\n      dup4\n        /* \"#utility.yul\":5304:5321   */\n      add\n        /* \"#utility.yul\":5297:5344   */\n      mstore\n        /* \"#utility.yul\":5361:5492   */\n      tag_201\n        /* \"#utility.yul\":5487:5491   */\n      dup2\n        /* \"#utility.yul\":5361:5492   */\n      tag_142\n      jump\t// in\n    tag_201:\n        /* \"#utility.yul\":5353:5492   */\n      swap1\n      pop\n        /* \"#utility.yul\":5080:5499   */\n      swap2\n      swap1\n      pop\n      jump\t// out\n        /* \"#utility.yul\":5505:5685   */\n    tag_143:\n        /* \"#utility.yul\":5553:5630   */\n      0x4e487b7100000000000000000000000000000000000000000000000000000000\n        /* \"#utility.yul\":5550:5551   */\n      0x00\n        /* \"#utility.yul\":5543:5631   */\n      mstore\n        /* \"#utility.yul\":5650:5654   */\n      0x11\n        /* \"#utility.yul\":5647:5648   */\n      0x04\n        /* \"#utility.yul\":5640:5655   */\n      mstore\n        /* \"#utility.yul\":5674:5678   */\n      0x24\n        /* \"#utility.yul\":5671:5672   */\n      0x00\n        /* \"#utility.yul\":5664:5679   */\n      revert\n        /* \"#utility.yul\":5691:5885   */\n    tag_53:\n        /* \"#utility.yul\":5731:5735   */\n      0x00\n        /* \"#utility.yul\":5751:5771   */\n      tag_204\n        /* \"#utility.yul\":5769:5770   */\n      dup3\n        /* \"#utility.yul\":5751:5771   */\n      tag_127\n      jump\t// in\n    tag_204:\n        /* \"#utility.yul\":5746:5771   */\n      swap2\n      pop\n        /* \"#utility.yul\":5785:5805   */\n      tag_205\n        /* \"#utility.yul\":5803:5804   */\n      dup4\n        /* \"#utility.yul\":5785:5805   */\n      tag_127\n      jump\t// in\n    tag_205:\n        /* \"#utility.yul\":5780:5805   */\n      swap3\n      pop\n        /* \"#utility.yul\":5829:5830   */\n      dup3\n        /* \"#utility.yul\":5826:5827   */\n      dup3\n        /* \"#utility.yul\":5822:5831   */\n      sub\n        /* \"#utility.yul\":5814:5831   */\n      swap1\n      pop\n        /* \"#utility.yul\":5853:5854   */\n      dup2\n        /* \"#utility.yul\":5847:5851   */\n      dup2\n        /* \"#utility.yul\":5844:5855   */\n      gt\n        /* \"#utility.yul\":5841:5878   */\n      iszero\n      tag_206\n      jumpi\n        /* \"#utility.yul\":5858:5876   */\n      tag_207\n      tag_143\n      jump\t// in\n    tag_207:\n        /* \"#utility.yul\":5841:5878   */\n    tag_206:\n        /* \"#utility.yul\":5691:5885   */\n      swap3\n      swap2\n      pop\n      pop\n      jump\t// out\n        /* \"#utility.yul\":5891:6082   */\n    tag_55:\n        /* \"#utility.yul\":5931:5934   */\n      0x00\n        /* \"#utility.yul\":5950:5970   */\n      tag_209\n        /* \"#utility.yul\":5968:5969   */\n      dup3\n        /* \"#utility.yul\":5950:5970   */\n      tag_127\n      jump\t// in\n    tag_209:\n        /* \"#utility.yul\":5945:5970   */\n      swap2\n      pop\n        /* \"#utility.yul\":5984:6004   */\n      tag_210\n        /* \"#utility.yul\":6002:6003   */\n      dup4\n        /* \"#utility.yul\":5984:6004   */\n      tag_127\n      jump\t// in\n    tag_210:\n        /* \"#utility.yul\":5979:6004   */\n      swap3\n      pop\n        /* \"#utility.yul\":6027:6028   */\n      dup3\n        /* \"#utility.yul\":6024:6025   */\n      dup3\n        /* \"#utility.yul\":6020:6029   */\n      add\n        /* \"#utility.yul\":6013:6029   */\n      swap1\n      pop\n        /* \"#utility.yul\":6048:6051   */\n      dup1\n        /* \"#utility.yul\":6045:6046   */\n      dup3\n        /* \"#utility.yul\":6042:6052   */\n      gt\n        /* \"#utility.yul\":6039:6075   */\n      iszero\n      tag_211\n      jumpi\n        /* \"#utility.yul\":6055:6073   */\n      tag_212\n      tag_143\n      jump\t// in\n    tag_212:\n        /* \"#utility.yul\":6039:6075   */\n    tag_211:\n        /* \"#utility.yul\":5891:6082   */\n      swap3\n      swap2\n      pop\n      pop\n      jump\t// out\n        /* \"#utility.yul\":6088:6268   */\n    tag_58:\n        /* \"#utility.yul\":6136:6213   */\n      0x4e487b7100000000000000000000000000000000000000000000000000000000\n        /* \"#utility.yul\":6133:6134   */\n      0x00\n        /* \"#utility.yul\":6126:6214   */\n      mstore\n        /* \"#utility.yul\":6233:6237   */\n      0x41\n        /* \"#utility.yul\":6230:6231   */\n      0x04\n        /* \"#utility.yul\":6223:6238   */\n      mstore\n        /* \"#utility.yul\":6257:6261   */\n      0x24\n        /* \"#utility.yul\":6254:6255   */\n      0x00\n        /* \"#utility.yul\":6247:6262   */\n      revert\n        /* \"#utility.yul\":6274:6454   */\n    tag_63:\n        /* \"#utility.yul\":6322:6399   */\n      0x4e487b7100000000000000000000000000000000000000000000000000000000\n        /* \"#utility.yul\":6319:6320   */\n      0x00\n        /* \"#utility.yul\":6312:6400   */\n      mstore\n        /* \"#utility.yul\":6419:6423   */\n      0x32\n        /* \"#utility.yul\":6416:6417   */\n      0x04\n        /* \"#utility.yul\":6409:6424   */\n      mstore\n        /* \"#utility.yul\":6443:6447   */\n      0x24\n        /* \"#utility.yul\":6440:6441   */\n      0x00\n        /* \"#utility.yul\":6433:6448   */\n      revert\n        /* \"#utility.yul\":6460:6693   */\n    tag_86:\n        /* \"#utility.yul\":6499:6502   */\n      0x00\n        /* \"#utility.yul\":6522:6546   */\n      tag_216\n        /* \"#utility.yul\":6540:6545   */\n      dup3\n        /* \"#utility.yul\":6522:6546   */\n      tag_127\n      jump\t// in\n    tag_216:\n        /* \"#utility.yul\":6513:6546   */\n      swap2\n      pop\n        /* \"#utility.yul\":6568:6634   */\n      0xffffffffffffffffffffffffffffffffffffffffffffffffffffffffffffffff\n        /* \"#utility.yul\":6561:6566   */\n      dup3\n        /* \"#utility.yul\":6558:6635   */\n      sub\n        /* \"#utility.yul\":6555:6658   */\n      tag_217\n      jumpi\n        /* \"#utility.yul\":6638:6656   */\n      tag_218\n      tag_143\n      jump\t// in\n    tag_218:\n        /* \"#utility.yul\":6555:6658   */\n    tag_217:\n        /* \"#utility.yul\":6685:6686   */\n      0x01\n        /* \"#utility.yul\":6678:6683   */\n      dup3\n        /* \"#utility.yul\":6674:6687   */\n      add\n        /* \"#utility.yul\":6667:6687   */\n      swap1\n      pop\n        /* \"#utility.yul\":6460:6693   */\n      swap2\n      swap1\n      pop\n      jump\t// out\n        /* \"#utility.yul\":6699:7109   */\n    tag_109:\n        /* \"#utility.yul\":6739:6746   */\n      0x00\n        /* \"#utility.yul\":6762:6782   */\n      tag_220\n        /* \"#utility.yul\":6780:6781   */\n      dup3\n        /* \"#utility.yul\":6762:6782   */\n      tag_127\n      jump\t// in\n    tag_220:\n        /* \"#utility.yul\":6757:6782   */\n      swap2\n      pop\n        /* \"#utility.yul\":6796:6816   */\n      tag_221\n        /* \"#utility.yul\":6814:6815   */\n      dup4\n        /* \"#utility.yul\":6796:6816   */\n      tag_127\n      jump\t// in\n    tag_221:\n        /* \"#utility.yul\":6791:6816   */\n      swap3\n      pop\n        /* \"#utility.yul\":6851:6852   */\n      dup3\n        /* \"#utility.yul\":6848:6849   */\n      dup3\n        /* \"#utility.yul\":6844:6853   */\n      mul\n        /* \"#utility.yul\":6873:6903   */\n      tag_222\n        /* \"#utility.yul\":6891:6902   */\n      dup2\n        /* \"#utility.yul\":6873:6903   */\n      tag_127\n      jump\t// in\n    tag_222:\n        /* \"#utility.yul\":6862:6903   */\n      swap2\n      pop\n        /* \"#utility.yul\":7052:7053   */\n      dup3\n        /* \"#utility.yul\":7043:7050   */\n      dup3\n        /* \"#utility.yul\":7039:7054   */\n      div\n        /* \"#utility.yul\":7036:7037   */\n      dup5\n        /* \"#utility.yul\":7033:7055   */\n      eq\n        /* \"#utility.yul\":7013:7014   */\n      dup4\n        /* \"#utility.yul\":7006:7015   */\n      iszero\n        /* \"#utility.yul\":6986:7069   */\n      or\n        /* \"#utility.yul\":6963:7102   */\n      tag_223\n      jumpi\n        /* \"#utility.yul\":7082:7100   */\n      tag_224\n      tag_143\n      jump\t// in\n    tag_224:\n        /* \"#utility.yul\":6963:7102   */\n    tag_223:\n        /* \"#utility.yul\":6747:7109   */\n      pop\n        /* \"#utility.yul\":6699:7109   */\n      swap3\n      swap2\n      pop\n      pop\n      jump\t// out\n        /* \"#utility.yul\":7115:7295   */\n    tag_144:\n        /* \"#utility.yul\":7163:7240   */\n      0x4e487b7100000000000000000000000000000000000000000000000000000000\n        /* \"#utility.yul\":7160:7161   */\n      0x00\n        /* \"#utility.yul\":7153:7241   */\n      mstore\n        /* \"#utility.yul\":7260:7264   */\n      0x12\n        /* \"#utility.yul\":7257:7258   */\n      0x04\n        /* \"#utility.yul\":7250:7265   */\n      mstore\n        /* \"#utility.yul\":7284:7288   */\n      0x24\n        /* \"#utility.yul\":7281:7282   */\n      0x00\n        /* \"#utility.yul\":7274:7289   */\n      revert\n        /* \"#utility.yul\":7301:7486   */\n    tag_115:\n        /* \"#utility.yul\":7341:7342   */\n      0x00\n        /* \"#utility.yul\":7358:7378   */\n      tag_227\n        /* \"#utility.yul\":7376:7377   */\n      dup3\n        /* \"#utility.yul\":7358:7378   */\n      tag_127\n      jump\t// in\n    tag_227:\n        /* \"#utility.yul\":7353:7378   */\n      swap2\n      pop\n        /* \"#utility.yul\":7392:7412   */\n      tag_228\n        /* \"#utility.yul\":7410:7411   */\n      dup4\n        /* \"#utility.yul\":7392:7412   */\n      tag_127\n      jump\t// in\n    tag_228:\n        /* \"#utility.yul\":7387:7412   */\n      swap3\n      pop\n        /* \"#utility.yul\":7431:7432   */\n      dup3\n        /* \"#utility.yul\":7421:7456   */\n      tag_229\n      jumpi\n        /* \"#utility.yul\":7436:7454   */\n      tag_230\n      tag_144\n      jump\t// in\n    tag_230:\n        /* \"#utility.yul\":7421:7456   */\n    tag_229:\n        /* \"#utility.yul\":7478:7479   */\n      dup3\n        /* \"#utility.yul\":7475:7476   */\n      dup3\n        /* \"#utility.yul\":7471:7480   */\n      div\n        /* \"#utility.yul\":7466:7480   */\n      swap1\n      pop\n        /* \"#utility.yul\":7301:7486   */\n      swap3\n      swap2\n      pop\n      pop\n      jump\t// out\n        /* \"#utility.yul\":7492:7668   */\n    tag_119:\n        /* \"#utility.yul\":7524:7525   */\n      0x00\n        /* \"#utility.yul\":7541:7561   */\n      tag_232\n        /* \"#utility.yul\":7559:7560   */\n      dup3\n        /* \"#utility.yul\":7541:7561   */\n      tag_127\n      jump\t// in\n    tag_232:\n        /* \"#utility.yul\":7536:7561   */\n      swap2\n      pop\n        /* \"#utility.yul\":7575:7595   */\n      tag_233\n        /* \"#utility.yul\":7593:7594   */\n      dup4\n        /* \"#utility.yul\":7575:7595   */\n      tag_127\n      jump\t// in\n    tag_233:\n        /* \"#utility.yul\":7570:7595   */\n      swap3\n      pop\n        /* \"#utility.yul\":7614:7615   */\n      dup3\n        /* \"#utility.yul\":7604:7639   */\n      tag_234\n      jumpi\n        /* \"#utility.yul\":7619:7637   */\n      tag_235\n      tag_144\n      jump\t// in\n    tag_235:\n        /* \"#utility.yul\":7604:7639   */\n    tag_234:\n        /* \"#utility.yul\":7660:7661   */\n      dup3\n        /* \"#utility.yul\":7657:7658   */\n      dup3\n        /* \"#utility.yul\":7653:7662   */\n      mod\n        /* \"#utility.yul\":7648:7662   */\n      swap1\n      pop\n        /* \"#utility.yul\":7492:7668   */\n      swap3\n      swap2\n      pop\n      pop\n      jump\t// out\n        /* \"#utility.yul\":7674:7776   */\n    tag_145:\n        /* \"#utility.yul\":7716:7724   */\n      0x00\n        /* \"#utility.yul\":7763:7768   */\n      dup2\n        /* \"#utility.yul\":7760:7761   */\n      0x01\n        /* \"#utility.yul\":7756:7769   */\n      shr\n        /* \"#utility.yul\":7735:7769   */\n      swap1\n      pop\n        /* \"#utility.yul\":7674:7776   */\n      swap2\n      swap1\n      pop\n      jump\t// out\n        /* \"#utility.yul\":7782:8630   */\n    tag_146:\n        /* \"#utility.yul\":7843:7848   */\n      0x00\n        /* \"#utility.yul\":7850:7854   */\n      dup1\n        /* \"#utility.yul\":7874:7880   */\n      dup3\n        /* \"#utility.yul\":7865:7880   */\n      swap2\n      pop\n        /* \"#utility.yul\":7898:7903   */\n      dup4\n        /* \"#utility.yul\":7889:7903   */\n      swap1\n      pop\n        /* \"#utility.yul\":7912:8624   */\n    tag_238:\n        /* \"#utility.yul\":7933:7934   */\n      0x01\n        /* \"#utility.yul\":7923:7931   */\n      dup6\n        /* \"#utility.yul\":7920:7935   */\n      gt\n        /* \"#utility.yul\":7912:8624   */\n      iszero\n      tag_240\n      jumpi\n        /* \"#utility.yul\":8028:8032   */\n      dup1\n        /* \"#utility.yul\":8023:8026   */\n      dup7\n        /* \"#utility.yul\":8019:8033   */\n      div\n        /* \"#utility.yul\":8013:8017   */\n      dup2\n        /* \"#utility.yul\":8010:8034   */\n      gt\n        /* \"#utility.yul\":8007:8057   */\n      iszero\n      tag_241\n      jumpi\n        /* \"#utility.yul\":8037:8055   */\n      tag_242\n      tag_143\n      jump\t// in\n    tag_242:\n        /* \"#utility.yul\":8007:8057   */\n    tag_241:\n        /* \"#utility.yul\":8087:8088   */\n      0x01\n        /* \"#utility.yul\":8077:8085   */\n      dup6\n        /* \"#utility.yul\":8073:8089   */\n      and\n        /* \"#utility.yul\":8070:8521   */\n      iszero\n      tag_243\n      jumpi\n        /* \"#utility.yul\":8502:8506   */\n      dup1\n        /* \"#utility.yul\":8495:8500   */\n      dup3\n        /* \"#utility.yul\":8491:8507   */\n      mul\n        /* \"#utility.yul\":8482:8507   */\n      swap2\n      pop\n        /* \"#utility.yul\":8070:8521   */\n    tag_243:\n        /* \"#utility.yul\":8552:8556   */\n      dup1\n        /* \"#utility.yul\":8546:8550   */\n      dup2\n        /* \"#utility.yul\":8542:8557   */\n      mul\n        /* \"#utility.yul\":8534:8557   */\n      swap1\n      pop\n        /* \"#utility.yul\":8582:8614   */\n      tag_244\n        /* \"#utility.yul\":8605:8613   */\n      dup6\n        /* \"#utility.yul\":8582:8614   */\n      tag_145\n      jump\t// in\n    tag_244:\n        /* \"#utility.yul\":8570:8614   */\n      swap5\n      pop\n        /* \"#utility.yul\":7912:8624   */\n      jump(tag_238)\n    tag_240:\n        /* \"#utility.yul\":7782:8630   */\n      swap5\n      pop\n      swap5\n      swap3\n      pop\n      pop\n      pop\n      jump\t// out\n        /* \"#utility.yul\":8636:9709   */\n    tag_147:\n        /* \"#utility.yul\":8690:8695   */\n      0x00\n        /* \"#utility.yul\":8881:8889   */\n      dup3\n        /* \"#utility.yul\":8871:8911   */\n      tag_246\n      jumpi\n        /* \"#utility.yul\":8902:8903   */\n      0x01\n        /* \"#utility.yul\":8893:8903   */\n      swap1\n      pop\n        /* \"#utility.yul\":8904:8909   */\n      jump(tag_245)\n        /* \"#utility.yul\":8871:8911   */\n    tag_246:\n        /* \"#utility.yul\":8930:8934   */\n      dup2\n        /* \"#utility.yul\":8920:8956   */\n      tag_247\n      jumpi\n        /* \"#utility.yul\":8947:8948   */\n      0x00\n        /* \"#utility.yul\":8938:8948   */\n      swap1\n      pop\n        /* \"#utility.yul\":8949:8954   */\n      jump(tag_245)\n        /* \"#utility.yul\":8920:8956   */\n    tag_247:\n        /* \"#utility.yul\":9016:9020   */\n      dup2\n        /* \"#utility.yul\":9064:9065   */\n      0x01\n        /* \"#utility.yul\":9059:9086   */\n      dup2\n      eq\n      tag_249\n      jumpi\n        /* \"#utility.yul\":9100:9101   */\n      0x02\n        /* \"#utility.yul\":9095:9286   */\n      dup2\n      eq\n      tag_250\n      jumpi\n        /* \"#utility.yul\":9009:9286   */\n      jump(tag_248)\n        /* \"#utility.yul\":9059:9086   */\n    tag_249:\n        /* \"#utility.yul\":9077:9078   */\n      0x01\n        /* \"#utility.yul\":9068:9078   */\n      swap2\n      pop\n        /* \"#utility.yul\":9079:9084   */\n      pop\n      jump(tag_245)\n        /* \"#utility.yul\":9095:9286   */\n    tag_250:\n        /* \"#utility.yul\":9140:9143   */\n      0xff\n        /* \"#utility.yul\":9130:9138   */\n      dup5\n        /* \"#utility.yul\":9127:9144   */\n      gt\n        /* \"#utility.yul\":9124:9167   */\n      iszero\n      tag_251\n      jumpi\n        /* \"#utility.yul\":9147:9165   */\n      tag_252\n      tag_143\n      jump\t// in\n    tag_252:\n        /* \"#utility.yul\":9124:9167   */\n    tag_251:\n        /* \"#utility.yul\":9196:9204   */\n      dup4\n        /* \"#utility.yul\":9193:9194   */\n      0x02\n        /* \"#utility.yul\":9189:9205   */\n      exp\n        /* \"#utility.yul\":9180:9205   */\n      swap2\n      pop\n        /* \"#utility.yul\":9231:9234   */\n      dup5\n        /* \"#utility.yul\":9224:9229   */\n      dup3\n        /* \"#utility.yul\":9221:9235   */\n      gt\n        /* \"#utility.yul\":9218:9258   */\n      iszero\n      tag_253\n      jumpi\n        /* \"#utility.yul\":9238:9256   */\n      tag_254\n      tag_143\n      jump\t// in\n    tag_254:\n        /* \"#utility.yul\":9218:9258   */\n    tag_253:\n        /* \"#utility.yul\":9271:9276   */\n      pop\n      jump(tag_245)\n        /* \"#utility.yul\":9009:9286   */\n    tag_248:\n      pop\n        /* \"#utility.yul\":9395:9397   */\n      0x20\n        /* \"#utility.yul\":9385:9393   */\n      dup4\n        /* \"#utility.yul\":9382:9398   */\n      lt\n        /* \"#utility.yul\":9376:9379   */\n      0x0133\n        /* \"#utility.yul\":9370:9374   */\n      dup4\n        /* \"#utility.yul\":9367:9380   */\n      lt\n        /* \"#utility.yul\":9363:9399   */\n      and\n        /* \"#utility.yul\":9345:9347   */\n      0x4e\n        /* \"#utility.yul\":9335:9343   */\n      dup5\n        /* \"#utility.yul\":9332:9348   */\n      lt\n        /* \"#utility.yul\":9327:9329   */\n      0x0b\n        /* \"#utility.yul\":9321:9325   */\n      dup5\n        /* \"#utility.yul\":9318:9330   */\n      lt\n        /* \"#utility.yul\":9314:9349   */\n      and\n        /* \"#utility.yul\":9298:9409   */\n      or\n        /* \"#utility.yul\":9295:9541   */\n      iszero\n      tag_255\n      jumpi\n        /* \"#utility.yul\":9451:9459   */\n      dup3\n        /* \"#utility.yul\":9445:9449   */\n      dup3\n        /* \"#utility.yul\":9441:9460   */\n      exp\n        /* \"#utility.yul\":9432:9460   */\n      swap1\n      pop\n        /* \"#utility.yul\":9486:9489   */\n      dup4\n        /* \"#utility.yul\":9479:9484   */\n      dup2\n        /* \"#utility.yul\":9476:9490   */\n      gt\n        /* \"#utility.yul\":9473:9513   */\n      iszero\n      tag_256\n      jumpi\n        /* \"#utility.yul\":9493:9511   */\n      tag_257\n      tag_143\n      jump\t// in\n    tag_257:\n        /* \"#utility.yul\":9473:9513   */\n    tag_256:\n        /* \"#utility.yul\":9526:9531   */\n      jump(tag_245)\n        /* \"#utility.yul\":9295:9541   */\n    tag_255:\n        /* \"#utility.yul\":9566:9608   */\n      tag_258\n        /* \"#utility.yul\":9604:9607   */\n      dup5\n        /* \"#utility.yul\":9594:9602   */\n      dup5\n        /* \"#utility.yul\":9588:9592   */\n      dup5\n        /* \"#utility.yul\":9585:9586   */\n      0x01\n        /* \"#utility.yul\":9566:9608   */\n      tag_146\n      jump\t// in\n    tag_258:\n        /* \"#utility.yul\":9551:9608   */\n      swap3\n      pop\n      swap1\n      pop\n        /* \"#utility.yul\":9640:9644   */\n      dup2\n        /* \"#utility.yul\":9635:9638   */\n      dup5\n        /* \"#utility.yul\":9631:9645   */\n      div\n        /* \"#utility.yul\":9624:9629   */\n      dup2\n        /* \"#utility.yul\":9621:9646   */\n      gt\n        /* \"#utility.yul\":9618:9669   */\n      iszero\n      tag_259\n      jumpi\n        /* \"#utility.yul\":9649:9667   */\n      tag_260\n      tag_143\n      jump\t// in\n    tag_260:\n        /* \"#utility.yul\":9618:9669   */\n    tag_259:\n        /* \"#utility.yul\":9698:9702   */\n      dup2\n        /* \"#utility.yul\":9691:9696   */\n      dup2\n        /* \"#utility.yul\":9687:9703   */\n      mul\n        /* \"#utility.yul\":9678:9703   */\n      swap1\n      pop\n        /* \"#utility.yul\":8636:9709   */\n    tag_245:\n      swap4\n      swap3\n      pop\n      pop\n      pop\n      jump\t// out\n        /* \"#utility.yul\":9715:10000   */\n    tag_121:\n        /* \"#utility.yul\":9775:9780   */\n      0x00\n        /* \"#utility.yul\":9799:9822   */\n      tag_262\n        /* \"#utility.yul\":9817:9821   */\n      dup3\n        /* \"#utility.yul\":9799:9822   */\n      tag_127\n      jump\t// in\n    tag_262:\n        /* \"#utility.yul\":9791:9822   */\n      swap2\n      pop\n        /* \"#utility.yul\":9843:9870   */\n      tag_263\n        /* \"#utility.yul\":9861:9869   */\n      dup4\n        /* \"#utility.yul\":9843:9870   */\n      tag_127\n      jump\t// in\n    tag_263:\n        /* \"#utility.yul\":9831:9870   */\n      swap3\n      pop\n        /* \"#utility.yul\":9889:9993   */\n      tag_264\n        /* \"#utility.yul\":9926:9992   */\n      0xffffffffffffffffffffffffffffffffffffffffffffffffffffffffffffffff\n        /* \"#utility.yul\":9916:9924   */\n      dup5\n        /* \"#utility.yul\":9910:9914   */\n      dup5\n        /* \"#utility.yul\":9889:9993   */\n      tag_147\n      jump\t// in\n    tag_264:\n        /* \"#utility.yul\":9880:9993   */\n      swap1\n      pop\n        /* \"#utility.yul\":9715:10000   */\n      swap3\n      swap2\n      pop\n      pop\n      jump\t// out\n\n    auxdata: 0xa26469706673582212200717c8dbfbb4b14530dc52ef0c7d2cdb31e444bb90c552cd78acc4a8c9f2e2fd64736f6c634300081a0033\n}\n",
				"bytecode": {
					"linkReferences": {},
					"object": "6080604052348015600e575f80fd5b50610b508061001c5f395ff3fe608060405234801561000f575f80fd5b5060043610610055575f3560e01c8063421ec765146100595780636d5433e6146100895780637ae2b5c7146100b957806383714834146100e9578063a1abcfca14610119575b5f80fd5b610073600480360381019061006e9190610566565b610149565b604051610080919061065b565b60405180910390f35b6100a3600480360381019061009e9190610566565b61015d565b6040516100b0919061068a565b60405180910390f35b6100d360048036038101906100ce9190610566565b610170565b6040516100e0919061068a565b60405180910390f35b61010360048036038101906100fe91906106a3565b610183565b604051610110919061068a565b60405180910390f35b610133600480360381019061012e91906106a3565b610194565b60405161014091906106e8565b60405180910390f35b606061015583836101a5565b905092915050565b5f610168838361042f565b905092915050565b5f61017b8383610447565b905092915050565b5f61018d8261045f565b9050919050565b5f61019e826104a4565b9050919050565b6060818311156101ea576040517f08c379a00000000000000000000000000000000000000000000000000000000081526004016101e190610781565b60405180910390fd5b5f600184846101f991906107cc565b61020391906107ff565b90505f8167ffffffffffffffff8111156102205761021f610832565b5b60405190808252806020026020018201604052801561024e5781602001602082028036833780820191505090505b5090505f8403610282575f815f8151811061026c5761026b61085f565b5b6020026020010181815250508092505050610429565b5f60018561029091906107ff565b67ffffffffffffffff8111156102a9576102a8610832565b5b6040519080825280602002602001820160405280156102d75781602001602082028036833780820191505090505b5090505f815f815181106102ee576102ed61085f565b5b6020026020010181815250505f851115610325576001816001815181106103185761031761085f565b5b6020026020010181815250505b5f600290505b8581116103bc578160028261034091906107cc565b815181106103515761035061085f565b5b60200260200101518260018361036791906107cc565b815181106103785761037761085f565b5b602002602001015161038a91906107ff565b82828151811061039d5761039c61085f565b5b60200260200101818152505080806103b49061088c565b91505061032b565b505f8690505b858111610421578181815181106103dc576103db61085f565b5b60200260200101518388836103f191906107cc565b815181106104025761040161085f565b5b60200260200101818152505080806104199061088c565b9150506103c2565b508193505050505b92915050565b5f81831161043d578161043f565b825b905092915050565b5f8183106104555781610457565b825b905092915050565b5f8082148061046e5750600182145b1561047c576001905061049f565b61049160018361048c91906107cc565b61045f565b8261049c91906108d3565b90505b919050565b5f808290505f805b5f8311156104d65781806104bf9061088c565b925050600a836104cf9190610941565b92506104ac565b5f8590505b5f811115610521575f600a826104f19190610971565b905083816104ff9190610ad0565b8361050a91906107ff565b9250600a826105199190610941565b9150506104db565b858214945050505050919050565b5f80fd5b5f819050919050565b61054581610533565b811461054f575f80fd5b50565b5f813590506105608161053c565b92915050565b5f806040838503121561057c5761057b61052f565b5b5f61058985828601610552565b925050602061059a85828601610552565b9150509250929050565b5f81519050919050565b5f82825260208201905092915050565b5f819050602082019050919050565b6105d681610533565b82525050565b5f6105e783836105cd565b60208301905092915050565b5f602082019050919050565b5f610609826105a4565b61061381856105ae565b935061061e836105be565b805f5b8381101561064e57815161063588826105dc565b9750610640836105f3565b925050600181019050610621565b5085935050505092915050565b5f6020820190508181035f83015261067381846105ff565b905092915050565b61068481610533565b82525050565b5f60208201905061069d5f83018461067b565b92915050565b5f602082840312156106b8576106b761052f565b5b5f6106c584828501610552565b91505092915050565b5f8115159050919050565b6106e2816106ce565b82525050565b5f6020820190506106fb5f8301846106d9565b92915050565b5f82825260208201905092915050565b7f537461727420496e646578206d757374206265206c657373207468616e2074685f8201527f6520456e6420696e646578000000000000000000000000000000000000000000602082015250565b5f61076b602b83610701565b915061077682610711565b604082019050919050565b5f6020820190508181035f8301526107988161075f565b9050919050565b7f4e487b71000000000000000000000000000000000000000000000000000000005f52601160045260245ffd5b5f6107d682610533565b91506107e183610533565b92508282039050818111156107f9576107f861079f565b5b92915050565b5f61080982610533565b915061081483610533565b925082820190508082111561082c5761082b61079f565b5b92915050565b7f4e487b71000000000000000000000000000000000000000000000000000000005f52604160045260245ffd5b7f4e487b71000000000000000000000000000000000000000000000000000000005f52603260045260245ffd5b5f61089682610533565b91507fffffffffffffffffffffffffffffffffffffffffffffffffffffffffffffffff82036108c8576108c761079f565b5b600182019050919050565b5f6108dd82610533565b91506108e883610533565b92508282026108f681610533565b9150828204841483151761090d5761090c61079f565b5b5092915050565b7f4e487b71000000000000000000000000000000000000000000000000000000005f52601260045260245ffd5b5f61094b82610533565b915061095683610533565b92508261096657610965610914565b5b828204905092915050565b5f61097b82610533565b915061098683610533565b92508261099657610995610914565b5b828206905092915050565b5f8160011c9050919050565b5f808291508390505b60018511156109f6578086048111156109d2576109d161079f565b5b60018516156109e15780820291505b80810290506109ef856109a1565b94506109b6565b94509492505050565b5f82610a0e5760019050610ac9565b81610a1b575f9050610ac9565b8160018114610a315760028114610a3b57610a6a565b6001915050610ac9565b60ff841115610a4d57610a4c61079f565b5b8360020a915084821115610a6457610a6361079f565b5b50610ac9565b5060208310610133831016604e8410600b8410161715610a9f5782820a905083811115610a9a57610a9961079f565b5b610ac9565b610aac84848460016109ad565b92509050818404811115610ac357610ac261079f565b5b81810290505b9392505050565b5f610ada82610533565b9150610ae583610533565b9250610b127fffffffffffffffffffffffffffffffffffffffffffffffffffffffffffffffff84846109ff565b90509291505056fea26469706673582212200717c8dbfbb4b14530dc52ef0c7d2cdb31e444bb90c552cd78acc4a8c9f2e2fd64736f6c634300081a0033",
					"opcodes": "PUSH1 0x80 PUSH1 0x40 MSTORE CALLVALUE DUP1 ISZERO PUSH1 0xE JUMPI PUSH0 DUP1 REVERT JUMPDEST POP PUSH2 0xB50 DUP1 PUSH2 0x1C PUSH0 CODECOPY PUSH0 RETURN INVALID PUSH1 0x80 PUSH1 0x40 MSTORE CALLVALUE DUP1 ISZERO PUSH2 0xF JUMPI PUSH0 DUP1 REVERT JUMPDEST POP PUSH1 0x4 CALLDATASIZE LT PUSH2 0x55 JUMPI PUSH0 CALLDATALOAD PUSH1 0xE0 SHR DUP1 PUSH4 0x421EC765 EQ PUSH2 0x59 JUMPI DUP1 PUSH4 0x6D5433E6 EQ PUSH2 0x89 JUMPI DUP1 PUSH4 0x7AE2B5C7 EQ PUSH2 0xB9 JUMPI DUP1 PUSH4 0x83714834 EQ PUSH2 0xE9 JUMPI DUP1 PUSH4 0xA1ABCFCA EQ PUSH2 0x119 JUMPI JUMPDEST PUSH0 DUP1 REVERT JUMPDEST PUSH2 0x73 PUSH1 0x4 DUP1 CALLDATASIZE SUB DUP2 ADD SWAP1 PUSH2 0x6E SWAP2 SWAP1 PUSH2 0x566 JUMP JUMPDEST PUSH2 0x149 JUMP JUMPDEST PUSH1 0x40 MLOAD PUSH2 0x80 SWAP2 SWAP1 PUSH2 0x65B JUMP JUMPDEST PUSH1 0x40 MLOAD DUP1 SWAP2 SUB SWAP1 RETURN JUMPDEST PUSH2 0xA3 PUSH1 0x4 DUP1 CALLDATASIZE SUB DUP2 ADD SWAP1 PUSH2 0x9E SWAP2 SWAP1 PUSH2 0x566 JUMP JUMPDEST PUSH2 0x15D JUMP JUMPDEST PUSH1 0x40 MLOAD PUSH2 0xB0 SWAP2 SWAP1 PUSH2 0x68A JUMP JUMPDEST PUSH1 0x40 MLOAD DUP1 SWAP2 SUB SWAP1 RETURN JUMPDEST PUSH2 0xD3 PUSH1 0x4 DUP1 CALLDATASIZE SUB DUP2 ADD SWAP1 PUSH2 0xCE SWAP2 SWAP1 PUSH2 0x566 JUMP JUMPDEST PUSH2 0x170 JUMP JUMPDEST PUSH1 0x40 MLOAD PUSH2 0xE0 SWAP2 SWAP1 PUSH2 0x68A JUMP JUMPDEST PUSH1 0x40 MLOAD DUP1 SWAP2 SUB SWAP1 RETURN JUMPDEST PUSH2 0x103 PUSH1 0x4 DUP1 CALLDATASIZE SUB DUP2 ADD SWAP1 PUSH2 0xFE SWAP2 SWAP1 PUSH2 0x6A3 JUMP JUMPDEST PUSH2 0x183 JUMP JUMPDEST PUSH1 0x40 MLOAD PUSH2 0x110 SWAP2 SWAP1 PUSH2 0x68A JUMP JUMPDEST PUSH1 0x40 MLOAD DUP1 SWAP2 SUB SWAP1 RETURN JUMPDEST PUSH2 0x133 PUSH1 0x4 DUP1 CALLDATASIZE SUB DUP2 ADD SWAP1 PUSH2 0x12E SWAP2 SWAP1 PUSH2 0x6A3 JUMP JUMPDEST PUSH2 0x194 JUMP JUMPDEST PUSH1 0x40 MLOAD PUSH2 0x140 SWAP2 SWAP1 PUSH2 0x6E8 JUMP JUMPDEST PUSH1 0x40 MLOAD DUP1 SWAP2 SUB SWAP1 RETURN JUMPDEST PUSH1 0x60 PUSH2 0x155 DUP4 DUP4 PUSH2 0x1A5 JUMP JUMPDEST SWAP1 POP SWAP3 SWAP2 POP POP JUMP JUMPDEST PUSH0 PUSH2 0x168 DUP4 DUP4 PUSH2 0x42F JUMP JUMPDEST SWAP1 POP SWAP3 SWAP2 POP POP JUMP JUMPDEST PUSH0 PUSH2 0x17B DUP4 DUP4 PUSH2 0x447 JUMP JUMPDEST SWAP1 POP SWAP3 SWAP2 POP POP JUMP JUMPDEST PUSH0 PUSH2 0x18D DUP3 PUSH2 0x45F JUMP JUMPDEST SWAP1 POP SWAP2 SWAP1 POP JUMP JUMPDEST PUSH0 PUSH2 0x19E DUP3 PUSH2 0x4A4 JUMP JUMPDEST SWAP1 POP SWAP2 SWAP1 POP JUMP JUMPDEST PUSH1 0x60 DUP2 DUP4 GT ISZERO PUSH2 0x1EA JUMPI PUSH1 0x40 MLOAD PUSH32 0x8C379A000000000000000000000000000000000000000000000000000000000 DUP2 MSTORE PUSH1 0x4 ADD PUSH2 0x1E1 SWAP1 PUSH2 0x781 JUMP JUMPDEST PUSH1 0x40 MLOAD DUP1 SWAP2 SUB SWAP1 REVERT JUMPDEST PUSH0 PUSH1 0x1 DUP5 DUP5 PUSH2 0x1F9 SWAP2 SWAP1 PUSH2 0x7CC JUMP JUMPDEST PUSH2 0x203 SWAP2 SWAP1 PUSH2 0x7FF JUMP JUMPDEST SWAP1 POP PUSH0 DUP2 PUSH8 0xFFFFFFFFFFFFFFFF DUP2 GT ISZERO PUSH2 0x220 JUMPI PUSH2 0x21F PUSH2 0x832 JUMP JUMPDEST JUMPDEST PUSH1 0x40 MLOAD SWAP1 DUP1 DUP3 MSTORE DUP1 PUSH1 0x20 MUL PUSH1 0x20 ADD DUP3 ADD PUSH1 0x40 MSTORE DUP1 ISZERO PUSH2 0x24E JUMPI DUP2 PUSH1 0x20 ADD PUSH1 0x20 DUP3 MUL DUP1 CALLDATASIZE DUP4 CALLDATACOPY DUP1 DUP3 ADD SWAP2 POP POP SWAP1 POP JUMPDEST POP SWAP1 POP PUSH0 DUP5 SUB PUSH2 0x282 JUMPI PUSH0 DUP2 PUSH0 DUP2 MLOAD DUP2 LT PUSH2 0x26C JUMPI PUSH2 0x26B PUSH2 0x85F JUMP JUMPDEST JUMPDEST PUSH1 0x20 MUL PUSH1 0x20 ADD ADD DUP2 DUP2 MSTORE POP POP DUP1 SWAP3 POP POP POP PUSH2 0x429 JUMP JUMPDEST PUSH0 PUSH1 0x1 DUP6 PUSH2 0x290 SWAP2 SWAP1 PUSH2 0x7FF JUMP JUMPDEST PUSH8 0xFFFFFFFFFFFFFFFF DUP2 GT ISZERO PUSH2 0x2A9 JUMPI PUSH2 0x2A8 PUSH2 0x832 JUMP JUMPDEST JUMPDEST PUSH1 0x40 MLOAD SWAP1 DUP1 DUP3 MSTORE DUP1 PUSH1 0x20 MUL PUSH1 0x20 ADD DUP3 ADD PUSH1 0x40 MSTORE DUP1 ISZERO PUSH2 0x2D7 JUMPI DUP2 PUSH1 0x20 ADD PUSH1 0x20 DUP3 MUL DUP1 CALLDATASIZE DUP4 CALLDATACOPY DUP1 DUP3 ADD SWAP2 POP POP SWAP1 POP JUMPDEST POP SWAP1 POP PUSH0 DUP2 PUSH0 DUP2 MLOAD DUP2 LT PUSH2 0x2EE JUMPI PUSH2 0x2ED PUSH2 0x85F JUMP JUMPDEST JUMPDEST PUSH1 0x20 MUL PUSH1 0x20 ADD ADD DUP2 DUP2 MSTORE POP POP PUSH0 DUP6 GT ISZERO PUSH2 0x325 JUMPI PUSH1 0x1 DUP2 PUSH1 0x1 DUP2 MLOAD DUP2 LT PUSH2 0x318 JUMPI PUSH2 0x317 PUSH2 0x85F JUMP JUMPDEST JUMPDEST PUSH1 0x20 MUL PUSH1 0x20 ADD ADD DUP2 DUP2 MSTORE POP POP JUMPDEST PUSH0 PUSH1 0x2 SWAP1 POP JUMPDEST DUP6 DUP2 GT PUSH2 0x3BC JUMPI DUP2 PUSH1 0x2 DUP3 PUSH2 0x340 SWAP2 SWAP1 PUSH2 0x7CC JUMP JUMPDEST DUP2 MLOAD DUP2 LT PUSH2 0x351 JUMPI PUSH2 0x350 PUSH2 0x85F JUMP JUMPDEST JUMPDEST PUSH1 0x20 MUL PUSH1 0x20 ADD ADD MLOAD DUP3 PUSH1 0x1 DUP4 PUSH2 0x367 SWAP2 SWAP1 PUSH2 0x7CC JUMP JUMPDEST DUP2 MLOAD DUP2 LT PUSH2 0x378 JUMPI PUSH2 0x377 PUSH2 0x85F JUMP JUMPDEST JUMPDEST PUSH1 0x20 MUL PUSH1 0x20 ADD ADD MLOAD PUSH2 0x38A SWAP2 SWAP1 PUSH2 0x7FF JUMP JUMPDEST DUP3 DUP3 DUP2 MLOAD DUP2 LT PUSH2 0x39D JUMPI PUSH2 0x39C PUSH2 0x85F JUMP JUMPDEST JUMPDEST PUSH1 0x20 MUL PUSH1 0x20 ADD ADD DUP2 DUP2 MSTORE POP POP DUP1 DUP1 PUSH2 0x3B4 SWAP1 PUSH2 0x88C JUMP JUMPDEST SWAP2 POP POP PUSH2 0x32B JUMP JUMPDEST POP PUSH0 DUP7 SWAP1 POP JUMPDEST DUP6 DUP2 GT PUSH2 0x421 JUMPI DUP2 DUP2 DUP2 MLOAD DUP2 LT PUSH2 0x3DC JUMPI PUSH2 0x3DB PUSH2 0x85F JUMP JUMPDEST JUMPDEST PUSH1 0x20 MUL PUSH1 0x20 ADD ADD MLOAD DUP4 DUP9 DUP4 PUSH2 0x3F1 SWAP2 SWAP1 PUSH2 0x7CC JUMP JUMPDEST DUP2 MLOAD DUP2 LT PUSH2 0x402 JUMPI PUSH2 0x401 PUSH2 0x85F JUMP JUMPDEST JUMPDEST PUSH1 0x20 MUL PUSH1 0x20 ADD ADD DUP2 DUP2 MSTORE POP POP DUP1 DUP1 PUSH2 0x419 SWAP1 PUSH2 0x88C JUMP JUMPDEST SWAP2 POP POP PUSH2 0x3C2 JUMP JUMPDEST POP DUP2 SWAP4 POP POP POP POP JUMPDEST SWAP3 SWAP2 POP POP JUMP JUMPDEST PUSH0 DUP2 DUP4 GT PUSH2 0x43D JUMPI DUP2 PUSH2 0x43F JUMP JUMPDEST DUP3 JUMPDEST SWAP1 POP SWAP3 SWAP2 POP POP JUMP JUMPDEST PUSH0 DUP2 DUP4 LT PUSH2 0x455 JUMPI DUP2 PUSH2 0x457 JUMP JUMPDEST DUP3 JUMPDEST SWAP1 POP SWAP3 SWAP2 POP POP JUMP JUMPDEST PUSH0 DUP1 DUP3 EQ DUP1 PUSH2 0x46E JUMPI POP PUSH1 0x1 DUP3 EQ JUMPDEST ISZERO PUSH2 0x47C JUMPI PUSH1 0x1 SWAP1 POP PUSH2 0x49F JUMP JUMPDEST PUSH2 0x491 PUSH1 0x1 DUP4 PUSH2 0x48C SWAP2 SWAP1 PUSH2 0x7CC JUMP JUMPDEST PUSH2 0x45F JUMP JUMPDEST DUP3 PUSH2 0x49C SWAP2 SWAP1 PUSH2 0x8D3 JUMP JUMPDEST SWAP1 POP JUMPDEST SWAP2 SWAP1 POP JUMP JUMPDEST PUSH0 DUP1 DUP3 SWAP1 POP PUSH0 DUP1 JUMPDEST PUSH0 DUP4 GT ISZERO PUSH2 0x4D6 JUMPI DUP2 DUP1 PUSH2 0x4BF SWAP1 PUSH2 0x88C JUMP JUMPDEST SWAP3 POP POP PUSH1 0xA DUP4 PUSH2 0x4CF SWAP2 SWAP1 PUSH2 0x941 JUMP JUMPDEST SWAP3 POP PUSH2 0x4AC JUMP JUMPDEST PUSH0 DUP6 SWAP1 POP JUMPDEST PUSH0 DUP2 GT ISZERO PUSH2 0x521 JUMPI PUSH0 PUSH1 0xA DUP3 PUSH2 0x4F1 SWAP2 SWAP1 PUSH2 0x971 JUMP JUMPDEST SWAP1 POP DUP4 DUP2 PUSH2 0x4FF SWAP2 SWAP1 PUSH2 0xAD0 JUMP JUMPDEST DUP4 PUSH2 0x50A SWAP2 SWAP1 PUSH2 0x7FF JUMP JUMPDEST SWAP3 POP PUSH1 0xA DUP3 PUSH2 0x519 SWAP2 SWAP1 PUSH2 0x941 JUMP JUMPDEST SWAP2 POP POP PUSH2 0x4DB JUMP JUMPDEST DUP6 DUP3 EQ SWAP5 POP POP POP POP POP SWAP2 SWAP1 POP JUMP JUMPDEST PUSH0 DUP1 REVERT JUMPDEST PUSH0 DUP2 SWAP1 POP SWAP2 SWAP1 POP JUMP JUMPDEST PUSH2 0x545 DUP2 PUSH2 0x533 JUMP JUMPDEST DUP2 EQ PUSH2 0x54F JUMPI PUSH0 DUP1 REVERT JUMPDEST POP JUMP JUMPDEST PUSH0 DUP2 CALLDATALOAD SWAP1 POP PUSH2 0x560 DUP2 PUSH2 0x53C JUMP JUMPDEST SWAP3 SWAP2 POP POP JUMP JUMPDEST PUSH0 DUP1 PUSH1 0x40 DUP4 DUP6 SUB SLT ISZERO PUSH2 0x57C JUMPI PUSH2 0x57B PUSH2 0x52F JUMP JUMPDEST JUMPDEST PUSH0 PUSH2 0x589 DUP6 DUP3 DUP7 ADD PUSH2 0x552 JUMP JUMPDEST SWAP3 POP POP PUSH1 0x20 PUSH2 0x59A DUP6 DUP3 DUP7 ADD PUSH2 0x552 JUMP JUMPDEST SWAP2 POP POP SWAP3 POP SWAP3 SWAP1 POP JUMP JUMPDEST PUSH0 DUP2 MLOAD SWAP1 POP SWAP2 SWAP1 POP JUMP JUMPDEST PUSH0 DUP3 DUP3 MSTORE PUSH1 0x20 DUP3 ADD SWAP1 POP SWAP3 SWAP2 POP POP JUMP JUMPDEST PUSH0 DUP2 SWAP1 POP PUSH1 0x20 DUP3 ADD SWAP1 POP SWAP2 SWAP1 POP JUMP JUMPDEST PUSH2 0x5D6 DUP2 PUSH2 0x533 JUMP JUMPDEST DUP3 MSTORE POP POP JUMP JUMPDEST PUSH0 PUSH2 0x5E7 DUP4 DUP4 PUSH2 0x5CD JUMP JUMPDEST PUSH1 0x20 DUP4 ADD SWAP1 POP SWAP3 SWAP2 POP POP JUMP JUMPDEST PUSH0 PUSH1 0x20 DUP3 ADD SWAP1 POP SWAP2 SWAP1 POP JUMP JUMPDEST PUSH0 PUSH2 0x609 DUP3 PUSH2 0x5A4 JUMP JUMPDEST PUSH2 0x613 DUP2 DUP6 PUSH2 0x5AE JUMP JUMPDEST SWAP4 POP PUSH2 0x61E DUP4 PUSH2 0x5BE JUMP JUMPDEST DUP1 PUSH0 JUMPDEST DUP4 DUP2 LT ISZERO PUSH2 0x64E JUMPI DUP2 MLOAD PUSH2 0x635 DUP9 DUP3 PUSH2 0x5DC JUMP JUMPDEST SWAP8 POP PUSH2 0x640 DUP4 PUSH2 0x5F3 JUMP JUMPDEST SWAP3 POP POP PUSH1 0x1 DUP2 ADD SWAP1 POP PUSH2 0x621 JUMP JUMPDEST POP DUP6 SWAP4 POP POP POP POP SWAP3 SWAP2 POP POP JUMP JUMPDEST PUSH0 PUSH1 0x20 DUP3 ADD SWAP1 POP DUP2 DUP2 SUB PUSH0 DUP4 ADD MSTORE PUSH2 0x673 DUP2 DUP5 PUSH2 0x5FF JUMP JUMPDEST SWAP1 POP SWAP3 SWAP2 POP POP JUMP JUMPDEST PUSH2 0x684 DUP2 PUSH2 0x533 JUMP JUMPDEST DUP3 MSTORE POP POP JUMP JUMPDEST PUSH0 PUSH1 0x20 DUP3 ADD SWAP1 POP PUSH2 0x69D PUSH0 DUP4 ADD DUP5 PUSH2 0x67B JUMP JUMPDEST SWAP3 SWAP2 POP POP JUMP JUMPDEST PUSH0 PUSH1 0x20 DUP3 DUP5 SUB SLT ISZERO PUSH2 0x6B8 JUMPI PUSH2 0x6B7 PUSH2 0x52F JUMP JUMPDEST JUMPDEST PUSH0 PUSH2 0x6C5 DUP5 DUP3 DUP6 ADD PUSH2 0x552 JUMP JUMPDEST SWAP2 POP POP SWAP3 SWAP2 POP POP JUMP JUMPDEST PUSH0 DUP2 ISZERO ISZERO SWAP1 POP SWAP2 SWAP1 POP JUMP JUMPDEST PUSH2 0x6E2 DUP2 PUSH2 0x6CE JUMP JUMPDEST DUP3 MSTORE POP POP JUMP JUMPDEST PUSH0 PUSH1 0x20 DUP3 ADD SWAP1 POP PUSH2 0x6FB PUSH0 DUP4 ADD DUP5 PUSH2 0x6D9 JUMP JUMPDEST SWAP3 SWAP2 POP POP JUMP JUMPDEST PUSH0 DUP3 DUP3 MSTORE PUSH1 0x20 DUP3 ADD SWAP1 POP SWAP3 SWAP2 POP POP JUMP JUMPDEST PUSH32 0x537461727420496E646578206D757374206265206C657373207468616E207468 PUSH0 DUP3 ADD MSTORE PUSH32 0x6520456E6420696E646578000000000000000000000000000000000000000000 PUSH1 0x20 DUP3 ADD MSTORE POP JUMP JUMPDEST PUSH0 PUSH2 0x76B PUSH1 0x2B DUP4 PUSH2 0x701 JUMP JUMPDEST SWAP2 POP PUSH2 0x776 DUP3 PUSH2 0x711 JUMP JUMPDEST PUSH1 0x40 DUP3 ADD SWAP1 POP SWAP2 SWAP1 POP JUMP JUMPDEST PUSH0 PUSH1 0x20 DUP3 ADD SWAP1 POP DUP2 DUP2 SUB PUSH0 DUP4 ADD MSTORE PUSH2 0x798 DUP2 PUSH2 0x75F JUMP JUMPDEST SWAP1 POP SWAP2 SWAP1 POP JUMP JUMPDEST PUSH32 0x4E487B7100000000000000000000000000000000000000000000000000000000 PUSH0 MSTORE PUSH1 0x11 PUSH1 0x4 MSTORE PUSH1 0x24 PUSH0 REVERT JUMPDEST PUSH0 PUSH2 0x7D6 DUP3 PUSH2 0x533 JUMP JUMPDEST SWAP2 POP PUSH2 0x7E1 DUP4 PUSH2 0x533 JUMP JUMPDEST SWAP3 POP DUP3 DUP3 SUB SWAP1 POP DUP2 DUP2 GT ISZERO PUSH2 0x7F9 JUMPI PUSH2 0x7F8 PUSH2 0x79F JUMP JUMPDEST JUMPDEST SWAP3 SWAP2 POP POP JUMP JUMPDEST PUSH0 PUSH2 0x809 DUP3 PUSH2 0x533 JUMP JUMPDEST SWAP2 POP PUSH2 0x814 DUP4 PUSH2 0x533 JUMP JUMPDEST SWAP3 POP DUP3 DUP3 ADD SWAP1 POP DUP1 DUP3 GT ISZERO PUSH2 0x82C JUMPI PUSH2 0x82B PUSH2 0x79F JUMP JUMPDEST JUMPDEST SWAP3 SWAP2 POP POP JUMP JUMPDEST PUSH32 0x4E487B7100000000000000000000000000000000000000000000000000000000 PUSH0 MSTORE PUSH1 0x41 PUSH1 0x4 MSTORE PUSH1 0x24 PUSH0 REVERT JUMPDEST PUSH32 0x4E487B7100000000000000000000000000000000000000000000000000000000 PUSH0 MSTORE PUSH1 0x32 PUSH1 0x4 MSTORE PUSH1 0x24 PUSH0 REVERT JUMPDEST PUSH0 PUSH2 0x896 DUP3 PUSH2 0x533 JUMP JUMPDEST SWAP2 POP PUSH32 0xFFFFFFFFFFFFFFFFFFFFFFFFFFFFFFFFFFFFFFFFFFFFFFFFFFFFFFFFFFFFFFFF DUP3 SUB PUSH2 0x8C8 JUMPI PUSH2 0x8C7 PUSH2 0x79F JUMP JUMPDEST JUMPDEST PUSH1 0x1 DUP3 ADD SWAP1 POP SWAP2 SWAP1 POP JUMP JUMPDEST PUSH0 PUSH2 0x8DD DUP3 PUSH2 0x533 JUMP JUMPDEST SWAP2 POP PUSH2 0x8E8 DUP4 PUSH2 0x533 JUMP JUMPDEST SWAP3 POP DUP3 DUP3 MUL PUSH2 0x8F6 DUP2 PUSH2 0x533 JUMP JUMPDEST SWAP2 POP DUP3 DUP3 DIV DUP5 EQ DUP4 ISZERO OR PUSH2 0x90D JUMPI PUSH2 0x90C PUSH2 0x79F JUMP JUMPDEST JUMPDEST POP SWAP3 SWAP2 POP POP JUMP JUMPDEST PUSH32 0x4E487B7100000000000000000000000000000000000000000000000000000000 PUSH0 MSTORE PUSH1 0x12 PUSH1 0x4 MSTORE PUSH1 0x24 PUSH0 REVERT JUMPDEST PUSH0 PUSH2 0x94B DUP3 PUSH2 0x533 JUMP JUMPDEST SWAP2 POP PUSH2 0x956 DUP4 PUSH2 0x533 JUMP JUMPDEST SWAP3 POP DUP3 PUSH2 0x966 JUMPI PUSH2 0x965 PUSH2 0x914 JUMP JUMPDEST JUMPDEST DUP3 DUP3 DIV SWAP1 POP SWAP3 SWAP2 POP POP JUMP JUMPDEST PUSH0 PUSH2 0x97B DUP3 PUSH2 0x533 JUMP JUMPDEST SWAP2 POP PUSH2 0x986 DUP4 PUSH2 0x533 JUMP JUMPDEST SWAP3 POP DUP3 PUSH2 0x996 JUMPI PUSH2 0x995 PUSH2 0x914 JUMP JUMPDEST JUMPDEST DUP3 DUP3 MOD SWAP1 POP SWAP3 SWAP2 POP POP JUMP JUMPDEST PUSH0 DUP2 PUSH1 0x1 SHR SWAP1 POP SWAP2 SWAP1 POP JUMP JUMPDEST PUSH0 DUP1 DUP3 SWAP2 POP DUP4 SWAP1 POP JUMPDEST PUSH1 0x1 DUP6 GT ISZERO PUSH2 0x9F6 JUMPI DUP1 DUP7 DIV DUP2 GT ISZERO PUSH2 0x9D2 JUMPI PUSH2 0x9D1 PUSH2 0x79F JUMP JUMPDEST JUMPDEST PUSH1 0x1 DUP6 AND ISZERO PUSH2 0x9E1 JUMPI DUP1 DUP3 MUL SWAP2 POP JUMPDEST DUP1 DUP2 MUL SWAP1 POP PUSH2 0x9EF DUP6 PUSH2 0x9A1 JUMP JUMPDEST SWAP5 POP PUSH2 0x9B6 JUMP JUMPDEST SWAP5 POP SWAP5 SWAP3 POP POP POP JUMP JUMPDEST PUSH0 DUP3 PUSH2 0xA0E JUMPI PUSH1 0x1 SWAP1 POP PUSH2 0xAC9 JUMP JUMPDEST DUP2 PUSH2 0xA1B JUMPI PUSH0 SWAP1 POP PUSH2 0xAC9 JUMP JUMPDEST DUP2 PUSH1 0x1 DUP2 EQ PUSH2 0xA31 JUMPI PUSH1 0x2 DUP2 EQ PUSH2 0xA3B JUMPI PUSH2 0xA6A JUMP JUMPDEST PUSH1 0x1 SWAP2 POP POP PUSH2 0xAC9 JUMP JUMPDEST PUSH1 0xFF DUP5 GT ISZERO PUSH2 0xA4D JUMPI PUSH2 0xA4C PUSH2 0x79F JUMP JUMPDEST JUMPDEST DUP4 PUSH1 0x2 EXP SWAP2 POP DUP5 DUP3 GT ISZERO PUSH2 0xA64 JUMPI PUSH2 0xA63 PUSH2 0x79F JUMP JUMPDEST JUMPDEST POP PUSH2 0xAC9 JUMP JUMPDEST POP PUSH1 0x20 DUP4 LT PUSH2 0x133 DUP4 LT AND PUSH1 0x4E DUP5 LT PUSH1 0xB DUP5 LT AND OR ISZERO PUSH2 0xA9F JUMPI DUP3 DUP3 EXP SWAP1 POP DUP4 DUP2 GT ISZERO PUSH2 0xA9A JUMPI PUSH2 0xA99 PUSH2 0x79F JUMP JUMPDEST JUMPDEST PUSH2 0xAC9 JUMP JUMPDEST PUSH2 0xAAC DUP5 DUP5 DUP5 PUSH1 0x1 PUSH2 0x9AD JUMP JUMPDEST SWAP3 POP SWAP1 POP DUP2 DUP5 DIV DUP2 GT ISZERO PUSH2 0xAC3 JUMPI PUSH2 0xAC2 PUSH2 0x79F JUMP JUMPDEST JUMPDEST DUP2 DUP2 MUL SWAP1 POP JUMPDEST SWAP4 SWAP3 POP POP POP JUMP JUMPDEST PUSH0 PUSH2 0xADA DUP3 PUSH2 0x533 JUMP JUMPDEST SWAP2 POP PUSH2 0xAE5 DUP4 PUSH2 0x533 JUMP JUMPDEST SWAP3 POP PUSH2 0xB12 PUSH32 0xFFFFFFFFFFFFFFFFFFFFFFFFFFFFFFFFFFFFFFFFFFFFFFFFFFFFFFFFFFFFFFFF DUP5 DUP5 PUSH2 0x9FF JUMP JUMPDEST SWAP1 POP SWAP3 SWAP2 POP POP JUMP INVALID LOG2 PUSH5 0x6970667358 0x22 SLT KECCAK256 SMOD OR 0xC8 0xDB 0xFB 0xB4 0xB1 GASLIMIT ADDRESS 0xDC MSTORE 0xEF 0xC PUSH30 0x2CDB31E444BB90C552CD78ACC4A8C9F2E2FD64736F6C634300081A003300 "
				},
				"gasEstimates": {
					"creation": {
						"codeDepositCost": "579200",
						"executionCost": "611",
						"totalCost": "579811"
					},
					"external": {
						"Armstrong(uint256)": "infinite",
						"factorial(uint256)": "infinite",
						"fibonacci(uint256,uint256)": "infinite",
						"max(uint256,uint256)": "infinite",
						"min(uint256,uint256)": "infinite"
					}
				},
				"methodIdentifiers": {
					"Armstrong(uint256)": "a1abcfca",
					"factorial(uint256)": "83714834",
					"fibonacci(uint256,uint256)": "421ec765",
					"max(uint256,uint256)": "6d5433e6",
					"min(uint256,uint256)": "7ae2b5c7"
				}
			},
			"storageLayout": {
				"storage": [],
				"types": null
			},
			"userdoc": {
				"kind": "user",
				"methods": {},
				"version": 1
			}
		}
	}
}