{
	"Practice/Day-07/P2.sol": {
		"Calculator": {
			"abi": [
				{
					"inputs": [
						{
							"internalType": "int256",
							"name": "n",
							"type": "int256"
						}
					],
					"name": "abs",
					"outputs": [
						{
							"internalType": "uint256",
							"name": "",
							"type": "uint256"
						}
					],
					"stateMutability": "pure",
					"type": "function"
				},
				{
					"inputs": [
						{
							"internalType": "uint256",
							"name": "a",
							"type": "uint256"
						},
						{
							"internalType": "uint256",
							"name": "b",
							"type": "uint256"
						}
					],
					"name": "add",
					"outputs": [
						{
							"internalType": "uint256",
							"name": "",
							"type": "uint256"
						}
					],
					"stateMutability": "pure",
					"type": "function"
				},
				{
					"inputs": [
						{
							"internalType": "uint256",
							"name": "a",
							"type": "uint256"
						},
						{
							"internalType": "uint256",
							"name": "b",
							"type": "uint256"
						}
					],
					"name": "divide",
					"outputs": [
						{
							"internalType": "uint256",
							"name": "",
							"type": "uint256"
						}
					],
					"stateMutability": "pure",
					"type": "function"
				},
				{
					"inputs": [
						{
							"internalType": "uint256",
							"name": "a",
							"type": "uint256"
						},
						{
							"internalType": "uint256",
							"name": "b",
							"type": "uint256"
						}
					],
					"name": "mod",
					"outputs": [
						{
							"internalType": "uint256",
							"name": "",
							"type": "uint256"
						}
					],
					"stateMutability": "pure",
					"type": "function"
				},
				{
					"inputs": [
						{
							"internalType": "uint256",
							"name": "a",
							"type": "uint256"
						},
						{
							"internalType": "uint256",
							"name": "b",
							"type": "uint256"
						}
					],
					"name": "multiply",
					"outputs": [
						{
							"internalType": "uint256",
							"name": "",
							"type": "uint256"
						}
					],
					"stateMutability": "pure",
					"type": "function"
				},
				{
					"inputs": [
						{
							"internalType": "uint256",
							"name": "a",
							"type": "uint256"
						},
						{
							"internalType": "uint256",
							"name": "b",
							"type": "uint256"
						}
					],
					"name": "pow",
					"outputs": [
						{
							"internalType": "uint256",
							"name": "",
							"type": "uint256"
						}
					],
					"stateMutability": "pure",
					"type": "function"
				},
				{
					"inputs": [
						{
							"internalType": "uint256",
							"name": "n",
							"type": "uint256"
						}
					],
					"name": "sqrt",
					"outputs": [
						{
							"internalType": "uint256",
							"name": "",
							"type": "uint256"
						}
					],
					"stateMutability": "pure",
					"type": "function"
				},
				{
					"inputs": [
						{
							"internalType": "uint256",
							"name": "a",
							"type": "uint256"
						},
						{
							"internalType": "uint256",
							"name": "b",
							"type": "uint256"
						}
					],
					"name": "subtract",
					"outputs": [
						{
							"internalType": "uint256",
							"name": "",
							"type": "uint256"
						}
					],
					"stateMutability": "pure",
					"type": "function"
				}
			],
			"devdoc": {
				"kind": "dev",
				"methods": {},
				"version": 1
			},
			"evm": {
				"assembly": "    /* \"Practice/Day-07/P2.sol\":85:1014  contract Calculator {... */\n  mstore(0x40, 0x80)\n  callvalue\n  dup1\n  iszero\n  tag_1\n  jumpi\n  0x00\n  dup1\n  revert\ntag_1:\n  pop\n  dataSize(sub_0)\n  dup1\n  dataOffset(sub_0)\n  0x00\n  codecopy\n  0x00\n  return\nstop\n\nsub_0: assembly {\n        /* \"Practice/Day-07/P2.sol\":85:1014  contract Calculator {... */\n      mstore(0x40, 0x80)\n      callvalue\n      dup1\n      iszero\n      tag_1\n      jumpi\n      0x00\n      dup1\n      revert\n    tag_1:\n      pop\n      jumpi(tag_2, lt(calldatasize, 0x04))\n      shr(0xe0, calldataload(0x00))\n      dup1\n      0x677342ce\n      gt\n      tag_11\n      jumpi\n      dup1\n      0x677342ce\n      eq\n      tag_7\n      jumpi\n      dup1\n      0x771602f7\n      eq\n      tag_8\n      jumpi\n      dup1\n      0xf43f523a\n      eq\n      tag_9\n      jumpi\n      dup1\n      0xf88e9fbf\n      eq\n      tag_10\n      jumpi\n      jump(tag_2)\n    tag_11:\n      dup1\n      0x165c4a16\n      eq\n      tag_3\n      jumpi\n      dup1\n      0x1b5ac4b5\n      eq\n      tag_4\n      jumpi\n      dup1\n      0x2e4c697f\n      eq\n      tag_5\n      jumpi\n      dup1\n      0x3ef5e445\n      eq\n      tag_6\n      jumpi\n    tag_2:\n      0x00\n      dup1\n      revert\n        /* \"Practice/Day-07/P2.sol\":405:509  function multiply(uint a, uint b) public pure returns(uint) {... */\n    tag_3:\n      tag_12\n      0x04\n      dup1\n      calldatasize\n      sub\n      dup2\n      add\n      swap1\n      tag_13\n      swap2\n      swap1\n      tag_14\n      jump\t// in\n    tag_13:\n      tag_15\n      jump\t// in\n    tag_12:\n      mload(0x40)\n      tag_16\n      swap2\n      swap1\n      tag_17\n      jump\t// in\n    tag_16:\n      mload(0x40)\n      dup1\n      swap2\n      sub\n      swap1\n      return\n        /* \"Practice/Day-07/P2.sol\":825:908  function abs(int n) public pure returns(uint) {... */\n    tag_4:\n      tag_18\n      0x04\n      dup1\n      calldatasize\n      sub\n      dup2\n      add\n      swap1\n      tag_19\n      swap2\n      swap1\n      tag_20\n      jump\t// in\n    tag_19:\n      tag_21\n      jump\t// in\n    tag_18:\n      mload(0x40)\n      tag_22\n      swap2\n      swap1\n      tag_17\n      jump\t// in\n    tag_22:\n      mload(0x40)\n      dup1\n      swap2\n      sub\n      swap1\n      return\n        /* \"Practice/Day-07/P2.sol\":916:1011  function pow(uint a , uint b) public pure returns(uint) {... */\n    tag_5:\n      tag_23\n      0x04\n      dup1\n      calldatasize\n      sub\n      dup2\n      add\n      swap1\n      tag_24\n      swap2\n      swap1\n      tag_14\n      jump\t// in\n    tag_24:\n      tag_25\n      jump\t// in\n    tag_23:\n      mload(0x40)\n      tag_26\n      swap2\n      swap1\n      tag_17\n      jump\t// in\n    tag_26:\n      mload(0x40)\n      dup1\n      swap2\n      sub\n      swap1\n      return\n        /* \"Practice/Day-07/P2.sol\":242:397  function subtract(uint a, uint b) public pure returns(uint) {... */\n    tag_6:\n      tag_27\n      0x04\n      dup1\n      calldatasize\n      sub\n      dup2\n      add\n      swap1\n      tag_28\n      swap2\n      swap1\n      tag_14\n      jump\t// in\n    tag_28:\n      tag_29\n      jump\t// in\n    tag_27:\n      mload(0x40)\n      tag_30\n      swap2\n      swap1\n      tag_17\n      jump\t// in\n    tag_30:\n      mload(0x40)\n      dup1\n      swap2\n      sub\n      swap1\n      return\n        /* \"Practice/Day-07/P2.sol\":727:813  function sqrt(uint n) public pure returns(uint) {... */\n    tag_7:\n      tag_31\n      0x04\n      dup1\n      calldatasize\n      sub\n      dup2\n      add\n      swap1\n      tag_32\n      swap2\n      swap1\n      tag_33\n      jump\t// in\n    tag_32:\n      tag_34\n      jump\t// in\n    tag_31:\n      mload(0x40)\n      tag_35\n      swap2\n      swap1\n      tag_17\n      jump\t// in\n    tag_35:\n      mload(0x40)\n      dup1\n      swap2\n      sub\n      swap1\n      return\n        /* \"Practice/Day-07/P2.sol\":140:234  function add(uint a, uint b) public pure returns(uint) {... */\n    tag_8:\n      tag_36\n      0x04\n      dup1\n      calldatasize\n      sub\n      dup2\n      add\n      swap1\n      tag_37\n      swap2\n      swap1\n      tag_14\n      jump\t// in\n    tag_37:\n      tag_38\n      jump\t// in\n    tag_36:\n      mload(0x40)\n      tag_39\n      swap2\n      swap1\n      tag_17\n      jump\t// in\n    tag_39:\n      mload(0x40)\n      dup1\n      swap2\n      sub\n      swap1\n      return\n        /* \"Practice/Day-07/P2.sol\":625:719  function mod(uint a, uint b) public pure returns(uint) {... */\n    tag_9:\n      tag_40\n      0x04\n      dup1\n      calldatasize\n      sub\n      dup2\n      add\n      swap1\n      tag_41\n      swap2\n      swap1\n      tag_14\n      jump\t// in\n    tag_41:\n      tag_42\n      jump\t// in\n    tag_40:\n      mload(0x40)\n      tag_43\n      swap2\n      swap1\n      tag_17\n      jump\t// in\n    tag_43:\n      mload(0x40)\n      dup1\n      swap2\n      sub\n      swap1\n      return\n        /* \"Practice/Day-07/P2.sol\":517:617  function divide(uint a, uint b) public pure returns(uint) {... */\n    tag_10:\n      tag_44\n      0x04\n      dup1\n      calldatasize\n      sub\n      dup2\n      add\n      swap1\n      tag_45\n      swap2\n      swap1\n      tag_14\n      jump\t// in\n    tag_45:\n      tag_46\n      jump\t// in\n    tag_44:\n      mload(0x40)\n      tag_47\n      swap2\n      swap1\n      tag_17\n      jump\t// in\n    tag_47:\n      mload(0x40)\n      dup1\n      swap2\n      sub\n      swap1\n      return\n        /* \"Practice/Day-07/P2.sol\":405:509  function multiply(uint a, uint b) public pure returns(uint) {... */\n    tag_15:\n        /* \"Practice/Day-07/P2.sol\":459:463  uint */\n      0x00\n        /* \"Practice/Day-07/P2.sol\":483:501  Math.multiply(a,b) */\n      tag_49\n        /* \"Practice/Day-07/P2.sol\":497:498  a */\n      dup4\n        /* \"Practice/Day-07/P2.sol\":499:500  b */\n      dup4\n        /* \"Practice/Day-07/P2.sol\":483:496  Math.multiply */\n      tag_50\n        /* \"Practice/Day-07/P2.sol\":483:501  Math.multiply(a,b) */\n      jump\t// in\n    tag_49:\n        /* \"Practice/Day-07/P2.sol\":476:501  return Math.multiply(a,b) */\n      swap1\n      pop\n        /* \"Practice/Day-07/P2.sol\":405:509  function multiply(uint a, uint b) public pure returns(uint) {... */\n      swap3\n      swap2\n      pop\n      pop\n      jump\t// out\n        /* \"Practice/Day-07/P2.sol\":825:908  function abs(int n) public pure returns(uint) {... */\n    tag_21:\n        /* \"Practice/Day-07/P2.sol\":865:869  uint */\n      0x00\n        /* \"Practice/Day-07/P2.sol\":889:900  Math.abs(n) */\n      tag_52\n        /* \"Practice/Day-07/P2.sol\":898:899  n */\n      dup3\n        /* \"Practice/Day-07/P2.sol\":889:897  Math.abs */\n      tag_53\n        /* \"Practice/Day-07/P2.sol\":889:900  Math.abs(n) */\n      jump\t// in\n    tag_52:\n        /* \"Practice/Day-07/P2.sol\":882:900  return Math.abs(n) */\n      swap1\n      pop\n        /* \"Practice/Day-07/P2.sol\":825:908  function abs(int n) public pure returns(uint) {... */\n      swap2\n      swap1\n      pop\n      jump\t// out\n        /* \"Practice/Day-07/P2.sol\":916:1011  function pow(uint a , uint b) public pure returns(uint) {... */\n    tag_25:\n        /* \"Practice/Day-07/P2.sol\":966:970  uint */\n      0x00\n        /* \"Practice/Day-07/P2.sol\":990:1003  Math.pow(a,b) */\n      tag_55\n        /* \"Practice/Day-07/P2.sol\":999:1000  a */\n      dup4\n        /* \"Practice/Day-07/P2.sol\":1001:1002  b */\n      dup4\n        /* \"Practice/Day-07/P2.sol\":990:998  Math.pow */\n      tag_56\n        /* \"Practice/Day-07/P2.sol\":990:1003  Math.pow(a,b) */\n      jump\t// in\n    tag_55:\n        /* \"Practice/Day-07/P2.sol\":983:1003  return Math.pow(a,b) */\n      swap1\n      pop\n        /* \"Practice/Day-07/P2.sol\":916:1011  function pow(uint a , uint b) public pure returns(uint) {... */\n      swap3\n      swap2\n      pop\n      pop\n      jump\t// out\n        /* \"Practice/Day-07/P2.sol\":242:397  function subtract(uint a, uint b) public pure returns(uint) {... */\n    tag_29:\n        /* \"Practice/Day-07/P2.sol\":296:300  uint */\n      0x00\n        /* \"Practice/Day-07/P2.sol\":326:327  b */\n      dup2\n        /* \"Practice/Day-07/P2.sol\":321:322  a */\n      dup4\n        /* \"Practice/Day-07/P2.sol\":321:327  a >= b */\n      lt\n      iszero\n        /* \"Practice/Day-07/P2.sol\":313:353  require(a >= b, \"Subtraction underflow\") */\n      tag_58\n      jumpi\n      mload(0x40)\n      0x08c379a000000000000000000000000000000000000000000000000000000000\n      dup2\n      mstore\n      0x04\n      add\n      tag_59\n      swap1\n      tag_60\n      jump\t// in\n    tag_59:\n      mload(0x40)\n      dup1\n      swap2\n      sub\n      swap1\n      revert\n    tag_58:\n        /* \"Practice/Day-07/P2.sol\":371:389  Math.subtract(a,b) */\n      tag_61\n        /* \"Practice/Day-07/P2.sol\":385:386  a */\n      dup4\n        /* \"Practice/Day-07/P2.sol\":387:388  b */\n      dup4\n        /* \"Practice/Day-07/P2.sol\":371:384  Math.subtract */\n      tag_62\n        /* \"Practice/Day-07/P2.sol\":371:389  Math.subtract(a,b) */\n      jump\t// in\n    tag_61:\n        /* \"Practice/Day-07/P2.sol\":364:389  return Math.subtract(a,b) */\n      swap1\n      pop\n        /* \"Practice/Day-07/P2.sol\":242:397  function subtract(uint a, uint b) public pure returns(uint) {... */\n      swap3\n      swap2\n      pop\n      pop\n      jump\t// out\n        /* \"Practice/Day-07/P2.sol\":727:813  function sqrt(uint n) public pure returns(uint) {... */\n    tag_34:\n        /* \"Practice/Day-07/P2.sol\":769:773  uint */\n      0x00\n        /* \"Practice/Day-07/P2.sol\":793:805  Math.sqrt(n) */\n      tag_64\n        /* \"Practice/Day-07/P2.sol\":803:804  n */\n      dup3\n        /* \"Practice/Day-07/P2.sol\":793:802  Math.sqrt */\n      tag_65\n        /* \"Practice/Day-07/P2.sol\":793:805  Math.sqrt(n) */\n      jump\t// in\n    tag_64:\n        /* \"Practice/Day-07/P2.sol\":786:805  return Math.sqrt(n) */\n      swap1\n      pop\n        /* \"Practice/Day-07/P2.sol\":727:813  function sqrt(uint n) public pure returns(uint) {... */\n      swap2\n      swap1\n      pop\n      jump\t// out\n        /* \"Practice/Day-07/P2.sol\":140:234  function add(uint a, uint b) public pure returns(uint) {... */\n    tag_38:\n        /* \"Practice/Day-07/P2.sol\":189:193  uint */\n      0x00\n        /* \"Practice/Day-07/P2.sol\":213:226  Math.add(a,b) */\n      tag_67\n        /* \"Practice/Day-07/P2.sol\":222:223  a */\n      dup4\n        /* \"Practice/Day-07/P2.sol\":224:225  b */\n      dup4\n        /* \"Practice/Day-07/P2.sol\":213:221  Math.add */\n      tag_68\n        /* \"Practice/Day-07/P2.sol\":213:226  Math.add(a,b) */\n      jump\t// in\n    tag_67:\n        /* \"Practice/Day-07/P2.sol\":206:226  return Math.add(a,b) */\n      swap1\n      pop\n        /* \"Practice/Day-07/P2.sol\":140:234  function add(uint a, uint b) public pure returns(uint) {... */\n      swap3\n      swap2\n      pop\n      pop\n      jump\t// out\n        /* \"Practice/Day-07/P2.sol\":625:719  function mod(uint a, uint b) public pure returns(uint) {... */\n    tag_42:\n        /* \"Practice/Day-07/P2.sol\":674:678  uint */\n      0x00\n        /* \"Practice/Day-07/P2.sol\":698:711  Math.mod(a,b) */\n      tag_70\n        /* \"Practice/Day-07/P2.sol\":707:708  a */\n      dup4\n        /* \"Practice/Day-07/P2.sol\":709:710  b */\n      dup4\n        /* \"Practice/Day-07/P2.sol\":698:706  Math.mod */\n      tag_71\n        /* \"Practice/Day-07/P2.sol\":698:711  Math.mod(a,b) */\n      jump\t// in\n    tag_70:\n        /* \"Practice/Day-07/P2.sol\":691:711  return Math.mod(a,b) */\n      swap1\n      pop\n        /* \"Practice/Day-07/P2.sol\":625:719  function mod(uint a, uint b) public pure returns(uint) {... */\n      swap3\n      swap2\n      pop\n      pop\n      jump\t// out\n        /* \"Practice/Day-07/P2.sol\":517:617  function divide(uint a, uint b) public pure returns(uint) {... */\n    tag_46:\n        /* \"Practice/Day-07/P2.sol\":569:573  uint */\n      0x00\n        /* \"Practice/Day-07/P2.sol\":593:609  Math.divide(a,b) */\n      tag_73\n        /* \"Practice/Day-07/P2.sol\":605:606  a */\n      dup4\n        /* \"Practice/Day-07/P2.sol\":607:608  b */\n      dup4\n        /* \"Practice/Day-07/P2.sol\":593:604  Math.divide */\n      tag_74\n        /* \"Practice/Day-07/P2.sol\":593:609  Math.divide(a,b) */\n      jump\t// in\n    tag_73:\n        /* \"Practice/Day-07/P2.sol\":586:609  return Math.divide(a,b) */\n      swap1\n      pop\n        /* \"Practice/Day-07/P2.sol\":517:617  function divide(uint a, uint b) public pure returns(uint) {... */\n      swap3\n      swap2\n      pop\n      pop\n      jump\t// out\n        /* \"Practice/Day-07/Math.sol\":329:422  function multiply(uint a, uint b) internal pure returns(uint) {... */\n    tag_50:\n        /* \"Practice/Day-07/Math.sol\":385:389  uint */\n      0x00\n        /* \"Practice/Day-07/Math.sol\":413:414  b */\n      dup2\n        /* \"Practice/Day-07/Math.sol\":409:410  a */\n      dup4\n        /* \"Practice/Day-07/Math.sol\":409:414  a * b */\n      tag_76\n      swap2\n      swap1\n      tag_77\n      jump\t// in\n    tag_76:\n        /* \"Practice/Day-07/Math.sol\":402:414  return a * b */\n      swap1\n      pop\n        /* \"Practice/Day-07/Math.sol\":329:422  function multiply(uint a, uint b) internal pure returns(uint) {... */\n      swap3\n      swap2\n      pop\n      pop\n      jump\t// out\n        /* \"Practice/Day-07/Math.sol\":975:1069  function abs(int n) internal pure returns(uint) {... */\n    tag_53:\n        /* \"Practice/Day-07/Math.sol\":1017:1021  uint */\n      0x00\n        /* \"Practice/Day-07/Math.sol\":1050:1051  0 */\n      dup1\n        /* \"Practice/Day-07/Math.sol\":1046:1047  n */\n      dup3\n        /* \"Practice/Day-07/Math.sol\":1046:1051  n > 0 */\n      sgt\n        /* \"Practice/Day-07/Math.sol\":1046:1060  n > 0 ? n : -n */\n      tag_79\n      jumpi\n        /* \"Practice/Day-07/Math.sol\":1059:1060  n */\n      dup2\n        /* \"Practice/Day-07/Math.sol\":1058:1060  -n */\n      tag_80\n      swap1\n      tag_81\n      jump\t// in\n    tag_80:\n        /* \"Practice/Day-07/Math.sol\":1046:1060  n > 0 ? n : -n */\n      jump(tag_82)\n    tag_79:\n        /* \"Practice/Day-07/Math.sol\":1054:1055  n */\n      dup2\n        /* \"Practice/Day-07/Math.sol\":1046:1060  n > 0 ? n : -n */\n    tag_82:\n        /* \"Practice/Day-07/Math.sol\":1034:1061  return uint(n > 0 ? n : -n) */\n      swap1\n      pop\n        /* \"Practice/Day-07/Math.sol\":975:1069  function abs(int n) internal pure returns(uint) {... */\n      swap2\n      swap1\n      pop\n      jump\t// out\n        /* \"Practice/Day-07/Math.sol\":1077:1285  function pow(uint a , uint b) internal pure returns(uint) {... */\n    tag_56:\n        /* \"Practice/Day-07/Math.sol\":1129:1133  uint */\n      0x00\n        /* \"Practice/Day-07/Math.sol\":1154:1155  0 */\n      dup1\n        /* \"Practice/Day-07/Math.sol\":1149:1150  b */\n      dup3\n        /* \"Practice/Day-07/Math.sol\":1149:1155  b == 0 */\n      sub\n        /* \"Practice/Day-07/Math.sol\":1146:1165  if(b == 0) return 1 */\n      tag_84\n      jumpi\n        /* \"Practice/Day-07/Math.sol\":1164:1165  1 */\n      0x01\n        /* \"Practice/Day-07/Math.sol\":1157:1165  return 1 */\n      swap1\n      pop\n      jump(tag_83)\n        /* \"Practice/Day-07/Math.sol\":1146:1165  if(b == 0) return 1 */\n    tag_84:\n        /* \"Practice/Day-07/Math.sol\":1176:1182  uint p */\n      0x00\n        /* \"Practice/Day-07/Math.sol\":1185:1186  1 */\n      0x01\n        /* \"Practice/Day-07/Math.sol\":1176:1186  uint p = 1 */\n      swap1\n      pop\n        /* \"Practice/Day-07/Math.sol\":1201:1207  uint i */\n      0x00\n        /* \"Practice/Day-07/Math.sol\":1210:1211  1 */\n      0x01\n        /* \"Practice/Day-07/Math.sol\":1201:1211  uint i = 1 */\n      swap1\n      pop\n        /* \"Practice/Day-07/Math.sol\":1197:1259  for(uint i = 1; i <= b; i++) {... */\n    tag_85:\n        /* \"Practice/Day-07/Math.sol\":1218:1219  b */\n      dup4\n        /* \"Practice/Day-07/Math.sol\":1213:1214  i */\n      dup2\n        /* \"Practice/Day-07/Math.sol\":1213:1219  i <= b */\n      gt\n        /* \"Practice/Day-07/Math.sol\":1197:1259  for(uint i = 1; i <= b; i++) {... */\n      tag_86\n      jumpi\n        /* \"Practice/Day-07/Math.sol\":1246:1247  a */\n      dup5\n        /* \"Practice/Day-07/Math.sol\":1241:1247  p *= a */\n      dup3\n      tag_88\n      swap2\n      swap1\n      tag_77\n      jump\t// in\n    tag_88:\n      swap2\n      pop\n        /* \"Practice/Day-07/Math.sol\":1221:1224  i++ */\n      dup1\n      dup1\n      tag_89\n      swap1\n      tag_90\n      jump\t// in\n    tag_89:\n      swap2\n      pop\n      pop\n        /* \"Practice/Day-07/Math.sol\":1197:1259  for(uint i = 1; i <= b; i++) {... */\n      jump(tag_85)\n    tag_86:\n      pop\n        /* \"Practice/Day-07/Math.sol\":1276:1277  p */\n      dup1\n        /* \"Practice/Day-07/Math.sol\":1269:1277  return p */\n      swap2\n      pop\n      pop\n        /* \"Practice/Day-07/Math.sol\":1077:1285  function pow(uint a , uint b) internal pure returns(uint) {... */\n    tag_83:\n      swap3\n      swap2\n      pop\n      pop\n      jump\t// out\n        /* \"Practice/Day-07/Math.sol\":177:321  function subtract(uint a, uint b) internal pure returns(uint) {... */\n    tag_62:\n        /* \"Practice/Day-07/Math.sol\":233:237  uint */\n      0x00\n        /* \"Practice/Day-07/Math.sol\":263:264  b */\n      dup2\n        /* \"Practice/Day-07/Math.sol\":258:259  a */\n      dup4\n        /* \"Practice/Day-07/Math.sol\":258:264  a >= b */\n      lt\n      iszero\n        /* \"Practice/Day-07/Math.sol\":250:290  require(a >= b, \"Subtraction underflow\") */\n      tag_92\n      jumpi\n      mload(0x40)\n      0x08c379a000000000000000000000000000000000000000000000000000000000\n      dup2\n      mstore\n      0x04\n      add\n      tag_93\n      swap1\n      tag_60\n      jump\t// in\n    tag_93:\n      mload(0x40)\n      dup1\n      swap2\n      sub\n      swap1\n      revert\n    tag_92:\n        /* \"Practice/Day-07/Math.sol\":312:313  b */\n      dup2\n        /* \"Practice/Day-07/Math.sol\":308:309  a */\n      dup4\n        /* \"Practice/Day-07/Math.sol\":308:313  a - b */\n      tag_94\n      swap2\n      swap1\n      tag_95\n      jump\t// in\n    tag_94:\n        /* \"Practice/Day-07/Math.sol\":301:313  return a - b */\n      swap1\n      pop\n        /* \"Practice/Day-07/Math.sol\":177:321  function subtract(uint a, uint b) internal pure returns(uint) {... */\n      swap3\n      swap2\n      pop\n      pop\n      jump\t// out\n        /* \"Practice/Day-07/Math.sol\":715:963  function sqrt(uint n) internal pure returns(uint) {... */\n    tag_65:\n        /* \"Practice/Day-07/Math.sol\":759:763  uint */\n      0x00\n        /* \"Practice/Day-07/Math.sol\":784:785  0 */\n      dup1\n        /* \"Practice/Day-07/Math.sol\":779:780  n */\n      dup3\n        /* \"Practice/Day-07/Math.sol\":779:785  n == 0 */\n      sub\n        /* \"Practice/Day-07/Math.sol\":776:795  if(n == 0) return 0 */\n      tag_97\n      jumpi\n        /* \"Practice/Day-07/Math.sol\":794:795  0 */\n      0x00\n        /* \"Practice/Day-07/Math.sol\":787:795  return 0 */\n      swap1\n      pop\n      jump(tag_96)\n        /* \"Practice/Day-07/Math.sol\":776:795  if(n == 0) return 0 */\n    tag_97:\n        /* \"Practice/Day-07/Math.sol\":806:812  uint z */\n      0x00\n        /* \"Practice/Day-07/Math.sol\":825:826  2 */\n      0x02\n        /* \"Practice/Day-07/Math.sol\":820:821  1 */\n      0x01\n        /* \"Practice/Day-07/Math.sol\":816:817  n */\n      dup5\n        /* \"Practice/Day-07/Math.sol\":816:821  n + 1 */\n      tag_98\n      swap2\n      swap1\n      tag_99\n      jump\t// in\n    tag_98:\n        /* \"Practice/Day-07/Math.sol\":815:826  (n + 1) / 2 */\n      tag_100\n      swap2\n      swap1\n      tag_101\n      jump\t// in\n    tag_100:\n        /* \"Practice/Day-07/Math.sol\":806:826  uint z = (n + 1) / 2 */\n      swap1\n      pop\n        /* \"Practice/Day-07/Math.sol\":837:843  uint y */\n      0x00\n        /* \"Practice/Day-07/Math.sol\":846:847  n */\n      dup4\n        /* \"Practice/Day-07/Math.sol\":837:847  uint y = n */\n      swap1\n      pop\n        /* \"Practice/Day-07/Math.sol\":858:937  while(z < y) {... */\n    tag_102:\n        /* \"Practice/Day-07/Math.sol\":868:869  y */\n      dup1\n        /* \"Practice/Day-07/Math.sol\":864:865  z */\n      dup3\n        /* \"Practice/Day-07/Math.sol\":864:869  z < y */\n      lt\n        /* \"Practice/Day-07/Math.sol\":858:937  while(z < y) {... */\n      iszero\n      tag_103\n      jumpi\n        /* \"Practice/Day-07/Math.sol\":890:891  z */\n      dup2\n        /* \"Practice/Day-07/Math.sol\":886:891  y = z */\n      swap1\n      pop\n        /* \"Practice/Day-07/Math.sol\":924:925  2 */\n      0x02\n        /* \"Practice/Day-07/Math.sol\":919:920  z */\n      dup3\n        /* \"Practice/Day-07/Math.sol\":915:916  z */\n      dup4\n        /* \"Practice/Day-07/Math.sol\":911:912  n */\n      dup7\n        /* \"Practice/Day-07/Math.sol\":911:916  n / z */\n      tag_104\n      swap2\n      swap1\n      tag_101\n      jump\t// in\n    tag_104:\n        /* \"Practice/Day-07/Math.sol\":911:920  n / z + z */\n      tag_105\n      swap2\n      swap1\n      tag_99\n      jump\t// in\n    tag_105:\n        /* \"Practice/Day-07/Math.sol\":910:925  (n / z + z) / 2 */\n      tag_106\n      swap2\n      swap1\n      tag_101\n      jump\t// in\n    tag_106:\n        /* \"Practice/Day-07/Math.sol\":906:925  z = (n / z + z) / 2 */\n      swap2\n      pop\n        /* \"Practice/Day-07/Math.sol\":858:937  while(z < y) {... */\n      jump(tag_102)\n    tag_103:\n        /* \"Practice/Day-07/Math.sol\":954:955  y */\n      dup1\n        /* \"Practice/Day-07/Math.sol\":947:955  return y */\n      swap3\n      pop\n      pop\n      pop\n        /* \"Practice/Day-07/Math.sol\":715:963  function sqrt(uint n) internal pure returns(uint) {... */\n    tag_96:\n      swap2\n      swap1\n      pop\n      jump\t// out\n        /* \"Practice/Day-07/Math.sol\":81:169  function add(uint a, uint b) internal pure returns(uint) {... */\n    tag_68:\n        /* \"Practice/Day-07/Math.sol\":132:136  uint */\n      0x00\n        /* \"Practice/Day-07/Math.sol\":160:161  b */\n      dup2\n        /* \"Practice/Day-07/Math.sol\":156:157  a */\n      dup4\n        /* \"Practice/Day-07/Math.sol\":156:161  a + b */\n      tag_108\n      swap2\n      swap1\n      tag_99\n      jump\t// in\n    tag_108:\n        /* \"Practice/Day-07/Math.sol\":149:161  return a + b */\n      swap1\n      pop\n        /* \"Practice/Day-07/Math.sol\":81:169  function add(uint a, uint b) internal pure returns(uint) {... */\n      swap3\n      swap2\n      pop\n      pop\n      jump\t// out\n        /* \"Practice/Day-07/Math.sol\":575:707  function mod(uint a, uint b) internal pure returns(uint) {... */\n    tag_71:\n        /* \"Practice/Day-07/Math.sol\":626:630  uint */\n      0x00\n        /* \"Practice/Day-07/Math.sol\":656:657  0 */\n      dup1\n        /* \"Practice/Day-07/Math.sol\":651:652  b */\n      dup3\n        /* \"Practice/Day-07/Math.sol\":651:657  b != 0 */\n      sub\n        /* \"Practice/Day-07/Math.sol\":643:676  require(b != 0, \"Modulo by zero\") */\n      tag_110\n      jumpi\n      mload(0x40)\n      0x08c379a000000000000000000000000000000000000000000000000000000000\n      dup2\n      mstore\n      0x04\n      add\n      tag_111\n      swap1\n      tag_112\n      jump\t// in\n    tag_111:\n      mload(0x40)\n      dup1\n      swap2\n      sub\n      swap1\n      revert\n    tag_110:\n        /* \"Practice/Day-07/Math.sol\":698:699  b */\n      dup2\n        /* \"Practice/Day-07/Math.sol\":694:695  a */\n      dup4\n        /* \"Practice/Day-07/Math.sol\":694:699  a % b */\n      tag_113\n      swap2\n      swap1\n      tag_114\n      jump\t// in\n    tag_113:\n        /* \"Practice/Day-07/Math.sol\":687:699  return a % b */\n      swap1\n      pop\n        /* \"Practice/Day-07/Math.sol\":575:707  function mod(uint a, uint b) internal pure returns(uint) {... */\n      swap3\n      swap2\n      pop\n      pop\n      jump\t// out\n        /* \"Practice/Day-07/Math.sol\":430:567  function divide(uint a, uint b) internal pure returns(uint) {... */\n    tag_74:\n        /* \"Practice/Day-07/Math.sol\":484:488  uint */\n      0x00\n        /* \"Practice/Day-07/Math.sol\":514:515  0 */\n      dup1\n        /* \"Practice/Day-07/Math.sol\":509:510  b */\n      dup3\n        /* \"Practice/Day-07/Math.sol\":509:515  b != 0 */\n      sub\n        /* \"Practice/Day-07/Math.sol\":501:536  require(b != 0, \"Division by zero\") */\n      tag_116\n      jumpi\n      mload(0x40)\n      0x08c379a000000000000000000000000000000000000000000000000000000000\n      dup2\n      mstore\n      0x04\n      add\n      tag_117\n      swap1\n      tag_118\n      jump\t// in\n    tag_117:\n      mload(0x40)\n      dup1\n      swap2\n      sub\n      swap1\n      revert\n    tag_116:\n        /* \"Practice/Day-07/Math.sol\":558:559  b */\n      dup2\n        /* \"Practice/Day-07/Math.sol\":554:555  a */\n      dup4\n        /* \"Practice/Day-07/Math.sol\":554:559  a / b */\n      tag_119\n      swap2\n      swap1\n      tag_101\n      jump\t// in\n    tag_119:\n        /* \"Practice/Day-07/Math.sol\":547:559  return a / b */\n      swap1\n      pop\n        /* \"Practice/Day-07/Math.sol\":430:567  function divide(uint a, uint b) internal pure returns(uint) {... */\n      swap3\n      swap2\n      pop\n      pop\n      jump\t// out\n        /* \"#utility.yul\":88:205   */\n    tag_121:\n        /* \"#utility.yul\":197:198   */\n      0x00\n        /* \"#utility.yul\":194:195   */\n      dup1\n        /* \"#utility.yul\":187:199   */\n      revert\n        /* \"#utility.yul\":334:411   */\n    tag_123:\n        /* \"#utility.yul\":371:378   */\n      0x00\n        /* \"#utility.yul\":400:405   */\n      dup2\n        /* \"#utility.yul\":389:405   */\n      swap1\n      pop\n        /* \"#utility.yul\":334:411   */\n      swap2\n      swap1\n      pop\n      jump\t// out\n        /* \"#utility.yul\":417:539   */\n    tag_124:\n        /* \"#utility.yul\":490:514   */\n      tag_145\n        /* \"#utility.yul\":508:513   */\n      dup2\n        /* \"#utility.yul\":490:514   */\n      tag_123\n      jump\t// in\n    tag_145:\n        /* \"#utility.yul\":483:488   */\n      dup2\n        /* \"#utility.yul\":480:515   */\n      eq\n        /* \"#utility.yul\":470:533   */\n      tag_146\n      jumpi\n        /* \"#utility.yul\":529:530   */\n      0x00\n        /* \"#utility.yul\":526:527   */\n      dup1\n        /* \"#utility.yul\":519:531   */\n      revert\n        /* \"#utility.yul\":470:533   */\n    tag_146:\n        /* \"#utility.yul\":417:539   */\n      pop\n      jump\t// out\n        /* \"#utility.yul\":545:684   */\n    tag_125:\n        /* \"#utility.yul\":591:596   */\n      0x00\n        /* \"#utility.yul\":629:635   */\n      dup2\n        /* \"#utility.yul\":616:636   */\n      calldataload\n        /* \"#utility.yul\":607:636   */\n      swap1\n      pop\n        /* \"#utility.yul\":645:678   */\n      tag_148\n        /* \"#utility.yul\":672:677   */\n      dup2\n        /* \"#utility.yul\":645:678   */\n      tag_124\n      jump\t// in\n    tag_148:\n        /* \"#utility.yul\":545:684   */\n      swap3\n      swap2\n      pop\n      pop\n      jump\t// out\n        /* \"#utility.yul\":690:1164   */\n    tag_14:\n        /* \"#utility.yul\":758:764   */\n      0x00\n        /* \"#utility.yul\":766:772   */\n      dup1\n        /* \"#utility.yul\":815:817   */\n      0x40\n        /* \"#utility.yul\":803:812   */\n      dup4\n        /* \"#utility.yul\":794:801   */\n      dup6\n        /* \"#utility.yul\":790:813   */\n      sub\n        /* \"#utility.yul\":786:818   */\n      slt\n        /* \"#utility.yul\":783:902   */\n      iszero\n      tag_150\n      jumpi\n        /* \"#utility.yul\":821:900   */\n      tag_151\n      tag_121\n      jump\t// in\n    tag_151:\n        /* \"#utility.yul\":783:902   */\n    tag_150:\n        /* \"#utility.yul\":941:942   */\n      0x00\n        /* \"#utility.yul\":966:1019   */\n      tag_152\n        /* \"#utility.yul\":1011:1018   */\n      dup6\n        /* \"#utility.yul\":1002:1008   */\n      dup3\n        /* \"#utility.yul\":991:1000   */\n      dup7\n        /* \"#utility.yul\":987:1009   */\n      add\n        /* \"#utility.yul\":966:1019   */\n      tag_125\n      jump\t// in\n    tag_152:\n        /* \"#utility.yul\":956:1019   */\n      swap3\n      pop\n        /* \"#utility.yul\":912:1029   */\n      pop\n        /* \"#utility.yul\":1068:1070   */\n      0x20\n        /* \"#utility.yul\":1094:1147   */\n      tag_153\n        /* \"#utility.yul\":1139:1146   */\n      dup6\n        /* \"#utility.yul\":1130:1136   */\n      dup3\n        /* \"#utility.yul\":1119:1128   */\n      dup7\n        /* \"#utility.yul\":1115:1137   */\n      add\n        /* \"#utility.yul\":1094:1147   */\n      tag_125\n      jump\t// in\n    tag_153:\n        /* \"#utility.yul\":1084:1147   */\n      swap2\n      pop\n        /* \"#utility.yul\":1039:1157   */\n      pop\n        /* \"#utility.yul\":690:1164   */\n      swap3\n      pop\n      swap3\n      swap1\n      pop\n      jump\t// out\n        /* \"#utility.yul\":1170:1288   */\n    tag_126:\n        /* \"#utility.yul\":1257:1281   */\n      tag_155\n        /* \"#utility.yul\":1275:1280   */\n      dup2\n        /* \"#utility.yul\":1257:1281   */\n      tag_123\n      jump\t// in\n    tag_155:\n        /* \"#utility.yul\":1252:1255   */\n      dup3\n        /* \"#utility.yul\":1245:1282   */\n      mstore\n        /* \"#utility.yul\":1170:1288   */\n      pop\n      pop\n      jump\t// out\n        /* \"#utility.yul\":1294:1516   */\n    tag_17:\n        /* \"#utility.yul\":1387:1391   */\n      0x00\n        /* \"#utility.yul\":1425:1427   */\n      0x20\n        /* \"#utility.yul\":1414:1423   */\n      dup3\n        /* \"#utility.yul\":1410:1428   */\n      add\n        /* \"#utility.yul\":1402:1428   */\n      swap1\n      pop\n        /* \"#utility.yul\":1438:1509   */\n      tag_157\n        /* \"#utility.yul\":1506:1507   */\n      0x00\n        /* \"#utility.yul\":1495:1504   */\n      dup4\n        /* \"#utility.yul\":1491:1508   */\n      add\n        /* \"#utility.yul\":1482:1488   */\n      dup5\n        /* \"#utility.yul\":1438:1509   */\n      tag_126\n      jump\t// in\n    tag_157:\n        /* \"#utility.yul\":1294:1516   */\n      swap3\n      swap2\n      pop\n      pop\n      jump\t// out\n        /* \"#utility.yul\":1522:1598   */\n    tag_127:\n        /* \"#utility.yul\":1558:1565   */\n      0x00\n        /* \"#utility.yul\":1587:1592   */\n      dup2\n        /* \"#utility.yul\":1576:1592   */\n      swap1\n      pop\n        /* \"#utility.yul\":1522:1598   */\n      swap2\n      swap1\n      pop\n      jump\t// out\n        /* \"#utility.yul\":1604:1724   */\n    tag_128:\n        /* \"#utility.yul\":1676:1699   */\n      tag_160\n        /* \"#utility.yul\":1693:1698   */\n      dup2\n        /* \"#utility.yul\":1676:1699   */\n      tag_127\n      jump\t// in\n    tag_160:\n        /* \"#utility.yul\":1669:1674   */\n      dup2\n        /* \"#utility.yul\":1666:1700   */\n      eq\n        /* \"#utility.yul\":1656:1718   */\n      tag_161\n      jumpi\n        /* \"#utility.yul\":1714:1715   */\n      0x00\n        /* \"#utility.yul\":1711:1712   */\n      dup1\n        /* \"#utility.yul\":1704:1716   */\n      revert\n        /* \"#utility.yul\":1656:1718   */\n    tag_161:\n        /* \"#utility.yul\":1604:1724   */\n      pop\n      jump\t// out\n        /* \"#utility.yul\":1730:1867   */\n    tag_129:\n        /* \"#utility.yul\":1775:1780   */\n      0x00\n        /* \"#utility.yul\":1813:1819   */\n      dup2\n        /* \"#utility.yul\":1800:1820   */\n      calldataload\n        /* \"#utility.yul\":1791:1820   */\n      swap1\n      pop\n        /* \"#utility.yul\":1829:1861   */\n      tag_163\n        /* \"#utility.yul\":1855:1860   */\n      dup2\n        /* \"#utility.yul\":1829:1861   */\n      tag_128\n      jump\t// in\n    tag_163:\n        /* \"#utility.yul\":1730:1867   */\n      swap3\n      swap2\n      pop\n      pop\n      jump\t// out\n        /* \"#utility.yul\":1873:2200   */\n    tag_20:\n        /* \"#utility.yul\":1931:1937   */\n      0x00\n        /* \"#utility.yul\":1980:1982   */\n      0x20\n        /* \"#utility.yul\":1968:1977   */\n      dup3\n        /* \"#utility.yul\":1959:1966   */\n      dup5\n        /* \"#utility.yul\":1955:1978   */\n      sub\n        /* \"#utility.yul\":1951:1983   */\n      slt\n        /* \"#utility.yul\":1948:2067   */\n      iszero\n      tag_165\n      jumpi\n        /* \"#utility.yul\":1986:2065   */\n      tag_166\n      tag_121\n      jump\t// in\n    tag_166:\n        /* \"#utility.yul\":1948:2067   */\n    tag_165:\n        /* \"#utility.yul\":2106:2107   */\n      0x00\n        /* \"#utility.yul\":2131:2183   */\n      tag_167\n        /* \"#utility.yul\":2175:2182   */\n      dup5\n        /* \"#utility.yul\":2166:2172   */\n      dup3\n        /* \"#utility.yul\":2155:2164   */\n      dup6\n        /* \"#utility.yul\":2151:2173   */\n      add\n        /* \"#utility.yul\":2131:2183   */\n      tag_129\n      jump\t// in\n    tag_167:\n        /* \"#utility.yul\":2121:2183   */\n      swap2\n      pop\n        /* \"#utility.yul\":2077:2193   */\n      pop\n        /* \"#utility.yul\":1873:2200   */\n      swap3\n      swap2\n      pop\n      pop\n      jump\t// out\n        /* \"#utility.yul\":2206:2535   */\n    tag_33:\n        /* \"#utility.yul\":2265:2271   */\n      0x00\n        /* \"#utility.yul\":2314:2316   */\n      0x20\n        /* \"#utility.yul\":2302:2311   */\n      dup3\n        /* \"#utility.yul\":2293:2300   */\n      dup5\n        /* \"#utility.yul\":2289:2312   */\n      sub\n        /* \"#utility.yul\":2285:2317   */\n      slt\n        /* \"#utility.yul\":2282:2401   */\n      iszero\n      tag_169\n      jumpi\n        /* \"#utility.yul\":2320:2399   */\n      tag_170\n      tag_121\n      jump\t// in\n    tag_170:\n        /* \"#utility.yul\":2282:2401   */\n    tag_169:\n        /* \"#utility.yul\":2440:2441   */\n      0x00\n        /* \"#utility.yul\":2465:2518   */\n      tag_171\n        /* \"#utility.yul\":2510:2517   */\n      dup5\n        /* \"#utility.yul\":2501:2507   */\n      dup3\n        /* \"#utility.yul\":2490:2499   */\n      dup6\n        /* \"#utility.yul\":2486:2508   */\n      add\n        /* \"#utility.yul\":2465:2518   */\n      tag_125\n      jump\t// in\n    tag_171:\n        /* \"#utility.yul\":2455:2518   */\n      swap2\n      pop\n        /* \"#utility.yul\":2411:2528   */\n      pop\n        /* \"#utility.yul\":2206:2535   */\n      swap3\n      swap2\n      pop\n      pop\n      jump\t// out\n        /* \"#utility.yul\":2541:2710   */\n    tag_130:\n        /* \"#utility.yul\":2625:2636   */\n      0x00\n        /* \"#utility.yul\":2659:2665   */\n      dup3\n        /* \"#utility.yul\":2654:2657   */\n      dup3\n        /* \"#utility.yul\":2647:2666   */\n      mstore\n        /* \"#utility.yul\":2699:2703   */\n      0x20\n        /* \"#utility.yul\":2694:2697   */\n      dup3\n        /* \"#utility.yul\":2690:2704   */\n      add\n        /* \"#utility.yul\":2675:2704   */\n      swap1\n      pop\n        /* \"#utility.yul\":2541:2710   */\n      swap3\n      swap2\n      pop\n      pop\n      jump\t// out\n        /* \"#utility.yul\":2716:2887   */\n    tag_131:\n        /* \"#utility.yul\":2856:2879   */\n      0x5375627472616374696f6e20756e646572666c6f770000000000000000000000\n        /* \"#utility.yul\":2852:2853   */\n      0x00\n        /* \"#utility.yul\":2844:2850   */\n      dup3\n        /* \"#utility.yul\":2840:2854   */\n      add\n        /* \"#utility.yul\":2833:2880   */\n      mstore\n        /* \"#utility.yul\":2716:2887   */\n      pop\n      jump\t// out\n        /* \"#utility.yul\":2893:3259   */\n    tag_132:\n        /* \"#utility.yul\":3035:3038   */\n      0x00\n        /* \"#utility.yul\":3056:3123   */\n      tag_175\n        /* \"#utility.yul\":3120:3122   */\n      0x15\n        /* \"#utility.yul\":3115:3118   */\n      dup4\n        /* \"#utility.yul\":3056:3123   */\n      tag_130\n      jump\t// in\n    tag_175:\n        /* \"#utility.yul\":3049:3123   */\n      swap2\n      pop\n        /* \"#utility.yul\":3132:3225   */\n      tag_176\n        /* \"#utility.yul\":3221:3224   */\n      dup3\n        /* \"#utility.yul\":3132:3225   */\n      tag_131\n      jump\t// in\n    tag_176:\n        /* \"#utility.yul\":3250:3252   */\n      0x20\n        /* \"#utility.yul\":3245:3248   */\n      dup3\n        /* \"#utility.yul\":3241:3253   */\n      add\n        /* \"#utility.yul\":3234:3253   */\n      swap1\n      pop\n        /* \"#utility.yul\":2893:3259   */\n      swap2\n      swap1\n      pop\n      jump\t// out\n        /* \"#utility.yul\":3265:3684   */\n    tag_60:\n        /* \"#utility.yul\":3431:3435   */\n      0x00\n        /* \"#utility.yul\":3469:3471   */\n      0x20\n        /* \"#utility.yul\":3458:3467   */\n      dup3\n        /* \"#utility.yul\":3454:3472   */\n      add\n        /* \"#utility.yul\":3446:3472   */\n      swap1\n      pop\n        /* \"#utility.yul\":3518:3527   */\n      dup2\n        /* \"#utility.yul\":3512:3516   */\n      dup2\n        /* \"#utility.yul\":3508:3528   */\n      sub\n        /* \"#utility.yul\":3504:3505   */\n      0x00\n        /* \"#utility.yul\":3493:3502   */\n      dup4\n        /* \"#utility.yul\":3489:3506   */\n      add\n        /* \"#utility.yul\":3482:3529   */\n      mstore\n        /* \"#utility.yul\":3546:3677   */\n      tag_178\n        /* \"#utility.yul\":3672:3676   */\n      dup2\n        /* \"#utility.yul\":3546:3677   */\n      tag_132\n      jump\t// in\n    tag_178:\n        /* \"#utility.yul\":3538:3677   */\n      swap1\n      pop\n        /* \"#utility.yul\":3265:3684   */\n      swap2\n      swap1\n      pop\n      jump\t// out\n        /* \"#utility.yul\":3690:3870   */\n    tag_133:\n        /* \"#utility.yul\":3738:3815   */\n      0x4e487b7100000000000000000000000000000000000000000000000000000000\n        /* \"#utility.yul\":3735:3736   */\n      0x00\n        /* \"#utility.yul\":3728:3816   */\n      mstore\n        /* \"#utility.yul\":3835:3839   */\n      0x11\n        /* \"#utility.yul\":3832:3833   */\n      0x04\n        /* \"#utility.yul\":3825:3840   */\n      mstore\n        /* \"#utility.yul\":3859:3863   */\n      0x24\n        /* \"#utility.yul\":3856:3857   */\n      0x00\n        /* \"#utility.yul\":3849:3864   */\n      revert\n        /* \"#utility.yul\":3876:4286   */\n    tag_77:\n        /* \"#utility.yul\":3916:3923   */\n      0x00\n        /* \"#utility.yul\":3939:3959   */\n      tag_181\n        /* \"#utility.yul\":3957:3958   */\n      dup3\n        /* \"#utility.yul\":3939:3959   */\n      tag_123\n      jump\t// in\n    tag_181:\n        /* \"#utility.yul\":3934:3959   */\n      swap2\n      pop\n        /* \"#utility.yul\":3973:3993   */\n      tag_182\n        /* \"#utility.yul\":3991:3992   */\n      dup4\n        /* \"#utility.yul\":3973:3993   */\n      tag_123\n      jump\t// in\n    tag_182:\n        /* \"#utility.yul\":3968:3993   */\n      swap3\n      pop\n        /* \"#utility.yul\":4028:4029   */\n      dup3\n        /* \"#utility.yul\":4025:4026   */\n      dup3\n        /* \"#utility.yul\":4021:4030   */\n      mul\n        /* \"#utility.yul\":4050:4080   */\n      tag_183\n        /* \"#utility.yul\":4068:4079   */\n      dup2\n        /* \"#utility.yul\":4050:4080   */\n      tag_123\n      jump\t// in\n    tag_183:\n        /* \"#utility.yul\":4039:4080   */\n      swap2\n      pop\n        /* \"#utility.yul\":4229:4230   */\n      dup3\n        /* \"#utility.yul\":4220:4227   */\n      dup3\n        /* \"#utility.yul\":4216:4231   */\n      div\n        /* \"#utility.yul\":4213:4214   */\n      dup5\n        /* \"#utility.yul\":4210:4232   */\n      eq\n        /* \"#utility.yul\":4190:4191   */\n      dup4\n        /* \"#utility.yul\":4183:4192   */\n      iszero\n        /* \"#utility.yul\":4163:4246   */\n      or\n        /* \"#utility.yul\":4140:4279   */\n      tag_184\n      jumpi\n        /* \"#utility.yul\":4259:4277   */\n      tag_185\n      tag_133\n      jump\t// in\n    tag_185:\n        /* \"#utility.yul\":4140:4279   */\n    tag_184:\n        /* \"#utility.yul\":3924:4286   */\n      pop\n        /* \"#utility.yul\":3876:4286   */\n      swap3\n      swap2\n      pop\n      pop\n      jump\t// out\n        /* \"#utility.yul\":4292:4520   */\n    tag_81:\n        /* \"#utility.yul\":4327:4330   */\n      0x00\n        /* \"#utility.yul\":4350:4373   */\n      tag_187\n        /* \"#utility.yul\":4367:4372   */\n      dup3\n        /* \"#utility.yul\":4350:4373   */\n      tag_127\n      jump\t// in\n    tag_187:\n        /* \"#utility.yul\":4341:4373   */\n      swap2\n      pop\n        /* \"#utility.yul\":4395:4461   */\n      0x8000000000000000000000000000000000000000000000000000000000000000\n        /* \"#utility.yul\":4388:4393   */\n      dup3\n        /* \"#utility.yul\":4385:4462   */\n      sub\n        /* \"#utility.yul\":4382:4485   */\n      tag_188\n      jumpi\n        /* \"#utility.yul\":4465:4483   */\n      tag_189\n      tag_133\n      jump\t// in\n    tag_189:\n        /* \"#utility.yul\":4382:4485   */\n    tag_188:\n        /* \"#utility.yul\":4508:4513   */\n      dup2\n        /* \"#utility.yul\":4505:4506   */\n      0x00\n        /* \"#utility.yul\":4501:4514   */\n      sub\n        /* \"#utility.yul\":4494:4514   */\n      swap1\n      pop\n        /* \"#utility.yul\":4292:4520   */\n      swap2\n      swap1\n      pop\n      jump\t// out\n        /* \"#utility.yul\":4526:4759   */\n    tag_90:\n        /* \"#utility.yul\":4565:4568   */\n      0x00\n        /* \"#utility.yul\":4588:4612   */\n      tag_191\n        /* \"#utility.yul\":4606:4611   */\n      dup3\n        /* \"#utility.yul\":4588:4612   */\n      tag_123\n      jump\t// in\n    tag_191:\n        /* \"#utility.yul\":4579:4612   */\n      swap2\n      pop\n        /* \"#utility.yul\":4634:4700   */\n      0xffffffffffffffffffffffffffffffffffffffffffffffffffffffffffffffff\n        /* \"#utility.yul\":4627:4632   */\n      dup3\n        /* \"#utility.yul\":4624:4701   */\n      sub\n        /* \"#utility.yul\":4621:4724   */\n      tag_192\n      jumpi\n        /* \"#utility.yul\":4704:4722   */\n      tag_193\n      tag_133\n      jump\t// in\n    tag_193:\n        /* \"#utility.yul\":4621:4724   */\n    tag_192:\n        /* \"#utility.yul\":4751:4752   */\n      0x01\n        /* \"#utility.yul\":4744:4749   */\n      dup3\n        /* \"#utility.yul\":4740:4753   */\n      add\n        /* \"#utility.yul\":4733:4753   */\n      swap1\n      pop\n        /* \"#utility.yul\":4526:4759   */\n      swap2\n      swap1\n      pop\n      jump\t// out\n        /* \"#utility.yul\":4765:4959   */\n    tag_95:\n        /* \"#utility.yul\":4805:4809   */\n      0x00\n        /* \"#utility.yul\":4825:4845   */\n      tag_195\n        /* \"#utility.yul\":4843:4844   */\n      dup3\n        /* \"#utility.yul\":4825:4845   */\n      tag_123\n      jump\t// in\n    tag_195:\n        /* \"#utility.yul\":4820:4845   */\n      swap2\n      pop\n        /* \"#utility.yul\":4859:4879   */\n      tag_196\n        /* \"#utility.yul\":4877:4878   */\n      dup4\n        /* \"#utility.yul\":4859:4879   */\n      tag_123\n      jump\t// in\n    tag_196:\n        /* \"#utility.yul\":4854:4879   */\n      swap3\n      pop\n        /* \"#utility.yul\":4903:4904   */\n      dup3\n        /* \"#utility.yul\":4900:4901   */\n      dup3\n        /* \"#utility.yul\":4896:4905   */\n      sub\n        /* \"#utility.yul\":4888:4905   */\n      swap1\n      pop\n        /* \"#utility.yul\":4927:4928   */\n      dup2\n        /* \"#utility.yul\":4921:4925   */\n      dup2\n        /* \"#utility.yul\":4918:4929   */\n      gt\n        /* \"#utility.yul\":4915:4952   */\n      iszero\n      tag_197\n      jumpi\n        /* \"#utility.yul\":4932:4950   */\n      tag_198\n      tag_133\n      jump\t// in\n    tag_198:\n        /* \"#utility.yul\":4915:4952   */\n    tag_197:\n        /* \"#utility.yul\":4765:4959   */\n      swap3\n      swap2\n      pop\n      pop\n      jump\t// out\n        /* \"#utility.yul\":4965:5156   */\n    tag_99:\n        /* \"#utility.yul\":5005:5008   */\n      0x00\n        /* \"#utility.yul\":5024:5044   */\n      tag_200\n        /* \"#utility.yul\":5042:5043   */\n      dup3\n        /* \"#utility.yul\":5024:5044   */\n      tag_123\n      jump\t// in\n    tag_200:\n        /* \"#utility.yul\":5019:5044   */\n      swap2\n      pop\n        /* \"#utility.yul\":5058:5078   */\n      tag_201\n        /* \"#utility.yul\":5076:5077   */\n      dup4\n        /* \"#utility.yul\":5058:5078   */\n      tag_123\n      jump\t// in\n    tag_201:\n        /* \"#utility.yul\":5053:5078   */\n      swap3\n      pop\n        /* \"#utility.yul\":5101:5102   */\n      dup3\n        /* \"#utility.yul\":5098:5099   */\n      dup3\n        /* \"#utility.yul\":5094:5103   */\n      add\n        /* \"#utility.yul\":5087:5103   */\n      swap1\n      pop\n        /* \"#utility.yul\":5122:5125   */\n      dup1\n        /* \"#utility.yul\":5119:5120   */\n      dup3\n        /* \"#utility.yul\":5116:5126   */\n      gt\n        /* \"#utility.yul\":5113:5149   */\n      iszero\n      tag_202\n      jumpi\n        /* \"#utility.yul\":5129:5147   */\n      tag_203\n      tag_133\n      jump\t// in\n    tag_203:\n        /* \"#utility.yul\":5113:5149   */\n    tag_202:\n        /* \"#utility.yul\":4965:5156   */\n      swap3\n      swap2\n      pop\n      pop\n      jump\t// out\n        /* \"#utility.yul\":5162:5342   */\n    tag_134:\n        /* \"#utility.yul\":5210:5287   */\n      0x4e487b7100000000000000000000000000000000000000000000000000000000\n        /* \"#utility.yul\":5207:5208   */\n      0x00\n        /* \"#utility.yul\":5200:5288   */\n      mstore\n        /* \"#utility.yul\":5307:5311   */\n      0x12\n        /* \"#utility.yul\":5304:5305   */\n      0x04\n        /* \"#utility.yul\":5297:5312   */\n      mstore\n        /* \"#utility.yul\":5331:5335   */\n      0x24\n        /* \"#utility.yul\":5328:5329   */\n      0x00\n        /* \"#utility.yul\":5321:5336   */\n      revert\n        /* \"#utility.yul\":5348:5533   */\n    tag_101:\n        /* \"#utility.yul\":5388:5389   */\n      0x00\n        /* \"#utility.yul\":5405:5425   */\n      tag_206\n        /* \"#utility.yul\":5423:5424   */\n      dup3\n        /* \"#utility.yul\":5405:5425   */\n      tag_123\n      jump\t// in\n    tag_206:\n        /* \"#utility.yul\":5400:5425   */\n      swap2\n      pop\n        /* \"#utility.yul\":5439:5459   */\n      tag_207\n        /* \"#utility.yul\":5457:5458   */\n      dup4\n        /* \"#utility.yul\":5439:5459   */\n      tag_123\n      jump\t// in\n    tag_207:\n        /* \"#utility.yul\":5434:5459   */\n      swap3\n      pop\n        /* \"#utility.yul\":5478:5479   */\n      dup3\n        /* \"#utility.yul\":5468:5503   */\n      tag_208\n      jumpi\n        /* \"#utility.yul\":5483:5501   */\n      tag_209\n      tag_134\n      jump\t// in\n    tag_209:\n        /* \"#utility.yul\":5468:5503   */\n    tag_208:\n        /* \"#utility.yul\":5525:5526   */\n      dup3\n        /* \"#utility.yul\":5522:5523   */\n      dup3\n        /* \"#utility.yul\":5518:5527   */\n      div\n        /* \"#utility.yul\":5513:5527   */\n      swap1\n      pop\n        /* \"#utility.yul\":5348:5533   */\n      swap3\n      swap2\n      pop\n      pop\n      jump\t// out\n        /* \"#utility.yul\":5539:5703   */\n    tag_135:\n        /* \"#utility.yul\":5679:5695   */\n      0x4d6f64756c6f206279207a65726f000000000000000000000000000000000000\n        /* \"#utility.yul\":5675:5676   */\n      0x00\n        /* \"#utility.yul\":5667:5673   */\n      dup3\n        /* \"#utility.yul\":5663:5677   */\n      add\n        /* \"#utility.yul\":5656:5696   */\n      mstore\n        /* \"#utility.yul\":5539:5703   */\n      pop\n      jump\t// out\n        /* \"#utility.yul\":5709:6075   */\n    tag_136:\n        /* \"#utility.yul\":5851:5854   */\n      0x00\n        /* \"#utility.yul\":5872:5939   */\n      tag_212\n        /* \"#utility.yul\":5936:5938   */\n      0x0e\n        /* \"#utility.yul\":5931:5934   */\n      dup4\n        /* \"#utility.yul\":5872:5939   */\n      tag_130\n      jump\t// in\n    tag_212:\n        /* \"#utility.yul\":5865:5939   */\n      swap2\n      pop\n        /* \"#utility.yul\":5948:6041   */\n      tag_213\n        /* \"#utility.yul\":6037:6040   */\n      dup3\n        /* \"#utility.yul\":5948:6041   */\n      tag_135\n      jump\t// in\n    tag_213:\n        /* \"#utility.yul\":6066:6068   */\n      0x20\n        /* \"#utility.yul\":6061:6064   */\n      dup3\n        /* \"#utility.yul\":6057:6069   */\n      add\n        /* \"#utility.yul\":6050:6069   */\n      swap1\n      pop\n        /* \"#utility.yul\":5709:6075   */\n      swap2\n      swap1\n      pop\n      jump\t// out\n        /* \"#utility.yul\":6081:6500   */\n    tag_112:\n        /* \"#utility.yul\":6247:6251   */\n      0x00\n        /* \"#utility.yul\":6285:6287   */\n      0x20\n        /* \"#utility.yul\":6274:6283   */\n      dup3\n        /* \"#utility.yul\":6270:6288   */\n      add\n        /* \"#utility.yul\":6262:6288   */\n      swap1\n      pop\n        /* \"#utility.yul\":6334:6343   */\n      dup2\n        /* \"#utility.yul\":6328:6332   */\n      dup2\n        /* \"#utility.yul\":6324:6344   */\n      sub\n        /* \"#utility.yul\":6320:6321   */\n      0x00\n        /* \"#utility.yul\":6309:6318   */\n      dup4\n        /* \"#utility.yul\":6305:6322   */\n      add\n        /* \"#utility.yul\":6298:6345   */\n      mstore\n        /* \"#utility.yul\":6362:6493   */\n      tag_215\n        /* \"#utility.yul\":6488:6492   */\n      dup2\n        /* \"#utility.yul\":6362:6493   */\n      tag_136\n      jump\t// in\n    tag_215:\n        /* \"#utility.yul\":6354:6493   */\n      swap1\n      pop\n        /* \"#utility.yul\":6081:6500   */\n      swap2\n      swap1\n      pop\n      jump\t// out\n        /* \"#utility.yul\":6506:6682   */\n    tag_114:\n        /* \"#utility.yul\":6538:6539   */\n      0x00\n        /* \"#utility.yul\":6555:6575   */\n      tag_217\n        /* \"#utility.yul\":6573:6574   */\n      dup3\n        /* \"#utility.yul\":6555:6575   */\n      tag_123\n      jump\t// in\n    tag_217:\n        /* \"#utility.yul\":6550:6575   */\n      swap2\n      pop\n        /* \"#utility.yul\":6589:6609   */\n      tag_218\n        /* \"#utility.yul\":6607:6608   */\n      dup4\n        /* \"#utility.yul\":6589:6609   */\n      tag_123\n      jump\t// in\n    tag_218:\n        /* \"#utility.yul\":6584:6609   */\n      swap3\n      pop\n        /* \"#utility.yul\":6628:6629   */\n      dup3\n        /* \"#utility.yul\":6618:6653   */\n      tag_219\n      jumpi\n        /* \"#utility.yul\":6633:6651   */\n      tag_220\n      tag_134\n      jump\t// in\n    tag_220:\n        /* \"#utility.yul\":6618:6653   */\n    tag_219:\n        /* \"#utility.yul\":6674:6675   */\n      dup3\n        /* \"#utility.yul\":6671:6672   */\n      dup3\n        /* \"#utility.yul\":6667:6676   */\n      mod\n        /* \"#utility.yul\":6662:6676   */\n      swap1\n      pop\n        /* \"#utility.yul\":6506:6682   */\n      swap3\n      swap2\n      pop\n      pop\n      jump\t// out\n        /* \"#utility.yul\":6688:6854   */\n    tag_137:\n        /* \"#utility.yul\":6828:6846   */\n      0x4469766973696f6e206279207a65726f00000000000000000000000000000000\n        /* \"#utility.yul\":6824:6825   */\n      0x00\n        /* \"#utility.yul\":6816:6822   */\n      dup3\n        /* \"#utility.yul\":6812:6826   */\n      add\n        /* \"#utility.yul\":6805:6847   */\n      mstore\n        /* \"#utility.yul\":6688:6854   */\n      pop\n      jump\t// out\n        /* \"#utility.yul\":6860:7226   */\n    tag_138:\n        /* \"#utility.yul\":7002:7005   */\n      0x00\n        /* \"#utility.yul\":7023:7090   */\n      tag_223\n        /* \"#utility.yul\":7087:7089   */\n      0x10\n        /* \"#utility.yul\":7082:7085   */\n      dup4\n        /* \"#utility.yul\":7023:7090   */\n      tag_130\n      jump\t// in\n    tag_223:\n        /* \"#utility.yul\":7016:7090   */\n      swap2\n      pop\n        /* \"#utility.yul\":7099:7192   */\n      tag_224\n        /* \"#utility.yul\":7188:7191   */\n      dup3\n        /* \"#utility.yul\":7099:7192   */\n      tag_137\n      jump\t// in\n    tag_224:\n        /* \"#utility.yul\":7217:7219   */\n      0x20\n        /* \"#utility.yul\":7212:7215   */\n      dup3\n        /* \"#utility.yul\":7208:7220   */\n      add\n        /* \"#utility.yul\":7201:7220   */\n      swap1\n      pop\n        /* \"#utility.yul\":6860:7226   */\n      swap2\n      swap1\n      pop\n      jump\t// out\n        /* \"#utility.yul\":7232:7651   */\n    tag_118:\n        /* \"#utility.yul\":7398:7402   */\n      0x00\n        /* \"#utility.yul\":7436:7438   */\n      0x20\n        /* \"#utility.yul\":7425:7434   */\n      dup3\n        /* \"#utility.yul\":7421:7439   */\n      add\n        /* \"#utility.yul\":7413:7439   */\n      swap1\n      pop\n        /* \"#utility.yul\":7485:7494   */\n      dup2\n        /* \"#utility.yul\":7479:7483   */\n      dup2\n        /* \"#utility.yul\":7475:7495   */\n      sub\n        /* \"#utility.yul\":7471:7472   */\n      0x00\n        /* \"#utility.yul\":7460:7469   */\n      dup4\n        /* \"#utility.yul\":7456:7473   */\n      add\n        /* \"#utility.yul\":7449:7496   */\n      mstore\n        /* \"#utility.yul\":7513:7644   */\n      tag_226\n        /* \"#utility.yul\":7639:7643   */\n      dup2\n        /* \"#utility.yul\":7513:7644   */\n      tag_138\n      jump\t// in\n    tag_226:\n        /* \"#utility.yul\":7505:7644   */\n      swap1\n      pop\n        /* \"#utility.yul\":7232:7651   */\n      swap2\n      swap1\n      pop\n      jump\t// out\n\n    auxdata: 0xa2646970667358221220cba7bf193c088f9a62e2488349a91178cc6738ff6f7306d47ef4cb50ff1c5ddd64736f6c634300081a0033\n}\n",
				"bytecode": {
					"linkReferences": {},
					"object": "6080604052348015600e575f80fd5b506109848061001c5f395ff3fe608060405234801561000f575f80fd5b5060043610610086575f3560e01c8063677342ce11610059578063677342ce1461014a578063771602f71461017a578063f43f523a146101aa578063f88e9fbf146101da57610086565b8063165c4a161461008a5780631b5ac4b5146100ba5780632e4c697f146100ea5780633ef5e4451461011a575b5f80fd5b6100a4600480360381019061009f9190610529565b61020a565b6040516100b19190610576565b60405180910390f35b6100d460048036038101906100cf91906105c2565b61021d565b6040516100e19190610576565b60405180910390f35b61010460048036038101906100ff9190610529565b61022e565b6040516101119190610576565b60405180910390f35b610134600480360381019061012f9190610529565b610241565b6040516101419190610576565b60405180910390f35b610164600480360381019061015f91906105ed565b610297565b6040516101719190610576565b60405180910390f35b610194600480360381019061018f9190610529565b6102a8565b6040516101a19190610576565b60405180910390f35b6101c460048036038101906101bf9190610529565b6102bb565b6040516101d19190610576565b60405180910390f35b6101f460048036038101906101ef9190610529565b6102ce565b6040516102019190610576565b60405180910390f35b5f61021583836102e1565b905092915050565b5f610227826102f6565b9050919050565b5f6102398383610316565b905092915050565b5f81831015610285576040517f08c379a000000000000000000000000000000000000000000000000000000000815260040161027c90610672565b60405180910390fd5b61028f8383610366565b905092915050565b5f6102a1826103be565b9050919050565b5f6102b3838361042f565b905092915050565b5f6102c68383610444565b905092915050565b5f6102d9838361049b565b905092915050565b5f81836102ee91906106bd565b905092915050565b5f80821361030d5781610308906106fe565b61030f565b815b9050919050565b5f8082036103275760019050610360565b5f600190505f600190505b83811161035a57848261034591906106bd565b9150808061035290610744565b915050610332565b50809150505b92915050565b5f818310156103aa576040517f08c379a00000000000000000000000000000000000000000000000000000000081526004016103a190610672565b60405180910390fd5b81836103b6919061078b565b905092915050565b5f8082036103ce575f905061042a565b5f60026001846103de91906107be565b6103e8919061081e565b90505f8390505b80821015610424578190506002828386610409919061081e565b61041391906107be565b61041d919061081e565b91506103ef565b80925050505b919050565b5f818361043c91906107be565b905092915050565b5f808203610487576040517f08c379a000000000000000000000000000000000000000000000000000000000815260040161047e90610898565b60405180910390fd5b818361049391906108b6565b905092915050565b5f8082036104de576040517f08c379a00000000000000000000000000000000000000000000000000000000081526004016104d590610930565b60405180910390fd5b81836104ea919061081e565b905092915050565b5f80fd5b5f819050919050565b610508816104f6565b8114610512575f80fd5b50565b5f81359050610523816104ff565b92915050565b5f806040838503121561053f5761053e6104f2565b5b5f61054c85828601610515565b925050602061055d85828601610515565b9150509250929050565b610570816104f6565b82525050565b5f6020820190506105895f830184610567565b92915050565b5f819050919050565b6105a18161058f565b81146105ab575f80fd5b50565b5f813590506105bc81610598565b92915050565b5f602082840312156105d7576105d66104f2565b5b5f6105e4848285016105ae565b91505092915050565b5f60208284031215610602576106016104f2565b5b5f61060f84828501610515565b91505092915050565b5f82825260208201905092915050565b7f5375627472616374696f6e20756e646572666c6f7700000000000000000000005f82015250565b5f61065c601583610618565b915061066782610628565b602082019050919050565b5f6020820190508181035f83015261068981610650565b9050919050565b7f4e487b71000000000000000000000000000000000000000000000000000000005f52601160045260245ffd5b5f6106c7826104f6565b91506106d2836104f6565b92508282026106e0816104f6565b915082820484148315176106f7576106f6610690565b5b5092915050565b5f6107088261058f565b91507f8000000000000000000000000000000000000000000000000000000000000000820361073a57610739610690565b5b815f039050919050565b5f61074e826104f6565b91507fffffffffffffffffffffffffffffffffffffffffffffffffffffffffffffffff82036107805761077f610690565b5b600182019050919050565b5f610795826104f6565b91506107a0836104f6565b92508282039050818111156107b8576107b7610690565b5b92915050565b5f6107c8826104f6565b91506107d3836104f6565b92508282019050808211156107eb576107ea610690565b5b92915050565b7f4e487b71000000000000000000000000000000000000000000000000000000005f52601260045260245ffd5b5f610828826104f6565b9150610833836104f6565b925082610843576108426107f1565b5b828204905092915050565b7f4d6f64756c6f206279207a65726f0000000000000000000000000000000000005f82015250565b5f610882600e83610618565b915061088d8261084e565b602082019050919050565b5f6020820190508181035f8301526108af81610876565b9050919050565b5f6108c0826104f6565b91506108cb836104f6565b9250826108db576108da6107f1565b5b828206905092915050565b7f4469766973696f6e206279207a65726f000000000000000000000000000000005f82015250565b5f61091a601083610618565b9150610925826108e6565b602082019050919050565b5f6020820190508181035f8301526109478161090e565b905091905056fea2646970667358221220cba7bf193c088f9a62e2488349a91178cc6738ff6f7306d47ef4cb50ff1c5ddd64736f6c634300081a0033",
					"opcodes": "PUSH1 0x80 PUSH1 0x40 MSTORE CALLVALUE DUP1 ISZERO PUSH1 0xE JUMPI PUSH0 DUP1 REVERT JUMPDEST POP PUSH2 0x984 DUP1 PUSH2 0x1C PUSH0 CODECOPY PUSH0 RETURN INVALID PUSH1 0x80 PUSH1 0x40 MSTORE CALLVALUE DUP1 ISZERO PUSH2 0xF JUMPI PUSH0 DUP1 REVERT JUMPDEST POP PUSH1 0x4 CALLDATASIZE LT PUSH2 0x86 JUMPI PUSH0 CALLDATALOAD PUSH1 0xE0 SHR DUP1 PUSH4 0x677342CE GT PUSH2 0x59 JUMPI DUP1 PUSH4 0x677342CE EQ PUSH2 0x14A JUMPI DUP1 PUSH4 0x771602F7 EQ PUSH2 0x17A JUMPI DUP1 PUSH4 0xF43F523A EQ PUSH2 0x1AA JUMPI DUP1 PUSH4 0xF88E9FBF EQ PUSH2 0x1DA JUMPI PUSH2 0x86 JUMP JUMPDEST DUP1 PUSH4 0x165C4A16 EQ PUSH2 0x8A JUMPI DUP1 PUSH4 0x1B5AC4B5 EQ PUSH2 0xBA JUMPI DUP1 PUSH4 0x2E4C697F EQ PUSH2 0xEA JUMPI DUP1 PUSH4 0x3EF5E445 EQ PUSH2 0x11A JUMPI JUMPDEST PUSH0 DUP1 REVERT JUMPDEST PUSH2 0xA4 PUSH1 0x4 DUP1 CALLDATASIZE SUB DUP2 ADD SWAP1 PUSH2 0x9F SWAP2 SWAP1 PUSH2 0x529 JUMP JUMPDEST PUSH2 0x20A JUMP JUMPDEST PUSH1 0x40 MLOAD PUSH2 0xB1 SWAP2 SWAP1 PUSH2 0x576 JUMP JUMPDEST PUSH1 0x40 MLOAD DUP1 SWAP2 SUB SWAP1 RETURN JUMPDEST PUSH2 0xD4 PUSH1 0x4 DUP1 CALLDATASIZE SUB DUP2 ADD SWAP1 PUSH2 0xCF SWAP2 SWAP1 PUSH2 0x5C2 JUMP JUMPDEST PUSH2 0x21D JUMP JUMPDEST PUSH1 0x40 MLOAD PUSH2 0xE1 SWAP2 SWAP1 PUSH2 0x576 JUMP JUMPDEST PUSH1 0x40 MLOAD DUP1 SWAP2 SUB SWAP1 RETURN JUMPDEST PUSH2 0x104 PUSH1 0x4 DUP1 CALLDATASIZE SUB DUP2 ADD SWAP1 PUSH2 0xFF SWAP2 SWAP1 PUSH2 0x529 JUMP JUMPDEST PUSH2 0x22E JUMP JUMPDEST PUSH1 0x40 MLOAD PUSH2 0x111 SWAP2 SWAP1 PUSH2 0x576 JUMP JUMPDEST PUSH1 0x40 MLOAD DUP1 SWAP2 SUB SWAP1 RETURN JUMPDEST PUSH2 0x134 PUSH1 0x4 DUP1 CALLDATASIZE SUB DUP2 ADD SWAP1 PUSH2 0x12F SWAP2 SWAP1 PUSH2 0x529 JUMP JUMPDEST PUSH2 0x241 JUMP JUMPDEST PUSH1 0x40 MLOAD PUSH2 0x141 SWAP2 SWAP1 PUSH2 0x576 JUMP JUMPDEST PUSH1 0x40 MLOAD DUP1 SWAP2 SUB SWAP1 RETURN JUMPDEST PUSH2 0x164 PUSH1 0x4 DUP1 CALLDATASIZE SUB DUP2 ADD SWAP1 PUSH2 0x15F SWAP2 SWAP1 PUSH2 0x5ED JUMP JUMPDEST PUSH2 0x297 JUMP JUMPDEST PUSH1 0x40 MLOAD PUSH2 0x171 SWAP2 SWAP1 PUSH2 0x576 JUMP JUMPDEST PUSH1 0x40 MLOAD DUP1 SWAP2 SUB SWAP1 RETURN JUMPDEST PUSH2 0x194 PUSH1 0x4 DUP1 CALLDATASIZE SUB DUP2 ADD SWAP1 PUSH2 0x18F SWAP2 SWAP1 PUSH2 0x529 JUMP JUMPDEST PUSH2 0x2A8 JUMP JUMPDEST PUSH1 0x40 MLOAD PUSH2 0x1A1 SWAP2 SWAP1 PUSH2 0x576 JUMP JUMPDEST PUSH1 0x40 MLOAD DUP1 SWAP2 SUB SWAP1 RETURN JUMPDEST PUSH2 0x1C4 PUSH1 0x4 DUP1 CALLDATASIZE SUB DUP2 ADD SWAP1 PUSH2 0x1BF SWAP2 SWAP1 PUSH2 0x529 JUMP JUMPDEST PUSH2 0x2BB JUMP JUMPDEST PUSH1 0x40 MLOAD PUSH2 0x1D1 SWAP2 SWAP1 PUSH2 0x576 JUMP JUMPDEST PUSH1 0x40 MLOAD DUP1 SWAP2 SUB SWAP1 RETURN JUMPDEST PUSH2 0x1F4 PUSH1 0x4 DUP1 CALLDATASIZE SUB DUP2 ADD SWAP1 PUSH2 0x1EF SWAP2 SWAP1 PUSH2 0x529 JUMP JUMPDEST PUSH2 0x2CE JUMP JUMPDEST PUSH1 0x40 MLOAD PUSH2 0x201 SWAP2 SWAP1 PUSH2 0x576 JUMP JUMPDEST PUSH1 0x40 MLOAD DUP1 SWAP2 SUB SWAP1 RETURN JUMPDEST PUSH0 PUSH2 0x215 DUP4 DUP4 PUSH2 0x2E1 JUMP JUMPDEST SWAP1 POP SWAP3 SWAP2 POP POP JUMP JUMPDEST PUSH0 PUSH2 0x227 DUP3 PUSH2 0x2F6 JUMP JUMPDEST SWAP1 POP SWAP2 SWAP1 POP JUMP JUMPDEST PUSH0 PUSH2 0x239 DUP4 DUP4 PUSH2 0x316 JUMP JUMPDEST SWAP1 POP SWAP3 SWAP2 POP POP JUMP JUMPDEST PUSH0 DUP2 DUP4 LT ISZERO PUSH2 0x285 JUMPI PUSH1 0x40 MLOAD PUSH32 0x8C379A000000000000000000000000000000000000000000000000000000000 DUP2 MSTORE PUSH1 0x4 ADD PUSH2 0x27C SWAP1 PUSH2 0x672 JUMP JUMPDEST PUSH1 0x40 MLOAD DUP1 SWAP2 SUB SWAP1 REVERT JUMPDEST PUSH2 0x28F DUP4 DUP4 PUSH2 0x366 JUMP JUMPDEST SWAP1 POP SWAP3 SWAP2 POP POP JUMP JUMPDEST PUSH0 PUSH2 0x2A1 DUP3 PUSH2 0x3BE JUMP JUMPDEST SWAP1 POP SWAP2 SWAP1 POP JUMP JUMPDEST PUSH0 PUSH2 0x2B3 DUP4 DUP4 PUSH2 0x42F JUMP JUMPDEST SWAP1 POP SWAP3 SWAP2 POP POP JUMP JUMPDEST PUSH0 PUSH2 0x2C6 DUP4 DUP4 PUSH2 0x444 JUMP JUMPDEST SWAP1 POP SWAP3 SWAP2 POP POP JUMP JUMPDEST PUSH0 PUSH2 0x2D9 DUP4 DUP4 PUSH2 0x49B JUMP JUMPDEST SWAP1 POP SWAP3 SWAP2 POP POP JUMP JUMPDEST PUSH0 DUP2 DUP4 PUSH2 0x2EE SWAP2 SWAP1 PUSH2 0x6BD JUMP JUMPDEST SWAP1 POP SWAP3 SWAP2 POP POP JUMP JUMPDEST PUSH0 DUP1 DUP3 SGT PUSH2 0x30D JUMPI DUP2 PUSH2 0x308 SWAP1 PUSH2 0x6FE JUMP JUMPDEST PUSH2 0x30F JUMP JUMPDEST DUP2 JUMPDEST SWAP1 POP SWAP2 SWAP1 POP JUMP JUMPDEST PUSH0 DUP1 DUP3 SUB PUSH2 0x327 JUMPI PUSH1 0x1 SWAP1 POP PUSH2 0x360 JUMP JUMPDEST PUSH0 PUSH1 0x1 SWAP1 POP PUSH0 PUSH1 0x1 SWAP1 POP JUMPDEST DUP4 DUP2 GT PUSH2 0x35A JUMPI DUP5 DUP3 PUSH2 0x345 SWAP2 SWAP1 PUSH2 0x6BD JUMP JUMPDEST SWAP2 POP DUP1 DUP1 PUSH2 0x352 SWAP1 PUSH2 0x744 JUMP JUMPDEST SWAP2 POP POP PUSH2 0x332 JUMP JUMPDEST POP DUP1 SWAP2 POP POP JUMPDEST SWAP3 SWAP2 POP POP JUMP JUMPDEST PUSH0 DUP2 DUP4 LT ISZERO PUSH2 0x3AA JUMPI PUSH1 0x40 MLOAD PUSH32 0x8C379A000000000000000000000000000000000000000000000000000000000 DUP2 MSTORE PUSH1 0x4 ADD PUSH2 0x3A1 SWAP1 PUSH2 0x672 JUMP JUMPDEST PUSH1 0x40 MLOAD DUP1 SWAP2 SUB SWAP1 REVERT JUMPDEST DUP2 DUP4 PUSH2 0x3B6 SWAP2 SWAP1 PUSH2 0x78B JUMP JUMPDEST SWAP1 POP SWAP3 SWAP2 POP POP JUMP JUMPDEST PUSH0 DUP1 DUP3 SUB PUSH2 0x3CE JUMPI PUSH0 SWAP1 POP PUSH2 0x42A JUMP JUMPDEST PUSH0 PUSH1 0x2 PUSH1 0x1 DUP5 PUSH2 0x3DE SWAP2 SWAP1 PUSH2 0x7BE JUMP JUMPDEST PUSH2 0x3E8 SWAP2 SWAP1 PUSH2 0x81E JUMP JUMPDEST SWAP1 POP PUSH0 DUP4 SWAP1 POP JUMPDEST DUP1 DUP3 LT ISZERO PUSH2 0x424 JUMPI DUP2 SWAP1 POP PUSH1 0x2 DUP3 DUP4 DUP7 PUSH2 0x409 SWAP2 SWAP1 PUSH2 0x81E JUMP JUMPDEST PUSH2 0x413 SWAP2 SWAP1 PUSH2 0x7BE JUMP JUMPDEST PUSH2 0x41D SWAP2 SWAP1 PUSH2 0x81E JUMP JUMPDEST SWAP2 POP PUSH2 0x3EF JUMP JUMPDEST DUP1 SWAP3 POP POP POP JUMPDEST SWAP2 SWAP1 POP JUMP JUMPDEST PUSH0 DUP2 DUP4 PUSH2 0x43C SWAP2 SWAP1 PUSH2 0x7BE JUMP JUMPDEST SWAP1 POP SWAP3 SWAP2 POP POP JUMP JUMPDEST PUSH0 DUP1 DUP3 SUB PUSH2 0x487 JUMPI PUSH1 0x40 MLOAD PUSH32 0x8C379A000000000000000000000000000000000000000000000000000000000 DUP2 MSTORE PUSH1 0x4 ADD PUSH2 0x47E SWAP1 PUSH2 0x898 JUMP JUMPDEST PUSH1 0x40 MLOAD DUP1 SWAP2 SUB SWAP1 REVERT JUMPDEST DUP2 DUP4 PUSH2 0x493 SWAP2 SWAP1 PUSH2 0x8B6 JUMP JUMPDEST SWAP1 POP SWAP3 SWAP2 POP POP JUMP JUMPDEST PUSH0 DUP1 DUP3 SUB PUSH2 0x4DE JUMPI PUSH1 0x40 MLOAD PUSH32 0x8C379A000000000000000000000000000000000000000000000000000000000 DUP2 MSTORE PUSH1 0x4 ADD PUSH2 0x4D5 SWAP1 PUSH2 0x930 JUMP JUMPDEST PUSH1 0x40 MLOAD DUP1 SWAP2 SUB SWAP1 REVERT JUMPDEST DUP2 DUP4 PUSH2 0x4EA SWAP2 SWAP1 PUSH2 0x81E JUMP JUMPDEST SWAP1 POP SWAP3 SWAP2 POP POP JUMP JUMPDEST PUSH0 DUP1 REVERT JUMPDEST PUSH0 DUP2 SWAP1 POP SWAP2 SWAP1 POP JUMP JUMPDEST PUSH2 0x508 DUP2 PUSH2 0x4F6 JUMP JUMPDEST DUP2 EQ PUSH2 0x512 JUMPI PUSH0 DUP1 REVERT JUMPDEST POP JUMP JUMPDEST PUSH0 DUP2 CALLDATALOAD SWAP1 POP PUSH2 0x523 DUP2 PUSH2 0x4FF JUMP JUMPDEST SWAP3 SWAP2 POP POP JUMP JUMPDEST PUSH0 DUP1 PUSH1 0x40 DUP4 DUP6 SUB SLT ISZERO PUSH2 0x53F JUMPI PUSH2 0x53E PUSH2 0x4F2 JUMP JUMPDEST JUMPDEST PUSH0 PUSH2 0x54C DUP6 DUP3 DUP7 ADD PUSH2 0x515 JUMP JUMPDEST SWAP3 POP POP PUSH1 0x20 PUSH2 0x55D DUP6 DUP3 DUP7 ADD PUSH2 0x515 JUMP JUMPDEST SWAP2 POP POP SWAP3 POP SWAP3 SWAP1 POP JUMP JUMPDEST PUSH2 0x570 DUP2 PUSH2 0x4F6 JUMP JUMPDEST DUP3 MSTORE POP POP JUMP JUMPDEST PUSH0 PUSH1 0x20 DUP3 ADD SWAP1 POP PUSH2 0x589 PUSH0 DUP4 ADD DUP5 PUSH2 0x567 JUMP JUMPDEST SWAP3 SWAP2 POP POP JUMP JUMPDEST PUSH0 DUP2 SWAP1 POP SWAP2 SWAP1 POP JUMP JUMPDEST PUSH2 0x5A1 DUP2 PUSH2 0x58F JUMP JUMPDEST DUP2 EQ PUSH2 0x5AB JUMPI PUSH0 DUP1 REVERT JUMPDEST POP JUMP JUMPDEST PUSH0 DUP2 CALLDATALOAD SWAP1 POP PUSH2 0x5BC DUP2 PUSH2 0x598 JUMP JUMPDEST SWAP3 SWAP2 POP POP JUMP JUMPDEST PUSH0 PUSH1 0x20 DUP3 DUP5 SUB SLT ISZERO PUSH2 0x5D7 JUMPI PUSH2 0x5D6 PUSH2 0x4F2 JUMP JUMPDEST JUMPDEST PUSH0 PUSH2 0x5E4 DUP5 DUP3 DUP6 ADD PUSH2 0x5AE JUMP JUMPDEST SWAP2 POP POP SWAP3 SWAP2 POP POP JUMP JUMPDEST PUSH0 PUSH1 0x20 DUP3 DUP5 SUB SLT ISZERO PUSH2 0x602 JUMPI PUSH2 0x601 PUSH2 0x4F2 JUMP JUMPDEST JUMPDEST PUSH0 PUSH2 0x60F DUP5 DUP3 DUP6 ADD PUSH2 0x515 JUMP JUMPDEST SWAP2 POP POP SWAP3 SWAP2 POP POP JUMP JUMPDEST PUSH0 DUP3 DUP3 MSTORE PUSH1 0x20 DUP3 ADD SWAP1 POP SWAP3 SWAP2 POP POP JUMP JUMPDEST PUSH32 0x5375627472616374696F6E20756E646572666C6F770000000000000000000000 PUSH0 DUP3 ADD MSTORE POP JUMP JUMPDEST PUSH0 PUSH2 0x65C PUSH1 0x15 DUP4 PUSH2 0x618 JUMP JUMPDEST SWAP2 POP PUSH2 0x667 DUP3 PUSH2 0x628 JUMP JUMPDEST PUSH1 0x20 DUP3 ADD SWAP1 POP SWAP2 SWAP1 POP JUMP JUMPDEST PUSH0 PUSH1 0x20 DUP3 ADD SWAP1 POP DUP2 DUP2 SUB PUSH0 DUP4 ADD MSTORE PUSH2 0x689 DUP2 PUSH2 0x650 JUMP JUMPDEST SWAP1 POP SWAP2 SWAP1 POP JUMP JUMPDEST PUSH32 0x4E487B7100000000000000000000000000000000000000000000000000000000 PUSH0 MSTORE PUSH1 0x11 PUSH1 0x4 MSTORE PUSH1 0x24 PUSH0 REVERT JUMPDEST PUSH0 PUSH2 0x6C7 DUP3 PUSH2 0x4F6 JUMP JUMPDEST SWAP2 POP PUSH2 0x6D2 DUP4 PUSH2 0x4F6 JUMP JUMPDEST SWAP3 POP DUP3 DUP3 MUL PUSH2 0x6E0 DUP2 PUSH2 0x4F6 JUMP JUMPDEST SWAP2 POP DUP3 DUP3 DIV DUP5 EQ DUP4 ISZERO OR PUSH2 0x6F7 JUMPI PUSH2 0x6F6 PUSH2 0x690 JUMP JUMPDEST JUMPDEST POP SWAP3 SWAP2 POP POP JUMP JUMPDEST PUSH0 PUSH2 0x708 DUP3 PUSH2 0x58F JUMP JUMPDEST SWAP2 POP PUSH32 0x8000000000000000000000000000000000000000000000000000000000000000 DUP3 SUB PUSH2 0x73A JUMPI PUSH2 0x739 PUSH2 0x690 JUMP JUMPDEST JUMPDEST DUP2 PUSH0 SUB SWAP1 POP SWAP2 SWAP1 POP JUMP JUMPDEST PUSH0 PUSH2 0x74E DUP3 PUSH2 0x4F6 JUMP JUMPDEST SWAP2 POP PUSH32 0xFFFFFFFFFFFFFFFFFFFFFFFFFFFFFFFFFFFFFFFFFFFFFFFFFFFFFFFFFFFFFFFF DUP3 SUB PUSH2 0x780 JUMPI PUSH2 0x77F PUSH2 0x690 JUMP JUMPDEST JUMPDEST PUSH1 0x1 DUP3 ADD SWAP1 POP SWAP2 SWAP1 POP JUMP JUMPDEST PUSH0 PUSH2 0x795 DUP3 PUSH2 0x4F6 JUMP JUMPDEST SWAP2 POP PUSH2 0x7A0 DUP4 PUSH2 0x4F6 JUMP JUMPDEST SWAP3 POP DUP3 DUP3 SUB SWAP1 POP DUP2 DUP2 GT ISZERO PUSH2 0x7B8 JUMPI PUSH2 0x7B7 PUSH2 0x690 JUMP JUMPDEST JUMPDEST SWAP3 SWAP2 POP POP JUMP JUMPDEST PUSH0 PUSH2 0x7C8 DUP3 PUSH2 0x4F6 JUMP JUMPDEST SWAP2 POP PUSH2 0x7D3 DUP4 PUSH2 0x4F6 JUMP JUMPDEST SWAP3 POP DUP3 DUP3 ADD SWAP1 POP DUP1 DUP3 GT ISZERO PUSH2 0x7EB JUMPI PUSH2 0x7EA PUSH2 0x690 JUMP JUMPDEST JUMPDEST SWAP3 SWAP2 POP POP JUMP JUMPDEST PUSH32 0x4E487B7100000000000000000000000000000000000000000000000000000000 PUSH0 MSTORE PUSH1 0x12 PUSH1 0x4 MSTORE PUSH1 0x24 PUSH0 REVERT JUMPDEST PUSH0 PUSH2 0x828 DUP3 PUSH2 0x4F6 JUMP JUMPDEST SWAP2 POP PUSH2 0x833 DUP4 PUSH2 0x4F6 JUMP JUMPDEST SWAP3 POP DUP3 PUSH2 0x843 JUMPI PUSH2 0x842 PUSH2 0x7F1 JUMP JUMPDEST JUMPDEST DUP3 DUP3 DIV SWAP1 POP SWAP3 SWAP2 POP POP JUMP JUMPDEST PUSH32 0x4D6F64756C6F206279207A65726F000000000000000000000000000000000000 PUSH0 DUP3 ADD MSTORE POP JUMP JUMPDEST PUSH0 PUSH2 0x882 PUSH1 0xE DUP4 PUSH2 0x618 JUMP JUMPDEST SWAP2 POP PUSH2 0x88D DUP3 PUSH2 0x84E JUMP JUMPDEST PUSH1 0x20 DUP3 ADD SWAP1 POP SWAP2 SWAP1 POP JUMP JUMPDEST PUSH0 PUSH1 0x20 DUP3 ADD SWAP1 POP DUP2 DUP2 SUB PUSH0 DUP4 ADD MSTORE PUSH2 0x8AF DUP2 PUSH2 0x876 JUMP JUMPDEST SWAP1 POP SWAP2 SWAP1 POP JUMP JUMPDEST PUSH0 PUSH2 0x8C0 DUP3 PUSH2 0x4F6 JUMP JUMPDEST SWAP2 POP PUSH2 0x8CB DUP4 PUSH2 0x4F6 JUMP JUMPDEST SWAP3 POP DUP3 PUSH2 0x8DB JUMPI PUSH2 0x8DA PUSH2 0x7F1 JUMP JUMPDEST JUMPDEST DUP3 DUP3 MOD SWAP1 POP SWAP3 SWAP2 POP POP JUMP JUMPDEST PUSH32 0x4469766973696F6E206279207A65726F00000000000000000000000000000000 PUSH0 DUP3 ADD MSTORE POP JUMP JUMPDEST PUSH0 PUSH2 0x91A PUSH1 0x10 DUP4 PUSH2 0x618 JUMP JUMPDEST SWAP2 POP PUSH2 0x925 DUP3 PUSH2 0x8E6 JUMP JUMPDEST PUSH1 0x20 DUP3 ADD SWAP1 POP SWAP2 SWAP1 POP JUMP JUMPDEST PUSH0 PUSH1 0x20 DUP3 ADD SWAP1 POP DUP2 DUP2 SUB PUSH0 DUP4 ADD MSTORE PUSH2 0x947 DUP2 PUSH2 0x90E JUMP JUMPDEST SWAP1 POP SWAP2 SWAP1 POP JUMP INVALID LOG2 PUSH5 0x6970667358 0x22 SLT KECCAK256 0xCB 0xA7 0xBF NOT EXTCODECOPY ADDMOD DUP16 SWAP11 PUSH3 0xE24883 BLOBHASH 0xA9 GT PUSH25 0xCC6738FF6F7306D47EF4CB50FF1C5DDD64736F6C634300081A STOP CALLER "
				},
				"gasEstimates": {
					"creation": {
						"codeDepositCost": "487200",
						"executionCost": "522",
						"totalCost": "487722"
					},
					"external": {
						"abs(int256)": "infinite",
						"add(uint256,uint256)": "infinite",
						"divide(uint256,uint256)": "infinite",
						"mod(uint256,uint256)": "infinite",
						"multiply(uint256,uint256)": "infinite",
						"pow(uint256,uint256)": "infinite",
						"sqrt(uint256)": "infinite",
						"subtract(uint256,uint256)": "infinite"
					}
				},
				"methodIdentifiers": {
					"abs(int256)": "1b5ac4b5",
					"add(uint256,uint256)": "771602f7",
					"divide(uint256,uint256)": "f88e9fbf",
					"mod(uint256,uint256)": "f43f523a",
					"multiply(uint256,uint256)": "165c4a16",
					"pow(uint256,uint256)": "2e4c697f",
					"sqrt(uint256)": "677342ce",
					"subtract(uint256,uint256)": "3ef5e445"
				}
			},
			"storageLayout": {
				"storage": [],
				"types": null
			},
			"userdoc": {
				"kind": "user",
				"methods": {},
				"version": 1
			}
		}
	}
}