{
	"data": {
		"bytecode": {
			"linkReferences": {},
			"object": "608060405234801561000f575f80fd5b50604051611b15380380611b1583398181016040528101906100319190610239565b888888825f908161004291906105a9565b50816001908161005291906105a9565b5080600281905550505050856003908161006c91906105a9565b5084600481905550836005908161008391906105a9565b5082600681905550816007908161009a91906105a9565b5080600890816100aa91906105a9565b50505050505050505050610678565b5f604051905090565b5f80fd5b5f80fd5b5f80fd5b5f80fd5b5f601f19601f8301169050919050565b7f4e487b71000000000000000000000000000000000000000000000000000000005f52604160045260245ffd5b610118826100d2565b810181811067ffffffffffffffff82111715610137576101366100e2565b5b80604052505050565b5f6101496100b9565b9050610155828261010f565b919050565b5f67ffffffffffffffff821115610174576101736100e2565b5b61017d826100d2565b9050602081019050919050565b8281835e5f83830152505050565b5f6101aa6101a58461015a565b610140565b9050828152602081018484840111156101c6576101c56100ce565b5b6101d184828561018a565b509392505050565b5f82601f8301126101ed576101ec6100ca565b5b81516101fd848260208601610198565b91505092915050565b5f819050919050565b61021881610206565b8114610222575f80fd5b50565b5f815190506102338161020f565b92915050565b5f805f805f805f805f6101208a8c031215610257576102566100c2565b5b5f8a015167ffffffffffffffff811115610274576102736100c6565b5b6102808c828d016101d9565b99505060208a015167ffffffffffffffff8111156102a1576102a06100c6565b5b6102ad8c828d016101d9565b98505060406102be8c828d01610225565b97505060608a015167ffffffffffffffff8111156102df576102de6100c6565b5b6102eb8c828d016101d9565b96505060806102fc8c828d01610225565b95505060a08a015167ffffffffffffffff81111561031d5761031c6100c6565b5b6103298c828d016101d9565b94505060c061033a8c828d01610225565b93505060e08a015167ffffffffffffffff81111561035b5761035a6100c6565b5b6103678c828d016101d9565b9250506101008a015167ffffffffffffffff811115610389576103886100c6565b5b6103958c828d016101d9565b9150509295985092959850929598565b5f81519050919050565b7f4e487b71000000000000000000000000000000000000000000000000000000005f52602260045260245ffd5b5f60028204905060018216806103f357607f821691505b602082108103610406576104056103af565b5b50919050565b5f819050815f5260205f209050919050565b5f6020601f8301049050919050565b5f82821b905092915050565b5f600883026104687fffffffffffffffffffffffffffffffffffffffffffffffffffffffffffffffff8261042d565b610472868361042d565b95508019841693508086168417925050509392505050565b5f819050919050565b5f6104ad6104a86104a384610206565b61048a565b610206565b9050919050565b5f819050919050565b6104c683610493565b6104da6104d2826104b4565b848454610439565b825550505050565b5f90565b6104ee6104e2565b6104f98184846104bd565b505050565b5b8181101561051c576105115f826104e6565b6001810190506104ff565b5050565b601f821115610561576105328161040c565b61053b8461041e565b8101602085101561054a578190505b61055e6105568561041e565b8301826104fe565b50505b505050565b5f82821c905092915050565b5f6105815f1984600802610566565b1980831691505092915050565b5f6105998383610572565b9150826002028217905092915050565b6105b2826103a5565b67ffffffffffffffff8111156105cb576105ca6100e2565b5b6105d582546103dc565b6105e0828285610520565b5f60209050601f831160018114610611575f84156105ff578287015190505b610609858261058e565b865550610670565b601f19841661061f8661040c565b5f5b8281101561064657848901518255600182019150602085019450602081019050610621565b86831015610663578489015161065f601f891682610572565b8355505b6001600288020188555050505b505050505050565b611490806106855f395ff3fe608060405234801561000f575f80fd5b5060043610610109575f3560e01c80639d8c8315116100a0578063cb9cb0c21161006f578063cb9cb0c21461027a578063d57831f514610298578063eb96548f146102b6578063f27bba6e146102d4578063f8fd1948146102f057610109565b80639d8c831514610200578063b508ba3114610220578063b975abb31461023e578063c607ba4d1461025c57610109565b806351636a0d116100dc57806351636a0d146101875780635fd7b16a146101a35780638d1d2d90146101c457806399d568b3146101e257610109565b80630cf8c2421461010d57806311ebae41146101295780631b0c2670146101475780634128eda014610166575b5f80fd5b61012760048036038101906101229190610d0b565b610310565b005b610131610326565b60405161013e9190610dc6565b60405180910390f35b61014f6103b2565b60405161015d929190610de6565b60405180910390f35b61016e6104d5565b60405161017e9493929190610e33565b60405180910390f35b6101a1600480360381019061019c9190610fd6565b610607565b005b6101ab610632565b6040516101bb9493929190610e33565b60405180910390f35b6101cc610764565b6040516101d9919061105e565b60405180910390f35b6101ea61076a565b6040516101f7919061105e565b60405180910390f35b610208610770565b60405161021793929190611077565b60405180910390f35b610228610899565b6040516102359190610dc6565b60405180910390f35b610246610925565b6040516102539190610dc6565b60405180910390f35b6102646109b1565b6040516102719190610dc6565b60405180910390f35b610282610a3d565b60405161028f9190610dc6565b60405180910390f35b6102a0610ac8565b6040516102ad919061105e565b60405180910390f35b6102be610ace565b6040516102cb9190610dc6565b60405180910390f35b6102ee60048036038101906102e99190610d0b565b610b5a565b005b6102f8610b70565b60405161030793929190611077565b60405180910390f35b8181600791826103219291906112be565b505050565b60018054610333906110f1565b80601f016020809104026020016040519081016040528092919081815260200182805461035f906110f1565b80156103aa5780601f10610381576101008083540402835291602001916103aa565b820191905f5260205f20905b81548152906001019060200180831161038d57829003601f168201915b505050505081565b606080600760088180546103c5906110f1565b80601f01602080910402602001604051908101604052809291908181526020018280546103f1906110f1565b801561043c5780601f106104135761010080835404028352916020019161043c565b820191905f5260205f20905b81548152906001019060200180831161041f57829003601f168201915b5050505050915080805461044f906110f1565b80601f016020809104026020016040519081016040528092919081815260200182805461047b906110f1565b80156104c65780601f1061049d576101008083540402835291602001916104c6565b820191905f5260205f20905b8154815290600101906020018083116104a957829003601f168201915b50505050509050915091509091565b60605f60605f600360045460056006548380546104f1906110f1565b80601f016020809104026020016040519081016040528092919081815260200182805461051d906110f1565b80156105685780601f1061053f57610100808354040283529160200191610568565b820191905f5260205f20905b81548152906001019060200180831161054b57829003601f168201915b5050505050935081805461057b906110f1565b80601f01602080910402602001604051908101604052809291908181526020018280546105a7906110f1565b80156105f25780601f106105c9576101008083540402835291602001916105f2565b820191905f5260205f20905b8154815290600101906020018083116105d557829003601f168201915b50505050509150935093509350935090919293565b825f9081610615919061138b565b508160019081610625919061138b565b5080600281905550505050565b60605f60605f6003600454600560065483805461064e906110f1565b80601f016020809104026020016040519081016040528092919081815260200182805461067a906110f1565b80156106c55780601f1061069c576101008083540402835291602001916106c5565b820191905f5260205f20905b8154815290600101906020018083116106a857829003601f168201915b505050505093508180546106d8906110f1565b80601f0160208091040260200160405190810160405280929190818152602001828054610704906110f1565b801561074f5780601f106107265761010080835404028352916020019161074f565b820191905f5260205f20905b81548152906001019060200180831161073257829003601f168201915b50505050509150935093509350935090919293565b60045481565b60025481565b6060805f806001600254828054610786906110f1565b80601f01602080910402602001604051908101604052809291908181526020018280546107b2906110f1565b80156107fd5780601f106107d4576101008083540402835291602001916107fd565b820191905f5260205f20905b8154815290600101906020018083116107e057829003601f168201915b50505050509250818054610810906110f1565b80601f016020809104026020016040519081016040528092919081815260200182805461083c906110f1565b80156108875780601f1061085e57610100808354040283529160200191610887565b820191905f5260205f20905b81548152906001019060200180831161086a57829003601f168201915b50505050509150925092509250909192565b600380546108a6906110f1565b80601f01602080910402602001604051908101604052809291908181526020018280546108d2906110f1565b801561091d5780601f106108f45761010080835404028352916020019161091d565b820191905f5260205f20905b81548152906001019060200180831161090057829003601f168201915b505050505081565b60078054610932906110f1565b80601f016020809104026020016040519081016040528092919081815260200182805461095e906110f1565b80156109a95780601f10610980576101008083540402835291602001916109a9565b820191905f5260205f20905b81548152906001019060200180831161098c57829003601f168201915b505050505081565b600580546109be906110f1565b80601f01602080910402602001604051908101604052809291908181526020018280546109ea906110f1565b8015610a355780601f10610a0c57610100808354040283529160200191610a35565b820191905f5260205f20905b815481529060010190602001808311610a1857829003601f168201915b505050505081565b5f8054610a49906110f1565b80601f0160208091040260200160405190810160405280929190818152602001828054610a75906110f1565b8015610ac05780601f10610a9757610100808354040283529160200191610ac0565b820191905f5260205f20905b815481529060010190602001808311610aa357829003601f168201915b505050505081565b60065481565b60088054610adb906110f1565b80601f0160208091040260200160405190810160405280929190818152602001828054610b07906110f1565b8015610b525780601f10610b2957610100808354040283529160200191610b52565b820191905f5260205f20905b815481529060010190602001808311610b3557829003601f168201915b505050505081565b818160089182610b6b9291906112be565b505050565b6060805f806001600254828054610b86906110f1565b80601f0160208091040260200160405190810160405280929190818152602001828054610bb2906110f1565b8015610bfd5780601f10610bd457610100808354040283529160200191610bfd565b820191905f5260205f20905b815481529060010190602001808311610be057829003601f168201915b50505050509250818054610c10906110f1565b80601f0160208091040260200160405190810160405280929190818152602001828054610c3c906110f1565b8015610c875780601f10610c5e57610100808354040283529160200191610c87565b820191905f5260205f20905b815481529060010190602001808311610c6a57829003601f168201915b50505050509150925092509250909192565b5f604051905090565b5f80fd5b5f80fd5b5f80fd5b5f80fd5b5f80fd5b5f8083601f840112610ccb57610cca610caa565b5b8235905067ffffffffffffffff811115610ce857610ce7610cae565b5b602083019150836001820283011115610d0457610d03610cb2565b5b9250929050565b5f8060208385031215610d2157610d20610ca2565b5b5f83013567ffffffffffffffff811115610d3e57610d3d610ca6565b5b610d4a85828601610cb6565b92509250509250929050565b5f81519050919050565b5f82825260208201905092915050565b8281835e5f83830152505050565b5f601f19601f8301169050919050565b5f610d9882610d56565b610da28185610d60565b9350610db2818560208601610d70565b610dbb81610d7e565b840191505092915050565b5f6020820190508181035f830152610dde8184610d8e565b905092915050565b5f6040820190508181035f830152610dfe8185610d8e565b90508181036020830152610e128184610d8e565b90509392505050565b5f819050919050565b610e2d81610e1b565b82525050565b5f6080820190508181035f830152610e4b8187610d8e565b9050610e5a6020830186610e24565b8181036040830152610e6c8185610d8e565b9050610e7b6060830184610e24565b95945050505050565b5f80fd5b7f4e487b71000000000000000000000000000000000000000000000000000000005f52604160045260245ffd5b610ebe82610d7e565b810181811067ffffffffffffffff82111715610edd57610edc610e88565b5b80604052505050565b5f610eef610c99565b9050610efb8282610eb5565b919050565b5f67ffffffffffffffff821115610f1a57610f19610e88565b5b610f2382610d7e565b9050602081019050919050565b828183375f83830152505050565b5f610f50610f4b84610f00565b610ee6565b905082815260208101848484011115610f6c57610f6b610e84565b5b610f77848285610f30565b509392505050565b5f82601f830112610f9357610f92610caa565b5b8135610fa3848260208601610f3e565b91505092915050565b610fb581610e1b565b8114610fbf575f80fd5b50565b5f81359050610fd081610fac565b92915050565b5f805f60608486031215610fed57610fec610ca2565b5b5f84013567ffffffffffffffff81111561100a57611009610ca6565b5b61101686828701610f7f565b935050602084013567ffffffffffffffff81111561103757611036610ca6565b5b61104386828701610f7f565b925050604061105486828701610fc2565b9150509250925092565b5f6020820190506110715f830184610e24565b92915050565b5f6060820190508181035f83015261108f8186610d8e565b905081810360208301526110a38185610d8e565b90506110b26040830184610e24565b949350505050565b5f82905092915050565b7f4e487b71000000000000000000000000000000000000000000000000000000005f52602260045260245ffd5b5f600282049050600182168061110857607f821691505b60208210810361111b5761111a6110c4565b5b50919050565b5f819050815f5260205f209050919050565b5f6020601f8301049050919050565b5f82821b905092915050565b5f6008830261117d7fffffffffffffffffffffffffffffffffffffffffffffffffffffffffffffffff82611142565b6111878683611142565b95508019841693508086168417925050509392505050565b5f819050919050565b5f6111c26111bd6111b884610e1b565b61119f565b610e1b565b9050919050565b5f819050919050565b6111db836111a8565b6111ef6111e7826111c9565b84845461114e565b825550505050565b5f90565b6112036111f7565b61120e8184846111d2565b505050565b5b81811015611231576112265f826111fb565b600181019050611214565b5050565b601f8211156112765761124781611121565b61125084611133565b8101602085101561125f578190505b61127361126b85611133565b830182611213565b50505b505050565b5f82821c905092915050565b5f6112965f198460080261127b565b1980831691505092915050565b5f6112ae8383611287565b9150826002028217905092915050565b6112c883836110ba565b67ffffffffffffffff8111156112e1576112e0610e88565b5b6112eb82546110f1565b6112f6828285611235565b5f601f831160018114611323575f8415611311578287013590505b61131b85826112a3565b865550611382565b601f19841661133186611121565b5f5b8281101561135857848901358255600182019150602085019450602081019050611333565b868310156113755784890135611371601f891682611287565b8355505b6001600288020188555050505b50505050505050565b61139482610d56565b67ffffffffffffffff8111156113ad576113ac610e88565b5b6113b782546110f1565b6113c2828285611235565b5f60209050601f8311600181146113f3575f84156113e1578287015190505b6113eb85826112a3565b865550611452565b601f19841661140186611121565b5f5b8281101561142857848901518255600182019150602085019450602081019050611403565b868310156114455784890151611441601f891682611287565b8355505b6001600288020188555050505b50505050505056fea26469706673582212203ece96aee8e6701bf4480668e6d53c0280b0af0badc684d772c5df5c8473779a64736f6c634300081a0033",
			"opcodes": "PUSH1 0x80 PUSH1 0x40 MSTORE CALLVALUE DUP1 ISZERO PUSH2 0xF JUMPI PUSH0 DUP1 REVERT JUMPDEST POP PUSH1 0x40 MLOAD PUSH2 0x1B15 CODESIZE SUB DUP1 PUSH2 0x1B15 DUP4 CODECOPY DUP2 DUP2 ADD PUSH1 0x40 MSTORE DUP2 ADD SWAP1 PUSH2 0x31 SWAP2 SWAP1 PUSH2 0x239 JUMP JUMPDEST DUP9 DUP9 DUP9 DUP3 PUSH0 SWAP1 DUP2 PUSH2 0x42 SWAP2 SWAP1 PUSH2 0x5A9 JUMP JUMPDEST POP DUP2 PUSH1 0x1 SWAP1 DUP2 PUSH2 0x52 SWAP2 SWAP1 PUSH2 0x5A9 JUMP JUMPDEST POP DUP1 PUSH1 0x2 DUP2 SWAP1 SSTORE POP POP POP POP DUP6 PUSH1 0x3 SWAP1 DUP2 PUSH2 0x6C SWAP2 SWAP1 PUSH2 0x5A9 JUMP JUMPDEST POP DUP5 PUSH1 0x4 DUP2 SWAP1 SSTORE POP DUP4 PUSH1 0x5 SWAP1 DUP2 PUSH2 0x83 SWAP2 SWAP1 PUSH2 0x5A9 JUMP JUMPDEST POP DUP3 PUSH1 0x6 DUP2 SWAP1 SSTORE POP DUP2 PUSH1 0x7 SWAP1 DUP2 PUSH2 0x9A SWAP2 SWAP1 PUSH2 0x5A9 JUMP JUMPDEST POP DUP1 PUSH1 0x8 SWAP1 DUP2 PUSH2 0xAA SWAP2 SWAP1 PUSH2 0x5A9 JUMP JUMPDEST POP POP POP POP POP POP POP POP POP POP PUSH2 0x678 JUMP JUMPDEST PUSH0 PUSH1 0x40 MLOAD SWAP1 POP SWAP1 JUMP JUMPDEST PUSH0 DUP1 REVERT JUMPDEST PUSH0 DUP1 REVERT JUMPDEST PUSH0 DUP1 REVERT JUMPDEST PUSH0 DUP1 REVERT JUMPDEST PUSH0 PUSH1 0x1F NOT PUSH1 0x1F DUP4 ADD AND SWAP1 POP SWAP2 SWAP1 POP JUMP JUMPDEST PUSH32 0x4E487B7100000000000000000000000000000000000000000000000000000000 PUSH0 MSTORE PUSH1 0x41 PUSH1 0x4 MSTORE PUSH1 0x24 PUSH0 REVERT JUMPDEST PUSH2 0x118 DUP3 PUSH2 0xD2 JUMP JUMPDEST DUP2 ADD DUP2 DUP2 LT PUSH8 0xFFFFFFFFFFFFFFFF DUP3 GT OR ISZERO PUSH2 0x137 JUMPI PUSH2 0x136 PUSH2 0xE2 JUMP JUMPDEST JUMPDEST DUP1 PUSH1 0x40 MSTORE POP POP POP JUMP JUMPDEST PUSH0 PUSH2 0x149 PUSH2 0xB9 JUMP JUMPDEST SWAP1 POP PUSH2 0x155 DUP3 DUP3 PUSH2 0x10F JUMP JUMPDEST SWAP2 SWAP1 POP JUMP JUMPDEST PUSH0 PUSH8 0xFFFFFFFFFFFFFFFF DUP3 GT ISZERO PUSH2 0x174 JUMPI PUSH2 0x173 PUSH2 0xE2 JUMP JUMPDEST JUMPDEST PUSH2 0x17D DUP3 PUSH2 0xD2 JUMP JUMPDEST SWAP1 POP PUSH1 0x20 DUP2 ADD SWAP1 POP SWAP2 SWAP1 POP JUMP JUMPDEST DUP3 DUP2 DUP4 MCOPY PUSH0 DUP4 DUP4 ADD MSTORE POP POP POP JUMP JUMPDEST PUSH0 PUSH2 0x1AA PUSH2 0x1A5 DUP5 PUSH2 0x15A JUMP JUMPDEST PUSH2 0x140 JUMP JUMPDEST SWAP1 POP DUP3 DUP2 MSTORE PUSH1 0x20 DUP2 ADD DUP5 DUP5 DUP5 ADD GT ISZERO PUSH2 0x1C6 JUMPI PUSH2 0x1C5 PUSH2 0xCE JUMP JUMPDEST JUMPDEST PUSH2 0x1D1 DUP5 DUP3 DUP6 PUSH2 0x18A JUMP JUMPDEST POP SWAP4 SWAP3 POP POP POP JUMP JUMPDEST PUSH0 DUP3 PUSH1 0x1F DUP4 ADD SLT PUSH2 0x1ED JUMPI PUSH2 0x1EC PUSH2 0xCA JUMP JUMPDEST JUMPDEST DUP2 MLOAD PUSH2 0x1FD DUP5 DUP3 PUSH1 0x20 DUP7 ADD PUSH2 0x198 JUMP JUMPDEST SWAP2 POP POP SWAP3 SWAP2 POP POP JUMP JUMPDEST PUSH0 DUP2 SWAP1 POP SWAP2 SWAP1 POP JUMP JUMPDEST PUSH2 0x218 DUP2 PUSH2 0x206 JUMP JUMPDEST DUP2 EQ PUSH2 0x222 JUMPI PUSH0 DUP1 REVERT JUMPDEST POP JUMP JUMPDEST PUSH0 DUP2 MLOAD SWAP1 POP PUSH2 0x233 DUP2 PUSH2 0x20F JUMP JUMPDEST SWAP3 SWAP2 POP POP JUMP JUMPDEST PUSH0 DUP1 PUSH0 DUP1 PUSH0 DUP1 PUSH0 DUP1 PUSH0 PUSH2 0x120 DUP11 DUP13 SUB SLT ISZERO PUSH2 0x257 JUMPI PUSH2 0x256 PUSH2 0xC2 JUMP JUMPDEST JUMPDEST PUSH0 DUP11 ADD MLOAD PUSH8 0xFFFFFFFFFFFFFFFF DUP2 GT ISZERO PUSH2 0x274 JUMPI PUSH2 0x273 PUSH2 0xC6 JUMP JUMPDEST JUMPDEST PUSH2 0x280 DUP13 DUP3 DUP14 ADD PUSH2 0x1D9 JUMP JUMPDEST SWAP10 POP POP PUSH1 0x20 DUP11 ADD MLOAD PUSH8 0xFFFFFFFFFFFFFFFF DUP2 GT ISZERO PUSH2 0x2A1 JUMPI PUSH2 0x2A0 PUSH2 0xC6 JUMP JUMPDEST JUMPDEST PUSH2 0x2AD DUP13 DUP3 DUP14 ADD PUSH2 0x1D9 JUMP JUMPDEST SWAP9 POP POP PUSH1 0x40 PUSH2 0x2BE DUP13 DUP3 DUP14 ADD PUSH2 0x225 JUMP JUMPDEST SWAP8 POP POP PUSH1 0x60 DUP11 ADD MLOAD PUSH8 0xFFFFFFFFFFFFFFFF DUP2 GT ISZERO PUSH2 0x2DF JUMPI PUSH2 0x2DE PUSH2 0xC6 JUMP JUMPDEST JUMPDEST PUSH2 0x2EB DUP13 DUP3 DUP14 ADD PUSH2 0x1D9 JUMP JUMPDEST SWAP7 POP POP PUSH1 0x80 PUSH2 0x2FC DUP13 DUP3 DUP14 ADD PUSH2 0x225 JUMP JUMPDEST SWAP6 POP POP PUSH1 0xA0 DUP11 ADD MLOAD PUSH8 0xFFFFFFFFFFFFFFFF DUP2 GT ISZERO PUSH2 0x31D JUMPI PUSH2 0x31C PUSH2 0xC6 JUMP JUMPDEST JUMPDEST PUSH2 0x329 DUP13 DUP3 DUP14 ADD PUSH2 0x1D9 JUMP JUMPDEST SWAP5 POP POP PUSH1 0xC0 PUSH2 0x33A DUP13 DUP3 DUP14 ADD PUSH2 0x225 JUMP JUMPDEST SWAP4 POP POP PUSH1 0xE0 DUP11 ADD MLOAD PUSH8 0xFFFFFFFFFFFFFFFF DUP2 GT ISZERO PUSH2 0x35B JUMPI PUSH2 0x35A PUSH2 0xC6 JUMP JUMPDEST JUMPDEST PUSH2 0x367 DUP13 DUP3 DUP14 ADD PUSH2 0x1D9 JUMP JUMPDEST SWAP3 POP POP PUSH2 0x100 DUP11 ADD MLOAD PUSH8 0xFFFFFFFFFFFFFFFF DUP2 GT ISZERO PUSH2 0x389 JUMPI PUSH2 0x388 PUSH2 0xC6 JUMP JUMPDEST JUMPDEST PUSH2 0x395 DUP13 DUP3 DUP14 ADD PUSH2 0x1D9 JUMP JUMPDEST SWAP2 POP POP SWAP3 SWAP6 SWAP9 POP SWAP3 SWAP6 SWAP9 POP SWAP3 SWAP6 SWAP9 JUMP JUMPDEST PUSH0 DUP2 MLOAD SWAP1 POP SWAP2 SWAP1 POP JUMP JUMPDEST PUSH32 0x4E487B7100000000000000000000000000000000000000000000000000000000 PUSH0 MSTORE PUSH1 0x22 PUSH1 0x4 MSTORE PUSH1 0x24 PUSH0 REVERT JUMPDEST PUSH0 PUSH1 0x2 DUP3 DIV SWAP1 POP PUSH1 0x1 DUP3 AND DUP1 PUSH2 0x3F3 JUMPI PUSH1 0x7F DUP3 AND SWAP2 POP JUMPDEST PUSH1 0x20 DUP3 LT DUP2 SUB PUSH2 0x406 JUMPI PUSH2 0x405 PUSH2 0x3AF JUMP JUMPDEST JUMPDEST POP SWAP2 SWAP1 POP JUMP JUMPDEST PUSH0 DUP2 SWAP1 POP DUP2 PUSH0 MSTORE PUSH1 0x20 PUSH0 KECCAK256 SWAP1 POP SWAP2 SWAP1 POP JUMP JUMPDEST PUSH0 PUSH1 0x20 PUSH1 0x1F DUP4 ADD DIV SWAP1 POP SWAP2 SWAP1 POP JUMP JUMPDEST PUSH0 DUP3 DUP3 SHL SWAP1 POP SWAP3 SWAP2 POP POP JUMP JUMPDEST PUSH0 PUSH1 0x8 DUP4 MUL PUSH2 0x468 PUSH32 0xFFFFFFFFFFFFFFFFFFFFFFFFFFFFFFFFFFFFFFFFFFFFFFFFFFFFFFFFFFFFFFFF DUP3 PUSH2 0x42D JUMP JUMPDEST PUSH2 0x472 DUP7 DUP4 PUSH2 0x42D JUMP JUMPDEST SWAP6 POP DUP1 NOT DUP5 AND SWAP4 POP DUP1 DUP7 AND DUP5 OR SWAP3 POP POP POP SWAP4 SWAP3 POP POP POP JUMP JUMPDEST PUSH0 DUP2 SWAP1 POP SWAP2 SWAP1 POP JUMP JUMPDEST PUSH0 PUSH2 0x4AD PUSH2 0x4A8 PUSH2 0x4A3 DUP5 PUSH2 0x206 JUMP JUMPDEST PUSH2 0x48A JUMP JUMPDEST PUSH2 0x206 JUMP JUMPDEST SWAP1 POP SWAP2 SWAP1 POP JUMP JUMPDEST PUSH0 DUP2 SWAP1 POP SWAP2 SWAP1 POP JUMP JUMPDEST PUSH2 0x4C6 DUP4 PUSH2 0x493 JUMP JUMPDEST PUSH2 0x4DA PUSH2 0x4D2 DUP3 PUSH2 0x4B4 JUMP JUMPDEST DUP5 DUP5 SLOAD PUSH2 0x439 JUMP JUMPDEST DUP3 SSTORE POP POP POP POP JUMP JUMPDEST PUSH0 SWAP1 JUMP JUMPDEST PUSH2 0x4EE PUSH2 0x4E2 JUMP JUMPDEST PUSH2 0x4F9 DUP2 DUP5 DUP5 PUSH2 0x4BD JUMP JUMPDEST POP POP POP JUMP JUMPDEST JUMPDEST DUP2 DUP2 LT ISZERO PUSH2 0x51C JUMPI PUSH2 0x511 PUSH0 DUP3 PUSH2 0x4E6 JUMP JUMPDEST PUSH1 0x1 DUP2 ADD SWAP1 POP PUSH2 0x4FF JUMP JUMPDEST POP POP JUMP JUMPDEST PUSH1 0x1F DUP3 GT ISZERO PUSH2 0x561 JUMPI PUSH2 0x532 DUP2 PUSH2 0x40C JUMP JUMPDEST PUSH2 0x53B DUP5 PUSH2 0x41E JUMP JUMPDEST DUP2 ADD PUSH1 0x20 DUP6 LT ISZERO PUSH2 0x54A JUMPI DUP2 SWAP1 POP JUMPDEST PUSH2 0x55E PUSH2 0x556 DUP6 PUSH2 0x41E JUMP JUMPDEST DUP4 ADD DUP3 PUSH2 0x4FE JUMP JUMPDEST POP POP JUMPDEST POP POP POP JUMP JUMPDEST PUSH0 DUP3 DUP3 SHR SWAP1 POP SWAP3 SWAP2 POP POP JUMP JUMPDEST PUSH0 PUSH2 0x581 PUSH0 NOT DUP5 PUSH1 0x8 MUL PUSH2 0x566 JUMP JUMPDEST NOT DUP1 DUP4 AND SWAP2 POP POP SWAP3 SWAP2 POP POP JUMP JUMPDEST PUSH0 PUSH2 0x599 DUP4 DUP4 PUSH2 0x572 JUMP JUMPDEST SWAP2 POP DUP3 PUSH1 0x2 MUL DUP3 OR SWAP1 POP SWAP3 SWAP2 POP POP JUMP JUMPDEST PUSH2 0x5B2 DUP3 PUSH2 0x3A5 JUMP JUMPDEST PUSH8 0xFFFFFFFFFFFFFFFF DUP2 GT ISZERO PUSH2 0x5CB JUMPI PUSH2 0x5CA PUSH2 0xE2 JUMP JUMPDEST JUMPDEST PUSH2 0x5D5 DUP3 SLOAD PUSH2 0x3DC JUMP JUMPDEST PUSH2 0x5E0 DUP3 DUP3 DUP6 PUSH2 0x520 JUMP JUMPDEST PUSH0 PUSH1 0x20 SWAP1 POP PUSH1 0x1F DUP4 GT PUSH1 0x1 DUP2 EQ PUSH2 0x611 JUMPI PUSH0 DUP5 ISZERO PUSH2 0x5FF JUMPI DUP3 DUP8 ADD MLOAD SWAP1 POP JUMPDEST PUSH2 0x609 DUP6 DUP3 PUSH2 0x58E JUMP JUMPDEST DUP7 SSTORE POP PUSH2 0x670 JUMP JUMPDEST PUSH1 0x1F NOT DUP5 AND PUSH2 0x61F DUP7 PUSH2 0x40C JUMP JUMPDEST PUSH0 JUMPDEST DUP3 DUP2 LT ISZERO PUSH2 0x646 JUMPI DUP5 DUP10 ADD MLOAD DUP3 SSTORE PUSH1 0x1 DUP3 ADD SWAP2 POP PUSH1 0x20 DUP6 ADD SWAP5 POP PUSH1 0x20 DUP2 ADD SWAP1 POP PUSH2 0x621 JUMP JUMPDEST DUP7 DUP4 LT ISZERO PUSH2 0x663 JUMPI DUP5 DUP10 ADD MLOAD PUSH2 0x65F PUSH1 0x1F DUP10 AND DUP3 PUSH2 0x572 JUMP JUMPDEST DUP4 SSTORE POP JUMPDEST PUSH1 0x1 PUSH1 0x2 DUP9 MUL ADD DUP9 SSTORE POP POP POP JUMPDEST POP POP POP POP POP POP JUMP JUMPDEST PUSH2 0x1490 DUP1 PUSH2 0x685 PUSH0 CODECOPY PUSH0 RETURN INVALID PUSH1 0x80 PUSH1 0x40 MSTORE CALLVALUE DUP1 ISZERO PUSH2 0xF JUMPI PUSH0 DUP1 REVERT JUMPDEST POP PUSH1 0x4 CALLDATASIZE LT PUSH2 0x109 JUMPI PUSH0 CALLDATALOAD PUSH1 0xE0 SHR DUP1 PUSH4 0x9D8C8315 GT PUSH2 0xA0 JUMPI DUP1 PUSH4 0xCB9CB0C2 GT PUSH2 0x6F JUMPI DUP1 PUSH4 0xCB9CB0C2 EQ PUSH2 0x27A JUMPI DUP1 PUSH4 0xD57831F5 EQ PUSH2 0x298 JUMPI DUP1 PUSH4 0xEB96548F EQ PUSH2 0x2B6 JUMPI DUP1 PUSH4 0xF27BBA6E EQ PUSH2 0x2D4 JUMPI DUP1 PUSH4 0xF8FD1948 EQ PUSH2 0x2F0 JUMPI PUSH2 0x109 JUMP JUMPDEST DUP1 PUSH4 0x9D8C8315 EQ PUSH2 0x200 JUMPI DUP1 PUSH4 0xB508BA31 EQ PUSH2 0x220 JUMPI DUP1 PUSH4 0xB975ABB3 EQ PUSH2 0x23E JUMPI DUP1 PUSH4 0xC607BA4D EQ PUSH2 0x25C JUMPI PUSH2 0x109 JUMP JUMPDEST DUP1 PUSH4 0x51636A0D GT PUSH2 0xDC JUMPI DUP1 PUSH4 0x51636A0D EQ PUSH2 0x187 JUMPI DUP1 PUSH4 0x5FD7B16A EQ PUSH2 0x1A3 JUMPI DUP1 PUSH4 0x8D1D2D90 EQ PUSH2 0x1C4 JUMPI DUP1 PUSH4 0x99D568B3 EQ PUSH2 0x1E2 JUMPI PUSH2 0x109 JUMP JUMPDEST DUP1 PUSH4 0xCF8C242 EQ PUSH2 0x10D JUMPI DUP1 PUSH4 0x11EBAE41 EQ PUSH2 0x129 JUMPI DUP1 PUSH4 0x1B0C2670 EQ PUSH2 0x147 JUMPI DUP1 PUSH4 0x4128EDA0 EQ PUSH2 0x166 JUMPI JUMPDEST PUSH0 DUP1 REVERT JUMPDEST PUSH2 0x127 PUSH1 0x4 DUP1 CALLDATASIZE SUB DUP2 ADD SWAP1 PUSH2 0x122 SWAP2 SWAP1 PUSH2 0xD0B JUMP JUMPDEST PUSH2 0x310 JUMP JUMPDEST STOP JUMPDEST PUSH2 0x131 PUSH2 0x326 JUMP JUMPDEST PUSH1 0x40 MLOAD PUSH2 0x13E SWAP2 SWAP1 PUSH2 0xDC6 JUMP JUMPDEST PUSH1 0x40 MLOAD DUP1 SWAP2 SUB SWAP1 RETURN JUMPDEST PUSH2 0x14F PUSH2 0x3B2 JUMP JUMPDEST PUSH1 0x40 MLOAD PUSH2 0x15D SWAP3 SWAP2 SWAP1 PUSH2 0xDE6 JUMP JUMPDEST PUSH1 0x40 MLOAD DUP1 SWAP2 SUB SWAP1 RETURN JUMPDEST PUSH2 0x16E PUSH2 0x4D5 JUMP JUMPDEST PUSH1 0x40 MLOAD PUSH2 0x17E SWAP5 SWAP4 SWAP3 SWAP2 SWAP1 PUSH2 0xE33 JUMP JUMPDEST PUSH1 0x40 MLOAD DUP1 SWAP2 SUB SWAP1 RETURN JUMPDEST PUSH2 0x1A1 PUSH1 0x4 DUP1 CALLDATASIZE SUB DUP2 ADD SWAP1 PUSH2 0x19C SWAP2 SWAP1 PUSH2 0xFD6 JUMP JUMPDEST PUSH2 0x607 JUMP JUMPDEST STOP JUMPDEST PUSH2 0x1AB PUSH2 0x632 JUMP JUMPDEST PUSH1 0x40 MLOAD PUSH2 0x1BB SWAP5 SWAP4 SWAP3 SWAP2 SWAP1 PUSH2 0xE33 JUMP JUMPDEST PUSH1 0x40 MLOAD DUP1 SWAP2 SUB SWAP1 RETURN JUMPDEST PUSH2 0x1CC PUSH2 0x764 JUMP JUMPDEST PUSH1 0x40 MLOAD PUSH2 0x1D9 SWAP2 SWAP1 PUSH2 0x105E JUMP JUMPDEST PUSH1 0x40 MLOAD DUP1 SWAP2 SUB SWAP1 RETURN JUMPDEST PUSH2 0x1EA PUSH2 0x76A JUMP JUMPDEST PUSH1 0x40 MLOAD PUSH2 0x1F7 SWAP2 SWAP1 PUSH2 0x105E JUMP JUMPDEST PUSH1 0x40 MLOAD DUP1 SWAP2 SUB SWAP1 RETURN JUMPDEST PUSH2 0x208 PUSH2 0x770 JUMP JUMPDEST PUSH1 0x40 MLOAD PUSH2 0x217 SWAP4 SWAP3 SWAP2 SWAP1 PUSH2 0x1077 JUMP JUMPDEST PUSH1 0x40 MLOAD DUP1 SWAP2 SUB SWAP1 RETURN JUMPDEST PUSH2 0x228 PUSH2 0x899 JUMP JUMPDEST PUSH1 0x40 MLOAD PUSH2 0x235 SWAP2 SWAP1 PUSH2 0xDC6 JUMP JUMPDEST PUSH1 0x40 MLOAD DUP1 SWAP2 SUB SWAP1 RETURN JUMPDEST PUSH2 0x246 PUSH2 0x925 JUMP JUMPDEST PUSH1 0x40 MLOAD PUSH2 0x253 SWAP2 SWAP1 PUSH2 0xDC6 JUMP JUMPDEST PUSH1 0x40 MLOAD DUP1 SWAP2 SUB SWAP1 RETURN JUMPDEST PUSH2 0x264 PUSH2 0x9B1 JUMP JUMPDEST PUSH1 0x40 MLOAD PUSH2 0x271 SWAP2 SWAP1 PUSH2 0xDC6 JUMP JUMPDEST PUSH1 0x40 MLOAD DUP1 SWAP2 SUB SWAP1 RETURN JUMPDEST PUSH2 0x282 PUSH2 0xA3D JUMP JUMPDEST PUSH1 0x40 MLOAD PUSH2 0x28F SWAP2 SWAP1 PUSH2 0xDC6 JUMP JUMPDEST PUSH1 0x40 MLOAD DUP1 SWAP2 SUB SWAP1 RETURN JUMPDEST PUSH2 0x2A0 PUSH2 0xAC8 JUMP JUMPDEST PUSH1 0x40 MLOAD PUSH2 0x2AD SWAP2 SWAP1 PUSH2 0x105E JUMP JUMPDEST PUSH1 0x40 MLOAD DUP1 SWAP2 SUB SWAP1 RETURN JUMPDEST PUSH2 0x2BE PUSH2 0xACE JUMP JUMPDEST PUSH1 0x40 MLOAD PUSH2 0x2CB SWAP2 SWAP1 PUSH2 0xDC6 JUMP JUMPDEST PUSH1 0x40 MLOAD DUP1 SWAP2 SUB SWAP1 RETURN JUMPDEST PUSH2 0x2EE PUSH1 0x4 DUP1 CALLDATASIZE SUB DUP2 ADD SWAP1 PUSH2 0x2E9 SWAP2 SWAP1 PUSH2 0xD0B JUMP JUMPDEST PUSH2 0xB5A JUMP JUMPDEST STOP JUMPDEST PUSH2 0x2F8 PUSH2 0xB70 JUMP JUMPDEST PUSH1 0x40 MLOAD PUSH2 0x307 SWAP4 SWAP3 SWAP2 SWAP1 PUSH2 0x1077 JUMP JUMPDEST PUSH1 0x40 MLOAD DUP1 SWAP2 SUB SWAP1 RETURN JUMPDEST DUP2 DUP2 PUSH1 0x7 SWAP2 DUP3 PUSH2 0x321 SWAP3 SWAP2 SWAP1 PUSH2 0x12BE JUMP JUMPDEST POP POP POP JUMP JUMPDEST PUSH1 0x1 DUP1 SLOAD PUSH2 0x333 SWAP1 PUSH2 0x10F1 JUMP JUMPDEST DUP1 PUSH1 0x1F ADD PUSH1 0x20 DUP1 SWAP2 DIV MUL PUSH1 0x20 ADD PUSH1 0x40 MLOAD SWAP1 DUP2 ADD PUSH1 0x40 MSTORE DUP1 SWAP3 SWAP2 SWAP1 DUP2 DUP2 MSTORE PUSH1 0x20 ADD DUP3 DUP1 SLOAD PUSH2 0x35F SWAP1 PUSH2 0x10F1 JUMP JUMPDEST DUP1 ISZERO PUSH2 0x3AA JUMPI DUP1 PUSH1 0x1F LT PUSH2 0x381 JUMPI PUSH2 0x100 DUP1 DUP4 SLOAD DIV MUL DUP4 MSTORE SWAP2 PUSH1 0x20 ADD SWAP2 PUSH2 0x3AA JUMP JUMPDEST DUP3 ADD SWAP2 SWAP1 PUSH0 MSTORE PUSH1 0x20 PUSH0 KECCAK256 SWAP1 JUMPDEST DUP2 SLOAD DUP2 MSTORE SWAP1 PUSH1 0x1 ADD SWAP1 PUSH1 0x20 ADD DUP1 DUP4 GT PUSH2 0x38D JUMPI DUP3 SWAP1 SUB PUSH1 0x1F AND DUP3 ADD SWAP2 JUMPDEST POP POP POP POP POP DUP2 JUMP JUMPDEST PUSH1 0x60 DUP1 PUSH1 0x7 PUSH1 0x8 DUP2 DUP1 SLOAD PUSH2 0x3C5 SWAP1 PUSH2 0x10F1 JUMP JUMPDEST DUP1 PUSH1 0x1F ADD PUSH1 0x20 DUP1 SWAP2 DIV MUL PUSH1 0x20 ADD PUSH1 0x40 MLOAD SWAP1 DUP2 ADD PUSH1 0x40 MSTORE DUP1 SWAP3 SWAP2 SWAP1 DUP2 DUP2 MSTORE PUSH1 0x20 ADD DUP3 DUP1 SLOAD PUSH2 0x3F1 SWAP1 PUSH2 0x10F1 JUMP JUMPDEST DUP1 ISZERO PUSH2 0x43C JUMPI DUP1 PUSH1 0x1F LT PUSH2 0x413 JUMPI PUSH2 0x100 DUP1 DUP4 SLOAD DIV MUL DUP4 MSTORE SWAP2 PUSH1 0x20 ADD SWAP2 PUSH2 0x43C JUMP JUMPDEST DUP3 ADD SWAP2 SWAP1 PUSH0 MSTORE PUSH1 0x20 PUSH0 KECCAK256 SWAP1 JUMPDEST DUP2 SLOAD DUP2 MSTORE SWAP1 PUSH1 0x1 ADD SWAP1 PUSH1 0x20 ADD DUP1 DUP4 GT PUSH2 0x41F JUMPI DUP3 SWAP1 SUB PUSH1 0x1F AND DUP3 ADD SWAP2 JUMPDEST POP POP POP POP POP SWAP2 POP DUP1 DUP1 SLOAD PUSH2 0x44F SWAP1 PUSH2 0x10F1 JUMP JUMPDEST DUP1 PUSH1 0x1F ADD PUSH1 0x20 DUP1 SWAP2 DIV MUL PUSH1 0x20 ADD PUSH1 0x40 MLOAD SWAP1 DUP2 ADD PUSH1 0x40 MSTORE DUP1 SWAP3 SWAP2 SWAP1 DUP2 DUP2 MSTORE PUSH1 0x20 ADD DUP3 DUP1 SLOAD PUSH2 0x47B SWAP1 PUSH2 0x10F1 JUMP JUMPDEST DUP1 ISZERO PUSH2 0x4C6 JUMPI DUP1 PUSH1 0x1F LT PUSH2 0x49D JUMPI PUSH2 0x100 DUP1 DUP4 SLOAD DIV MUL DUP4 MSTORE SWAP2 PUSH1 0x20 ADD SWAP2 PUSH2 0x4C6 JUMP JUMPDEST DUP3 ADD SWAP2 SWAP1 PUSH0 MSTORE PUSH1 0x20 PUSH0 KECCAK256 SWAP1 JUMPDEST DUP2 SLOAD DUP2 MSTORE SWAP1 PUSH1 0x1 ADD SWAP1 PUSH1 0x20 ADD DUP1 DUP4 GT PUSH2 0x4A9 JUMPI DUP3 SWAP1 SUB PUSH1 0x1F AND DUP3 ADD SWAP2 JUMPDEST POP POP POP POP POP SWAP1 POP SWAP2 POP SWAP2 POP SWAP1 SWAP2 JUMP JUMPDEST PUSH1 0x60 PUSH0 PUSH1 0x60 PUSH0 PUSH1 0x3 PUSH1 0x4 SLOAD PUSH1 0x5 PUSH1 0x6 SLOAD DUP4 DUP1 SLOAD PUSH2 0x4F1 SWAP1 PUSH2 0x10F1 JUMP JUMPDEST DUP1 PUSH1 0x1F ADD PUSH1 0x20 DUP1 SWAP2 DIV MUL PUSH1 0x20 ADD PUSH1 0x40 MLOAD SWAP1 DUP2 ADD PUSH1 0x40 MSTORE DUP1 SWAP3 SWAP2 SWAP1 DUP2 DUP2 MSTORE PUSH1 0x20 ADD DUP3 DUP1 SLOAD PUSH2 0x51D SWAP1 PUSH2 0x10F1 JUMP JUMPDEST DUP1 ISZERO PUSH2 0x568 JUMPI DUP1 PUSH1 0x1F LT PUSH2 0x53F JUMPI PUSH2 0x100 DUP1 DUP4 SLOAD DIV MUL DUP4 MSTORE SWAP2 PUSH1 0x20 ADD SWAP2 PUSH2 0x568 JUMP JUMPDEST DUP3 ADD SWAP2 SWAP1 PUSH0 MSTORE PUSH1 0x20 PUSH0 KECCAK256 SWAP1 JUMPDEST DUP2 SLOAD DUP2 MSTORE SWAP1 PUSH1 0x1 ADD SWAP1 PUSH1 0x20 ADD DUP1 DUP4 GT PUSH2 0x54B JUMPI DUP3 SWAP1 SUB PUSH1 0x1F AND DUP3 ADD SWAP2 JUMPDEST POP POP POP POP POP SWAP4 POP DUP2 DUP1 SLOAD PUSH2 0x57B SWAP1 PUSH2 0x10F1 JUMP JUMPDEST DUP1 PUSH1 0x1F ADD PUSH1 0x20 DUP1 SWAP2 DIV MUL PUSH1 0x20 ADD PUSH1 0x40 MLOAD SWAP1 DUP2 ADD PUSH1 0x40 MSTORE DUP1 SWAP3 SWAP2 SWAP1 DUP2 DUP2 MSTORE PUSH1 0x20 ADD DUP3 DUP1 SLOAD PUSH2 0x5A7 SWAP1 PUSH2 0x10F1 JUMP JUMPDEST DUP1 ISZERO PUSH2 0x5F2 JUMPI DUP1 PUSH1 0x1F LT PUSH2 0x5C9 JUMPI PUSH2 0x100 DUP1 DUP4 SLOAD DIV MUL DUP4 MSTORE SWAP2 PUSH1 0x20 ADD SWAP2 PUSH2 0x5F2 JUMP JUMPDEST DUP3 ADD SWAP2 SWAP1 PUSH0 MSTORE PUSH1 0x20 PUSH0 KECCAK256 SWAP1 JUMPDEST DUP2 SLOAD DUP2 MSTORE SWAP1 PUSH1 0x1 ADD SWAP1 PUSH1 0x20 ADD DUP1 DUP4 GT PUSH2 0x5D5 JUMPI DUP3 SWAP1 SUB PUSH1 0x1F AND DUP3 ADD SWAP2 JUMPDEST POP POP POP POP POP SWAP2 POP SWAP4 POP SWAP4 POP SWAP4 POP SWAP4 POP SWAP1 SWAP2 SWAP3 SWAP4 JUMP JUMPDEST DUP3 PUSH0 SWAP1 DUP2 PUSH2 0x615 SWAP2 SWAP1 PUSH2 0x138B JUMP JUMPDEST POP DUP2 PUSH1 0x1 SWAP1 DUP2 PUSH2 0x625 SWAP2 SWAP1 PUSH2 0x138B JUMP JUMPDEST POP DUP1 PUSH1 0x2 DUP2 SWAP1 SSTORE POP POP POP POP JUMP JUMPDEST PUSH1 0x60 PUSH0 PUSH1 0x60 PUSH0 PUSH1 0x3 PUSH1 0x4 SLOAD PUSH1 0x5 PUSH1 0x6 SLOAD DUP4 DUP1 SLOAD PUSH2 0x64E SWAP1 PUSH2 0x10F1 JUMP JUMPDEST DUP1 PUSH1 0x1F ADD PUSH1 0x20 DUP1 SWAP2 DIV MUL PUSH1 0x20 ADD PUSH1 0x40 MLOAD SWAP1 DUP2 ADD PUSH1 0x40 MSTORE DUP1 SWAP3 SWAP2 SWAP1 DUP2 DUP2 MSTORE PUSH1 0x20 ADD DUP3 DUP1 SLOAD PUSH2 0x67A SWAP1 PUSH2 0x10F1 JUMP JUMPDEST DUP1 ISZERO PUSH2 0x6C5 JUMPI DUP1 PUSH1 0x1F LT PUSH2 0x69C JUMPI PUSH2 0x100 DUP1 DUP4 SLOAD DIV MUL DUP4 MSTORE SWAP2 PUSH1 0x20 ADD SWAP2 PUSH2 0x6C5 JUMP JUMPDEST DUP3 ADD SWAP2 SWAP1 PUSH0 MSTORE PUSH1 0x20 PUSH0 KECCAK256 SWAP1 JUMPDEST DUP2 SLOAD DUP2 MSTORE SWAP1 PUSH1 0x1 ADD SWAP1 PUSH1 0x20 ADD DUP1 DUP4 GT PUSH2 0x6A8 JUMPI DUP3 SWAP1 SUB PUSH1 0x1F AND DUP3 ADD SWAP2 JUMPDEST POP POP POP POP POP SWAP4 POP DUP2 DUP1 SLOAD PUSH2 0x6D8 SWAP1 PUSH2 0x10F1 JUMP JUMPDEST DUP1 PUSH1 0x1F ADD PUSH1 0x20 DUP1 SWAP2 DIV MUL PUSH1 0x20 ADD PUSH1 0x40 MLOAD SWAP1 DUP2 ADD PUSH1 0x40 MSTORE DUP1 SWAP3 SWAP2 SWAP1 DUP2 DUP2 MSTORE PUSH1 0x20 ADD DUP3 DUP1 SLOAD PUSH2 0x704 SWAP1 PUSH2 0x10F1 JUMP JUMPDEST DUP1 ISZERO PUSH2 0x74F JUMPI DUP1 PUSH1 0x1F LT PUSH2 0x726 JUMPI PUSH2 0x100 DUP1 DUP4 SLOAD DIV MUL DUP4 MSTORE SWAP2 PUSH1 0x20 ADD SWAP2 PUSH2 0x74F JUMP JUMPDEST DUP3 ADD SWAP2 SWAP1 PUSH0 MSTORE PUSH1 0x20 PUSH0 KECCAK256 SWAP1 JUMPDEST DUP2 SLOAD DUP2 MSTORE SWAP1 PUSH1 0x1 ADD SWAP1 PUSH1 0x20 ADD DUP1 DUP4 GT PUSH2 0x732 JUMPI DUP3 SWAP1 SUB PUSH1 0x1F AND DUP3 ADD SWAP2 JUMPDEST POP POP POP POP POP SWAP2 POP SWAP4 POP SWAP4 POP SWAP4 POP SWAP4 POP SWAP1 SWAP2 SWAP3 SWAP4 JUMP JUMPDEST PUSH1 0x4 SLOAD DUP2 JUMP JUMPDEST PUSH1 0x2 SLOAD DUP2 JUMP JUMPDEST PUSH1 0x60 DUP1 PUSH0 DUP1 PUSH1 0x1 PUSH1 0x2 SLOAD DUP3 DUP1 SLOAD PUSH2 0x786 SWAP1 PUSH2 0x10F1 JUMP JUMPDEST DUP1 PUSH1 0x1F ADD PUSH1 0x20 DUP1 SWAP2 DIV MUL PUSH1 0x20 ADD PUSH1 0x40 MLOAD SWAP1 DUP2 ADD PUSH1 0x40 MSTORE DUP1 SWAP3 SWAP2 SWAP1 DUP2 DUP2 MSTORE PUSH1 0x20 ADD DUP3 DUP1 SLOAD PUSH2 0x7B2 SWAP1 PUSH2 0x10F1 JUMP JUMPDEST DUP1 ISZERO PUSH2 0x7FD JUMPI DUP1 PUSH1 0x1F LT PUSH2 0x7D4 JUMPI PUSH2 0x100 DUP1 DUP4 SLOAD DIV MUL DUP4 MSTORE SWAP2 PUSH1 0x20 ADD SWAP2 PUSH2 0x7FD JUMP JUMPDEST DUP3 ADD SWAP2 SWAP1 PUSH0 MSTORE PUSH1 0x20 PUSH0 KECCAK256 SWAP1 JUMPDEST DUP2 SLOAD DUP2 MSTORE SWAP1 PUSH1 0x1 ADD SWAP1 PUSH1 0x20 ADD DUP1 DUP4 GT PUSH2 0x7E0 JUMPI DUP3 SWAP1 SUB PUSH1 0x1F AND DUP3 ADD SWAP2 JUMPDEST POP POP POP POP POP SWAP3 POP DUP2 DUP1 SLOAD PUSH2 0x810 SWAP1 PUSH2 0x10F1 JUMP JUMPDEST DUP1 PUSH1 0x1F ADD PUSH1 0x20 DUP1 SWAP2 DIV MUL PUSH1 0x20 ADD PUSH1 0x40 MLOAD SWAP1 DUP2 ADD PUSH1 0x40 MSTORE DUP1 SWAP3 SWAP2 SWAP1 DUP2 DUP2 MSTORE PUSH1 0x20 ADD DUP3 DUP1 SLOAD PUSH2 0x83C SWAP1 PUSH2 0x10F1 JUMP JUMPDEST DUP1 ISZERO PUSH2 0x887 JUMPI DUP1 PUSH1 0x1F LT PUSH2 0x85E JUMPI PUSH2 0x100 DUP1 DUP4 SLOAD DIV MUL DUP4 MSTORE SWAP2 PUSH1 0x20 ADD SWAP2 PUSH2 0x887 JUMP JUMPDEST DUP3 ADD SWAP2 SWAP1 PUSH0 MSTORE PUSH1 0x20 PUSH0 KECCAK256 SWAP1 JUMPDEST DUP2 SLOAD DUP2 MSTORE SWAP1 PUSH1 0x1 ADD SWAP1 PUSH1 0x20 ADD DUP1 DUP4 GT PUSH2 0x86A JUMPI DUP3 SWAP1 SUB PUSH1 0x1F AND DUP3 ADD SWAP2 JUMPDEST POP POP POP POP POP SWAP2 POP SWAP3 POP SWAP3 POP SWAP3 POP SWAP1 SWAP2 SWAP3 JUMP JUMPDEST PUSH1 0x3 DUP1 SLOAD PUSH2 0x8A6 SWAP1 PUSH2 0x10F1 JUMP JUMPDEST DUP1 PUSH1 0x1F ADD PUSH1 0x20 DUP1 SWAP2 DIV MUL PUSH1 0x20 ADD PUSH1 0x40 MLOAD SWAP1 DUP2 ADD PUSH1 0x40 MSTORE DUP1 SWAP3 SWAP2 SWAP1 DUP2 DUP2 MSTORE PUSH1 0x20 ADD DUP3 DUP1 SLOAD PUSH2 0x8D2 SWAP1 PUSH2 0x10F1 JUMP JUMPDEST DUP1 ISZERO PUSH2 0x91D JUMPI DUP1 PUSH1 0x1F LT PUSH2 0x8F4 JUMPI PUSH2 0x100 DUP1 DUP4 SLOAD DIV MUL DUP4 MSTORE SWAP2 PUSH1 0x20 ADD SWAP2 PUSH2 0x91D JUMP JUMPDEST DUP3 ADD SWAP2 SWAP1 PUSH0 MSTORE PUSH1 0x20 PUSH0 KECCAK256 SWAP1 JUMPDEST DUP2 SLOAD DUP2 MSTORE SWAP1 PUSH1 0x1 ADD SWAP1 PUSH1 0x20 ADD DUP1 DUP4 GT PUSH2 0x900 JUMPI DUP3 SWAP1 SUB PUSH1 0x1F AND DUP3 ADD SWAP2 JUMPDEST POP POP POP POP POP DUP2 JUMP JUMPDEST PUSH1 0x7 DUP1 SLOAD PUSH2 0x932 SWAP1 PUSH2 0x10F1 JUMP JUMPDEST DUP1 PUSH1 0x1F ADD PUSH1 0x20 DUP1 SWAP2 DIV MUL PUSH1 0x20 ADD PUSH1 0x40 MLOAD SWAP1 DUP2 ADD PUSH1 0x40 MSTORE DUP1 SWAP3 SWAP2 SWAP1 DUP2 DUP2 MSTORE PUSH1 0x20 ADD DUP3 DUP1 SLOAD PUSH2 0x95E SWAP1 PUSH2 0x10F1 JUMP JUMPDEST DUP1 ISZERO PUSH2 0x9A9 JUMPI DUP1 PUSH1 0x1F LT PUSH2 0x980 JUMPI PUSH2 0x100 DUP1 DUP4 SLOAD DIV MUL DUP4 MSTORE SWAP2 PUSH1 0x20 ADD SWAP2 PUSH2 0x9A9 JUMP JUMPDEST DUP3 ADD SWAP2 SWAP1 PUSH0 MSTORE PUSH1 0x20 PUSH0 KECCAK256 SWAP1 JUMPDEST DUP2 SLOAD DUP2 MSTORE SWAP1 PUSH1 0x1 ADD SWAP1 PUSH1 0x20 ADD DUP1 DUP4 GT PUSH2 0x98C JUMPI DUP3 SWAP1 SUB PUSH1 0x1F AND DUP3 ADD SWAP2 JUMPDEST POP POP POP POP POP DUP2 JUMP JUMPDEST PUSH1 0x5 DUP1 SLOAD PUSH2 0x9BE SWAP1 PUSH2 0x10F1 JUMP JUMPDEST DUP1 PUSH1 0x1F ADD PUSH1 0x20 DUP1 SWAP2 DIV MUL PUSH1 0x20 ADD PUSH1 0x40 MLOAD SWAP1 DUP2 ADD PUSH1 0x40 MSTORE DUP1 SWAP3 SWAP2 SWAP1 DUP2 DUP2 MSTORE PUSH1 0x20 ADD DUP3 DUP1 SLOAD PUSH2 0x9EA SWAP1 PUSH2 0x10F1 JUMP JUMPDEST DUP1 ISZERO PUSH2 0xA35 JUMPI DUP1 PUSH1 0x1F LT PUSH2 0xA0C JUMPI PUSH2 0x100 DUP1 DUP4 SLOAD DIV MUL DUP4 MSTORE SWAP2 PUSH1 0x20 ADD SWAP2 PUSH2 0xA35 JUMP JUMPDEST DUP3 ADD SWAP2 SWAP1 PUSH0 MSTORE PUSH1 0x20 PUSH0 KECCAK256 SWAP1 JUMPDEST DUP2 SLOAD DUP2 MSTORE SWAP1 PUSH1 0x1 ADD SWAP1 PUSH1 0x20 ADD DUP1 DUP4 GT PUSH2 0xA18 JUMPI DUP3 SWAP1 SUB PUSH1 0x1F AND DUP3 ADD SWAP2 JUMPDEST POP POP POP POP POP DUP2 JUMP JUMPDEST PUSH0 DUP1 SLOAD PUSH2 0xA49 SWAP1 PUSH2 0x10F1 JUMP JUMPDEST DUP1 PUSH1 0x1F ADD PUSH1 0x20 DUP1 SWAP2 DIV MUL PUSH1 0x20 ADD PUSH1 0x40 MLOAD SWAP1 DUP2 ADD PUSH1 0x40 MSTORE DUP1 SWAP3 SWAP2 SWAP1 DUP2 DUP2 MSTORE PUSH1 0x20 ADD DUP3 DUP1 SLOAD PUSH2 0xA75 SWAP1 PUSH2 0x10F1 JUMP JUMPDEST DUP1 ISZERO PUSH2 0xAC0 JUMPI DUP1 PUSH1 0x1F LT PUSH2 0xA97 JUMPI PUSH2 0x100 DUP1 DUP4 SLOAD DIV MUL DUP4 MSTORE SWAP2 PUSH1 0x20 ADD SWAP2 PUSH2 0xAC0 JUMP JUMPDEST DUP3 ADD SWAP2 SWAP1 PUSH0 MSTORE PUSH1 0x20 PUSH0 KECCAK256 SWAP1 JUMPDEST DUP2 SLOAD DUP2 MSTORE SWAP1 PUSH1 0x1 ADD SWAP1 PUSH1 0x20 ADD DUP1 DUP4 GT PUSH2 0xAA3 JUMPI DUP3 SWAP1 SUB PUSH1 0x1F AND DUP3 ADD SWAP2 JUMPDEST POP POP POP POP POP DUP2 JUMP JUMPDEST PUSH1 0x6 SLOAD DUP2 JUMP JUMPDEST PUSH1 0x8 DUP1 SLOAD PUSH2 0xADB SWAP1 PUSH2 0x10F1 JUMP JUMPDEST DUP1 PUSH1 0x1F ADD PUSH1 0x20 DUP1 SWAP2 DIV MUL PUSH1 0x20 ADD PUSH1 0x40 MLOAD SWAP1 DUP2 ADD PUSH1 0x40 MSTORE DUP1 SWAP3 SWAP2 SWAP1 DUP2 DUP2 MSTORE PUSH1 0x20 ADD DUP3 DUP1 SLOAD PUSH2 0xB07 SWAP1 PUSH2 0x10F1 JUMP JUMPDEST DUP1 ISZERO PUSH2 0xB52 JUMPI DUP1 PUSH1 0x1F LT PUSH2 0xB29 JUMPI PUSH2 0x100 DUP1 DUP4 SLOAD DIV MUL DUP4 MSTORE SWAP2 PUSH1 0x20 ADD SWAP2 PUSH2 0xB52 JUMP JUMPDEST DUP3 ADD SWAP2 SWAP1 PUSH0 MSTORE PUSH1 0x20 PUSH0 KECCAK256 SWAP1 JUMPDEST DUP2 SLOAD DUP2 MSTORE SWAP1 PUSH1 0x1 ADD SWAP1 PUSH1 0x20 ADD DUP1 DUP4 GT PUSH2 0xB35 JUMPI DUP3 SWAP1 SUB PUSH1 0x1F AND DUP3 ADD SWAP2 JUMPDEST POP POP POP POP POP DUP2 JUMP JUMPDEST DUP2 DUP2 PUSH1 0x8 SWAP2 DUP3 PUSH2 0xB6B SWAP3 SWAP2 SWAP1 PUSH2 0x12BE JUMP JUMPDEST POP POP POP JUMP JUMPDEST PUSH1 0x60 DUP1 PUSH0 DUP1 PUSH1 0x1 PUSH1 0x2 SLOAD DUP3 DUP1 SLOAD PUSH2 0xB86 SWAP1 PUSH2 0x10F1 JUMP JUMPDEST DUP1 PUSH1 0x1F ADD PUSH1 0x20 DUP1 SWAP2 DIV MUL PUSH1 0x20 ADD PUSH1 0x40 MLOAD SWAP1 DUP2 ADD PUSH1 0x40 MSTORE DUP1 SWAP3 SWAP2 SWAP1 DUP2 DUP2 MSTORE PUSH1 0x20 ADD DUP3 DUP1 SLOAD PUSH2 0xBB2 SWAP1 PUSH2 0x10F1 JUMP JUMPDEST DUP1 ISZERO PUSH2 0xBFD JUMPI DUP1 PUSH1 0x1F LT PUSH2 0xBD4 JUMPI PUSH2 0x100 DUP1 DUP4 SLOAD DIV MUL DUP4 MSTORE SWAP2 PUSH1 0x20 ADD SWAP2 PUSH2 0xBFD JUMP JUMPDEST DUP3 ADD SWAP2 SWAP1 PUSH0 MSTORE PUSH1 0x20 PUSH0 KECCAK256 SWAP1 JUMPDEST DUP2 SLOAD DUP2 MSTORE SWAP1 PUSH1 0x1 ADD SWAP1 PUSH1 0x20 ADD DUP1 DUP4 GT PUSH2 0xBE0 JUMPI DUP3 SWAP1 SUB PUSH1 0x1F AND DUP3 ADD SWAP2 JUMPDEST POP POP POP POP POP SWAP3 POP DUP2 DUP1 SLOAD PUSH2 0xC10 SWAP1 PUSH2 0x10F1 JUMP JUMPDEST DUP1 PUSH1 0x1F ADD PUSH1 0x20 DUP1 SWAP2 DIV MUL PUSH1 0x20 ADD PUSH1 0x40 MLOAD SWAP1 DUP2 ADD PUSH1 0x40 MSTORE DUP1 SWAP3 SWAP2 SWAP1 DUP2 DUP2 MSTORE PUSH1 0x20 ADD DUP3 DUP1 SLOAD PUSH2 0xC3C SWAP1 PUSH2 0x10F1 JUMP JUMPDEST DUP1 ISZERO PUSH2 0xC87 JUMPI DUP1 PUSH1 0x1F LT PUSH2 0xC5E JUMPI PUSH2 0x100 DUP1 DUP4 SLOAD DIV MUL DUP4 MSTORE SWAP2 PUSH1 0x20 ADD SWAP2 PUSH2 0xC87 JUMP JUMPDEST DUP3 ADD SWAP2 SWAP1 PUSH0 MSTORE PUSH1 0x20 PUSH0 KECCAK256 SWAP1 JUMPDEST DUP2 SLOAD DUP2 MSTORE SWAP1 PUSH1 0x1 ADD SWAP1 PUSH1 0x20 ADD DUP1 DUP4 GT PUSH2 0xC6A JUMPI DUP3 SWAP1 SUB PUSH1 0x1F AND DUP3 ADD SWAP2 JUMPDEST POP POP POP POP POP SWAP2 POP SWAP3 POP SWAP3 POP SWAP3 POP SWAP1 SWAP2 SWAP3 JUMP JUMPDEST PUSH0 PUSH1 0x40 MLOAD SWAP1 POP SWAP1 JUMP JUMPDEST PUSH0 DUP1 REVERT JUMPDEST PUSH0 DUP1 REVERT JUMPDEST PUSH0 DUP1 REVERT JUMPDEST PUSH0 DUP1 REVERT JUMPDEST PUSH0 DUP1 REVERT JUMPDEST PUSH0 DUP1 DUP4 PUSH1 0x1F DUP5 ADD SLT PUSH2 0xCCB JUMPI PUSH2 0xCCA PUSH2 0xCAA JUMP JUMPDEST JUMPDEST DUP3 CALLDATALOAD SWAP1 POP PUSH8 0xFFFFFFFFFFFFFFFF DUP2 GT ISZERO PUSH2 0xCE8 JUMPI PUSH2 0xCE7 PUSH2 0xCAE JUMP JUMPDEST JUMPDEST PUSH1 0x20 DUP4 ADD SWAP2 POP DUP4 PUSH1 0x1 DUP3 MUL DUP4 ADD GT ISZERO PUSH2 0xD04 JUMPI PUSH2 0xD03 PUSH2 0xCB2 JUMP JUMPDEST JUMPDEST SWAP3 POP SWAP3 SWAP1 POP JUMP JUMPDEST PUSH0 DUP1 PUSH1 0x20 DUP4 DUP6 SUB SLT ISZERO PUSH2 0xD21 JUMPI PUSH2 0xD20 PUSH2 0xCA2 JUMP JUMPDEST JUMPDEST PUSH0 DUP4 ADD CALLDATALOAD PUSH8 0xFFFFFFFFFFFFFFFF DUP2 GT ISZERO PUSH2 0xD3E JUMPI PUSH2 0xD3D PUSH2 0xCA6 JUMP JUMPDEST JUMPDEST PUSH2 0xD4A DUP6 DUP3 DUP7 ADD PUSH2 0xCB6 JUMP JUMPDEST SWAP3 POP SWAP3 POP POP SWAP3 POP SWAP3 SWAP1 POP JUMP JUMPDEST PUSH0 DUP2 MLOAD SWAP1 POP SWAP2 SWAP1 POP JUMP JUMPDEST PUSH0 DUP3 DUP3 MSTORE PUSH1 0x20 DUP3 ADD SWAP1 POP SWAP3 SWAP2 POP POP JUMP JUMPDEST DUP3 DUP2 DUP4 MCOPY PUSH0 DUP4 DUP4 ADD MSTORE POP POP POP JUMP JUMPDEST PUSH0 PUSH1 0x1F NOT PUSH1 0x1F DUP4 ADD AND SWAP1 POP SWAP2 SWAP1 POP JUMP JUMPDEST PUSH0 PUSH2 0xD98 DUP3 PUSH2 0xD56 JUMP JUMPDEST PUSH2 0xDA2 DUP2 DUP6 PUSH2 0xD60 JUMP JUMPDEST SWAP4 POP PUSH2 0xDB2 DUP2 DUP6 PUSH1 0x20 DUP7 ADD PUSH2 0xD70 JUMP JUMPDEST PUSH2 0xDBB DUP2 PUSH2 0xD7E JUMP JUMPDEST DUP5 ADD SWAP2 POP POP SWAP3 SWAP2 POP POP JUMP JUMPDEST PUSH0 PUSH1 0x20 DUP3 ADD SWAP1 POP DUP2 DUP2 SUB PUSH0 DUP4 ADD MSTORE PUSH2 0xDDE DUP2 DUP5 PUSH2 0xD8E JUMP JUMPDEST SWAP1 POP SWAP3 SWAP2 POP POP JUMP JUMPDEST PUSH0 PUSH1 0x40 DUP3 ADD SWAP1 POP DUP2 DUP2 SUB PUSH0 DUP4 ADD MSTORE PUSH2 0xDFE DUP2 DUP6 PUSH2 0xD8E JUMP JUMPDEST SWAP1 POP DUP2 DUP2 SUB PUSH1 0x20 DUP4 ADD MSTORE PUSH2 0xE12 DUP2 DUP5 PUSH2 0xD8E JUMP JUMPDEST SWAP1 POP SWAP4 SWAP3 POP POP POP JUMP JUMPDEST PUSH0 DUP2 SWAP1 POP SWAP2 SWAP1 POP JUMP JUMPDEST PUSH2 0xE2D DUP2 PUSH2 0xE1B JUMP JUMPDEST DUP3 MSTORE POP POP JUMP JUMPDEST PUSH0 PUSH1 0x80 DUP3 ADD SWAP1 POP DUP2 DUP2 SUB PUSH0 DUP4 ADD MSTORE PUSH2 0xE4B DUP2 DUP8 PUSH2 0xD8E JUMP JUMPDEST SWAP1 POP PUSH2 0xE5A PUSH1 0x20 DUP4 ADD DUP7 PUSH2 0xE24 JUMP JUMPDEST DUP2 DUP2 SUB PUSH1 0x40 DUP4 ADD MSTORE PUSH2 0xE6C DUP2 DUP6 PUSH2 0xD8E JUMP JUMPDEST SWAP1 POP PUSH2 0xE7B PUSH1 0x60 DUP4 ADD DUP5 PUSH2 0xE24 JUMP JUMPDEST SWAP6 SWAP5 POP POP POP POP POP JUMP JUMPDEST PUSH0 DUP1 REVERT JUMPDEST PUSH32 0x4E487B7100000000000000000000000000000000000000000000000000000000 PUSH0 MSTORE PUSH1 0x41 PUSH1 0x4 MSTORE PUSH1 0x24 PUSH0 REVERT JUMPDEST PUSH2 0xEBE DUP3 PUSH2 0xD7E JUMP JUMPDEST DUP2 ADD DUP2 DUP2 LT PUSH8 0xFFFFFFFFFFFFFFFF DUP3 GT OR ISZERO PUSH2 0xEDD JUMPI PUSH2 0xEDC PUSH2 0xE88 JUMP JUMPDEST JUMPDEST DUP1 PUSH1 0x40 MSTORE POP POP POP JUMP JUMPDEST PUSH0 PUSH2 0xEEF PUSH2 0xC99 JUMP JUMPDEST SWAP1 POP PUSH2 0xEFB DUP3 DUP3 PUSH2 0xEB5 JUMP JUMPDEST SWAP2 SWAP1 POP JUMP JUMPDEST PUSH0 PUSH8 0xFFFFFFFFFFFFFFFF DUP3 GT ISZERO PUSH2 0xF1A JUMPI PUSH2 0xF19 PUSH2 0xE88 JUMP JUMPDEST JUMPDEST PUSH2 0xF23 DUP3 PUSH2 0xD7E JUMP JUMPDEST SWAP1 POP PUSH1 0x20 DUP2 ADD SWAP1 POP SWAP2 SWAP1 POP JUMP JUMPDEST DUP3 DUP2 DUP4 CALLDATACOPY PUSH0 DUP4 DUP4 ADD MSTORE POP POP POP JUMP JUMPDEST PUSH0 PUSH2 0xF50 PUSH2 0xF4B DUP5 PUSH2 0xF00 JUMP JUMPDEST PUSH2 0xEE6 JUMP JUMPDEST SWAP1 POP DUP3 DUP2 MSTORE PUSH1 0x20 DUP2 ADD DUP5 DUP5 DUP5 ADD GT ISZERO PUSH2 0xF6C JUMPI PUSH2 0xF6B PUSH2 0xE84 JUMP JUMPDEST JUMPDEST PUSH2 0xF77 DUP5 DUP3 DUP6 PUSH2 0xF30 JUMP JUMPDEST POP SWAP4 SWAP3 POP POP POP JUMP JUMPDEST PUSH0 DUP3 PUSH1 0x1F DUP4 ADD SLT PUSH2 0xF93 JUMPI PUSH2 0xF92 PUSH2 0xCAA JUMP JUMPDEST JUMPDEST DUP2 CALLDATALOAD PUSH2 0xFA3 DUP5 DUP3 PUSH1 0x20 DUP7 ADD PUSH2 0xF3E JUMP JUMPDEST SWAP2 POP POP SWAP3 SWAP2 POP POP JUMP JUMPDEST PUSH2 0xFB5 DUP2 PUSH2 0xE1B JUMP JUMPDEST DUP2 EQ PUSH2 0xFBF JUMPI PUSH0 DUP1 REVERT JUMPDEST POP JUMP JUMPDEST PUSH0 DUP2 CALLDATALOAD SWAP1 POP PUSH2 0xFD0 DUP2 PUSH2 0xFAC JUMP JUMPDEST SWAP3 SWAP2 POP POP JUMP JUMPDEST PUSH0 DUP1 PUSH0 PUSH1 0x60 DUP5 DUP7 SUB SLT ISZERO PUSH2 0xFED JUMPI PUSH2 0xFEC PUSH2 0xCA2 JUMP JUMPDEST JUMPDEST PUSH0 DUP5 ADD CALLDATALOAD PUSH8 0xFFFFFFFFFFFFFFFF DUP2 GT ISZERO PUSH2 0x100A JUMPI PUSH2 0x1009 PUSH2 0xCA6 JUMP JUMPDEST JUMPDEST PUSH2 0x1016 DUP7 DUP3 DUP8 ADD PUSH2 0xF7F JUMP JUMPDEST SWAP4 POP POP PUSH1 0x20 DUP5 ADD CALLDATALOAD PUSH8 0xFFFFFFFFFFFFFFFF DUP2 GT ISZERO PUSH2 0x1037 JUMPI PUSH2 0x1036 PUSH2 0xCA6 JUMP JUMPDEST JUMPDEST PUSH2 0x1043 DUP7 DUP3 DUP8 ADD PUSH2 0xF7F JUMP JUMPDEST SWAP3 POP POP PUSH1 0x40 PUSH2 0x1054 DUP7 DUP3 DUP8 ADD PUSH2 0xFC2 JUMP JUMPDEST SWAP2 POP POP SWAP3 POP SWAP3 POP SWAP3 JUMP JUMPDEST PUSH0 PUSH1 0x20 DUP3 ADD SWAP1 POP PUSH2 0x1071 PUSH0 DUP4 ADD DUP5 PUSH2 0xE24 JUMP JUMPDEST SWAP3 SWAP2 POP POP JUMP JUMPDEST PUSH0 PUSH1 0x60 DUP3 ADD SWAP1 POP DUP2 DUP2 SUB PUSH0 DUP4 ADD MSTORE PUSH2 0x108F DUP2 DUP7 PUSH2 0xD8E JUMP JUMPDEST SWAP1 POP DUP2 DUP2 SUB PUSH1 0x20 DUP4 ADD MSTORE PUSH2 0x10A3 DUP2 DUP6 PUSH2 0xD8E JUMP JUMPDEST SWAP1 POP PUSH2 0x10B2 PUSH1 0x40 DUP4 ADD DUP5 PUSH2 0xE24 JUMP JUMPDEST SWAP5 SWAP4 POP POP POP POP JUMP JUMPDEST PUSH0 DUP3 SWAP1 POP SWAP3 SWAP2 POP POP JUMP JUMPDEST PUSH32 0x4E487B7100000000000000000000000000000000000000000000000000000000 PUSH0 MSTORE PUSH1 0x22 PUSH1 0x4 MSTORE PUSH1 0x24 PUSH0 REVERT JUMPDEST PUSH0 PUSH1 0x2 DUP3 DIV SWAP1 POP PUSH1 0x1 DUP3 AND DUP1 PUSH2 0x1108 JUMPI PUSH1 0x7F DUP3 AND SWAP2 POP JUMPDEST PUSH1 0x20 DUP3 LT DUP2 SUB PUSH2 0x111B JUMPI PUSH2 0x111A PUSH2 0x10C4 JUMP JUMPDEST JUMPDEST POP SWAP2 SWAP1 POP JUMP JUMPDEST PUSH0 DUP2 SWAP1 POP DUP2 PUSH0 MSTORE PUSH1 0x20 PUSH0 KECCAK256 SWAP1 POP SWAP2 SWAP1 POP JUMP JUMPDEST PUSH0 PUSH1 0x20 PUSH1 0x1F DUP4 ADD DIV SWAP1 POP SWAP2 SWAP1 POP JUMP JUMPDEST PUSH0 DUP3 DUP3 SHL SWAP1 POP SWAP3 SWAP2 POP POP JUMP JUMPDEST PUSH0 PUSH1 0x8 DUP4 MUL PUSH2 0x117D PUSH32 0xFFFFFFFFFFFFFFFFFFFFFFFFFFFFFFFFFFFFFFFFFFFFFFFFFFFFFFFFFFFFFFFF DUP3 PUSH2 0x1142 JUMP JUMPDEST PUSH2 0x1187 DUP7 DUP4 PUSH2 0x1142 JUMP JUMPDEST SWAP6 POP DUP1 NOT DUP5 AND SWAP4 POP DUP1 DUP7 AND DUP5 OR SWAP3 POP POP POP SWAP4 SWAP3 POP POP POP JUMP JUMPDEST PUSH0 DUP2 SWAP1 POP SWAP2 SWAP1 POP JUMP JUMPDEST PUSH0 PUSH2 0x11C2 PUSH2 0x11BD PUSH2 0x11B8 DUP5 PUSH2 0xE1B JUMP JUMPDEST PUSH2 0x119F JUMP JUMPDEST PUSH2 0xE1B JUMP JUMPDEST SWAP1 POP SWAP2 SWAP1 POP JUMP JUMPDEST PUSH0 DUP2 SWAP1 POP SWAP2 SWAP1 POP JUMP JUMPDEST PUSH2 0x11DB DUP4 PUSH2 0x11A8 JUMP JUMPDEST PUSH2 0x11EF PUSH2 0x11E7 DUP3 PUSH2 0x11C9 JUMP JUMPDEST DUP5 DUP5 SLOAD PUSH2 0x114E JUMP JUMPDEST DUP3 SSTORE POP POP POP POP JUMP JUMPDEST PUSH0 SWAP1 JUMP JUMPDEST PUSH2 0x1203 PUSH2 0x11F7 JUMP JUMPDEST PUSH2 0x120E DUP2 DUP5 DUP5 PUSH2 0x11D2 JUMP JUMPDEST POP POP POP JUMP JUMPDEST JUMPDEST DUP2 DUP2 LT ISZERO PUSH2 0x1231 JUMPI PUSH2 0x1226 PUSH0 DUP3 PUSH2 0x11FB JUMP JUMPDEST PUSH1 0x1 DUP2 ADD SWAP1 POP PUSH2 0x1214 JUMP JUMPDEST POP POP JUMP JUMPDEST PUSH1 0x1F DUP3 GT ISZERO PUSH2 0x1276 JUMPI PUSH2 0x1247 DUP2 PUSH2 0x1121 JUMP JUMPDEST PUSH2 0x1250 DUP5 PUSH2 0x1133 JUMP JUMPDEST DUP2 ADD PUSH1 0x20 DUP6 LT ISZERO PUSH2 0x125F JUMPI DUP2 SWAP1 POP JUMPDEST PUSH2 0x1273 PUSH2 0x126B DUP6 PUSH2 0x1133 JUMP JUMPDEST DUP4 ADD DUP3 PUSH2 0x1213 JUMP JUMPDEST POP POP JUMPDEST POP POP POP JUMP JUMPDEST PUSH0 DUP3 DUP3 SHR SWAP1 POP SWAP3 SWAP2 POP POP JUMP JUMPDEST PUSH0 PUSH2 0x1296 PUSH0 NOT DUP5 PUSH1 0x8 MUL PUSH2 0x127B JUMP JUMPDEST NOT DUP1 DUP4 AND SWAP2 POP POP SWAP3 SWAP2 POP POP JUMP JUMPDEST PUSH0 PUSH2 0x12AE DUP4 DUP4 PUSH2 0x1287 JUMP JUMPDEST SWAP2 POP DUP3 PUSH1 0x2 MUL DUP3 OR SWAP1 POP SWAP3 SWAP2 POP POP JUMP JUMPDEST PUSH2 0x12C8 DUP4 DUP4 PUSH2 0x10BA JUMP JUMPDEST PUSH8 0xFFFFFFFFFFFFFFFF DUP2 GT ISZERO PUSH2 0x12E1 JUMPI PUSH2 0x12E0 PUSH2 0xE88 JUMP JUMPDEST JUMPDEST PUSH2 0x12EB DUP3 SLOAD PUSH2 0x10F1 JUMP JUMPDEST PUSH2 0x12F6 DUP3 DUP3 DUP6 PUSH2 0x1235 JUMP JUMPDEST PUSH0 PUSH1 0x1F DUP4 GT PUSH1 0x1 DUP2 EQ PUSH2 0x1323 JUMPI PUSH0 DUP5 ISZERO PUSH2 0x1311 JUMPI DUP3 DUP8 ADD CALLDATALOAD SWAP1 POP JUMPDEST PUSH2 0x131B DUP6 DUP3 PUSH2 0x12A3 JUMP JUMPDEST DUP7 SSTORE POP PUSH2 0x1382 JUMP JUMPDEST PUSH1 0x1F NOT DUP5 AND PUSH2 0x1331 DUP7 PUSH2 0x1121 JUMP JUMPDEST PUSH0 JUMPDEST DUP3 DUP2 LT ISZERO PUSH2 0x1358 JUMPI DUP5 DUP10 ADD CALLDATALOAD DUP3 SSTORE PUSH1 0x1 DUP3 ADD SWAP2 POP PUSH1 0x20 DUP6 ADD SWAP5 POP PUSH1 0x20 DUP2 ADD SWAP1 POP PUSH2 0x1333 JUMP JUMPDEST DUP7 DUP4 LT ISZERO PUSH2 0x1375 JUMPI DUP5 DUP10 ADD CALLDATALOAD PUSH2 0x1371 PUSH1 0x1F DUP10 AND DUP3 PUSH2 0x1287 JUMP JUMPDEST DUP4 SSTORE POP JUMPDEST PUSH1 0x1 PUSH1 0x2 DUP9 MUL ADD DUP9 SSTORE POP POP POP JUMPDEST POP POP POP POP POP POP POP JUMP JUMPDEST PUSH2 0x1394 DUP3 PUSH2 0xD56 JUMP JUMPDEST PUSH8 0xFFFFFFFFFFFFFFFF DUP2 GT ISZERO PUSH2 0x13AD JUMPI PUSH2 0x13AC PUSH2 0xE88 JUMP JUMPDEST JUMPDEST PUSH2 0x13B7 DUP3 SLOAD PUSH2 0x10F1 JUMP JUMPDEST PUSH2 0x13C2 DUP3 DUP3 DUP6 PUSH2 0x1235 JUMP JUMPDEST PUSH0 PUSH1 0x20 SWAP1 POP PUSH1 0x1F DUP4 GT PUSH1 0x1 DUP2 EQ PUSH2 0x13F3 JUMPI PUSH0 DUP5 ISZERO PUSH2 0x13E1 JUMPI DUP3 DUP8 ADD MLOAD SWAP1 POP JUMPDEST PUSH2 0x13EB DUP6 DUP3 PUSH2 0x12A3 JUMP JUMPDEST DUP7 SSTORE POP PUSH2 0x1452 JUMP JUMPDEST PUSH1 0x1F NOT DUP5 AND PUSH2 0x1401 DUP7 PUSH2 0x1121 JUMP JUMPDEST PUSH0 JUMPDEST DUP3 DUP2 LT ISZERO PUSH2 0x1428 JUMPI DUP5 DUP10 ADD MLOAD DUP3 SSTORE PUSH1 0x1 DUP3 ADD SWAP2 POP PUSH1 0x20 DUP6 ADD SWAP5 POP PUSH1 0x20 DUP2 ADD SWAP1 POP PUSH2 0x1403 JUMP JUMPDEST DUP7 DUP4 LT ISZERO PUSH2 0x1445 JUMPI DUP5 DUP10 ADD MLOAD PUSH2 0x1441 PUSH1 0x1F DUP10 AND DUP3 PUSH2 0x1287 JUMP JUMPDEST DUP4 SSTORE POP JUMPDEST PUSH1 0x1 PUSH1 0x2 DUP9 MUL ADD DUP9 SSTORE POP POP POP JUMPDEST POP POP POP POP POP POP JUMP INVALID LOG2 PUSH5 0x6970667358 0x22 SLT KECCAK256 RETURNDATACOPY 0xCE SWAP7 0xAE 0xE8 0xE6 PUSH17 0x1BF4480668E6D53C0280B0AF0BADC684D7 PUSH19 0xC5DF5C8473779A64736F6C634300081A003300 "
		},
		"gasEstimates": {
			"creation": {
				"codeDepositCost": "1052800",
				"executionCost": "infinite",
				"totalCost": "infinite"
			},
			"external": {
				"avgMarks()": "2469",
				"deptHead()": "infinite",
				"deptName()": "infinite",
				"electiveSubject()": "infinite",
				"getHostelDetails()": "infinite",
				"getStudentData()": "infinite",
				"hostelLocation()": "infinite",
				"hostelName()": "infinite",
				"migrateStudent(string,string,uint256)": "infinite",
				"numberOfRooms()": "2514",
				"printDeptDetails()": "infinite",
				"printHostelDetails()": "infinite",
				"printStudentData()": "infinite",
				"regdNo()": "2492",
				"setDeptHead(string)": "infinite",
				"setDeptName(string)": "infinite",
				"studentName()": "infinite"
			}
		},
		"methodIdentifiers": {
			"avgMarks()": "d57831f5",
			"deptHead()": "eb96548f",
			"deptName()": "b975abb3",
			"electiveSubject()": "c607ba4d",
			"getHostelDetails()": "9d8c8315",
			"getStudentData()": "5fd7b16a",
			"hostelLocation()": "11ebae41",
			"hostelName()": "cb9cb0c2",
			"migrateStudent(string,string,uint256)": "51636a0d",
			"numberOfRooms()": "99d568b3",
			"printDeptDetails()": "1b0c2670",
			"printHostelDetails()": "f8fd1948",
			"printStudentData()": "4128eda0",
			"regdNo()": "8d1d2d90",
			"setDeptHead(string)": "f27bba6e",
			"setDeptName(string)": "0cf8c242",
			"studentName()": "b508ba31"
		}
	},
	"abi": [
		{
			"inputs": [
				{
					"internalType": "string",
					"name": "_hostelName",
					"type": "string"
				},
				{
					"internalType": "string",
					"name": "_hostelLocation",
					"type": "string"
				},
				{
					"internalType": "uint256",
					"name": "_numberOfRooms",
					"type": "uint256"
				},
				{
					"internalType": "string",
					"name": "_studentName",
					"type": "string"
				},
				{
					"internalType": "uint256",
					"name": "_regdNo",
					"type": "uint256"
				},
				{
					"internalType": "string",
					"name": "_electiveSubject",
					"type": "string"
				},
				{
					"internalType": "uint256",
					"name": "_avgMarks",
					"type": "uint256"
				},
				{
					"internalType": "string",
					"name": "_deptName",
					"type": "string"
				},
				{
					"internalType": "string",
					"name": "_deptHead",
					"type": "string"
				}
			],
			"stateMutability": "nonpayable",
			"type": "constructor"
		},
		{
			"inputs": [],
			"name": "avgMarks",
			"outputs": [
				{
					"internalType": "uint256",
					"name": "",
					"type": "uint256"
				}
			],
			"stateMutability": "view",
			"type": "function"
		},
		{
			"inputs": [],
			"name": "deptHead",
			"outputs": [
				{
					"internalType": "string",
					"name": "",
					"type": "string"
				}
			],
			"stateMutability": "view",
			"type": "function"
		},
		{
			"inputs": [],
			"name": "deptName",
			"outputs": [
				{
					"internalType": "string",
					"name": "",
					"type": "string"
				}
			],
			"stateMutability": "view",
			"type": "function"
		},
		{
			"inputs": [],
			"name": "electiveSubject",
			"outputs": [
				{
					"internalType": "string",
					"name": "",
					"type": "string"
				}
			],
			"stateMutability": "view",
			"type": "function"
		},
		{
			"inputs": [],
			"name": "getHostelDetails",
			"outputs": [
				{
					"internalType": "string",
					"name": "",
					"type": "string"
				},
				{
					"internalType": "string",
					"name": "",
					"type": "string"
				},
				{
					"internalType": "uint256",
					"name": "",
					"type": "uint256"
				}
			],
			"stateMutability": "view",
			"type": "function"
		},
		{
			"inputs": [],
			"name": "getStudentData",
			"outputs": [
				{
					"internalType": "string",
					"name": "",
					"type": "string"
				},
				{
					"internalType": "uint256",
					"name": "",
					"type": "uint256"
				},
				{
					"internalType": "string",
					"name": "",
					"type": "string"
				},
				{
					"internalType": "uint256",
					"name": "",
					"type": "uint256"
				}
			],
			"stateMutability": "view",
			"type": "function"
		},
		{
			"inputs": [],
			"name": "hostelLocation",
			"outputs": [
				{
					"internalType": "string",
					"name": "",
					"type": "string"
				}
			],
			"stateMutability": "view",
			"type": "function"
		},
		{
			"inputs": [],
			"name": "hostelName",
			"outputs": [
				{
					"internalType": "string",
					"name": "",
					"type": "string"
				}
			],
			"stateMutability": "view",
			"type": "function"
		},
		{
			"inputs": [
				{
					"internalType": "string",
					"name": "newHostelName",
					"type": "string"
				},
				{
					"internalType": "string",
					"name": "newHostelLocation",
					"type": "string"
				},
				{
					"internalType": "uint256",
					"name": "newNumberOfRooms",
					"type": "uint256"
				}
			],
			"name": "migrateStudent",
			"outputs": [],
			"stateMutability": "nonpayable",
			"type": "function"
		},
		{
			"inputs": [],
			"name": "numberOfRooms",
			"outputs": [
				{
					"internalType": "uint256",
					"name": "",
					"type": "uint256"
				}
			],
			"stateMutability": "view",
			"type": "function"
		},
		{
			"inputs": [],
			"name": "printDeptDetails",
			"outputs": [
				{
					"internalType": "string",
					"name": "",
					"type": "string"
				},
				{
					"internalType": "string",
					"name": "",
					"type": "string"
				}
			],
			"stateMutability": "view",
			"type": "function"
		},
		{
			"inputs": [],
			"name": "printHostelDetails",
			"outputs": [
				{
					"internalType": "string",
					"name": "",
					"type": "string"
				},
				{
					"internalType": "string",
					"name": "",
					"type": "string"
				},
				{
					"internalType": "uint256",
					"name": "",
					"type": "uint256"
				}
			],
			"stateMutability": "view",
			"type": "function"
		},
		{
			"inputs": [],
			"name": "printStudentData",
			"outputs": [
				{
					"internalType": "string",
					"name": "",
					"type": "string"
				},
				{
					"internalType": "uint256",
					"name": "",
					"type": "uint256"
				},
				{
					"internalType": "string",
					"name": "",
					"type": "string"
				},
				{
					"internalType": "uint256",
					"name": "",
					"type": "uint256"
				}
			],
			"stateMutability": "view",
			"type": "function"
		},
		{
			"inputs": [],
			"name": "regdNo",
			"outputs": [
				{
					"internalType": "uint256",
					"name": "",
					"type": "uint256"
				}
			],
			"stateMutability": "view",
			"type": "function"
		},
		{
			"inputs": [
				{
					"internalType": "string",
					"name": "_deptHead",
					"type": "string"
				}
			],
			"name": "setDeptHead",
			"outputs": [],
			"stateMutability": "nonpayable",
			"type": "function"
		},
		{
			"inputs": [
				{
					"internalType": "string",
					"name": "_deptName",
					"type": "string"
				}
			],
			"name": "setDeptName",
			"outputs": [],
			"stateMutability": "nonpayable",
			"type": "function"
		},
		{
			"inputs": [],
			"name": "studentName",
			"outputs": [
				{
					"internalType": "string",
					"name": "",
					"type": "string"
				}
			],
			"stateMutability": "view",
			"type": "function"
		}
	]
}