{
	"data": {
		"bytecode": {
			"linkReferences": {},
			"object": "608060405234801561000f575f80fd5b5060405161111a38038061111a833981810160405281019061003191906101f8565b83838383835f908161004391906104b4565b50826001908161005391906104b4565b5081600281905550806003908161006a91906104b4565b505050505050505050610583565b5f604051905090565b5f80fd5b5f80fd5b5f80fd5b5f80fd5b5f601f19601f8301169050919050565b7f4e487b71000000000000000000000000000000000000000000000000000000005f52604160045260245ffd5b6100d782610091565b810181811067ffffffffffffffff821117156100f6576100f56100a1565b5b80604052505050565b5f610108610078565b905061011482826100ce565b919050565b5f67ffffffffffffffff821115610133576101326100a1565b5b61013c82610091565b9050602081019050919050565b8281835e5f83830152505050565b5f61016961016484610119565b6100ff565b9050828152602081018484840111156101855761018461008d565b5b610190848285610149565b509392505050565b5f82601f8301126101ac576101ab610089565b5b81516101bc848260208601610157565b91505092915050565b5f819050919050565b6101d7816101c5565b81146101e1575f80fd5b50565b5f815190506101f2816101ce565b92915050565b5f805f80608085870312156102105761020f610081565b5b5f85015167ffffffffffffffff81111561022d5761022c610085565b5b61023987828801610198565b945050602085015167ffffffffffffffff81111561025a57610259610085565b5b61026687828801610198565b9350506040610277878288016101e4565b925050606085015167ffffffffffffffff81111561029857610297610085565b5b6102a487828801610198565b91505092959194509250565b5f81519050919050565b7f4e487b71000000000000000000000000000000000000000000000000000000005f52602260045260245ffd5b5f60028204905060018216806102fe57607f821691505b602082108103610311576103106102ba565b5b50919050565b5f819050815f5260205f209050919050565b5f6020601f8301049050919050565b5f82821b905092915050565b5f600883026103737fffffffffffffffffffffffffffffffffffffffffffffffffffffffffffffffff82610338565b61037d8683610338565b95508019841693508086168417925050509392505050565b5f819050919050565b5f6103b86103b36103ae846101c5565b610395565b6101c5565b9050919050565b5f819050919050565b6103d18361039e565b6103e56103dd826103bf565b848454610344565b825550505050565b5f90565b6103f96103ed565b6104048184846103c8565b505050565b5b818110156104275761041c5f826103f1565b60018101905061040a565b5050565b601f82111561046c5761043d81610317565b61044684610329565b81016020851015610455578190505b61046961046185610329565b830182610409565b50505b505050565b5f82821c905092915050565b5f61048c5f1984600802610471565b1980831691505092915050565b5f6104a4838361047d565b9150826002028217905092915050565b6104bd826102b0565b67ffffffffffffffff8111156104d6576104d56100a1565b5b6104e082546102e7565b6104eb82828561042b565b5f60209050601f83116001811461051c575f841561050a578287015190505b6105148582610499565b86555061057b565b601f19841661052a86610317565b5f5b828110156105515784890151825560018201915060208501945060208101905061052c565b8683101561056e578489015161056a601f89168261047d565b8355505b6001600288020188555050505b505050505050565b610b8a806105905f395ff3fe608060405234801561000f575f80fd5b5060043610610086575f3560e01c8063402e7f4b11610059578063402e7f4b1461011457806367353da214610132578063767800de1461014e578063a4e7d4371461016c57610086565b80630397b6521461008a57806306fdde03146100a8578063107046bd146100c65780633ff4b938146100f6575b5f80fd5b61009261018a565b60405161009f9190610462565b60405180910390f35b6100b0610190565b6040516100bd91906104eb565b60405180910390f35b6100e060048036038101906100db9190610546565b61021b565b6040516100ed91906104eb565b60405180910390f35b6100fe6102c1565b60405161010b91906104eb565b60405180910390f35b61011c61034d565b60405161012991906104eb565b60405180910390f35b61014c6004803603810190610147919061069d565b610374565b005b6101566103a9565b60405161016391906104eb565b60405180910390f35b610174610435565b6040516101819190610462565b60405180910390f35b60025481565b5f805461019c90610711565b80601f01602080910402602001604051908101604052809291908181526020018280546101c890610711565b80156102135780601f106101ea57610100808354040283529160200191610213565b820191905f5260205f20905b8154815290600101906020018083116101f657829003601f168201915b505050505081565b6004818154811061022a575f80fd5b905f5260205f20015f91509050805461024290610711565b80601f016020809104026020016040519081016040528092919081815260200182805461026e90610711565b80156102b95780601f10610290576101008083540402835291602001916102b9565b820191905f5260205f20905b81548152906001019060200180831161029c57829003601f168201915b505050505081565b600380546102ce90610711565b80601f01602080910402602001604051908101604052809291908181526020018280546102fa90610711565b80156103455780601f1061031c57610100808354040283529160200191610345565b820191905f5260205f20905b81548152906001019060200180831161032857829003601f168201915b505050505081565b60605f6040516020016103609190610871565b604051602081830303815290604052905090565b600481908060018154018082558091505060019003905f5260205f20015f9091909190915090816103a59190610a28565b5050565b600180546103b690610711565b80601f01602080910402602001604051908101604052809291908181526020018280546103e290610711565b801561042d5780601f106104045761010080835404028352916020019161042d565b820191905f5260205f20905b81548152906001019060200180831161041057829003601f168201915b505050505081565b5f60086002546104459190610b24565b905090565b5f819050919050565b61045c8161044a565b82525050565b5f6020820190506104755f830184610453565b92915050565b5f81519050919050565b5f82825260208201905092915050565b8281835e5f83830152505050565b5f601f19601f8301169050919050565b5f6104bd8261047b565b6104c78185610485565b93506104d7818560208601610495565b6104e0816104a3565b840191505092915050565b5f6020820190508181035f83015261050381846104b3565b905092915050565b5f604051905090565b5f80fd5b5f80fd5b6105258161044a565b811461052f575f80fd5b50565b5f813590506105408161051c565b92915050565b5f6020828403121561055b5761055a610514565b5b5f61056884828501610532565b91505092915050565b5f80fd5b5f80fd5b7f4e487b71000000000000000000000000000000000000000000000000000000005f52604160045260245ffd5b6105af826104a3565b810181811067ffffffffffffffff821117156105ce576105cd610579565b5b80604052505050565b5f6105e061050b565b90506105ec82826105a6565b919050565b5f67ffffffffffffffff82111561060b5761060a610579565b5b610614826104a3565b9050602081019050919050565b828183375f83830152505050565b5f61064161063c846105f1565b6105d7565b90508281526020810184848401111561065d5761065c610575565b5b610668848285610621565b509392505050565b5f82601f83011261068457610683610571565b5b813561069484826020860161062f565b91505092915050565b5f602082840312156106b2576106b1610514565b5b5f82013567ffffffffffffffff8111156106cf576106ce610518565b5b6106db84828501610670565b91505092915050565b7f4e487b71000000000000000000000000000000000000000000000000000000005f52602260045260245ffd5b5f600282049050600182168061072857607f821691505b60208210810361073b5761073a6106e4565b5b50919050565b5f81905092915050565b7f506572666f726d616e6365205265706f7274206f66203a2000000000000000005f82015250565b5f61077f601883610741565b915061078a8261074b565b601882019050919050565b5f819050815f5260205f209050919050565b5f81546107b381610711565b6107bd8186610741565b9450600182165f81146107d757600181146107ec5761081e565b60ff198316865281151582028601935061081e565b6107f585610795565b5f5b83811015610816578154818901526001820191506020810190506107f7565b838801955050505b50505092915050565b7f3a20476f6f64204c65616465727368697020536b696c6c7300000000000000005f82015250565b5f61085b601883610741565b915061086682610827565b601882019050919050565b5f61087b82610773565b915061088782846107a7565b91506108928261084f565b915081905092915050565b5f6020601f8301049050919050565b5f82821b905092915050565b5f600883026108e77fffffffffffffffffffffffffffffffffffffffffffffffffffffffffffffffff826108ac565b6108f186836108ac565b95508019841693508086168417925050509392505050565b5f819050919050565b5f61092c6109276109228461044a565b610909565b61044a565b9050919050565b5f819050919050565b61094583610912565b61095961095182610933565b8484546108b8565b825550505050565b5f90565b61096d610961565b61097881848461093c565b505050565b5b8181101561099b576109905f82610965565b60018101905061097e565b5050565b601f8211156109e0576109b181610795565b6109ba8461089d565b810160208510156109c9578190505b6109dd6109d58561089d565b83018261097d565b50505b505050565b5f82821c905092915050565b5f610a005f19846008026109e5565b1980831691505092915050565b5f610a1883836109f1565b9150826002028217905092915050565b610a318261047b565b67ffffffffffffffff811115610a4a57610a49610579565b5b610a548254610711565b610a5f82828561099f565b5f60209050601f831160018114610a90575f8415610a7e578287015190505b610a888582610a0d565b865550610aef565b601f198416610a9e86610795565b5f5b82811015610ac557848901518255600182019150602085019450602081019050610aa0565b86831015610ae25784890151610ade601f8916826109f1565b8355505b6001600288020188555050505b505050505050565b7f4e487b71000000000000000000000000000000000000000000000000000000005f52601260045260245ffd5b5f610b2e8261044a565b9150610b398361044a565b925082610b4957610b48610af7565b5b82820490509291505056fea2646970667358221220803723672425394df4dee6fd2b2d90b6e8096d63a21c5e56977e37b0592c213064736f6c634300081a0033",
			"opcodes": "PUSH1 0x80 PUSH1 0x40 MSTORE CALLVALUE DUP1 ISZERO PUSH2 0xF JUMPI PUSH0 DUP1 REVERT JUMPDEST POP PUSH1 0x40 MLOAD PUSH2 0x111A CODESIZE SUB DUP1 PUSH2 0x111A DUP4 CODECOPY DUP2 DUP2 ADD PUSH1 0x40 MSTORE DUP2 ADD SWAP1 PUSH2 0x31 SWAP2 SWAP1 PUSH2 0x1F8 JUMP JUMPDEST DUP4 DUP4 DUP4 DUP4 DUP4 PUSH0 SWAP1 DUP2 PUSH2 0x43 SWAP2 SWAP1 PUSH2 0x4B4 JUMP JUMPDEST POP DUP3 PUSH1 0x1 SWAP1 DUP2 PUSH2 0x53 SWAP2 SWAP1 PUSH2 0x4B4 JUMP JUMPDEST POP DUP2 PUSH1 0x2 DUP2 SWAP1 SSTORE POP DUP1 PUSH1 0x3 SWAP1 DUP2 PUSH2 0x6A SWAP2 SWAP1 PUSH2 0x4B4 JUMP JUMPDEST POP POP POP POP POP POP POP POP POP PUSH2 0x583 JUMP JUMPDEST PUSH0 PUSH1 0x40 MLOAD SWAP1 POP SWAP1 JUMP JUMPDEST PUSH0 DUP1 REVERT JUMPDEST PUSH0 DUP1 REVERT JUMPDEST PUSH0 DUP1 REVERT JUMPDEST PUSH0 DUP1 REVERT JUMPDEST PUSH0 PUSH1 0x1F NOT PUSH1 0x1F DUP4 ADD AND SWAP1 POP SWAP2 SWAP1 POP JUMP JUMPDEST PUSH32 0x4E487B7100000000000000000000000000000000000000000000000000000000 PUSH0 MSTORE PUSH1 0x41 PUSH1 0x4 MSTORE PUSH1 0x24 PUSH0 REVERT JUMPDEST PUSH2 0xD7 DUP3 PUSH2 0x91 JUMP JUMPDEST DUP2 ADD DUP2 DUP2 LT PUSH8 0xFFFFFFFFFFFFFFFF DUP3 GT OR ISZERO PUSH2 0xF6 JUMPI PUSH2 0xF5 PUSH2 0xA1 JUMP JUMPDEST JUMPDEST DUP1 PUSH1 0x40 MSTORE POP POP POP JUMP JUMPDEST PUSH0 PUSH2 0x108 PUSH2 0x78 JUMP JUMPDEST SWAP1 POP PUSH2 0x114 DUP3 DUP3 PUSH2 0xCE JUMP JUMPDEST SWAP2 SWAP1 POP JUMP JUMPDEST PUSH0 PUSH8 0xFFFFFFFFFFFFFFFF DUP3 GT ISZERO PUSH2 0x133 JUMPI PUSH2 0x132 PUSH2 0xA1 JUMP JUMPDEST JUMPDEST PUSH2 0x13C DUP3 PUSH2 0x91 JUMP JUMPDEST SWAP1 POP PUSH1 0x20 DUP2 ADD SWAP1 POP SWAP2 SWAP1 POP JUMP JUMPDEST DUP3 DUP2 DUP4 MCOPY PUSH0 DUP4 DUP4 ADD MSTORE POP POP POP JUMP JUMPDEST PUSH0 PUSH2 0x169 PUSH2 0x164 DUP5 PUSH2 0x119 JUMP JUMPDEST PUSH2 0xFF JUMP JUMPDEST SWAP1 POP DUP3 DUP2 MSTORE PUSH1 0x20 DUP2 ADD DUP5 DUP5 DUP5 ADD GT ISZERO PUSH2 0x185 JUMPI PUSH2 0x184 PUSH2 0x8D JUMP JUMPDEST JUMPDEST PUSH2 0x190 DUP5 DUP3 DUP6 PUSH2 0x149 JUMP JUMPDEST POP SWAP4 SWAP3 POP POP POP JUMP JUMPDEST PUSH0 DUP3 PUSH1 0x1F DUP4 ADD SLT PUSH2 0x1AC JUMPI PUSH2 0x1AB PUSH2 0x89 JUMP JUMPDEST JUMPDEST DUP2 MLOAD PUSH2 0x1BC DUP5 DUP3 PUSH1 0x20 DUP7 ADD PUSH2 0x157 JUMP JUMPDEST SWAP2 POP POP SWAP3 SWAP2 POP POP JUMP JUMPDEST PUSH0 DUP2 SWAP1 POP SWAP2 SWAP1 POP JUMP JUMPDEST PUSH2 0x1D7 DUP2 PUSH2 0x1C5 JUMP JUMPDEST DUP2 EQ PUSH2 0x1E1 JUMPI PUSH0 DUP1 REVERT JUMPDEST POP JUMP JUMPDEST PUSH0 DUP2 MLOAD SWAP1 POP PUSH2 0x1F2 DUP2 PUSH2 0x1CE JUMP JUMPDEST SWAP3 SWAP2 POP POP JUMP JUMPDEST PUSH0 DUP1 PUSH0 DUP1 PUSH1 0x80 DUP6 DUP8 SUB SLT ISZERO PUSH2 0x210 JUMPI PUSH2 0x20F PUSH2 0x81 JUMP JUMPDEST JUMPDEST PUSH0 DUP6 ADD MLOAD PUSH8 0xFFFFFFFFFFFFFFFF DUP2 GT ISZERO PUSH2 0x22D JUMPI PUSH2 0x22C PUSH2 0x85 JUMP JUMPDEST JUMPDEST PUSH2 0x239 DUP8 DUP3 DUP9 ADD PUSH2 0x198 JUMP JUMPDEST SWAP5 POP POP PUSH1 0x20 DUP6 ADD MLOAD PUSH8 0xFFFFFFFFFFFFFFFF DUP2 GT ISZERO PUSH2 0x25A JUMPI PUSH2 0x259 PUSH2 0x85 JUMP JUMPDEST JUMPDEST PUSH2 0x266 DUP8 DUP3 DUP9 ADD PUSH2 0x198 JUMP JUMPDEST SWAP4 POP POP PUSH1 0x40 PUSH2 0x277 DUP8 DUP3 DUP9 ADD PUSH2 0x1E4 JUMP JUMPDEST SWAP3 POP POP PUSH1 0x60 DUP6 ADD MLOAD PUSH8 0xFFFFFFFFFFFFFFFF DUP2 GT ISZERO PUSH2 0x298 JUMPI PUSH2 0x297 PUSH2 0x85 JUMP JUMPDEST JUMPDEST PUSH2 0x2A4 DUP8 DUP3 DUP9 ADD PUSH2 0x198 JUMP JUMPDEST SWAP2 POP POP SWAP3 SWAP6 SWAP2 SWAP5 POP SWAP3 POP JUMP JUMPDEST PUSH0 DUP2 MLOAD SWAP1 POP SWAP2 SWAP1 POP JUMP JUMPDEST PUSH32 0x4E487B7100000000000000000000000000000000000000000000000000000000 PUSH0 MSTORE PUSH1 0x22 PUSH1 0x4 MSTORE PUSH1 0x24 PUSH0 REVERT JUMPDEST PUSH0 PUSH1 0x2 DUP3 DIV SWAP1 POP PUSH1 0x1 DUP3 AND DUP1 PUSH2 0x2FE JUMPI PUSH1 0x7F DUP3 AND SWAP2 POP JUMPDEST PUSH1 0x20 DUP3 LT DUP2 SUB PUSH2 0x311 JUMPI PUSH2 0x310 PUSH2 0x2BA JUMP JUMPDEST JUMPDEST POP SWAP2 SWAP1 POP JUMP JUMPDEST PUSH0 DUP2 SWAP1 POP DUP2 PUSH0 MSTORE PUSH1 0x20 PUSH0 KECCAK256 SWAP1 POP SWAP2 SWAP1 POP JUMP JUMPDEST PUSH0 PUSH1 0x20 PUSH1 0x1F DUP4 ADD DIV SWAP1 POP SWAP2 SWAP1 POP JUMP JUMPDEST PUSH0 DUP3 DUP3 SHL SWAP1 POP SWAP3 SWAP2 POP POP JUMP JUMPDEST PUSH0 PUSH1 0x8 DUP4 MUL PUSH2 0x373 PUSH32 0xFFFFFFFFFFFFFFFFFFFFFFFFFFFFFFFFFFFFFFFFFFFFFFFFFFFFFFFFFFFFFFFF DUP3 PUSH2 0x338 JUMP JUMPDEST PUSH2 0x37D DUP7 DUP4 PUSH2 0x338 JUMP JUMPDEST SWAP6 POP DUP1 NOT DUP5 AND SWAP4 POP DUP1 DUP7 AND DUP5 OR SWAP3 POP POP POP SWAP4 SWAP3 POP POP POP JUMP JUMPDEST PUSH0 DUP2 SWAP1 POP SWAP2 SWAP1 POP JUMP JUMPDEST PUSH0 PUSH2 0x3B8 PUSH2 0x3B3 PUSH2 0x3AE DUP5 PUSH2 0x1C5 JUMP JUMPDEST PUSH2 0x395 JUMP JUMPDEST PUSH2 0x1C5 JUMP JUMPDEST SWAP1 POP SWAP2 SWAP1 POP JUMP JUMPDEST PUSH0 DUP2 SWAP1 POP SWAP2 SWAP1 POP JUMP JUMPDEST PUSH2 0x3D1 DUP4 PUSH2 0x39E JUMP JUMPDEST PUSH2 0x3E5 PUSH2 0x3DD DUP3 PUSH2 0x3BF JUMP JUMPDEST DUP5 DUP5 SLOAD PUSH2 0x344 JUMP JUMPDEST DUP3 SSTORE POP POP POP POP JUMP JUMPDEST PUSH0 SWAP1 JUMP JUMPDEST PUSH2 0x3F9 PUSH2 0x3ED JUMP JUMPDEST PUSH2 0x404 DUP2 DUP5 DUP5 PUSH2 0x3C8 JUMP JUMPDEST POP POP POP JUMP JUMPDEST JUMPDEST DUP2 DUP2 LT ISZERO PUSH2 0x427 JUMPI PUSH2 0x41C PUSH0 DUP3 PUSH2 0x3F1 JUMP JUMPDEST PUSH1 0x1 DUP2 ADD SWAP1 POP PUSH2 0x40A JUMP JUMPDEST POP POP JUMP JUMPDEST PUSH1 0x1F DUP3 GT ISZERO PUSH2 0x46C JUMPI PUSH2 0x43D DUP2 PUSH2 0x317 JUMP JUMPDEST PUSH2 0x446 DUP5 PUSH2 0x329 JUMP JUMPDEST DUP2 ADD PUSH1 0x20 DUP6 LT ISZERO PUSH2 0x455 JUMPI DUP2 SWAP1 POP JUMPDEST PUSH2 0x469 PUSH2 0x461 DUP6 PUSH2 0x329 JUMP JUMPDEST DUP4 ADD DUP3 PUSH2 0x409 JUMP JUMPDEST POP POP JUMPDEST POP POP POP JUMP JUMPDEST PUSH0 DUP3 DUP3 SHR SWAP1 POP SWAP3 SWAP2 POP POP JUMP JUMPDEST PUSH0 PUSH2 0x48C PUSH0 NOT DUP5 PUSH1 0x8 MUL PUSH2 0x471 JUMP JUMPDEST NOT DUP1 DUP4 AND SWAP2 POP POP SWAP3 SWAP2 POP POP JUMP JUMPDEST PUSH0 PUSH2 0x4A4 DUP4 DUP4 PUSH2 0x47D JUMP JUMPDEST SWAP2 POP DUP3 PUSH1 0x2 MUL DUP3 OR SWAP1 POP SWAP3 SWAP2 POP POP JUMP JUMPDEST PUSH2 0x4BD DUP3 PUSH2 0x2B0 JUMP JUMPDEST PUSH8 0xFFFFFFFFFFFFFFFF DUP2 GT ISZERO PUSH2 0x4D6 JUMPI PUSH2 0x4D5 PUSH2 0xA1 JUMP JUMPDEST JUMPDEST PUSH2 0x4E0 DUP3 SLOAD PUSH2 0x2E7 JUMP JUMPDEST PUSH2 0x4EB DUP3 DUP3 DUP6 PUSH2 0x42B JUMP JUMPDEST PUSH0 PUSH1 0x20 SWAP1 POP PUSH1 0x1F DUP4 GT PUSH1 0x1 DUP2 EQ PUSH2 0x51C JUMPI PUSH0 DUP5 ISZERO PUSH2 0x50A JUMPI DUP3 DUP8 ADD MLOAD SWAP1 POP JUMPDEST PUSH2 0x514 DUP6 DUP3 PUSH2 0x499 JUMP JUMPDEST DUP7 SSTORE POP PUSH2 0x57B JUMP JUMPDEST PUSH1 0x1F NOT DUP5 AND PUSH2 0x52A DUP7 PUSH2 0x317 JUMP JUMPDEST PUSH0 JUMPDEST DUP3 DUP2 LT ISZERO PUSH2 0x551 JUMPI DUP5 DUP10 ADD MLOAD DUP3 SSTORE PUSH1 0x1 DUP3 ADD SWAP2 POP PUSH1 0x20 DUP6 ADD SWAP5 POP PUSH1 0x20 DUP2 ADD SWAP1 POP PUSH2 0x52C JUMP JUMPDEST DUP7 DUP4 LT ISZERO PUSH2 0x56E JUMPI DUP5 DUP10 ADD MLOAD PUSH2 0x56A PUSH1 0x1F DUP10 AND DUP3 PUSH2 0x47D JUMP JUMPDEST DUP4 SSTORE POP JUMPDEST PUSH1 0x1 PUSH1 0x2 DUP9 MUL ADD DUP9 SSTORE POP POP POP JUMPDEST POP POP POP POP POP POP JUMP JUMPDEST PUSH2 0xB8A DUP1 PUSH2 0x590 PUSH0 CODECOPY PUSH0 RETURN INVALID PUSH1 0x80 PUSH1 0x40 MSTORE CALLVALUE DUP1 ISZERO PUSH2 0xF JUMPI PUSH0 DUP1 REVERT JUMPDEST POP PUSH1 0x4 CALLDATASIZE LT PUSH2 0x86 JUMPI PUSH0 CALLDATALOAD PUSH1 0xE0 SHR DUP1 PUSH4 0x402E7F4B GT PUSH2 0x59 JUMPI DUP1 PUSH4 0x402E7F4B EQ PUSH2 0x114 JUMPI DUP1 PUSH4 0x67353DA2 EQ PUSH2 0x132 JUMPI DUP1 PUSH4 0x767800DE EQ PUSH2 0x14E JUMPI DUP1 PUSH4 0xA4E7D437 EQ PUSH2 0x16C JUMPI PUSH2 0x86 JUMP JUMPDEST DUP1 PUSH4 0x397B652 EQ PUSH2 0x8A JUMPI DUP1 PUSH4 0x6FDDE03 EQ PUSH2 0xA8 JUMPI DUP1 PUSH4 0x107046BD EQ PUSH2 0xC6 JUMPI DUP1 PUSH4 0x3FF4B938 EQ PUSH2 0xF6 JUMPI JUMPDEST PUSH0 DUP1 REVERT JUMPDEST PUSH2 0x92 PUSH2 0x18A JUMP JUMPDEST PUSH1 0x40 MLOAD PUSH2 0x9F SWAP2 SWAP1 PUSH2 0x462 JUMP JUMPDEST PUSH1 0x40 MLOAD DUP1 SWAP2 SUB SWAP1 RETURN JUMPDEST PUSH2 0xB0 PUSH2 0x190 JUMP JUMPDEST PUSH1 0x40 MLOAD PUSH2 0xBD SWAP2 SWAP1 PUSH2 0x4EB JUMP JUMPDEST PUSH1 0x40 MLOAD DUP1 SWAP2 SUB SWAP1 RETURN JUMPDEST PUSH2 0xE0 PUSH1 0x4 DUP1 CALLDATASIZE SUB DUP2 ADD SWAP1 PUSH2 0xDB SWAP2 SWAP1 PUSH2 0x546 JUMP JUMPDEST PUSH2 0x21B JUMP JUMPDEST PUSH1 0x40 MLOAD PUSH2 0xED SWAP2 SWAP1 PUSH2 0x4EB JUMP JUMPDEST PUSH1 0x40 MLOAD DUP1 SWAP2 SUB SWAP1 RETURN JUMPDEST PUSH2 0xFE PUSH2 0x2C1 JUMP JUMPDEST PUSH1 0x40 MLOAD PUSH2 0x10B SWAP2 SWAP1 PUSH2 0x4EB JUMP JUMPDEST PUSH1 0x40 MLOAD DUP1 SWAP2 SUB SWAP1 RETURN JUMPDEST PUSH2 0x11C PUSH2 0x34D JUMP JUMPDEST PUSH1 0x40 MLOAD PUSH2 0x129 SWAP2 SWAP1 PUSH2 0x4EB JUMP JUMPDEST PUSH1 0x40 MLOAD DUP1 SWAP2 SUB SWAP1 RETURN JUMPDEST PUSH2 0x14C PUSH1 0x4 DUP1 CALLDATASIZE SUB DUP2 ADD SWAP1 PUSH2 0x147 SWAP2 SWAP1 PUSH2 0x69D JUMP JUMPDEST PUSH2 0x374 JUMP JUMPDEST STOP JUMPDEST PUSH2 0x156 PUSH2 0x3A9 JUMP JUMPDEST PUSH1 0x40 MLOAD PUSH2 0x163 SWAP2 SWAP1 PUSH2 0x4EB JUMP JUMPDEST PUSH1 0x40 MLOAD DUP1 SWAP2 SUB SWAP1 RETURN JUMPDEST PUSH2 0x174 PUSH2 0x435 JUMP JUMPDEST PUSH1 0x40 MLOAD PUSH2 0x181 SWAP2 SWAP1 PUSH2 0x462 JUMP JUMPDEST PUSH1 0x40 MLOAD DUP1 SWAP2 SUB SWAP1 RETURN JUMPDEST PUSH1 0x2 SLOAD DUP2 JUMP JUMPDEST PUSH0 DUP1 SLOAD PUSH2 0x19C SWAP1 PUSH2 0x711 JUMP JUMPDEST DUP1 PUSH1 0x1F ADD PUSH1 0x20 DUP1 SWAP2 DIV MUL PUSH1 0x20 ADD PUSH1 0x40 MLOAD SWAP1 DUP2 ADD PUSH1 0x40 MSTORE DUP1 SWAP3 SWAP2 SWAP1 DUP2 DUP2 MSTORE PUSH1 0x20 ADD DUP3 DUP1 SLOAD PUSH2 0x1C8 SWAP1 PUSH2 0x711 JUMP JUMPDEST DUP1 ISZERO PUSH2 0x213 JUMPI DUP1 PUSH1 0x1F LT PUSH2 0x1EA JUMPI PUSH2 0x100 DUP1 DUP4 SLOAD DIV MUL DUP4 MSTORE SWAP2 PUSH1 0x20 ADD SWAP2 PUSH2 0x213 JUMP JUMPDEST DUP3 ADD SWAP2 SWAP1 PUSH0 MSTORE PUSH1 0x20 PUSH0 KECCAK256 SWAP1 JUMPDEST DUP2 SLOAD DUP2 MSTORE SWAP1 PUSH1 0x1 ADD SWAP1 PUSH1 0x20 ADD DUP1 DUP4 GT PUSH2 0x1F6 JUMPI DUP3 SWAP1 SUB PUSH1 0x1F AND DUP3 ADD SWAP2 JUMPDEST POP POP POP POP POP DUP2 JUMP JUMPDEST PUSH1 0x4 DUP2 DUP2 SLOAD DUP2 LT PUSH2 0x22A JUMPI PUSH0 DUP1 REVERT JUMPDEST SWAP1 PUSH0 MSTORE PUSH1 0x20 PUSH0 KECCAK256 ADD PUSH0 SWAP2 POP SWAP1 POP DUP1 SLOAD PUSH2 0x242 SWAP1 PUSH2 0x711 JUMP JUMPDEST DUP1 PUSH1 0x1F ADD PUSH1 0x20 DUP1 SWAP2 DIV MUL PUSH1 0x20 ADD PUSH1 0x40 MLOAD SWAP1 DUP2 ADD PUSH1 0x40 MSTORE DUP1 SWAP3 SWAP2 SWAP1 DUP2 DUP2 MSTORE PUSH1 0x20 ADD DUP3 DUP1 SLOAD PUSH2 0x26E SWAP1 PUSH2 0x711 JUMP JUMPDEST DUP1 ISZERO PUSH2 0x2B9 JUMPI DUP1 PUSH1 0x1F LT PUSH2 0x290 JUMPI PUSH2 0x100 DUP1 DUP4 SLOAD DIV MUL DUP4 MSTORE SWAP2 PUSH1 0x20 ADD SWAP2 PUSH2 0x2B9 JUMP JUMPDEST DUP3 ADD SWAP2 SWAP1 PUSH0 MSTORE PUSH1 0x20 PUSH0 KECCAK256 SWAP1 JUMPDEST DUP2 SLOAD DUP2 MSTORE SWAP1 PUSH1 0x1 ADD SWAP1 PUSH1 0x20 ADD DUP1 DUP4 GT PUSH2 0x29C JUMPI DUP3 SWAP1 SUB PUSH1 0x1F AND DUP3 ADD SWAP2 JUMPDEST POP POP POP POP POP DUP2 JUMP JUMPDEST PUSH1 0x3 DUP1 SLOAD PUSH2 0x2CE SWAP1 PUSH2 0x711 JUMP JUMPDEST DUP1 PUSH1 0x1F ADD PUSH1 0x20 DUP1 SWAP2 DIV MUL PUSH1 0x20 ADD PUSH1 0x40 MLOAD SWAP1 DUP2 ADD PUSH1 0x40 MSTORE DUP1 SWAP3 SWAP2 SWAP1 DUP2 DUP2 MSTORE PUSH1 0x20 ADD DUP3 DUP1 SLOAD PUSH2 0x2FA SWAP1 PUSH2 0x711 JUMP JUMPDEST DUP1 ISZERO PUSH2 0x345 JUMPI DUP1 PUSH1 0x1F LT PUSH2 0x31C JUMPI PUSH2 0x100 DUP1 DUP4 SLOAD DIV MUL DUP4 MSTORE SWAP2 PUSH1 0x20 ADD SWAP2 PUSH2 0x345 JUMP JUMPDEST DUP3 ADD SWAP2 SWAP1 PUSH0 MSTORE PUSH1 0x20 PUSH0 KECCAK256 SWAP1 JUMPDEST DUP2 SLOAD DUP2 MSTORE SWAP1 PUSH1 0x1 ADD SWAP1 PUSH1 0x20 ADD DUP1 DUP4 GT PUSH2 0x328 JUMPI DUP3 SWAP1 SUB PUSH1 0x1F AND DUP3 ADD SWAP2 JUMPDEST POP POP POP POP POP DUP2 JUMP JUMPDEST PUSH1 0x60 PUSH0 PUSH1 0x40 MLOAD PUSH1 0x20 ADD PUSH2 0x360 SWAP2 SWAP1 PUSH2 0x871 JUMP JUMPDEST PUSH1 0x40 MLOAD PUSH1 0x20 DUP2 DUP4 SUB SUB DUP2 MSTORE SWAP1 PUSH1 0x40 MSTORE SWAP1 POP SWAP1 JUMP JUMPDEST PUSH1 0x4 DUP2 SWAP1 DUP1 PUSH1 0x1 DUP2 SLOAD ADD DUP1 DUP3 SSTORE DUP1 SWAP2 POP POP PUSH1 0x1 SWAP1 SUB SWAP1 PUSH0 MSTORE PUSH1 0x20 PUSH0 KECCAK256 ADD PUSH0 SWAP1 SWAP2 SWAP1 SWAP2 SWAP1 SWAP2 POP SWAP1 DUP2 PUSH2 0x3A5 SWAP2 SWAP1 PUSH2 0xA28 JUMP JUMPDEST POP POP JUMP JUMPDEST PUSH1 0x1 DUP1 SLOAD PUSH2 0x3B6 SWAP1 PUSH2 0x711 JUMP JUMPDEST DUP1 PUSH1 0x1F ADD PUSH1 0x20 DUP1 SWAP2 DIV MUL PUSH1 0x20 ADD PUSH1 0x40 MLOAD SWAP1 DUP2 ADD PUSH1 0x40 MSTORE DUP1 SWAP3 SWAP2 SWAP1 DUP2 DUP2 MSTORE PUSH1 0x20 ADD DUP3 DUP1 SLOAD PUSH2 0x3E2 SWAP1 PUSH2 0x711 JUMP JUMPDEST DUP1 ISZERO PUSH2 0x42D JUMPI DUP1 PUSH1 0x1F LT PUSH2 0x404 JUMPI PUSH2 0x100 DUP1 DUP4 SLOAD DIV MUL DUP4 MSTORE SWAP2 PUSH1 0x20 ADD SWAP2 PUSH2 0x42D JUMP JUMPDEST DUP3 ADD SWAP2 SWAP1 PUSH0 MSTORE PUSH1 0x20 PUSH0 KECCAK256 SWAP1 JUMPDEST DUP2 SLOAD DUP2 MSTORE SWAP1 PUSH1 0x1 ADD SWAP1 PUSH1 0x20 ADD DUP1 DUP4 GT PUSH2 0x410 JUMPI DUP3 SWAP1 SUB PUSH1 0x1F AND DUP3 ADD SWAP2 JUMPDEST POP POP POP POP POP DUP2 JUMP JUMPDEST PUSH0 PUSH1 0x8 PUSH1 0x2 SLOAD PUSH2 0x445 SWAP2 SWAP1 PUSH2 0xB24 JUMP JUMPDEST SWAP1 POP SWAP1 JUMP JUMPDEST PUSH0 DUP2 SWAP1 POP SWAP2 SWAP1 POP JUMP JUMPDEST PUSH2 0x45C DUP2 PUSH2 0x44A JUMP JUMPDEST DUP3 MSTORE POP POP JUMP JUMPDEST PUSH0 PUSH1 0x20 DUP3 ADD SWAP1 POP PUSH2 0x475 PUSH0 DUP4 ADD DUP5 PUSH2 0x453 JUMP JUMPDEST SWAP3 SWAP2 POP POP JUMP JUMPDEST PUSH0 DUP2 MLOAD SWAP1 POP SWAP2 SWAP1 POP JUMP JUMPDEST PUSH0 DUP3 DUP3 MSTORE PUSH1 0x20 DUP3 ADD SWAP1 POP SWAP3 SWAP2 POP POP JUMP JUMPDEST DUP3 DUP2 DUP4 MCOPY PUSH0 DUP4 DUP4 ADD MSTORE POP POP POP JUMP JUMPDEST PUSH0 PUSH1 0x1F NOT PUSH1 0x1F DUP4 ADD AND SWAP1 POP SWAP2 SWAP1 POP JUMP JUMPDEST PUSH0 PUSH2 0x4BD DUP3 PUSH2 0x47B JUMP JUMPDEST PUSH2 0x4C7 DUP2 DUP6 PUSH2 0x485 JUMP JUMPDEST SWAP4 POP PUSH2 0x4D7 DUP2 DUP6 PUSH1 0x20 DUP7 ADD PUSH2 0x495 JUMP JUMPDEST PUSH2 0x4E0 DUP2 PUSH2 0x4A3 JUMP JUMPDEST DUP5 ADD SWAP2 POP POP SWAP3 SWAP2 POP POP JUMP JUMPDEST PUSH0 PUSH1 0x20 DUP3 ADD SWAP1 POP DUP2 DUP2 SUB PUSH0 DUP4 ADD MSTORE PUSH2 0x503 DUP2 DUP5 PUSH2 0x4B3 JUMP JUMPDEST SWAP1 POP SWAP3 SWAP2 POP POP JUMP JUMPDEST PUSH0 PUSH1 0x40 MLOAD SWAP1 POP SWAP1 JUMP JUMPDEST PUSH0 DUP1 REVERT JUMPDEST PUSH0 DUP1 REVERT JUMPDEST PUSH2 0x525 DUP2 PUSH2 0x44A JUMP JUMPDEST DUP2 EQ PUSH2 0x52F JUMPI PUSH0 DUP1 REVERT JUMPDEST POP JUMP JUMPDEST PUSH0 DUP2 CALLDATALOAD SWAP1 POP PUSH2 0x540 DUP2 PUSH2 0x51C JUMP JUMPDEST SWAP3 SWAP2 POP POP JUMP JUMPDEST PUSH0 PUSH1 0x20 DUP3 DUP5 SUB SLT ISZERO PUSH2 0x55B JUMPI PUSH2 0x55A PUSH2 0x514 JUMP JUMPDEST JUMPDEST PUSH0 PUSH2 0x568 DUP5 DUP3 DUP6 ADD PUSH2 0x532 JUMP JUMPDEST SWAP2 POP POP SWAP3 SWAP2 POP POP JUMP JUMPDEST PUSH0 DUP1 REVERT JUMPDEST PUSH0 DUP1 REVERT JUMPDEST PUSH32 0x4E487B7100000000000000000000000000000000000000000000000000000000 PUSH0 MSTORE PUSH1 0x41 PUSH1 0x4 MSTORE PUSH1 0x24 PUSH0 REVERT JUMPDEST PUSH2 0x5AF DUP3 PUSH2 0x4A3 JUMP JUMPDEST DUP2 ADD DUP2 DUP2 LT PUSH8 0xFFFFFFFFFFFFFFFF DUP3 GT OR ISZERO PUSH2 0x5CE JUMPI PUSH2 0x5CD PUSH2 0x579 JUMP JUMPDEST JUMPDEST DUP1 PUSH1 0x40 MSTORE POP POP POP JUMP JUMPDEST PUSH0 PUSH2 0x5E0 PUSH2 0x50B JUMP JUMPDEST SWAP1 POP PUSH2 0x5EC DUP3 DUP3 PUSH2 0x5A6 JUMP JUMPDEST SWAP2 SWAP1 POP JUMP JUMPDEST PUSH0 PUSH8 0xFFFFFFFFFFFFFFFF DUP3 GT ISZERO PUSH2 0x60B JUMPI PUSH2 0x60A PUSH2 0x579 JUMP JUMPDEST JUMPDEST PUSH2 0x614 DUP3 PUSH2 0x4A3 JUMP JUMPDEST SWAP1 POP PUSH1 0x20 DUP2 ADD SWAP1 POP SWAP2 SWAP1 POP JUMP JUMPDEST DUP3 DUP2 DUP4 CALLDATACOPY PUSH0 DUP4 DUP4 ADD MSTORE POP POP POP JUMP JUMPDEST PUSH0 PUSH2 0x641 PUSH2 0x63C DUP5 PUSH2 0x5F1 JUMP JUMPDEST PUSH2 0x5D7 JUMP JUMPDEST SWAP1 POP DUP3 DUP2 MSTORE PUSH1 0x20 DUP2 ADD DUP5 DUP5 DUP5 ADD GT ISZERO PUSH2 0x65D JUMPI PUSH2 0x65C PUSH2 0x575 JUMP JUMPDEST JUMPDEST PUSH2 0x668 DUP5 DUP3 DUP6 PUSH2 0x621 JUMP JUMPDEST POP SWAP4 SWAP3 POP POP POP JUMP JUMPDEST PUSH0 DUP3 PUSH1 0x1F DUP4 ADD SLT PUSH2 0x684 JUMPI PUSH2 0x683 PUSH2 0x571 JUMP JUMPDEST JUMPDEST DUP2 CALLDATALOAD PUSH2 0x694 DUP5 DUP3 PUSH1 0x20 DUP7 ADD PUSH2 0x62F JUMP JUMPDEST SWAP2 POP POP SWAP3 SWAP2 POP POP JUMP JUMPDEST PUSH0 PUSH1 0x20 DUP3 DUP5 SUB SLT ISZERO PUSH2 0x6B2 JUMPI PUSH2 0x6B1 PUSH2 0x514 JUMP JUMPDEST JUMPDEST PUSH0 DUP3 ADD CALLDATALOAD PUSH8 0xFFFFFFFFFFFFFFFF DUP2 GT ISZERO PUSH2 0x6CF JUMPI PUSH2 0x6CE PUSH2 0x518 JUMP JUMPDEST JUMPDEST PUSH2 0x6DB DUP5 DUP3 DUP6 ADD PUSH2 0x670 JUMP JUMPDEST SWAP2 POP POP SWAP3 SWAP2 POP POP JUMP JUMPDEST PUSH32 0x4E487B7100000000000000000000000000000000000000000000000000000000 PUSH0 MSTORE PUSH1 0x22 PUSH1 0x4 MSTORE PUSH1 0x24 PUSH0 REVERT JUMPDEST PUSH0 PUSH1 0x2 DUP3 DIV SWAP1 POP PUSH1 0x1 DUP3 AND DUP1 PUSH2 0x728 JUMPI PUSH1 0x7F DUP3 AND SWAP2 POP JUMPDEST PUSH1 0x20 DUP3 LT DUP2 SUB PUSH2 0x73B JUMPI PUSH2 0x73A PUSH2 0x6E4 JUMP JUMPDEST JUMPDEST POP SWAP2 SWAP1 POP JUMP JUMPDEST PUSH0 DUP2 SWAP1 POP SWAP3 SWAP2 POP POP JUMP JUMPDEST PUSH32 0x506572666F726D616E6365205265706F7274206F66203A200000000000000000 PUSH0 DUP3 ADD MSTORE POP JUMP JUMPDEST PUSH0 PUSH2 0x77F PUSH1 0x18 DUP4 PUSH2 0x741 JUMP JUMPDEST SWAP2 POP PUSH2 0x78A DUP3 PUSH2 0x74B JUMP JUMPDEST PUSH1 0x18 DUP3 ADD SWAP1 POP SWAP2 SWAP1 POP JUMP JUMPDEST PUSH0 DUP2 SWAP1 POP DUP2 PUSH0 MSTORE PUSH1 0x20 PUSH0 KECCAK256 SWAP1 POP SWAP2 SWAP1 POP JUMP JUMPDEST PUSH0 DUP2 SLOAD PUSH2 0x7B3 DUP2 PUSH2 0x711 JUMP JUMPDEST PUSH2 0x7BD DUP2 DUP7 PUSH2 0x741 JUMP JUMPDEST SWAP5 POP PUSH1 0x1 DUP3 AND PUSH0 DUP2 EQ PUSH2 0x7D7 JUMPI PUSH1 0x1 DUP2 EQ PUSH2 0x7EC JUMPI PUSH2 0x81E JUMP JUMPDEST PUSH1 0xFF NOT DUP4 AND DUP7 MSTORE DUP2 ISZERO ISZERO DUP3 MUL DUP7 ADD SWAP4 POP PUSH2 0x81E JUMP JUMPDEST PUSH2 0x7F5 DUP6 PUSH2 0x795 JUMP JUMPDEST PUSH0 JUMPDEST DUP4 DUP2 LT ISZERO PUSH2 0x816 JUMPI DUP2 SLOAD DUP2 DUP10 ADD MSTORE PUSH1 0x1 DUP3 ADD SWAP2 POP PUSH1 0x20 DUP2 ADD SWAP1 POP PUSH2 0x7F7 JUMP JUMPDEST DUP4 DUP9 ADD SWAP6 POP POP POP JUMPDEST POP POP POP SWAP3 SWAP2 POP POP JUMP JUMPDEST PUSH32 0x3A20476F6F64204C65616465727368697020536B696C6C730000000000000000 PUSH0 DUP3 ADD MSTORE POP JUMP JUMPDEST PUSH0 PUSH2 0x85B PUSH1 0x18 DUP4 PUSH2 0x741 JUMP JUMPDEST SWAP2 POP PUSH2 0x866 DUP3 PUSH2 0x827 JUMP JUMPDEST PUSH1 0x18 DUP3 ADD SWAP1 POP SWAP2 SWAP1 POP JUMP JUMPDEST PUSH0 PUSH2 0x87B DUP3 PUSH2 0x773 JUMP JUMPDEST SWAP2 POP PUSH2 0x887 DUP3 DUP5 PUSH2 0x7A7 JUMP JUMPDEST SWAP2 POP PUSH2 0x892 DUP3 PUSH2 0x84F JUMP JUMPDEST SWAP2 POP DUP2 SWAP1 POP SWAP3 SWAP2 POP POP JUMP JUMPDEST PUSH0 PUSH1 0x20 PUSH1 0x1F DUP4 ADD DIV SWAP1 POP SWAP2 SWAP1 POP JUMP JUMPDEST PUSH0 DUP3 DUP3 SHL SWAP1 POP SWAP3 SWAP2 POP POP JUMP JUMPDEST PUSH0 PUSH1 0x8 DUP4 MUL PUSH2 0x8E7 PUSH32 0xFFFFFFFFFFFFFFFFFFFFFFFFFFFFFFFFFFFFFFFFFFFFFFFFFFFFFFFFFFFFFFFF DUP3 PUSH2 0x8AC JUMP JUMPDEST PUSH2 0x8F1 DUP7 DUP4 PUSH2 0x8AC JUMP JUMPDEST SWAP6 POP DUP1 NOT DUP5 AND SWAP4 POP DUP1 DUP7 AND DUP5 OR SWAP3 POP POP POP SWAP4 SWAP3 POP POP POP JUMP JUMPDEST PUSH0 DUP2 SWAP1 POP SWAP2 SWAP1 POP JUMP JUMPDEST PUSH0 PUSH2 0x92C PUSH2 0x927 PUSH2 0x922 DUP5 PUSH2 0x44A JUMP JUMPDEST PUSH2 0x909 JUMP JUMPDEST PUSH2 0x44A JUMP JUMPDEST SWAP1 POP SWAP2 SWAP1 POP JUMP JUMPDEST PUSH0 DUP2 SWAP1 POP SWAP2 SWAP1 POP JUMP JUMPDEST PUSH2 0x945 DUP4 PUSH2 0x912 JUMP JUMPDEST PUSH2 0x959 PUSH2 0x951 DUP3 PUSH2 0x933 JUMP JUMPDEST DUP5 DUP5 SLOAD PUSH2 0x8B8 JUMP JUMPDEST DUP3 SSTORE POP POP POP POP JUMP JUMPDEST PUSH0 SWAP1 JUMP JUMPDEST PUSH2 0x96D PUSH2 0x961 JUMP JUMPDEST PUSH2 0x978 DUP2 DUP5 DUP5 PUSH2 0x93C JUMP JUMPDEST POP POP POP JUMP JUMPDEST JUMPDEST DUP2 DUP2 LT ISZERO PUSH2 0x99B JUMPI PUSH2 0x990 PUSH0 DUP3 PUSH2 0x965 JUMP JUMPDEST PUSH1 0x1 DUP2 ADD SWAP1 POP PUSH2 0x97E JUMP JUMPDEST POP POP JUMP JUMPDEST PUSH1 0x1F DUP3 GT ISZERO PUSH2 0x9E0 JUMPI PUSH2 0x9B1 DUP2 PUSH2 0x795 JUMP JUMPDEST PUSH2 0x9BA DUP5 PUSH2 0x89D JUMP JUMPDEST DUP2 ADD PUSH1 0x20 DUP6 LT ISZERO PUSH2 0x9C9 JUMPI DUP2 SWAP1 POP JUMPDEST PUSH2 0x9DD PUSH2 0x9D5 DUP6 PUSH2 0x89D JUMP JUMPDEST DUP4 ADD DUP3 PUSH2 0x97D JUMP JUMPDEST POP POP JUMPDEST POP POP POP JUMP JUMPDEST PUSH0 DUP3 DUP3 SHR SWAP1 POP SWAP3 SWAP2 POP POP JUMP JUMPDEST PUSH0 PUSH2 0xA00 PUSH0 NOT DUP5 PUSH1 0x8 MUL PUSH2 0x9E5 JUMP JUMPDEST NOT DUP1 DUP4 AND SWAP2 POP POP SWAP3 SWAP2 POP POP JUMP JUMPDEST PUSH0 PUSH2 0xA18 DUP4 DUP4 PUSH2 0x9F1 JUMP JUMPDEST SWAP2 POP DUP3 PUSH1 0x2 MUL DUP3 OR SWAP1 POP SWAP3 SWAP2 POP POP JUMP JUMPDEST PUSH2 0xA31 DUP3 PUSH2 0x47B JUMP JUMPDEST PUSH8 0xFFFFFFFFFFFFFFFF DUP2 GT ISZERO PUSH2 0xA4A JUMPI PUSH2 0xA49 PUSH2 0x579 JUMP JUMPDEST JUMPDEST PUSH2 0xA54 DUP3 SLOAD PUSH2 0x711 JUMP JUMPDEST PUSH2 0xA5F DUP3 DUP3 DUP6 PUSH2 0x99F JUMP JUMPDEST PUSH0 PUSH1 0x20 SWAP1 POP PUSH1 0x1F DUP4 GT PUSH1 0x1 DUP2 EQ PUSH2 0xA90 JUMPI PUSH0 DUP5 ISZERO PUSH2 0xA7E JUMPI DUP3 DUP8 ADD MLOAD SWAP1 POP JUMPDEST PUSH2 0xA88 DUP6 DUP3 PUSH2 0xA0D JUMP JUMPDEST DUP7 SSTORE POP PUSH2 0xAEF JUMP JUMPDEST PUSH1 0x1F NOT DUP5 AND PUSH2 0xA9E DUP7 PUSH2 0x795 JUMP JUMPDEST PUSH0 JUMPDEST DUP3 DUP2 LT ISZERO PUSH2 0xAC5 JUMPI DUP5 DUP10 ADD MLOAD DUP3 SSTORE PUSH1 0x1 DUP3 ADD SWAP2 POP PUSH1 0x20 DUP6 ADD SWAP5 POP PUSH1 0x20 DUP2 ADD SWAP1 POP PUSH2 0xAA0 JUMP JUMPDEST DUP7 DUP4 LT ISZERO PUSH2 0xAE2 JUMPI DUP5 DUP10 ADD MLOAD PUSH2 0xADE PUSH1 0x1F DUP10 AND DUP3 PUSH2 0x9F1 JUMP JUMPDEST DUP4 SSTORE POP JUMPDEST PUSH1 0x1 PUSH1 0x2 DUP9 MUL ADD DUP9 SSTORE POP POP POP JUMPDEST POP POP POP POP POP POP JUMP JUMPDEST PUSH32 0x4E487B7100000000000000000000000000000000000000000000000000000000 PUSH0 MSTORE PUSH1 0x12 PUSH1 0x4 MSTORE PUSH1 0x24 PUSH0 REVERT JUMPDEST PUSH0 PUSH2 0xB2E DUP3 PUSH2 0x44A JUMP JUMPDEST SWAP2 POP PUSH2 0xB39 DUP4 PUSH2 0x44A JUMP JUMPDEST SWAP3 POP DUP3 PUSH2 0xB49 JUMPI PUSH2 0xB48 PUSH2 0xAF7 JUMP JUMPDEST JUMPDEST DUP3 DUP3 DIV SWAP1 POP SWAP3 SWAP2 POP POP JUMP INVALID LOG2 PUSH5 0x6970667358 0x22 SLT KECCAK256 DUP1 CALLDATACOPY 0x23 PUSH8 0x2425394DF4DEE6FD 0x2B 0x2D SWAP1 0xB6 0xE8 MULMOD PUSH14 0x63A21C5E56977E37B0592C213064 PUSH20 0x6F6C634300081A00330000000000000000000000 "
		},
		"gasEstimates": {
			"creation": {
				"codeDepositCost": "590800",
				"executionCost": "infinite",
				"totalCost": "infinite"
			},
			"external": {
				"addProjects(string)": "infinite",
				"addr()": "infinite",
				"calculateBonus()": "infinite",
				"jobTitle()": "infinite",
				"name()": "infinite",
				"performanceReport()": "infinite",
				"projects(uint256)": "infinite",
				"salary()": "2426"
			}
		},
		"methodIdentifiers": {
			"addProjects(string)": "67353da2",
			"addr()": "767800de",
			"calculateBonus()": "a4e7d437",
			"jobTitle()": "3ff4b938",
			"name()": "06fdde03",
			"performanceReport()": "402e7f4b",
			"projects(uint256)": "107046bd",
			"salary()": "0397b652"
		}
	},
	"abi": [
		{
			"inputs": [
				{
					"internalType": "string",
					"name": "_name",
					"type": "string"
				},
				{
					"internalType": "string",
					"name": "_addr",
					"type": "string"
				},
				{
					"internalType": "uint256",
					"name": "_salary",
					"type": "uint256"
				},
				{
					"internalType": "string",
					"name": "_jobTitle",
					"type": "string"
				}
			],
			"stateMutability": "nonpayable",
			"type": "constructor"
		},
		{
			"inputs": [
				{
					"internalType": "string",
					"name": "project",
					"type": "string"
				}
			],
			"name": "addProjects",
			"outputs": [],
			"stateMutability": "nonpayable",
			"type": "function"
		},
		{
			"inputs": [],
			"name": "addr",
			"outputs": [
				{
					"internalType": "string",
					"name": "",
					"type": "string"
				}
			],
			"stateMutability": "view",
			"type": "function"
		},
		{
			"inputs": [],
			"name": "calculateBonus",
			"outputs": [
				{
					"internalType": "uint256",
					"name": "",
					"type": "uint256"
				}
			],
			"stateMutability": "view",
			"type": "function"
		},
		{
			"inputs": [],
			"name": "jobTitle",
			"outputs": [
				{
					"internalType": "string",
					"name": "",
					"type": "string"
				}
			],
			"stateMutability": "view",
			"type": "function"
		},
		{
			"inputs": [],
			"name": "name",
			"outputs": [
				{
					"internalType": "string",
					"name": "",
					"type": "string"
				}
			],
			"stateMutability": "view",
			"type": "function"
		},
		{
			"inputs": [],
			"name": "performanceReport",
			"outputs": [
				{
					"internalType": "string",
					"name": "",
					"type": "string"
				}
			],
			"stateMutability": "view",
			"type": "function"
		},
		{
			"inputs": [
				{
					"internalType": "uint256",
					"name": "",
					"type": "uint256"
				}
			],
			"name": "projects",
			"outputs": [
				{
					"internalType": "string",
					"name": "",
					"type": "string"
				}
			],
			"stateMutability": "view",
			"type": "function"
		},
		{
			"inputs": [],
			"name": "salary",
			"outputs": [
				{
					"internalType": "uint256",
					"name": "",
					"type": "uint256"
				}
			],
			"stateMutability": "view",
			"type": "function"
		}
	]
}