{
	"Practice/Day-06/P3.sol": {
		"Triangle": {
			"abi": [
				{
					"inputs": [
						{
							"internalType": "uint256",
							"name": "_side1",
							"type": "uint256"
						},
						{
							"internalType": "uint256",
							"name": "_side2",
							"type": "uint256"
						},
						{
							"internalType": "uint256",
							"name": "_side3",
							"type": "uint256"
						},
						{
							"internalType": "uint256",
							"name": "_height",
							"type": "uint256"
						},
						{
							"internalType": "uint256",
							"name": "_breadth",
							"type": "uint256"
						}
					],
					"stateMutability": "nonpayable",
					"type": "constructor"
				},
				{
					"inputs": [],
					"name": "breadth",
					"outputs": [
						{
							"internalType": "uint256",
							"name": "",
							"type": "uint256"
						}
					],
					"stateMutability": "view",
					"type": "function"
				},
				{
					"inputs": [],
					"name": "getArea",
					"outputs": [
						{
							"internalType": "uint256",
							"name": "",
							"type": "uint256"
						}
					],
					"stateMutability": "view",
					"type": "function"
				},
				{
					"inputs": [],
					"name": "getPerimeter",
					"outputs": [
						{
							"internalType": "uint256",
							"name": "",
							"type": "uint256"
						}
					],
					"stateMutability": "view",
					"type": "function"
				},
				{
					"inputs": [],
					"name": "height",
					"outputs": [
						{
							"internalType": "uint256",
							"name": "",
							"type": "uint256"
						}
					],
					"stateMutability": "view",
					"type": "function"
				},
				{
					"inputs": [],
					"name": "side1",
					"outputs": [
						{
							"internalType": "uint256",
							"name": "",
							"type": "uint256"
						}
					],
					"stateMutability": "view",
					"type": "function"
				},
				{
					"inputs": [],
					"name": "side2",
					"outputs": [
						{
							"internalType": "uint256",
							"name": "",
							"type": "uint256"
						}
					],
					"stateMutability": "view",
					"type": "function"
				},
				{
					"inputs": [],
					"name": "side3",
					"outputs": [
						{
							"internalType": "uint256",
							"name": "",
							"type": "uint256"
						}
					],
					"stateMutability": "view",
					"type": "function"
				}
			],
			"devdoc": {
				"kind": "dev",
				"methods": {},
				"version": 1
			},
			"evm": {
				"assembly": "    /* \"Practice/Day-06/P3.sol\":1067:1671  contract Triangle is Shape {... */\n  mstore(0x40, 0x80)\n    /* \"Practice/Day-06/P3.sol\":1226:1446  constructor (uint _side1, uint _side2, uint _side3, uint _height, uint _breadth) {... */\n  callvalue\n  dup1\n  iszero\n  tag_1\n  jumpi\n  0x00\n  dup1\n  revert\ntag_1:\n  pop\n  mload(0x40)\n  sub(codesize, bytecodeSize)\n  dup1\n  bytecodeSize\n  dup4\n  codecopy\n  dup2\n  dup2\n  add\n  0x40\n  mstore\n  dup2\n  add\n  swap1\n  tag_2\n  swap2\n  swap1\n  tag_3\n  jump\t// in\ntag_2:\n    /* \"Practice/Day-06/P3.sol\":1326:1332  _side1 */\n  dup5\n    /* \"Practice/Day-06/P3.sol\":1318:1323  side1 */\n  0x00\n    /* \"Practice/Day-06/P3.sol\":1318:1332  side1 = _side1 */\n  dup2\n  swap1\n  sstore\n  pop\n    /* \"Practice/Day-06/P3.sol\":1351:1357  _side2 */\n  dup4\n    /* \"Practice/Day-06/P3.sol\":1343:1348  side2 */\n  0x01\n    /* \"Practice/Day-06/P3.sol\":1343:1357  side2 = _side2 */\n  dup2\n  swap1\n  sstore\n  pop\n    /* \"Practice/Day-06/P3.sol\":1376:1382  _side3 */\n  dup3\n    /* \"Practice/Day-06/P3.sol\":1368:1373  side3 */\n  0x02\n    /* \"Practice/Day-06/P3.sol\":1368:1382  side3 = _side3 */\n  dup2\n  swap1\n  sstore\n  pop\n    /* \"Practice/Day-06/P3.sol\":1402:1409  _height */\n  dup2\n    /* \"Practice/Day-06/P3.sol\":1393:1399  height */\n  0x03\n    /* \"Practice/Day-06/P3.sol\":1393:1409  height = _height */\n  dup2\n  swap1\n  sstore\n  pop\n    /* \"Practice/Day-06/P3.sol\":1430:1438  _breadth */\n  dup1\n    /* \"Practice/Day-06/P3.sol\":1420:1427  breadth */\n  0x04\n    /* \"Practice/Day-06/P3.sol\":1420:1438  breadth = _breadth */\n  dup2\n  swap1\n  sstore\n  pop\n    /* \"Practice/Day-06/P3.sol\":1226:1446  constructor (uint _side1, uint _side2, uint _side3, uint _height, uint _breadth) {... */\n  pop\n  pop\n  pop\n  pop\n  pop\n    /* \"Practice/Day-06/P3.sol\":1067:1671  contract Triangle is Shape {... */\n  jump(tag_6)\n    /* \"#utility.yul\":88:205   */\ntag_8:\n    /* \"#utility.yul\":197:198   */\n  0x00\n    /* \"#utility.yul\":194:195   */\n  dup1\n    /* \"#utility.yul\":187:199   */\n  revert\n    /* \"#utility.yul\":334:411   */\ntag_10:\n    /* \"#utility.yul\":371:378   */\n  0x00\n    /* \"#utility.yul\":400:405   */\n  dup2\n    /* \"#utility.yul\":389:405   */\n  swap1\n  pop\n    /* \"#utility.yul\":334:411   */\n  swap2\n  swap1\n  pop\n  jump\t// out\n    /* \"#utility.yul\":417:539   */\ntag_11:\n    /* \"#utility.yul\":490:514   */\n  tag_19\n    /* \"#utility.yul\":508:513   */\n  dup2\n    /* \"#utility.yul\":490:514   */\n  tag_10\n  jump\t// in\ntag_19:\n    /* \"#utility.yul\":483:488   */\n  dup2\n    /* \"#utility.yul\":480:515   */\n  eq\n    /* \"#utility.yul\":470:533   */\n  tag_20\n  jumpi\n    /* \"#utility.yul\":529:530   */\n  0x00\n    /* \"#utility.yul\":526:527   */\n  dup1\n    /* \"#utility.yul\":519:531   */\n  revert\n    /* \"#utility.yul\":470:533   */\ntag_20:\n    /* \"#utility.yul\":417:539   */\n  pop\n  jump\t// out\n    /* \"#utility.yul\":545:688   */\ntag_12:\n    /* \"#utility.yul\":602:607   */\n  0x00\n    /* \"#utility.yul\":633:639   */\n  dup2\n    /* \"#utility.yul\":627:640   */\n  mload\n    /* \"#utility.yul\":618:640   */\n  swap1\n  pop\n    /* \"#utility.yul\":649:682   */\n  tag_22\n    /* \"#utility.yul\":676:681   */\n  dup2\n    /* \"#utility.yul\":649:682   */\n  tag_11\n  jump\t// in\ntag_22:\n    /* \"#utility.yul\":545:688   */\n  swap3\n  swap2\n  pop\n  pop\n  jump\t// out\n    /* \"#utility.yul\":694:1671   */\ntag_3:\n    /* \"#utility.yul\":800:806   */\n  0x00\n    /* \"#utility.yul\":808:814   */\n  dup1\n    /* \"#utility.yul\":816:822   */\n  0x00\n    /* \"#utility.yul\":824:830   */\n  dup1\n    /* \"#utility.yul\":832:838   */\n  0x00\n    /* \"#utility.yul\":881:884   */\n  0xa0\n    /* \"#utility.yul\":869:878   */\n  dup7\n    /* \"#utility.yul\":860:867   */\n  dup9\n    /* \"#utility.yul\":856:879   */\n  sub\n    /* \"#utility.yul\":852:885   */\n  slt\n    /* \"#utility.yul\":849:969   */\n  iszero\n  tag_24\n  jumpi\n    /* \"#utility.yul\":888:967   */\n  tag_25\n  tag_8\n  jump\t// in\ntag_25:\n    /* \"#utility.yul\":849:969   */\ntag_24:\n    /* \"#utility.yul\":1008:1009   */\n  0x00\n    /* \"#utility.yul\":1033:1097   */\n  tag_26\n    /* \"#utility.yul\":1089:1096   */\n  dup9\n    /* \"#utility.yul\":1080:1086   */\n  dup3\n    /* \"#utility.yul\":1069:1078   */\n  dup10\n    /* \"#utility.yul\":1065:1087   */\n  add\n    /* \"#utility.yul\":1033:1097   */\n  tag_12\n  jump\t// in\ntag_26:\n    /* \"#utility.yul\":1023:1097   */\n  swap6\n  pop\n    /* \"#utility.yul\":979:1107   */\n  pop\n    /* \"#utility.yul\":1146:1148   */\n  0x20\n    /* \"#utility.yul\":1172:1236   */\n  tag_27\n    /* \"#utility.yul\":1228:1235   */\n  dup9\n    /* \"#utility.yul\":1219:1225   */\n  dup3\n    /* \"#utility.yul\":1208:1217   */\n  dup10\n    /* \"#utility.yul\":1204:1226   */\n  add\n    /* \"#utility.yul\":1172:1236   */\n  tag_12\n  jump\t// in\ntag_27:\n    /* \"#utility.yul\":1162:1236   */\n  swap5\n  pop\n    /* \"#utility.yul\":1117:1246   */\n  pop\n    /* \"#utility.yul\":1285:1287   */\n  0x40\n    /* \"#utility.yul\":1311:1375   */\n  tag_28\n    /* \"#utility.yul\":1367:1374   */\n  dup9\n    /* \"#utility.yul\":1358:1364   */\n  dup3\n    /* \"#utility.yul\":1347:1356   */\n  dup10\n    /* \"#utility.yul\":1343:1365   */\n  add\n    /* \"#utility.yul\":1311:1375   */\n  tag_12\n  jump\t// in\ntag_28:\n    /* \"#utility.yul\":1301:1375   */\n  swap4\n  pop\n    /* \"#utility.yul\":1256:1385   */\n  pop\n    /* \"#utility.yul\":1424:1426   */\n  0x60\n    /* \"#utility.yul\":1450:1514   */\n  tag_29\n    /* \"#utility.yul\":1506:1513   */\n  dup9\n    /* \"#utility.yul\":1497:1503   */\n  dup3\n    /* \"#utility.yul\":1486:1495   */\n  dup10\n    /* \"#utility.yul\":1482:1504   */\n  add\n    /* \"#utility.yul\":1450:1514   */\n  tag_12\n  jump\t// in\ntag_29:\n    /* \"#utility.yul\":1440:1514   */\n  swap3\n  pop\n    /* \"#utility.yul\":1395:1524   */\n  pop\n    /* \"#utility.yul\":1563:1566   */\n  0x80\n    /* \"#utility.yul\":1590:1654   */\n  tag_30\n    /* \"#utility.yul\":1646:1653   */\n  dup9\n    /* \"#utility.yul\":1637:1643   */\n  dup3\n    /* \"#utility.yul\":1626:1635   */\n  dup10\n    /* \"#utility.yul\":1622:1644   */\n  add\n    /* \"#utility.yul\":1590:1654   */\n  tag_12\n  jump\t// in\ntag_30:\n    /* \"#utility.yul\":1580:1654   */\n  swap2\n  pop\n    /* \"#utility.yul\":1534:1664   */\n  pop\n    /* \"#utility.yul\":694:1671   */\n  swap3\n  swap6\n  pop\n  swap3\n  swap6\n  swap1\n  swap4\n  pop\n  jump\t// out\n    /* \"Practice/Day-06/P3.sol\":1067:1671  contract Triangle is Shape {... */\ntag_6:\n  dataSize(sub_0)\n  dup1\n  dataOffset(sub_0)\n  0x00\n  codecopy\n  0x00\n  return\nstop\n\nsub_0: assembly {\n        /* \"Practice/Day-06/P3.sol\":1067:1671  contract Triangle is Shape {... */\n      mstore(0x40, 0x80)\n      callvalue\n      dup1\n      iszero\n      tag_1\n      jumpi\n      0x00\n      dup1\n      revert\n    tag_1:\n      pop\n      jumpi(tag_2, lt(calldatasize, 0x04))\n      shr(0xe0, calldataload(0x00))\n      dup1\n      0x7ebeb19c\n      gt\n      tag_10\n      jumpi\n      dup1\n      0x7ebeb19c\n      eq\n      tag_6\n      jumpi\n      dup1\n      0x85be3e62\n      eq\n      tag_7\n      jumpi\n      dup1\n      0xe7bd19d9\n      eq\n      tag_8\n      jumpi\n      dup1\n      0xf69f485a\n      eq\n      tag_9\n      jumpi\n      jump(tag_2)\n    tag_10:\n      dup1\n      0x0ef26743\n      eq\n      tag_3\n      jumpi\n      dup1\n      0x1cbe93f2\n      eq\n      tag_4\n      jumpi\n      dup1\n      0x32e8be6b\n      eq\n      tag_5\n      jumpi\n    tag_2:\n      0x00\n      dup1\n      revert\n        /* \"Practice/Day-06/P3.sol\":1173:1191  uint public height */\n    tag_3:\n      tag_11\n      tag_12\n      jump\t// in\n    tag_11:\n      mload(0x40)\n      tag_13\n      swap2\n      swap1\n      tag_14\n      jump\t// in\n    tag_13:\n      mload(0x40)\n      dup1\n      swap2\n      sub\n      swap1\n      return\n        /* \"Practice/Day-06/P3.sol\":1149:1166  uint public side3 */\n    tag_4:\n      tag_15\n      tag_16\n      jump\t// in\n    tag_15:\n      mload(0x40)\n      tag_17\n      swap2\n      swap1\n      tag_14\n      jump\t// in\n    tag_17:\n      mload(0x40)\n      dup1\n      swap2\n      sub\n      swap1\n      return\n        /* \"Practice/Day-06/P3.sol\":1125:1142  uint public side2 */\n    tag_5:\n      tag_18\n      tag_19\n      jump\t// in\n    tag_18:\n      mload(0x40)\n      tag_20\n      swap2\n      swap1\n      tag_14\n      jump\t// in\n    tag_20:\n      mload(0x40)\n      dup1\n      swap2\n      sub\n      swap1\n      return\n        /* \"Practice/Day-06/P3.sol\":1454:1560  function getPerimeter() public override view returns(uint) {... */\n    tag_6:\n      tag_21\n      tag_22\n      jump\t// in\n    tag_21:\n      mload(0x40)\n      tag_23\n      swap2\n      swap1\n      tag_14\n      jump\t// in\n    tag_23:\n      mload(0x40)\n      dup1\n      swap2\n      sub\n      swap1\n      return\n        /* \"Practice/Day-06/P3.sol\":1568:1668  function getArea() public override view returns(uint) {... */\n    tag_7:\n      tag_24\n      tag_25\n      jump\t// in\n    tag_24:\n      mload(0x40)\n      tag_26\n      swap2\n      swap1\n      tag_14\n      jump\t// in\n    tag_26:\n      mload(0x40)\n      dup1\n      swap2\n      sub\n      swap1\n      return\n        /* \"Practice/Day-06/P3.sol\":1101:1118  uint public side1 */\n    tag_8:\n      tag_27\n      tag_28\n      jump\t// in\n    tag_27:\n      mload(0x40)\n      tag_29\n      swap2\n      swap1\n      tag_14\n      jump\t// in\n    tag_29:\n      mload(0x40)\n      dup1\n      swap2\n      sub\n      swap1\n      return\n        /* \"Practice/Day-06/P3.sol\":1198:1217  uint public breadth */\n    tag_9:\n      tag_30\n      tag_31\n      jump\t// in\n    tag_30:\n      mload(0x40)\n      tag_32\n      swap2\n      swap1\n      tag_14\n      jump\t// in\n    tag_32:\n      mload(0x40)\n      dup1\n      swap2\n      sub\n      swap1\n      return\n        /* \"Practice/Day-06/P3.sol\":1173:1191  uint public height */\n    tag_12:\n      sload(0x03)\n      dup2\n      jump\t// out\n        /* \"Practice/Day-06/P3.sol\":1149:1166  uint public side3 */\n    tag_16:\n      sload(0x02)\n      dup2\n      jump\t// out\n        /* \"Practice/Day-06/P3.sol\":1125:1142  uint public side2 */\n    tag_19:\n      sload(0x01)\n      dup2\n      jump\t// out\n        /* \"Practice/Day-06/P3.sol\":1454:1560  function getPerimeter() public override view returns(uint) {... */\n    tag_22:\n        /* \"Practice/Day-06/P3.sol\":1507:1511  uint */\n      0x00\n        /* \"Practice/Day-06/P3.sol\":1547:1552  side3 */\n      sload(0x02)\n        /* \"Practice/Day-06/P3.sol\":1539:1544  side2 */\n      sload(0x01)\n        /* \"Practice/Day-06/P3.sol\":1531:1536  side1 */\n      sload(0x00)\n        /* \"Practice/Day-06/P3.sol\":1531:1544  side1 + side2 */\n      tag_34\n      swap2\n      swap1\n      tag_35\n      jump\t// in\n    tag_34:\n        /* \"Practice/Day-06/P3.sol\":1531:1552  side1 + side2 + side3 */\n      tag_36\n      swap2\n      swap1\n      tag_35\n      jump\t// in\n    tag_36:\n        /* \"Practice/Day-06/P3.sol\":1524:1552  return side1 + side2 + side3 */\n      swap1\n      pop\n        /* \"Practice/Day-06/P3.sol\":1454:1560  function getPerimeter() public override view returns(uint) {... */\n      swap1\n      jump\t// out\n        /* \"Practice/Day-06/P3.sol\":1568:1668  function getArea() public override view returns(uint) {... */\n    tag_25:\n        /* \"Practice/Day-06/P3.sol\":1616:1620  uint */\n      0x00\n        /* \"Practice/Day-06/P3.sol\":1659:1660  2 */\n      0x02\n        /* \"Practice/Day-06/P3.sol\":1651:1657  height */\n      sload(0x03)\n        /* \"Practice/Day-06/P3.sol\":1641:1648  breadth */\n      sload(0x04)\n        /* \"Practice/Day-06/P3.sol\":1641:1657  breadth * height */\n      tag_38\n      swap2\n      swap1\n      tag_39\n      jump\t// in\n    tag_38:\n        /* \"Practice/Day-06/P3.sol\":1640:1660  (breadth * height)/2 */\n      tag_40\n      swap2\n      swap1\n      tag_41\n      jump\t// in\n    tag_40:\n        /* \"Practice/Day-06/P3.sol\":1633:1660  return (breadth * height)/2 */\n      swap1\n      pop\n        /* \"Practice/Day-06/P3.sol\":1568:1668  function getArea() public override view returns(uint) {... */\n      swap1\n      jump\t// out\n        /* \"Practice/Day-06/P3.sol\":1101:1118  uint public side1 */\n    tag_28:\n      sload(0x00)\n      dup2\n      jump\t// out\n        /* \"Practice/Day-06/P3.sol\":1198:1217  uint public breadth */\n    tag_31:\n      sload(0x04)\n      dup2\n      jump\t// out\n        /* \"#utility.yul\":7:84   */\n    tag_42:\n        /* \"#utility.yul\":44:51   */\n      0x00\n        /* \"#utility.yul\":73:78   */\n      dup2\n        /* \"#utility.yul\":62:78   */\n      swap1\n      pop\n        /* \"#utility.yul\":7:84   */\n      swap2\n      swap1\n      pop\n      jump\t// out\n        /* \"#utility.yul\":90:208   */\n    tag_43:\n        /* \"#utility.yul\":177:201   */\n      tag_49\n        /* \"#utility.yul\":195:200   */\n      dup2\n        /* \"#utility.yul\":177:201   */\n      tag_42\n      jump\t// in\n    tag_49:\n        /* \"#utility.yul\":172:175   */\n      dup3\n        /* \"#utility.yul\":165:202   */\n      mstore\n        /* \"#utility.yul\":90:208   */\n      pop\n      pop\n      jump\t// out\n        /* \"#utility.yul\":214:436   */\n    tag_14:\n        /* \"#utility.yul\":307:311   */\n      0x00\n        /* \"#utility.yul\":345:347   */\n      0x20\n        /* \"#utility.yul\":334:343   */\n      dup3\n        /* \"#utility.yul\":330:348   */\n      add\n        /* \"#utility.yul\":322:348   */\n      swap1\n      pop\n        /* \"#utility.yul\":358:429   */\n      tag_51\n        /* \"#utility.yul\":426:427   */\n      0x00\n        /* \"#utility.yul\":415:424   */\n      dup4\n        /* \"#utility.yul\":411:428   */\n      add\n        /* \"#utility.yul\":402:408   */\n      dup5\n        /* \"#utility.yul\":358:429   */\n      tag_43\n      jump\t// in\n    tag_51:\n        /* \"#utility.yul\":214:436   */\n      swap3\n      swap2\n      pop\n      pop\n      jump\t// out\n        /* \"#utility.yul\":442:622   */\n    tag_44:\n        /* \"#utility.yul\":490:567   */\n      0x4e487b7100000000000000000000000000000000000000000000000000000000\n        /* \"#utility.yul\":487:488   */\n      0x00\n        /* \"#utility.yul\":480:568   */\n      mstore\n        /* \"#utility.yul\":587:591   */\n      0x11\n        /* \"#utility.yul\":584:585   */\n      0x04\n        /* \"#utility.yul\":577:592   */\n      mstore\n        /* \"#utility.yul\":611:615   */\n      0x24\n        /* \"#utility.yul\":608:609   */\n      0x00\n        /* \"#utility.yul\":601:616   */\n      revert\n        /* \"#utility.yul\":628:819   */\n    tag_35:\n        /* \"#utility.yul\":668:671   */\n      0x00\n        /* \"#utility.yul\":687:707   */\n      tag_54\n        /* \"#utility.yul\":705:706   */\n      dup3\n        /* \"#utility.yul\":687:707   */\n      tag_42\n      jump\t// in\n    tag_54:\n        /* \"#utility.yul\":682:707   */\n      swap2\n      pop\n        /* \"#utility.yul\":721:741   */\n      tag_55\n        /* \"#utility.yul\":739:740   */\n      dup4\n        /* \"#utility.yul\":721:741   */\n      tag_42\n      jump\t// in\n    tag_55:\n        /* \"#utility.yul\":716:741   */\n      swap3\n      pop\n        /* \"#utility.yul\":764:765   */\n      dup3\n        /* \"#utility.yul\":761:762   */\n      dup3\n        /* \"#utility.yul\":757:766   */\n      add\n        /* \"#utility.yul\":750:766   */\n      swap1\n      pop\n        /* \"#utility.yul\":785:788   */\n      dup1\n        /* \"#utility.yul\":782:783   */\n      dup3\n        /* \"#utility.yul\":779:789   */\n      gt\n        /* \"#utility.yul\":776:812   */\n      iszero\n      tag_56\n      jumpi\n        /* \"#utility.yul\":792:810   */\n      tag_57\n      tag_44\n      jump\t// in\n    tag_57:\n        /* \"#utility.yul\":776:812   */\n    tag_56:\n        /* \"#utility.yul\":628:819   */\n      swap3\n      swap2\n      pop\n      pop\n      jump\t// out\n        /* \"#utility.yul\":825:1235   */\n    tag_39:\n        /* \"#utility.yul\":865:872   */\n      0x00\n        /* \"#utility.yul\":888:908   */\n      tag_59\n        /* \"#utility.yul\":906:907   */\n      dup3\n        /* \"#utility.yul\":888:908   */\n      tag_42\n      jump\t// in\n    tag_59:\n        /* \"#utility.yul\":883:908   */\n      swap2\n      pop\n        /* \"#utility.yul\":922:942   */\n      tag_60\n        /* \"#utility.yul\":940:941   */\n      dup4\n        /* \"#utility.yul\":922:942   */\n      tag_42\n      jump\t// in\n    tag_60:\n        /* \"#utility.yul\":917:942   */\n      swap3\n      pop\n        /* \"#utility.yul\":977:978   */\n      dup3\n        /* \"#utility.yul\":974:975   */\n      dup3\n        /* \"#utility.yul\":970:979   */\n      mul\n        /* \"#utility.yul\":999:1029   */\n      tag_61\n        /* \"#utility.yul\":1017:1028   */\n      dup2\n        /* \"#utility.yul\":999:1029   */\n      tag_42\n      jump\t// in\n    tag_61:\n        /* \"#utility.yul\":988:1029   */\n      swap2\n      pop\n        /* \"#utility.yul\":1178:1179   */\n      dup3\n        /* \"#utility.yul\":1169:1176   */\n      dup3\n        /* \"#utility.yul\":1165:1180   */\n      div\n        /* \"#utility.yul\":1162:1163   */\n      dup5\n        /* \"#utility.yul\":1159:1181   */\n      eq\n        /* \"#utility.yul\":1139:1140   */\n      dup4\n        /* \"#utility.yul\":1132:1141   */\n      iszero\n        /* \"#utility.yul\":1112:1195   */\n      or\n        /* \"#utility.yul\":1089:1228   */\n      tag_62\n      jumpi\n        /* \"#utility.yul\":1208:1226   */\n      tag_63\n      tag_44\n      jump\t// in\n    tag_63:\n        /* \"#utility.yul\":1089:1228   */\n    tag_62:\n        /* \"#utility.yul\":873:1235   */\n      pop\n        /* \"#utility.yul\":825:1235   */\n      swap3\n      swap2\n      pop\n      pop\n      jump\t// out\n        /* \"#utility.yul\":1241:1421   */\n    tag_45:\n        /* \"#utility.yul\":1289:1366   */\n      0x4e487b7100000000000000000000000000000000000000000000000000000000\n        /* \"#utility.yul\":1286:1287   */\n      0x00\n        /* \"#utility.yul\":1279:1367   */\n      mstore\n        /* \"#utility.yul\":1386:1390   */\n      0x12\n        /* \"#utility.yul\":1383:1384   */\n      0x04\n        /* \"#utility.yul\":1376:1391   */\n      mstore\n        /* \"#utility.yul\":1410:1414   */\n      0x24\n        /* \"#utility.yul\":1407:1408   */\n      0x00\n        /* \"#utility.yul\":1400:1415   */\n      revert\n        /* \"#utility.yul\":1427:1612   */\n    tag_41:\n        /* \"#utility.yul\":1467:1468   */\n      0x00\n        /* \"#utility.yul\":1484:1504   */\n      tag_66\n        /* \"#utility.yul\":1502:1503   */\n      dup3\n        /* \"#utility.yul\":1484:1504   */\n      tag_42\n      jump\t// in\n    tag_66:\n        /* \"#utility.yul\":1479:1504   */\n      swap2\n      pop\n        /* \"#utility.yul\":1518:1538   */\n      tag_67\n        /* \"#utility.yul\":1536:1537   */\n      dup4\n        /* \"#utility.yul\":1518:1538   */\n      tag_42\n      jump\t// in\n    tag_67:\n        /* \"#utility.yul\":1513:1538   */\n      swap3\n      pop\n        /* \"#utility.yul\":1557:1558   */\n      dup3\n        /* \"#utility.yul\":1547:1582   */\n      tag_68\n      jumpi\n        /* \"#utility.yul\":1562:1580   */\n      tag_69\n      tag_45\n      jump\t// in\n    tag_69:\n        /* \"#utility.yul\":1547:1582   */\n    tag_68:\n        /* \"#utility.yul\":1604:1605   */\n      dup3\n        /* \"#utility.yul\":1601:1602   */\n      dup3\n        /* \"#utility.yul\":1597:1606   */\n      div\n        /* \"#utility.yul\":1592:1606   */\n      swap1\n      pop\n        /* \"#utility.yul\":1427:1612   */\n      swap3\n      swap2\n      pop\n      pop\n      jump\t// out\n\n    auxdata: 0xa2646970667358221220ffca188e31ba7bb69e8dd12b2f74cf7766af4a372564c1c8b92b0eb506fb951364736f6c634300081a0033\n}\n",
				"bytecode": {
					"linkReferences": {},
					"object": "608060405234801561000f575f80fd5b5060405161042f38038061042f83398181016040528101906100319190610094565b845f8190555083600181905550826002819055508160038190555080600481905550505050505061010b565b5f80fd5b5f819050919050565b61007381610061565b811461007d575f80fd5b50565b5f8151905061008e8161006a565b92915050565b5f805f805f60a086880312156100ad576100ac61005d565b5b5f6100ba88828901610080565b95505060206100cb88828901610080565b94505060406100dc88828901610080565b93505060606100ed88828901610080565b92505060806100fe88828901610080565b9150509295509295909350565b610317806101185f395ff3fe608060405234801561000f575f80fd5b506004361061007b575f3560e01c80637ebeb19c116100595780637ebeb19c146100d957806385be3e62146100f7578063e7bd19d914610115578063f69f485a146101335761007b565b80630ef267431461007f5780631cbe93f21461009d57806332e8be6b146100bb575b5f80fd5b610087610151565b60405161009491906101ca565b60405180910390f35b6100a5610157565b6040516100b291906101ca565b60405180910390f35b6100c361015d565b6040516100d091906101ca565b60405180910390f35b6100e1610163565b6040516100ee91906101ca565b60405180910390f35b6100ff610185565b60405161010c91906101ca565b60405180910390f35b61011d6101a7565b60405161012a91906101ca565b60405180910390f35b61013b6101ac565b60405161014891906101ca565b60405180910390f35b60035481565b60025481565b60015481565b5f6002546001545f546101769190610210565b6101809190610210565b905090565b5f60026003546004546101989190610243565b6101a291906102b1565b905090565b5f5481565b60045481565b5f819050919050565b6101c4816101b2565b82525050565b5f6020820190506101dd5f8301846101bb565b92915050565b7f4e487b71000000000000000000000000000000000000000000000000000000005f52601160045260245ffd5b5f61021a826101b2565b9150610225836101b2565b925082820190508082111561023d5761023c6101e3565b5b92915050565b5f61024d826101b2565b9150610258836101b2565b9250828202610266816101b2565b9150828204841483151761027d5761027c6101e3565b5b5092915050565b7f4e487b71000000000000000000000000000000000000000000000000000000005f52601260045260245ffd5b5f6102bb826101b2565b91506102c6836101b2565b9250826102d6576102d5610284565b5b82820490509291505056fea2646970667358221220ffca188e31ba7bb69e8dd12b2f74cf7766af4a372564c1c8b92b0eb506fb951364736f6c634300081a0033",
					"opcodes": "PUSH1 0x80 PUSH1 0x40 MSTORE CALLVALUE DUP1 ISZERO PUSH2 0xF JUMPI PUSH0 DUP1 REVERT JUMPDEST POP PUSH1 0x40 MLOAD PUSH2 0x42F CODESIZE SUB DUP1 PUSH2 0x42F DUP4 CODECOPY DUP2 DUP2 ADD PUSH1 0x40 MSTORE DUP2 ADD SWAP1 PUSH2 0x31 SWAP2 SWAP1 PUSH2 0x94 JUMP JUMPDEST DUP5 PUSH0 DUP2 SWAP1 SSTORE POP DUP4 PUSH1 0x1 DUP2 SWAP1 SSTORE POP DUP3 PUSH1 0x2 DUP2 SWAP1 SSTORE POP DUP2 PUSH1 0x3 DUP2 SWAP1 SSTORE POP DUP1 PUSH1 0x4 DUP2 SWAP1 SSTORE POP POP POP POP POP POP PUSH2 0x10B JUMP JUMPDEST PUSH0 DUP1 REVERT JUMPDEST PUSH0 DUP2 SWAP1 POP SWAP2 SWAP1 POP JUMP JUMPDEST PUSH2 0x73 DUP2 PUSH2 0x61 JUMP JUMPDEST DUP2 EQ PUSH2 0x7D JUMPI PUSH0 DUP1 REVERT JUMPDEST POP JUMP JUMPDEST PUSH0 DUP2 MLOAD SWAP1 POP PUSH2 0x8E DUP2 PUSH2 0x6A JUMP JUMPDEST SWAP3 SWAP2 POP POP JUMP JUMPDEST PUSH0 DUP1 PUSH0 DUP1 PUSH0 PUSH1 0xA0 DUP7 DUP9 SUB SLT ISZERO PUSH2 0xAD JUMPI PUSH2 0xAC PUSH2 0x5D JUMP JUMPDEST JUMPDEST PUSH0 PUSH2 0xBA DUP9 DUP3 DUP10 ADD PUSH2 0x80 JUMP JUMPDEST SWAP6 POP POP PUSH1 0x20 PUSH2 0xCB DUP9 DUP3 DUP10 ADD PUSH2 0x80 JUMP JUMPDEST SWAP5 POP POP PUSH1 0x40 PUSH2 0xDC DUP9 DUP3 DUP10 ADD PUSH2 0x80 JUMP JUMPDEST SWAP4 POP POP PUSH1 0x60 PUSH2 0xED DUP9 DUP3 DUP10 ADD PUSH2 0x80 JUMP JUMPDEST SWAP3 POP POP PUSH1 0x80 PUSH2 0xFE DUP9 DUP3 DUP10 ADD PUSH2 0x80 JUMP JUMPDEST SWAP2 POP POP SWAP3 SWAP6 POP SWAP3 SWAP6 SWAP1 SWAP4 POP JUMP JUMPDEST PUSH2 0x317 DUP1 PUSH2 0x118 PUSH0 CODECOPY PUSH0 RETURN INVALID PUSH1 0x80 PUSH1 0x40 MSTORE CALLVALUE DUP1 ISZERO PUSH2 0xF JUMPI PUSH0 DUP1 REVERT JUMPDEST POP PUSH1 0x4 CALLDATASIZE LT PUSH2 0x7B JUMPI PUSH0 CALLDATALOAD PUSH1 0xE0 SHR DUP1 PUSH4 0x7EBEB19C GT PUSH2 0x59 JUMPI DUP1 PUSH4 0x7EBEB19C EQ PUSH2 0xD9 JUMPI DUP1 PUSH4 0x85BE3E62 EQ PUSH2 0xF7 JUMPI DUP1 PUSH4 0xE7BD19D9 EQ PUSH2 0x115 JUMPI DUP1 PUSH4 0xF69F485A EQ PUSH2 0x133 JUMPI PUSH2 0x7B JUMP JUMPDEST DUP1 PUSH4 0xEF26743 EQ PUSH2 0x7F JUMPI DUP1 PUSH4 0x1CBE93F2 EQ PUSH2 0x9D JUMPI DUP1 PUSH4 0x32E8BE6B EQ PUSH2 0xBB JUMPI JUMPDEST PUSH0 DUP1 REVERT JUMPDEST PUSH2 0x87 PUSH2 0x151 JUMP JUMPDEST PUSH1 0x40 MLOAD PUSH2 0x94 SWAP2 SWAP1 PUSH2 0x1CA JUMP JUMPDEST PUSH1 0x40 MLOAD DUP1 SWAP2 SUB SWAP1 RETURN JUMPDEST PUSH2 0xA5 PUSH2 0x157 JUMP JUMPDEST PUSH1 0x40 MLOAD PUSH2 0xB2 SWAP2 SWAP1 PUSH2 0x1CA JUMP JUMPDEST PUSH1 0x40 MLOAD DUP1 SWAP2 SUB SWAP1 RETURN JUMPDEST PUSH2 0xC3 PUSH2 0x15D JUMP JUMPDEST PUSH1 0x40 MLOAD PUSH2 0xD0 SWAP2 SWAP1 PUSH2 0x1CA JUMP JUMPDEST PUSH1 0x40 MLOAD DUP1 SWAP2 SUB SWAP1 RETURN JUMPDEST PUSH2 0xE1 PUSH2 0x163 JUMP JUMPDEST PUSH1 0x40 MLOAD PUSH2 0xEE SWAP2 SWAP1 PUSH2 0x1CA JUMP JUMPDEST PUSH1 0x40 MLOAD DUP1 SWAP2 SUB SWAP1 RETURN JUMPDEST PUSH2 0xFF PUSH2 0x185 JUMP JUMPDEST PUSH1 0x40 MLOAD PUSH2 0x10C SWAP2 SWAP1 PUSH2 0x1CA JUMP JUMPDEST PUSH1 0x40 MLOAD DUP1 SWAP2 SUB SWAP1 RETURN JUMPDEST PUSH2 0x11D PUSH2 0x1A7 JUMP JUMPDEST PUSH1 0x40 MLOAD PUSH2 0x12A SWAP2 SWAP1 PUSH2 0x1CA JUMP JUMPDEST PUSH1 0x40 MLOAD DUP1 SWAP2 SUB SWAP1 RETURN JUMPDEST PUSH2 0x13B PUSH2 0x1AC JUMP JUMPDEST PUSH1 0x40 MLOAD PUSH2 0x148 SWAP2 SWAP1 PUSH2 0x1CA JUMP JUMPDEST PUSH1 0x40 MLOAD DUP1 SWAP2 SUB SWAP1 RETURN JUMPDEST PUSH1 0x3 SLOAD DUP2 JUMP JUMPDEST PUSH1 0x2 SLOAD DUP2 JUMP JUMPDEST PUSH1 0x1 SLOAD DUP2 JUMP JUMPDEST PUSH0 PUSH1 0x2 SLOAD PUSH1 0x1 SLOAD PUSH0 SLOAD PUSH2 0x176 SWAP2 SWAP1 PUSH2 0x210 JUMP JUMPDEST PUSH2 0x180 SWAP2 SWAP1 PUSH2 0x210 JUMP JUMPDEST SWAP1 POP SWAP1 JUMP JUMPDEST PUSH0 PUSH1 0x2 PUSH1 0x3 SLOAD PUSH1 0x4 SLOAD PUSH2 0x198 SWAP2 SWAP1 PUSH2 0x243 JUMP JUMPDEST PUSH2 0x1A2 SWAP2 SWAP1 PUSH2 0x2B1 JUMP JUMPDEST SWAP1 POP SWAP1 JUMP JUMPDEST PUSH0 SLOAD DUP2 JUMP JUMPDEST PUSH1 0x4 SLOAD DUP2 JUMP JUMPDEST PUSH0 DUP2 SWAP1 POP SWAP2 SWAP1 POP JUMP JUMPDEST PUSH2 0x1C4 DUP2 PUSH2 0x1B2 JUMP JUMPDEST DUP3 MSTORE POP POP JUMP JUMPDEST PUSH0 PUSH1 0x20 DUP3 ADD SWAP1 POP PUSH2 0x1DD PUSH0 DUP4 ADD DUP5 PUSH2 0x1BB JUMP JUMPDEST SWAP3 SWAP2 POP POP JUMP JUMPDEST PUSH32 0x4E487B7100000000000000000000000000000000000000000000000000000000 PUSH0 MSTORE PUSH1 0x11 PUSH1 0x4 MSTORE PUSH1 0x24 PUSH0 REVERT JUMPDEST PUSH0 PUSH2 0x21A DUP3 PUSH2 0x1B2 JUMP JUMPDEST SWAP2 POP PUSH2 0x225 DUP4 PUSH2 0x1B2 JUMP JUMPDEST SWAP3 POP DUP3 DUP3 ADD SWAP1 POP DUP1 DUP3 GT ISZERO PUSH2 0x23D JUMPI PUSH2 0x23C PUSH2 0x1E3 JUMP JUMPDEST JUMPDEST SWAP3 SWAP2 POP POP JUMP JUMPDEST PUSH0 PUSH2 0x24D DUP3 PUSH2 0x1B2 JUMP JUMPDEST SWAP2 POP PUSH2 0x258 DUP4 PUSH2 0x1B2 JUMP JUMPDEST SWAP3 POP DUP3 DUP3 MUL PUSH2 0x266 DUP2 PUSH2 0x1B2 JUMP JUMPDEST SWAP2 POP DUP3 DUP3 DIV DUP5 EQ DUP4 ISZERO OR PUSH2 0x27D JUMPI PUSH2 0x27C PUSH2 0x1E3 JUMP JUMPDEST JUMPDEST POP SWAP3 SWAP2 POP POP JUMP JUMPDEST PUSH32 0x4E487B7100000000000000000000000000000000000000000000000000000000 PUSH0 MSTORE PUSH1 0x12 PUSH1 0x4 MSTORE PUSH1 0x24 PUSH0 REVERT JUMPDEST PUSH0 PUSH2 0x2BB DUP3 PUSH2 0x1B2 JUMP JUMPDEST SWAP2 POP PUSH2 0x2C6 DUP4 PUSH2 0x1B2 JUMP JUMPDEST SWAP3 POP DUP3 PUSH2 0x2D6 JUMPI PUSH2 0x2D5 PUSH2 0x284 JUMP JUMPDEST JUMPDEST DUP3 DUP3 DIV SWAP1 POP SWAP3 SWAP2 POP POP JUMP INVALID LOG2 PUSH5 0x6970667358 0x22 SLT KECCAK256 SELFDESTRUCT 0xCA XOR DUP15 BALANCE 0xBA PUSH28 0xB69E8DD12B2F74CF7766AF4A372564C1C8B92B0EB506FB951364736F PUSH13 0x634300081A0033000000000000 "
				},
				"gasEstimates": {
					"creation": {
						"codeDepositCost": "158200",
						"executionCost": "infinite",
						"totalCost": "infinite"
					},
					"external": {
						"breadth()": "2491",
						"getArea()": "infinite",
						"getPerimeter()": "infinite",
						"height()": "2426",
						"side1()": "2468",
						"side2()": "2470",
						"side3()": "2448"
					}
				},
				"methodIdentifiers": {
					"breadth()": "f69f485a",
					"getArea()": "85be3e62",
					"getPerimeter()": "7ebeb19c",
					"height()": "0ef26743",
					"side1()": "e7bd19d9",
					"side2()": "32e8be6b",
					"side3()": "1cbe93f2"
				}
			},
			"storageLayout": {
				"storage": [
					{
						"astId": 120,
						"contract": "Practice/Day-06/P3.sol:Triangle",
						"label": "side1",
						"offset": 0,
						"slot": "0",
						"type": "t_uint256"
					},
					{
						"astId": 122,
						"contract": "Practice/Day-06/P3.sol:Triangle",
						"label": "side2",
						"offset": 0,
						"slot": "1",
						"type": "t_uint256"
					},
					{
						"astId": 124,
						"contract": "Practice/Day-06/P3.sol:Triangle",
						"label": "side3",
						"offset": 0,
						"slot": "2",
						"type": "t_uint256"
					},
					{
						"astId": 126,
						"contract": "Practice/Day-06/P3.sol:Triangle",
						"label": "height",
						"offset": 0,
						"slot": "3",
						"type": "t_uint256"
					},
					{
						"astId": 128,
						"contract": "Practice/Day-06/P3.sol:Triangle",
						"label": "breadth",
						"offset": 0,
						"slot": "4",
						"type": "t_uint256"
					}
				],
				"types": {
					"t_uint256": {
						"encoding": "inplace",
						"label": "uint256",
						"numberOfBytes": "32"
					}
				}
			},
			"userdoc": {
				"kind": "user",
				"methods": {},
				"version": 1
			}
		}
	}
}