{
	"data": {
		"bytecode": {
			"linkReferences": {
				"Day-06/D6P1.sol": {
					"MathLibrary": [
						{
							"length": 20,
							"start": 465
						},
						{
							"length": 20,
							"start": 1017
						},
						{
							"length": 20,
							"start": 1272
						},
						{
							"length": 20,
							"start": 1566
						},
						{
							"length": 20,
							"start": 1929
						},
						{
							"length": 20,
							"start": 2245
						}
					]
				}
			},
			"object": "608060405234801561001057600080fd5b50611c86806100206000396000f3fe608060405234801561001057600080fd5b506004361061007d5760003560e01c8063834db4211161005b578063834db421146101125780638c87bb0a14610142578063ce1b878414610172578063e65e87fb146101a25761007d565b806305d09ad714610082578063163b0e51146100b25780631abe5974146100e2575b600080fd5b61009c60048036038101906100979190610d53565b6101ac565b6040516100a99190610d9b565b60405180910390f35b6100cc60048036038101906100c79190610d53565b61038f565b6040516100d99190610dc5565b60405180910390f35b6100fc60048036038101906100f79190610de0565b6104d3565b6040516101099190610dc5565b60405180910390f35b61012c60048036038101906101279190610de0565b6105f9565b6040516101399190610dc5565b60405180910390f35b61015c60048036038101906101579190610d53565b61071f565b6040516101699190610dc5565b60405180910390f35b61018c60048036038101906101879190610d53565b61085b565b6040516101999190610ede565b60405180910390f35b6101aa6109a4565b005b60008073__$bf9e98ef61dd5c3ef45146736856a9c1d2$__63fe459d20846040518263ffffffff1660e01b81526004016101e69190610f0f565b602060405180830381865af4158015610203573d6000803e3d6000fd5b505050506040513d601f19601f820116820180604052508101906102279190610f56565b9050600060019050600184148061023e5750609984145b8061024a575061017284145b80610256575061017384145b80610262575061019784145b1561027657600115158215151490506102ad565b600a8414806102855750606484145b80610290575060c884145b8061029c57506101f484145b156102ac57600015158215151490505b5b7f8ded0018aee3555da4abd779e14b4af76bd1dd7caf6ac46b76386b28db137e4e816102d8866109f7565b84610318576040518060400160405280600581526020017f66616c736500000000000000000000000000000000000000000000000000000081525061034f565b6040518060400160405280600481526020017f74727565000000000000000000000000000000000000000000000000000000008152505b60405160200161036092919061108c565b60405160208183030381529060405260405161037d92919061116d565b60405180910390a18192505050919050565b600060148211156103d5576040517f08c379a00000000000000000000000000000000000000000000000000000000081526004016103cc90611222565b60405180910390fd5b600073__$bf9e98ef61dd5c3ef45146736856a9c1d2$__6383714834846040518263ffffffff1660e01b815260040161040e9190610f0f565b602060405180830381865af415801561042b573d6000803e3d6000fd5b505050506040513d601f19601f8201168201806040525081019061044f9190611257565b9050600061045d8483610b69565b90507f8ded0018aee3555da4abd779e14b4af76bd1dd7caf6ac46b76386b28db137e4e8161048a866109f7565b610493856109f7565b6040516020016104a49291906112d0565b6040516020818303038152906040526040516104c1929190611356565b60405180910390a18192505050919050565b60008073__$bf9e98ef61dd5c3ef45146736856a9c1d2$__637ae2b5c785856040518363ffffffff1660e01b815260040161050f929190611399565b602060405180830381865af415801561052c573d6000803e3d6000fd5b505050506040513d601f19601f820116820180604052508101906105509190611257565b9050600083851115801561056357508482145b806105785750848410801561057757508382145b5b90507f8ded0018aee3555da4abd779e14b4af76bd1dd7caf6ac46b76386b28db137e4e816105a5876109f7565b6105ae876109f7565b6105b7866109f7565b6040516020016105c99392919061145a565b6040516020818303038152906040526040516105e69291906114f8565b60405180910390a1819250505092915050565b60008073__$bf9e98ef61dd5c3ef45146736856a9c1d2$__636d5433e685856040518363ffffffff1660e01b8152600401610635929190611399565b602060405180830381865af4158015610652573d6000803e3d6000fd5b505050506040513d601f19601f820116820180604052508101906106769190611257565b9050600083851015801561068957508482145b8061069e5750848411801561069d57508382145b5b90507f8ded0018aee3555da4abd779e14b4af76bd1dd7caf6ac46b76386b28db137e4e816106cb876109f7565b6106d4876109f7565b6106dd866109f7565b6040516020016106ef93929190611587565b60405160208183030381529060405260405161070c929190611625565b60405180910390a1819250505092915050565b6000604e821115610765576040517f08c379a000000000000000000000000000000000000000000000000000000000815260040161075c90611222565b60405180910390fd5b600073__$bf9e98ef61dd5c3ef45146736856a9c1d2$__6361047ff4846040518263ffffffff1660e01b815260040161079e9190610f0f565b602060405180830381865af41580156107bb573d6000803e3d6000fd5b505050506040513d601f19601f820116820180604052508101906107df9190611257565b90506000600190507f8ded0018aee3555da4abd779e14b4af76bd1dd7caf6ac46b76386b28db137e4e81610812866109f7565b61081b856109f7565b60405160200161082c9291906116b4565b60405160208183030381529060405260405161084992919061173a565b60405180910390a18192505050919050565b6060604e8211156108a1576040517f08c379a000000000000000000000000000000000000000000000000000000000815260040161089890611222565b60405180910390fd5b600073__$bf9e98ef61dd5c3ef45146736856a9c1d2$__631b35b490846040518263ffffffff1660e01b81526004016108da9190610f0f565b600060405180830381865af41580156108f7573d6000803e3d6000fd5b505050506040513d6000823e3d601f19601f8201168201806040525081019061092091906118c5565b9050600061092d82610bc1565b90507f8ded0018aee3555da4abd779e14b4af76bd1dd7caf6ac46b76386b28db137e4e8161095a866109f7565b61096485516109f7565b6040516020016109759291906119a6565b604051602081830303815290604052604051610992929190611a2c565b60405180910390a18192505050919050565b6109b0602a60116105f9565b506109bd602a60116104d3565b506109c8600561038f565b506109d3600a61071f565b506109de600a61085b565b506109e960996101ac565b506109f4609a6101ac565b50565b606060008203610a3e576040518060400160405280600181526020017f30000000000000000000000000000000000000000000000000000000000000008152509050610b64565b600082905060005b60008214610a70578080610a5990611a9e565b915050600a82610a699190611b15565b9150610a46565b60008167ffffffffffffffff811115610a8c57610a8b611782565b5b6040519080825280601f01601f191660200182016040528015610abe5781602001600182028036833780820191505090505b50905060008290505b60008614610b5c57600181610adc9190611b46565b90506000600a87610aed9190611b7a565b6030610af99190611bab565b905060008160f81b905080848481518110610b1757610b16611bdf565b5b60200101907effffffffffffffffffffffffffffffffffffffffffffffffffffffffffffff1916908160001a905350600a88610b539190611b15565b97505050610ac7565b819450505050505b919050565b600060018311610b7e57600182149050610bbb565b6000600190506000600290505b848111610bb3578082610b9e9190611c0e565b91508080610bab90611a9e565b915050610b8b565b508281149150505b92915050565b600080825103610bd45760019050610d04565b6001825103610c0357600082600081518110610bf357610bf2611bdf565b5b6020026020010151149050610d04565b6002825103610c5957600082600081518110610c2257610c21611bdf565b5b6020026020010151148015610c525750600182600181518110610c4857610c47611bdf565b5b6020026020010151145b9050610d04565b6000600290505b8251811015610cfe5782600282610c779190611b46565b81518110610c8857610c87611bdf565b5b602002602001015183600183610c9e9190611b46565b81518110610caf57610cae611bdf565b5b6020026020010151610cc19190611bab565b838281518110610cd457610cd3611bdf565b5b602002602001015114610ceb576000915050610d04565b8080610cf690611a9e565b915050610c60565b50600190505b919050565b6000604051905090565b600080fd5b600080fd5b6000819050919050565b610d3081610d1d565b8114610d3b57600080fd5b50565b600081359050610d4d81610d27565b92915050565b600060208284031215610d6957610d68610d13565b5b6000610d7784828501610d3e565b91505092915050565b60008115159050919050565b610d9581610d80565b82525050565b6000602082019050610db06000830184610d8c565b92915050565b610dbf81610d1d565b82525050565b6000602082019050610dda6000830184610db6565b92915050565b60008060408385031215610df757610df6610d13565b5b6000610e0585828601610d3e565b9250506020610e1685828601610d3e565b9150509250929050565b600081519050919050565b600082825260208201905092915050565b6000819050602082019050919050565b610e5581610d1d565b82525050565b6000610e678383610e4c565b60208301905092915050565b6000602082019050919050565b6000610e8b82610e20565b610e958185610e2b565b9350610ea083610e3c565b8060005b83811015610ed1578151610eb88882610e5b565b9750610ec383610e73565b925050600181019050610ea4565b5085935050505092915050565b60006020820190508181036000830152610ef88184610e80565b905092915050565b610f0981610d1d565b82525050565b6000602082019050610f246000830184610f00565b92915050565b610f3381610d80565b8114610f3e57600080fd5b50565b600081519050610f5081610f2a565b92915050565b600060208284031215610f6c57610f6b610d13565b5b6000610f7a84828501610f41565b91505092915050565b600081905092915050565b7f697341726d7374726f6e67280000000000000000000000000000000000000000600082015250565b6000610fc4600c83610f83565b9150610fcf82610f8e565b600c82019050919050565b600081519050919050565b60005b83811015611003578082015181840152602081019050610fe8565b60008484015250505050565b600061101a82610fda565b6110248185610f83565b9350611034818560208601610fe5565b80840191505092915050565b7f29203d2000000000000000000000000000000000000000000000000000000000600082015250565b6000611076600483610f83565b915061108182611040565b600482019050919050565b600061109782610fb7565b91506110a3828561100f565b91506110ae82611069565b91506110ba828461100f565b91508190509392505050565b600082825260208201905092915050565b7f49732041726d7374726f6e670000000000000000000000000000000000000000600082015250565b600061110d600c836110c6565b9150611118826110d7565b602082019050919050565b6000601f19601f8301169050919050565b600061113f82610fda565b61114981856110c6565b9350611159818560208601610fe5565b61116281611123565b840191505092915050565b6000606082019050818103600083015261118681611100565b90506111956020830185610d8c565b81810360408301526111a78184611134565b90509392505050565b7f496e70757420746f6f206c617267652c20776f756c64206361757365206f766560008201527f72666c6f77000000000000000000000000000000000000000000000000000000602082015250565b600061120c6025836110c6565b9150611217826111b0565b604082019050919050565b6000602082019050818103600083015261123b816111ff565b9050919050565b60008151905061125181610d27565b92915050565b60006020828403121561126d5761126c610d13565b5b600061127b84828501611242565b91505092915050565b7f666163746f7269616c2800000000000000000000000000000000000000000000600082015250565b60006112ba600a83610f83565b91506112c582611284565b600a82019050919050565b60006112db826112ad565b91506112e7828561100f565b91506112f282611069565b91506112fe828461100f565b91508190509392505050565b7f466163746f7269616c0000000000000000000000000000000000000000000000600082015250565b60006113406009836110c6565b915061134b8261130a565b602082019050919050565b6000606082019050818103600083015261136f81611333565b905061137e6020830185610d8c565b81810360408301526113908184611134565b90509392505050565b60006040820190506113ae6000830185610f00565b6113bb6020830184610f00565b9392505050565b7f6d696e2800000000000000000000000000000000000000000000000000000000600082015250565b60006113f8600483610f83565b9150611403826113c2565b600482019050919050565b7f2c20000000000000000000000000000000000000000000000000000000000000600082015250565b6000611444600283610f83565b915061144f8261140e565b600282019050919050565b6000611465826113eb565b9150611471828661100f565b915061147c82611437565b9150611488828561100f565b915061149382611069565b915061149f828461100f565b9150819050949350505050565b7f4d696e696d756d00000000000000000000000000000000000000000000000000600082015250565b60006114e26007836110c6565b91506114ed826114ac565b602082019050919050565b60006060820190508181036000830152611511816114d5565b90506115206020830185610d8c565b81810360408301526115328184611134565b90509392505050565b7f6d61782800000000000000000000000000000000000000000000000000000000600082015250565b6000611571600483610f83565b915061157c8261153b565b600482019050919050565b600061159282611564565b915061159e828661100f565b91506115a982611437565b91506115b5828561100f565b91506115c082611069565b91506115cc828461100f565b9150819050949350505050565b7f4d6178696d756d00000000000000000000000000000000000000000000000000600082015250565b600061160f6007836110c6565b915061161a826115d9565b602082019050919050565b6000606082019050818103600083015261163e81611602565b905061164d6020830185610d8c565b818103604083015261165f8184611134565b90509392505050565b7f6669626f6e616363692800000000000000000000000000000000000000000000600082015250565b600061169e600a83610f83565b91506116a982611668565b600a82019050919050565b60006116bf82611691565b91506116cb828561100f565b91506116d682611069565b91506116e2828461100f565b91508190509392505050565b7f4669626f6e616363690000000000000000000000000000000000000000000000600082015250565b60006117246009836110c6565b915061172f826116ee565b602082019050919050565b6000606082019050818103600083015261175381611717565b90506117626020830185610d8c565b81810360408301526117748184611134565b90509392505050565b600080fd5b7f4e487b7100000000000000000000000000000000000000000000000000000000600052604160045260246000fd5b6117ba82611123565b810181811067ffffffffffffffff821117156117d9576117d8611782565b5b80604052505050565b60006117ec610d09565b90506117f882826117b1565b919050565b600067ffffffffffffffff82111561181857611817611782565b5b602082029050602081019050919050565b600080fd5b600061184161183c846117fd565b6117e2565b9050808382526020820190506020840283018581111561186457611863611829565b5b835b8181101561188d57806118798882611242565b845260208401935050602081019050611866565b5050509392505050565b600082601f8301126118ac576118ab61177d565b5b81516118bc84826020860161182e565b91505092915050565b6000602082840312156118db576118da610d13565b5b600082015167ffffffffffffffff8111156118f9576118f8610d18565b5b61190584828501611897565b91505092915050565b7f6669626f6e616363695365726965732800000000000000000000000000000000600082015250565b6000611944601083610f83565b915061194f8261190e565b601082019050919050565b7f29206c656e677468203d20000000000000000000000000000000000000000000600082015250565b6000611990600b83610f83565b915061199b8261195a565b600b82019050919050565b60006119b182611937565b91506119bd828561100f565b91506119c882611983565b91506119d4828461100f565b91508190509392505050565b7f4669626f6e616363692053657269657300000000000000000000000000000000600082015250565b6000611a166010836110c6565b9150611a21826119e0565b602082019050919050565b60006060820190508181036000830152611a4581611a09565b9050611a546020830185610d8c565b8181036040830152611a668184611134565b90509392505050565b7f4e487b7100000000000000000000000000000000000000000000000000000000600052601160045260246000fd5b6000611aa982610d1d565b91507fffffffffffffffffffffffffffffffffffffffffffffffffffffffffffffffff8203611adb57611ada611a6f565b5b600182019050919050565b7f4e487b7100000000000000000000000000000000000000000000000000000000600052601260045260246000fd5b6000611b2082610d1d565b9150611b2b83610d1d565b925082611b3b57611b3a611ae6565b5b828204905092915050565b6000611b5182610d1d565b9150611b5c83610d1d565b9250828203905081811115611b7457611b73611a6f565b5b92915050565b6000611b8582610d1d565b9150611b9083610d1d565b925082611ba057611b9f611ae6565b5b828206905092915050565b6000611bb682610d1d565b9150611bc183610d1d565b9250828201905080821115611bd957611bd8611a6f565b5b92915050565b7f4e487b7100000000000000000000000000000000000000000000000000000000600052603260045260246000fd5b6000611c1982610d1d565b9150611c2483610d1d565b9250828202611c3281610d1d565b91508282048414831517611c4957611c48611a6f565b5b509291505056fea26469706673582212200d4f3881c0041f86782b5bc2285f209b475e238ce1edb7adc2c595ee6c2642fc64736f6c63430008120033",
			"opcodes": "PUSH1 0x80 PUSH1 0x40 MSTORE CALLVALUE DUP1 ISZERO PUSH2 0x10 JUMPI PUSH1 0x0 DUP1 REVERT JUMPDEST POP PUSH2 0x1C86 DUP1 PUSH2 0x20 PUSH1 0x0 CODECOPY PUSH1 0x0 RETURN INVALID PUSH1 0x80 PUSH1 0x40 MSTORE CALLVALUE DUP1 ISZERO PUSH2 0x10 JUMPI PUSH1 0x0 DUP1 REVERT JUMPDEST POP PUSH1 0x4 CALLDATASIZE LT PUSH2 0x7D JUMPI PUSH1 0x0 CALLDATALOAD PUSH1 0xE0 SHR DUP1 PUSH4 0x834DB421 GT PUSH2 0x5B JUMPI DUP1 PUSH4 0x834DB421 EQ PUSH2 0x112 JUMPI DUP1 PUSH4 0x8C87BB0A EQ PUSH2 0x142 JUMPI DUP1 PUSH4 0xCE1B8784 EQ PUSH2 0x172 JUMPI DUP1 PUSH4 0xE65E87FB EQ PUSH2 0x1A2 JUMPI PUSH2 0x7D JUMP JUMPDEST DUP1 PUSH4 0x5D09AD7 EQ PUSH2 0x82 JUMPI DUP1 PUSH4 0x163B0E51 EQ PUSH2 0xB2 JUMPI DUP1 PUSH4 0x1ABE5974 EQ PUSH2 0xE2 JUMPI JUMPDEST PUSH1 0x0 DUP1 REVERT JUMPDEST PUSH2 0x9C PUSH1 0x4 DUP1 CALLDATASIZE SUB DUP2 ADD SWAP1 PUSH2 0x97 SWAP2 SWAP1 PUSH2 0xD53 JUMP JUMPDEST PUSH2 0x1AC JUMP JUMPDEST PUSH1 0x40 MLOAD PUSH2 0xA9 SWAP2 SWAP1 PUSH2 0xD9B JUMP JUMPDEST PUSH1 0x40 MLOAD DUP1 SWAP2 SUB SWAP1 RETURN JUMPDEST PUSH2 0xCC PUSH1 0x4 DUP1 CALLDATASIZE SUB DUP2 ADD SWAP1 PUSH2 0xC7 SWAP2 SWAP1 PUSH2 0xD53 JUMP JUMPDEST PUSH2 0x38F JUMP JUMPDEST PUSH1 0x40 MLOAD PUSH2 0xD9 SWAP2 SWAP1 PUSH2 0xDC5 JUMP JUMPDEST PUSH1 0x40 MLOAD DUP1 SWAP2 SUB SWAP1 RETURN JUMPDEST PUSH2 0xFC PUSH1 0x4 DUP1 CALLDATASIZE SUB DUP2 ADD SWAP1 PUSH2 0xF7 SWAP2 SWAP1 PUSH2 0xDE0 JUMP JUMPDEST PUSH2 0x4D3 JUMP JUMPDEST PUSH1 0x40 MLOAD PUSH2 0x109 SWAP2 SWAP1 PUSH2 0xDC5 JUMP JUMPDEST PUSH1 0x40 MLOAD DUP1 SWAP2 SUB SWAP1 RETURN JUMPDEST PUSH2 0x12C PUSH1 0x4 DUP1 CALLDATASIZE SUB DUP2 ADD SWAP1 PUSH2 0x127 SWAP2 SWAP1 PUSH2 0xDE0 JUMP JUMPDEST PUSH2 0x5F9 JUMP JUMPDEST PUSH1 0x40 MLOAD PUSH2 0x139 SWAP2 SWAP1 PUSH2 0xDC5 JUMP JUMPDEST PUSH1 0x40 MLOAD DUP1 SWAP2 SUB SWAP1 RETURN JUMPDEST PUSH2 0x15C PUSH1 0x4 DUP1 CALLDATASIZE SUB DUP2 ADD SWAP1 PUSH2 0x157 SWAP2 SWAP1 PUSH2 0xD53 JUMP JUMPDEST PUSH2 0x71F JUMP JUMPDEST PUSH1 0x40 MLOAD PUSH2 0x169 SWAP2 SWAP1 PUSH2 0xDC5 JUMP JUMPDEST PUSH1 0x40 MLOAD DUP1 SWAP2 SUB SWAP1 RETURN JUMPDEST PUSH2 0x18C PUSH1 0x4 DUP1 CALLDATASIZE SUB DUP2 ADD SWAP1 PUSH2 0x187 SWAP2 SWAP1 PUSH2 0xD53 JUMP JUMPDEST PUSH2 0x85B JUMP JUMPDEST PUSH1 0x40 MLOAD PUSH2 0x199 SWAP2 SWAP1 PUSH2 0xEDE JUMP JUMPDEST PUSH1 0x40 MLOAD DUP1 SWAP2 SUB SWAP1 RETURN JUMPDEST PUSH2 0x1AA PUSH2 0x9A4 JUMP JUMPDEST STOP JUMPDEST PUSH1 0x0 DUP1 PUSH20 0x0 PUSH4 0xFE459D20 DUP5 PUSH1 0x40 MLOAD DUP3 PUSH4 0xFFFFFFFF AND PUSH1 0xE0 SHL DUP2 MSTORE PUSH1 0x4 ADD PUSH2 0x1E6 SWAP2 SWAP1 PUSH2 0xF0F JUMP JUMPDEST PUSH1 0x20 PUSH1 0x40 MLOAD DUP1 DUP4 SUB DUP2 DUP7 GAS DELEGATECALL ISZERO DUP1 ISZERO PUSH2 0x203 JUMPI RETURNDATASIZE PUSH1 0x0 DUP1 RETURNDATACOPY RETURNDATASIZE PUSH1 0x0 REVERT JUMPDEST POP POP POP POP PUSH1 0x40 MLOAD RETURNDATASIZE PUSH1 0x1F NOT PUSH1 0x1F DUP3 ADD AND DUP3 ADD DUP1 PUSH1 0x40 MSTORE POP DUP2 ADD SWAP1 PUSH2 0x227 SWAP2 SWAP1 PUSH2 0xF56 JUMP JUMPDEST SWAP1 POP PUSH1 0x0 PUSH1 0x1 SWAP1 POP PUSH1 0x1 DUP5 EQ DUP1 PUSH2 0x23E JUMPI POP PUSH1 0x99 DUP5 EQ JUMPDEST DUP1 PUSH2 0x24A JUMPI POP PUSH2 0x172 DUP5 EQ JUMPDEST DUP1 PUSH2 0x256 JUMPI POP PUSH2 0x173 DUP5 EQ JUMPDEST DUP1 PUSH2 0x262 JUMPI POP PUSH2 0x197 DUP5 EQ JUMPDEST ISZERO PUSH2 0x276 JUMPI PUSH1 0x1 ISZERO ISZERO DUP3 ISZERO ISZERO EQ SWAP1 POP PUSH2 0x2AD JUMP JUMPDEST PUSH1 0xA DUP5 EQ DUP1 PUSH2 0x285 JUMPI POP PUSH1 0x64 DUP5 EQ JUMPDEST DUP1 PUSH2 0x290 JUMPI POP PUSH1 0xC8 DUP5 EQ JUMPDEST DUP1 PUSH2 0x29C JUMPI POP PUSH2 0x1F4 DUP5 EQ JUMPDEST ISZERO PUSH2 0x2AC JUMPI PUSH1 0x0 ISZERO ISZERO DUP3 ISZERO ISZERO EQ SWAP1 POP JUMPDEST JUMPDEST PUSH32 0x8DED0018AEE3555DA4ABD779E14B4AF76BD1DD7CAF6AC46B76386B28DB137E4E DUP2 PUSH2 0x2D8 DUP7 PUSH2 0x9F7 JUMP JUMPDEST DUP5 PUSH2 0x318 JUMPI PUSH1 0x40 MLOAD DUP1 PUSH1 0x40 ADD PUSH1 0x40 MSTORE DUP1 PUSH1 0x5 DUP2 MSTORE PUSH1 0x20 ADD PUSH32 0x66616C7365000000000000000000000000000000000000000000000000000000 DUP2 MSTORE POP PUSH2 0x34F JUMP JUMPDEST PUSH1 0x40 MLOAD DUP1 PUSH1 0x40 ADD PUSH1 0x40 MSTORE DUP1 PUSH1 0x4 DUP2 MSTORE PUSH1 0x20 ADD PUSH32 0x7472756500000000000000000000000000000000000000000000000000000000 DUP2 MSTORE POP JUMPDEST PUSH1 0x40 MLOAD PUSH1 0x20 ADD PUSH2 0x360 SWAP3 SWAP2 SWAP1 PUSH2 0x108C JUMP JUMPDEST PUSH1 0x40 MLOAD PUSH1 0x20 DUP2 DUP4 SUB SUB DUP2 MSTORE SWAP1 PUSH1 0x40 MSTORE PUSH1 0x40 MLOAD PUSH2 0x37D SWAP3 SWAP2 SWAP1 PUSH2 0x116D JUMP JUMPDEST PUSH1 0x40 MLOAD DUP1 SWAP2 SUB SWAP1 LOG1 DUP2 SWAP3 POP POP POP SWAP2 SWAP1 POP JUMP JUMPDEST PUSH1 0x0 PUSH1 0x14 DUP3 GT ISZERO PUSH2 0x3D5 JUMPI PUSH1 0x40 MLOAD PUSH32 0x8C379A000000000000000000000000000000000000000000000000000000000 DUP2 MSTORE PUSH1 0x4 ADD PUSH2 0x3CC SWAP1 PUSH2 0x1222 JUMP JUMPDEST PUSH1 0x40 MLOAD DUP1 SWAP2 SUB SWAP1 REVERT JUMPDEST PUSH1 0x0 PUSH20 0x0 PUSH4 0x83714834 DUP5 PUSH1 0x40 MLOAD DUP3 PUSH4 0xFFFFFFFF AND PUSH1 0xE0 SHL DUP2 MSTORE PUSH1 0x4 ADD PUSH2 0x40E SWAP2 SWAP1 PUSH2 0xF0F JUMP JUMPDEST PUSH1 0x20 PUSH1 0x40 MLOAD DUP1 DUP4 SUB DUP2 DUP7 GAS DELEGATECALL ISZERO DUP1 ISZERO PUSH2 0x42B JUMPI RETURNDATASIZE PUSH1 0x0 DUP1 RETURNDATACOPY RETURNDATASIZE PUSH1 0x0 REVERT JUMPDEST POP POP POP POP PUSH1 0x40 MLOAD RETURNDATASIZE PUSH1 0x1F NOT PUSH1 0x1F DUP3 ADD AND DUP3 ADD DUP1 PUSH1 0x40 MSTORE POP DUP2 ADD SWAP1 PUSH2 0x44F SWAP2 SWAP1 PUSH2 0x1257 JUMP JUMPDEST SWAP1 POP PUSH1 0x0 PUSH2 0x45D DUP5 DUP4 PUSH2 0xB69 JUMP JUMPDEST SWAP1 POP PUSH32 0x8DED0018AEE3555DA4ABD779E14B4AF76BD1DD7CAF6AC46B76386B28DB137E4E DUP2 PUSH2 0x48A DUP7 PUSH2 0x9F7 JUMP JUMPDEST PUSH2 0x493 DUP6 PUSH2 0x9F7 JUMP JUMPDEST PUSH1 0x40 MLOAD PUSH1 0x20 ADD PUSH2 0x4A4 SWAP3 SWAP2 SWAP1 PUSH2 0x12D0 JUMP JUMPDEST PUSH1 0x40 MLOAD PUSH1 0x20 DUP2 DUP4 SUB SUB DUP2 MSTORE SWAP1 PUSH1 0x40 MSTORE PUSH1 0x40 MLOAD PUSH2 0x4C1 SWAP3 SWAP2 SWAP1 PUSH2 0x1356 JUMP JUMPDEST PUSH1 0x40 MLOAD DUP1 SWAP2 SUB SWAP1 LOG1 DUP2 SWAP3 POP POP POP SWAP2 SWAP1 POP JUMP JUMPDEST PUSH1 0x0 DUP1 PUSH20 0x0 PUSH4 0x7AE2B5C7 DUP6 DUP6 PUSH1 0x40 MLOAD DUP4 PUSH4 0xFFFFFFFF AND PUSH1 0xE0 SHL DUP2 MSTORE PUSH1 0x4 ADD PUSH2 0x50F SWAP3 SWAP2 SWAP1 PUSH2 0x1399 JUMP JUMPDEST PUSH1 0x20 PUSH1 0x40 MLOAD DUP1 DUP4 SUB DUP2 DUP7 GAS DELEGATECALL ISZERO DUP1 ISZERO PUSH2 0x52C JUMPI RETURNDATASIZE PUSH1 0x0 DUP1 RETURNDATACOPY RETURNDATASIZE PUSH1 0x0 REVERT JUMPDEST POP POP POP POP PUSH1 0x40 MLOAD RETURNDATASIZE PUSH1 0x1F NOT PUSH1 0x1F DUP3 ADD AND DUP3 ADD DUP1 PUSH1 0x40 MSTORE POP DUP2 ADD SWAP1 PUSH2 0x550 SWAP2 SWAP1 PUSH2 0x1257 JUMP JUMPDEST SWAP1 POP PUSH1 0x0 DUP4 DUP6 GT ISZERO DUP1 ISZERO PUSH2 0x563 JUMPI POP DUP5 DUP3 EQ JUMPDEST DUP1 PUSH2 0x578 JUMPI POP DUP5 DUP5 LT DUP1 ISZERO PUSH2 0x577 JUMPI POP DUP4 DUP3 EQ JUMPDEST JUMPDEST SWAP1 POP PUSH32 0x8DED0018AEE3555DA4ABD779E14B4AF76BD1DD7CAF6AC46B76386B28DB137E4E DUP2 PUSH2 0x5A5 DUP8 PUSH2 0x9F7 JUMP JUMPDEST PUSH2 0x5AE DUP8 PUSH2 0x9F7 JUMP JUMPDEST PUSH2 0x5B7 DUP7 PUSH2 0x9F7 JUMP JUMPDEST PUSH1 0x40 MLOAD PUSH1 0x20 ADD PUSH2 0x5C9 SWAP4 SWAP3 SWAP2 SWAP1 PUSH2 0x145A JUMP JUMPDEST PUSH1 0x40 MLOAD PUSH1 0x20 DUP2 DUP4 SUB SUB DUP2 MSTORE SWAP1 PUSH1 0x40 MSTORE PUSH1 0x40 MLOAD PUSH2 0x5E6 SWAP3 SWAP2 SWAP1 PUSH2 0x14F8 JUMP JUMPDEST PUSH1 0x40 MLOAD DUP1 SWAP2 SUB SWAP1 LOG1 DUP2 SWAP3 POP POP POP SWAP3 SWAP2 POP POP JUMP JUMPDEST PUSH1 0x0 DUP1 PUSH20 0x0 PUSH4 0x6D5433E6 DUP6 DUP6 PUSH1 0x40 MLOAD DUP4 PUSH4 0xFFFFFFFF AND PUSH1 0xE0 SHL DUP2 MSTORE PUSH1 0x4 ADD PUSH2 0x635 SWAP3 SWAP2 SWAP1 PUSH2 0x1399 JUMP JUMPDEST PUSH1 0x20 PUSH1 0x40 MLOAD DUP1 DUP4 SUB DUP2 DUP7 GAS DELEGATECALL ISZERO DUP1 ISZERO PUSH2 0x652 JUMPI RETURNDATASIZE PUSH1 0x0 DUP1 RETURNDATACOPY RETURNDATASIZE PUSH1 0x0 REVERT JUMPDEST POP POP POP POP PUSH1 0x40 MLOAD RETURNDATASIZE PUSH1 0x1F NOT PUSH1 0x1F DUP3 ADD AND DUP3 ADD DUP1 PUSH1 0x40 MSTORE POP DUP2 ADD SWAP1 PUSH2 0x676 SWAP2 SWAP1 PUSH2 0x1257 JUMP JUMPDEST SWAP1 POP PUSH1 0x0 DUP4 DUP6 LT ISZERO DUP1 ISZERO PUSH2 0x689 JUMPI POP DUP5 DUP3 EQ JUMPDEST DUP1 PUSH2 0x69E JUMPI POP DUP5 DUP5 GT DUP1 ISZERO PUSH2 0x69D JUMPI POP DUP4 DUP3 EQ JUMPDEST JUMPDEST SWAP1 POP PUSH32 0x8DED0018AEE3555DA4ABD779E14B4AF76BD1DD7CAF6AC46B76386B28DB137E4E DUP2 PUSH2 0x6CB DUP8 PUSH2 0x9F7 JUMP JUMPDEST PUSH2 0x6D4 DUP8 PUSH2 0x9F7 JUMP JUMPDEST PUSH2 0x6DD DUP7 PUSH2 0x9F7 JUMP JUMPDEST PUSH1 0x40 MLOAD PUSH1 0x20 ADD PUSH2 0x6EF SWAP4 SWAP3 SWAP2 SWAP1 PUSH2 0x1587 JUMP JUMPDEST PUSH1 0x40 MLOAD PUSH1 0x20 DUP2 DUP4 SUB SUB DUP2 MSTORE SWAP1 PUSH1 0x40 MSTORE PUSH1 0x40 MLOAD PUSH2 0x70C SWAP3 SWAP2 SWAP1 PUSH2 0x1625 JUMP JUMPDEST PUSH1 0x40 MLOAD DUP1 SWAP2 SUB SWAP1 LOG1 DUP2 SWAP3 POP POP POP SWAP3 SWAP2 POP POP JUMP JUMPDEST PUSH1 0x0 PUSH1 0x4E DUP3 GT ISZERO PUSH2 0x765 JUMPI PUSH1 0x40 MLOAD PUSH32 0x8C379A000000000000000000000000000000000000000000000000000000000 DUP2 MSTORE PUSH1 0x4 ADD PUSH2 0x75C SWAP1 PUSH2 0x1222 JUMP JUMPDEST PUSH1 0x40 MLOAD DUP1 SWAP2 SUB SWAP1 REVERT JUMPDEST PUSH1 0x0 PUSH20 0x0 PUSH4 0x61047FF4 DUP5 PUSH1 0x40 MLOAD DUP3 PUSH4 0xFFFFFFFF AND PUSH1 0xE0 SHL DUP2 MSTORE PUSH1 0x4 ADD PUSH2 0x79E SWAP2 SWAP1 PUSH2 0xF0F JUMP JUMPDEST PUSH1 0x20 PUSH1 0x40 MLOAD DUP1 DUP4 SUB DUP2 DUP7 GAS DELEGATECALL ISZERO DUP1 ISZERO PUSH2 0x7BB JUMPI RETURNDATASIZE PUSH1 0x0 DUP1 RETURNDATACOPY RETURNDATASIZE PUSH1 0x0 REVERT JUMPDEST POP POP POP POP PUSH1 0x40 MLOAD RETURNDATASIZE PUSH1 0x1F NOT PUSH1 0x1F DUP3 ADD AND DUP3 ADD DUP1 PUSH1 0x40 MSTORE POP DUP2 ADD SWAP1 PUSH2 0x7DF SWAP2 SWAP1 PUSH2 0x1257 JUMP JUMPDEST SWAP1 POP PUSH1 0x0 PUSH1 0x1 SWAP1 POP PUSH32 0x8DED0018AEE3555DA4ABD779E14B4AF76BD1DD7CAF6AC46B76386B28DB137E4E DUP2 PUSH2 0x812 DUP7 PUSH2 0x9F7 JUMP JUMPDEST PUSH2 0x81B DUP6 PUSH2 0x9F7 JUMP JUMPDEST PUSH1 0x40 MLOAD PUSH1 0x20 ADD PUSH2 0x82C SWAP3 SWAP2 SWAP1 PUSH2 0x16B4 JUMP JUMPDEST PUSH1 0x40 MLOAD PUSH1 0x20 DUP2 DUP4 SUB SUB DUP2 MSTORE SWAP1 PUSH1 0x40 MSTORE PUSH1 0x40 MLOAD PUSH2 0x849 SWAP3 SWAP2 SWAP1 PUSH2 0x173A JUMP JUMPDEST PUSH1 0x40 MLOAD DUP1 SWAP2 SUB SWAP1 LOG1 DUP2 SWAP3 POP POP POP SWAP2 SWAP1 POP JUMP JUMPDEST PUSH1 0x60 PUSH1 0x4E DUP3 GT ISZERO PUSH2 0x8A1 JUMPI PUSH1 0x40 MLOAD PUSH32 0x8C379A000000000000000000000000000000000000000000000000000000000 DUP2 MSTORE PUSH1 0x4 ADD PUSH2 0x898 SWAP1 PUSH2 0x1222 JUMP JUMPDEST PUSH1 0x40 MLOAD DUP1 SWAP2 SUB SWAP1 REVERT JUMPDEST PUSH1 0x0 PUSH20 0x0 PUSH4 0x1B35B490 DUP5 PUSH1 0x40 MLOAD DUP3 PUSH4 0xFFFFFFFF AND PUSH1 0xE0 SHL DUP2 MSTORE PUSH1 0x4 ADD PUSH2 0x8DA SWAP2 SWAP1 PUSH2 0xF0F JUMP JUMPDEST PUSH1 0x0 PUSH1 0x40 MLOAD DUP1 DUP4 SUB DUP2 DUP7 GAS DELEGATECALL ISZERO DUP1 ISZERO PUSH2 0x8F7 JUMPI RETURNDATASIZE PUSH1 0x0 DUP1 RETURNDATACOPY RETURNDATASIZE PUSH1 0x0 REVERT JUMPDEST POP POP POP POP PUSH1 0x40 MLOAD RETURNDATASIZE PUSH1 0x0 DUP3 RETURNDATACOPY RETURNDATASIZE PUSH1 0x1F NOT PUSH1 0x1F DUP3 ADD AND DUP3 ADD DUP1 PUSH1 0x40 MSTORE POP DUP2 ADD SWAP1 PUSH2 0x920 SWAP2 SWAP1 PUSH2 0x18C5 JUMP JUMPDEST SWAP1 POP PUSH1 0x0 PUSH2 0x92D DUP3 PUSH2 0xBC1 JUMP JUMPDEST SWAP1 POP PUSH32 0x8DED0018AEE3555DA4ABD779E14B4AF76BD1DD7CAF6AC46B76386B28DB137E4E DUP2 PUSH2 0x95A DUP7 PUSH2 0x9F7 JUMP JUMPDEST PUSH2 0x964 DUP6 MLOAD PUSH2 0x9F7 JUMP JUMPDEST PUSH1 0x40 MLOAD PUSH1 0x20 ADD PUSH2 0x975 SWAP3 SWAP2 SWAP1 PUSH2 0x19A6 JUMP JUMPDEST PUSH1 0x40 MLOAD PUSH1 0x20 DUP2 DUP4 SUB SUB DUP2 MSTORE SWAP1 PUSH1 0x40 MSTORE PUSH1 0x40 MLOAD PUSH2 0x992 SWAP3 SWAP2 SWAP1 PUSH2 0x1A2C JUMP JUMPDEST PUSH1 0x40 MLOAD DUP1 SWAP2 SUB SWAP1 LOG1 DUP2 SWAP3 POP POP POP SWAP2 SWAP1 POP JUMP JUMPDEST PUSH2 0x9B0 PUSH1 0x2A PUSH1 0x11 PUSH2 0x5F9 JUMP JUMPDEST POP PUSH2 0x9BD PUSH1 0x2A PUSH1 0x11 PUSH2 0x4D3 JUMP JUMPDEST POP PUSH2 0x9C8 PUSH1 0x5 PUSH2 0x38F JUMP JUMPDEST POP PUSH2 0x9D3 PUSH1 0xA PUSH2 0x71F JUMP JUMPDEST POP PUSH2 0x9DE PUSH1 0xA PUSH2 0x85B JUMP JUMPDEST POP PUSH2 0x9E9 PUSH1 0x99 PUSH2 0x1AC JUMP JUMPDEST POP PUSH2 0x9F4 PUSH1 0x9A PUSH2 0x1AC JUMP JUMPDEST POP JUMP JUMPDEST PUSH1 0x60 PUSH1 0x0 DUP3 SUB PUSH2 0xA3E JUMPI PUSH1 0x40 MLOAD DUP1 PUSH1 0x40 ADD PUSH1 0x40 MSTORE DUP1 PUSH1 0x1 DUP2 MSTORE PUSH1 0x20 ADD PUSH32 0x3000000000000000000000000000000000000000000000000000000000000000 DUP2 MSTORE POP SWAP1 POP PUSH2 0xB64 JUMP JUMPDEST PUSH1 0x0 DUP3 SWAP1 POP PUSH1 0x0 JUMPDEST PUSH1 0x0 DUP3 EQ PUSH2 0xA70 JUMPI DUP1 DUP1 PUSH2 0xA59 SWAP1 PUSH2 0x1A9E JUMP JUMPDEST SWAP2 POP POP PUSH1 0xA DUP3 PUSH2 0xA69 SWAP2 SWAP1 PUSH2 0x1B15 JUMP JUMPDEST SWAP2 POP PUSH2 0xA46 JUMP JUMPDEST PUSH1 0x0 DUP2 PUSH8 0xFFFFFFFFFFFFFFFF DUP2 GT ISZERO PUSH2 0xA8C JUMPI PUSH2 0xA8B PUSH2 0x1782 JUMP JUMPDEST JUMPDEST PUSH1 0x40 MLOAD SWAP1 DUP1 DUP3 MSTORE DUP1 PUSH1 0x1F ADD PUSH1 0x1F NOT AND PUSH1 0x20 ADD DUP3 ADD PUSH1 0x40 MSTORE DUP1 ISZERO PUSH2 0xABE JUMPI DUP2 PUSH1 0x20 ADD PUSH1 0x1 DUP3 MUL DUP1 CALLDATASIZE DUP4 CALLDATACOPY DUP1 DUP3 ADD SWAP2 POP POP SWAP1 POP JUMPDEST POP SWAP1 POP PUSH1 0x0 DUP3 SWAP1 POP JUMPDEST PUSH1 0x0 DUP7 EQ PUSH2 0xB5C JUMPI PUSH1 0x1 DUP2 PUSH2 0xADC SWAP2 SWAP1 PUSH2 0x1B46 JUMP JUMPDEST SWAP1 POP PUSH1 0x0 PUSH1 0xA DUP8 PUSH2 0xAED SWAP2 SWAP1 PUSH2 0x1B7A JUMP JUMPDEST PUSH1 0x30 PUSH2 0xAF9 SWAP2 SWAP1 PUSH2 0x1BAB JUMP JUMPDEST SWAP1 POP PUSH1 0x0 DUP2 PUSH1 0xF8 SHL SWAP1 POP DUP1 DUP5 DUP5 DUP2 MLOAD DUP2 LT PUSH2 0xB17 JUMPI PUSH2 0xB16 PUSH2 0x1BDF JUMP JUMPDEST JUMPDEST PUSH1 0x20 ADD ADD SWAP1 PUSH31 0xFFFFFFFFFFFFFFFFFFFFFFFFFFFFFFFFFFFFFFFFFFFFFFFFFFFFFFFFFFFFFF NOT AND SWAP1 DUP2 PUSH1 0x0 BYTE SWAP1 MSTORE8 POP PUSH1 0xA DUP9 PUSH2 0xB53 SWAP2 SWAP1 PUSH2 0x1B15 JUMP JUMPDEST SWAP8 POP POP POP PUSH2 0xAC7 JUMP JUMPDEST DUP2 SWAP5 POP POP POP POP POP JUMPDEST SWAP2 SWAP1 POP JUMP JUMPDEST PUSH1 0x0 PUSH1 0x1 DUP4 GT PUSH2 0xB7E JUMPI PUSH1 0x1 DUP3 EQ SWAP1 POP PUSH2 0xBBB JUMP JUMPDEST PUSH1 0x0 PUSH1 0x1 SWAP1 POP PUSH1 0x0 PUSH1 0x2 SWAP1 POP JUMPDEST DUP5 DUP2 GT PUSH2 0xBB3 JUMPI DUP1 DUP3 PUSH2 0xB9E SWAP2 SWAP1 PUSH2 0x1C0E JUMP JUMPDEST SWAP2 POP DUP1 DUP1 PUSH2 0xBAB SWAP1 PUSH2 0x1A9E JUMP JUMPDEST SWAP2 POP POP PUSH2 0xB8B JUMP JUMPDEST POP DUP3 DUP2 EQ SWAP2 POP POP JUMPDEST SWAP3 SWAP2 POP POP JUMP JUMPDEST PUSH1 0x0 DUP1 DUP3 MLOAD SUB PUSH2 0xBD4 JUMPI PUSH1 0x1 SWAP1 POP PUSH2 0xD04 JUMP JUMPDEST PUSH1 0x1 DUP3 MLOAD SUB PUSH2 0xC03 JUMPI PUSH1 0x0 DUP3 PUSH1 0x0 DUP2 MLOAD DUP2 LT PUSH2 0xBF3 JUMPI PUSH2 0xBF2 PUSH2 0x1BDF JUMP JUMPDEST JUMPDEST PUSH1 0x20 MUL PUSH1 0x20 ADD ADD MLOAD EQ SWAP1 POP PUSH2 0xD04 JUMP JUMPDEST PUSH1 0x2 DUP3 MLOAD SUB PUSH2 0xC59 JUMPI PUSH1 0x0 DUP3 PUSH1 0x0 DUP2 MLOAD DUP2 LT PUSH2 0xC22 JUMPI PUSH2 0xC21 PUSH2 0x1BDF JUMP JUMPDEST JUMPDEST PUSH1 0x20 MUL PUSH1 0x20 ADD ADD MLOAD EQ DUP1 ISZERO PUSH2 0xC52 JUMPI POP PUSH1 0x1 DUP3 PUSH1 0x1 DUP2 MLOAD DUP2 LT PUSH2 0xC48 JUMPI PUSH2 0xC47 PUSH2 0x1BDF JUMP JUMPDEST JUMPDEST PUSH1 0x20 MUL PUSH1 0x20 ADD ADD MLOAD EQ JUMPDEST SWAP1 POP PUSH2 0xD04 JUMP JUMPDEST PUSH1 0x0 PUSH1 0x2 SWAP1 POP JUMPDEST DUP3 MLOAD DUP2 LT ISZERO PUSH2 0xCFE JUMPI DUP3 PUSH1 0x2 DUP3 PUSH2 0xC77 SWAP2 SWAP1 PUSH2 0x1B46 JUMP JUMPDEST DUP2 MLOAD DUP2 LT PUSH2 0xC88 JUMPI PUSH2 0xC87 PUSH2 0x1BDF JUMP JUMPDEST JUMPDEST PUSH1 0x20 MUL PUSH1 0x20 ADD ADD MLOAD DUP4 PUSH1 0x1 DUP4 PUSH2 0xC9E SWAP2 SWAP1 PUSH2 0x1B46 JUMP JUMPDEST DUP2 MLOAD DUP2 LT PUSH2 0xCAF JUMPI PUSH2 0xCAE PUSH2 0x1BDF JUMP JUMPDEST JUMPDEST PUSH1 0x20 MUL PUSH1 0x20 ADD ADD MLOAD PUSH2 0xCC1 SWAP2 SWAP1 PUSH2 0x1BAB JUMP JUMPDEST DUP4 DUP3 DUP2 MLOAD DUP2 LT PUSH2 0xCD4 JUMPI PUSH2 0xCD3 PUSH2 0x1BDF JUMP JUMPDEST JUMPDEST PUSH1 0x20 MUL PUSH1 0x20 ADD ADD MLOAD EQ PUSH2 0xCEB JUMPI PUSH1 0x0 SWAP2 POP POP PUSH2 0xD04 JUMP JUMPDEST DUP1 DUP1 PUSH2 0xCF6 SWAP1 PUSH2 0x1A9E JUMP JUMPDEST SWAP2 POP POP PUSH2 0xC60 JUMP JUMPDEST POP PUSH1 0x1 SWAP1 POP JUMPDEST SWAP2 SWAP1 POP JUMP JUMPDEST PUSH1 0x0 PUSH1 0x40 MLOAD SWAP1 POP SWAP1 JUMP JUMPDEST PUSH1 0x0 DUP1 REVERT JUMPDEST PUSH1 0x0 DUP1 REVERT JUMPDEST PUSH1 0x0 DUP2 SWAP1 POP SWAP2 SWAP1 POP JUMP JUMPDEST PUSH2 0xD30 DUP2 PUSH2 0xD1D JUMP JUMPDEST DUP2 EQ PUSH2 0xD3B JUMPI PUSH1 0x0 DUP1 REVERT JUMPDEST POP JUMP JUMPDEST PUSH1 0x0 DUP2 CALLDATALOAD SWAP1 POP PUSH2 0xD4D DUP2 PUSH2 0xD27 JUMP JUMPDEST SWAP3 SWAP2 POP POP JUMP JUMPDEST PUSH1 0x0 PUSH1 0x20 DUP3 DUP5 SUB SLT ISZERO PUSH2 0xD69 JUMPI PUSH2 0xD68 PUSH2 0xD13 JUMP JUMPDEST JUMPDEST PUSH1 0x0 PUSH2 0xD77 DUP5 DUP3 DUP6 ADD PUSH2 0xD3E JUMP JUMPDEST SWAP2 POP POP SWAP3 SWAP2 POP POP JUMP JUMPDEST PUSH1 0x0 DUP2 ISZERO ISZERO SWAP1 POP SWAP2 SWAP1 POP JUMP JUMPDEST PUSH2 0xD95 DUP2 PUSH2 0xD80 JUMP JUMPDEST DUP3 MSTORE POP POP JUMP JUMPDEST PUSH1 0x0 PUSH1 0x20 DUP3 ADD SWAP1 POP PUSH2 0xDB0 PUSH1 0x0 DUP4 ADD DUP5 PUSH2 0xD8C JUMP JUMPDEST SWAP3 SWAP2 POP POP JUMP JUMPDEST PUSH2 0xDBF DUP2 PUSH2 0xD1D JUMP JUMPDEST DUP3 MSTORE POP POP JUMP JUMPDEST PUSH1 0x0 PUSH1 0x20 DUP3 ADD SWAP1 POP PUSH2 0xDDA PUSH1 0x0 DUP4 ADD DUP5 PUSH2 0xDB6 JUMP JUMPDEST SWAP3 SWAP2 POP POP JUMP JUMPDEST PUSH1 0x0 DUP1 PUSH1 0x40 DUP4 DUP6 SUB SLT ISZERO PUSH2 0xDF7 JUMPI PUSH2 0xDF6 PUSH2 0xD13 JUMP JUMPDEST JUMPDEST PUSH1 0x0 PUSH2 0xE05 DUP6 DUP3 DUP7 ADD PUSH2 0xD3E JUMP JUMPDEST SWAP3 POP POP PUSH1 0x20 PUSH2 0xE16 DUP6 DUP3 DUP7 ADD PUSH2 0xD3E JUMP JUMPDEST SWAP2 POP POP SWAP3 POP SWAP3 SWAP1 POP JUMP JUMPDEST PUSH1 0x0 DUP2 MLOAD SWAP1 POP SWAP2 SWAP1 POP JUMP JUMPDEST PUSH1 0x0 DUP3 DUP3 MSTORE PUSH1 0x20 DUP3 ADD SWAP1 POP SWAP3 SWAP2 POP POP JUMP JUMPDEST PUSH1 0x0 DUP2 SWAP1 POP PUSH1 0x20 DUP3 ADD SWAP1 POP SWAP2 SWAP1 POP JUMP JUMPDEST PUSH2 0xE55 DUP2 PUSH2 0xD1D JUMP JUMPDEST DUP3 MSTORE POP POP JUMP JUMPDEST PUSH1 0x0 PUSH2 0xE67 DUP4 DUP4 PUSH2 0xE4C JUMP JUMPDEST PUSH1 0x20 DUP4 ADD SWAP1 POP SWAP3 SWAP2 POP POP JUMP JUMPDEST PUSH1 0x0 PUSH1 0x20 DUP3 ADD SWAP1 POP SWAP2 SWAP1 POP JUMP JUMPDEST PUSH1 0x0 PUSH2 0xE8B DUP3 PUSH2 0xE20 JUMP JUMPDEST PUSH2 0xE95 DUP2 DUP6 PUSH2 0xE2B JUMP JUMPDEST SWAP4 POP PUSH2 0xEA0 DUP4 PUSH2 0xE3C JUMP JUMPDEST DUP1 PUSH1 0x0 JUMPDEST DUP4 DUP2 LT ISZERO PUSH2 0xED1 JUMPI DUP2 MLOAD PUSH2 0xEB8 DUP9 DUP3 PUSH2 0xE5B JUMP JUMPDEST SWAP8 POP PUSH2 0xEC3 DUP4 PUSH2 0xE73 JUMP JUMPDEST SWAP3 POP POP PUSH1 0x1 DUP2 ADD SWAP1 POP PUSH2 0xEA4 JUMP JUMPDEST POP DUP6 SWAP4 POP POP POP POP SWAP3 SWAP2 POP POP JUMP JUMPDEST PUSH1 0x0 PUSH1 0x20 DUP3 ADD SWAP1 POP DUP2 DUP2 SUB PUSH1 0x0 DUP4 ADD MSTORE PUSH2 0xEF8 DUP2 DUP5 PUSH2 0xE80 JUMP JUMPDEST SWAP1 POP SWAP3 SWAP2 POP POP JUMP JUMPDEST PUSH2 0xF09 DUP2 PUSH2 0xD1D JUMP JUMPDEST DUP3 MSTORE POP POP JUMP JUMPDEST PUSH1 0x0 PUSH1 0x20 DUP3 ADD SWAP1 POP PUSH2 0xF24 PUSH1 0x0 DUP4 ADD DUP5 PUSH2 0xF00 JUMP JUMPDEST SWAP3 SWAP2 POP POP JUMP JUMPDEST PUSH2 0xF33 DUP2 PUSH2 0xD80 JUMP JUMPDEST DUP2 EQ PUSH2 0xF3E JUMPI PUSH1 0x0 DUP1 REVERT JUMPDEST POP JUMP JUMPDEST PUSH1 0x0 DUP2 MLOAD SWAP1 POP PUSH2 0xF50 DUP2 PUSH2 0xF2A JUMP JUMPDEST SWAP3 SWAP2 POP POP JUMP JUMPDEST PUSH1 0x0 PUSH1 0x20 DUP3 DUP5 SUB SLT ISZERO PUSH2 0xF6C JUMPI PUSH2 0xF6B PUSH2 0xD13 JUMP JUMPDEST JUMPDEST PUSH1 0x0 PUSH2 0xF7A DUP5 DUP3 DUP6 ADD PUSH2 0xF41 JUMP JUMPDEST SWAP2 POP POP SWAP3 SWAP2 POP POP JUMP JUMPDEST PUSH1 0x0 DUP2 SWAP1 POP SWAP3 SWAP2 POP POP JUMP JUMPDEST PUSH32 0x697341726D7374726F6E67280000000000000000000000000000000000000000 PUSH1 0x0 DUP3 ADD MSTORE POP JUMP JUMPDEST PUSH1 0x0 PUSH2 0xFC4 PUSH1 0xC DUP4 PUSH2 0xF83 JUMP JUMPDEST SWAP2 POP PUSH2 0xFCF DUP3 PUSH2 0xF8E JUMP JUMPDEST PUSH1 0xC DUP3 ADD SWAP1 POP SWAP2 SWAP1 POP JUMP JUMPDEST PUSH1 0x0 DUP2 MLOAD SWAP1 POP SWAP2 SWAP1 POP JUMP JUMPDEST PUSH1 0x0 JUMPDEST DUP4 DUP2 LT ISZERO PUSH2 0x1003 JUMPI DUP1 DUP3 ADD MLOAD DUP2 DUP5 ADD MSTORE PUSH1 0x20 DUP2 ADD SWAP1 POP PUSH2 0xFE8 JUMP JUMPDEST PUSH1 0x0 DUP5 DUP5 ADD MSTORE POP POP POP POP JUMP JUMPDEST PUSH1 0x0 PUSH2 0x101A DUP3 PUSH2 0xFDA JUMP JUMPDEST PUSH2 0x1024 DUP2 DUP6 PUSH2 0xF83 JUMP JUMPDEST SWAP4 POP PUSH2 0x1034 DUP2 DUP6 PUSH1 0x20 DUP7 ADD PUSH2 0xFE5 JUMP JUMPDEST DUP1 DUP5 ADD SWAP2 POP POP SWAP3 SWAP2 POP POP JUMP JUMPDEST PUSH32 0x29203D2000000000000000000000000000000000000000000000000000000000 PUSH1 0x0 DUP3 ADD MSTORE POP JUMP JUMPDEST PUSH1 0x0 PUSH2 0x1076 PUSH1 0x4 DUP4 PUSH2 0xF83 JUMP JUMPDEST SWAP2 POP PUSH2 0x1081 DUP3 PUSH2 0x1040 JUMP JUMPDEST PUSH1 0x4 DUP3 ADD SWAP1 POP SWAP2 SWAP1 POP JUMP JUMPDEST PUSH1 0x0 PUSH2 0x1097 DUP3 PUSH2 0xFB7 JUMP JUMPDEST SWAP2 POP PUSH2 0x10A3 DUP3 DUP6 PUSH2 0x100F JUMP JUMPDEST SWAP2 POP PUSH2 0x10AE DUP3 PUSH2 0x1069 JUMP JUMPDEST SWAP2 POP PUSH2 0x10BA DUP3 DUP5 PUSH2 0x100F JUMP JUMPDEST SWAP2 POP DUP2 SWAP1 POP SWAP4 SWAP3 POP POP POP JUMP JUMPDEST PUSH1 0x0 DUP3 DUP3 MSTORE PUSH1 0x20 DUP3 ADD SWAP1 POP SWAP3 SWAP2 POP POP JUMP JUMPDEST PUSH32 0x49732041726D7374726F6E670000000000000000000000000000000000000000 PUSH1 0x0 DUP3 ADD MSTORE POP JUMP JUMPDEST PUSH1 0x0 PUSH2 0x110D PUSH1 0xC DUP4 PUSH2 0x10C6 JUMP JUMPDEST SWAP2 POP PUSH2 0x1118 DUP3 PUSH2 0x10D7 JUMP JUMPDEST PUSH1 0x20 DUP3 ADD SWAP1 POP SWAP2 SWAP1 POP JUMP JUMPDEST PUSH1 0x0 PUSH1 0x1F NOT PUSH1 0x1F DUP4 ADD AND SWAP1 POP SWAP2 SWAP1 POP JUMP JUMPDEST PUSH1 0x0 PUSH2 0x113F DUP3 PUSH2 0xFDA JUMP JUMPDEST PUSH2 0x1149 DUP2 DUP6 PUSH2 0x10C6 JUMP JUMPDEST SWAP4 POP PUSH2 0x1159 DUP2 DUP6 PUSH1 0x20 DUP7 ADD PUSH2 0xFE5 JUMP JUMPDEST PUSH2 0x1162 DUP2 PUSH2 0x1123 JUMP JUMPDEST DUP5 ADD SWAP2 POP POP SWAP3 SWAP2 POP POP JUMP JUMPDEST PUSH1 0x0 PUSH1 0x60 DUP3 ADD SWAP1 POP DUP2 DUP2 SUB PUSH1 0x0 DUP4 ADD MSTORE PUSH2 0x1186 DUP2 PUSH2 0x1100 JUMP JUMPDEST SWAP1 POP PUSH2 0x1195 PUSH1 0x20 DUP4 ADD DUP6 PUSH2 0xD8C JUMP JUMPDEST DUP2 DUP2 SUB PUSH1 0x40 DUP4 ADD MSTORE PUSH2 0x11A7 DUP2 DUP5 PUSH2 0x1134 JUMP JUMPDEST SWAP1 POP SWAP4 SWAP3 POP POP POP JUMP JUMPDEST PUSH32 0x496E70757420746F6F206C617267652C20776F756C64206361757365206F7665 PUSH1 0x0 DUP3 ADD MSTORE PUSH32 0x72666C6F77000000000000000000000000000000000000000000000000000000 PUSH1 0x20 DUP3 ADD MSTORE POP JUMP JUMPDEST PUSH1 0x0 PUSH2 0x120C PUSH1 0x25 DUP4 PUSH2 0x10C6 JUMP JUMPDEST SWAP2 POP PUSH2 0x1217 DUP3 PUSH2 0x11B0 JUMP JUMPDEST PUSH1 0x40 DUP3 ADD SWAP1 POP SWAP2 SWAP1 POP JUMP JUMPDEST PUSH1 0x0 PUSH1 0x20 DUP3 ADD SWAP1 POP DUP2 DUP2 SUB PUSH1 0x0 DUP4 ADD MSTORE PUSH2 0x123B DUP2 PUSH2 0x11FF JUMP JUMPDEST SWAP1 POP SWAP2 SWAP1 POP JUMP JUMPDEST PUSH1 0x0 DUP2 MLOAD SWAP1 POP PUSH2 0x1251 DUP2 PUSH2 0xD27 JUMP JUMPDEST SWAP3 SWAP2 POP POP JUMP JUMPDEST PUSH1 0x0 PUSH1 0x20 DUP3 DUP5 SUB SLT ISZERO PUSH2 0x126D JUMPI PUSH2 0x126C PUSH2 0xD13 JUMP JUMPDEST JUMPDEST PUSH1 0x0 PUSH2 0x127B DUP5 DUP3 DUP6 ADD PUSH2 0x1242 JUMP JUMPDEST SWAP2 POP POP SWAP3 SWAP2 POP POP JUMP JUMPDEST PUSH32 0x666163746F7269616C2800000000000000000000000000000000000000000000 PUSH1 0x0 DUP3 ADD MSTORE POP JUMP JUMPDEST PUSH1 0x0 PUSH2 0x12BA PUSH1 0xA DUP4 PUSH2 0xF83 JUMP JUMPDEST SWAP2 POP PUSH2 0x12C5 DUP3 PUSH2 0x1284 JUMP JUMPDEST PUSH1 0xA DUP3 ADD SWAP1 POP SWAP2 SWAP1 POP JUMP JUMPDEST PUSH1 0x0 PUSH2 0x12DB DUP3 PUSH2 0x12AD JUMP JUMPDEST SWAP2 POP PUSH2 0x12E7 DUP3 DUP6 PUSH2 0x100F JUMP JUMPDEST SWAP2 POP PUSH2 0x12F2 DUP3 PUSH2 0x1069 JUMP JUMPDEST SWAP2 POP PUSH2 0x12FE DUP3 DUP5 PUSH2 0x100F JUMP JUMPDEST SWAP2 POP DUP2 SWAP1 POP SWAP4 SWAP3 POP POP POP JUMP JUMPDEST PUSH32 0x466163746F7269616C0000000000000000000000000000000000000000000000 PUSH1 0x0 DUP3 ADD MSTORE POP JUMP JUMPDEST PUSH1 0x0 PUSH2 0x1340 PUSH1 0x9 DUP4 PUSH2 0x10C6 JUMP JUMPDEST SWAP2 POP PUSH2 0x134B DUP3 PUSH2 0x130A JUMP JUMPDEST PUSH1 0x20 DUP3 ADD SWAP1 POP SWAP2 SWAP1 POP JUMP JUMPDEST PUSH1 0x0 PUSH1 0x60 DUP3 ADD SWAP1 POP DUP2 DUP2 SUB PUSH1 0x0 DUP4 ADD MSTORE PUSH2 0x136F DUP2 PUSH2 0x1333 JUMP JUMPDEST SWAP1 POP PUSH2 0x137E PUSH1 0x20 DUP4 ADD DUP6 PUSH2 0xD8C JUMP JUMPDEST DUP2 DUP2 SUB PUSH1 0x40 DUP4 ADD MSTORE PUSH2 0x1390 DUP2 DUP5 PUSH2 0x1134 JUMP JUMPDEST SWAP1 POP SWAP4 SWAP3 POP POP POP JUMP JUMPDEST PUSH1 0x0 PUSH1 0x40 DUP3 ADD SWAP1 POP PUSH2 0x13AE PUSH1 0x0 DUP4 ADD DUP6 PUSH2 0xF00 JUMP JUMPDEST PUSH2 0x13BB PUSH1 0x20 DUP4 ADD DUP5 PUSH2 0xF00 JUMP JUMPDEST SWAP4 SWAP3 POP POP POP JUMP JUMPDEST PUSH32 0x6D696E2800000000000000000000000000000000000000000000000000000000 PUSH1 0x0 DUP3 ADD MSTORE POP JUMP JUMPDEST PUSH1 0x0 PUSH2 0x13F8 PUSH1 0x4 DUP4 PUSH2 0xF83 JUMP JUMPDEST SWAP2 POP PUSH2 0x1403 DUP3 PUSH2 0x13C2 JUMP JUMPDEST PUSH1 0x4 DUP3 ADD SWAP1 POP SWAP2 SWAP1 POP JUMP JUMPDEST PUSH32 0x2C20000000000000000000000000000000000000000000000000000000000000 PUSH1 0x0 DUP3 ADD MSTORE POP JUMP JUMPDEST PUSH1 0x0 PUSH2 0x1444 PUSH1 0x2 DUP4 PUSH2 0xF83 JUMP JUMPDEST SWAP2 POP PUSH2 0x144F DUP3 PUSH2 0x140E JUMP JUMPDEST PUSH1 0x2 DUP3 ADD SWAP1 POP SWAP2 SWAP1 POP JUMP JUMPDEST PUSH1 0x0 PUSH2 0x1465 DUP3 PUSH2 0x13EB JUMP JUMPDEST SWAP2 POP PUSH2 0x1471 DUP3 DUP7 PUSH2 0x100F JUMP JUMPDEST SWAP2 POP PUSH2 0x147C DUP3 PUSH2 0x1437 JUMP JUMPDEST SWAP2 POP PUSH2 0x1488 DUP3 DUP6 PUSH2 0x100F JUMP JUMPDEST SWAP2 POP PUSH2 0x1493 DUP3 PUSH2 0x1069 JUMP JUMPDEST SWAP2 POP PUSH2 0x149F DUP3 DUP5 PUSH2 0x100F JUMP JUMPDEST SWAP2 POP DUP2 SWAP1 POP SWAP5 SWAP4 POP POP POP POP JUMP JUMPDEST PUSH32 0x4D696E696D756D00000000000000000000000000000000000000000000000000 PUSH1 0x0 DUP3 ADD MSTORE POP JUMP JUMPDEST PUSH1 0x0 PUSH2 0x14E2 PUSH1 0x7 DUP4 PUSH2 0x10C6 JUMP JUMPDEST SWAP2 POP PUSH2 0x14ED DUP3 PUSH2 0x14AC JUMP JUMPDEST PUSH1 0x20 DUP3 ADD SWAP1 POP SWAP2 SWAP1 POP JUMP JUMPDEST PUSH1 0x0 PUSH1 0x60 DUP3 ADD SWAP1 POP DUP2 DUP2 SUB PUSH1 0x0 DUP4 ADD MSTORE PUSH2 0x1511 DUP2 PUSH2 0x14D5 JUMP JUMPDEST SWAP1 POP PUSH2 0x1520 PUSH1 0x20 DUP4 ADD DUP6 PUSH2 0xD8C JUMP JUMPDEST DUP2 DUP2 SUB PUSH1 0x40 DUP4 ADD MSTORE PUSH2 0x1532 DUP2 DUP5 PUSH2 0x1134 JUMP JUMPDEST SWAP1 POP SWAP4 SWAP3 POP POP POP JUMP JUMPDEST PUSH32 0x6D61782800000000000000000000000000000000000000000000000000000000 PUSH1 0x0 DUP3 ADD MSTORE POP JUMP JUMPDEST PUSH1 0x0 PUSH2 0x1571 PUSH1 0x4 DUP4 PUSH2 0xF83 JUMP JUMPDEST SWAP2 POP PUSH2 0x157C DUP3 PUSH2 0x153B JUMP JUMPDEST PUSH1 0x4 DUP3 ADD SWAP1 POP SWAP2 SWAP1 POP JUMP JUMPDEST PUSH1 0x0 PUSH2 0x1592 DUP3 PUSH2 0x1564 JUMP JUMPDEST SWAP2 POP PUSH2 0x159E DUP3 DUP7 PUSH2 0x100F JUMP JUMPDEST SWAP2 POP PUSH2 0x15A9 DUP3 PUSH2 0x1437 JUMP JUMPDEST SWAP2 POP PUSH2 0x15B5 DUP3 DUP6 PUSH2 0x100F JUMP JUMPDEST SWAP2 POP PUSH2 0x15C0 DUP3 PUSH2 0x1069 JUMP JUMPDEST SWAP2 POP PUSH2 0x15CC DUP3 DUP5 PUSH2 0x100F JUMP JUMPDEST SWAP2 POP DUP2 SWAP1 POP SWAP5 SWAP4 POP POP POP POP JUMP JUMPDEST PUSH32 0x4D6178696D756D00000000000000000000000000000000000000000000000000 PUSH1 0x0 DUP3 ADD MSTORE POP JUMP JUMPDEST PUSH1 0x0 PUSH2 0x160F PUSH1 0x7 DUP4 PUSH2 0x10C6 JUMP JUMPDEST SWAP2 POP PUSH2 0x161A DUP3 PUSH2 0x15D9 JUMP JUMPDEST PUSH1 0x20 DUP3 ADD SWAP1 POP SWAP2 SWAP1 POP JUMP JUMPDEST PUSH1 0x0 PUSH1 0x60 DUP3 ADD SWAP1 POP DUP2 DUP2 SUB PUSH1 0x0 DUP4 ADD MSTORE PUSH2 0x163E DUP2 PUSH2 0x1602 JUMP JUMPDEST SWAP1 POP PUSH2 0x164D PUSH1 0x20 DUP4 ADD DUP6 PUSH2 0xD8C JUMP JUMPDEST DUP2 DUP2 SUB PUSH1 0x40 DUP4 ADD MSTORE PUSH2 0x165F DUP2 DUP5 PUSH2 0x1134 JUMP JUMPDEST SWAP1 POP SWAP4 SWAP3 POP POP POP JUMP JUMPDEST PUSH32 0x6669626F6E616363692800000000000000000000000000000000000000000000 PUSH1 0x0 DUP3 ADD MSTORE POP JUMP JUMPDEST PUSH1 0x0 PUSH2 0x169E PUSH1 0xA DUP4 PUSH2 0xF83 JUMP JUMPDEST SWAP2 POP PUSH2 0x16A9 DUP3 PUSH2 0x1668 JUMP JUMPDEST PUSH1 0xA DUP3 ADD SWAP1 POP SWAP2 SWAP1 POP JUMP JUMPDEST PUSH1 0x0 PUSH2 0x16BF DUP3 PUSH2 0x1691 JUMP JUMPDEST SWAP2 POP PUSH2 0x16CB DUP3 DUP6 PUSH2 0x100F JUMP JUMPDEST SWAP2 POP PUSH2 0x16D6 DUP3 PUSH2 0x1069 JUMP JUMPDEST SWAP2 POP PUSH2 0x16E2 DUP3 DUP5 PUSH2 0x100F JUMP JUMPDEST SWAP2 POP DUP2 SWAP1 POP SWAP4 SWAP3 POP POP POP JUMP JUMPDEST PUSH32 0x4669626F6E616363690000000000000000000000000000000000000000000000 PUSH1 0x0 DUP3 ADD MSTORE POP JUMP JUMPDEST PUSH1 0x0 PUSH2 0x1724 PUSH1 0x9 DUP4 PUSH2 0x10C6 JUMP JUMPDEST SWAP2 POP PUSH2 0x172F DUP3 PUSH2 0x16EE JUMP JUMPDEST PUSH1 0x20 DUP3 ADD SWAP1 POP SWAP2 SWAP1 POP JUMP JUMPDEST PUSH1 0x0 PUSH1 0x60 DUP3 ADD SWAP1 POP DUP2 DUP2 SUB PUSH1 0x0 DUP4 ADD MSTORE PUSH2 0x1753 DUP2 PUSH2 0x1717 JUMP JUMPDEST SWAP1 POP PUSH2 0x1762 PUSH1 0x20 DUP4 ADD DUP6 PUSH2 0xD8C JUMP JUMPDEST DUP2 DUP2 SUB PUSH1 0x40 DUP4 ADD MSTORE PUSH2 0x1774 DUP2 DUP5 PUSH2 0x1134 JUMP JUMPDEST SWAP1 POP SWAP4 SWAP3 POP POP POP JUMP JUMPDEST PUSH1 0x0 DUP1 REVERT JUMPDEST PUSH32 0x4E487B7100000000000000000000000000000000000000000000000000000000 PUSH1 0x0 MSTORE PUSH1 0x41 PUSH1 0x4 MSTORE PUSH1 0x24 PUSH1 0x0 REVERT JUMPDEST PUSH2 0x17BA DUP3 PUSH2 0x1123 JUMP JUMPDEST DUP2 ADD DUP2 DUP2 LT PUSH8 0xFFFFFFFFFFFFFFFF DUP3 GT OR ISZERO PUSH2 0x17D9 JUMPI PUSH2 0x17D8 PUSH2 0x1782 JUMP JUMPDEST JUMPDEST DUP1 PUSH1 0x40 MSTORE POP POP POP JUMP JUMPDEST PUSH1 0x0 PUSH2 0x17EC PUSH2 0xD09 JUMP JUMPDEST SWAP1 POP PUSH2 0x17F8 DUP3 DUP3 PUSH2 0x17B1 JUMP JUMPDEST SWAP2 SWAP1 POP JUMP JUMPDEST PUSH1 0x0 PUSH8 0xFFFFFFFFFFFFFFFF DUP3 GT ISZERO PUSH2 0x1818 JUMPI PUSH2 0x1817 PUSH2 0x1782 JUMP JUMPDEST JUMPDEST PUSH1 0x20 DUP3 MUL SWAP1 POP PUSH1 0x20 DUP2 ADD SWAP1 POP SWAP2 SWAP1 POP JUMP JUMPDEST PUSH1 0x0 DUP1 REVERT JUMPDEST PUSH1 0x0 PUSH2 0x1841 PUSH2 0x183C DUP5 PUSH2 0x17FD JUMP JUMPDEST PUSH2 0x17E2 JUMP JUMPDEST SWAP1 POP DUP1 DUP4 DUP3 MSTORE PUSH1 0x20 DUP3 ADD SWAP1 POP PUSH1 0x20 DUP5 MUL DUP4 ADD DUP6 DUP2 GT ISZERO PUSH2 0x1864 JUMPI PUSH2 0x1863 PUSH2 0x1829 JUMP JUMPDEST JUMPDEST DUP4 JUMPDEST DUP2 DUP2 LT ISZERO PUSH2 0x188D JUMPI DUP1 PUSH2 0x1879 DUP9 DUP3 PUSH2 0x1242 JUMP JUMPDEST DUP5 MSTORE PUSH1 0x20 DUP5 ADD SWAP4 POP POP PUSH1 0x20 DUP2 ADD SWAP1 POP PUSH2 0x1866 JUMP JUMPDEST POP POP POP SWAP4 SWAP3 POP POP POP JUMP JUMPDEST PUSH1 0x0 DUP3 PUSH1 0x1F DUP4 ADD SLT PUSH2 0x18AC JUMPI PUSH2 0x18AB PUSH2 0x177D JUMP JUMPDEST JUMPDEST DUP2 MLOAD PUSH2 0x18BC DUP5 DUP3 PUSH1 0x20 DUP7 ADD PUSH2 0x182E JUMP JUMPDEST SWAP2 POP POP SWAP3 SWAP2 POP POP JUMP JUMPDEST PUSH1 0x0 PUSH1 0x20 DUP3 DUP5 SUB SLT ISZERO PUSH2 0x18DB JUMPI PUSH2 0x18DA PUSH2 0xD13 JUMP JUMPDEST JUMPDEST PUSH1 0x0 DUP3 ADD MLOAD PUSH8 0xFFFFFFFFFFFFFFFF DUP2 GT ISZERO PUSH2 0x18F9 JUMPI PUSH2 0x18F8 PUSH2 0xD18 JUMP JUMPDEST JUMPDEST PUSH2 0x1905 DUP5 DUP3 DUP6 ADD PUSH2 0x1897 JUMP JUMPDEST SWAP2 POP POP SWAP3 SWAP2 POP POP JUMP JUMPDEST PUSH32 0x6669626F6E616363695365726965732800000000000000000000000000000000 PUSH1 0x0 DUP3 ADD MSTORE POP JUMP JUMPDEST PUSH1 0x0 PUSH2 0x1944 PUSH1 0x10 DUP4 PUSH2 0xF83 JUMP JUMPDEST SWAP2 POP PUSH2 0x194F DUP3 PUSH2 0x190E JUMP JUMPDEST PUSH1 0x10 DUP3 ADD SWAP1 POP SWAP2 SWAP1 POP JUMP JUMPDEST PUSH32 0x29206C656E677468203D20000000000000000000000000000000000000000000 PUSH1 0x0 DUP3 ADD MSTORE POP JUMP JUMPDEST PUSH1 0x0 PUSH2 0x1990 PUSH1 0xB DUP4 PUSH2 0xF83 JUMP JUMPDEST SWAP2 POP PUSH2 0x199B DUP3 PUSH2 0x195A JUMP JUMPDEST PUSH1 0xB DUP3 ADD SWAP1 POP SWAP2 SWAP1 POP JUMP JUMPDEST PUSH1 0x0 PUSH2 0x19B1 DUP3 PUSH2 0x1937 JUMP JUMPDEST SWAP2 POP PUSH2 0x19BD DUP3 DUP6 PUSH2 0x100F JUMP JUMPDEST SWAP2 POP PUSH2 0x19C8 DUP3 PUSH2 0x1983 JUMP JUMPDEST SWAP2 POP PUSH2 0x19D4 DUP3 DUP5 PUSH2 0x100F JUMP JUMPDEST SWAP2 POP DUP2 SWAP1 POP SWAP4 SWAP3 POP POP POP JUMP JUMPDEST PUSH32 0x4669626F6E616363692053657269657300000000000000000000000000000000 PUSH1 0x0 DUP3 ADD MSTORE POP JUMP JUMPDEST PUSH1 0x0 PUSH2 0x1A16 PUSH1 0x10 DUP4 PUSH2 0x10C6 JUMP JUMPDEST SWAP2 POP PUSH2 0x1A21 DUP3 PUSH2 0x19E0 JUMP JUMPDEST PUSH1 0x20 DUP3 ADD SWAP1 POP SWAP2 SWAP1 POP JUMP JUMPDEST PUSH1 0x0 PUSH1 0x60 DUP3 ADD SWAP1 POP DUP2 DUP2 SUB PUSH1 0x0 DUP4 ADD MSTORE PUSH2 0x1A45 DUP2 PUSH2 0x1A09 JUMP JUMPDEST SWAP1 POP PUSH2 0x1A54 PUSH1 0x20 DUP4 ADD DUP6 PUSH2 0xD8C JUMP JUMPDEST DUP2 DUP2 SUB PUSH1 0x40 DUP4 ADD MSTORE PUSH2 0x1A66 DUP2 DUP5 PUSH2 0x1134 JUMP JUMPDEST SWAP1 POP SWAP4 SWAP3 POP POP POP JUMP JUMPDEST PUSH32 0x4E487B7100000000000000000000000000000000000000000000000000000000 PUSH1 0x0 MSTORE PUSH1 0x11 PUSH1 0x4 MSTORE PUSH1 0x24 PUSH1 0x0 REVERT JUMPDEST PUSH1 0x0 PUSH2 0x1AA9 DUP3 PUSH2 0xD1D JUMP JUMPDEST SWAP2 POP PUSH32 0xFFFFFFFFFFFFFFFFFFFFFFFFFFFFFFFFFFFFFFFFFFFFFFFFFFFFFFFFFFFFFFFF DUP3 SUB PUSH2 0x1ADB JUMPI PUSH2 0x1ADA PUSH2 0x1A6F JUMP JUMPDEST JUMPDEST PUSH1 0x1 DUP3 ADD SWAP1 POP SWAP2 SWAP1 POP JUMP JUMPDEST PUSH32 0x4E487B7100000000000000000000000000000000000000000000000000000000 PUSH1 0x0 MSTORE PUSH1 0x12 PUSH1 0x4 MSTORE PUSH1 0x24 PUSH1 0x0 REVERT JUMPDEST PUSH1 0x0 PUSH2 0x1B20 DUP3 PUSH2 0xD1D JUMP JUMPDEST SWAP2 POP PUSH2 0x1B2B DUP4 PUSH2 0xD1D JUMP JUMPDEST SWAP3 POP DUP3 PUSH2 0x1B3B JUMPI PUSH2 0x1B3A PUSH2 0x1AE6 JUMP JUMPDEST JUMPDEST DUP3 DUP3 DIV SWAP1 POP SWAP3 SWAP2 POP POP JUMP JUMPDEST PUSH1 0x0 PUSH2 0x1B51 DUP3 PUSH2 0xD1D JUMP JUMPDEST SWAP2 POP PUSH2 0x1B5C DUP4 PUSH2 0xD1D JUMP JUMPDEST SWAP3 POP DUP3 DUP3 SUB SWAP1 POP DUP2 DUP2 GT ISZERO PUSH2 0x1B74 JUMPI PUSH2 0x1B73 PUSH2 0x1A6F JUMP JUMPDEST JUMPDEST SWAP3 SWAP2 POP POP JUMP JUMPDEST PUSH1 0x0 PUSH2 0x1B85 DUP3 PUSH2 0xD1D JUMP JUMPDEST SWAP2 POP PUSH2 0x1B90 DUP4 PUSH2 0xD1D JUMP JUMPDEST SWAP3 POP DUP3 PUSH2 0x1BA0 JUMPI PUSH2 0x1B9F PUSH2 0x1AE6 JUMP JUMPDEST JUMPDEST DUP3 DUP3 MOD SWAP1 POP SWAP3 SWAP2 POP POP JUMP JUMPDEST PUSH1 0x0 PUSH2 0x1BB6 DUP3 PUSH2 0xD1D JUMP JUMPDEST SWAP2 POP PUSH2 0x1BC1 DUP4 PUSH2 0xD1D JUMP JUMPDEST SWAP3 POP DUP3 DUP3 ADD SWAP1 POP DUP1 DUP3 GT ISZERO PUSH2 0x1BD9 JUMPI PUSH2 0x1BD8 PUSH2 0x1A6F JUMP JUMPDEST JUMPDEST SWAP3 SWAP2 POP POP JUMP JUMPDEST PUSH32 0x4E487B7100000000000000000000000000000000000000000000000000000000 PUSH1 0x0 MSTORE PUSH1 0x32 PUSH1 0x4 MSTORE PUSH1 0x24 PUSH1 0x0 REVERT JUMPDEST PUSH1 0x0 PUSH2 0x1C19 DUP3 PUSH2 0xD1D JUMP JUMPDEST SWAP2 POP PUSH2 0x1C24 DUP4 PUSH2 0xD1D JUMP JUMPDEST SWAP3 POP DUP3 DUP3 MUL PUSH2 0x1C32 DUP2 PUSH2 0xD1D JUMP JUMPDEST SWAP2 POP DUP3 DUP3 DIV DUP5 EQ DUP4 ISZERO OR PUSH2 0x1C49 JUMPI PUSH2 0x1C48 PUSH2 0x1A6F JUMP JUMPDEST JUMPDEST POP SWAP3 SWAP2 POP POP JUMP INVALID LOG2 PUSH5 0x6970667358 0x22 SLT KECCAK256 0xD 0x4F CODESIZE DUP2 0xC0 DIV 0x1F DUP7 PUSH25 0x2B5BC2285F209B475E238CE1EDB7ADC2C595EE6C2642FC6473 PUSH16 0x6C634300081200330000000000000000 "
		},
		"gasEstimates": {
			"creation": {
				"codeDepositCost": "1460400",
				"executionCost": "1527",
				"totalCost": "1461927"
			},
			"external": {
				"runAllTests()": "infinite",
				"testFactorial(uint256)": "infinite",
				"testFibonacci(uint256)": "infinite",
				"testFibonacciSeries(uint256)": "infinite",
				"testIsArmstrong(uint256)": "infinite",
				"testMax(uint256,uint256)": "infinite",
				"testMin(uint256,uint256)": "infinite"
			},
			"internal": {
				"uint2str(uint256)": "infinite",
				"verifyFactorial(uint256,uint256)": "infinite",
				"verifyFibonacciSeries(uint256[] memory)": "infinite"
			}
		},
		"methodIdentifiers": {
			"runAllTests()": "e65e87fb",
			"testFactorial(uint256)": "163b0e51",
			"testFibonacci(uint256)": "8c87bb0a",
			"testFibonacciSeries(uint256)": "ce1b8784",
			"testIsArmstrong(uint256)": "05d09ad7",
			"testMax(uint256,uint256)": "834db421",
			"testMin(uint256,uint256)": "1abe5974"
		}
	},
	"abi": [
		{
			"anonymous": false,
			"inputs": [
				{
					"indexed": false,
					"internalType": "string",
					"name": "testName",
					"type": "string"
				},
				{
					"indexed": false,
					"internalType": "bool",
					"name": "passed",
					"type": "bool"
				},
				{
					"indexed": false,
					"internalType": "string",
					"name": "details",
					"type": "string"
				}
			],
			"name": "TestResult",
			"type": "event"
		},
		{
			"inputs": [],
			"name": "runAllTests",
			"outputs": [],
			"stateMutability": "nonpayable",
			"type": "function"
		},
		{
			"inputs": [
				{
					"internalType": "uint256",
					"name": "n",
					"type": "uint256"
				}
			],
			"name": "testFactorial",
			"outputs": [
				{
					"internalType": "uint256",
					"name": "",
					"type": "uint256"
				}
			],
			"stateMutability": "nonpayable",
			"type": "function"
		},
		{
			"inputs": [
				{
					"internalType": "uint256",
					"name": "n",
					"type": "uint256"
				}
			],
			"name": "testFibonacci",
			"outputs": [
				{
					"internalType": "uint256",
					"name": "",
					"type": "uint256"
				}
			],
			"stateMutability": "nonpayable",
			"type": "function"
		},
		{
			"inputs": [
				{
					"internalType": "uint256",
					"name": "n",
					"type": "uint256"
				}
			],
			"name": "testFibonacciSeries",
			"outputs": [
				{
					"internalType": "uint256[]",
					"name": "",
					"type": "uint256[]"
				}
			],
			"stateMutability": "nonpayable",
			"type": "function"
		},
		{
			"inputs": [
				{
					"internalType": "uint256",
					"name": "n",
					"type": "uint256"
				}
			],
			"name": "testIsArmstrong",
			"outputs": [
				{
					"internalType": "bool",
					"name": "",
					"type": "bool"
				}
			],
			"stateMutability": "nonpayable",
			"type": "function"
		},
		{
			"inputs": [
				{
					"internalType": "uint256",
					"name": "a",
					"type": "uint256"
				},
				{
					"internalType": "uint256",
					"name": "b",
					"type": "uint256"
				}
			],
			"name": "testMax",
			"outputs": [
				{
					"internalType": "uint256",
					"name": "",
					"type": "uint256"
				}
			],
			"stateMutability": "nonpayable",
			"type": "function"
		},
		{
			"inputs": [
				{
					"internalType": "uint256",
					"name": "a",
					"type": "uint256"
				},
				{
					"internalType": "uint256",
					"name": "b",
					"type": "uint256"
				}
			],
			"name": "testMin",
			"outputs": [
				{
					"internalType": "uint256",
					"name": "",
					"type": "uint256"
				}
			],
			"stateMutability": "nonpayable",
			"type": "function"
		}
	]
}