{
	"data": {
		"bytecode": {
			"linkReferences": {
				"Day-06/D6P1.sol": {
					"MathLibrary": [
						{
							"length": 20,
							"start": 457
						},
						{
							"length": 20,
							"start": 1003
						},
						{
							"length": 20,
							"start": 1254
						},
						{
							"length": 20,
							"start": 1544
						},
						{
							"length": 20,
							"start": 1902
						},
						{
							"length": 20,
							"start": 2214
						}
					]
				}
			},
			"object": "6080604052348015600e575f80fd5b50611bbd8061001c5f395ff3fe608060405234801561000f575f80fd5b506004361061007b575f3560e01c8063834db42111610059578063834db4211461010f5780638c87bb0a1461013f578063ce1b87841461016f578063e65e87fb1461019f5761007b565b806305d09ad71461007f578063163b0e51146100af5780631abe5974146100df575b5f80fd5b61009960048036038101906100949190610d13565b6101a9565b6040516100a69190610d58565b60405180910390f35b6100c960048036038101906100c49190610d13565b610387565b6040516100d69190610d80565b60405180910390f35b6100f960048036038101906100f49190610d99565b6104c6565b6040516101069190610d80565b60405180910390f35b61012960048036038101906101249190610d99565b6105e8565b6040516101369190610d80565b60405180910390f35b61015960048036038101906101549190610d13565b61070a565b6040516101669190610d80565b60405180910390f35b61018960048036038101906101849190610d13565b610841565b6040516101969190610e8e565b60405180910390f35b6101a7610984565b005b5f8073__$bf9e98ef61dd5c3ef45146736856a9c1d2$__63fe459d20846040518263ffffffff1660e01b81526004016101e29190610ebd565b602060405180830381865af41580156101fd573d5f803e3d5ffd5b505050506040513d601f19601f820116820180604052508101906102219190610f00565b90505f6001905060018414806102375750609984145b80610243575061017284145b8061024f575061017384145b8061025b575061019784145b1561026f57600115158215151490506102a5565b600a84148061027e5750606484145b80610289575060c884145b8061029557506101f484145b156102a4575f15158215151490505b5b7f8ded0018aee3555da4abd779e14b4af76bd1dd7caf6ac46b76386b28db137e4e816102d0866109d7565b84610310576040518060400160405280600581526020017f66616c7365000000000000000000000000000000000000000000000000000000815250610347565b6040518060400160405280600481526020017f74727565000000000000000000000000000000000000000000000000000000008152505b604051602001610358929190611011565b6040516020818303038152906040526040516103759291906110ec565b60405180910390a18192505050919050565b5f60148211156103cc576040517f08c379a00000000000000000000000000000000000000000000000000000000081526004016103c39061119d565b60405180910390fd5b5f73__$bf9e98ef61dd5c3ef45146736856a9c1d2$__6383714834846040518263ffffffff1660e01b81526004016104049190610ebd565b602060405180830381865af415801561041f573d5f803e3d5ffd5b505050506040513d601f19601f8201168201806040525081019061044391906111cf565b90505f6104508483610b3f565b90507f8ded0018aee3555da4abd779e14b4af76bd1dd7caf6ac46b76386b28db137e4e8161047d866109d7565b610486856109d7565b604051602001610497929190611244565b6040516020818303038152906040526040516104b49291906112c7565b60405180910390a18192505050919050565b5f8073__$bf9e98ef61dd5c3ef45146736856a9c1d2$__637ae2b5c785856040518363ffffffff1660e01b8152600401610501929190611308565b602060405180830381865af415801561051c573d5f803e3d5ffd5b505050506040513d601f19601f8201168201806040525081019061054091906111cf565b90505f83851115801561055257508482145b806105675750848410801561056657508382145b5b90507f8ded0018aee3555da4abd779e14b4af76bd1dd7caf6ac46b76386b28db137e4e81610594876109d7565b61059d876109d7565b6105a6866109d7565b6040516020016105b8939291906113c3565b6040516020818303038152906040526040516105d592919061145e565b60405180910390a1819250505092915050565b5f8073__$bf9e98ef61dd5c3ef45146736856a9c1d2$__636d5433e685856040518363ffffffff1660e01b8152600401610623929190611308565b602060405180830381865af415801561063e573d5f803e3d5ffd5b505050506040513d601f19601f8201168201806040525081019061066291906111cf565b90505f83851015801561067457508482145b806106895750848411801561068857508382145b5b90507f8ded0018aee3555da4abd779e14b4af76bd1dd7caf6ac46b76386b28db137e4e816106b6876109d7565b6106bf876109d7565b6106c8866109d7565b6040516020016106da939291906114e9565b6040516020818303038152906040526040516106f7929190611584565b60405180910390a1819250505092915050565b5f604e82111561074f576040517f08c379a00000000000000000000000000000000000000000000000000000000081526004016107469061119d565b60405180910390fd5b5f73__$bf9e98ef61dd5c3ef45146736856a9c1d2$__6361047ff4846040518263ffffffff1660e01b81526004016107879190610ebd565b602060405180830381865af41580156107a2573d5f803e3d5ffd5b505050506040513d601f19601f820116820180604052508101906107c691906111cf565b90505f600190507f8ded0018aee3555da4abd779e14b4af76bd1dd7caf6ac46b76386b28db137e4e816107f8866109d7565b610801856109d7565b60405160200161081292919061160f565b60405160208183030381529060405260405161082f929190611692565b60405180910390a18192505050919050565b6060604e821115610887576040517f08c379a000000000000000000000000000000000000000000000000000000000815260040161087e9061119d565b60405180910390fd5b5f73__$bf9e98ef61dd5c3ef45146736856a9c1d2$__631b35b490846040518263ffffffff1660e01b81526004016108bf9190610ebd565b5f60405180830381865af41580156108d9573d5f803e3d5ffd5b505050506040513d5f823e3d601f19601f820116820180604052508101906109019190611813565b90505f61090d82610b94565b90507f8ded0018aee3555da4abd779e14b4af76bd1dd7caf6ac46b76386b28db137e4e8161093a866109d7565b61094485516109d7565b6040516020016109559291906118ee565b604051602081830303815290604052604051610972929190611971565b60405180910390a18192505050919050565b610990602a60116105e8565b5061099d602a60116104c6565b506109a86005610387565b506109b3600a61070a565b506109be600a610841565b506109c960996101a9565b506109d4609a6101a9565b50565b60605f8203610a1d576040518060400160405280600181526020017f30000000000000000000000000000000000000000000000000000000000000008152509050610b3a565b5f8290505f5b5f8214610a4c578080610a35906119df565b915050600a82610a459190611a53565b9150610a23565b5f8167ffffffffffffffff811115610a6757610a666116d7565b5b6040519080825280601f01601f191660200182016040528015610a995781602001600182028036833780820191505090505b5090505f8290505b5f8614610b3257600181610ab59190611a83565b90505f600a87610ac59190611ab6565b6030610ad19190611ae6565b90505f8160f81b905080848481518110610aee57610aed611b19565b5b60200101907effffffffffffffffffffffffffffffffffffffffffffffffffffffffffffff191690815f1a905350600a88610b299190611a53565b97505050610aa1565b819450505050505b919050565b5f60018311610b5357600182149050610b8e565b5f600190505f600290505b848111610b86578082610b719190611b46565b91508080610b7e906119df565b915050610b5e565b508281149150505b92915050565b5f80825103610ba65760019050610cca565b6001825103610bd3575f825f81518110610bc357610bc2611b19565b5b6020026020010151149050610cca565b6002825103610c27575f825f81518110610bf057610bef611b19565b5b6020026020010151148015610c205750600182600181518110610c1657610c15611b19565b5b6020026020010151145b9050610cca565b5f600290505b8251811015610cc45782600282610c449190611a83565b81518110610c5557610c54611b19565b5b602002602001015183600183610c6b9190611a83565b81518110610c7c57610c7b611b19565b5b6020026020010151610c8e9190611ae6565b838281518110610ca157610ca0611b19565b5b602002602001015114610cb7575f915050610cca565b8080600101915050610c2d565b50600190505b919050565b5f604051905090565b5f80fd5b5f80fd5b5f819050919050565b610cf281610ce0565b8114610cfc575f80fd5b50565b5f81359050610d0d81610ce9565b92915050565b5f60208284031215610d2857610d27610cd8565b5b5f610d3584828501610cff565b91505092915050565b5f8115159050919050565b610d5281610d3e565b82525050565b5f602082019050610d6b5f830184610d49565b92915050565b610d7a81610ce0565b82525050565b5f602082019050610d935f830184610d71565b92915050565b5f8060408385031215610daf57610dae610cd8565b5b5f610dbc85828601610cff565b9250506020610dcd85828601610cff565b9150509250929050565b5f81519050919050565b5f82825260208201905092915050565b5f819050602082019050919050565b610e0981610ce0565b82525050565b5f610e1a8383610e00565b60208301905092915050565b5f602082019050919050565b5f610e3c82610dd7565b610e468185610de1565b9350610e5183610df1565b805f5b83811015610e81578151610e688882610e0f565b9750610e7383610e26565b925050600181019050610e54565b5085935050505092915050565b5f6020820190508181035f830152610ea68184610e32565b905092915050565b610eb781610ce0565b82525050565b5f602082019050610ed05f830184610eae565b92915050565b610edf81610d3e565b8114610ee9575f80fd5b50565b5f81519050610efa81610ed6565b92915050565b5f60208284031215610f1557610f14610cd8565b5b5f610f2284828501610eec565b91505092915050565b5f81905092915050565b7f697341726d7374726f6e672800000000000000000000000000000000000000005f82015250565b5f610f69600c83610f2b565b9150610f7482610f35565b600c82019050919050565b5f81519050919050565b8281835e5f83830152505050565b5f610fa182610f7f565b610fab8185610f2b565b9350610fbb818560208601610f89565b80840191505092915050565b7f29203d20000000000000000000000000000000000000000000000000000000005f82015250565b5f610ffb600483610f2b565b915061100682610fc7565b600482019050919050565b5f61101b82610f5d565b91506110278285610f97565b915061103282610fef565b915061103e8284610f97565b91508190509392505050565b5f82825260208201905092915050565b7f49732041726d7374726f6e6700000000000000000000000000000000000000005f82015250565b5f61108e600c8361104a565b91506110998261105a565b602082019050919050565b5f601f19601f8301169050919050565b5f6110be82610f7f565b6110c8818561104a565b93506110d8818560208601610f89565b6110e1816110a4565b840191505092915050565b5f6060820190508181035f83015261110381611082565b90506111126020830185610d49565b818103604083015261112481846110b4565b90509392505050565b7f496e70757420746f6f206c617267652c20776f756c64206361757365206f76655f8201527f72666c6f77000000000000000000000000000000000000000000000000000000602082015250565b5f61118760258361104a565b91506111928261112d565b604082019050919050565b5f6020820190508181035f8301526111b48161117b565b9050919050565b5f815190506111c981610ce9565b92915050565b5f602082840312156111e4576111e3610cd8565b5b5f6111f1848285016111bb565b91505092915050565b7f666163746f7269616c28000000000000000000000000000000000000000000005f82015250565b5f61122e600a83610f2b565b9150611239826111fa565b600a82019050919050565b5f61124e82611222565b915061125a8285610f97565b915061126582610fef565b91506112718284610f97565b91508190509392505050565b7f466163746f7269616c00000000000000000000000000000000000000000000005f82015250565b5f6112b160098361104a565b91506112bc8261127d565b602082019050919050565b5f6060820190508181035f8301526112de816112a5565b90506112ed6020830185610d49565b81810360408301526112ff81846110b4565b90509392505050565b5f60408201905061131b5f830185610eae565b6113286020830184610eae565b9392505050565b7f6d696e28000000000000000000000000000000000000000000000000000000005f82015250565b5f611363600483610f2b565b915061136e8261132f565b600482019050919050565b7f2c200000000000000000000000000000000000000000000000000000000000005f82015250565b5f6113ad600283610f2b565b91506113b882611379565b600282019050919050565b5f6113cd82611357565b91506113d98286610f97565b91506113e4826113a1565b91506113f08285610f97565b91506113fb82610fef565b91506114078284610f97565b9150819050949350505050565b7f4d696e696d756d000000000000000000000000000000000000000000000000005f82015250565b5f61144860078361104a565b915061145382611414565b602082019050919050565b5f6060820190508181035f8301526114758161143c565b90506114846020830185610d49565b818103604083015261149681846110b4565b90509392505050565b7f6d617828000000000000000000000000000000000000000000000000000000005f82015250565b5f6114d3600483610f2b565b91506114de8261149f565b600482019050919050565b5f6114f3826114c7565b91506114ff8286610f97565b915061150a826113a1565b91506115168285610f97565b915061152182610fef565b915061152d8284610f97565b9150819050949350505050565b7f4d6178696d756d000000000000000000000000000000000000000000000000005f82015250565b5f61156e60078361104a565b91506115798261153a565b602082019050919050565b5f6060820190508181035f83015261159b81611562565b90506115aa6020830185610d49565b81810360408301526115bc81846110b4565b90509392505050565b7f6669626f6e6163636928000000000000000000000000000000000000000000005f82015250565b5f6115f9600a83610f2b565b9150611604826115c5565b600a82019050919050565b5f611619826115ed565b91506116258285610f97565b915061163082610fef565b915061163c8284610f97565b91508190509392505050565b7f4669626f6e6163636900000000000000000000000000000000000000000000005f82015250565b5f61167c60098361104a565b915061168782611648565b602082019050919050565b5f6060820190508181035f8301526116a981611670565b90506116b86020830185610d49565b81810360408301526116ca81846110b4565b90509392505050565b5f80fd5b7f4e487b71000000000000000000000000000000000000000000000000000000005f52604160045260245ffd5b61170d826110a4565b810181811067ffffffffffffffff8211171561172c5761172b6116d7565b5b80604052505050565b5f61173e610ccf565b905061174a8282611704565b919050565b5f67ffffffffffffffff821115611769576117686116d7565b5b602082029050602081019050919050565b5f80fd5b5f61179061178b8461174f565b611735565b905080838252602082019050602084028301858111156117b3576117b261177a565b5b835b818110156117dc57806117c888826111bb565b8452602084019350506020810190506117b5565b5050509392505050565b5f82601f8301126117fa576117f96116d3565b5b815161180a84826020860161177e565b91505092915050565b5f6020828403121561182857611827610cd8565b5b5f82015167ffffffffffffffff81111561184557611844610cdc565b5b611851848285016117e6565b91505092915050565b7f6669626f6e6163636953657269657328000000000000000000000000000000005f82015250565b5f61188e601083610f2b565b91506118998261185a565b601082019050919050565b7f29206c656e677468203d200000000000000000000000000000000000000000005f82015250565b5f6118d8600b83610f2b565b91506118e3826118a4565b600b82019050919050565b5f6118f882611882565b91506119048285610f97565b915061190f826118cc565b915061191b8284610f97565b91508190509392505050565b7f4669626f6e6163636920536572696573000000000000000000000000000000005f82015250565b5f61195b60108361104a565b915061196682611927565b602082019050919050565b5f6060820190508181035f8301526119888161194f565b90506119976020830185610d49565b81810360408301526119a981846110b4565b90509392505050565b7f4e487b71000000000000000000000000000000000000000000000000000000005f52601160045260245ffd5b5f6119e982610ce0565b91507fffffffffffffffffffffffffffffffffffffffffffffffffffffffffffffffff8203611a1b57611a1a6119b2565b5b600182019050919050565b7f4e487b71000000000000000000000000000000000000000000000000000000005f52601260045260245ffd5b5f611a5d82610ce0565b9150611a6883610ce0565b925082611a7857611a77611a26565b5b828204905092915050565b5f611a8d82610ce0565b9150611a9883610ce0565b9250828203905081811115611ab057611aaf6119b2565b5b92915050565b5f611ac082610ce0565b9150611acb83610ce0565b925082611adb57611ada611a26565b5b828206905092915050565b5f611af082610ce0565b9150611afb83610ce0565b9250828201905080821115611b1357611b126119b2565b5b92915050565b7f4e487b71000000000000000000000000000000000000000000000000000000005f52603260045260245ffd5b5f611b5082610ce0565b9150611b5b83610ce0565b9250828202611b6981610ce0565b91508282048414831517611b8057611b7f6119b2565b5b509291505056fea2646970667358221220acba4fd5fd9b05d01e55f21e895c4e724d4700e5637a63a8b2d46ac2de72a87764736f6c634300081a0033",
			"opcodes": "PUSH1 0x80 PUSH1 0x40 MSTORE CALLVALUE DUP1 ISZERO PUSH1 0xE JUMPI PUSH0 DUP1 REVERT JUMPDEST POP PUSH2 0x1BBD DUP1 PUSH2 0x1C PUSH0 CODECOPY PUSH0 RETURN INVALID PUSH1 0x80 PUSH1 0x40 MSTORE CALLVALUE DUP1 ISZERO PUSH2 0xF JUMPI PUSH0 DUP1 REVERT JUMPDEST POP PUSH1 0x4 CALLDATASIZE LT PUSH2 0x7B JUMPI PUSH0 CALLDATALOAD PUSH1 0xE0 SHR DUP1 PUSH4 0x834DB421 GT PUSH2 0x59 JUMPI DUP1 PUSH4 0x834DB421 EQ PUSH2 0x10F JUMPI DUP1 PUSH4 0x8C87BB0A EQ PUSH2 0x13F JUMPI DUP1 PUSH4 0xCE1B8784 EQ PUSH2 0x16F JUMPI DUP1 PUSH4 0xE65E87FB EQ PUSH2 0x19F JUMPI PUSH2 0x7B JUMP JUMPDEST DUP1 PUSH4 0x5D09AD7 EQ PUSH2 0x7F JUMPI DUP1 PUSH4 0x163B0E51 EQ PUSH2 0xAF JUMPI DUP1 PUSH4 0x1ABE5974 EQ PUSH2 0xDF JUMPI JUMPDEST PUSH0 DUP1 REVERT JUMPDEST PUSH2 0x99 PUSH1 0x4 DUP1 CALLDATASIZE SUB DUP2 ADD SWAP1 PUSH2 0x94 SWAP2 SWAP1 PUSH2 0xD13 JUMP JUMPDEST PUSH2 0x1A9 JUMP JUMPDEST PUSH1 0x40 MLOAD PUSH2 0xA6 SWAP2 SWAP1 PUSH2 0xD58 JUMP JUMPDEST PUSH1 0x40 MLOAD DUP1 SWAP2 SUB SWAP1 RETURN JUMPDEST PUSH2 0xC9 PUSH1 0x4 DUP1 CALLDATASIZE SUB DUP2 ADD SWAP1 PUSH2 0xC4 SWAP2 SWAP1 PUSH2 0xD13 JUMP JUMPDEST PUSH2 0x387 JUMP JUMPDEST PUSH1 0x40 MLOAD PUSH2 0xD6 SWAP2 SWAP1 PUSH2 0xD80 JUMP JUMPDEST PUSH1 0x40 MLOAD DUP1 SWAP2 SUB SWAP1 RETURN JUMPDEST PUSH2 0xF9 PUSH1 0x4 DUP1 CALLDATASIZE SUB DUP2 ADD SWAP1 PUSH2 0xF4 SWAP2 SWAP1 PUSH2 0xD99 JUMP JUMPDEST PUSH2 0x4C6 JUMP JUMPDEST PUSH1 0x40 MLOAD PUSH2 0x106 SWAP2 SWAP1 PUSH2 0xD80 JUMP JUMPDEST PUSH1 0x40 MLOAD DUP1 SWAP2 SUB SWAP1 RETURN JUMPDEST PUSH2 0x129 PUSH1 0x4 DUP1 CALLDATASIZE SUB DUP2 ADD SWAP1 PUSH2 0x124 SWAP2 SWAP1 PUSH2 0xD99 JUMP JUMPDEST PUSH2 0x5E8 JUMP JUMPDEST PUSH1 0x40 MLOAD PUSH2 0x136 SWAP2 SWAP1 PUSH2 0xD80 JUMP JUMPDEST PUSH1 0x40 MLOAD DUP1 SWAP2 SUB SWAP1 RETURN JUMPDEST PUSH2 0x159 PUSH1 0x4 DUP1 CALLDATASIZE SUB DUP2 ADD SWAP1 PUSH2 0x154 SWAP2 SWAP1 PUSH2 0xD13 JUMP JUMPDEST PUSH2 0x70A JUMP JUMPDEST PUSH1 0x40 MLOAD PUSH2 0x166 SWAP2 SWAP1 PUSH2 0xD80 JUMP JUMPDEST PUSH1 0x40 MLOAD DUP1 SWAP2 SUB SWAP1 RETURN JUMPDEST PUSH2 0x189 PUSH1 0x4 DUP1 CALLDATASIZE SUB DUP2 ADD SWAP1 PUSH2 0x184 SWAP2 SWAP1 PUSH2 0xD13 JUMP JUMPDEST PUSH2 0x841 JUMP JUMPDEST PUSH1 0x40 MLOAD PUSH2 0x196 SWAP2 SWAP1 PUSH2 0xE8E JUMP JUMPDEST PUSH1 0x40 MLOAD DUP1 SWAP2 SUB SWAP1 RETURN JUMPDEST PUSH2 0x1A7 PUSH2 0x984 JUMP JUMPDEST STOP JUMPDEST PUSH0 DUP1 PUSH20 0x0 PUSH4 0xFE459D20 DUP5 PUSH1 0x40 MLOAD DUP3 PUSH4 0xFFFFFFFF AND PUSH1 0xE0 SHL DUP2 MSTORE PUSH1 0x4 ADD PUSH2 0x1E2 SWAP2 SWAP1 PUSH2 0xEBD JUMP JUMPDEST PUSH1 0x20 PUSH1 0x40 MLOAD DUP1 DUP4 SUB DUP2 DUP7 GAS DELEGATECALL ISZERO DUP1 ISZERO PUSH2 0x1FD JUMPI RETURNDATASIZE PUSH0 DUP1 RETURNDATACOPY RETURNDATASIZE PUSH0 REVERT JUMPDEST POP POP POP POP PUSH1 0x40 MLOAD RETURNDATASIZE PUSH1 0x1F NOT PUSH1 0x1F DUP3 ADD AND DUP3 ADD DUP1 PUSH1 0x40 MSTORE POP DUP2 ADD SWAP1 PUSH2 0x221 SWAP2 SWAP1 PUSH2 0xF00 JUMP JUMPDEST SWAP1 POP PUSH0 PUSH1 0x1 SWAP1 POP PUSH1 0x1 DUP5 EQ DUP1 PUSH2 0x237 JUMPI POP PUSH1 0x99 DUP5 EQ JUMPDEST DUP1 PUSH2 0x243 JUMPI POP PUSH2 0x172 DUP5 EQ JUMPDEST DUP1 PUSH2 0x24F JUMPI POP PUSH2 0x173 DUP5 EQ JUMPDEST DUP1 PUSH2 0x25B JUMPI POP PUSH2 0x197 DUP5 EQ JUMPDEST ISZERO PUSH2 0x26F JUMPI PUSH1 0x1 ISZERO ISZERO DUP3 ISZERO ISZERO EQ SWAP1 POP PUSH2 0x2A5 JUMP JUMPDEST PUSH1 0xA DUP5 EQ DUP1 PUSH2 0x27E JUMPI POP PUSH1 0x64 DUP5 EQ JUMPDEST DUP1 PUSH2 0x289 JUMPI POP PUSH1 0xC8 DUP5 EQ JUMPDEST DUP1 PUSH2 0x295 JUMPI POP PUSH2 0x1F4 DUP5 EQ JUMPDEST ISZERO PUSH2 0x2A4 JUMPI PUSH0 ISZERO ISZERO DUP3 ISZERO ISZERO EQ SWAP1 POP JUMPDEST JUMPDEST PUSH32 0x8DED0018AEE3555DA4ABD779E14B4AF76BD1DD7CAF6AC46B76386B28DB137E4E DUP2 PUSH2 0x2D0 DUP7 PUSH2 0x9D7 JUMP JUMPDEST DUP5 PUSH2 0x310 JUMPI PUSH1 0x40 MLOAD DUP1 PUSH1 0x40 ADD PUSH1 0x40 MSTORE DUP1 PUSH1 0x5 DUP2 MSTORE PUSH1 0x20 ADD PUSH32 0x66616C7365000000000000000000000000000000000000000000000000000000 DUP2 MSTORE POP PUSH2 0x347 JUMP JUMPDEST PUSH1 0x40 MLOAD DUP1 PUSH1 0x40 ADD PUSH1 0x40 MSTORE DUP1 PUSH1 0x4 DUP2 MSTORE PUSH1 0x20 ADD PUSH32 0x7472756500000000000000000000000000000000000000000000000000000000 DUP2 MSTORE POP JUMPDEST PUSH1 0x40 MLOAD PUSH1 0x20 ADD PUSH2 0x358 SWAP3 SWAP2 SWAP1 PUSH2 0x1011 JUMP JUMPDEST PUSH1 0x40 MLOAD PUSH1 0x20 DUP2 DUP4 SUB SUB DUP2 MSTORE SWAP1 PUSH1 0x40 MSTORE PUSH1 0x40 MLOAD PUSH2 0x375 SWAP3 SWAP2 SWAP1 PUSH2 0x10EC JUMP JUMPDEST PUSH1 0x40 MLOAD DUP1 SWAP2 SUB SWAP1 LOG1 DUP2 SWAP3 POP POP POP SWAP2 SWAP1 POP JUMP JUMPDEST PUSH0 PUSH1 0x14 DUP3 GT ISZERO PUSH2 0x3CC JUMPI PUSH1 0x40 MLOAD PUSH32 0x8C379A000000000000000000000000000000000000000000000000000000000 DUP2 MSTORE PUSH1 0x4 ADD PUSH2 0x3C3 SWAP1 PUSH2 0x119D JUMP JUMPDEST PUSH1 0x40 MLOAD DUP1 SWAP2 SUB SWAP1 REVERT JUMPDEST PUSH0 PUSH20 0x0 PUSH4 0x83714834 DUP5 PUSH1 0x40 MLOAD DUP3 PUSH4 0xFFFFFFFF AND PUSH1 0xE0 SHL DUP2 MSTORE PUSH1 0x4 ADD PUSH2 0x404 SWAP2 SWAP1 PUSH2 0xEBD JUMP JUMPDEST PUSH1 0x20 PUSH1 0x40 MLOAD DUP1 DUP4 SUB DUP2 DUP7 GAS DELEGATECALL ISZERO DUP1 ISZERO PUSH2 0x41F JUMPI RETURNDATASIZE PUSH0 DUP1 RETURNDATACOPY RETURNDATASIZE PUSH0 REVERT JUMPDEST POP POP POP POP PUSH1 0x40 MLOAD RETURNDATASIZE PUSH1 0x1F NOT PUSH1 0x1F DUP3 ADD AND DUP3 ADD DUP1 PUSH1 0x40 MSTORE POP DUP2 ADD SWAP1 PUSH2 0x443 SWAP2 SWAP1 PUSH2 0x11CF JUMP JUMPDEST SWAP1 POP PUSH0 PUSH2 0x450 DUP5 DUP4 PUSH2 0xB3F JUMP JUMPDEST SWAP1 POP PUSH32 0x8DED0018AEE3555DA4ABD779E14B4AF76BD1DD7CAF6AC46B76386B28DB137E4E DUP2 PUSH2 0x47D DUP7 PUSH2 0x9D7 JUMP JUMPDEST PUSH2 0x486 DUP6 PUSH2 0x9D7 JUMP JUMPDEST PUSH1 0x40 MLOAD PUSH1 0x20 ADD PUSH2 0x497 SWAP3 SWAP2 SWAP1 PUSH2 0x1244 JUMP JUMPDEST PUSH1 0x40 MLOAD PUSH1 0x20 DUP2 DUP4 SUB SUB DUP2 MSTORE SWAP1 PUSH1 0x40 MSTORE PUSH1 0x40 MLOAD PUSH2 0x4B4 SWAP3 SWAP2 SWAP1 PUSH2 0x12C7 JUMP JUMPDEST PUSH1 0x40 MLOAD DUP1 SWAP2 SUB SWAP1 LOG1 DUP2 SWAP3 POP POP POP SWAP2 SWAP1 POP JUMP JUMPDEST PUSH0 DUP1 PUSH20 0x0 PUSH4 0x7AE2B5C7 DUP6 DUP6 PUSH1 0x40 MLOAD DUP4 PUSH4 0xFFFFFFFF AND PUSH1 0xE0 SHL DUP2 MSTORE PUSH1 0x4 ADD PUSH2 0x501 SWAP3 SWAP2 SWAP1 PUSH2 0x1308 JUMP JUMPDEST PUSH1 0x20 PUSH1 0x40 MLOAD DUP1 DUP4 SUB DUP2 DUP7 GAS DELEGATECALL ISZERO DUP1 ISZERO PUSH2 0x51C JUMPI RETURNDATASIZE PUSH0 DUP1 RETURNDATACOPY RETURNDATASIZE PUSH0 REVERT JUMPDEST POP POP POP POP PUSH1 0x40 MLOAD RETURNDATASIZE PUSH1 0x1F NOT PUSH1 0x1F DUP3 ADD AND DUP3 ADD DUP1 PUSH1 0x40 MSTORE POP DUP2 ADD SWAP1 PUSH2 0x540 SWAP2 SWAP1 PUSH2 0x11CF JUMP JUMPDEST SWAP1 POP PUSH0 DUP4 DUP6 GT ISZERO DUP1 ISZERO PUSH2 0x552 JUMPI POP DUP5 DUP3 EQ JUMPDEST DUP1 PUSH2 0x567 JUMPI POP DUP5 DUP5 LT DUP1 ISZERO PUSH2 0x566 JUMPI POP DUP4 DUP3 EQ JUMPDEST JUMPDEST SWAP1 POP PUSH32 0x8DED0018AEE3555DA4ABD779E14B4AF76BD1DD7CAF6AC46B76386B28DB137E4E DUP2 PUSH2 0x594 DUP8 PUSH2 0x9D7 JUMP JUMPDEST PUSH2 0x59D DUP8 PUSH2 0x9D7 JUMP JUMPDEST PUSH2 0x5A6 DUP7 PUSH2 0x9D7 JUMP JUMPDEST PUSH1 0x40 MLOAD PUSH1 0x20 ADD PUSH2 0x5B8 SWAP4 SWAP3 SWAP2 SWAP1 PUSH2 0x13C3 JUMP JUMPDEST PUSH1 0x40 MLOAD PUSH1 0x20 DUP2 DUP4 SUB SUB DUP2 MSTORE SWAP1 PUSH1 0x40 MSTORE PUSH1 0x40 MLOAD PUSH2 0x5D5 SWAP3 SWAP2 SWAP1 PUSH2 0x145E JUMP JUMPDEST PUSH1 0x40 MLOAD DUP1 SWAP2 SUB SWAP1 LOG1 DUP2 SWAP3 POP POP POP SWAP3 SWAP2 POP POP JUMP JUMPDEST PUSH0 DUP1 PUSH20 0x0 PUSH4 0x6D5433E6 DUP6 DUP6 PUSH1 0x40 MLOAD DUP4 PUSH4 0xFFFFFFFF AND PUSH1 0xE0 SHL DUP2 MSTORE PUSH1 0x4 ADD PUSH2 0x623 SWAP3 SWAP2 SWAP1 PUSH2 0x1308 JUMP JUMPDEST PUSH1 0x20 PUSH1 0x40 MLOAD DUP1 DUP4 SUB DUP2 DUP7 GAS DELEGATECALL ISZERO DUP1 ISZERO PUSH2 0x63E JUMPI RETURNDATASIZE PUSH0 DUP1 RETURNDATACOPY RETURNDATASIZE PUSH0 REVERT JUMPDEST POP POP POP POP PUSH1 0x40 MLOAD RETURNDATASIZE PUSH1 0x1F NOT PUSH1 0x1F DUP3 ADD AND DUP3 ADD DUP1 PUSH1 0x40 MSTORE POP DUP2 ADD SWAP1 PUSH2 0x662 SWAP2 SWAP1 PUSH2 0x11CF JUMP JUMPDEST SWAP1 POP PUSH0 DUP4 DUP6 LT ISZERO DUP1 ISZERO PUSH2 0x674 JUMPI POP DUP5 DUP3 EQ JUMPDEST DUP1 PUSH2 0x689 JUMPI POP DUP5 DUP5 GT DUP1 ISZERO PUSH2 0x688 JUMPI POP DUP4 DUP3 EQ JUMPDEST JUMPDEST SWAP1 POP PUSH32 0x8DED0018AEE3555DA4ABD779E14B4AF76BD1DD7CAF6AC46B76386B28DB137E4E DUP2 PUSH2 0x6B6 DUP8 PUSH2 0x9D7 JUMP JUMPDEST PUSH2 0x6BF DUP8 PUSH2 0x9D7 JUMP JUMPDEST PUSH2 0x6C8 DUP7 PUSH2 0x9D7 JUMP JUMPDEST PUSH1 0x40 MLOAD PUSH1 0x20 ADD PUSH2 0x6DA SWAP4 SWAP3 SWAP2 SWAP1 PUSH2 0x14E9 JUMP JUMPDEST PUSH1 0x40 MLOAD PUSH1 0x20 DUP2 DUP4 SUB SUB DUP2 MSTORE SWAP1 PUSH1 0x40 MSTORE PUSH1 0x40 MLOAD PUSH2 0x6F7 SWAP3 SWAP2 SWAP1 PUSH2 0x1584 JUMP JUMPDEST PUSH1 0x40 MLOAD DUP1 SWAP2 SUB SWAP1 LOG1 DUP2 SWAP3 POP POP POP SWAP3 SWAP2 POP POP JUMP JUMPDEST PUSH0 PUSH1 0x4E DUP3 GT ISZERO PUSH2 0x74F JUMPI PUSH1 0x40 MLOAD PUSH32 0x8C379A000000000000000000000000000000000000000000000000000000000 DUP2 MSTORE PUSH1 0x4 ADD PUSH2 0x746 SWAP1 PUSH2 0x119D JUMP JUMPDEST PUSH1 0x40 MLOAD DUP1 SWAP2 SUB SWAP1 REVERT JUMPDEST PUSH0 PUSH20 0x0 PUSH4 0x61047FF4 DUP5 PUSH1 0x40 MLOAD DUP3 PUSH4 0xFFFFFFFF AND PUSH1 0xE0 SHL DUP2 MSTORE PUSH1 0x4 ADD PUSH2 0x787 SWAP2 SWAP1 PUSH2 0xEBD JUMP JUMPDEST PUSH1 0x20 PUSH1 0x40 MLOAD DUP1 DUP4 SUB DUP2 DUP7 GAS DELEGATECALL ISZERO DUP1 ISZERO PUSH2 0x7A2 JUMPI RETURNDATASIZE PUSH0 DUP1 RETURNDATACOPY RETURNDATASIZE PUSH0 REVERT JUMPDEST POP POP POP POP PUSH1 0x40 MLOAD RETURNDATASIZE PUSH1 0x1F NOT PUSH1 0x1F DUP3 ADD AND DUP3 ADD DUP1 PUSH1 0x40 MSTORE POP DUP2 ADD SWAP1 PUSH2 0x7C6 SWAP2 SWAP1 PUSH2 0x11CF JUMP JUMPDEST SWAP1 POP PUSH0 PUSH1 0x1 SWAP1 POP PUSH32 0x8DED0018AEE3555DA4ABD779E14B4AF76BD1DD7CAF6AC46B76386B28DB137E4E DUP2 PUSH2 0x7F8 DUP7 PUSH2 0x9D7 JUMP JUMPDEST PUSH2 0x801 DUP6 PUSH2 0x9D7 JUMP JUMPDEST PUSH1 0x40 MLOAD PUSH1 0x20 ADD PUSH2 0x812 SWAP3 SWAP2 SWAP1 PUSH2 0x160F JUMP JUMPDEST PUSH1 0x40 MLOAD PUSH1 0x20 DUP2 DUP4 SUB SUB DUP2 MSTORE SWAP1 PUSH1 0x40 MSTORE PUSH1 0x40 MLOAD PUSH2 0x82F SWAP3 SWAP2 SWAP1 PUSH2 0x1692 JUMP JUMPDEST PUSH1 0x40 MLOAD DUP1 SWAP2 SUB SWAP1 LOG1 DUP2 SWAP3 POP POP POP SWAP2 SWAP1 POP JUMP JUMPDEST PUSH1 0x60 PUSH1 0x4E DUP3 GT ISZERO PUSH2 0x887 JUMPI PUSH1 0x40 MLOAD PUSH32 0x8C379A000000000000000000000000000000000000000000000000000000000 DUP2 MSTORE PUSH1 0x4 ADD PUSH2 0x87E SWAP1 PUSH2 0x119D JUMP JUMPDEST PUSH1 0x40 MLOAD DUP1 SWAP2 SUB SWAP1 REVERT JUMPDEST PUSH0 PUSH20 0x0 PUSH4 0x1B35B490 DUP5 PUSH1 0x40 MLOAD DUP3 PUSH4 0xFFFFFFFF AND PUSH1 0xE0 SHL DUP2 MSTORE PUSH1 0x4 ADD PUSH2 0x8BF SWAP2 SWAP1 PUSH2 0xEBD JUMP JUMPDEST PUSH0 PUSH1 0x40 MLOAD DUP1 DUP4 SUB DUP2 DUP7 GAS DELEGATECALL ISZERO DUP1 ISZERO PUSH2 0x8D9 JUMPI RETURNDATASIZE PUSH0 DUP1 RETURNDATACOPY RETURNDATASIZE PUSH0 REVERT JUMPDEST POP POP POP POP PUSH1 0x40 MLOAD RETURNDATASIZE PUSH0 DUP3 RETURNDATACOPY RETURNDATASIZE PUSH1 0x1F NOT PUSH1 0x1F DUP3 ADD AND DUP3 ADD DUP1 PUSH1 0x40 MSTORE POP DUP2 ADD SWAP1 PUSH2 0x901 SWAP2 SWAP1 PUSH2 0x1813 JUMP JUMPDEST SWAP1 POP PUSH0 PUSH2 0x90D DUP3 PUSH2 0xB94 JUMP JUMPDEST SWAP1 POP PUSH32 0x8DED0018AEE3555DA4ABD779E14B4AF76BD1DD7CAF6AC46B76386B28DB137E4E DUP2 PUSH2 0x93A DUP7 PUSH2 0x9D7 JUMP JUMPDEST PUSH2 0x944 DUP6 MLOAD PUSH2 0x9D7 JUMP JUMPDEST PUSH1 0x40 MLOAD PUSH1 0x20 ADD PUSH2 0x955 SWAP3 SWAP2 SWAP1 PUSH2 0x18EE JUMP JUMPDEST PUSH1 0x40 MLOAD PUSH1 0x20 DUP2 DUP4 SUB SUB DUP2 MSTORE SWAP1 PUSH1 0x40 MSTORE PUSH1 0x40 MLOAD PUSH2 0x972 SWAP3 SWAP2 SWAP1 PUSH2 0x1971 JUMP JUMPDEST PUSH1 0x40 MLOAD DUP1 SWAP2 SUB SWAP1 LOG1 DUP2 SWAP3 POP POP POP SWAP2 SWAP1 POP JUMP JUMPDEST PUSH2 0x990 PUSH1 0x2A PUSH1 0x11 PUSH2 0x5E8 JUMP JUMPDEST POP PUSH2 0x99D PUSH1 0x2A PUSH1 0x11 PUSH2 0x4C6 JUMP JUMPDEST POP PUSH2 0x9A8 PUSH1 0x5 PUSH2 0x387 JUMP JUMPDEST POP PUSH2 0x9B3 PUSH1 0xA PUSH2 0x70A JUMP JUMPDEST POP PUSH2 0x9BE PUSH1 0xA PUSH2 0x841 JUMP JUMPDEST POP PUSH2 0x9C9 PUSH1 0x99 PUSH2 0x1A9 JUMP JUMPDEST POP PUSH2 0x9D4 PUSH1 0x9A PUSH2 0x1A9 JUMP JUMPDEST POP JUMP JUMPDEST PUSH1 0x60 PUSH0 DUP3 SUB PUSH2 0xA1D JUMPI PUSH1 0x40 MLOAD DUP1 PUSH1 0x40 ADD PUSH1 0x40 MSTORE DUP1 PUSH1 0x1 DUP2 MSTORE PUSH1 0x20 ADD PUSH32 0x3000000000000000000000000000000000000000000000000000000000000000 DUP2 MSTORE POP SWAP1 POP PUSH2 0xB3A JUMP JUMPDEST PUSH0 DUP3 SWAP1 POP PUSH0 JUMPDEST PUSH0 DUP3 EQ PUSH2 0xA4C JUMPI DUP1 DUP1 PUSH2 0xA35 SWAP1 PUSH2 0x19DF JUMP JUMPDEST SWAP2 POP POP PUSH1 0xA DUP3 PUSH2 0xA45 SWAP2 SWAP1 PUSH2 0x1A53 JUMP JUMPDEST SWAP2 POP PUSH2 0xA23 JUMP JUMPDEST PUSH0 DUP2 PUSH8 0xFFFFFFFFFFFFFFFF DUP2 GT ISZERO PUSH2 0xA67 JUMPI PUSH2 0xA66 PUSH2 0x16D7 JUMP JUMPDEST JUMPDEST PUSH1 0x40 MLOAD SWAP1 DUP1 DUP3 MSTORE DUP1 PUSH1 0x1F ADD PUSH1 0x1F NOT AND PUSH1 0x20 ADD DUP3 ADD PUSH1 0x40 MSTORE DUP1 ISZERO PUSH2 0xA99 JUMPI DUP2 PUSH1 0x20 ADD PUSH1 0x1 DUP3 MUL DUP1 CALLDATASIZE DUP4 CALLDATACOPY DUP1 DUP3 ADD SWAP2 POP POP SWAP1 POP JUMPDEST POP SWAP1 POP PUSH0 DUP3 SWAP1 POP JUMPDEST PUSH0 DUP7 EQ PUSH2 0xB32 JUMPI PUSH1 0x1 DUP2 PUSH2 0xAB5 SWAP2 SWAP1 PUSH2 0x1A83 JUMP JUMPDEST SWAP1 POP PUSH0 PUSH1 0xA DUP8 PUSH2 0xAC5 SWAP2 SWAP1 PUSH2 0x1AB6 JUMP JUMPDEST PUSH1 0x30 PUSH2 0xAD1 SWAP2 SWAP1 PUSH2 0x1AE6 JUMP JUMPDEST SWAP1 POP PUSH0 DUP2 PUSH1 0xF8 SHL SWAP1 POP DUP1 DUP5 DUP5 DUP2 MLOAD DUP2 LT PUSH2 0xAEE JUMPI PUSH2 0xAED PUSH2 0x1B19 JUMP JUMPDEST JUMPDEST PUSH1 0x20 ADD ADD SWAP1 PUSH31 0xFFFFFFFFFFFFFFFFFFFFFFFFFFFFFFFFFFFFFFFFFFFFFFFFFFFFFFFFFFFFFF NOT AND SWAP1 DUP2 PUSH0 BYTE SWAP1 MSTORE8 POP PUSH1 0xA DUP9 PUSH2 0xB29 SWAP2 SWAP1 PUSH2 0x1A53 JUMP JUMPDEST SWAP8 POP POP POP PUSH2 0xAA1 JUMP JUMPDEST DUP2 SWAP5 POP POP POP POP POP JUMPDEST SWAP2 SWAP1 POP JUMP JUMPDEST PUSH0 PUSH1 0x1 DUP4 GT PUSH2 0xB53 JUMPI PUSH1 0x1 DUP3 EQ SWAP1 POP PUSH2 0xB8E JUMP JUMPDEST PUSH0 PUSH1 0x1 SWAP1 POP PUSH0 PUSH1 0x2 SWAP1 POP JUMPDEST DUP5 DUP2 GT PUSH2 0xB86 JUMPI DUP1 DUP3 PUSH2 0xB71 SWAP2 SWAP1 PUSH2 0x1B46 JUMP JUMPDEST SWAP2 POP DUP1 DUP1 PUSH2 0xB7E SWAP1 PUSH2 0x19DF JUMP JUMPDEST SWAP2 POP POP PUSH2 0xB5E JUMP JUMPDEST POP DUP3 DUP2 EQ SWAP2 POP POP JUMPDEST SWAP3 SWAP2 POP POP JUMP JUMPDEST PUSH0 DUP1 DUP3 MLOAD SUB PUSH2 0xBA6 JUMPI PUSH1 0x1 SWAP1 POP PUSH2 0xCCA JUMP JUMPDEST PUSH1 0x1 DUP3 MLOAD SUB PUSH2 0xBD3 JUMPI PUSH0 DUP3 PUSH0 DUP2 MLOAD DUP2 LT PUSH2 0xBC3 JUMPI PUSH2 0xBC2 PUSH2 0x1B19 JUMP JUMPDEST JUMPDEST PUSH1 0x20 MUL PUSH1 0x20 ADD ADD MLOAD EQ SWAP1 POP PUSH2 0xCCA JUMP JUMPDEST PUSH1 0x2 DUP3 MLOAD SUB PUSH2 0xC27 JUMPI PUSH0 DUP3 PUSH0 DUP2 MLOAD DUP2 LT PUSH2 0xBF0 JUMPI PUSH2 0xBEF PUSH2 0x1B19 JUMP JUMPDEST JUMPDEST PUSH1 0x20 MUL PUSH1 0x20 ADD ADD MLOAD EQ DUP1 ISZERO PUSH2 0xC20 JUMPI POP PUSH1 0x1 DUP3 PUSH1 0x1 DUP2 MLOAD DUP2 LT PUSH2 0xC16 JUMPI PUSH2 0xC15 PUSH2 0x1B19 JUMP JUMPDEST JUMPDEST PUSH1 0x20 MUL PUSH1 0x20 ADD ADD MLOAD EQ JUMPDEST SWAP1 POP PUSH2 0xCCA JUMP JUMPDEST PUSH0 PUSH1 0x2 SWAP1 POP JUMPDEST DUP3 MLOAD DUP2 LT ISZERO PUSH2 0xCC4 JUMPI DUP3 PUSH1 0x2 DUP3 PUSH2 0xC44 SWAP2 SWAP1 PUSH2 0x1A83 JUMP JUMPDEST DUP2 MLOAD DUP2 LT PUSH2 0xC55 JUMPI PUSH2 0xC54 PUSH2 0x1B19 JUMP JUMPDEST JUMPDEST PUSH1 0x20 MUL PUSH1 0x20 ADD ADD MLOAD DUP4 PUSH1 0x1 DUP4 PUSH2 0xC6B SWAP2 SWAP1 PUSH2 0x1A83 JUMP JUMPDEST DUP2 MLOAD DUP2 LT PUSH2 0xC7C JUMPI PUSH2 0xC7B PUSH2 0x1B19 JUMP JUMPDEST JUMPDEST PUSH1 0x20 MUL PUSH1 0x20 ADD ADD MLOAD PUSH2 0xC8E SWAP2 SWAP1 PUSH2 0x1AE6 JUMP JUMPDEST DUP4 DUP3 DUP2 MLOAD DUP2 LT PUSH2 0xCA1 JUMPI PUSH2 0xCA0 PUSH2 0x1B19 JUMP JUMPDEST JUMPDEST PUSH1 0x20 MUL PUSH1 0x20 ADD ADD MLOAD EQ PUSH2 0xCB7 JUMPI PUSH0 SWAP2 POP POP PUSH2 0xCCA JUMP JUMPDEST DUP1 DUP1 PUSH1 0x1 ADD SWAP2 POP POP PUSH2 0xC2D JUMP JUMPDEST POP PUSH1 0x1 SWAP1 POP JUMPDEST SWAP2 SWAP1 POP JUMP JUMPDEST PUSH0 PUSH1 0x40 MLOAD SWAP1 POP SWAP1 JUMP JUMPDEST PUSH0 DUP1 REVERT JUMPDEST PUSH0 DUP1 REVERT JUMPDEST PUSH0 DUP2 SWAP1 POP SWAP2 SWAP1 POP JUMP JUMPDEST PUSH2 0xCF2 DUP2 PUSH2 0xCE0 JUMP JUMPDEST DUP2 EQ PUSH2 0xCFC JUMPI PUSH0 DUP1 REVERT JUMPDEST POP JUMP JUMPDEST PUSH0 DUP2 CALLDATALOAD SWAP1 POP PUSH2 0xD0D DUP2 PUSH2 0xCE9 JUMP JUMPDEST SWAP3 SWAP2 POP POP JUMP JUMPDEST PUSH0 PUSH1 0x20 DUP3 DUP5 SUB SLT ISZERO PUSH2 0xD28 JUMPI PUSH2 0xD27 PUSH2 0xCD8 JUMP JUMPDEST JUMPDEST PUSH0 PUSH2 0xD35 DUP5 DUP3 DUP6 ADD PUSH2 0xCFF JUMP JUMPDEST SWAP2 POP POP SWAP3 SWAP2 POP POP JUMP JUMPDEST PUSH0 DUP2 ISZERO ISZERO SWAP1 POP SWAP2 SWAP1 POP JUMP JUMPDEST PUSH2 0xD52 DUP2 PUSH2 0xD3E JUMP JUMPDEST DUP3 MSTORE POP POP JUMP JUMPDEST PUSH0 PUSH1 0x20 DUP3 ADD SWAP1 POP PUSH2 0xD6B PUSH0 DUP4 ADD DUP5 PUSH2 0xD49 JUMP JUMPDEST SWAP3 SWAP2 POP POP JUMP JUMPDEST PUSH2 0xD7A DUP2 PUSH2 0xCE0 JUMP JUMPDEST DUP3 MSTORE POP POP JUMP JUMPDEST PUSH0 PUSH1 0x20 DUP3 ADD SWAP1 POP PUSH2 0xD93 PUSH0 DUP4 ADD DUP5 PUSH2 0xD71 JUMP JUMPDEST SWAP3 SWAP2 POP POP JUMP JUMPDEST PUSH0 DUP1 PUSH1 0x40 DUP4 DUP6 SUB SLT ISZERO PUSH2 0xDAF JUMPI PUSH2 0xDAE PUSH2 0xCD8 JUMP JUMPDEST JUMPDEST PUSH0 PUSH2 0xDBC DUP6 DUP3 DUP7 ADD PUSH2 0xCFF JUMP JUMPDEST SWAP3 POP POP PUSH1 0x20 PUSH2 0xDCD DUP6 DUP3 DUP7 ADD PUSH2 0xCFF JUMP JUMPDEST SWAP2 POP POP SWAP3 POP SWAP3 SWAP1 POP JUMP JUMPDEST PUSH0 DUP2 MLOAD SWAP1 POP SWAP2 SWAP1 POP JUMP JUMPDEST PUSH0 DUP3 DUP3 MSTORE PUSH1 0x20 DUP3 ADD SWAP1 POP SWAP3 SWAP2 POP POP JUMP JUMPDEST PUSH0 DUP2 SWAP1 POP PUSH1 0x20 DUP3 ADD SWAP1 POP SWAP2 SWAP1 POP JUMP JUMPDEST PUSH2 0xE09 DUP2 PUSH2 0xCE0 JUMP JUMPDEST DUP3 MSTORE POP POP JUMP JUMPDEST PUSH0 PUSH2 0xE1A DUP4 DUP4 PUSH2 0xE00 JUMP JUMPDEST PUSH1 0x20 DUP4 ADD SWAP1 POP SWAP3 SWAP2 POP POP JUMP JUMPDEST PUSH0 PUSH1 0x20 DUP3 ADD SWAP1 POP SWAP2 SWAP1 POP JUMP JUMPDEST PUSH0 PUSH2 0xE3C DUP3 PUSH2 0xDD7 JUMP JUMPDEST PUSH2 0xE46 DUP2 DUP6 PUSH2 0xDE1 JUMP JUMPDEST SWAP4 POP PUSH2 0xE51 DUP4 PUSH2 0xDF1 JUMP JUMPDEST DUP1 PUSH0 JUMPDEST DUP4 DUP2 LT ISZERO PUSH2 0xE81 JUMPI DUP2 MLOAD PUSH2 0xE68 DUP9 DUP3 PUSH2 0xE0F JUMP JUMPDEST SWAP8 POP PUSH2 0xE73 DUP4 PUSH2 0xE26 JUMP JUMPDEST SWAP3 POP POP PUSH1 0x1 DUP2 ADD SWAP1 POP PUSH2 0xE54 JUMP JUMPDEST POP DUP6 SWAP4 POP POP POP POP SWAP3 SWAP2 POP POP JUMP JUMPDEST PUSH0 PUSH1 0x20 DUP3 ADD SWAP1 POP DUP2 DUP2 SUB PUSH0 DUP4 ADD MSTORE PUSH2 0xEA6 DUP2 DUP5 PUSH2 0xE32 JUMP JUMPDEST SWAP1 POP SWAP3 SWAP2 POP POP JUMP JUMPDEST PUSH2 0xEB7 DUP2 PUSH2 0xCE0 JUMP JUMPDEST DUP3 MSTORE POP POP JUMP JUMPDEST PUSH0 PUSH1 0x20 DUP3 ADD SWAP1 POP PUSH2 0xED0 PUSH0 DUP4 ADD DUP5 PUSH2 0xEAE JUMP JUMPDEST SWAP3 SWAP2 POP POP JUMP JUMPDEST PUSH2 0xEDF DUP2 PUSH2 0xD3E JUMP JUMPDEST DUP2 EQ PUSH2 0xEE9 JUMPI PUSH0 DUP1 REVERT JUMPDEST POP JUMP JUMPDEST PUSH0 DUP2 MLOAD SWAP1 POP PUSH2 0xEFA DUP2 PUSH2 0xED6 JUMP JUMPDEST SWAP3 SWAP2 POP POP JUMP JUMPDEST PUSH0 PUSH1 0x20 DUP3 DUP5 SUB SLT ISZERO PUSH2 0xF15 JUMPI PUSH2 0xF14 PUSH2 0xCD8 JUMP JUMPDEST JUMPDEST PUSH0 PUSH2 0xF22 DUP5 DUP3 DUP6 ADD PUSH2 0xEEC JUMP JUMPDEST SWAP2 POP POP SWAP3 SWAP2 POP POP JUMP JUMPDEST PUSH0 DUP2 SWAP1 POP SWAP3 SWAP2 POP POP JUMP JUMPDEST PUSH32 0x697341726D7374726F6E67280000000000000000000000000000000000000000 PUSH0 DUP3 ADD MSTORE POP JUMP JUMPDEST PUSH0 PUSH2 0xF69 PUSH1 0xC DUP4 PUSH2 0xF2B JUMP JUMPDEST SWAP2 POP PUSH2 0xF74 DUP3 PUSH2 0xF35 JUMP JUMPDEST PUSH1 0xC DUP3 ADD SWAP1 POP SWAP2 SWAP1 POP JUMP JUMPDEST PUSH0 DUP2 MLOAD SWAP1 POP SWAP2 SWAP1 POP JUMP JUMPDEST DUP3 DUP2 DUP4 MCOPY PUSH0 DUP4 DUP4 ADD MSTORE POP POP POP JUMP JUMPDEST PUSH0 PUSH2 0xFA1 DUP3 PUSH2 0xF7F JUMP JUMPDEST PUSH2 0xFAB DUP2 DUP6 PUSH2 0xF2B JUMP JUMPDEST SWAP4 POP PUSH2 0xFBB DUP2 DUP6 PUSH1 0x20 DUP7 ADD PUSH2 0xF89 JUMP JUMPDEST DUP1 DUP5 ADD SWAP2 POP POP SWAP3 SWAP2 POP POP JUMP JUMPDEST PUSH32 0x29203D2000000000000000000000000000000000000000000000000000000000 PUSH0 DUP3 ADD MSTORE POP JUMP JUMPDEST PUSH0 PUSH2 0xFFB PUSH1 0x4 DUP4 PUSH2 0xF2B JUMP JUMPDEST SWAP2 POP PUSH2 0x1006 DUP3 PUSH2 0xFC7 JUMP JUMPDEST PUSH1 0x4 DUP3 ADD SWAP1 POP SWAP2 SWAP1 POP JUMP JUMPDEST PUSH0 PUSH2 0x101B DUP3 PUSH2 0xF5D JUMP JUMPDEST SWAP2 POP PUSH2 0x1027 DUP3 DUP6 PUSH2 0xF97 JUMP JUMPDEST SWAP2 POP PUSH2 0x1032 DUP3 PUSH2 0xFEF JUMP JUMPDEST SWAP2 POP PUSH2 0x103E DUP3 DUP5 PUSH2 0xF97 JUMP JUMPDEST SWAP2 POP DUP2 SWAP1 POP SWAP4 SWAP3 POP POP POP JUMP JUMPDEST PUSH0 DUP3 DUP3 MSTORE PUSH1 0x20 DUP3 ADD SWAP1 POP SWAP3 SWAP2 POP POP JUMP JUMPDEST PUSH32 0x49732041726D7374726F6E670000000000000000000000000000000000000000 PUSH0 DUP3 ADD MSTORE POP JUMP JUMPDEST PUSH0 PUSH2 0x108E PUSH1 0xC DUP4 PUSH2 0x104A JUMP JUMPDEST SWAP2 POP PUSH2 0x1099 DUP3 PUSH2 0x105A JUMP JUMPDEST PUSH1 0x20 DUP3 ADD SWAP1 POP SWAP2 SWAP1 POP JUMP JUMPDEST PUSH0 PUSH1 0x1F NOT PUSH1 0x1F DUP4 ADD AND SWAP1 POP SWAP2 SWAP1 POP JUMP JUMPDEST PUSH0 PUSH2 0x10BE DUP3 PUSH2 0xF7F JUMP JUMPDEST PUSH2 0x10C8 DUP2 DUP6 PUSH2 0x104A JUMP JUMPDEST SWAP4 POP PUSH2 0x10D8 DUP2 DUP6 PUSH1 0x20 DUP7 ADD PUSH2 0xF89 JUMP JUMPDEST PUSH2 0x10E1 DUP2 PUSH2 0x10A4 JUMP JUMPDEST DUP5 ADD SWAP2 POP POP SWAP3 SWAP2 POP POP JUMP JUMPDEST PUSH0 PUSH1 0x60 DUP3 ADD SWAP1 POP DUP2 DUP2 SUB PUSH0 DUP4 ADD MSTORE PUSH2 0x1103 DUP2 PUSH2 0x1082 JUMP JUMPDEST SWAP1 POP PUSH2 0x1112 PUSH1 0x20 DUP4 ADD DUP6 PUSH2 0xD49 JUMP JUMPDEST DUP2 DUP2 SUB PUSH1 0x40 DUP4 ADD MSTORE PUSH2 0x1124 DUP2 DUP5 PUSH2 0x10B4 JUMP JUMPDEST SWAP1 POP SWAP4 SWAP3 POP POP POP JUMP JUMPDEST PUSH32 0x496E70757420746F6F206C617267652C20776F756C64206361757365206F7665 PUSH0 DUP3 ADD MSTORE PUSH32 0x72666C6F77000000000000000000000000000000000000000000000000000000 PUSH1 0x20 DUP3 ADD MSTORE POP JUMP JUMPDEST PUSH0 PUSH2 0x1187 PUSH1 0x25 DUP4 PUSH2 0x104A JUMP JUMPDEST SWAP2 POP PUSH2 0x1192 DUP3 PUSH2 0x112D JUMP JUMPDEST PUSH1 0x40 DUP3 ADD SWAP1 POP SWAP2 SWAP1 POP JUMP JUMPDEST PUSH0 PUSH1 0x20 DUP3 ADD SWAP1 POP DUP2 DUP2 SUB PUSH0 DUP4 ADD MSTORE PUSH2 0x11B4 DUP2 PUSH2 0x117B JUMP JUMPDEST SWAP1 POP SWAP2 SWAP1 POP JUMP JUMPDEST PUSH0 DUP2 MLOAD SWAP1 POP PUSH2 0x11C9 DUP2 PUSH2 0xCE9 JUMP JUMPDEST SWAP3 SWAP2 POP POP JUMP JUMPDEST PUSH0 PUSH1 0x20 DUP3 DUP5 SUB SLT ISZERO PUSH2 0x11E4 JUMPI PUSH2 0x11E3 PUSH2 0xCD8 JUMP JUMPDEST JUMPDEST PUSH0 PUSH2 0x11F1 DUP5 DUP3 DUP6 ADD PUSH2 0x11BB JUMP JUMPDEST SWAP2 POP POP SWAP3 SWAP2 POP POP JUMP JUMPDEST PUSH32 0x666163746F7269616C2800000000000000000000000000000000000000000000 PUSH0 DUP3 ADD MSTORE POP JUMP JUMPDEST PUSH0 PUSH2 0x122E PUSH1 0xA DUP4 PUSH2 0xF2B JUMP JUMPDEST SWAP2 POP PUSH2 0x1239 DUP3 PUSH2 0x11FA JUMP JUMPDEST PUSH1 0xA DUP3 ADD SWAP1 POP SWAP2 SWAP1 POP JUMP JUMPDEST PUSH0 PUSH2 0x124E DUP3 PUSH2 0x1222 JUMP JUMPDEST SWAP2 POP PUSH2 0x125A DUP3 DUP6 PUSH2 0xF97 JUMP JUMPDEST SWAP2 POP PUSH2 0x1265 DUP3 PUSH2 0xFEF JUMP JUMPDEST SWAP2 POP PUSH2 0x1271 DUP3 DUP5 PUSH2 0xF97 JUMP JUMPDEST SWAP2 POP DUP2 SWAP1 POP SWAP4 SWAP3 POP POP POP JUMP JUMPDEST PUSH32 0x466163746F7269616C0000000000000000000000000000000000000000000000 PUSH0 DUP3 ADD MSTORE POP JUMP JUMPDEST PUSH0 PUSH2 0x12B1 PUSH1 0x9 DUP4 PUSH2 0x104A JUMP JUMPDEST SWAP2 POP PUSH2 0x12BC DUP3 PUSH2 0x127D JUMP JUMPDEST PUSH1 0x20 DUP3 ADD SWAP1 POP SWAP2 SWAP1 POP JUMP JUMPDEST PUSH0 PUSH1 0x60 DUP3 ADD SWAP1 POP DUP2 DUP2 SUB PUSH0 DUP4 ADD MSTORE PUSH2 0x12DE DUP2 PUSH2 0x12A5 JUMP JUMPDEST SWAP1 POP PUSH2 0x12ED PUSH1 0x20 DUP4 ADD DUP6 PUSH2 0xD49 JUMP JUMPDEST DUP2 DUP2 SUB PUSH1 0x40 DUP4 ADD MSTORE PUSH2 0x12FF DUP2 DUP5 PUSH2 0x10B4 JUMP JUMPDEST SWAP1 POP SWAP4 SWAP3 POP POP POP JUMP JUMPDEST PUSH0 PUSH1 0x40 DUP3 ADD SWAP1 POP PUSH2 0x131B PUSH0 DUP4 ADD DUP6 PUSH2 0xEAE JUMP JUMPDEST PUSH2 0x1328 PUSH1 0x20 DUP4 ADD DUP5 PUSH2 0xEAE JUMP JUMPDEST SWAP4 SWAP3 POP POP POP JUMP JUMPDEST PUSH32 0x6D696E2800000000000000000000000000000000000000000000000000000000 PUSH0 DUP3 ADD MSTORE POP JUMP JUMPDEST PUSH0 PUSH2 0x1363 PUSH1 0x4 DUP4 PUSH2 0xF2B JUMP JUMPDEST SWAP2 POP PUSH2 0x136E DUP3 PUSH2 0x132F JUMP JUMPDEST PUSH1 0x4 DUP3 ADD SWAP1 POP SWAP2 SWAP1 POP JUMP JUMPDEST PUSH32 0x2C20000000000000000000000000000000000000000000000000000000000000 PUSH0 DUP3 ADD MSTORE POP JUMP JUMPDEST PUSH0 PUSH2 0x13AD PUSH1 0x2 DUP4 PUSH2 0xF2B JUMP JUMPDEST SWAP2 POP PUSH2 0x13B8 DUP3 PUSH2 0x1379 JUMP JUMPDEST PUSH1 0x2 DUP3 ADD SWAP1 POP SWAP2 SWAP1 POP JUMP JUMPDEST PUSH0 PUSH2 0x13CD DUP3 PUSH2 0x1357 JUMP JUMPDEST SWAP2 POP PUSH2 0x13D9 DUP3 DUP7 PUSH2 0xF97 JUMP JUMPDEST SWAP2 POP PUSH2 0x13E4 DUP3 PUSH2 0x13A1 JUMP JUMPDEST SWAP2 POP PUSH2 0x13F0 DUP3 DUP6 PUSH2 0xF97 JUMP JUMPDEST SWAP2 POP PUSH2 0x13FB DUP3 PUSH2 0xFEF JUMP JUMPDEST SWAP2 POP PUSH2 0x1407 DUP3 DUP5 PUSH2 0xF97 JUMP JUMPDEST SWAP2 POP DUP2 SWAP1 POP SWAP5 SWAP4 POP POP POP POP JUMP JUMPDEST PUSH32 0x4D696E696D756D00000000000000000000000000000000000000000000000000 PUSH0 DUP3 ADD MSTORE POP JUMP JUMPDEST PUSH0 PUSH2 0x1448 PUSH1 0x7 DUP4 PUSH2 0x104A JUMP JUMPDEST SWAP2 POP PUSH2 0x1453 DUP3 PUSH2 0x1414 JUMP JUMPDEST PUSH1 0x20 DUP3 ADD SWAP1 POP SWAP2 SWAP1 POP JUMP JUMPDEST PUSH0 PUSH1 0x60 DUP3 ADD SWAP1 POP DUP2 DUP2 SUB PUSH0 DUP4 ADD MSTORE PUSH2 0x1475 DUP2 PUSH2 0x143C JUMP JUMPDEST SWAP1 POP PUSH2 0x1484 PUSH1 0x20 DUP4 ADD DUP6 PUSH2 0xD49 JUMP JUMPDEST DUP2 DUP2 SUB PUSH1 0x40 DUP4 ADD MSTORE PUSH2 0x1496 DUP2 DUP5 PUSH2 0x10B4 JUMP JUMPDEST SWAP1 POP SWAP4 SWAP3 POP POP POP JUMP JUMPDEST PUSH32 0x6D61782800000000000000000000000000000000000000000000000000000000 PUSH0 DUP3 ADD MSTORE POP JUMP JUMPDEST PUSH0 PUSH2 0x14D3 PUSH1 0x4 DUP4 PUSH2 0xF2B JUMP JUMPDEST SWAP2 POP PUSH2 0x14DE DUP3 PUSH2 0x149F JUMP JUMPDEST PUSH1 0x4 DUP3 ADD SWAP1 POP SWAP2 SWAP1 POP JUMP JUMPDEST PUSH0 PUSH2 0x14F3 DUP3 PUSH2 0x14C7 JUMP JUMPDEST SWAP2 POP PUSH2 0x14FF DUP3 DUP7 PUSH2 0xF97 JUMP JUMPDEST SWAP2 POP PUSH2 0x150A DUP3 PUSH2 0x13A1 JUMP JUMPDEST SWAP2 POP PUSH2 0x1516 DUP3 DUP6 PUSH2 0xF97 JUMP JUMPDEST SWAP2 POP PUSH2 0x1521 DUP3 PUSH2 0xFEF JUMP JUMPDEST SWAP2 POP PUSH2 0x152D DUP3 DUP5 PUSH2 0xF97 JUMP JUMPDEST SWAP2 POP DUP2 SWAP1 POP SWAP5 SWAP4 POP POP POP POP JUMP JUMPDEST PUSH32 0x4D6178696D756D00000000000000000000000000000000000000000000000000 PUSH0 DUP3 ADD MSTORE POP JUMP JUMPDEST PUSH0 PUSH2 0x156E PUSH1 0x7 DUP4 PUSH2 0x104A JUMP JUMPDEST SWAP2 POP PUSH2 0x1579 DUP3 PUSH2 0x153A JUMP JUMPDEST PUSH1 0x20 DUP3 ADD SWAP1 POP SWAP2 SWAP1 POP JUMP JUMPDEST PUSH0 PUSH1 0x60 DUP3 ADD SWAP1 POP DUP2 DUP2 SUB PUSH0 DUP4 ADD MSTORE PUSH2 0x159B DUP2 PUSH2 0x1562 JUMP JUMPDEST SWAP1 POP PUSH2 0x15AA PUSH1 0x20 DUP4 ADD DUP6 PUSH2 0xD49 JUMP JUMPDEST DUP2 DUP2 SUB PUSH1 0x40 DUP4 ADD MSTORE PUSH2 0x15BC DUP2 DUP5 PUSH2 0x10B4 JUMP JUMPDEST SWAP1 POP SWAP4 SWAP3 POP POP POP JUMP JUMPDEST PUSH32 0x6669626F6E616363692800000000000000000000000000000000000000000000 PUSH0 DUP3 ADD MSTORE POP JUMP JUMPDEST PUSH0 PUSH2 0x15F9 PUSH1 0xA DUP4 PUSH2 0xF2B JUMP JUMPDEST SWAP2 POP PUSH2 0x1604 DUP3 PUSH2 0x15C5 JUMP JUMPDEST PUSH1 0xA DUP3 ADD SWAP1 POP SWAP2 SWAP1 POP JUMP JUMPDEST PUSH0 PUSH2 0x1619 DUP3 PUSH2 0x15ED JUMP JUMPDEST SWAP2 POP PUSH2 0x1625 DUP3 DUP6 PUSH2 0xF97 JUMP JUMPDEST SWAP2 POP PUSH2 0x1630 DUP3 PUSH2 0xFEF JUMP JUMPDEST SWAP2 POP PUSH2 0x163C DUP3 DUP5 PUSH2 0xF97 JUMP JUMPDEST SWAP2 POP DUP2 SWAP1 POP SWAP4 SWAP3 POP POP POP JUMP JUMPDEST PUSH32 0x4669626F6E616363690000000000000000000000000000000000000000000000 PUSH0 DUP3 ADD MSTORE POP JUMP JUMPDEST PUSH0 PUSH2 0x167C PUSH1 0x9 DUP4 PUSH2 0x104A JUMP JUMPDEST SWAP2 POP PUSH2 0x1687 DUP3 PUSH2 0x1648 JUMP JUMPDEST PUSH1 0x20 DUP3 ADD SWAP1 POP SWAP2 SWAP1 POP JUMP JUMPDEST PUSH0 PUSH1 0x60 DUP3 ADD SWAP1 POP DUP2 DUP2 SUB PUSH0 DUP4 ADD MSTORE PUSH2 0x16A9 DUP2 PUSH2 0x1670 JUMP JUMPDEST SWAP1 POP PUSH2 0x16B8 PUSH1 0x20 DUP4 ADD DUP6 PUSH2 0xD49 JUMP JUMPDEST DUP2 DUP2 SUB PUSH1 0x40 DUP4 ADD MSTORE PUSH2 0x16CA DUP2 DUP5 PUSH2 0x10B4 JUMP JUMPDEST SWAP1 POP SWAP4 SWAP3 POP POP POP JUMP JUMPDEST PUSH0 DUP1 REVERT JUMPDEST PUSH32 0x4E487B7100000000000000000000000000000000000000000000000000000000 PUSH0 MSTORE PUSH1 0x41 PUSH1 0x4 MSTORE PUSH1 0x24 PUSH0 REVERT JUMPDEST PUSH2 0x170D DUP3 PUSH2 0x10A4 JUMP JUMPDEST DUP2 ADD DUP2 DUP2 LT PUSH8 0xFFFFFFFFFFFFFFFF DUP3 GT OR ISZERO PUSH2 0x172C JUMPI PUSH2 0x172B PUSH2 0x16D7 JUMP JUMPDEST JUMPDEST DUP1 PUSH1 0x40 MSTORE POP POP POP JUMP JUMPDEST PUSH0 PUSH2 0x173E PUSH2 0xCCF JUMP JUMPDEST SWAP1 POP PUSH2 0x174A DUP3 DUP3 PUSH2 0x1704 JUMP JUMPDEST SWAP2 SWAP1 POP JUMP JUMPDEST PUSH0 PUSH8 0xFFFFFFFFFFFFFFFF DUP3 GT ISZERO PUSH2 0x1769 JUMPI PUSH2 0x1768 PUSH2 0x16D7 JUMP JUMPDEST JUMPDEST PUSH1 0x20 DUP3 MUL SWAP1 POP PUSH1 0x20 DUP2 ADD SWAP1 POP SWAP2 SWAP1 POP JUMP JUMPDEST PUSH0 DUP1 REVERT JUMPDEST PUSH0 PUSH2 0x1790 PUSH2 0x178B DUP5 PUSH2 0x174F JUMP JUMPDEST PUSH2 0x1735 JUMP JUMPDEST SWAP1 POP DUP1 DUP4 DUP3 MSTORE PUSH1 0x20 DUP3 ADD SWAP1 POP PUSH1 0x20 DUP5 MUL DUP4 ADD DUP6 DUP2 GT ISZERO PUSH2 0x17B3 JUMPI PUSH2 0x17B2 PUSH2 0x177A JUMP JUMPDEST JUMPDEST DUP4 JUMPDEST DUP2 DUP2 LT ISZERO PUSH2 0x17DC JUMPI DUP1 PUSH2 0x17C8 DUP9 DUP3 PUSH2 0x11BB JUMP JUMPDEST DUP5 MSTORE PUSH1 0x20 DUP5 ADD SWAP4 POP POP PUSH1 0x20 DUP2 ADD SWAP1 POP PUSH2 0x17B5 JUMP JUMPDEST POP POP POP SWAP4 SWAP3 POP POP POP JUMP JUMPDEST PUSH0 DUP3 PUSH1 0x1F DUP4 ADD SLT PUSH2 0x17FA JUMPI PUSH2 0x17F9 PUSH2 0x16D3 JUMP JUMPDEST JUMPDEST DUP2 MLOAD PUSH2 0x180A DUP5 DUP3 PUSH1 0x20 DUP7 ADD PUSH2 0x177E JUMP JUMPDEST SWAP2 POP POP SWAP3 SWAP2 POP POP JUMP JUMPDEST PUSH0 PUSH1 0x20 DUP3 DUP5 SUB SLT ISZERO PUSH2 0x1828 JUMPI PUSH2 0x1827 PUSH2 0xCD8 JUMP JUMPDEST JUMPDEST PUSH0 DUP3 ADD MLOAD PUSH8 0xFFFFFFFFFFFFFFFF DUP2 GT ISZERO PUSH2 0x1845 JUMPI PUSH2 0x1844 PUSH2 0xCDC JUMP JUMPDEST JUMPDEST PUSH2 0x1851 DUP5 DUP3 DUP6 ADD PUSH2 0x17E6 JUMP JUMPDEST SWAP2 POP POP SWAP3 SWAP2 POP POP JUMP JUMPDEST PUSH32 0x6669626F6E616363695365726965732800000000000000000000000000000000 PUSH0 DUP3 ADD MSTORE POP JUMP JUMPDEST PUSH0 PUSH2 0x188E PUSH1 0x10 DUP4 PUSH2 0xF2B JUMP JUMPDEST SWAP2 POP PUSH2 0x1899 DUP3 PUSH2 0x185A JUMP JUMPDEST PUSH1 0x10 DUP3 ADD SWAP1 POP SWAP2 SWAP1 POP JUMP JUMPDEST PUSH32 0x29206C656E677468203D20000000000000000000000000000000000000000000 PUSH0 DUP3 ADD MSTORE POP JUMP JUMPDEST PUSH0 PUSH2 0x18D8 PUSH1 0xB DUP4 PUSH2 0xF2B JUMP JUMPDEST SWAP2 POP PUSH2 0x18E3 DUP3 PUSH2 0x18A4 JUMP JUMPDEST PUSH1 0xB DUP3 ADD SWAP1 POP SWAP2 SWAP1 POP JUMP JUMPDEST PUSH0 PUSH2 0x18F8 DUP3 PUSH2 0x1882 JUMP JUMPDEST SWAP2 POP PUSH2 0x1904 DUP3 DUP6 PUSH2 0xF97 JUMP JUMPDEST SWAP2 POP PUSH2 0x190F DUP3 PUSH2 0x18CC JUMP JUMPDEST SWAP2 POP PUSH2 0x191B DUP3 DUP5 PUSH2 0xF97 JUMP JUMPDEST SWAP2 POP DUP2 SWAP1 POP SWAP4 SWAP3 POP POP POP JUMP JUMPDEST PUSH32 0x4669626F6E616363692053657269657300000000000000000000000000000000 PUSH0 DUP3 ADD MSTORE POP JUMP JUMPDEST PUSH0 PUSH2 0x195B PUSH1 0x10 DUP4 PUSH2 0x104A JUMP JUMPDEST SWAP2 POP PUSH2 0x1966 DUP3 PUSH2 0x1927 JUMP JUMPDEST PUSH1 0x20 DUP3 ADD SWAP1 POP SWAP2 SWAP1 POP JUMP JUMPDEST PUSH0 PUSH1 0x60 DUP3 ADD SWAP1 POP DUP2 DUP2 SUB PUSH0 DUP4 ADD MSTORE PUSH2 0x1988 DUP2 PUSH2 0x194F JUMP JUMPDEST SWAP1 POP PUSH2 0x1997 PUSH1 0x20 DUP4 ADD DUP6 PUSH2 0xD49 JUMP JUMPDEST DUP2 DUP2 SUB PUSH1 0x40 DUP4 ADD MSTORE PUSH2 0x19A9 DUP2 DUP5 PUSH2 0x10B4 JUMP JUMPDEST SWAP1 POP SWAP4 SWAP3 POP POP POP JUMP JUMPDEST PUSH32 0x4E487B7100000000000000000000000000000000000000000000000000000000 PUSH0 MSTORE PUSH1 0x11 PUSH1 0x4 MSTORE PUSH1 0x24 PUSH0 REVERT JUMPDEST PUSH0 PUSH2 0x19E9 DUP3 PUSH2 0xCE0 JUMP JUMPDEST SWAP2 POP PUSH32 0xFFFFFFFFFFFFFFFFFFFFFFFFFFFFFFFFFFFFFFFFFFFFFFFFFFFFFFFFFFFFFFFF DUP3 SUB PUSH2 0x1A1B JUMPI PUSH2 0x1A1A PUSH2 0x19B2 JUMP JUMPDEST JUMPDEST PUSH1 0x1 DUP3 ADD SWAP1 POP SWAP2 SWAP1 POP JUMP JUMPDEST PUSH32 0x4E487B7100000000000000000000000000000000000000000000000000000000 PUSH0 MSTORE PUSH1 0x12 PUSH1 0x4 MSTORE PUSH1 0x24 PUSH0 REVERT JUMPDEST PUSH0 PUSH2 0x1A5D DUP3 PUSH2 0xCE0 JUMP JUMPDEST SWAP2 POP PUSH2 0x1A68 DUP4 PUSH2 0xCE0 JUMP JUMPDEST SWAP3 POP DUP3 PUSH2 0x1A78 JUMPI PUSH2 0x1A77 PUSH2 0x1A26 JUMP JUMPDEST JUMPDEST DUP3 DUP3 DIV SWAP1 POP SWAP3 SWAP2 POP POP JUMP JUMPDEST PUSH0 PUSH2 0x1A8D DUP3 PUSH2 0xCE0 JUMP JUMPDEST SWAP2 POP PUSH2 0x1A98 DUP4 PUSH2 0xCE0 JUMP JUMPDEST SWAP3 POP DUP3 DUP3 SUB SWAP1 POP DUP2 DUP2 GT ISZERO PUSH2 0x1AB0 JUMPI PUSH2 0x1AAF PUSH2 0x19B2 JUMP JUMPDEST JUMPDEST SWAP3 SWAP2 POP POP JUMP JUMPDEST PUSH0 PUSH2 0x1AC0 DUP3 PUSH2 0xCE0 JUMP JUMPDEST SWAP2 POP PUSH2 0x1ACB DUP4 PUSH2 0xCE0 JUMP JUMPDEST SWAP3 POP DUP3 PUSH2 0x1ADB JUMPI PUSH2 0x1ADA PUSH2 0x1A26 JUMP JUMPDEST JUMPDEST DUP3 DUP3 MOD SWAP1 POP SWAP3 SWAP2 POP POP JUMP JUMPDEST PUSH0 PUSH2 0x1AF0 DUP3 PUSH2 0xCE0 JUMP JUMPDEST SWAP2 POP PUSH2 0x1AFB DUP4 PUSH2 0xCE0 JUMP JUMPDEST SWAP3 POP DUP3 DUP3 ADD SWAP1 POP DUP1 DUP3 GT ISZERO PUSH2 0x1B13 JUMPI PUSH2 0x1B12 PUSH2 0x19B2 JUMP JUMPDEST JUMPDEST SWAP3 SWAP2 POP POP JUMP JUMPDEST PUSH32 0x4E487B7100000000000000000000000000000000000000000000000000000000 PUSH0 MSTORE PUSH1 0x32 PUSH1 0x4 MSTORE PUSH1 0x24 PUSH0 REVERT JUMPDEST PUSH0 PUSH2 0x1B50 DUP3 PUSH2 0xCE0 JUMP JUMPDEST SWAP2 POP PUSH2 0x1B5B DUP4 PUSH2 0xCE0 JUMP JUMPDEST SWAP3 POP DUP3 DUP3 MUL PUSH2 0x1B69 DUP2 PUSH2 0xCE0 JUMP JUMPDEST SWAP2 POP DUP3 DUP3 DIV DUP5 EQ DUP4 ISZERO OR PUSH2 0x1B80 JUMPI PUSH2 0x1B7F PUSH2 0x19B2 JUMP JUMPDEST JUMPDEST POP SWAP3 SWAP2 POP POP JUMP INVALID LOG2 PUSH5 0x6970667358 0x22 SLT KECCAK256 0xAC 0xBA 0x4F 0xD5 REVERT SWAP12 SDIV 0xD0 0x1E SSTORE CALLCODE 0x1E DUP10 TLOAD 0x4E PUSH19 0x4D4700E5637A63A8B2D46AC2DE72A87764736F PUSH13 0x634300081A0033000000000000 "
		},
		"gasEstimates": {
			"creation": {
				"codeDepositCost": "1420200",
				"executionCost": "1477",
				"totalCost": "1421677"
			},
			"external": {
				"runAllTests()": "infinite",
				"testFactorial(uint256)": "infinite",
				"testFibonacci(uint256)": "infinite",
				"testFibonacciSeries(uint256)": "infinite",
				"testIsArmstrong(uint256)": "infinite",
				"testMax(uint256,uint256)": "infinite",
				"testMin(uint256,uint256)": "infinite"
			},
			"internal": {
				"uint2str(uint256)": "infinite",
				"verifyFactorial(uint256,uint256)": "infinite",
				"verifyFibonacciSeries(uint256[] memory)": "infinite"
			}
		},
		"methodIdentifiers": {
			"runAllTests()": "e65e87fb",
			"testFactorial(uint256)": "163b0e51",
			"testFibonacci(uint256)": "8c87bb0a",
			"testFibonacciSeries(uint256)": "ce1b8784",
			"testIsArmstrong(uint256)": "05d09ad7",
			"testMax(uint256,uint256)": "834db421",
			"testMin(uint256,uint256)": "1abe5974"
		}
	},
	"abi": [
		{
			"anonymous": false,
			"inputs": [
				{
					"indexed": false,
					"internalType": "string",
					"name": "testName",
					"type": "string"
				},
				{
					"indexed": false,
					"internalType": "bool",
					"name": "passed",
					"type": "bool"
				},
				{
					"indexed": false,
					"internalType": "string",
					"name": "details",
					"type": "string"
				}
			],
			"name": "TestResult",
			"type": "event"
		},
		{
			"inputs": [],
			"name": "runAllTests",
			"outputs": [],
			"stateMutability": "nonpayable",
			"type": "function"
		},
		{
			"inputs": [
				{
					"internalType": "uint256",
					"name": "n",
					"type": "uint256"
				}
			],
			"name": "testFactorial",
			"outputs": [
				{
					"internalType": "uint256",
					"name": "",
					"type": "uint256"
				}
			],
			"stateMutability": "nonpayable",
			"type": "function"
		},
		{
			"inputs": [
				{
					"internalType": "uint256",
					"name": "n",
					"type": "uint256"
				}
			],
			"name": "testFibonacci",
			"outputs": [
				{
					"internalType": "uint256",
					"name": "",
					"type": "uint256"
				}
			],
			"stateMutability": "nonpayable",
			"type": "function"
		},
		{
			"inputs": [
				{
					"internalType": "uint256",
					"name": "n",
					"type": "uint256"
				}
			],
			"name": "testFibonacciSeries",
			"outputs": [
				{
					"internalType": "uint256[]",
					"name": "",
					"type": "uint256[]"
				}
			],
			"stateMutability": "nonpayable",
			"type": "function"
		},
		{
			"inputs": [
				{
					"internalType": "uint256",
					"name": "n",
					"type": "uint256"
				}
			],
			"name": "testIsArmstrong",
			"outputs": [
				{
					"internalType": "bool",
					"name": "",
					"type": "bool"
				}
			],
			"stateMutability": "nonpayable",
			"type": "function"
		},
		{
			"inputs": [
				{
					"internalType": "uint256",
					"name": "a",
					"type": "uint256"
				},
				{
					"internalType": "uint256",
					"name": "b",
					"type": "uint256"
				}
			],
			"name": "testMax",
			"outputs": [
				{
					"internalType": "uint256",
					"name": "",
					"type": "uint256"
				}
			],
			"stateMutability": "nonpayable",
			"type": "function"
		},
		{
			"inputs": [
				{
					"internalType": "uint256",
					"name": "a",
					"type": "uint256"
				},
				{
					"internalType": "uint256",
					"name": "b",
					"type": "uint256"
				}
			],
			"name": "testMin",
			"outputs": [
				{
					"internalType": "uint256",
					"name": "",
					"type": "uint256"
				}
			],
			"stateMutability": "nonpayable",
			"type": "function"
		}
	]
}