{
	"Day-10/D10P3.sol": {
		"ShapeCalculator": {
			"abi": [
				{
					"inputs": [
						{
							"internalType": "uint256",
							"name": "cubeSide",
							"type": "uint256"
						},
						{
							"internalType": "uint256",
							"name": "cylinderRadius",
							"type": "uint256"
						},
						{
							"internalType": "uint256",
							"name": "cylinderHeight",
							"type": "uint256"
						},
						{
							"internalType": "uint256",
							"name": "coneRadius",
							"type": "uint256"
						},
						{
							"internalType": "uint256",
							"name": "coneHeight",
							"type": "uint256"
						}
					],
					"stateMutability": "nonpayable",
					"type": "constructor"
				},
				{
					"inputs": [],
					"name": "cone",
					"outputs": [
						{
							"internalType": "contract Cone",
							"name": "",
							"type": "address"
						}
					],
					"stateMutability": "view",
					"type": "function"
				},
				{
					"inputs": [],
					"name": "cube",
					"outputs": [
						{
							"internalType": "contract Cube",
							"name": "",
							"type": "address"
						}
					],
					"stateMutability": "view",
					"type": "function"
				},
				{
					"inputs": [],
					"name": "cylinder",
					"outputs": [
						{
							"internalType": "contract Cylinder",
							"name": "",
							"type": "address"
						}
					],
					"stateMutability": "view",
					"type": "function"
				},
				{
					"inputs": [],
					"name": "getShapeDetails",
					"outputs": [
						{
							"internalType": "string",
							"name": "",
							"type": "string"
						}
					],
					"stateMutability": "view",
					"type": "function"
				}
			],
			"devdoc": {
				"kind": "dev",
				"methods": {},
				"version": 1
			},
			"evm": {
				"assembly": "    /* \"Day-10/D10P3.sol\":2947:4407  contract ShapeCalculator {... */\n  mstore(0x40, 0x80)\n    /* \"Day-10/D10P3.sol\":3062:3325  constructor(uint cubeSide, uint cylinderRadius, uint cylinderHeight, uint coneRadius, uint coneHeight) {... */\n  callvalue\n  dup1\n  iszero\n  tag_1\n  jumpi\n  0x00\n  dup1\n  revert\ntag_1:\n  pop\n  mload(0x40)\n  sub(codesize, bytecodeSize)\n  dup1\n  bytecodeSize\n  dup4\n  codecopy\n  dup2\n  dup2\n  add\n  0x40\n  mstore\n  dup2\n  add\n  swap1\n  tag_2\n  swap2\n  swap1\n  tag_3\n  jump\t// in\ntag_2:\n    /* \"Day-10/D10P3.sol\":3192:3200  cubeSide */\n  dup5\n    /* \"Day-10/D10P3.sol\":3183:3201  new Cube(cubeSide) */\n  mload(0x40)\n  tag_6\n  swap1\n  tag_7\n  jump\t// in\ntag_6:\n  tag_8\n  swap2\n  swap1\n  tag_9\n  jump\t// in\ntag_8:\n  mload(0x40)\n  dup1\n  swap2\n  sub\n  swap1\n  0x00\n  create\n  dup1\n  iszero\n  dup1\n  iszero\n  tag_10\n  jumpi\n  returndatasize\n  0x00\n  dup1\n  returndatacopy\n  revert(0x00, returndatasize)\ntag_10:\n  pop\n    /* \"Day-10/D10P3.sol\":3176:3180  cube */\n  0x00\n  dup1\n    /* \"Day-10/D10P3.sol\":3176:3201  cube = new Cube(cubeSide) */\n  0x0100\n  exp\n  dup2\n  sload\n  dup2\n  0xffffffffffffffffffffffffffffffffffffffff\n  mul\n  not\n  and\n  swap1\n  dup4\n  0xffffffffffffffffffffffffffffffffffffffff\n  and\n  mul\n  or\n  swap1\n  sstore\n  pop\n    /* \"Day-10/D10P3.sol\":3236:3250  cylinderRadius */\n  dup4\n    /* \"Day-10/D10P3.sol\":3252:3266  cylinderHeight */\n  dup4\n    /* \"Day-10/D10P3.sol\":3223:3267  new Cylinder(cylinderRadius, cylinderHeight) */\n  mload(0x40)\n  tag_11\n  swap1\n  tag_12\n  jump\t// in\ntag_11:\n  tag_13\n  swap3\n  swap2\n  swap1\n  tag_14\n  jump\t// in\ntag_13:\n  mload(0x40)\n  dup1\n  swap2\n  sub\n  swap1\n  0x00\n  create\n  dup1\n  iszero\n  dup1\n  iszero\n  tag_15\n  jumpi\n  returndatasize\n  0x00\n  dup1\n  returndatacopy\n  revert(0x00, returndatasize)\ntag_15:\n  pop\n    /* \"Day-10/D10P3.sol\":3212:3220  cylinder */\n  0x01\n  0x00\n    /* \"Day-10/D10P3.sol\":3212:3267  cylinder = new Cylinder(cylinderRadius, cylinderHeight) */\n  0x0100\n  exp\n  dup2\n  sload\n  dup2\n  0xffffffffffffffffffffffffffffffffffffffff\n  mul\n  not\n  and\n  swap1\n  dup4\n  0xffffffffffffffffffffffffffffffffffffffff\n  and\n  mul\n  or\n  swap1\n  sstore\n  pop\n    /* \"Day-10/D10P3.sol\":3294:3304  coneRadius */\n  dup2\n    /* \"Day-10/D10P3.sol\":3306:3316  coneHeight */\n  dup2\n    /* \"Day-10/D10P3.sol\":3285:3317  new Cone(coneRadius, coneHeight) */\n  mload(0x40)\n  tag_16\n  swap1\n  tag_17\n  jump\t// in\ntag_16:\n  tag_18\n  swap3\n  swap2\n  swap1\n  tag_14\n  jump\t// in\ntag_18:\n  mload(0x40)\n  dup1\n  swap2\n  sub\n  swap1\n  0x00\n  create\n  dup1\n  iszero\n  dup1\n  iszero\n  tag_19\n  jumpi\n  returndatasize\n  0x00\n  dup1\n  returndatacopy\n  revert(0x00, returndatasize)\ntag_19:\n  pop\n    /* \"Day-10/D10P3.sol\":3278:3282  cone */\n  0x02\n  0x00\n    /* \"Day-10/D10P3.sol\":3278:3317  cone = new Cone(coneRadius, coneHeight) */\n  0x0100\n  exp\n  dup2\n  sload\n  dup2\n  0xffffffffffffffffffffffffffffffffffffffff\n  mul\n  not\n  and\n  swap1\n  dup4\n  0xffffffffffffffffffffffffffffffffffffffff\n  and\n  mul\n  or\n  swap1\n  sstore\n  pop\n    /* \"Day-10/D10P3.sol\":3062:3325  constructor(uint cubeSide, uint cylinderRadius, uint cylinderHeight, uint coneRadius, uint coneHeight) {... */\n  pop\n  pop\n  pop\n  pop\n  pop\n    /* \"Day-10/D10P3.sol\":2947:4407  contract ShapeCalculator {... */\n  jump(tag_20)\ntag_7:\n  dataSize(sub_1)\n  dup1\n  dataOffset(sub_1)\n  dup4\n  codecopy\n  add\n  swap1\n  jump\t// out\ntag_12:\n  dataSize(sub_2)\n  dup1\n  dataOffset(sub_2)\n  dup4\n  codecopy\n  add\n  swap1\n  jump\t// out\ntag_17:\n  dataSize(sub_3)\n  dup1\n  dataOffset(sub_3)\n  dup4\n  codecopy\n  add\n  swap1\n  jump\t// out\n    /* \"#utility.yul\":88:205   */\ntag_22:\n    /* \"#utility.yul\":197:198   */\n  0x00\n    /* \"#utility.yul\":194:195   */\n  dup1\n    /* \"#utility.yul\":187:199   */\n  revert\n    /* \"#utility.yul\":334:411   */\ntag_24:\n    /* \"#utility.yul\":371:378   */\n  0x00\n    /* \"#utility.yul\":400:405   */\n  dup2\n    /* \"#utility.yul\":389:405   */\n  swap1\n  pop\n    /* \"#utility.yul\":334:411   */\n  swap2\n  swap1\n  pop\n  jump\t// out\n    /* \"#utility.yul\":417:539   */\ntag_25:\n    /* \"#utility.yul\":490:514   */\n  tag_34\n    /* \"#utility.yul\":508:513   */\n  dup2\n    /* \"#utility.yul\":490:514   */\n  tag_24\n  jump\t// in\ntag_34:\n    /* \"#utility.yul\":483:488   */\n  dup2\n    /* \"#utility.yul\":480:515   */\n  eq\n    /* \"#utility.yul\":470:533   */\n  tag_35\n  jumpi\n    /* \"#utility.yul\":529:530   */\n  0x00\n    /* \"#utility.yul\":526:527   */\n  dup1\n    /* \"#utility.yul\":519:531   */\n  revert\n    /* \"#utility.yul\":470:533   */\ntag_35:\n    /* \"#utility.yul\":417:539   */\n  pop\n  jump\t// out\n    /* \"#utility.yul\":545:688   */\ntag_26:\n    /* \"#utility.yul\":602:607   */\n  0x00\n    /* \"#utility.yul\":633:639   */\n  dup2\n    /* \"#utility.yul\":627:640   */\n  mload\n    /* \"#utility.yul\":618:640   */\n  swap1\n  pop\n    /* \"#utility.yul\":649:682   */\n  tag_37\n    /* \"#utility.yul\":676:681   */\n  dup2\n    /* \"#utility.yul\":649:682   */\n  tag_25\n  jump\t// in\ntag_37:\n    /* \"#utility.yul\":545:688   */\n  swap3\n  swap2\n  pop\n  pop\n  jump\t// out\n    /* \"#utility.yul\":694:1671   */\ntag_3:\n    /* \"#utility.yul\":800:806   */\n  0x00\n    /* \"#utility.yul\":808:814   */\n  dup1\n    /* \"#utility.yul\":816:822   */\n  0x00\n    /* \"#utility.yul\":824:830   */\n  dup1\n    /* \"#utility.yul\":832:838   */\n  0x00\n    /* \"#utility.yul\":881:884   */\n  0xa0\n    /* \"#utility.yul\":869:878   */\n  dup7\n    /* \"#utility.yul\":860:867   */\n  dup9\n    /* \"#utility.yul\":856:879   */\n  sub\n    /* \"#utility.yul\":852:885   */\n  slt\n    /* \"#utility.yul\":849:969   */\n  iszero\n  tag_39\n  jumpi\n    /* \"#utility.yul\":888:967   */\n  tag_40\n  tag_22\n  jump\t// in\ntag_40:\n    /* \"#utility.yul\":849:969   */\ntag_39:\n    /* \"#utility.yul\":1008:1009   */\n  0x00\n    /* \"#utility.yul\":1033:1097   */\n  tag_41\n    /* \"#utility.yul\":1089:1096   */\n  dup9\n    /* \"#utility.yul\":1080:1086   */\n  dup3\n    /* \"#utility.yul\":1069:1078   */\n  dup10\n    /* \"#utility.yul\":1065:1087   */\n  add\n    /* \"#utility.yul\":1033:1097   */\n  tag_26\n  jump\t// in\ntag_41:\n    /* \"#utility.yul\":1023:1097   */\n  swap6\n  pop\n    /* \"#utility.yul\":979:1107   */\n  pop\n    /* \"#utility.yul\":1146:1148   */\n  0x20\n    /* \"#utility.yul\":1172:1236   */\n  tag_42\n    /* \"#utility.yul\":1228:1235   */\n  dup9\n    /* \"#utility.yul\":1219:1225   */\n  dup3\n    /* \"#utility.yul\":1208:1217   */\n  dup10\n    /* \"#utility.yul\":1204:1226   */\n  add\n    /* \"#utility.yul\":1172:1236   */\n  tag_26\n  jump\t// in\ntag_42:\n    /* \"#utility.yul\":1162:1236   */\n  swap5\n  pop\n    /* \"#utility.yul\":1117:1246   */\n  pop\n    /* \"#utility.yul\":1285:1287   */\n  0x40\n    /* \"#utility.yul\":1311:1375   */\n  tag_43\n    /* \"#utility.yul\":1367:1374   */\n  dup9\n    /* \"#utility.yul\":1358:1364   */\n  dup3\n    /* \"#utility.yul\":1347:1356   */\n  dup10\n    /* \"#utility.yul\":1343:1365   */\n  add\n    /* \"#utility.yul\":1311:1375   */\n  tag_26\n  jump\t// in\ntag_43:\n    /* \"#utility.yul\":1301:1375   */\n  swap4\n  pop\n    /* \"#utility.yul\":1256:1385   */\n  pop\n    /* \"#utility.yul\":1424:1426   */\n  0x60\n    /* \"#utility.yul\":1450:1514   */\n  tag_44\n    /* \"#utility.yul\":1506:1513   */\n  dup9\n    /* \"#utility.yul\":1497:1503   */\n  dup3\n    /* \"#utility.yul\":1486:1495   */\n  dup10\n    /* \"#utility.yul\":1482:1504   */\n  add\n    /* \"#utility.yul\":1450:1514   */\n  tag_26\n  jump\t// in\ntag_44:\n    /* \"#utility.yul\":1440:1514   */\n  swap3\n  pop\n    /* \"#utility.yul\":1395:1524   */\n  pop\n    /* \"#utility.yul\":1563:1566   */\n  0x80\n    /* \"#utility.yul\":1590:1654   */\n  tag_45\n    /* \"#utility.yul\":1646:1653   */\n  dup9\n    /* \"#utility.yul\":1637:1643   */\n  dup3\n    /* \"#utility.yul\":1626:1635   */\n  dup10\n    /* \"#utility.yul\":1622:1644   */\n  add\n    /* \"#utility.yul\":1590:1654   */\n  tag_26\n  jump\t// in\ntag_45:\n    /* \"#utility.yul\":1580:1654   */\n  swap2\n  pop\n    /* \"#utility.yul\":1534:1664   */\n  pop\n    /* \"#utility.yul\":694:1671   */\n  swap3\n  swap6\n  pop\n  swap3\n  swap6\n  swap1\n  swap4\n  pop\n  jump\t// out\n    /* \"#utility.yul\":1677:1795   */\ntag_27:\n    /* \"#utility.yul\":1764:1788   */\n  tag_47\n    /* \"#utility.yul\":1782:1787   */\n  dup2\n    /* \"#utility.yul\":1764:1788   */\n  tag_24\n  jump\t// in\ntag_47:\n    /* \"#utility.yul\":1759:1762   */\n  dup3\n    /* \"#utility.yul\":1752:1789   */\n  mstore\n    /* \"#utility.yul\":1677:1795   */\n  pop\n  pop\n  jump\t// out\n    /* \"#utility.yul\":1801:2023   */\ntag_9:\n    /* \"#utility.yul\":1894:1898   */\n  0x00\n    /* \"#utility.yul\":1932:1934   */\n  0x20\n    /* \"#utility.yul\":1921:1930   */\n  dup3\n    /* \"#utility.yul\":1917:1935   */\n  add\n    /* \"#utility.yul\":1909:1935   */\n  swap1\n  pop\n    /* \"#utility.yul\":1945:2016   */\n  tag_49\n    /* \"#utility.yul\":2013:2014   */\n  0x00\n    /* \"#utility.yul\":2002:2011   */\n  dup4\n    /* \"#utility.yul\":1998:2015   */\n  add\n    /* \"#utility.yul\":1989:1995   */\n  dup5\n    /* \"#utility.yul\":1945:2016   */\n  tag_27\n  jump\t// in\ntag_49:\n    /* \"#utility.yul\":1801:2023   */\n  swap3\n  swap2\n  pop\n  pop\n  jump\t// out\n    /* \"#utility.yul\":2029:2361   */\ntag_14:\n    /* \"#utility.yul\":2150:2154   */\n  0x00\n    /* \"#utility.yul\":2188:2190   */\n  0x40\n    /* \"#utility.yul\":2177:2186   */\n  dup3\n    /* \"#utility.yul\":2173:2191   */\n  add\n    /* \"#utility.yul\":2165:2191   */\n  swap1\n  pop\n    /* \"#utility.yul\":2201:2272   */\n  tag_51\n    /* \"#utility.yul\":2269:2270   */\n  0x00\n    /* \"#utility.yul\":2258:2267   */\n  dup4\n    /* \"#utility.yul\":2254:2271   */\n  add\n    /* \"#utility.yul\":2245:2251   */\n  dup6\n    /* \"#utility.yul\":2201:2272   */\n  tag_27\n  jump\t// in\ntag_51:\n    /* \"#utility.yul\":2282:2354   */\n  tag_52\n    /* \"#utility.yul\":2350:2352   */\n  0x20\n    /* \"#utility.yul\":2339:2348   */\n  dup4\n    /* \"#utility.yul\":2335:2353   */\n  add\n    /* \"#utility.yul\":2326:2332   */\n  dup5\n    /* \"#utility.yul\":2282:2354   */\n  tag_27\n  jump\t// in\ntag_52:\n    /* \"#utility.yul\":2029:2361   */\n  swap4\n  swap3\n  pop\n  pop\n  pop\n  jump\t// out\n    /* \"Day-10/D10P3.sol\":2947:4407  contract ShapeCalculator {... */\ntag_20:\n  dataSize(sub_0)\n  dup1\n  dataOffset(sub_0)\n  0x00\n  codecopy\n  0x00\n  return\nstop\n\nsub_0: assembly {\n        /* \"Day-10/D10P3.sol\":2947:4407  contract ShapeCalculator {... */\n      mstore(0x40, 0x80)\n      callvalue\n      dup1\n      iszero\n      tag_1\n      jumpi\n      0x00\n      dup1\n      revert\n    tag_1:\n      pop\n      jumpi(tag_2, lt(calldatasize, 0x04))\n      shr(0xe0, calldataload(0x00))\n      dup1\n      0x5c771211\n      eq\n      tag_3\n      jumpi\n      dup1\n      0xa312363a\n      eq\n      tag_4\n      jumpi\n      dup1\n      0xa35e7d29\n      eq\n      tag_5\n      jumpi\n      dup1\n      0xbecf77fe\n      eq\n      tag_6\n      jumpi\n    tag_2:\n      0x00\n      dup1\n      revert\n        /* \"Day-10/D10P3.sol\":2979:2995  Cube public cube */\n    tag_3:\n      tag_7\n      tag_8\n      jump\t// in\n    tag_7:\n      mload(0x40)\n      tag_9\n      swap2\n      swap1\n      tag_10\n      jump\t// in\n    tag_9:\n      mload(0x40)\n      dup1\n      swap2\n      sub\n      swap1\n      return\n        /* \"Day-10/D10P3.sol\":3033:3049  Cone public cone */\n    tag_4:\n      tag_11\n      tag_12\n      jump\t// in\n    tag_11:\n      mload(0x40)\n      tag_13\n      swap2\n      swap1\n      tag_14\n      jump\t// in\n    tag_13:\n      mload(0x40)\n      dup1\n      swap2\n      sub\n      swap1\n      return\n        /* \"Day-10/D10P3.sol\":3002:3026  Cylinder public cylinder */\n    tag_5:\n      tag_15\n      tag_16\n      jump\t// in\n    tag_15:\n      mload(0x40)\n      tag_17\n      swap2\n      swap1\n      tag_18\n      jump\t// in\n    tag_17:\n      mload(0x40)\n      dup1\n      swap2\n      sub\n      swap1\n      return\n        /* \"Day-10/D10P3.sol\":3337:3809  function getShapeDetails() public view returns (string memory) {... */\n    tag_6:\n      tag_19\n      tag_20\n      jump\t// in\n    tag_19:\n      mload(0x40)\n      tag_21\n      swap2\n      swap1\n      tag_22\n      jump\t// in\n    tag_21:\n      mload(0x40)\n      dup1\n      swap2\n      sub\n      swap1\n      return\n        /* \"Day-10/D10P3.sol\":2979:2995  Cube public cube */\n    tag_8:\n      0x00\n      dup1\n      sload\n      swap1\n      0x0100\n      exp\n      swap1\n      div\n      0xffffffffffffffffffffffffffffffffffffffff\n      and\n      dup2\n      jump\t// out\n        /* \"Day-10/D10P3.sol\":3033:3049  Cone public cone */\n    tag_12:\n      0x02\n      0x00\n      swap1\n      sload\n      swap1\n      0x0100\n      exp\n      swap1\n      div\n      0xffffffffffffffffffffffffffffffffffffffff\n      and\n      dup2\n      jump\t// out\n        /* \"Day-10/D10P3.sol\":3002:3026  Cylinder public cylinder */\n    tag_16:\n      0x01\n      0x00\n      swap1\n      sload\n      swap1\n      0x0100\n      exp\n      swap1\n      div\n      0xffffffffffffffffffffffffffffffffffffffff\n      and\n      dup2\n      jump\t// out\n        /* \"Day-10/D10P3.sol\":3337:3809  function getShapeDetails() public view returns (string memory) {... */\n    tag_20:\n        /* \"Day-10/D10P3.sol\":3385:3398  string memory */\n      0x60\n        /* \"Day-10/D10P3.sol\":3481:3509  uint2str(cube.surfaceArea()) */\n      tag_24\n        /* \"Day-10/D10P3.sol\":3490:3494  cube */\n      0x00\n      dup1\n      sload\n      swap1\n      0x0100\n      exp\n      swap1\n      div\n      0xffffffffffffffffffffffffffffffffffffffff\n      and\n        /* \"Day-10/D10P3.sol\":3490:3506  cube.surfaceArea */\n      0xffffffffffffffffffffffffffffffffffffffff\n      and\n      0x89e7995f\n        /* \"Day-10/D10P3.sol\":3490:3508  cube.surfaceArea() */\n      mload(0x40)\n      dup2\n      0xffffffff\n      and\n      0xe0\n      shl\n      dup2\n      mstore\n      0x04\n      add\n      0x20\n      mload(0x40)\n      dup1\n      dup4\n      sub\n      dup2\n      dup7\n      gas\n      staticcall\n      iszero\n      dup1\n      iszero\n      tag_26\n      jumpi\n      returndatasize\n      0x00\n      dup1\n      returndatacopy\n      revert(0x00, returndatasize)\n    tag_26:\n      pop\n      pop\n      pop\n      pop\n      mload(0x40)\n      returndatasize\n      not(0x1f)\n      0x1f\n      dup3\n      add\n      and\n      dup3\n      add\n      dup1\n      0x40\n      mstore\n      pop\n      dup2\n      add\n      swap1\n      tag_27\n      swap2\n      swap1\n      tag_28\n      jump\t// in\n    tag_27:\n        /* \"Day-10/D10P3.sol\":3481:3489  uint2str */\n      tag_29\n        /* \"Day-10/D10P3.sol\":3481:3509  uint2str(cube.surfaceArea()) */\n      jump\t// in\n    tag_24:\n        /* \"Day-10/D10P3.sol\":3526:3549  uint2str(cube.volume()) */\n      tag_30\n        /* \"Day-10/D10P3.sol\":3535:3539  cube */\n      0x00\n      dup1\n      sload\n      swap1\n      0x0100\n      exp\n      swap1\n      div\n      0xffffffffffffffffffffffffffffffffffffffff\n      and\n        /* \"Day-10/D10P3.sol\":3535:3546  cube.volume */\n      0xffffffffffffffffffffffffffffffffffffffff\n      and\n      0xc618a1e4\n        /* \"Day-10/D10P3.sol\":3535:3548  cube.volume() */\n      mload(0x40)\n      dup2\n      0xffffffff\n      and\n      0xe0\n      shl\n      dup2\n      mstore\n      0x04\n      add\n      0x20\n      mload(0x40)\n      dup1\n      dup4\n      sub\n      dup2\n      dup7\n      gas\n      staticcall\n      iszero\n      dup1\n      iszero\n      tag_32\n      jumpi\n      returndatasize\n      0x00\n      dup1\n      returndatacopy\n      revert(0x00, returndatasize)\n    tag_32:\n      pop\n      pop\n      pop\n      pop\n      mload(0x40)\n      returndatasize\n      not(0x1f)\n      0x1f\n      dup3\n      add\n      and\n      dup3\n      add\n      dup1\n      0x40\n      mstore\n      pop\n      dup2\n      add\n      swap1\n      tag_33\n      swap2\n      swap1\n      tag_28\n      jump\t// in\n    tag_33:\n        /* \"Day-10/D10P3.sol\":3526:3534  uint2str */\n      tag_29\n        /* \"Day-10/D10P3.sol\":3526:3549  uint2str(cube.volume()) */\n      jump\t// in\n    tag_30:\n        /* \"Day-10/D10P3.sol\":3599:3631  uint2str(cylinder.surfaceArea()) */\n      tag_34\n        /* \"Day-10/D10P3.sol\":3608:3616  cylinder */\n      0x01\n      0x00\n      swap1\n      sload\n      swap1\n      0x0100\n      exp\n      swap1\n      div\n      0xffffffffffffffffffffffffffffffffffffffff\n      and\n        /* \"Day-10/D10P3.sol\":3608:3628  cylinder.surfaceArea */\n      0xffffffffffffffffffffffffffffffffffffffff\n      and\n      0x89e7995f\n        /* \"Day-10/D10P3.sol\":3608:3630  cylinder.surfaceArea() */\n      mload(0x40)\n      dup2\n      0xffffffff\n      and\n      0xe0\n      shl\n      dup2\n      mstore\n      0x04\n      add\n      0x20\n      mload(0x40)\n      dup1\n      dup4\n      sub\n      dup2\n      dup7\n      gas\n      staticcall\n      iszero\n      dup1\n      iszero\n      tag_36\n      jumpi\n      returndatasize\n      0x00\n      dup1\n      returndatacopy\n      revert(0x00, returndatasize)\n    tag_36:\n      pop\n      pop\n      pop\n      pop\n      mload(0x40)\n      returndatasize\n      not(0x1f)\n      0x1f\n      dup3\n      add\n      and\n      dup3\n      add\n      dup1\n      0x40\n      mstore\n      pop\n      dup2\n      add\n      swap1\n      tag_37\n      swap2\n      swap1\n      tag_28\n      jump\t// in\n    tag_37:\n        /* \"Day-10/D10P3.sol\":3599:3607  uint2str */\n      tag_29\n        /* \"Day-10/D10P3.sol\":3599:3631  uint2str(cylinder.surfaceArea()) */\n      jump\t// in\n    tag_34:\n        /* \"Day-10/D10P3.sol\":3648:3675  uint2str(cylinder.volume()) */\n      tag_38\n        /* \"Day-10/D10P3.sol\":3657:3665  cylinder */\n      0x01\n      0x00\n      swap1\n      sload\n      swap1\n      0x0100\n      exp\n      swap1\n      div\n      0xffffffffffffffffffffffffffffffffffffffff\n      and\n        /* \"Day-10/D10P3.sol\":3657:3672  cylinder.volume */\n      0xffffffffffffffffffffffffffffffffffffffff\n      and\n      0xc618a1e4\n        /* \"Day-10/D10P3.sol\":3657:3674  cylinder.volume() */\n      mload(0x40)\n      dup2\n      0xffffffff\n      and\n      0xe0\n      shl\n      dup2\n      mstore\n      0x04\n      add\n      0x20\n      mload(0x40)\n      dup1\n      dup4\n      sub\n      dup2\n      dup7\n      gas\n      staticcall\n      iszero\n      dup1\n      iszero\n      tag_40\n      jumpi\n      returndatasize\n      0x00\n      dup1\n      returndatacopy\n      revert(0x00, returndatasize)\n    tag_40:\n      pop\n      pop\n      pop\n      pop\n      mload(0x40)\n      returndatasize\n      not(0x1f)\n      0x1f\n      dup3\n      add\n      and\n      dup3\n      add\n      dup1\n      0x40\n      mstore\n      pop\n      dup2\n      add\n      swap1\n      tag_41\n      swap2\n      swap1\n      tag_28\n      jump\t// in\n    tag_41:\n        /* \"Day-10/D10P3.sol\":3648:3656  uint2str */\n      tag_29\n        /* \"Day-10/D10P3.sol\":3648:3675  uint2str(cylinder.volume()) */\n      jump\t// in\n    tag_38:\n        /* \"Day-10/D10P3.sol\":3721:3749  uint2str(cone.surfaceArea()) */\n      tag_42\n        /* \"Day-10/D10P3.sol\":3730:3734  cone */\n      0x02\n      0x00\n      swap1\n      sload\n      swap1\n      0x0100\n      exp\n      swap1\n      div\n      0xffffffffffffffffffffffffffffffffffffffff\n      and\n        /* \"Day-10/D10P3.sol\":3730:3746  cone.surfaceArea */\n      0xffffffffffffffffffffffffffffffffffffffff\n      and\n      0x89e7995f\n        /* \"Day-10/D10P3.sol\":3730:3748  cone.surfaceArea() */\n      mload(0x40)\n      dup2\n      0xffffffff\n      and\n      0xe0\n      shl\n      dup2\n      mstore\n      0x04\n      add\n      0x20\n      mload(0x40)\n      dup1\n      dup4\n      sub\n      dup2\n      dup7\n      gas\n      staticcall\n      iszero\n      dup1\n      iszero\n      tag_44\n      jumpi\n      returndatasize\n      0x00\n      dup1\n      returndatacopy\n      revert(0x00, returndatasize)\n    tag_44:\n      pop\n      pop\n      pop\n      pop\n      mload(0x40)\n      returndatasize\n      not(0x1f)\n      0x1f\n      dup3\n      add\n      and\n      dup3\n      add\n      dup1\n      0x40\n      mstore\n      pop\n      dup2\n      add\n      swap1\n      tag_45\n      swap2\n      swap1\n      tag_28\n      jump\t// in\n    tag_45:\n        /* \"Day-10/D10P3.sol\":3721:3729  uint2str */\n      tag_29\n        /* \"Day-10/D10P3.sol\":3721:3749  uint2str(cone.surfaceArea()) */\n      jump\t// in\n    tag_42:\n        /* \"Day-10/D10P3.sol\":3766:3789  uint2str(cone.volume()) */\n      tag_46\n        /* \"Day-10/D10P3.sol\":3775:3779  cone */\n      0x02\n      0x00\n      swap1\n      sload\n      swap1\n      0x0100\n      exp\n      swap1\n      div\n      0xffffffffffffffffffffffffffffffffffffffff\n      and\n        /* \"Day-10/D10P3.sol\":3775:3786  cone.volume */\n      0xffffffffffffffffffffffffffffffffffffffff\n      and\n      0xc618a1e4\n        /* \"Day-10/D10P3.sol\":3775:3788  cone.volume() */\n      mload(0x40)\n      dup2\n      0xffffffff\n      and\n      0xe0\n      shl\n      dup2\n      mstore\n      0x04\n      add\n      0x20\n      mload(0x40)\n      dup1\n      dup4\n      sub\n      dup2\n      dup7\n      gas\n      staticcall\n      iszero\n      dup1\n      iszero\n      tag_48\n      jumpi\n      returndatasize\n      0x00\n      dup1\n      returndatacopy\n      revert(0x00, returndatasize)\n    tag_48:\n      pop\n      pop\n      pop\n      pop\n      mload(0x40)\n      returndatasize\n      not(0x1f)\n      0x1f\n      dup3\n      add\n      and\n      dup3\n      add\n      dup1\n      0x40\n      mstore\n      pop\n      dup2\n      add\n      swap1\n      tag_49\n      swap2\n      swap1\n      tag_28\n      jump\t// in\n    tag_49:\n        /* \"Day-10/D10P3.sol\":3766:3774  uint2str */\n      tag_29\n        /* \"Day-10/D10P3.sol\":3766:3789  uint2str(cone.volume()) */\n      jump\t// in\n    tag_46:\n        /* \"Day-10/D10P3.sol\":3425:3800  abi.encodePacked(... */\n      add(0x20, mload(0x40))\n      tag_50\n      swap7\n      swap6\n      swap5\n      swap4\n      swap3\n      swap2\n      swap1\n      tag_51\n      jump\t// in\n    tag_50:\n      mload(0x40)\n      0x20\n      dup2\n      dup4\n      sub\n      sub\n      dup2\n      mstore\n      swap1\n      0x40\n      mstore\n        /* \"Day-10/D10P3.sol\":3411:3801  return string(abi.encodePacked(... */\n      swap1\n      pop\n        /* \"Day-10/D10P3.sol\":3337:3809  function getShapeDetails() public view returns (string memory) {... */\n      swap1\n      jump\t// out\n        /* \"Day-10/D10P3.sol\":3872:4404  function uint2str(uint _i) internal pure returns (string memory) {... */\n    tag_29:\n        /* \"Day-10/D10P3.sol\":3922:3935  string memory */\n      0x60\n        /* \"Day-10/D10P3.sol\":3958:3959  0 */\n      0x00\n        /* \"Day-10/D10P3.sol\":3952:3954  _i */\n      dup3\n        /* \"Day-10/D10P3.sol\":3952:3959  _i == 0 */\n      sub\n        /* \"Day-10/D10P3.sol\":3948:3998  if (_i == 0) {... */\n      tag_53\n      jumpi\n        /* \"Day-10/D10P3.sol\":3976:3986  return \"0\" */\n      mload(0x40)\n      dup1\n      0x40\n      add\n      0x40\n      mstore\n      dup1\n      0x01\n      dup2\n      mstore\n      0x20\n      add\n      0x3000000000000000000000000000000000000000000000000000000000000000\n      dup2\n      mstore\n      pop\n      swap1\n      pop\n      jump(tag_52)\n        /* \"Day-10/D10P3.sol\":3948:3998  if (_i == 0) {... */\n    tag_53:\n        /* \"Day-10/D10P3.sol\":4008:4014  uint j */\n      0x00\n        /* \"Day-10/D10P3.sol\":4017:4019  _i */\n      dup3\n        /* \"Day-10/D10P3.sol\":4008:4019  uint j = _i */\n      swap1\n      pop\n        /* \"Day-10/D10P3.sol\":4030:4038  uint len */\n      0x00\n        /* \"Day-10/D10P3.sol\":4049:4118  while (j != 0) {... */\n    tag_54:\n        /* \"Day-10/D10P3.sol\":4061:4062  0 */\n      0x00\n        /* \"Day-10/D10P3.sol\":4056:4057  j */\n      dup3\n        /* \"Day-10/D10P3.sol\":4056:4062  j != 0 */\n      eq\n        /* \"Day-10/D10P3.sol\":4049:4118  while (j != 0) {... */\n      tag_55\n      jumpi\n        /* \"Day-10/D10P3.sol\":4079:4084  len++ */\n      dup1\n      dup1\n      tag_56\n      swap1\n      tag_57\n      jump\t// in\n    tag_56:\n      swap2\n      pop\n      pop\n        /* \"Day-10/D10P3.sol\":4104:4106  10 */\n      0x0a\n        /* \"Day-10/D10P3.sol\":4099:4106  j /= 10 */\n      dup3\n      tag_58\n      swap2\n      swap1\n      tag_59\n      jump\t// in\n    tag_58:\n      swap2\n      pop\n        /* \"Day-10/D10P3.sol\":4049:4118  while (j != 0) {... */\n      jump(tag_54)\n    tag_55:\n        /* \"Day-10/D10P3.sol\":4128:4145  bytes memory bstr */\n      0x00\n        /* \"Day-10/D10P3.sol\":4158:4161  len */\n      dup2\n        /* \"Day-10/D10P3.sol\":4148:4162  new bytes(len) */\n      0xffffffffffffffff\n      dup2\n      gt\n      iszero\n      tag_60\n      jumpi\n      tag_61\n      tag_62\n      jump\t// in\n    tag_61:\n    tag_60:\n      mload(0x40)\n      swap1\n      dup1\n      dup3\n      mstore\n      dup1\n      0x1f\n      add\n      not(0x1f)\n      and\n      0x20\n      add\n      dup3\n      add\n      0x40\n      mstore\n      dup1\n      iszero\n      tag_63\n      jumpi\n      dup2\n      0x20\n      add\n      0x01\n      dup3\n      mul\n      dup1\n      calldatasize\n      dup4\n      calldatacopy\n      dup1\n      dup3\n      add\n      swap2\n      pop\n      pop\n      swap1\n      pop\n    tag_63:\n      pop\n        /* \"Day-10/D10P3.sol\":4128:4162  bytes memory bstr = new bytes(len) */\n      swap1\n      pop\n        /* \"Day-10/D10P3.sol\":4173:4179  uint k */\n      0x00\n        /* \"Day-10/D10P3.sol\":4182:4185  len */\n      dup3\n        /* \"Day-10/D10P3.sol\":4173:4185  uint k = len */\n      swap1\n      pop\n        /* \"Day-10/D10P3.sol\":4196:4367  while (_i != 0) {... */\n    tag_64:\n        /* \"Day-10/D10P3.sol\":4209:4210  0 */\n      0x00\n        /* \"Day-10/D10P3.sol\":4203:4205  _i */\n      dup7\n        /* \"Day-10/D10P3.sol\":4203:4210  _i != 0 */\n      eq\n        /* \"Day-10/D10P3.sol\":4196:4367  while (_i != 0) {... */\n      tag_65\n      jumpi\n        /* \"Day-10/D10P3.sol\":4233:4234  1 */\n      0x01\n        /* \"Day-10/D10P3.sol\":4231:4232  k */\n      dup2\n        /* \"Day-10/D10P3.sol\":4231:4234  k-1 */\n      tag_66\n      swap2\n      swap1\n      tag_67\n      jump\t// in\n    tag_66:\n        /* \"Day-10/D10P3.sol\":4227:4234  k = k-1 */\n      swap1\n      pop\n        /* \"Day-10/D10P3.sol\":4249:4259  uint8 temp */\n      0x00\n        /* \"Day-10/D10P3.sol\":4291:4293  10 */\n      0x0a\n        /* \"Day-10/D10P3.sol\":4285:4287  10 */\n      dup1\n        /* \"Day-10/D10P3.sol\":4280:4282  _i */\n      dup9\n        /* \"Day-10/D10P3.sol\":4280:4287  _i / 10 */\n      tag_68\n      swap2\n      swap1\n      tag_59\n      jump\t// in\n    tag_68:\n        /* \"Day-10/D10P3.sol\":4279:4293  (_i / 10) * 10 */\n      tag_69\n      swap2\n      swap1\n      tag_70\n      jump\t// in\n    tag_69:\n        /* \"Day-10/D10P3.sol\":4274:4276  _i */\n      dup8\n        /* \"Day-10/D10P3.sol\":4274:4293  _i - (_i / 10) * 10 */\n      tag_71\n      swap2\n      swap1\n      tag_67\n      jump\t// in\n    tag_71:\n        /* \"Day-10/D10P3.sol\":4263:4265  48 */\n      0x30\n        /* \"Day-10/D10P3.sol\":4263:4294  48 + uint8(_i - (_i / 10) * 10) */\n      tag_72\n      swap2\n      swap1\n      tag_73\n      jump\t// in\n    tag_72:\n        /* \"Day-10/D10P3.sol\":4249:4295  uint8 temp = (48 + uint8(_i - (_i / 10) * 10)) */\n      swap1\n      pop\n        /* \"Day-10/D10P3.sol\":4327:4331  temp */\n      dup1\n        /* \"Day-10/D10P3.sol\":4320:4332  bytes1(temp) */\n      0xf8\n      shl\n        /* \"Day-10/D10P3.sol\":4310:4314  bstr */\n      dup4\n        /* \"Day-10/D10P3.sol\":4315:4316  k */\n      dup4\n        /* \"Day-10/D10P3.sol\":4310:4317  bstr[k] */\n      dup2\n      mload\n      dup2\n      lt\n      tag_74\n      jumpi\n      tag_75\n      tag_76\n      jump\t// in\n    tag_75:\n    tag_74:\n      0x20\n      add\n      add\n        /* \"Day-10/D10P3.sol\":4310:4332  bstr[k] = bytes1(temp) */\n      swap1\n      not(0xffffffffffffffffffffffffffffffffffffffffffffffffffffffffffffff)\n      and\n      swap1\n      dup2\n      0x00\n      byte\n      swap1\n      mstore8\n      pop\n        /* \"Day-10/D10P3.sol\":4353:4355  10 */\n      0x0a\n        /* \"Day-10/D10P3.sol\":4347:4355  _i /= 10 */\n      dup8\n      tag_77\n      swap2\n      swap1\n      tag_59\n      jump\t// in\n    tag_77:\n      swap7\n      pop\n        /* \"Day-10/D10P3.sol\":4212:4367  {... */\n      pop\n        /* \"Day-10/D10P3.sol\":4196:4367  while (_i != 0) {... */\n      jump(tag_64)\n    tag_65:\n        /* \"Day-10/D10P3.sol\":4391:4395  bstr */\n      dup2\n        /* \"Day-10/D10P3.sol\":4377:4396  return string(bstr) */\n      swap5\n      pop\n      pop\n      pop\n      pop\n      pop\n        /* \"Day-10/D10P3.sol\":3872:4404  function uint2str(uint _i) internal pure returns (string memory) {... */\n    tag_52:\n      swap2\n      swap1\n      pop\n      jump\t// out\n        /* \"#utility.yul\":7:133   */\n    tag_78:\n        /* \"#utility.yul\":44:51   */\n      0x00\n        /* \"#utility.yul\":84:126   */\n      0xffffffffffffffffffffffffffffffffffffffff\n        /* \"#utility.yul\":77:82   */\n      dup3\n        /* \"#utility.yul\":73:127   */\n      and\n        /* \"#utility.yul\":62:127   */\n      swap1\n      pop\n        /* \"#utility.yul\":7:133   */\n      swap2\n      swap1\n      pop\n      jump\t// out\n        /* \"#utility.yul\":139:199   */\n    tag_79:\n        /* \"#utility.yul\":167:170   */\n      0x00\n        /* \"#utility.yul\":188:193   */\n      dup2\n        /* \"#utility.yul\":181:193   */\n      swap1\n      pop\n        /* \"#utility.yul\":139:199   */\n      swap2\n      swap1\n      pop\n      jump\t// out\n        /* \"#utility.yul\":205:347   */\n    tag_80:\n        /* \"#utility.yul\":255:264   */\n      0x00\n        /* \"#utility.yul\":288:341   */\n      tag_118\n        /* \"#utility.yul\":306:340   */\n      tag_119\n        /* \"#utility.yul\":315:339   */\n      tag_120\n        /* \"#utility.yul\":333:338   */\n      dup5\n        /* \"#utility.yul\":315:339   */\n      tag_78\n      jump\t// in\n    tag_120:\n        /* \"#utility.yul\":306:340   */\n      tag_79\n      jump\t// in\n    tag_119:\n        /* \"#utility.yul\":288:341   */\n      tag_78\n      jump\t// in\n    tag_118:\n        /* \"#utility.yul\":275:341   */\n      swap1\n      pop\n        /* \"#utility.yul\":205:347   */\n      swap2\n      swap1\n      pop\n      jump\t// out\n        /* \"#utility.yul\":353:479   */\n    tag_81:\n        /* \"#utility.yul\":403:412   */\n      0x00\n        /* \"#utility.yul\":436:473   */\n      tag_122\n        /* \"#utility.yul\":467:472   */\n      dup3\n        /* \"#utility.yul\":436:473   */\n      tag_80\n      jump\t// in\n    tag_122:\n        /* \"#utility.yul\":423:473   */\n      swap1\n      pop\n        /* \"#utility.yul\":353:479   */\n      swap2\n      swap1\n      pop\n      jump\t// out\n        /* \"#utility.yul\":485:623   */\n    tag_82:\n        /* \"#utility.yul\":547:556   */\n      0x00\n        /* \"#utility.yul\":580:617   */\n      tag_124\n        /* \"#utility.yul\":611:616   */\n      dup3\n        /* \"#utility.yul\":580:617   */\n      tag_81\n      jump\t// in\n    tag_124:\n        /* \"#utility.yul\":567:617   */\n      swap1\n      pop\n        /* \"#utility.yul\":485:623   */\n      swap2\n      swap1\n      pop\n      jump\t// out\n        /* \"#utility.yul\":629:784   */\n    tag_83:\n        /* \"#utility.yul\":728:777   */\n      tag_126\n        /* \"#utility.yul\":771:776   */\n      dup2\n        /* \"#utility.yul\":728:777   */\n      tag_82\n      jump\t// in\n    tag_126:\n        /* \"#utility.yul\":723:726   */\n      dup3\n        /* \"#utility.yul\":716:778   */\n      mstore\n        /* \"#utility.yul\":629:784   */\n      pop\n      pop\n      jump\t// out\n        /* \"#utility.yul\":790:1036   */\n    tag_10:\n        /* \"#utility.yul\":895:899   */\n      0x00\n        /* \"#utility.yul\":933:935   */\n      0x20\n        /* \"#utility.yul\":922:931   */\n      dup3\n        /* \"#utility.yul\":918:936   */\n      add\n        /* \"#utility.yul\":910:936   */\n      swap1\n      pop\n        /* \"#utility.yul\":946:1029   */\n      tag_128\n        /* \"#utility.yul\":1026:1027   */\n      0x00\n        /* \"#utility.yul\":1015:1024   */\n      dup4\n        /* \"#utility.yul\":1011:1028   */\n      add\n        /* \"#utility.yul\":1002:1008   */\n      dup5\n        /* \"#utility.yul\":946:1029   */\n      tag_83\n      jump\t// in\n    tag_128:\n        /* \"#utility.yul\":790:1036   */\n      swap3\n      swap2\n      pop\n      pop\n      jump\t// out\n        /* \"#utility.yul\":1042:1180   */\n    tag_84:\n        /* \"#utility.yul\":1104:1113   */\n      0x00\n        /* \"#utility.yul\":1137:1174   */\n      tag_130\n        /* \"#utility.yul\":1168:1173   */\n      dup3\n        /* \"#utility.yul\":1137:1174   */\n      tag_81\n      jump\t// in\n    tag_130:\n        /* \"#utility.yul\":1124:1174   */\n      swap1\n      pop\n        /* \"#utility.yul\":1042:1180   */\n      swap2\n      swap1\n      pop\n      jump\t// out\n        /* \"#utility.yul\":1186:1341   */\n    tag_85:\n        /* \"#utility.yul\":1285:1334   */\n      tag_132\n        /* \"#utility.yul\":1328:1333   */\n      dup2\n        /* \"#utility.yul\":1285:1334   */\n      tag_84\n      jump\t// in\n    tag_132:\n        /* \"#utility.yul\":1280:1283   */\n      dup3\n        /* \"#utility.yul\":1273:1335   */\n      mstore\n        /* \"#utility.yul\":1186:1341   */\n      pop\n      pop\n      jump\t// out\n        /* \"#utility.yul\":1347:1593   */\n    tag_14:\n        /* \"#utility.yul\":1452:1456   */\n      0x00\n        /* \"#utility.yul\":1490:1492   */\n      0x20\n        /* \"#utility.yul\":1479:1488   */\n      dup3\n        /* \"#utility.yul\":1475:1493   */\n      add\n        /* \"#utility.yul\":1467:1493   */\n      swap1\n      pop\n        /* \"#utility.yul\":1503:1586   */\n      tag_134\n        /* \"#utility.yul\":1583:1584   */\n      0x00\n        /* \"#utility.yul\":1572:1581   */\n      dup4\n        /* \"#utility.yul\":1568:1585   */\n      add\n        /* \"#utility.yul\":1559:1565   */\n      dup5\n        /* \"#utility.yul\":1503:1586   */\n      tag_85\n      jump\t// in\n    tag_134:\n        /* \"#utility.yul\":1347:1593   */\n      swap3\n      swap2\n      pop\n      pop\n      jump\t// out\n        /* \"#utility.yul\":1599:1741   */\n    tag_86:\n        /* \"#utility.yul\":1665:1674   */\n      0x00\n        /* \"#utility.yul\":1698:1735   */\n      tag_136\n        /* \"#utility.yul\":1729:1734   */\n      dup3\n        /* \"#utility.yul\":1698:1735   */\n      tag_81\n      jump\t// in\n    tag_136:\n        /* \"#utility.yul\":1685:1735   */\n      swap1\n      pop\n        /* \"#utility.yul\":1599:1741   */\n      swap2\n      swap1\n      pop\n      jump\t// out\n        /* \"#utility.yul\":1747:1910   */\n    tag_87:\n        /* \"#utility.yul\":1850:1903   */\n      tag_138\n        /* \"#utility.yul\":1897:1902   */\n      dup2\n        /* \"#utility.yul\":1850:1903   */\n      tag_86\n      jump\t// in\n    tag_138:\n        /* \"#utility.yul\":1845:1848   */\n      dup3\n        /* \"#utility.yul\":1838:1904   */\n      mstore\n        /* \"#utility.yul\":1747:1910   */\n      pop\n      pop\n      jump\t// out\n        /* \"#utility.yul\":1916:2170   */\n    tag_18:\n        /* \"#utility.yul\":2025:2029   */\n      0x00\n        /* \"#utility.yul\":2063:2065   */\n      0x20\n        /* \"#utility.yul\":2052:2061   */\n      dup3\n        /* \"#utility.yul\":2048:2066   */\n      add\n        /* \"#utility.yul\":2040:2066   */\n      swap1\n      pop\n        /* \"#utility.yul\":2076:2163   */\n      tag_140\n        /* \"#utility.yul\":2160:2161   */\n      0x00\n        /* \"#utility.yul\":2149:2158   */\n      dup4\n        /* \"#utility.yul\":2145:2162   */\n      add\n        /* \"#utility.yul\":2136:2142   */\n      dup5\n        /* \"#utility.yul\":2076:2163   */\n      tag_87\n      jump\t// in\n    tag_140:\n        /* \"#utility.yul\":1916:2170   */\n      swap3\n      swap2\n      pop\n      pop\n      jump\t// out\n        /* \"#utility.yul\":2176:2275   */\n    tag_88:\n        /* \"#utility.yul\":2228:2234   */\n      0x00\n        /* \"#utility.yul\":2262:2267   */\n      dup2\n        /* \"#utility.yul\":2256:2268   */\n      mload\n        /* \"#utility.yul\":2246:2268   */\n      swap1\n      pop\n        /* \"#utility.yul\":2176:2275   */\n      swap2\n      swap1\n      pop\n      jump\t// out\n        /* \"#utility.yul\":2281:2450   */\n    tag_89:\n        /* \"#utility.yul\":2365:2376   */\n      0x00\n        /* \"#utility.yul\":2399:2405   */\n      dup3\n        /* \"#utility.yul\":2394:2397   */\n      dup3\n        /* \"#utility.yul\":2387:2406   */\n      mstore\n        /* \"#utility.yul\":2439:2443   */\n      0x20\n        /* \"#utility.yul\":2434:2437   */\n      dup3\n        /* \"#utility.yul\":2430:2444   */\n      add\n        /* \"#utility.yul\":2415:2444   */\n      swap1\n      pop\n        /* \"#utility.yul\":2281:2450   */\n      swap3\n      swap2\n      pop\n      pop\n      jump\t// out\n        /* \"#utility.yul\":2456:2595   */\n    tag_90:\n        /* \"#utility.yul\":2545:2551   */\n      dup3\n        /* \"#utility.yul\":2540:2543   */\n      dup2\n        /* \"#utility.yul\":2535:2538   */\n      dup4\n        /* \"#utility.yul\":2529:2552   */\n      mcopy\n        /* \"#utility.yul\":2586:2587   */\n      0x00\n        /* \"#utility.yul\":2577:2583   */\n      dup4\n        /* \"#utility.yul\":2572:2575   */\n      dup4\n        /* \"#utility.yul\":2568:2584   */\n      add\n        /* \"#utility.yul\":2561:2588   */\n      mstore\n        /* \"#utility.yul\":2456:2595   */\n      pop\n      pop\n      pop\n      jump\t// out\n        /* \"#utility.yul\":2601:2703   */\n    tag_91:\n        /* \"#utility.yul\":2642:2648   */\n      0x00\n        /* \"#utility.yul\":2693:2695   */\n      0x1f\n        /* \"#utility.yul\":2689:2696   */\n      not\n        /* \"#utility.yul\":2684:2686   */\n      0x1f\n        /* \"#utility.yul\":2677:2682   */\n      dup4\n        /* \"#utility.yul\":2673:2687   */\n      add\n        /* \"#utility.yul\":2669:2697   */\n      and\n        /* \"#utility.yul\":2659:2697   */\n      swap1\n      pop\n        /* \"#utility.yul\":2601:2703   */\n      swap2\n      swap1\n      pop\n      jump\t// out\n        /* \"#utility.yul\":2709:3086   */\n    tag_92:\n        /* \"#utility.yul\":2797:2800   */\n      0x00\n        /* \"#utility.yul\":2825:2864   */\n      tag_146\n        /* \"#utility.yul\":2858:2863   */\n      dup3\n        /* \"#utility.yul\":2825:2864   */\n      tag_88\n      jump\t// in\n    tag_146:\n        /* \"#utility.yul\":2880:2951   */\n      tag_147\n        /* \"#utility.yul\":2944:2950   */\n      dup2\n        /* \"#utility.yul\":2939:2942   */\n      dup6\n        /* \"#utility.yul\":2880:2951   */\n      tag_89\n      jump\t// in\n    tag_147:\n        /* \"#utility.yul\":2873:2951   */\n      swap4\n      pop\n        /* \"#utility.yul\":2960:3025   */\n      tag_148\n        /* \"#utility.yul\":3018:3024   */\n      dup2\n        /* \"#utility.yul\":3013:3016   */\n      dup6\n        /* \"#utility.yul\":3006:3010   */\n      0x20\n        /* \"#utility.yul\":2999:3004   */\n      dup7\n        /* \"#utility.yul\":2995:3011   */\n      add\n        /* \"#utility.yul\":2960:3025   */\n      tag_90\n      jump\t// in\n    tag_148:\n        /* \"#utility.yul\":3050:3079   */\n      tag_149\n        /* \"#utility.yul\":3072:3078   */\n      dup2\n        /* \"#utility.yul\":3050:3079   */\n      tag_91\n      jump\t// in\n    tag_149:\n        /* \"#utility.yul\":3045:3048   */\n      dup5\n        /* \"#utility.yul\":3041:3080   */\n      add\n        /* \"#utility.yul\":3034:3080   */\n      swap2\n      pop\n        /* \"#utility.yul\":2801:3086   */\n      pop\n        /* \"#utility.yul\":2709:3086   */\n      swap3\n      swap2\n      pop\n      pop\n      jump\t// out\n        /* \"#utility.yul\":3092:3405   */\n    tag_22:\n        /* \"#utility.yul\":3205:3209   */\n      0x00\n        /* \"#utility.yul\":3243:3245   */\n      0x20\n        /* \"#utility.yul\":3232:3241   */\n      dup3\n        /* \"#utility.yul\":3228:3246   */\n      add\n        /* \"#utility.yul\":3220:3246   */\n      swap1\n      pop\n        /* \"#utility.yul\":3292:3301   */\n      dup2\n        /* \"#utility.yul\":3286:3290   */\n      dup2\n        /* \"#utility.yul\":3282:3302   */\n      sub\n        /* \"#utility.yul\":3278:3279   */\n      0x00\n        /* \"#utility.yul\":3267:3276   */\n      dup4\n        /* \"#utility.yul\":3263:3280   */\n      add\n        /* \"#utility.yul\":3256:3303   */\n      mstore\n        /* \"#utility.yul\":3320:3398   */\n      tag_151\n        /* \"#utility.yul\":3393:3397   */\n      dup2\n        /* \"#utility.yul\":3384:3390   */\n      dup5\n        /* \"#utility.yul\":3320:3398   */\n      tag_92\n      jump\t// in\n    tag_151:\n        /* \"#utility.yul\":3312:3398   */\n      swap1\n      pop\n        /* \"#utility.yul\":3092:3405   */\n      swap3\n      swap2\n      pop\n      pop\n      jump\t// out\n        /* \"#utility.yul\":3492:3609   */\n    tag_94:\n        /* \"#utility.yul\":3601:3602   */\n      0x00\n        /* \"#utility.yul\":3598:3599   */\n      dup1\n        /* \"#utility.yul\":3591:3603   */\n      revert\n        /* \"#utility.yul\":3738:3815   */\n    tag_96:\n        /* \"#utility.yul\":3775:3782   */\n      0x00\n        /* \"#utility.yul\":3804:3809   */\n      dup2\n        /* \"#utility.yul\":3793:3809   */\n      swap1\n      pop\n        /* \"#utility.yul\":3738:3815   */\n      swap2\n      swap1\n      pop\n      jump\t// out\n        /* \"#utility.yul\":3821:3943   */\n    tag_97:\n        /* \"#utility.yul\":3894:3918   */\n      tag_157\n        /* \"#utility.yul\":3912:3917   */\n      dup2\n        /* \"#utility.yul\":3894:3918   */\n      tag_96\n      jump\t// in\n    tag_157:\n        /* \"#utility.yul\":3887:3892   */\n      dup2\n        /* \"#utility.yul\":3884:3919   */\n      eq\n        /* \"#utility.yul\":3874:3937   */\n      tag_158\n      jumpi\n        /* \"#utility.yul\":3933:3934   */\n      0x00\n        /* \"#utility.yul\":3930:3931   */\n      dup1\n        /* \"#utility.yul\":3923:3935   */\n      revert\n        /* \"#utility.yul\":3874:3937   */\n    tag_158:\n        /* \"#utility.yul\":3821:3943   */\n      pop\n      jump\t// out\n        /* \"#utility.yul\":3949:4092   */\n    tag_98:\n        /* \"#utility.yul\":4006:4011   */\n      0x00\n        /* \"#utility.yul\":4037:4043   */\n      dup2\n        /* \"#utility.yul\":4031:4044   */\n      mload\n        /* \"#utility.yul\":4022:4044   */\n      swap1\n      pop\n        /* \"#utility.yul\":4053:4086   */\n      tag_160\n        /* \"#utility.yul\":4080:4085   */\n      dup2\n        /* \"#utility.yul\":4053:4086   */\n      tag_97\n      jump\t// in\n    tag_160:\n        /* \"#utility.yul\":3949:4092   */\n      swap3\n      swap2\n      pop\n      pop\n      jump\t// out\n        /* \"#utility.yul\":4098:4449   */\n    tag_28:\n        /* \"#utility.yul\":4168:4174   */\n      0x00\n        /* \"#utility.yul\":4217:4219   */\n      0x20\n        /* \"#utility.yul\":4205:4214   */\n      dup3\n        /* \"#utility.yul\":4196:4203   */\n      dup5\n        /* \"#utility.yul\":4192:4215   */\n      sub\n        /* \"#utility.yul\":4188:4220   */\n      slt\n        /* \"#utility.yul\":4185:4304   */\n      iszero\n      tag_162\n      jumpi\n        /* \"#utility.yul\":4223:4302   */\n      tag_163\n      tag_94\n      jump\t// in\n    tag_163:\n        /* \"#utility.yul\":4185:4304   */\n    tag_162:\n        /* \"#utility.yul\":4343:4344   */\n      0x00\n        /* \"#utility.yul\":4368:4432   */\n      tag_164\n        /* \"#utility.yul\":4424:4431   */\n      dup5\n        /* \"#utility.yul\":4415:4421   */\n      dup3\n        /* \"#utility.yul\":4404:4413   */\n      dup6\n        /* \"#utility.yul\":4400:4422   */\n      add\n        /* \"#utility.yul\":4368:4432   */\n      tag_98\n      jump\t// in\n    tag_164:\n        /* \"#utility.yul\":4358:4432   */\n      swap2\n      pop\n        /* \"#utility.yul\":4314:4442   */\n      pop\n        /* \"#utility.yul\":4098:4449   */\n      swap3\n      swap2\n      pop\n      pop\n      jump\t// out\n        /* \"#utility.yul\":4455:4603   */\n    tag_99:\n        /* \"#utility.yul\":4557:4568   */\n      0x00\n        /* \"#utility.yul\":4594:4597   */\n      dup2\n        /* \"#utility.yul\":4579:4597   */\n      swap1\n      pop\n        /* \"#utility.yul\":4455:4603   */\n      swap3\n      swap2\n      pop\n      pop\n      jump\t// out\n        /* \"#utility.yul\":4609:4780   */\n    tag_100:\n        /* \"#utility.yul\":4749:4772   */\n      0x437562653a20537572666163652041726561203d200000000000000000000000\n        /* \"#utility.yul\":4745:4746   */\n      0x00\n        /* \"#utility.yul\":4737:4743   */\n      dup3\n        /* \"#utility.yul\":4733:4747   */\n      add\n        /* \"#utility.yul\":4726:4773   */\n      mstore\n        /* \"#utility.yul\":4609:4780   */\n      pop\n      jump\t// out\n        /* \"#utility.yul\":4786:5188   */\n    tag_101:\n        /* \"#utility.yul\":4946:4949   */\n      0x00\n        /* \"#utility.yul\":4967:5052   */\n      tag_168\n        /* \"#utility.yul\":5049:5051   */\n      0x15\n        /* \"#utility.yul\":5044:5047   */\n      dup4\n        /* \"#utility.yul\":4967:5052   */\n      tag_99\n      jump\t// in\n    tag_168:\n        /* \"#utility.yul\":4960:5052   */\n      swap2\n      pop\n        /* \"#utility.yul\":5061:5154   */\n      tag_169\n        /* \"#utility.yul\":5150:5153   */\n      dup3\n        /* \"#utility.yul\":5061:5154   */\n      tag_100\n      jump\t// in\n    tag_169:\n        /* \"#utility.yul\":5179:5181   */\n      0x15\n        /* \"#utility.yul\":5174:5177   */\n      dup3\n        /* \"#utility.yul\":5170:5182   */\n      add\n        /* \"#utility.yul\":5163:5182   */\n      swap1\n      pop\n        /* \"#utility.yul\":4786:5188   */\n      swap2\n      swap1\n      pop\n      jump\t// out\n        /* \"#utility.yul\":5194:5584   */\n    tag_102:\n        /* \"#utility.yul\":5300:5303   */\n      0x00\n        /* \"#utility.yul\":5328:5367   */\n      tag_171\n        /* \"#utility.yul\":5361:5366   */\n      dup3\n        /* \"#utility.yul\":5328:5367   */\n      tag_88\n      jump\t// in\n    tag_171:\n        /* \"#utility.yul\":5383:5472   */\n      tag_172\n        /* \"#utility.yul\":5465:5471   */\n      dup2\n        /* \"#utility.yul\":5460:5463   */\n      dup6\n        /* \"#utility.yul\":5383:5472   */\n      tag_99\n      jump\t// in\n    tag_172:\n        /* \"#utility.yul\":5376:5472   */\n      swap4\n      pop\n        /* \"#utility.yul\":5481:5546   */\n      tag_173\n        /* \"#utility.yul\":5539:5545   */\n      dup2\n        /* \"#utility.yul\":5534:5537   */\n      dup6\n        /* \"#utility.yul\":5527:5531   */\n      0x20\n        /* \"#utility.yul\":5520:5525   */\n      dup7\n        /* \"#utility.yul\":5516:5532   */\n      add\n        /* \"#utility.yul\":5481:5546   */\n      tag_90\n      jump\t// in\n    tag_173:\n        /* \"#utility.yul\":5571:5577   */\n      dup1\n        /* \"#utility.yul\":5566:5569   */\n      dup5\n        /* \"#utility.yul\":5562:5578   */\n      add\n        /* \"#utility.yul\":5555:5578   */\n      swap2\n      pop\n        /* \"#utility.yul\":5304:5584   */\n      pop\n        /* \"#utility.yul\":5194:5584   */\n      swap3\n      swap2\n      pop\n      pop\n      jump\t// out\n        /* \"#utility.yul\":5590:5751   */\n    tag_103:\n        /* \"#utility.yul\":5730:5743   */\n      0x2c20566f6c756d65203d20000000000000000000000000000000000000000000\n        /* \"#utility.yul\":5726:5727   */\n      0x00\n        /* \"#utility.yul\":5718:5724   */\n      dup3\n        /* \"#utility.yul\":5714:5728   */\n      add\n        /* \"#utility.yul\":5707:5744   */\n      mstore\n        /* \"#utility.yul\":5590:5751   */\n      pop\n      jump\t// out\n        /* \"#utility.yul\":5757:6159   */\n    tag_104:\n        /* \"#utility.yul\":5917:5920   */\n      0x00\n        /* \"#utility.yul\":5938:6023   */\n      tag_176\n        /* \"#utility.yul\":6020:6022   */\n      0x0b\n        /* \"#utility.yul\":6015:6018   */\n      dup4\n        /* \"#utility.yul\":5938:6023   */\n      tag_99\n      jump\t// in\n    tag_176:\n        /* \"#utility.yul\":5931:6023   */\n      swap2\n      pop\n        /* \"#utility.yul\":6032:6125   */\n      tag_177\n        /* \"#utility.yul\":6121:6124   */\n      dup3\n        /* \"#utility.yul\":6032:6125   */\n      tag_103\n      jump\t// in\n    tag_177:\n        /* \"#utility.yul\":6150:6152   */\n      0x0b\n        /* \"#utility.yul\":6145:6148   */\n      dup3\n        /* \"#utility.yul\":6141:6153   */\n      add\n        /* \"#utility.yul\":6134:6153   */\n      swap1\n      pop\n        /* \"#utility.yul\":5757:6159   */\n      swap2\n      swap1\n      pop\n      jump\t// out\n        /* \"#utility.yul\":6165:6379   */\n    tag_105:\n        /* \"#utility.yul\":6305:6371   */\n      0x0a00000000000000000000000000000000000000000000000000000000000000\n        /* \"#utility.yul\":6301:6302   */\n      0x00\n        /* \"#utility.yul\":6293:6299   */\n      dup3\n        /* \"#utility.yul\":6289:6303   */\n      add\n        /* \"#utility.yul\":6282:6372   */\n      mstore\n        /* \"#utility.yul\":6165:6379   */\n      pop\n      jump\t// out\n        /* \"#utility.yul\":6385:6785   */\n    tag_106:\n        /* \"#utility.yul\":6545:6548   */\n      0x00\n        /* \"#utility.yul\":6566:6650   */\n      tag_180\n        /* \"#utility.yul\":6648:6649   */\n      0x01\n        /* \"#utility.yul\":6643:6646   */\n      dup4\n        /* \"#utility.yul\":6566:6650   */\n      tag_99\n      jump\t// in\n    tag_180:\n        /* \"#utility.yul\":6559:6650   */\n      swap2\n      pop\n        /* \"#utility.yul\":6659:6752   */\n      tag_181\n        /* \"#utility.yul\":6748:6751   */\n      dup3\n        /* \"#utility.yul\":6659:6752   */\n      tag_105\n      jump\t// in\n    tag_181:\n        /* \"#utility.yul\":6777:6778   */\n      0x01\n        /* \"#utility.yul\":6772:6775   */\n      dup3\n        /* \"#utility.yul\":6768:6779   */\n      add\n        /* \"#utility.yul\":6761:6779   */\n      swap1\n      pop\n        /* \"#utility.yul\":6385:6785   */\n      swap2\n      swap1\n      pop\n      jump\t// out\n        /* \"#utility.yul\":6791:6966   */\n    tag_107:\n        /* \"#utility.yul\":6931:6958   */\n      0x43796c696e6465723a20537572666163652041726561203d2000000000000000\n        /* \"#utility.yul\":6927:6928   */\n      0x00\n        /* \"#utility.yul\":6919:6925   */\n      dup3\n        /* \"#utility.yul\":6915:6929   */\n      add\n        /* \"#utility.yul\":6908:6959   */\n      mstore\n        /* \"#utility.yul\":6791:6966   */\n      pop\n      jump\t// out\n        /* \"#utility.yul\":6972:7374   */\n    tag_108:\n        /* \"#utility.yul\":7132:7135   */\n      0x00\n        /* \"#utility.yul\":7153:7238   */\n      tag_184\n        /* \"#utility.yul\":7235:7237   */\n      0x19\n        /* \"#utility.yul\":7230:7233   */\n      dup4\n        /* \"#utility.yul\":7153:7238   */\n      tag_99\n      jump\t// in\n    tag_184:\n        /* \"#utility.yul\":7146:7238   */\n      swap2\n      pop\n        /* \"#utility.yul\":7247:7340   */\n      tag_185\n        /* \"#utility.yul\":7336:7339   */\n      dup3\n        /* \"#utility.yul\":7247:7340   */\n      tag_107\n      jump\t// in\n    tag_185:\n        /* \"#utility.yul\":7365:7367   */\n      0x19\n        /* \"#utility.yul\":7360:7363   */\n      dup3\n        /* \"#utility.yul\":7356:7368   */\n      add\n        /* \"#utility.yul\":7349:7368   */\n      swap1\n      pop\n        /* \"#utility.yul\":6972:7374   */\n      swap2\n      swap1\n      pop\n      jump\t// out\n        /* \"#utility.yul\":7380:7551   */\n    tag_109:\n        /* \"#utility.yul\":7520:7543   */\n      0x436f6e653a20537572666163652041726561203d200000000000000000000000\n        /* \"#utility.yul\":7516:7517   */\n      0x00\n        /* \"#utility.yul\":7508:7514   */\n      dup3\n        /* \"#utility.yul\":7504:7518   */\n      add\n        /* \"#utility.yul\":7497:7544   */\n      mstore\n        /* \"#utility.yul\":7380:7551   */\n      pop\n      jump\t// out\n        /* \"#utility.yul\":7557:7959   */\n    tag_110:\n        /* \"#utility.yul\":7717:7720   */\n      0x00\n        /* \"#utility.yul\":7738:7823   */\n      tag_188\n        /* \"#utility.yul\":7820:7822   */\n      0x15\n        /* \"#utility.yul\":7815:7818   */\n      dup4\n        /* \"#utility.yul\":7738:7823   */\n      tag_99\n      jump\t// in\n    tag_188:\n        /* \"#utility.yul\":7731:7823   */\n      swap2\n      pop\n        /* \"#utility.yul\":7832:7925   */\n      tag_189\n        /* \"#utility.yul\":7921:7924   */\n      dup3\n        /* \"#utility.yul\":7832:7925   */\n      tag_109\n      jump\t// in\n    tag_189:\n        /* \"#utility.yul\":7950:7952   */\n      0x15\n        /* \"#utility.yul\":7945:7948   */\n      dup3\n        /* \"#utility.yul\":7941:7953   */\n      add\n        /* \"#utility.yul\":7934:7953   */\n      swap1\n      pop\n        /* \"#utility.yul\":7557:7959   */\n      swap2\n      swap1\n      pop\n      jump\t// out\n        /* \"#utility.yul\":7965:11168   */\n    tag_51:\n        /* \"#utility.yul\":9145:9148   */\n      0x00\n        /* \"#utility.yul\":9167:9315   */\n      tag_191\n        /* \"#utility.yul\":9311:9314   */\n      dup3\n        /* \"#utility.yul\":9167:9315   */\n      tag_101\n      jump\t// in\n    tag_191:\n        /* \"#utility.yul\":9160:9315   */\n      swap2\n      pop\n        /* \"#utility.yul\":9332:9427   */\n      tag_192\n        /* \"#utility.yul\":9423:9426   */\n      dup3\n        /* \"#utility.yul\":9414:9420   */\n      dup10\n        /* \"#utility.yul\":9332:9427   */\n      tag_102\n      jump\t// in\n    tag_192:\n        /* \"#utility.yul\":9325:9427   */\n      swap2\n      pop\n        /* \"#utility.yul\":9444:9592   */\n      tag_193\n        /* \"#utility.yul\":9588:9591   */\n      dup3\n        /* \"#utility.yul\":9444:9592   */\n      tag_104\n      jump\t// in\n    tag_193:\n        /* \"#utility.yul\":9437:9592   */\n      swap2\n      pop\n        /* \"#utility.yul\":9609:9704   */\n      tag_194\n        /* \"#utility.yul\":9700:9703   */\n      dup3\n        /* \"#utility.yul\":9691:9697   */\n      dup9\n        /* \"#utility.yul\":9609:9704   */\n      tag_102\n      jump\t// in\n    tag_194:\n        /* \"#utility.yul\":9602:9704   */\n      swap2\n      pop\n        /* \"#utility.yul\":9721:9869   */\n      tag_195\n        /* \"#utility.yul\":9865:9868   */\n      dup3\n        /* \"#utility.yul\":9721:9869   */\n      tag_106\n      jump\t// in\n    tag_195:\n        /* \"#utility.yul\":9714:9869   */\n      swap2\n      pop\n        /* \"#utility.yul\":9886:10034   */\n      tag_196\n        /* \"#utility.yul\":10030:10033   */\n      dup3\n        /* \"#utility.yul\":9886:10034   */\n      tag_108\n      jump\t// in\n    tag_196:\n        /* \"#utility.yul\":9879:10034   */\n      swap2\n      pop\n        /* \"#utility.yul\":10051:10146   */\n      tag_197\n        /* \"#utility.yul\":10142:10145   */\n      dup3\n        /* \"#utility.yul\":10133:10139   */\n      dup8\n        /* \"#utility.yul\":10051:10146   */\n      tag_102\n      jump\t// in\n    tag_197:\n        /* \"#utility.yul\":10044:10146   */\n      swap2\n      pop\n        /* \"#utility.yul\":10163:10311   */\n      tag_198\n        /* \"#utility.yul\":10307:10310   */\n      dup3\n        /* \"#utility.yul\":10163:10311   */\n      tag_104\n      jump\t// in\n    tag_198:\n        /* \"#utility.yul\":10156:10311   */\n      swap2\n      pop\n        /* \"#utility.yul\":10328:10423   */\n      tag_199\n        /* \"#utility.yul\":10419:10422   */\n      dup3\n        /* \"#utility.yul\":10410:10416   */\n      dup7\n        /* \"#utility.yul\":10328:10423   */\n      tag_102\n      jump\t// in\n    tag_199:\n        /* \"#utility.yul\":10321:10423   */\n      swap2\n      pop\n        /* \"#utility.yul\":10440:10588   */\n      tag_200\n        /* \"#utility.yul\":10584:10587   */\n      dup3\n        /* \"#utility.yul\":10440:10588   */\n      tag_106\n      jump\t// in\n    tag_200:\n        /* \"#utility.yul\":10433:10588   */\n      swap2\n      pop\n        /* \"#utility.yul\":10605:10753   */\n      tag_201\n        /* \"#utility.yul\":10749:10752   */\n      dup3\n        /* \"#utility.yul\":10605:10753   */\n      tag_110\n      jump\t// in\n    tag_201:\n        /* \"#utility.yul\":10598:10753   */\n      swap2\n      pop\n        /* \"#utility.yul\":10770:10865   */\n      tag_202\n        /* \"#utility.yul\":10861:10864   */\n      dup3\n        /* \"#utility.yul\":10852:10858   */\n      dup6\n        /* \"#utility.yul\":10770:10865   */\n      tag_102\n      jump\t// in\n    tag_202:\n        /* \"#utility.yul\":10763:10865   */\n      swap2\n      pop\n        /* \"#utility.yul\":10882:11030   */\n      tag_203\n        /* \"#utility.yul\":11026:11029   */\n      dup3\n        /* \"#utility.yul\":10882:11030   */\n      tag_104\n      jump\t// in\n    tag_203:\n        /* \"#utility.yul\":10875:11030   */\n      swap2\n      pop\n        /* \"#utility.yul\":11047:11142   */\n      tag_204\n        /* \"#utility.yul\":11138:11141   */\n      dup3\n        /* \"#utility.yul\":11129:11135   */\n      dup5\n        /* \"#utility.yul\":11047:11142   */\n      tag_102\n      jump\t// in\n    tag_204:\n        /* \"#utility.yul\":11040:11142   */\n      swap2\n      pop\n        /* \"#utility.yul\":11159:11162   */\n      dup2\n        /* \"#utility.yul\":11152:11162   */\n      swap1\n      pop\n        /* \"#utility.yul\":7965:11168   */\n      swap8\n      swap7\n      pop\n      pop\n      pop\n      pop\n      pop\n      pop\n      pop\n      jump\t// out\n        /* \"#utility.yul\":11174:11354   */\n    tag_111:\n        /* \"#utility.yul\":11222:11299   */\n      0x4e487b7100000000000000000000000000000000000000000000000000000000\n        /* \"#utility.yul\":11219:11220   */\n      0x00\n        /* \"#utility.yul\":11212:11300   */\n      mstore\n        /* \"#utility.yul\":11319:11323   */\n      0x11\n        /* \"#utility.yul\":11316:11317   */\n      0x04\n        /* \"#utility.yul\":11309:11324   */\n      mstore\n        /* \"#utility.yul\":11343:11347   */\n      0x24\n        /* \"#utility.yul\":11340:11341   */\n      0x00\n        /* \"#utility.yul\":11333:11348   */\n      revert\n        /* \"#utility.yul\":11360:11593   */\n    tag_57:\n        /* \"#utility.yul\":11399:11402   */\n      0x00\n        /* \"#utility.yul\":11422:11446   */\n      tag_207\n        /* \"#utility.yul\":11440:11445   */\n      dup3\n        /* \"#utility.yul\":11422:11446   */\n      tag_96\n      jump\t// in\n    tag_207:\n        /* \"#utility.yul\":11413:11446   */\n      swap2\n      pop\n        /* \"#utility.yul\":11468:11534   */\n      0xffffffffffffffffffffffffffffffffffffffffffffffffffffffffffffffff\n        /* \"#utility.yul\":11461:11466   */\n      dup3\n        /* \"#utility.yul\":11458:11535   */\n      sub\n        /* \"#utility.yul\":11455:11558   */\n      tag_208\n      jumpi\n        /* \"#utility.yul\":11538:11556   */\n      tag_209\n      tag_111\n      jump\t// in\n    tag_209:\n        /* \"#utility.yul\":11455:11558   */\n    tag_208:\n        /* \"#utility.yul\":11585:11586   */\n      0x01\n        /* \"#utility.yul\":11578:11583   */\n      dup3\n        /* \"#utility.yul\":11574:11587   */\n      add\n        /* \"#utility.yul\":11567:11587   */\n      swap1\n      pop\n        /* \"#utility.yul\":11360:11593   */\n      swap2\n      swap1\n      pop\n      jump\t// out\n        /* \"#utility.yul\":11599:11779   */\n    tag_112:\n        /* \"#utility.yul\":11647:11724   */\n      0x4e487b7100000000000000000000000000000000000000000000000000000000\n        /* \"#utility.yul\":11644:11645   */\n      0x00\n        /* \"#utility.yul\":11637:11725   */\n      mstore\n        /* \"#utility.yul\":11744:11748   */\n      0x12\n        /* \"#utility.yul\":11741:11742   */\n      0x04\n        /* \"#utility.yul\":11734:11749   */\n      mstore\n        /* \"#utility.yul\":11768:11772   */\n      0x24\n        /* \"#utility.yul\":11765:11766   */\n      0x00\n        /* \"#utility.yul\":11758:11773   */\n      revert\n        /* \"#utility.yul\":11785:11970   */\n    tag_59:\n        /* \"#utility.yul\":11825:11826   */\n      0x00\n        /* \"#utility.yul\":11842:11862   */\n      tag_212\n        /* \"#utility.yul\":11860:11861   */\n      dup3\n        /* \"#utility.yul\":11842:11862   */\n      tag_96\n      jump\t// in\n    tag_212:\n        /* \"#utility.yul\":11837:11862   */\n      swap2\n      pop\n        /* \"#utility.yul\":11876:11896   */\n      tag_213\n        /* \"#utility.yul\":11894:11895   */\n      dup4\n        /* \"#utility.yul\":11876:11896   */\n      tag_96\n      jump\t// in\n    tag_213:\n        /* \"#utility.yul\":11871:11896   */\n      swap3\n      pop\n        /* \"#utility.yul\":11915:11916   */\n      dup3\n        /* \"#utility.yul\":11905:11940   */\n      tag_214\n      jumpi\n        /* \"#utility.yul\":11920:11938   */\n      tag_215\n      tag_112\n      jump\t// in\n    tag_215:\n        /* \"#utility.yul\":11905:11940   */\n    tag_214:\n        /* \"#utility.yul\":11962:11963   */\n      dup3\n        /* \"#utility.yul\":11959:11960   */\n      dup3\n        /* \"#utility.yul\":11955:11964   */\n      div\n        /* \"#utility.yul\":11950:11964   */\n      swap1\n      pop\n        /* \"#utility.yul\":11785:11970   */\n      swap3\n      swap2\n      pop\n      pop\n      jump\t// out\n        /* \"#utility.yul\":11976:12156   */\n    tag_62:\n        /* \"#utility.yul\":12024:12101   */\n      0x4e487b7100000000000000000000000000000000000000000000000000000000\n        /* \"#utility.yul\":12021:12022   */\n      0x00\n        /* \"#utility.yul\":12014:12102   */\n      mstore\n        /* \"#utility.yul\":12121:12125   */\n      0x41\n        /* \"#utility.yul\":12118:12119   */\n      0x04\n        /* \"#utility.yul\":12111:12126   */\n      mstore\n        /* \"#utility.yul\":12145:12149   */\n      0x24\n        /* \"#utility.yul\":12142:12143   */\n      0x00\n        /* \"#utility.yul\":12135:12150   */\n      revert\n        /* \"#utility.yul\":12162:12356   */\n    tag_67:\n        /* \"#utility.yul\":12202:12206   */\n      0x00\n        /* \"#utility.yul\":12222:12242   */\n      tag_218\n        /* \"#utility.yul\":12240:12241   */\n      dup3\n        /* \"#utility.yul\":12222:12242   */\n      tag_96\n      jump\t// in\n    tag_218:\n        /* \"#utility.yul\":12217:12242   */\n      swap2\n      pop\n        /* \"#utility.yul\":12256:12276   */\n      tag_219\n        /* \"#utility.yul\":12274:12275   */\n      dup4\n        /* \"#utility.yul\":12256:12276   */\n      tag_96\n      jump\t// in\n    tag_219:\n        /* \"#utility.yul\":12251:12276   */\n      swap3\n      pop\n        /* \"#utility.yul\":12300:12301   */\n      dup3\n        /* \"#utility.yul\":12297:12298   */\n      dup3\n        /* \"#utility.yul\":12293:12302   */\n      sub\n        /* \"#utility.yul\":12285:12302   */\n      swap1\n      pop\n        /* \"#utility.yul\":12324:12325   */\n      dup2\n        /* \"#utility.yul\":12318:12322   */\n      dup2\n        /* \"#utility.yul\":12315:12326   */\n      gt\n        /* \"#utility.yul\":12312:12349   */\n      iszero\n      tag_220\n      jumpi\n        /* \"#utility.yul\":12329:12347   */\n      tag_221\n      tag_111\n      jump\t// in\n    tag_221:\n        /* \"#utility.yul\":12312:12349   */\n    tag_220:\n        /* \"#utility.yul\":12162:12356   */\n      swap3\n      swap2\n      pop\n      pop\n      jump\t// out\n        /* \"#utility.yul\":12362:12772   */\n    tag_70:\n        /* \"#utility.yul\":12402:12409   */\n      0x00\n        /* \"#utility.yul\":12425:12445   */\n      tag_223\n        /* \"#utility.yul\":12443:12444   */\n      dup3\n        /* \"#utility.yul\":12425:12445   */\n      tag_96\n      jump\t// in\n    tag_223:\n        /* \"#utility.yul\":12420:12445   */\n      swap2\n      pop\n        /* \"#utility.yul\":12459:12479   */\n      tag_224\n        /* \"#utility.yul\":12477:12478   */\n      dup4\n        /* \"#utility.yul\":12459:12479   */\n      tag_96\n      jump\t// in\n    tag_224:\n        /* \"#utility.yul\":12454:12479   */\n      swap3\n      pop\n        /* \"#utility.yul\":12514:12515   */\n      dup3\n        /* \"#utility.yul\":12511:12512   */\n      dup3\n        /* \"#utility.yul\":12507:12516   */\n      mul\n        /* \"#utility.yul\":12536:12566   */\n      tag_225\n        /* \"#utility.yul\":12554:12565   */\n      dup2\n        /* \"#utility.yul\":12536:12566   */\n      tag_96\n      jump\t// in\n    tag_225:\n        /* \"#utility.yul\":12525:12566   */\n      swap2\n      pop\n        /* \"#utility.yul\":12715:12716   */\n      dup3\n        /* \"#utility.yul\":12706:12713   */\n      dup3\n        /* \"#utility.yul\":12702:12717   */\n      div\n        /* \"#utility.yul\":12699:12700   */\n      dup5\n        /* \"#utility.yul\":12696:12718   */\n      eq\n        /* \"#utility.yul\":12676:12677   */\n      dup4\n        /* \"#utility.yul\":12669:12678   */\n      iszero\n        /* \"#utility.yul\":12649:12732   */\n      or\n        /* \"#utility.yul\":12626:12765   */\n      tag_226\n      jumpi\n        /* \"#utility.yul\":12745:12763   */\n      tag_227\n      tag_111\n      jump\t// in\n    tag_227:\n        /* \"#utility.yul\":12626:12765   */\n    tag_226:\n        /* \"#utility.yul\":12410:12772   */\n      pop\n        /* \"#utility.yul\":12362:12772   */\n      swap3\n      swap2\n      pop\n      pop\n      jump\t// out\n        /* \"#utility.yul\":12778:12864   */\n    tag_113:\n        /* \"#utility.yul\":12813:12820   */\n      0x00\n        /* \"#utility.yul\":12853:12857   */\n      0xff\n        /* \"#utility.yul\":12846:12851   */\n      dup3\n        /* \"#utility.yul\":12842:12858   */\n      and\n        /* \"#utility.yul\":12831:12858   */\n      swap1\n      pop\n        /* \"#utility.yul\":12778:12864   */\n      swap2\n      swap1\n      pop\n      jump\t// out\n        /* \"#utility.yul\":12870:13058   */\n    tag_73:\n        /* \"#utility.yul\":12908:12911   */\n      0x00\n        /* \"#utility.yul\":12927:12945   */\n      tag_230\n        /* \"#utility.yul\":12943:12944   */\n      dup3\n        /* \"#utility.yul\":12927:12945   */\n      tag_113\n      jump\t// in\n    tag_230:\n        /* \"#utility.yul\":12922:12945   */\n      swap2\n      pop\n        /* \"#utility.yul\":12959:12977   */\n      tag_231\n        /* \"#utility.yul\":12975:12976   */\n      dup4\n        /* \"#utility.yul\":12959:12977   */\n      tag_113\n      jump\t// in\n    tag_231:\n        /* \"#utility.yul\":12954:12977   */\n      swap3\n      pop\n        /* \"#utility.yul\":13000:13001   */\n      dup3\n        /* \"#utility.yul\":12997:12998   */\n      dup3\n        /* \"#utility.yul\":12993:13002   */\n      add\n        /* \"#utility.yul\":12986:13002   */\n      swap1\n      pop\n        /* \"#utility.yul\":13023:13027   */\n      0xff\n        /* \"#utility.yul\":13018:13021   */\n      dup2\n        /* \"#utility.yul\":13015:13028   */\n      gt\n        /* \"#utility.yul\":13012:13051   */\n      iszero\n      tag_232\n      jumpi\n        /* \"#utility.yul\":13031:13049   */\n      tag_233\n      tag_111\n      jump\t// in\n    tag_233:\n        /* \"#utility.yul\":13012:13051   */\n    tag_232:\n        /* \"#utility.yul\":12870:13058   */\n      swap3\n      swap2\n      pop\n      pop\n      jump\t// out\n        /* \"#utility.yul\":13064:13244   */\n    tag_76:\n        /* \"#utility.yul\":13112:13189   */\n      0x4e487b7100000000000000000000000000000000000000000000000000000000\n        /* \"#utility.yul\":13109:13110   */\n      0x00\n        /* \"#utility.yul\":13102:13190   */\n      mstore\n        /* \"#utility.yul\":13209:13213   */\n      0x32\n        /* \"#utility.yul\":13206:13207   */\n      0x04\n        /* \"#utility.yul\":13199:13214   */\n      mstore\n        /* \"#utility.yul\":13233:13237   */\n      0x24\n        /* \"#utility.yul\":13230:13231   */\n      0x00\n        /* \"#utility.yul\":13223:13238   */\n      revert\n\n    auxdata: 0xa264697066735822122092bedfcb1cf7b36194ffc43a2fe50805d403951170fa4857768b910f39e87f2e64736f6c634300081a0033\n}\n\nsub_1: assembly {\n        /* \"Day-10/D10P3.sol\":836:1182  contract Cube is ThreeDObject {... */\n      mstore(0x40, 0x80)\n        /* \"Day-10/D10P3.sol\":902:957  constructor(uint _side) {... */\n      callvalue\n      dup1\n      iszero\n      tag_1\n      jumpi\n      0x00\n      dup1\n      revert\n    tag_1:\n      pop\n      mload(0x40)\n      sub(codesize, bytecodeSize)\n      dup1\n      bytecodeSize\n      dup4\n      codecopy\n      dup2\n      dup2\n      add\n      0x40\n      mstore\n      dup2\n      add\n      swap1\n      tag_2\n      swap2\n      swap1\n      tag_3\n      jump\t// in\n    tag_2:\n        /* \"Day-10/D10P3.sol\":944:949  _side */\n      dup1\n        /* \"Day-10/D10P3.sol\":937:941  side */\n      0x00\n        /* \"Day-10/D10P3.sol\":937:949  side = _side */\n      dup2\n      swap1\n      sstore\n      pop\n        /* \"Day-10/D10P3.sol\":902:957  constructor(uint _side) {... */\n      pop\n        /* \"Day-10/D10P3.sol\":836:1182  contract Cube is ThreeDObject {... */\n      jump(tag_6)\n        /* \"#utility.yul\":88:205   */\n    tag_8:\n        /* \"#utility.yul\":197:198   */\n      0x00\n        /* \"#utility.yul\":194:195   */\n      dup1\n        /* \"#utility.yul\":187:199   */\n      revert\n        /* \"#utility.yul\":334:411   */\n    tag_10:\n        /* \"#utility.yul\":371:378   */\n      0x00\n        /* \"#utility.yul\":400:405   */\n      dup2\n        /* \"#utility.yul\":389:405   */\n      swap1\n      pop\n        /* \"#utility.yul\":334:411   */\n      swap2\n      swap1\n      pop\n      jump\t// out\n        /* \"#utility.yul\":417:539   */\n    tag_11:\n        /* \"#utility.yul\":490:514   */\n      tag_19\n        /* \"#utility.yul\":508:513   */\n      dup2\n        /* \"#utility.yul\":490:514   */\n      tag_10\n      jump\t// in\n    tag_19:\n        /* \"#utility.yul\":483:488   */\n      dup2\n        /* \"#utility.yul\":480:515   */\n      eq\n        /* \"#utility.yul\":470:533   */\n      tag_20\n      jumpi\n        /* \"#utility.yul\":529:530   */\n      0x00\n        /* \"#utility.yul\":526:527   */\n      dup1\n        /* \"#utility.yul\":519:531   */\n      revert\n        /* \"#utility.yul\":470:533   */\n    tag_20:\n        /* \"#utility.yul\":417:539   */\n      pop\n      jump\t// out\n        /* \"#utility.yul\":545:688   */\n    tag_12:\n        /* \"#utility.yul\":602:607   */\n      0x00\n        /* \"#utility.yul\":633:639   */\n      dup2\n        /* \"#utility.yul\":627:640   */\n      mload\n        /* \"#utility.yul\":618:640   */\n      swap1\n      pop\n        /* \"#utility.yul\":649:682   */\n      tag_22\n        /* \"#utility.yul\":676:681   */\n      dup2\n        /* \"#utility.yul\":649:682   */\n      tag_11\n      jump\t// in\n    tag_22:\n        /* \"#utility.yul\":545:688   */\n      swap3\n      swap2\n      pop\n      pop\n      jump\t// out\n        /* \"#utility.yul\":694:1045   */\n    tag_3:\n        /* \"#utility.yul\":764:770   */\n      0x00\n        /* \"#utility.yul\":813:815   */\n      0x20\n        /* \"#utility.yul\":801:810   */\n      dup3\n        /* \"#utility.yul\":792:799   */\n      dup5\n        /* \"#utility.yul\":788:811   */\n      sub\n        /* \"#utility.yul\":784:816   */\n      slt\n        /* \"#utility.yul\":781:900   */\n      iszero\n      tag_24\n      jumpi\n        /* \"#utility.yul\":819:898   */\n      tag_25\n      tag_8\n      jump\t// in\n    tag_25:\n        /* \"#utility.yul\":781:900   */\n    tag_24:\n        /* \"#utility.yul\":939:940   */\n      0x00\n        /* \"#utility.yul\":964:1028   */\n      tag_26\n        /* \"#utility.yul\":1020:1027   */\n      dup5\n        /* \"#utility.yul\":1011:1017   */\n      dup3\n        /* \"#utility.yul\":1000:1009   */\n      dup6\n        /* \"#utility.yul\":996:1018   */\n      add\n        /* \"#utility.yul\":964:1028   */\n      tag_12\n      jump\t// in\n    tag_26:\n        /* \"#utility.yul\":954:1028   */\n      swap2\n      pop\n        /* \"#utility.yul\":910:1038   */\n      pop\n        /* \"#utility.yul\":694:1045   */\n      swap3\n      swap2\n      pop\n      pop\n      jump\t// out\n        /* \"Day-10/D10P3.sol\":836:1182  contract Cube is ThreeDObject {... */\n    tag_6:\n      dataSize(sub_0)\n      dup1\n      dataOffset(sub_0)\n      0x00\n      codecopy\n      0x00\n      return\n    stop\n\n    sub_0: assembly {\n            /* \"Day-10/D10P3.sol\":836:1182  contract Cube is ThreeDObject {... */\n          mstore(0x40, 0x80)\n          callvalue\n          dup1\n          iszero\n          tag_1\n          jumpi\n          0x00\n          dup1\n          revert\n        tag_1:\n          pop\n          jumpi(tag_2, lt(calldatasize, 0x04))\n          shr(0xe0, calldataload(0x00))\n          dup1\n          0x8475c028\n          eq\n          tag_3\n          jumpi\n          dup1\n          0x89e7995f\n          eq\n          tag_4\n          jumpi\n          dup1\n          0xc618a1e4\n          eq\n          tag_5\n          jumpi\n        tag_2:\n          0x00\n          dup1\n          revert\n            /* \"Day-10/D10P3.sol\":873:889  uint public side */\n        tag_3:\n          tag_6\n          tag_7\n          jump\t// in\n        tag_6:\n          mload(0x40)\n          tag_8\n          swap2\n          swap1\n          tag_9\n          jump\t// in\n        tag_8:\n          mload(0x40)\n          dup1\n          swap2\n          sub\n          swap1\n          return\n            /* \"Day-10/D10P3.sol\":969:1069  function surfaceArea() public view override returns (uint) {... */\n        tag_4:\n          tag_10\n          tag_11\n          jump\t// in\n        tag_10:\n          mload(0x40)\n          tag_12\n          swap2\n          swap1\n          tag_9\n          jump\t// in\n        tag_12:\n          mload(0x40)\n          dup1\n          swap2\n          sub\n          swap1\n          return\n            /* \"Day-10/D10P3.sol\":1081:1179  function volume() public view override returns (uint) {... */\n        tag_5:\n          tag_13\n          tag_14\n          jump\t// in\n        tag_13:\n          mload(0x40)\n          tag_15\n          swap2\n          swap1\n          tag_9\n          jump\t// in\n        tag_15:\n          mload(0x40)\n          dup1\n          swap2\n          sub\n          swap1\n          return\n            /* \"Day-10/D10P3.sol\":873:889  uint public side */\n        tag_7:\n          sload(0x00)\n          dup2\n          jump\t// out\n            /* \"Day-10/D10P3.sol\":969:1069  function surfaceArea() public view override returns (uint) {... */\n        tag_11:\n            /* \"Day-10/D10P3.sol\":1022:1026  uint */\n          0x00\n            /* \"Day-10/D10P3.sol\":1057:1061  side */\n          dup1\n          sload\n            /* \"Day-10/D10P3.sol\":1050:1054  side */\n          sload(0x00)\n            /* \"Day-10/D10P3.sol\":1046:1047  6 */\n          0x06\n            /* \"Day-10/D10P3.sol\":1046:1054  6 * side */\n          tag_17\n          swap2\n          swap1\n          tag_18\n          jump\t// in\n        tag_17:\n            /* \"Day-10/D10P3.sol\":1046:1061  6 * side * side */\n          tag_19\n          swap2\n          swap1\n          tag_18\n          jump\t// in\n        tag_19:\n            /* \"Day-10/D10P3.sol\":1039:1061  return 6 * side * side */\n          swap1\n          pop\n            /* \"Day-10/D10P3.sol\":969:1069  function surfaceArea() public view override returns (uint) {... */\n          swap1\n          jump\t// out\n            /* \"Day-10/D10P3.sol\":1081:1179  function volume() public view override returns (uint) {... */\n        tag_14:\n            /* \"Day-10/D10P3.sol\":1129:1133  uint */\n          0x00\n            /* \"Day-10/D10P3.sol\":1167:1171  side */\n          dup1\n          sload\n            /* \"Day-10/D10P3.sol\":1160:1164  side */\n          sload(0x00)\n            /* \"Day-10/D10P3.sol\":1153:1157  side */\n          sload(0x00)\n            /* \"Day-10/D10P3.sol\":1153:1164  side * side */\n          tag_21\n          swap2\n          swap1\n          tag_18\n          jump\t// in\n        tag_21:\n            /* \"Day-10/D10P3.sol\":1153:1171  side * side * side */\n          tag_22\n          swap2\n          swap1\n          tag_18\n          jump\t// in\n        tag_22:\n            /* \"Day-10/D10P3.sol\":1146:1171  return side * side * side */\n          swap1\n          pop\n            /* \"Day-10/D10P3.sol\":1081:1179  function volume() public view override returns (uint) {... */\n          swap1\n          jump\t// out\n            /* \"#utility.yul\":7:84   */\n        tag_23:\n            /* \"#utility.yul\":44:51   */\n          0x00\n            /* \"#utility.yul\":73:78   */\n          dup2\n            /* \"#utility.yul\":62:78   */\n          swap1\n          pop\n            /* \"#utility.yul\":7:84   */\n          swap2\n          swap1\n          pop\n          jump\t// out\n            /* \"#utility.yul\":90:208   */\n        tag_24:\n            /* \"#utility.yul\":177:201   */\n          tag_29\n            /* \"#utility.yul\":195:200   */\n          dup2\n            /* \"#utility.yul\":177:201   */\n          tag_23\n          jump\t// in\n        tag_29:\n            /* \"#utility.yul\":172:175   */\n          dup3\n            /* \"#utility.yul\":165:202   */\n          mstore\n            /* \"#utility.yul\":90:208   */\n          pop\n          pop\n          jump\t// out\n            /* \"#utility.yul\":214:436   */\n        tag_9:\n            /* \"#utility.yul\":307:311   */\n          0x00\n            /* \"#utility.yul\":345:347   */\n          0x20\n            /* \"#utility.yul\":334:343   */\n          dup3\n            /* \"#utility.yul\":330:348   */\n          add\n            /* \"#utility.yul\":322:348   */\n          swap1\n          pop\n            /* \"#utility.yul\":358:429   */\n          tag_31\n            /* \"#utility.yul\":426:427   */\n          0x00\n            /* \"#utility.yul\":415:424   */\n          dup4\n            /* \"#utility.yul\":411:428   */\n          add\n            /* \"#utility.yul\":402:408   */\n          dup5\n            /* \"#utility.yul\":358:429   */\n          tag_24\n          jump\t// in\n        tag_31:\n            /* \"#utility.yul\":214:436   */\n          swap3\n          swap2\n          pop\n          pop\n          jump\t// out\n            /* \"#utility.yul\":442:622   */\n        tag_25:\n            /* \"#utility.yul\":490:567   */\n          0x4e487b7100000000000000000000000000000000000000000000000000000000\n            /* \"#utility.yul\":487:488   */\n          0x00\n            /* \"#utility.yul\":480:568   */\n          mstore\n            /* \"#utility.yul\":587:591   */\n          0x11\n            /* \"#utility.yul\":584:585   */\n          0x04\n            /* \"#utility.yul\":577:592   */\n          mstore\n            /* \"#utility.yul\":611:615   */\n          0x24\n            /* \"#utility.yul\":608:609   */\n          0x00\n            /* \"#utility.yul\":601:616   */\n          revert\n            /* \"#utility.yul\":628:1038   */\n        tag_18:\n            /* \"#utility.yul\":668:675   */\n          0x00\n            /* \"#utility.yul\":691:711   */\n          tag_34\n            /* \"#utility.yul\":709:710   */\n          dup3\n            /* \"#utility.yul\":691:711   */\n          tag_23\n          jump\t// in\n        tag_34:\n            /* \"#utility.yul\":686:711   */\n          swap2\n          pop\n            /* \"#utility.yul\":725:745   */\n          tag_35\n            /* \"#utility.yul\":743:744   */\n          dup4\n            /* \"#utility.yul\":725:745   */\n          tag_23\n          jump\t// in\n        tag_35:\n            /* \"#utility.yul\":720:745   */\n          swap3\n          pop\n            /* \"#utility.yul\":780:781   */\n          dup3\n            /* \"#utility.yul\":777:778   */\n          dup3\n            /* \"#utility.yul\":773:782   */\n          mul\n            /* \"#utility.yul\":802:832   */\n          tag_36\n            /* \"#utility.yul\":820:831   */\n          dup2\n            /* \"#utility.yul\":802:832   */\n          tag_23\n          jump\t// in\n        tag_36:\n            /* \"#utility.yul\":791:832   */\n          swap2\n          pop\n            /* \"#utility.yul\":981:982   */\n          dup3\n            /* \"#utility.yul\":972:979   */\n          dup3\n            /* \"#utility.yul\":968:983   */\n          div\n            /* \"#utility.yul\":965:966   */\n          dup5\n            /* \"#utility.yul\":962:984   */\n          eq\n            /* \"#utility.yul\":942:943   */\n          dup4\n            /* \"#utility.yul\":935:944   */\n          iszero\n            /* \"#utility.yul\":915:998   */\n          or\n            /* \"#utility.yul\":892:1031   */\n          tag_37\n          jumpi\n            /* \"#utility.yul\":1011:1029   */\n          tag_38\n          tag_25\n          jump\t// in\n        tag_38:\n            /* \"#utility.yul\":892:1031   */\n        tag_37:\n            /* \"#utility.yul\":676:1038   */\n          pop\n            /* \"#utility.yul\":628:1038   */\n          swap3\n          swap2\n          pop\n          pop\n          jump\t// out\n\n        auxdata: 0xa2646970667358221220023439ff610892640266ec4cb218482124d468c3a16b46e2ac5032243433342264736f6c634300081a0033\n    }\n}\n\nsub_2: assembly {\n        /* \"Day-10/D10P3.sol\":1212:1769  contract Cylinder is ThreeDObject {... */\n      mstore(0x40, 0x80)\n        /* \"Day-10/D10P3.sol\":1379:1481  constructor(uint _radius, uint _height) {... */\n      callvalue\n      dup1\n      iszero\n      tag_1\n      jumpi\n      0x00\n      dup1\n      revert\n    tag_1:\n      pop\n      mload(0x40)\n      sub(codesize, bytecodeSize)\n      dup1\n      bytecodeSize\n      dup4\n      codecopy\n      dup2\n      dup2\n      add\n      0x40\n      mstore\n      dup2\n      add\n      swap1\n      tag_2\n      swap2\n      swap1\n      tag_3\n      jump\t// in\n    tag_2:\n        /* \"Day-10/D10P3.sol\":1439:1446  _radius */\n      dup2\n        /* \"Day-10/D10P3.sol\":1430:1436  radius */\n      0x00\n        /* \"Day-10/D10P3.sol\":1430:1446  radius = _radius */\n      dup2\n      swap1\n      sstore\n      pop\n        /* \"Day-10/D10P3.sol\":1466:1473  _height */\n      dup1\n        /* \"Day-10/D10P3.sol\":1457:1463  height */\n      0x01\n        /* \"Day-10/D10P3.sol\":1457:1473  height = _height */\n      dup2\n      swap1\n      sstore\n      pop\n        /* \"Day-10/D10P3.sol\":1379:1481  constructor(uint _radius, uint _height) {... */\n      pop\n      pop\n        /* \"Day-10/D10P3.sol\":1212:1769  contract Cylinder is ThreeDObject {... */\n      jump(tag_6)\n        /* \"#utility.yul\":88:205   */\n    tag_8:\n        /* \"#utility.yul\":197:198   */\n      0x00\n        /* \"#utility.yul\":194:195   */\n      dup1\n        /* \"#utility.yul\":187:199   */\n      revert\n        /* \"#utility.yul\":334:411   */\n    tag_10:\n        /* \"#utility.yul\":371:378   */\n      0x00\n        /* \"#utility.yul\":400:405   */\n      dup2\n        /* \"#utility.yul\":389:405   */\n      swap1\n      pop\n        /* \"#utility.yul\":334:411   */\n      swap2\n      swap1\n      pop\n      jump\t// out\n        /* \"#utility.yul\":417:539   */\n    tag_11:\n        /* \"#utility.yul\":490:514   */\n      tag_19\n        /* \"#utility.yul\":508:513   */\n      dup2\n        /* \"#utility.yul\":490:514   */\n      tag_10\n      jump\t// in\n    tag_19:\n        /* \"#utility.yul\":483:488   */\n      dup2\n        /* \"#utility.yul\":480:515   */\n      eq\n        /* \"#utility.yul\":470:533   */\n      tag_20\n      jumpi\n        /* \"#utility.yul\":529:530   */\n      0x00\n        /* \"#utility.yul\":526:527   */\n      dup1\n        /* \"#utility.yul\":519:531   */\n      revert\n        /* \"#utility.yul\":470:533   */\n    tag_20:\n        /* \"#utility.yul\":417:539   */\n      pop\n      jump\t// out\n        /* \"#utility.yul\":545:688   */\n    tag_12:\n        /* \"#utility.yul\":602:607   */\n      0x00\n        /* \"#utility.yul\":633:639   */\n      dup2\n        /* \"#utility.yul\":627:640   */\n      mload\n        /* \"#utility.yul\":618:640   */\n      swap1\n      pop\n        /* \"#utility.yul\":649:682   */\n      tag_22\n        /* \"#utility.yul\":676:681   */\n      dup2\n        /* \"#utility.yul\":649:682   */\n      tag_11\n      jump\t// in\n    tag_22:\n        /* \"#utility.yul\":545:688   */\n      swap3\n      swap2\n      pop\n      pop\n      jump\t// out\n        /* \"#utility.yul\":694:1201   */\n    tag_3:\n        /* \"#utility.yul\":773:779   */\n      0x00\n        /* \"#utility.yul\":781:787   */\n      dup1\n        /* \"#utility.yul\":830:832   */\n      0x40\n        /* \"#utility.yul\":818:827   */\n      dup4\n        /* \"#utility.yul\":809:816   */\n      dup6\n        /* \"#utility.yul\":805:828   */\n      sub\n        /* \"#utility.yul\":801:833   */\n      slt\n        /* \"#utility.yul\":798:917   */\n      iszero\n      tag_24\n      jumpi\n        /* \"#utility.yul\":836:915   */\n      tag_25\n      tag_8\n      jump\t// in\n    tag_25:\n        /* \"#utility.yul\":798:917   */\n    tag_24:\n        /* \"#utility.yul\":956:957   */\n      0x00\n        /* \"#utility.yul\":981:1045   */\n      tag_26\n        /* \"#utility.yul\":1037:1044   */\n      dup6\n        /* \"#utility.yul\":1028:1034   */\n      dup3\n        /* \"#utility.yul\":1017:1026   */\n      dup7\n        /* \"#utility.yul\":1013:1035   */\n      add\n        /* \"#utility.yul\":981:1045   */\n      tag_12\n      jump\t// in\n    tag_26:\n        /* \"#utility.yul\":971:1045   */\n      swap3\n      pop\n        /* \"#utility.yul\":927:1055   */\n      pop\n        /* \"#utility.yul\":1094:1096   */\n      0x20\n        /* \"#utility.yul\":1120:1184   */\n      tag_27\n        /* \"#utility.yul\":1176:1183   */\n      dup6\n        /* \"#utility.yul\":1167:1173   */\n      dup3\n        /* \"#utility.yul\":1156:1165   */\n      dup7\n        /* \"#utility.yul\":1152:1174   */\n      add\n        /* \"#utility.yul\":1120:1184   */\n      tag_12\n      jump\t// in\n    tag_27:\n        /* \"#utility.yul\":1110:1184   */\n      swap2\n      pop\n        /* \"#utility.yul\":1065:1194   */\n      pop\n        /* \"#utility.yul\":694:1201   */\n      swap3\n      pop\n      swap3\n      swap1\n      pop\n      jump\t// out\n        /* \"Day-10/D10P3.sol\":1212:1769  contract Cylinder is ThreeDObject {... */\n    tag_6:\n      dataSize(sub_0)\n      dup1\n      dataOffset(sub_0)\n      0x00\n      codecopy\n      0x00\n      return\n    stop\n\n    sub_0: assembly {\n            /* \"Day-10/D10P3.sol\":1212:1769  contract Cylinder is ThreeDObject {... */\n          mstore(0x40, 0x80)\n          callvalue\n          dup1\n          iszero\n          tag_1\n          jumpi\n          0x00\n          dup1\n          revert\n        tag_1:\n          pop\n          jumpi(tag_2, lt(calldatasize, 0x04))\n          shr(0xe0, calldataload(0x00))\n          dup1\n          0x0ef26743\n          eq\n          tag_3\n          jumpi\n          dup1\n          0x217f4353\n          eq\n          tag_4\n          jumpi\n          dup1\n          0x89e7995f\n          eq\n          tag_5\n          jumpi\n          dup1\n          0xc618a1e4\n          eq\n          tag_6\n          jumpi\n        tag_2:\n          0x00\n          dup1\n          revert\n            /* \"Day-10/D10P3.sol\":1278:1296  uint public height */\n        tag_3:\n          tag_7\n          tag_8\n          jump\t// in\n        tag_7:\n          mload(0x40)\n          tag_9\n          swap2\n          swap1\n          tag_10\n          jump\t// in\n        tag_9:\n          mload(0x40)\n          dup1\n          swap2\n          sub\n          swap1\n          return\n            /* \"Day-10/D10P3.sol\":1253:1271  uint public radius */\n        tag_4:\n          tag_11\n          tag_12\n          jump\t// in\n        tag_11:\n          mload(0x40)\n          tag_13\n          swap2\n          swap1\n          tag_10\n          jump\t// in\n        tag_13:\n          mload(0x40)\n          dup1\n          swap2\n          sub\n          swap1\n          return\n            /* \"Day-10/D10P3.sol\":1493:1637  function surfaceArea() public view override returns (uint) {... */\n        tag_5:\n          tag_14\n          tag_15\n          jump\t// in\n        tag_14:\n          mload(0x40)\n          tag_16\n          swap2\n          swap1\n          tag_10\n          jump\t// in\n        tag_16:\n          mload(0x40)\n          dup1\n          swap2\n          sub\n          swap1\n          return\n            /* \"Day-10/D10P3.sol\":1649:1766  function volume() public view override returns (uint) {... */\n        tag_6:\n          tag_17\n          tag_18\n          jump\t// in\n        tag_17:\n          mload(0x40)\n          tag_19\n          swap2\n          swap1\n          tag_10\n          jump\t// in\n        tag_19:\n          mload(0x40)\n          dup1\n          swap2\n          sub\n          swap1\n          return\n            /* \"Day-10/D10P3.sol\":1278:1296  uint public height */\n        tag_8:\n          sload(0x01)\n          dup2\n          jump\t// out\n            /* \"Day-10/D10P3.sol\":1253:1271  uint public radius */\n        tag_12:\n          sload(0x00)\n          dup2\n          jump\t// out\n            /* \"Day-10/D10P3.sol\":1493:1637  function surfaceArea() public view override returns (uint) {... */\n        tag_15:\n            /* \"Day-10/D10P3.sol\":1546:1550  uint */\n          0x00\n            /* \"Day-10/D10P3.sol\":1626:1629  100 */\n          0x64\n            /* \"Day-10/D10P3.sol\":1616:1622  radius */\n          sload(0x00)\n            /* \"Day-10/D10P3.sol\":1607:1613  radius */\n          sload(0x00)\n            /* \"Day-10/D10P3.sol\":1322:1325  314 */\n          0x013a\n            /* \"Day-10/D10P3.sol\":1598:1599  2 */\n          0x02\n            /* \"Day-10/D10P3.sol\":1598:1604  2 * PI */\n          tag_21\n          swap2\n          swap1\n          tag_22\n          jump\t// in\n        tag_21:\n            /* \"Day-10/D10P3.sol\":1598:1613  2 * PI * radius */\n          tag_23\n          swap2\n          swap1\n          tag_22\n          jump\t// in\n        tag_23:\n            /* \"Day-10/D10P3.sol\":1598:1622  2 * PI * radius * radius */\n          tag_24\n          swap2\n          swap1\n          tag_22\n          jump\t// in\n        tag_24:\n            /* \"Day-10/D10P3.sol\":1589:1595  height */\n          sload(0x01)\n            /* \"Day-10/D10P3.sol\":1580:1586  radius */\n          sload(0x00)\n            /* \"Day-10/D10P3.sol\":1322:1325  314 */\n          0x013a\n            /* \"Day-10/D10P3.sol\":1571:1572  2 */\n          0x02\n            /* \"Day-10/D10P3.sol\":1571:1577  2 * PI */\n          tag_25\n          swap2\n          swap1\n          tag_22\n          jump\t// in\n        tag_25:\n            /* \"Day-10/D10P3.sol\":1571:1586  2 * PI * radius */\n          tag_26\n          swap2\n          swap1\n          tag_22\n          jump\t// in\n        tag_26:\n            /* \"Day-10/D10P3.sol\":1571:1595  2 * PI * radius * height */\n          tag_27\n          swap2\n          swap1\n          tag_22\n          jump\t// in\n        tag_27:\n            /* \"Day-10/D10P3.sol\":1571:1622  2 * PI * radius * height + 2 * PI * radius * radius */\n          tag_28\n          swap2\n          swap1\n          tag_29\n          jump\t// in\n        tag_28:\n            /* \"Day-10/D10P3.sol\":1570:1629  (2 * PI * radius * height + 2 * PI * radius * radius) / 100 */\n          tag_30\n          swap2\n          swap1\n          tag_31\n          jump\t// in\n        tag_30:\n            /* \"Day-10/D10P3.sol\":1563:1629  return (2 * PI * radius * height + 2 * PI * radius * radius) / 100 */\n          swap1\n          pop\n            /* \"Day-10/D10P3.sol\":1493:1637  function surfaceArea() public view override returns (uint) {... */\n          swap1\n          jump\t// out\n            /* \"Day-10/D10P3.sol\":1649:1766  function volume() public view override returns (uint) {... */\n        tag_18:\n            /* \"Day-10/D10P3.sol\":1697:1701  uint */\n          0x00\n            /* \"Day-10/D10P3.sol\":1755:1758  100 */\n          0x64\n            /* \"Day-10/D10P3.sol\":1745:1751  height */\n          sload(0x01)\n            /* \"Day-10/D10P3.sol\":1736:1742  radius */\n          sload(0x00)\n            /* \"Day-10/D10P3.sol\":1727:1733  radius */\n          sload(0x00)\n            /* \"Day-10/D10P3.sol\":1322:1325  314 */\n          0x013a\n            /* \"Day-10/D10P3.sol\":1722:1733  PI * radius */\n          tag_33\n          swap2\n          swap1\n          tag_22\n          jump\t// in\n        tag_33:\n            /* \"Day-10/D10P3.sol\":1722:1742  PI * radius * radius */\n          tag_34\n          swap2\n          swap1\n          tag_22\n          jump\t// in\n        tag_34:\n            /* \"Day-10/D10P3.sol\":1722:1751  PI * radius * radius * height */\n          tag_35\n          swap2\n          swap1\n          tag_22\n          jump\t// in\n        tag_35:\n            /* \"Day-10/D10P3.sol\":1721:1758  (PI * radius * radius * height) / 100 */\n          tag_36\n          swap2\n          swap1\n          tag_31\n          jump\t// in\n        tag_36:\n            /* \"Day-10/D10P3.sol\":1714:1758  return (PI * radius * radius * height) / 100 */\n          swap1\n          pop\n            /* \"Day-10/D10P3.sol\":1649:1766  function volume() public view override returns (uint) {... */\n          swap1\n          jump\t// out\n            /* \"#utility.yul\":7:84   */\n        tag_37:\n            /* \"#utility.yul\":44:51   */\n          0x00\n            /* \"#utility.yul\":73:78   */\n          dup2\n            /* \"#utility.yul\":62:78   */\n          swap1\n          pop\n            /* \"#utility.yul\":7:84   */\n          swap2\n          swap1\n          pop\n          jump\t// out\n            /* \"#utility.yul\":90:208   */\n        tag_38:\n            /* \"#utility.yul\":177:201   */\n          tag_44\n            /* \"#utility.yul\":195:200   */\n          dup2\n            /* \"#utility.yul\":177:201   */\n          tag_37\n          jump\t// in\n        tag_44:\n            /* \"#utility.yul\":172:175   */\n          dup3\n            /* \"#utility.yul\":165:202   */\n          mstore\n            /* \"#utility.yul\":90:208   */\n          pop\n          pop\n          jump\t// out\n            /* \"#utility.yul\":214:436   */\n        tag_10:\n            /* \"#utility.yul\":307:311   */\n          0x00\n            /* \"#utility.yul\":345:347   */\n          0x20\n            /* \"#utility.yul\":334:343   */\n          dup3\n            /* \"#utility.yul\":330:348   */\n          add\n            /* \"#utility.yul\":322:348   */\n          swap1\n          pop\n            /* \"#utility.yul\":358:429   */\n          tag_46\n            /* \"#utility.yul\":426:427   */\n          0x00\n            /* \"#utility.yul\":415:424   */\n          dup4\n            /* \"#utility.yul\":411:428   */\n          add\n            /* \"#utility.yul\":402:408   */\n          dup5\n            /* \"#utility.yul\":358:429   */\n          tag_38\n          jump\t// in\n        tag_46:\n            /* \"#utility.yul\":214:436   */\n          swap3\n          swap2\n          pop\n          pop\n          jump\t// out\n            /* \"#utility.yul\":442:622   */\n        tag_39:\n            /* \"#utility.yul\":490:567   */\n          0x4e487b7100000000000000000000000000000000000000000000000000000000\n            /* \"#utility.yul\":487:488   */\n          0x00\n            /* \"#utility.yul\":480:568   */\n          mstore\n            /* \"#utility.yul\":587:591   */\n          0x11\n            /* \"#utility.yul\":584:585   */\n          0x04\n            /* \"#utility.yul\":577:592   */\n          mstore\n            /* \"#utility.yul\":611:615   */\n          0x24\n            /* \"#utility.yul\":608:609   */\n          0x00\n            /* \"#utility.yul\":601:616   */\n          revert\n            /* \"#utility.yul\":628:1038   */\n        tag_22:\n            /* \"#utility.yul\":668:675   */\n          0x00\n            /* \"#utility.yul\":691:711   */\n          tag_49\n            /* \"#utility.yul\":709:710   */\n          dup3\n            /* \"#utility.yul\":691:711   */\n          tag_37\n          jump\t// in\n        tag_49:\n            /* \"#utility.yul\":686:711   */\n          swap2\n          pop\n            /* \"#utility.yul\":725:745   */\n          tag_50\n            /* \"#utility.yul\":743:744   */\n          dup4\n            /* \"#utility.yul\":725:745   */\n          tag_37\n          jump\t// in\n        tag_50:\n            /* \"#utility.yul\":720:745   */\n          swap3\n          pop\n            /* \"#utility.yul\":780:781   */\n          dup3\n            /* \"#utility.yul\":777:778   */\n          dup3\n            /* \"#utility.yul\":773:782   */\n          mul\n            /* \"#utility.yul\":802:832   */\n          tag_51\n            /* \"#utility.yul\":820:831   */\n          dup2\n            /* \"#utility.yul\":802:832   */\n          tag_37\n          jump\t// in\n        tag_51:\n            /* \"#utility.yul\":791:832   */\n          swap2\n          pop\n            /* \"#utility.yul\":981:982   */\n          dup3\n            /* \"#utility.yul\":972:979   */\n          dup3\n            /* \"#utility.yul\":968:983   */\n          div\n            /* \"#utility.yul\":965:966   */\n          dup5\n            /* \"#utility.yul\":962:984   */\n          eq\n            /* \"#utility.yul\":942:943   */\n          dup4\n            /* \"#utility.yul\":935:944   */\n          iszero\n            /* \"#utility.yul\":915:998   */\n          or\n            /* \"#utility.yul\":892:1031   */\n          tag_52\n          jumpi\n            /* \"#utility.yul\":1011:1029   */\n          tag_53\n          tag_39\n          jump\t// in\n        tag_53:\n            /* \"#utility.yul\":892:1031   */\n        tag_52:\n            /* \"#utility.yul\":676:1038   */\n          pop\n            /* \"#utility.yul\":628:1038   */\n          swap3\n          swap2\n          pop\n          pop\n          jump\t// out\n            /* \"#utility.yul\":1044:1235   */\n        tag_29:\n            /* \"#utility.yul\":1084:1087   */\n          0x00\n            /* \"#utility.yul\":1103:1123   */\n          tag_55\n            /* \"#utility.yul\":1121:1122   */\n          dup3\n            /* \"#utility.yul\":1103:1123   */\n          tag_37\n          jump\t// in\n        tag_55:\n            /* \"#utility.yul\":1098:1123   */\n          swap2\n          pop\n            /* \"#utility.yul\":1137:1157   */\n          tag_56\n            /* \"#utility.yul\":1155:1156   */\n          dup4\n            /* \"#utility.yul\":1137:1157   */\n          tag_37\n          jump\t// in\n        tag_56:\n            /* \"#utility.yul\":1132:1157   */\n          swap3\n          pop\n            /* \"#utility.yul\":1180:1181   */\n          dup3\n            /* \"#utility.yul\":1177:1178   */\n          dup3\n            /* \"#utility.yul\":1173:1182   */\n          add\n            /* \"#utility.yul\":1166:1182   */\n          swap1\n          pop\n            /* \"#utility.yul\":1201:1204   */\n          dup1\n            /* \"#utility.yul\":1198:1199   */\n          dup3\n            /* \"#utility.yul\":1195:1205   */\n          gt\n            /* \"#utility.yul\":1192:1228   */\n          iszero\n          tag_57\n          jumpi\n            /* \"#utility.yul\":1208:1226   */\n          tag_58\n          tag_39\n          jump\t// in\n        tag_58:\n            /* \"#utility.yul\":1192:1228   */\n        tag_57:\n            /* \"#utility.yul\":1044:1235   */\n          swap3\n          swap2\n          pop\n          pop\n          jump\t// out\n            /* \"#utility.yul\":1241:1421   */\n        tag_40:\n            /* \"#utility.yul\":1289:1366   */\n          0x4e487b7100000000000000000000000000000000000000000000000000000000\n            /* \"#utility.yul\":1286:1287   */\n          0x00\n            /* \"#utility.yul\":1279:1367   */\n          mstore\n            /* \"#utility.yul\":1386:1390   */\n          0x12\n            /* \"#utility.yul\":1383:1384   */\n          0x04\n            /* \"#utility.yul\":1376:1391   */\n          mstore\n            /* \"#utility.yul\":1410:1414   */\n          0x24\n            /* \"#utility.yul\":1407:1408   */\n          0x00\n            /* \"#utility.yul\":1400:1415   */\n          revert\n            /* \"#utility.yul\":1427:1612   */\n        tag_31:\n            /* \"#utility.yul\":1467:1468   */\n          0x00\n            /* \"#utility.yul\":1484:1504   */\n          tag_61\n            /* \"#utility.yul\":1502:1503   */\n          dup3\n            /* \"#utility.yul\":1484:1504   */\n          tag_37\n          jump\t// in\n        tag_61:\n            /* \"#utility.yul\":1479:1504   */\n          swap2\n          pop\n            /* \"#utility.yul\":1518:1538   */\n          tag_62\n            /* \"#utility.yul\":1536:1537   */\n          dup4\n            /* \"#utility.yul\":1518:1538   */\n          tag_37\n          jump\t// in\n        tag_62:\n            /* \"#utility.yul\":1513:1538   */\n          swap3\n          pop\n            /* \"#utility.yul\":1557:1558   */\n          dup3\n            /* \"#utility.yul\":1547:1582   */\n          tag_63\n          jumpi\n            /* \"#utility.yul\":1562:1580   */\n          tag_64\n          tag_40\n          jump\t// in\n        tag_64:\n            /* \"#utility.yul\":1547:1582   */\n        tag_63:\n            /* \"#utility.yul\":1604:1605   */\n          dup3\n            /* \"#utility.yul\":1601:1602   */\n          dup3\n            /* \"#utility.yul\":1597:1606   */\n          div\n            /* \"#utility.yul\":1592:1606   */\n          swap1\n          pop\n            /* \"#utility.yul\":1427:1612   */\n          swap3\n          swap2\n          pop\n          pop\n          jump\t// out\n\n        auxdata: 0xa2646970667358221220388ce16759071e15e361cb8e3560b2deb6667d19a9c235de80fc9c6b4a55907f64736f6c634300081a0033\n    }\n}\n\nsub_3: assembly {\n        /* \"Day-10/D10P3.sol\":1795:2910  contract Cone is ThreeDObject {... */\n      mstore(0x40, 0x80)\n        /* \"Day-10/D10P3.sol\":1958:2060  constructor(uint _radius, uint _height) {... */\n      callvalue\n      dup1\n      iszero\n      tag_1\n      jumpi\n      0x00\n      dup1\n      revert\n    tag_1:\n      pop\n      mload(0x40)\n      sub(codesize, bytecodeSize)\n      dup1\n      bytecodeSize\n      dup4\n      codecopy\n      dup2\n      dup2\n      add\n      0x40\n      mstore\n      dup2\n      add\n      swap1\n      tag_2\n      swap2\n      swap1\n      tag_3\n      jump\t// in\n    tag_2:\n        /* \"Day-10/D10P3.sol\":2018:2025  _radius */\n      dup2\n        /* \"Day-10/D10P3.sol\":2009:2015  radius */\n      0x00\n        /* \"Day-10/D10P3.sol\":2009:2025  radius = _radius */\n      dup2\n      swap1\n      sstore\n      pop\n        /* \"Day-10/D10P3.sol\":2045:2052  _height */\n      dup1\n        /* \"Day-10/D10P3.sol\":2036:2042  height */\n      0x01\n        /* \"Day-10/D10P3.sol\":2036:2052  height = _height */\n      dup2\n      swap1\n      sstore\n      pop\n        /* \"Day-10/D10P3.sol\":1958:2060  constructor(uint _radius, uint _height) {... */\n      pop\n      pop\n        /* \"Day-10/D10P3.sol\":1795:2910  contract Cone is ThreeDObject {... */\n      jump(tag_6)\n        /* \"#utility.yul\":88:205   */\n    tag_8:\n        /* \"#utility.yul\":197:198   */\n      0x00\n        /* \"#utility.yul\":194:195   */\n      dup1\n        /* \"#utility.yul\":187:199   */\n      revert\n        /* \"#utility.yul\":334:411   */\n    tag_10:\n        /* \"#utility.yul\":371:378   */\n      0x00\n        /* \"#utility.yul\":400:405   */\n      dup2\n        /* \"#utility.yul\":389:405   */\n      swap1\n      pop\n        /* \"#utility.yul\":334:411   */\n      swap2\n      swap1\n      pop\n      jump\t// out\n        /* \"#utility.yul\":417:539   */\n    tag_11:\n        /* \"#utility.yul\":490:514   */\n      tag_19\n        /* \"#utility.yul\":508:513   */\n      dup2\n        /* \"#utility.yul\":490:514   */\n      tag_10\n      jump\t// in\n    tag_19:\n        /* \"#utility.yul\":483:488   */\n      dup2\n        /* \"#utility.yul\":480:515   */\n      eq\n        /* \"#utility.yul\":470:533   */\n      tag_20\n      jumpi\n        /* \"#utility.yul\":529:530   */\n      0x00\n        /* \"#utility.yul\":526:527   */\n      dup1\n        /* \"#utility.yul\":519:531   */\n      revert\n        /* \"#utility.yul\":470:533   */\n    tag_20:\n        /* \"#utility.yul\":417:539   */\n      pop\n      jump\t// out\n        /* \"#utility.yul\":545:688   */\n    tag_12:\n        /* \"#utility.yul\":602:607   */\n      0x00\n        /* \"#utility.yul\":633:639   */\n      dup2\n        /* \"#utility.yul\":627:640   */\n      mload\n        /* \"#utility.yul\":618:640   */\n      swap1\n      pop\n        /* \"#utility.yul\":649:682   */\n      tag_22\n        /* \"#utility.yul\":676:681   */\n      dup2\n        /* \"#utility.yul\":649:682   */\n      tag_11\n      jump\t// in\n    tag_22:\n        /* \"#utility.yul\":545:688   */\n      swap3\n      swap2\n      pop\n      pop\n      jump\t// out\n        /* \"#utility.yul\":694:1201   */\n    tag_3:\n        /* \"#utility.yul\":773:779   */\n      0x00\n        /* \"#utility.yul\":781:787   */\n      dup1\n        /* \"#utility.yul\":830:832   */\n      0x40\n        /* \"#utility.yul\":818:827   */\n      dup4\n        /* \"#utility.yul\":809:816   */\n      dup6\n        /* \"#utility.yul\":805:828   */\n      sub\n        /* \"#utility.yul\":801:833   */\n      slt\n        /* \"#utility.yul\":798:917   */\n      iszero\n      tag_24\n      jumpi\n        /* \"#utility.yul\":836:915   */\n      tag_25\n      tag_8\n      jump\t// in\n    tag_25:\n        /* \"#utility.yul\":798:917   */\n    tag_24:\n        /* \"#utility.yul\":956:957   */\n      0x00\n        /* \"#utility.yul\":981:1045   */\n      tag_26\n        /* \"#utility.yul\":1037:1044   */\n      dup6\n        /* \"#utility.yul\":1028:1034   */\n      dup3\n        /* \"#utility.yul\":1017:1026   */\n      dup7\n        /* \"#utility.yul\":1013:1035   */\n      add\n        /* \"#utility.yul\":981:1045   */\n      tag_12\n      jump\t// in\n    tag_26:\n        /* \"#utility.yul\":971:1045   */\n      swap3\n      pop\n        /* \"#utility.yul\":927:1055   */\n      pop\n        /* \"#utility.yul\":1094:1096   */\n      0x20\n        /* \"#utility.yul\":1120:1184   */\n      tag_27\n        /* \"#utility.yul\":1176:1183   */\n      dup6\n        /* \"#utility.yul\":1167:1173   */\n      dup3\n        /* \"#utility.yul\":1156:1165   */\n      dup7\n        /* \"#utility.yul\":1152:1174   */\n      add\n        /* \"#utility.yul\":1120:1184   */\n      tag_12\n      jump\t// in\n    tag_27:\n        /* \"#utility.yul\":1110:1184   */\n      swap2\n      pop\n        /* \"#utility.yul\":1065:1194   */\n      pop\n        /* \"#utility.yul\":694:1201   */\n      swap3\n      pop\n      swap3\n      swap1\n      pop\n      jump\t// out\n        /* \"Day-10/D10P3.sol\":1795:2910  contract Cone is ThreeDObject {... */\n    tag_6:\n      dataSize(sub_0)\n      dup1\n      dataOffset(sub_0)\n      0x00\n      codecopy\n      0x00\n      return\n    stop\n\n    sub_0: assembly {\n            /* \"Day-10/D10P3.sol\":1795:2910  contract Cone is ThreeDObject {... */\n          mstore(0x40, 0x80)\n          callvalue\n          dup1\n          iszero\n          tag_1\n          jumpi\n          0x00\n          dup1\n          revert\n        tag_1:\n          pop\n          jumpi(tag_2, lt(calldatasize, 0x04))\n          shr(0xe0, calldataload(0x00))\n          dup1\n          0x0ef26743\n          eq\n          tag_3\n          jumpi\n          dup1\n          0x217f4353\n          eq\n          tag_4\n          jumpi\n          dup1\n          0x89e7995f\n          eq\n          tag_5\n          jumpi\n          dup1\n          0xc618a1e4\n          eq\n          tag_6\n          jumpi\n        tag_2:\n          0x00\n          dup1\n          revert\n            /* \"Day-10/D10P3.sol\":1857:1875  uint public height */\n        tag_3:\n          tag_7\n          tag_8\n          jump\t// in\n        tag_7:\n          mload(0x40)\n          tag_9\n          swap2\n          swap1\n          tag_10\n          jump\t// in\n        tag_9:\n          mload(0x40)\n          dup1\n          swap2\n          sub\n          swap1\n          return\n            /* \"Day-10/D10P3.sol\":1832:1850  uint public radius */\n        tag_4:\n          tag_11\n          tag_12\n          jump\t// in\n        tag_11:\n          mload(0x40)\n          tag_13\n          swap2\n          swap1\n          tag_10\n          jump\t// in\n        tag_13:\n          mload(0x40)\n          dup1\n          swap2\n          sub\n          swap1\n          return\n            /* \"Day-10/D10P3.sol\":2072:2433  function surfaceArea() public view override returns (uint) {... */\n        tag_5:\n          tag_14\n          tag_15\n          jump\t// in\n        tag_14:\n          mload(0x40)\n          tag_16\n          swap2\n          swap1\n          tag_10\n          jump\t// in\n        tag_16:\n          mload(0x40)\n          dup1\n          swap2\n          sub\n          swap1\n          return\n            /* \"Day-10/D10P3.sol\":2445:2586  function volume() public view override returns (uint) {... */\n        tag_6:\n          tag_17\n          tag_18\n          jump\t// in\n        tag_17:\n          mload(0x40)\n          tag_19\n          swap2\n          swap1\n          tag_10\n          jump\t// in\n        tag_19:\n          mload(0x40)\n          dup1\n          swap2\n          sub\n          swap1\n          return\n            /* \"Day-10/D10P3.sol\":1857:1875  uint public height */\n        tag_8:\n          sload(0x01)\n          dup2\n          jump\t// out\n            /* \"Day-10/D10P3.sol\":1832:1850  uint public radius */\n        tag_12:\n          sload(0x00)\n          dup2\n          jump\t// out\n            /* \"Day-10/D10P3.sol\":2072:2433  function surfaceArea() public view override returns (uint) {... */\n        tag_15:\n            /* \"Day-10/D10P3.sol\":2125:2129  uint */\n          0x00\n            /* \"Day-10/D10P3.sol\":2222:2245  uint slantHeightSquared */\n          dup1\n            /* \"Day-10/D10P3.sol\":2275:2281  height */\n          sload(0x01)\n            /* \"Day-10/D10P3.sol\":2266:2272  height */\n          sload(0x01)\n            /* \"Day-10/D10P3.sol\":2266:2281  height * height */\n          tag_21\n          swap2\n          swap1\n          tag_22\n          jump\t// in\n        tag_21:\n            /* \"Day-10/D10P3.sol\":2257:2263  radius */\n          sload(0x00)\n            /* \"Day-10/D10P3.sol\":2248:2254  radius */\n          sload(0x00)\n            /* \"Day-10/D10P3.sol\":2248:2263  radius * radius */\n          tag_23\n          swap2\n          swap1\n          tag_22\n          jump\t// in\n        tag_23:\n            /* \"Day-10/D10P3.sol\":2248:2281  radius * radius + height * height */\n          tag_24\n          swap2\n          swap1\n          tag_25\n          jump\t// in\n        tag_24:\n            /* \"Day-10/D10P3.sol\":2222:2281  uint slantHeightSquared = radius * radius + height * height */\n          swap1\n          pop\n            /* \"Day-10/D10P3.sol\":2292:2308  uint slantHeight */\n          0x00\n            /* \"Day-10/D10P3.sol\":2311:2335  sqrt(slantHeightSquared) */\n          tag_26\n            /* \"Day-10/D10P3.sol\":2316:2334  slantHeightSquared */\n          dup3\n            /* \"Day-10/D10P3.sol\":2311:2315  sqrt */\n          tag_27\n            /* \"Day-10/D10P3.sol\":2311:2335  sqrt(slantHeightSquared) */\n          jump\t// in\n        tag_26:\n            /* \"Day-10/D10P3.sol\":2292:2335  uint slantHeight = sqrt(slantHeightSquared) */\n          swap1\n          pop\n            /* \"Day-10/D10P3.sol\":2422:2425  100 */\n          0x64\n            /* \"Day-10/D10P3.sol\":2406:2417  slantHeight */\n          dup2\n            /* \"Day-10/D10P3.sol\":2397:2403  radius */\n          sload(0x00)\n            /* \"Day-10/D10P3.sol\":2397:2417  radius + slantHeight */\n          tag_28\n          swap2\n          swap1\n          tag_25\n          jump\t// in\n        tag_28:\n            /* \"Day-10/D10P3.sol\":2387:2393  radius */\n          sload(0x00)\n            /* \"Day-10/D10P3.sol\":1901:1904  314 */\n          0x013a\n            /* \"Day-10/D10P3.sol\":2382:2393  PI * radius */\n          tag_29\n          swap2\n          swap1\n          tag_22\n          jump\t// in\n        tag_29:\n            /* \"Day-10/D10P3.sol\":2382:2418  PI * radius * (radius + slantHeight) */\n          tag_30\n          swap2\n          swap1\n          tag_22\n          jump\t// in\n        tag_30:\n            /* \"Day-10/D10P3.sol\":2381:2425  (PI * radius * (radius + slantHeight)) / 100 */\n          tag_31\n          swap2\n          swap1\n          tag_32\n          jump\t// in\n        tag_31:\n            /* \"Day-10/D10P3.sol\":2374:2425  return (PI * radius * (radius + slantHeight)) / 100 */\n          swap3\n          pop\n          pop\n          pop\n            /* \"Day-10/D10P3.sol\":2072:2433  function surfaceArea() public view override returns (uint) {... */\n          swap1\n          jump\t// out\n            /* \"Day-10/D10P3.sol\":2445:2586  function volume() public view override returns (uint) {... */\n        tag_18:\n            /* \"Day-10/D10P3.sol\":2493:2497  uint */\n          0x00\n            /* \"Day-10/D10P3.sol\":2551:2554  300 */\n          0x012c\n            /* \"Day-10/D10P3.sol\":2541:2547  height */\n          sload(0x01)\n            /* \"Day-10/D10P3.sol\":2532:2538  radius */\n          sload(0x00)\n            /* \"Day-10/D10P3.sol\":2523:2529  radius */\n          sload(0x00)\n            /* \"Day-10/D10P3.sol\":1901:1904  314 */\n          0x013a\n            /* \"Day-10/D10P3.sol\":2518:2529  PI * radius */\n          tag_34\n          swap2\n          swap1\n          tag_22\n          jump\t// in\n        tag_34:\n            /* \"Day-10/D10P3.sol\":2518:2538  PI * radius * radius */\n          tag_35\n          swap2\n          swap1\n          tag_22\n          jump\t// in\n        tag_35:\n            /* \"Day-10/D10P3.sol\":2518:2547  PI * radius * radius * height */\n          tag_36\n          swap2\n          swap1\n          tag_22\n          jump\t// in\n        tag_36:\n            /* \"Day-10/D10P3.sol\":2517:2554  (PI * radius * radius * height) / 300 */\n          tag_37\n          swap2\n          swap1\n          tag_32\n          jump\t// in\n        tag_37:\n            /* \"Day-10/D10P3.sol\":2510:2554  return (PI * radius * radius * height) / 300 */\n          swap1\n          pop\n            /* \"Day-10/D10P3.sol\":2445:2586  function volume() public view override returns (uint) {... */\n          swap1\n          jump\t// out\n            /* \"Day-10/D10P3.sol\":2656:2907  function sqrt(uint x) internal pure returns (uint) {... */\n        tag_27:\n            /* \"Day-10/D10P3.sol\":2701:2705  uint */\n          0x00\n            /* \"Day-10/D10P3.sol\":2727:2728  0 */\n          dup1\n            /* \"Day-10/D10P3.sol\":2722:2723  x */\n          dup3\n            /* \"Day-10/D10P3.sol\":2722:2728  x == 0 */\n          sub\n            /* \"Day-10/D10P3.sol\":2718:2738  if (x == 0) return 0 */\n          tag_39\n          jumpi\n            /* \"Day-10/D10P3.sol\":2737:2738  0 */\n          0x00\n            /* \"Day-10/D10P3.sol\":2730:2738  return 0 */\n          swap1\n          pop\n          jump(tag_38)\n            /* \"Day-10/D10P3.sol\":2718:2738  if (x == 0) return 0 */\n        tag_39:\n            /* \"Day-10/D10P3.sol\":2749:2755  uint z */\n          0x00\n            /* \"Day-10/D10P3.sol\":2768:2769  2 */\n          0x02\n            /* \"Day-10/D10P3.sol\":2763:2764  1 */\n          0x01\n            /* \"Day-10/D10P3.sol\":2759:2760  x */\n          dup5\n            /* \"Day-10/D10P3.sol\":2759:2764  x + 1 */\n          tag_40\n          swap2\n          swap1\n          tag_25\n          jump\t// in\n        tag_40:\n            /* \"Day-10/D10P3.sol\":2758:2769  (x + 1) / 2 */\n          tag_41\n          swap2\n          swap1\n          tag_32\n          jump\t// in\n        tag_41:\n            /* \"Day-10/D10P3.sol\":2749:2769  uint z = (x + 1) / 2 */\n          swap1\n          pop\n            /* \"Day-10/D10P3.sol\":2780:2786  uint y */\n          0x00\n            /* \"Day-10/D10P3.sol\":2789:2790  x */\n          dup4\n            /* \"Day-10/D10P3.sol\":2780:2790  uint y = x */\n          swap1\n          pop\n            /* \"Day-10/D10P3.sol\":2801:2881  while (z < y) {... */\n        tag_42:\n            /* \"Day-10/D10P3.sol\":2812:2813  y */\n          dup1\n            /* \"Day-10/D10P3.sol\":2808:2809  z */\n          dup3\n            /* \"Day-10/D10P3.sol\":2808:2813  z < y */\n          lt\n            /* \"Day-10/D10P3.sol\":2801:2881  while (z < y) {... */\n          iszero\n          tag_43\n          jumpi\n            /* \"Day-10/D10P3.sol\":2834:2835  z */\n          dup2\n            /* \"Day-10/D10P3.sol\":2830:2835  y = z */\n          swap1\n          pop\n            /* \"Day-10/D10P3.sol\":2868:2869  2 */\n          0x02\n            /* \"Day-10/D10P3.sol\":2863:2864  z */\n          dup3\n            /* \"Day-10/D10P3.sol\":2859:2860  z */\n          dup4\n            /* \"Day-10/D10P3.sol\":2855:2856  x */\n          dup7\n            /* \"Day-10/D10P3.sol\":2855:2860  x / z */\n          tag_44\n          swap2\n          swap1\n          tag_32\n          jump\t// in\n        tag_44:\n            /* \"Day-10/D10P3.sol\":2855:2864  x / z + z */\n          tag_45\n          swap2\n          swap1\n          tag_25\n          jump\t// in\n        tag_45:\n            /* \"Day-10/D10P3.sol\":2854:2869  (x / z + z) / 2 */\n          tag_46\n          swap2\n          swap1\n          tag_32\n          jump\t// in\n        tag_46:\n            /* \"Day-10/D10P3.sol\":2850:2869  z = (x / z + z) / 2 */\n          swap2\n          pop\n            /* \"Day-10/D10P3.sol\":2801:2881  while (z < y) {... */\n          jump(tag_42)\n        tag_43:\n            /* \"Day-10/D10P3.sol\":2898:2899  y */\n          dup1\n            /* \"Day-10/D10P3.sol\":2891:2899  return y */\n          swap3\n          pop\n          pop\n          pop\n            /* \"Day-10/D10P3.sol\":2656:2907  function sqrt(uint x) internal pure returns (uint) {... */\n        tag_38:\n          swap2\n          swap1\n          pop\n          jump\t// out\n            /* \"#utility.yul\":7:84   */\n        tag_47:\n            /* \"#utility.yul\":44:51   */\n          0x00\n            /* \"#utility.yul\":73:78   */\n          dup2\n            /* \"#utility.yul\":62:78   */\n          swap1\n          pop\n            /* \"#utility.yul\":7:84   */\n          swap2\n          swap1\n          pop\n          jump\t// out\n            /* \"#utility.yul\":90:208   */\n        tag_48:\n            /* \"#utility.yul\":177:201   */\n          tag_54\n            /* \"#utility.yul\":195:200   */\n          dup2\n            /* \"#utility.yul\":177:201   */\n          tag_47\n          jump\t// in\n        tag_54:\n            /* \"#utility.yul\":172:175   */\n          dup3\n            /* \"#utility.yul\":165:202   */\n          mstore\n            /* \"#utility.yul\":90:208   */\n          pop\n          pop\n          jump\t// out\n            /* \"#utility.yul\":214:436   */\n        tag_10:\n            /* \"#utility.yul\":307:311   */\n          0x00\n            /* \"#utility.yul\":345:347   */\n          0x20\n            /* \"#utility.yul\":334:343   */\n          dup3\n            /* \"#utility.yul\":330:348   */\n          add\n            /* \"#utility.yul\":322:348   */\n          swap1\n          pop\n            /* \"#utility.yul\":358:429   */\n          tag_56\n            /* \"#utility.yul\":426:427   */\n          0x00\n            /* \"#utility.yul\":415:424   */\n          dup4\n            /* \"#utility.yul\":411:428   */\n          add\n            /* \"#utility.yul\":402:408   */\n          dup5\n            /* \"#utility.yul\":358:429   */\n          tag_48\n          jump\t// in\n        tag_56:\n            /* \"#utility.yul\":214:436   */\n          swap3\n          swap2\n          pop\n          pop\n          jump\t// out\n            /* \"#utility.yul\":442:622   */\n        tag_49:\n            /* \"#utility.yul\":490:567   */\n          0x4e487b7100000000000000000000000000000000000000000000000000000000\n            /* \"#utility.yul\":487:488   */\n          0x00\n            /* \"#utility.yul\":480:568   */\n          mstore\n            /* \"#utility.yul\":587:591   */\n          0x11\n            /* \"#utility.yul\":584:585   */\n          0x04\n            /* \"#utility.yul\":577:592   */\n          mstore\n            /* \"#utility.yul\":611:615   */\n          0x24\n            /* \"#utility.yul\":608:609   */\n          0x00\n            /* \"#utility.yul\":601:616   */\n          revert\n            /* \"#utility.yul\":628:1038   */\n        tag_22:\n            /* \"#utility.yul\":668:675   */\n          0x00\n            /* \"#utility.yul\":691:711   */\n          tag_59\n            /* \"#utility.yul\":709:710   */\n          dup3\n            /* \"#utility.yul\":691:711   */\n          tag_47\n          jump\t// in\n        tag_59:\n            /* \"#utility.yul\":686:711   */\n          swap2\n          pop\n            /* \"#utility.yul\":725:745   */\n          tag_60\n            /* \"#utility.yul\":743:744   */\n          dup4\n            /* \"#utility.yul\":725:745   */\n          tag_47\n          jump\t// in\n        tag_60:\n            /* \"#utility.yul\":720:745   */\n          swap3\n          pop\n            /* \"#utility.yul\":780:781   */\n          dup3\n            /* \"#utility.yul\":777:778   */\n          dup3\n            /* \"#utility.yul\":773:782   */\n          mul\n            /* \"#utility.yul\":802:832   */\n          tag_61\n            /* \"#utility.yul\":820:831   */\n          dup2\n            /* \"#utility.yul\":802:832   */\n          tag_47\n          jump\t// in\n        tag_61:\n            /* \"#utility.yul\":791:832   */\n          swap2\n          pop\n            /* \"#utility.yul\":981:982   */\n          dup3\n            /* \"#utility.yul\":972:979   */\n          dup3\n            /* \"#utility.yul\":968:983   */\n          div\n            /* \"#utility.yul\":965:966   */\n          dup5\n            /* \"#utility.yul\":962:984   */\n          eq\n            /* \"#utility.yul\":942:943   */\n          dup4\n            /* \"#utility.yul\":935:944   */\n          iszero\n            /* \"#utility.yul\":915:998   */\n          or\n            /* \"#utility.yul\":892:1031   */\n          tag_62\n          jumpi\n            /* \"#utility.yul\":1011:1029   */\n          tag_63\n          tag_49\n          jump\t// in\n        tag_63:\n            /* \"#utility.yul\":892:1031   */\n        tag_62:\n            /* \"#utility.yul\":676:1038   */\n          pop\n            /* \"#utility.yul\":628:1038   */\n          swap3\n          swap2\n          pop\n          pop\n          jump\t// out\n            /* \"#utility.yul\":1044:1235   */\n        tag_25:\n            /* \"#utility.yul\":1084:1087   */\n          0x00\n            /* \"#utility.yul\":1103:1123   */\n          tag_65\n            /* \"#utility.yul\":1121:1122   */\n          dup3\n            /* \"#utility.yul\":1103:1123   */\n          tag_47\n          jump\t// in\n        tag_65:\n            /* \"#utility.yul\":1098:1123   */\n          swap2\n          pop\n            /* \"#utility.yul\":1137:1157   */\n          tag_66\n            /* \"#utility.yul\":1155:1156   */\n          dup4\n            /* \"#utility.yul\":1137:1157   */\n          tag_47\n          jump\t// in\n        tag_66:\n            /* \"#utility.yul\":1132:1157   */\n          swap3\n          pop\n            /* \"#utility.yul\":1180:1181   */\n          dup3\n            /* \"#utility.yul\":1177:1178   */\n          dup3\n            /* \"#utility.yul\":1173:1182   */\n          add\n            /* \"#utility.yul\":1166:1182   */\n          swap1\n          pop\n            /* \"#utility.yul\":1201:1204   */\n          dup1\n            /* \"#utility.yul\":1198:1199   */\n          dup3\n            /* \"#utility.yul\":1195:1205   */\n          gt\n            /* \"#utility.yul\":1192:1228   */\n          iszero\n          tag_67\n          jumpi\n            /* \"#utility.yul\":1208:1226   */\n          tag_68\n          tag_49\n          jump\t// in\n        tag_68:\n            /* \"#utility.yul\":1192:1228   */\n        tag_67:\n            /* \"#utility.yul\":1044:1235   */\n          swap3\n          swap2\n          pop\n          pop\n          jump\t// out\n            /* \"#utility.yul\":1241:1421   */\n        tag_50:\n            /* \"#utility.yul\":1289:1366   */\n          0x4e487b7100000000000000000000000000000000000000000000000000000000\n            /* \"#utility.yul\":1286:1287   */\n          0x00\n            /* \"#utility.yul\":1279:1367   */\n          mstore\n            /* \"#utility.yul\":1386:1390   */\n          0x12\n            /* \"#utility.yul\":1383:1384   */\n          0x04\n            /* \"#utility.yul\":1376:1391   */\n          mstore\n            /* \"#utility.yul\":1410:1414   */\n          0x24\n            /* \"#utility.yul\":1407:1408   */\n          0x00\n            /* \"#utility.yul\":1400:1415   */\n          revert\n            /* \"#utility.yul\":1427:1612   */\n        tag_32:\n            /* \"#utility.yul\":1467:1468   */\n          0x00\n            /* \"#utility.yul\":1484:1504   */\n          tag_71\n            /* \"#utility.yul\":1502:1503   */\n          dup3\n            /* \"#utility.yul\":1484:1504   */\n          tag_47\n          jump\t// in\n        tag_71:\n            /* \"#utility.yul\":1479:1504   */\n          swap2\n          pop\n            /* \"#utility.yul\":1518:1538   */\n          tag_72\n            /* \"#utility.yul\":1536:1537   */\n          dup4\n            /* \"#utility.yul\":1518:1538   */\n          tag_47\n          jump\t// in\n        tag_72:\n            /* \"#utility.yul\":1513:1538   */\n          swap3\n          pop\n            /* \"#utility.yul\":1557:1558   */\n          dup3\n            /* \"#utility.yul\":1547:1582   */\n          tag_73\n          jumpi\n            /* \"#utility.yul\":1562:1580   */\n          tag_74\n          tag_50\n          jump\t// in\n        tag_74:\n            /* \"#utility.yul\":1547:1582   */\n        tag_73:\n            /* \"#utility.yul\":1604:1605   */\n          dup3\n            /* \"#utility.yul\":1601:1602   */\n          dup3\n            /* \"#utility.yul\":1597:1606   */\n          div\n            /* \"#utility.yul\":1592:1606   */\n          swap1\n          pop\n            /* \"#utility.yul\":1427:1612   */\n          swap3\n          swap2\n          pop\n          pop\n          jump\t// out\n\n        auxdata: 0xa26469706673582212205d6607cf88da1a95a0a41d3d632ea1d8c1a66c82dc1b01ab17d800cc7c39128264736f6c634300081a0033\n    }\n}\n",
				"bytecode": {
					"linkReferences": {},
					"object": "608060405234801561000f575f80fd5b5060405161196e38038061196e833981810160405281019061003191906101ec565b8460405161003e9061018e565b6100489190610272565b604051809103905ff080158015610061573d5f803e3d5ffd5b505f806101000a81548173ffffffffffffffffffffffffffffffffffffffff021916908373ffffffffffffffffffffffffffffffffffffffff16021790555083836040516100ae9061019b565b6100b992919061028b565b604051809103905ff0801580156100d2573d5f803e3d5ffd5b5060015f6101000a81548173ffffffffffffffffffffffffffffffffffffffff021916908373ffffffffffffffffffffffffffffffffffffffff1602179055508181604051610120906101a8565b61012b92919061028b565b604051809103905ff080158015610144573d5f803e3d5ffd5b5060025f6101000a81548173ffffffffffffffffffffffffffffffffffffffff021916908373ffffffffffffffffffffffffffffffffffffffff16021790555050505050506102b2565b61025580610f7d83390190565b610392806111d283390190565b61040a8061156483390190565b5f80fd5b5f819050919050565b6101cb816101b9565b81146101d5575f80fd5b50565b5f815190506101e6816101c2565b92915050565b5f805f805f60a08688031215610205576102046101b5565b5b5f610212888289016101d8565b9550506020610223888289016101d8565b9450506040610234888289016101d8565b9350506060610245888289016101d8565b9250506080610256888289016101d8565b9150509295509295909350565b61026c816101b9565b82525050565b5f6020820190506102855f830184610263565b92915050565b5f60408201905061029e5f830185610263565b6102ab6020830184610263565b9392505050565b610cbe806102bf5f395ff3fe608060405234801561000f575f80fd5b506004361061004a575f3560e01c80635c7712111461004e578063a312363a1461006c578063a35e7d291461008a578063becf77fe146100a8575b5f80fd5b6100566100c6565b60405161006391906106d1565b60405180910390f35b6100746100e9565b604051610081919061070a565b60405180910390f35b61009261010e565b60405161009f9190610743565b60405180910390f35b6100b0610133565b6040516100bd91906107cc565b60405180910390f35b5f8054906101000a900473ffffffffffffffffffffffffffffffffffffffff1681565b60025f9054906101000a900473ffffffffffffffffffffffffffffffffffffffff1681565b60015f9054906101000a900473ffffffffffffffffffffffffffffffffffffffff1681565b60606101c95f8054906101000a900473ffffffffffffffffffffffffffffffffffffffff1673ffffffffffffffffffffffffffffffffffffffff166389e7995f6040518163ffffffff1660e01b8152600401602060405180830381865afa1580156101a0573d5f803e3d5ffd5b505050506040513d601f19601f820116820180604052508101906101c49190610823565b6104de565b61025d5f8054906101000a900473ffffffffffffffffffffffffffffffffffffffff1673ffffffffffffffffffffffffffffffffffffffff1663c618a1e46040518163ffffffff1660e01b8152600401602060405180830381865afa158015610234573d5f803e3d5ffd5b505050506040513d601f19601f820116820180604052508101906102589190610823565b6104de565b6102f360015f9054906101000a900473ffffffffffffffffffffffffffffffffffffffff1673ffffffffffffffffffffffffffffffffffffffff166389e7995f6040518163ffffffff1660e01b8152600401602060405180830381865afa1580156102ca573d5f803e3d5ffd5b505050506040513d601f19601f820116820180604052508101906102ee9190610823565b6104de565b61038960015f9054906101000a900473ffffffffffffffffffffffffffffffffffffffff1673ffffffffffffffffffffffffffffffffffffffff1663c618a1e46040518163ffffffff1660e01b8152600401602060405180830381865afa158015610360573d5f803e3d5ffd5b505050506040513d601f19601f820116820180604052508101906103849190610823565b6104de565b61041f60025f9054906101000a900473ffffffffffffffffffffffffffffffffffffffff1673ffffffffffffffffffffffffffffffffffffffff166389e7995f6040518163ffffffff1660e01b8152600401602060405180830381865afa1580156103f6573d5f803e3d5ffd5b505050506040513d601f19601f8201168201806040525081019061041a9190610823565b6104de565b6104b560025f9054906101000a900473ffffffffffffffffffffffffffffffffffffffff1673ffffffffffffffffffffffffffffffffffffffff1663c618a1e46040518163ffffffff1660e01b8152600401602060405180830381865afa15801561048c573d5f803e3d5ffd5b505050506040513d601f19601f820116820180604052508101906104b09190610823565b6104de565b6040516020016104ca969594939291906109fa565b604051602081830303815290604052905090565b60605f8203610524576040518060400160405280600181526020017f30000000000000000000000000000000000000000000000000000000000000008152509050610652565b5f8290505f5b5f821461055357808061053c90610ad6565b915050600a8261054c9190610b4a565b915061052a565b5f8167ffffffffffffffff81111561056e5761056d610b7a565b5b6040519080825280601f01601f1916602001820160405280156105a05781602001600182028036833780820191505090505b5090505f8290505b5f861461064a576001816105bc9190610ba7565b90505f600a80886105cd9190610b4a565b6105d79190610bda565b876105e29190610ba7565b60306105ee9190610c27565b90508060f81b83838151811061060757610606610c5b565b5b60200101907effffffffffffffffffffffffffffffffffffffffffffffffffffffffffffff191690815f1a905350600a876106429190610b4a565b9650506105a8565b819450505050505b919050565b5f73ffffffffffffffffffffffffffffffffffffffff82169050919050565b5f819050919050565b5f61069961069461068f84610657565b610676565b610657565b9050919050565b5f6106aa8261067f565b9050919050565b5f6106bb826106a0565b9050919050565b6106cb816106b1565b82525050565b5f6020820190506106e45f8301846106c2565b92915050565b5f6106f4826106a0565b9050919050565b610704816106ea565b82525050565b5f60208201905061071d5f8301846106fb565b92915050565b5f61072d826106a0565b9050919050565b61073d81610723565b82525050565b5f6020820190506107565f830184610734565b92915050565b5f81519050919050565b5f82825260208201905092915050565b8281835e5f83830152505050565b5f601f19601f8301169050919050565b5f61079e8261075c565b6107a88185610766565b93506107b8818560208601610776565b6107c181610784565b840191505092915050565b5f6020820190508181035f8301526107e48184610794565b905092915050565b5f80fd5b5f819050919050565b610802816107f0565b811461080c575f80fd5b50565b5f8151905061081d816107f9565b92915050565b5f60208284031215610838576108376107ec565b5b5f6108458482850161080f565b91505092915050565b5f81905092915050565b7f437562653a20537572666163652041726561203d2000000000000000000000005f82015250565b5f61088c60158361084e565b915061089782610858565b601582019050919050565b5f6108ac8261075c565b6108b6818561084e565b93506108c6818560208601610776565b80840191505092915050565b7f2c20566f6c756d65203d200000000000000000000000000000000000000000005f82015250565b5f610906600b8361084e565b9150610911826108d2565b600b82019050919050565b7f0a000000000000000000000000000000000000000000000000000000000000005f82015250565b5f61095060018361084e565b915061095b8261091c565b600182019050919050565b7f43796c696e6465723a20537572666163652041726561203d20000000000000005f82015250565b5f61099a60198361084e565b91506109a582610966565b601982019050919050565b7f436f6e653a20537572666163652041726561203d2000000000000000000000005f82015250565b5f6109e460158361084e565b91506109ef826109b0565b601582019050919050565b5f610a0482610880565b9150610a1082896108a2565b9150610a1b826108fa565b9150610a2782886108a2565b9150610a3282610944565b9150610a3d8261098e565b9150610a4982876108a2565b9150610a54826108fa565b9150610a6082866108a2565b9150610a6b82610944565b9150610a76826109d8565b9150610a8282856108a2565b9150610a8d826108fa565b9150610a9982846108a2565b9150819050979650505050505050565b7f4e487b71000000000000000000000000000000000000000000000000000000005f52601160045260245ffd5b5f610ae0826107f0565b91507fffffffffffffffffffffffffffffffffffffffffffffffffffffffffffffffff8203610b1257610b11610aa9565b5b600182019050919050565b7f4e487b71000000000000000000000000000000000000000000000000000000005f52601260045260245ffd5b5f610b54826107f0565b9150610b5f836107f0565b925082610b6f57610b6e610b1d565b5b828204905092915050565b7f4e487b71000000000000000000000000000000000000000000000000000000005f52604160045260245ffd5b5f610bb1826107f0565b9150610bbc836107f0565b9250828203905081811115610bd457610bd3610aa9565b5b92915050565b5f610be4826107f0565b9150610bef836107f0565b9250828202610bfd816107f0565b91508282048414831517610c1457610c13610aa9565b5b5092915050565b5f60ff82169050919050565b5f610c3182610c1b565b9150610c3c83610c1b565b9250828201905060ff811115610c5557610c54610aa9565b5b92915050565b7f4e487b71000000000000000000000000000000000000000000000000000000005f52603260045260245ffdfea264697066735822122092bedfcb1cf7b36194ffc43a2fe50805d403951170fa4857768b910f39e87f2e64736f6c634300081a00336080604052348015600e575f80fd5b506040516102553803806102558339818101604052810190602e9190606b565b805f81905550506091565b5f80fd5b5f819050919050565b604d81603d565b81146056575f80fd5b50565b5f815190506065816046565b92915050565b5f60208284031215607d57607c6039565b5b5f6088848285016059565b91505092915050565b6101b78061009e5f395ff3fe608060405234801561000f575f80fd5b506004361061003f575f3560e01c80638475c0281461004357806389e7995f14610061578063c618a1e41461007f575b5f80fd5b61004b61009d565b60405161005891906100fa565b60405180910390f35b6100696100a2565b60405161007691906100fa565b60405180910390f35b6100876100c2565b60405161009491906100fa565b60405180910390f35b5f5481565b5f80545f5460066100b39190610140565b6100bd9190610140565b905090565b5f80545f545f546100d39190610140565b6100dd9190610140565b905090565b5f819050919050565b6100f4816100e2565b82525050565b5f60208201905061010d5f8301846100eb565b92915050565b7f4e487b71000000000000000000000000000000000000000000000000000000005f52601160045260245ffd5b5f61014a826100e2565b9150610155836100e2565b9250828202610163816100e2565b9150828204841483151761017a57610179610113565b5b509291505056fea2646970667358221220023439ff610892640266ec4cb218482124d468c3a16b46e2ac5032243433342264736f6c634300081a00336080604052348015600e575f80fd5b506040516103923803806103928339818101604052810190602e91906073565b815f8190555080600181905550505060aa565b5f80fd5b5f819050919050565b6055816045565b8114605e575f80fd5b50565b5f81519050606d81604e565b92915050565b5f806040838503121560865760856041565b5b5f6091858286016061565b925050602060a0858286016061565b9150509250929050565b6102db806100b75f395ff3fe608060405234801561000f575f80fd5b506004361061004a575f3560e01c80630ef267431461004e578063217f43531461006c57806389e7995f1461008a578063c618a1e4146100a8575b5f80fd5b6100566100c6565b604051610063919061018e565b60405180910390f35b6100746100cc565b604051610081919061018e565b60405180910390f35b6100926100d1565b60405161009f919061018e565b60405180910390f35b6100b061013c565b6040516100bd919061018e565b60405180910390f35b60015481565b5f5481565b5f60645f545f5461013a60026100e791906101d4565b6100f191906101d4565b6100fb91906101d4565b6001545f5461013a600261010f91906101d4565b61011991906101d4565b61012391906101d4565b61012d9190610215565b6101379190610275565b905090565b5f60646001545f545f5461013a61015391906101d4565b61015d91906101d4565b61016791906101d4565b6101719190610275565b905090565b5f819050919050565b61018881610176565b82525050565b5f6020820190506101a15f83018461017f565b92915050565b7f4e487b71000000000000000000000000000000000000000000000000000000005f52601160045260245ffd5b5f6101de82610176565b91506101e983610176565b92508282026101f781610176565b9150828204841483151761020e5761020d6101a7565b5b5092915050565b5f61021f82610176565b915061022a83610176565b9250828201905080821115610242576102416101a7565b5b92915050565b7f4e487b71000000000000000000000000000000000000000000000000000000005f52601260045260245ffd5b5f61027f82610176565b915061028a83610176565b92508261029a57610299610248565b5b82820490509291505056fea2646970667358221220388ce16759071e15e361cb8e3560b2deb6667d19a9c235de80fc9c6b4a55907f64736f6c634300081a00336080604052348015600e575f80fd5b5060405161040a38038061040a8339818101604052810190602e91906073565b815f8190555080600181905550505060aa565b5f80fd5b5f819050919050565b6055816045565b8114605e575f80fd5b50565b5f81519050606d81604e565b92915050565b5f806040838503121560865760856041565b5b5f6091858286016061565b925050602060a0858286016061565b9150509250929050565b610353806100b75f395ff3fe608060405234801561000f575f80fd5b506004361061004a575f3560e01c80630ef267431461004e578063217f43531461006c57806389e7995f1461008a578063c618a1e4146100a8575b5f80fd5b6100566100c6565b6040516100639190610206565b60405180910390f35b6100746100cc565b6040516100819190610206565b60405180910390f35b6100926100d1565b60405161009f9190610206565b60405180910390f35b6100b0610142565b6040516100bd9190610206565b60405180910390f35b60015481565b5f5481565b5f806001546001546100e3919061024c565b5f545f546100f1919061024c565b6100fb919061028d565b90505f6101078261017d565b90506064815f54610118919061028d565b5f5461013a610127919061024c565b610131919061024c565b61013b91906102ed565b9250505090565b5f61012c6001545f545f5461013a61015a919061024c565b610164919061024c565b61016e919061024c565b61017891906102ed565b905090565b5f80820361018d575f90506101e9565b5f600260018461019d919061028d565b6101a791906102ed565b90505f8390505b808210156101e35781905060028283866101c891906102ed565b6101d2919061028d565b6101dc91906102ed565b91506101ae565b80925050505b919050565b5f819050919050565b610200816101ee565b82525050565b5f6020820190506102195f8301846101f7565b92915050565b7f4e487b71000000000000000000000000000000000000000000000000000000005f52601160045260245ffd5b5f610256826101ee565b9150610261836101ee565b925082820261026f816101ee565b915082820484148315176102865761028561021f565b5b5092915050565b5f610297826101ee565b91506102a2836101ee565b92508282019050808211156102ba576102b961021f565b5b92915050565b7f4e487b71000000000000000000000000000000000000000000000000000000005f52601260045260245ffd5b5f6102f7826101ee565b9150610302836101ee565b925082610312576103116102c0565b5b82820490509291505056fea26469706673582212205d6607cf88da1a95a0a41d3d632ea1d8c1a66c82dc1b01ab17d800cc7c39128264736f6c634300081a0033",
					"opcodes": "PUSH1 0x80 PUSH1 0x40 MSTORE CALLVALUE DUP1 ISZERO PUSH2 0xF JUMPI PUSH0 DUP1 REVERT JUMPDEST POP PUSH1 0x40 MLOAD PUSH2 0x196E CODESIZE SUB DUP1 PUSH2 0x196E DUP4 CODECOPY DUP2 DUP2 ADD PUSH1 0x40 MSTORE DUP2 ADD SWAP1 PUSH2 0x31 SWAP2 SWAP1 PUSH2 0x1EC JUMP JUMPDEST DUP5 PUSH1 0x40 MLOAD PUSH2 0x3E SWAP1 PUSH2 0x18E JUMP JUMPDEST PUSH2 0x48 SWAP2 SWAP1 PUSH2 0x272 JUMP JUMPDEST PUSH1 0x40 MLOAD DUP1 SWAP2 SUB SWAP1 PUSH0 CREATE DUP1 ISZERO DUP1 ISZERO PUSH2 0x61 JUMPI RETURNDATASIZE PUSH0 DUP1 RETURNDATACOPY RETURNDATASIZE PUSH0 REVERT JUMPDEST POP PUSH0 DUP1 PUSH2 0x100 EXP DUP2 SLOAD DUP2 PUSH20 0xFFFFFFFFFFFFFFFFFFFFFFFFFFFFFFFFFFFFFFFF MUL NOT AND SWAP1 DUP4 PUSH20 0xFFFFFFFFFFFFFFFFFFFFFFFFFFFFFFFFFFFFFFFF AND MUL OR SWAP1 SSTORE POP DUP4 DUP4 PUSH1 0x40 MLOAD PUSH2 0xAE SWAP1 PUSH2 0x19B JUMP JUMPDEST PUSH2 0xB9 SWAP3 SWAP2 SWAP1 PUSH2 0x28B JUMP JUMPDEST PUSH1 0x40 MLOAD DUP1 SWAP2 SUB SWAP1 PUSH0 CREATE DUP1 ISZERO DUP1 ISZERO PUSH2 0xD2 JUMPI RETURNDATASIZE PUSH0 DUP1 RETURNDATACOPY RETURNDATASIZE PUSH0 REVERT JUMPDEST POP PUSH1 0x1 PUSH0 PUSH2 0x100 EXP DUP2 SLOAD DUP2 PUSH20 0xFFFFFFFFFFFFFFFFFFFFFFFFFFFFFFFFFFFFFFFF MUL NOT AND SWAP1 DUP4 PUSH20 0xFFFFFFFFFFFFFFFFFFFFFFFFFFFFFFFFFFFFFFFF AND MUL OR SWAP1 SSTORE POP DUP2 DUP2 PUSH1 0x40 MLOAD PUSH2 0x120 SWAP1 PUSH2 0x1A8 JUMP JUMPDEST PUSH2 0x12B SWAP3 SWAP2 SWAP1 PUSH2 0x28B JUMP JUMPDEST PUSH1 0x40 MLOAD DUP1 SWAP2 SUB SWAP1 PUSH0 CREATE DUP1 ISZERO DUP1 ISZERO PUSH2 0x144 JUMPI RETURNDATASIZE PUSH0 DUP1 RETURNDATACOPY RETURNDATASIZE PUSH0 REVERT JUMPDEST POP PUSH1 0x2 PUSH0 PUSH2 0x100 EXP DUP2 SLOAD DUP2 PUSH20 0xFFFFFFFFFFFFFFFFFFFFFFFFFFFFFFFFFFFFFFFF MUL NOT AND SWAP1 DUP4 PUSH20 0xFFFFFFFFFFFFFFFFFFFFFFFFFFFFFFFFFFFFFFFF AND MUL OR SWAP1 SSTORE POP POP POP POP POP POP PUSH2 0x2B2 JUMP JUMPDEST PUSH2 0x255 DUP1 PUSH2 0xF7D DUP4 CODECOPY ADD SWAP1 JUMP JUMPDEST PUSH2 0x392 DUP1 PUSH2 0x11D2 DUP4 CODECOPY ADD SWAP1 JUMP JUMPDEST PUSH2 0x40A DUP1 PUSH2 0x1564 DUP4 CODECOPY ADD SWAP1 JUMP JUMPDEST PUSH0 DUP1 REVERT JUMPDEST PUSH0 DUP2 SWAP1 POP SWAP2 SWAP1 POP JUMP JUMPDEST PUSH2 0x1CB DUP2 PUSH2 0x1B9 JUMP JUMPDEST DUP2 EQ PUSH2 0x1D5 JUMPI PUSH0 DUP1 REVERT JUMPDEST POP JUMP JUMPDEST PUSH0 DUP2 MLOAD SWAP1 POP PUSH2 0x1E6 DUP2 PUSH2 0x1C2 JUMP JUMPDEST SWAP3 SWAP2 POP POP JUMP JUMPDEST PUSH0 DUP1 PUSH0 DUP1 PUSH0 PUSH1 0xA0 DUP7 DUP9 SUB SLT ISZERO PUSH2 0x205 JUMPI PUSH2 0x204 PUSH2 0x1B5 JUMP JUMPDEST JUMPDEST PUSH0 PUSH2 0x212 DUP9 DUP3 DUP10 ADD PUSH2 0x1D8 JUMP JUMPDEST SWAP6 POP POP PUSH1 0x20 PUSH2 0x223 DUP9 DUP3 DUP10 ADD PUSH2 0x1D8 JUMP JUMPDEST SWAP5 POP POP PUSH1 0x40 PUSH2 0x234 DUP9 DUP3 DUP10 ADD PUSH2 0x1D8 JUMP JUMPDEST SWAP4 POP POP PUSH1 0x60 PUSH2 0x245 DUP9 DUP3 DUP10 ADD PUSH2 0x1D8 JUMP JUMPDEST SWAP3 POP POP PUSH1 0x80 PUSH2 0x256 DUP9 DUP3 DUP10 ADD PUSH2 0x1D8 JUMP JUMPDEST SWAP2 POP POP SWAP3 SWAP6 POP SWAP3 SWAP6 SWAP1 SWAP4 POP JUMP JUMPDEST PUSH2 0x26C DUP2 PUSH2 0x1B9 JUMP JUMPDEST DUP3 MSTORE POP POP JUMP JUMPDEST PUSH0 PUSH1 0x20 DUP3 ADD SWAP1 POP PUSH2 0x285 PUSH0 DUP4 ADD DUP5 PUSH2 0x263 JUMP JUMPDEST SWAP3 SWAP2 POP POP JUMP JUMPDEST PUSH0 PUSH1 0x40 DUP3 ADD SWAP1 POP PUSH2 0x29E PUSH0 DUP4 ADD DUP6 PUSH2 0x263 JUMP JUMPDEST PUSH2 0x2AB PUSH1 0x20 DUP4 ADD DUP5 PUSH2 0x263 JUMP JUMPDEST SWAP4 SWAP3 POP POP POP JUMP JUMPDEST PUSH2 0xCBE DUP1 PUSH2 0x2BF PUSH0 CODECOPY PUSH0 RETURN INVALID PUSH1 0x80 PUSH1 0x40 MSTORE CALLVALUE DUP1 ISZERO PUSH2 0xF JUMPI PUSH0 DUP1 REVERT JUMPDEST POP PUSH1 0x4 CALLDATASIZE LT PUSH2 0x4A JUMPI PUSH0 CALLDATALOAD PUSH1 0xE0 SHR DUP1 PUSH4 0x5C771211 EQ PUSH2 0x4E JUMPI DUP1 PUSH4 0xA312363A EQ PUSH2 0x6C JUMPI DUP1 PUSH4 0xA35E7D29 EQ PUSH2 0x8A JUMPI DUP1 PUSH4 0xBECF77FE EQ PUSH2 0xA8 JUMPI JUMPDEST PUSH0 DUP1 REVERT JUMPDEST PUSH2 0x56 PUSH2 0xC6 JUMP JUMPDEST PUSH1 0x40 MLOAD PUSH2 0x63 SWAP2 SWAP1 PUSH2 0x6D1 JUMP JUMPDEST PUSH1 0x40 MLOAD DUP1 SWAP2 SUB SWAP1 RETURN JUMPDEST PUSH2 0x74 PUSH2 0xE9 JUMP JUMPDEST PUSH1 0x40 MLOAD PUSH2 0x81 SWAP2 SWAP1 PUSH2 0x70A JUMP JUMPDEST PUSH1 0x40 MLOAD DUP1 SWAP2 SUB SWAP1 RETURN JUMPDEST PUSH2 0x92 PUSH2 0x10E JUMP JUMPDEST PUSH1 0x40 MLOAD PUSH2 0x9F SWAP2 SWAP1 PUSH2 0x743 JUMP JUMPDEST PUSH1 0x40 MLOAD DUP1 SWAP2 SUB SWAP1 RETURN JUMPDEST PUSH2 0xB0 PUSH2 0x133 JUMP JUMPDEST PUSH1 0x40 MLOAD PUSH2 0xBD SWAP2 SWAP1 PUSH2 0x7CC JUMP JUMPDEST PUSH1 0x40 MLOAD DUP1 SWAP2 SUB SWAP1 RETURN JUMPDEST PUSH0 DUP1 SLOAD SWAP1 PUSH2 0x100 EXP SWAP1 DIV PUSH20 0xFFFFFFFFFFFFFFFFFFFFFFFFFFFFFFFFFFFFFFFF AND DUP2 JUMP JUMPDEST PUSH1 0x2 PUSH0 SWAP1 SLOAD SWAP1 PUSH2 0x100 EXP SWAP1 DIV PUSH20 0xFFFFFFFFFFFFFFFFFFFFFFFFFFFFFFFFFFFFFFFF AND DUP2 JUMP JUMPDEST PUSH1 0x1 PUSH0 SWAP1 SLOAD SWAP1 PUSH2 0x100 EXP SWAP1 DIV PUSH20 0xFFFFFFFFFFFFFFFFFFFFFFFFFFFFFFFFFFFFFFFF AND DUP2 JUMP JUMPDEST PUSH1 0x60 PUSH2 0x1C9 PUSH0 DUP1 SLOAD SWAP1 PUSH2 0x100 EXP SWAP1 DIV PUSH20 0xFFFFFFFFFFFFFFFFFFFFFFFFFFFFFFFFFFFFFFFF AND PUSH20 0xFFFFFFFFFFFFFFFFFFFFFFFFFFFFFFFFFFFFFFFF AND PUSH4 0x89E7995F PUSH1 0x40 MLOAD DUP2 PUSH4 0xFFFFFFFF AND PUSH1 0xE0 SHL DUP2 MSTORE PUSH1 0x4 ADD PUSH1 0x20 PUSH1 0x40 MLOAD DUP1 DUP4 SUB DUP2 DUP7 GAS STATICCALL ISZERO DUP1 ISZERO PUSH2 0x1A0 JUMPI RETURNDATASIZE PUSH0 DUP1 RETURNDATACOPY RETURNDATASIZE PUSH0 REVERT JUMPDEST POP POP POP POP PUSH1 0x40 MLOAD RETURNDATASIZE PUSH1 0x1F NOT PUSH1 0x1F DUP3 ADD AND DUP3 ADD DUP1 PUSH1 0x40 MSTORE POP DUP2 ADD SWAP1 PUSH2 0x1C4 SWAP2 SWAP1 PUSH2 0x823 JUMP JUMPDEST PUSH2 0x4DE JUMP JUMPDEST PUSH2 0x25D PUSH0 DUP1 SLOAD SWAP1 PUSH2 0x100 EXP SWAP1 DIV PUSH20 0xFFFFFFFFFFFFFFFFFFFFFFFFFFFFFFFFFFFFFFFF AND PUSH20 0xFFFFFFFFFFFFFFFFFFFFFFFFFFFFFFFFFFFFFFFF AND PUSH4 0xC618A1E4 PUSH1 0x40 MLOAD DUP2 PUSH4 0xFFFFFFFF AND PUSH1 0xE0 SHL DUP2 MSTORE PUSH1 0x4 ADD PUSH1 0x20 PUSH1 0x40 MLOAD DUP1 DUP4 SUB DUP2 DUP7 GAS STATICCALL ISZERO DUP1 ISZERO PUSH2 0x234 JUMPI RETURNDATASIZE PUSH0 DUP1 RETURNDATACOPY RETURNDATASIZE PUSH0 REVERT JUMPDEST POP POP POP POP PUSH1 0x40 MLOAD RETURNDATASIZE PUSH1 0x1F NOT PUSH1 0x1F DUP3 ADD AND DUP3 ADD DUP1 PUSH1 0x40 MSTORE POP DUP2 ADD SWAP1 PUSH2 0x258 SWAP2 SWAP1 PUSH2 0x823 JUMP JUMPDEST PUSH2 0x4DE JUMP JUMPDEST PUSH2 0x2F3 PUSH1 0x1 PUSH0 SWAP1 SLOAD SWAP1 PUSH2 0x100 EXP SWAP1 DIV PUSH20 0xFFFFFFFFFFFFFFFFFFFFFFFFFFFFFFFFFFFFFFFF AND PUSH20 0xFFFFFFFFFFFFFFFFFFFFFFFFFFFFFFFFFFFFFFFF AND PUSH4 0x89E7995F PUSH1 0x40 MLOAD DUP2 PUSH4 0xFFFFFFFF AND PUSH1 0xE0 SHL DUP2 MSTORE PUSH1 0x4 ADD PUSH1 0x20 PUSH1 0x40 MLOAD DUP1 DUP4 SUB DUP2 DUP7 GAS STATICCALL ISZERO DUP1 ISZERO PUSH2 0x2CA JUMPI RETURNDATASIZE PUSH0 DUP1 RETURNDATACOPY RETURNDATASIZE PUSH0 REVERT JUMPDEST POP POP POP POP PUSH1 0x40 MLOAD RETURNDATASIZE PUSH1 0x1F NOT PUSH1 0x1F DUP3 ADD AND DUP3 ADD DUP1 PUSH1 0x40 MSTORE POP DUP2 ADD SWAP1 PUSH2 0x2EE SWAP2 SWAP1 PUSH2 0x823 JUMP JUMPDEST PUSH2 0x4DE JUMP JUMPDEST PUSH2 0x389 PUSH1 0x1 PUSH0 SWAP1 SLOAD SWAP1 PUSH2 0x100 EXP SWAP1 DIV PUSH20 0xFFFFFFFFFFFFFFFFFFFFFFFFFFFFFFFFFFFFFFFF AND PUSH20 0xFFFFFFFFFFFFFFFFFFFFFFFFFFFFFFFFFFFFFFFF AND PUSH4 0xC618A1E4 PUSH1 0x40 MLOAD DUP2 PUSH4 0xFFFFFFFF AND PUSH1 0xE0 SHL DUP2 MSTORE PUSH1 0x4 ADD PUSH1 0x20 PUSH1 0x40 MLOAD DUP1 DUP4 SUB DUP2 DUP7 GAS STATICCALL ISZERO DUP1 ISZERO PUSH2 0x360 JUMPI RETURNDATASIZE PUSH0 DUP1 RETURNDATACOPY RETURNDATASIZE PUSH0 REVERT JUMPDEST POP POP POP POP PUSH1 0x40 MLOAD RETURNDATASIZE PUSH1 0x1F NOT PUSH1 0x1F DUP3 ADD AND DUP3 ADD DUP1 PUSH1 0x40 MSTORE POP DUP2 ADD SWAP1 PUSH2 0x384 SWAP2 SWAP1 PUSH2 0x823 JUMP JUMPDEST PUSH2 0x4DE JUMP JUMPDEST PUSH2 0x41F PUSH1 0x2 PUSH0 SWAP1 SLOAD SWAP1 PUSH2 0x100 EXP SWAP1 DIV PUSH20 0xFFFFFFFFFFFFFFFFFFFFFFFFFFFFFFFFFFFFFFFF AND PUSH20 0xFFFFFFFFFFFFFFFFFFFFFFFFFFFFFFFFFFFFFFFF AND PUSH4 0x89E7995F PUSH1 0x40 MLOAD DUP2 PUSH4 0xFFFFFFFF AND PUSH1 0xE0 SHL DUP2 MSTORE PUSH1 0x4 ADD PUSH1 0x20 PUSH1 0x40 MLOAD DUP1 DUP4 SUB DUP2 DUP7 GAS STATICCALL ISZERO DUP1 ISZERO PUSH2 0x3F6 JUMPI RETURNDATASIZE PUSH0 DUP1 RETURNDATACOPY RETURNDATASIZE PUSH0 REVERT JUMPDEST POP POP POP POP PUSH1 0x40 MLOAD RETURNDATASIZE PUSH1 0x1F NOT PUSH1 0x1F DUP3 ADD AND DUP3 ADD DUP1 PUSH1 0x40 MSTORE POP DUP2 ADD SWAP1 PUSH2 0x41A SWAP2 SWAP1 PUSH2 0x823 JUMP JUMPDEST PUSH2 0x4DE JUMP JUMPDEST PUSH2 0x4B5 PUSH1 0x2 PUSH0 SWAP1 SLOAD SWAP1 PUSH2 0x100 EXP SWAP1 DIV PUSH20 0xFFFFFFFFFFFFFFFFFFFFFFFFFFFFFFFFFFFFFFFF AND PUSH20 0xFFFFFFFFFFFFFFFFFFFFFFFFFFFFFFFFFFFFFFFF AND PUSH4 0xC618A1E4 PUSH1 0x40 MLOAD DUP2 PUSH4 0xFFFFFFFF AND PUSH1 0xE0 SHL DUP2 MSTORE PUSH1 0x4 ADD PUSH1 0x20 PUSH1 0x40 MLOAD DUP1 DUP4 SUB DUP2 DUP7 GAS STATICCALL ISZERO DUP1 ISZERO PUSH2 0x48C JUMPI RETURNDATASIZE PUSH0 DUP1 RETURNDATACOPY RETURNDATASIZE PUSH0 REVERT JUMPDEST POP POP POP POP PUSH1 0x40 MLOAD RETURNDATASIZE PUSH1 0x1F NOT PUSH1 0x1F DUP3 ADD AND DUP3 ADD DUP1 PUSH1 0x40 MSTORE POP DUP2 ADD SWAP1 PUSH2 0x4B0 SWAP2 SWAP1 PUSH2 0x823 JUMP JUMPDEST PUSH2 0x4DE JUMP JUMPDEST PUSH1 0x40 MLOAD PUSH1 0x20 ADD PUSH2 0x4CA SWAP7 SWAP6 SWAP5 SWAP4 SWAP3 SWAP2 SWAP1 PUSH2 0x9FA JUMP JUMPDEST PUSH1 0x40 MLOAD PUSH1 0x20 DUP2 DUP4 SUB SUB DUP2 MSTORE SWAP1 PUSH1 0x40 MSTORE SWAP1 POP SWAP1 JUMP JUMPDEST PUSH1 0x60 PUSH0 DUP3 SUB PUSH2 0x524 JUMPI PUSH1 0x40 MLOAD DUP1 PUSH1 0x40 ADD PUSH1 0x40 MSTORE DUP1 PUSH1 0x1 DUP2 MSTORE PUSH1 0x20 ADD PUSH32 0x3000000000000000000000000000000000000000000000000000000000000000 DUP2 MSTORE POP SWAP1 POP PUSH2 0x652 JUMP JUMPDEST PUSH0 DUP3 SWAP1 POP PUSH0 JUMPDEST PUSH0 DUP3 EQ PUSH2 0x553 JUMPI DUP1 DUP1 PUSH2 0x53C SWAP1 PUSH2 0xAD6 JUMP JUMPDEST SWAP2 POP POP PUSH1 0xA DUP3 PUSH2 0x54C SWAP2 SWAP1 PUSH2 0xB4A JUMP JUMPDEST SWAP2 POP PUSH2 0x52A JUMP JUMPDEST PUSH0 DUP2 PUSH8 0xFFFFFFFFFFFFFFFF DUP2 GT ISZERO PUSH2 0x56E JUMPI PUSH2 0x56D PUSH2 0xB7A JUMP JUMPDEST JUMPDEST PUSH1 0x40 MLOAD SWAP1 DUP1 DUP3 MSTORE DUP1 PUSH1 0x1F ADD PUSH1 0x1F NOT AND PUSH1 0x20 ADD DUP3 ADD PUSH1 0x40 MSTORE DUP1 ISZERO PUSH2 0x5A0 JUMPI DUP2 PUSH1 0x20 ADD PUSH1 0x1 DUP3 MUL DUP1 CALLDATASIZE DUP4 CALLDATACOPY DUP1 DUP3 ADD SWAP2 POP POP SWAP1 POP JUMPDEST POP SWAP1 POP PUSH0 DUP3 SWAP1 POP JUMPDEST PUSH0 DUP7 EQ PUSH2 0x64A JUMPI PUSH1 0x1 DUP2 PUSH2 0x5BC SWAP2 SWAP1 PUSH2 0xBA7 JUMP JUMPDEST SWAP1 POP PUSH0 PUSH1 0xA DUP1 DUP9 PUSH2 0x5CD SWAP2 SWAP1 PUSH2 0xB4A JUMP JUMPDEST PUSH2 0x5D7 SWAP2 SWAP1 PUSH2 0xBDA JUMP JUMPDEST DUP8 PUSH2 0x5E2 SWAP2 SWAP1 PUSH2 0xBA7 JUMP JUMPDEST PUSH1 0x30 PUSH2 0x5EE SWAP2 SWAP1 PUSH2 0xC27 JUMP JUMPDEST SWAP1 POP DUP1 PUSH1 0xF8 SHL DUP4 DUP4 DUP2 MLOAD DUP2 LT PUSH2 0x607 JUMPI PUSH2 0x606 PUSH2 0xC5B JUMP JUMPDEST JUMPDEST PUSH1 0x20 ADD ADD SWAP1 PUSH31 0xFFFFFFFFFFFFFFFFFFFFFFFFFFFFFFFFFFFFFFFFFFFFFFFFFFFFFFFFFFFFFF NOT AND SWAP1 DUP2 PUSH0 BYTE SWAP1 MSTORE8 POP PUSH1 0xA DUP8 PUSH2 0x642 SWAP2 SWAP1 PUSH2 0xB4A JUMP JUMPDEST SWAP7 POP POP PUSH2 0x5A8 JUMP JUMPDEST DUP2 SWAP5 POP POP POP POP POP JUMPDEST SWAP2 SWAP1 POP JUMP JUMPDEST PUSH0 PUSH20 0xFFFFFFFFFFFFFFFFFFFFFFFFFFFFFFFFFFFFFFFF DUP3 AND SWAP1 POP SWAP2 SWAP1 POP JUMP JUMPDEST PUSH0 DUP2 SWAP1 POP SWAP2 SWAP1 POP JUMP JUMPDEST PUSH0 PUSH2 0x699 PUSH2 0x694 PUSH2 0x68F DUP5 PUSH2 0x657 JUMP JUMPDEST PUSH2 0x676 JUMP JUMPDEST PUSH2 0x657 JUMP JUMPDEST SWAP1 POP SWAP2 SWAP1 POP JUMP JUMPDEST PUSH0 PUSH2 0x6AA DUP3 PUSH2 0x67F JUMP JUMPDEST SWAP1 POP SWAP2 SWAP1 POP JUMP JUMPDEST PUSH0 PUSH2 0x6BB DUP3 PUSH2 0x6A0 JUMP JUMPDEST SWAP1 POP SWAP2 SWAP1 POP JUMP JUMPDEST PUSH2 0x6CB DUP2 PUSH2 0x6B1 JUMP JUMPDEST DUP3 MSTORE POP POP JUMP JUMPDEST PUSH0 PUSH1 0x20 DUP3 ADD SWAP1 POP PUSH2 0x6E4 PUSH0 DUP4 ADD DUP5 PUSH2 0x6C2 JUMP JUMPDEST SWAP3 SWAP2 POP POP JUMP JUMPDEST PUSH0 PUSH2 0x6F4 DUP3 PUSH2 0x6A0 JUMP JUMPDEST SWAP1 POP SWAP2 SWAP1 POP JUMP JUMPDEST PUSH2 0x704 DUP2 PUSH2 0x6EA JUMP JUMPDEST DUP3 MSTORE POP POP JUMP JUMPDEST PUSH0 PUSH1 0x20 DUP3 ADD SWAP1 POP PUSH2 0x71D PUSH0 DUP4 ADD DUP5 PUSH2 0x6FB JUMP JUMPDEST SWAP3 SWAP2 POP POP JUMP JUMPDEST PUSH0 PUSH2 0x72D DUP3 PUSH2 0x6A0 JUMP JUMPDEST SWAP1 POP SWAP2 SWAP1 POP JUMP JUMPDEST PUSH2 0x73D DUP2 PUSH2 0x723 JUMP JUMPDEST DUP3 MSTORE POP POP JUMP JUMPDEST PUSH0 PUSH1 0x20 DUP3 ADD SWAP1 POP PUSH2 0x756 PUSH0 DUP4 ADD DUP5 PUSH2 0x734 JUMP JUMPDEST SWAP3 SWAP2 POP POP JUMP JUMPDEST PUSH0 DUP2 MLOAD SWAP1 POP SWAP2 SWAP1 POP JUMP JUMPDEST PUSH0 DUP3 DUP3 MSTORE PUSH1 0x20 DUP3 ADD SWAP1 POP SWAP3 SWAP2 POP POP JUMP JUMPDEST DUP3 DUP2 DUP4 MCOPY PUSH0 DUP4 DUP4 ADD MSTORE POP POP POP JUMP JUMPDEST PUSH0 PUSH1 0x1F NOT PUSH1 0x1F DUP4 ADD AND SWAP1 POP SWAP2 SWAP1 POP JUMP JUMPDEST PUSH0 PUSH2 0x79E DUP3 PUSH2 0x75C JUMP JUMPDEST PUSH2 0x7A8 DUP2 DUP6 PUSH2 0x766 JUMP JUMPDEST SWAP4 POP PUSH2 0x7B8 DUP2 DUP6 PUSH1 0x20 DUP7 ADD PUSH2 0x776 JUMP JUMPDEST PUSH2 0x7C1 DUP2 PUSH2 0x784 JUMP JUMPDEST DUP5 ADD SWAP2 POP POP SWAP3 SWAP2 POP POP JUMP JUMPDEST PUSH0 PUSH1 0x20 DUP3 ADD SWAP1 POP DUP2 DUP2 SUB PUSH0 DUP4 ADD MSTORE PUSH2 0x7E4 DUP2 DUP5 PUSH2 0x794 JUMP JUMPDEST SWAP1 POP SWAP3 SWAP2 POP POP JUMP JUMPDEST PUSH0 DUP1 REVERT JUMPDEST PUSH0 DUP2 SWAP1 POP SWAP2 SWAP1 POP JUMP JUMPDEST PUSH2 0x802 DUP2 PUSH2 0x7F0 JUMP JUMPDEST DUP2 EQ PUSH2 0x80C JUMPI PUSH0 DUP1 REVERT JUMPDEST POP JUMP JUMPDEST PUSH0 DUP2 MLOAD SWAP1 POP PUSH2 0x81D DUP2 PUSH2 0x7F9 JUMP JUMPDEST SWAP3 SWAP2 POP POP JUMP JUMPDEST PUSH0 PUSH1 0x20 DUP3 DUP5 SUB SLT ISZERO PUSH2 0x838 JUMPI PUSH2 0x837 PUSH2 0x7EC JUMP JUMPDEST JUMPDEST PUSH0 PUSH2 0x845 DUP5 DUP3 DUP6 ADD PUSH2 0x80F JUMP JUMPDEST SWAP2 POP POP SWAP3 SWAP2 POP POP JUMP JUMPDEST PUSH0 DUP2 SWAP1 POP SWAP3 SWAP2 POP POP JUMP JUMPDEST PUSH32 0x437562653A20537572666163652041726561203D200000000000000000000000 PUSH0 DUP3 ADD MSTORE POP JUMP JUMPDEST PUSH0 PUSH2 0x88C PUSH1 0x15 DUP4 PUSH2 0x84E JUMP JUMPDEST SWAP2 POP PUSH2 0x897 DUP3 PUSH2 0x858 JUMP JUMPDEST PUSH1 0x15 DUP3 ADD SWAP1 POP SWAP2 SWAP1 POP JUMP JUMPDEST PUSH0 PUSH2 0x8AC DUP3 PUSH2 0x75C JUMP JUMPDEST PUSH2 0x8B6 DUP2 DUP6 PUSH2 0x84E JUMP JUMPDEST SWAP4 POP PUSH2 0x8C6 DUP2 DUP6 PUSH1 0x20 DUP7 ADD PUSH2 0x776 JUMP JUMPDEST DUP1 DUP5 ADD SWAP2 POP POP SWAP3 SWAP2 POP POP JUMP JUMPDEST PUSH32 0x2C20566F6C756D65203D20000000000000000000000000000000000000000000 PUSH0 DUP3 ADD MSTORE POP JUMP JUMPDEST PUSH0 PUSH2 0x906 PUSH1 0xB DUP4 PUSH2 0x84E JUMP JUMPDEST SWAP2 POP PUSH2 0x911 DUP3 PUSH2 0x8D2 JUMP JUMPDEST PUSH1 0xB DUP3 ADD SWAP1 POP SWAP2 SWAP1 POP JUMP JUMPDEST PUSH32 0xA00000000000000000000000000000000000000000000000000000000000000 PUSH0 DUP3 ADD MSTORE POP JUMP JUMPDEST PUSH0 PUSH2 0x950 PUSH1 0x1 DUP4 PUSH2 0x84E JUMP JUMPDEST SWAP2 POP PUSH2 0x95B DUP3 PUSH2 0x91C JUMP JUMPDEST PUSH1 0x1 DUP3 ADD SWAP1 POP SWAP2 SWAP1 POP JUMP JUMPDEST PUSH32 0x43796C696E6465723A20537572666163652041726561203D2000000000000000 PUSH0 DUP3 ADD MSTORE POP JUMP JUMPDEST PUSH0 PUSH2 0x99A PUSH1 0x19 DUP4 PUSH2 0x84E JUMP JUMPDEST SWAP2 POP PUSH2 0x9A5 DUP3 PUSH2 0x966 JUMP JUMPDEST PUSH1 0x19 DUP3 ADD SWAP1 POP SWAP2 SWAP1 POP JUMP JUMPDEST PUSH32 0x436F6E653A20537572666163652041726561203D200000000000000000000000 PUSH0 DUP3 ADD MSTORE POP JUMP JUMPDEST PUSH0 PUSH2 0x9E4 PUSH1 0x15 DUP4 PUSH2 0x84E JUMP JUMPDEST SWAP2 POP PUSH2 0x9EF DUP3 PUSH2 0x9B0 JUMP JUMPDEST PUSH1 0x15 DUP3 ADD SWAP1 POP SWAP2 SWAP1 POP JUMP JUMPDEST PUSH0 PUSH2 0xA04 DUP3 PUSH2 0x880 JUMP JUMPDEST SWAP2 POP PUSH2 0xA10 DUP3 DUP10 PUSH2 0x8A2 JUMP JUMPDEST SWAP2 POP PUSH2 0xA1B DUP3 PUSH2 0x8FA JUMP JUMPDEST SWAP2 POP PUSH2 0xA27 DUP3 DUP9 PUSH2 0x8A2 JUMP JUMPDEST SWAP2 POP PUSH2 0xA32 DUP3 PUSH2 0x944 JUMP JUMPDEST SWAP2 POP PUSH2 0xA3D DUP3 PUSH2 0x98E JUMP JUMPDEST SWAP2 POP PUSH2 0xA49 DUP3 DUP8 PUSH2 0x8A2 JUMP JUMPDEST SWAP2 POP PUSH2 0xA54 DUP3 PUSH2 0x8FA JUMP JUMPDEST SWAP2 POP PUSH2 0xA60 DUP3 DUP7 PUSH2 0x8A2 JUMP JUMPDEST SWAP2 POP PUSH2 0xA6B DUP3 PUSH2 0x944 JUMP JUMPDEST SWAP2 POP PUSH2 0xA76 DUP3 PUSH2 0x9D8 JUMP JUMPDEST SWAP2 POP PUSH2 0xA82 DUP3 DUP6 PUSH2 0x8A2 JUMP JUMPDEST SWAP2 POP PUSH2 0xA8D DUP3 PUSH2 0x8FA JUMP JUMPDEST SWAP2 POP PUSH2 0xA99 DUP3 DUP5 PUSH2 0x8A2 JUMP JUMPDEST SWAP2 POP DUP2 SWAP1 POP SWAP8 SWAP7 POP POP POP POP POP POP POP JUMP JUMPDEST PUSH32 0x4E487B7100000000000000000000000000000000000000000000000000000000 PUSH0 MSTORE PUSH1 0x11 PUSH1 0x4 MSTORE PUSH1 0x24 PUSH0 REVERT JUMPDEST PUSH0 PUSH2 0xAE0 DUP3 PUSH2 0x7F0 JUMP JUMPDEST SWAP2 POP PUSH32 0xFFFFFFFFFFFFFFFFFFFFFFFFFFFFFFFFFFFFFFFFFFFFFFFFFFFFFFFFFFFFFFFF DUP3 SUB PUSH2 0xB12 JUMPI PUSH2 0xB11 PUSH2 0xAA9 JUMP JUMPDEST JUMPDEST PUSH1 0x1 DUP3 ADD SWAP1 POP SWAP2 SWAP1 POP JUMP JUMPDEST PUSH32 0x4E487B7100000000000000000000000000000000000000000000000000000000 PUSH0 MSTORE PUSH1 0x12 PUSH1 0x4 MSTORE PUSH1 0x24 PUSH0 REVERT JUMPDEST PUSH0 PUSH2 0xB54 DUP3 PUSH2 0x7F0 JUMP JUMPDEST SWAP2 POP PUSH2 0xB5F DUP4 PUSH2 0x7F0 JUMP JUMPDEST SWAP3 POP DUP3 PUSH2 0xB6F JUMPI PUSH2 0xB6E PUSH2 0xB1D JUMP JUMPDEST JUMPDEST DUP3 DUP3 DIV SWAP1 POP SWAP3 SWAP2 POP POP JUMP JUMPDEST PUSH32 0x4E487B7100000000000000000000000000000000000000000000000000000000 PUSH0 MSTORE PUSH1 0x41 PUSH1 0x4 MSTORE PUSH1 0x24 PUSH0 REVERT JUMPDEST PUSH0 PUSH2 0xBB1 DUP3 PUSH2 0x7F0 JUMP JUMPDEST SWAP2 POP PUSH2 0xBBC DUP4 PUSH2 0x7F0 JUMP JUMPDEST SWAP3 POP DUP3 DUP3 SUB SWAP1 POP DUP2 DUP2 GT ISZERO PUSH2 0xBD4 JUMPI PUSH2 0xBD3 PUSH2 0xAA9 JUMP JUMPDEST JUMPDEST SWAP3 SWAP2 POP POP JUMP JUMPDEST PUSH0 PUSH2 0xBE4 DUP3 PUSH2 0x7F0 JUMP JUMPDEST SWAP2 POP PUSH2 0xBEF DUP4 PUSH2 0x7F0 JUMP JUMPDEST SWAP3 POP DUP3 DUP3 MUL PUSH2 0xBFD DUP2 PUSH2 0x7F0 JUMP JUMPDEST SWAP2 POP DUP3 DUP3 DIV DUP5 EQ DUP4 ISZERO OR PUSH2 0xC14 JUMPI PUSH2 0xC13 PUSH2 0xAA9 JUMP JUMPDEST JUMPDEST POP SWAP3 SWAP2 POP POP JUMP JUMPDEST PUSH0 PUSH1 0xFF DUP3 AND SWAP1 POP SWAP2 SWAP1 POP JUMP JUMPDEST PUSH0 PUSH2 0xC31 DUP3 PUSH2 0xC1B JUMP JUMPDEST SWAP2 POP PUSH2 0xC3C DUP4 PUSH2 0xC1B JUMP JUMPDEST SWAP3 POP DUP3 DUP3 ADD SWAP1 POP PUSH1 0xFF DUP2 GT ISZERO PUSH2 0xC55 JUMPI PUSH2 0xC54 PUSH2 0xAA9 JUMP JUMPDEST JUMPDEST SWAP3 SWAP2 POP POP JUMP JUMPDEST PUSH32 0x4E487B7100000000000000000000000000000000000000000000000000000000 PUSH0 MSTORE PUSH1 0x32 PUSH1 0x4 MSTORE PUSH1 0x24 PUSH0 REVERT INVALID LOG2 PUSH5 0x6970667358 0x22 SLT KECCAK256 SWAP3 0xBE 0xDF 0xCB SHR 0xF7 0xB3 PUSH2 0x94FF 0xC4 GASPRICE 0x2F 0xE5 ADDMOD SDIV 0xD4 SUB SWAP6 GT PUSH17 0xFA4857768B910F39E87F2E64736F6C6343 STOP ADDMOD BYTE STOP CALLER PUSH1 0x80 PUSH1 0x40 MSTORE CALLVALUE DUP1 ISZERO PUSH1 0xE JUMPI PUSH0 DUP1 REVERT JUMPDEST POP PUSH1 0x40 MLOAD PUSH2 0x255 CODESIZE SUB DUP1 PUSH2 0x255 DUP4 CODECOPY DUP2 DUP2 ADD PUSH1 0x40 MSTORE DUP2 ADD SWAP1 PUSH1 0x2E SWAP2 SWAP1 PUSH1 0x6B JUMP JUMPDEST DUP1 PUSH0 DUP2 SWAP1 SSTORE POP POP PUSH1 0x91 JUMP JUMPDEST PUSH0 DUP1 REVERT JUMPDEST PUSH0 DUP2 SWAP1 POP SWAP2 SWAP1 POP JUMP JUMPDEST PUSH1 0x4D DUP2 PUSH1 0x3D JUMP JUMPDEST DUP2 EQ PUSH1 0x56 JUMPI PUSH0 DUP1 REVERT JUMPDEST POP JUMP JUMPDEST PUSH0 DUP2 MLOAD SWAP1 POP PUSH1 0x65 DUP2 PUSH1 0x46 JUMP JUMPDEST SWAP3 SWAP2 POP POP JUMP JUMPDEST PUSH0 PUSH1 0x20 DUP3 DUP5 SUB SLT ISZERO PUSH1 0x7D JUMPI PUSH1 0x7C PUSH1 0x39 JUMP JUMPDEST JUMPDEST PUSH0 PUSH1 0x88 DUP5 DUP3 DUP6 ADD PUSH1 0x59 JUMP JUMPDEST SWAP2 POP POP SWAP3 SWAP2 POP POP JUMP JUMPDEST PUSH2 0x1B7 DUP1 PUSH2 0x9E PUSH0 CODECOPY PUSH0 RETURN INVALID PUSH1 0x80 PUSH1 0x40 MSTORE CALLVALUE DUP1 ISZERO PUSH2 0xF JUMPI PUSH0 DUP1 REVERT JUMPDEST POP PUSH1 0x4 CALLDATASIZE LT PUSH2 0x3F JUMPI PUSH0 CALLDATALOAD PUSH1 0xE0 SHR DUP1 PUSH4 0x8475C028 EQ PUSH2 0x43 JUMPI DUP1 PUSH4 0x89E7995F EQ PUSH2 0x61 JUMPI DUP1 PUSH4 0xC618A1E4 EQ PUSH2 0x7F JUMPI JUMPDEST PUSH0 DUP1 REVERT JUMPDEST PUSH2 0x4B PUSH2 0x9D JUMP JUMPDEST PUSH1 0x40 MLOAD PUSH2 0x58 SWAP2 SWAP1 PUSH2 0xFA JUMP JUMPDEST PUSH1 0x40 MLOAD DUP1 SWAP2 SUB SWAP1 RETURN JUMPDEST PUSH2 0x69 PUSH2 0xA2 JUMP JUMPDEST PUSH1 0x40 MLOAD PUSH2 0x76 SWAP2 SWAP1 PUSH2 0xFA JUMP JUMPDEST PUSH1 0x40 MLOAD DUP1 SWAP2 SUB SWAP1 RETURN JUMPDEST PUSH2 0x87 PUSH2 0xC2 JUMP JUMPDEST PUSH1 0x40 MLOAD PUSH2 0x94 SWAP2 SWAP1 PUSH2 0xFA JUMP JUMPDEST PUSH1 0x40 MLOAD DUP1 SWAP2 SUB SWAP1 RETURN JUMPDEST PUSH0 SLOAD DUP2 JUMP JUMPDEST PUSH0 DUP1 SLOAD PUSH0 SLOAD PUSH1 0x6 PUSH2 0xB3 SWAP2 SWAP1 PUSH2 0x140 JUMP JUMPDEST PUSH2 0xBD SWAP2 SWAP1 PUSH2 0x140 JUMP JUMPDEST SWAP1 POP SWAP1 JUMP JUMPDEST PUSH0 DUP1 SLOAD PUSH0 SLOAD PUSH0 SLOAD PUSH2 0xD3 SWAP2 SWAP1 PUSH2 0x140 JUMP JUMPDEST PUSH2 0xDD SWAP2 SWAP1 PUSH2 0x140 JUMP JUMPDEST SWAP1 POP SWAP1 JUMP JUMPDEST PUSH0 DUP2 SWAP1 POP SWAP2 SWAP1 POP JUMP JUMPDEST PUSH2 0xF4 DUP2 PUSH2 0xE2 JUMP JUMPDEST DUP3 MSTORE POP POP JUMP JUMPDEST PUSH0 PUSH1 0x20 DUP3 ADD SWAP1 POP PUSH2 0x10D PUSH0 DUP4 ADD DUP5 PUSH2 0xEB JUMP JUMPDEST SWAP3 SWAP2 POP POP JUMP JUMPDEST PUSH32 0x4E487B7100000000000000000000000000000000000000000000000000000000 PUSH0 MSTORE PUSH1 0x11 PUSH1 0x4 MSTORE PUSH1 0x24 PUSH0 REVERT JUMPDEST PUSH0 PUSH2 0x14A DUP3 PUSH2 0xE2 JUMP JUMPDEST SWAP2 POP PUSH2 0x155 DUP4 PUSH2 0xE2 JUMP JUMPDEST SWAP3 POP DUP3 DUP3 MUL PUSH2 0x163 DUP2 PUSH2 0xE2 JUMP JUMPDEST SWAP2 POP DUP3 DUP3 DIV DUP5 EQ DUP4 ISZERO OR PUSH2 0x17A JUMPI PUSH2 0x179 PUSH2 0x113 JUMP JUMPDEST JUMPDEST POP SWAP3 SWAP2 POP POP JUMP INVALID LOG2 PUSH5 0x6970667358 0x22 SLT KECCAK256 MUL CALLVALUE CODECOPY SELFDESTRUCT PUSH2 0x892 PUSH5 0x266EC4CB2 XOR BASEFEE 0x21 0x24 0xD4 PUSH9 0xC3A16B46E2AC503224 CALLVALUE CALLER CALLVALUE 0x22 PUSH5 0x736F6C6343 STOP ADDMOD BYTE STOP CALLER PUSH1 0x80 PUSH1 0x40 MSTORE CALLVALUE DUP1 ISZERO PUSH1 0xE JUMPI PUSH0 DUP1 REVERT JUMPDEST POP PUSH1 0x40 MLOAD PUSH2 0x392 CODESIZE SUB DUP1 PUSH2 0x392 DUP4 CODECOPY DUP2 DUP2 ADD PUSH1 0x40 MSTORE DUP2 ADD SWAP1 PUSH1 0x2E SWAP2 SWAP1 PUSH1 0x73 JUMP JUMPDEST DUP2 PUSH0 DUP2 SWAP1 SSTORE POP DUP1 PUSH1 0x1 DUP2 SWAP1 SSTORE POP POP POP PUSH1 0xAA JUMP JUMPDEST PUSH0 DUP1 REVERT JUMPDEST PUSH0 DUP2 SWAP1 POP SWAP2 SWAP1 POP JUMP JUMPDEST PUSH1 0x55 DUP2 PUSH1 0x45 JUMP JUMPDEST DUP2 EQ PUSH1 0x5E JUMPI PUSH0 DUP1 REVERT JUMPDEST POP JUMP JUMPDEST PUSH0 DUP2 MLOAD SWAP1 POP PUSH1 0x6D DUP2 PUSH1 0x4E JUMP JUMPDEST SWAP3 SWAP2 POP POP JUMP JUMPDEST PUSH0 DUP1 PUSH1 0x40 DUP4 DUP6 SUB SLT ISZERO PUSH1 0x86 JUMPI PUSH1 0x85 PUSH1 0x41 JUMP JUMPDEST JUMPDEST PUSH0 PUSH1 0x91 DUP6 DUP3 DUP7 ADD PUSH1 0x61 JUMP JUMPDEST SWAP3 POP POP PUSH1 0x20 PUSH1 0xA0 DUP6 DUP3 DUP7 ADD PUSH1 0x61 JUMP JUMPDEST SWAP2 POP POP SWAP3 POP SWAP3 SWAP1 POP JUMP JUMPDEST PUSH2 0x2DB DUP1 PUSH2 0xB7 PUSH0 CODECOPY PUSH0 RETURN INVALID PUSH1 0x80 PUSH1 0x40 MSTORE CALLVALUE DUP1 ISZERO PUSH2 0xF JUMPI PUSH0 DUP1 REVERT JUMPDEST POP PUSH1 0x4 CALLDATASIZE LT PUSH2 0x4A JUMPI PUSH0 CALLDATALOAD PUSH1 0xE0 SHR DUP1 PUSH4 0xEF26743 EQ PUSH2 0x4E JUMPI DUP1 PUSH4 0x217F4353 EQ PUSH2 0x6C JUMPI DUP1 PUSH4 0x89E7995F EQ PUSH2 0x8A JUMPI DUP1 PUSH4 0xC618A1E4 EQ PUSH2 0xA8 JUMPI JUMPDEST PUSH0 DUP1 REVERT JUMPDEST PUSH2 0x56 PUSH2 0xC6 JUMP JUMPDEST PUSH1 0x40 MLOAD PUSH2 0x63 SWAP2 SWAP1 PUSH2 0x18E JUMP JUMPDEST PUSH1 0x40 MLOAD DUP1 SWAP2 SUB SWAP1 RETURN JUMPDEST PUSH2 0x74 PUSH2 0xCC JUMP JUMPDEST PUSH1 0x40 MLOAD PUSH2 0x81 SWAP2 SWAP1 PUSH2 0x18E JUMP JUMPDEST PUSH1 0x40 MLOAD DUP1 SWAP2 SUB SWAP1 RETURN JUMPDEST PUSH2 0x92 PUSH2 0xD1 JUMP JUMPDEST PUSH1 0x40 MLOAD PUSH2 0x9F SWAP2 SWAP1 PUSH2 0x18E JUMP JUMPDEST PUSH1 0x40 MLOAD DUP1 SWAP2 SUB SWAP1 RETURN JUMPDEST PUSH2 0xB0 PUSH2 0x13C JUMP JUMPDEST PUSH1 0x40 MLOAD PUSH2 0xBD SWAP2 SWAP1 PUSH2 0x18E JUMP JUMPDEST PUSH1 0x40 MLOAD DUP1 SWAP2 SUB SWAP1 RETURN JUMPDEST PUSH1 0x1 SLOAD DUP2 JUMP JUMPDEST PUSH0 SLOAD DUP2 JUMP JUMPDEST PUSH0 PUSH1 0x64 PUSH0 SLOAD PUSH0 SLOAD PUSH2 0x13A PUSH1 0x2 PUSH2 0xE7 SWAP2 SWAP1 PUSH2 0x1D4 JUMP JUMPDEST PUSH2 0xF1 SWAP2 SWAP1 PUSH2 0x1D4 JUMP JUMPDEST PUSH2 0xFB SWAP2 SWAP1 PUSH2 0x1D4 JUMP JUMPDEST PUSH1 0x1 SLOAD PUSH0 SLOAD PUSH2 0x13A PUSH1 0x2 PUSH2 0x10F SWAP2 SWAP1 PUSH2 0x1D4 JUMP JUMPDEST PUSH2 0x119 SWAP2 SWAP1 PUSH2 0x1D4 JUMP JUMPDEST PUSH2 0x123 SWAP2 SWAP1 PUSH2 0x1D4 JUMP JUMPDEST PUSH2 0x12D SWAP2 SWAP1 PUSH2 0x215 JUMP JUMPDEST PUSH2 0x137 SWAP2 SWAP1 PUSH2 0x275 JUMP JUMPDEST SWAP1 POP SWAP1 JUMP JUMPDEST PUSH0 PUSH1 0x64 PUSH1 0x1 SLOAD PUSH0 SLOAD PUSH0 SLOAD PUSH2 0x13A PUSH2 0x153 SWAP2 SWAP1 PUSH2 0x1D4 JUMP JUMPDEST PUSH2 0x15D SWAP2 SWAP1 PUSH2 0x1D4 JUMP JUMPDEST PUSH2 0x167 SWAP2 SWAP1 PUSH2 0x1D4 JUMP JUMPDEST PUSH2 0x171 SWAP2 SWAP1 PUSH2 0x275 JUMP JUMPDEST SWAP1 POP SWAP1 JUMP JUMPDEST PUSH0 DUP2 SWAP1 POP SWAP2 SWAP1 POP JUMP JUMPDEST PUSH2 0x188 DUP2 PUSH2 0x176 JUMP JUMPDEST DUP3 MSTORE POP POP JUMP JUMPDEST PUSH0 PUSH1 0x20 DUP3 ADD SWAP1 POP PUSH2 0x1A1 PUSH0 DUP4 ADD DUP5 PUSH2 0x17F JUMP JUMPDEST SWAP3 SWAP2 POP POP JUMP JUMPDEST PUSH32 0x4E487B7100000000000000000000000000000000000000000000000000000000 PUSH0 MSTORE PUSH1 0x11 PUSH1 0x4 MSTORE PUSH1 0x24 PUSH0 REVERT JUMPDEST PUSH0 PUSH2 0x1DE DUP3 PUSH2 0x176 JUMP JUMPDEST SWAP2 POP PUSH2 0x1E9 DUP4 PUSH2 0x176 JUMP JUMPDEST SWAP3 POP DUP3 DUP3 MUL PUSH2 0x1F7 DUP2 PUSH2 0x176 JUMP JUMPDEST SWAP2 POP DUP3 DUP3 DIV DUP5 EQ DUP4 ISZERO OR PUSH2 0x20E JUMPI PUSH2 0x20D PUSH2 0x1A7 JUMP JUMPDEST JUMPDEST POP SWAP3 SWAP2 POP POP JUMP JUMPDEST PUSH0 PUSH2 0x21F DUP3 PUSH2 0x176 JUMP JUMPDEST SWAP2 POP PUSH2 0x22A DUP4 PUSH2 0x176 JUMP JUMPDEST SWAP3 POP DUP3 DUP3 ADD SWAP1 POP DUP1 DUP3 GT ISZERO PUSH2 0x242 JUMPI PUSH2 0x241 PUSH2 0x1A7 JUMP JUMPDEST JUMPDEST SWAP3 SWAP2 POP POP JUMP JUMPDEST PUSH32 0x4E487B7100000000000000000000000000000000000000000000000000000000 PUSH0 MSTORE PUSH1 0x12 PUSH1 0x4 MSTORE PUSH1 0x24 PUSH0 REVERT JUMPDEST PUSH0 PUSH2 0x27F DUP3 PUSH2 0x176 JUMP JUMPDEST SWAP2 POP PUSH2 0x28A DUP4 PUSH2 0x176 JUMP JUMPDEST SWAP3 POP DUP3 PUSH2 0x29A JUMPI PUSH2 0x299 PUSH2 0x248 JUMP JUMPDEST JUMPDEST DUP3 DUP3 DIV SWAP1 POP SWAP3 SWAP2 POP POP JUMP INVALID LOG2 PUSH5 0x6970667358 0x22 SLT KECCAK256 CODESIZE DUP13 0xE1 PUSH8 0x59071E15E361CB8E CALLDATALOAD PUSH1 0xB2 0xDE 0xB6 PUSH7 0x7D19A9C235DE80 0xFC SWAP13 PUSH12 0x4A55907F64736F6C63430008 BYTE STOP CALLER PUSH1 0x80 PUSH1 0x40 MSTORE CALLVALUE DUP1 ISZERO PUSH1 0xE JUMPI PUSH0 DUP1 REVERT JUMPDEST POP PUSH1 0x40 MLOAD PUSH2 0x40A CODESIZE SUB DUP1 PUSH2 0x40A DUP4 CODECOPY DUP2 DUP2 ADD PUSH1 0x40 MSTORE DUP2 ADD SWAP1 PUSH1 0x2E SWAP2 SWAP1 PUSH1 0x73 JUMP JUMPDEST DUP2 PUSH0 DUP2 SWAP1 SSTORE POP DUP1 PUSH1 0x1 DUP2 SWAP1 SSTORE POP POP POP PUSH1 0xAA JUMP JUMPDEST PUSH0 DUP1 REVERT JUMPDEST PUSH0 DUP2 SWAP1 POP SWAP2 SWAP1 POP JUMP JUMPDEST PUSH1 0x55 DUP2 PUSH1 0x45 JUMP JUMPDEST DUP2 EQ PUSH1 0x5E JUMPI PUSH0 DUP1 REVERT JUMPDEST POP JUMP JUMPDEST PUSH0 DUP2 MLOAD SWAP1 POP PUSH1 0x6D DUP2 PUSH1 0x4E JUMP JUMPDEST SWAP3 SWAP2 POP POP JUMP JUMPDEST PUSH0 DUP1 PUSH1 0x40 DUP4 DUP6 SUB SLT ISZERO PUSH1 0x86 JUMPI PUSH1 0x85 PUSH1 0x41 JUMP JUMPDEST JUMPDEST PUSH0 PUSH1 0x91 DUP6 DUP3 DUP7 ADD PUSH1 0x61 JUMP JUMPDEST SWAP3 POP POP PUSH1 0x20 PUSH1 0xA0 DUP6 DUP3 DUP7 ADD PUSH1 0x61 JUMP JUMPDEST SWAP2 POP POP SWAP3 POP SWAP3 SWAP1 POP JUMP JUMPDEST PUSH2 0x353 DUP1 PUSH2 0xB7 PUSH0 CODECOPY PUSH0 RETURN INVALID PUSH1 0x80 PUSH1 0x40 MSTORE CALLVALUE DUP1 ISZERO PUSH2 0xF JUMPI PUSH0 DUP1 REVERT JUMPDEST POP PUSH1 0x4 CALLDATASIZE LT PUSH2 0x4A JUMPI PUSH0 CALLDATALOAD PUSH1 0xE0 SHR DUP1 PUSH4 0xEF26743 EQ PUSH2 0x4E JUMPI DUP1 PUSH4 0x217F4353 EQ PUSH2 0x6C JUMPI DUP1 PUSH4 0x89E7995F EQ PUSH2 0x8A JUMPI DUP1 PUSH4 0xC618A1E4 EQ PUSH2 0xA8 JUMPI JUMPDEST PUSH0 DUP1 REVERT JUMPDEST PUSH2 0x56 PUSH2 0xC6 JUMP JUMPDEST PUSH1 0x40 MLOAD PUSH2 0x63 SWAP2 SWAP1 PUSH2 0x206 JUMP JUMPDEST PUSH1 0x40 MLOAD DUP1 SWAP2 SUB SWAP1 RETURN JUMPDEST PUSH2 0x74 PUSH2 0xCC JUMP JUMPDEST PUSH1 0x40 MLOAD PUSH2 0x81 SWAP2 SWAP1 PUSH2 0x206 JUMP JUMPDEST PUSH1 0x40 MLOAD DUP1 SWAP2 SUB SWAP1 RETURN JUMPDEST PUSH2 0x92 PUSH2 0xD1 JUMP JUMPDEST PUSH1 0x40 MLOAD PUSH2 0x9F SWAP2 SWAP1 PUSH2 0x206 JUMP JUMPDEST PUSH1 0x40 MLOAD DUP1 SWAP2 SUB SWAP1 RETURN JUMPDEST PUSH2 0xB0 PUSH2 0x142 JUMP JUMPDEST PUSH1 0x40 MLOAD PUSH2 0xBD SWAP2 SWAP1 PUSH2 0x206 JUMP JUMPDEST PUSH1 0x40 MLOAD DUP1 SWAP2 SUB SWAP1 RETURN JUMPDEST PUSH1 0x1 SLOAD DUP2 JUMP JUMPDEST PUSH0 SLOAD DUP2 JUMP JUMPDEST PUSH0 DUP1 PUSH1 0x1 SLOAD PUSH1 0x1 SLOAD PUSH2 0xE3 SWAP2 SWAP1 PUSH2 0x24C JUMP JUMPDEST PUSH0 SLOAD PUSH0 SLOAD PUSH2 0xF1 SWAP2 SWAP1 PUSH2 0x24C JUMP JUMPDEST PUSH2 0xFB SWAP2 SWAP1 PUSH2 0x28D JUMP JUMPDEST SWAP1 POP PUSH0 PUSH2 0x107 DUP3 PUSH2 0x17D JUMP JUMPDEST SWAP1 POP PUSH1 0x64 DUP2 PUSH0 SLOAD PUSH2 0x118 SWAP2 SWAP1 PUSH2 0x28D JUMP JUMPDEST PUSH0 SLOAD PUSH2 0x13A PUSH2 0x127 SWAP2 SWAP1 PUSH2 0x24C JUMP JUMPDEST PUSH2 0x131 SWAP2 SWAP1 PUSH2 0x24C JUMP JUMPDEST PUSH2 0x13B SWAP2 SWAP1 PUSH2 0x2ED JUMP JUMPDEST SWAP3 POP POP POP SWAP1 JUMP JUMPDEST PUSH0 PUSH2 0x12C PUSH1 0x1 SLOAD PUSH0 SLOAD PUSH0 SLOAD PUSH2 0x13A PUSH2 0x15A SWAP2 SWAP1 PUSH2 0x24C JUMP JUMPDEST PUSH2 0x164 SWAP2 SWAP1 PUSH2 0x24C JUMP JUMPDEST PUSH2 0x16E SWAP2 SWAP1 PUSH2 0x24C JUMP JUMPDEST PUSH2 0x178 SWAP2 SWAP1 PUSH2 0x2ED JUMP JUMPDEST SWAP1 POP SWAP1 JUMP JUMPDEST PUSH0 DUP1 DUP3 SUB PUSH2 0x18D JUMPI PUSH0 SWAP1 POP PUSH2 0x1E9 JUMP JUMPDEST PUSH0 PUSH1 0x2 PUSH1 0x1 DUP5 PUSH2 0x19D SWAP2 SWAP1 PUSH2 0x28D JUMP JUMPDEST PUSH2 0x1A7 SWAP2 SWAP1 PUSH2 0x2ED JUMP JUMPDEST SWAP1 POP PUSH0 DUP4 SWAP1 POP JUMPDEST DUP1 DUP3 LT ISZERO PUSH2 0x1E3 JUMPI DUP2 SWAP1 POP PUSH1 0x2 DUP3 DUP4 DUP7 PUSH2 0x1C8 SWAP2 SWAP1 PUSH2 0x2ED JUMP JUMPDEST PUSH2 0x1D2 SWAP2 SWAP1 PUSH2 0x28D JUMP JUMPDEST PUSH2 0x1DC SWAP2 SWAP1 PUSH2 0x2ED JUMP JUMPDEST SWAP2 POP PUSH2 0x1AE JUMP JUMPDEST DUP1 SWAP3 POP POP POP JUMPDEST SWAP2 SWAP1 POP JUMP JUMPDEST PUSH0 DUP2 SWAP1 POP SWAP2 SWAP1 POP JUMP JUMPDEST PUSH2 0x200 DUP2 PUSH2 0x1EE JUMP JUMPDEST DUP3 MSTORE POP POP JUMP JUMPDEST PUSH0 PUSH1 0x20 DUP3 ADD SWAP1 POP PUSH2 0x219 PUSH0 DUP4 ADD DUP5 PUSH2 0x1F7 JUMP JUMPDEST SWAP3 SWAP2 POP POP JUMP JUMPDEST PUSH32 0x4E487B7100000000000000000000000000000000000000000000000000000000 PUSH0 MSTORE PUSH1 0x11 PUSH1 0x4 MSTORE PUSH1 0x24 PUSH0 REVERT JUMPDEST PUSH0 PUSH2 0x256 DUP3 PUSH2 0x1EE JUMP JUMPDEST SWAP2 POP PUSH2 0x261 DUP4 PUSH2 0x1EE JUMP JUMPDEST SWAP3 POP DUP3 DUP3 MUL PUSH2 0x26F DUP2 PUSH2 0x1EE JUMP JUMPDEST SWAP2 POP DUP3 DUP3 DIV DUP5 EQ DUP4 ISZERO OR PUSH2 0x286 JUMPI PUSH2 0x285 PUSH2 0x21F JUMP JUMPDEST JUMPDEST POP SWAP3 SWAP2 POP POP JUMP JUMPDEST PUSH0 PUSH2 0x297 DUP3 PUSH2 0x1EE JUMP JUMPDEST SWAP2 POP PUSH2 0x2A2 DUP4 PUSH2 0x1EE JUMP JUMPDEST SWAP3 POP DUP3 DUP3 ADD SWAP1 POP DUP1 DUP3 GT ISZERO PUSH2 0x2BA JUMPI PUSH2 0x2B9 PUSH2 0x21F JUMP JUMPDEST JUMPDEST SWAP3 SWAP2 POP POP JUMP JUMPDEST PUSH32 0x4E487B7100000000000000000000000000000000000000000000000000000000 PUSH0 MSTORE PUSH1 0x12 PUSH1 0x4 MSTORE PUSH1 0x24 PUSH0 REVERT JUMPDEST PUSH0 PUSH2 0x2F7 DUP3 PUSH2 0x1EE JUMP JUMPDEST SWAP2 POP PUSH2 0x302 DUP4 PUSH2 0x1EE JUMP JUMPDEST SWAP3 POP DUP3 PUSH2 0x312 JUMPI PUSH2 0x311 PUSH2 0x2C0 JUMP JUMPDEST JUMPDEST DUP3 DUP3 DIV SWAP1 POP SWAP3 SWAP2 POP POP JUMP INVALID LOG2 PUSH5 0x6970667358 0x22 SLT KECCAK256 TSTORE PUSH7 0x7CF88DA1A95A0 LOG4 SAR RETURNDATASIZE PUSH4 0x2EA1D8C1 0xA6 PUSH13 0x82DC1B01AB17D800CC7C391282 PUSH5 0x736F6C6343 STOP ADDMOD BYTE STOP CALLER "
				},
				"gasEstimates": {
					"creation": {
						"codeDepositCost": "652400",
						"executionCost": "infinite",
						"totalCost": "infinite"
					},
					"external": {
						"cone()": "infinite",
						"cube()": "infinite",
						"cylinder()": "infinite",
						"getShapeDetails()": "infinite"
					},
					"internal": {
						"uint2str(uint256)": "infinite"
					}
				},
				"methodIdentifiers": {
					"cone()": "a312363a",
					"cube()": "5c771211",
					"cylinder()": "a35e7d29",
					"getShapeDetails()": "becf77fe"
				}
			},
			"storageLayout": {
				"storage": [
					{
						"astId": 320,
						"contract": "Day-10/D10P3.sol:ShapeCalculator",
						"label": "cube",
						"offset": 0,
						"slot": "0",
						"type": "t_contract(Cube)119"
					},
					{
						"astId": 323,
						"contract": "Day-10/D10P3.sol:ShapeCalculator",
						"label": "cylinder",
						"offset": 0,
						"slot": "1",
						"type": "t_contract(Cylinder)189"
					},
					{
						"astId": 326,
						"contract": "Day-10/D10P3.sol:ShapeCalculator",
						"label": "cone",
						"offset": 0,
						"slot": "2",
						"type": "t_contract(Cone)317"
					}
				],
				"types": {
					"t_contract(Cone)317": {
						"encoding": "inplace",
						"label": "contract Cone",
						"numberOfBytes": "20"
					},
					"t_contract(Cube)119": {
						"encoding": "inplace",
						"label": "contract Cube",
						"numberOfBytes": "20"
					},
					"t_contract(Cylinder)189": {
						"encoding": "inplace",
						"label": "contract Cylinder",
						"numberOfBytes": "20"
					}
				}
			},
			"userdoc": {
				"kind": "user",
				"methods": {},
				"version": 1
			}
		}
	}
}