{
	"Day-10/D10P3.sol": {
		"Box": {
			"abi": [
				{
					"inputs": [
						{
							"internalType": "uint256",
							"name": "_length",
							"type": "uint256"
						},
						{
							"internalType": "uint256",
							"name": "_width",
							"type": "uint256"
						},
						{
							"internalType": "uint256",
							"name": "_height",
							"type": "uint256"
						}
					],
					"stateMutability": "nonpayable",
					"type": "constructor"
				},
				{
					"inputs": [],
					"name": "height",
					"outputs": [
						{
							"internalType": "uint256",
							"name": "",
							"type": "uint256"
						}
					],
					"stateMutability": "view",
					"type": "function"
				},
				{
					"inputs": [],
					"name": "length",
					"outputs": [
						{
							"internalType": "uint256",
							"name": "",
							"type": "uint256"
						}
					],
					"stateMutability": "view",
					"type": "function"
				},
				{
					"inputs": [],
					"name": "surfaceArea",
					"outputs": [
						{
							"internalType": "uint256",
							"name": "",
							"type": "uint256"
						}
					],
					"stateMutability": "view",
					"type": "function"
				},
				{
					"inputs": [],
					"name": "volume",
					"outputs": [
						{
							"internalType": "uint256",
							"name": "",
							"type": "uint256"
						}
					],
					"stateMutability": "view",
					"type": "function"
				},
				{
					"inputs": [],
					"name": "width",
					"outputs": [
						{
							"internalType": "uint256",
							"name": "",
							"type": "uint256"
						}
					],
					"stateMutability": "view",
					"type": "function"
				}
			],
			"devdoc": {
				"kind": "dev",
				"methods": {},
				"version": 1
			},
			"evm": {
				"assembly": "    /* \"Day-10/D10P3.sol\":284:810  contract Box is ThreeDObject {... */\n  mstore(0x40, 0x80)\n    /* \"Day-10/D10P3.sol\":400:540  constructor(uint _length, uint _width, uint _height) {... */\n  callvalue\n  dup1\n  iszero\n  tag_1\n  jumpi\n  0x00\n  dup1\n  revert\ntag_1:\n  pop\n  mload(0x40)\n  sub(codesize, bytecodeSize)\n  dup1\n  bytecodeSize\n  dup4\n  codecopy\n  dup2\n  dup2\n  add\n  0x40\n  mstore\n  dup2\n  add\n  swap1\n  tag_2\n  swap2\n  swap1\n  tag_3\n  jump\t// in\ntag_2:\n    /* \"Day-10/D10P3.sol\":473:480  _length */\n  dup3\n    /* \"Day-10/D10P3.sol\":464:470  length */\n  0x00\n    /* \"Day-10/D10P3.sol\":464:480  length = _length */\n  dup2\n  swap1\n  sstore\n  pop\n    /* \"Day-10/D10P3.sol\":499:505  _width */\n  dup2\n    /* \"Day-10/D10P3.sol\":491:496  width */\n  0x01\n    /* \"Day-10/D10P3.sol\":491:505  width = _width */\n  dup2\n  swap1\n  sstore\n  pop\n    /* \"Day-10/D10P3.sol\":525:532  _height */\n  dup1\n    /* \"Day-10/D10P3.sol\":516:522  height */\n  0x02\n    /* \"Day-10/D10P3.sol\":516:532  height = _height */\n  dup2\n  swap1\n  sstore\n  pop\n    /* \"Day-10/D10P3.sol\":400:540  constructor(uint _length, uint _width, uint _height) {... */\n  pop\n  pop\n  pop\n    /* \"Day-10/D10P3.sol\":284:810  contract Box is ThreeDObject {... */\n  jump(tag_6)\n    /* \"#utility.yul\":88:205   */\ntag_8:\n    /* \"#utility.yul\":197:198   */\n  0x00\n    /* \"#utility.yul\":194:195   */\n  dup1\n    /* \"#utility.yul\":187:199   */\n  revert\n    /* \"#utility.yul\":334:411   */\ntag_10:\n    /* \"#utility.yul\":371:378   */\n  0x00\n    /* \"#utility.yul\":400:405   */\n  dup2\n    /* \"#utility.yul\":389:405   */\n  swap1\n  pop\n    /* \"#utility.yul\":334:411   */\n  swap2\n  swap1\n  pop\n  jump\t// out\n    /* \"#utility.yul\":417:539   */\ntag_11:\n    /* \"#utility.yul\":490:514   */\n  tag_19\n    /* \"#utility.yul\":508:513   */\n  dup2\n    /* \"#utility.yul\":490:514   */\n  tag_10\n  jump\t// in\ntag_19:\n    /* \"#utility.yul\":483:488   */\n  dup2\n    /* \"#utility.yul\":480:515   */\n  eq\n    /* \"#utility.yul\":470:533   */\n  tag_20\n  jumpi\n    /* \"#utility.yul\":529:530   */\n  0x00\n    /* \"#utility.yul\":526:527   */\n  dup1\n    /* \"#utility.yul\":519:531   */\n  revert\n    /* \"#utility.yul\":470:533   */\ntag_20:\n    /* \"#utility.yul\":417:539   */\n  pop\n  jump\t// out\n    /* \"#utility.yul\":545:688   */\ntag_12:\n    /* \"#utility.yul\":602:607   */\n  0x00\n    /* \"#utility.yul\":633:639   */\n  dup2\n    /* \"#utility.yul\":627:640   */\n  mload\n    /* \"#utility.yul\":618:640   */\n  swap1\n  pop\n    /* \"#utility.yul\":649:682   */\n  tag_22\n    /* \"#utility.yul\":676:681   */\n  dup2\n    /* \"#utility.yul\":649:682   */\n  tag_11\n  jump\t// in\ntag_22:\n    /* \"#utility.yul\":545:688   */\n  swap3\n  swap2\n  pop\n  pop\n  jump\t// out\n    /* \"#utility.yul\":694:1357   */\ntag_3:\n    /* \"#utility.yul\":782:788   */\n  0x00\n    /* \"#utility.yul\":790:796   */\n  dup1\n    /* \"#utility.yul\":798:804   */\n  0x00\n    /* \"#utility.yul\":847:849   */\n  0x60\n    /* \"#utility.yul\":835:844   */\n  dup5\n    /* \"#utility.yul\":826:833   */\n  dup7\n    /* \"#utility.yul\":822:845   */\n  sub\n    /* \"#utility.yul\":818:850   */\n  slt\n    /* \"#utility.yul\":815:934   */\n  iszero\n  tag_24\n  jumpi\n    /* \"#utility.yul\":853:932   */\n  tag_25\n  tag_8\n  jump\t// in\ntag_25:\n    /* \"#utility.yul\":815:934   */\ntag_24:\n    /* \"#utility.yul\":973:974   */\n  0x00\n    /* \"#utility.yul\":998:1062   */\n  tag_26\n    /* \"#utility.yul\":1054:1061   */\n  dup7\n    /* \"#utility.yul\":1045:1051   */\n  dup3\n    /* \"#utility.yul\":1034:1043   */\n  dup8\n    /* \"#utility.yul\":1030:1052   */\n  add\n    /* \"#utility.yul\":998:1062   */\n  tag_12\n  jump\t// in\ntag_26:\n    /* \"#utility.yul\":988:1062   */\n  swap4\n  pop\n    /* \"#utility.yul\":944:1072   */\n  pop\n    /* \"#utility.yul\":1111:1113   */\n  0x20\n    /* \"#utility.yul\":1137:1201   */\n  tag_27\n    /* \"#utility.yul\":1193:1200   */\n  dup7\n    /* \"#utility.yul\":1184:1190   */\n  dup3\n    /* \"#utility.yul\":1173:1182   */\n  dup8\n    /* \"#utility.yul\":1169:1191   */\n  add\n    /* \"#utility.yul\":1137:1201   */\n  tag_12\n  jump\t// in\ntag_27:\n    /* \"#utility.yul\":1127:1201   */\n  swap3\n  pop\n    /* \"#utility.yul\":1082:1211   */\n  pop\n    /* \"#utility.yul\":1250:1252   */\n  0x40\n    /* \"#utility.yul\":1276:1340   */\n  tag_28\n    /* \"#utility.yul\":1332:1339   */\n  dup7\n    /* \"#utility.yul\":1323:1329   */\n  dup3\n    /* \"#utility.yul\":1312:1321   */\n  dup8\n    /* \"#utility.yul\":1308:1330   */\n  add\n    /* \"#utility.yul\":1276:1340   */\n  tag_12\n  jump\t// in\ntag_28:\n    /* \"#utility.yul\":1266:1340   */\n  swap2\n  pop\n    /* \"#utility.yul\":1221:1350   */\n  pop\n    /* \"#utility.yul\":694:1357   */\n  swap3\n  pop\n  swap3\n  pop\n  swap3\n  jump\t// out\n    /* \"Day-10/D10P3.sol\":284:810  contract Box is ThreeDObject {... */\ntag_6:\n  dataSize(sub_0)\n  dup1\n  dataOffset(sub_0)\n  0x00\n  codecopy\n  0x00\n  return\nstop\n\nsub_0: assembly {\n        /* \"Day-10/D10P3.sol\":284:810  contract Box is ThreeDObject {... */\n      mstore(0x40, 0x80)\n      callvalue\n      dup1\n      iszero\n      tag_1\n      jumpi\n      0x00\n      dup1\n      revert\n    tag_1:\n      pop\n      jumpi(tag_2, lt(calldatasize, 0x04))\n      shr(0xe0, calldataload(0x00))\n      dup1\n      0x0ef26743\n      eq\n      tag_3\n      jumpi\n      dup1\n      0x1f7b6d32\n      eq\n      tag_4\n      jumpi\n      dup1\n      0x89e7995f\n      eq\n      tag_5\n      jumpi\n      dup1\n      0x9ededf77\n      eq\n      tag_6\n      jumpi\n      dup1\n      0xc618a1e4\n      eq\n      tag_7\n      jumpi\n    tag_2:\n      0x00\n      dup1\n      revert\n        /* \"Day-10/D10P3.sol\":369:387  uint public height */\n    tag_3:\n      tag_8\n      tag_9\n      jump\t// in\n    tag_8:\n      mload(0x40)\n      tag_10\n      swap2\n      swap1\n      tag_11\n      jump\t// in\n    tag_10:\n      mload(0x40)\n      dup1\n      swap2\n      sub\n      swap1\n      return\n        /* \"Day-10/D10P3.sol\":320:338  uint public length */\n    tag_4:\n      tag_12\n      tag_13\n      jump\t// in\n    tag_12:\n      mload(0x40)\n      tag_14\n      swap2\n      swap1\n      tag_11\n      jump\t// in\n    tag_14:\n      mload(0x40)\n      dup1\n      swap2\n      sub\n      swap1\n      return\n        /* \"Day-10/D10P3.sol\":552:692  function surfaceArea() public view override returns (uint) {... */\n    tag_5:\n      tag_15\n      tag_16\n      jump\t// in\n    tag_15:\n      mload(0x40)\n      tag_17\n      swap2\n      swap1\n      tag_11\n      jump\t// in\n    tag_17:\n      mload(0x40)\n      dup1\n      swap2\n      sub\n      swap1\n      return\n        /* \"Day-10/D10P3.sol\":345:362  uint public width */\n    tag_6:\n      tag_18\n      tag_19\n      jump\t// in\n    tag_18:\n      mload(0x40)\n      tag_20\n      swap2\n      swap1\n      tag_11\n      jump\t// in\n    tag_20:\n      mload(0x40)\n      dup1\n      swap2\n      sub\n      swap1\n      return\n        /* \"Day-10/D10P3.sol\":704:807  function volume() public view override returns (uint) {... */\n    tag_7:\n      tag_21\n      tag_22\n      jump\t// in\n    tag_21:\n      mload(0x40)\n      tag_23\n      swap2\n      swap1\n      tag_11\n      jump\t// in\n    tag_23:\n      mload(0x40)\n      dup1\n      swap2\n      sub\n      swap1\n      return\n        /* \"Day-10/D10P3.sol\":369:387  uint public height */\n    tag_9:\n      sload(0x02)\n      dup2\n      jump\t// out\n        /* \"Day-10/D10P3.sol\":320:338  uint public length */\n    tag_13:\n      sload(0x00)\n      dup2\n      jump\t// out\n        /* \"Day-10/D10P3.sol\":552:692  function surfaceArea() public view override returns (uint) {... */\n    tag_16:\n        /* \"Day-10/D10P3.sol\":605:609  uint */\n      0x00\n        /* \"Day-10/D10P3.sol\":677:683  length */\n      dup1\n      sload\n        /* \"Day-10/D10P3.sol\":668:674  height */\n      sload(0x02)\n        /* \"Day-10/D10P3.sol\":668:683  height * length */\n      tag_25\n      swap2\n      swap1\n      tag_26\n      jump\t// in\n    tag_25:\n        /* \"Day-10/D10P3.sol\":659:665  height */\n      sload(0x02)\n        /* \"Day-10/D10P3.sol\":651:656  width */\n      sload(0x01)\n        /* \"Day-10/D10P3.sol\":651:665  width * height */\n      tag_27\n      swap2\n      swap1\n      tag_26\n      jump\t// in\n    tag_27:\n        /* \"Day-10/D10P3.sol\":643:648  width */\n      sload(0x01)\n        /* \"Day-10/D10P3.sol\":634:640  length */\n      sload(0x00)\n        /* \"Day-10/D10P3.sol\":634:648  length * width */\n      tag_28\n      swap2\n      swap1\n      tag_26\n      jump\t// in\n    tag_28:\n        /* \"Day-10/D10P3.sol\":634:665  length * width + width * height */\n      tag_29\n      swap2\n      swap1\n      tag_30\n      jump\t// in\n    tag_29:\n        /* \"Day-10/D10P3.sol\":634:683  length * width + width * height + height * length */\n      tag_31\n      swap2\n      swap1\n      tag_30\n      jump\t// in\n    tag_31:\n        /* \"Day-10/D10P3.sol\":629:630  2 */\n      0x02\n        /* \"Day-10/D10P3.sol\":629:684  2 * (length * width + width * height + height * length) */\n      tag_32\n      swap2\n      swap1\n      tag_26\n      jump\t// in\n    tag_32:\n        /* \"Day-10/D10P3.sol\":622:684  return 2 * (length * width + width * height + height * length) */\n      swap1\n      pop\n        /* \"Day-10/D10P3.sol\":552:692  function surfaceArea() public view override returns (uint) {... */\n      swap1\n      jump\t// out\n        /* \"Day-10/D10P3.sol\":345:362  uint public width */\n    tag_19:\n      sload(0x01)\n      dup2\n      jump\t// out\n        /* \"Day-10/D10P3.sol\":704:807  function volume() public view override returns (uint) {... */\n    tag_22:\n        /* \"Day-10/D10P3.sol\":752:756  uint */\n      0x00\n        /* \"Day-10/D10P3.sol\":793:799  height */\n      sload(0x02)\n        /* \"Day-10/D10P3.sol\":785:790  width */\n      sload(0x01)\n        /* \"Day-10/D10P3.sol\":776:782  length */\n      sload(0x00)\n        /* \"Day-10/D10P3.sol\":776:790  length * width */\n      tag_34\n      swap2\n      swap1\n      tag_26\n      jump\t// in\n    tag_34:\n        /* \"Day-10/D10P3.sol\":776:799  length * width * height */\n      tag_35\n      swap2\n      swap1\n      tag_26\n      jump\t// in\n    tag_35:\n        /* \"Day-10/D10P3.sol\":769:799  return length * width * height */\n      swap1\n      pop\n        /* \"Day-10/D10P3.sol\":704:807  function volume() public view override returns (uint) {... */\n      swap1\n      jump\t// out\n        /* \"#utility.yul\":7:84   */\n    tag_36:\n        /* \"#utility.yul\":44:51   */\n      0x00\n        /* \"#utility.yul\":73:78   */\n      dup2\n        /* \"#utility.yul\":62:78   */\n      swap1\n      pop\n        /* \"#utility.yul\":7:84   */\n      swap2\n      swap1\n      pop\n      jump\t// out\n        /* \"#utility.yul\":90:208   */\n    tag_37:\n        /* \"#utility.yul\":177:201   */\n      tag_42\n        /* \"#utility.yul\":195:200   */\n      dup2\n        /* \"#utility.yul\":177:201   */\n      tag_36\n      jump\t// in\n    tag_42:\n        /* \"#utility.yul\":172:175   */\n      dup3\n        /* \"#utility.yul\":165:202   */\n      mstore\n        /* \"#utility.yul\":90:208   */\n      pop\n      pop\n      jump\t// out\n        /* \"#utility.yul\":214:436   */\n    tag_11:\n        /* \"#utility.yul\":307:311   */\n      0x00\n        /* \"#utility.yul\":345:347   */\n      0x20\n        /* \"#utility.yul\":334:343   */\n      dup3\n        /* \"#utility.yul\":330:348   */\n      add\n        /* \"#utility.yul\":322:348   */\n      swap1\n      pop\n        /* \"#utility.yul\":358:429   */\n      tag_44\n        /* \"#utility.yul\":426:427   */\n      0x00\n        /* \"#utility.yul\":415:424   */\n      dup4\n        /* \"#utility.yul\":411:428   */\n      add\n        /* \"#utility.yul\":402:408   */\n      dup5\n        /* \"#utility.yul\":358:429   */\n      tag_37\n      jump\t// in\n    tag_44:\n        /* \"#utility.yul\":214:436   */\n      swap3\n      swap2\n      pop\n      pop\n      jump\t// out\n        /* \"#utility.yul\":442:622   */\n    tag_38:\n        /* \"#utility.yul\":490:567   */\n      0x4e487b7100000000000000000000000000000000000000000000000000000000\n        /* \"#utility.yul\":487:488   */\n      0x00\n        /* \"#utility.yul\":480:568   */\n      mstore\n        /* \"#utility.yul\":587:591   */\n      0x11\n        /* \"#utility.yul\":584:585   */\n      0x04\n        /* \"#utility.yul\":577:592   */\n      mstore\n        /* \"#utility.yul\":611:615   */\n      0x24\n        /* \"#utility.yul\":608:609   */\n      0x00\n        /* \"#utility.yul\":601:616   */\n      revert\n        /* \"#utility.yul\":628:1038   */\n    tag_26:\n        /* \"#utility.yul\":668:675   */\n      0x00\n        /* \"#utility.yul\":691:711   */\n      tag_47\n        /* \"#utility.yul\":709:710   */\n      dup3\n        /* \"#utility.yul\":691:711   */\n      tag_36\n      jump\t// in\n    tag_47:\n        /* \"#utility.yul\":686:711   */\n      swap2\n      pop\n        /* \"#utility.yul\":725:745   */\n      tag_48\n        /* \"#utility.yul\":743:744   */\n      dup4\n        /* \"#utility.yul\":725:745   */\n      tag_36\n      jump\t// in\n    tag_48:\n        /* \"#utility.yul\":720:745   */\n      swap3\n      pop\n        /* \"#utility.yul\":780:781   */\n      dup3\n        /* \"#utility.yul\":777:778   */\n      dup3\n        /* \"#utility.yul\":773:782   */\n      mul\n        /* \"#utility.yul\":802:832   */\n      tag_49\n        /* \"#utility.yul\":820:831   */\n      dup2\n        /* \"#utility.yul\":802:832   */\n      tag_36\n      jump\t// in\n    tag_49:\n        /* \"#utility.yul\":791:832   */\n      swap2\n      pop\n        /* \"#utility.yul\":981:982   */\n      dup3\n        /* \"#utility.yul\":972:979   */\n      dup3\n        /* \"#utility.yul\":968:983   */\n      div\n        /* \"#utility.yul\":965:966   */\n      dup5\n        /* \"#utility.yul\":962:984   */\n      eq\n        /* \"#utility.yul\":942:943   */\n      dup4\n        /* \"#utility.yul\":935:944   */\n      iszero\n        /* \"#utility.yul\":915:998   */\n      or\n        /* \"#utility.yul\":892:1031   */\n      tag_50\n      jumpi\n        /* \"#utility.yul\":1011:1029   */\n      tag_51\n      tag_38\n      jump\t// in\n    tag_51:\n        /* \"#utility.yul\":892:1031   */\n    tag_50:\n        /* \"#utility.yul\":676:1038   */\n      pop\n        /* \"#utility.yul\":628:1038   */\n      swap3\n      swap2\n      pop\n      pop\n      jump\t// out\n        /* \"#utility.yul\":1044:1235   */\n    tag_30:\n        /* \"#utility.yul\":1084:1087   */\n      0x00\n        /* \"#utility.yul\":1103:1123   */\n      tag_53\n        /* \"#utility.yul\":1121:1122   */\n      dup3\n        /* \"#utility.yul\":1103:1123   */\n      tag_36\n      jump\t// in\n    tag_53:\n        /* \"#utility.yul\":1098:1123   */\n      swap2\n      pop\n        /* \"#utility.yul\":1137:1157   */\n      tag_54\n        /* \"#utility.yul\":1155:1156   */\n      dup4\n        /* \"#utility.yul\":1137:1157   */\n      tag_36\n      jump\t// in\n    tag_54:\n        /* \"#utility.yul\":1132:1157   */\n      swap3\n      pop\n        /* \"#utility.yul\":1180:1181   */\n      dup3\n        /* \"#utility.yul\":1177:1178   */\n      dup3\n        /* \"#utility.yul\":1173:1182   */\n      add\n        /* \"#utility.yul\":1166:1182   */\n      swap1\n      pop\n        /* \"#utility.yul\":1201:1204   */\n      dup1\n        /* \"#utility.yul\":1198:1199   */\n      dup3\n        /* \"#utility.yul\":1195:1205   */\n      gt\n        /* \"#utility.yul\":1192:1228   */\n      iszero\n      tag_55\n      jumpi\n        /* \"#utility.yul\":1208:1226   */\n      tag_56\n      tag_38\n      jump\t// in\n    tag_56:\n        /* \"#utility.yul\":1192:1228   */\n    tag_55:\n        /* \"#utility.yul\":1044:1235   */\n      swap3\n      swap2\n      pop\n      pop\n      jump\t// out\n\n    auxdata: 0xa264697066735822122085c8c1a839bc84bef5bd173ebab3dda3a826fe1acf4a90aefd3fe32cf0363b5664736f6c634300081a0033\n}\n",
				"bytecode": {
					"linkReferences": {},
					"object": "6080604052348015600e575f80fd5b5060405161034d38038061034d8339818101604052810190602e9190607b565b825f81905550816001819055508060028190555050505060c2565b5f80fd5b5f819050919050565b605d81604d565b81146066575f80fd5b50565b5f815190506075816056565b92915050565b5f805f60608486031215608f57608e6049565b5b5f609a868287016069565b935050602060a9868287016069565b925050604060b8868287016069565b9150509250925092565b61027e806100cf5f395ff3fe608060405234801561000f575f80fd5b5060043610610055575f3560e01c80630ef26743146100595780631f7b6d321461007757806389e7995f146100955780639ededf77146100b3578063c618a1e4146100d1575b5f80fd5b6100616100ef565b60405161006e919061018e565b60405180910390f35b61007f6100f5565b60405161008c919061018e565b60405180910390f35b61009d6100fa565b6040516100aa919061018e565b60405180910390f35b6100bb61014e565b6040516100c8919061018e565b60405180910390f35b6100d9610154565b6040516100e6919061018e565b60405180910390f35b60025481565b5f5481565b5f805460025461010a91906101d4565b60025460015461011a91906101d4565b6001545f5461012991906101d4565b6101339190610215565b61013d9190610215565b600261014991906101d4565b905090565b60015481565b5f6002546001545f5461016791906101d4565b61017191906101d4565b905090565b5f819050919050565b61018881610176565b82525050565b5f6020820190506101a15f83018461017f565b92915050565b7f4e487b71000000000000000000000000000000000000000000000000000000005f52601160045260245ffd5b5f6101de82610176565b91506101e983610176565b92508282026101f781610176565b9150828204841483151761020e5761020d6101a7565b5b5092915050565b5f61021f82610176565b915061022a83610176565b9250828201905080821115610242576102416101a7565b5b9291505056fea264697066735822122085c8c1a839bc84bef5bd173ebab3dda3a826fe1acf4a90aefd3fe32cf0363b5664736f6c634300081a0033",
					"opcodes": "PUSH1 0x80 PUSH1 0x40 MSTORE CALLVALUE DUP1 ISZERO PUSH1 0xE JUMPI PUSH0 DUP1 REVERT JUMPDEST POP PUSH1 0x40 MLOAD PUSH2 0x34D CODESIZE SUB DUP1 PUSH2 0x34D DUP4 CODECOPY DUP2 DUP2 ADD PUSH1 0x40 MSTORE DUP2 ADD SWAP1 PUSH1 0x2E SWAP2 SWAP1 PUSH1 0x7B JUMP JUMPDEST DUP3 PUSH0 DUP2 SWAP1 SSTORE POP DUP2 PUSH1 0x1 DUP2 SWAP1 SSTORE POP DUP1 PUSH1 0x2 DUP2 SWAP1 SSTORE POP POP POP POP PUSH1 0xC2 JUMP JUMPDEST PUSH0 DUP1 REVERT JUMPDEST PUSH0 DUP2 SWAP1 POP SWAP2 SWAP1 POP JUMP JUMPDEST PUSH1 0x5D DUP2 PUSH1 0x4D JUMP JUMPDEST DUP2 EQ PUSH1 0x66 JUMPI PUSH0 DUP1 REVERT JUMPDEST POP JUMP JUMPDEST PUSH0 DUP2 MLOAD SWAP1 POP PUSH1 0x75 DUP2 PUSH1 0x56 JUMP JUMPDEST SWAP3 SWAP2 POP POP JUMP JUMPDEST PUSH0 DUP1 PUSH0 PUSH1 0x60 DUP5 DUP7 SUB SLT ISZERO PUSH1 0x8F JUMPI PUSH1 0x8E PUSH1 0x49 JUMP JUMPDEST JUMPDEST PUSH0 PUSH1 0x9A DUP7 DUP3 DUP8 ADD PUSH1 0x69 JUMP JUMPDEST SWAP4 POP POP PUSH1 0x20 PUSH1 0xA9 DUP7 DUP3 DUP8 ADD PUSH1 0x69 JUMP JUMPDEST SWAP3 POP POP PUSH1 0x40 PUSH1 0xB8 DUP7 DUP3 DUP8 ADD PUSH1 0x69 JUMP JUMPDEST SWAP2 POP POP SWAP3 POP SWAP3 POP SWAP3 JUMP JUMPDEST PUSH2 0x27E DUP1 PUSH2 0xCF PUSH0 CODECOPY PUSH0 RETURN INVALID PUSH1 0x80 PUSH1 0x40 MSTORE CALLVALUE DUP1 ISZERO PUSH2 0xF JUMPI PUSH0 DUP1 REVERT JUMPDEST POP PUSH1 0x4 CALLDATASIZE LT PUSH2 0x55 JUMPI PUSH0 CALLDATALOAD PUSH1 0xE0 SHR DUP1 PUSH4 0xEF26743 EQ PUSH2 0x59 JUMPI DUP1 PUSH4 0x1F7B6D32 EQ PUSH2 0x77 JUMPI DUP1 PUSH4 0x89E7995F EQ PUSH2 0x95 JUMPI DUP1 PUSH4 0x9EDEDF77 EQ PUSH2 0xB3 JUMPI DUP1 PUSH4 0xC618A1E4 EQ PUSH2 0xD1 JUMPI JUMPDEST PUSH0 DUP1 REVERT JUMPDEST PUSH2 0x61 PUSH2 0xEF JUMP JUMPDEST PUSH1 0x40 MLOAD PUSH2 0x6E SWAP2 SWAP1 PUSH2 0x18E JUMP JUMPDEST PUSH1 0x40 MLOAD DUP1 SWAP2 SUB SWAP1 RETURN JUMPDEST PUSH2 0x7F PUSH2 0xF5 JUMP JUMPDEST PUSH1 0x40 MLOAD PUSH2 0x8C SWAP2 SWAP1 PUSH2 0x18E JUMP JUMPDEST PUSH1 0x40 MLOAD DUP1 SWAP2 SUB SWAP1 RETURN JUMPDEST PUSH2 0x9D PUSH2 0xFA JUMP JUMPDEST PUSH1 0x40 MLOAD PUSH2 0xAA SWAP2 SWAP1 PUSH2 0x18E JUMP JUMPDEST PUSH1 0x40 MLOAD DUP1 SWAP2 SUB SWAP1 RETURN JUMPDEST PUSH2 0xBB PUSH2 0x14E JUMP JUMPDEST PUSH1 0x40 MLOAD PUSH2 0xC8 SWAP2 SWAP1 PUSH2 0x18E JUMP JUMPDEST PUSH1 0x40 MLOAD DUP1 SWAP2 SUB SWAP1 RETURN JUMPDEST PUSH2 0xD9 PUSH2 0x154 JUMP JUMPDEST PUSH1 0x40 MLOAD PUSH2 0xE6 SWAP2 SWAP1 PUSH2 0x18E JUMP JUMPDEST PUSH1 0x40 MLOAD DUP1 SWAP2 SUB SWAP1 RETURN JUMPDEST PUSH1 0x2 SLOAD DUP2 JUMP JUMPDEST PUSH0 SLOAD DUP2 JUMP JUMPDEST PUSH0 DUP1 SLOAD PUSH1 0x2 SLOAD PUSH2 0x10A SWAP2 SWAP1 PUSH2 0x1D4 JUMP JUMPDEST PUSH1 0x2 SLOAD PUSH1 0x1 SLOAD PUSH2 0x11A SWAP2 SWAP1 PUSH2 0x1D4 JUMP JUMPDEST PUSH1 0x1 SLOAD PUSH0 SLOAD PUSH2 0x129 SWAP2 SWAP1 PUSH2 0x1D4 JUMP JUMPDEST PUSH2 0x133 SWAP2 SWAP1 PUSH2 0x215 JUMP JUMPDEST PUSH2 0x13D SWAP2 SWAP1 PUSH2 0x215 JUMP JUMPDEST PUSH1 0x2 PUSH2 0x149 SWAP2 SWAP1 PUSH2 0x1D4 JUMP JUMPDEST SWAP1 POP SWAP1 JUMP JUMPDEST PUSH1 0x1 SLOAD DUP2 JUMP JUMPDEST PUSH0 PUSH1 0x2 SLOAD PUSH1 0x1 SLOAD PUSH0 SLOAD PUSH2 0x167 SWAP2 SWAP1 PUSH2 0x1D4 JUMP JUMPDEST PUSH2 0x171 SWAP2 SWAP1 PUSH2 0x1D4 JUMP JUMPDEST SWAP1 POP SWAP1 JUMP JUMPDEST PUSH0 DUP2 SWAP1 POP SWAP2 SWAP1 POP JUMP JUMPDEST PUSH2 0x188 DUP2 PUSH2 0x176 JUMP JUMPDEST DUP3 MSTORE POP POP JUMP JUMPDEST PUSH0 PUSH1 0x20 DUP3 ADD SWAP1 POP PUSH2 0x1A1 PUSH0 DUP4 ADD DUP5 PUSH2 0x17F JUMP JUMPDEST SWAP3 SWAP2 POP POP JUMP JUMPDEST PUSH32 0x4E487B7100000000000000000000000000000000000000000000000000000000 PUSH0 MSTORE PUSH1 0x11 PUSH1 0x4 MSTORE PUSH1 0x24 PUSH0 REVERT JUMPDEST PUSH0 PUSH2 0x1DE DUP3 PUSH2 0x176 JUMP JUMPDEST SWAP2 POP PUSH2 0x1E9 DUP4 PUSH2 0x176 JUMP JUMPDEST SWAP3 POP DUP3 DUP3 MUL PUSH2 0x1F7 DUP2 PUSH2 0x176 JUMP JUMPDEST SWAP2 POP DUP3 DUP3 DIV DUP5 EQ DUP4 ISZERO OR PUSH2 0x20E JUMPI PUSH2 0x20D PUSH2 0x1A7 JUMP JUMPDEST JUMPDEST POP SWAP3 SWAP2 POP POP JUMP JUMPDEST PUSH0 PUSH2 0x21F DUP3 PUSH2 0x176 JUMP JUMPDEST SWAP2 POP PUSH2 0x22A DUP4 PUSH2 0x176 JUMP JUMPDEST SWAP3 POP DUP3 DUP3 ADD SWAP1 POP DUP1 DUP3 GT ISZERO PUSH2 0x242 JUMPI PUSH2 0x241 PUSH2 0x1A7 JUMP JUMPDEST JUMPDEST SWAP3 SWAP2 POP POP JUMP INVALID LOG2 PUSH5 0x6970667358 0x22 SLT KECCAK256 DUP6 0xC8 0xC1 0xA8 CODECOPY 0xBC DUP5 0xBE CREATE2 0xBD OR RETURNDATACOPY 0xBA 0xB3 0xDD LOG3 0xA8 0x26 INVALID BYTE 0xCF BLOBBASEFEE SWAP1 0xAE REVERT EXTCODEHASH 0xE3 0x2C CREATE CALLDATASIZE EXTCODESIZE JUMP PUSH5 0x736F6C6343 STOP ADDMOD BYTE STOP CALLER "
				},
				"gasEstimates": {
					"creation": {
						"codeDepositCost": "127600",
						"executionCost": "infinite",
						"totalCost": "infinite"
					},
					"external": {
						"height()": "2403",
						"length()": "2424",
						"surfaceArea()": "infinite",
						"volume()": "infinite",
						"width()": "2469"
					}
				},
				"methodIdentifiers": {
					"height()": "0ef26743",
					"length()": "1f7b6d32",
					"surfaceArea()": "89e7995f",
					"volume()": "c618a1e4",
					"width()": "9ededf77"
				}
			},
			"storageLayout": {
				"storage": [
					{
						"astId": 16,
						"contract": "Day-10/D10P3.sol:Box",
						"label": "length",
						"offset": 0,
						"slot": "0",
						"type": "t_uint256"
					},
					{
						"astId": 18,
						"contract": "Day-10/D10P3.sol:Box",
						"label": "width",
						"offset": 0,
						"slot": "1",
						"type": "t_uint256"
					},
					{
						"astId": 20,
						"contract": "Day-10/D10P3.sol:Box",
						"label": "height",
						"offset": 0,
						"slot": "2",
						"type": "t_uint256"
					}
				],
				"types": {
					"t_uint256": {
						"encoding": "inplace",
						"label": "uint256",
						"numberOfBytes": "32"
					}
				}
			},
			"userdoc": {
				"kind": "user",
				"methods": {},
				"version": 1
			}
		}
	}
}