{
	"Practice/P6.sol": {
		"currency": {
			"abi": [
				{
					"inputs": [
						{
							"internalType": "uint256",
							"name": "N",
							"type": "uint256"
						}
					],
					"name": "calculateMinimumNotes",
					"outputs": [
						{
							"internalType": "uint256[]",
							"name": "",
							"type": "uint256[]"
						}
					],
					"stateMutability": "view",
					"type": "function"
				},
				{
					"inputs": [
						{
							"internalType": "uint256",
							"name": "",
							"type": "uint256"
						}
					],
					"name": "denominations",
					"outputs": [
						{
							"internalType": "uint256",
							"name": "",
							"type": "uint256"
						}
					],
					"stateMutability": "view",
					"type": "function"
				},
				{
					"inputs": [
						{
							"internalType": "uint256",
							"name": "N",
							"type": "uint256"
						}
					],
					"name": "totalNotesCount",
					"outputs": [
						{
							"internalType": "uint256",
							"name": "",
							"type": "uint256"
						}
					],
					"stateMutability": "view",
					"type": "function"
				}
			],
			"devdoc": {
				"kind": "dev",
				"methods": {},
				"version": 1
			},
			"evm": {
				"assembly": "    /* \"Practice/P6.sol\":62:1010  contract currency {... */\n  mstore(0x40, 0x80)\n    /* \"Practice/P6.sol\":87:142  uint256[] public denominations = [100, 50, 10, 5, 2, 1] */\n  mload(0x40)\n  dup1\n  0xc0\n  add\n  0x40\n  mstore\n  dup1\n    /* \"Practice/P6.sol\":121:124  100 */\n  0x64\n    /* \"Practice/P6.sol\":87:142  uint256[] public denominations = [100, 50, 10, 5, 2, 1] */\n  0xff\n  and\n  dup2\n  mstore\n  0x20\n  add\n    /* \"Practice/P6.sol\":126:128  50 */\n  0x32\n    /* \"Practice/P6.sol\":87:142  uint256[] public denominations = [100, 50, 10, 5, 2, 1] */\n  0xff\n  and\n  dup2\n  mstore\n  0x20\n  add\n    /* \"Practice/P6.sol\":130:132  10 */\n  0x0a\n    /* \"Practice/P6.sol\":87:142  uint256[] public denominations = [100, 50, 10, 5, 2, 1] */\n  0xff\n  and\n  dup2\n  mstore\n  0x20\n  add\n    /* \"Practice/P6.sol\":134:135  5 */\n  0x05\n    /* \"Practice/P6.sol\":87:142  uint256[] public denominations = [100, 50, 10, 5, 2, 1] */\n  0xff\n  and\n  dup2\n  mstore\n  0x20\n  add\n    /* \"Practice/P6.sol\":137:138  2 */\n  0x02\n    /* \"Practice/P6.sol\":87:142  uint256[] public denominations = [100, 50, 10, 5, 2, 1] */\n  0xff\n  and\n  dup2\n  mstore\n  0x20\n  add\n    /* \"Practice/P6.sol\":140:141  1 */\n  0x01\n    /* \"Practice/P6.sol\":87:142  uint256[] public denominations = [100, 50, 10, 5, 2, 1] */\n  0xff\n  and\n  dup2\n  mstore\n  pop\n  0x00\n  swap1\n  0x06\n  tag_1\n  swap3\n  swap2\n  swap1\n  tag_2\n  jump\t// in\ntag_1:\n  pop\n    /* \"Practice/P6.sol\":62:1010  contract currency {... */\n  callvalue\n  dup1\n  iszero\n  tag_3\n  jumpi\n  revert(0x00, 0x00)\ntag_3:\n  pop\n  jump(tag_4)\ntag_2:\n  dup3\n  dup1\n  sload\n  dup3\n  dup3\n  sstore\n  swap1\n  0x00\n  mstore\n  keccak256(0x00, 0x20)\n  swap1\n  dup2\n  add\n  swap3\n  dup3\n  iszero\n  tag_5\n  jumpi\n  swap2\n  0x20\n  mul\n  dup3\n  add\ntag_6:\n  dup3\n  dup2\n  gt\n  iszero\n  tag_7\n  jumpi\n  dup3\n  mload\n  dup3\n  swap1\n  0xff\n  and\n  swap1\n  sstore\n  swap2\n  0x20\n  add\n  swap2\n  swap1\n  0x01\n  add\n  swap1\n  jump(tag_6)\ntag_7:\ntag_5:\n  pop\n  swap1\n  pop\n  tag_8\n  swap2\n  swap1\n  tag_9\n  jump\t// in\ntag_8:\n  pop\n  swap1\n  jump\t// out\ntag_9:\ntag_10:\n  dup1\n  dup3\n  gt\n  iszero\n  tag_11\n  jumpi\n  0x00\n  dup2\n  0x00\n  swap1\n  sstore\n  pop\n  0x01\n  add\n  jump(tag_10)\ntag_11:\n  pop\n  swap1\n  jump\t// out\ntag_4:\n  dataSize(sub_0)\n  dup1\n  dataOffset(sub_0)\n  0x00\n  codecopy\n  0x00\n  return\nstop\n\nsub_0: assembly {\n        /* \"Practice/P6.sol\":62:1010  contract currency {... */\n      mstore(0x40, 0x80)\n      callvalue\n      dup1\n      iszero\n      tag_1\n      jumpi\n      revert(0x00, 0x00)\n    tag_1:\n      pop\n      jumpi(tag_2, lt(calldatasize, 0x04))\n      shr(0xe0, calldataload(0x00))\n      dup1\n      0xb94c6dfb\n      eq\n      tag_3\n      jumpi\n      dup1\n      0xf3ce61ad\n      eq\n      tag_4\n      jumpi\n      dup1\n      0xfc0e86ef\n      eq\n      tag_5\n      jumpi\n    tag_2:\n      revert(0x00, 0x00)\n        /* \"Practice/P6.sol\":151:702  function calculateMinimumNotes(uint256 N) public view returns(uint256[] memory) {... */\n    tag_3:\n      tag_6\n      0x04\n      dup1\n      calldatasize\n      sub\n      dup2\n      add\n      swap1\n      tag_7\n      swap2\n      swap1\n      tag_8\n      jump\t// in\n    tag_7:\n      tag_9\n      jump\t// in\n    tag_6:\n      mload(0x40)\n      tag_10\n      swap2\n      swap1\n      tag_11\n      jump\t// in\n    tag_10:\n      mload(0x40)\n      dup1\n      swap2\n      sub\n      swap1\n      return\n        /* \"Practice/P6.sol\":87:142  uint256[] public denominations = [100, 50, 10, 5, 2, 1] */\n    tag_4:\n      tag_12\n      0x04\n      dup1\n      calldatasize\n      sub\n      dup2\n      add\n      swap1\n      tag_13\n      swap2\n      swap1\n      tag_8\n      jump\t// in\n    tag_13:\n      tag_14\n      jump\t// in\n    tag_12:\n      mload(0x40)\n      tag_15\n      swap2\n      swap1\n      tag_16\n      jump\t// in\n    tag_15:\n      mload(0x40)\n      dup1\n      swap2\n      sub\n      swap1\n      return\n        /* \"Practice/P6.sol\":710:1005  function totalNotesCount(uint256 N) public view returns(uint256) {... */\n    tag_5:\n      tag_17\n      0x04\n      dup1\n      calldatasize\n      sub\n      dup2\n      add\n      swap1\n      tag_18\n      swap2\n      swap1\n      tag_8\n      jump\t// in\n    tag_18:\n      tag_19\n      jump\t// in\n    tag_17:\n      mload(0x40)\n      tag_20\n      swap2\n      swap1\n      tag_16\n      jump\t// in\n    tag_20:\n      mload(0x40)\n      dup1\n      swap2\n      sub\n      swap1\n      return\n        /* \"Practice/P6.sol\":151:702  function calculateMinimumNotes(uint256 N) public view returns(uint256[] memory) {... */\n    tag_9:\n        /* \"Practice/P6.sol\":213:229  uint256[] memory */\n      0x60\n        /* \"Practice/P6.sol\":242:269  uint256[] memory notesCount */\n      0x00\n        /* \"Practice/P6.sol\":286:287  6 */\n      0x06\n        /* \"Practice/P6.sol\":272:288  new uint256[](6) */\n      0xffffffffffffffff\n      dup2\n      gt\n      iszero\n      tag_22\n      jumpi\n      tag_23\n      tag_24\n      jump\t// in\n    tag_23:\n    tag_22:\n      mload(0x40)\n      swap1\n      dup1\n      dup3\n      mstore\n      dup1\n      0x20\n      mul\n      0x20\n      add\n      dup3\n      add\n      0x40\n      mstore\n      dup1\n      iszero\n      tag_25\n      jumpi\n      dup2\n      0x20\n      add\n      0x20\n      dup3\n      mul\n      dup1\n      calldatasize\n      dup4\n      calldatacopy\n      dup1\n      dup3\n      add\n      swap2\n      pop\n      pop\n      swap1\n      pop\n    tag_25:\n      pop\n        /* \"Practice/P6.sol\":242:288  uint256[] memory notesCount = new uint256[](6) */\n      swap1\n      pop\n        /* \"Practice/P6.sol\":299:322  uint256 remainingAmount */\n      0x00\n        /* \"Practice/P6.sol\":325:326  N */\n      dup4\n        /* \"Practice/P6.sol\":299:326  uint256 remainingAmount = N */\n      swap1\n      pop\n        /* \"Practice/P6.sol\":341:350  uint256 i */\n      0x00\n        /* \"Practice/P6.sol\":353:354  0 */\n      0x00\n        /* \"Practice/P6.sol\":341:354  uint256 i = 0 */\n      swap1\n      pop\n        /* \"Practice/P6.sol\":337:667  for(uint256 i = 0; i < denominations.length; i++) {... */\n    tag_26:\n        /* \"Practice/P6.sol\":360:373  denominations */\n      0x00\n        /* \"Practice/P6.sol\":360:380  denominations.length */\n      dup1\n      sload\n      swap1\n      pop\n        /* \"Practice/P6.sol\":356:357  i */\n      dup2\n        /* \"Practice/P6.sol\":356:380  i < denominations.length */\n      lt\n        /* \"Practice/P6.sol\":337:667  for(uint256 i = 0; i < denominations.length; i++) {... */\n      iszero\n      tag_27\n      jumpi\n        /* \"Practice/P6.sol\":424:437  denominations */\n      0x00\n        /* \"Practice/P6.sol\":438:439  i */\n      dup2\n        /* \"Practice/P6.sol\":424:440  denominations[i] */\n      dup2\n      sload\n      dup2\n      lt\n      tag_29\n      jumpi\n      tag_30\n      tag_31\n      jump\t// in\n    tag_30:\n    tag_29:\n      swap1\n      0x00\n      mstore\n      keccak256(0x00, 0x20)\n      add\n      sload\n        /* \"Practice/P6.sol\":405:420  remainingAmount */\n      dup3\n        /* \"Practice/P6.sol\":405:440  remainingAmount >= denominations[i] */\n      lt\n        /* \"Practice/P6.sol\":402:656  if(remainingAmount >= denominations[i]) {... */\n      tag_33\n      jumpi\n        /* \"Practice/P6.sol\":495:508  denominations */\n      0x00\n        /* \"Practice/P6.sol\":509:510  i */\n      dup2\n        /* \"Practice/P6.sol\":495:511  denominations[i] */\n      dup2\n      sload\n      dup2\n      lt\n      tag_34\n      jumpi\n      tag_35\n      tag_31\n      jump\t// in\n    tag_35:\n    tag_34:\n      swap1\n      0x00\n      mstore\n      keccak256(0x00, 0x20)\n      add\n      sload\n        /* \"Practice/P6.sol\":477:492  remainingAmount */\n      dup3\n        /* \"Practice/P6.sol\":477:511  remainingAmount / denominations[i] */\n      tag_37\n      swap2\n      swap1\n      tag_38\n      jump\t// in\n    tag_37:\n        /* \"Practice/P6.sol\":461:471  notesCount */\n      dup4\n        /* \"Practice/P6.sol\":472:473  i */\n      dup3\n        /* \"Practice/P6.sol\":461:474  notesCount[i] */\n      dup2\n      mload\n      dup2\n      lt\n      tag_39\n      jumpi\n      tag_40\n      tag_31\n      jump\t// in\n    tag_40:\n    tag_39:\n      0x20\n      mul\n      0x20\n      add\n      add\n        /* \"Practice/P6.sol\":461:511  notesCount[i] = remainingAmount / denominations[i] */\n      dup2\n      dup2\n      mstore\n      pop\n      pop\n        /* \"Practice/P6.sol\":566:579  denominations */\n      0x00\n        /* \"Practice/P6.sol\":580:581  i */\n      dup2\n        /* \"Practice/P6.sol\":566:582  denominations[i] */\n      dup2\n      sload\n      dup2\n      lt\n      tag_41\n      jumpi\n      tag_42\n      tag_31\n      jump\t// in\n    tag_42:\n    tag_41:\n      swap1\n      0x00\n      mstore\n      keccak256(0x00, 0x20)\n      add\n      sload\n        /* \"Practice/P6.sol\":548:563  remainingAmount */\n      dup3\n        /* \"Practice/P6.sol\":548:582  remainingAmount % denominations[i] */\n      tag_44\n      swap2\n      swap1\n      tag_45\n      jump\t// in\n    tag_44:\n        /* \"Practice/P6.sol\":530:582  remainingAmount = remainingAmount % denominations[i] */\n      swap2\n      pop\n        /* \"Practice/P6.sol\":402:656  if(remainingAmount >= denominations[i]) {... */\n      jump(tag_46)\n    tag_33:\n        /* \"Practice/P6.sol\":639:640  0 */\n      0x00\n        /* \"Practice/P6.sol\":623:633  notesCount */\n      dup4\n        /* \"Practice/P6.sol\":634:635  i */\n      dup3\n        /* \"Practice/P6.sol\":623:636  notesCount[i] */\n      dup2\n      mload\n      dup2\n      lt\n      tag_47\n      jumpi\n      tag_48\n      tag_31\n      jump\t// in\n    tag_48:\n    tag_47:\n      0x20\n      mul\n      0x20\n      add\n      add\n        /* \"Practice/P6.sol\":623:640  notesCount[i] = 0 */\n      dup2\n      dup2\n      mstore\n      pop\n      pop\n        /* \"Practice/P6.sol\":402:656  if(remainingAmount >= denominations[i]) {... */\n    tag_46:\n        /* \"Practice/P6.sol\":382:385  i++ */\n      dup1\n      dup1\n      0x01\n      add\n      swap2\n      pop\n      pop\n        /* \"Practice/P6.sol\":337:667  for(uint256 i = 0; i < denominations.length; i++) {... */\n      jump(tag_26)\n    tag_27:\n      pop\n        /* \"Practice/P6.sol\":684:694  notesCount */\n      dup2\n        /* \"Practice/P6.sol\":677:694  return notesCount */\n      swap3\n      pop\n      pop\n      pop\n        /* \"Practice/P6.sol\":151:702  function calculateMinimumNotes(uint256 N) public view returns(uint256[] memory) {... */\n      swap2\n      swap1\n      pop\n      jump\t// out\n        /* \"Practice/P6.sol\":87:142  uint256[] public denominations = [100, 50, 10, 5, 2, 1] */\n    tag_14:\n      0x00\n      dup2\n      dup2\n      sload\n      dup2\n      lt\n      tag_49\n      jumpi\n      0x00\n      dup1\n      revert\n    tag_49:\n      swap1\n      0x00\n      mstore\n      keccak256(0x00, 0x20)\n      add\n      0x00\n      swap2\n      pop\n      swap1\n      pop\n      sload\n      dup2\n      jump\t// out\n        /* \"Practice/P6.sol\":710:1005  function totalNotesCount(uint256 N) public view returns(uint256) {... */\n    tag_19:\n        /* \"Practice/P6.sol\":766:773  uint256 */\n      0x00\n        /* \"Practice/P6.sol\":786:799  uint256 total */\n      0x00\n        /* \"Practice/P6.sol\":802:803  0 */\n      0x00\n        /* \"Practice/P6.sol\":786:803  uint256 total = 0 */\n      swap1\n      pop\n        /* \"Practice/P6.sol\":814:841  uint256[] memory notesCount */\n      0x00\n        /* \"Practice/P6.sol\":844:868  calculateMinimumNotes(N) */\n      tag_52\n        /* \"Practice/P6.sol\":866:867  N */\n      dup5\n        /* \"Practice/P6.sol\":844:865  calculateMinimumNotes */\n      tag_9\n        /* \"Practice/P6.sol\":844:868  calculateMinimumNotes(N) */\n      jump\t// in\n    tag_52:\n        /* \"Practice/P6.sol\":814:868  uint256[] memory notesCount = calculateMinimumNotes(N) */\n      swap1\n      pop\n        /* \"Practice/P6.sol\":883:892  uint256 i */\n      0x00\n        /* \"Practice/P6.sol\":895:896  0 */\n      0x00\n        /* \"Practice/P6.sol\":883:896  uint256 i = 0 */\n      swap1\n      pop\n        /* \"Practice/P6.sol\":879:975  for(uint256 i = 0; i < notesCount.length; i++) {... */\n    tag_53:\n        /* \"Practice/P6.sol\":902:912  notesCount */\n      dup2\n        /* \"Practice/P6.sol\":902:919  notesCount.length */\n      mload\n        /* \"Practice/P6.sol\":898:899  i */\n      dup2\n        /* \"Practice/P6.sol\":898:919  i < notesCount.length */\n      lt\n        /* \"Practice/P6.sol\":879:975  for(uint256 i = 0; i < notesCount.length; i++) {... */\n      iszero\n      tag_54\n      jumpi\n        /* \"Practice/P6.sol\":950:960  notesCount */\n      dup2\n        /* \"Practice/P6.sol\":961:962  i */\n      dup2\n        /* \"Practice/P6.sol\":950:963  notesCount[i] */\n      dup2\n      mload\n      dup2\n      lt\n      tag_56\n      jumpi\n      tag_57\n      tag_31\n      jump\t// in\n    tag_57:\n    tag_56:\n      0x20\n      mul\n      0x20\n      add\n      add\n      mload\n        /* \"Practice/P6.sol\":941:963  total += notesCount[i] */\n      dup4\n      tag_58\n      swap2\n      swap1\n      tag_59\n      jump\t// in\n    tag_58:\n      swap3\n      pop\n        /* \"Practice/P6.sol\":921:924  i++ */\n      dup1\n      dup1\n      0x01\n      add\n      swap2\n      pop\n      pop\n        /* \"Practice/P6.sol\":879:975  for(uint256 i = 0; i < notesCount.length; i++) {... */\n      jump(tag_53)\n    tag_54:\n      pop\n        /* \"Practice/P6.sol\":992:997  total */\n      dup2\n        /* \"Practice/P6.sol\":985:997  return total */\n      swap3\n      pop\n      pop\n      pop\n        /* \"Practice/P6.sol\":710:1005  function totalNotesCount(uint256 N) public view returns(uint256) {... */\n      swap2\n      swap1\n      pop\n      jump\t// out\n        /* \"#utility.yul\":88:205   */\n    tag_61:\n        /* \"#utility.yul\":197:198   */\n      0x00\n        /* \"#utility.yul\":194:195   */\n      0x00\n        /* \"#utility.yul\":187:199   */\n      revert\n        /* \"#utility.yul\":334:411   */\n    tag_63:\n        /* \"#utility.yul\":371:378   */\n      0x00\n        /* \"#utility.yul\":400:405   */\n      dup2\n        /* \"#utility.yul\":389:405   */\n      swap1\n      pop\n        /* \"#utility.yul\":334:411   */\n      swap2\n      swap1\n      pop\n      jump\t// out\n        /* \"#utility.yul\":417:539   */\n    tag_64:\n        /* \"#utility.yul\":490:514   */\n      tag_82\n        /* \"#utility.yul\":508:513   */\n      dup2\n        /* \"#utility.yul\":490:514   */\n      tag_63\n      jump\t// in\n    tag_82:\n        /* \"#utility.yul\":483:488   */\n      dup2\n        /* \"#utility.yul\":480:515   */\n      eq\n        /* \"#utility.yul\":470:533   */\n      tag_83\n      jumpi\n        /* \"#utility.yul\":529:530   */\n      0x00\n        /* \"#utility.yul\":526:527   */\n      0x00\n        /* \"#utility.yul\":519:531   */\n      revert\n        /* \"#utility.yul\":470:533   */\n    tag_83:\n        /* \"#utility.yul\":417:539   */\n      pop\n      jump\t// out\n        /* \"#utility.yul\":545:684   */\n    tag_65:\n        /* \"#utility.yul\":591:596   */\n      0x00\n        /* \"#utility.yul\":629:635   */\n      dup2\n        /* \"#utility.yul\":616:636   */\n      calldataload\n        /* \"#utility.yul\":607:636   */\n      swap1\n      pop\n        /* \"#utility.yul\":645:678   */\n      tag_85\n        /* \"#utility.yul\":672:677   */\n      dup2\n        /* \"#utility.yul\":645:678   */\n      tag_64\n      jump\t// in\n    tag_85:\n        /* \"#utility.yul\":545:684   */\n      swap3\n      swap2\n      pop\n      pop\n      jump\t// out\n        /* \"#utility.yul\":690:1019   */\n    tag_8:\n        /* \"#utility.yul\":749:755   */\n      0x00\n        /* \"#utility.yul\":798:800   */\n      0x20\n        /* \"#utility.yul\":786:795   */\n      dup3\n        /* \"#utility.yul\":777:784   */\n      dup5\n        /* \"#utility.yul\":773:796   */\n      sub\n        /* \"#utility.yul\":769:801   */\n      slt\n        /* \"#utility.yul\":766:885   */\n      iszero\n      tag_87\n      jumpi\n        /* \"#utility.yul\":804:883   */\n      tag_88\n      tag_61\n      jump\t// in\n    tag_88:\n        /* \"#utility.yul\":766:885   */\n    tag_87:\n        /* \"#utility.yul\":924:925   */\n      0x00\n        /* \"#utility.yul\":949:1002   */\n      tag_89\n        /* \"#utility.yul\":994:1001   */\n      dup5\n        /* \"#utility.yul\":985:991   */\n      dup3\n        /* \"#utility.yul\":974:983   */\n      dup6\n        /* \"#utility.yul\":970:992   */\n      add\n        /* \"#utility.yul\":949:1002   */\n      tag_65\n      jump\t// in\n    tag_89:\n        /* \"#utility.yul\":939:1002   */\n      swap2\n      pop\n        /* \"#utility.yul\":895:1012   */\n      pop\n        /* \"#utility.yul\":690:1019   */\n      swap3\n      swap2\n      pop\n      pop\n      jump\t// out\n        /* \"#utility.yul\":1025:1139   */\n    tag_66:\n        /* \"#utility.yul\":1092:1098   */\n      0x00\n        /* \"#utility.yul\":1126:1131   */\n      dup2\n        /* \"#utility.yul\":1120:1132   */\n      mload\n        /* \"#utility.yul\":1110:1132   */\n      swap1\n      pop\n        /* \"#utility.yul\":1025:1139   */\n      swap2\n      swap1\n      pop\n      jump\t// out\n        /* \"#utility.yul\":1145:1329   */\n    tag_67:\n        /* \"#utility.yul\":1244:1255   */\n      0x00\n        /* \"#utility.yul\":1278:1284   */\n      dup3\n        /* \"#utility.yul\":1273:1276   */\n      dup3\n        /* \"#utility.yul\":1266:1285   */\n      mstore\n        /* \"#utility.yul\":1318:1322   */\n      0x20\n        /* \"#utility.yul\":1313:1316   */\n      dup3\n        /* \"#utility.yul\":1309:1323   */\n      add\n        /* \"#utility.yul\":1294:1323   */\n      swap1\n      pop\n        /* \"#utility.yul\":1145:1329   */\n      swap3\n      swap2\n      pop\n      pop\n      jump\t// out\n        /* \"#utility.yul\":1335:1467   */\n    tag_68:\n        /* \"#utility.yul\":1402:1406   */\n      0x00\n        /* \"#utility.yul\":1425:1428   */\n      dup2\n        /* \"#utility.yul\":1417:1428   */\n      swap1\n      pop\n        /* \"#utility.yul\":1455:1459   */\n      0x20\n        /* \"#utility.yul\":1450:1453   */\n      dup3\n        /* \"#utility.yul\":1446:1460   */\n      add\n        /* \"#utility.yul\":1438:1460   */\n      swap1\n      pop\n        /* \"#utility.yul\":1335:1467   */\n      swap2\n      swap1\n      pop\n      jump\t// out\n        /* \"#utility.yul\":1473:1581   */\n    tag_69:\n        /* \"#utility.yul\":1550:1574   */\n      tag_94\n        /* \"#utility.yul\":1568:1573   */\n      dup2\n        /* \"#utility.yul\":1550:1574   */\n      tag_63\n      jump\t// in\n    tag_94:\n        /* \"#utility.yul\":1545:1548   */\n      dup3\n        /* \"#utility.yul\":1538:1575   */\n      mstore\n        /* \"#utility.yul\":1473:1581   */\n      pop\n      pop\n      jump\t// out\n        /* \"#utility.yul\":1587:1766   */\n    tag_70:\n        /* \"#utility.yul\":1656:1666   */\n      0x00\n        /* \"#utility.yul\":1677:1723   */\n      tag_96\n        /* \"#utility.yul\":1719:1722   */\n      dup4\n        /* \"#utility.yul\":1711:1717   */\n      dup4\n        /* \"#utility.yul\":1677:1723   */\n      tag_69\n      jump\t// in\n    tag_96:\n        /* \"#utility.yul\":1755:1759   */\n      0x20\n        /* \"#utility.yul\":1750:1753   */\n      dup4\n        /* \"#utility.yul\":1746:1760   */\n      add\n        /* \"#utility.yul\":1732:1760   */\n      swap1\n      pop\n        /* \"#utility.yul\":1587:1766   */\n      swap3\n      swap2\n      pop\n      pop\n      jump\t// out\n        /* \"#utility.yul\":1772:1885   */\n    tag_71:\n        /* \"#utility.yul\":1842:1846   */\n      0x00\n        /* \"#utility.yul\":1874:1878   */\n      0x20\n        /* \"#utility.yul\":1869:1872   */\n      dup3\n        /* \"#utility.yul\":1865:1879   */\n      add\n        /* \"#utility.yul\":1857:1879   */\n      swap1\n      pop\n        /* \"#utility.yul\":1772:1885   */\n      swap2\n      swap1\n      pop\n      jump\t// out\n        /* \"#utility.yul\":1921:2653   */\n    tag_72:\n        /* \"#utility.yul\":2040:2043   */\n      0x00\n        /* \"#utility.yul\":2069:2123   */\n      tag_99\n        /* \"#utility.yul\":2117:2122   */\n      dup3\n        /* \"#utility.yul\":2069:2123   */\n      tag_66\n      jump\t// in\n    tag_99:\n        /* \"#utility.yul\":2139:2225   */\n      tag_100\n        /* \"#utility.yul\":2218:2224   */\n      dup2\n        /* \"#utility.yul\":2213:2216   */\n      dup6\n        /* \"#utility.yul\":2139:2225   */\n      tag_67\n      jump\t// in\n    tag_100:\n        /* \"#utility.yul\":2132:2225   */\n      swap4\n      pop\n        /* \"#utility.yul\":2249:2305   */\n      tag_101\n        /* \"#utility.yul\":2299:2304   */\n      dup4\n        /* \"#utility.yul\":2249:2305   */\n      tag_68\n      jump\t// in\n    tag_101:\n        /* \"#utility.yul\":2328:2335   */\n      dup1\n        /* \"#utility.yul\":2359:2360   */\n      0x00\n        /* \"#utility.yul\":2344:2628   */\n    tag_102:\n        /* \"#utility.yul\":2369:2375   */\n      dup4\n        /* \"#utility.yul\":2366:2367   */\n      dup2\n        /* \"#utility.yul\":2363:2376   */\n      lt\n        /* \"#utility.yul\":2344:2628   */\n      iszero\n      tag_104\n      jumpi\n        /* \"#utility.yul\":2445:2451   */\n      dup2\n        /* \"#utility.yul\":2439:2452   */\n      mload\n        /* \"#utility.yul\":2472:2535   */\n      tag_105\n        /* \"#utility.yul\":2531:2534   */\n      dup9\n        /* \"#utility.yul\":2516:2529   */\n      dup3\n        /* \"#utility.yul\":2472:2535   */\n      tag_70\n      jump\t// in\n    tag_105:\n        /* \"#utility.yul\":2465:2535   */\n      swap8\n      pop\n        /* \"#utility.yul\":2558:2618   */\n      tag_106\n        /* \"#utility.yul\":2611:2617   */\n      dup4\n        /* \"#utility.yul\":2558:2618   */\n      tag_71\n      jump\t// in\n    tag_106:\n        /* \"#utility.yul\":2548:2618   */\n      swap3\n      pop\n        /* \"#utility.yul\":2404:2628   */\n      pop\n        /* \"#utility.yul\":2391:2392   */\n      0x01\n        /* \"#utility.yul\":2388:2389   */\n      dup2\n        /* \"#utility.yul\":2384:2393   */\n      add\n        /* \"#utility.yul\":2379:2393   */\n      swap1\n      pop\n        /* \"#utility.yul\":2344:2628   */\n      jump(tag_102)\n    tag_104:\n        /* \"#utility.yul\":2348:2362   */\n      pop\n        /* \"#utility.yul\":2644:2647   */\n      dup6\n        /* \"#utility.yul\":2637:2647   */\n      swap4\n      pop\n        /* \"#utility.yul\":2045:2653   */\n      pop\n      pop\n      pop\n        /* \"#utility.yul\":1921:2653   */\n      swap3\n      swap2\n      pop\n      pop\n      jump\t// out\n        /* \"#utility.yul\":2659:3032   */\n    tag_11:\n        /* \"#utility.yul\":2802:2806   */\n      0x00\n        /* \"#utility.yul\":2840:2842   */\n      0x20\n        /* \"#utility.yul\":2829:2838   */\n      dup3\n        /* \"#utility.yul\":2825:2843   */\n      add\n        /* \"#utility.yul\":2817:2843   */\n      swap1\n      pop\n        /* \"#utility.yul\":2889:2898   */\n      dup2\n        /* \"#utility.yul\":2883:2887   */\n      dup2\n        /* \"#utility.yul\":2879:2899   */\n      sub\n        /* \"#utility.yul\":2875:2876   */\n      0x00\n        /* \"#utility.yul\":2864:2873   */\n      dup4\n        /* \"#utility.yul\":2860:2877   */\n      add\n        /* \"#utility.yul\":2853:2900   */\n      mstore\n        /* \"#utility.yul\":2917:3025   */\n      tag_108\n        /* \"#utility.yul\":3020:3024   */\n      dup2\n        /* \"#utility.yul\":3011:3017   */\n      dup5\n        /* \"#utility.yul\":2917:3025   */\n      tag_72\n      jump\t// in\n    tag_108:\n        /* \"#utility.yul\":2909:3025   */\n      swap1\n      pop\n        /* \"#utility.yul\":2659:3032   */\n      swap3\n      swap2\n      pop\n      pop\n      jump\t// out\n        /* \"#utility.yul\":3038:3156   */\n    tag_73:\n        /* \"#utility.yul\":3125:3149   */\n      tag_110\n        /* \"#utility.yul\":3143:3148   */\n      dup2\n        /* \"#utility.yul\":3125:3149   */\n      tag_63\n      jump\t// in\n    tag_110:\n        /* \"#utility.yul\":3120:3123   */\n      dup3\n        /* \"#utility.yul\":3113:3150   */\n      mstore\n        /* \"#utility.yul\":3038:3156   */\n      pop\n      pop\n      jump\t// out\n        /* \"#utility.yul\":3162:3384   */\n    tag_16:\n        /* \"#utility.yul\":3255:3259   */\n      0x00\n        /* \"#utility.yul\":3293:3295   */\n      0x20\n        /* \"#utility.yul\":3282:3291   */\n      dup3\n        /* \"#utility.yul\":3278:3296   */\n      add\n        /* \"#utility.yul\":3270:3296   */\n      swap1\n      pop\n        /* \"#utility.yul\":3306:3377   */\n      tag_112\n        /* \"#utility.yul\":3374:3375   */\n      0x00\n        /* \"#utility.yul\":3363:3372   */\n      dup4\n        /* \"#utility.yul\":3359:3376   */\n      add\n        /* \"#utility.yul\":3350:3356   */\n      dup5\n        /* \"#utility.yul\":3306:3377   */\n      tag_73\n      jump\t// in\n    tag_112:\n        /* \"#utility.yul\":3162:3384   */\n      swap3\n      swap2\n      pop\n      pop\n      jump\t// out\n        /* \"#utility.yul\":3390:3570   */\n    tag_24:\n        /* \"#utility.yul\":3438:3515   */\n      0x4e487b7100000000000000000000000000000000000000000000000000000000\n        /* \"#utility.yul\":3435:3436   */\n      0x00\n        /* \"#utility.yul\":3428:3516   */\n      mstore\n        /* \"#utility.yul\":3535:3539   */\n      0x41\n        /* \"#utility.yul\":3532:3533   */\n      0x04\n        /* \"#utility.yul\":3525:3540   */\n      mstore\n        /* \"#utility.yul\":3559:3563   */\n      0x24\n        /* \"#utility.yul\":3556:3557   */\n      0x00\n        /* \"#utility.yul\":3549:3564   */\n      revert\n        /* \"#utility.yul\":3576:3756   */\n    tag_31:\n        /* \"#utility.yul\":3624:3701   */\n      0x4e487b7100000000000000000000000000000000000000000000000000000000\n        /* \"#utility.yul\":3621:3622   */\n      0x00\n        /* \"#utility.yul\":3614:3702   */\n      mstore\n        /* \"#utility.yul\":3721:3725   */\n      0x32\n        /* \"#utility.yul\":3718:3719   */\n      0x04\n        /* \"#utility.yul\":3711:3726   */\n      mstore\n        /* \"#utility.yul\":3745:3749   */\n      0x24\n        /* \"#utility.yul\":3742:3743   */\n      0x00\n        /* \"#utility.yul\":3735:3750   */\n      revert\n        /* \"#utility.yul\":3762:3942   */\n    tag_74:\n        /* \"#utility.yul\":3810:3887   */\n      0x4e487b7100000000000000000000000000000000000000000000000000000000\n        /* \"#utility.yul\":3807:3808   */\n      0x00\n        /* \"#utility.yul\":3800:3888   */\n      mstore\n        /* \"#utility.yul\":3907:3911   */\n      0x12\n        /* \"#utility.yul\":3904:3905   */\n      0x04\n        /* \"#utility.yul\":3897:3912   */\n      mstore\n        /* \"#utility.yul\":3931:3935   */\n      0x24\n        /* \"#utility.yul\":3928:3929   */\n      0x00\n        /* \"#utility.yul\":3921:3936   */\n      revert\n        /* \"#utility.yul\":3948:4128   */\n    tag_75:\n        /* \"#utility.yul\":3996:4073   */\n      0x4e487b7100000000000000000000000000000000000000000000000000000000\n        /* \"#utility.yul\":3993:3994   */\n      0x00\n        /* \"#utility.yul\":3986:4074   */\n      mstore\n        /* \"#utility.yul\":4093:4097   */\n      0x11\n        /* \"#utility.yul\":4090:4091   */\n      0x04\n        /* \"#utility.yul\":4083:4098   */\n      mstore\n        /* \"#utility.yul\":4117:4121   */\n      0x24\n        /* \"#utility.yul\":4114:4115   */\n      0x00\n        /* \"#utility.yul\":4107:4122   */\n      revert\n        /* \"#utility.yul\":4134:4319   */\n    tag_38:\n        /* \"#utility.yul\":4174:4175   */\n      0x00\n        /* \"#utility.yul\":4191:4211   */\n      tag_118\n        /* \"#utility.yul\":4209:4210   */\n      dup3\n        /* \"#utility.yul\":4191:4211   */\n      tag_63\n      jump\t// in\n    tag_118:\n        /* \"#utility.yul\":4186:4211   */\n      swap2\n      pop\n        /* \"#utility.yul\":4225:4245   */\n      tag_119\n        /* \"#utility.yul\":4243:4244   */\n      dup4\n        /* \"#utility.yul\":4225:4245   */\n      tag_63\n      jump\t// in\n    tag_119:\n        /* \"#utility.yul\":4220:4245   */\n      swap3\n      pop\n        /* \"#utility.yul\":4264:4265   */\n      dup3\n        /* \"#utility.yul\":4254:4289   */\n      tag_120\n      jumpi\n        /* \"#utility.yul\":4269:4287   */\n      tag_121\n      tag_74\n      jump\t// in\n    tag_121:\n        /* \"#utility.yul\":4254:4289   */\n    tag_120:\n        /* \"#utility.yul\":4311:4312   */\n      dup3\n        /* \"#utility.yul\":4308:4309   */\n      dup3\n        /* \"#utility.yul\":4304:4313   */\n      div\n        /* \"#utility.yul\":4299:4313   */\n      swap1\n      pop\n        /* \"#utility.yul\":4134:4319   */\n      swap3\n      swap2\n      pop\n      pop\n      jump\t// out\n        /* \"#utility.yul\":4325:4501   */\n    tag_45:\n        /* \"#utility.yul\":4357:4358   */\n      0x00\n        /* \"#utility.yul\":4374:4394   */\n      tag_123\n        /* \"#utility.yul\":4392:4393   */\n      dup3\n        /* \"#utility.yul\":4374:4394   */\n      tag_63\n      jump\t// in\n    tag_123:\n        /* \"#utility.yul\":4369:4394   */\n      swap2\n      pop\n        /* \"#utility.yul\":4408:4428   */\n      tag_124\n        /* \"#utility.yul\":4426:4427   */\n      dup4\n        /* \"#utility.yul\":4408:4428   */\n      tag_63\n      jump\t// in\n    tag_124:\n        /* \"#utility.yul\":4403:4428   */\n      swap3\n      pop\n        /* \"#utility.yul\":4447:4448   */\n      dup3\n        /* \"#utility.yul\":4437:4472   */\n      tag_125\n      jumpi\n        /* \"#utility.yul\":4452:4470   */\n      tag_126\n      tag_74\n      jump\t// in\n    tag_126:\n        /* \"#utility.yul\":4437:4472   */\n    tag_125:\n        /* \"#utility.yul\":4493:4494   */\n      dup3\n        /* \"#utility.yul\":4490:4491   */\n      dup3\n        /* \"#utility.yul\":4486:4495   */\n      mod\n        /* \"#utility.yul\":4481:4495   */\n      swap1\n      pop\n        /* \"#utility.yul\":4325:4501   */\n      swap3\n      swap2\n      pop\n      pop\n      jump\t// out\n        /* \"#utility.yul\":4507:4698   */\n    tag_59:\n        /* \"#utility.yul\":4547:4550   */\n      0x00\n        /* \"#utility.yul\":4566:4586   */\n      tag_128\n        /* \"#utility.yul\":4584:4585   */\n      dup3\n        /* \"#utility.yul\":4566:4586   */\n      tag_63\n      jump\t// in\n    tag_128:\n        /* \"#utility.yul\":4561:4586   */\n      swap2\n      pop\n        /* \"#utility.yul\":4600:4620   */\n      tag_129\n        /* \"#utility.yul\":4618:4619   */\n      dup4\n        /* \"#utility.yul\":4600:4620   */\n      tag_63\n      jump\t// in\n    tag_129:\n        /* \"#utility.yul\":4595:4620   */\n      swap3\n      pop\n        /* \"#utility.yul\":4643:4644   */\n      dup3\n        /* \"#utility.yul\":4640:4641   */\n      dup3\n        /* \"#utility.yul\":4636:4645   */\n      add\n        /* \"#utility.yul\":4629:4645   */\n      swap1\n      pop\n        /* \"#utility.yul\":4664:4667   */\n      dup1\n        /* \"#utility.yul\":4661:4662   */\n      dup3\n        /* \"#utility.yul\":4658:4668   */\n      gt\n        /* \"#utility.yul\":4655:4691   */\n      iszero\n      tag_130\n      jumpi\n        /* \"#utility.yul\":4671:4689   */\n      tag_131\n      tag_75\n      jump\t// in\n    tag_131:\n        /* \"#utility.yul\":4655:4691   */\n    tag_130:\n        /* \"#utility.yul\":4507:4698   */\n      swap3\n      swap2\n      pop\n      pop\n      jump\t// out\n\n    auxdata: 0xa26469706673582212207ca537e5a2cb7057e3c3fc775ba0b72f1b25db43ea8fb8cc200f7bfa82f4b23164736f6c634300081d0033\n}\n",
				"bytecode": {
					"linkReferences": {},
					"object": "60806040526040518060c00160405280606460ff168152602001603260ff168152602001600a60ff168152602001600560ff168152602001600260ff168152602001600160ff168152505f90600660569291906066565b503480156061575f5ffd5b5060ca565b828054828255905f5260205f2090810192821560a2579160200282015b8281111560a1578251829060ff169055916020019190600101906083565b5b50905060ad919060b1565b5090565b5b8082111560c6575f815f90555060010160b2565b5090565b610562806100d75f395ff3fe608060405234801561000f575f5ffd5b506004361061003f575f3560e01c8063b94c6dfb14610043578063f3ce61ad14610073578063fc0e86ef146100a3575b5f5ffd5b61005d600480360381019061005891906102bb565b6100d3565b60405161006a919061039d565b60405180910390f35b61008d600480360381019061008891906102bb565b610206565b60405161009a91906103cc565b60405180910390f35b6100bd60048036038101906100b891906102bb565b610225565b6040516100ca91906103cc565b60405180910390f35b60605f600667ffffffffffffffff8111156100f1576100f06103e5565b5b60405190808252806020026020018201604052801561011f5781602001602082028036833780820191505090505b5090505f8390505f5f90505b5f805490508110156101fb575f818154811061014a57610149610412565b5b905f5260205f20015482106101cd575f818154811061016c5761016b610412565b5b905f5260205f200154826101809190610499565b83828151811061019357610192610412565b5b6020026020010181815250505f81815481106101b2576101b1610412565b5b905f5260205f200154826101c691906104c9565b91506101ee565b5f8382815181106101e1576101e0610412565b5b6020026020010181815250505b808060010191505061012b565b508192505050919050565b5f8181548110610214575f80fd5b905f5260205f20015f915090505481565b5f5f5f90505f610234846100d3565b90505f5f90505b81518110156102795781818151811061025757610256610412565b5b60200260200101518361026a91906104f9565b9250808060010191505061023b565b508192505050919050565b5f5ffd5b5f819050919050565b61029a81610288565b81146102a4575f5ffd5b50565b5f813590506102b581610291565b92915050565b5f602082840312156102d0576102cf610284565b5b5f6102dd848285016102a7565b91505092915050565b5f81519050919050565b5f82825260208201905092915050565b5f819050602082019050919050565b61031881610288565b82525050565b5f610329838361030f565b60208301905092915050565b5f602082019050919050565b5f61034b826102e6565b61035581856102f0565b935061036083610300565b805f5b83811015610390578151610377888261031e565b975061038283610335565b925050600181019050610363565b5085935050505092915050565b5f6020820190508181035f8301526103b58184610341565b905092915050565b6103c681610288565b82525050565b5f6020820190506103df5f8301846103bd565b92915050565b7f4e487b71000000000000000000000000000000000000000000000000000000005f52604160045260245ffd5b7f4e487b71000000000000000000000000000000000000000000000000000000005f52603260045260245ffd5b7f4e487b71000000000000000000000000000000000000000000000000000000005f52601260045260245ffd5b7f4e487b71000000000000000000000000000000000000000000000000000000005f52601160045260245ffd5b5f6104a382610288565b91506104ae83610288565b9250826104be576104bd61043f565b5b828204905092915050565b5f6104d382610288565b91506104de83610288565b9250826104ee576104ed61043f565b5b828206905092915050565b5f61050382610288565b915061050e83610288565b92508282019050808211156105265761052561046c565b5b9291505056fea26469706673582212207ca537e5a2cb7057e3c3fc775ba0b72f1b25db43ea8fb8cc200f7bfa82f4b23164736f6c634300081d0033",
					"opcodes": "PUSH1 0x80 PUSH1 0x40 MSTORE PUSH1 0x40 MLOAD DUP1 PUSH1 0xC0 ADD PUSH1 0x40 MSTORE DUP1 PUSH1 0x64 PUSH1 0xFF AND DUP2 MSTORE PUSH1 0x20 ADD PUSH1 0x32 PUSH1 0xFF AND DUP2 MSTORE PUSH1 0x20 ADD PUSH1 0xA PUSH1 0xFF AND DUP2 MSTORE PUSH1 0x20 ADD PUSH1 0x5 PUSH1 0xFF AND DUP2 MSTORE PUSH1 0x20 ADD PUSH1 0x2 PUSH1 0xFF AND DUP2 MSTORE PUSH1 0x20 ADD PUSH1 0x1 PUSH1 0xFF AND DUP2 MSTORE POP PUSH0 SWAP1 PUSH1 0x6 PUSH1 0x56 SWAP3 SWAP2 SWAP1 PUSH1 0x66 JUMP JUMPDEST POP CALLVALUE DUP1 ISZERO PUSH1 0x61 JUMPI PUSH0 PUSH0 REVERT JUMPDEST POP PUSH1 0xCA JUMP JUMPDEST DUP3 DUP1 SLOAD DUP3 DUP3 SSTORE SWAP1 PUSH0 MSTORE PUSH1 0x20 PUSH0 KECCAK256 SWAP1 DUP2 ADD SWAP3 DUP3 ISZERO PUSH1 0xA2 JUMPI SWAP2 PUSH1 0x20 MUL DUP3 ADD JUMPDEST DUP3 DUP2 GT ISZERO PUSH1 0xA1 JUMPI DUP3 MLOAD DUP3 SWAP1 PUSH1 0xFF AND SWAP1 SSTORE SWAP2 PUSH1 0x20 ADD SWAP2 SWAP1 PUSH1 0x1 ADD SWAP1 PUSH1 0x83 JUMP JUMPDEST JUMPDEST POP SWAP1 POP PUSH1 0xAD SWAP2 SWAP1 PUSH1 0xB1 JUMP JUMPDEST POP SWAP1 JUMP JUMPDEST JUMPDEST DUP1 DUP3 GT ISZERO PUSH1 0xC6 JUMPI PUSH0 DUP2 PUSH0 SWAP1 SSTORE POP PUSH1 0x1 ADD PUSH1 0xB2 JUMP JUMPDEST POP SWAP1 JUMP JUMPDEST PUSH2 0x562 DUP1 PUSH2 0xD7 PUSH0 CODECOPY PUSH0 RETURN INVALID PUSH1 0x80 PUSH1 0x40 MSTORE CALLVALUE DUP1 ISZERO PUSH2 0xF JUMPI PUSH0 PUSH0 REVERT JUMPDEST POP PUSH1 0x4 CALLDATASIZE LT PUSH2 0x3F JUMPI PUSH0 CALLDATALOAD PUSH1 0xE0 SHR DUP1 PUSH4 0xB94C6DFB EQ PUSH2 0x43 JUMPI DUP1 PUSH4 0xF3CE61AD EQ PUSH2 0x73 JUMPI DUP1 PUSH4 0xFC0E86EF EQ PUSH2 0xA3 JUMPI JUMPDEST PUSH0 PUSH0 REVERT JUMPDEST PUSH2 0x5D PUSH1 0x4 DUP1 CALLDATASIZE SUB DUP2 ADD SWAP1 PUSH2 0x58 SWAP2 SWAP1 PUSH2 0x2BB JUMP JUMPDEST PUSH2 0xD3 JUMP JUMPDEST PUSH1 0x40 MLOAD PUSH2 0x6A SWAP2 SWAP1 PUSH2 0x39D JUMP JUMPDEST PUSH1 0x40 MLOAD DUP1 SWAP2 SUB SWAP1 RETURN JUMPDEST PUSH2 0x8D PUSH1 0x4 DUP1 CALLDATASIZE SUB DUP2 ADD SWAP1 PUSH2 0x88 SWAP2 SWAP1 PUSH2 0x2BB JUMP JUMPDEST PUSH2 0x206 JUMP JUMPDEST PUSH1 0x40 MLOAD PUSH2 0x9A SWAP2 SWAP1 PUSH2 0x3CC JUMP JUMPDEST PUSH1 0x40 MLOAD DUP1 SWAP2 SUB SWAP1 RETURN JUMPDEST PUSH2 0xBD PUSH1 0x4 DUP1 CALLDATASIZE SUB DUP2 ADD SWAP1 PUSH2 0xB8 SWAP2 SWAP1 PUSH2 0x2BB JUMP JUMPDEST PUSH2 0x225 JUMP JUMPDEST PUSH1 0x40 MLOAD PUSH2 0xCA SWAP2 SWAP1 PUSH2 0x3CC JUMP JUMPDEST PUSH1 0x40 MLOAD DUP1 SWAP2 SUB SWAP1 RETURN JUMPDEST PUSH1 0x60 PUSH0 PUSH1 0x6 PUSH8 0xFFFFFFFFFFFFFFFF DUP2 GT ISZERO PUSH2 0xF1 JUMPI PUSH2 0xF0 PUSH2 0x3E5 JUMP JUMPDEST JUMPDEST PUSH1 0x40 MLOAD SWAP1 DUP1 DUP3 MSTORE DUP1 PUSH1 0x20 MUL PUSH1 0x20 ADD DUP3 ADD PUSH1 0x40 MSTORE DUP1 ISZERO PUSH2 0x11F JUMPI DUP2 PUSH1 0x20 ADD PUSH1 0x20 DUP3 MUL DUP1 CALLDATASIZE DUP4 CALLDATACOPY DUP1 DUP3 ADD SWAP2 POP POP SWAP1 POP JUMPDEST POP SWAP1 POP PUSH0 DUP4 SWAP1 POP PUSH0 PUSH0 SWAP1 POP JUMPDEST PUSH0 DUP1 SLOAD SWAP1 POP DUP2 LT ISZERO PUSH2 0x1FB JUMPI PUSH0 DUP2 DUP2 SLOAD DUP2 LT PUSH2 0x14A JUMPI PUSH2 0x149 PUSH2 0x412 JUMP JUMPDEST JUMPDEST SWAP1 PUSH0 MSTORE PUSH1 0x20 PUSH0 KECCAK256 ADD SLOAD DUP3 LT PUSH2 0x1CD JUMPI PUSH0 DUP2 DUP2 SLOAD DUP2 LT PUSH2 0x16C JUMPI PUSH2 0x16B PUSH2 0x412 JUMP JUMPDEST JUMPDEST SWAP1 PUSH0 MSTORE PUSH1 0x20 PUSH0 KECCAK256 ADD SLOAD DUP3 PUSH2 0x180 SWAP2 SWAP1 PUSH2 0x499 JUMP JUMPDEST DUP4 DUP3 DUP2 MLOAD DUP2 LT PUSH2 0x193 JUMPI PUSH2 0x192 PUSH2 0x412 JUMP JUMPDEST JUMPDEST PUSH1 0x20 MUL PUSH1 0x20 ADD ADD DUP2 DUP2 MSTORE POP POP PUSH0 DUP2 DUP2 SLOAD DUP2 LT PUSH2 0x1B2 JUMPI PUSH2 0x1B1 PUSH2 0x412 JUMP JUMPDEST JUMPDEST SWAP1 PUSH0 MSTORE PUSH1 0x20 PUSH0 KECCAK256 ADD SLOAD DUP3 PUSH2 0x1C6 SWAP2 SWAP1 PUSH2 0x4C9 JUMP JUMPDEST SWAP2 POP PUSH2 0x1EE JUMP JUMPDEST PUSH0 DUP4 DUP3 DUP2 MLOAD DUP2 LT PUSH2 0x1E1 JUMPI PUSH2 0x1E0 PUSH2 0x412 JUMP JUMPDEST JUMPDEST PUSH1 0x20 MUL PUSH1 0x20 ADD ADD DUP2 DUP2 MSTORE POP POP JUMPDEST DUP1 DUP1 PUSH1 0x1 ADD SWAP2 POP POP PUSH2 0x12B JUMP JUMPDEST POP DUP2 SWAP3 POP POP POP SWAP2 SWAP1 POP JUMP JUMPDEST PUSH0 DUP2 DUP2 SLOAD DUP2 LT PUSH2 0x214 JUMPI PUSH0 DUP1 REVERT JUMPDEST SWAP1 PUSH0 MSTORE PUSH1 0x20 PUSH0 KECCAK256 ADD PUSH0 SWAP2 POP SWAP1 POP SLOAD DUP2 JUMP JUMPDEST PUSH0 PUSH0 PUSH0 SWAP1 POP PUSH0 PUSH2 0x234 DUP5 PUSH2 0xD3 JUMP JUMPDEST SWAP1 POP PUSH0 PUSH0 SWAP1 POP JUMPDEST DUP2 MLOAD DUP2 LT ISZERO PUSH2 0x279 JUMPI DUP2 DUP2 DUP2 MLOAD DUP2 LT PUSH2 0x257 JUMPI PUSH2 0x256 PUSH2 0x412 JUMP JUMPDEST JUMPDEST PUSH1 0x20 MUL PUSH1 0x20 ADD ADD MLOAD DUP4 PUSH2 0x26A SWAP2 SWAP1 PUSH2 0x4F9 JUMP JUMPDEST SWAP3 POP DUP1 DUP1 PUSH1 0x1 ADD SWAP2 POP POP PUSH2 0x23B JUMP JUMPDEST POP DUP2 SWAP3 POP POP POP SWAP2 SWAP1 POP JUMP JUMPDEST PUSH0 PUSH0 REVERT JUMPDEST PUSH0 DUP2 SWAP1 POP SWAP2 SWAP1 POP JUMP JUMPDEST PUSH2 0x29A DUP2 PUSH2 0x288 JUMP JUMPDEST DUP2 EQ PUSH2 0x2A4 JUMPI PUSH0 PUSH0 REVERT JUMPDEST POP JUMP JUMPDEST PUSH0 DUP2 CALLDATALOAD SWAP1 POP PUSH2 0x2B5 DUP2 PUSH2 0x291 JUMP JUMPDEST SWAP3 SWAP2 POP POP JUMP JUMPDEST PUSH0 PUSH1 0x20 DUP3 DUP5 SUB SLT ISZERO PUSH2 0x2D0 JUMPI PUSH2 0x2CF PUSH2 0x284 JUMP JUMPDEST JUMPDEST PUSH0 PUSH2 0x2DD DUP5 DUP3 DUP6 ADD PUSH2 0x2A7 JUMP JUMPDEST SWAP2 POP POP SWAP3 SWAP2 POP POP JUMP JUMPDEST PUSH0 DUP2 MLOAD SWAP1 POP SWAP2 SWAP1 POP JUMP JUMPDEST PUSH0 DUP3 DUP3 MSTORE PUSH1 0x20 DUP3 ADD SWAP1 POP SWAP3 SWAP2 POP POP JUMP JUMPDEST PUSH0 DUP2 SWAP1 POP PUSH1 0x20 DUP3 ADD SWAP1 POP SWAP2 SWAP1 POP JUMP JUMPDEST PUSH2 0x318 DUP2 PUSH2 0x288 JUMP JUMPDEST DUP3 MSTORE POP POP JUMP JUMPDEST PUSH0 PUSH2 0x329 DUP4 DUP4 PUSH2 0x30F JUMP JUMPDEST PUSH1 0x20 DUP4 ADD SWAP1 POP SWAP3 SWAP2 POP POP JUMP JUMPDEST PUSH0 PUSH1 0x20 DUP3 ADD SWAP1 POP SWAP2 SWAP1 POP JUMP JUMPDEST PUSH0 PUSH2 0x34B DUP3 PUSH2 0x2E6 JUMP JUMPDEST PUSH2 0x355 DUP2 DUP6 PUSH2 0x2F0 JUMP JUMPDEST SWAP4 POP PUSH2 0x360 DUP4 PUSH2 0x300 JUMP JUMPDEST DUP1 PUSH0 JUMPDEST DUP4 DUP2 LT ISZERO PUSH2 0x390 JUMPI DUP2 MLOAD PUSH2 0x377 DUP9 DUP3 PUSH2 0x31E JUMP JUMPDEST SWAP8 POP PUSH2 0x382 DUP4 PUSH2 0x335 JUMP JUMPDEST SWAP3 POP POP PUSH1 0x1 DUP2 ADD SWAP1 POP PUSH2 0x363 JUMP JUMPDEST POP DUP6 SWAP4 POP POP POP POP SWAP3 SWAP2 POP POP JUMP JUMPDEST PUSH0 PUSH1 0x20 DUP3 ADD SWAP1 POP DUP2 DUP2 SUB PUSH0 DUP4 ADD MSTORE PUSH2 0x3B5 DUP2 DUP5 PUSH2 0x341 JUMP JUMPDEST SWAP1 POP SWAP3 SWAP2 POP POP JUMP JUMPDEST PUSH2 0x3C6 DUP2 PUSH2 0x288 JUMP JUMPDEST DUP3 MSTORE POP POP JUMP JUMPDEST PUSH0 PUSH1 0x20 DUP3 ADD SWAP1 POP PUSH2 0x3DF PUSH0 DUP4 ADD DUP5 PUSH2 0x3BD JUMP JUMPDEST SWAP3 SWAP2 POP POP JUMP JUMPDEST PUSH32 0x4E487B7100000000000000000000000000000000000000000000000000000000 PUSH0 MSTORE PUSH1 0x41 PUSH1 0x4 MSTORE PUSH1 0x24 PUSH0 REVERT JUMPDEST PUSH32 0x4E487B7100000000000000000000000000000000000000000000000000000000 PUSH0 MSTORE PUSH1 0x32 PUSH1 0x4 MSTORE PUSH1 0x24 PUSH0 REVERT JUMPDEST PUSH32 0x4E487B7100000000000000000000000000000000000000000000000000000000 PUSH0 MSTORE PUSH1 0x12 PUSH1 0x4 MSTORE PUSH1 0x24 PUSH0 REVERT JUMPDEST PUSH32 0x4E487B7100000000000000000000000000000000000000000000000000000000 PUSH0 MSTORE PUSH1 0x11 PUSH1 0x4 MSTORE PUSH1 0x24 PUSH0 REVERT JUMPDEST PUSH0 PUSH2 0x4A3 DUP3 PUSH2 0x288 JUMP JUMPDEST SWAP2 POP PUSH2 0x4AE DUP4 PUSH2 0x288 JUMP JUMPDEST SWAP3 POP DUP3 PUSH2 0x4BE JUMPI PUSH2 0x4BD PUSH2 0x43F JUMP JUMPDEST JUMPDEST DUP3 DUP3 DIV SWAP1 POP SWAP3 SWAP2 POP POP JUMP JUMPDEST PUSH0 PUSH2 0x4D3 DUP3 PUSH2 0x288 JUMP JUMPDEST SWAP2 POP PUSH2 0x4DE DUP4 PUSH2 0x288 JUMP JUMPDEST SWAP3 POP DUP3 PUSH2 0x4EE JUMPI PUSH2 0x4ED PUSH2 0x43F JUMP JUMPDEST JUMPDEST DUP3 DUP3 MOD SWAP1 POP SWAP3 SWAP2 POP POP JUMP JUMPDEST PUSH0 PUSH2 0x503 DUP3 PUSH2 0x288 JUMP JUMPDEST SWAP2 POP PUSH2 0x50E DUP4 PUSH2 0x288 JUMP JUMPDEST SWAP3 POP DUP3 DUP3 ADD SWAP1 POP DUP1 DUP3 GT ISZERO PUSH2 0x526 JUMPI PUSH2 0x525 PUSH2 0x46C JUMP JUMPDEST JUMPDEST SWAP3 SWAP2 POP POP JUMP INVALID LOG2 PUSH5 0x6970667358 0x22 SLT KECCAK256 PUSH29 0xA537E5A2CB7057E3C3FC775BA0B72F1B25DB43EA8FB8CC200F7BFA82F4 0xB2 BALANCE PUSH5 0x736F6C6343 STOP ADDMOD SAR STOP CALLER "
				},
				"gasEstimates": {
					"creation": {
						"codeDepositCost": "275600",
						"executionCost": "infinite",
						"totalCost": "infinite"
					},
					"external": {
						"calculateMinimumNotes(uint256)": "infinite",
						"denominations(uint256)": "infinite",
						"totalNotesCount(uint256)": "infinite"
					}
				},
				"methodIdentifiers": {
					"calculateMinimumNotes(uint256)": "b94c6dfb",
					"denominations(uint256)": "f3ce61ad",
					"totalNotesCount(uint256)": "fc0e86ef"
				}
			},
			"storageLayout": {
				"storage": [
					{
						"astId": 11,
						"contract": "Practice/P6.sol:currency",
						"label": "denominations",
						"offset": 0,
						"slot": "0",
						"type": "t_array(t_uint256)dyn_storage"
					}
				],
				"types": {
					"t_array(t_uint256)dyn_storage": {
						"base": "t_uint256",
						"encoding": "dynamic_array",
						"label": "uint256[]",
						"numberOfBytes": "32"
					},
					"t_uint256": {
						"encoding": "inplace",
						"label": "uint256",
						"numberOfBytes": "32"
					}
				}
			},
			"userdoc": {
				"kind": "user",
				"methods": {},
				"version": 1
			}
		}
	}
}