{
	"Practice/P7.sol": {
		"salaryCalculator": {
			"abi": [
				{
					"inputs": [],
					"name": "DA",
					"outputs": [
						{
							"internalType": "uint256",
							"name": "",
							"type": "uint256"
						}
					],
					"stateMutability": "view",
					"type": "function"
				},
				{
					"inputs": [],
					"name": "HRA",
					"outputs": [
						{
							"internalType": "uint256",
							"name": "",
							"type": "uint256"
						}
					],
					"stateMutability": "view",
					"type": "function"
				},
				{
					"inputs": [],
					"name": "basic",
					"outputs": [
						{
							"internalType": "uint256",
							"name": "",
							"type": "uint256"
						}
					],
					"stateMutability": "view",
					"type": "function"
				},
				{
					"inputs": [
						{
							"internalType": "uint256",
							"name": "_basic",
							"type": "uint256"
						},
						{
							"internalType": "uint256",
							"name": "_DA",
							"type": "uint256"
						},
						{
							"internalType": "uint256",
							"name": "_HRA",
							"type": "uint256"
						}
					],
					"name": "setSalary",
					"outputs": [],
					"stateMutability": "nonpayable",
					"type": "function"
				},
				{
					"inputs": [],
					"name": "totalPay",
					"outputs": [
						{
							"internalType": "uint256",
							"name": "",
							"type": "uint256"
						}
					],
					"stateMutability": "view",
					"type": "function"
				}
			],
			"devdoc": {
				"kind": "dev",
				"methods": {},
				"version": 1
			},
			"evm": {
				"assembly": "    /* \"Practice/P7.sol\":62:455  contract salaryCalculator {... */\n  mstore(0x40, 0x80)\n    /* \"Practice/P7.sol\":118:119  0 */\n  0x00\n    /* \"Practice/P7.sol\":95:119  uint256 public basic = 0 */\n  0x00\n  sstore\n    /* \"Practice/P7.sol\":146:147  0 */\n  0x00\n    /* \"Practice/P7.sol\":126:147  uint256 public DA = 0 */\n  0x01\n  sstore\n    /* \"Practice/P7.sol\":175:176  0 */\n  0x00\n    /* \"Practice/P7.sol\":154:176  uint256 public HRA = 0 */\n  0x02\n  sstore\n    /* \"Practice/P7.sol\":62:455  contract salaryCalculator {... */\n  callvalue\n  dup1\n  iszero\n  tag_1\n  jumpi\n  revert(0x00, 0x00)\ntag_1:\n  pop\n  dataSize(sub_0)\n  dup1\n  dataOffset(sub_0)\n  0x00\n  codecopy\n  0x00\n  return\nstop\n\nsub_0: assembly {\n        /* \"Practice/P7.sol\":62:455  contract salaryCalculator {... */\n      mstore(0x40, 0x80)\n      callvalue\n      dup1\n      iszero\n      tag_1\n      jumpi\n      revert(0x00, 0x00)\n    tag_1:\n      pop\n      jumpi(tag_2, lt(calldatasize, 0x04))\n      shr(0xe0, calldataload(0x00))\n      dup1\n      0x0c395781\n      eq\n      tag_3\n      jumpi\n      dup1\n      0x15e8b345\n      eq\n      tag_4\n      jumpi\n      dup1\n      0x230604ac\n      eq\n      tag_5\n      jumpi\n      dup1\n      0x5bee29be\n      eq\n      tag_6\n      jumpi\n      dup1\n      0xe154adf5\n      eq\n      tag_7\n      jumpi\n    tag_2:\n      revert(0x00, 0x00)\n        /* \"Practice/P7.sol\":126:147  uint256 public DA = 0 */\n    tag_3:\n      tag_8\n      tag_9\n      jump\t// in\n    tag_8:\n      mload(0x40)\n      tag_10\n      swap2\n      swap1\n      tag_11\n      jump\t// in\n    tag_10:\n      mload(0x40)\n      dup1\n      swap2\n      sub\n      swap1\n      return\n        /* \"Practice/P7.sol\":95:119  uint256 public basic = 0 */\n    tag_4:\n      tag_12\n      tag_13\n      jump\t// in\n    tag_12:\n      mload(0x40)\n      tag_14\n      swap2\n      swap1\n      tag_11\n      jump\t// in\n    tag_14:\n      mload(0x40)\n      dup1\n      swap2\n      sub\n      swap1\n      return\n        /* \"Practice/P7.sol\":154:176  uint256 public HRA = 0 */\n    tag_5:\n      tag_15\n      tag_16\n      jump\t// in\n    tag_15:\n      mload(0x40)\n      tag_17\n      swap2\n      swap1\n      tag_11\n      jump\t// in\n    tag_17:\n      mload(0x40)\n      dup1\n      swap2\n      sub\n      swap1\n      return\n        /* \"Practice/P7.sol\":185:327  function setSalary(uint256 _basic, uint256 _DA, uint256 _HRA) public {... */\n    tag_6:\n      tag_18\n      0x04\n      dup1\n      calldatasize\n      sub\n      dup2\n      add\n      swap1\n      tag_19\n      swap2\n      swap1\n      tag_20\n      jump\t// in\n    tag_19:\n      tag_21\n      jump\t// in\n    tag_18:\n      stop\n        /* \"Practice/P7.sol\":335:452  function totalPay() public view returns(uint256) {... */\n    tag_7:\n      tag_22\n      tag_23\n      jump\t// in\n    tag_22:\n      mload(0x40)\n      tag_24\n      swap2\n      swap1\n      tag_11\n      jump\t// in\n    tag_24:\n      mload(0x40)\n      dup1\n      swap2\n      sub\n      swap1\n      return\n        /* \"Practice/P7.sol\":126:147  uint256 public DA = 0 */\n    tag_9:\n      sload(0x01)\n      dup2\n      jump\t// out\n        /* \"Practice/P7.sol\":95:119  uint256 public basic = 0 */\n    tag_13:\n      sload(0x00)\n      dup2\n      jump\t// out\n        /* \"Practice/P7.sol\":154:176  uint256 public HRA = 0 */\n    tag_16:\n      sload(0x02)\n      dup2\n      jump\t// out\n        /* \"Practice/P7.sol\":185:327  function setSalary(uint256 _basic, uint256 _DA, uint256 _HRA) public {... */\n    tag_21:\n        /* \"Practice/P7.sol\":273:279  _basic */\n      dup3\n        /* \"Practice/P7.sol\":265:270  basic */\n      0x00\n        /* \"Practice/P7.sol\":265:279  basic = _basic */\n      dup2\n      swap1\n      sstore\n      pop\n        /* \"Practice/P7.sol\":295:298  _DA */\n      dup2\n        /* \"Practice/P7.sol\":290:292  DA */\n      0x01\n        /* \"Practice/P7.sol\":290:298  DA = _DA */\n      dup2\n      swap1\n      sstore\n      pop\n        /* \"Practice/P7.sol\":315:319  _HRA */\n      dup1\n        /* \"Practice/P7.sol\":309:312  HRA */\n      0x02\n        /* \"Practice/P7.sol\":309:319  HRA = _HRA */\n      dup2\n      swap1\n      sstore\n      pop\n        /* \"Practice/P7.sol\":185:327  function setSalary(uint256 _basic, uint256 _DA, uint256 _HRA) public {... */\n      pop\n      pop\n      pop\n      jump\t// out\n        /* \"Practice/P7.sol\":335:452  function totalPay() public view returns(uint256) {... */\n    tag_23:\n        /* \"Practice/P7.sol\":375:382  uint256 */\n      0x00\n        /* \"Practice/P7.sol\":442:443  1 */\n      0x01\n        /* \"Practice/P7.sol\":435:440  basic */\n      sload(0x00)\n        /* \"Practice/P7.sol\":429:432  HRA */\n      sload(0x02)\n        /* \"Practice/P7.sol\":429:440  HRA * basic */\n      tag_27\n      swap2\n      swap1\n      tag_28\n      jump\t// in\n    tag_27:\n        /* \"Practice/P7.sol\":428:443  (HRA * basic)/1 */\n      tag_29\n      swap2\n      swap1\n      tag_30\n      jump\t// in\n    tag_29:\n        /* \"Practice/P7.sol\":422:425  100 */\n      0x64\n        /* \"Practice/P7.sol\":416:421  basic */\n      sload(0x00)\n        /* \"Practice/P7.sol\":411:413  DA */\n      sload(0x01)\n        /* \"Practice/P7.sol\":411:421  DA * basic */\n      tag_31\n      swap2\n      swap1\n      tag_28\n      jump\t// in\n    tag_31:\n        /* \"Practice/P7.sol\":411:425  DA * basic/100 */\n      tag_32\n      swap2\n      swap1\n      tag_30\n      jump\t// in\n    tag_32:\n        /* \"Practice/P7.sol\":411:443  DA * basic/100 + (HRA * basic)/1 */\n      tag_33\n      swap2\n      swap1\n      tag_34\n      jump\t// in\n    tag_33:\n        /* \"Practice/P7.sol\":402:407  basic */\n      sload(0x00)\n        /* \"Practice/P7.sol\":402:444  basic + (DA * basic/100 + (HRA * basic)/1) */\n      tag_35\n      swap2\n      swap1\n      tag_34\n      jump\t// in\n    tag_35:\n        /* \"Practice/P7.sol\":395:444  return basic + (DA * basic/100 + (HRA * basic)/1) */\n      swap1\n      pop\n        /* \"Practice/P7.sol\":335:452  function totalPay() public view returns(uint256) {... */\n      swap1\n      jump\t// out\n        /* \"#utility.yul\":7:84   */\n    tag_36:\n        /* \"#utility.yul\":44:51   */\n      0x00\n        /* \"#utility.yul\":73:78   */\n      dup2\n        /* \"#utility.yul\":62:78   */\n      swap1\n      pop\n        /* \"#utility.yul\":7:84   */\n      swap2\n      swap1\n      pop\n      jump\t// out\n        /* \"#utility.yul\":90:208   */\n    tag_37:\n        /* \"#utility.yul\":177:201   */\n      tag_48\n        /* \"#utility.yul\":195:200   */\n      dup2\n        /* \"#utility.yul\":177:201   */\n      tag_36\n      jump\t// in\n    tag_48:\n        /* \"#utility.yul\":172:175   */\n      dup3\n        /* \"#utility.yul\":165:202   */\n      mstore\n        /* \"#utility.yul\":90:208   */\n      pop\n      pop\n      jump\t// out\n        /* \"#utility.yul\":214:436   */\n    tag_11:\n        /* \"#utility.yul\":307:311   */\n      0x00\n        /* \"#utility.yul\":345:347   */\n      0x20\n        /* \"#utility.yul\":334:343   */\n      dup3\n        /* \"#utility.yul\":330:348   */\n      add\n        /* \"#utility.yul\":322:348   */\n      swap1\n      pop\n        /* \"#utility.yul\":358:429   */\n      tag_50\n        /* \"#utility.yul\":426:427   */\n      0x00\n        /* \"#utility.yul\":415:424   */\n      dup4\n        /* \"#utility.yul\":411:428   */\n      add\n        /* \"#utility.yul\":402:408   */\n      dup5\n        /* \"#utility.yul\":358:429   */\n      tag_37\n      jump\t// in\n    tag_50:\n        /* \"#utility.yul\":214:436   */\n      swap3\n      swap2\n      pop\n      pop\n      jump\t// out\n        /* \"#utility.yul\":523:640   */\n    tag_39:\n        /* \"#utility.yul\":632:633   */\n      0x00\n        /* \"#utility.yul\":629:630   */\n      0x00\n        /* \"#utility.yul\":622:634   */\n      revert\n        /* \"#utility.yul\":769:891   */\n    tag_41:\n        /* \"#utility.yul\":842:866   */\n      tag_55\n        /* \"#utility.yul\":860:865   */\n      dup2\n        /* \"#utility.yul\":842:866   */\n      tag_36\n      jump\t// in\n    tag_55:\n        /* \"#utility.yul\":835:840   */\n      dup2\n        /* \"#utility.yul\":832:867   */\n      eq\n        /* \"#utility.yul\":822:885   */\n      tag_56\n      jumpi\n        /* \"#utility.yul\":881:882   */\n      0x00\n        /* \"#utility.yul\":878:879   */\n      0x00\n        /* \"#utility.yul\":871:883   */\n      revert\n        /* \"#utility.yul\":822:885   */\n    tag_56:\n        /* \"#utility.yul\":769:891   */\n      pop\n      jump\t// out\n        /* \"#utility.yul\":897:1036   */\n    tag_42:\n        /* \"#utility.yul\":943:948   */\n      0x00\n        /* \"#utility.yul\":981:987   */\n      dup2\n        /* \"#utility.yul\":968:988   */\n      calldataload\n        /* \"#utility.yul\":959:988   */\n      swap1\n      pop\n        /* \"#utility.yul\":997:1030   */\n      tag_58\n        /* \"#utility.yul\":1024:1029   */\n      dup2\n        /* \"#utility.yul\":997:1030   */\n      tag_41\n      jump\t// in\n    tag_58:\n        /* \"#utility.yul\":897:1036   */\n      swap3\n      swap2\n      pop\n      pop\n      jump\t// out\n        /* \"#utility.yul\":1042:1661   */\n    tag_20:\n        /* \"#utility.yul\":1119:1125   */\n      0x00\n        /* \"#utility.yul\":1127:1133   */\n      0x00\n        /* \"#utility.yul\":1135:1141   */\n      0x00\n        /* \"#utility.yul\":1184:1186   */\n      0x60\n        /* \"#utility.yul\":1172:1181   */\n      dup5\n        /* \"#utility.yul\":1163:1170   */\n      dup7\n        /* \"#utility.yul\":1159:1182   */\n      sub\n        /* \"#utility.yul\":1155:1187   */\n      slt\n        /* \"#utility.yul\":1152:1271   */\n      iszero\n      tag_60\n      jumpi\n        /* \"#utility.yul\":1190:1269   */\n      tag_61\n      tag_39\n      jump\t// in\n    tag_61:\n        /* \"#utility.yul\":1152:1271   */\n    tag_60:\n        /* \"#utility.yul\":1310:1311   */\n      0x00\n        /* \"#utility.yul\":1335:1388   */\n      tag_62\n        /* \"#utility.yul\":1380:1387   */\n      dup7\n        /* \"#utility.yul\":1371:1377   */\n      dup3\n        /* \"#utility.yul\":1360:1369   */\n      dup8\n        /* \"#utility.yul\":1356:1378   */\n      add\n        /* \"#utility.yul\":1335:1388   */\n      tag_42\n      jump\t// in\n    tag_62:\n        /* \"#utility.yul\":1325:1388   */\n      swap4\n      pop\n        /* \"#utility.yul\":1281:1398   */\n      pop\n        /* \"#utility.yul\":1437:1439   */\n      0x20\n        /* \"#utility.yul\":1463:1516   */\n      tag_63\n        /* \"#utility.yul\":1508:1515   */\n      dup7\n        /* \"#utility.yul\":1499:1505   */\n      dup3\n        /* \"#utility.yul\":1488:1497   */\n      dup8\n        /* \"#utility.yul\":1484:1506   */\n      add\n        /* \"#utility.yul\":1463:1516   */\n      tag_42\n      jump\t// in\n    tag_63:\n        /* \"#utility.yul\":1453:1516   */\n      swap3\n      pop\n        /* \"#utility.yul\":1408:1526   */\n      pop\n        /* \"#utility.yul\":1565:1567   */\n      0x40\n        /* \"#utility.yul\":1591:1644   */\n      tag_64\n        /* \"#utility.yul\":1636:1643   */\n      dup7\n        /* \"#utility.yul\":1627:1633   */\n      dup3\n        /* \"#utility.yul\":1616:1625   */\n      dup8\n        /* \"#utility.yul\":1612:1634   */\n      add\n        /* \"#utility.yul\":1591:1644   */\n      tag_42\n      jump\t// in\n    tag_64:\n        /* \"#utility.yul\":1581:1644   */\n      swap2\n      pop\n        /* \"#utility.yul\":1536:1654   */\n      pop\n        /* \"#utility.yul\":1042:1661   */\n      swap3\n      pop\n      swap3\n      pop\n      swap3\n      jump\t// out\n        /* \"#utility.yul\":1667:1847   */\n    tag_43:\n        /* \"#utility.yul\":1715:1792   */\n      0x4e487b7100000000000000000000000000000000000000000000000000000000\n        /* \"#utility.yul\":1712:1713   */\n      0x00\n        /* \"#utility.yul\":1705:1793   */\n      mstore\n        /* \"#utility.yul\":1812:1816   */\n      0x11\n        /* \"#utility.yul\":1809:1810   */\n      0x04\n        /* \"#utility.yul\":1802:1817   */\n      mstore\n        /* \"#utility.yul\":1836:1840   */\n      0x24\n        /* \"#utility.yul\":1833:1834   */\n      0x00\n        /* \"#utility.yul\":1826:1841   */\n      revert\n        /* \"#utility.yul\":1853:2263   */\n    tag_28:\n        /* \"#utility.yul\":1893:1900   */\n      0x00\n        /* \"#utility.yul\":1916:1936   */\n      tag_67\n        /* \"#utility.yul\":1934:1935   */\n      dup3\n        /* \"#utility.yul\":1916:1936   */\n      tag_36\n      jump\t// in\n    tag_67:\n        /* \"#utility.yul\":1911:1936   */\n      swap2\n      pop\n        /* \"#utility.yul\":1950:1970   */\n      tag_68\n        /* \"#utility.yul\":1968:1969   */\n      dup4\n        /* \"#utility.yul\":1950:1970   */\n      tag_36\n      jump\t// in\n    tag_68:\n        /* \"#utility.yul\":1945:1970   */\n      swap3\n      pop\n        /* \"#utility.yul\":2005:2006   */\n      dup3\n        /* \"#utility.yul\":2002:2003   */\n      dup3\n        /* \"#utility.yul\":1998:2007   */\n      mul\n        /* \"#utility.yul\":2027:2057   */\n      tag_69\n        /* \"#utility.yul\":2045:2056   */\n      dup2\n        /* \"#utility.yul\":2027:2057   */\n      tag_36\n      jump\t// in\n    tag_69:\n        /* \"#utility.yul\":2016:2057   */\n      swap2\n      pop\n        /* \"#utility.yul\":2206:2207   */\n      dup3\n        /* \"#utility.yul\":2197:2204   */\n      dup3\n        /* \"#utility.yul\":2193:2208   */\n      div\n        /* \"#utility.yul\":2190:2191   */\n      dup5\n        /* \"#utility.yul\":2187:2209   */\n      eq\n        /* \"#utility.yul\":2167:2168   */\n      dup4\n        /* \"#utility.yul\":2160:2169   */\n      iszero\n        /* \"#utility.yul\":2140:2223   */\n      or\n        /* \"#utility.yul\":2117:2256   */\n      tag_70\n      jumpi\n        /* \"#utility.yul\":2236:2254   */\n      tag_71\n      tag_43\n      jump\t// in\n    tag_71:\n        /* \"#utility.yul\":2117:2256   */\n    tag_70:\n        /* \"#utility.yul\":1901:2263   */\n      pop\n        /* \"#utility.yul\":1853:2263   */\n      swap3\n      swap2\n      pop\n      pop\n      jump\t// out\n        /* \"#utility.yul\":2269:2449   */\n    tag_44:\n        /* \"#utility.yul\":2317:2394   */\n      0x4e487b7100000000000000000000000000000000000000000000000000000000\n        /* \"#utility.yul\":2314:2315   */\n      0x00\n        /* \"#utility.yul\":2307:2395   */\n      mstore\n        /* \"#utility.yul\":2414:2418   */\n      0x12\n        /* \"#utility.yul\":2411:2412   */\n      0x04\n        /* \"#utility.yul\":2404:2419   */\n      mstore\n        /* \"#utility.yul\":2438:2442   */\n      0x24\n        /* \"#utility.yul\":2435:2436   */\n      0x00\n        /* \"#utility.yul\":2428:2443   */\n      revert\n        /* \"#utility.yul\":2455:2640   */\n    tag_30:\n        /* \"#utility.yul\":2495:2496   */\n      0x00\n        /* \"#utility.yul\":2512:2532   */\n      tag_74\n        /* \"#utility.yul\":2530:2531   */\n      dup3\n        /* \"#utility.yul\":2512:2532   */\n      tag_36\n      jump\t// in\n    tag_74:\n        /* \"#utility.yul\":2507:2532   */\n      swap2\n      pop\n        /* \"#utility.yul\":2546:2566   */\n      tag_75\n        /* \"#utility.yul\":2564:2565   */\n      dup4\n        /* \"#utility.yul\":2546:2566   */\n      tag_36\n      jump\t// in\n    tag_75:\n        /* \"#utility.yul\":2541:2566   */\n      swap3\n      pop\n        /* \"#utility.yul\":2585:2586   */\n      dup3\n        /* \"#utility.yul\":2575:2610   */\n      tag_76\n      jumpi\n        /* \"#utility.yul\":2590:2608   */\n      tag_77\n      tag_44\n      jump\t// in\n    tag_77:\n        /* \"#utility.yul\":2575:2610   */\n    tag_76:\n        /* \"#utility.yul\":2632:2633   */\n      dup3\n        /* \"#utility.yul\":2629:2630   */\n      dup3\n        /* \"#utility.yul\":2625:2634   */\n      div\n        /* \"#utility.yul\":2620:2634   */\n      swap1\n      pop\n        /* \"#utility.yul\":2455:2640   */\n      swap3\n      swap2\n      pop\n      pop\n      jump\t// out\n        /* \"#utility.yul\":2646:2837   */\n    tag_34:\n        /* \"#utility.yul\":2686:2689   */\n      0x00\n        /* \"#utility.yul\":2705:2725   */\n      tag_79\n        /* \"#utility.yul\":2723:2724   */\n      dup3\n        /* \"#utility.yul\":2705:2725   */\n      tag_36\n      jump\t// in\n    tag_79:\n        /* \"#utility.yul\":2700:2725   */\n      swap2\n      pop\n        /* \"#utility.yul\":2739:2759   */\n      tag_80\n        /* \"#utility.yul\":2757:2758   */\n      dup4\n        /* \"#utility.yul\":2739:2759   */\n      tag_36\n      jump\t// in\n    tag_80:\n        /* \"#utility.yul\":2734:2759   */\n      swap3\n      pop\n        /* \"#utility.yul\":2782:2783   */\n      dup3\n        /* \"#utility.yul\":2779:2780   */\n      dup3\n        /* \"#utility.yul\":2775:2784   */\n      add\n        /* \"#utility.yul\":2768:2784   */\n      swap1\n      pop\n        /* \"#utility.yul\":2803:2806   */\n      dup1\n        /* \"#utility.yul\":2800:2801   */\n      dup3\n        /* \"#utility.yul\":2797:2807   */\n      gt\n        /* \"#utility.yul\":2794:2830   */\n      iszero\n      tag_81\n      jumpi\n        /* \"#utility.yul\":2810:2828   */\n      tag_82\n      tag_43\n      jump\t// in\n    tag_82:\n        /* \"#utility.yul\":2794:2830   */\n    tag_81:\n        /* \"#utility.yul\":2646:2837   */\n      swap3\n      swap2\n      pop\n      pop\n      jump\t// out\n\n    auxdata: 0xa2646970667358221220efd8803f567f3cae31d8ce51ca1010f88f490e25a6b79730a9f5627ec495ddac64736f6c634300081d0033\n}\n",
				"bytecode": {
					"linkReferences": {},
					"object": "60806040525f5f555f6001555f6002553480156019575f5ffd5b5061034c806100275f395ff3fe608060405234801561000f575f5ffd5b5060043610610055575f3560e01c80630c3957811461005957806315e8b34514610077578063230604ac146100955780635bee29be146100b3578063e154adf5146100cf575b5f5ffd5b6100616100ed565b60405161006e9190610181565b60405180910390f35b61007f6100f3565b60405161008c9190610181565b60405180910390f35b61009d6100f8565b6040516100aa9190610181565b60405180910390f35b6100cd60048036038101906100c891906101c8565b6100fe565b005b6100d7610117565b6040516100e49190610181565b60405180910390f35b60015481565b5f5481565b60025481565b825f819055508160018190555080600281905550505050565b5f60015f546002546101299190610245565b61013391906102b3565b60645f546001546101449190610245565b61014e91906102b3565b61015891906102e3565b5f5461016491906102e3565b905090565b5f819050919050565b61017b81610169565b82525050565b5f6020820190506101945f830184610172565b92915050565b5f5ffd5b6101a781610169565b81146101b1575f5ffd5b50565b5f813590506101c28161019e565b92915050565b5f5f5f606084860312156101df576101de61019a565b5b5f6101ec868287016101b4565b93505060206101fd868287016101b4565b925050604061020e868287016101b4565b9150509250925092565b7f4e487b71000000000000000000000000000000000000000000000000000000005f52601160045260245ffd5b5f61024f82610169565b915061025a83610169565b925082820261026881610169565b9150828204841483151761027f5761027e610218565b5b5092915050565b7f4e487b71000000000000000000000000000000000000000000000000000000005f52601260045260245ffd5b5f6102bd82610169565b91506102c883610169565b9250826102d8576102d7610286565b5b828204905092915050565b5f6102ed82610169565b91506102f883610169565b92508282019050808211156103105761030f610218565b5b9291505056fea2646970667358221220efd8803f567f3cae31d8ce51ca1010f88f490e25a6b79730a9f5627ec495ddac64736f6c634300081d0033",
					"opcodes": "PUSH1 0x80 PUSH1 0x40 MSTORE PUSH0 PUSH0 SSTORE PUSH0 PUSH1 0x1 SSTORE PUSH0 PUSH1 0x2 SSTORE CALLVALUE DUP1 ISZERO PUSH1 0x19 JUMPI PUSH0 PUSH0 REVERT JUMPDEST POP PUSH2 0x34C DUP1 PUSH2 0x27 PUSH0 CODECOPY PUSH0 RETURN INVALID PUSH1 0x80 PUSH1 0x40 MSTORE CALLVALUE DUP1 ISZERO PUSH2 0xF JUMPI PUSH0 PUSH0 REVERT JUMPDEST POP PUSH1 0x4 CALLDATASIZE LT PUSH2 0x55 JUMPI PUSH0 CALLDATALOAD PUSH1 0xE0 SHR DUP1 PUSH4 0xC395781 EQ PUSH2 0x59 JUMPI DUP1 PUSH4 0x15E8B345 EQ PUSH2 0x77 JUMPI DUP1 PUSH4 0x230604AC EQ PUSH2 0x95 JUMPI DUP1 PUSH4 0x5BEE29BE EQ PUSH2 0xB3 JUMPI DUP1 PUSH4 0xE154ADF5 EQ PUSH2 0xCF JUMPI JUMPDEST PUSH0 PUSH0 REVERT JUMPDEST PUSH2 0x61 PUSH2 0xED JUMP JUMPDEST PUSH1 0x40 MLOAD PUSH2 0x6E SWAP2 SWAP1 PUSH2 0x181 JUMP JUMPDEST PUSH1 0x40 MLOAD DUP1 SWAP2 SUB SWAP1 RETURN JUMPDEST PUSH2 0x7F PUSH2 0xF3 JUMP JUMPDEST PUSH1 0x40 MLOAD PUSH2 0x8C SWAP2 SWAP1 PUSH2 0x181 JUMP JUMPDEST PUSH1 0x40 MLOAD DUP1 SWAP2 SUB SWAP1 RETURN JUMPDEST PUSH2 0x9D PUSH2 0xF8 JUMP JUMPDEST PUSH1 0x40 MLOAD PUSH2 0xAA SWAP2 SWAP1 PUSH2 0x181 JUMP JUMPDEST PUSH1 0x40 MLOAD DUP1 SWAP2 SUB SWAP1 RETURN JUMPDEST PUSH2 0xCD PUSH1 0x4 DUP1 CALLDATASIZE SUB DUP2 ADD SWAP1 PUSH2 0xC8 SWAP2 SWAP1 PUSH2 0x1C8 JUMP JUMPDEST PUSH2 0xFE JUMP JUMPDEST STOP JUMPDEST PUSH2 0xD7 PUSH2 0x117 JUMP JUMPDEST PUSH1 0x40 MLOAD PUSH2 0xE4 SWAP2 SWAP1 PUSH2 0x181 JUMP JUMPDEST PUSH1 0x40 MLOAD DUP1 SWAP2 SUB SWAP1 RETURN JUMPDEST PUSH1 0x1 SLOAD DUP2 JUMP JUMPDEST PUSH0 SLOAD DUP2 JUMP JUMPDEST PUSH1 0x2 SLOAD DUP2 JUMP JUMPDEST DUP3 PUSH0 DUP2 SWAP1 SSTORE POP DUP2 PUSH1 0x1 DUP2 SWAP1 SSTORE POP DUP1 PUSH1 0x2 DUP2 SWAP1 SSTORE POP POP POP POP JUMP JUMPDEST PUSH0 PUSH1 0x1 PUSH0 SLOAD PUSH1 0x2 SLOAD PUSH2 0x129 SWAP2 SWAP1 PUSH2 0x245 JUMP JUMPDEST PUSH2 0x133 SWAP2 SWAP1 PUSH2 0x2B3 JUMP JUMPDEST PUSH1 0x64 PUSH0 SLOAD PUSH1 0x1 SLOAD PUSH2 0x144 SWAP2 SWAP1 PUSH2 0x245 JUMP JUMPDEST PUSH2 0x14E SWAP2 SWAP1 PUSH2 0x2B3 JUMP JUMPDEST PUSH2 0x158 SWAP2 SWAP1 PUSH2 0x2E3 JUMP JUMPDEST PUSH0 SLOAD PUSH2 0x164 SWAP2 SWAP1 PUSH2 0x2E3 JUMP JUMPDEST SWAP1 POP SWAP1 JUMP JUMPDEST PUSH0 DUP2 SWAP1 POP SWAP2 SWAP1 POP JUMP JUMPDEST PUSH2 0x17B DUP2 PUSH2 0x169 JUMP JUMPDEST DUP3 MSTORE POP POP JUMP JUMPDEST PUSH0 PUSH1 0x20 DUP3 ADD SWAP1 POP PUSH2 0x194 PUSH0 DUP4 ADD DUP5 PUSH2 0x172 JUMP JUMPDEST SWAP3 SWAP2 POP POP JUMP JUMPDEST PUSH0 PUSH0 REVERT JUMPDEST PUSH2 0x1A7 DUP2 PUSH2 0x169 JUMP JUMPDEST DUP2 EQ PUSH2 0x1B1 JUMPI PUSH0 PUSH0 REVERT JUMPDEST POP JUMP JUMPDEST PUSH0 DUP2 CALLDATALOAD SWAP1 POP PUSH2 0x1C2 DUP2 PUSH2 0x19E JUMP JUMPDEST SWAP3 SWAP2 POP POP JUMP JUMPDEST PUSH0 PUSH0 PUSH0 PUSH1 0x60 DUP5 DUP7 SUB SLT ISZERO PUSH2 0x1DF JUMPI PUSH2 0x1DE PUSH2 0x19A JUMP JUMPDEST JUMPDEST PUSH0 PUSH2 0x1EC DUP7 DUP3 DUP8 ADD PUSH2 0x1B4 JUMP JUMPDEST SWAP4 POP POP PUSH1 0x20 PUSH2 0x1FD DUP7 DUP3 DUP8 ADD PUSH2 0x1B4 JUMP JUMPDEST SWAP3 POP POP PUSH1 0x40 PUSH2 0x20E DUP7 DUP3 DUP8 ADD PUSH2 0x1B4 JUMP JUMPDEST SWAP2 POP POP SWAP3 POP SWAP3 POP SWAP3 JUMP JUMPDEST PUSH32 0x4E487B7100000000000000000000000000000000000000000000000000000000 PUSH0 MSTORE PUSH1 0x11 PUSH1 0x4 MSTORE PUSH1 0x24 PUSH0 REVERT JUMPDEST PUSH0 PUSH2 0x24F DUP3 PUSH2 0x169 JUMP JUMPDEST SWAP2 POP PUSH2 0x25A DUP4 PUSH2 0x169 JUMP JUMPDEST SWAP3 POP DUP3 DUP3 MUL PUSH2 0x268 DUP2 PUSH2 0x169 JUMP JUMPDEST SWAP2 POP DUP3 DUP3 DIV DUP5 EQ DUP4 ISZERO OR PUSH2 0x27F JUMPI PUSH2 0x27E PUSH2 0x218 JUMP JUMPDEST JUMPDEST POP SWAP3 SWAP2 POP POP JUMP JUMPDEST PUSH32 0x4E487B7100000000000000000000000000000000000000000000000000000000 PUSH0 MSTORE PUSH1 0x12 PUSH1 0x4 MSTORE PUSH1 0x24 PUSH0 REVERT JUMPDEST PUSH0 PUSH2 0x2BD DUP3 PUSH2 0x169 JUMP JUMPDEST SWAP2 POP PUSH2 0x2C8 DUP4 PUSH2 0x169 JUMP JUMPDEST SWAP3 POP DUP3 PUSH2 0x2D8 JUMPI PUSH2 0x2D7 PUSH2 0x286 JUMP JUMPDEST JUMPDEST DUP3 DUP3 DIV SWAP1 POP SWAP3 SWAP2 POP POP JUMP JUMPDEST PUSH0 PUSH2 0x2ED DUP3 PUSH2 0x169 JUMP JUMPDEST SWAP2 POP PUSH2 0x2F8 DUP4 PUSH2 0x169 JUMP JUMPDEST SWAP3 POP DUP3 DUP3 ADD SWAP1 POP DUP1 DUP3 GT ISZERO PUSH2 0x310 JUMPI PUSH2 0x30F PUSH2 0x218 JUMP JUMPDEST JUMPDEST SWAP3 SWAP2 POP POP JUMP INVALID LOG2 PUSH5 0x6970667358 0x22 SLT KECCAK256 0xEF 0xD8 DUP1 EXTCODEHASH JUMP PUSH32 0x3CAE31D8CE51CA1010F88F490E25A6B79730A9F5627EC495DDAC64736F6C6343 STOP ADDMOD SAR STOP CALLER "
				},
				"gasEstimates": {
					"creation": {
						"codeDepositCost": "168800",
						"executionCost": "15226",
						"totalCost": "184026"
					},
					"external": {
						"DA()": "2403",
						"HRA()": "2447",
						"basic()": "2424",
						"setSalary(uint256,uint256,uint256)": "infinite",
						"totalPay()": "infinite"
					}
				},
				"methodIdentifiers": {
					"DA()": "0c395781",
					"HRA()": "230604ac",
					"basic()": "15e8b345",
					"setSalary(uint256,uint256,uint256)": "5bee29be",
					"totalPay()": "e154adf5"
				}
			},
			"storageLayout": {
				"storage": [
					{
						"astId": 4,
						"contract": "Practice/P7.sol:salaryCalculator",
						"label": "basic",
						"offset": 0,
						"slot": "0",
						"type": "t_uint256"
					},
					{
						"astId": 7,
						"contract": "Practice/P7.sol:salaryCalculator",
						"label": "DA",
						"offset": 0,
						"slot": "1",
						"type": "t_uint256"
					},
					{
						"astId": 10,
						"contract": "Practice/P7.sol:salaryCalculator",
						"label": "HRA",
						"offset": 0,
						"slot": "2",
						"type": "t_uint256"
					}
				],
				"types": {
					"t_uint256": {
						"encoding": "inplace",
						"label": "uint256",
						"numberOfBytes": "32"
					}
				}
			},
			"userdoc": {
				"kind": "user",
				"methods": {},
				"version": 1
			}
		}
	}
}