{
	"Practice/P9.sol": {
		"minMax": {
			"abi": [
				{
					"inputs": [
						{
							"internalType": "int256",
							"name": "_a",
							"type": "int256"
						},
						{
							"internalType": "int256",
							"name": "_b",
							"type": "int256"
						},
						{
							"internalType": "int256",
							"name": "_c",
							"type": "int256"
						}
					],
					"stateMutability": "nonpayable",
					"type": "constructor"
				},
				{
					"inputs": [],
					"name": "Maximum",
					"outputs": [
						{
							"internalType": "int256",
							"name": "",
							"type": "int256"
						}
					],
					"stateMutability": "view",
					"type": "function"
				},
				{
					"inputs": [],
					"name": "Minimum",
					"outputs": [
						{
							"internalType": "int256",
							"name": "",
							"type": "int256"
						}
					],
					"stateMutability": "view",
					"type": "function"
				}
			],
			"devdoc": {
				"kind": "dev",
				"methods": {},
				"version": 1
			},
			"evm": {
				"assembly": "    /* \"Practice/P9.sol\":62:557  contract minMax {... */\n  mstore(0x40, 0x80)\n    /* \"Practice/P9.sol\":132:236  constructor(int256 _a, int256 _b, int256 _c) {... */\n  callvalue\n  dup1\n  iszero\n  tag_1\n  jumpi\n  0x00\n  dup1\n  revert\ntag_1:\n  pop\n  mload(0x40)\n  sub(codesize, bytecodeSize)\n  dup1\n  bytecodeSize\n  dup4\n  codecopy\n  dup2\n  dup2\n  add\n  0x40\n  mstore\n  dup2\n  add\n  swap1\n  tag_2\n  swap2\n  swap1\n  tag_3\n  jump\t// in\ntag_2:\n    /* \"Practice/P9.sol\":192:194  _a */\n  dup3\n    /* \"Practice/P9.sol\":188:189  a */\n  0x00\n    /* \"Practice/P9.sol\":188:194  a = _a */\n  dup2\n  swap1\n  sstore\n  pop\n    /* \"Practice/P9.sol\":209:211  _b */\n  dup2\n    /* \"Practice/P9.sol\":205:206  b */\n  0x01\n    /* \"Practice/P9.sol\":205:211  b = _b */\n  dup2\n  swap1\n  sstore\n  pop\n    /* \"Practice/P9.sol\":226:228  _c */\n  dup1\n    /* \"Practice/P9.sol\":222:223  c */\n  0x02\n    /* \"Practice/P9.sol\":222:228  c = _c */\n  dup2\n  swap1\n  sstore\n  pop\n    /* \"Practice/P9.sol\":132:236  constructor(int256 _a, int256 _b, int256 _c) {... */\n  pop\n  pop\n  pop\n    /* \"Practice/P9.sol\":62:557  contract minMax {... */\n  jump(tag_6)\n    /* \"#utility.yul\":88:205   */\ntag_8:\n    /* \"#utility.yul\":197:198   */\n  0x00\n    /* \"#utility.yul\":194:195   */\n  dup1\n    /* \"#utility.yul\":187:199   */\n  revert\n    /* \"#utility.yul\":334:410   */\ntag_10:\n    /* \"#utility.yul\":370:377   */\n  0x00\n    /* \"#utility.yul\":399:404   */\n  dup2\n    /* \"#utility.yul\":388:404   */\n  swap1\n  pop\n    /* \"#utility.yul\":334:410   */\n  swap2\n  swap1\n  pop\n  jump\t// out\n    /* \"#utility.yul\":416:536   */\ntag_11:\n    /* \"#utility.yul\":488:511   */\n  tag_19\n    /* \"#utility.yul\":505:510   */\n  dup2\n    /* \"#utility.yul\":488:511   */\n  tag_10\n  jump\t// in\ntag_19:\n    /* \"#utility.yul\":481:486   */\n  dup2\n    /* \"#utility.yul\":478:512   */\n  eq\n    /* \"#utility.yul\":468:530   */\n  tag_20\n  jumpi\n    /* \"#utility.yul\":526:527   */\n  0x00\n    /* \"#utility.yul\":523:524   */\n  dup1\n    /* \"#utility.yul\":516:528   */\n  revert\n    /* \"#utility.yul\":468:530   */\ntag_20:\n    /* \"#utility.yul\":416:536   */\n  pop\n  jump\t// out\n    /* \"#utility.yul\":542:683   */\ntag_12:\n    /* \"#utility.yul\":598:603   */\n  0x00\n    /* \"#utility.yul\":629:635   */\n  dup2\n    /* \"#utility.yul\":623:636   */\n  mload\n    /* \"#utility.yul\":614:636   */\n  swap1\n  pop\n    /* \"#utility.yul\":645:677   */\n  tag_22\n    /* \"#utility.yul\":671:676   */\n  dup2\n    /* \"#utility.yul\":645:677   */\n  tag_11\n  jump\t// in\ntag_22:\n    /* \"#utility.yul\":542:683   */\n  swap3\n  swap2\n  pop\n  pop\n  jump\t// out\n    /* \"#utility.yul\":689:1346   */\ntag_3:\n    /* \"#utility.yul\":774:780   */\n  0x00\n    /* \"#utility.yul\":782:788   */\n  dup1\n    /* \"#utility.yul\":790:796   */\n  0x00\n    /* \"#utility.yul\":839:841   */\n  0x60\n    /* \"#utility.yul\":827:836   */\n  dup5\n    /* \"#utility.yul\":818:825   */\n  dup7\n    /* \"#utility.yul\":814:837   */\n  sub\n    /* \"#utility.yul\":810:842   */\n  slt\n    /* \"#utility.yul\":807:926   */\n  iszero\n  tag_24\n  jumpi\n    /* \"#utility.yul\":845:924   */\n  tag_25\n  tag_8\n  jump\t// in\ntag_25:\n    /* \"#utility.yul\":807:926   */\ntag_24:\n    /* \"#utility.yul\":965:966   */\n  0x00\n    /* \"#utility.yul\":990:1053   */\n  tag_26\n    /* \"#utility.yul\":1045:1052   */\n  dup7\n    /* \"#utility.yul\":1036:1042   */\n  dup3\n    /* \"#utility.yul\":1025:1034   */\n  dup8\n    /* \"#utility.yul\":1021:1043   */\n  add\n    /* \"#utility.yul\":990:1053   */\n  tag_12\n  jump\t// in\ntag_26:\n    /* \"#utility.yul\":980:1053   */\n  swap4\n  pop\n    /* \"#utility.yul\":936:1063   */\n  pop\n    /* \"#utility.yul\":1102:1104   */\n  0x20\n    /* \"#utility.yul\":1128:1191   */\n  tag_27\n    /* \"#utility.yul\":1183:1190   */\n  dup7\n    /* \"#utility.yul\":1174:1180   */\n  dup3\n    /* \"#utility.yul\":1163:1172   */\n  dup8\n    /* \"#utility.yul\":1159:1181   */\n  add\n    /* \"#utility.yul\":1128:1191   */\n  tag_12\n  jump\t// in\ntag_27:\n    /* \"#utility.yul\":1118:1191   */\n  swap3\n  pop\n    /* \"#utility.yul\":1073:1201   */\n  pop\n    /* \"#utility.yul\":1240:1242   */\n  0x40\n    /* \"#utility.yul\":1266:1329   */\n  tag_28\n    /* \"#utility.yul\":1321:1328   */\n  dup7\n    /* \"#utility.yul\":1312:1318   */\n  dup3\n    /* \"#utility.yul\":1301:1310   */\n  dup8\n    /* \"#utility.yul\":1297:1319   */\n  add\n    /* \"#utility.yul\":1266:1329   */\n  tag_12\n  jump\t// in\ntag_28:\n    /* \"#utility.yul\":1256:1329   */\n  swap2\n  pop\n    /* \"#utility.yul\":1211:1339   */\n  pop\n    /* \"#utility.yul\":689:1346   */\n  swap3\n  pop\n  swap3\n  pop\n  swap3\n  jump\t// out\n    /* \"Practice/P9.sol\":62:557  contract minMax {... */\ntag_6:\n  dataSize(sub_0)\n  dup1\n  dataOffset(sub_0)\n  0x00\n  codecopy\n  0x00\n  return\nstop\n\nsub_0: assembly {\n        /* \"Practice/P9.sol\":62:557  contract minMax {... */\n      mstore(0x40, 0x80)\n      callvalue\n      dup1\n      iszero\n      tag_1\n      jumpi\n      0x00\n      dup1\n      revert\n    tag_1:\n      pop\n      jumpi(tag_2, lt(calldatasize, 0x04))\n      shr(0xe0, calldataload(0x00))\n      dup1\n      0x05d60f1b\n      eq\n      tag_3\n      jumpi\n      dup1\n      0x181af9d6\n      eq\n      tag_4\n      jumpi\n    tag_2:\n      0x00\n      dup1\n      revert\n        /* \"Practice/P9.sol\":244:395  function Minimum() public view returns(int256) {... */\n    tag_3:\n      tag_5\n      tag_6\n      jump\t// in\n    tag_5:\n      mload(0x40)\n      tag_7\n      swap2\n      swap1\n      tag_8\n      jump\t// in\n    tag_7:\n      mload(0x40)\n      dup1\n      swap2\n      sub\n      swap1\n      return\n        /* \"Practice/P9.sol\":403:554  function Maximum() public view returns(int256) {... */\n    tag_4:\n      tag_9\n      tag_10\n      jump\t// in\n    tag_9:\n      mload(0x40)\n      tag_11\n      swap2\n      swap1\n      tag_8\n      jump\t// in\n    tag_11:\n      mload(0x40)\n      dup1\n      swap2\n      sub\n      swap1\n      return\n        /* \"Practice/P9.sol\":244:395  function Minimum() public view returns(int256) {... */\n    tag_6:\n        /* \"Practice/P9.sol\":283:289  int256 */\n      0x00\n        /* \"Practice/P9.sol\":309:310  b */\n      sload(0x01)\n        /* \"Practice/P9.sol\":305:306  a */\n      sload(0x00)\n        /* \"Practice/P9.sol\":305:310  a < b */\n      slt\n        /* \"Practice/P9.sol\":305:319  a < b && a < c */\n      dup1\n      iszero\n      tag_13\n      jumpi\n      pop\n        /* \"Practice/P9.sol\":318:319  c */\n      sload(0x02)\n        /* \"Practice/P9.sol\":314:315  a */\n      sload(0x00)\n        /* \"Practice/P9.sol\":314:319  a < c */\n      slt\n        /* \"Practice/P9.sol\":305:319  a < b && a < c */\n    tag_13:\n        /* \"Practice/P9.sol\":302:387  if(a < b && a < c) return a;... */\n      iszero\n      tag_14\n      jumpi\n        /* \"Practice/P9.sol\":328:329  a */\n      sload(0x00)\n        /* \"Practice/P9.sol\":321:329  return a */\n      swap1\n      pop\n      jump(tag_12)\n        /* \"Practice/P9.sol\":302:387  if(a < b && a < c) return a;... */\n    tag_14:\n        /* \"Practice/P9.sol\":352:353  c */\n      sload(0x02)\n        /* \"Practice/P9.sol\":348:349  b */\n      sload(0x01)\n        /* \"Practice/P9.sol\":348:353  b < c */\n      slt\n        /* \"Practice/P9.sol\":345:387  if(b < c) return b;... */\n      iszero\n      tag_16\n      jumpi\n        /* \"Practice/P9.sol\":362:363  b */\n      sload(0x01)\n        /* \"Practice/P9.sol\":355:363  return b */\n      swap1\n      pop\n      jump(tag_12)\n        /* \"Practice/P9.sol\":345:387  if(b < c) return b;... */\n    tag_16:\n        /* \"Practice/P9.sol\":386:387  c */\n      sload(0x02)\n        /* \"Practice/P9.sol\":379:387  return c */\n      swap1\n      pop\n        /* \"Practice/P9.sol\":244:395  function Minimum() public view returns(int256) {... */\n    tag_12:\n      swap1\n      jump\t// out\n        /* \"Practice/P9.sol\":403:554  function Maximum() public view returns(int256) {... */\n    tag_10:\n        /* \"Practice/P9.sol\":442:448  int256 */\n      0x00\n        /* \"Practice/P9.sol\":468:469  b */\n      sload(0x01)\n        /* \"Practice/P9.sol\":464:465  a */\n      sload(0x00)\n        /* \"Practice/P9.sol\":464:469  a > b */\n      sgt\n        /* \"Practice/P9.sol\":464:478  a > b && a > c */\n      dup1\n      iszero\n      tag_19\n      jumpi\n      pop\n        /* \"Practice/P9.sol\":477:478  c */\n      sload(0x02)\n        /* \"Practice/P9.sol\":473:474  a */\n      sload(0x00)\n        /* \"Practice/P9.sol\":473:478  a > c */\n      sgt\n        /* \"Practice/P9.sol\":464:478  a > b && a > c */\n    tag_19:\n        /* \"Practice/P9.sol\":461:546  if(a > b && a > c) return a;... */\n      iszero\n      tag_20\n      jumpi\n        /* \"Practice/P9.sol\":487:488  a */\n      sload(0x00)\n        /* \"Practice/P9.sol\":480:488  return a */\n      swap1\n      pop\n      jump(tag_18)\n        /* \"Practice/P9.sol\":461:546  if(a > b && a > c) return a;... */\n    tag_20:\n        /* \"Practice/P9.sol\":511:512  c */\n      sload(0x02)\n        /* \"Practice/P9.sol\":507:508  b */\n      sload(0x01)\n        /* \"Practice/P9.sol\":507:512  b > c */\n      sgt\n        /* \"Practice/P9.sol\":504:546  if(b > c) return b;... */\n      iszero\n      tag_22\n      jumpi\n        /* \"Practice/P9.sol\":521:522  b */\n      sload(0x01)\n        /* \"Practice/P9.sol\":514:522  return b */\n      swap1\n      pop\n      jump(tag_18)\n        /* \"Practice/P9.sol\":504:546  if(b > c) return b;... */\n    tag_22:\n        /* \"Practice/P9.sol\":545:546  c */\n      sload(0x02)\n        /* \"Practice/P9.sol\":538:546  return c */\n      swap1\n      pop\n        /* \"Practice/P9.sol\":403:554  function Maximum() public view returns(int256) {... */\n    tag_18:\n      swap1\n      jump\t// out\n        /* \"#utility.yul\":7:83   */\n    tag_24:\n        /* \"#utility.yul\":43:50   */\n      0x00\n        /* \"#utility.yul\":72:77   */\n      dup2\n        /* \"#utility.yul\":61:77   */\n      swap1\n      pop\n        /* \"#utility.yul\":7:83   */\n      swap2\n      swap1\n      pop\n      jump\t// out\n        /* \"#utility.yul\":89:204   */\n    tag_25:\n        /* \"#utility.yul\":174:197   */\n      tag_29\n        /* \"#utility.yul\":191:196   */\n      dup2\n        /* \"#utility.yul\":174:197   */\n      tag_24\n      jump\t// in\n    tag_29:\n        /* \"#utility.yul\":169:172   */\n      dup3\n        /* \"#utility.yul\":162:198   */\n      mstore\n        /* \"#utility.yul\":89:204   */\n      pop\n      pop\n      jump\t// out\n        /* \"#utility.yul\":210:428   */\n    tag_8:\n        /* \"#utility.yul\":301:305   */\n      0x00\n        /* \"#utility.yul\":339:341   */\n      0x20\n        /* \"#utility.yul\":328:337   */\n      dup3\n        /* \"#utility.yul\":324:342   */\n      add\n        /* \"#utility.yul\":316:342   */\n      swap1\n      pop\n        /* \"#utility.yul\":352:421   */\n      tag_31\n        /* \"#utility.yul\":418:419   */\n      0x00\n        /* \"#utility.yul\":407:416   */\n      dup4\n        /* \"#utility.yul\":403:420   */\n      add\n        /* \"#utility.yul\":394:400   */\n      dup5\n        /* \"#utility.yul\":352:421   */\n      tag_25\n      jump\t// in\n    tag_31:\n        /* \"#utility.yul\":210:428   */\n      swap3\n      swap2\n      pop\n      pop\n      jump\t// out\n\n    auxdata: 0xa264697066735822122044f821f3bb4bbddfb3cdfc1fb972e80346629e90513cc4e1ea66e99002c2e8a264736f6c634300081a0033\n}\n",
				"bytecode": {
					"linkReferences": {},
					"object": "6080604052348015600e575f80fd5b5060405161022e38038061022e8339818101604052810190602e9190607b565b825f81905550816001819055508060028190555050505060c2565b5f80fd5b5f819050919050565b605d81604d565b81146066575f80fd5b50565b5f815190506075816056565b92915050565b5f805f60608486031215608f57608e6049565b5b5f609a868287016069565b935050602060a9868287016069565b925050604060b8868287016069565b9150509250925092565b61015f806100cf5f395ff3fe608060405234801561000f575f80fd5b5060043610610034575f3560e01c806305d60f1b14610038578063181af9d614610056575b5f80fd5b610040610074565b60405161004d9190610110565b60405180910390f35b61005e6100b6565b60405161006b9190610110565b60405180910390f35b5f6001545f5412801561008957506002545f54125b15610097575f5490506100b3565b60025460015412156100ad5760015490506100b3565b60025490505b90565b5f6001545f541380156100cb57506002545f54135b156100d9575f5490506100f5565b60025460015413156100ef5760015490506100f5565b60025490505b90565b5f819050919050565b61010a816100f8565b82525050565b5f6020820190506101235f830184610101565b9291505056fea264697066735822122044f821f3bb4bbddfb3cdfc1fb972e80346629e90513cc4e1ea66e99002c2e8a264736f6c634300081a0033",
					"opcodes": "PUSH1 0x80 PUSH1 0x40 MSTORE CALLVALUE DUP1 ISZERO PUSH1 0xE JUMPI PUSH0 DUP1 REVERT JUMPDEST POP PUSH1 0x40 MLOAD PUSH2 0x22E CODESIZE SUB DUP1 PUSH2 0x22E DUP4 CODECOPY DUP2 DUP2 ADD PUSH1 0x40 MSTORE DUP2 ADD SWAP1 PUSH1 0x2E SWAP2 SWAP1 PUSH1 0x7B JUMP JUMPDEST DUP3 PUSH0 DUP2 SWAP1 SSTORE POP DUP2 PUSH1 0x1 DUP2 SWAP1 SSTORE POP DUP1 PUSH1 0x2 DUP2 SWAP1 SSTORE POP POP POP POP PUSH1 0xC2 JUMP JUMPDEST PUSH0 DUP1 REVERT JUMPDEST PUSH0 DUP2 SWAP1 POP SWAP2 SWAP1 POP JUMP JUMPDEST PUSH1 0x5D DUP2 PUSH1 0x4D JUMP JUMPDEST DUP2 EQ PUSH1 0x66 JUMPI PUSH0 DUP1 REVERT JUMPDEST POP JUMP JUMPDEST PUSH0 DUP2 MLOAD SWAP1 POP PUSH1 0x75 DUP2 PUSH1 0x56 JUMP JUMPDEST SWAP3 SWAP2 POP POP JUMP JUMPDEST PUSH0 DUP1 PUSH0 PUSH1 0x60 DUP5 DUP7 SUB SLT ISZERO PUSH1 0x8F JUMPI PUSH1 0x8E PUSH1 0x49 JUMP JUMPDEST JUMPDEST PUSH0 PUSH1 0x9A DUP7 DUP3 DUP8 ADD PUSH1 0x69 JUMP JUMPDEST SWAP4 POP POP PUSH1 0x20 PUSH1 0xA9 DUP7 DUP3 DUP8 ADD PUSH1 0x69 JUMP JUMPDEST SWAP3 POP POP PUSH1 0x40 PUSH1 0xB8 DUP7 DUP3 DUP8 ADD PUSH1 0x69 JUMP JUMPDEST SWAP2 POP POP SWAP3 POP SWAP3 POP SWAP3 JUMP JUMPDEST PUSH2 0x15F DUP1 PUSH2 0xCF PUSH0 CODECOPY PUSH0 RETURN INVALID PUSH1 0x80 PUSH1 0x40 MSTORE CALLVALUE DUP1 ISZERO PUSH2 0xF JUMPI PUSH0 DUP1 REVERT JUMPDEST POP PUSH1 0x4 CALLDATASIZE LT PUSH2 0x34 JUMPI PUSH0 CALLDATALOAD PUSH1 0xE0 SHR DUP1 PUSH4 0x5D60F1B EQ PUSH2 0x38 JUMPI DUP1 PUSH4 0x181AF9D6 EQ PUSH2 0x56 JUMPI JUMPDEST PUSH0 DUP1 REVERT JUMPDEST PUSH2 0x40 PUSH2 0x74 JUMP JUMPDEST PUSH1 0x40 MLOAD PUSH2 0x4D SWAP2 SWAP1 PUSH2 0x110 JUMP JUMPDEST PUSH1 0x40 MLOAD DUP1 SWAP2 SUB SWAP1 RETURN JUMPDEST PUSH2 0x5E PUSH2 0xB6 JUMP JUMPDEST PUSH1 0x40 MLOAD PUSH2 0x6B SWAP2 SWAP1 PUSH2 0x110 JUMP JUMPDEST PUSH1 0x40 MLOAD DUP1 SWAP2 SUB SWAP1 RETURN JUMPDEST PUSH0 PUSH1 0x1 SLOAD PUSH0 SLOAD SLT DUP1 ISZERO PUSH2 0x89 JUMPI POP PUSH1 0x2 SLOAD PUSH0 SLOAD SLT JUMPDEST ISZERO PUSH2 0x97 JUMPI PUSH0 SLOAD SWAP1 POP PUSH2 0xB3 JUMP JUMPDEST PUSH1 0x2 SLOAD PUSH1 0x1 SLOAD SLT ISZERO PUSH2 0xAD JUMPI PUSH1 0x1 SLOAD SWAP1 POP PUSH2 0xB3 JUMP JUMPDEST PUSH1 0x2 SLOAD SWAP1 POP JUMPDEST SWAP1 JUMP JUMPDEST PUSH0 PUSH1 0x1 SLOAD PUSH0 SLOAD SGT DUP1 ISZERO PUSH2 0xCB JUMPI POP PUSH1 0x2 SLOAD PUSH0 SLOAD SGT JUMPDEST ISZERO PUSH2 0xD9 JUMPI PUSH0 SLOAD SWAP1 POP PUSH2 0xF5 JUMP JUMPDEST PUSH1 0x2 SLOAD PUSH1 0x1 SLOAD SGT ISZERO PUSH2 0xEF JUMPI PUSH1 0x1 SLOAD SWAP1 POP PUSH2 0xF5 JUMP JUMPDEST PUSH1 0x2 SLOAD SWAP1 POP JUMPDEST SWAP1 JUMP JUMPDEST PUSH0 DUP2 SWAP1 POP SWAP2 SWAP1 POP JUMP JUMPDEST PUSH2 0x10A DUP2 PUSH2 0xF8 JUMP JUMPDEST DUP3 MSTORE POP POP JUMP JUMPDEST PUSH0 PUSH1 0x20 DUP3 ADD SWAP1 POP PUSH2 0x123 PUSH0 DUP4 ADD DUP5 PUSH2 0x101 JUMP JUMPDEST SWAP3 SWAP2 POP POP JUMP INVALID LOG2 PUSH5 0x6970667358 0x22 SLT KECCAK256 PREVRANDAO 0xF8 0x21 RETURN 0xBB 0x4B 0xBD 0xDF 0xB3 0xCD 0xFC 0x1F 0xB9 PUSH19 0xE80346629E90513CC4E1EA66E99002C2E8A264 PUSH20 0x6F6C634300081A00330000000000000000000000 "
				},
				"gasEstimates": {
					"creation": {
						"codeDepositCost": "70200",
						"executionCost": "infinite",
						"totalCost": "infinite"
					},
					"external": {
						"Maximum()": "15124",
						"Minimum()": "15102"
					}
				},
				"methodIdentifiers": {
					"Maximum()": "181af9d6",
					"Minimum()": "05d60f1b"
				}
			},
			"storageLayout": {
				"storage": [
					{
						"astId": 3,
						"contract": "Practice/P9.sol:minMax",
						"label": "a",
						"offset": 0,
						"slot": "0",
						"type": "t_int256"
					},
					{
						"astId": 5,
						"contract": "Practice/P9.sol:minMax",
						"label": "b",
						"offset": 0,
						"slot": "1",
						"type": "t_int256"
					},
					{
						"astId": 7,
						"contract": "Practice/P9.sol:minMax",
						"label": "c",
						"offset": 0,
						"slot": "2",
						"type": "t_int256"
					}
				],
				"types": {
					"t_int256": {
						"encoding": "inplace",
						"label": "int256",
						"numberOfBytes": "32"
					}
				}
			},
			"userdoc": {
				"kind": "user",
				"methods": {},
				"version": 1
			}
		}
	}
}