{
	"Practice/P8.sol": {
		"reportCard": {
			"abi": [
				{
					"inputs": [
						{
							"internalType": "uint256",
							"name": "_marks",
							"type": "uint256"
						}
					],
					"stateMutability": "nonpayable",
					"type": "constructor"
				},
				{
					"inputs": [],
					"name": "grades",
					"outputs": [
						{
							"internalType": "string",
							"name": "",
							"type": "string"
						}
					],
					"stateMutability": "view",
					"type": "function"
				},
				{
					"inputs": [],
					"name": "marks",
					"outputs": [
						{
							"internalType": "uint256",
							"name": "",
							"type": "uint256"
						}
					],
					"stateMutability": "view",
					"type": "function"
				}
			],
			"devdoc": {
				"kind": "dev",
				"methods": {},
				"version": 1
			},
			"evm": {
				"assembly": "    /* \"Practice/P8.sol\":62:782  contract reportCard {... */\n  mstore(0x40, 0x80)\n    /* \"Practice/P8.sol\":118:179  constructor(uint256 _marks) {... */\n  callvalue\n  dup1\n  iszero\n  tag_1\n  jumpi\n  revert(0x00, 0x00)\ntag_1:\n  pop\n  mload(0x40)\n  sub(codesize, bytecodeSize)\n  dup1\n  bytecodeSize\n  dup4\n  codecopy\n  dup2\n  dup2\n  add\n  0x40\n  mstore\n  dup2\n  add\n  swap1\n  tag_2\n  swap2\n  swap1\n  tag_3\n  jump\t// in\ntag_2:\n    /* \"Practice/P8.sol\":165:171  _marks */\n  dup1\n    /* \"Practice/P8.sol\":157:162  marks */\n  0x00\n    /* \"Practice/P8.sol\":157:171  marks = _marks */\n  dup2\n  swap1\n  sstore\n  pop\n    /* \"Practice/P8.sol\":118:179  constructor(uint256 _marks) {... */\n  pop\n    /* \"Practice/P8.sol\":62:782  contract reportCard {... */\n  jump(tag_6)\n    /* \"#utility.yul\":88:205   */\ntag_8:\n    /* \"#utility.yul\":197:198   */\n  0x00\n    /* \"#utility.yul\":194:195   */\n  0x00\n    /* \"#utility.yul\":187:199   */\n  revert\n    /* \"#utility.yul\":334:411   */\ntag_10:\n    /* \"#utility.yul\":371:378   */\n  0x00\n    /* \"#utility.yul\":400:405   */\n  dup2\n    /* \"#utility.yul\":389:405   */\n  swap1\n  pop\n    /* \"#utility.yul\":334:411   */\n  swap2\n  swap1\n  pop\n  jump\t// out\n    /* \"#utility.yul\":417:539   */\ntag_11:\n    /* \"#utility.yul\":490:514   */\n  tag_19\n    /* \"#utility.yul\":508:513   */\n  dup2\n    /* \"#utility.yul\":490:514   */\n  tag_10\n  jump\t// in\ntag_19:\n    /* \"#utility.yul\":483:488   */\n  dup2\n    /* \"#utility.yul\":480:515   */\n  eq\n    /* \"#utility.yul\":470:533   */\n  tag_20\n  jumpi\n    /* \"#utility.yul\":529:530   */\n  0x00\n    /* \"#utility.yul\":526:527   */\n  0x00\n    /* \"#utility.yul\":519:531   */\n  revert\n    /* \"#utility.yul\":470:533   */\ntag_20:\n    /* \"#utility.yul\":417:539   */\n  pop\n  jump\t// out\n    /* \"#utility.yul\":545:688   */\ntag_12:\n    /* \"#utility.yul\":602:607   */\n  0x00\n    /* \"#utility.yul\":633:639   */\n  dup2\n    /* \"#utility.yul\":627:640   */\n  mload\n    /* \"#utility.yul\":618:640   */\n  swap1\n  pop\n    /* \"#utility.yul\":649:682   */\n  tag_22\n    /* \"#utility.yul\":676:681   */\n  dup2\n    /* \"#utility.yul\":649:682   */\n  tag_11\n  jump\t// in\ntag_22:\n    /* \"#utility.yul\":545:688   */\n  swap3\n  swap2\n  pop\n  pop\n  jump\t// out\n    /* \"#utility.yul\":694:1045   */\ntag_3:\n    /* \"#utility.yul\":764:770   */\n  0x00\n    /* \"#utility.yul\":813:815   */\n  0x20\n    /* \"#utility.yul\":801:810   */\n  dup3\n    /* \"#utility.yul\":792:799   */\n  dup5\n    /* \"#utility.yul\":788:811   */\n  sub\n    /* \"#utility.yul\":784:816   */\n  slt\n    /* \"#utility.yul\":781:900   */\n  iszero\n  tag_24\n  jumpi\n    /* \"#utility.yul\":819:898   */\n  tag_25\n  tag_8\n  jump\t// in\ntag_25:\n    /* \"#utility.yul\":781:900   */\ntag_24:\n    /* \"#utility.yul\":939:940   */\n  0x00\n    /* \"#utility.yul\":964:1028   */\n  tag_26\n    /* \"#utility.yul\":1020:1027   */\n  dup5\n    /* \"#utility.yul\":1011:1017   */\n  dup3\n    /* \"#utility.yul\":1000:1009   */\n  dup6\n    /* \"#utility.yul\":996:1018   */\n  add\n    /* \"#utility.yul\":964:1028   */\n  tag_12\n  jump\t// in\ntag_26:\n    /* \"#utility.yul\":954:1028   */\n  swap2\n  pop\n    /* \"#utility.yul\":910:1038   */\n  pop\n    /* \"#utility.yul\":694:1045   */\n  swap3\n  swap2\n  pop\n  pop\n  jump\t// out\n    /* \"Practice/P8.sol\":62:782  contract reportCard {... */\ntag_6:\n  dataSize(sub_0)\n  dup1\n  dataOffset(sub_0)\n  0x00\n  codecopy\n  0x00\n  return\nstop\n\nsub_0: assembly {\n        /* \"Practice/P8.sol\":62:782  contract reportCard {... */\n      mstore(0x40, 0x80)\n      callvalue\n      dup1\n      iszero\n      tag_1\n      jumpi\n      revert(0x00, 0x00)\n    tag_1:\n      pop\n      jumpi(tag_2, lt(calldatasize, 0x04))\n      shr(0xe0, calldataload(0x00))\n      dup1\n      0x2278ae6f\n      eq\n      tag_3\n      jumpi\n      dup1\n      0x3c84c5a5\n      eq\n      tag_4\n      jumpi\n    tag_2:\n      revert(0x00, 0x00)\n        /* \"Practice/P8.sol\":187:779  function grades() public view returns(string memory) {... */\n    tag_3:\n      tag_5\n      tag_6\n      jump\t// in\n    tag_5:\n      mload(0x40)\n      tag_7\n      swap2\n      swap1\n      tag_8\n      jump\t// in\n    tag_7:\n      mload(0x40)\n      dup1\n      swap2\n      sub\n      swap1\n      return\n        /* \"Practice/P8.sol\":89:109  uint256 public marks */\n    tag_4:\n      tag_9\n      tag_10\n      jump\t// in\n    tag_9:\n      mload(0x40)\n      tag_11\n      swap2\n      swap1\n      tag_12\n      jump\t// in\n    tag_11:\n      mload(0x40)\n      dup1\n      swap2\n      sub\n      swap1\n      return\n        /* \"Practice/P8.sol\":187:779  function grades() public view returns(string memory) {... */\n    tag_6:\n        /* \"Practice/P8.sol\":225:238  string memory */\n      0x60\n        /* \"Practice/P8.sol\":264:266  90 */\n      0x5a\n        /* \"Practice/P8.sol\":255:260  marks */\n      sload(0x00)\n        /* \"Practice/P8.sol\":255:266  marks >= 90 */\n      lt\n        /* \"Practice/P8.sol\":251:772  if (marks >= 90) {... */\n      tag_14\n      jumpi\n        /* \"Practice/P8.sol\":283:293  return \"O\" */\n      mload(0x40)\n      dup1\n      0x40\n      add\n      0x40\n      mstore\n      dup1\n      0x01\n      dup2\n      mstore\n      0x20\n      add\n      0x4f00000000000000000000000000000000000000000000000000000000000000\n      dup2\n      mstore\n      pop\n      swap1\n      pop\n      jump(tag_13)\n        /* \"Practice/P8.sol\":251:772  if (marks >= 90) {... */\n    tag_14:\n        /* \"Practice/P8.sol\":332:334  89 */\n      0x59\n        /* \"Practice/P8.sol\":323:328  marks */\n      sload(0x00)\n        /* \"Practice/P8.sol\":323:334  marks <= 89 */\n      gt\n      iszero\n        /* \"Practice/P8.sol\":323:349  marks <= 89 && marks >= 80 */\n      dup1\n      iszero\n      tag_16\n      jumpi\n      pop\n        /* \"Practice/P8.sol\":347:349  80 */\n      0x50\n        /* \"Practice/P8.sol\":338:343  marks */\n      sload(0x00)\n        /* \"Practice/P8.sol\":338:349  marks >= 80 */\n      lt\n      iszero\n        /* \"Practice/P8.sol\":323:349  marks <= 89 && marks >= 80 */\n    tag_16:\n        /* \"Practice/P8.sol\":320:772  if(marks <= 89 && marks >= 80) {... */\n      iszero\n      tag_17\n      jumpi\n        /* \"Practice/P8.sol\":366:376  return \"E\" */\n      mload(0x40)\n      dup1\n      0x40\n      add\n      0x40\n      mstore\n      dup1\n      0x01\n      dup2\n      mstore\n      0x20\n      add\n      0x4500000000000000000000000000000000000000000000000000000000000000\n      dup2\n      mstore\n      pop\n      swap1\n      pop\n      jump(tag_13)\n        /* \"Practice/P8.sol\":320:772  if(marks <= 89 && marks >= 80) {... */\n    tag_17:\n        /* \"Practice/P8.sol\":415:417  79 */\n      0x4f\n        /* \"Practice/P8.sol\":406:411  marks */\n      sload(0x00)\n        /* \"Practice/P8.sol\":406:417  marks <= 79 */\n      gt\n      iszero\n        /* \"Practice/P8.sol\":406:432  marks <= 79 && marks >= 70 */\n      dup1\n      iszero\n      tag_19\n      jumpi\n      pop\n        /* \"Practice/P8.sol\":430:432  70 */\n      0x46\n        /* \"Practice/P8.sol\":421:426  marks */\n      sload(0x00)\n        /* \"Practice/P8.sol\":421:432  marks >= 70 */\n      lt\n      iszero\n        /* \"Practice/P8.sol\":406:432  marks <= 79 && marks >= 70 */\n    tag_19:\n        /* \"Practice/P8.sol\":403:772  if(marks <= 79 && marks >= 70) {... */\n      iszero\n      tag_20\n      jumpi\n        /* \"Practice/P8.sol\":449:459  return \"A\" */\n      mload(0x40)\n      dup1\n      0x40\n      add\n      0x40\n      mstore\n      dup1\n      0x01\n      dup2\n      mstore\n      0x20\n      add\n      0x4100000000000000000000000000000000000000000000000000000000000000\n      dup2\n      mstore\n      pop\n      swap1\n      pop\n      jump(tag_13)\n        /* \"Practice/P8.sol\":403:772  if(marks <= 79 && marks >= 70) {... */\n    tag_20:\n        /* \"Practice/P8.sol\":498:500  69 */\n      0x45\n        /* \"Practice/P8.sol\":489:494  marks */\n      sload(0x00)\n        /* \"Practice/P8.sol\":489:500  marks <= 69 */\n      gt\n      iszero\n        /* \"Practice/P8.sol\":489:515  marks <= 69 && marks >= 60 */\n      dup1\n      iszero\n      tag_22\n      jumpi\n      pop\n        /* \"Practice/P8.sol\":513:515  60 */\n      0x3c\n        /* \"Practice/P8.sol\":504:509  marks */\n      sload(0x00)\n        /* \"Practice/P8.sol\":504:515  marks >= 60 */\n      lt\n      iszero\n        /* \"Practice/P8.sol\":489:515  marks <= 69 && marks >= 60 */\n    tag_22:\n        /* \"Practice/P8.sol\":486:772  if(marks <= 69 && marks >= 60) {... */\n      iszero\n      tag_23\n      jumpi\n        /* \"Practice/P8.sol\":532:542  return \"B\" */\n      mload(0x40)\n      dup1\n      0x40\n      add\n      0x40\n      mstore\n      dup1\n      0x01\n      dup2\n      mstore\n      0x20\n      add\n      0x4200000000000000000000000000000000000000000000000000000000000000\n      dup2\n      mstore\n      pop\n      swap1\n      pop\n      jump(tag_13)\n        /* \"Practice/P8.sol\":486:772  if(marks <= 69 && marks >= 60) {... */\n    tag_23:\n        /* \"Practice/P8.sol\":581:583  59 */\n      0x3b\n        /* \"Practice/P8.sol\":572:577  marks */\n      sload(0x00)\n        /* \"Practice/P8.sol\":572:583  marks <= 59 */\n      gt\n      iszero\n        /* \"Practice/P8.sol\":572:598  marks <= 59 && marks >= 50 */\n      dup1\n      iszero\n      tag_25\n      jumpi\n      pop\n        /* \"Practice/P8.sol\":596:598  50 */\n      0x32\n        /* \"Practice/P8.sol\":587:592  marks */\n      sload(0x00)\n        /* \"Practice/P8.sol\":587:598  marks >= 50 */\n      lt\n      iszero\n        /* \"Practice/P8.sol\":572:598  marks <= 59 && marks >= 50 */\n    tag_25:\n        /* \"Practice/P8.sol\":569:772  if(marks <= 59 && marks >= 50) {... */\n      iszero\n      tag_26\n      jumpi\n        /* \"Practice/P8.sol\":615:625  return \"C\" */\n      mload(0x40)\n      dup1\n      0x40\n      add\n      0x40\n      mstore\n      dup1\n      0x01\n      dup2\n      mstore\n      0x20\n      add\n      0x4300000000000000000000000000000000000000000000000000000000000000\n      dup2\n      mstore\n      pop\n      swap1\n      pop\n      jump(tag_13)\n        /* \"Practice/P8.sol\":569:772  if(marks <= 59 && marks >= 50) {... */\n    tag_26:\n        /* \"Practice/P8.sol\":664:666  49 */\n      0x31\n        /* \"Practice/P8.sol\":655:660  marks */\n      sload(0x00)\n        /* \"Practice/P8.sol\":655:666  marks <= 49 */\n      gt\n      iszero\n        /* \"Practice/P8.sol\":655:681  marks <= 49 && marks >= 40 */\n      dup1\n      iszero\n      tag_28\n      jumpi\n      pop\n        /* \"Practice/P8.sol\":679:681  40 */\n      0x28\n        /* \"Practice/P8.sol\":670:675  marks */\n      sload(0x00)\n        /* \"Practice/P8.sol\":670:681  marks >= 40 */\n      lt\n      iszero\n        /* \"Practice/P8.sol\":655:681  marks <= 49 && marks >= 40 */\n    tag_28:\n        /* \"Practice/P8.sol\":652:772  if(marks <= 49 && marks >= 40) {... */\n      iszero\n      tag_29\n      jumpi\n        /* \"Practice/P8.sol\":698:708  return \"D\" */\n      mload(0x40)\n      dup1\n      0x40\n      add\n      0x40\n      mstore\n      dup1\n      0x01\n      dup2\n      mstore\n      0x20\n      add\n      0x4400000000000000000000000000000000000000000000000000000000000000\n      dup2\n      mstore\n      pop\n      swap1\n      pop\n      jump(tag_13)\n        /* \"Practice/P8.sol\":652:772  if(marks <= 49 && marks >= 40) {... */\n    tag_29:\n        /* \"Practice/P8.sol\":750:760  return \"F\" */\n      mload(0x40)\n      dup1\n      0x40\n      add\n      0x40\n      mstore\n      dup1\n      0x01\n      dup2\n      mstore\n      0x20\n      add\n      0x4600000000000000000000000000000000000000000000000000000000000000\n      dup2\n      mstore\n      pop\n      swap1\n      pop\n        /* \"Practice/P8.sol\":187:779  function grades() public view returns(string memory) {... */\n    tag_13:\n      swap1\n      jump\t// out\n        /* \"Practice/P8.sol\":89:109  uint256 public marks */\n    tag_10:\n      sload(0x00)\n      dup2\n      jump\t// out\n        /* \"#utility.yul\":7:106   */\n    tag_31:\n        /* \"#utility.yul\":59:65   */\n      0x00\n        /* \"#utility.yul\":93:98   */\n      dup2\n        /* \"#utility.yul\":87:99   */\n      mload\n        /* \"#utility.yul\":77:99   */\n      swap1\n      pop\n        /* \"#utility.yul\":7:106   */\n      swap2\n      swap1\n      pop\n      jump\t// out\n        /* \"#utility.yul\":112:281   */\n    tag_32:\n        /* \"#utility.yul\":196:207   */\n      0x00\n        /* \"#utility.yul\":230:236   */\n      dup3\n        /* \"#utility.yul\":225:228   */\n      dup3\n        /* \"#utility.yul\":218:237   */\n      mstore\n        /* \"#utility.yul\":270:274   */\n      0x20\n        /* \"#utility.yul\":265:268   */\n      dup3\n        /* \"#utility.yul\":261:275   */\n      add\n        /* \"#utility.yul\":246:275   */\n      swap1\n      pop\n        /* \"#utility.yul\":112:281   */\n      swap3\n      swap2\n      pop\n      pop\n      jump\t// out\n        /* \"#utility.yul\":287:426   */\n    tag_33:\n        /* \"#utility.yul\":376:382   */\n      dup3\n        /* \"#utility.yul\":371:374   */\n      dup2\n        /* \"#utility.yul\":366:369   */\n      dup4\n        /* \"#utility.yul\":360:383   */\n      mcopy\n        /* \"#utility.yul\":417:418   */\n      0x00\n        /* \"#utility.yul\":408:414   */\n      dup4\n        /* \"#utility.yul\":403:406   */\n      dup4\n        /* \"#utility.yul\":399:415   */\n      add\n        /* \"#utility.yul\":392:419   */\n      mstore\n        /* \"#utility.yul\":287:426   */\n      pop\n      pop\n      pop\n      jump\t// out\n        /* \"#utility.yul\":432:534   */\n    tag_34:\n        /* \"#utility.yul\":473:479   */\n      0x00\n        /* \"#utility.yul\":524:526   */\n      0x1f\n        /* \"#utility.yul\":520:527   */\n      not\n        /* \"#utility.yul\":515:517   */\n      0x1f\n        /* \"#utility.yul\":508:513   */\n      dup4\n        /* \"#utility.yul\":504:518   */\n      add\n        /* \"#utility.yul\":500:528   */\n      and\n        /* \"#utility.yul\":490:528   */\n      swap1\n      pop\n        /* \"#utility.yul\":432:534   */\n      swap2\n      swap1\n      pop\n      jump\t// out\n        /* \"#utility.yul\":540:917   */\n    tag_35:\n        /* \"#utility.yul\":628:631   */\n      0x00\n        /* \"#utility.yul\":656:695   */\n      tag_44\n        /* \"#utility.yul\":689:694   */\n      dup3\n        /* \"#utility.yul\":656:695   */\n      tag_31\n      jump\t// in\n    tag_44:\n        /* \"#utility.yul\":711:782   */\n      tag_45\n        /* \"#utility.yul\":775:781   */\n      dup2\n        /* \"#utility.yul\":770:773   */\n      dup6\n        /* \"#utility.yul\":711:782   */\n      tag_32\n      jump\t// in\n    tag_45:\n        /* \"#utility.yul\":704:782   */\n      swap4\n      pop\n        /* \"#utility.yul\":791:856   */\n      tag_46\n        /* \"#utility.yul\":849:855   */\n      dup2\n        /* \"#utility.yul\":844:847   */\n      dup6\n        /* \"#utility.yul\":837:841   */\n      0x20\n        /* \"#utility.yul\":830:835   */\n      dup7\n        /* \"#utility.yul\":826:842   */\n      add\n        /* \"#utility.yul\":791:856   */\n      tag_33\n      jump\t// in\n    tag_46:\n        /* \"#utility.yul\":881:910   */\n      tag_47\n        /* \"#utility.yul\":903:909   */\n      dup2\n        /* \"#utility.yul\":881:910   */\n      tag_34\n      jump\t// in\n    tag_47:\n        /* \"#utility.yul\":876:879   */\n      dup5\n        /* \"#utility.yul\":872:911   */\n      add\n        /* \"#utility.yul\":865:911   */\n      swap2\n      pop\n        /* \"#utility.yul\":632:917   */\n      pop\n        /* \"#utility.yul\":540:917   */\n      swap3\n      swap2\n      pop\n      pop\n      jump\t// out\n        /* \"#utility.yul\":923:1236   */\n    tag_8:\n        /* \"#utility.yul\":1036:1040   */\n      0x00\n        /* \"#utility.yul\":1074:1076   */\n      0x20\n        /* \"#utility.yul\":1063:1072   */\n      dup3\n        /* \"#utility.yul\":1059:1077   */\n      add\n        /* \"#utility.yul\":1051:1077   */\n      swap1\n      pop\n        /* \"#utility.yul\":1123:1132   */\n      dup2\n        /* \"#utility.yul\":1117:1121   */\n      dup2\n        /* \"#utility.yul\":1113:1133   */\n      sub\n        /* \"#utility.yul\":1109:1110   */\n      0x00\n        /* \"#utility.yul\":1098:1107   */\n      dup4\n        /* \"#utility.yul\":1094:1111   */\n      add\n        /* \"#utility.yul\":1087:1134   */\n      mstore\n        /* \"#utility.yul\":1151:1229   */\n      tag_49\n        /* \"#utility.yul\":1224:1228   */\n      dup2\n        /* \"#utility.yul\":1215:1221   */\n      dup5\n        /* \"#utility.yul\":1151:1229   */\n      tag_35\n      jump\t// in\n    tag_49:\n        /* \"#utility.yul\":1143:1229   */\n      swap1\n      pop\n        /* \"#utility.yul\":923:1236   */\n      swap3\n      swap2\n      pop\n      pop\n      jump\t// out\n        /* \"#utility.yul\":1242:1319   */\n    tag_36:\n        /* \"#utility.yul\":1279:1286   */\n      0x00\n        /* \"#utility.yul\":1308:1313   */\n      dup2\n        /* \"#utility.yul\":1297:1313   */\n      swap1\n      pop\n        /* \"#utility.yul\":1242:1319   */\n      swap2\n      swap1\n      pop\n      jump\t// out\n        /* \"#utility.yul\":1325:1443   */\n    tag_37:\n        /* \"#utility.yul\":1412:1436   */\n      tag_52\n        /* \"#utility.yul\":1430:1435   */\n      dup2\n        /* \"#utility.yul\":1412:1436   */\n      tag_36\n      jump\t// in\n    tag_52:\n        /* \"#utility.yul\":1407:1410   */\n      dup3\n        /* \"#utility.yul\":1400:1437   */\n      mstore\n        /* \"#utility.yul\":1325:1443   */\n      pop\n      pop\n      jump\t// out\n        /* \"#utility.yul\":1449:1671   */\n    tag_12:\n        /* \"#utility.yul\":1542:1546   */\n      0x00\n        /* \"#utility.yul\":1580:1582   */\n      0x20\n        /* \"#utility.yul\":1569:1578   */\n      dup3\n        /* \"#utility.yul\":1565:1583   */\n      add\n        /* \"#utility.yul\":1557:1583   */\n      swap1\n      pop\n        /* \"#utility.yul\":1593:1664   */\n      tag_54\n        /* \"#utility.yul\":1661:1662   */\n      0x00\n        /* \"#utility.yul\":1650:1659   */\n      dup4\n        /* \"#utility.yul\":1646:1663   */\n      add\n        /* \"#utility.yul\":1637:1643   */\n      dup5\n        /* \"#utility.yul\":1593:1664   */\n      tag_37\n      jump\t// in\n    tag_54:\n        /* \"#utility.yul\":1449:1671   */\n      swap3\n      swap2\n      pop\n      pop\n      jump\t// out\n\n    auxdata: 0xa26469706673582212203a08cece333f7b650256fa7fe87beafd7a02b57596712f17f0207b2ef87ef81164736f6c634300081d0033\n}\n",
				"bytecode": {
					"linkReferences": {},
					"object": "6080604052348015600e575f5ffd5b506040516104403803806104408339818101604052810190602e9190606b565b805f81905550506091565b5f5ffd5b5f819050919050565b604d81603d565b81146056575f5ffd5b50565b5f815190506065816046565b92915050565b5f60208284031215607d57607c6039565b5b5f6088848285016059565b91505092915050565b6103a28061009e5f395ff3fe608060405234801561000f575f5ffd5b5060043610610034575f3560e01c80632278ae6f146100385780633c84c5a514610056575b5f5ffd5b610040610074565b60405161004d919061031b565b60405180910390f35b61005e6102a6565b60405161006b9190610353565b60405180910390f35b6060605a5f54106100bc576040518060400160405280600181526020017f4f0000000000000000000000000000000000000000000000000000000000000081525090506102a3565b60595f54111580156100d0575060505f5410155b15610112576040518060400160405280600181526020017f450000000000000000000000000000000000000000000000000000000000000081525090506102a3565b604f5f5411158015610126575060465f5410155b15610168576040518060400160405280600181526020017f410000000000000000000000000000000000000000000000000000000000000081525090506102a3565b60455f541115801561017c5750603c5f5410155b156101be576040518060400160405280600181526020017f420000000000000000000000000000000000000000000000000000000000000081525090506102a3565b603b5f54111580156101d2575060325f5410155b15610214576040518060400160405280600181526020017f430000000000000000000000000000000000000000000000000000000000000081525090506102a3565b60315f5411158015610228575060285f5410155b1561026a576040518060400160405280600181526020017f440000000000000000000000000000000000000000000000000000000000000081525090506102a3565b6040518060400160405280600181526020017f460000000000000000000000000000000000000000000000000000000000000081525090505b90565b5f5481565b5f81519050919050565b5f82825260208201905092915050565b8281835e5f83830152505050565b5f601f19601f8301169050919050565b5f6102ed826102ab565b6102f781856102b5565b93506103078185602086016102c5565b610310816102d3565b840191505092915050565b5f6020820190508181035f83015261033381846102e3565b905092915050565b5f819050919050565b61034d8161033b565b82525050565b5f6020820190506103665f830184610344565b9291505056fea26469706673582212203a08cece333f7b650256fa7fe87beafd7a02b57596712f17f0207b2ef87ef81164736f6c634300081d0033",
					"opcodes": "PUSH1 0x80 PUSH1 0x40 MSTORE CALLVALUE DUP1 ISZERO PUSH1 0xE JUMPI PUSH0 PUSH0 REVERT JUMPDEST POP PUSH1 0x40 MLOAD PUSH2 0x440 CODESIZE SUB DUP1 PUSH2 0x440 DUP4 CODECOPY DUP2 DUP2 ADD PUSH1 0x40 MSTORE DUP2 ADD SWAP1 PUSH1 0x2E SWAP2 SWAP1 PUSH1 0x6B JUMP JUMPDEST DUP1 PUSH0 DUP2 SWAP1 SSTORE POP POP PUSH1 0x91 JUMP JUMPDEST PUSH0 PUSH0 REVERT JUMPDEST PUSH0 DUP2 SWAP1 POP SWAP2 SWAP1 POP JUMP JUMPDEST PUSH1 0x4D DUP2 PUSH1 0x3D JUMP JUMPDEST DUP2 EQ PUSH1 0x56 JUMPI PUSH0 PUSH0 REVERT JUMPDEST POP JUMP JUMPDEST PUSH0 DUP2 MLOAD SWAP1 POP PUSH1 0x65 DUP2 PUSH1 0x46 JUMP JUMPDEST SWAP3 SWAP2 POP POP JUMP JUMPDEST PUSH0 PUSH1 0x20 DUP3 DUP5 SUB SLT ISZERO PUSH1 0x7D JUMPI PUSH1 0x7C PUSH1 0x39 JUMP JUMPDEST JUMPDEST PUSH0 PUSH1 0x88 DUP5 DUP3 DUP6 ADD PUSH1 0x59 JUMP JUMPDEST SWAP2 POP POP SWAP3 SWAP2 POP POP JUMP JUMPDEST PUSH2 0x3A2 DUP1 PUSH2 0x9E PUSH0 CODECOPY PUSH0 RETURN INVALID PUSH1 0x80 PUSH1 0x40 MSTORE CALLVALUE DUP1 ISZERO PUSH2 0xF JUMPI PUSH0 PUSH0 REVERT JUMPDEST POP PUSH1 0x4 CALLDATASIZE LT PUSH2 0x34 JUMPI PUSH0 CALLDATALOAD PUSH1 0xE0 SHR DUP1 PUSH4 0x2278AE6F EQ PUSH2 0x38 JUMPI DUP1 PUSH4 0x3C84C5A5 EQ PUSH2 0x56 JUMPI JUMPDEST PUSH0 PUSH0 REVERT JUMPDEST PUSH2 0x40 PUSH2 0x74 JUMP JUMPDEST PUSH1 0x40 MLOAD PUSH2 0x4D SWAP2 SWAP1 PUSH2 0x31B JUMP JUMPDEST PUSH1 0x40 MLOAD DUP1 SWAP2 SUB SWAP1 RETURN JUMPDEST PUSH2 0x5E PUSH2 0x2A6 JUMP JUMPDEST PUSH1 0x40 MLOAD PUSH2 0x6B SWAP2 SWAP1 PUSH2 0x353 JUMP JUMPDEST PUSH1 0x40 MLOAD DUP1 SWAP2 SUB SWAP1 RETURN JUMPDEST PUSH1 0x60 PUSH1 0x5A PUSH0 SLOAD LT PUSH2 0xBC JUMPI PUSH1 0x40 MLOAD DUP1 PUSH1 0x40 ADD PUSH1 0x40 MSTORE DUP1 PUSH1 0x1 DUP2 MSTORE PUSH1 0x20 ADD PUSH32 0x4F00000000000000000000000000000000000000000000000000000000000000 DUP2 MSTORE POP SWAP1 POP PUSH2 0x2A3 JUMP JUMPDEST PUSH1 0x59 PUSH0 SLOAD GT ISZERO DUP1 ISZERO PUSH2 0xD0 JUMPI POP PUSH1 0x50 PUSH0 SLOAD LT ISZERO JUMPDEST ISZERO PUSH2 0x112 JUMPI PUSH1 0x40 MLOAD DUP1 PUSH1 0x40 ADD PUSH1 0x40 MSTORE DUP1 PUSH1 0x1 DUP2 MSTORE PUSH1 0x20 ADD PUSH32 0x4500000000000000000000000000000000000000000000000000000000000000 DUP2 MSTORE POP SWAP1 POP PUSH2 0x2A3 JUMP JUMPDEST PUSH1 0x4F PUSH0 SLOAD GT ISZERO DUP1 ISZERO PUSH2 0x126 JUMPI POP PUSH1 0x46 PUSH0 SLOAD LT ISZERO JUMPDEST ISZERO PUSH2 0x168 JUMPI PUSH1 0x40 MLOAD DUP1 PUSH1 0x40 ADD PUSH1 0x40 MSTORE DUP1 PUSH1 0x1 DUP2 MSTORE PUSH1 0x20 ADD PUSH32 0x4100000000000000000000000000000000000000000000000000000000000000 DUP2 MSTORE POP SWAP1 POP PUSH2 0x2A3 JUMP JUMPDEST PUSH1 0x45 PUSH0 SLOAD GT ISZERO DUP1 ISZERO PUSH2 0x17C JUMPI POP PUSH1 0x3C PUSH0 SLOAD LT ISZERO JUMPDEST ISZERO PUSH2 0x1BE JUMPI PUSH1 0x40 MLOAD DUP1 PUSH1 0x40 ADD PUSH1 0x40 MSTORE DUP1 PUSH1 0x1 DUP2 MSTORE PUSH1 0x20 ADD PUSH32 0x4200000000000000000000000000000000000000000000000000000000000000 DUP2 MSTORE POP SWAP1 POP PUSH2 0x2A3 JUMP JUMPDEST PUSH1 0x3B PUSH0 SLOAD GT ISZERO DUP1 ISZERO PUSH2 0x1D2 JUMPI POP PUSH1 0x32 PUSH0 SLOAD LT ISZERO JUMPDEST ISZERO PUSH2 0x214 JUMPI PUSH1 0x40 MLOAD DUP1 PUSH1 0x40 ADD PUSH1 0x40 MSTORE DUP1 PUSH1 0x1 DUP2 MSTORE PUSH1 0x20 ADD PUSH32 0x4300000000000000000000000000000000000000000000000000000000000000 DUP2 MSTORE POP SWAP1 POP PUSH2 0x2A3 JUMP JUMPDEST PUSH1 0x31 PUSH0 SLOAD GT ISZERO DUP1 ISZERO PUSH2 0x228 JUMPI POP PUSH1 0x28 PUSH0 SLOAD LT ISZERO JUMPDEST ISZERO PUSH2 0x26A JUMPI PUSH1 0x40 MLOAD DUP1 PUSH1 0x40 ADD PUSH1 0x40 MSTORE DUP1 PUSH1 0x1 DUP2 MSTORE PUSH1 0x20 ADD PUSH32 0x4400000000000000000000000000000000000000000000000000000000000000 DUP2 MSTORE POP SWAP1 POP PUSH2 0x2A3 JUMP JUMPDEST PUSH1 0x40 MLOAD DUP1 PUSH1 0x40 ADD PUSH1 0x40 MSTORE DUP1 PUSH1 0x1 DUP2 MSTORE PUSH1 0x20 ADD PUSH32 0x4600000000000000000000000000000000000000000000000000000000000000 DUP2 MSTORE POP SWAP1 POP JUMPDEST SWAP1 JUMP JUMPDEST PUSH0 SLOAD DUP2 JUMP JUMPDEST PUSH0 DUP2 MLOAD SWAP1 POP SWAP2 SWAP1 POP JUMP JUMPDEST PUSH0 DUP3 DUP3 MSTORE PUSH1 0x20 DUP3 ADD SWAP1 POP SWAP3 SWAP2 POP POP JUMP JUMPDEST DUP3 DUP2 DUP4 MCOPY PUSH0 DUP4 DUP4 ADD MSTORE POP POP POP JUMP JUMPDEST PUSH0 PUSH1 0x1F NOT PUSH1 0x1F DUP4 ADD AND SWAP1 POP SWAP2 SWAP1 POP JUMP JUMPDEST PUSH0 PUSH2 0x2ED DUP3 PUSH2 0x2AB JUMP JUMPDEST PUSH2 0x2F7 DUP2 DUP6 PUSH2 0x2B5 JUMP JUMPDEST SWAP4 POP PUSH2 0x307 DUP2 DUP6 PUSH1 0x20 DUP7 ADD PUSH2 0x2C5 JUMP JUMPDEST PUSH2 0x310 DUP2 PUSH2 0x2D3 JUMP JUMPDEST DUP5 ADD SWAP2 POP POP SWAP3 SWAP2 POP POP JUMP JUMPDEST PUSH0 PUSH1 0x20 DUP3 ADD SWAP1 POP DUP2 DUP2 SUB PUSH0 DUP4 ADD MSTORE PUSH2 0x333 DUP2 DUP5 PUSH2 0x2E3 JUMP JUMPDEST SWAP1 POP SWAP3 SWAP2 POP POP JUMP JUMPDEST PUSH0 DUP2 SWAP1 POP SWAP2 SWAP1 POP JUMP JUMPDEST PUSH2 0x34D DUP2 PUSH2 0x33B JUMP JUMPDEST DUP3 MSTORE POP POP JUMP JUMPDEST PUSH0 PUSH1 0x20 DUP3 ADD SWAP1 POP PUSH2 0x366 PUSH0 DUP4 ADD DUP5 PUSH2 0x344 JUMP JUMPDEST SWAP3 SWAP2 POP POP JUMP INVALID LOG2 PUSH5 0x6970667358 0x22 SLT KECCAK256 GASPRICE ADDMOD 0xCE 0xCE CALLER EXTCODEHASH PUSH28 0x650256FA7FE87BEAFD7A02B57596712F17F0207B2EF87EF81164736F PUSH13 0x634300081D0033000000000000 "
				},
				"gasEstimates": {
					"creation": {
						"codeDepositCost": "186000",
						"executionCost": "infinite",
						"totalCost": "infinite"
					},
					"external": {
						"grades()": "infinite",
						"marks()": "2424"
					}
				},
				"methodIdentifiers": {
					"grades()": "2278ae6f",
					"marks()": "3c84c5a5"
				}
			},
			"storageLayout": {
				"storage": [
					{
						"astId": 3,
						"contract": "Practice/P8.sol:reportCard",
						"label": "marks",
						"offset": 0,
						"slot": "0",
						"type": "t_uint256"
					}
				],
				"types": {
					"t_uint256": {
						"encoding": "inplace",
						"label": "uint256",
						"numberOfBytes": "32"
					}
				}
			},
			"userdoc": {
				"kind": "user",
				"methods": {},
				"version": 1
			}
		}
	}
}