{
	"Day-02/HomeWork/D2H1.sol": {
		"LeapYearChecker": {
			"abi": [
				{
					"inputs": [
						{
							"internalType": "uint256",
							"name": "year",
							"type": "uint256"
						}
					],
					"name": "isLeapYear",
					"outputs": [
						{
							"internalType": "bool",
							"name": "",
							"type": "bool"
						}
					],
					"stateMutability": "pure",
					"type": "function"
				}
			],
			"devdoc": {
				"kind": "dev",
				"methods": {},
				"version": 1
			},
			"evm": {
				"assembly": "    /* \"Day-02/HomeWork/D2H1.sol\":64:483  contract LeapYearChecker {... */\n  mstore(0x40, 0x80)\n  callvalue\n  dup1\n  iszero\n  tag_1\n  jumpi\n  0x00\n  dup1\n  revert\ntag_1:\n  pop\n  dataSize(sub_0)\n  dup1\n  dataOffset(sub_0)\n  0x00\n  codecopy\n  0x00\n  return\nstop\n\nsub_0: assembly {\n        /* \"Day-02/HomeWork/D2H1.sol\":64:483  contract LeapYearChecker {... */\n      mstore(0x40, 0x80)\n      callvalue\n      dup1\n      iszero\n      tag_1\n      jumpi\n      0x00\n      dup1\n      revert\n    tag_1:\n      pop\n      jumpi(tag_2, lt(calldatasize, 0x04))\n      shr(0xe0, calldataload(0x00))\n      dup1\n      0xb8d16dbc\n      eq\n      tag_3\n      jumpi\n    tag_2:\n      0x00\n      dup1\n      revert\n        /* \"Day-02/HomeWork/D2H1.sol\":147:480  function isLeapYear(uint256 year) public pure returns (bool) {... */\n    tag_3:\n      tag_4\n      0x04\n      dup1\n      calldatasize\n      sub\n      dup2\n      add\n      swap1\n      tag_5\n      swap2\n      swap1\n      tag_6\n      jump\t// in\n    tag_5:\n      tag_7\n      jump\t// in\n    tag_4:\n      mload(0x40)\n      tag_8\n      swap2\n      swap1\n      tag_9\n      jump\t// in\n    tag_8:\n      mload(0x40)\n      dup1\n      swap2\n      sub\n      swap1\n      return\n    tag_7:\n        /* \"Day-02/HomeWork/D2H1.sol\":202:206  bool */\n      0x00\n        /* \"Day-02/HomeWork/D2H1.sol\":346:347  0 */\n      dup1\n        /* \"Day-02/HomeWork/D2H1.sol\":341:342  4 */\n      0x04\n        /* \"Day-02/HomeWork/D2H1.sol\":334:338  year */\n      dup4\n        /* \"Day-02/HomeWork/D2H1.sol\":334:342  year % 4 */\n      tag_11\n      swap2\n      swap1\n      tag_12\n      jump\t// in\n    tag_11:\n        /* \"Day-02/HomeWork/D2H1.sol\":334:347  year % 4 == 0 */\n      eq\n        /* \"Day-02/HomeWork/D2H1.sol\":334:366  year % 4 == 0 && year % 100 != 0 */\n      dup1\n      iszero\n      tag_13\n      jumpi\n      pop\n        /* \"Day-02/HomeWork/D2H1.sol\":365:366  0 */\n      0x00\n        /* \"Day-02/HomeWork/D2H1.sol\":358:361  100 */\n      0x64\n        /* \"Day-02/HomeWork/D2H1.sol\":351:355  year */\n      dup4\n        /* \"Day-02/HomeWork/D2H1.sol\":351:361  year % 100 */\n      tag_14\n      swap2\n      swap1\n      tag_12\n      jump\t// in\n    tag_14:\n        /* \"Day-02/HomeWork/D2H1.sol\":351:366  year % 100 != 0 */\n      eq\n      iszero\n        /* \"Day-02/HomeWork/D2H1.sol\":334:366  year % 4 == 0 && year % 100 != 0 */\n    tag_13:\n        /* \"Day-02/HomeWork/D2H1.sol\":333:388  (year % 4 == 0 && year % 100 != 0) || (year % 400 == 0) */\n      dup1\n      tag_15\n      jumpi\n      pop\n        /* \"Day-02/HomeWork/D2H1.sol\":386:387  0 */\n      0x00\n        /* \"Day-02/HomeWork/D2H1.sol\":379:382  400 */\n      0x0190\n        /* \"Day-02/HomeWork/D2H1.sol\":372:376  year */\n      dup4\n        /* \"Day-02/HomeWork/D2H1.sol\":372:382  year % 400 */\n      tag_16\n      swap2\n      swap1\n      tag_12\n      jump\t// in\n    tag_16:\n        /* \"Day-02/HomeWork/D2H1.sol\":372:387  year % 400 == 0 */\n      eq\n        /* \"Day-02/HomeWork/D2H1.sol\":333:388  (year % 4 == 0 && year % 100 != 0) || (year % 400 == 0) */\n    tag_15:\n        /* \"Day-02/HomeWork/D2H1.sol\":329:473  if ((year % 4 == 0 && year % 100 != 0) || (year % 400 == 0)) {... */\n      iszero\n      tag_17\n      jumpi\n        /* \"Day-02/HomeWork/D2H1.sol\":412:416  true */\n      0x01\n        /* \"Day-02/HomeWork/D2H1.sol\":405:416  return true */\n      swap1\n      pop\n      jump(tag_10)\n        /* \"Day-02/HomeWork/D2H1.sol\":329:473  if ((year % 4 == 0 && year % 100 != 0) || (year % 400 == 0)) {... */\n    tag_17:\n        /* \"Day-02/HomeWork/D2H1.sol\":456:461  false */\n      0x00\n        /* \"Day-02/HomeWork/D2H1.sol\":449:461  return false */\n      swap1\n      pop\n        /* \"Day-02/HomeWork/D2H1.sol\":147:480  function isLeapYear(uint256 year) public pure returns (bool) {... */\n    tag_10:\n      swap2\n      swap1\n      pop\n      jump\t// out\n        /* \"#utility.yul\":88:205   */\n    tag_20:\n        /* \"#utility.yul\":197:198   */\n      0x00\n        /* \"#utility.yul\":194:195   */\n      dup1\n        /* \"#utility.yul\":187:199   */\n      revert\n        /* \"#utility.yul\":334:411   */\n    tag_22:\n        /* \"#utility.yul\":371:378   */\n      0x00\n        /* \"#utility.yul\":400:405   */\n      dup2\n        /* \"#utility.yul\":389:405   */\n      swap1\n      pop\n        /* \"#utility.yul\":334:411   */\n      swap2\n      swap1\n      pop\n      jump\t// out\n        /* \"#utility.yul\":417:539   */\n    tag_23:\n        /* \"#utility.yul\":490:514   */\n      tag_34\n        /* \"#utility.yul\":508:513   */\n      dup2\n        /* \"#utility.yul\":490:514   */\n      tag_22\n      jump\t// in\n    tag_34:\n        /* \"#utility.yul\":483:488   */\n      dup2\n        /* \"#utility.yul\":480:515   */\n      eq\n        /* \"#utility.yul\":470:533   */\n      tag_35\n      jumpi\n        /* \"#utility.yul\":529:530   */\n      0x00\n        /* \"#utility.yul\":526:527   */\n      dup1\n        /* \"#utility.yul\":519:531   */\n      revert\n        /* \"#utility.yul\":470:533   */\n    tag_35:\n        /* \"#utility.yul\":417:539   */\n      pop\n      jump\t// out\n        /* \"#utility.yul\":545:684   */\n    tag_24:\n        /* \"#utility.yul\":591:596   */\n      0x00\n        /* \"#utility.yul\":629:635   */\n      dup2\n        /* \"#utility.yul\":616:636   */\n      calldataload\n        /* \"#utility.yul\":607:636   */\n      swap1\n      pop\n        /* \"#utility.yul\":645:678   */\n      tag_37\n        /* \"#utility.yul\":672:677   */\n      dup2\n        /* \"#utility.yul\":645:678   */\n      tag_23\n      jump\t// in\n    tag_37:\n        /* \"#utility.yul\":545:684   */\n      swap3\n      swap2\n      pop\n      pop\n      jump\t// out\n        /* \"#utility.yul\":690:1019   */\n    tag_6:\n        /* \"#utility.yul\":749:755   */\n      0x00\n        /* \"#utility.yul\":798:800   */\n      0x20\n        /* \"#utility.yul\":786:795   */\n      dup3\n        /* \"#utility.yul\":777:784   */\n      dup5\n        /* \"#utility.yul\":773:796   */\n      sub\n        /* \"#utility.yul\":769:801   */\n      slt\n        /* \"#utility.yul\":766:885   */\n      iszero\n      tag_39\n      jumpi\n        /* \"#utility.yul\":804:883   */\n      tag_40\n      tag_20\n      jump\t// in\n    tag_40:\n        /* \"#utility.yul\":766:885   */\n    tag_39:\n        /* \"#utility.yul\":924:925   */\n      0x00\n        /* \"#utility.yul\":949:1002   */\n      tag_41\n        /* \"#utility.yul\":994:1001   */\n      dup5\n        /* \"#utility.yul\":985:991   */\n      dup3\n        /* \"#utility.yul\":974:983   */\n      dup6\n        /* \"#utility.yul\":970:992   */\n      add\n        /* \"#utility.yul\":949:1002   */\n      tag_24\n      jump\t// in\n    tag_41:\n        /* \"#utility.yul\":939:1002   */\n      swap2\n      pop\n        /* \"#utility.yul\":895:1012   */\n      pop\n        /* \"#utility.yul\":690:1019   */\n      swap3\n      swap2\n      pop\n      pop\n      jump\t// out\n        /* \"#utility.yul\":1025:1115   */\n    tag_25:\n        /* \"#utility.yul\":1059:1066   */\n      0x00\n        /* \"#utility.yul\":1102:1107   */\n      dup2\n        /* \"#utility.yul\":1095:1108   */\n      iszero\n        /* \"#utility.yul\":1088:1109   */\n      iszero\n        /* \"#utility.yul\":1077:1109   */\n      swap1\n      pop\n        /* \"#utility.yul\":1025:1115   */\n      swap2\n      swap1\n      pop\n      jump\t// out\n        /* \"#utility.yul\":1121:1230   */\n    tag_26:\n        /* \"#utility.yul\":1202:1223   */\n      tag_44\n        /* \"#utility.yul\":1217:1222   */\n      dup2\n        /* \"#utility.yul\":1202:1223   */\n      tag_25\n      jump\t// in\n    tag_44:\n        /* \"#utility.yul\":1197:1200   */\n      dup3\n        /* \"#utility.yul\":1190:1224   */\n      mstore\n        /* \"#utility.yul\":1121:1230   */\n      pop\n      pop\n      jump\t// out\n        /* \"#utility.yul\":1236:1446   */\n    tag_9:\n        /* \"#utility.yul\":1323:1327   */\n      0x00\n        /* \"#utility.yul\":1361:1363   */\n      0x20\n        /* \"#utility.yul\":1350:1359   */\n      dup3\n        /* \"#utility.yul\":1346:1364   */\n      add\n        /* \"#utility.yul\":1338:1364   */\n      swap1\n      pop\n        /* \"#utility.yul\":1374:1439   */\n      tag_46\n        /* \"#utility.yul\":1436:1437   */\n      0x00\n        /* \"#utility.yul\":1425:1434   */\n      dup4\n        /* \"#utility.yul\":1421:1438   */\n      add\n        /* \"#utility.yul\":1412:1418   */\n      dup5\n        /* \"#utility.yul\":1374:1439   */\n      tag_26\n      jump\t// in\n    tag_46:\n        /* \"#utility.yul\":1236:1446   */\n      swap3\n      swap2\n      pop\n      pop\n      jump\t// out\n        /* \"#utility.yul\":1452:1632   */\n    tag_27:\n        /* \"#utility.yul\":1500:1577   */\n      0x4e487b7100000000000000000000000000000000000000000000000000000000\n        /* \"#utility.yul\":1497:1498   */\n      0x00\n        /* \"#utility.yul\":1490:1578   */\n      mstore\n        /* \"#utility.yul\":1597:1601   */\n      0x12\n        /* \"#utility.yul\":1594:1595   */\n      0x04\n        /* \"#utility.yul\":1587:1602   */\n      mstore\n        /* \"#utility.yul\":1621:1625   */\n      0x24\n        /* \"#utility.yul\":1618:1619   */\n      0x00\n        /* \"#utility.yul\":1611:1626   */\n      revert\n        /* \"#utility.yul\":1638:1814   */\n    tag_12:\n        /* \"#utility.yul\":1670:1671   */\n      0x00\n        /* \"#utility.yul\":1687:1707   */\n      tag_49\n        /* \"#utility.yul\":1705:1706   */\n      dup3\n        /* \"#utility.yul\":1687:1707   */\n      tag_22\n      jump\t// in\n    tag_49:\n        /* \"#utility.yul\":1682:1707   */\n      swap2\n      pop\n        /* \"#utility.yul\":1721:1741   */\n      tag_50\n        /* \"#utility.yul\":1739:1740   */\n      dup4\n        /* \"#utility.yul\":1721:1741   */\n      tag_22\n      jump\t// in\n    tag_50:\n        /* \"#utility.yul\":1716:1741   */\n      swap3\n      pop\n        /* \"#utility.yul\":1760:1761   */\n      dup3\n        /* \"#utility.yul\":1750:1785   */\n      tag_51\n      jumpi\n        /* \"#utility.yul\":1765:1783   */\n      tag_52\n      tag_27\n      jump\t// in\n    tag_52:\n        /* \"#utility.yul\":1750:1785   */\n    tag_51:\n        /* \"#utility.yul\":1806:1807   */\n      dup3\n        /* \"#utility.yul\":1803:1804   */\n      dup3\n        /* \"#utility.yul\":1799:1808   */\n      mod\n        /* \"#utility.yul\":1794:1808   */\n      swap1\n      pop\n        /* \"#utility.yul\":1638:1814   */\n      swap3\n      swap2\n      pop\n      pop\n      jump\t// out\n\n    auxdata: 0xa264697066735822122025405b87eedefcc26f12a1cf1bd5223d3f218b4286455fde377bc331163798ab64736f6c634300081a0033\n}\n",
				"bytecode": {
					"linkReferences": {},
					"object": "6080604052348015600e575f80fd5b506101db8061001c5f395ff3fe608060405234801561000f575f80fd5b5060043610610029575f3560e01c8063b8d16dbc1461002d575b5f80fd5b610047600480360381019061004291906100ea565b61005d565b604051610054919061012f565b60405180910390f35b5f8060048361006c9190610175565b14801561008557505f6064836100829190610175565b14155b8061009c57505f6101908361009a9190610175565b145b156100aa57600190506100ae565b5f90505b919050565b5f80fd5b5f819050919050565b6100c9816100b7565b81146100d3575f80fd5b50565b5f813590506100e4816100c0565b92915050565b5f602082840312156100ff576100fe6100b3565b5b5f61010c848285016100d6565b91505092915050565b5f8115159050919050565b61012981610115565b82525050565b5f6020820190506101425f830184610120565b92915050565b7f4e487b71000000000000000000000000000000000000000000000000000000005f52601260045260245ffd5b5f61017f826100b7565b915061018a836100b7565b92508261019a57610199610148565b5b82820690509291505056fea264697066735822122025405b87eedefcc26f12a1cf1bd5223d3f218b4286455fde377bc331163798ab64736f6c634300081a0033",
					"opcodes": "PUSH1 0x80 PUSH1 0x40 MSTORE CALLVALUE DUP1 ISZERO PUSH1 0xE JUMPI PUSH0 DUP1 REVERT JUMPDEST POP PUSH2 0x1DB DUP1 PUSH2 0x1C PUSH0 CODECOPY PUSH0 RETURN INVALID PUSH1 0x80 PUSH1 0x40 MSTORE CALLVALUE DUP1 ISZERO PUSH2 0xF JUMPI PUSH0 DUP1 REVERT JUMPDEST POP PUSH1 0x4 CALLDATASIZE LT PUSH2 0x29 JUMPI PUSH0 CALLDATALOAD PUSH1 0xE0 SHR DUP1 PUSH4 0xB8D16DBC EQ PUSH2 0x2D JUMPI JUMPDEST PUSH0 DUP1 REVERT JUMPDEST PUSH2 0x47 PUSH1 0x4 DUP1 CALLDATASIZE SUB DUP2 ADD SWAP1 PUSH2 0x42 SWAP2 SWAP1 PUSH2 0xEA JUMP JUMPDEST PUSH2 0x5D JUMP JUMPDEST PUSH1 0x40 MLOAD PUSH2 0x54 SWAP2 SWAP1 PUSH2 0x12F JUMP JUMPDEST PUSH1 0x40 MLOAD DUP1 SWAP2 SUB SWAP1 RETURN JUMPDEST PUSH0 DUP1 PUSH1 0x4 DUP4 PUSH2 0x6C SWAP2 SWAP1 PUSH2 0x175 JUMP JUMPDEST EQ DUP1 ISZERO PUSH2 0x85 JUMPI POP PUSH0 PUSH1 0x64 DUP4 PUSH2 0x82 SWAP2 SWAP1 PUSH2 0x175 JUMP JUMPDEST EQ ISZERO JUMPDEST DUP1 PUSH2 0x9C JUMPI POP PUSH0 PUSH2 0x190 DUP4 PUSH2 0x9A SWAP2 SWAP1 PUSH2 0x175 JUMP JUMPDEST EQ JUMPDEST ISZERO PUSH2 0xAA JUMPI PUSH1 0x1 SWAP1 POP PUSH2 0xAE JUMP JUMPDEST PUSH0 SWAP1 POP JUMPDEST SWAP2 SWAP1 POP JUMP JUMPDEST PUSH0 DUP1 REVERT JUMPDEST PUSH0 DUP2 SWAP1 POP SWAP2 SWAP1 POP JUMP JUMPDEST PUSH2 0xC9 DUP2 PUSH2 0xB7 JUMP JUMPDEST DUP2 EQ PUSH2 0xD3 JUMPI PUSH0 DUP1 REVERT JUMPDEST POP JUMP JUMPDEST PUSH0 DUP2 CALLDATALOAD SWAP1 POP PUSH2 0xE4 DUP2 PUSH2 0xC0 JUMP JUMPDEST SWAP3 SWAP2 POP POP JUMP JUMPDEST PUSH0 PUSH1 0x20 DUP3 DUP5 SUB SLT ISZERO PUSH2 0xFF JUMPI PUSH2 0xFE PUSH2 0xB3 JUMP JUMPDEST JUMPDEST PUSH0 PUSH2 0x10C DUP5 DUP3 DUP6 ADD PUSH2 0xD6 JUMP JUMPDEST SWAP2 POP POP SWAP3 SWAP2 POP POP JUMP JUMPDEST PUSH0 DUP2 ISZERO ISZERO SWAP1 POP SWAP2 SWAP1 POP JUMP JUMPDEST PUSH2 0x129 DUP2 PUSH2 0x115 JUMP JUMPDEST DUP3 MSTORE POP POP JUMP JUMPDEST PUSH0 PUSH1 0x20 DUP3 ADD SWAP1 POP PUSH2 0x142 PUSH0 DUP4 ADD DUP5 PUSH2 0x120 JUMP JUMPDEST SWAP3 SWAP2 POP POP JUMP JUMPDEST PUSH32 0x4E487B7100000000000000000000000000000000000000000000000000000000 PUSH0 MSTORE PUSH1 0x12 PUSH1 0x4 MSTORE PUSH1 0x24 PUSH0 REVERT JUMPDEST PUSH0 PUSH2 0x17F DUP3 PUSH2 0xB7 JUMP JUMPDEST SWAP2 POP PUSH2 0x18A DUP4 PUSH2 0xB7 JUMP JUMPDEST SWAP3 POP DUP3 PUSH2 0x19A JUMPI PUSH2 0x199 PUSH2 0x148 JUMP JUMPDEST JUMPDEST DUP3 DUP3 MOD SWAP1 POP SWAP3 SWAP2 POP POP JUMP INVALID LOG2 PUSH5 0x6970667358 0x22 SLT KECCAK256 0x25 BLOCKHASH JUMPDEST DUP8 0xEE 0xDE 0xFC 0xC2 PUSH16 0x12A1CF1BD5223D3F218B4286455FDE37 PUSH28 0xC331163798AB64736F6C634300081A00330000000000000000000000 "
				},
				"gasEstimates": {
					"creation": {
						"codeDepositCost": "95000",
						"executionCost": "139",
						"totalCost": "95139"
					},
					"external": {
						"isLeapYear(uint256)": "infinite"
					}
				},
				"methodIdentifiers": {
					"isLeapYear(uint256)": "b8d16dbc"
				}
			},
			"storageLayout": {
				"storage": [],
				"types": null
			},
			"userdoc": {
				"kind": "user",
				"methods": {},
				"version": 1
			}
		}
	}
}