{
	"Day-02/HomeWork/D2H2.sol": {
		"VowelConsonantChecker": {
			"abi": [
				{
					"inputs": [
						{
							"internalType": "bytes1",
							"name": "_char",
							"type": "bytes1"
						}
					],
					"name": "checkAlphabet",
					"outputs": [
						{
							"internalType": "string",
							"name": "",
							"type": "string"
						}
					],
					"stateMutability": "pure",
					"type": "function"
				}
			],
			"devdoc": {
				"kind": "dev",
				"methods": {},
				"version": 1
			},
			"evm": {
				"assembly": "    /* \"Day-02/HomeWork/D2H2.sol\":64:1263  contract VowelConsonantChecker {... */\n  mstore(0x40, 0x80)\n  callvalue\n  dup1\n  iszero\n  tag_1\n  jumpi\n  0x00\n  dup1\n  revert\ntag_1:\n  pop\n  dataSize(sub_0)\n  dup1\n  dataOffset(sub_0)\n  0x00\n  codecopy\n  0x00\n  return\nstop\n\nsub_0: assembly {\n        /* \"Day-02/HomeWork/D2H2.sol\":64:1263  contract VowelConsonantChecker {... */\n      mstore(0x40, 0x80)\n      callvalue\n      dup1\n      iszero\n      tag_1\n      jumpi\n      0x00\n      dup1\n      revert\n    tag_1:\n      pop\n      jumpi(tag_2, lt(calldatasize, 0x04))\n      shr(0xe0, calldataload(0x00))\n      dup1\n      0x8fff7438\n      eq\n      tag_3\n      jumpi\n    tag_2:\n      0x00\n      dup1\n      revert\n        /* \"Day-02/HomeWork/D2H2.sol\":167:874  function checkAlphabet(bytes1 _char) public pure returns (string memory) {... */\n    tag_3:\n      tag_4\n      0x04\n      dup1\n      calldatasize\n      sub\n      dup2\n      add\n      swap1\n      tag_5\n      swap2\n      swap1\n      tag_6\n      jump\t// in\n    tag_5:\n      tag_7\n      jump\t// in\n    tag_4:\n      mload(0x40)\n      tag_8\n      swap2\n      swap1\n      tag_9\n      jump\t// in\n    tag_8:\n      mload(0x40)\n      dup1\n      swap2\n      sub\n      swap1\n      return\n    tag_7:\n        /* \"Day-02/HomeWork/D2H2.sol\":225:238  string memory */\n      0x60\n        /* \"Day-02/HomeWork/D2H2.sol\":326:342  bytes1 lowerChar */\n      0x00\n        /* \"Day-02/HomeWork/D2H2.sol\":345:359  toLower(_char) */\n      tag_11\n        /* \"Day-02/HomeWork/D2H2.sol\":353:358  _char */\n      dup4\n        /* \"Day-02/HomeWork/D2H2.sol\":345:352  toLower */\n      tag_12\n        /* \"Day-02/HomeWork/D2H2.sol\":345:359  toLower(_char) */\n      jump\t// in\n    tag_11:\n        /* \"Day-02/HomeWork/D2H2.sol\":326:359  bytes1 lowerChar = toLower(_char) */\n      swap1\n      pop\n        /* \"Day-02/HomeWork/D2H2.sol\":422:438  lowerChar == 'a' */\n      0x6100000000000000000000000000000000000000000000000000000000000000\n        /* \"Day-02/HomeWork/D2H2.sol\":422:431  lowerChar */\n      dup2\n        /* \"Day-02/HomeWork/D2H2.sol\":422:438  lowerChar == 'a' */\n      not(0xffffffffffffffffffffffffffffffffffffffffffffffffffffffffffffff)\n      and\n      eq\n        /* \"Day-02/HomeWork/D2H2.sol\":422:458  lowerChar == 'a' || lowerChar == 'e' */\n      dup1\n      tag_13\n      jumpi\n      pop\n        /* \"Day-02/HomeWork/D2H2.sol\":442:458  lowerChar == 'e' */\n      0x6500000000000000000000000000000000000000000000000000000000000000\n        /* \"Day-02/HomeWork/D2H2.sol\":442:451  lowerChar */\n      dup2\n        /* \"Day-02/HomeWork/D2H2.sol\":442:458  lowerChar == 'e' */\n      not(0xffffffffffffffffffffffffffffffffffffffffffffffffffffffffffffff)\n      and\n      eq\n        /* \"Day-02/HomeWork/D2H2.sol\":422:458  lowerChar == 'a' || lowerChar == 'e' */\n    tag_13:\n        /* \"Day-02/HomeWork/D2H2.sol\":422:478  lowerChar == 'a' || lowerChar == 'e' || lowerChar == 'i' */\n      dup1\n      tag_14\n      jumpi\n      pop\n        /* \"Day-02/HomeWork/D2H2.sol\":462:478  lowerChar == 'i' */\n      0x6900000000000000000000000000000000000000000000000000000000000000\n        /* \"Day-02/HomeWork/D2H2.sol\":462:471  lowerChar */\n      dup2\n        /* \"Day-02/HomeWork/D2H2.sol\":462:478  lowerChar == 'i' */\n      not(0xffffffffffffffffffffffffffffffffffffffffffffffffffffffffffffff)\n      and\n      eq\n        /* \"Day-02/HomeWork/D2H2.sol\":422:478  lowerChar == 'a' || lowerChar == 'e' || lowerChar == 'i' */\n    tag_14:\n        /* \"Day-02/HomeWork/D2H2.sol\":422:498  lowerChar == 'a' || lowerChar == 'e' || lowerChar == 'i' || lowerChar == 'o' */\n      dup1\n      tag_15\n      jumpi\n      pop\n        /* \"Day-02/HomeWork/D2H2.sol\":482:498  lowerChar == 'o' */\n      0x6f00000000000000000000000000000000000000000000000000000000000000\n        /* \"Day-02/HomeWork/D2H2.sol\":482:491  lowerChar */\n      dup2\n        /* \"Day-02/HomeWork/D2H2.sol\":482:498  lowerChar == 'o' */\n      not(0xffffffffffffffffffffffffffffffffffffffffffffffffffffffffffffff)\n      and\n      eq\n        /* \"Day-02/HomeWork/D2H2.sol\":422:498  lowerChar == 'a' || lowerChar == 'e' || lowerChar == 'i' || lowerChar == 'o' */\n    tag_15:\n        /* \"Day-02/HomeWork/D2H2.sol\":422:518  lowerChar == 'a' || lowerChar == 'e' || lowerChar == 'i' || lowerChar == 'o' || lowerChar == 'u' */\n      dup1\n      tag_16\n      jumpi\n      pop\n        /* \"Day-02/HomeWork/D2H2.sol\":502:518  lowerChar == 'u' */\n      0x7500000000000000000000000000000000000000000000000000000000000000\n        /* \"Day-02/HomeWork/D2H2.sol\":502:511  lowerChar */\n      dup2\n        /* \"Day-02/HomeWork/D2H2.sol\":502:518  lowerChar == 'u' */\n      not(0xffffffffffffffffffffffffffffffffffffffffffffffffffffffffffffff)\n      and\n      eq\n        /* \"Day-02/HomeWork/D2H2.sol\":422:518  lowerChar == 'a' || lowerChar == 'e' || lowerChar == 'i' || lowerChar == 'o' || lowerChar == 'u' */\n    tag_16:\n        /* \"Day-02/HomeWork/D2H2.sol\":418:867  if (lowerChar == 'a' || lowerChar == 'e' || lowerChar == 'i' || lowerChar == 'o' || lowerChar == 'u') {... */\n      iszero\n      tag_17\n      jumpi\n        /* \"Day-02/HomeWork/D2H2.sol\":535:549  return \"Vowel\" */\n      mload(0x40)\n      dup1\n      0x40\n      add\n      0x40\n      mstore\n      dup1\n      0x05\n      dup2\n      mstore\n      0x20\n      add\n      0x566f77656c000000000000000000000000000000000000000000000000000000\n      dup2\n      mstore\n      pop\n      swap2\n      pop\n      pop\n      jump(tag_10)\n        /* \"Day-02/HomeWork/D2H2.sol\":418:867  if (lowerChar == 'a' || lowerChar == 'e' || lowerChar == 'i' || lowerChar == 'o' || lowerChar == 'u') {... */\n    tag_17:\n        /* \"Day-02/HomeWork/D2H2.sol\":668:684  lowerChar >= 'a' */\n      0x6100000000000000000000000000000000000000000000000000000000000000\n        /* \"Day-02/HomeWork/D2H2.sol\":668:677  lowerChar */\n      dup2\n        /* \"Day-02/HomeWork/D2H2.sol\":668:684  lowerChar >= 'a' */\n      not(0xffffffffffffffffffffffffffffffffffffffffffffffffffffffffffffff)\n      and\n      lt\n      iszero\n        /* \"Day-02/HomeWork/D2H2.sol\":668:704  lowerChar >= 'a' && lowerChar <= 'z' */\n      dup1\n      iszero\n      tag_19\n      jumpi\n      pop\n        /* \"Day-02/HomeWork/D2H2.sol\":688:704  lowerChar <= 'z' */\n      0x7a00000000000000000000000000000000000000000000000000000000000000\n        /* \"Day-02/HomeWork/D2H2.sol\":688:697  lowerChar */\n      dup2\n        /* \"Day-02/HomeWork/D2H2.sol\":688:704  lowerChar <= 'z' */\n      not(0xffffffffffffffffffffffffffffffffffffffffffffffffffffffffffffff)\n      and\n      gt\n      iszero\n        /* \"Day-02/HomeWork/D2H2.sol\":668:704  lowerChar >= 'a' && lowerChar <= 'z' */\n    tag_19:\n        /* \"Day-02/HomeWork/D2H2.sol\":664:867  if (lowerChar >= 'a' && lowerChar <= 'z') {... */\n      iszero\n      tag_20\n      jumpi\n        /* \"Day-02/HomeWork/D2H2.sol\":721:739  return \"Consonant\" */\n      mload(0x40)\n      dup1\n      0x40\n      add\n      0x40\n      mstore\n      dup1\n      0x09\n      dup2\n      mstore\n      0x20\n      add\n      0x436f6e736f6e616e740000000000000000000000000000000000000000000000\n      dup2\n      mstore\n      pop\n      swap2\n      pop\n      pop\n      jump(tag_10)\n        /* \"Day-02/HomeWork/D2H2.sol\":664:867  if (lowerChar >= 'a' && lowerChar <= 'z') {... */\n    tag_20:\n        /* \"Day-02/HomeWork/D2H2.sol\":833:855  return \"Invalid input\" */\n      mload(0x40)\n      dup1\n      0x40\n      add\n      0x40\n      mstore\n      dup1\n      0x0d\n      dup2\n      mstore\n      0x20\n      add\n      0x496e76616c696420696e70757400000000000000000000000000000000000000\n      dup2\n      mstore\n      pop\n      swap2\n      pop\n      pop\n        /* \"Day-02/HomeWork/D2H2.sol\":167:874  function checkAlphabet(bytes1 _char) public pure returns (string memory) {... */\n    tag_10:\n      swap2\n      swap1\n      pop\n      jump\t// out\n        /* \"Day-02/HomeWork/D2H2.sol\":937:1260  function toLower(bytes1 _char) internal pure returns (bytes1) {... */\n    tag_12:\n        /* \"Day-02/HomeWork/D2H2.sol\":991:997  bytes1 */\n      0x00\n        /* \"Day-02/HomeWork/D2H2.sol\":1072:1084  _char >= 'A' */\n      0x4100000000000000000000000000000000000000000000000000000000000000\n        /* \"Day-02/HomeWork/D2H2.sol\":1072:1077  _char */\n      dup3\n        /* \"Day-02/HomeWork/D2H2.sol\":1072:1084  _char >= 'A' */\n      not(0xffffffffffffffffffffffffffffffffffffffffffffffffffffffffffffff)\n      and\n      lt\n      iszero\n        /* \"Day-02/HomeWork/D2H2.sol\":1072:1100  _char >= 'A' && _char <= 'Z' */\n      dup1\n      iszero\n      tag_23\n      jumpi\n      pop\n        /* \"Day-02/HomeWork/D2H2.sol\":1088:1100  _char <= 'Z' */\n      0x5a00000000000000000000000000000000000000000000000000000000000000\n        /* \"Day-02/HomeWork/D2H2.sol\":1088:1093  _char */\n      dup3\n        /* \"Day-02/HomeWork/D2H2.sol\":1088:1100  _char <= 'Z' */\n      not(0xffffffffffffffffffffffffffffffffffffffffffffffffffffffffffffff)\n      and\n      gt\n      iszero\n        /* \"Day-02/HomeWork/D2H2.sol\":1072:1100  _char >= 'A' && _char <= 'Z' */\n    tag_23:\n        /* \"Day-02/HomeWork/D2H2.sol\":1068:1230  if (_char >= 'A' && _char <= 'Z') {... */\n      iszero\n      tag_24\n      jumpi\n        /* \"Day-02/HomeWork/D2H2.sol\":1215:1217  32 */\n      0x20\n        /* \"Day-02/HomeWork/D2H2.sol\":1206:1211  _char */\n      dup3\n        /* \"Day-02/HomeWork/D2H2.sol\":1200:1212  uint8(_char) */\n      0xf8\n      shr\n        /* \"Day-02/HomeWork/D2H2.sol\":1200:1217  uint8(_char) + 32 */\n      tag_25\n      swap2\n      swap1\n      tag_26\n      jump\t// in\n    tag_25:\n        /* \"Day-02/HomeWork/D2H2.sol\":1193:1218  bytes1(uint8(_char) + 32) */\n      0xf8\n      shl\n        /* \"Day-02/HomeWork/D2H2.sol\":1186:1218  return bytes1(uint8(_char) + 32) */\n      swap1\n      pop\n      jump(tag_22)\n        /* \"Day-02/HomeWork/D2H2.sol\":1068:1230  if (_char >= 'A' && _char <= 'Z') {... */\n    tag_24:\n        /* \"Day-02/HomeWork/D2H2.sol\":1247:1252  _char */\n      dup2\n        /* \"Day-02/HomeWork/D2H2.sol\":1240:1252  return _char */\n      swap1\n      pop\n        /* \"Day-02/HomeWork/D2H2.sol\":937:1260  function toLower(bytes1 _char) internal pure returns (bytes1) {... */\n    tag_22:\n      swap2\n      swap1\n      pop\n      jump\t// out\n        /* \"#utility.yul\":88:205   */\n    tag_28:\n        /* \"#utility.yul\":197:198   */\n      0x00\n        /* \"#utility.yul\":194:195   */\n      dup1\n        /* \"#utility.yul\":187:199   */\n      revert\n        /* \"#utility.yul\":334:483   */\n    tag_30:\n        /* \"#utility.yul\":370:377   */\n      0x00\n        /* \"#utility.yul\":410:476   */\n      0xff00000000000000000000000000000000000000000000000000000000000000\n        /* \"#utility.yul\":403:408   */\n      dup3\n        /* \"#utility.yul\":399:477   */\n      and\n        /* \"#utility.yul\":388:477   */\n      swap1\n      pop\n        /* \"#utility.yul\":334:483   */\n      swap2\n      swap1\n      pop\n      jump\t// out\n        /* \"#utility.yul\":489:609   */\n    tag_31:\n        /* \"#utility.yul\":561:584   */\n      tag_46\n        /* \"#utility.yul\":578:583   */\n      dup2\n        /* \"#utility.yul\":561:584   */\n      tag_30\n      jump\t// in\n    tag_46:\n        /* \"#utility.yul\":554:559   */\n      dup2\n        /* \"#utility.yul\":551:585   */\n      eq\n        /* \"#utility.yul\":541:603   */\n      tag_47\n      jumpi\n        /* \"#utility.yul\":599:600   */\n      0x00\n        /* \"#utility.yul\":596:597   */\n      dup1\n        /* \"#utility.yul\":589:601   */\n      revert\n        /* \"#utility.yul\":541:603   */\n    tag_47:\n        /* \"#utility.yul\":489:609   */\n      pop\n      jump\t// out\n        /* \"#utility.yul\":615:752   */\n    tag_32:\n        /* \"#utility.yul\":660:665   */\n      0x00\n        /* \"#utility.yul\":698:704   */\n      dup2\n        /* \"#utility.yul\":685:705   */\n      calldataload\n        /* \"#utility.yul\":676:705   */\n      swap1\n      pop\n        /* \"#utility.yul\":714:746   */\n      tag_49\n        /* \"#utility.yul\":740:745   */\n      dup2\n        /* \"#utility.yul\":714:746   */\n      tag_31\n      jump\t// in\n    tag_49:\n        /* \"#utility.yul\":615:752   */\n      swap3\n      swap2\n      pop\n      pop\n      jump\t// out\n        /* \"#utility.yul\":758:1085   */\n    tag_6:\n        /* \"#utility.yul\":816:822   */\n      0x00\n        /* \"#utility.yul\":865:867   */\n      0x20\n        /* \"#utility.yul\":853:862   */\n      dup3\n        /* \"#utility.yul\":844:851   */\n      dup5\n        /* \"#utility.yul\":840:863   */\n      sub\n        /* \"#utility.yul\":836:868   */\n      slt\n        /* \"#utility.yul\":833:952   */\n      iszero\n      tag_51\n      jumpi\n        /* \"#utility.yul\":871:950   */\n      tag_52\n      tag_28\n      jump\t// in\n    tag_52:\n        /* \"#utility.yul\":833:952   */\n    tag_51:\n        /* \"#utility.yul\":991:992   */\n      0x00\n        /* \"#utility.yul\":1016:1068   */\n      tag_53\n        /* \"#utility.yul\":1060:1067   */\n      dup5\n        /* \"#utility.yul\":1051:1057   */\n      dup3\n        /* \"#utility.yul\":1040:1049   */\n      dup6\n        /* \"#utility.yul\":1036:1058   */\n      add\n        /* \"#utility.yul\":1016:1068   */\n      tag_32\n      jump\t// in\n    tag_53:\n        /* \"#utility.yul\":1006:1068   */\n      swap2\n      pop\n        /* \"#utility.yul\":962:1078   */\n      pop\n        /* \"#utility.yul\":758:1085   */\n      swap3\n      swap2\n      pop\n      pop\n      jump\t// out\n        /* \"#utility.yul\":1091:1190   */\n    tag_33:\n        /* \"#utility.yul\":1143:1149   */\n      0x00\n        /* \"#utility.yul\":1177:1182   */\n      dup2\n        /* \"#utility.yul\":1171:1183   */\n      mload\n        /* \"#utility.yul\":1161:1183   */\n      swap1\n      pop\n        /* \"#utility.yul\":1091:1190   */\n      swap2\n      swap1\n      pop\n      jump\t// out\n        /* \"#utility.yul\":1196:1365   */\n    tag_34:\n        /* \"#utility.yul\":1280:1291   */\n      0x00\n        /* \"#utility.yul\":1314:1320   */\n      dup3\n        /* \"#utility.yul\":1309:1312   */\n      dup3\n        /* \"#utility.yul\":1302:1321   */\n      mstore\n        /* \"#utility.yul\":1354:1358   */\n      0x20\n        /* \"#utility.yul\":1349:1352   */\n      dup3\n        /* \"#utility.yul\":1345:1359   */\n      add\n        /* \"#utility.yul\":1330:1359   */\n      swap1\n      pop\n        /* \"#utility.yul\":1196:1365   */\n      swap3\n      swap2\n      pop\n      pop\n      jump\t// out\n        /* \"#utility.yul\":1371:1510   */\n    tag_35:\n        /* \"#utility.yul\":1460:1466   */\n      dup3\n        /* \"#utility.yul\":1455:1458   */\n      dup2\n        /* \"#utility.yul\":1450:1453   */\n      dup4\n        /* \"#utility.yul\":1444:1467   */\n      mcopy\n        /* \"#utility.yul\":1501:1502   */\n      0x00\n        /* \"#utility.yul\":1492:1498   */\n      dup4\n        /* \"#utility.yul\":1487:1490   */\n      dup4\n        /* \"#utility.yul\":1483:1499   */\n      add\n        /* \"#utility.yul\":1476:1503   */\n      mstore\n        /* \"#utility.yul\":1371:1510   */\n      pop\n      pop\n      pop\n      jump\t// out\n        /* \"#utility.yul\":1516:1618   */\n    tag_36:\n        /* \"#utility.yul\":1557:1563   */\n      0x00\n        /* \"#utility.yul\":1608:1610   */\n      0x1f\n        /* \"#utility.yul\":1604:1611   */\n      not\n        /* \"#utility.yul\":1599:1601   */\n      0x1f\n        /* \"#utility.yul\":1592:1597   */\n      dup4\n        /* \"#utility.yul\":1588:1602   */\n      add\n        /* \"#utility.yul\":1584:1612   */\n      and\n        /* \"#utility.yul\":1574:1612   */\n      swap1\n      pop\n        /* \"#utility.yul\":1516:1618   */\n      swap2\n      swap1\n      pop\n      jump\t// out\n        /* \"#utility.yul\":1624:2001   */\n    tag_37:\n        /* \"#utility.yul\":1712:1715   */\n      0x00\n        /* \"#utility.yul\":1740:1779   */\n      tag_59\n        /* \"#utility.yul\":1773:1778   */\n      dup3\n        /* \"#utility.yul\":1740:1779   */\n      tag_33\n      jump\t// in\n    tag_59:\n        /* \"#utility.yul\":1795:1866   */\n      tag_60\n        /* \"#utility.yul\":1859:1865   */\n      dup2\n        /* \"#utility.yul\":1854:1857   */\n      dup6\n        /* \"#utility.yul\":1795:1866   */\n      tag_34\n      jump\t// in\n    tag_60:\n        /* \"#utility.yul\":1788:1866   */\n      swap4\n      pop\n        /* \"#utility.yul\":1875:1940   */\n      tag_61\n        /* \"#utility.yul\":1933:1939   */\n      dup2\n        /* \"#utility.yul\":1928:1931   */\n      dup6\n        /* \"#utility.yul\":1921:1925   */\n      0x20\n        /* \"#utility.yul\":1914:1919   */\n      dup7\n        /* \"#utility.yul\":1910:1926   */\n      add\n        /* \"#utility.yul\":1875:1940   */\n      tag_35\n      jump\t// in\n    tag_61:\n        /* \"#utility.yul\":1965:1994   */\n      tag_62\n        /* \"#utility.yul\":1987:1993   */\n      dup2\n        /* \"#utility.yul\":1965:1994   */\n      tag_36\n      jump\t// in\n    tag_62:\n        /* \"#utility.yul\":1960:1963   */\n      dup5\n        /* \"#utility.yul\":1956:1995   */\n      add\n        /* \"#utility.yul\":1949:1995   */\n      swap2\n      pop\n        /* \"#utility.yul\":1716:2001   */\n      pop\n        /* \"#utility.yul\":1624:2001   */\n      swap3\n      swap2\n      pop\n      pop\n      jump\t// out\n        /* \"#utility.yul\":2007:2320   */\n    tag_9:\n        /* \"#utility.yul\":2120:2124   */\n      0x00\n        /* \"#utility.yul\":2158:2160   */\n      0x20\n        /* \"#utility.yul\":2147:2156   */\n      dup3\n        /* \"#utility.yul\":2143:2161   */\n      add\n        /* \"#utility.yul\":2135:2161   */\n      swap1\n      pop\n        /* \"#utility.yul\":2207:2216   */\n      dup2\n        /* \"#utility.yul\":2201:2205   */\n      dup2\n        /* \"#utility.yul\":2197:2217   */\n      sub\n        /* \"#utility.yul\":2193:2194   */\n      0x00\n        /* \"#utility.yul\":2182:2191   */\n      dup4\n        /* \"#utility.yul\":2178:2195   */\n      add\n        /* \"#utility.yul\":2171:2218   */\n      mstore\n        /* \"#utility.yul\":2235:2313   */\n      tag_64\n        /* \"#utility.yul\":2308:2312   */\n      dup2\n        /* \"#utility.yul\":2299:2305   */\n      dup5\n        /* \"#utility.yul\":2235:2313   */\n      tag_37\n      jump\t// in\n    tag_64:\n        /* \"#utility.yul\":2227:2313   */\n      swap1\n      pop\n        /* \"#utility.yul\":2007:2320   */\n      swap3\n      swap2\n      pop\n      pop\n      jump\t// out\n        /* \"#utility.yul\":2326:2412   */\n    tag_38:\n        /* \"#utility.yul\":2361:2368   */\n      0x00\n        /* \"#utility.yul\":2401:2405   */\n      0xff\n        /* \"#utility.yul\":2394:2399   */\n      dup3\n        /* \"#utility.yul\":2390:2406   */\n      and\n        /* \"#utility.yul\":2379:2406   */\n      swap1\n      pop\n        /* \"#utility.yul\":2326:2412   */\n      swap2\n      swap1\n      pop\n      jump\t// out\n        /* \"#utility.yul\":2418:2598   */\n    tag_39:\n        /* \"#utility.yul\":2466:2543   */\n      0x4e487b7100000000000000000000000000000000000000000000000000000000\n        /* \"#utility.yul\":2463:2464   */\n      0x00\n        /* \"#utility.yul\":2456:2544   */\n      mstore\n        /* \"#utility.yul\":2563:2567   */\n      0x11\n        /* \"#utility.yul\":2560:2561   */\n      0x04\n        /* \"#utility.yul\":2553:2568   */\n      mstore\n        /* \"#utility.yul\":2587:2591   */\n      0x24\n        /* \"#utility.yul\":2584:2585   */\n      0x00\n        /* \"#utility.yul\":2577:2592   */\n      revert\n        /* \"#utility.yul\":2604:2792   */\n    tag_26:\n        /* \"#utility.yul\":2642:2645   */\n      0x00\n        /* \"#utility.yul\":2661:2679   */\n      tag_68\n        /* \"#utility.yul\":2677:2678   */\n      dup3\n        /* \"#utility.yul\":2661:2679   */\n      tag_38\n      jump\t// in\n    tag_68:\n        /* \"#utility.yul\":2656:2679   */\n      swap2\n      pop\n        /* \"#utility.yul\":2693:2711   */\n      tag_69\n        /* \"#utility.yul\":2709:2710   */\n      dup4\n        /* \"#utility.yul\":2693:2711   */\n      tag_38\n      jump\t// in\n    tag_69:\n        /* \"#utility.yul\":2688:2711   */\n      swap3\n      pop\n        /* \"#utility.yul\":2734:2735   */\n      dup3\n        /* \"#utility.yul\":2731:2732   */\n      dup3\n        /* \"#utility.yul\":2727:2736   */\n      add\n        /* \"#utility.yul\":2720:2736   */\n      swap1\n      pop\n        /* \"#utility.yul\":2757:2761   */\n      0xff\n        /* \"#utility.yul\":2752:2755   */\n      dup2\n        /* \"#utility.yul\":2749:2762   */\n      gt\n        /* \"#utility.yul\":2746:2785   */\n      iszero\n      tag_70\n      jumpi\n        /* \"#utility.yul\":2765:2783   */\n      tag_71\n      tag_39\n      jump\t// in\n    tag_71:\n        /* \"#utility.yul\":2746:2785   */\n    tag_70:\n        /* \"#utility.yul\":2604:2792   */\n      swap3\n      swap2\n      pop\n      pop\n      jump\t// out\n\n    auxdata: 0xa264697066735822122091a093e74e522ded3dc981637d94b56edd040a5c0a20035ce06f96d47a160deb64736f6c634300081a0033\n}\n",
				"bytecode": {
					"linkReferences": {},
					"object": "6080604052348015600e575f80fd5b506105ad8061001c5f395ff3fe608060405234801561000f575f80fd5b5060043610610029575f3560e01c80638fff74381461002d575b5f80fd5b6100476004803603810190610042919061044f565b61005d565b60405161005491906104ea565b60405180910390f35b60605f61006983610339565b90507f6100000000000000000000000000000000000000000000000000000000000000817effffffffffffffffffffffffffffffffffffffffffffffffffffffffffffff191614806100fc57507f6500000000000000000000000000000000000000000000000000000000000000817effffffffffffffffffffffffffffffffffffffffffffffffffffffffffffff1916145b8061014857507f6900000000000000000000000000000000000000000000000000000000000000817effffffffffffffffffffffffffffffffffffffffffffffffffffffffffffff1916145b8061019457507f6f00000000000000000000000000000000000000000000000000000000000000817effffffffffffffffffffffffffffffffffffffffffffffffffffffffffffff1916145b806101e057507f7500000000000000000000000000000000000000000000000000000000000000817effffffffffffffffffffffffffffffffffffffffffffffffffffffffffffff1916145b15610223576040518060400160405280600581526020017f566f77656c000000000000000000000000000000000000000000000000000000815250915050610334565b7f6100000000000000000000000000000000000000000000000000000000000000817effffffffffffffffffffffffffffffffffffffffffffffffffffffffffffff1916101580156102b757507f7a00000000000000000000000000000000000000000000000000000000000000817effffffffffffffffffffffffffffffffffffffffffffffffffffffffffffff191611155b156102fa576040518060400160405280600981526020017f436f6e736f6e616e740000000000000000000000000000000000000000000000815250915050610334565b6040518060400160405280600d81526020017f496e76616c696420696e707574000000000000000000000000000000000000008152509150505b919050565b5f7f4100000000000000000000000000000000000000000000000000000000000000827effffffffffffffffffffffffffffffffffffffffffffffffffffffffffffff1916101580156103ce57507f5a00000000000000000000000000000000000000000000000000000000000000827effffffffffffffffffffffffffffffffffffffffffffffffffffffffffffff191611155b156103ed5760208260f81c6103e39190610543565b60f81b90506103f1565b8190505b919050565b5f80fd5b5f7fff0000000000000000000000000000000000000000000000000000000000000082169050919050565b61042e816103fa565b8114610438575f80fd5b50565b5f8135905061044981610425565b92915050565b5f60208284031215610464576104636103f6565b5b5f6104718482850161043b565b91505092915050565b5f81519050919050565b5f82825260208201905092915050565b8281835e5f83830152505050565b5f601f19601f8301169050919050565b5f6104bc8261047a565b6104c68185610484565b93506104d6818560208601610494565b6104df816104a2565b840191505092915050565b5f6020820190508181035f83015261050281846104b2565b905092915050565b5f60ff82169050919050565b7f4e487b71000000000000000000000000000000000000000000000000000000005f52601160045260245ffd5b5f61054d8261050a565b91506105588361050a565b9250828201905060ff81111561057157610570610516565b5b9291505056fea264697066735822122091a093e74e522ded3dc981637d94b56edd040a5c0a20035ce06f96d47a160deb64736f6c634300081a0033",
					"opcodes": "PUSH1 0x80 PUSH1 0x40 MSTORE CALLVALUE DUP1 ISZERO PUSH1 0xE JUMPI PUSH0 DUP1 REVERT JUMPDEST POP PUSH2 0x5AD DUP1 PUSH2 0x1C PUSH0 CODECOPY PUSH0 RETURN INVALID PUSH1 0x80 PUSH1 0x40 MSTORE CALLVALUE DUP1 ISZERO PUSH2 0xF JUMPI PUSH0 DUP1 REVERT JUMPDEST POP PUSH1 0x4 CALLDATASIZE LT PUSH2 0x29 JUMPI PUSH0 CALLDATALOAD PUSH1 0xE0 SHR DUP1 PUSH4 0x8FFF7438 EQ PUSH2 0x2D JUMPI JUMPDEST PUSH0 DUP1 REVERT JUMPDEST PUSH2 0x47 PUSH1 0x4 DUP1 CALLDATASIZE SUB DUP2 ADD SWAP1 PUSH2 0x42 SWAP2 SWAP1 PUSH2 0x44F JUMP JUMPDEST PUSH2 0x5D JUMP JUMPDEST PUSH1 0x40 MLOAD PUSH2 0x54 SWAP2 SWAP1 PUSH2 0x4EA JUMP JUMPDEST PUSH1 0x40 MLOAD DUP1 SWAP2 SUB SWAP1 RETURN JUMPDEST PUSH1 0x60 PUSH0 PUSH2 0x69 DUP4 PUSH2 0x339 JUMP JUMPDEST SWAP1 POP PUSH32 0x6100000000000000000000000000000000000000000000000000000000000000 DUP2 PUSH31 0xFFFFFFFFFFFFFFFFFFFFFFFFFFFFFFFFFFFFFFFFFFFFFFFFFFFFFFFFFFFFFF NOT AND EQ DUP1 PUSH2 0xFC JUMPI POP PUSH32 0x6500000000000000000000000000000000000000000000000000000000000000 DUP2 PUSH31 0xFFFFFFFFFFFFFFFFFFFFFFFFFFFFFFFFFFFFFFFFFFFFFFFFFFFFFFFFFFFFFF NOT AND EQ JUMPDEST DUP1 PUSH2 0x148 JUMPI POP PUSH32 0x6900000000000000000000000000000000000000000000000000000000000000 DUP2 PUSH31 0xFFFFFFFFFFFFFFFFFFFFFFFFFFFFFFFFFFFFFFFFFFFFFFFFFFFFFFFFFFFFFF NOT AND EQ JUMPDEST DUP1 PUSH2 0x194 JUMPI POP PUSH32 0x6F00000000000000000000000000000000000000000000000000000000000000 DUP2 PUSH31 0xFFFFFFFFFFFFFFFFFFFFFFFFFFFFFFFFFFFFFFFFFFFFFFFFFFFFFFFFFFFFFF NOT AND EQ JUMPDEST DUP1 PUSH2 0x1E0 JUMPI POP PUSH32 0x7500000000000000000000000000000000000000000000000000000000000000 DUP2 PUSH31 0xFFFFFFFFFFFFFFFFFFFFFFFFFFFFFFFFFFFFFFFFFFFFFFFFFFFFFFFFFFFFFF NOT AND EQ JUMPDEST ISZERO PUSH2 0x223 JUMPI PUSH1 0x40 MLOAD DUP1 PUSH1 0x40 ADD PUSH1 0x40 MSTORE DUP1 PUSH1 0x5 DUP2 MSTORE PUSH1 0x20 ADD PUSH32 0x566F77656C000000000000000000000000000000000000000000000000000000 DUP2 MSTORE POP SWAP2 POP POP PUSH2 0x334 JUMP JUMPDEST PUSH32 0x6100000000000000000000000000000000000000000000000000000000000000 DUP2 PUSH31 0xFFFFFFFFFFFFFFFFFFFFFFFFFFFFFFFFFFFFFFFFFFFFFFFFFFFFFFFFFFFFFF NOT AND LT ISZERO DUP1 ISZERO PUSH2 0x2B7 JUMPI POP PUSH32 0x7A00000000000000000000000000000000000000000000000000000000000000 DUP2 PUSH31 0xFFFFFFFFFFFFFFFFFFFFFFFFFFFFFFFFFFFFFFFFFFFFFFFFFFFFFFFFFFFFFF NOT AND GT ISZERO JUMPDEST ISZERO PUSH2 0x2FA JUMPI PUSH1 0x40 MLOAD DUP1 PUSH1 0x40 ADD PUSH1 0x40 MSTORE DUP1 PUSH1 0x9 DUP2 MSTORE PUSH1 0x20 ADD PUSH32 0x436F6E736F6E616E740000000000000000000000000000000000000000000000 DUP2 MSTORE POP SWAP2 POP POP PUSH2 0x334 JUMP JUMPDEST PUSH1 0x40 MLOAD DUP1 PUSH1 0x40 ADD PUSH1 0x40 MSTORE DUP1 PUSH1 0xD DUP2 MSTORE PUSH1 0x20 ADD PUSH32 0x496E76616C696420696E70757400000000000000000000000000000000000000 DUP2 MSTORE POP SWAP2 POP POP JUMPDEST SWAP2 SWAP1 POP JUMP JUMPDEST PUSH0 PUSH32 0x4100000000000000000000000000000000000000000000000000000000000000 DUP3 PUSH31 0xFFFFFFFFFFFFFFFFFFFFFFFFFFFFFFFFFFFFFFFFFFFFFFFFFFFFFFFFFFFFFF NOT AND LT ISZERO DUP1 ISZERO PUSH2 0x3CE JUMPI POP PUSH32 0x5A00000000000000000000000000000000000000000000000000000000000000 DUP3 PUSH31 0xFFFFFFFFFFFFFFFFFFFFFFFFFFFFFFFFFFFFFFFFFFFFFFFFFFFFFFFFFFFFFF NOT AND GT ISZERO JUMPDEST ISZERO PUSH2 0x3ED JUMPI PUSH1 0x20 DUP3 PUSH1 0xF8 SHR PUSH2 0x3E3 SWAP2 SWAP1 PUSH2 0x543 JUMP JUMPDEST PUSH1 0xF8 SHL SWAP1 POP PUSH2 0x3F1 JUMP JUMPDEST DUP2 SWAP1 POP JUMPDEST SWAP2 SWAP1 POP JUMP JUMPDEST PUSH0 DUP1 REVERT JUMPDEST PUSH0 PUSH32 0xFF00000000000000000000000000000000000000000000000000000000000000 DUP3 AND SWAP1 POP SWAP2 SWAP1 POP JUMP JUMPDEST PUSH2 0x42E DUP2 PUSH2 0x3FA JUMP JUMPDEST DUP2 EQ PUSH2 0x438 JUMPI PUSH0 DUP1 REVERT JUMPDEST POP JUMP JUMPDEST PUSH0 DUP2 CALLDATALOAD SWAP1 POP PUSH2 0x449 DUP2 PUSH2 0x425 JUMP JUMPDEST SWAP3 SWAP2 POP POP JUMP JUMPDEST PUSH0 PUSH1 0x20 DUP3 DUP5 SUB SLT ISZERO PUSH2 0x464 JUMPI PUSH2 0x463 PUSH2 0x3F6 JUMP JUMPDEST JUMPDEST PUSH0 PUSH2 0x471 DUP5 DUP3 DUP6 ADD PUSH2 0x43B JUMP JUMPDEST SWAP2 POP POP SWAP3 SWAP2 POP POP JUMP JUMPDEST PUSH0 DUP2 MLOAD SWAP1 POP SWAP2 SWAP1 POP JUMP JUMPDEST PUSH0 DUP3 DUP3 MSTORE PUSH1 0x20 DUP3 ADD SWAP1 POP SWAP3 SWAP2 POP POP JUMP JUMPDEST DUP3 DUP2 DUP4 MCOPY PUSH0 DUP4 DUP4 ADD MSTORE POP POP POP JUMP JUMPDEST PUSH0 PUSH1 0x1F NOT PUSH1 0x1F DUP4 ADD AND SWAP1 POP SWAP2 SWAP1 POP JUMP JUMPDEST PUSH0 PUSH2 0x4BC DUP3 PUSH2 0x47A JUMP JUMPDEST PUSH2 0x4C6 DUP2 DUP6 PUSH2 0x484 JUMP JUMPDEST SWAP4 POP PUSH2 0x4D6 DUP2 DUP6 PUSH1 0x20 DUP7 ADD PUSH2 0x494 JUMP JUMPDEST PUSH2 0x4DF DUP2 PUSH2 0x4A2 JUMP JUMPDEST DUP5 ADD SWAP2 POP POP SWAP3 SWAP2 POP POP JUMP JUMPDEST PUSH0 PUSH1 0x20 DUP3 ADD SWAP1 POP DUP2 DUP2 SUB PUSH0 DUP4 ADD MSTORE PUSH2 0x502 DUP2 DUP5 PUSH2 0x4B2 JUMP JUMPDEST SWAP1 POP SWAP3 SWAP2 POP POP JUMP JUMPDEST PUSH0 PUSH1 0xFF DUP3 AND SWAP1 POP SWAP2 SWAP1 POP JUMP JUMPDEST PUSH32 0x4E487B7100000000000000000000000000000000000000000000000000000000 PUSH0 MSTORE PUSH1 0x11 PUSH1 0x4 MSTORE PUSH1 0x24 PUSH0 REVERT JUMPDEST PUSH0 PUSH2 0x54D DUP3 PUSH2 0x50A JUMP JUMPDEST SWAP2 POP PUSH2 0x558 DUP4 PUSH2 0x50A JUMP JUMPDEST SWAP3 POP DUP3 DUP3 ADD SWAP1 POP PUSH1 0xFF DUP2 GT ISZERO PUSH2 0x571 JUMPI PUSH2 0x570 PUSH2 0x516 JUMP JUMPDEST JUMPDEST SWAP3 SWAP2 POP POP JUMP INVALID LOG2 PUSH5 0x6970667358 0x22 SLT KECCAK256 SWAP2 LOG0 SWAP4 0xE7 0x4E MSTORE 0x2D 0xED RETURNDATASIZE 0xC9 DUP2 PUSH4 0x7D94B56E 0xDD DIV EXP TLOAD EXP KECCAK256 SUB TLOAD 0xE0 PUSH16 0x96D47A160DEB64736F6C634300081A00 CALLER "
				},
				"gasEstimates": {
					"creation": {
						"codeDepositCost": "290600",
						"executionCost": "329",
						"totalCost": "290929"
					},
					"external": {
						"checkAlphabet(bytes1)": "infinite"
					},
					"internal": {
						"toLower(bytes1)": "infinite"
					}
				},
				"methodIdentifiers": {
					"checkAlphabet(bytes1)": "8fff7438"
				}
			},
			"storageLayout": {
				"storage": [],
				"types": null
			},
			"userdoc": {
				"kind": "user",
				"methods": {},
				"version": 1
			}
		}
	}
}