{
	"data": {
		"bytecode": {
			"linkReferences": {},
			"object": "608060405234801561000f575f80fd5b50604051611458380380611458833981810160405281019061003191906101df565b825f908161003f919061046b565b50816001908161004f919061046b565b508060028190555050505061053a565b5f604051905090565b5f80fd5b5f80fd5b5f80fd5b5f80fd5b5f601f19601f8301169050919050565b7f4e487b71000000000000000000000000000000000000000000000000000000005f52604160045260245ffd5b6100be82610078565b810181811067ffffffffffffffff821117156100dd576100dc610088565b5b80604052505050565b5f6100ef61005f565b90506100fb82826100b5565b919050565b5f67ffffffffffffffff82111561011a57610119610088565b5b61012382610078565b9050602081019050919050565b8281835e5f83830152505050565b5f61015061014b84610100565b6100e6565b90508281526020810184848401111561016c5761016b610074565b5b610177848285610130565b509392505050565b5f82601f83011261019357610192610070565b5b81516101a384826020860161013e565b91505092915050565b5f819050919050565b6101be816101ac565b81146101c8575f80fd5b50565b5f815190506101d9816101b5565b92915050565b5f805f606084860312156101f6576101f5610068565b5b5f84015167ffffffffffffffff8111156102135761021261006c565b5b61021f8682870161017f565b935050602084015167ffffffffffffffff8111156102405761023f61006c565b5b61024c8682870161017f565b925050604061025d868287016101cb565b9150509250925092565b5f81519050919050565b7f4e487b71000000000000000000000000000000000000000000000000000000005f52602260045260245ffd5b5f60028204905060018216806102b557607f821691505b6020821081036102c8576102c7610271565b5b50919050565b5f819050815f5260205f209050919050565b5f6020601f8301049050919050565b5f82821b905092915050565b5f6008830261032a7fffffffffffffffffffffffffffffffffffffffffffffffffffffffffffffffff826102ef565b61033486836102ef565b95508019841693508086168417925050509392505050565b5f819050919050565b5f61036f61036a610365846101ac565b61034c565b6101ac565b9050919050565b5f819050919050565b61038883610355565b61039c61039482610376565b8484546102fb565b825550505050565b5f90565b6103b06103a4565b6103bb81848461037f565b505050565b5b818110156103de576103d35f826103a8565b6001810190506103c1565b5050565b601f821115610423576103f4816102ce565b6103fd846102e0565b8101602085101561040c578190505b610420610418856102e0565b8301826103c0565b50505b505050565b5f82821c905092915050565b5f6104435f1984600802610428565b1980831691505092915050565b5f61045b8383610434565b9150826002028217905092915050565b61047482610267565b67ffffffffffffffff81111561048d5761048c610088565b5b610497825461029e565b6104a28282856103e2565b5f60209050601f8311600181146104d3575f84156104c1578287015190505b6104cb8582610450565b865550610532565b601f1984166104e1866102ce565b5f5b82811015610508578489015182556001820191506020850194506020810190506104e3565b868310156105255784890151610521601f891682610434565b8355505b6001600288020188555050505b505050505050565b610f11806105475f395ff3fe608060405234801561000f575f80fd5b5060043610610086575f3560e01c806399d568b31161005957806399d568b3146100fc5780639d8c83151461011a578063cb9cb0c21461013a578063f8fd19481461015857610086565b806311ebae411461008a578063366db281146100a8578063908df63d146100c45780639727faef146100e0575b5f80fd5b610092610176565b60405161009f919061060a565b60405180910390f35b6100c260048036038101906100bd9190610767565b610202565b005b6100de60048036038101906100d99190610767565b610215565b005b6100fa60048036038101906100f591906107e1565b610227565b005b610104610231565b604051610111919061081b565b60405180910390f35b610122610237565b60405161013193929190610834565b60405180910390f35b610142610360565b60405161014f919061060a565b60405180910390f35b6101606103eb565b60405161016d919061060a565b60405180910390f35b60018054610183906108a4565b80601f01602080910402602001604051908101604052809291908181526020018280546101af906108a4565b80156101fa5780601f106101d1576101008083540402835291602001916101fa565b820191905f5260205f20905b8154815290600101906020018083116101dd57829003601f168201915b505050505081565b80600190816102119190610a71565b5050565b805f90816102239190610a71565b5050565b8060028190555050565b60025481565b6060805f80600160025482805461024d906108a4565b80601f0160208091040260200160405190810160405280929190818152602001828054610279906108a4565b80156102c45780601f1061029b576101008083540402835291602001916102c4565b820191905f5260205f20905b8154815290600101906020018083116102a757829003601f168201915b505050505092508180546102d7906108a4565b80601f0160208091040260200160405190810160405280929190818152602001828054610303906108a4565b801561034e5780601f106103255761010080835404028352916020019161034e565b820191905f5260205f20905b81548152906001019060200180831161033157829003601f168201915b50505050509150925092509250909192565b5f805461036c906108a4565b80601f0160208091040260200160405190810160405280929190818152602001828054610398906108a4565b80156103e35780601f106103ba576101008083540402835291602001916103e3565b820191905f5260205f20905b8154815290600101906020018083116103c657829003601f168201915b505050505081565b60605f60016103fb600254610421565b60405160200161040d93929190610cd8565b604051602081830303815290604052905090565b60605f8203610467576040518060400160405280600181526020017f30000000000000000000000000000000000000000000000000000000000000008152509050610595565b5f8290505f5b5f821461049657808061047f90610d56565b915050600a8261048f9190610dca565b915061046d565b5f8167ffffffffffffffff8111156104b1576104b0610643565b5b6040519080825280601f01601f1916602001820160405280156104e35781602001600182028036833780820191505090505b5090505f8290505b5f861461058d576001816104ff9190610dfa565b90505f600a80886105109190610dca565b61051a9190610e2d565b876105259190610dfa565b60306105319190610e7a565b90508060f81b83838151811061054a57610549610eae565b5b60200101907effffffffffffffffffffffffffffffffffffffffffffffffffffffffffffff191690815f1a905350600a876105859190610dca565b9650506104eb565b819450505050505b919050565b5f81519050919050565b5f82825260208201905092915050565b8281835e5f83830152505050565b5f601f19601f8301169050919050565b5f6105dc8261059a565b6105e681856105a4565b93506105f68185602086016105b4565b6105ff816105c2565b840191505092915050565b5f6020820190508181035f83015261062281846105d2565b905092915050565b5f604051905090565b5f80fd5b5f80fd5b5f80fd5b5f80fd5b7f4e487b71000000000000000000000000000000000000000000000000000000005f52604160045260245ffd5b610679826105c2565b810181811067ffffffffffffffff8211171561069857610697610643565b5b80604052505050565b5f6106aa61062a565b90506106b68282610670565b919050565b5f67ffffffffffffffff8211156106d5576106d4610643565b5b6106de826105c2565b9050602081019050919050565b828183375f83830152505050565b5f61070b610706846106bb565b6106a1565b9050828152602081018484840111156107275761072661063f565b5b6107328482856106eb565b509392505050565b5f82601f83011261074e5761074d61063b565b5b813561075e8482602086016106f9565b91505092915050565b5f6020828403121561077c5761077b610633565b5b5f82013567ffffffffffffffff81111561079957610798610637565b5b6107a58482850161073a565b91505092915050565b5f819050919050565b6107c0816107ae565b81146107ca575f80fd5b50565b5f813590506107db816107b7565b92915050565b5f602082840312156107f6576107f5610633565b5b5f610803848285016107cd565b91505092915050565b610815816107ae565b82525050565b5f60208201905061082e5f83018461080c565b92915050565b5f6060820190508181035f83015261084c81866105d2565b9050818103602083015261086081856105d2565b905061086f604083018461080c565b949350505050565b7f4e487b71000000000000000000000000000000000000000000000000000000005f52602260045260245ffd5b5f60028204905060018216806108bb57607f821691505b6020821081036108ce576108cd610877565b5b50919050565b5f819050815f5260205f209050919050565b5f6020601f8301049050919050565b5f82821b905092915050565b5f600883026109307fffffffffffffffffffffffffffffffffffffffffffffffffffffffffffffffff826108f5565b61093a86836108f5565b95508019841693508086168417925050509392505050565b5f819050919050565b5f61097561097061096b846107ae565b610952565b6107ae565b9050919050565b5f819050919050565b61098e8361095b565b6109a261099a8261097c565b848454610901565b825550505050565b5f90565b6109b66109aa565b6109c1818484610985565b505050565b5b818110156109e4576109d95f826109ae565b6001810190506109c7565b5050565b601f821115610a29576109fa816108d4565b610a03846108e6565b81016020851015610a12578190505b610a26610a1e856108e6565b8301826109c6565b50505b505050565b5f82821c905092915050565b5f610a495f1984600802610a2e565b1980831691505092915050565b5f610a618383610a3a565b9150826002028217905092915050565b610a7a8261059a565b67ffffffffffffffff811115610a9357610a92610643565b5b610a9d82546108a4565b610aa88282856109e8565b5f60209050601f831160018114610ad9575f8415610ac7578287015190505b610ad18582610a56565b865550610b38565b601f198416610ae7866108d4565b5f5b82811015610b0e57848901518255600182019150602085019450602081019050610ae9565b86831015610b2b5784890151610b27601f891682610a3a565b8355505b6001600288020188555050505b505050505050565b5f81905092915050565b7f486f7374656c204e616d653a20000000000000000000000000000000000000005f82015250565b5f610b7e600d83610b40565b9150610b8982610b4a565b600d82019050919050565b5f8154610ba0816108a4565b610baa8186610b40565b9450600182165f8114610bc45760018114610bd957610c0b565b60ff1983168652811515820286019350610c0b565b610be2856108d4565b5f5b83811015610c0357815481890152600182019150602081019050610be4565b838801955050505b50505092915050565b7f2c204c6f636174696f6e3a2000000000000000000000000000000000000000005f82015250565b5f610c48600c83610b40565b9150610c5382610c14565b600c82019050919050565b7f2c204e756d626572206f6620526f6f6d733a20000000000000000000000000005f82015250565b5f610c92601383610b40565b9150610c9d82610c5e565b601382019050919050565b5f610cb28261059a565b610cbc8185610b40565b9350610ccc8185602086016105b4565b80840191505092915050565b5f610ce282610b72565b9150610cee8286610b94565b9150610cf982610c3c565b9150610d058285610b94565b9150610d1082610c86565b9150610d1c8284610ca8565b9150819050949350505050565b7f4e487b71000000000000000000000000000000000000000000000000000000005f52601160045260245ffd5b5f610d60826107ae565b91507fffffffffffffffffffffffffffffffffffffffffffffffffffffffffffffffff8203610d9257610d91610d29565b5b600182019050919050565b7f4e487b71000000000000000000000000000000000000000000000000000000005f52601260045260245ffd5b5f610dd4826107ae565b9150610ddf836107ae565b925082610def57610dee610d9d565b5b828204905092915050565b5f610e04826107ae565b9150610e0f836107ae565b9250828203905081811115610e2757610e26610d29565b5b92915050565b5f610e37826107ae565b9150610e42836107ae565b9250828202610e50816107ae565b91508282048414831517610e6757610e66610d29565b5b5092915050565b5f60ff82169050919050565b5f610e8482610e6e565b9150610e8f83610e6e565b9250828201905060ff811115610ea857610ea7610d29565b5b92915050565b7f4e487b71000000000000000000000000000000000000000000000000000000005f52603260045260245ffdfea26469706673582212200b9b594f5093a183c346c0f8ef9e4aafe189268b2d6a06cbde89a4ebc27851c964736f6c634300081a0033",
			"opcodes": "PUSH1 0x80 PUSH1 0x40 MSTORE CALLVALUE DUP1 ISZERO PUSH2 0xF JUMPI PUSH0 DUP1 REVERT JUMPDEST POP PUSH1 0x40 MLOAD PUSH2 0x1458 CODESIZE SUB DUP1 PUSH2 0x1458 DUP4 CODECOPY DUP2 DUP2 ADD PUSH1 0x40 MSTORE DUP2 ADD SWAP1 PUSH2 0x31 SWAP2 SWAP1 PUSH2 0x1DF JUMP JUMPDEST DUP3 PUSH0 SWAP1 DUP2 PUSH2 0x3F SWAP2 SWAP1 PUSH2 0x46B JUMP JUMPDEST POP DUP2 PUSH1 0x1 SWAP1 DUP2 PUSH2 0x4F SWAP2 SWAP1 PUSH2 0x46B JUMP JUMPDEST POP DUP1 PUSH1 0x2 DUP2 SWAP1 SSTORE POP POP POP POP PUSH2 0x53A JUMP JUMPDEST PUSH0 PUSH1 0x40 MLOAD SWAP1 POP SWAP1 JUMP JUMPDEST PUSH0 DUP1 REVERT JUMPDEST PUSH0 DUP1 REVERT JUMPDEST PUSH0 DUP1 REVERT JUMPDEST PUSH0 DUP1 REVERT JUMPDEST PUSH0 PUSH1 0x1F NOT PUSH1 0x1F DUP4 ADD AND SWAP1 POP SWAP2 SWAP1 POP JUMP JUMPDEST PUSH32 0x4E487B7100000000000000000000000000000000000000000000000000000000 PUSH0 MSTORE PUSH1 0x41 PUSH1 0x4 MSTORE PUSH1 0x24 PUSH0 REVERT JUMPDEST PUSH2 0xBE DUP3 PUSH2 0x78 JUMP JUMPDEST DUP2 ADD DUP2 DUP2 LT PUSH8 0xFFFFFFFFFFFFFFFF DUP3 GT OR ISZERO PUSH2 0xDD JUMPI PUSH2 0xDC PUSH2 0x88 JUMP JUMPDEST JUMPDEST DUP1 PUSH1 0x40 MSTORE POP POP POP JUMP JUMPDEST PUSH0 PUSH2 0xEF PUSH2 0x5F JUMP JUMPDEST SWAP1 POP PUSH2 0xFB DUP3 DUP3 PUSH2 0xB5 JUMP JUMPDEST SWAP2 SWAP1 POP JUMP JUMPDEST PUSH0 PUSH8 0xFFFFFFFFFFFFFFFF DUP3 GT ISZERO PUSH2 0x11A JUMPI PUSH2 0x119 PUSH2 0x88 JUMP JUMPDEST JUMPDEST PUSH2 0x123 DUP3 PUSH2 0x78 JUMP JUMPDEST SWAP1 POP PUSH1 0x20 DUP2 ADD SWAP1 POP SWAP2 SWAP1 POP JUMP JUMPDEST DUP3 DUP2 DUP4 MCOPY PUSH0 DUP4 DUP4 ADD MSTORE POP POP POP JUMP JUMPDEST PUSH0 PUSH2 0x150 PUSH2 0x14B DUP5 PUSH2 0x100 JUMP JUMPDEST PUSH2 0xE6 JUMP JUMPDEST SWAP1 POP DUP3 DUP2 MSTORE PUSH1 0x20 DUP2 ADD DUP5 DUP5 DUP5 ADD GT ISZERO PUSH2 0x16C JUMPI PUSH2 0x16B PUSH2 0x74 JUMP JUMPDEST JUMPDEST PUSH2 0x177 DUP5 DUP3 DUP6 PUSH2 0x130 JUMP JUMPDEST POP SWAP4 SWAP3 POP POP POP JUMP JUMPDEST PUSH0 DUP3 PUSH1 0x1F DUP4 ADD SLT PUSH2 0x193 JUMPI PUSH2 0x192 PUSH2 0x70 JUMP JUMPDEST JUMPDEST DUP2 MLOAD PUSH2 0x1A3 DUP5 DUP3 PUSH1 0x20 DUP7 ADD PUSH2 0x13E JUMP JUMPDEST SWAP2 POP POP SWAP3 SWAP2 POP POP JUMP JUMPDEST PUSH0 DUP2 SWAP1 POP SWAP2 SWAP1 POP JUMP JUMPDEST PUSH2 0x1BE DUP2 PUSH2 0x1AC JUMP JUMPDEST DUP2 EQ PUSH2 0x1C8 JUMPI PUSH0 DUP1 REVERT JUMPDEST POP JUMP JUMPDEST PUSH0 DUP2 MLOAD SWAP1 POP PUSH2 0x1D9 DUP2 PUSH2 0x1B5 JUMP JUMPDEST SWAP3 SWAP2 POP POP JUMP JUMPDEST PUSH0 DUP1 PUSH0 PUSH1 0x60 DUP5 DUP7 SUB SLT ISZERO PUSH2 0x1F6 JUMPI PUSH2 0x1F5 PUSH2 0x68 JUMP JUMPDEST JUMPDEST PUSH0 DUP5 ADD MLOAD PUSH8 0xFFFFFFFFFFFFFFFF DUP2 GT ISZERO PUSH2 0x213 JUMPI PUSH2 0x212 PUSH2 0x6C JUMP JUMPDEST JUMPDEST PUSH2 0x21F DUP7 DUP3 DUP8 ADD PUSH2 0x17F JUMP JUMPDEST SWAP4 POP POP PUSH1 0x20 DUP5 ADD MLOAD PUSH8 0xFFFFFFFFFFFFFFFF DUP2 GT ISZERO PUSH2 0x240 JUMPI PUSH2 0x23F PUSH2 0x6C JUMP JUMPDEST JUMPDEST PUSH2 0x24C DUP7 DUP3 DUP8 ADD PUSH2 0x17F JUMP JUMPDEST SWAP3 POP POP PUSH1 0x40 PUSH2 0x25D DUP7 DUP3 DUP8 ADD PUSH2 0x1CB JUMP JUMPDEST SWAP2 POP POP SWAP3 POP SWAP3 POP SWAP3 JUMP JUMPDEST PUSH0 DUP2 MLOAD SWAP1 POP SWAP2 SWAP1 POP JUMP JUMPDEST PUSH32 0x4E487B7100000000000000000000000000000000000000000000000000000000 PUSH0 MSTORE PUSH1 0x22 PUSH1 0x4 MSTORE PUSH1 0x24 PUSH0 REVERT JUMPDEST PUSH0 PUSH1 0x2 DUP3 DIV SWAP1 POP PUSH1 0x1 DUP3 AND DUP1 PUSH2 0x2B5 JUMPI PUSH1 0x7F DUP3 AND SWAP2 POP JUMPDEST PUSH1 0x20 DUP3 LT DUP2 SUB PUSH2 0x2C8 JUMPI PUSH2 0x2C7 PUSH2 0x271 JUMP JUMPDEST JUMPDEST POP SWAP2 SWAP1 POP JUMP JUMPDEST PUSH0 DUP2 SWAP1 POP DUP2 PUSH0 MSTORE PUSH1 0x20 PUSH0 KECCAK256 SWAP1 POP SWAP2 SWAP1 POP JUMP JUMPDEST PUSH0 PUSH1 0x20 PUSH1 0x1F DUP4 ADD DIV SWAP1 POP SWAP2 SWAP1 POP JUMP JUMPDEST PUSH0 DUP3 DUP3 SHL SWAP1 POP SWAP3 SWAP2 POP POP JUMP JUMPDEST PUSH0 PUSH1 0x8 DUP4 MUL PUSH2 0x32A PUSH32 0xFFFFFFFFFFFFFFFFFFFFFFFFFFFFFFFFFFFFFFFFFFFFFFFFFFFFFFFFFFFFFFFF DUP3 PUSH2 0x2EF JUMP JUMPDEST PUSH2 0x334 DUP7 DUP4 PUSH2 0x2EF JUMP JUMPDEST SWAP6 POP DUP1 NOT DUP5 AND SWAP4 POP DUP1 DUP7 AND DUP5 OR SWAP3 POP POP POP SWAP4 SWAP3 POP POP POP JUMP JUMPDEST PUSH0 DUP2 SWAP1 POP SWAP2 SWAP1 POP JUMP JUMPDEST PUSH0 PUSH2 0x36F PUSH2 0x36A PUSH2 0x365 DUP5 PUSH2 0x1AC JUMP JUMPDEST PUSH2 0x34C JUMP JUMPDEST PUSH2 0x1AC JUMP JUMPDEST SWAP1 POP SWAP2 SWAP1 POP JUMP JUMPDEST PUSH0 DUP2 SWAP1 POP SWAP2 SWAP1 POP JUMP JUMPDEST PUSH2 0x388 DUP4 PUSH2 0x355 JUMP JUMPDEST PUSH2 0x39C PUSH2 0x394 DUP3 PUSH2 0x376 JUMP JUMPDEST DUP5 DUP5 SLOAD PUSH2 0x2FB JUMP JUMPDEST DUP3 SSTORE POP POP POP POP JUMP JUMPDEST PUSH0 SWAP1 JUMP JUMPDEST PUSH2 0x3B0 PUSH2 0x3A4 JUMP JUMPDEST PUSH2 0x3BB DUP2 DUP5 DUP5 PUSH2 0x37F JUMP JUMPDEST POP POP POP JUMP JUMPDEST JUMPDEST DUP2 DUP2 LT ISZERO PUSH2 0x3DE JUMPI PUSH2 0x3D3 PUSH0 DUP3 PUSH2 0x3A8 JUMP JUMPDEST PUSH1 0x1 DUP2 ADD SWAP1 POP PUSH2 0x3C1 JUMP JUMPDEST POP POP JUMP JUMPDEST PUSH1 0x1F DUP3 GT ISZERO PUSH2 0x423 JUMPI PUSH2 0x3F4 DUP2 PUSH2 0x2CE JUMP JUMPDEST PUSH2 0x3FD DUP5 PUSH2 0x2E0 JUMP JUMPDEST DUP2 ADD PUSH1 0x20 DUP6 LT ISZERO PUSH2 0x40C JUMPI DUP2 SWAP1 POP JUMPDEST PUSH2 0x420 PUSH2 0x418 DUP6 PUSH2 0x2E0 JUMP JUMPDEST DUP4 ADD DUP3 PUSH2 0x3C0 JUMP JUMPDEST POP POP JUMPDEST POP POP POP JUMP JUMPDEST PUSH0 DUP3 DUP3 SHR SWAP1 POP SWAP3 SWAP2 POP POP JUMP JUMPDEST PUSH0 PUSH2 0x443 PUSH0 NOT DUP5 PUSH1 0x8 MUL PUSH2 0x428 JUMP JUMPDEST NOT DUP1 DUP4 AND SWAP2 POP POP SWAP3 SWAP2 POP POP JUMP JUMPDEST PUSH0 PUSH2 0x45B DUP4 DUP4 PUSH2 0x434 JUMP JUMPDEST SWAP2 POP DUP3 PUSH1 0x2 MUL DUP3 OR SWAP1 POP SWAP3 SWAP2 POP POP JUMP JUMPDEST PUSH2 0x474 DUP3 PUSH2 0x267 JUMP JUMPDEST PUSH8 0xFFFFFFFFFFFFFFFF DUP2 GT ISZERO PUSH2 0x48D JUMPI PUSH2 0x48C PUSH2 0x88 JUMP JUMPDEST JUMPDEST PUSH2 0x497 DUP3 SLOAD PUSH2 0x29E JUMP JUMPDEST PUSH2 0x4A2 DUP3 DUP3 DUP6 PUSH2 0x3E2 JUMP JUMPDEST PUSH0 PUSH1 0x20 SWAP1 POP PUSH1 0x1F DUP4 GT PUSH1 0x1 DUP2 EQ PUSH2 0x4D3 JUMPI PUSH0 DUP5 ISZERO PUSH2 0x4C1 JUMPI DUP3 DUP8 ADD MLOAD SWAP1 POP JUMPDEST PUSH2 0x4CB DUP6 DUP3 PUSH2 0x450 JUMP JUMPDEST DUP7 SSTORE POP PUSH2 0x532 JUMP JUMPDEST PUSH1 0x1F NOT DUP5 AND PUSH2 0x4E1 DUP7 PUSH2 0x2CE JUMP JUMPDEST PUSH0 JUMPDEST DUP3 DUP2 LT ISZERO PUSH2 0x508 JUMPI DUP5 DUP10 ADD MLOAD DUP3 SSTORE PUSH1 0x1 DUP3 ADD SWAP2 POP PUSH1 0x20 DUP6 ADD SWAP5 POP PUSH1 0x20 DUP2 ADD SWAP1 POP PUSH2 0x4E3 JUMP JUMPDEST DUP7 DUP4 LT ISZERO PUSH2 0x525 JUMPI DUP5 DUP10 ADD MLOAD PUSH2 0x521 PUSH1 0x1F DUP10 AND DUP3 PUSH2 0x434 JUMP JUMPDEST DUP4 SSTORE POP JUMPDEST PUSH1 0x1 PUSH1 0x2 DUP9 MUL ADD DUP9 SSTORE POP POP POP JUMPDEST POP POP POP POP POP POP JUMP JUMPDEST PUSH2 0xF11 DUP1 PUSH2 0x547 PUSH0 CODECOPY PUSH0 RETURN INVALID PUSH1 0x80 PUSH1 0x40 MSTORE CALLVALUE DUP1 ISZERO PUSH2 0xF JUMPI PUSH0 DUP1 REVERT JUMPDEST POP PUSH1 0x4 CALLDATASIZE LT PUSH2 0x86 JUMPI PUSH0 CALLDATALOAD PUSH1 0xE0 SHR DUP1 PUSH4 0x99D568B3 GT PUSH2 0x59 JUMPI DUP1 PUSH4 0x99D568B3 EQ PUSH2 0xFC JUMPI DUP1 PUSH4 0x9D8C8315 EQ PUSH2 0x11A JUMPI DUP1 PUSH4 0xCB9CB0C2 EQ PUSH2 0x13A JUMPI DUP1 PUSH4 0xF8FD1948 EQ PUSH2 0x158 JUMPI PUSH2 0x86 JUMP JUMPDEST DUP1 PUSH4 0x11EBAE41 EQ PUSH2 0x8A JUMPI DUP1 PUSH4 0x366DB281 EQ PUSH2 0xA8 JUMPI DUP1 PUSH4 0x908DF63D EQ PUSH2 0xC4 JUMPI DUP1 PUSH4 0x9727FAEF EQ PUSH2 0xE0 JUMPI JUMPDEST PUSH0 DUP1 REVERT JUMPDEST PUSH2 0x92 PUSH2 0x176 JUMP JUMPDEST PUSH1 0x40 MLOAD PUSH2 0x9F SWAP2 SWAP1 PUSH2 0x60A JUMP JUMPDEST PUSH1 0x40 MLOAD DUP1 SWAP2 SUB SWAP1 RETURN JUMPDEST PUSH2 0xC2 PUSH1 0x4 DUP1 CALLDATASIZE SUB DUP2 ADD SWAP1 PUSH2 0xBD SWAP2 SWAP1 PUSH2 0x767 JUMP JUMPDEST PUSH2 0x202 JUMP JUMPDEST STOP JUMPDEST PUSH2 0xDE PUSH1 0x4 DUP1 CALLDATASIZE SUB DUP2 ADD SWAP1 PUSH2 0xD9 SWAP2 SWAP1 PUSH2 0x767 JUMP JUMPDEST PUSH2 0x215 JUMP JUMPDEST STOP JUMPDEST PUSH2 0xFA PUSH1 0x4 DUP1 CALLDATASIZE SUB DUP2 ADD SWAP1 PUSH2 0xF5 SWAP2 SWAP1 PUSH2 0x7E1 JUMP JUMPDEST PUSH2 0x227 JUMP JUMPDEST STOP JUMPDEST PUSH2 0x104 PUSH2 0x231 JUMP JUMPDEST PUSH1 0x40 MLOAD PUSH2 0x111 SWAP2 SWAP1 PUSH2 0x81B JUMP JUMPDEST PUSH1 0x40 MLOAD DUP1 SWAP2 SUB SWAP1 RETURN JUMPDEST PUSH2 0x122 PUSH2 0x237 JUMP JUMPDEST PUSH1 0x40 MLOAD PUSH2 0x131 SWAP4 SWAP3 SWAP2 SWAP1 PUSH2 0x834 JUMP JUMPDEST PUSH1 0x40 MLOAD DUP1 SWAP2 SUB SWAP1 RETURN JUMPDEST PUSH2 0x142 PUSH2 0x360 JUMP JUMPDEST PUSH1 0x40 MLOAD PUSH2 0x14F SWAP2 SWAP1 PUSH2 0x60A JUMP JUMPDEST PUSH1 0x40 MLOAD DUP1 SWAP2 SUB SWAP1 RETURN JUMPDEST PUSH2 0x160 PUSH2 0x3EB JUMP JUMPDEST PUSH1 0x40 MLOAD PUSH2 0x16D SWAP2 SWAP1 PUSH2 0x60A JUMP JUMPDEST PUSH1 0x40 MLOAD DUP1 SWAP2 SUB SWAP1 RETURN JUMPDEST PUSH1 0x1 DUP1 SLOAD PUSH2 0x183 SWAP1 PUSH2 0x8A4 JUMP JUMPDEST DUP1 PUSH1 0x1F ADD PUSH1 0x20 DUP1 SWAP2 DIV MUL PUSH1 0x20 ADD PUSH1 0x40 MLOAD SWAP1 DUP2 ADD PUSH1 0x40 MSTORE DUP1 SWAP3 SWAP2 SWAP1 DUP2 DUP2 MSTORE PUSH1 0x20 ADD DUP3 DUP1 SLOAD PUSH2 0x1AF SWAP1 PUSH2 0x8A4 JUMP JUMPDEST DUP1 ISZERO PUSH2 0x1FA JUMPI DUP1 PUSH1 0x1F LT PUSH2 0x1D1 JUMPI PUSH2 0x100 DUP1 DUP4 SLOAD DIV MUL DUP4 MSTORE SWAP2 PUSH1 0x20 ADD SWAP2 PUSH2 0x1FA JUMP JUMPDEST DUP3 ADD SWAP2 SWAP1 PUSH0 MSTORE PUSH1 0x20 PUSH0 KECCAK256 SWAP1 JUMPDEST DUP2 SLOAD DUP2 MSTORE SWAP1 PUSH1 0x1 ADD SWAP1 PUSH1 0x20 ADD DUP1 DUP4 GT PUSH2 0x1DD JUMPI DUP3 SWAP1 SUB PUSH1 0x1F AND DUP3 ADD SWAP2 JUMPDEST POP POP POP POP POP DUP2 JUMP JUMPDEST DUP1 PUSH1 0x1 SWAP1 DUP2 PUSH2 0x211 SWAP2 SWAP1 PUSH2 0xA71 JUMP JUMPDEST POP POP JUMP JUMPDEST DUP1 PUSH0 SWAP1 DUP2 PUSH2 0x223 SWAP2 SWAP1 PUSH2 0xA71 JUMP JUMPDEST POP POP JUMP JUMPDEST DUP1 PUSH1 0x2 DUP2 SWAP1 SSTORE POP POP JUMP JUMPDEST PUSH1 0x2 SLOAD DUP2 JUMP JUMPDEST PUSH1 0x60 DUP1 PUSH0 DUP1 PUSH1 0x1 PUSH1 0x2 SLOAD DUP3 DUP1 SLOAD PUSH2 0x24D SWAP1 PUSH2 0x8A4 JUMP JUMPDEST DUP1 PUSH1 0x1F ADD PUSH1 0x20 DUP1 SWAP2 DIV MUL PUSH1 0x20 ADD PUSH1 0x40 MLOAD SWAP1 DUP2 ADD PUSH1 0x40 MSTORE DUP1 SWAP3 SWAP2 SWAP1 DUP2 DUP2 MSTORE PUSH1 0x20 ADD DUP3 DUP1 SLOAD PUSH2 0x279 SWAP1 PUSH2 0x8A4 JUMP JUMPDEST DUP1 ISZERO PUSH2 0x2C4 JUMPI DUP1 PUSH1 0x1F LT PUSH2 0x29B JUMPI PUSH2 0x100 DUP1 DUP4 SLOAD DIV MUL DUP4 MSTORE SWAP2 PUSH1 0x20 ADD SWAP2 PUSH2 0x2C4 JUMP JUMPDEST DUP3 ADD SWAP2 SWAP1 PUSH0 MSTORE PUSH1 0x20 PUSH0 KECCAK256 SWAP1 JUMPDEST DUP2 SLOAD DUP2 MSTORE SWAP1 PUSH1 0x1 ADD SWAP1 PUSH1 0x20 ADD DUP1 DUP4 GT PUSH2 0x2A7 JUMPI DUP3 SWAP1 SUB PUSH1 0x1F AND DUP3 ADD SWAP2 JUMPDEST POP POP POP POP POP SWAP3 POP DUP2 DUP1 SLOAD PUSH2 0x2D7 SWAP1 PUSH2 0x8A4 JUMP JUMPDEST DUP1 PUSH1 0x1F ADD PUSH1 0x20 DUP1 SWAP2 DIV MUL PUSH1 0x20 ADD PUSH1 0x40 MLOAD SWAP1 DUP2 ADD PUSH1 0x40 MSTORE DUP1 SWAP3 SWAP2 SWAP1 DUP2 DUP2 MSTORE PUSH1 0x20 ADD DUP3 DUP1 SLOAD PUSH2 0x303 SWAP1 PUSH2 0x8A4 JUMP JUMPDEST DUP1 ISZERO PUSH2 0x34E JUMPI DUP1 PUSH1 0x1F LT PUSH2 0x325 JUMPI PUSH2 0x100 DUP1 DUP4 SLOAD DIV MUL DUP4 MSTORE SWAP2 PUSH1 0x20 ADD SWAP2 PUSH2 0x34E JUMP JUMPDEST DUP3 ADD SWAP2 SWAP1 PUSH0 MSTORE PUSH1 0x20 PUSH0 KECCAK256 SWAP1 JUMPDEST DUP2 SLOAD DUP2 MSTORE SWAP1 PUSH1 0x1 ADD SWAP1 PUSH1 0x20 ADD DUP1 DUP4 GT PUSH2 0x331 JUMPI DUP3 SWAP1 SUB PUSH1 0x1F AND DUP3 ADD SWAP2 JUMPDEST POP POP POP POP POP SWAP2 POP SWAP3 POP SWAP3 POP SWAP3 POP SWAP1 SWAP2 SWAP3 JUMP JUMPDEST PUSH0 DUP1 SLOAD PUSH2 0x36C SWAP1 PUSH2 0x8A4 JUMP JUMPDEST DUP1 PUSH1 0x1F ADD PUSH1 0x20 DUP1 SWAP2 DIV MUL PUSH1 0x20 ADD PUSH1 0x40 MLOAD SWAP1 DUP2 ADD PUSH1 0x40 MSTORE DUP1 SWAP3 SWAP2 SWAP1 DUP2 DUP2 MSTORE PUSH1 0x20 ADD DUP3 DUP1 SLOAD PUSH2 0x398 SWAP1 PUSH2 0x8A4 JUMP JUMPDEST DUP1 ISZERO PUSH2 0x3E3 JUMPI DUP1 PUSH1 0x1F LT PUSH2 0x3BA JUMPI PUSH2 0x100 DUP1 DUP4 SLOAD DIV MUL DUP4 MSTORE SWAP2 PUSH1 0x20 ADD SWAP2 PUSH2 0x3E3 JUMP JUMPDEST DUP3 ADD SWAP2 SWAP1 PUSH0 MSTORE PUSH1 0x20 PUSH0 KECCAK256 SWAP1 JUMPDEST DUP2 SLOAD DUP2 MSTORE SWAP1 PUSH1 0x1 ADD SWAP1 PUSH1 0x20 ADD DUP1 DUP4 GT PUSH2 0x3C6 JUMPI DUP3 SWAP1 SUB PUSH1 0x1F AND DUP3 ADD SWAP2 JUMPDEST POP POP POP POP POP DUP2 JUMP JUMPDEST PUSH1 0x60 PUSH0 PUSH1 0x1 PUSH2 0x3FB PUSH1 0x2 SLOAD PUSH2 0x421 JUMP JUMPDEST PUSH1 0x40 MLOAD PUSH1 0x20 ADD PUSH2 0x40D SWAP4 SWAP3 SWAP2 SWAP1 PUSH2 0xCD8 JUMP JUMPDEST PUSH1 0x40 MLOAD PUSH1 0x20 DUP2 DUP4 SUB SUB DUP2 MSTORE SWAP1 PUSH1 0x40 MSTORE SWAP1 POP SWAP1 JUMP JUMPDEST PUSH1 0x60 PUSH0 DUP3 SUB PUSH2 0x467 JUMPI PUSH1 0x40 MLOAD DUP1 PUSH1 0x40 ADD PUSH1 0x40 MSTORE DUP1 PUSH1 0x1 DUP2 MSTORE PUSH1 0x20 ADD PUSH32 0x3000000000000000000000000000000000000000000000000000000000000000 DUP2 MSTORE POP SWAP1 POP PUSH2 0x595 JUMP JUMPDEST PUSH0 DUP3 SWAP1 POP PUSH0 JUMPDEST PUSH0 DUP3 EQ PUSH2 0x496 JUMPI DUP1 DUP1 PUSH2 0x47F SWAP1 PUSH2 0xD56 JUMP JUMPDEST SWAP2 POP POP PUSH1 0xA DUP3 PUSH2 0x48F SWAP2 SWAP1 PUSH2 0xDCA JUMP JUMPDEST SWAP2 POP PUSH2 0x46D JUMP JUMPDEST PUSH0 DUP2 PUSH8 0xFFFFFFFFFFFFFFFF DUP2 GT ISZERO PUSH2 0x4B1 JUMPI PUSH2 0x4B0 PUSH2 0x643 JUMP JUMPDEST JUMPDEST PUSH1 0x40 MLOAD SWAP1 DUP1 DUP3 MSTORE DUP1 PUSH1 0x1F ADD PUSH1 0x1F NOT AND PUSH1 0x20 ADD DUP3 ADD PUSH1 0x40 MSTORE DUP1 ISZERO PUSH2 0x4E3 JUMPI DUP2 PUSH1 0x20 ADD PUSH1 0x1 DUP3 MUL DUP1 CALLDATASIZE DUP4 CALLDATACOPY DUP1 DUP3 ADD SWAP2 POP POP SWAP1 POP JUMPDEST POP SWAP1 POP PUSH0 DUP3 SWAP1 POP JUMPDEST PUSH0 DUP7 EQ PUSH2 0x58D JUMPI PUSH1 0x1 DUP2 PUSH2 0x4FF SWAP2 SWAP1 PUSH2 0xDFA JUMP JUMPDEST SWAP1 POP PUSH0 PUSH1 0xA DUP1 DUP9 PUSH2 0x510 SWAP2 SWAP1 PUSH2 0xDCA JUMP JUMPDEST PUSH2 0x51A SWAP2 SWAP1 PUSH2 0xE2D JUMP JUMPDEST DUP8 PUSH2 0x525 SWAP2 SWAP1 PUSH2 0xDFA JUMP JUMPDEST PUSH1 0x30 PUSH2 0x531 SWAP2 SWAP1 PUSH2 0xE7A JUMP JUMPDEST SWAP1 POP DUP1 PUSH1 0xF8 SHL DUP4 DUP4 DUP2 MLOAD DUP2 LT PUSH2 0x54A JUMPI PUSH2 0x549 PUSH2 0xEAE JUMP JUMPDEST JUMPDEST PUSH1 0x20 ADD ADD SWAP1 PUSH31 0xFFFFFFFFFFFFFFFFFFFFFFFFFFFFFFFFFFFFFFFFFFFFFFFFFFFFFFFFFFFFFF NOT AND SWAP1 DUP2 PUSH0 BYTE SWAP1 MSTORE8 POP PUSH1 0xA DUP8 PUSH2 0x585 SWAP2 SWAP1 PUSH2 0xDCA JUMP JUMPDEST SWAP7 POP POP PUSH2 0x4EB JUMP JUMPDEST DUP2 SWAP5 POP POP POP POP POP JUMPDEST SWAP2 SWAP1 POP JUMP JUMPDEST PUSH0 DUP2 MLOAD SWAP1 POP SWAP2 SWAP1 POP JUMP JUMPDEST PUSH0 DUP3 DUP3 MSTORE PUSH1 0x20 DUP3 ADD SWAP1 POP SWAP3 SWAP2 POP POP JUMP JUMPDEST DUP3 DUP2 DUP4 MCOPY PUSH0 DUP4 DUP4 ADD MSTORE POP POP POP JUMP JUMPDEST PUSH0 PUSH1 0x1F NOT PUSH1 0x1F DUP4 ADD AND SWAP1 POP SWAP2 SWAP1 POP JUMP JUMPDEST PUSH0 PUSH2 0x5DC DUP3 PUSH2 0x59A JUMP JUMPDEST PUSH2 0x5E6 DUP2 DUP6 PUSH2 0x5A4 JUMP JUMPDEST SWAP4 POP PUSH2 0x5F6 DUP2 DUP6 PUSH1 0x20 DUP7 ADD PUSH2 0x5B4 JUMP JUMPDEST PUSH2 0x5FF DUP2 PUSH2 0x5C2 JUMP JUMPDEST DUP5 ADD SWAP2 POP POP SWAP3 SWAP2 POP POP JUMP JUMPDEST PUSH0 PUSH1 0x20 DUP3 ADD SWAP1 POP DUP2 DUP2 SUB PUSH0 DUP4 ADD MSTORE PUSH2 0x622 DUP2 DUP5 PUSH2 0x5D2 JUMP JUMPDEST SWAP1 POP SWAP3 SWAP2 POP POP JUMP JUMPDEST PUSH0 PUSH1 0x40 MLOAD SWAP1 POP SWAP1 JUMP JUMPDEST PUSH0 DUP1 REVERT JUMPDEST PUSH0 DUP1 REVERT JUMPDEST PUSH0 DUP1 REVERT JUMPDEST PUSH0 DUP1 REVERT JUMPDEST PUSH32 0x4E487B7100000000000000000000000000000000000000000000000000000000 PUSH0 MSTORE PUSH1 0x41 PUSH1 0x4 MSTORE PUSH1 0x24 PUSH0 REVERT JUMPDEST PUSH2 0x679 DUP3 PUSH2 0x5C2 JUMP JUMPDEST DUP2 ADD DUP2 DUP2 LT PUSH8 0xFFFFFFFFFFFFFFFF DUP3 GT OR ISZERO PUSH2 0x698 JUMPI PUSH2 0x697 PUSH2 0x643 JUMP JUMPDEST JUMPDEST DUP1 PUSH1 0x40 MSTORE POP POP POP JUMP JUMPDEST PUSH0 PUSH2 0x6AA PUSH2 0x62A JUMP JUMPDEST SWAP1 POP PUSH2 0x6B6 DUP3 DUP3 PUSH2 0x670 JUMP JUMPDEST SWAP2 SWAP1 POP JUMP JUMPDEST PUSH0 PUSH8 0xFFFFFFFFFFFFFFFF DUP3 GT ISZERO PUSH2 0x6D5 JUMPI PUSH2 0x6D4 PUSH2 0x643 JUMP JUMPDEST JUMPDEST PUSH2 0x6DE DUP3 PUSH2 0x5C2 JUMP JUMPDEST SWAP1 POP PUSH1 0x20 DUP2 ADD SWAP1 POP SWAP2 SWAP1 POP JUMP JUMPDEST DUP3 DUP2 DUP4 CALLDATACOPY PUSH0 DUP4 DUP4 ADD MSTORE POP POP POP JUMP JUMPDEST PUSH0 PUSH2 0x70B PUSH2 0x706 DUP5 PUSH2 0x6BB JUMP JUMPDEST PUSH2 0x6A1 JUMP JUMPDEST SWAP1 POP DUP3 DUP2 MSTORE PUSH1 0x20 DUP2 ADD DUP5 DUP5 DUP5 ADD GT ISZERO PUSH2 0x727 JUMPI PUSH2 0x726 PUSH2 0x63F JUMP JUMPDEST JUMPDEST PUSH2 0x732 DUP5 DUP3 DUP6 PUSH2 0x6EB JUMP JUMPDEST POP SWAP4 SWAP3 POP POP POP JUMP JUMPDEST PUSH0 DUP3 PUSH1 0x1F DUP4 ADD SLT PUSH2 0x74E JUMPI PUSH2 0x74D PUSH2 0x63B JUMP JUMPDEST JUMPDEST DUP2 CALLDATALOAD PUSH2 0x75E DUP5 DUP3 PUSH1 0x20 DUP7 ADD PUSH2 0x6F9 JUMP JUMPDEST SWAP2 POP POP SWAP3 SWAP2 POP POP JUMP JUMPDEST PUSH0 PUSH1 0x20 DUP3 DUP5 SUB SLT ISZERO PUSH2 0x77C JUMPI PUSH2 0x77B PUSH2 0x633 JUMP JUMPDEST JUMPDEST PUSH0 DUP3 ADD CALLDATALOAD PUSH8 0xFFFFFFFFFFFFFFFF DUP2 GT ISZERO PUSH2 0x799 JUMPI PUSH2 0x798 PUSH2 0x637 JUMP JUMPDEST JUMPDEST PUSH2 0x7A5 DUP5 DUP3 DUP6 ADD PUSH2 0x73A JUMP JUMPDEST SWAP2 POP POP SWAP3 SWAP2 POP POP JUMP JUMPDEST PUSH0 DUP2 SWAP1 POP SWAP2 SWAP1 POP JUMP JUMPDEST PUSH2 0x7C0 DUP2 PUSH2 0x7AE JUMP JUMPDEST DUP2 EQ PUSH2 0x7CA JUMPI PUSH0 DUP1 REVERT JUMPDEST POP JUMP JUMPDEST PUSH0 DUP2 CALLDATALOAD SWAP1 POP PUSH2 0x7DB DUP2 PUSH2 0x7B7 JUMP JUMPDEST SWAP3 SWAP2 POP POP JUMP JUMPDEST PUSH0 PUSH1 0x20 DUP3 DUP5 SUB SLT ISZERO PUSH2 0x7F6 JUMPI PUSH2 0x7F5 PUSH2 0x633 JUMP JUMPDEST JUMPDEST PUSH0 PUSH2 0x803 DUP5 DUP3 DUP6 ADD PUSH2 0x7CD JUMP JUMPDEST SWAP2 POP POP SWAP3 SWAP2 POP POP JUMP JUMPDEST PUSH2 0x815 DUP2 PUSH2 0x7AE JUMP JUMPDEST DUP3 MSTORE POP POP JUMP JUMPDEST PUSH0 PUSH1 0x20 DUP3 ADD SWAP1 POP PUSH2 0x82E PUSH0 DUP4 ADD DUP5 PUSH2 0x80C JUMP JUMPDEST SWAP3 SWAP2 POP POP JUMP JUMPDEST PUSH0 PUSH1 0x60 DUP3 ADD SWAP1 POP DUP2 DUP2 SUB PUSH0 DUP4 ADD MSTORE PUSH2 0x84C DUP2 DUP7 PUSH2 0x5D2 JUMP JUMPDEST SWAP1 POP DUP2 DUP2 SUB PUSH1 0x20 DUP4 ADD MSTORE PUSH2 0x860 DUP2 DUP6 PUSH2 0x5D2 JUMP JUMPDEST SWAP1 POP PUSH2 0x86F PUSH1 0x40 DUP4 ADD DUP5 PUSH2 0x80C JUMP JUMPDEST SWAP5 SWAP4 POP POP POP POP JUMP JUMPDEST PUSH32 0x4E487B7100000000000000000000000000000000000000000000000000000000 PUSH0 MSTORE PUSH1 0x22 PUSH1 0x4 MSTORE PUSH1 0x24 PUSH0 REVERT JUMPDEST PUSH0 PUSH1 0x2 DUP3 DIV SWAP1 POP PUSH1 0x1 DUP3 AND DUP1 PUSH2 0x8BB JUMPI PUSH1 0x7F DUP3 AND SWAP2 POP JUMPDEST PUSH1 0x20 DUP3 LT DUP2 SUB PUSH2 0x8CE JUMPI PUSH2 0x8CD PUSH2 0x877 JUMP JUMPDEST JUMPDEST POP SWAP2 SWAP1 POP JUMP JUMPDEST PUSH0 DUP2 SWAP1 POP DUP2 PUSH0 MSTORE PUSH1 0x20 PUSH0 KECCAK256 SWAP1 POP SWAP2 SWAP1 POP JUMP JUMPDEST PUSH0 PUSH1 0x20 PUSH1 0x1F DUP4 ADD DIV SWAP1 POP SWAP2 SWAP1 POP JUMP JUMPDEST PUSH0 DUP3 DUP3 SHL SWAP1 POP SWAP3 SWAP2 POP POP JUMP JUMPDEST PUSH0 PUSH1 0x8 DUP4 MUL PUSH2 0x930 PUSH32 0xFFFFFFFFFFFFFFFFFFFFFFFFFFFFFFFFFFFFFFFFFFFFFFFFFFFFFFFFFFFFFFFF DUP3 PUSH2 0x8F5 JUMP JUMPDEST PUSH2 0x93A DUP7 DUP4 PUSH2 0x8F5 JUMP JUMPDEST SWAP6 POP DUP1 NOT DUP5 AND SWAP4 POP DUP1 DUP7 AND DUP5 OR SWAP3 POP POP POP SWAP4 SWAP3 POP POP POP JUMP JUMPDEST PUSH0 DUP2 SWAP1 POP SWAP2 SWAP1 POP JUMP JUMPDEST PUSH0 PUSH2 0x975 PUSH2 0x970 PUSH2 0x96B DUP5 PUSH2 0x7AE JUMP JUMPDEST PUSH2 0x952 JUMP JUMPDEST PUSH2 0x7AE JUMP JUMPDEST SWAP1 POP SWAP2 SWAP1 POP JUMP JUMPDEST PUSH0 DUP2 SWAP1 POP SWAP2 SWAP1 POP JUMP JUMPDEST PUSH2 0x98E DUP4 PUSH2 0x95B JUMP JUMPDEST PUSH2 0x9A2 PUSH2 0x99A DUP3 PUSH2 0x97C JUMP JUMPDEST DUP5 DUP5 SLOAD PUSH2 0x901 JUMP JUMPDEST DUP3 SSTORE POP POP POP POP JUMP JUMPDEST PUSH0 SWAP1 JUMP JUMPDEST PUSH2 0x9B6 PUSH2 0x9AA JUMP JUMPDEST PUSH2 0x9C1 DUP2 DUP5 DUP5 PUSH2 0x985 JUMP JUMPDEST POP POP POP JUMP JUMPDEST JUMPDEST DUP2 DUP2 LT ISZERO PUSH2 0x9E4 JUMPI PUSH2 0x9D9 PUSH0 DUP3 PUSH2 0x9AE JUMP JUMPDEST PUSH1 0x1 DUP2 ADD SWAP1 POP PUSH2 0x9C7 JUMP JUMPDEST POP POP JUMP JUMPDEST PUSH1 0x1F DUP3 GT ISZERO PUSH2 0xA29 JUMPI PUSH2 0x9FA DUP2 PUSH2 0x8D4 JUMP JUMPDEST PUSH2 0xA03 DUP5 PUSH2 0x8E6 JUMP JUMPDEST DUP2 ADD PUSH1 0x20 DUP6 LT ISZERO PUSH2 0xA12 JUMPI DUP2 SWAP1 POP JUMPDEST PUSH2 0xA26 PUSH2 0xA1E DUP6 PUSH2 0x8E6 JUMP JUMPDEST DUP4 ADD DUP3 PUSH2 0x9C6 JUMP JUMPDEST POP POP JUMPDEST POP POP POP JUMP JUMPDEST PUSH0 DUP3 DUP3 SHR SWAP1 POP SWAP3 SWAP2 POP POP JUMP JUMPDEST PUSH0 PUSH2 0xA49 PUSH0 NOT DUP5 PUSH1 0x8 MUL PUSH2 0xA2E JUMP JUMPDEST NOT DUP1 DUP4 AND SWAP2 POP POP SWAP3 SWAP2 POP POP JUMP JUMPDEST PUSH0 PUSH2 0xA61 DUP4 DUP4 PUSH2 0xA3A JUMP JUMPDEST SWAP2 POP DUP3 PUSH1 0x2 MUL DUP3 OR SWAP1 POP SWAP3 SWAP2 POP POP JUMP JUMPDEST PUSH2 0xA7A DUP3 PUSH2 0x59A JUMP JUMPDEST PUSH8 0xFFFFFFFFFFFFFFFF DUP2 GT ISZERO PUSH2 0xA93 JUMPI PUSH2 0xA92 PUSH2 0x643 JUMP JUMPDEST JUMPDEST PUSH2 0xA9D DUP3 SLOAD PUSH2 0x8A4 JUMP JUMPDEST PUSH2 0xAA8 DUP3 DUP3 DUP6 PUSH2 0x9E8 JUMP JUMPDEST PUSH0 PUSH1 0x20 SWAP1 POP PUSH1 0x1F DUP4 GT PUSH1 0x1 DUP2 EQ PUSH2 0xAD9 JUMPI PUSH0 DUP5 ISZERO PUSH2 0xAC7 JUMPI DUP3 DUP8 ADD MLOAD SWAP1 POP JUMPDEST PUSH2 0xAD1 DUP6 DUP3 PUSH2 0xA56 JUMP JUMPDEST DUP7 SSTORE POP PUSH2 0xB38 JUMP JUMPDEST PUSH1 0x1F NOT DUP5 AND PUSH2 0xAE7 DUP7 PUSH2 0x8D4 JUMP JUMPDEST PUSH0 JUMPDEST DUP3 DUP2 LT ISZERO PUSH2 0xB0E JUMPI DUP5 DUP10 ADD MLOAD DUP3 SSTORE PUSH1 0x1 DUP3 ADD SWAP2 POP PUSH1 0x20 DUP6 ADD SWAP5 POP PUSH1 0x20 DUP2 ADD SWAP1 POP PUSH2 0xAE9 JUMP JUMPDEST DUP7 DUP4 LT ISZERO PUSH2 0xB2B JUMPI DUP5 DUP10 ADD MLOAD PUSH2 0xB27 PUSH1 0x1F DUP10 AND DUP3 PUSH2 0xA3A JUMP JUMPDEST DUP4 SSTORE POP JUMPDEST PUSH1 0x1 PUSH1 0x2 DUP9 MUL ADD DUP9 SSTORE POP POP POP JUMPDEST POP POP POP POP POP POP JUMP JUMPDEST PUSH0 DUP2 SWAP1 POP SWAP3 SWAP2 POP POP JUMP JUMPDEST PUSH32 0x486F7374656C204E616D653A2000000000000000000000000000000000000000 PUSH0 DUP3 ADD MSTORE POP JUMP JUMPDEST PUSH0 PUSH2 0xB7E PUSH1 0xD DUP4 PUSH2 0xB40 JUMP JUMPDEST SWAP2 POP PUSH2 0xB89 DUP3 PUSH2 0xB4A JUMP JUMPDEST PUSH1 0xD DUP3 ADD SWAP1 POP SWAP2 SWAP1 POP JUMP JUMPDEST PUSH0 DUP2 SLOAD PUSH2 0xBA0 DUP2 PUSH2 0x8A4 JUMP JUMPDEST PUSH2 0xBAA DUP2 DUP7 PUSH2 0xB40 JUMP JUMPDEST SWAP5 POP PUSH1 0x1 DUP3 AND PUSH0 DUP2 EQ PUSH2 0xBC4 JUMPI PUSH1 0x1 DUP2 EQ PUSH2 0xBD9 JUMPI PUSH2 0xC0B JUMP JUMPDEST PUSH1 0xFF NOT DUP4 AND DUP7 MSTORE DUP2 ISZERO ISZERO DUP3 MUL DUP7 ADD SWAP4 POP PUSH2 0xC0B JUMP JUMPDEST PUSH2 0xBE2 DUP6 PUSH2 0x8D4 JUMP JUMPDEST PUSH0 JUMPDEST DUP4 DUP2 LT ISZERO PUSH2 0xC03 JUMPI DUP2 SLOAD DUP2 DUP10 ADD MSTORE PUSH1 0x1 DUP3 ADD SWAP2 POP PUSH1 0x20 DUP2 ADD SWAP1 POP PUSH2 0xBE4 JUMP JUMPDEST DUP4 DUP9 ADD SWAP6 POP POP POP JUMPDEST POP POP POP SWAP3 SWAP2 POP POP JUMP JUMPDEST PUSH32 0x2C204C6F636174696F6E3A200000000000000000000000000000000000000000 PUSH0 DUP3 ADD MSTORE POP JUMP JUMPDEST PUSH0 PUSH2 0xC48 PUSH1 0xC DUP4 PUSH2 0xB40 JUMP JUMPDEST SWAP2 POP PUSH2 0xC53 DUP3 PUSH2 0xC14 JUMP JUMPDEST PUSH1 0xC DUP3 ADD SWAP1 POP SWAP2 SWAP1 POP JUMP JUMPDEST PUSH32 0x2C204E756D626572206F6620526F6F6D733A2000000000000000000000000000 PUSH0 DUP3 ADD MSTORE POP JUMP JUMPDEST PUSH0 PUSH2 0xC92 PUSH1 0x13 DUP4 PUSH2 0xB40 JUMP JUMPDEST SWAP2 POP PUSH2 0xC9D DUP3 PUSH2 0xC5E JUMP JUMPDEST PUSH1 0x13 DUP3 ADD SWAP1 POP SWAP2 SWAP1 POP JUMP JUMPDEST PUSH0 PUSH2 0xCB2 DUP3 PUSH2 0x59A JUMP JUMPDEST PUSH2 0xCBC DUP2 DUP6 PUSH2 0xB40 JUMP JUMPDEST SWAP4 POP PUSH2 0xCCC DUP2 DUP6 PUSH1 0x20 DUP7 ADD PUSH2 0x5B4 JUMP JUMPDEST DUP1 DUP5 ADD SWAP2 POP POP SWAP3 SWAP2 POP POP JUMP JUMPDEST PUSH0 PUSH2 0xCE2 DUP3 PUSH2 0xB72 JUMP JUMPDEST SWAP2 POP PUSH2 0xCEE DUP3 DUP7 PUSH2 0xB94 JUMP JUMPDEST SWAP2 POP PUSH2 0xCF9 DUP3 PUSH2 0xC3C JUMP JUMPDEST SWAP2 POP PUSH2 0xD05 DUP3 DUP6 PUSH2 0xB94 JUMP JUMPDEST SWAP2 POP PUSH2 0xD10 DUP3 PUSH2 0xC86 JUMP JUMPDEST SWAP2 POP PUSH2 0xD1C DUP3 DUP5 PUSH2 0xCA8 JUMP JUMPDEST SWAP2 POP DUP2 SWAP1 POP SWAP5 SWAP4 POP POP POP POP JUMP JUMPDEST PUSH32 0x4E487B7100000000000000000000000000000000000000000000000000000000 PUSH0 MSTORE PUSH1 0x11 PUSH1 0x4 MSTORE PUSH1 0x24 PUSH0 REVERT JUMPDEST PUSH0 PUSH2 0xD60 DUP3 PUSH2 0x7AE JUMP JUMPDEST SWAP2 POP PUSH32 0xFFFFFFFFFFFFFFFFFFFFFFFFFFFFFFFFFFFFFFFFFFFFFFFFFFFFFFFFFFFFFFFF DUP3 SUB PUSH2 0xD92 JUMPI PUSH2 0xD91 PUSH2 0xD29 JUMP JUMPDEST JUMPDEST PUSH1 0x1 DUP3 ADD SWAP1 POP SWAP2 SWAP1 POP JUMP JUMPDEST PUSH32 0x4E487B7100000000000000000000000000000000000000000000000000000000 PUSH0 MSTORE PUSH1 0x12 PUSH1 0x4 MSTORE PUSH1 0x24 PUSH0 REVERT JUMPDEST PUSH0 PUSH2 0xDD4 DUP3 PUSH2 0x7AE JUMP JUMPDEST SWAP2 POP PUSH2 0xDDF DUP4 PUSH2 0x7AE JUMP JUMPDEST SWAP3 POP DUP3 PUSH2 0xDEF JUMPI PUSH2 0xDEE PUSH2 0xD9D JUMP JUMPDEST JUMPDEST DUP3 DUP3 DIV SWAP1 POP SWAP3 SWAP2 POP POP JUMP JUMPDEST PUSH0 PUSH2 0xE04 DUP3 PUSH2 0x7AE JUMP JUMPDEST SWAP2 POP PUSH2 0xE0F DUP4 PUSH2 0x7AE JUMP JUMPDEST SWAP3 POP DUP3 DUP3 SUB SWAP1 POP DUP2 DUP2 GT ISZERO PUSH2 0xE27 JUMPI PUSH2 0xE26 PUSH2 0xD29 JUMP JUMPDEST JUMPDEST SWAP3 SWAP2 POP POP JUMP JUMPDEST PUSH0 PUSH2 0xE37 DUP3 PUSH2 0x7AE JUMP JUMPDEST SWAP2 POP PUSH2 0xE42 DUP4 PUSH2 0x7AE JUMP JUMPDEST SWAP3 POP DUP3 DUP3 MUL PUSH2 0xE50 DUP2 PUSH2 0x7AE JUMP JUMPDEST SWAP2 POP DUP3 DUP3 DIV DUP5 EQ DUP4 ISZERO OR PUSH2 0xE67 JUMPI PUSH2 0xE66 PUSH2 0xD29 JUMP JUMPDEST JUMPDEST POP SWAP3 SWAP2 POP POP JUMP JUMPDEST PUSH0 PUSH1 0xFF DUP3 AND SWAP1 POP SWAP2 SWAP1 POP JUMP JUMPDEST PUSH0 PUSH2 0xE84 DUP3 PUSH2 0xE6E JUMP JUMPDEST SWAP2 POP PUSH2 0xE8F DUP4 PUSH2 0xE6E JUMP JUMPDEST SWAP3 POP DUP3 DUP3 ADD SWAP1 POP PUSH1 0xFF DUP2 GT ISZERO PUSH2 0xEA8 JUMPI PUSH2 0xEA7 PUSH2 0xD29 JUMP JUMPDEST JUMPDEST SWAP3 SWAP2 POP POP JUMP JUMPDEST PUSH32 0x4E487B7100000000000000000000000000000000000000000000000000000000 PUSH0 MSTORE PUSH1 0x32 PUSH1 0x4 MSTORE PUSH1 0x24 PUSH0 REVERT INVALID LOG2 PUSH5 0x6970667358 0x22 SLT KECCAK256 SIGNEXTEND SWAP12 MSIZE 0x4F POP SWAP4 LOG1 DUP4 0xC3 CHAINID 0xC0 0xF8 0xEF SWAP15 BLOBBASEFEE 0xAF 0xE1 DUP10 0x26 DUP12 0x2D PUSH11 0x6CBDE89A4EBC27851C964 PUSH20 0x6F6C634300081A00330000000000000000000000 "
		},
		"gasEstimates": {
			"creation": {
				"codeDepositCost": "771400",
				"executionCost": "infinite",
				"totalCost": "infinite"
			},
			"external": {
				"getHostelDetails()": "infinite",
				"hostelLocation()": "infinite",
				"hostelName()": "infinite",
				"numberOfRooms()": "2425",
				"printHostelDetails()": "infinite",
				"setHostelLocation(string)": "infinite",
				"setHostelName(string)": "infinite",
				"setNumberOfRooms(uint256)": "22582"
			},
			"internal": {
				"uint2str(uint256)": "infinite"
			}
		},
		"methodIdentifiers": {
			"getHostelDetails()": "9d8c8315",
			"hostelLocation()": "11ebae41",
			"hostelName()": "cb9cb0c2",
			"numberOfRooms()": "99d568b3",
			"printHostelDetails()": "f8fd1948",
			"setHostelLocation(string)": "366db281",
			"setHostelName(string)": "908df63d",
			"setNumberOfRooms(uint256)": "9727faef"
		}
	},
	"abi": [
		{
			"inputs": [
				{
					"internalType": "string",
					"name": "_hostelName",
					"type": "string"
				},
				{
					"internalType": "string",
					"name": "_hostelLocation",
					"type": "string"
				},
				{
					"internalType": "uint256",
					"name": "_numberOfRooms",
					"type": "uint256"
				}
			],
			"stateMutability": "nonpayable",
			"type": "constructor"
		},
		{
			"inputs": [],
			"name": "getHostelDetails",
			"outputs": [
				{
					"internalType": "string",
					"name": "",
					"type": "string"
				},
				{
					"internalType": "string",
					"name": "",
					"type": "string"
				},
				{
					"internalType": "uint256",
					"name": "",
					"type": "uint256"
				}
			],
			"stateMutability": "view",
			"type": "function"
		},
		{
			"inputs": [],
			"name": "hostelLocation",
			"outputs": [
				{
					"internalType": "string",
					"name": "",
					"type": "string"
				}
			],
			"stateMutability": "view",
			"type": "function"
		},
		{
			"inputs": [],
			"name": "hostelName",
			"outputs": [
				{
					"internalType": "string",
					"name": "",
					"type": "string"
				}
			],
			"stateMutability": "view",
			"type": "function"
		},
		{
			"inputs": [],
			"name": "numberOfRooms",
			"outputs": [
				{
					"internalType": "uint256",
					"name": "",
					"type": "uint256"
				}
			],
			"stateMutability": "view",
			"type": "function"
		},
		{
			"inputs": [],
			"name": "printHostelDetails",
			"outputs": [
				{
					"internalType": "string",
					"name": "",
					"type": "string"
				}
			],
			"stateMutability": "view",
			"type": "function"
		},
		{
			"inputs": [
				{
					"internalType": "string",
					"name": "_newHostelLocation",
					"type": "string"
				}
			],
			"name": "setHostelLocation",
			"outputs": [],
			"stateMutability": "nonpayable",
			"type": "function"
		},
		{
			"inputs": [
				{
					"internalType": "string",
					"name": "_newHostelName",
					"type": "string"
				}
			],
			"name": "setHostelName",
			"outputs": [],
			"stateMutability": "nonpayable",
			"type": "function"
		},
		{
			"inputs": [
				{
					"internalType": "uint256",
					"name": "_newNumberOfRooms",
					"type": "uint256"
				}
			],
			"name": "setNumberOfRooms",
			"outputs": [],
			"stateMutability": "nonpayable",
			"type": "function"
		}
	]
}