{
	"data": {
		"bytecode": {
			"linkReferences": {},
			"object": "608060405234801561000f575f80fd5b5060405161196e38038061196e833981810160405281019061003191906101ec565b8460405161003e9061018e565b6100489190610272565b604051809103905ff080158015610061573d5f803e3d5ffd5b505f806101000a81548173ffffffffffffffffffffffffffffffffffffffff021916908373ffffffffffffffffffffffffffffffffffffffff16021790555083836040516100ae9061019b565b6100b992919061028b565b604051809103905ff0801580156100d2573d5f803e3d5ffd5b5060015f6101000a81548173ffffffffffffffffffffffffffffffffffffffff021916908373ffffffffffffffffffffffffffffffffffffffff1602179055508181604051610120906101a8565b61012b92919061028b565b604051809103905ff080158015610144573d5f803e3d5ffd5b5060025f6101000a81548173ffffffffffffffffffffffffffffffffffffffff021916908373ffffffffffffffffffffffffffffffffffffffff16021790555050505050506102b2565b61025580610f7d83390190565b610392806111d283390190565b61040a8061156483390190565b5f80fd5b5f819050919050565b6101cb816101b9565b81146101d5575f80fd5b50565b5f815190506101e6816101c2565b92915050565b5f805f805f60a08688031215610205576102046101b5565b5b5f610212888289016101d8565b9550506020610223888289016101d8565b9450506040610234888289016101d8565b9350506060610245888289016101d8565b9250506080610256888289016101d8565b9150509295509295909350565b61026c816101b9565b82525050565b5f6020820190506102855f830184610263565b92915050565b5f60408201905061029e5f830185610263565b6102ab6020830184610263565b9392505050565b610cbe806102bf5f395ff3fe608060405234801561000f575f80fd5b506004361061004a575f3560e01c80635c7712111461004e578063a312363a1461006c578063a35e7d291461008a578063becf77fe146100a8575b5f80fd5b6100566100c6565b60405161006391906106d1565b60405180910390f35b6100746100e9565b604051610081919061070a565b60405180910390f35b61009261010e565b60405161009f9190610743565b60405180910390f35b6100b0610133565b6040516100bd91906107cc565b60405180910390f35b5f8054906101000a900473ffffffffffffffffffffffffffffffffffffffff1681565b60025f9054906101000a900473ffffffffffffffffffffffffffffffffffffffff1681565b60015f9054906101000a900473ffffffffffffffffffffffffffffffffffffffff1681565b60606101c95f8054906101000a900473ffffffffffffffffffffffffffffffffffffffff1673ffffffffffffffffffffffffffffffffffffffff166389e7995f6040518163ffffffff1660e01b8152600401602060405180830381865afa1580156101a0573d5f803e3d5ffd5b505050506040513d601f19601f820116820180604052508101906101c49190610823565b6104de565b61025d5f8054906101000a900473ffffffffffffffffffffffffffffffffffffffff1673ffffffffffffffffffffffffffffffffffffffff1663c618a1e46040518163ffffffff1660e01b8152600401602060405180830381865afa158015610234573d5f803e3d5ffd5b505050506040513d601f19601f820116820180604052508101906102589190610823565b6104de565b6102f360015f9054906101000a900473ffffffffffffffffffffffffffffffffffffffff1673ffffffffffffffffffffffffffffffffffffffff166389e7995f6040518163ffffffff1660e01b8152600401602060405180830381865afa1580156102ca573d5f803e3d5ffd5b505050506040513d601f19601f820116820180604052508101906102ee9190610823565b6104de565b61038960015f9054906101000a900473ffffffffffffffffffffffffffffffffffffffff1673ffffffffffffffffffffffffffffffffffffffff1663c618a1e46040518163ffffffff1660e01b8152600401602060405180830381865afa158015610360573d5f803e3d5ffd5b505050506040513d601f19601f820116820180604052508101906103849190610823565b6104de565b61041f60025f9054906101000a900473ffffffffffffffffffffffffffffffffffffffff1673ffffffffffffffffffffffffffffffffffffffff166389e7995f6040518163ffffffff1660e01b8152600401602060405180830381865afa1580156103f6573d5f803e3d5ffd5b505050506040513d601f19601f8201168201806040525081019061041a9190610823565b6104de565b6104b560025f9054906101000a900473ffffffffffffffffffffffffffffffffffffffff1673ffffffffffffffffffffffffffffffffffffffff1663c618a1e46040518163ffffffff1660e01b8152600401602060405180830381865afa15801561048c573d5f803e3d5ffd5b505050506040513d601f19601f820116820180604052508101906104b09190610823565b6104de565b6040516020016104ca969594939291906109fa565b604051602081830303815290604052905090565b60605f8203610524576040518060400160405280600181526020017f30000000000000000000000000000000000000000000000000000000000000008152509050610652565b5f8290505f5b5f821461055357808061053c90610ad6565b915050600a8261054c9190610b4a565b915061052a565b5f8167ffffffffffffffff81111561056e5761056d610b7a565b5b6040519080825280601f01601f1916602001820160405280156105a05781602001600182028036833780820191505090505b5090505f8290505b5f861461064a576001816105bc9190610ba7565b90505f600a80886105cd9190610b4a565b6105d79190610bda565b876105e29190610ba7565b60306105ee9190610c27565b90508060f81b83838151811061060757610606610c5b565b5b60200101907effffffffffffffffffffffffffffffffffffffffffffffffffffffffffffff191690815f1a905350600a876106429190610b4a565b9650506105a8565b819450505050505b919050565b5f73ffffffffffffffffffffffffffffffffffffffff82169050919050565b5f819050919050565b5f61069961069461068f84610657565b610676565b610657565b9050919050565b5f6106aa8261067f565b9050919050565b5f6106bb826106a0565b9050919050565b6106cb816106b1565b82525050565b5f6020820190506106e45f8301846106c2565b92915050565b5f6106f4826106a0565b9050919050565b610704816106ea565b82525050565b5f60208201905061071d5f8301846106fb565b92915050565b5f61072d826106a0565b9050919050565b61073d81610723565b82525050565b5f6020820190506107565f830184610734565b92915050565b5f81519050919050565b5f82825260208201905092915050565b8281835e5f83830152505050565b5f601f19601f8301169050919050565b5f61079e8261075c565b6107a88185610766565b93506107b8818560208601610776565b6107c181610784565b840191505092915050565b5f6020820190508181035f8301526107e48184610794565b905092915050565b5f80fd5b5f819050919050565b610802816107f0565b811461080c575f80fd5b50565b5f8151905061081d816107f9565b92915050565b5f60208284031215610838576108376107ec565b5b5f6108458482850161080f565b91505092915050565b5f81905092915050565b7f437562653a20537572666163652041726561203d2000000000000000000000005f82015250565b5f61088c60158361084e565b915061089782610858565b601582019050919050565b5f6108ac8261075c565b6108b6818561084e565b93506108c6818560208601610776565b80840191505092915050565b7f2c20566f6c756d65203d200000000000000000000000000000000000000000005f82015250565b5f610906600b8361084e565b9150610911826108d2565b600b82019050919050565b7f0a000000000000000000000000000000000000000000000000000000000000005f82015250565b5f61095060018361084e565b915061095b8261091c565b600182019050919050565b7f43796c696e6465723a20537572666163652041726561203d20000000000000005f82015250565b5f61099a60198361084e565b91506109a582610966565b601982019050919050565b7f436f6e653a20537572666163652041726561203d2000000000000000000000005f82015250565b5f6109e460158361084e565b91506109ef826109b0565b601582019050919050565b5f610a0482610880565b9150610a1082896108a2565b9150610a1b826108fa565b9150610a2782886108a2565b9150610a3282610944565b9150610a3d8261098e565b9150610a4982876108a2565b9150610a54826108fa565b9150610a6082866108a2565b9150610a6b82610944565b9150610a76826109d8565b9150610a8282856108a2565b9150610a8d826108fa565b9150610a9982846108a2565b9150819050979650505050505050565b7f4e487b71000000000000000000000000000000000000000000000000000000005f52601160045260245ffd5b5f610ae0826107f0565b91507fffffffffffffffffffffffffffffffffffffffffffffffffffffffffffffffff8203610b1257610b11610aa9565b5b600182019050919050565b7f4e487b71000000000000000000000000000000000000000000000000000000005f52601260045260245ffd5b5f610b54826107f0565b9150610b5f836107f0565b925082610b6f57610b6e610b1d565b5b828204905092915050565b7f4e487b71000000000000000000000000000000000000000000000000000000005f52604160045260245ffd5b5f610bb1826107f0565b9150610bbc836107f0565b9250828203905081811115610bd457610bd3610aa9565b5b92915050565b5f610be4826107f0565b9150610bef836107f0565b9250828202610bfd816107f0565b91508282048414831517610c1457610c13610aa9565b5b5092915050565b5f60ff82169050919050565b5f610c3182610c1b565b9150610c3c83610c1b565b9250828201905060ff811115610c5557610c54610aa9565b5b92915050565b7f4e487b71000000000000000000000000000000000000000000000000000000005f52603260045260245ffdfea264697066735822122092bedfcb1cf7b36194ffc43a2fe50805d403951170fa4857768b910f39e87f2e64736f6c634300081a00336080604052348015600e575f80fd5b506040516102553803806102558339818101604052810190602e9190606b565b805f81905550506091565b5f80fd5b5f819050919050565b604d81603d565b81146056575f80fd5b50565b5f815190506065816046565b92915050565b5f60208284031215607d57607c6039565b5b5f6088848285016059565b91505092915050565b6101b78061009e5f395ff3fe608060405234801561000f575f80fd5b506004361061003f575f3560e01c80638475c0281461004357806389e7995f14610061578063c618a1e41461007f575b5f80fd5b61004b61009d565b60405161005891906100fa565b60405180910390f35b6100696100a2565b60405161007691906100fa565b60405180910390f35b6100876100c2565b60405161009491906100fa565b60405180910390f35b5f5481565b5f80545f5460066100b39190610140565b6100bd9190610140565b905090565b5f80545f545f546100d39190610140565b6100dd9190610140565b905090565b5f819050919050565b6100f4816100e2565b82525050565b5f60208201905061010d5f8301846100eb565b92915050565b7f4e487b71000000000000000000000000000000000000000000000000000000005f52601160045260245ffd5b5f61014a826100e2565b9150610155836100e2565b9250828202610163816100e2565b9150828204841483151761017a57610179610113565b5b509291505056fea2646970667358221220023439ff610892640266ec4cb218482124d468c3a16b46e2ac5032243433342264736f6c634300081a00336080604052348015600e575f80fd5b506040516103923803806103928339818101604052810190602e91906073565b815f8190555080600181905550505060aa565b5f80fd5b5f819050919050565b6055816045565b8114605e575f80fd5b50565b5f81519050606d81604e565b92915050565b5f806040838503121560865760856041565b5b5f6091858286016061565b925050602060a0858286016061565b9150509250929050565b6102db806100b75f395ff3fe608060405234801561000f575f80fd5b506004361061004a575f3560e01c80630ef267431461004e578063217f43531461006c57806389e7995f1461008a578063c618a1e4146100a8575b5f80fd5b6100566100c6565b604051610063919061018e565b60405180910390f35b6100746100cc565b604051610081919061018e565b60405180910390f35b6100926100d1565b60405161009f919061018e565b60405180910390f35b6100b061013c565b6040516100bd919061018e565b60405180910390f35b60015481565b5f5481565b5f60645f545f5461013a60026100e791906101d4565b6100f191906101d4565b6100fb91906101d4565b6001545f5461013a600261010f91906101d4565b61011991906101d4565b61012391906101d4565b61012d9190610215565b6101379190610275565b905090565b5f60646001545f545f5461013a61015391906101d4565b61015d91906101d4565b61016791906101d4565b6101719190610275565b905090565b5f819050919050565b61018881610176565b82525050565b5f6020820190506101a15f83018461017f565b92915050565b7f4e487b71000000000000000000000000000000000000000000000000000000005f52601160045260245ffd5b5f6101de82610176565b91506101e983610176565b92508282026101f781610176565b9150828204841483151761020e5761020d6101a7565b5b5092915050565b5f61021f82610176565b915061022a83610176565b9250828201905080821115610242576102416101a7565b5b92915050565b7f4e487b71000000000000000000000000000000000000000000000000000000005f52601260045260245ffd5b5f61027f82610176565b915061028a83610176565b92508261029a57610299610248565b5b82820490509291505056fea2646970667358221220388ce16759071e15e361cb8e3560b2deb6667d19a9c235de80fc9c6b4a55907f64736f6c634300081a00336080604052348015600e575f80fd5b5060405161040a38038061040a8339818101604052810190602e91906073565b815f8190555080600181905550505060aa565b5f80fd5b5f819050919050565b6055816045565b8114605e575f80fd5b50565b5f81519050606d81604e565b92915050565b5f806040838503121560865760856041565b5b5f6091858286016061565b925050602060a0858286016061565b9150509250929050565b610353806100b75f395ff3fe608060405234801561000f575f80fd5b506004361061004a575f3560e01c80630ef267431461004e578063217f43531461006c57806389e7995f1461008a578063c618a1e4146100a8575b5f80fd5b6100566100c6565b6040516100639190610206565b60405180910390f35b6100746100cc565b6040516100819190610206565b60405180910390f35b6100926100d1565b60405161009f9190610206565b60405180910390f35b6100b0610142565b6040516100bd9190610206565b60405180910390f35b60015481565b5f5481565b5f806001546001546100e3919061024c565b5f545f546100f1919061024c565b6100fb919061028d565b90505f6101078261017d565b90506064815f54610118919061028d565b5f5461013a610127919061024c565b610131919061024c565b61013b91906102ed565b9250505090565b5f61012c6001545f545f5461013a61015a919061024c565b610164919061024c565b61016e919061024c565b61017891906102ed565b905090565b5f80820361018d575f90506101e9565b5f600260018461019d919061028d565b6101a791906102ed565b90505f8390505b808210156101e35781905060028283866101c891906102ed565b6101d2919061028d565b6101dc91906102ed565b91506101ae565b80925050505b919050565b5f819050919050565b610200816101ee565b82525050565b5f6020820190506102195f8301846101f7565b92915050565b7f4e487b71000000000000000000000000000000000000000000000000000000005f52601160045260245ffd5b5f610256826101ee565b9150610261836101ee565b925082820261026f816101ee565b915082820484148315176102865761028561021f565b5b5092915050565b5f610297826101ee565b91506102a2836101ee565b92508282019050808211156102ba576102b961021f565b5b92915050565b7f4e487b71000000000000000000000000000000000000000000000000000000005f52601260045260245ffd5b5f6102f7826101ee565b9150610302836101ee565b925082610312576103116102c0565b5b82820490509291505056fea26469706673582212205d6607cf88da1a95a0a41d3d632ea1d8c1a66c82dc1b01ab17d800cc7c39128264736f6c634300081a0033",
			"opcodes": "PUSH1 0x80 PUSH1 0x40 MSTORE CALLVALUE DUP1 ISZERO PUSH2 0xF JUMPI PUSH0 DUP1 REVERT JUMPDEST POP PUSH1 0x40 MLOAD PUSH2 0x196E CODESIZE SUB DUP1 PUSH2 0x196E DUP4 CODECOPY DUP2 DUP2 ADD PUSH1 0x40 MSTORE DUP2 ADD SWAP1 PUSH2 0x31 SWAP2 SWAP1 PUSH2 0x1EC JUMP JUMPDEST DUP5 PUSH1 0x40 MLOAD PUSH2 0x3E SWAP1 PUSH2 0x18E JUMP JUMPDEST PUSH2 0x48 SWAP2 SWAP1 PUSH2 0x272 JUMP JUMPDEST PUSH1 0x40 MLOAD DUP1 SWAP2 SUB SWAP1 PUSH0 CREATE DUP1 ISZERO DUP1 ISZERO PUSH2 0x61 JUMPI RETURNDATASIZE PUSH0 DUP1 RETURNDATACOPY RETURNDATASIZE PUSH0 REVERT JUMPDEST POP PUSH0 DUP1 PUSH2 0x100 EXP DUP2 SLOAD DUP2 PUSH20 0xFFFFFFFFFFFFFFFFFFFFFFFFFFFFFFFFFFFFFFFF MUL NOT AND SWAP1 DUP4 PUSH20 0xFFFFFFFFFFFFFFFFFFFFFFFFFFFFFFFFFFFFFFFF AND MUL OR SWAP1 SSTORE POP DUP4 DUP4 PUSH1 0x40 MLOAD PUSH2 0xAE SWAP1 PUSH2 0x19B JUMP JUMPDEST PUSH2 0xB9 SWAP3 SWAP2 SWAP1 PUSH2 0x28B JUMP JUMPDEST PUSH1 0x40 MLOAD DUP1 SWAP2 SUB SWAP1 PUSH0 CREATE DUP1 ISZERO DUP1 ISZERO PUSH2 0xD2 JUMPI RETURNDATASIZE PUSH0 DUP1 RETURNDATACOPY RETURNDATASIZE PUSH0 REVERT JUMPDEST POP PUSH1 0x1 PUSH0 PUSH2 0x100 EXP DUP2 SLOAD DUP2 PUSH20 0xFFFFFFFFFFFFFFFFFFFFFFFFFFFFFFFFFFFFFFFF MUL NOT AND SWAP1 DUP4 PUSH20 0xFFFFFFFFFFFFFFFFFFFFFFFFFFFFFFFFFFFFFFFF AND MUL OR SWAP1 SSTORE POP DUP2 DUP2 PUSH1 0x40 MLOAD PUSH2 0x120 SWAP1 PUSH2 0x1A8 JUMP JUMPDEST PUSH2 0x12B SWAP3 SWAP2 SWAP1 PUSH2 0x28B JUMP JUMPDEST PUSH1 0x40 MLOAD DUP1 SWAP2 SUB SWAP1 PUSH0 CREATE DUP1 ISZERO DUP1 ISZERO PUSH2 0x144 JUMPI RETURNDATASIZE PUSH0 DUP1 RETURNDATACOPY RETURNDATASIZE PUSH0 REVERT JUMPDEST POP PUSH1 0x2 PUSH0 PUSH2 0x100 EXP DUP2 SLOAD DUP2 PUSH20 0xFFFFFFFFFFFFFFFFFFFFFFFFFFFFFFFFFFFFFFFF MUL NOT AND SWAP1 DUP4 PUSH20 0xFFFFFFFFFFFFFFFFFFFFFFFFFFFFFFFFFFFFFFFF AND MUL OR SWAP1 SSTORE POP POP POP POP POP POP PUSH2 0x2B2 JUMP JUMPDEST PUSH2 0x255 DUP1 PUSH2 0xF7D DUP4 CODECOPY ADD SWAP1 JUMP JUMPDEST PUSH2 0x392 DUP1 PUSH2 0x11D2 DUP4 CODECOPY ADD SWAP1 JUMP JUMPDEST PUSH2 0x40A DUP1 PUSH2 0x1564 DUP4 CODECOPY ADD SWAP1 JUMP JUMPDEST PUSH0 DUP1 REVERT JUMPDEST PUSH0 DUP2 SWAP1 POP SWAP2 SWAP1 POP JUMP JUMPDEST PUSH2 0x1CB DUP2 PUSH2 0x1B9 JUMP JUMPDEST DUP2 EQ PUSH2 0x1D5 JUMPI PUSH0 DUP1 REVERT JUMPDEST POP JUMP JUMPDEST PUSH0 DUP2 MLOAD SWAP1 POP PUSH2 0x1E6 DUP2 PUSH2 0x1C2 JUMP JUMPDEST SWAP3 SWAP2 POP POP JUMP JUMPDEST PUSH0 DUP1 PUSH0 DUP1 PUSH0 PUSH1 0xA0 DUP7 DUP9 SUB SLT ISZERO PUSH2 0x205 JUMPI PUSH2 0x204 PUSH2 0x1B5 JUMP JUMPDEST JUMPDEST PUSH0 PUSH2 0x212 DUP9 DUP3 DUP10 ADD PUSH2 0x1D8 JUMP JUMPDEST SWAP6 POP POP PUSH1 0x20 PUSH2 0x223 DUP9 DUP3 DUP10 ADD PUSH2 0x1D8 JUMP JUMPDEST SWAP5 POP POP PUSH1 0x40 PUSH2 0x234 DUP9 DUP3 DUP10 ADD PUSH2 0x1D8 JUMP JUMPDEST SWAP4 POP POP PUSH1 0x60 PUSH2 0x245 DUP9 DUP3 DUP10 ADD PUSH2 0x1D8 JUMP JUMPDEST SWAP3 POP POP PUSH1 0x80 PUSH2 0x256 DUP9 DUP3 DUP10 ADD PUSH2 0x1D8 JUMP JUMPDEST SWAP2 POP POP SWAP3 SWAP6 POP SWAP3 SWAP6 SWAP1 SWAP4 POP JUMP JUMPDEST PUSH2 0x26C DUP2 PUSH2 0x1B9 JUMP JUMPDEST DUP3 MSTORE POP POP JUMP JUMPDEST PUSH0 PUSH1 0x20 DUP3 ADD SWAP1 POP PUSH2 0x285 PUSH0 DUP4 ADD DUP5 PUSH2 0x263 JUMP JUMPDEST SWAP3 SWAP2 POP POP JUMP JUMPDEST PUSH0 PUSH1 0x40 DUP3 ADD SWAP1 POP PUSH2 0x29E PUSH0 DUP4 ADD DUP6 PUSH2 0x263 JUMP JUMPDEST PUSH2 0x2AB PUSH1 0x20 DUP4 ADD DUP5 PUSH2 0x263 JUMP JUMPDEST SWAP4 SWAP3 POP POP POP JUMP JUMPDEST PUSH2 0xCBE DUP1 PUSH2 0x2BF PUSH0 CODECOPY PUSH0 RETURN INVALID PUSH1 0x80 PUSH1 0x40 MSTORE CALLVALUE DUP1 ISZERO PUSH2 0xF JUMPI PUSH0 DUP1 REVERT JUMPDEST POP PUSH1 0x4 CALLDATASIZE LT PUSH2 0x4A JUMPI PUSH0 CALLDATALOAD PUSH1 0xE0 SHR DUP1 PUSH4 0x5C771211 EQ PUSH2 0x4E JUMPI DUP1 PUSH4 0xA312363A EQ PUSH2 0x6C JUMPI DUP1 PUSH4 0xA35E7D29 EQ PUSH2 0x8A JUMPI DUP1 PUSH4 0xBECF77FE EQ PUSH2 0xA8 JUMPI JUMPDEST PUSH0 DUP1 REVERT JUMPDEST PUSH2 0x56 PUSH2 0xC6 JUMP JUMPDEST PUSH1 0x40 MLOAD PUSH2 0x63 SWAP2 SWAP1 PUSH2 0x6D1 JUMP JUMPDEST PUSH1 0x40 MLOAD DUP1 SWAP2 SUB SWAP1 RETURN JUMPDEST PUSH2 0x74 PUSH2 0xE9 JUMP JUMPDEST PUSH1 0x40 MLOAD PUSH2 0x81 SWAP2 SWAP1 PUSH2 0x70A JUMP JUMPDEST PUSH1 0x40 MLOAD DUP1 SWAP2 SUB SWAP1 RETURN JUMPDEST PUSH2 0x92 PUSH2 0x10E JUMP JUMPDEST PUSH1 0x40 MLOAD PUSH2 0x9F SWAP2 SWAP1 PUSH2 0x743 JUMP JUMPDEST PUSH1 0x40 MLOAD DUP1 SWAP2 SUB SWAP1 RETURN JUMPDEST PUSH2 0xB0 PUSH2 0x133 JUMP JUMPDEST PUSH1 0x40 MLOAD PUSH2 0xBD SWAP2 SWAP1 PUSH2 0x7CC JUMP JUMPDEST PUSH1 0x40 MLOAD DUP1 SWAP2 SUB SWAP1 RETURN JUMPDEST PUSH0 DUP1 SLOAD SWAP1 PUSH2 0x100 EXP SWAP1 DIV PUSH20 0xFFFFFFFFFFFFFFFFFFFFFFFFFFFFFFFFFFFFFFFF AND DUP2 JUMP JUMPDEST PUSH1 0x2 PUSH0 SWAP1 SLOAD SWAP1 PUSH2 0x100 EXP SWAP1 DIV PUSH20 0xFFFFFFFFFFFFFFFFFFFFFFFFFFFFFFFFFFFFFFFF AND DUP2 JUMP JUMPDEST PUSH1 0x1 PUSH0 SWAP1 SLOAD SWAP1 PUSH2 0x100 EXP SWAP1 DIV PUSH20 0xFFFFFFFFFFFFFFFFFFFFFFFFFFFFFFFFFFFFFFFF AND DUP2 JUMP JUMPDEST PUSH1 0x60 PUSH2 0x1C9 PUSH0 DUP1 SLOAD SWAP1 PUSH2 0x100 EXP SWAP1 DIV PUSH20 0xFFFFFFFFFFFFFFFFFFFFFFFFFFFFFFFFFFFFFFFF AND PUSH20 0xFFFFFFFFFFFFFFFFFFFFFFFFFFFFFFFFFFFFFFFF AND PUSH4 0x89E7995F PUSH1 0x40 MLOAD DUP2 PUSH4 0xFFFFFFFF AND PUSH1 0xE0 SHL DUP2 MSTORE PUSH1 0x4 ADD PUSH1 0x20 PUSH1 0x40 MLOAD DUP1 DUP4 SUB DUP2 DUP7 GAS STATICCALL ISZERO DUP1 ISZERO PUSH2 0x1A0 JUMPI RETURNDATASIZE PUSH0 DUP1 RETURNDATACOPY RETURNDATASIZE PUSH0 REVERT JUMPDEST POP POP POP POP PUSH1 0x40 MLOAD RETURNDATASIZE PUSH1 0x1F NOT PUSH1 0x1F DUP3 ADD AND DUP3 ADD DUP1 PUSH1 0x40 MSTORE POP DUP2 ADD SWAP1 PUSH2 0x1C4 SWAP2 SWAP1 PUSH2 0x823 JUMP JUMPDEST PUSH2 0x4DE JUMP JUMPDEST PUSH2 0x25D PUSH0 DUP1 SLOAD SWAP1 PUSH2 0x100 EXP SWAP1 DIV PUSH20 0xFFFFFFFFFFFFFFFFFFFFFFFFFFFFFFFFFFFFFFFF AND PUSH20 0xFFFFFFFFFFFFFFFFFFFFFFFFFFFFFFFFFFFFFFFF AND PUSH4 0xC618A1E4 PUSH1 0x40 MLOAD DUP2 PUSH4 0xFFFFFFFF AND PUSH1 0xE0 SHL DUP2 MSTORE PUSH1 0x4 ADD PUSH1 0x20 PUSH1 0x40 MLOAD DUP1 DUP4 SUB DUP2 DUP7 GAS STATICCALL ISZERO DUP1 ISZERO PUSH2 0x234 JUMPI RETURNDATASIZE PUSH0 DUP1 RETURNDATACOPY RETURNDATASIZE PUSH0 REVERT JUMPDEST POP POP POP POP PUSH1 0x40 MLOAD RETURNDATASIZE PUSH1 0x1F NOT PUSH1 0x1F DUP3 ADD AND DUP3 ADD DUP1 PUSH1 0x40 MSTORE POP DUP2 ADD SWAP1 PUSH2 0x258 SWAP2 SWAP1 PUSH2 0x823 JUMP JUMPDEST PUSH2 0x4DE JUMP JUMPDEST PUSH2 0x2F3 PUSH1 0x1 PUSH0 SWAP1 SLOAD SWAP1 PUSH2 0x100 EXP SWAP1 DIV PUSH20 0xFFFFFFFFFFFFFFFFFFFFFFFFFFFFFFFFFFFFFFFF AND PUSH20 0xFFFFFFFFFFFFFFFFFFFFFFFFFFFFFFFFFFFFFFFF AND PUSH4 0x89E7995F PUSH1 0x40 MLOAD DUP2 PUSH4 0xFFFFFFFF AND PUSH1 0xE0 SHL DUP2 MSTORE PUSH1 0x4 ADD PUSH1 0x20 PUSH1 0x40 MLOAD DUP1 DUP4 SUB DUP2 DUP7 GAS STATICCALL ISZERO DUP1 ISZERO PUSH2 0x2CA JUMPI RETURNDATASIZE PUSH0 DUP1 RETURNDATACOPY RETURNDATASIZE PUSH0 REVERT JUMPDEST POP POP POP POP PUSH1 0x40 MLOAD RETURNDATASIZE PUSH1 0x1F NOT PUSH1 0x1F DUP3 ADD AND DUP3 ADD DUP1 PUSH1 0x40 MSTORE POP DUP2 ADD SWAP1 PUSH2 0x2EE SWAP2 SWAP1 PUSH2 0x823 JUMP JUMPDEST PUSH2 0x4DE JUMP JUMPDEST PUSH2 0x389 PUSH1 0x1 PUSH0 SWAP1 SLOAD SWAP1 PUSH2 0x100 EXP SWAP1 DIV PUSH20 0xFFFFFFFFFFFFFFFFFFFFFFFFFFFFFFFFFFFFFFFF AND PUSH20 0xFFFFFFFFFFFFFFFFFFFFFFFFFFFFFFFFFFFFFFFF AND PUSH4 0xC618A1E4 PUSH1 0x40 MLOAD DUP2 PUSH4 0xFFFFFFFF AND PUSH1 0xE0 SHL DUP2 MSTORE PUSH1 0x4 ADD PUSH1 0x20 PUSH1 0x40 MLOAD DUP1 DUP4 SUB DUP2 DUP7 GAS STATICCALL ISZERO DUP1 ISZERO PUSH2 0x360 JUMPI RETURNDATASIZE PUSH0 DUP1 RETURNDATACOPY RETURNDATASIZE PUSH0 REVERT JUMPDEST POP POP POP POP PUSH1 0x40 MLOAD RETURNDATASIZE PUSH1 0x1F NOT PUSH1 0x1F DUP3 ADD AND DUP3 ADD DUP1 PUSH1 0x40 MSTORE POP DUP2 ADD SWAP1 PUSH2 0x384 SWAP2 SWAP1 PUSH2 0x823 JUMP JUMPDEST PUSH2 0x4DE JUMP JUMPDEST PUSH2 0x41F PUSH1 0x2 PUSH0 SWAP1 SLOAD SWAP1 PUSH2 0x100 EXP SWAP1 DIV PUSH20 0xFFFFFFFFFFFFFFFFFFFFFFFFFFFFFFFFFFFFFFFF AND PUSH20 0xFFFFFFFFFFFFFFFFFFFFFFFFFFFFFFFFFFFFFFFF AND PUSH4 0x89E7995F PUSH1 0x40 MLOAD DUP2 PUSH4 0xFFFFFFFF AND PUSH1 0xE0 SHL DUP2 MSTORE PUSH1 0x4 ADD PUSH1 0x20 PUSH1 0x40 MLOAD DUP1 DUP4 SUB DUP2 DUP7 GAS STATICCALL ISZERO DUP1 ISZERO PUSH2 0x3F6 JUMPI RETURNDATASIZE PUSH0 DUP1 RETURNDATACOPY RETURNDATASIZE PUSH0 REVERT JUMPDEST POP POP POP POP PUSH1 0x40 MLOAD RETURNDATASIZE PUSH1 0x1F NOT PUSH1 0x1F DUP3 ADD AND DUP3 ADD DUP1 PUSH1 0x40 MSTORE POP DUP2 ADD SWAP1 PUSH2 0x41A SWAP2 SWAP1 PUSH2 0x823 JUMP JUMPDEST PUSH2 0x4DE JUMP JUMPDEST PUSH2 0x4B5 PUSH1 0x2 PUSH0 SWAP1 SLOAD SWAP1 PUSH2 0x100 EXP SWAP1 DIV PUSH20 0xFFFFFFFFFFFFFFFFFFFFFFFFFFFFFFFFFFFFFFFF AND PUSH20 0xFFFFFFFFFFFFFFFFFFFFFFFFFFFFFFFFFFFFFFFF AND PUSH4 0xC618A1E4 PUSH1 0x40 MLOAD DUP2 PUSH4 0xFFFFFFFF AND PUSH1 0xE0 SHL DUP2 MSTORE PUSH1 0x4 ADD PUSH1 0x20 PUSH1 0x40 MLOAD DUP1 DUP4 SUB DUP2 DUP7 GAS STATICCALL ISZERO DUP1 ISZERO PUSH2 0x48C JUMPI RETURNDATASIZE PUSH0 DUP1 RETURNDATACOPY RETURNDATASIZE PUSH0 REVERT JUMPDEST POP POP POP POP PUSH1 0x40 MLOAD RETURNDATASIZE PUSH1 0x1F NOT PUSH1 0x1F DUP3 ADD AND DUP3 ADD DUP1 PUSH1 0x40 MSTORE POP DUP2 ADD SWAP1 PUSH2 0x4B0 SWAP2 SWAP1 PUSH2 0x823 JUMP JUMPDEST PUSH2 0x4DE JUMP JUMPDEST PUSH1 0x40 MLOAD PUSH1 0x20 ADD PUSH2 0x4CA SWAP7 SWAP6 SWAP5 SWAP4 SWAP3 SWAP2 SWAP1 PUSH2 0x9FA JUMP JUMPDEST PUSH1 0x40 MLOAD PUSH1 0x20 DUP2 DUP4 SUB SUB DUP2 MSTORE SWAP1 PUSH1 0x40 MSTORE SWAP1 POP SWAP1 JUMP JUMPDEST PUSH1 0x60 PUSH0 DUP3 SUB PUSH2 0x524 JUMPI PUSH1 0x40 MLOAD DUP1 PUSH1 0x40 ADD PUSH1 0x40 MSTORE DUP1 PUSH1 0x1 DUP2 MSTORE PUSH1 0x20 ADD PUSH32 0x3000000000000000000000000000000000000000000000000000000000000000 DUP2 MSTORE POP SWAP1 POP PUSH2 0x652 JUMP JUMPDEST PUSH0 DUP3 SWAP1 POP PUSH0 JUMPDEST PUSH0 DUP3 EQ PUSH2 0x553 JUMPI DUP1 DUP1 PUSH2 0x53C SWAP1 PUSH2 0xAD6 JUMP JUMPDEST SWAP2 POP POP PUSH1 0xA DUP3 PUSH2 0x54C SWAP2 SWAP1 PUSH2 0xB4A JUMP JUMPDEST SWAP2 POP PUSH2 0x52A JUMP JUMPDEST PUSH0 DUP2 PUSH8 0xFFFFFFFFFFFFFFFF DUP2 GT ISZERO PUSH2 0x56E JUMPI PUSH2 0x56D PUSH2 0xB7A JUMP JUMPDEST JUMPDEST PUSH1 0x40 MLOAD SWAP1 DUP1 DUP3 MSTORE DUP1 PUSH1 0x1F ADD PUSH1 0x1F NOT AND PUSH1 0x20 ADD DUP3 ADD PUSH1 0x40 MSTORE DUP1 ISZERO PUSH2 0x5A0 JUMPI DUP2 PUSH1 0x20 ADD PUSH1 0x1 DUP3 MUL DUP1 CALLDATASIZE DUP4 CALLDATACOPY DUP1 DUP3 ADD SWAP2 POP POP SWAP1 POP JUMPDEST POP SWAP1 POP PUSH0 DUP3 SWAP1 POP JUMPDEST PUSH0 DUP7 EQ PUSH2 0x64A JUMPI PUSH1 0x1 DUP2 PUSH2 0x5BC SWAP2 SWAP1 PUSH2 0xBA7 JUMP JUMPDEST SWAP1 POP PUSH0 PUSH1 0xA DUP1 DUP9 PUSH2 0x5CD SWAP2 SWAP1 PUSH2 0xB4A JUMP JUMPDEST PUSH2 0x5D7 SWAP2 SWAP1 PUSH2 0xBDA JUMP JUMPDEST DUP8 PUSH2 0x5E2 SWAP2 SWAP1 PUSH2 0xBA7 JUMP JUMPDEST PUSH1 0x30 PUSH2 0x5EE SWAP2 SWAP1 PUSH2 0xC27 JUMP JUMPDEST SWAP1 POP DUP1 PUSH1 0xF8 SHL DUP4 DUP4 DUP2 MLOAD DUP2 LT PUSH2 0x607 JUMPI PUSH2 0x606 PUSH2 0xC5B JUMP JUMPDEST JUMPDEST PUSH1 0x20 ADD ADD SWAP1 PUSH31 0xFFFFFFFFFFFFFFFFFFFFFFFFFFFFFFFFFFFFFFFFFFFFFFFFFFFFFFFFFFFFFF NOT AND SWAP1 DUP2 PUSH0 BYTE SWAP1 MSTORE8 POP PUSH1 0xA DUP8 PUSH2 0x642 SWAP2 SWAP1 PUSH2 0xB4A JUMP JUMPDEST SWAP7 POP POP PUSH2 0x5A8 JUMP JUMPDEST DUP2 SWAP5 POP POP POP POP POP JUMPDEST SWAP2 SWAP1 POP JUMP JUMPDEST PUSH0 PUSH20 0xFFFFFFFFFFFFFFFFFFFFFFFFFFFFFFFFFFFFFFFF DUP3 AND SWAP1 POP SWAP2 SWAP1 POP JUMP JUMPDEST PUSH0 DUP2 SWAP1 POP SWAP2 SWAP1 POP JUMP JUMPDEST PUSH0 PUSH2 0x699 PUSH2 0x694 PUSH2 0x68F DUP5 PUSH2 0x657 JUMP JUMPDEST PUSH2 0x676 JUMP JUMPDEST PUSH2 0x657 JUMP JUMPDEST SWAP1 POP SWAP2 SWAP1 POP JUMP JUMPDEST PUSH0 PUSH2 0x6AA DUP3 PUSH2 0x67F JUMP JUMPDEST SWAP1 POP SWAP2 SWAP1 POP JUMP JUMPDEST PUSH0 PUSH2 0x6BB DUP3 PUSH2 0x6A0 JUMP JUMPDEST SWAP1 POP SWAP2 SWAP1 POP JUMP JUMPDEST PUSH2 0x6CB DUP2 PUSH2 0x6B1 JUMP JUMPDEST DUP3 MSTORE POP POP JUMP JUMPDEST PUSH0 PUSH1 0x20 DUP3 ADD SWAP1 POP PUSH2 0x6E4 PUSH0 DUP4 ADD DUP5 PUSH2 0x6C2 JUMP JUMPDEST SWAP3 SWAP2 POP POP JUMP JUMPDEST PUSH0 PUSH2 0x6F4 DUP3 PUSH2 0x6A0 JUMP JUMPDEST SWAP1 POP SWAP2 SWAP1 POP JUMP JUMPDEST PUSH2 0x704 DUP2 PUSH2 0x6EA JUMP JUMPDEST DUP3 MSTORE POP POP JUMP JUMPDEST PUSH0 PUSH1 0x20 DUP3 ADD SWAP1 POP PUSH2 0x71D PUSH0 DUP4 ADD DUP5 PUSH2 0x6FB JUMP JUMPDEST SWAP3 SWAP2 POP POP JUMP JUMPDEST PUSH0 PUSH2 0x72D DUP3 PUSH2 0x6A0 JUMP JUMPDEST SWAP1 POP SWAP2 SWAP1 POP JUMP JUMPDEST PUSH2 0x73D DUP2 PUSH2 0x723 JUMP JUMPDEST DUP3 MSTORE POP POP JUMP JUMPDEST PUSH0 PUSH1 0x20 DUP3 ADD SWAP1 POP PUSH2 0x756 PUSH0 DUP4 ADD DUP5 PUSH2 0x734 JUMP JUMPDEST SWAP3 SWAP2 POP POP JUMP JUMPDEST PUSH0 DUP2 MLOAD SWAP1 POP SWAP2 SWAP1 POP JUMP JUMPDEST PUSH0 DUP3 DUP3 MSTORE PUSH1 0x20 DUP3 ADD SWAP1 POP SWAP3 SWAP2 POP POP JUMP JUMPDEST DUP3 DUP2 DUP4 MCOPY PUSH0 DUP4 DUP4 ADD MSTORE POP POP POP JUMP JUMPDEST PUSH0 PUSH1 0x1F NOT PUSH1 0x1F DUP4 ADD AND SWAP1 POP SWAP2 SWAP1 POP JUMP JUMPDEST PUSH0 PUSH2 0x79E DUP3 PUSH2 0x75C JUMP JUMPDEST PUSH2 0x7A8 DUP2 DUP6 PUSH2 0x766 JUMP JUMPDEST SWAP4 POP PUSH2 0x7B8 DUP2 DUP6 PUSH1 0x20 DUP7 ADD PUSH2 0x776 JUMP JUMPDEST PUSH2 0x7C1 DUP2 PUSH2 0x784 JUMP JUMPDEST DUP5 ADD SWAP2 POP POP SWAP3 SWAP2 POP POP JUMP JUMPDEST PUSH0 PUSH1 0x20 DUP3 ADD SWAP1 POP DUP2 DUP2 SUB PUSH0 DUP4 ADD MSTORE PUSH2 0x7E4 DUP2 DUP5 PUSH2 0x794 JUMP JUMPDEST SWAP1 POP SWAP3 SWAP2 POP POP JUMP JUMPDEST PUSH0 DUP1 REVERT JUMPDEST PUSH0 DUP2 SWAP1 POP SWAP2 SWAP1 POP JUMP JUMPDEST PUSH2 0x802 DUP2 PUSH2 0x7F0 JUMP JUMPDEST DUP2 EQ PUSH2 0x80C JUMPI PUSH0 DUP1 REVERT JUMPDEST POP JUMP JUMPDEST PUSH0 DUP2 MLOAD SWAP1 POP PUSH2 0x81D DUP2 PUSH2 0x7F9 JUMP JUMPDEST SWAP3 SWAP2 POP POP JUMP JUMPDEST PUSH0 PUSH1 0x20 DUP3 DUP5 SUB SLT ISZERO PUSH2 0x838 JUMPI PUSH2 0x837 PUSH2 0x7EC JUMP JUMPDEST JUMPDEST PUSH0 PUSH2 0x845 DUP5 DUP3 DUP6 ADD PUSH2 0x80F JUMP JUMPDEST SWAP2 POP POP SWAP3 SWAP2 POP POP JUMP JUMPDEST PUSH0 DUP2 SWAP1 POP SWAP3 SWAP2 POP POP JUMP JUMPDEST PUSH32 0x437562653A20537572666163652041726561203D200000000000000000000000 PUSH0 DUP3 ADD MSTORE POP JUMP JUMPDEST PUSH0 PUSH2 0x88C PUSH1 0x15 DUP4 PUSH2 0x84E JUMP JUMPDEST SWAP2 POP PUSH2 0x897 DUP3 PUSH2 0x858 JUMP JUMPDEST PUSH1 0x15 DUP3 ADD SWAP1 POP SWAP2 SWAP1 POP JUMP JUMPDEST PUSH0 PUSH2 0x8AC DUP3 PUSH2 0x75C JUMP JUMPDEST PUSH2 0x8B6 DUP2 DUP6 PUSH2 0x84E JUMP JUMPDEST SWAP4 POP PUSH2 0x8C6 DUP2 DUP6 PUSH1 0x20 DUP7 ADD PUSH2 0x776 JUMP JUMPDEST DUP1 DUP5 ADD SWAP2 POP POP SWAP3 SWAP2 POP POP JUMP JUMPDEST PUSH32 0x2C20566F6C756D65203D20000000000000000000000000000000000000000000 PUSH0 DUP3 ADD MSTORE POP JUMP JUMPDEST PUSH0 PUSH2 0x906 PUSH1 0xB DUP4 PUSH2 0x84E JUMP JUMPDEST SWAP2 POP PUSH2 0x911 DUP3 PUSH2 0x8D2 JUMP JUMPDEST PUSH1 0xB DUP3 ADD SWAP1 POP SWAP2 SWAP1 POP JUMP JUMPDEST PUSH32 0xA00000000000000000000000000000000000000000000000000000000000000 PUSH0 DUP3 ADD MSTORE POP JUMP JUMPDEST PUSH0 PUSH2 0x950 PUSH1 0x1 DUP4 PUSH2 0x84E JUMP JUMPDEST SWAP2 POP PUSH2 0x95B DUP3 PUSH2 0x91C JUMP JUMPDEST PUSH1 0x1 DUP3 ADD SWAP1 POP SWAP2 SWAP1 POP JUMP JUMPDEST PUSH32 0x43796C696E6465723A20537572666163652041726561203D2000000000000000 PUSH0 DUP3 ADD MSTORE POP JUMP JUMPDEST PUSH0 PUSH2 0x99A PUSH1 0x19 DUP4 PUSH2 0x84E JUMP JUMPDEST SWAP2 POP PUSH2 0x9A5 DUP3 PUSH2 0x966 JUMP JUMPDEST PUSH1 0x19 DUP3 ADD SWAP1 POP SWAP2 SWAP1 POP JUMP JUMPDEST PUSH32 0x436F6E653A20537572666163652041726561203D200000000000000000000000 PUSH0 DUP3 ADD MSTORE POP JUMP JUMPDEST PUSH0 PUSH2 0x9E4 PUSH1 0x15 DUP4 PUSH2 0x84E JUMP JUMPDEST SWAP2 POP PUSH2 0x9EF DUP3 PUSH2 0x9B0 JUMP JUMPDEST PUSH1 0x15 DUP3 ADD SWAP1 POP SWAP2 SWAP1 POP JUMP JUMPDEST PUSH0 PUSH2 0xA04 DUP3 PUSH2 0x880 JUMP JUMPDEST SWAP2 POP PUSH2 0xA10 DUP3 DUP10 PUSH2 0x8A2 JUMP JUMPDEST SWAP2 POP PUSH2 0xA1B DUP3 PUSH2 0x8FA JUMP JUMPDEST SWAP2 POP PUSH2 0xA27 DUP3 DUP9 PUSH2 0x8A2 JUMP JUMPDEST SWAP2 POP PUSH2 0xA32 DUP3 PUSH2 0x944 JUMP JUMPDEST SWAP2 POP PUSH2 0xA3D DUP3 PUSH2 0x98E JUMP JUMPDEST SWAP2 POP PUSH2 0xA49 DUP3 DUP8 PUSH2 0x8A2 JUMP JUMPDEST SWAP2 POP PUSH2 0xA54 DUP3 PUSH2 0x8FA JUMP JUMPDEST SWAP2 POP PUSH2 0xA60 DUP3 DUP7 PUSH2 0x8A2 JUMP JUMPDEST SWAP2 POP PUSH2 0xA6B DUP3 PUSH2 0x944 JUMP JUMPDEST SWAP2 POP PUSH2 0xA76 DUP3 PUSH2 0x9D8 JUMP JUMPDEST SWAP2 POP PUSH2 0xA82 DUP3 DUP6 PUSH2 0x8A2 JUMP JUMPDEST SWAP2 POP PUSH2 0xA8D DUP3 PUSH2 0x8FA JUMP JUMPDEST SWAP2 POP PUSH2 0xA99 DUP3 DUP5 PUSH2 0x8A2 JUMP JUMPDEST SWAP2 POP DUP2 SWAP1 POP SWAP8 SWAP7 POP POP POP POP POP POP POP JUMP JUMPDEST PUSH32 0x4E487B7100000000000000000000000000000000000000000000000000000000 PUSH0 MSTORE PUSH1 0x11 PUSH1 0x4 MSTORE PUSH1 0x24 PUSH0 REVERT JUMPDEST PUSH0 PUSH2 0xAE0 DUP3 PUSH2 0x7F0 JUMP JUMPDEST SWAP2 POP PUSH32 0xFFFFFFFFFFFFFFFFFFFFFFFFFFFFFFFFFFFFFFFFFFFFFFFFFFFFFFFFFFFFFFFF DUP3 SUB PUSH2 0xB12 JUMPI PUSH2 0xB11 PUSH2 0xAA9 JUMP JUMPDEST JUMPDEST PUSH1 0x1 DUP3 ADD SWAP1 POP SWAP2 SWAP1 POP JUMP JUMPDEST PUSH32 0x4E487B7100000000000000000000000000000000000000000000000000000000 PUSH0 MSTORE PUSH1 0x12 PUSH1 0x4 MSTORE PUSH1 0x24 PUSH0 REVERT JUMPDEST PUSH0 PUSH2 0xB54 DUP3 PUSH2 0x7F0 JUMP JUMPDEST SWAP2 POP PUSH2 0xB5F DUP4 PUSH2 0x7F0 JUMP JUMPDEST SWAP3 POP DUP3 PUSH2 0xB6F JUMPI PUSH2 0xB6E PUSH2 0xB1D JUMP JUMPDEST JUMPDEST DUP3 DUP3 DIV SWAP1 POP SWAP3 SWAP2 POP POP JUMP JUMPDEST PUSH32 0x4E487B7100000000000000000000000000000000000000000000000000000000 PUSH0 MSTORE PUSH1 0x41 PUSH1 0x4 MSTORE PUSH1 0x24 PUSH0 REVERT JUMPDEST PUSH0 PUSH2 0xBB1 DUP3 PUSH2 0x7F0 JUMP JUMPDEST SWAP2 POP PUSH2 0xBBC DUP4 PUSH2 0x7F0 JUMP JUMPDEST SWAP3 POP DUP3 DUP3 SUB SWAP1 POP DUP2 DUP2 GT ISZERO PUSH2 0xBD4 JUMPI PUSH2 0xBD3 PUSH2 0xAA9 JUMP JUMPDEST JUMPDEST SWAP3 SWAP2 POP POP JUMP JUMPDEST PUSH0 PUSH2 0xBE4 DUP3 PUSH2 0x7F0 JUMP JUMPDEST SWAP2 POP PUSH2 0xBEF DUP4 PUSH2 0x7F0 JUMP JUMPDEST SWAP3 POP DUP3 DUP3 MUL PUSH2 0xBFD DUP2 PUSH2 0x7F0 JUMP JUMPDEST SWAP2 POP DUP3 DUP3 DIV DUP5 EQ DUP4 ISZERO OR PUSH2 0xC14 JUMPI PUSH2 0xC13 PUSH2 0xAA9 JUMP JUMPDEST JUMPDEST POP SWAP3 SWAP2 POP POP JUMP JUMPDEST PUSH0 PUSH1 0xFF DUP3 AND SWAP1 POP SWAP2 SWAP1 POP JUMP JUMPDEST PUSH0 PUSH2 0xC31 DUP3 PUSH2 0xC1B JUMP JUMPDEST SWAP2 POP PUSH2 0xC3C DUP4 PUSH2 0xC1B JUMP JUMPDEST SWAP3 POP DUP3 DUP3 ADD SWAP1 POP PUSH1 0xFF DUP2 GT ISZERO PUSH2 0xC55 JUMPI PUSH2 0xC54 PUSH2 0xAA9 JUMP JUMPDEST JUMPDEST SWAP3 SWAP2 POP POP JUMP JUMPDEST PUSH32 0x4E487B7100000000000000000000000000000000000000000000000000000000 PUSH0 MSTORE PUSH1 0x32 PUSH1 0x4 MSTORE PUSH1 0x24 PUSH0 REVERT INVALID LOG2 PUSH5 0x6970667358 0x22 SLT KECCAK256 SWAP3 0xBE 0xDF 0xCB SHR 0xF7 0xB3 PUSH2 0x94FF 0xC4 GASPRICE 0x2F 0xE5 ADDMOD SDIV 0xD4 SUB SWAP6 GT PUSH17 0xFA4857768B910F39E87F2E64736F6C6343 STOP ADDMOD BYTE STOP CALLER PUSH1 0x80 PUSH1 0x40 MSTORE CALLVALUE DUP1 ISZERO PUSH1 0xE JUMPI PUSH0 DUP1 REVERT JUMPDEST POP PUSH1 0x40 MLOAD PUSH2 0x255 CODESIZE SUB DUP1 PUSH2 0x255 DUP4 CODECOPY DUP2 DUP2 ADD PUSH1 0x40 MSTORE DUP2 ADD SWAP1 PUSH1 0x2E SWAP2 SWAP1 PUSH1 0x6B JUMP JUMPDEST DUP1 PUSH0 DUP2 SWAP1 SSTORE POP POP PUSH1 0x91 JUMP JUMPDEST PUSH0 DUP1 REVERT JUMPDEST PUSH0 DUP2 SWAP1 POP SWAP2 SWAP1 POP JUMP JUMPDEST PUSH1 0x4D DUP2 PUSH1 0x3D JUMP JUMPDEST DUP2 EQ PUSH1 0x56 JUMPI PUSH0 DUP1 REVERT JUMPDEST POP JUMP JUMPDEST PUSH0 DUP2 MLOAD SWAP1 POP PUSH1 0x65 DUP2 PUSH1 0x46 JUMP JUMPDEST SWAP3 SWAP2 POP POP JUMP JUMPDEST PUSH0 PUSH1 0x20 DUP3 DUP5 SUB SLT ISZERO PUSH1 0x7D JUMPI PUSH1 0x7C PUSH1 0x39 JUMP JUMPDEST JUMPDEST PUSH0 PUSH1 0x88 DUP5 DUP3 DUP6 ADD PUSH1 0x59 JUMP JUMPDEST SWAP2 POP POP SWAP3 SWAP2 POP POP JUMP JUMPDEST PUSH2 0x1B7 DUP1 PUSH2 0x9E PUSH0 CODECOPY PUSH0 RETURN INVALID PUSH1 0x80 PUSH1 0x40 MSTORE CALLVALUE DUP1 ISZERO PUSH2 0xF JUMPI PUSH0 DUP1 REVERT JUMPDEST POP PUSH1 0x4 CALLDATASIZE LT PUSH2 0x3F JUMPI PUSH0 CALLDATALOAD PUSH1 0xE0 SHR DUP1 PUSH4 0x8475C028 EQ PUSH2 0x43 JUMPI DUP1 PUSH4 0x89E7995F EQ PUSH2 0x61 JUMPI DUP1 PUSH4 0xC618A1E4 EQ PUSH2 0x7F JUMPI JUMPDEST PUSH0 DUP1 REVERT JUMPDEST PUSH2 0x4B PUSH2 0x9D JUMP JUMPDEST PUSH1 0x40 MLOAD PUSH2 0x58 SWAP2 SWAP1 PUSH2 0xFA JUMP JUMPDEST PUSH1 0x40 MLOAD DUP1 SWAP2 SUB SWAP1 RETURN JUMPDEST PUSH2 0x69 PUSH2 0xA2 JUMP JUMPDEST PUSH1 0x40 MLOAD PUSH2 0x76 SWAP2 SWAP1 PUSH2 0xFA JUMP JUMPDEST PUSH1 0x40 MLOAD DUP1 SWAP2 SUB SWAP1 RETURN JUMPDEST PUSH2 0x87 PUSH2 0xC2 JUMP JUMPDEST PUSH1 0x40 MLOAD PUSH2 0x94 SWAP2 SWAP1 PUSH2 0xFA JUMP JUMPDEST PUSH1 0x40 MLOAD DUP1 SWAP2 SUB SWAP1 RETURN JUMPDEST PUSH0 SLOAD DUP2 JUMP JUMPDEST PUSH0 DUP1 SLOAD PUSH0 SLOAD PUSH1 0x6 PUSH2 0xB3 SWAP2 SWAP1 PUSH2 0x140 JUMP JUMPDEST PUSH2 0xBD SWAP2 SWAP1 PUSH2 0x140 JUMP JUMPDEST SWAP1 POP SWAP1 JUMP JUMPDEST PUSH0 DUP1 SLOAD PUSH0 SLOAD PUSH0 SLOAD PUSH2 0xD3 SWAP2 SWAP1 PUSH2 0x140 JUMP JUMPDEST PUSH2 0xDD SWAP2 SWAP1 PUSH2 0x140 JUMP JUMPDEST SWAP1 POP SWAP1 JUMP JUMPDEST PUSH0 DUP2 SWAP1 POP SWAP2 SWAP1 POP JUMP JUMPDEST PUSH2 0xF4 DUP2 PUSH2 0xE2 JUMP JUMPDEST DUP3 MSTORE POP POP JUMP JUMPDEST PUSH0 PUSH1 0x20 DUP3 ADD SWAP1 POP PUSH2 0x10D PUSH0 DUP4 ADD DUP5 PUSH2 0xEB JUMP JUMPDEST SWAP3 SWAP2 POP POP JUMP JUMPDEST PUSH32 0x4E487B7100000000000000000000000000000000000000000000000000000000 PUSH0 MSTORE PUSH1 0x11 PUSH1 0x4 MSTORE PUSH1 0x24 PUSH0 REVERT JUMPDEST PUSH0 PUSH2 0x14A DUP3 PUSH2 0xE2 JUMP JUMPDEST SWAP2 POP PUSH2 0x155 DUP4 PUSH2 0xE2 JUMP JUMPDEST SWAP3 POP DUP3 DUP3 MUL PUSH2 0x163 DUP2 PUSH2 0xE2 JUMP JUMPDEST SWAP2 POP DUP3 DUP3 DIV DUP5 EQ DUP4 ISZERO OR PUSH2 0x17A JUMPI PUSH2 0x179 PUSH2 0x113 JUMP JUMPDEST JUMPDEST POP SWAP3 SWAP2 POP POP JUMP INVALID LOG2 PUSH5 0x6970667358 0x22 SLT KECCAK256 MUL CALLVALUE CODECOPY SELFDESTRUCT PUSH2 0x892 PUSH5 0x266EC4CB2 XOR BASEFEE 0x21 0x24 0xD4 PUSH9 0xC3A16B46E2AC503224 CALLVALUE CALLER CALLVALUE 0x22 PUSH5 0x736F6C6343 STOP ADDMOD BYTE STOP CALLER PUSH1 0x80 PUSH1 0x40 MSTORE CALLVALUE DUP1 ISZERO PUSH1 0xE JUMPI PUSH0 DUP1 REVERT JUMPDEST POP PUSH1 0x40 MLOAD PUSH2 0x392 CODESIZE SUB DUP1 PUSH2 0x392 DUP4 CODECOPY DUP2 DUP2 ADD PUSH1 0x40 MSTORE DUP2 ADD SWAP1 PUSH1 0x2E SWAP2 SWAP1 PUSH1 0x73 JUMP JUMPDEST DUP2 PUSH0 DUP2 SWAP1 SSTORE POP DUP1 PUSH1 0x1 DUP2 SWAP1 SSTORE POP POP POP PUSH1 0xAA JUMP JUMPDEST PUSH0 DUP1 REVERT JUMPDEST PUSH0 DUP2 SWAP1 POP SWAP2 SWAP1 POP JUMP JUMPDEST PUSH1 0x55 DUP2 PUSH1 0x45 JUMP JUMPDEST DUP2 EQ PUSH1 0x5E JUMPI PUSH0 DUP1 REVERT JUMPDEST POP JUMP JUMPDEST PUSH0 DUP2 MLOAD SWAP1 POP PUSH1 0x6D DUP2 PUSH1 0x4E JUMP JUMPDEST SWAP3 SWAP2 POP POP JUMP JUMPDEST PUSH0 DUP1 PUSH1 0x40 DUP4 DUP6 SUB SLT ISZERO PUSH1 0x86 JUMPI PUSH1 0x85 PUSH1 0x41 JUMP JUMPDEST JUMPDEST PUSH0 PUSH1 0x91 DUP6 DUP3 DUP7 ADD PUSH1 0x61 JUMP JUMPDEST SWAP3 POP POP PUSH1 0x20 PUSH1 0xA0 DUP6 DUP3 DUP7 ADD PUSH1 0x61 JUMP JUMPDEST SWAP2 POP POP SWAP3 POP SWAP3 SWAP1 POP JUMP JUMPDEST PUSH2 0x2DB DUP1 PUSH2 0xB7 PUSH0 CODECOPY PUSH0 RETURN INVALID PUSH1 0x80 PUSH1 0x40 MSTORE CALLVALUE DUP1 ISZERO PUSH2 0xF JUMPI PUSH0 DUP1 REVERT JUMPDEST POP PUSH1 0x4 CALLDATASIZE LT PUSH2 0x4A JUMPI PUSH0 CALLDATALOAD PUSH1 0xE0 SHR DUP1 PUSH4 0xEF26743 EQ PUSH2 0x4E JUMPI DUP1 PUSH4 0x217F4353 EQ PUSH2 0x6C JUMPI DUP1 PUSH4 0x89E7995F EQ PUSH2 0x8A JUMPI DUP1 PUSH4 0xC618A1E4 EQ PUSH2 0xA8 JUMPI JUMPDEST PUSH0 DUP1 REVERT JUMPDEST PUSH2 0x56 PUSH2 0xC6 JUMP JUMPDEST PUSH1 0x40 MLOAD PUSH2 0x63 SWAP2 SWAP1 PUSH2 0x18E JUMP JUMPDEST PUSH1 0x40 MLOAD DUP1 SWAP2 SUB SWAP1 RETURN JUMPDEST PUSH2 0x74 PUSH2 0xCC JUMP JUMPDEST PUSH1 0x40 MLOAD PUSH2 0x81 SWAP2 SWAP1 PUSH2 0x18E JUMP JUMPDEST PUSH1 0x40 MLOAD DUP1 SWAP2 SUB SWAP1 RETURN JUMPDEST PUSH2 0x92 PUSH2 0xD1 JUMP JUMPDEST PUSH1 0x40 MLOAD PUSH2 0x9F SWAP2 SWAP1 PUSH2 0x18E JUMP JUMPDEST PUSH1 0x40 MLOAD DUP1 SWAP2 SUB SWAP1 RETURN JUMPDEST PUSH2 0xB0 PUSH2 0x13C JUMP JUMPDEST PUSH1 0x40 MLOAD PUSH2 0xBD SWAP2 SWAP1 PUSH2 0x18E JUMP JUMPDEST PUSH1 0x40 MLOAD DUP1 SWAP2 SUB SWAP1 RETURN JUMPDEST PUSH1 0x1 SLOAD DUP2 JUMP JUMPDEST PUSH0 SLOAD DUP2 JUMP JUMPDEST PUSH0 PUSH1 0x64 PUSH0 SLOAD PUSH0 SLOAD PUSH2 0x13A PUSH1 0x2 PUSH2 0xE7 SWAP2 SWAP1 PUSH2 0x1D4 JUMP JUMPDEST PUSH2 0xF1 SWAP2 SWAP1 PUSH2 0x1D4 JUMP JUMPDEST PUSH2 0xFB SWAP2 SWAP1 PUSH2 0x1D4 JUMP JUMPDEST PUSH1 0x1 SLOAD PUSH0 SLOAD PUSH2 0x13A PUSH1 0x2 PUSH2 0x10F SWAP2 SWAP1 PUSH2 0x1D4 JUMP JUMPDEST PUSH2 0x119 SWAP2 SWAP1 PUSH2 0x1D4 JUMP JUMPDEST PUSH2 0x123 SWAP2 SWAP1 PUSH2 0x1D4 JUMP JUMPDEST PUSH2 0x12D SWAP2 SWAP1 PUSH2 0x215 JUMP JUMPDEST PUSH2 0x137 SWAP2 SWAP1 PUSH2 0x275 JUMP JUMPDEST SWAP1 POP SWAP1 JUMP JUMPDEST PUSH0 PUSH1 0x64 PUSH1 0x1 SLOAD PUSH0 SLOAD PUSH0 SLOAD PUSH2 0x13A PUSH2 0x153 SWAP2 SWAP1 PUSH2 0x1D4 JUMP JUMPDEST PUSH2 0x15D SWAP2 SWAP1 PUSH2 0x1D4 JUMP JUMPDEST PUSH2 0x167 SWAP2 SWAP1 PUSH2 0x1D4 JUMP JUMPDEST PUSH2 0x171 SWAP2 SWAP1 PUSH2 0x275 JUMP JUMPDEST SWAP1 POP SWAP1 JUMP JUMPDEST PUSH0 DUP2 SWAP1 POP SWAP2 SWAP1 POP JUMP JUMPDEST PUSH2 0x188 DUP2 PUSH2 0x176 JUMP JUMPDEST DUP3 MSTORE POP POP JUMP JUMPDEST PUSH0 PUSH1 0x20 DUP3 ADD SWAP1 POP PUSH2 0x1A1 PUSH0 DUP4 ADD DUP5 PUSH2 0x17F JUMP JUMPDEST SWAP3 SWAP2 POP POP JUMP JUMPDEST PUSH32 0x4E487B7100000000000000000000000000000000000000000000000000000000 PUSH0 MSTORE PUSH1 0x11 PUSH1 0x4 MSTORE PUSH1 0x24 PUSH0 REVERT JUMPDEST PUSH0 PUSH2 0x1DE DUP3 PUSH2 0x176 JUMP JUMPDEST SWAP2 POP PUSH2 0x1E9 DUP4 PUSH2 0x176 JUMP JUMPDEST SWAP3 POP DUP3 DUP3 MUL PUSH2 0x1F7 DUP2 PUSH2 0x176 JUMP JUMPDEST SWAP2 POP DUP3 DUP3 DIV DUP5 EQ DUP4 ISZERO OR PUSH2 0x20E JUMPI PUSH2 0x20D PUSH2 0x1A7 JUMP JUMPDEST JUMPDEST POP SWAP3 SWAP2 POP POP JUMP JUMPDEST PUSH0 PUSH2 0x21F DUP3 PUSH2 0x176 JUMP JUMPDEST SWAP2 POP PUSH2 0x22A DUP4 PUSH2 0x176 JUMP JUMPDEST SWAP3 POP DUP3 DUP3 ADD SWAP1 POP DUP1 DUP3 GT ISZERO PUSH2 0x242 JUMPI PUSH2 0x241 PUSH2 0x1A7 JUMP JUMPDEST JUMPDEST SWAP3 SWAP2 POP POP JUMP JUMPDEST PUSH32 0x4E487B7100000000000000000000000000000000000000000000000000000000 PUSH0 MSTORE PUSH1 0x12 PUSH1 0x4 MSTORE PUSH1 0x24 PUSH0 REVERT JUMPDEST PUSH0 PUSH2 0x27F DUP3 PUSH2 0x176 JUMP JUMPDEST SWAP2 POP PUSH2 0x28A DUP4 PUSH2 0x176 JUMP JUMPDEST SWAP3 POP DUP3 PUSH2 0x29A JUMPI PUSH2 0x299 PUSH2 0x248 JUMP JUMPDEST JUMPDEST DUP3 DUP3 DIV SWAP1 POP SWAP3 SWAP2 POP POP JUMP INVALID LOG2 PUSH5 0x6970667358 0x22 SLT KECCAK256 CODESIZE DUP13 0xE1 PUSH8 0x59071E15E361CB8E CALLDATALOAD PUSH1 0xB2 0xDE 0xB6 PUSH7 0x7D19A9C235DE80 0xFC SWAP13 PUSH12 0x4A55907F64736F6C63430008 BYTE STOP CALLER PUSH1 0x80 PUSH1 0x40 MSTORE CALLVALUE DUP1 ISZERO PUSH1 0xE JUMPI PUSH0 DUP1 REVERT JUMPDEST POP PUSH1 0x40 MLOAD PUSH2 0x40A CODESIZE SUB DUP1 PUSH2 0x40A DUP4 CODECOPY DUP2 DUP2 ADD PUSH1 0x40 MSTORE DUP2 ADD SWAP1 PUSH1 0x2E SWAP2 SWAP1 PUSH1 0x73 JUMP JUMPDEST DUP2 PUSH0 DUP2 SWAP1 SSTORE POP DUP1 PUSH1 0x1 DUP2 SWAP1 SSTORE POP POP POP PUSH1 0xAA JUMP JUMPDEST PUSH0 DUP1 REVERT JUMPDEST PUSH0 DUP2 SWAP1 POP SWAP2 SWAP1 POP JUMP JUMPDEST PUSH1 0x55 DUP2 PUSH1 0x45 JUMP JUMPDEST DUP2 EQ PUSH1 0x5E JUMPI PUSH0 DUP1 REVERT JUMPDEST POP JUMP JUMPDEST PUSH0 DUP2 MLOAD SWAP1 POP PUSH1 0x6D DUP2 PUSH1 0x4E JUMP JUMPDEST SWAP3 SWAP2 POP POP JUMP JUMPDEST PUSH0 DUP1 PUSH1 0x40 DUP4 DUP6 SUB SLT ISZERO PUSH1 0x86 JUMPI PUSH1 0x85 PUSH1 0x41 JUMP JUMPDEST JUMPDEST PUSH0 PUSH1 0x91 DUP6 DUP3 DUP7 ADD PUSH1 0x61 JUMP JUMPDEST SWAP3 POP POP PUSH1 0x20 PUSH1 0xA0 DUP6 DUP3 DUP7 ADD PUSH1 0x61 JUMP JUMPDEST SWAP2 POP POP SWAP3 POP SWAP3 SWAP1 POP JUMP JUMPDEST PUSH2 0x353 DUP1 PUSH2 0xB7 PUSH0 CODECOPY PUSH0 RETURN INVALID PUSH1 0x80 PUSH1 0x40 MSTORE CALLVALUE DUP1 ISZERO PUSH2 0xF JUMPI PUSH0 DUP1 REVERT JUMPDEST POP PUSH1 0x4 CALLDATASIZE LT PUSH2 0x4A JUMPI PUSH0 CALLDATALOAD PUSH1 0xE0 SHR DUP1 PUSH4 0xEF26743 EQ PUSH2 0x4E JUMPI DUP1 PUSH4 0x217F4353 EQ PUSH2 0x6C JUMPI DUP1 PUSH4 0x89E7995F EQ PUSH2 0x8A JUMPI DUP1 PUSH4 0xC618A1E4 EQ PUSH2 0xA8 JUMPI JUMPDEST PUSH0 DUP1 REVERT JUMPDEST PUSH2 0x56 PUSH2 0xC6 JUMP JUMPDEST PUSH1 0x40 MLOAD PUSH2 0x63 SWAP2 SWAP1 PUSH2 0x206 JUMP JUMPDEST PUSH1 0x40 MLOAD DUP1 SWAP2 SUB SWAP1 RETURN JUMPDEST PUSH2 0x74 PUSH2 0xCC JUMP JUMPDEST PUSH1 0x40 MLOAD PUSH2 0x81 SWAP2 SWAP1 PUSH2 0x206 JUMP JUMPDEST PUSH1 0x40 MLOAD DUP1 SWAP2 SUB SWAP1 RETURN JUMPDEST PUSH2 0x92 PUSH2 0xD1 JUMP JUMPDEST PUSH1 0x40 MLOAD PUSH2 0x9F SWAP2 SWAP1 PUSH2 0x206 JUMP JUMPDEST PUSH1 0x40 MLOAD DUP1 SWAP2 SUB SWAP1 RETURN JUMPDEST PUSH2 0xB0 PUSH2 0x142 JUMP JUMPDEST PUSH1 0x40 MLOAD PUSH2 0xBD SWAP2 SWAP1 PUSH2 0x206 JUMP JUMPDEST PUSH1 0x40 MLOAD DUP1 SWAP2 SUB SWAP1 RETURN JUMPDEST PUSH1 0x1 SLOAD DUP2 JUMP JUMPDEST PUSH0 SLOAD DUP2 JUMP JUMPDEST PUSH0 DUP1 PUSH1 0x1 SLOAD PUSH1 0x1 SLOAD PUSH2 0xE3 SWAP2 SWAP1 PUSH2 0x24C JUMP JUMPDEST PUSH0 SLOAD PUSH0 SLOAD PUSH2 0xF1 SWAP2 SWAP1 PUSH2 0x24C JUMP JUMPDEST PUSH2 0xFB SWAP2 SWAP1 PUSH2 0x28D JUMP JUMPDEST SWAP1 POP PUSH0 PUSH2 0x107 DUP3 PUSH2 0x17D JUMP JUMPDEST SWAP1 POP PUSH1 0x64 DUP2 PUSH0 SLOAD PUSH2 0x118 SWAP2 SWAP1 PUSH2 0x28D JUMP JUMPDEST PUSH0 SLOAD PUSH2 0x13A PUSH2 0x127 SWAP2 SWAP1 PUSH2 0x24C JUMP JUMPDEST PUSH2 0x131 SWAP2 SWAP1 PUSH2 0x24C JUMP JUMPDEST PUSH2 0x13B SWAP2 SWAP1 PUSH2 0x2ED JUMP JUMPDEST SWAP3 POP POP POP SWAP1 JUMP JUMPDEST PUSH0 PUSH2 0x12C PUSH1 0x1 SLOAD PUSH0 SLOAD PUSH0 SLOAD PUSH2 0x13A PUSH2 0x15A SWAP2 SWAP1 PUSH2 0x24C JUMP JUMPDEST PUSH2 0x164 SWAP2 SWAP1 PUSH2 0x24C JUMP JUMPDEST PUSH2 0x16E SWAP2 SWAP1 PUSH2 0x24C JUMP JUMPDEST PUSH2 0x178 SWAP2 SWAP1 PUSH2 0x2ED JUMP JUMPDEST SWAP1 POP SWAP1 JUMP JUMPDEST PUSH0 DUP1 DUP3 SUB PUSH2 0x18D JUMPI PUSH0 SWAP1 POP PUSH2 0x1E9 JUMP JUMPDEST PUSH0 PUSH1 0x2 PUSH1 0x1 DUP5 PUSH2 0x19D SWAP2 SWAP1 PUSH2 0x28D JUMP JUMPDEST PUSH2 0x1A7 SWAP2 SWAP1 PUSH2 0x2ED JUMP JUMPDEST SWAP1 POP PUSH0 DUP4 SWAP1 POP JUMPDEST DUP1 DUP3 LT ISZERO PUSH2 0x1E3 JUMPI DUP2 SWAP1 POP PUSH1 0x2 DUP3 DUP4 DUP7 PUSH2 0x1C8 SWAP2 SWAP1 PUSH2 0x2ED JUMP JUMPDEST PUSH2 0x1D2 SWAP2 SWAP1 PUSH2 0x28D JUMP JUMPDEST PUSH2 0x1DC SWAP2 SWAP1 PUSH2 0x2ED JUMP JUMPDEST SWAP2 POP PUSH2 0x1AE JUMP JUMPDEST DUP1 SWAP3 POP POP POP JUMPDEST SWAP2 SWAP1 POP JUMP JUMPDEST PUSH0 DUP2 SWAP1 POP SWAP2 SWAP1 POP JUMP JUMPDEST PUSH2 0x200 DUP2 PUSH2 0x1EE JUMP JUMPDEST DUP3 MSTORE POP POP JUMP JUMPDEST PUSH0 PUSH1 0x20 DUP3 ADD SWAP1 POP PUSH2 0x219 PUSH0 DUP4 ADD DUP5 PUSH2 0x1F7 JUMP JUMPDEST SWAP3 SWAP2 POP POP JUMP JUMPDEST PUSH32 0x4E487B7100000000000000000000000000000000000000000000000000000000 PUSH0 MSTORE PUSH1 0x11 PUSH1 0x4 MSTORE PUSH1 0x24 PUSH0 REVERT JUMPDEST PUSH0 PUSH2 0x256 DUP3 PUSH2 0x1EE JUMP JUMPDEST SWAP2 POP PUSH2 0x261 DUP4 PUSH2 0x1EE JUMP JUMPDEST SWAP3 POP DUP3 DUP3 MUL PUSH2 0x26F DUP2 PUSH2 0x1EE JUMP JUMPDEST SWAP2 POP DUP3 DUP3 DIV DUP5 EQ DUP4 ISZERO OR PUSH2 0x286 JUMPI PUSH2 0x285 PUSH2 0x21F JUMP JUMPDEST JUMPDEST POP SWAP3 SWAP2 POP POP JUMP JUMPDEST PUSH0 PUSH2 0x297 DUP3 PUSH2 0x1EE JUMP JUMPDEST SWAP2 POP PUSH2 0x2A2 DUP4 PUSH2 0x1EE JUMP JUMPDEST SWAP3 POP DUP3 DUP3 ADD SWAP1 POP DUP1 DUP3 GT ISZERO PUSH2 0x2BA JUMPI PUSH2 0x2B9 PUSH2 0x21F JUMP JUMPDEST JUMPDEST SWAP3 SWAP2 POP POP JUMP JUMPDEST PUSH32 0x4E487B7100000000000000000000000000000000000000000000000000000000 PUSH0 MSTORE PUSH1 0x12 PUSH1 0x4 MSTORE PUSH1 0x24 PUSH0 REVERT JUMPDEST PUSH0 PUSH2 0x2F7 DUP3 PUSH2 0x1EE JUMP JUMPDEST SWAP2 POP PUSH2 0x302 DUP4 PUSH2 0x1EE JUMP JUMPDEST SWAP3 POP DUP3 PUSH2 0x312 JUMPI PUSH2 0x311 PUSH2 0x2C0 JUMP JUMPDEST JUMPDEST DUP3 DUP3 DIV SWAP1 POP SWAP3 SWAP2 POP POP JUMP INVALID LOG2 PUSH5 0x6970667358 0x22 SLT KECCAK256 TSTORE PUSH7 0x7CF88DA1A95A0 LOG4 SAR RETURNDATASIZE PUSH4 0x2EA1D8C1 0xA6 PUSH13 0x82DC1B01AB17D800CC7C391282 PUSH5 0x736F6C6343 STOP ADDMOD BYTE STOP CALLER "
		},
		"gasEstimates": {
			"creation": {
				"codeDepositCost": "652400",
				"executionCost": "infinite",
				"totalCost": "infinite"
			},
			"external": {
				"cone()": "infinite",
				"cube()": "infinite",
				"cylinder()": "infinite",
				"getShapeDetails()": "infinite"
			},
			"internal": {
				"uint2str(uint256)": "infinite"
			}
		},
		"methodIdentifiers": {
			"cone()": "a312363a",
			"cube()": "5c771211",
			"cylinder()": "a35e7d29",
			"getShapeDetails()": "becf77fe"
		}
	},
	"abi": [
		{
			"inputs": [
				{
					"internalType": "uint256",
					"name": "cubeSide",
					"type": "uint256"
				},
				{
					"internalType": "uint256",
					"name": "cylinderRadius",
					"type": "uint256"
				},
				{
					"internalType": "uint256",
					"name": "cylinderHeight",
					"type": "uint256"
				},
				{
					"internalType": "uint256",
					"name": "coneRadius",
					"type": "uint256"
				},
				{
					"internalType": "uint256",
					"name": "coneHeight",
					"type": "uint256"
				}
			],
			"stateMutability": "nonpayable",
			"type": "constructor"
		},
		{
			"inputs": [],
			"name": "cone",
			"outputs": [
				{
					"internalType": "contract Cone",
					"name": "",
					"type": "address"
				}
			],
			"stateMutability": "view",
			"type": "function"
		},
		{
			"inputs": [],
			"name": "cube",
			"outputs": [
				{
					"internalType": "contract Cube",
					"name": "",
					"type": "address"
				}
			],
			"stateMutability": "view",
			"type": "function"
		},
		{
			"inputs": [],
			"name": "cylinder",
			"outputs": [
				{
					"internalType": "contract Cylinder",
					"name": "",
					"type": "address"
				}
			],
			"stateMutability": "view",
			"type": "function"
		},
		{
			"inputs": [],
			"name": "getShapeDetails",
			"outputs": [
				{
					"internalType": "string",
					"name": "",
					"type": "string"
				}
			],
			"stateMutability": "view",
			"type": "function"
		}
	]
}