{
	"data": {
		"bytecode": {
			"linkReferences": {},
			"object": "608060405234801561000f575f80fd5b50604051611b7c380380611b7c83398181016040528101906100319190610237565b86600290816100409190610580565b5085600390816100509190610580565b50610061858561009460201b60201c565b82600490816100709190610580565b5081600590816100809190610580565b50806006819055505050505050505061064f565b815f90816100a29190610580565b5080600190816100b29190610580565b505050565b5f604051905090565b5f80fd5b5f80fd5b5f80fd5b5f80fd5b5f601f19601f8301169050919050565b7f4e487b71000000000000000000000000000000000000000000000000000000005f52604160045260245ffd5b610116826100d0565b810181811067ffffffffffffffff82111715610135576101346100e0565b5b80604052505050565b5f6101476100b7565b9050610153828261010d565b919050565b5f67ffffffffffffffff821115610172576101716100e0565b5b61017b826100d0565b9050602081019050919050565b8281835e5f83830152505050565b5f6101a86101a384610158565b61013e565b9050828152602081018484840111156101c4576101c36100cc565b5b6101cf848285610188565b509392505050565b5f82601f8301126101eb576101ea6100c8565b5b81516101fb848260208601610196565b91505092915050565b5f819050919050565b61021681610204565b8114610220575f80fd5b50565b5f815190506102318161020d565b92915050565b5f805f805f805f60e0888a031215610252576102516100c0565b5b5f88015167ffffffffffffffff81111561026f5761026e6100c4565b5b61027b8a828b016101d7565b975050602088015167ffffffffffffffff81111561029c5761029b6100c4565b5b6102a88a828b016101d7565b965050604088015167ffffffffffffffff8111156102c9576102c86100c4565b5b6102d58a828b016101d7565b955050606088015167ffffffffffffffff8111156102f6576102f56100c4565b5b6103028a828b016101d7565b945050608088015167ffffffffffffffff811115610323576103226100c4565b5b61032f8a828b016101d7565b93505060a088015167ffffffffffffffff8111156103505761034f6100c4565b5b61035c8a828b016101d7565b92505060c061036d8a828b01610223565b91505092959891949750929550565b5f81519050919050565b7f4e487b71000000000000000000000000000000000000000000000000000000005f52602260045260245ffd5b5f60028204905060018216806103ca57607f821691505b6020821081036103dd576103dc610386565b5b50919050565b5f819050815f5260205f209050919050565b5f6020601f8301049050919050565b5f82821b905092915050565b5f6008830261043f7fffffffffffffffffffffffffffffffffffffffffffffffffffffffffffffffff82610404565b6104498683610404565b95508019841693508086168417925050509392505050565b5f819050919050565b5f61048461047f61047a84610204565b610461565b610204565b9050919050565b5f819050919050565b61049d8361046a565b6104b16104a98261048b565b848454610410565b825550505050565b5f90565b6104c56104b9565b6104d0818484610494565b505050565b5b818110156104f3576104e85f826104bd565b6001810190506104d6565b5050565b601f82111561053857610509816103e3565b610512846103f5565b81016020851015610521578190505b61053561052d856103f5565b8301826104d5565b50505b505050565b5f82821c905092915050565b5f6105585f198460080261053d565b1980831691505092915050565b5f6105708383610549565b9150826002028217905092915050565b6105898261037c565b67ffffffffffffffff8111156105a2576105a16100e0565b5b6105ac82546103b3565b6105b78282856104f7565b5f60209050601f8311600181146105e8575f84156105d6578287015190505b6105e08582610565565b865550610647565b601f1984166105f6866103e3565b5f5b8281101561061d578489015182556001820191506020850194506020810190506105f8565b8683101561063a5784890151610636601f891682610549565b8355505b6001600288020188555050505b505050505050565b6115208061065c5f395ff3fe608060405234801561000f575f80fd5b50600436106100a7575f3560e01c80638dfd3b181161006f5780638dfd3b18146101405780639aa7cf761461015e578063b508ba311461017c578063b975abb31461019a578063ceb63c76146101b8578063eb96548f146101d7576100a7565b80630c1b7c1e146100ab5780633c84c5a5146100ca5780636ef9a278146100e857806370d1f98614610106578063735f5aec14610124575b5f80fd5b6100b36101f5565b6040516100c19291906109e4565b60405180910390f35b6100d2610318565b6040516100df9190610a31565b60405180910390f35b6100f061031e565b6040516100fd9190610a4a565b60405180910390f35b61010e6103aa565b60405161011b9190610a4a565b60405180910390f35b61013e60048036038101906101399190610ba7565b6103fb565b005b61014861041e565b6040516101559190610a4a565b60405180910390f35b6101666104aa565b6040516101739190610a4a565b60405180910390f35b610184610536565b6040516101919190610a4a565b60405180910390f35b6101a26105c2565b6040516101af9190610a4a565b60405180910390f35b6101c061064d565b6040516101ce9291906109e4565b60405180910390f35b6101df61076f565b6040516101ec9190610a4a565b60405180910390f35b6060806002600381805461020890610c4a565b80601f016020809104026020016040519081016040528092919081815260200182805461023490610c4a565b801561027f5780601f106102565761010080835404028352916020019161027f565b820191905f5260205f20905b81548152906001019060200180831161026257829003601f168201915b5050505050915080805461029290610c4a565b80601f01602080910402602001604051908101604052809291908181526020018280546102be90610c4a565b80156103095780601f106102e057610100808354040283529160200191610309565b820191905f5260205f20905b8154815290600101906020018083116102ec57829003601f168201915b50505050509050915091509091565b60065481565b6005805461032b90610c4a565b80601f016020809104026020016040519081016040528092919081815260200182805461035790610c4a565b80156103a25780601f10610379576101008083540402835291602001916103a2565b820191905f5260205f20905b81548152906001019060200180831161038557829003601f168201915b505050505081565b60605f806103b661064d565b91509150600260038383600460056103cf6006546107fb565b6040516020016103e59796959493929190610fe0565b6040516020818303038152906040529250505090565b815f90816104099190611269565b5080600190816104199190611269565b505050565b6003805461042b90610c4a565b80601f016020809104026020016040519081016040528092919081815260200182805461045790610c4a565b80156104a25780601f10610479576101008083540402835291602001916104a2565b820191905f5260205f20905b81548152906001019060200180831161048557829003601f168201915b505050505081565b600280546104b790610c4a565b80601f01602080910402602001604051908101604052809291908181526020018280546104e390610c4a565b801561052e5780601f106105055761010080835404028352916020019161052e565b820191905f5260205f20905b81548152906001019060200180831161051157829003601f168201915b505050505081565b6004805461054390610c4a565b80601f016020809104026020016040519081016040528092919081815260200182805461056f90610c4a565b80156105ba5780601f10610591576101008083540402835291602001916105ba565b820191905f5260205f20905b81548152906001019060200180831161059d57829003601f168201915b505050505081565b5f80546105ce90610c4a565b80601f01602080910402602001604051908101604052809291908181526020018280546105fa90610c4a565b80156106455780601f1061061c57610100808354040283529160200191610645565b820191905f5260205f20905b81548152906001019060200180831161062857829003601f168201915b505050505081565b6060805f600181805461065f90610c4a565b80601f016020809104026020016040519081016040528092919081815260200182805461068b90610c4a565b80156106d65780601f106106ad576101008083540402835291602001916106d6565b820191905f5260205f20905b8154815290600101906020018083116106b957829003601f168201915b505050505091508080546106e990610c4a565b80601f016020809104026020016040519081016040528092919081815260200182805461071590610c4a565b80156107605780601f1061073757610100808354040283529160200191610760565b820191905f5260205f20905b81548152906001019060200180831161074357829003601f168201915b50505050509050915091509091565b6001805461077c90610c4a565b80601f01602080910402602001604051908101604052809291908181526020018280546107a890610c4a565b80156107f35780601f106107ca576101008083540402835291602001916107f3565b820191905f5260205f20905b8154815290600101906020018083116107d657829003601f168201915b505050505081565b60605f8203610841576040518060400160405280600181526020017f3000000000000000000000000000000000000000000000000000000000000000815250905061096f565b5f8290505f5b5f821461087057808061085990611365565b915050600a8261086991906113d9565b9150610847565b5f8167ffffffffffffffff81111561088b5761088a610a83565b5b6040519080825280601f01601f1916602001820160405280156108bd5781602001600182028036833780820191505090505b5090505f8290505b5f8614610967576001816108d99190611409565b90505f600a80886108ea91906113d9565b6108f4919061143c565b876108ff9190611409565b603061090b9190611489565b90508060f81b838381518110610924576109236114bd565b5b60200101907effffffffffffffffffffffffffffffffffffffffffffffffffffffffffffff191690815f1a905350600a8761095f91906113d9565b9650506108c5565b819450505050505b919050565b5f81519050919050565b5f82825260208201905092915050565b8281835e5f83830152505050565b5f601f19601f8301169050919050565b5f6109b682610974565b6109c0818561097e565b93506109d081856020860161098e565b6109d98161099c565b840191505092915050565b5f6040820190508181035f8301526109fc81856109ac565b90508181036020830152610a1081846109ac565b90509392505050565b5f819050919050565b610a2b81610a19565b82525050565b5f602082019050610a445f830184610a22565b92915050565b5f6020820190508181035f830152610a6281846109ac565b905092915050565b5f604051905090565b5f80fd5b5f80fd5b5f80fd5b5f80fd5b7f4e487b71000000000000000000000000000000000000000000000000000000005f52604160045260245ffd5b610ab98261099c565b810181811067ffffffffffffffff82111715610ad857610ad7610a83565b5b80604052505050565b5f610aea610a6a565b9050610af68282610ab0565b919050565b5f67ffffffffffffffff821115610b1557610b14610a83565b5b610b1e8261099c565b9050602081019050919050565b828183375f83830152505050565b5f610b4b610b4684610afb565b610ae1565b905082815260208101848484011115610b6757610b66610a7f565b5b610b72848285610b2b565b509392505050565b5f82601f830112610b8e57610b8d610a7b565b5b8135610b9e848260208601610b39565b91505092915050565b5f8060408385031215610bbd57610bbc610a73565b5b5f83013567ffffffffffffffff811115610bda57610bd9610a77565b5b610be685828601610b7a565b925050602083013567ffffffffffffffff811115610c0757610c06610a77565b5b610c1385828601610b7a565b9150509250929050565b7f4e487b71000000000000000000000000000000000000000000000000000000005f52602260045260245ffd5b5f6002820490506001821680610c6157607f821691505b602082108103610c7457610c73610c1d565b5b50919050565b5f81905092915050565b7f53747564656e74205265706f727420436172640a0000000000000000000000005f82015250565b5f610cb8601483610c7a565b9150610cc382610c84565b601482019050919050565b7f436f6c6c656765204e616d653a200000000000000000000000000000000000005f82015250565b5f610d02600e83610c7a565b9150610d0d82610cce565b600e82019050919050565b5f819050815f5260205f209050919050565b5f8154610d3681610c4a565b610d408186610c7a565b9450600182165f8114610d5a5760018114610d6f57610da1565b60ff1983168652811515820286019350610da1565b610d7885610d18565b5f5b83811015610d9957815481890152600182019150602081019050610d7a565b838801955050505b50505092915050565b7f0a000000000000000000000000000000000000000000000000000000000000005f82015250565b5f610dde600183610c7a565b9150610de982610daa565b600182019050919050565b7f436f6c6c65676520436f64653a200000000000000000000000000000000000005f82015250565b5f610e28600e83610c7a565b9150610e3382610df4565b600e82019050919050565b7f4465706172746d656e74204e616d653a200000000000000000000000000000005f82015250565b5f610e72601183610c7a565b9150610e7d82610e3e565b601182019050919050565b5f610e9282610974565b610e9c8185610c7a565b9350610eac81856020860161098e565b80840191505092915050565b7f4465706172746d656e7420486561643a200000000000000000000000000000005f82015250565b5f610eec601183610c7a565b9150610ef782610eb8565b601182019050919050565b7f53747564656e74204e616d653a200000000000000000000000000000000000005f82015250565b5f610f36600e83610c7a565b9150610f4182610f02565b600e82019050919050565b7f526567697374726174696f6e204e756d6265723a2000000000000000000000005f82015250565b5f610f80601583610c7a565b9150610f8b82610f4c565b601582019050919050565b7f4d61726b733a20000000000000000000000000000000000000000000000000005f82015250565b5f610fca600783610c7a565b9150610fd582610f96565b600782019050919050565b5f610fea82610cac565b9150610ff582610cf6565b9150611001828a610d2a565b915061100c82610dd2565b915061101782610e1c565b91506110238289610d2a565b915061102e82610dd2565b915061103982610e66565b91506110458288610e88565b915061105082610dd2565b915061105b82610ee0565b91506110678287610e88565b915061107282610dd2565b915061107d82610f2a565b91506110898286610d2a565b915061109482610dd2565b915061109f82610f74565b91506110ab8285610d2a565b91506110b682610dd2565b91506110c182610fbe565b91506110cd8284610e88565b915081905098975050505050505050565b5f6020601f8301049050919050565b5f82821b905092915050565b5f600883026111287fffffffffffffffffffffffffffffffffffffffffffffffffffffffffffffffff826110ed565b61113286836110ed565b95508019841693508086168417925050509392505050565b5f819050919050565b5f61116d61116861116384610a19565b61114a565b610a19565b9050919050565b5f819050919050565b61118683611153565b61119a61119282611174565b8484546110f9565b825550505050565b5f90565b6111ae6111a2565b6111b981848461117d565b505050565b5b818110156111dc576111d15f826111a6565b6001810190506111bf565b5050565b601f821115611221576111f281610d18565b6111fb846110de565b8101602085101561120a578190505b61121e611216856110de565b8301826111be565b50505b505050565b5f82821c905092915050565b5f6112415f1984600802611226565b1980831691505092915050565b5f6112598383611232565b9150826002028217905092915050565b61127282610974565b67ffffffffffffffff81111561128b5761128a610a83565b5b6112958254610c4a565b6112a08282856111e0565b5f60209050601f8311600181146112d1575f84156112bf578287015190505b6112c9858261124e565b865550611330565b601f1984166112df86610d18565b5f5b82811015611306578489015182556001820191506020850194506020810190506112e1565b86831015611323578489015161131f601f891682611232565b8355505b6001600288020188555050505b505050505050565b7f4e487b71000000000000000000000000000000000000000000000000000000005f52601160045260245ffd5b5f61136f82610a19565b91507fffffffffffffffffffffffffffffffffffffffffffffffffffffffffffffffff82036113a1576113a0611338565b5b600182019050919050565b7f4e487b71000000000000000000000000000000000000000000000000000000005f52601260045260245ffd5b5f6113e382610a19565b91506113ee83610a19565b9250826113fe576113fd6113ac565b5b828204905092915050565b5f61141382610a19565b915061141e83610a19565b925082820390508181111561143657611435611338565b5b92915050565b5f61144682610a19565b915061145183610a19565b925082820261145f81610a19565b9150828204841483151761147657611475611338565b5b5092915050565b5f60ff82169050919050565b5f6114938261147d565b915061149e8361147d565b9250828201905060ff8111156114b7576114b6611338565b5b92915050565b7f4e487b71000000000000000000000000000000000000000000000000000000005f52603260045260245ffdfea264697066735822122024d0a7144ad39026cda6e45c7c330dc66e0aee1d99682fac2888ab1b4e98b6a564736f6c634300081a0033",
			"opcodes": "PUSH1 0x80 PUSH1 0x40 MSTORE CALLVALUE DUP1 ISZERO PUSH2 0xF JUMPI PUSH0 DUP1 REVERT JUMPDEST POP PUSH1 0x40 MLOAD PUSH2 0x1B7C CODESIZE SUB DUP1 PUSH2 0x1B7C DUP4 CODECOPY DUP2 DUP2 ADD PUSH1 0x40 MSTORE DUP2 ADD SWAP1 PUSH2 0x31 SWAP2 SWAP1 PUSH2 0x237 JUMP JUMPDEST DUP7 PUSH1 0x2 SWAP1 DUP2 PUSH2 0x40 SWAP2 SWAP1 PUSH2 0x580 JUMP JUMPDEST POP DUP6 PUSH1 0x3 SWAP1 DUP2 PUSH2 0x50 SWAP2 SWAP1 PUSH2 0x580 JUMP JUMPDEST POP PUSH2 0x61 DUP6 DUP6 PUSH2 0x94 PUSH1 0x20 SHL PUSH1 0x20 SHR JUMP JUMPDEST DUP3 PUSH1 0x4 SWAP1 DUP2 PUSH2 0x70 SWAP2 SWAP1 PUSH2 0x580 JUMP JUMPDEST POP DUP2 PUSH1 0x5 SWAP1 DUP2 PUSH2 0x80 SWAP2 SWAP1 PUSH2 0x580 JUMP JUMPDEST POP DUP1 PUSH1 0x6 DUP2 SWAP1 SSTORE POP POP POP POP POP POP POP POP PUSH2 0x64F JUMP JUMPDEST DUP2 PUSH0 SWAP1 DUP2 PUSH2 0xA2 SWAP2 SWAP1 PUSH2 0x580 JUMP JUMPDEST POP DUP1 PUSH1 0x1 SWAP1 DUP2 PUSH2 0xB2 SWAP2 SWAP1 PUSH2 0x580 JUMP JUMPDEST POP POP POP JUMP JUMPDEST PUSH0 PUSH1 0x40 MLOAD SWAP1 POP SWAP1 JUMP JUMPDEST PUSH0 DUP1 REVERT JUMPDEST PUSH0 DUP1 REVERT JUMPDEST PUSH0 DUP1 REVERT JUMPDEST PUSH0 DUP1 REVERT JUMPDEST PUSH0 PUSH1 0x1F NOT PUSH1 0x1F DUP4 ADD AND SWAP1 POP SWAP2 SWAP1 POP JUMP JUMPDEST PUSH32 0x4E487B7100000000000000000000000000000000000000000000000000000000 PUSH0 MSTORE PUSH1 0x41 PUSH1 0x4 MSTORE PUSH1 0x24 PUSH0 REVERT JUMPDEST PUSH2 0x116 DUP3 PUSH2 0xD0 JUMP JUMPDEST DUP2 ADD DUP2 DUP2 LT PUSH8 0xFFFFFFFFFFFFFFFF DUP3 GT OR ISZERO PUSH2 0x135 JUMPI PUSH2 0x134 PUSH2 0xE0 JUMP JUMPDEST JUMPDEST DUP1 PUSH1 0x40 MSTORE POP POP POP JUMP JUMPDEST PUSH0 PUSH2 0x147 PUSH2 0xB7 JUMP JUMPDEST SWAP1 POP PUSH2 0x153 DUP3 DUP3 PUSH2 0x10D JUMP JUMPDEST SWAP2 SWAP1 POP JUMP JUMPDEST PUSH0 PUSH8 0xFFFFFFFFFFFFFFFF DUP3 GT ISZERO PUSH2 0x172 JUMPI PUSH2 0x171 PUSH2 0xE0 JUMP JUMPDEST JUMPDEST PUSH2 0x17B DUP3 PUSH2 0xD0 JUMP JUMPDEST SWAP1 POP PUSH1 0x20 DUP2 ADD SWAP1 POP SWAP2 SWAP1 POP JUMP JUMPDEST DUP3 DUP2 DUP4 MCOPY PUSH0 DUP4 DUP4 ADD MSTORE POP POP POP JUMP JUMPDEST PUSH0 PUSH2 0x1A8 PUSH2 0x1A3 DUP5 PUSH2 0x158 JUMP JUMPDEST PUSH2 0x13E JUMP JUMPDEST SWAP1 POP DUP3 DUP2 MSTORE PUSH1 0x20 DUP2 ADD DUP5 DUP5 DUP5 ADD GT ISZERO PUSH2 0x1C4 JUMPI PUSH2 0x1C3 PUSH2 0xCC JUMP JUMPDEST JUMPDEST PUSH2 0x1CF DUP5 DUP3 DUP6 PUSH2 0x188 JUMP JUMPDEST POP SWAP4 SWAP3 POP POP POP JUMP JUMPDEST PUSH0 DUP3 PUSH1 0x1F DUP4 ADD SLT PUSH2 0x1EB JUMPI PUSH2 0x1EA PUSH2 0xC8 JUMP JUMPDEST JUMPDEST DUP2 MLOAD PUSH2 0x1FB DUP5 DUP3 PUSH1 0x20 DUP7 ADD PUSH2 0x196 JUMP JUMPDEST SWAP2 POP POP SWAP3 SWAP2 POP POP JUMP JUMPDEST PUSH0 DUP2 SWAP1 POP SWAP2 SWAP1 POP JUMP JUMPDEST PUSH2 0x216 DUP2 PUSH2 0x204 JUMP JUMPDEST DUP2 EQ PUSH2 0x220 JUMPI PUSH0 DUP1 REVERT JUMPDEST POP JUMP JUMPDEST PUSH0 DUP2 MLOAD SWAP1 POP PUSH2 0x231 DUP2 PUSH2 0x20D JUMP JUMPDEST SWAP3 SWAP2 POP POP JUMP JUMPDEST PUSH0 DUP1 PUSH0 DUP1 PUSH0 DUP1 PUSH0 PUSH1 0xE0 DUP9 DUP11 SUB SLT ISZERO PUSH2 0x252 JUMPI PUSH2 0x251 PUSH2 0xC0 JUMP JUMPDEST JUMPDEST PUSH0 DUP9 ADD MLOAD PUSH8 0xFFFFFFFFFFFFFFFF DUP2 GT ISZERO PUSH2 0x26F JUMPI PUSH2 0x26E PUSH2 0xC4 JUMP JUMPDEST JUMPDEST PUSH2 0x27B DUP11 DUP3 DUP12 ADD PUSH2 0x1D7 JUMP JUMPDEST SWAP8 POP POP PUSH1 0x20 DUP9 ADD MLOAD PUSH8 0xFFFFFFFFFFFFFFFF DUP2 GT ISZERO PUSH2 0x29C JUMPI PUSH2 0x29B PUSH2 0xC4 JUMP JUMPDEST JUMPDEST PUSH2 0x2A8 DUP11 DUP3 DUP12 ADD PUSH2 0x1D7 JUMP JUMPDEST SWAP7 POP POP PUSH1 0x40 DUP9 ADD MLOAD PUSH8 0xFFFFFFFFFFFFFFFF DUP2 GT ISZERO PUSH2 0x2C9 JUMPI PUSH2 0x2C8 PUSH2 0xC4 JUMP JUMPDEST JUMPDEST PUSH2 0x2D5 DUP11 DUP3 DUP12 ADD PUSH2 0x1D7 JUMP JUMPDEST SWAP6 POP POP PUSH1 0x60 DUP9 ADD MLOAD PUSH8 0xFFFFFFFFFFFFFFFF DUP2 GT ISZERO PUSH2 0x2F6 JUMPI PUSH2 0x2F5 PUSH2 0xC4 JUMP JUMPDEST JUMPDEST PUSH2 0x302 DUP11 DUP3 DUP12 ADD PUSH2 0x1D7 JUMP JUMPDEST SWAP5 POP POP PUSH1 0x80 DUP9 ADD MLOAD PUSH8 0xFFFFFFFFFFFFFFFF DUP2 GT ISZERO PUSH2 0x323 JUMPI PUSH2 0x322 PUSH2 0xC4 JUMP JUMPDEST JUMPDEST PUSH2 0x32F DUP11 DUP3 DUP12 ADD PUSH2 0x1D7 JUMP JUMPDEST SWAP4 POP POP PUSH1 0xA0 DUP9 ADD MLOAD PUSH8 0xFFFFFFFFFFFFFFFF DUP2 GT ISZERO PUSH2 0x350 JUMPI PUSH2 0x34F PUSH2 0xC4 JUMP JUMPDEST JUMPDEST PUSH2 0x35C DUP11 DUP3 DUP12 ADD PUSH2 0x1D7 JUMP JUMPDEST SWAP3 POP POP PUSH1 0xC0 PUSH2 0x36D DUP11 DUP3 DUP12 ADD PUSH2 0x223 JUMP JUMPDEST SWAP2 POP POP SWAP3 SWAP6 SWAP9 SWAP2 SWAP5 SWAP8 POP SWAP3 SWAP6 POP JUMP JUMPDEST PUSH0 DUP2 MLOAD SWAP1 POP SWAP2 SWAP1 POP JUMP JUMPDEST PUSH32 0x4E487B7100000000000000000000000000000000000000000000000000000000 PUSH0 MSTORE PUSH1 0x22 PUSH1 0x4 MSTORE PUSH1 0x24 PUSH0 REVERT JUMPDEST PUSH0 PUSH1 0x2 DUP3 DIV SWAP1 POP PUSH1 0x1 DUP3 AND DUP1 PUSH2 0x3CA JUMPI PUSH1 0x7F DUP3 AND SWAP2 POP JUMPDEST PUSH1 0x20 DUP3 LT DUP2 SUB PUSH2 0x3DD JUMPI PUSH2 0x3DC PUSH2 0x386 JUMP JUMPDEST JUMPDEST POP SWAP2 SWAP1 POP JUMP JUMPDEST PUSH0 DUP2 SWAP1 POP DUP2 PUSH0 MSTORE PUSH1 0x20 PUSH0 KECCAK256 SWAP1 POP SWAP2 SWAP1 POP JUMP JUMPDEST PUSH0 PUSH1 0x20 PUSH1 0x1F DUP4 ADD DIV SWAP1 POP SWAP2 SWAP1 POP JUMP JUMPDEST PUSH0 DUP3 DUP3 SHL SWAP1 POP SWAP3 SWAP2 POP POP JUMP JUMPDEST PUSH0 PUSH1 0x8 DUP4 MUL PUSH2 0x43F PUSH32 0xFFFFFFFFFFFFFFFFFFFFFFFFFFFFFFFFFFFFFFFFFFFFFFFFFFFFFFFFFFFFFFFF DUP3 PUSH2 0x404 JUMP JUMPDEST PUSH2 0x449 DUP7 DUP4 PUSH2 0x404 JUMP JUMPDEST SWAP6 POP DUP1 NOT DUP5 AND SWAP4 POP DUP1 DUP7 AND DUP5 OR SWAP3 POP POP POP SWAP4 SWAP3 POP POP POP JUMP JUMPDEST PUSH0 DUP2 SWAP1 POP SWAP2 SWAP1 POP JUMP JUMPDEST PUSH0 PUSH2 0x484 PUSH2 0x47F PUSH2 0x47A DUP5 PUSH2 0x204 JUMP JUMPDEST PUSH2 0x461 JUMP JUMPDEST PUSH2 0x204 JUMP JUMPDEST SWAP1 POP SWAP2 SWAP1 POP JUMP JUMPDEST PUSH0 DUP2 SWAP1 POP SWAP2 SWAP1 POP JUMP JUMPDEST PUSH2 0x49D DUP4 PUSH2 0x46A JUMP JUMPDEST PUSH2 0x4B1 PUSH2 0x4A9 DUP3 PUSH2 0x48B JUMP JUMPDEST DUP5 DUP5 SLOAD PUSH2 0x410 JUMP JUMPDEST DUP3 SSTORE POP POP POP POP JUMP JUMPDEST PUSH0 SWAP1 JUMP JUMPDEST PUSH2 0x4C5 PUSH2 0x4B9 JUMP JUMPDEST PUSH2 0x4D0 DUP2 DUP5 DUP5 PUSH2 0x494 JUMP JUMPDEST POP POP POP JUMP JUMPDEST JUMPDEST DUP2 DUP2 LT ISZERO PUSH2 0x4F3 JUMPI PUSH2 0x4E8 PUSH0 DUP3 PUSH2 0x4BD JUMP JUMPDEST PUSH1 0x1 DUP2 ADD SWAP1 POP PUSH2 0x4D6 JUMP JUMPDEST POP POP JUMP JUMPDEST PUSH1 0x1F DUP3 GT ISZERO PUSH2 0x538 JUMPI PUSH2 0x509 DUP2 PUSH2 0x3E3 JUMP JUMPDEST PUSH2 0x512 DUP5 PUSH2 0x3F5 JUMP JUMPDEST DUP2 ADD PUSH1 0x20 DUP6 LT ISZERO PUSH2 0x521 JUMPI DUP2 SWAP1 POP JUMPDEST PUSH2 0x535 PUSH2 0x52D DUP6 PUSH2 0x3F5 JUMP JUMPDEST DUP4 ADD DUP3 PUSH2 0x4D5 JUMP JUMPDEST POP POP JUMPDEST POP POP POP JUMP JUMPDEST PUSH0 DUP3 DUP3 SHR SWAP1 POP SWAP3 SWAP2 POP POP JUMP JUMPDEST PUSH0 PUSH2 0x558 PUSH0 NOT DUP5 PUSH1 0x8 MUL PUSH2 0x53D JUMP JUMPDEST NOT DUP1 DUP4 AND SWAP2 POP POP SWAP3 SWAP2 POP POP JUMP JUMPDEST PUSH0 PUSH2 0x570 DUP4 DUP4 PUSH2 0x549 JUMP JUMPDEST SWAP2 POP DUP3 PUSH1 0x2 MUL DUP3 OR SWAP1 POP SWAP3 SWAP2 POP POP JUMP JUMPDEST PUSH2 0x589 DUP3 PUSH2 0x37C JUMP JUMPDEST PUSH8 0xFFFFFFFFFFFFFFFF DUP2 GT ISZERO PUSH2 0x5A2 JUMPI PUSH2 0x5A1 PUSH2 0xE0 JUMP JUMPDEST JUMPDEST PUSH2 0x5AC DUP3 SLOAD PUSH2 0x3B3 JUMP JUMPDEST PUSH2 0x5B7 DUP3 DUP3 DUP6 PUSH2 0x4F7 JUMP JUMPDEST PUSH0 PUSH1 0x20 SWAP1 POP PUSH1 0x1F DUP4 GT PUSH1 0x1 DUP2 EQ PUSH2 0x5E8 JUMPI PUSH0 DUP5 ISZERO PUSH2 0x5D6 JUMPI DUP3 DUP8 ADD MLOAD SWAP1 POP JUMPDEST PUSH2 0x5E0 DUP6 DUP3 PUSH2 0x565 JUMP JUMPDEST DUP7 SSTORE POP PUSH2 0x647 JUMP JUMPDEST PUSH1 0x1F NOT DUP5 AND PUSH2 0x5F6 DUP7 PUSH2 0x3E3 JUMP JUMPDEST PUSH0 JUMPDEST DUP3 DUP2 LT ISZERO PUSH2 0x61D JUMPI DUP5 DUP10 ADD MLOAD DUP3 SSTORE PUSH1 0x1 DUP3 ADD SWAP2 POP PUSH1 0x20 DUP6 ADD SWAP5 POP PUSH1 0x20 DUP2 ADD SWAP1 POP PUSH2 0x5F8 JUMP JUMPDEST DUP7 DUP4 LT ISZERO PUSH2 0x63A JUMPI DUP5 DUP10 ADD MLOAD PUSH2 0x636 PUSH1 0x1F DUP10 AND DUP3 PUSH2 0x549 JUMP JUMPDEST DUP4 SSTORE POP JUMPDEST PUSH1 0x1 PUSH1 0x2 DUP9 MUL ADD DUP9 SSTORE POP POP POP JUMPDEST POP POP POP POP POP POP JUMP JUMPDEST PUSH2 0x1520 DUP1 PUSH2 0x65C PUSH0 CODECOPY PUSH0 RETURN INVALID PUSH1 0x80 PUSH1 0x40 MSTORE CALLVALUE DUP1 ISZERO PUSH2 0xF JUMPI PUSH0 DUP1 REVERT JUMPDEST POP PUSH1 0x4 CALLDATASIZE LT PUSH2 0xA7 JUMPI PUSH0 CALLDATALOAD PUSH1 0xE0 SHR DUP1 PUSH4 0x8DFD3B18 GT PUSH2 0x6F JUMPI DUP1 PUSH4 0x8DFD3B18 EQ PUSH2 0x140 JUMPI DUP1 PUSH4 0x9AA7CF76 EQ PUSH2 0x15E JUMPI DUP1 PUSH4 0xB508BA31 EQ PUSH2 0x17C JUMPI DUP1 PUSH4 0xB975ABB3 EQ PUSH2 0x19A JUMPI DUP1 PUSH4 0xCEB63C76 EQ PUSH2 0x1B8 JUMPI DUP1 PUSH4 0xEB96548F EQ PUSH2 0x1D7 JUMPI PUSH2 0xA7 JUMP JUMPDEST DUP1 PUSH4 0xC1B7C1E EQ PUSH2 0xAB JUMPI DUP1 PUSH4 0x3C84C5A5 EQ PUSH2 0xCA JUMPI DUP1 PUSH4 0x6EF9A278 EQ PUSH2 0xE8 JUMPI DUP1 PUSH4 0x70D1F986 EQ PUSH2 0x106 JUMPI DUP1 PUSH4 0x735F5AEC EQ PUSH2 0x124 JUMPI JUMPDEST PUSH0 DUP1 REVERT JUMPDEST PUSH2 0xB3 PUSH2 0x1F5 JUMP JUMPDEST PUSH1 0x40 MLOAD PUSH2 0xC1 SWAP3 SWAP2 SWAP1 PUSH2 0x9E4 JUMP JUMPDEST PUSH1 0x40 MLOAD DUP1 SWAP2 SUB SWAP1 RETURN JUMPDEST PUSH2 0xD2 PUSH2 0x318 JUMP JUMPDEST PUSH1 0x40 MLOAD PUSH2 0xDF SWAP2 SWAP1 PUSH2 0xA31 JUMP JUMPDEST PUSH1 0x40 MLOAD DUP1 SWAP2 SUB SWAP1 RETURN JUMPDEST PUSH2 0xF0 PUSH2 0x31E JUMP JUMPDEST PUSH1 0x40 MLOAD PUSH2 0xFD SWAP2 SWAP1 PUSH2 0xA4A JUMP JUMPDEST PUSH1 0x40 MLOAD DUP1 SWAP2 SUB SWAP1 RETURN JUMPDEST PUSH2 0x10E PUSH2 0x3AA JUMP JUMPDEST PUSH1 0x40 MLOAD PUSH2 0x11B SWAP2 SWAP1 PUSH2 0xA4A JUMP JUMPDEST PUSH1 0x40 MLOAD DUP1 SWAP2 SUB SWAP1 RETURN JUMPDEST PUSH2 0x13E PUSH1 0x4 DUP1 CALLDATASIZE SUB DUP2 ADD SWAP1 PUSH2 0x139 SWAP2 SWAP1 PUSH2 0xBA7 JUMP JUMPDEST PUSH2 0x3FB JUMP JUMPDEST STOP JUMPDEST PUSH2 0x148 PUSH2 0x41E JUMP JUMPDEST PUSH1 0x40 MLOAD PUSH2 0x155 SWAP2 SWAP1 PUSH2 0xA4A JUMP JUMPDEST PUSH1 0x40 MLOAD DUP1 SWAP2 SUB SWAP1 RETURN JUMPDEST PUSH2 0x166 PUSH2 0x4AA JUMP JUMPDEST PUSH1 0x40 MLOAD PUSH2 0x173 SWAP2 SWAP1 PUSH2 0xA4A JUMP JUMPDEST PUSH1 0x40 MLOAD DUP1 SWAP2 SUB SWAP1 RETURN JUMPDEST PUSH2 0x184 PUSH2 0x536 JUMP JUMPDEST PUSH1 0x40 MLOAD PUSH2 0x191 SWAP2 SWAP1 PUSH2 0xA4A JUMP JUMPDEST PUSH1 0x40 MLOAD DUP1 SWAP2 SUB SWAP1 RETURN JUMPDEST PUSH2 0x1A2 PUSH2 0x5C2 JUMP JUMPDEST PUSH1 0x40 MLOAD PUSH2 0x1AF SWAP2 SWAP1 PUSH2 0xA4A JUMP JUMPDEST PUSH1 0x40 MLOAD DUP1 SWAP2 SUB SWAP1 RETURN JUMPDEST PUSH2 0x1C0 PUSH2 0x64D JUMP JUMPDEST PUSH1 0x40 MLOAD PUSH2 0x1CE SWAP3 SWAP2 SWAP1 PUSH2 0x9E4 JUMP JUMPDEST PUSH1 0x40 MLOAD DUP1 SWAP2 SUB SWAP1 RETURN JUMPDEST PUSH2 0x1DF PUSH2 0x76F JUMP JUMPDEST PUSH1 0x40 MLOAD PUSH2 0x1EC SWAP2 SWAP1 PUSH2 0xA4A JUMP JUMPDEST PUSH1 0x40 MLOAD DUP1 SWAP2 SUB SWAP1 RETURN JUMPDEST PUSH1 0x60 DUP1 PUSH1 0x2 PUSH1 0x3 DUP2 DUP1 SLOAD PUSH2 0x208 SWAP1 PUSH2 0xC4A JUMP JUMPDEST DUP1 PUSH1 0x1F ADD PUSH1 0x20 DUP1 SWAP2 DIV MUL PUSH1 0x20 ADD PUSH1 0x40 MLOAD SWAP1 DUP2 ADD PUSH1 0x40 MSTORE DUP1 SWAP3 SWAP2 SWAP1 DUP2 DUP2 MSTORE PUSH1 0x20 ADD DUP3 DUP1 SLOAD PUSH2 0x234 SWAP1 PUSH2 0xC4A JUMP JUMPDEST DUP1 ISZERO PUSH2 0x27F JUMPI DUP1 PUSH1 0x1F LT PUSH2 0x256 JUMPI PUSH2 0x100 DUP1 DUP4 SLOAD DIV MUL DUP4 MSTORE SWAP2 PUSH1 0x20 ADD SWAP2 PUSH2 0x27F JUMP JUMPDEST DUP3 ADD SWAP2 SWAP1 PUSH0 MSTORE PUSH1 0x20 PUSH0 KECCAK256 SWAP1 JUMPDEST DUP2 SLOAD DUP2 MSTORE SWAP1 PUSH1 0x1 ADD SWAP1 PUSH1 0x20 ADD DUP1 DUP4 GT PUSH2 0x262 JUMPI DUP3 SWAP1 SUB PUSH1 0x1F AND DUP3 ADD SWAP2 JUMPDEST POP POP POP POP POP SWAP2 POP DUP1 DUP1 SLOAD PUSH2 0x292 SWAP1 PUSH2 0xC4A JUMP JUMPDEST DUP1 PUSH1 0x1F ADD PUSH1 0x20 DUP1 SWAP2 DIV MUL PUSH1 0x20 ADD PUSH1 0x40 MLOAD SWAP1 DUP2 ADD PUSH1 0x40 MSTORE DUP1 SWAP3 SWAP2 SWAP1 DUP2 DUP2 MSTORE PUSH1 0x20 ADD DUP3 DUP1 SLOAD PUSH2 0x2BE SWAP1 PUSH2 0xC4A JUMP JUMPDEST DUP1 ISZERO PUSH2 0x309 JUMPI DUP1 PUSH1 0x1F LT PUSH2 0x2E0 JUMPI PUSH2 0x100 DUP1 DUP4 SLOAD DIV MUL DUP4 MSTORE SWAP2 PUSH1 0x20 ADD SWAP2 PUSH2 0x309 JUMP JUMPDEST DUP3 ADD SWAP2 SWAP1 PUSH0 MSTORE PUSH1 0x20 PUSH0 KECCAK256 SWAP1 JUMPDEST DUP2 SLOAD DUP2 MSTORE SWAP1 PUSH1 0x1 ADD SWAP1 PUSH1 0x20 ADD DUP1 DUP4 GT PUSH2 0x2EC JUMPI DUP3 SWAP1 SUB PUSH1 0x1F AND DUP3 ADD SWAP2 JUMPDEST POP POP POP POP POP SWAP1 POP SWAP2 POP SWAP2 POP SWAP1 SWAP2 JUMP JUMPDEST PUSH1 0x6 SLOAD DUP2 JUMP JUMPDEST PUSH1 0x5 DUP1 SLOAD PUSH2 0x32B SWAP1 PUSH2 0xC4A JUMP JUMPDEST DUP1 PUSH1 0x1F ADD PUSH1 0x20 DUP1 SWAP2 DIV MUL PUSH1 0x20 ADD PUSH1 0x40 MLOAD SWAP1 DUP2 ADD PUSH1 0x40 MSTORE DUP1 SWAP3 SWAP2 SWAP1 DUP2 DUP2 MSTORE PUSH1 0x20 ADD DUP3 DUP1 SLOAD PUSH2 0x357 SWAP1 PUSH2 0xC4A JUMP JUMPDEST DUP1 ISZERO PUSH2 0x3A2 JUMPI DUP1 PUSH1 0x1F LT PUSH2 0x379 JUMPI PUSH2 0x100 DUP1 DUP4 SLOAD DIV MUL DUP4 MSTORE SWAP2 PUSH1 0x20 ADD SWAP2 PUSH2 0x3A2 JUMP JUMPDEST DUP3 ADD SWAP2 SWAP1 PUSH0 MSTORE PUSH1 0x20 PUSH0 KECCAK256 SWAP1 JUMPDEST DUP2 SLOAD DUP2 MSTORE SWAP1 PUSH1 0x1 ADD SWAP1 PUSH1 0x20 ADD DUP1 DUP4 GT PUSH2 0x385 JUMPI DUP3 SWAP1 SUB PUSH1 0x1F AND DUP3 ADD SWAP2 JUMPDEST POP POP POP POP POP DUP2 JUMP JUMPDEST PUSH1 0x60 PUSH0 DUP1 PUSH2 0x3B6 PUSH2 0x64D JUMP JUMPDEST SWAP2 POP SWAP2 POP PUSH1 0x2 PUSH1 0x3 DUP4 DUP4 PUSH1 0x4 PUSH1 0x5 PUSH2 0x3CF PUSH1 0x6 SLOAD PUSH2 0x7FB JUMP JUMPDEST PUSH1 0x40 MLOAD PUSH1 0x20 ADD PUSH2 0x3E5 SWAP8 SWAP7 SWAP6 SWAP5 SWAP4 SWAP3 SWAP2 SWAP1 PUSH2 0xFE0 JUMP JUMPDEST PUSH1 0x40 MLOAD PUSH1 0x20 DUP2 DUP4 SUB SUB DUP2 MSTORE SWAP1 PUSH1 0x40 MSTORE SWAP3 POP POP POP SWAP1 JUMP JUMPDEST DUP2 PUSH0 SWAP1 DUP2 PUSH2 0x409 SWAP2 SWAP1 PUSH2 0x1269 JUMP JUMPDEST POP DUP1 PUSH1 0x1 SWAP1 DUP2 PUSH2 0x419 SWAP2 SWAP1 PUSH2 0x1269 JUMP JUMPDEST POP POP POP JUMP JUMPDEST PUSH1 0x3 DUP1 SLOAD PUSH2 0x42B SWAP1 PUSH2 0xC4A JUMP JUMPDEST DUP1 PUSH1 0x1F ADD PUSH1 0x20 DUP1 SWAP2 DIV MUL PUSH1 0x20 ADD PUSH1 0x40 MLOAD SWAP1 DUP2 ADD PUSH1 0x40 MSTORE DUP1 SWAP3 SWAP2 SWAP1 DUP2 DUP2 MSTORE PUSH1 0x20 ADD DUP3 DUP1 SLOAD PUSH2 0x457 SWAP1 PUSH2 0xC4A JUMP JUMPDEST DUP1 ISZERO PUSH2 0x4A2 JUMPI DUP1 PUSH1 0x1F LT PUSH2 0x479 JUMPI PUSH2 0x100 DUP1 DUP4 SLOAD DIV MUL DUP4 MSTORE SWAP2 PUSH1 0x20 ADD SWAP2 PUSH2 0x4A2 JUMP JUMPDEST DUP3 ADD SWAP2 SWAP1 PUSH0 MSTORE PUSH1 0x20 PUSH0 KECCAK256 SWAP1 JUMPDEST DUP2 SLOAD DUP2 MSTORE SWAP1 PUSH1 0x1 ADD SWAP1 PUSH1 0x20 ADD DUP1 DUP4 GT PUSH2 0x485 JUMPI DUP3 SWAP1 SUB PUSH1 0x1F AND DUP3 ADD SWAP2 JUMPDEST POP POP POP POP POP DUP2 JUMP JUMPDEST PUSH1 0x2 DUP1 SLOAD PUSH2 0x4B7 SWAP1 PUSH2 0xC4A JUMP JUMPDEST DUP1 PUSH1 0x1F ADD PUSH1 0x20 DUP1 SWAP2 DIV MUL PUSH1 0x20 ADD PUSH1 0x40 MLOAD SWAP1 DUP2 ADD PUSH1 0x40 MSTORE DUP1 SWAP3 SWAP2 SWAP1 DUP2 DUP2 MSTORE PUSH1 0x20 ADD DUP3 DUP1 SLOAD PUSH2 0x4E3 SWAP1 PUSH2 0xC4A JUMP JUMPDEST DUP1 ISZERO PUSH2 0x52E JUMPI DUP1 PUSH1 0x1F LT PUSH2 0x505 JUMPI PUSH2 0x100 DUP1 DUP4 SLOAD DIV MUL DUP4 MSTORE SWAP2 PUSH1 0x20 ADD SWAP2 PUSH2 0x52E JUMP JUMPDEST DUP3 ADD SWAP2 SWAP1 PUSH0 MSTORE PUSH1 0x20 PUSH0 KECCAK256 SWAP1 JUMPDEST DUP2 SLOAD DUP2 MSTORE SWAP1 PUSH1 0x1 ADD SWAP1 PUSH1 0x20 ADD DUP1 DUP4 GT PUSH2 0x511 JUMPI DUP3 SWAP1 SUB PUSH1 0x1F AND DUP3 ADD SWAP2 JUMPDEST POP POP POP POP POP DUP2 JUMP JUMPDEST PUSH1 0x4 DUP1 SLOAD PUSH2 0x543 SWAP1 PUSH2 0xC4A JUMP JUMPDEST DUP1 PUSH1 0x1F ADD PUSH1 0x20 DUP1 SWAP2 DIV MUL PUSH1 0x20 ADD PUSH1 0x40 MLOAD SWAP1 DUP2 ADD PUSH1 0x40 MSTORE DUP1 SWAP3 SWAP2 SWAP1 DUP2 DUP2 MSTORE PUSH1 0x20 ADD DUP3 DUP1 SLOAD PUSH2 0x56F SWAP1 PUSH2 0xC4A JUMP JUMPDEST DUP1 ISZERO PUSH2 0x5BA JUMPI DUP1 PUSH1 0x1F LT PUSH2 0x591 JUMPI PUSH2 0x100 DUP1 DUP4 SLOAD DIV MUL DUP4 MSTORE SWAP2 PUSH1 0x20 ADD SWAP2 PUSH2 0x5BA JUMP JUMPDEST DUP3 ADD SWAP2 SWAP1 PUSH0 MSTORE PUSH1 0x20 PUSH0 KECCAK256 SWAP1 JUMPDEST DUP2 SLOAD DUP2 MSTORE SWAP1 PUSH1 0x1 ADD SWAP1 PUSH1 0x20 ADD DUP1 DUP4 GT PUSH2 0x59D JUMPI DUP3 SWAP1 SUB PUSH1 0x1F AND DUP3 ADD SWAP2 JUMPDEST POP POP POP POP POP DUP2 JUMP JUMPDEST PUSH0 DUP1 SLOAD PUSH2 0x5CE SWAP1 PUSH2 0xC4A JUMP JUMPDEST DUP1 PUSH1 0x1F ADD PUSH1 0x20 DUP1 SWAP2 DIV MUL PUSH1 0x20 ADD PUSH1 0x40 MLOAD SWAP1 DUP2 ADD PUSH1 0x40 MSTORE DUP1 SWAP3 SWAP2 SWAP1 DUP2 DUP2 MSTORE PUSH1 0x20 ADD DUP3 DUP1 SLOAD PUSH2 0x5FA SWAP1 PUSH2 0xC4A JUMP JUMPDEST DUP1 ISZERO PUSH2 0x645 JUMPI DUP1 PUSH1 0x1F LT PUSH2 0x61C JUMPI PUSH2 0x100 DUP1 DUP4 SLOAD DIV MUL DUP4 MSTORE SWAP2 PUSH1 0x20 ADD SWAP2 PUSH2 0x645 JUMP JUMPDEST DUP3 ADD SWAP2 SWAP1 PUSH0 MSTORE PUSH1 0x20 PUSH0 KECCAK256 SWAP1 JUMPDEST DUP2 SLOAD DUP2 MSTORE SWAP1 PUSH1 0x1 ADD SWAP1 PUSH1 0x20 ADD DUP1 DUP4 GT PUSH2 0x628 JUMPI DUP3 SWAP1 SUB PUSH1 0x1F AND DUP3 ADD SWAP2 JUMPDEST POP POP POP POP POP DUP2 JUMP JUMPDEST PUSH1 0x60 DUP1 PUSH0 PUSH1 0x1 DUP2 DUP1 SLOAD PUSH2 0x65F SWAP1 PUSH2 0xC4A JUMP JUMPDEST DUP1 PUSH1 0x1F ADD PUSH1 0x20 DUP1 SWAP2 DIV MUL PUSH1 0x20 ADD PUSH1 0x40 MLOAD SWAP1 DUP2 ADD PUSH1 0x40 MSTORE DUP1 SWAP3 SWAP2 SWAP1 DUP2 DUP2 MSTORE PUSH1 0x20 ADD DUP3 DUP1 SLOAD PUSH2 0x68B SWAP1 PUSH2 0xC4A JUMP JUMPDEST DUP1 ISZERO PUSH2 0x6D6 JUMPI DUP1 PUSH1 0x1F LT PUSH2 0x6AD JUMPI PUSH2 0x100 DUP1 DUP4 SLOAD DIV MUL DUP4 MSTORE SWAP2 PUSH1 0x20 ADD SWAP2 PUSH2 0x6D6 JUMP JUMPDEST DUP3 ADD SWAP2 SWAP1 PUSH0 MSTORE PUSH1 0x20 PUSH0 KECCAK256 SWAP1 JUMPDEST DUP2 SLOAD DUP2 MSTORE SWAP1 PUSH1 0x1 ADD SWAP1 PUSH1 0x20 ADD DUP1 DUP4 GT PUSH2 0x6B9 JUMPI DUP3 SWAP1 SUB PUSH1 0x1F AND DUP3 ADD SWAP2 JUMPDEST POP POP POP POP POP SWAP2 POP DUP1 DUP1 SLOAD PUSH2 0x6E9 SWAP1 PUSH2 0xC4A JUMP JUMPDEST DUP1 PUSH1 0x1F ADD PUSH1 0x20 DUP1 SWAP2 DIV MUL PUSH1 0x20 ADD PUSH1 0x40 MLOAD SWAP1 DUP2 ADD PUSH1 0x40 MSTORE DUP1 SWAP3 SWAP2 SWAP1 DUP2 DUP2 MSTORE PUSH1 0x20 ADD DUP3 DUP1 SLOAD PUSH2 0x715 SWAP1 PUSH2 0xC4A JUMP JUMPDEST DUP1 ISZERO PUSH2 0x760 JUMPI DUP1 PUSH1 0x1F LT PUSH2 0x737 JUMPI PUSH2 0x100 DUP1 DUP4 SLOAD DIV MUL DUP4 MSTORE SWAP2 PUSH1 0x20 ADD SWAP2 PUSH2 0x760 JUMP JUMPDEST DUP3 ADD SWAP2 SWAP1 PUSH0 MSTORE PUSH1 0x20 PUSH0 KECCAK256 SWAP1 JUMPDEST DUP2 SLOAD DUP2 MSTORE SWAP1 PUSH1 0x1 ADD SWAP1 PUSH1 0x20 ADD DUP1 DUP4 GT PUSH2 0x743 JUMPI DUP3 SWAP1 SUB PUSH1 0x1F AND DUP3 ADD SWAP2 JUMPDEST POP POP POP POP POP SWAP1 POP SWAP2 POP SWAP2 POP SWAP1 SWAP2 JUMP JUMPDEST PUSH1 0x1 DUP1 SLOAD PUSH2 0x77C SWAP1 PUSH2 0xC4A JUMP JUMPDEST DUP1 PUSH1 0x1F ADD PUSH1 0x20 DUP1 SWAP2 DIV MUL PUSH1 0x20 ADD PUSH1 0x40 MLOAD SWAP1 DUP2 ADD PUSH1 0x40 MSTORE DUP1 SWAP3 SWAP2 SWAP1 DUP2 DUP2 MSTORE PUSH1 0x20 ADD DUP3 DUP1 SLOAD PUSH2 0x7A8 SWAP1 PUSH2 0xC4A JUMP JUMPDEST DUP1 ISZERO PUSH2 0x7F3 JUMPI DUP1 PUSH1 0x1F LT PUSH2 0x7CA JUMPI PUSH2 0x100 DUP1 DUP4 SLOAD DIV MUL DUP4 MSTORE SWAP2 PUSH1 0x20 ADD SWAP2 PUSH2 0x7F3 JUMP JUMPDEST DUP3 ADD SWAP2 SWAP1 PUSH0 MSTORE PUSH1 0x20 PUSH0 KECCAK256 SWAP1 JUMPDEST DUP2 SLOAD DUP2 MSTORE SWAP1 PUSH1 0x1 ADD SWAP1 PUSH1 0x20 ADD DUP1 DUP4 GT PUSH2 0x7D6 JUMPI DUP3 SWAP1 SUB PUSH1 0x1F AND DUP3 ADD SWAP2 JUMPDEST POP POP POP POP POP DUP2 JUMP JUMPDEST PUSH1 0x60 PUSH0 DUP3 SUB PUSH2 0x841 JUMPI PUSH1 0x40 MLOAD DUP1 PUSH1 0x40 ADD PUSH1 0x40 MSTORE DUP1 PUSH1 0x1 DUP2 MSTORE PUSH1 0x20 ADD PUSH32 0x3000000000000000000000000000000000000000000000000000000000000000 DUP2 MSTORE POP SWAP1 POP PUSH2 0x96F JUMP JUMPDEST PUSH0 DUP3 SWAP1 POP PUSH0 JUMPDEST PUSH0 DUP3 EQ PUSH2 0x870 JUMPI DUP1 DUP1 PUSH2 0x859 SWAP1 PUSH2 0x1365 JUMP JUMPDEST SWAP2 POP POP PUSH1 0xA DUP3 PUSH2 0x869 SWAP2 SWAP1 PUSH2 0x13D9 JUMP JUMPDEST SWAP2 POP PUSH2 0x847 JUMP JUMPDEST PUSH0 DUP2 PUSH8 0xFFFFFFFFFFFFFFFF DUP2 GT ISZERO PUSH2 0x88B JUMPI PUSH2 0x88A PUSH2 0xA83 JUMP JUMPDEST JUMPDEST PUSH1 0x40 MLOAD SWAP1 DUP1 DUP3 MSTORE DUP1 PUSH1 0x1F ADD PUSH1 0x1F NOT AND PUSH1 0x20 ADD DUP3 ADD PUSH1 0x40 MSTORE DUP1 ISZERO PUSH2 0x8BD JUMPI DUP2 PUSH1 0x20 ADD PUSH1 0x1 DUP3 MUL DUP1 CALLDATASIZE DUP4 CALLDATACOPY DUP1 DUP3 ADD SWAP2 POP POP SWAP1 POP JUMPDEST POP SWAP1 POP PUSH0 DUP3 SWAP1 POP JUMPDEST PUSH0 DUP7 EQ PUSH2 0x967 JUMPI PUSH1 0x1 DUP2 PUSH2 0x8D9 SWAP2 SWAP1 PUSH2 0x1409 JUMP JUMPDEST SWAP1 POP PUSH0 PUSH1 0xA DUP1 DUP9 PUSH2 0x8EA SWAP2 SWAP1 PUSH2 0x13D9 JUMP JUMPDEST PUSH2 0x8F4 SWAP2 SWAP1 PUSH2 0x143C JUMP JUMPDEST DUP8 PUSH2 0x8FF SWAP2 SWAP1 PUSH2 0x1409 JUMP JUMPDEST PUSH1 0x30 PUSH2 0x90B SWAP2 SWAP1 PUSH2 0x1489 JUMP JUMPDEST SWAP1 POP DUP1 PUSH1 0xF8 SHL DUP4 DUP4 DUP2 MLOAD DUP2 LT PUSH2 0x924 JUMPI PUSH2 0x923 PUSH2 0x14BD JUMP JUMPDEST JUMPDEST PUSH1 0x20 ADD ADD SWAP1 PUSH31 0xFFFFFFFFFFFFFFFFFFFFFFFFFFFFFFFFFFFFFFFFFFFFFFFFFFFFFFFFFFFFFF NOT AND SWAP1 DUP2 PUSH0 BYTE SWAP1 MSTORE8 POP PUSH1 0xA DUP8 PUSH2 0x95F SWAP2 SWAP1 PUSH2 0x13D9 JUMP JUMPDEST SWAP7 POP POP PUSH2 0x8C5 JUMP JUMPDEST DUP2 SWAP5 POP POP POP POP POP JUMPDEST SWAP2 SWAP1 POP JUMP JUMPDEST PUSH0 DUP2 MLOAD SWAP1 POP SWAP2 SWAP1 POP JUMP JUMPDEST PUSH0 DUP3 DUP3 MSTORE PUSH1 0x20 DUP3 ADD SWAP1 POP SWAP3 SWAP2 POP POP JUMP JUMPDEST DUP3 DUP2 DUP4 MCOPY PUSH0 DUP4 DUP4 ADD MSTORE POP POP POP JUMP JUMPDEST PUSH0 PUSH1 0x1F NOT PUSH1 0x1F DUP4 ADD AND SWAP1 POP SWAP2 SWAP1 POP JUMP JUMPDEST PUSH0 PUSH2 0x9B6 DUP3 PUSH2 0x974 JUMP JUMPDEST PUSH2 0x9C0 DUP2 DUP6 PUSH2 0x97E JUMP JUMPDEST SWAP4 POP PUSH2 0x9D0 DUP2 DUP6 PUSH1 0x20 DUP7 ADD PUSH2 0x98E JUMP JUMPDEST PUSH2 0x9D9 DUP2 PUSH2 0x99C JUMP JUMPDEST DUP5 ADD SWAP2 POP POP SWAP3 SWAP2 POP POP JUMP JUMPDEST PUSH0 PUSH1 0x40 DUP3 ADD SWAP1 POP DUP2 DUP2 SUB PUSH0 DUP4 ADD MSTORE PUSH2 0x9FC DUP2 DUP6 PUSH2 0x9AC JUMP JUMPDEST SWAP1 POP DUP2 DUP2 SUB PUSH1 0x20 DUP4 ADD MSTORE PUSH2 0xA10 DUP2 DUP5 PUSH2 0x9AC JUMP JUMPDEST SWAP1 POP SWAP4 SWAP3 POP POP POP JUMP JUMPDEST PUSH0 DUP2 SWAP1 POP SWAP2 SWAP1 POP JUMP JUMPDEST PUSH2 0xA2B DUP2 PUSH2 0xA19 JUMP JUMPDEST DUP3 MSTORE POP POP JUMP JUMPDEST PUSH0 PUSH1 0x20 DUP3 ADD SWAP1 POP PUSH2 0xA44 PUSH0 DUP4 ADD DUP5 PUSH2 0xA22 JUMP JUMPDEST SWAP3 SWAP2 POP POP JUMP JUMPDEST PUSH0 PUSH1 0x20 DUP3 ADD SWAP1 POP DUP2 DUP2 SUB PUSH0 DUP4 ADD MSTORE PUSH2 0xA62 DUP2 DUP5 PUSH2 0x9AC JUMP JUMPDEST SWAP1 POP SWAP3 SWAP2 POP POP JUMP JUMPDEST PUSH0 PUSH1 0x40 MLOAD SWAP1 POP SWAP1 JUMP JUMPDEST PUSH0 DUP1 REVERT JUMPDEST PUSH0 DUP1 REVERT JUMPDEST PUSH0 DUP1 REVERT JUMPDEST PUSH0 DUP1 REVERT JUMPDEST PUSH32 0x4E487B7100000000000000000000000000000000000000000000000000000000 PUSH0 MSTORE PUSH1 0x41 PUSH1 0x4 MSTORE PUSH1 0x24 PUSH0 REVERT JUMPDEST PUSH2 0xAB9 DUP3 PUSH2 0x99C JUMP JUMPDEST DUP2 ADD DUP2 DUP2 LT PUSH8 0xFFFFFFFFFFFFFFFF DUP3 GT OR ISZERO PUSH2 0xAD8 JUMPI PUSH2 0xAD7 PUSH2 0xA83 JUMP JUMPDEST JUMPDEST DUP1 PUSH1 0x40 MSTORE POP POP POP JUMP JUMPDEST PUSH0 PUSH2 0xAEA PUSH2 0xA6A JUMP JUMPDEST SWAP1 POP PUSH2 0xAF6 DUP3 DUP3 PUSH2 0xAB0 JUMP JUMPDEST SWAP2 SWAP1 POP JUMP JUMPDEST PUSH0 PUSH8 0xFFFFFFFFFFFFFFFF DUP3 GT ISZERO PUSH2 0xB15 JUMPI PUSH2 0xB14 PUSH2 0xA83 JUMP JUMPDEST JUMPDEST PUSH2 0xB1E DUP3 PUSH2 0x99C JUMP JUMPDEST SWAP1 POP PUSH1 0x20 DUP2 ADD SWAP1 POP SWAP2 SWAP1 POP JUMP JUMPDEST DUP3 DUP2 DUP4 CALLDATACOPY PUSH0 DUP4 DUP4 ADD MSTORE POP POP POP JUMP JUMPDEST PUSH0 PUSH2 0xB4B PUSH2 0xB46 DUP5 PUSH2 0xAFB JUMP JUMPDEST PUSH2 0xAE1 JUMP JUMPDEST SWAP1 POP DUP3 DUP2 MSTORE PUSH1 0x20 DUP2 ADD DUP5 DUP5 DUP5 ADD GT ISZERO PUSH2 0xB67 JUMPI PUSH2 0xB66 PUSH2 0xA7F JUMP JUMPDEST JUMPDEST PUSH2 0xB72 DUP5 DUP3 DUP6 PUSH2 0xB2B JUMP JUMPDEST POP SWAP4 SWAP3 POP POP POP JUMP JUMPDEST PUSH0 DUP3 PUSH1 0x1F DUP4 ADD SLT PUSH2 0xB8E JUMPI PUSH2 0xB8D PUSH2 0xA7B JUMP JUMPDEST JUMPDEST DUP2 CALLDATALOAD PUSH2 0xB9E DUP5 DUP3 PUSH1 0x20 DUP7 ADD PUSH2 0xB39 JUMP JUMPDEST SWAP2 POP POP SWAP3 SWAP2 POP POP JUMP JUMPDEST PUSH0 DUP1 PUSH1 0x40 DUP4 DUP6 SUB SLT ISZERO PUSH2 0xBBD JUMPI PUSH2 0xBBC PUSH2 0xA73 JUMP JUMPDEST JUMPDEST PUSH0 DUP4 ADD CALLDATALOAD PUSH8 0xFFFFFFFFFFFFFFFF DUP2 GT ISZERO PUSH2 0xBDA JUMPI PUSH2 0xBD9 PUSH2 0xA77 JUMP JUMPDEST JUMPDEST PUSH2 0xBE6 DUP6 DUP3 DUP7 ADD PUSH2 0xB7A JUMP JUMPDEST SWAP3 POP POP PUSH1 0x20 DUP4 ADD CALLDATALOAD PUSH8 0xFFFFFFFFFFFFFFFF DUP2 GT ISZERO PUSH2 0xC07 JUMPI PUSH2 0xC06 PUSH2 0xA77 JUMP JUMPDEST JUMPDEST PUSH2 0xC13 DUP6 DUP3 DUP7 ADD PUSH2 0xB7A JUMP JUMPDEST SWAP2 POP POP SWAP3 POP SWAP3 SWAP1 POP JUMP JUMPDEST PUSH32 0x4E487B7100000000000000000000000000000000000000000000000000000000 PUSH0 MSTORE PUSH1 0x22 PUSH1 0x4 MSTORE PUSH1 0x24 PUSH0 REVERT JUMPDEST PUSH0 PUSH1 0x2 DUP3 DIV SWAP1 POP PUSH1 0x1 DUP3 AND DUP1 PUSH2 0xC61 JUMPI PUSH1 0x7F DUP3 AND SWAP2 POP JUMPDEST PUSH1 0x20 DUP3 LT DUP2 SUB PUSH2 0xC74 JUMPI PUSH2 0xC73 PUSH2 0xC1D JUMP JUMPDEST JUMPDEST POP SWAP2 SWAP1 POP JUMP JUMPDEST PUSH0 DUP2 SWAP1 POP SWAP3 SWAP2 POP POP JUMP JUMPDEST PUSH32 0x53747564656E74205265706F727420436172640A000000000000000000000000 PUSH0 DUP3 ADD MSTORE POP JUMP JUMPDEST PUSH0 PUSH2 0xCB8 PUSH1 0x14 DUP4 PUSH2 0xC7A JUMP JUMPDEST SWAP2 POP PUSH2 0xCC3 DUP3 PUSH2 0xC84 JUMP JUMPDEST PUSH1 0x14 DUP3 ADD SWAP1 POP SWAP2 SWAP1 POP JUMP JUMPDEST PUSH32 0x436F6C6C656765204E616D653A20000000000000000000000000000000000000 PUSH0 DUP3 ADD MSTORE POP JUMP JUMPDEST PUSH0 PUSH2 0xD02 PUSH1 0xE DUP4 PUSH2 0xC7A JUMP JUMPDEST SWAP2 POP PUSH2 0xD0D DUP3 PUSH2 0xCCE JUMP JUMPDEST PUSH1 0xE DUP3 ADD SWAP1 POP SWAP2 SWAP1 POP JUMP JUMPDEST PUSH0 DUP2 SWAP1 POP DUP2 PUSH0 MSTORE PUSH1 0x20 PUSH0 KECCAK256 SWAP1 POP SWAP2 SWAP1 POP JUMP JUMPDEST PUSH0 DUP2 SLOAD PUSH2 0xD36 DUP2 PUSH2 0xC4A JUMP JUMPDEST PUSH2 0xD40 DUP2 DUP7 PUSH2 0xC7A JUMP JUMPDEST SWAP5 POP PUSH1 0x1 DUP3 AND PUSH0 DUP2 EQ PUSH2 0xD5A JUMPI PUSH1 0x1 DUP2 EQ PUSH2 0xD6F JUMPI PUSH2 0xDA1 JUMP JUMPDEST PUSH1 0xFF NOT DUP4 AND DUP7 MSTORE DUP2 ISZERO ISZERO DUP3 MUL DUP7 ADD SWAP4 POP PUSH2 0xDA1 JUMP JUMPDEST PUSH2 0xD78 DUP6 PUSH2 0xD18 JUMP JUMPDEST PUSH0 JUMPDEST DUP4 DUP2 LT ISZERO PUSH2 0xD99 JUMPI DUP2 SLOAD DUP2 DUP10 ADD MSTORE PUSH1 0x1 DUP3 ADD SWAP2 POP PUSH1 0x20 DUP2 ADD SWAP1 POP PUSH2 0xD7A JUMP JUMPDEST DUP4 DUP9 ADD SWAP6 POP POP POP JUMPDEST POP POP POP SWAP3 SWAP2 POP POP JUMP JUMPDEST PUSH32 0xA00000000000000000000000000000000000000000000000000000000000000 PUSH0 DUP3 ADD MSTORE POP JUMP JUMPDEST PUSH0 PUSH2 0xDDE PUSH1 0x1 DUP4 PUSH2 0xC7A JUMP JUMPDEST SWAP2 POP PUSH2 0xDE9 DUP3 PUSH2 0xDAA JUMP JUMPDEST PUSH1 0x1 DUP3 ADD SWAP1 POP SWAP2 SWAP1 POP JUMP JUMPDEST PUSH32 0x436F6C6C65676520436F64653A20000000000000000000000000000000000000 PUSH0 DUP3 ADD MSTORE POP JUMP JUMPDEST PUSH0 PUSH2 0xE28 PUSH1 0xE DUP4 PUSH2 0xC7A JUMP JUMPDEST SWAP2 POP PUSH2 0xE33 DUP3 PUSH2 0xDF4 JUMP JUMPDEST PUSH1 0xE DUP3 ADD SWAP1 POP SWAP2 SWAP1 POP JUMP JUMPDEST PUSH32 0x4465706172746D656E74204E616D653A20000000000000000000000000000000 PUSH0 DUP3 ADD MSTORE POP JUMP JUMPDEST PUSH0 PUSH2 0xE72 PUSH1 0x11 DUP4 PUSH2 0xC7A JUMP JUMPDEST SWAP2 POP PUSH2 0xE7D DUP3 PUSH2 0xE3E JUMP JUMPDEST PUSH1 0x11 DUP3 ADD SWAP1 POP SWAP2 SWAP1 POP JUMP JUMPDEST PUSH0 PUSH2 0xE92 DUP3 PUSH2 0x974 JUMP JUMPDEST PUSH2 0xE9C DUP2 DUP6 PUSH2 0xC7A JUMP JUMPDEST SWAP4 POP PUSH2 0xEAC DUP2 DUP6 PUSH1 0x20 DUP7 ADD PUSH2 0x98E JUMP JUMPDEST DUP1 DUP5 ADD SWAP2 POP POP SWAP3 SWAP2 POP POP JUMP JUMPDEST PUSH32 0x4465706172746D656E7420486561643A20000000000000000000000000000000 PUSH0 DUP3 ADD MSTORE POP JUMP JUMPDEST PUSH0 PUSH2 0xEEC PUSH1 0x11 DUP4 PUSH2 0xC7A JUMP JUMPDEST SWAP2 POP PUSH2 0xEF7 DUP3 PUSH2 0xEB8 JUMP JUMPDEST PUSH1 0x11 DUP3 ADD SWAP1 POP SWAP2 SWAP1 POP JUMP JUMPDEST PUSH32 0x53747564656E74204E616D653A20000000000000000000000000000000000000 PUSH0 DUP3 ADD MSTORE POP JUMP JUMPDEST PUSH0 PUSH2 0xF36 PUSH1 0xE DUP4 PUSH2 0xC7A JUMP JUMPDEST SWAP2 POP PUSH2 0xF41 DUP3 PUSH2 0xF02 JUMP JUMPDEST PUSH1 0xE DUP3 ADD SWAP1 POP SWAP2 SWAP1 POP JUMP JUMPDEST PUSH32 0x526567697374726174696F6E204E756D6265723A200000000000000000000000 PUSH0 DUP3 ADD MSTORE POP JUMP JUMPDEST PUSH0 PUSH2 0xF80 PUSH1 0x15 DUP4 PUSH2 0xC7A JUMP JUMPDEST SWAP2 POP PUSH2 0xF8B DUP3 PUSH2 0xF4C JUMP JUMPDEST PUSH1 0x15 DUP3 ADD SWAP1 POP SWAP2 SWAP1 POP JUMP JUMPDEST PUSH32 0x4D61726B733A2000000000000000000000000000000000000000000000000000 PUSH0 DUP3 ADD MSTORE POP JUMP JUMPDEST PUSH0 PUSH2 0xFCA PUSH1 0x7 DUP4 PUSH2 0xC7A JUMP JUMPDEST SWAP2 POP PUSH2 0xFD5 DUP3 PUSH2 0xF96 JUMP JUMPDEST PUSH1 0x7 DUP3 ADD SWAP1 POP SWAP2 SWAP1 POP JUMP JUMPDEST PUSH0 PUSH2 0xFEA DUP3 PUSH2 0xCAC JUMP JUMPDEST SWAP2 POP PUSH2 0xFF5 DUP3 PUSH2 0xCF6 JUMP JUMPDEST SWAP2 POP PUSH2 0x1001 DUP3 DUP11 PUSH2 0xD2A JUMP JUMPDEST SWAP2 POP PUSH2 0x100C DUP3 PUSH2 0xDD2 JUMP JUMPDEST SWAP2 POP PUSH2 0x1017 DUP3 PUSH2 0xE1C JUMP JUMPDEST SWAP2 POP PUSH2 0x1023 DUP3 DUP10 PUSH2 0xD2A JUMP JUMPDEST SWAP2 POP PUSH2 0x102E DUP3 PUSH2 0xDD2 JUMP JUMPDEST SWAP2 POP PUSH2 0x1039 DUP3 PUSH2 0xE66 JUMP JUMPDEST SWAP2 POP PUSH2 0x1045 DUP3 DUP9 PUSH2 0xE88 JUMP JUMPDEST SWAP2 POP PUSH2 0x1050 DUP3 PUSH2 0xDD2 JUMP JUMPDEST SWAP2 POP PUSH2 0x105B DUP3 PUSH2 0xEE0 JUMP JUMPDEST SWAP2 POP PUSH2 0x1067 DUP3 DUP8 PUSH2 0xE88 JUMP JUMPDEST SWAP2 POP PUSH2 0x1072 DUP3 PUSH2 0xDD2 JUMP JUMPDEST SWAP2 POP PUSH2 0x107D DUP3 PUSH2 0xF2A JUMP JUMPDEST SWAP2 POP PUSH2 0x1089 DUP3 DUP7 PUSH2 0xD2A JUMP JUMPDEST SWAP2 POP PUSH2 0x1094 DUP3 PUSH2 0xDD2 JUMP JUMPDEST SWAP2 POP PUSH2 0x109F DUP3 PUSH2 0xF74 JUMP JUMPDEST SWAP2 POP PUSH2 0x10AB DUP3 DUP6 PUSH2 0xD2A JUMP JUMPDEST SWAP2 POP PUSH2 0x10B6 DUP3 PUSH2 0xDD2 JUMP JUMPDEST SWAP2 POP PUSH2 0x10C1 DUP3 PUSH2 0xFBE JUMP JUMPDEST SWAP2 POP PUSH2 0x10CD DUP3 DUP5 PUSH2 0xE88 JUMP JUMPDEST SWAP2 POP DUP2 SWAP1 POP SWAP9 SWAP8 POP POP POP POP POP POP POP POP JUMP JUMPDEST PUSH0 PUSH1 0x20 PUSH1 0x1F DUP4 ADD DIV SWAP1 POP SWAP2 SWAP1 POP JUMP JUMPDEST PUSH0 DUP3 DUP3 SHL SWAP1 POP SWAP3 SWAP2 POP POP JUMP JUMPDEST PUSH0 PUSH1 0x8 DUP4 MUL PUSH2 0x1128 PUSH32 0xFFFFFFFFFFFFFFFFFFFFFFFFFFFFFFFFFFFFFFFFFFFFFFFFFFFFFFFFFFFFFFFF DUP3 PUSH2 0x10ED JUMP JUMPDEST PUSH2 0x1132 DUP7 DUP4 PUSH2 0x10ED JUMP JUMPDEST SWAP6 POP DUP1 NOT DUP5 AND SWAP4 POP DUP1 DUP7 AND DUP5 OR SWAP3 POP POP POP SWAP4 SWAP3 POP POP POP JUMP JUMPDEST PUSH0 DUP2 SWAP1 POP SWAP2 SWAP1 POP JUMP JUMPDEST PUSH0 PUSH2 0x116D PUSH2 0x1168 PUSH2 0x1163 DUP5 PUSH2 0xA19 JUMP JUMPDEST PUSH2 0x114A JUMP JUMPDEST PUSH2 0xA19 JUMP JUMPDEST SWAP1 POP SWAP2 SWAP1 POP JUMP JUMPDEST PUSH0 DUP2 SWAP1 POP SWAP2 SWAP1 POP JUMP JUMPDEST PUSH2 0x1186 DUP4 PUSH2 0x1153 JUMP JUMPDEST PUSH2 0x119A PUSH2 0x1192 DUP3 PUSH2 0x1174 JUMP JUMPDEST DUP5 DUP5 SLOAD PUSH2 0x10F9 JUMP JUMPDEST DUP3 SSTORE POP POP POP POP JUMP JUMPDEST PUSH0 SWAP1 JUMP JUMPDEST PUSH2 0x11AE PUSH2 0x11A2 JUMP JUMPDEST PUSH2 0x11B9 DUP2 DUP5 DUP5 PUSH2 0x117D JUMP JUMPDEST POP POP POP JUMP JUMPDEST JUMPDEST DUP2 DUP2 LT ISZERO PUSH2 0x11DC JUMPI PUSH2 0x11D1 PUSH0 DUP3 PUSH2 0x11A6 JUMP JUMPDEST PUSH1 0x1 DUP2 ADD SWAP1 POP PUSH2 0x11BF JUMP JUMPDEST POP POP JUMP JUMPDEST PUSH1 0x1F DUP3 GT ISZERO PUSH2 0x1221 JUMPI PUSH2 0x11F2 DUP2 PUSH2 0xD18 JUMP JUMPDEST PUSH2 0x11FB DUP5 PUSH2 0x10DE JUMP JUMPDEST DUP2 ADD PUSH1 0x20 DUP6 LT ISZERO PUSH2 0x120A JUMPI DUP2 SWAP1 POP JUMPDEST PUSH2 0x121E PUSH2 0x1216 DUP6 PUSH2 0x10DE JUMP JUMPDEST DUP4 ADD DUP3 PUSH2 0x11BE JUMP JUMPDEST POP POP JUMPDEST POP POP POP JUMP JUMPDEST PUSH0 DUP3 DUP3 SHR SWAP1 POP SWAP3 SWAP2 POP POP JUMP JUMPDEST PUSH0 PUSH2 0x1241 PUSH0 NOT DUP5 PUSH1 0x8 MUL PUSH2 0x1226 JUMP JUMPDEST NOT DUP1 DUP4 AND SWAP2 POP POP SWAP3 SWAP2 POP POP JUMP JUMPDEST PUSH0 PUSH2 0x1259 DUP4 DUP4 PUSH2 0x1232 JUMP JUMPDEST SWAP2 POP DUP3 PUSH1 0x2 MUL DUP3 OR SWAP1 POP SWAP3 SWAP2 POP POP JUMP JUMPDEST PUSH2 0x1272 DUP3 PUSH2 0x974 JUMP JUMPDEST PUSH8 0xFFFFFFFFFFFFFFFF DUP2 GT ISZERO PUSH2 0x128B JUMPI PUSH2 0x128A PUSH2 0xA83 JUMP JUMPDEST JUMPDEST PUSH2 0x1295 DUP3 SLOAD PUSH2 0xC4A JUMP JUMPDEST PUSH2 0x12A0 DUP3 DUP3 DUP6 PUSH2 0x11E0 JUMP JUMPDEST PUSH0 PUSH1 0x20 SWAP1 POP PUSH1 0x1F DUP4 GT PUSH1 0x1 DUP2 EQ PUSH2 0x12D1 JUMPI PUSH0 DUP5 ISZERO PUSH2 0x12BF JUMPI DUP3 DUP8 ADD MLOAD SWAP1 POP JUMPDEST PUSH2 0x12C9 DUP6 DUP3 PUSH2 0x124E JUMP JUMPDEST DUP7 SSTORE POP PUSH2 0x1330 JUMP JUMPDEST PUSH1 0x1F NOT DUP5 AND PUSH2 0x12DF DUP7 PUSH2 0xD18 JUMP JUMPDEST PUSH0 JUMPDEST DUP3 DUP2 LT ISZERO PUSH2 0x1306 JUMPI DUP5 DUP10 ADD MLOAD DUP3 SSTORE PUSH1 0x1 DUP3 ADD SWAP2 POP PUSH1 0x20 DUP6 ADD SWAP5 POP PUSH1 0x20 DUP2 ADD SWAP1 POP PUSH2 0x12E1 JUMP JUMPDEST DUP7 DUP4 LT ISZERO PUSH2 0x1323 JUMPI DUP5 DUP10 ADD MLOAD PUSH2 0x131F PUSH1 0x1F DUP10 AND DUP3 PUSH2 0x1232 JUMP JUMPDEST DUP4 SSTORE POP JUMPDEST PUSH1 0x1 PUSH1 0x2 DUP9 MUL ADD DUP9 SSTORE POP POP POP JUMPDEST POP POP POP POP POP POP JUMP JUMPDEST PUSH32 0x4E487B7100000000000000000000000000000000000000000000000000000000 PUSH0 MSTORE PUSH1 0x11 PUSH1 0x4 MSTORE PUSH1 0x24 PUSH0 REVERT JUMPDEST PUSH0 PUSH2 0x136F DUP3 PUSH2 0xA19 JUMP JUMPDEST SWAP2 POP PUSH32 0xFFFFFFFFFFFFFFFFFFFFFFFFFFFFFFFFFFFFFFFFFFFFFFFFFFFFFFFFFFFFFFFF DUP3 SUB PUSH2 0x13A1 JUMPI PUSH2 0x13A0 PUSH2 0x1338 JUMP JUMPDEST JUMPDEST PUSH1 0x1 DUP3 ADD SWAP1 POP SWAP2 SWAP1 POP JUMP JUMPDEST PUSH32 0x4E487B7100000000000000000000000000000000000000000000000000000000 PUSH0 MSTORE PUSH1 0x12 PUSH1 0x4 MSTORE PUSH1 0x24 PUSH0 REVERT JUMPDEST PUSH0 PUSH2 0x13E3 DUP3 PUSH2 0xA19 JUMP JUMPDEST SWAP2 POP PUSH2 0x13EE DUP4 PUSH2 0xA19 JUMP JUMPDEST SWAP3 POP DUP3 PUSH2 0x13FE JUMPI PUSH2 0x13FD PUSH2 0x13AC JUMP JUMPDEST JUMPDEST DUP3 DUP3 DIV SWAP1 POP SWAP3 SWAP2 POP POP JUMP JUMPDEST PUSH0 PUSH2 0x1413 DUP3 PUSH2 0xA19 JUMP JUMPDEST SWAP2 POP PUSH2 0x141E DUP4 PUSH2 0xA19 JUMP JUMPDEST SWAP3 POP DUP3 DUP3 SUB SWAP1 POP DUP2 DUP2 GT ISZERO PUSH2 0x1436 JUMPI PUSH2 0x1435 PUSH2 0x1338 JUMP JUMPDEST JUMPDEST SWAP3 SWAP2 POP POP JUMP JUMPDEST PUSH0 PUSH2 0x1446 DUP3 PUSH2 0xA19 JUMP JUMPDEST SWAP2 POP PUSH2 0x1451 DUP4 PUSH2 0xA19 JUMP JUMPDEST SWAP3 POP DUP3 DUP3 MUL PUSH2 0x145F DUP2 PUSH2 0xA19 JUMP JUMPDEST SWAP2 POP DUP3 DUP3 DIV DUP5 EQ DUP4 ISZERO OR PUSH2 0x1476 JUMPI PUSH2 0x1475 PUSH2 0x1338 JUMP JUMPDEST JUMPDEST POP SWAP3 SWAP2 POP POP JUMP JUMPDEST PUSH0 PUSH1 0xFF DUP3 AND SWAP1 POP SWAP2 SWAP1 POP JUMP JUMPDEST PUSH0 PUSH2 0x1493 DUP3 PUSH2 0x147D JUMP JUMPDEST SWAP2 POP PUSH2 0x149E DUP4 PUSH2 0x147D JUMP JUMPDEST SWAP3 POP DUP3 DUP3 ADD SWAP1 POP PUSH1 0xFF DUP2 GT ISZERO PUSH2 0x14B7 JUMPI PUSH2 0x14B6 PUSH2 0x1338 JUMP JUMPDEST JUMPDEST SWAP3 SWAP2 POP POP JUMP JUMPDEST PUSH32 0x4E487B7100000000000000000000000000000000000000000000000000000000 PUSH0 MSTORE PUSH1 0x32 PUSH1 0x4 MSTORE PUSH1 0x24 PUSH0 REVERT INVALID LOG2 PUSH5 0x6970667358 0x22 SLT KECCAK256 0x24 0xD0 0xA7 EQ BLOBBASEFEE 0xD3 SWAP1 0x26 0xCD 0xA6 0xE4 TLOAD PUSH29 0x330DC66E0AEE1D99682FAC2888AB1B4E98B6A564736F6C634300081A00 CALLER "
		},
		"gasEstimates": {
			"creation": {
				"codeDepositCost": "1081600",
				"executionCost": "infinite",
				"totalCost": "infinite"
			},
			"external": {
				"collegeCode()": "infinite",
				"collegeName()": "infinite",
				"deptHead()": "infinite",
				"deptName()": "infinite",
				"display()": "infinite",
				"getDepartmentDetails()": "infinite",
				"marks()": "2448",
				"printReportCard()": "infinite",
				"regNo()": "infinite",
				"setDepartmentDetails(string,string)": "infinite",
				"studentName()": "infinite"
			},
			"internal": {
				"uint2str(uint256)": "infinite"
			}
		},
		"methodIdentifiers": {
			"collegeCode()": "8dfd3b18",
			"collegeName()": "9aa7cf76",
			"deptHead()": "eb96548f",
			"deptName()": "b975abb3",
			"display()": "0c1b7c1e",
			"getDepartmentDetails()": "ceb63c76",
			"marks()": "3c84c5a5",
			"printReportCard()": "70d1f986",
			"regNo()": "6ef9a278",
			"setDepartmentDetails(string,string)": "735f5aec",
			"studentName()": "b508ba31"
		}
	},
	"abi": [
		{
			"inputs": [
				{
					"internalType": "string",
					"name": "_collegeName",
					"type": "string"
				},
				{
					"internalType": "string",
					"name": "_collegeCode",
					"type": "string"
				},
				{
					"internalType": "string",
					"name": "_deptName",
					"type": "string"
				},
				{
					"internalType": "string",
					"name": "_deptHead",
					"type": "string"
				},
				{
					"internalType": "string",
					"name": "_studentName",
					"type": "string"
				},
				{
					"internalType": "string",
					"name": "_regNo",
					"type": "string"
				},
				{
					"internalType": "uint256",
					"name": "_marks",
					"type": "uint256"
				}
			],
			"stateMutability": "nonpayable",
			"type": "constructor"
		},
		{
			"inputs": [],
			"name": "collegeCode",
			"outputs": [
				{
					"internalType": "string",
					"name": "",
					"type": "string"
				}
			],
			"stateMutability": "view",
			"type": "function"
		},
		{
			"inputs": [],
			"name": "collegeName",
			"outputs": [
				{
					"internalType": "string",
					"name": "",
					"type": "string"
				}
			],
			"stateMutability": "view",
			"type": "function"
		},
		{
			"inputs": [],
			"name": "deptHead",
			"outputs": [
				{
					"internalType": "string",
					"name": "",
					"type": "string"
				}
			],
			"stateMutability": "view",
			"type": "function"
		},
		{
			"inputs": [],
			"name": "deptName",
			"outputs": [
				{
					"internalType": "string",
					"name": "",
					"type": "string"
				}
			],
			"stateMutability": "view",
			"type": "function"
		},
		{
			"inputs": [],
			"name": "display",
			"outputs": [
				{
					"internalType": "string",
					"name": "",
					"type": "string"
				},
				{
					"internalType": "string",
					"name": "",
					"type": "string"
				}
			],
			"stateMutability": "view",
			"type": "function"
		},
		{
			"inputs": [],
			"name": "getDepartmentDetails",
			"outputs": [
				{
					"internalType": "string",
					"name": "",
					"type": "string"
				},
				{
					"internalType": "string",
					"name": "",
					"type": "string"
				}
			],
			"stateMutability": "view",
			"type": "function"
		},
		{
			"inputs": [],
			"name": "marks",
			"outputs": [
				{
					"internalType": "uint256",
					"name": "",
					"type": "uint256"
				}
			],
			"stateMutability": "view",
			"type": "function"
		},
		{
			"inputs": [],
			"name": "printReportCard",
			"outputs": [
				{
					"internalType": "string",
					"name": "",
					"type": "string"
				}
			],
			"stateMutability": "view",
			"type": "function"
		},
		{
			"inputs": [],
			"name": "regNo",
			"outputs": [
				{
					"internalType": "string",
					"name": "",
					"type": "string"
				}
			],
			"stateMutability": "view",
			"type": "function"
		},
		{
			"inputs": [
				{
					"internalType": "string",
					"name": "_deptName",
					"type": "string"
				},
				{
					"internalType": "string",
					"name": "_deptHead",
					"type": "string"
				}
			],
			"name": "setDepartmentDetails",
			"outputs": [],
			"stateMutability": "nonpayable",
			"type": "function"
		},
		{
			"inputs": [],
			"name": "studentName",
			"outputs": [
				{
					"internalType": "string",
					"name": "",
					"type": "string"
				}
			],
			"stateMutability": "view",
			"type": "function"
		}
	]
}