{
	"data": {
		"bytecode": {
			"linkReferences": {},
			"object": "608060405234801561000f575f80fd5b5060405161232e38038061232e83398181016040528101906100319190610242565b828282825f908161004291906105ce565b50816001908161005291906105ce565b5080600281905550505050886003908161006c91906105ce565b50876004908161007c91906105ce565b50866005908161008c91906105ce565b508560068190555084600790816100a391906105ce565b5083600890816100b391906105ce565b5050505050505050505061069d565b5f604051905090565b5f80fd5b5f80fd5b5f80fd5b5f80fd5b5f601f19601f8301169050919050565b7f4e487b71000000000000000000000000000000000000000000000000000000005f52604160045260245ffd5b610121826100db565b810181811067ffffffffffffffff821117156101405761013f6100eb565b5b80604052505050565b5f6101526100c2565b905061015e8282610118565b919050565b5f67ffffffffffffffff82111561017d5761017c6100eb565b5b610186826100db565b9050602081019050919050565b8281835e5f83830152505050565b5f6101b36101ae84610163565b610149565b9050828152602081018484840111156101cf576101ce6100d7565b5b6101da848285610193565b509392505050565b5f82601f8301126101f6576101f56100d3565b5b81516102068482602086016101a1565b91505092915050565b5f819050919050565b6102218161020f565b811461022b575f80fd5b50565b5f8151905061023c81610218565b92915050565b5f805f805f805f805f6101208a8c0312156102605761025f6100cb565b5b5f8a015167ffffffffffffffff81111561027d5761027c6100cf565b5b6102898c828d016101e2565b99505060208a015167ffffffffffffffff8111156102aa576102a96100cf565b5b6102b68c828d016101e2565b98505060408a015167ffffffffffffffff8111156102d7576102d66100cf565b5b6102e38c828d016101e2565b97505060606102f48c828d0161022e565b96505060808a015167ffffffffffffffff811115610315576103146100cf565b5b6103218c828d016101e2565b95505060a08a015167ffffffffffffffff811115610342576103416100cf565b5b61034e8c828d016101e2565b94505060c08a015167ffffffffffffffff81111561036f5761036e6100cf565b5b61037b8c828d016101e2565b93505060e08a015167ffffffffffffffff81111561039c5761039b6100cf565b5b6103a88c828d016101e2565b9250506101006103ba8c828d0161022e565b9150509295985092959850929598565b5f81519050919050565b7f4e487b71000000000000000000000000000000000000000000000000000000005f52602260045260245ffd5b5f600282049050600182168061041857607f821691505b60208210810361042b5761042a6103d4565b5b50919050565b5f819050815f5260205f209050919050565b5f6020601f8301049050919050565b5f82821b905092915050565b5f6008830261048d7fffffffffffffffffffffffffffffffffffffffffffffffffffffffffffffffff82610452565b6104978683610452565b95508019841693508086168417925050509392505050565b5f819050919050565b5f6104d26104cd6104c88461020f565b6104af565b61020f565b9050919050565b5f819050919050565b6104eb836104b8565b6104ff6104f7826104d9565b84845461045e565b825550505050565b5f90565b610513610507565b61051e8184846104e2565b505050565b5b81811015610541576105365f8261050b565b600181019050610524565b5050565b601f8211156105865761055781610431565b61056084610443565b8101602085101561056f578190505b61058361057b85610443565b830182610523565b50505b505050565b5f82821c905092915050565b5f6105a65f198460080261058b565b1980831691505092915050565b5f6105be8383610597565b9150826002028217905092915050565b6105d7826103ca565b67ffffffffffffffff8111156105f0576105ef6100eb565b5b6105fa8254610401565b610605828285610545565b5f60209050601f831160018114610636575f8415610624578287015190505b61062e85826105b3565b865550610695565b601f19841661064486610431565b5f5b8281101561066b57848901518255600182019150602085019450602081019050610646565b868310156106885784890151610684601f891682610597565b8355505b6001600288020188555050505b505050505050565b611c84806106aa5f395ff3fe608060405234801561000f575f80fd5b5060043610610109575f3560e01c80639d8c8315116100a0578063cb9cb0c21161006f578063cb9cb0c21461027a578063d57831f514610298578063e81bd2a4146102b6578063eb96548f146102d4578063f8fd1948146102f257610109565b80639d8c831514610200578063b508ba3114610220578063b975abb31461023e578063c607ba4d1461025c57610109565b80638d1d2d90116100dc5780638d1d2d901461018c578063908df63d146101aa5780639727faef146101c657806399d568b3146101e257610109565b806311ebae411461010d578063366db2811461012b5780633bc5de30146101475780634cc4ce5d1461016d575b5f80fd5b610115610310565b6040516101229190610fd5565b60405180910390f35b61014560048036038101906101409190611132565b61039c565b005b61014f6103af565b60405161016499989796959493929190611191565b60405180910390f35b6101756107b2565b60405161018392919061124d565b60405180910390f35b6101946108d5565b6040516101a19190610fd5565b60405180910390f35b6101c460048036038101906101bf9190611132565b610961565b005b6101e060048036038101906101db91906112ac565b610973565b005b6101ea61097d565b6040516101f791906112d7565b60405180910390f35b610208610983565b604051610217939291906112f0565b60405180910390f35b610228610aac565b6040516102359190610fd5565b60405180910390f35b610246610b38565b6040516102539190610fd5565b60405180910390f35b610264610bc4565b6040516102719190610fd5565b60405180910390f35b610282610c50565b60405161028f9190610fd5565b60405180910390f35b6102a0610cdb565b6040516102ad91906112d7565b60405180910390f35b6102be610ce1565b6040516102cb9190610fd5565b60405180910390f35b6102dc610d2a565b6040516102e99190610fd5565b60405180910390f35b6102fa610db6565b6040516103079190610fd5565b60405180910390f35b6001805461031d90611360565b80601f016020809104026020016040519081016040528092919081815260200182805461034990611360565b80156103945780601f1061036b57610100808354040283529160200191610394565b820191905f5260205f20905b81548152906001019060200180831161037757829003601f168201915b505050505081565b80600190816103ab919061152d565b5050565b60608060605f6060806060805f600360046005600654600760085f60016002548880546103db90611360565b80601f016020809104026020016040519081016040528092919081815260200182805461040790611360565b80156104525780601f1061042957610100808354040283529160200191610452565b820191905f5260205f20905b81548152906001019060200180831161043557829003601f168201915b5050505050985087805461046590611360565b80601f016020809104026020016040519081016040528092919081815260200182805461049190611360565b80156104dc5780601f106104b3576101008083540402835291602001916104dc565b820191905f5260205f20905b8154815290600101906020018083116104bf57829003601f168201915b505050505097508680546104ef90611360565b80601f016020809104026020016040519081016040528092919081815260200182805461051b90611360565b80156105665780601f1061053d57610100808354040283529160200191610566565b820191905f5260205f20905b81548152906001019060200180831161054957829003601f168201915b5050505050965084805461057990611360565b80601f01602080910402602001604051908101604052809291908181526020018280546105a590611360565b80156105f05780601f106105c7576101008083540402835291602001916105f0565b820191905f5260205f20905b8154815290600101906020018083116105d357829003601f168201915b5050505050945083805461060390611360565b80601f016020809104026020016040519081016040528092919081815260200182805461062f90611360565b801561067a5780601f106106515761010080835404028352916020019161067a565b820191905f5260205f20905b81548152906001019060200180831161065d57829003601f168201915b5050505050935082805461068d90611360565b80601f01602080910402602001604051908101604052809291908181526020018280546106b990611360565b80156107045780601f106106db57610100808354040283529160200191610704565b820191905f5260205f20905b8154815290600101906020018083116106e757829003601f168201915b5050505050925081805461071790611360565b80601f016020809104026020016040519081016040528092919081815260200182805461074390611360565b801561078e5780601f106107655761010080835404028352916020019161078e565b820191905f5260205f20905b81548152906001019060200180831161077157829003601f168201915b50505050509150985098509850985098509850985098509850909192939495969798565b606080600760088180546107c590611360565b80601f01602080910402602001604051908101604052809291908181526020018280546107f190611360565b801561083c5780601f106108135761010080835404028352916020019161083c565b820191905f5260205f20905b81548152906001019060200180831161081f57829003601f168201915b5050505050915080805461084f90611360565b80601f016020809104026020016040519081016040528092919081815260200182805461087b90611360565b80156108c65780601f1061089d576101008083540402835291602001916108c6565b820191905f5260205f20905b8154815290600101906020018083116108a957829003601f168201915b50505050509050915091509091565b600480546108e290611360565b80601f016020809104026020016040519081016040528092919081815260200182805461090e90611360565b80156109595780601f1061093057610100808354040283529160200191610959565b820191905f5260205f20905b81548152906001019060200180831161093c57829003601f168201915b505050505081565b805f908161096f919061152d565b5050565b8060028190555050565b60025481565b6060805f80600160025482805461099990611360565b80601f01602080910402602001604051908101604052809291908181526020018280546109c590611360565b8015610a105780601f106109e757610100808354040283529160200191610a10565b820191905f5260205f20905b8154815290600101906020018083116109f357829003601f168201915b50505050509250818054610a2390611360565b80601f0160208091040260200160405190810160405280929190818152602001828054610a4f90611360565b8015610a9a5780601f10610a7157610100808354040283529160200191610a9a565b820191905f5260205f20905b815481529060010190602001808311610a7d57829003601f168201915b50505050509150925092509250909192565b60038054610ab990611360565b80601f0160208091040260200160405190810160405280929190818152602001828054610ae590611360565b8015610b305780601f10610b0757610100808354040283529160200191610b30565b820191905f5260205f20905b815481529060010190602001808311610b1357829003601f168201915b505050505081565b60078054610b4590611360565b80601f0160208091040260200160405190810160405280929190818152602001828054610b7190611360565b8015610bbc5780601f10610b9357610100808354040283529160200191610bbc565b820191905f5260205f20905b815481529060010190602001808311610b9f57829003601f168201915b505050505081565b60058054610bd190611360565b80601f0160208091040260200160405190810160405280929190818152602001828054610bfd90611360565b8015610c485780601f10610c1f57610100808354040283529160200191610c48565b820191905f5260205f20905b815481529060010190602001808311610c2b57829003601f168201915b505050505081565b5f8054610c5c90611360565b80601f0160208091040260200160405190810160405280929190818152602001828054610c8890611360565b8015610cd35780601f10610caa57610100808354040283529160200191610cd3565b820191905f5260205f20905b815481529060010190602001808311610cb657829003601f168201915b505050505081565b60065481565b6060600360046005610cf4600654610dec565b60076008610d00610db6565b604051602001610d1697969594939291906118bc565b604051602081830303815290604052905090565b60088054610d3790611360565b80601f0160208091040260200160405190810160405280929190818152602001828054610d6390611360565b8015610dae5780601f10610d8557610100808354040283529160200191610dae565b820191905f5260205f20905b815481529060010190602001808311610d9157829003601f168201915b505050505081565b60605f6001610dc6600254610dec565b604051602001610dd893929190611a4b565b604051602081830303815290604052905090565b60605f8203610e32576040518060400160405280600181526020017f30000000000000000000000000000000000000000000000000000000000000008152509050610f60565b5f8290505f5b5f8214610e61578080610e4a90611ac9565b915050600a82610e5a9190611b3d565b9150610e38565b5f8167ffffffffffffffff811115610e7c57610e7b61100e565b5b6040519080825280601f01601f191660200182016040528015610eae5781602001600182028036833780820191505090505b5090505f8290505b5f8614610f5857600181610eca9190611b6d565b90505f600a8088610edb9190611b3d565b610ee59190611ba0565b87610ef09190611b6d565b6030610efc9190611bed565b90508060f81b838381518110610f1557610f14611c21565b5b60200101907effffffffffffffffffffffffffffffffffffffffffffffffffffffffffffff191690815f1a905350600a87610f509190611b3d565b965050610eb6565b819450505050505b919050565b5f81519050919050565b5f82825260208201905092915050565b8281835e5f83830152505050565b5f601f19601f8301169050919050565b5f610fa782610f65565b610fb18185610f6f565b9350610fc1818560208601610f7f565b610fca81610f8d565b840191505092915050565b5f6020820190508181035f830152610fed8184610f9d565b905092915050565b5f604051905090565b5f80fd5b5f80fd5b5f80fd5b5f80fd5b7f4e487b71000000000000000000000000000000000000000000000000000000005f52604160045260245ffd5b61104482610f8d565b810181811067ffffffffffffffff821117156110635761106261100e565b5b80604052505050565b5f611075610ff5565b9050611081828261103b565b919050565b5f67ffffffffffffffff8211156110a05761109f61100e565b5b6110a982610f8d565b9050602081019050919050565b828183375f83830152505050565b5f6110d66110d184611086565b61106c565b9050828152602081018484840111156110f2576110f161100a565b5b6110fd8482856110b6565b509392505050565b5f82601f83011261111957611118611006565b5b81356111298482602086016110c4565b91505092915050565b5f6020828403121561114757611146610ffe565b5b5f82013567ffffffffffffffff81111561116457611163611002565b5b61117084828501611105565b91505092915050565b5f819050919050565b61118b81611179565b82525050565b5f610120820190508181035f8301526111aa818c610f9d565b905081810360208301526111be818b610f9d565b905081810360408301526111d2818a610f9d565b90506111e16060830189611182565b81810360808301526111f38188610f9d565b905081810360a08301526112078187610f9d565b905081810360c083015261121b8186610f9d565b905081810360e083015261122f8185610f9d565b905061123f610100830184611182565b9a9950505050505050505050565b5f6040820190508181035f8301526112658185610f9d565b905081810360208301526112798184610f9d565b90509392505050565b61128b81611179565b8114611295575f80fd5b50565b5f813590506112a681611282565b92915050565b5f602082840312156112c1576112c0610ffe565b5b5f6112ce84828501611298565b91505092915050565b5f6020820190506112ea5f830184611182565b92915050565b5f6060820190508181035f8301526113088186610f9d565b9050818103602083015261131c8185610f9d565b905061132b6040830184611182565b949350505050565b7f4e487b71000000000000000000000000000000000000000000000000000000005f52602260045260245ffd5b5f600282049050600182168061137757607f821691505b60208210810361138a57611389611333565b5b50919050565b5f819050815f5260205f209050919050565b5f6020601f8301049050919050565b5f82821b905092915050565b5f600883026113ec7fffffffffffffffffffffffffffffffffffffffffffffffffffffffffffffffff826113b1565b6113f686836113b1565b95508019841693508086168417925050509392505050565b5f819050919050565b5f61143161142c61142784611179565b61140e565b611179565b9050919050565b5f819050919050565b61144a83611417565b61145e61145682611438565b8484546113bd565b825550505050565b5f90565b611472611466565b61147d818484611441565b505050565b5b818110156114a0576114955f8261146a565b600181019050611483565b5050565b601f8211156114e5576114b681611390565b6114bf846113a2565b810160208510156114ce578190505b6114e26114da856113a2565b830182611482565b50505b505050565b5f82821c905092915050565b5f6115055f19846008026114ea565b1980831691505092915050565b5f61151d83836114f6565b9150826002028217905092915050565b61153682610f65565b67ffffffffffffffff81111561154f5761154e61100e565b5b6115598254611360565b6115648282856114a4565b5f60209050601f831160018114611595575f8415611583578287015190505b61158d8582611512565b8655506115f4565b601f1984166115a386611390565b5f5b828110156115ca578489015182556001820191506020850194506020810190506115a5565b868310156115e757848901516115e3601f8916826114f6565b8355505b6001600288020188555050505b505050505050565b5f81905092915050565b7f53747564656e74204e616d653a200000000000000000000000000000000000005f82015250565b5f61163a600e836115fc565b915061164582611606565b600e82019050919050565b5f815461165c81611360565b61166681866115fc565b9450600182165f81146116805760018114611695576116c7565b60ff19831686528115158202860193506116c7565b61169e85611390565b5f5b838110156116bf578154818901526001820191506020810190506116a0565b838801955050505b50505092915050565b7f2c20526567697374726174696f6e204e6f3a20000000000000000000000000005f82015250565b5f6117046013836115fc565b915061170f826116d0565b601382019050919050565b7f2c20456c656374697665205375626a6563743a200000000000000000000000005f82015250565b5f61174e6014836115fc565b91506117598261171a565b601482019050919050565b7f2c2041766572616765204d61726b733a200000000000000000000000000000005f82015250565b5f6117986011836115fc565b91506117a382611764565b601182019050919050565b5f6117b882610f65565b6117c281856115fc565b93506117d2818560208601610f7f565b80840191505092915050565b7f2c204465706172746d656e743a200000000000000000000000000000000000005f82015250565b5f611812600e836115fc565b915061181d826117de565b600e82019050919050565b7f2c204465706172746d656e7420486561643a20000000000000000000000000005f82015250565b5f61185c6013836115fc565b915061186782611828565b601382019050919050565b7f2c200000000000000000000000000000000000000000000000000000000000005f82015250565b5f6118a66002836115fc565b91506118b182611872565b600282019050919050565b5f6118c68261162e565b91506118d2828a611650565b91506118dd826116f8565b91506118e98289611650565b91506118f482611742565b91506119008288611650565b915061190b8261178c565b915061191782876117ae565b915061192282611806565b915061192e8286611650565b915061193982611850565b91506119458285611650565b91506119508261189a565b915061195c82846117ae565b915081905098975050505050505050565b7f486f7374656c204e616d653a20000000000000000000000000000000000000005f82015250565b5f6119a1600d836115fc565b91506119ac8261196d565b600d82019050919050565b7f2c204c6f636174696f6e3a2000000000000000000000000000000000000000005f82015250565b5f6119eb600c836115fc565b91506119f6826119b7565b600c82019050919050565b7f2c204e756d626572206f6620526f6f6d733a20000000000000000000000000005f82015250565b5f611a356013836115fc565b9150611a4082611a01565b601382019050919050565b5f611a5582611995565b9150611a618286611650565b9150611a6c826119df565b9150611a788285611650565b9150611a8382611a29565b9150611a8f82846117ae565b9150819050949350505050565b7f4e487b71000000000000000000000000000000000000000000000000000000005f52601160045260245ffd5b5f611ad382611179565b91507fffffffffffffffffffffffffffffffffffffffffffffffffffffffffffffffff8203611b0557611b04611a9c565b5b600182019050919050565b7f4e487b71000000000000000000000000000000000000000000000000000000005f52601260045260245ffd5b5f611b4782611179565b9150611b5283611179565b925082611b6257611b61611b10565b5b828204905092915050565b5f611b7782611179565b9150611b8283611179565b9250828203905081811115611b9a57611b99611a9c565b5b92915050565b5f611baa82611179565b9150611bb583611179565b9250828202611bc381611179565b91508282048414831517611bda57611bd9611a9c565b5b5092915050565b5f60ff82169050919050565b5f611bf782611be1565b9150611c0283611be1565b9250828201905060ff811115611c1b57611c1a611a9c565b5b92915050565b7f4e487b71000000000000000000000000000000000000000000000000000000005f52603260045260245ffdfea2646970667358221220d53a9b66b7b6729615e577076dade24bf93c37e995a9842fb2a47dd3b3902ec964736f6c634300081a0033",
			"opcodes": "PUSH1 0x80 PUSH1 0x40 MSTORE CALLVALUE DUP1 ISZERO PUSH2 0xF JUMPI PUSH0 DUP1 REVERT JUMPDEST POP PUSH1 0x40 MLOAD PUSH2 0x232E CODESIZE SUB DUP1 PUSH2 0x232E DUP4 CODECOPY DUP2 DUP2 ADD PUSH1 0x40 MSTORE DUP2 ADD SWAP1 PUSH2 0x31 SWAP2 SWAP1 PUSH2 0x242 JUMP JUMPDEST DUP3 DUP3 DUP3 DUP3 PUSH0 SWAP1 DUP2 PUSH2 0x42 SWAP2 SWAP1 PUSH2 0x5CE JUMP JUMPDEST POP DUP2 PUSH1 0x1 SWAP1 DUP2 PUSH2 0x52 SWAP2 SWAP1 PUSH2 0x5CE JUMP JUMPDEST POP DUP1 PUSH1 0x2 DUP2 SWAP1 SSTORE POP POP POP POP DUP9 PUSH1 0x3 SWAP1 DUP2 PUSH2 0x6C SWAP2 SWAP1 PUSH2 0x5CE JUMP JUMPDEST POP DUP8 PUSH1 0x4 SWAP1 DUP2 PUSH2 0x7C SWAP2 SWAP1 PUSH2 0x5CE JUMP JUMPDEST POP DUP7 PUSH1 0x5 SWAP1 DUP2 PUSH2 0x8C SWAP2 SWAP1 PUSH2 0x5CE JUMP JUMPDEST POP DUP6 PUSH1 0x6 DUP2 SWAP1 SSTORE POP DUP5 PUSH1 0x7 SWAP1 DUP2 PUSH2 0xA3 SWAP2 SWAP1 PUSH2 0x5CE JUMP JUMPDEST POP DUP4 PUSH1 0x8 SWAP1 DUP2 PUSH2 0xB3 SWAP2 SWAP1 PUSH2 0x5CE JUMP JUMPDEST POP POP POP POP POP POP POP POP POP POP PUSH2 0x69D JUMP JUMPDEST PUSH0 PUSH1 0x40 MLOAD SWAP1 POP SWAP1 JUMP JUMPDEST PUSH0 DUP1 REVERT JUMPDEST PUSH0 DUP1 REVERT JUMPDEST PUSH0 DUP1 REVERT JUMPDEST PUSH0 DUP1 REVERT JUMPDEST PUSH0 PUSH1 0x1F NOT PUSH1 0x1F DUP4 ADD AND SWAP1 POP SWAP2 SWAP1 POP JUMP JUMPDEST PUSH32 0x4E487B7100000000000000000000000000000000000000000000000000000000 PUSH0 MSTORE PUSH1 0x41 PUSH1 0x4 MSTORE PUSH1 0x24 PUSH0 REVERT JUMPDEST PUSH2 0x121 DUP3 PUSH2 0xDB JUMP JUMPDEST DUP2 ADD DUP2 DUP2 LT PUSH8 0xFFFFFFFFFFFFFFFF DUP3 GT OR ISZERO PUSH2 0x140 JUMPI PUSH2 0x13F PUSH2 0xEB JUMP JUMPDEST JUMPDEST DUP1 PUSH1 0x40 MSTORE POP POP POP JUMP JUMPDEST PUSH0 PUSH2 0x152 PUSH2 0xC2 JUMP JUMPDEST SWAP1 POP PUSH2 0x15E DUP3 DUP3 PUSH2 0x118 JUMP JUMPDEST SWAP2 SWAP1 POP JUMP JUMPDEST PUSH0 PUSH8 0xFFFFFFFFFFFFFFFF DUP3 GT ISZERO PUSH2 0x17D JUMPI PUSH2 0x17C PUSH2 0xEB JUMP JUMPDEST JUMPDEST PUSH2 0x186 DUP3 PUSH2 0xDB JUMP JUMPDEST SWAP1 POP PUSH1 0x20 DUP2 ADD SWAP1 POP SWAP2 SWAP1 POP JUMP JUMPDEST DUP3 DUP2 DUP4 MCOPY PUSH0 DUP4 DUP4 ADD MSTORE POP POP POP JUMP JUMPDEST PUSH0 PUSH2 0x1B3 PUSH2 0x1AE DUP5 PUSH2 0x163 JUMP JUMPDEST PUSH2 0x149 JUMP JUMPDEST SWAP1 POP DUP3 DUP2 MSTORE PUSH1 0x20 DUP2 ADD DUP5 DUP5 DUP5 ADD GT ISZERO PUSH2 0x1CF JUMPI PUSH2 0x1CE PUSH2 0xD7 JUMP JUMPDEST JUMPDEST PUSH2 0x1DA DUP5 DUP3 DUP6 PUSH2 0x193 JUMP JUMPDEST POP SWAP4 SWAP3 POP POP POP JUMP JUMPDEST PUSH0 DUP3 PUSH1 0x1F DUP4 ADD SLT PUSH2 0x1F6 JUMPI PUSH2 0x1F5 PUSH2 0xD3 JUMP JUMPDEST JUMPDEST DUP2 MLOAD PUSH2 0x206 DUP5 DUP3 PUSH1 0x20 DUP7 ADD PUSH2 0x1A1 JUMP JUMPDEST SWAP2 POP POP SWAP3 SWAP2 POP POP JUMP JUMPDEST PUSH0 DUP2 SWAP1 POP SWAP2 SWAP1 POP JUMP JUMPDEST PUSH2 0x221 DUP2 PUSH2 0x20F JUMP JUMPDEST DUP2 EQ PUSH2 0x22B JUMPI PUSH0 DUP1 REVERT JUMPDEST POP JUMP JUMPDEST PUSH0 DUP2 MLOAD SWAP1 POP PUSH2 0x23C DUP2 PUSH2 0x218 JUMP JUMPDEST SWAP3 SWAP2 POP POP JUMP JUMPDEST PUSH0 DUP1 PUSH0 DUP1 PUSH0 DUP1 PUSH0 DUP1 PUSH0 PUSH2 0x120 DUP11 DUP13 SUB SLT ISZERO PUSH2 0x260 JUMPI PUSH2 0x25F PUSH2 0xCB JUMP JUMPDEST JUMPDEST PUSH0 DUP11 ADD MLOAD PUSH8 0xFFFFFFFFFFFFFFFF DUP2 GT ISZERO PUSH2 0x27D JUMPI PUSH2 0x27C PUSH2 0xCF JUMP JUMPDEST JUMPDEST PUSH2 0x289 DUP13 DUP3 DUP14 ADD PUSH2 0x1E2 JUMP JUMPDEST SWAP10 POP POP PUSH1 0x20 DUP11 ADD MLOAD PUSH8 0xFFFFFFFFFFFFFFFF DUP2 GT ISZERO PUSH2 0x2AA JUMPI PUSH2 0x2A9 PUSH2 0xCF JUMP JUMPDEST JUMPDEST PUSH2 0x2B6 DUP13 DUP3 DUP14 ADD PUSH2 0x1E2 JUMP JUMPDEST SWAP9 POP POP PUSH1 0x40 DUP11 ADD MLOAD PUSH8 0xFFFFFFFFFFFFFFFF DUP2 GT ISZERO PUSH2 0x2D7 JUMPI PUSH2 0x2D6 PUSH2 0xCF JUMP JUMPDEST JUMPDEST PUSH2 0x2E3 DUP13 DUP3 DUP14 ADD PUSH2 0x1E2 JUMP JUMPDEST SWAP8 POP POP PUSH1 0x60 PUSH2 0x2F4 DUP13 DUP3 DUP14 ADD PUSH2 0x22E JUMP JUMPDEST SWAP7 POP POP PUSH1 0x80 DUP11 ADD MLOAD PUSH8 0xFFFFFFFFFFFFFFFF DUP2 GT ISZERO PUSH2 0x315 JUMPI PUSH2 0x314 PUSH2 0xCF JUMP JUMPDEST JUMPDEST PUSH2 0x321 DUP13 DUP3 DUP14 ADD PUSH2 0x1E2 JUMP JUMPDEST SWAP6 POP POP PUSH1 0xA0 DUP11 ADD MLOAD PUSH8 0xFFFFFFFFFFFFFFFF DUP2 GT ISZERO PUSH2 0x342 JUMPI PUSH2 0x341 PUSH2 0xCF JUMP JUMPDEST JUMPDEST PUSH2 0x34E DUP13 DUP3 DUP14 ADD PUSH2 0x1E2 JUMP JUMPDEST SWAP5 POP POP PUSH1 0xC0 DUP11 ADD MLOAD PUSH8 0xFFFFFFFFFFFFFFFF DUP2 GT ISZERO PUSH2 0x36F JUMPI PUSH2 0x36E PUSH2 0xCF JUMP JUMPDEST JUMPDEST PUSH2 0x37B DUP13 DUP3 DUP14 ADD PUSH2 0x1E2 JUMP JUMPDEST SWAP4 POP POP PUSH1 0xE0 DUP11 ADD MLOAD PUSH8 0xFFFFFFFFFFFFFFFF DUP2 GT ISZERO PUSH2 0x39C JUMPI PUSH2 0x39B PUSH2 0xCF JUMP JUMPDEST JUMPDEST PUSH2 0x3A8 DUP13 DUP3 DUP14 ADD PUSH2 0x1E2 JUMP JUMPDEST SWAP3 POP POP PUSH2 0x100 PUSH2 0x3BA DUP13 DUP3 DUP14 ADD PUSH2 0x22E JUMP JUMPDEST SWAP2 POP POP SWAP3 SWAP6 SWAP9 POP SWAP3 SWAP6 SWAP9 POP SWAP3 SWAP6 SWAP9 JUMP JUMPDEST PUSH0 DUP2 MLOAD SWAP1 POP SWAP2 SWAP1 POP JUMP JUMPDEST PUSH32 0x4E487B7100000000000000000000000000000000000000000000000000000000 PUSH0 MSTORE PUSH1 0x22 PUSH1 0x4 MSTORE PUSH1 0x24 PUSH0 REVERT JUMPDEST PUSH0 PUSH1 0x2 DUP3 DIV SWAP1 POP PUSH1 0x1 DUP3 AND DUP1 PUSH2 0x418 JUMPI PUSH1 0x7F DUP3 AND SWAP2 POP JUMPDEST PUSH1 0x20 DUP3 LT DUP2 SUB PUSH2 0x42B JUMPI PUSH2 0x42A PUSH2 0x3D4 JUMP JUMPDEST JUMPDEST POP SWAP2 SWAP1 POP JUMP JUMPDEST PUSH0 DUP2 SWAP1 POP DUP2 PUSH0 MSTORE PUSH1 0x20 PUSH0 KECCAK256 SWAP1 POP SWAP2 SWAP1 POP JUMP JUMPDEST PUSH0 PUSH1 0x20 PUSH1 0x1F DUP4 ADD DIV SWAP1 POP SWAP2 SWAP1 POP JUMP JUMPDEST PUSH0 DUP3 DUP3 SHL SWAP1 POP SWAP3 SWAP2 POP POP JUMP JUMPDEST PUSH0 PUSH1 0x8 DUP4 MUL PUSH2 0x48D PUSH32 0xFFFFFFFFFFFFFFFFFFFFFFFFFFFFFFFFFFFFFFFFFFFFFFFFFFFFFFFFFFFFFFFF DUP3 PUSH2 0x452 JUMP JUMPDEST PUSH2 0x497 DUP7 DUP4 PUSH2 0x452 JUMP JUMPDEST SWAP6 POP DUP1 NOT DUP5 AND SWAP4 POP DUP1 DUP7 AND DUP5 OR SWAP3 POP POP POP SWAP4 SWAP3 POP POP POP JUMP JUMPDEST PUSH0 DUP2 SWAP1 POP SWAP2 SWAP1 POP JUMP JUMPDEST PUSH0 PUSH2 0x4D2 PUSH2 0x4CD PUSH2 0x4C8 DUP5 PUSH2 0x20F JUMP JUMPDEST PUSH2 0x4AF JUMP JUMPDEST PUSH2 0x20F JUMP JUMPDEST SWAP1 POP SWAP2 SWAP1 POP JUMP JUMPDEST PUSH0 DUP2 SWAP1 POP SWAP2 SWAP1 POP JUMP JUMPDEST PUSH2 0x4EB DUP4 PUSH2 0x4B8 JUMP JUMPDEST PUSH2 0x4FF PUSH2 0x4F7 DUP3 PUSH2 0x4D9 JUMP JUMPDEST DUP5 DUP5 SLOAD PUSH2 0x45E JUMP JUMPDEST DUP3 SSTORE POP POP POP POP JUMP JUMPDEST PUSH0 SWAP1 JUMP JUMPDEST PUSH2 0x513 PUSH2 0x507 JUMP JUMPDEST PUSH2 0x51E DUP2 DUP5 DUP5 PUSH2 0x4E2 JUMP JUMPDEST POP POP POP JUMP JUMPDEST JUMPDEST DUP2 DUP2 LT ISZERO PUSH2 0x541 JUMPI PUSH2 0x536 PUSH0 DUP3 PUSH2 0x50B JUMP JUMPDEST PUSH1 0x1 DUP2 ADD SWAP1 POP PUSH2 0x524 JUMP JUMPDEST POP POP JUMP JUMPDEST PUSH1 0x1F DUP3 GT ISZERO PUSH2 0x586 JUMPI PUSH2 0x557 DUP2 PUSH2 0x431 JUMP JUMPDEST PUSH2 0x560 DUP5 PUSH2 0x443 JUMP JUMPDEST DUP2 ADD PUSH1 0x20 DUP6 LT ISZERO PUSH2 0x56F JUMPI DUP2 SWAP1 POP JUMPDEST PUSH2 0x583 PUSH2 0x57B DUP6 PUSH2 0x443 JUMP JUMPDEST DUP4 ADD DUP3 PUSH2 0x523 JUMP JUMPDEST POP POP JUMPDEST POP POP POP JUMP JUMPDEST PUSH0 DUP3 DUP3 SHR SWAP1 POP SWAP3 SWAP2 POP POP JUMP JUMPDEST PUSH0 PUSH2 0x5A6 PUSH0 NOT DUP5 PUSH1 0x8 MUL PUSH2 0x58B JUMP JUMPDEST NOT DUP1 DUP4 AND SWAP2 POP POP SWAP3 SWAP2 POP POP JUMP JUMPDEST PUSH0 PUSH2 0x5BE DUP4 DUP4 PUSH2 0x597 JUMP JUMPDEST SWAP2 POP DUP3 PUSH1 0x2 MUL DUP3 OR SWAP1 POP SWAP3 SWAP2 POP POP JUMP JUMPDEST PUSH2 0x5D7 DUP3 PUSH2 0x3CA JUMP JUMPDEST PUSH8 0xFFFFFFFFFFFFFFFF DUP2 GT ISZERO PUSH2 0x5F0 JUMPI PUSH2 0x5EF PUSH2 0xEB JUMP JUMPDEST JUMPDEST PUSH2 0x5FA DUP3 SLOAD PUSH2 0x401 JUMP JUMPDEST PUSH2 0x605 DUP3 DUP3 DUP6 PUSH2 0x545 JUMP JUMPDEST PUSH0 PUSH1 0x20 SWAP1 POP PUSH1 0x1F DUP4 GT PUSH1 0x1 DUP2 EQ PUSH2 0x636 JUMPI PUSH0 DUP5 ISZERO PUSH2 0x624 JUMPI DUP3 DUP8 ADD MLOAD SWAP1 POP JUMPDEST PUSH2 0x62E DUP6 DUP3 PUSH2 0x5B3 JUMP JUMPDEST DUP7 SSTORE POP PUSH2 0x695 JUMP JUMPDEST PUSH1 0x1F NOT DUP5 AND PUSH2 0x644 DUP7 PUSH2 0x431 JUMP JUMPDEST PUSH0 JUMPDEST DUP3 DUP2 LT ISZERO PUSH2 0x66B JUMPI DUP5 DUP10 ADD MLOAD DUP3 SSTORE PUSH1 0x1 DUP3 ADD SWAP2 POP PUSH1 0x20 DUP6 ADD SWAP5 POP PUSH1 0x20 DUP2 ADD SWAP1 POP PUSH2 0x646 JUMP JUMPDEST DUP7 DUP4 LT ISZERO PUSH2 0x688 JUMPI DUP5 DUP10 ADD MLOAD PUSH2 0x684 PUSH1 0x1F DUP10 AND DUP3 PUSH2 0x597 JUMP JUMPDEST DUP4 SSTORE POP JUMPDEST PUSH1 0x1 PUSH1 0x2 DUP9 MUL ADD DUP9 SSTORE POP POP POP JUMPDEST POP POP POP POP POP POP JUMP JUMPDEST PUSH2 0x1C84 DUP1 PUSH2 0x6AA PUSH0 CODECOPY PUSH0 RETURN INVALID PUSH1 0x80 PUSH1 0x40 MSTORE CALLVALUE DUP1 ISZERO PUSH2 0xF JUMPI PUSH0 DUP1 REVERT JUMPDEST POP PUSH1 0x4 CALLDATASIZE LT PUSH2 0x109 JUMPI PUSH0 CALLDATALOAD PUSH1 0xE0 SHR DUP1 PUSH4 0x9D8C8315 GT PUSH2 0xA0 JUMPI DUP1 PUSH4 0xCB9CB0C2 GT PUSH2 0x6F JUMPI DUP1 PUSH4 0xCB9CB0C2 EQ PUSH2 0x27A JUMPI DUP1 PUSH4 0xD57831F5 EQ PUSH2 0x298 JUMPI DUP1 PUSH4 0xE81BD2A4 EQ PUSH2 0x2B6 JUMPI DUP1 PUSH4 0xEB96548F EQ PUSH2 0x2D4 JUMPI DUP1 PUSH4 0xF8FD1948 EQ PUSH2 0x2F2 JUMPI PUSH2 0x109 JUMP JUMPDEST DUP1 PUSH4 0x9D8C8315 EQ PUSH2 0x200 JUMPI DUP1 PUSH4 0xB508BA31 EQ PUSH2 0x220 JUMPI DUP1 PUSH4 0xB975ABB3 EQ PUSH2 0x23E JUMPI DUP1 PUSH4 0xC607BA4D EQ PUSH2 0x25C JUMPI PUSH2 0x109 JUMP JUMPDEST DUP1 PUSH4 0x8D1D2D90 GT PUSH2 0xDC JUMPI DUP1 PUSH4 0x8D1D2D90 EQ PUSH2 0x18C JUMPI DUP1 PUSH4 0x908DF63D EQ PUSH2 0x1AA JUMPI DUP1 PUSH4 0x9727FAEF EQ PUSH2 0x1C6 JUMPI DUP1 PUSH4 0x99D568B3 EQ PUSH2 0x1E2 JUMPI PUSH2 0x109 JUMP JUMPDEST DUP1 PUSH4 0x11EBAE41 EQ PUSH2 0x10D JUMPI DUP1 PUSH4 0x366DB281 EQ PUSH2 0x12B JUMPI DUP1 PUSH4 0x3BC5DE30 EQ PUSH2 0x147 JUMPI DUP1 PUSH4 0x4CC4CE5D EQ PUSH2 0x16D JUMPI JUMPDEST PUSH0 DUP1 REVERT JUMPDEST PUSH2 0x115 PUSH2 0x310 JUMP JUMPDEST PUSH1 0x40 MLOAD PUSH2 0x122 SWAP2 SWAP1 PUSH2 0xFD5 JUMP JUMPDEST PUSH1 0x40 MLOAD DUP1 SWAP2 SUB SWAP1 RETURN JUMPDEST PUSH2 0x145 PUSH1 0x4 DUP1 CALLDATASIZE SUB DUP2 ADD SWAP1 PUSH2 0x140 SWAP2 SWAP1 PUSH2 0x1132 JUMP JUMPDEST PUSH2 0x39C JUMP JUMPDEST STOP JUMPDEST PUSH2 0x14F PUSH2 0x3AF JUMP JUMPDEST PUSH1 0x40 MLOAD PUSH2 0x164 SWAP10 SWAP9 SWAP8 SWAP7 SWAP6 SWAP5 SWAP4 SWAP3 SWAP2 SWAP1 PUSH2 0x1191 JUMP JUMPDEST PUSH1 0x40 MLOAD DUP1 SWAP2 SUB SWAP1 RETURN JUMPDEST PUSH2 0x175 PUSH2 0x7B2 JUMP JUMPDEST PUSH1 0x40 MLOAD PUSH2 0x183 SWAP3 SWAP2 SWAP1 PUSH2 0x124D JUMP JUMPDEST PUSH1 0x40 MLOAD DUP1 SWAP2 SUB SWAP1 RETURN JUMPDEST PUSH2 0x194 PUSH2 0x8D5 JUMP JUMPDEST PUSH1 0x40 MLOAD PUSH2 0x1A1 SWAP2 SWAP1 PUSH2 0xFD5 JUMP JUMPDEST PUSH1 0x40 MLOAD DUP1 SWAP2 SUB SWAP1 RETURN JUMPDEST PUSH2 0x1C4 PUSH1 0x4 DUP1 CALLDATASIZE SUB DUP2 ADD SWAP1 PUSH2 0x1BF SWAP2 SWAP1 PUSH2 0x1132 JUMP JUMPDEST PUSH2 0x961 JUMP JUMPDEST STOP JUMPDEST PUSH2 0x1E0 PUSH1 0x4 DUP1 CALLDATASIZE SUB DUP2 ADD SWAP1 PUSH2 0x1DB SWAP2 SWAP1 PUSH2 0x12AC JUMP JUMPDEST PUSH2 0x973 JUMP JUMPDEST STOP JUMPDEST PUSH2 0x1EA PUSH2 0x97D JUMP JUMPDEST PUSH1 0x40 MLOAD PUSH2 0x1F7 SWAP2 SWAP1 PUSH2 0x12D7 JUMP JUMPDEST PUSH1 0x40 MLOAD DUP1 SWAP2 SUB SWAP1 RETURN JUMPDEST PUSH2 0x208 PUSH2 0x983 JUMP JUMPDEST PUSH1 0x40 MLOAD PUSH2 0x217 SWAP4 SWAP3 SWAP2 SWAP1 PUSH2 0x12F0 JUMP JUMPDEST PUSH1 0x40 MLOAD DUP1 SWAP2 SUB SWAP1 RETURN JUMPDEST PUSH2 0x228 PUSH2 0xAAC JUMP JUMPDEST PUSH1 0x40 MLOAD PUSH2 0x235 SWAP2 SWAP1 PUSH2 0xFD5 JUMP JUMPDEST PUSH1 0x40 MLOAD DUP1 SWAP2 SUB SWAP1 RETURN JUMPDEST PUSH2 0x246 PUSH2 0xB38 JUMP JUMPDEST PUSH1 0x40 MLOAD PUSH2 0x253 SWAP2 SWAP1 PUSH2 0xFD5 JUMP JUMPDEST PUSH1 0x40 MLOAD DUP1 SWAP2 SUB SWAP1 RETURN JUMPDEST PUSH2 0x264 PUSH2 0xBC4 JUMP JUMPDEST PUSH1 0x40 MLOAD PUSH2 0x271 SWAP2 SWAP1 PUSH2 0xFD5 JUMP JUMPDEST PUSH1 0x40 MLOAD DUP1 SWAP2 SUB SWAP1 RETURN JUMPDEST PUSH2 0x282 PUSH2 0xC50 JUMP JUMPDEST PUSH1 0x40 MLOAD PUSH2 0x28F SWAP2 SWAP1 PUSH2 0xFD5 JUMP JUMPDEST PUSH1 0x40 MLOAD DUP1 SWAP2 SUB SWAP1 RETURN JUMPDEST PUSH2 0x2A0 PUSH2 0xCDB JUMP JUMPDEST PUSH1 0x40 MLOAD PUSH2 0x2AD SWAP2 SWAP1 PUSH2 0x12D7 JUMP JUMPDEST PUSH1 0x40 MLOAD DUP1 SWAP2 SUB SWAP1 RETURN JUMPDEST PUSH2 0x2BE PUSH2 0xCE1 JUMP JUMPDEST PUSH1 0x40 MLOAD PUSH2 0x2CB SWAP2 SWAP1 PUSH2 0xFD5 JUMP JUMPDEST PUSH1 0x40 MLOAD DUP1 SWAP2 SUB SWAP1 RETURN JUMPDEST PUSH2 0x2DC PUSH2 0xD2A JUMP JUMPDEST PUSH1 0x40 MLOAD PUSH2 0x2E9 SWAP2 SWAP1 PUSH2 0xFD5 JUMP JUMPDEST PUSH1 0x40 MLOAD DUP1 SWAP2 SUB SWAP1 RETURN JUMPDEST PUSH2 0x2FA PUSH2 0xDB6 JUMP JUMPDEST PUSH1 0x40 MLOAD PUSH2 0x307 SWAP2 SWAP1 PUSH2 0xFD5 JUMP JUMPDEST PUSH1 0x40 MLOAD DUP1 SWAP2 SUB SWAP1 RETURN JUMPDEST PUSH1 0x1 DUP1 SLOAD PUSH2 0x31D SWAP1 PUSH2 0x1360 JUMP JUMPDEST DUP1 PUSH1 0x1F ADD PUSH1 0x20 DUP1 SWAP2 DIV MUL PUSH1 0x20 ADD PUSH1 0x40 MLOAD SWAP1 DUP2 ADD PUSH1 0x40 MSTORE DUP1 SWAP3 SWAP2 SWAP1 DUP2 DUP2 MSTORE PUSH1 0x20 ADD DUP3 DUP1 SLOAD PUSH2 0x349 SWAP1 PUSH2 0x1360 JUMP JUMPDEST DUP1 ISZERO PUSH2 0x394 JUMPI DUP1 PUSH1 0x1F LT PUSH2 0x36B JUMPI PUSH2 0x100 DUP1 DUP4 SLOAD DIV MUL DUP4 MSTORE SWAP2 PUSH1 0x20 ADD SWAP2 PUSH2 0x394 JUMP JUMPDEST DUP3 ADD SWAP2 SWAP1 PUSH0 MSTORE PUSH1 0x20 PUSH0 KECCAK256 SWAP1 JUMPDEST DUP2 SLOAD DUP2 MSTORE SWAP1 PUSH1 0x1 ADD SWAP1 PUSH1 0x20 ADD DUP1 DUP4 GT PUSH2 0x377 JUMPI DUP3 SWAP1 SUB PUSH1 0x1F AND DUP3 ADD SWAP2 JUMPDEST POP POP POP POP POP DUP2 JUMP JUMPDEST DUP1 PUSH1 0x1 SWAP1 DUP2 PUSH2 0x3AB SWAP2 SWAP1 PUSH2 0x152D JUMP JUMPDEST POP POP JUMP JUMPDEST PUSH1 0x60 DUP1 PUSH1 0x60 PUSH0 PUSH1 0x60 DUP1 PUSH1 0x60 DUP1 PUSH0 PUSH1 0x3 PUSH1 0x4 PUSH1 0x5 PUSH1 0x6 SLOAD PUSH1 0x7 PUSH1 0x8 PUSH0 PUSH1 0x1 PUSH1 0x2 SLOAD DUP9 DUP1 SLOAD PUSH2 0x3DB SWAP1 PUSH2 0x1360 JUMP JUMPDEST DUP1 PUSH1 0x1F ADD PUSH1 0x20 DUP1 SWAP2 DIV MUL PUSH1 0x20 ADD PUSH1 0x40 MLOAD SWAP1 DUP2 ADD PUSH1 0x40 MSTORE DUP1 SWAP3 SWAP2 SWAP1 DUP2 DUP2 MSTORE PUSH1 0x20 ADD DUP3 DUP1 SLOAD PUSH2 0x407 SWAP1 PUSH2 0x1360 JUMP JUMPDEST DUP1 ISZERO PUSH2 0x452 JUMPI DUP1 PUSH1 0x1F LT PUSH2 0x429 JUMPI PUSH2 0x100 DUP1 DUP4 SLOAD DIV MUL DUP4 MSTORE SWAP2 PUSH1 0x20 ADD SWAP2 PUSH2 0x452 JUMP JUMPDEST DUP3 ADD SWAP2 SWAP1 PUSH0 MSTORE PUSH1 0x20 PUSH0 KECCAK256 SWAP1 JUMPDEST DUP2 SLOAD DUP2 MSTORE SWAP1 PUSH1 0x1 ADD SWAP1 PUSH1 0x20 ADD DUP1 DUP4 GT PUSH2 0x435 JUMPI DUP3 SWAP1 SUB PUSH1 0x1F AND DUP3 ADD SWAP2 JUMPDEST POP POP POP POP POP SWAP9 POP DUP8 DUP1 SLOAD PUSH2 0x465 SWAP1 PUSH2 0x1360 JUMP JUMPDEST DUP1 PUSH1 0x1F ADD PUSH1 0x20 DUP1 SWAP2 DIV MUL PUSH1 0x20 ADD PUSH1 0x40 MLOAD SWAP1 DUP2 ADD PUSH1 0x40 MSTORE DUP1 SWAP3 SWAP2 SWAP1 DUP2 DUP2 MSTORE PUSH1 0x20 ADD DUP3 DUP1 SLOAD PUSH2 0x491 SWAP1 PUSH2 0x1360 JUMP JUMPDEST DUP1 ISZERO PUSH2 0x4DC JUMPI DUP1 PUSH1 0x1F LT PUSH2 0x4B3 JUMPI PUSH2 0x100 DUP1 DUP4 SLOAD DIV MUL DUP4 MSTORE SWAP2 PUSH1 0x20 ADD SWAP2 PUSH2 0x4DC JUMP JUMPDEST DUP3 ADD SWAP2 SWAP1 PUSH0 MSTORE PUSH1 0x20 PUSH0 KECCAK256 SWAP1 JUMPDEST DUP2 SLOAD DUP2 MSTORE SWAP1 PUSH1 0x1 ADD SWAP1 PUSH1 0x20 ADD DUP1 DUP4 GT PUSH2 0x4BF JUMPI DUP3 SWAP1 SUB PUSH1 0x1F AND DUP3 ADD SWAP2 JUMPDEST POP POP POP POP POP SWAP8 POP DUP7 DUP1 SLOAD PUSH2 0x4EF SWAP1 PUSH2 0x1360 JUMP JUMPDEST DUP1 PUSH1 0x1F ADD PUSH1 0x20 DUP1 SWAP2 DIV MUL PUSH1 0x20 ADD PUSH1 0x40 MLOAD SWAP1 DUP2 ADD PUSH1 0x40 MSTORE DUP1 SWAP3 SWAP2 SWAP1 DUP2 DUP2 MSTORE PUSH1 0x20 ADD DUP3 DUP1 SLOAD PUSH2 0x51B SWAP1 PUSH2 0x1360 JUMP JUMPDEST DUP1 ISZERO PUSH2 0x566 JUMPI DUP1 PUSH1 0x1F LT PUSH2 0x53D JUMPI PUSH2 0x100 DUP1 DUP4 SLOAD DIV MUL DUP4 MSTORE SWAP2 PUSH1 0x20 ADD SWAP2 PUSH2 0x566 JUMP JUMPDEST DUP3 ADD SWAP2 SWAP1 PUSH0 MSTORE PUSH1 0x20 PUSH0 KECCAK256 SWAP1 JUMPDEST DUP2 SLOAD DUP2 MSTORE SWAP1 PUSH1 0x1 ADD SWAP1 PUSH1 0x20 ADD DUP1 DUP4 GT PUSH2 0x549 JUMPI DUP3 SWAP1 SUB PUSH1 0x1F AND DUP3 ADD SWAP2 JUMPDEST POP POP POP POP POP SWAP7 POP DUP5 DUP1 SLOAD PUSH2 0x579 SWAP1 PUSH2 0x1360 JUMP JUMPDEST DUP1 PUSH1 0x1F ADD PUSH1 0x20 DUP1 SWAP2 DIV MUL PUSH1 0x20 ADD PUSH1 0x40 MLOAD SWAP1 DUP2 ADD PUSH1 0x40 MSTORE DUP1 SWAP3 SWAP2 SWAP1 DUP2 DUP2 MSTORE PUSH1 0x20 ADD DUP3 DUP1 SLOAD PUSH2 0x5A5 SWAP1 PUSH2 0x1360 JUMP JUMPDEST DUP1 ISZERO PUSH2 0x5F0 JUMPI DUP1 PUSH1 0x1F LT PUSH2 0x5C7 JUMPI PUSH2 0x100 DUP1 DUP4 SLOAD DIV MUL DUP4 MSTORE SWAP2 PUSH1 0x20 ADD SWAP2 PUSH2 0x5F0 JUMP JUMPDEST DUP3 ADD SWAP2 SWAP1 PUSH0 MSTORE PUSH1 0x20 PUSH0 KECCAK256 SWAP1 JUMPDEST DUP2 SLOAD DUP2 MSTORE SWAP1 PUSH1 0x1 ADD SWAP1 PUSH1 0x20 ADD DUP1 DUP4 GT PUSH2 0x5D3 JUMPI DUP3 SWAP1 SUB PUSH1 0x1F AND DUP3 ADD SWAP2 JUMPDEST POP POP POP POP POP SWAP5 POP DUP4 DUP1 SLOAD PUSH2 0x603 SWAP1 PUSH2 0x1360 JUMP JUMPDEST DUP1 PUSH1 0x1F ADD PUSH1 0x20 DUP1 SWAP2 DIV MUL PUSH1 0x20 ADD PUSH1 0x40 MLOAD SWAP1 DUP2 ADD PUSH1 0x40 MSTORE DUP1 SWAP3 SWAP2 SWAP1 DUP2 DUP2 MSTORE PUSH1 0x20 ADD DUP3 DUP1 SLOAD PUSH2 0x62F SWAP1 PUSH2 0x1360 JUMP JUMPDEST DUP1 ISZERO PUSH2 0x67A JUMPI DUP1 PUSH1 0x1F LT PUSH2 0x651 JUMPI PUSH2 0x100 DUP1 DUP4 SLOAD DIV MUL DUP4 MSTORE SWAP2 PUSH1 0x20 ADD SWAP2 PUSH2 0x67A JUMP JUMPDEST DUP3 ADD SWAP2 SWAP1 PUSH0 MSTORE PUSH1 0x20 PUSH0 KECCAK256 SWAP1 JUMPDEST DUP2 SLOAD DUP2 MSTORE SWAP1 PUSH1 0x1 ADD SWAP1 PUSH1 0x20 ADD DUP1 DUP4 GT PUSH2 0x65D JUMPI DUP3 SWAP1 SUB PUSH1 0x1F AND DUP3 ADD SWAP2 JUMPDEST POP POP POP POP POP SWAP4 POP DUP3 DUP1 SLOAD PUSH2 0x68D SWAP1 PUSH2 0x1360 JUMP JUMPDEST DUP1 PUSH1 0x1F ADD PUSH1 0x20 DUP1 SWAP2 DIV MUL PUSH1 0x20 ADD PUSH1 0x40 MLOAD SWAP1 DUP2 ADD PUSH1 0x40 MSTORE DUP1 SWAP3 SWAP2 SWAP1 DUP2 DUP2 MSTORE PUSH1 0x20 ADD DUP3 DUP1 SLOAD PUSH2 0x6B9 SWAP1 PUSH2 0x1360 JUMP JUMPDEST DUP1 ISZERO PUSH2 0x704 JUMPI DUP1 PUSH1 0x1F LT PUSH2 0x6DB JUMPI PUSH2 0x100 DUP1 DUP4 SLOAD DIV MUL DUP4 MSTORE SWAP2 PUSH1 0x20 ADD SWAP2 PUSH2 0x704 JUMP JUMPDEST DUP3 ADD SWAP2 SWAP1 PUSH0 MSTORE PUSH1 0x20 PUSH0 KECCAK256 SWAP1 JUMPDEST DUP2 SLOAD DUP2 MSTORE SWAP1 PUSH1 0x1 ADD SWAP1 PUSH1 0x20 ADD DUP1 DUP4 GT PUSH2 0x6E7 JUMPI DUP3 SWAP1 SUB PUSH1 0x1F AND DUP3 ADD SWAP2 JUMPDEST POP POP POP POP POP SWAP3 POP DUP2 DUP1 SLOAD PUSH2 0x717 SWAP1 PUSH2 0x1360 JUMP JUMPDEST DUP1 PUSH1 0x1F ADD PUSH1 0x20 DUP1 SWAP2 DIV MUL PUSH1 0x20 ADD PUSH1 0x40 MLOAD SWAP1 DUP2 ADD PUSH1 0x40 MSTORE DUP1 SWAP3 SWAP2 SWAP1 DUP2 DUP2 MSTORE PUSH1 0x20 ADD DUP3 DUP1 SLOAD PUSH2 0x743 SWAP1 PUSH2 0x1360 JUMP JUMPDEST DUP1 ISZERO PUSH2 0x78E JUMPI DUP1 PUSH1 0x1F LT PUSH2 0x765 JUMPI PUSH2 0x100 DUP1 DUP4 SLOAD DIV MUL DUP4 MSTORE SWAP2 PUSH1 0x20 ADD SWAP2 PUSH2 0x78E JUMP JUMPDEST DUP3 ADD SWAP2 SWAP1 PUSH0 MSTORE PUSH1 0x20 PUSH0 KECCAK256 SWAP1 JUMPDEST DUP2 SLOAD DUP2 MSTORE SWAP1 PUSH1 0x1 ADD SWAP1 PUSH1 0x20 ADD DUP1 DUP4 GT PUSH2 0x771 JUMPI DUP3 SWAP1 SUB PUSH1 0x1F AND DUP3 ADD SWAP2 JUMPDEST POP POP POP POP POP SWAP2 POP SWAP9 POP SWAP9 POP SWAP9 POP SWAP9 POP SWAP9 POP SWAP9 POP SWAP9 POP SWAP9 POP SWAP9 POP SWAP1 SWAP2 SWAP3 SWAP4 SWAP5 SWAP6 SWAP7 SWAP8 SWAP9 JUMP JUMPDEST PUSH1 0x60 DUP1 PUSH1 0x7 PUSH1 0x8 DUP2 DUP1 SLOAD PUSH2 0x7C5 SWAP1 PUSH2 0x1360 JUMP JUMPDEST DUP1 PUSH1 0x1F ADD PUSH1 0x20 DUP1 SWAP2 DIV MUL PUSH1 0x20 ADD PUSH1 0x40 MLOAD SWAP1 DUP2 ADD PUSH1 0x40 MSTORE DUP1 SWAP3 SWAP2 SWAP1 DUP2 DUP2 MSTORE PUSH1 0x20 ADD DUP3 DUP1 SLOAD PUSH2 0x7F1 SWAP1 PUSH2 0x1360 JUMP JUMPDEST DUP1 ISZERO PUSH2 0x83C JUMPI DUP1 PUSH1 0x1F LT PUSH2 0x813 JUMPI PUSH2 0x100 DUP1 DUP4 SLOAD DIV MUL DUP4 MSTORE SWAP2 PUSH1 0x20 ADD SWAP2 PUSH2 0x83C JUMP JUMPDEST DUP3 ADD SWAP2 SWAP1 PUSH0 MSTORE PUSH1 0x20 PUSH0 KECCAK256 SWAP1 JUMPDEST DUP2 SLOAD DUP2 MSTORE SWAP1 PUSH1 0x1 ADD SWAP1 PUSH1 0x20 ADD DUP1 DUP4 GT PUSH2 0x81F JUMPI DUP3 SWAP1 SUB PUSH1 0x1F AND DUP3 ADD SWAP2 JUMPDEST POP POP POP POP POP SWAP2 POP DUP1 DUP1 SLOAD PUSH2 0x84F SWAP1 PUSH2 0x1360 JUMP JUMPDEST DUP1 PUSH1 0x1F ADD PUSH1 0x20 DUP1 SWAP2 DIV MUL PUSH1 0x20 ADD PUSH1 0x40 MLOAD SWAP1 DUP2 ADD PUSH1 0x40 MSTORE DUP1 SWAP3 SWAP2 SWAP1 DUP2 DUP2 MSTORE PUSH1 0x20 ADD DUP3 DUP1 SLOAD PUSH2 0x87B SWAP1 PUSH2 0x1360 JUMP JUMPDEST DUP1 ISZERO PUSH2 0x8C6 JUMPI DUP1 PUSH1 0x1F LT PUSH2 0x89D JUMPI PUSH2 0x100 DUP1 DUP4 SLOAD DIV MUL DUP4 MSTORE SWAP2 PUSH1 0x20 ADD SWAP2 PUSH2 0x8C6 JUMP JUMPDEST DUP3 ADD SWAP2 SWAP1 PUSH0 MSTORE PUSH1 0x20 PUSH0 KECCAK256 SWAP1 JUMPDEST DUP2 SLOAD DUP2 MSTORE SWAP1 PUSH1 0x1 ADD SWAP1 PUSH1 0x20 ADD DUP1 DUP4 GT PUSH2 0x8A9 JUMPI DUP3 SWAP1 SUB PUSH1 0x1F AND DUP3 ADD SWAP2 JUMPDEST POP POP POP POP POP SWAP1 POP SWAP2 POP SWAP2 POP SWAP1 SWAP2 JUMP JUMPDEST PUSH1 0x4 DUP1 SLOAD PUSH2 0x8E2 SWAP1 PUSH2 0x1360 JUMP JUMPDEST DUP1 PUSH1 0x1F ADD PUSH1 0x20 DUP1 SWAP2 DIV MUL PUSH1 0x20 ADD PUSH1 0x40 MLOAD SWAP1 DUP2 ADD PUSH1 0x40 MSTORE DUP1 SWAP3 SWAP2 SWAP1 DUP2 DUP2 MSTORE PUSH1 0x20 ADD DUP3 DUP1 SLOAD PUSH2 0x90E SWAP1 PUSH2 0x1360 JUMP JUMPDEST DUP1 ISZERO PUSH2 0x959 JUMPI DUP1 PUSH1 0x1F LT PUSH2 0x930 JUMPI PUSH2 0x100 DUP1 DUP4 SLOAD DIV MUL DUP4 MSTORE SWAP2 PUSH1 0x20 ADD SWAP2 PUSH2 0x959 JUMP JUMPDEST DUP3 ADD SWAP2 SWAP1 PUSH0 MSTORE PUSH1 0x20 PUSH0 KECCAK256 SWAP1 JUMPDEST DUP2 SLOAD DUP2 MSTORE SWAP1 PUSH1 0x1 ADD SWAP1 PUSH1 0x20 ADD DUP1 DUP4 GT PUSH2 0x93C JUMPI DUP3 SWAP1 SUB PUSH1 0x1F AND DUP3 ADD SWAP2 JUMPDEST POP POP POP POP POP DUP2 JUMP JUMPDEST DUP1 PUSH0 SWAP1 DUP2 PUSH2 0x96F SWAP2 SWAP1 PUSH2 0x152D JUMP JUMPDEST POP POP JUMP JUMPDEST DUP1 PUSH1 0x2 DUP2 SWAP1 SSTORE POP POP JUMP JUMPDEST PUSH1 0x2 SLOAD DUP2 JUMP JUMPDEST PUSH1 0x60 DUP1 PUSH0 DUP1 PUSH1 0x1 PUSH1 0x2 SLOAD DUP3 DUP1 SLOAD PUSH2 0x999 SWAP1 PUSH2 0x1360 JUMP JUMPDEST DUP1 PUSH1 0x1F ADD PUSH1 0x20 DUP1 SWAP2 DIV MUL PUSH1 0x20 ADD PUSH1 0x40 MLOAD SWAP1 DUP2 ADD PUSH1 0x40 MSTORE DUP1 SWAP3 SWAP2 SWAP1 DUP2 DUP2 MSTORE PUSH1 0x20 ADD DUP3 DUP1 SLOAD PUSH2 0x9C5 SWAP1 PUSH2 0x1360 JUMP JUMPDEST DUP1 ISZERO PUSH2 0xA10 JUMPI DUP1 PUSH1 0x1F LT PUSH2 0x9E7 JUMPI PUSH2 0x100 DUP1 DUP4 SLOAD DIV MUL DUP4 MSTORE SWAP2 PUSH1 0x20 ADD SWAP2 PUSH2 0xA10 JUMP JUMPDEST DUP3 ADD SWAP2 SWAP1 PUSH0 MSTORE PUSH1 0x20 PUSH0 KECCAK256 SWAP1 JUMPDEST DUP2 SLOAD DUP2 MSTORE SWAP1 PUSH1 0x1 ADD SWAP1 PUSH1 0x20 ADD DUP1 DUP4 GT PUSH2 0x9F3 JUMPI DUP3 SWAP1 SUB PUSH1 0x1F AND DUP3 ADD SWAP2 JUMPDEST POP POP POP POP POP SWAP3 POP DUP2 DUP1 SLOAD PUSH2 0xA23 SWAP1 PUSH2 0x1360 JUMP JUMPDEST DUP1 PUSH1 0x1F ADD PUSH1 0x20 DUP1 SWAP2 DIV MUL PUSH1 0x20 ADD PUSH1 0x40 MLOAD SWAP1 DUP2 ADD PUSH1 0x40 MSTORE DUP1 SWAP3 SWAP2 SWAP1 DUP2 DUP2 MSTORE PUSH1 0x20 ADD DUP3 DUP1 SLOAD PUSH2 0xA4F SWAP1 PUSH2 0x1360 JUMP JUMPDEST DUP1 ISZERO PUSH2 0xA9A JUMPI DUP1 PUSH1 0x1F LT PUSH2 0xA71 JUMPI PUSH2 0x100 DUP1 DUP4 SLOAD DIV MUL DUP4 MSTORE SWAP2 PUSH1 0x20 ADD SWAP2 PUSH2 0xA9A JUMP JUMPDEST DUP3 ADD SWAP2 SWAP1 PUSH0 MSTORE PUSH1 0x20 PUSH0 KECCAK256 SWAP1 JUMPDEST DUP2 SLOAD DUP2 MSTORE SWAP1 PUSH1 0x1 ADD SWAP1 PUSH1 0x20 ADD DUP1 DUP4 GT PUSH2 0xA7D JUMPI DUP3 SWAP1 SUB PUSH1 0x1F AND DUP3 ADD SWAP2 JUMPDEST POP POP POP POP POP SWAP2 POP SWAP3 POP SWAP3 POP SWAP3 POP SWAP1 SWAP2 SWAP3 JUMP JUMPDEST PUSH1 0x3 DUP1 SLOAD PUSH2 0xAB9 SWAP1 PUSH2 0x1360 JUMP JUMPDEST DUP1 PUSH1 0x1F ADD PUSH1 0x20 DUP1 SWAP2 DIV MUL PUSH1 0x20 ADD PUSH1 0x40 MLOAD SWAP1 DUP2 ADD PUSH1 0x40 MSTORE DUP1 SWAP3 SWAP2 SWAP1 DUP2 DUP2 MSTORE PUSH1 0x20 ADD DUP3 DUP1 SLOAD PUSH2 0xAE5 SWAP1 PUSH2 0x1360 JUMP JUMPDEST DUP1 ISZERO PUSH2 0xB30 JUMPI DUP1 PUSH1 0x1F LT PUSH2 0xB07 JUMPI PUSH2 0x100 DUP1 DUP4 SLOAD DIV MUL DUP4 MSTORE SWAP2 PUSH1 0x20 ADD SWAP2 PUSH2 0xB30 JUMP JUMPDEST DUP3 ADD SWAP2 SWAP1 PUSH0 MSTORE PUSH1 0x20 PUSH0 KECCAK256 SWAP1 JUMPDEST DUP2 SLOAD DUP2 MSTORE SWAP1 PUSH1 0x1 ADD SWAP1 PUSH1 0x20 ADD DUP1 DUP4 GT PUSH2 0xB13 JUMPI DUP3 SWAP1 SUB PUSH1 0x1F AND DUP3 ADD SWAP2 JUMPDEST POP POP POP POP POP DUP2 JUMP JUMPDEST PUSH1 0x7 DUP1 SLOAD PUSH2 0xB45 SWAP1 PUSH2 0x1360 JUMP JUMPDEST DUP1 PUSH1 0x1F ADD PUSH1 0x20 DUP1 SWAP2 DIV MUL PUSH1 0x20 ADD PUSH1 0x40 MLOAD SWAP1 DUP2 ADD PUSH1 0x40 MSTORE DUP1 SWAP3 SWAP2 SWAP1 DUP2 DUP2 MSTORE PUSH1 0x20 ADD DUP3 DUP1 SLOAD PUSH2 0xB71 SWAP1 PUSH2 0x1360 JUMP JUMPDEST DUP1 ISZERO PUSH2 0xBBC JUMPI DUP1 PUSH1 0x1F LT PUSH2 0xB93 JUMPI PUSH2 0x100 DUP1 DUP4 SLOAD DIV MUL DUP4 MSTORE SWAP2 PUSH1 0x20 ADD SWAP2 PUSH2 0xBBC JUMP JUMPDEST DUP3 ADD SWAP2 SWAP1 PUSH0 MSTORE PUSH1 0x20 PUSH0 KECCAK256 SWAP1 JUMPDEST DUP2 SLOAD DUP2 MSTORE SWAP1 PUSH1 0x1 ADD SWAP1 PUSH1 0x20 ADD DUP1 DUP4 GT PUSH2 0xB9F JUMPI DUP3 SWAP1 SUB PUSH1 0x1F AND DUP3 ADD SWAP2 JUMPDEST POP POP POP POP POP DUP2 JUMP JUMPDEST PUSH1 0x5 DUP1 SLOAD PUSH2 0xBD1 SWAP1 PUSH2 0x1360 JUMP JUMPDEST DUP1 PUSH1 0x1F ADD PUSH1 0x20 DUP1 SWAP2 DIV MUL PUSH1 0x20 ADD PUSH1 0x40 MLOAD SWAP1 DUP2 ADD PUSH1 0x40 MSTORE DUP1 SWAP3 SWAP2 SWAP1 DUP2 DUP2 MSTORE PUSH1 0x20 ADD DUP3 DUP1 SLOAD PUSH2 0xBFD SWAP1 PUSH2 0x1360 JUMP JUMPDEST DUP1 ISZERO PUSH2 0xC48 JUMPI DUP1 PUSH1 0x1F LT PUSH2 0xC1F JUMPI PUSH2 0x100 DUP1 DUP4 SLOAD DIV MUL DUP4 MSTORE SWAP2 PUSH1 0x20 ADD SWAP2 PUSH2 0xC48 JUMP JUMPDEST DUP3 ADD SWAP2 SWAP1 PUSH0 MSTORE PUSH1 0x20 PUSH0 KECCAK256 SWAP1 JUMPDEST DUP2 SLOAD DUP2 MSTORE SWAP1 PUSH1 0x1 ADD SWAP1 PUSH1 0x20 ADD DUP1 DUP4 GT PUSH2 0xC2B JUMPI DUP3 SWAP1 SUB PUSH1 0x1F AND DUP3 ADD SWAP2 JUMPDEST POP POP POP POP POP DUP2 JUMP JUMPDEST PUSH0 DUP1 SLOAD PUSH2 0xC5C SWAP1 PUSH2 0x1360 JUMP JUMPDEST DUP1 PUSH1 0x1F ADD PUSH1 0x20 DUP1 SWAP2 DIV MUL PUSH1 0x20 ADD PUSH1 0x40 MLOAD SWAP1 DUP2 ADD PUSH1 0x40 MSTORE DUP1 SWAP3 SWAP2 SWAP1 DUP2 DUP2 MSTORE PUSH1 0x20 ADD DUP3 DUP1 SLOAD PUSH2 0xC88 SWAP1 PUSH2 0x1360 JUMP JUMPDEST DUP1 ISZERO PUSH2 0xCD3 JUMPI DUP1 PUSH1 0x1F LT PUSH2 0xCAA JUMPI PUSH2 0x100 DUP1 DUP4 SLOAD DIV MUL DUP4 MSTORE SWAP2 PUSH1 0x20 ADD SWAP2 PUSH2 0xCD3 JUMP JUMPDEST DUP3 ADD SWAP2 SWAP1 PUSH0 MSTORE PUSH1 0x20 PUSH0 KECCAK256 SWAP1 JUMPDEST DUP2 SLOAD DUP2 MSTORE SWAP1 PUSH1 0x1 ADD SWAP1 PUSH1 0x20 ADD DUP1 DUP4 GT PUSH2 0xCB6 JUMPI DUP3 SWAP1 SUB PUSH1 0x1F AND DUP3 ADD SWAP2 JUMPDEST POP POP POP POP POP DUP2 JUMP JUMPDEST PUSH1 0x6 SLOAD DUP2 JUMP JUMPDEST PUSH1 0x60 PUSH1 0x3 PUSH1 0x4 PUSH1 0x5 PUSH2 0xCF4 PUSH1 0x6 SLOAD PUSH2 0xDEC JUMP JUMPDEST PUSH1 0x7 PUSH1 0x8 PUSH2 0xD00 PUSH2 0xDB6 JUMP JUMPDEST PUSH1 0x40 MLOAD PUSH1 0x20 ADD PUSH2 0xD16 SWAP8 SWAP7 SWAP6 SWAP5 SWAP4 SWAP3 SWAP2 SWAP1 PUSH2 0x18BC JUMP JUMPDEST PUSH1 0x40 MLOAD PUSH1 0x20 DUP2 DUP4 SUB SUB DUP2 MSTORE SWAP1 PUSH1 0x40 MSTORE SWAP1 POP SWAP1 JUMP JUMPDEST PUSH1 0x8 DUP1 SLOAD PUSH2 0xD37 SWAP1 PUSH2 0x1360 JUMP JUMPDEST DUP1 PUSH1 0x1F ADD PUSH1 0x20 DUP1 SWAP2 DIV MUL PUSH1 0x20 ADD PUSH1 0x40 MLOAD SWAP1 DUP2 ADD PUSH1 0x40 MSTORE DUP1 SWAP3 SWAP2 SWAP1 DUP2 DUP2 MSTORE PUSH1 0x20 ADD DUP3 DUP1 SLOAD PUSH2 0xD63 SWAP1 PUSH2 0x1360 JUMP JUMPDEST DUP1 ISZERO PUSH2 0xDAE JUMPI DUP1 PUSH1 0x1F LT PUSH2 0xD85 JUMPI PUSH2 0x100 DUP1 DUP4 SLOAD DIV MUL DUP4 MSTORE SWAP2 PUSH1 0x20 ADD SWAP2 PUSH2 0xDAE JUMP JUMPDEST DUP3 ADD SWAP2 SWAP1 PUSH0 MSTORE PUSH1 0x20 PUSH0 KECCAK256 SWAP1 JUMPDEST DUP2 SLOAD DUP2 MSTORE SWAP1 PUSH1 0x1 ADD SWAP1 PUSH1 0x20 ADD DUP1 DUP4 GT PUSH2 0xD91 JUMPI DUP3 SWAP1 SUB PUSH1 0x1F AND DUP3 ADD SWAP2 JUMPDEST POP POP POP POP POP DUP2 JUMP JUMPDEST PUSH1 0x60 PUSH0 PUSH1 0x1 PUSH2 0xDC6 PUSH1 0x2 SLOAD PUSH2 0xDEC JUMP JUMPDEST PUSH1 0x40 MLOAD PUSH1 0x20 ADD PUSH2 0xDD8 SWAP4 SWAP3 SWAP2 SWAP1 PUSH2 0x1A4B JUMP JUMPDEST PUSH1 0x40 MLOAD PUSH1 0x20 DUP2 DUP4 SUB SUB DUP2 MSTORE SWAP1 PUSH1 0x40 MSTORE SWAP1 POP SWAP1 JUMP JUMPDEST PUSH1 0x60 PUSH0 DUP3 SUB PUSH2 0xE32 JUMPI PUSH1 0x40 MLOAD DUP1 PUSH1 0x40 ADD PUSH1 0x40 MSTORE DUP1 PUSH1 0x1 DUP2 MSTORE PUSH1 0x20 ADD PUSH32 0x3000000000000000000000000000000000000000000000000000000000000000 DUP2 MSTORE POP SWAP1 POP PUSH2 0xF60 JUMP JUMPDEST PUSH0 DUP3 SWAP1 POP PUSH0 JUMPDEST PUSH0 DUP3 EQ PUSH2 0xE61 JUMPI DUP1 DUP1 PUSH2 0xE4A SWAP1 PUSH2 0x1AC9 JUMP JUMPDEST SWAP2 POP POP PUSH1 0xA DUP3 PUSH2 0xE5A SWAP2 SWAP1 PUSH2 0x1B3D JUMP JUMPDEST SWAP2 POP PUSH2 0xE38 JUMP JUMPDEST PUSH0 DUP2 PUSH8 0xFFFFFFFFFFFFFFFF DUP2 GT ISZERO PUSH2 0xE7C JUMPI PUSH2 0xE7B PUSH2 0x100E JUMP JUMPDEST JUMPDEST PUSH1 0x40 MLOAD SWAP1 DUP1 DUP3 MSTORE DUP1 PUSH1 0x1F ADD PUSH1 0x1F NOT AND PUSH1 0x20 ADD DUP3 ADD PUSH1 0x40 MSTORE DUP1 ISZERO PUSH2 0xEAE JUMPI DUP2 PUSH1 0x20 ADD PUSH1 0x1 DUP3 MUL DUP1 CALLDATASIZE DUP4 CALLDATACOPY DUP1 DUP3 ADD SWAP2 POP POP SWAP1 POP JUMPDEST POP SWAP1 POP PUSH0 DUP3 SWAP1 POP JUMPDEST PUSH0 DUP7 EQ PUSH2 0xF58 JUMPI PUSH1 0x1 DUP2 PUSH2 0xECA SWAP2 SWAP1 PUSH2 0x1B6D JUMP JUMPDEST SWAP1 POP PUSH0 PUSH1 0xA DUP1 DUP9 PUSH2 0xEDB SWAP2 SWAP1 PUSH2 0x1B3D JUMP JUMPDEST PUSH2 0xEE5 SWAP2 SWAP1 PUSH2 0x1BA0 JUMP JUMPDEST DUP8 PUSH2 0xEF0 SWAP2 SWAP1 PUSH2 0x1B6D JUMP JUMPDEST PUSH1 0x30 PUSH2 0xEFC SWAP2 SWAP1 PUSH2 0x1BED JUMP JUMPDEST SWAP1 POP DUP1 PUSH1 0xF8 SHL DUP4 DUP4 DUP2 MLOAD DUP2 LT PUSH2 0xF15 JUMPI PUSH2 0xF14 PUSH2 0x1C21 JUMP JUMPDEST JUMPDEST PUSH1 0x20 ADD ADD SWAP1 PUSH31 0xFFFFFFFFFFFFFFFFFFFFFFFFFFFFFFFFFFFFFFFFFFFFFFFFFFFFFFFFFFFFFF NOT AND SWAP1 DUP2 PUSH0 BYTE SWAP1 MSTORE8 POP PUSH1 0xA DUP8 PUSH2 0xF50 SWAP2 SWAP1 PUSH2 0x1B3D JUMP JUMPDEST SWAP7 POP POP PUSH2 0xEB6 JUMP JUMPDEST DUP2 SWAP5 POP POP POP POP POP JUMPDEST SWAP2 SWAP1 POP JUMP JUMPDEST PUSH0 DUP2 MLOAD SWAP1 POP SWAP2 SWAP1 POP JUMP JUMPDEST PUSH0 DUP3 DUP3 MSTORE PUSH1 0x20 DUP3 ADD SWAP1 POP SWAP3 SWAP2 POP POP JUMP JUMPDEST DUP3 DUP2 DUP4 MCOPY PUSH0 DUP4 DUP4 ADD MSTORE POP POP POP JUMP JUMPDEST PUSH0 PUSH1 0x1F NOT PUSH1 0x1F DUP4 ADD AND SWAP1 POP SWAP2 SWAP1 POP JUMP JUMPDEST PUSH0 PUSH2 0xFA7 DUP3 PUSH2 0xF65 JUMP JUMPDEST PUSH2 0xFB1 DUP2 DUP6 PUSH2 0xF6F JUMP JUMPDEST SWAP4 POP PUSH2 0xFC1 DUP2 DUP6 PUSH1 0x20 DUP7 ADD PUSH2 0xF7F JUMP JUMPDEST PUSH2 0xFCA DUP2 PUSH2 0xF8D JUMP JUMPDEST DUP5 ADD SWAP2 POP POP SWAP3 SWAP2 POP POP JUMP JUMPDEST PUSH0 PUSH1 0x20 DUP3 ADD SWAP1 POP DUP2 DUP2 SUB PUSH0 DUP4 ADD MSTORE PUSH2 0xFED DUP2 DUP5 PUSH2 0xF9D JUMP JUMPDEST SWAP1 POP SWAP3 SWAP2 POP POP JUMP JUMPDEST PUSH0 PUSH1 0x40 MLOAD SWAP1 POP SWAP1 JUMP JUMPDEST PUSH0 DUP1 REVERT JUMPDEST PUSH0 DUP1 REVERT JUMPDEST PUSH0 DUP1 REVERT JUMPDEST PUSH0 DUP1 REVERT JUMPDEST PUSH32 0x4E487B7100000000000000000000000000000000000000000000000000000000 PUSH0 MSTORE PUSH1 0x41 PUSH1 0x4 MSTORE PUSH1 0x24 PUSH0 REVERT JUMPDEST PUSH2 0x1044 DUP3 PUSH2 0xF8D JUMP JUMPDEST DUP2 ADD DUP2 DUP2 LT PUSH8 0xFFFFFFFFFFFFFFFF DUP3 GT OR ISZERO PUSH2 0x1063 JUMPI PUSH2 0x1062 PUSH2 0x100E JUMP JUMPDEST JUMPDEST DUP1 PUSH1 0x40 MSTORE POP POP POP JUMP JUMPDEST PUSH0 PUSH2 0x1075 PUSH2 0xFF5 JUMP JUMPDEST SWAP1 POP PUSH2 0x1081 DUP3 DUP3 PUSH2 0x103B JUMP JUMPDEST SWAP2 SWAP1 POP JUMP JUMPDEST PUSH0 PUSH8 0xFFFFFFFFFFFFFFFF DUP3 GT ISZERO PUSH2 0x10A0 JUMPI PUSH2 0x109F PUSH2 0x100E JUMP JUMPDEST JUMPDEST PUSH2 0x10A9 DUP3 PUSH2 0xF8D JUMP JUMPDEST SWAP1 POP PUSH1 0x20 DUP2 ADD SWAP1 POP SWAP2 SWAP1 POP JUMP JUMPDEST DUP3 DUP2 DUP4 CALLDATACOPY PUSH0 DUP4 DUP4 ADD MSTORE POP POP POP JUMP JUMPDEST PUSH0 PUSH2 0x10D6 PUSH2 0x10D1 DUP5 PUSH2 0x1086 JUMP JUMPDEST PUSH2 0x106C JUMP JUMPDEST SWAP1 POP DUP3 DUP2 MSTORE PUSH1 0x20 DUP2 ADD DUP5 DUP5 DUP5 ADD GT ISZERO PUSH2 0x10F2 JUMPI PUSH2 0x10F1 PUSH2 0x100A JUMP JUMPDEST JUMPDEST PUSH2 0x10FD DUP5 DUP3 DUP6 PUSH2 0x10B6 JUMP JUMPDEST POP SWAP4 SWAP3 POP POP POP JUMP JUMPDEST PUSH0 DUP3 PUSH1 0x1F DUP4 ADD SLT PUSH2 0x1119 JUMPI PUSH2 0x1118 PUSH2 0x1006 JUMP JUMPDEST JUMPDEST DUP2 CALLDATALOAD PUSH2 0x1129 DUP5 DUP3 PUSH1 0x20 DUP7 ADD PUSH2 0x10C4 JUMP JUMPDEST SWAP2 POP POP SWAP3 SWAP2 POP POP JUMP JUMPDEST PUSH0 PUSH1 0x20 DUP3 DUP5 SUB SLT ISZERO PUSH2 0x1147 JUMPI PUSH2 0x1146 PUSH2 0xFFE JUMP JUMPDEST JUMPDEST PUSH0 DUP3 ADD CALLDATALOAD PUSH8 0xFFFFFFFFFFFFFFFF DUP2 GT ISZERO PUSH2 0x1164 JUMPI PUSH2 0x1163 PUSH2 0x1002 JUMP JUMPDEST JUMPDEST PUSH2 0x1170 DUP5 DUP3 DUP6 ADD PUSH2 0x1105 JUMP JUMPDEST SWAP2 POP POP SWAP3 SWAP2 POP POP JUMP JUMPDEST PUSH0 DUP2 SWAP1 POP SWAP2 SWAP1 POP JUMP JUMPDEST PUSH2 0x118B DUP2 PUSH2 0x1179 JUMP JUMPDEST DUP3 MSTORE POP POP JUMP JUMPDEST PUSH0 PUSH2 0x120 DUP3 ADD SWAP1 POP DUP2 DUP2 SUB PUSH0 DUP4 ADD MSTORE PUSH2 0x11AA DUP2 DUP13 PUSH2 0xF9D JUMP JUMPDEST SWAP1 POP DUP2 DUP2 SUB PUSH1 0x20 DUP4 ADD MSTORE PUSH2 0x11BE DUP2 DUP12 PUSH2 0xF9D JUMP JUMPDEST SWAP1 POP DUP2 DUP2 SUB PUSH1 0x40 DUP4 ADD MSTORE PUSH2 0x11D2 DUP2 DUP11 PUSH2 0xF9D JUMP JUMPDEST SWAP1 POP PUSH2 0x11E1 PUSH1 0x60 DUP4 ADD DUP10 PUSH2 0x1182 JUMP JUMPDEST DUP2 DUP2 SUB PUSH1 0x80 DUP4 ADD MSTORE PUSH2 0x11F3 DUP2 DUP9 PUSH2 0xF9D JUMP JUMPDEST SWAP1 POP DUP2 DUP2 SUB PUSH1 0xA0 DUP4 ADD MSTORE PUSH2 0x1207 DUP2 DUP8 PUSH2 0xF9D JUMP JUMPDEST SWAP1 POP DUP2 DUP2 SUB PUSH1 0xC0 DUP4 ADD MSTORE PUSH2 0x121B DUP2 DUP7 PUSH2 0xF9D JUMP JUMPDEST SWAP1 POP DUP2 DUP2 SUB PUSH1 0xE0 DUP4 ADD MSTORE PUSH2 0x122F DUP2 DUP6 PUSH2 0xF9D JUMP JUMPDEST SWAP1 POP PUSH2 0x123F PUSH2 0x100 DUP4 ADD DUP5 PUSH2 0x1182 JUMP JUMPDEST SWAP11 SWAP10 POP POP POP POP POP POP POP POP POP POP JUMP JUMPDEST PUSH0 PUSH1 0x40 DUP3 ADD SWAP1 POP DUP2 DUP2 SUB PUSH0 DUP4 ADD MSTORE PUSH2 0x1265 DUP2 DUP6 PUSH2 0xF9D JUMP JUMPDEST SWAP1 POP DUP2 DUP2 SUB PUSH1 0x20 DUP4 ADD MSTORE PUSH2 0x1279 DUP2 DUP5 PUSH2 0xF9D JUMP JUMPDEST SWAP1 POP SWAP4 SWAP3 POP POP POP JUMP JUMPDEST PUSH2 0x128B DUP2 PUSH2 0x1179 JUMP JUMPDEST DUP2 EQ PUSH2 0x1295 JUMPI PUSH0 DUP1 REVERT JUMPDEST POP JUMP JUMPDEST PUSH0 DUP2 CALLDATALOAD SWAP1 POP PUSH2 0x12A6 DUP2 PUSH2 0x1282 JUMP JUMPDEST SWAP3 SWAP2 POP POP JUMP JUMPDEST PUSH0 PUSH1 0x20 DUP3 DUP5 SUB SLT ISZERO PUSH2 0x12C1 JUMPI PUSH2 0x12C0 PUSH2 0xFFE JUMP JUMPDEST JUMPDEST PUSH0 PUSH2 0x12CE DUP5 DUP3 DUP6 ADD PUSH2 0x1298 JUMP JUMPDEST SWAP2 POP POP SWAP3 SWAP2 POP POP JUMP JUMPDEST PUSH0 PUSH1 0x20 DUP3 ADD SWAP1 POP PUSH2 0x12EA PUSH0 DUP4 ADD DUP5 PUSH2 0x1182 JUMP JUMPDEST SWAP3 SWAP2 POP POP JUMP JUMPDEST PUSH0 PUSH1 0x60 DUP3 ADD SWAP1 POP DUP2 DUP2 SUB PUSH0 DUP4 ADD MSTORE PUSH2 0x1308 DUP2 DUP7 PUSH2 0xF9D JUMP JUMPDEST SWAP1 POP DUP2 DUP2 SUB PUSH1 0x20 DUP4 ADD MSTORE PUSH2 0x131C DUP2 DUP6 PUSH2 0xF9D JUMP JUMPDEST SWAP1 POP PUSH2 0x132B PUSH1 0x40 DUP4 ADD DUP5 PUSH2 0x1182 JUMP JUMPDEST SWAP5 SWAP4 POP POP POP POP JUMP JUMPDEST PUSH32 0x4E487B7100000000000000000000000000000000000000000000000000000000 PUSH0 MSTORE PUSH1 0x22 PUSH1 0x4 MSTORE PUSH1 0x24 PUSH0 REVERT JUMPDEST PUSH0 PUSH1 0x2 DUP3 DIV SWAP1 POP PUSH1 0x1 DUP3 AND DUP1 PUSH2 0x1377 JUMPI PUSH1 0x7F DUP3 AND SWAP2 POP JUMPDEST PUSH1 0x20 DUP3 LT DUP2 SUB PUSH2 0x138A JUMPI PUSH2 0x1389 PUSH2 0x1333 JUMP JUMPDEST JUMPDEST POP SWAP2 SWAP1 POP JUMP JUMPDEST PUSH0 DUP2 SWAP1 POP DUP2 PUSH0 MSTORE PUSH1 0x20 PUSH0 KECCAK256 SWAP1 POP SWAP2 SWAP1 POP JUMP JUMPDEST PUSH0 PUSH1 0x20 PUSH1 0x1F DUP4 ADD DIV SWAP1 POP SWAP2 SWAP1 POP JUMP JUMPDEST PUSH0 DUP3 DUP3 SHL SWAP1 POP SWAP3 SWAP2 POP POP JUMP JUMPDEST PUSH0 PUSH1 0x8 DUP4 MUL PUSH2 0x13EC PUSH32 0xFFFFFFFFFFFFFFFFFFFFFFFFFFFFFFFFFFFFFFFFFFFFFFFFFFFFFFFFFFFFFFFF DUP3 PUSH2 0x13B1 JUMP JUMPDEST PUSH2 0x13F6 DUP7 DUP4 PUSH2 0x13B1 JUMP JUMPDEST SWAP6 POP DUP1 NOT DUP5 AND SWAP4 POP DUP1 DUP7 AND DUP5 OR SWAP3 POP POP POP SWAP4 SWAP3 POP POP POP JUMP JUMPDEST PUSH0 DUP2 SWAP1 POP SWAP2 SWAP1 POP JUMP JUMPDEST PUSH0 PUSH2 0x1431 PUSH2 0x142C PUSH2 0x1427 DUP5 PUSH2 0x1179 JUMP JUMPDEST PUSH2 0x140E JUMP JUMPDEST PUSH2 0x1179 JUMP JUMPDEST SWAP1 POP SWAP2 SWAP1 POP JUMP JUMPDEST PUSH0 DUP2 SWAP1 POP SWAP2 SWAP1 POP JUMP JUMPDEST PUSH2 0x144A DUP4 PUSH2 0x1417 JUMP JUMPDEST PUSH2 0x145E PUSH2 0x1456 DUP3 PUSH2 0x1438 JUMP JUMPDEST DUP5 DUP5 SLOAD PUSH2 0x13BD JUMP JUMPDEST DUP3 SSTORE POP POP POP POP JUMP JUMPDEST PUSH0 SWAP1 JUMP JUMPDEST PUSH2 0x1472 PUSH2 0x1466 JUMP JUMPDEST PUSH2 0x147D DUP2 DUP5 DUP5 PUSH2 0x1441 JUMP JUMPDEST POP POP POP JUMP JUMPDEST JUMPDEST DUP2 DUP2 LT ISZERO PUSH2 0x14A0 JUMPI PUSH2 0x1495 PUSH0 DUP3 PUSH2 0x146A JUMP JUMPDEST PUSH1 0x1 DUP2 ADD SWAP1 POP PUSH2 0x1483 JUMP JUMPDEST POP POP JUMP JUMPDEST PUSH1 0x1F DUP3 GT ISZERO PUSH2 0x14E5 JUMPI PUSH2 0x14B6 DUP2 PUSH2 0x1390 JUMP JUMPDEST PUSH2 0x14BF DUP5 PUSH2 0x13A2 JUMP JUMPDEST DUP2 ADD PUSH1 0x20 DUP6 LT ISZERO PUSH2 0x14CE JUMPI DUP2 SWAP1 POP JUMPDEST PUSH2 0x14E2 PUSH2 0x14DA DUP6 PUSH2 0x13A2 JUMP JUMPDEST DUP4 ADD DUP3 PUSH2 0x1482 JUMP JUMPDEST POP POP JUMPDEST POP POP POP JUMP JUMPDEST PUSH0 DUP3 DUP3 SHR SWAP1 POP SWAP3 SWAP2 POP POP JUMP JUMPDEST PUSH0 PUSH2 0x1505 PUSH0 NOT DUP5 PUSH1 0x8 MUL PUSH2 0x14EA JUMP JUMPDEST NOT DUP1 DUP4 AND SWAP2 POP POP SWAP3 SWAP2 POP POP JUMP JUMPDEST PUSH0 PUSH2 0x151D DUP4 DUP4 PUSH2 0x14F6 JUMP JUMPDEST SWAP2 POP DUP3 PUSH1 0x2 MUL DUP3 OR SWAP1 POP SWAP3 SWAP2 POP POP JUMP JUMPDEST PUSH2 0x1536 DUP3 PUSH2 0xF65 JUMP JUMPDEST PUSH8 0xFFFFFFFFFFFFFFFF DUP2 GT ISZERO PUSH2 0x154F JUMPI PUSH2 0x154E PUSH2 0x100E JUMP JUMPDEST JUMPDEST PUSH2 0x1559 DUP3 SLOAD PUSH2 0x1360 JUMP JUMPDEST PUSH2 0x1564 DUP3 DUP3 DUP6 PUSH2 0x14A4 JUMP JUMPDEST PUSH0 PUSH1 0x20 SWAP1 POP PUSH1 0x1F DUP4 GT PUSH1 0x1 DUP2 EQ PUSH2 0x1595 JUMPI PUSH0 DUP5 ISZERO PUSH2 0x1583 JUMPI DUP3 DUP8 ADD MLOAD SWAP1 POP JUMPDEST PUSH2 0x158D DUP6 DUP3 PUSH2 0x1512 JUMP JUMPDEST DUP7 SSTORE POP PUSH2 0x15F4 JUMP JUMPDEST PUSH1 0x1F NOT DUP5 AND PUSH2 0x15A3 DUP7 PUSH2 0x1390 JUMP JUMPDEST PUSH0 JUMPDEST DUP3 DUP2 LT ISZERO PUSH2 0x15CA JUMPI DUP5 DUP10 ADD MLOAD DUP3 SSTORE PUSH1 0x1 DUP3 ADD SWAP2 POP PUSH1 0x20 DUP6 ADD SWAP5 POP PUSH1 0x20 DUP2 ADD SWAP1 POP PUSH2 0x15A5 JUMP JUMPDEST DUP7 DUP4 LT ISZERO PUSH2 0x15E7 JUMPI DUP5 DUP10 ADD MLOAD PUSH2 0x15E3 PUSH1 0x1F DUP10 AND DUP3 PUSH2 0x14F6 JUMP JUMPDEST DUP4 SSTORE POP JUMPDEST PUSH1 0x1 PUSH1 0x2 DUP9 MUL ADD DUP9 SSTORE POP POP POP JUMPDEST POP POP POP POP POP POP JUMP JUMPDEST PUSH0 DUP2 SWAP1 POP SWAP3 SWAP2 POP POP JUMP JUMPDEST PUSH32 0x53747564656E74204E616D653A20000000000000000000000000000000000000 PUSH0 DUP3 ADD MSTORE POP JUMP JUMPDEST PUSH0 PUSH2 0x163A PUSH1 0xE DUP4 PUSH2 0x15FC JUMP JUMPDEST SWAP2 POP PUSH2 0x1645 DUP3 PUSH2 0x1606 JUMP JUMPDEST PUSH1 0xE DUP3 ADD SWAP1 POP SWAP2 SWAP1 POP JUMP JUMPDEST PUSH0 DUP2 SLOAD PUSH2 0x165C DUP2 PUSH2 0x1360 JUMP JUMPDEST PUSH2 0x1666 DUP2 DUP7 PUSH2 0x15FC JUMP JUMPDEST SWAP5 POP PUSH1 0x1 DUP3 AND PUSH0 DUP2 EQ PUSH2 0x1680 JUMPI PUSH1 0x1 DUP2 EQ PUSH2 0x1695 JUMPI PUSH2 0x16C7 JUMP JUMPDEST PUSH1 0xFF NOT DUP4 AND DUP7 MSTORE DUP2 ISZERO ISZERO DUP3 MUL DUP7 ADD SWAP4 POP PUSH2 0x16C7 JUMP JUMPDEST PUSH2 0x169E DUP6 PUSH2 0x1390 JUMP JUMPDEST PUSH0 JUMPDEST DUP4 DUP2 LT ISZERO PUSH2 0x16BF JUMPI DUP2 SLOAD DUP2 DUP10 ADD MSTORE PUSH1 0x1 DUP3 ADD SWAP2 POP PUSH1 0x20 DUP2 ADD SWAP1 POP PUSH2 0x16A0 JUMP JUMPDEST DUP4 DUP9 ADD SWAP6 POP POP POP JUMPDEST POP POP POP SWAP3 SWAP2 POP POP JUMP JUMPDEST PUSH32 0x2C20526567697374726174696F6E204E6F3A2000000000000000000000000000 PUSH0 DUP3 ADD MSTORE POP JUMP JUMPDEST PUSH0 PUSH2 0x1704 PUSH1 0x13 DUP4 PUSH2 0x15FC JUMP JUMPDEST SWAP2 POP PUSH2 0x170F DUP3 PUSH2 0x16D0 JUMP JUMPDEST PUSH1 0x13 DUP3 ADD SWAP1 POP SWAP2 SWAP1 POP JUMP JUMPDEST PUSH32 0x2C20456C656374697665205375626A6563743A20000000000000000000000000 PUSH0 DUP3 ADD MSTORE POP JUMP JUMPDEST PUSH0 PUSH2 0x174E PUSH1 0x14 DUP4 PUSH2 0x15FC JUMP JUMPDEST SWAP2 POP PUSH2 0x1759 DUP3 PUSH2 0x171A JUMP JUMPDEST PUSH1 0x14 DUP3 ADD SWAP1 POP SWAP2 SWAP1 POP JUMP JUMPDEST PUSH32 0x2C2041766572616765204D61726B733A20000000000000000000000000000000 PUSH0 DUP3 ADD MSTORE POP JUMP JUMPDEST PUSH0 PUSH2 0x1798 PUSH1 0x11 DUP4 PUSH2 0x15FC JUMP JUMPDEST SWAP2 POP PUSH2 0x17A3 DUP3 PUSH2 0x1764 JUMP JUMPDEST PUSH1 0x11 DUP3 ADD SWAP1 POP SWAP2 SWAP1 POP JUMP JUMPDEST PUSH0 PUSH2 0x17B8 DUP3 PUSH2 0xF65 JUMP JUMPDEST PUSH2 0x17C2 DUP2 DUP6 PUSH2 0x15FC JUMP JUMPDEST SWAP4 POP PUSH2 0x17D2 DUP2 DUP6 PUSH1 0x20 DUP7 ADD PUSH2 0xF7F JUMP JUMPDEST DUP1 DUP5 ADD SWAP2 POP POP SWAP3 SWAP2 POP POP JUMP JUMPDEST PUSH32 0x2C204465706172746D656E743A20000000000000000000000000000000000000 PUSH0 DUP3 ADD MSTORE POP JUMP JUMPDEST PUSH0 PUSH2 0x1812 PUSH1 0xE DUP4 PUSH2 0x15FC JUMP JUMPDEST SWAP2 POP PUSH2 0x181D DUP3 PUSH2 0x17DE JUMP JUMPDEST PUSH1 0xE DUP3 ADD SWAP1 POP SWAP2 SWAP1 POP JUMP JUMPDEST PUSH32 0x2C204465706172746D656E7420486561643A2000000000000000000000000000 PUSH0 DUP3 ADD MSTORE POP JUMP JUMPDEST PUSH0 PUSH2 0x185C PUSH1 0x13 DUP4 PUSH2 0x15FC JUMP JUMPDEST SWAP2 POP PUSH2 0x1867 DUP3 PUSH2 0x1828 JUMP JUMPDEST PUSH1 0x13 DUP3 ADD SWAP1 POP SWAP2 SWAP1 POP JUMP JUMPDEST PUSH32 0x2C20000000000000000000000000000000000000000000000000000000000000 PUSH0 DUP3 ADD MSTORE POP JUMP JUMPDEST PUSH0 PUSH2 0x18A6 PUSH1 0x2 DUP4 PUSH2 0x15FC JUMP JUMPDEST SWAP2 POP PUSH2 0x18B1 DUP3 PUSH2 0x1872 JUMP JUMPDEST PUSH1 0x2 DUP3 ADD SWAP1 POP SWAP2 SWAP1 POP JUMP JUMPDEST PUSH0 PUSH2 0x18C6 DUP3 PUSH2 0x162E JUMP JUMPDEST SWAP2 POP PUSH2 0x18D2 DUP3 DUP11 PUSH2 0x1650 JUMP JUMPDEST SWAP2 POP PUSH2 0x18DD DUP3 PUSH2 0x16F8 JUMP JUMPDEST SWAP2 POP PUSH2 0x18E9 DUP3 DUP10 PUSH2 0x1650 JUMP JUMPDEST SWAP2 POP PUSH2 0x18F4 DUP3 PUSH2 0x1742 JUMP JUMPDEST SWAP2 POP PUSH2 0x1900 DUP3 DUP9 PUSH2 0x1650 JUMP JUMPDEST SWAP2 POP PUSH2 0x190B DUP3 PUSH2 0x178C JUMP JUMPDEST SWAP2 POP PUSH2 0x1917 DUP3 DUP8 PUSH2 0x17AE JUMP JUMPDEST SWAP2 POP PUSH2 0x1922 DUP3 PUSH2 0x1806 JUMP JUMPDEST SWAP2 POP PUSH2 0x192E DUP3 DUP7 PUSH2 0x1650 JUMP JUMPDEST SWAP2 POP PUSH2 0x1939 DUP3 PUSH2 0x1850 JUMP JUMPDEST SWAP2 POP PUSH2 0x1945 DUP3 DUP6 PUSH2 0x1650 JUMP JUMPDEST SWAP2 POP PUSH2 0x1950 DUP3 PUSH2 0x189A JUMP JUMPDEST SWAP2 POP PUSH2 0x195C DUP3 DUP5 PUSH2 0x17AE JUMP JUMPDEST SWAP2 POP DUP2 SWAP1 POP SWAP9 SWAP8 POP POP POP POP POP POP POP POP JUMP JUMPDEST PUSH32 0x486F7374656C204E616D653A2000000000000000000000000000000000000000 PUSH0 DUP3 ADD MSTORE POP JUMP JUMPDEST PUSH0 PUSH2 0x19A1 PUSH1 0xD DUP4 PUSH2 0x15FC JUMP JUMPDEST SWAP2 POP PUSH2 0x19AC DUP3 PUSH2 0x196D JUMP JUMPDEST PUSH1 0xD DUP3 ADD SWAP1 POP SWAP2 SWAP1 POP JUMP JUMPDEST PUSH32 0x2C204C6F636174696F6E3A200000000000000000000000000000000000000000 PUSH0 DUP3 ADD MSTORE POP JUMP JUMPDEST PUSH0 PUSH2 0x19EB PUSH1 0xC DUP4 PUSH2 0x15FC JUMP JUMPDEST SWAP2 POP PUSH2 0x19F6 DUP3 PUSH2 0x19B7 JUMP JUMPDEST PUSH1 0xC DUP3 ADD SWAP1 POP SWAP2 SWAP1 POP JUMP JUMPDEST PUSH32 0x2C204E756D626572206F6620526F6F6D733A2000000000000000000000000000 PUSH0 DUP3 ADD MSTORE POP JUMP JUMPDEST PUSH0 PUSH2 0x1A35 PUSH1 0x13 DUP4 PUSH2 0x15FC JUMP JUMPDEST SWAP2 POP PUSH2 0x1A40 DUP3 PUSH2 0x1A01 JUMP JUMPDEST PUSH1 0x13 DUP3 ADD SWAP1 POP SWAP2 SWAP1 POP JUMP JUMPDEST PUSH0 PUSH2 0x1A55 DUP3 PUSH2 0x1995 JUMP JUMPDEST SWAP2 POP PUSH2 0x1A61 DUP3 DUP7 PUSH2 0x1650 JUMP JUMPDEST SWAP2 POP PUSH2 0x1A6C DUP3 PUSH2 0x19DF JUMP JUMPDEST SWAP2 POP PUSH2 0x1A78 DUP3 DUP6 PUSH2 0x1650 JUMP JUMPDEST SWAP2 POP PUSH2 0x1A83 DUP3 PUSH2 0x1A29 JUMP JUMPDEST SWAP2 POP PUSH2 0x1A8F DUP3 DUP5 PUSH2 0x17AE JUMP JUMPDEST SWAP2 POP DUP2 SWAP1 POP SWAP5 SWAP4 POP POP POP POP JUMP JUMPDEST PUSH32 0x4E487B7100000000000000000000000000000000000000000000000000000000 PUSH0 MSTORE PUSH1 0x11 PUSH1 0x4 MSTORE PUSH1 0x24 PUSH0 REVERT JUMPDEST PUSH0 PUSH2 0x1AD3 DUP3 PUSH2 0x1179 JUMP JUMPDEST SWAP2 POP PUSH32 0xFFFFFFFFFFFFFFFFFFFFFFFFFFFFFFFFFFFFFFFFFFFFFFFFFFFFFFFFFFFFFFFF DUP3 SUB PUSH2 0x1B05 JUMPI PUSH2 0x1B04 PUSH2 0x1A9C JUMP JUMPDEST JUMPDEST PUSH1 0x1 DUP3 ADD SWAP1 POP SWAP2 SWAP1 POP JUMP JUMPDEST PUSH32 0x4E487B7100000000000000000000000000000000000000000000000000000000 PUSH0 MSTORE PUSH1 0x12 PUSH1 0x4 MSTORE PUSH1 0x24 PUSH0 REVERT JUMPDEST PUSH0 PUSH2 0x1B47 DUP3 PUSH2 0x1179 JUMP JUMPDEST SWAP2 POP PUSH2 0x1B52 DUP4 PUSH2 0x1179 JUMP JUMPDEST SWAP3 POP DUP3 PUSH2 0x1B62 JUMPI PUSH2 0x1B61 PUSH2 0x1B10 JUMP JUMPDEST JUMPDEST DUP3 DUP3 DIV SWAP1 POP SWAP3 SWAP2 POP POP JUMP JUMPDEST PUSH0 PUSH2 0x1B77 DUP3 PUSH2 0x1179 JUMP JUMPDEST SWAP2 POP PUSH2 0x1B82 DUP4 PUSH2 0x1179 JUMP JUMPDEST SWAP3 POP DUP3 DUP3 SUB SWAP1 POP DUP2 DUP2 GT ISZERO PUSH2 0x1B9A JUMPI PUSH2 0x1B99 PUSH2 0x1A9C JUMP JUMPDEST JUMPDEST SWAP3 SWAP2 POP POP JUMP JUMPDEST PUSH0 PUSH2 0x1BAA DUP3 PUSH2 0x1179 JUMP JUMPDEST SWAP2 POP PUSH2 0x1BB5 DUP4 PUSH2 0x1179 JUMP JUMPDEST SWAP3 POP DUP3 DUP3 MUL PUSH2 0x1BC3 DUP2 PUSH2 0x1179 JUMP JUMPDEST SWAP2 POP DUP3 DUP3 DIV DUP5 EQ DUP4 ISZERO OR PUSH2 0x1BDA JUMPI PUSH2 0x1BD9 PUSH2 0x1A9C JUMP JUMPDEST JUMPDEST POP SWAP3 SWAP2 POP POP JUMP JUMPDEST PUSH0 PUSH1 0xFF DUP3 AND SWAP1 POP SWAP2 SWAP1 POP JUMP JUMPDEST PUSH0 PUSH2 0x1BF7 DUP3 PUSH2 0x1BE1 JUMP JUMPDEST SWAP2 POP PUSH2 0x1C02 DUP4 PUSH2 0x1BE1 JUMP JUMPDEST SWAP3 POP DUP3 DUP3 ADD SWAP1 POP PUSH1 0xFF DUP2 GT ISZERO PUSH2 0x1C1B JUMPI PUSH2 0x1C1A PUSH2 0x1A9C JUMP JUMPDEST JUMPDEST SWAP3 SWAP2 POP POP JUMP JUMPDEST PUSH32 0x4E487B7100000000000000000000000000000000000000000000000000000000 PUSH0 MSTORE PUSH1 0x32 PUSH1 0x4 MSTORE PUSH1 0x24 PUSH0 REVERT INVALID LOG2 PUSH5 0x6970667358 0x22 SLT KECCAK256 0xD5 GASPRICE SWAP12 PUSH7 0xB7B6729615E577 SMOD PUSH14 0xADE24BF93C37E995A9842FB2A47D 0xD3 0xB3 SWAP1 0x2E 0xC9 PUSH5 0x736F6C6343 STOP ADDMOD BYTE STOP CALLER "
		},
		"gasEstimates": {
			"creation": {
				"codeDepositCost": "1460000",
				"executionCost": "infinite",
				"totalCost": "infinite"
			},
			"external": {
				"avgMarks()": "2469",
				"deptHead()": "infinite",
				"deptName()": "infinite",
				"electiveSubject()": "infinite",
				"getData()": "infinite",
				"getHostelDetails()": "infinite",
				"hostelLocation()": "infinite",
				"hostelName()": "infinite",
				"numberOfRooms()": "2514",
				"printData()": "infinite",
				"printDepartmentDetails()": "infinite",
				"printHostelDetails()": "infinite",
				"regdNo()": "infinite",
				"setHostelLocation(string)": "infinite",
				"setHostelName(string)": "infinite",
				"setNumberOfRooms(uint256)": "22582",
				"studentName()": "infinite"
			}
		},
		"methodIdentifiers": {
			"avgMarks()": "d57831f5",
			"deptHead()": "eb96548f",
			"deptName()": "b975abb3",
			"electiveSubject()": "c607ba4d",
			"getData()": "3bc5de30",
			"getHostelDetails()": "9d8c8315",
			"hostelLocation()": "11ebae41",
			"hostelName()": "cb9cb0c2",
			"numberOfRooms()": "99d568b3",
			"printData()": "e81bd2a4",
			"printDepartmentDetails()": "4cc4ce5d",
			"printHostelDetails()": "f8fd1948",
			"regdNo()": "8d1d2d90",
			"setHostelLocation(string)": "366db281",
			"setHostelName(string)": "908df63d",
			"setNumberOfRooms(uint256)": "9727faef",
			"studentName()": "b508ba31"
		}
	},
	"abi": [
		{
			"inputs": [
				{
					"internalType": "string",
					"name": "_studentName",
					"type": "string"
				},
				{
					"internalType": "string",
					"name": "_regdNo",
					"type": "string"
				},
				{
					"internalType": "string",
					"name": "_electiveSubject",
					"type": "string"
				},
				{
					"internalType": "uint256",
					"name": "_avgMarks",
					"type": "uint256"
				},
				{
					"internalType": "string",
					"name": "_deptName",
					"type": "string"
				},
				{
					"internalType": "string",
					"name": "_deptHead",
					"type": "string"
				},
				{
					"internalType": "string",
					"name": "_hostelName",
					"type": "string"
				},
				{
					"internalType": "string",
					"name": "_hostelLocation",
					"type": "string"
				},
				{
					"internalType": "uint256",
					"name": "_numberOfRooms",
					"type": "uint256"
				}
			],
			"stateMutability": "nonpayable",
			"type": "constructor"
		},
		{
			"inputs": [],
			"name": "avgMarks",
			"outputs": [
				{
					"internalType": "uint256",
					"name": "",
					"type": "uint256"
				}
			],
			"stateMutability": "view",
			"type": "function"
		},
		{
			"inputs": [],
			"name": "deptHead",
			"outputs": [
				{
					"internalType": "string",
					"name": "",
					"type": "string"
				}
			],
			"stateMutability": "view",
			"type": "function"
		},
		{
			"inputs": [],
			"name": "deptName",
			"outputs": [
				{
					"internalType": "string",
					"name": "",
					"type": "string"
				}
			],
			"stateMutability": "view",
			"type": "function"
		},
		{
			"inputs": [],
			"name": "electiveSubject",
			"outputs": [
				{
					"internalType": "string",
					"name": "",
					"type": "string"
				}
			],
			"stateMutability": "view",
			"type": "function"
		},
		{
			"inputs": [],
			"name": "getData",
			"outputs": [
				{
					"internalType": "string",
					"name": "",
					"type": "string"
				},
				{
					"internalType": "string",
					"name": "",
					"type": "string"
				},
				{
					"internalType": "string",
					"name": "",
					"type": "string"
				},
				{
					"internalType": "uint256",
					"name": "",
					"type": "uint256"
				},
				{
					"internalType": "string",
					"name": "",
					"type": "string"
				},
				{
					"internalType": "string",
					"name": "",
					"type": "string"
				},
				{
					"internalType": "string",
					"name": "",
					"type": "string"
				},
				{
					"internalType": "string",
					"name": "",
					"type": "string"
				},
				{
					"internalType": "uint256",
					"name": "",
					"type": "uint256"
				}
			],
			"stateMutability": "view",
			"type": "function"
		},
		{
			"inputs": [],
			"name": "getHostelDetails",
			"outputs": [
				{
					"internalType": "string",
					"name": "",
					"type": "string"
				},
				{
					"internalType": "string",
					"name": "",
					"type": "string"
				},
				{
					"internalType": "uint256",
					"name": "",
					"type": "uint256"
				}
			],
			"stateMutability": "view",
			"type": "function"
		},
		{
			"inputs": [],
			"name": "hostelLocation",
			"outputs": [
				{
					"internalType": "string",
					"name": "",
					"type": "string"
				}
			],
			"stateMutability": "view",
			"type": "function"
		},
		{
			"inputs": [],
			"name": "hostelName",
			"outputs": [
				{
					"internalType": "string",
					"name": "",
					"type": "string"
				}
			],
			"stateMutability": "view",
			"type": "function"
		},
		{
			"inputs": [],
			"name": "numberOfRooms",
			"outputs": [
				{
					"internalType": "uint256",
					"name": "",
					"type": "uint256"
				}
			],
			"stateMutability": "view",
			"type": "function"
		},
		{
			"inputs": [],
			"name": "printData",
			"outputs": [
				{
					"internalType": "string",
					"name": "",
					"type": "string"
				}
			],
			"stateMutability": "view",
			"type": "function"
		},
		{
			"inputs": [],
			"name": "printDepartmentDetails",
			"outputs": [
				{
					"internalType": "string",
					"name": "",
					"type": "string"
				},
				{
					"internalType": "string",
					"name": "",
					"type": "string"
				}
			],
			"stateMutability": "view",
			"type": "function"
		},
		{
			"inputs": [],
			"name": "printHostelDetails",
			"outputs": [
				{
					"internalType": "string",
					"name": "",
					"type": "string"
				}
			],
			"stateMutability": "view",
			"type": "function"
		},
		{
			"inputs": [],
			"name": "regdNo",
			"outputs": [
				{
					"internalType": "string",
					"name": "",
					"type": "string"
				}
			],
			"stateMutability": "view",
			"type": "function"
		},
		{
			"inputs": [
				{
					"internalType": "string",
					"name": "_newHostelLocation",
					"type": "string"
				}
			],
			"name": "setHostelLocation",
			"outputs": [],
			"stateMutability": "nonpayable",
			"type": "function"
		},
		{
			"inputs": [
				{
					"internalType": "string",
					"name": "_newHostelName",
					"type": "string"
				}
			],
			"name": "setHostelName",
			"outputs": [],
			"stateMutability": "nonpayable",
			"type": "function"
		},
		{
			"inputs": [
				{
					"internalType": "uint256",
					"name": "_newNumberOfRooms",
					"type": "uint256"
				}
			],
			"name": "setNumberOfRooms",
			"outputs": [],
			"stateMutability": "nonpayable",
			"type": "function"
		},
		{
			"inputs": [],
			"name": "studentName",
			"outputs": [
				{
					"internalType": "string",
					"name": "",
					"type": "string"
				}
			],
			"stateMutability": "view",
			"type": "function"
		}
	]
}