{
	"data": {
		"bytecode": {
			"linkReferences": {},
			"object": "6080604052348015600e575f80fd5b506104b98061001c5f395ff3fe608060405234801561000f575f80fd5b5060043610610086575f3560e01c8063a068425111610059578063a068425114610100578063bf9ce9521461011e578063dd56653c1461013c578063f360110b1461015a57610086565b80630dbe671f1461008a57806337d08d42146100a85780634df7e3d0146100c4578063853255cc146100e2575b5f80fd5b610092610178565b60405161009f9190610215565b60405180910390f35b6100c260048036038101906100bd919061025c565b61017d565b005b6100cc61018e565b6040516100d99190610215565b60405180910390f35b6100ea610194565b6040516100f79190610215565b60405180910390f35b6101086101a9565b6040516101159190610215565b60405180910390f35b6101266101be565b6040516101339190610215565b60405180910390f35b6101446101d3565b6040516101519190610215565b60405180910390f35b6101626101e8565b60405161016f9190610215565b60405180910390f35b5f5481565b815f81905550806001819055505050565b60015481565b5f6001545f546101a491906102c7565b905090565b5f6001545f546101b99190610335565b905090565b5f6001545f546101ce9190610365565b905090565b5f6001545f546101e391906103db565b905090565b5f6001545f546101f8919061041b565b905090565b5f819050919050565b61020f816101fd565b82525050565b5f6020820190506102285f830184610206565b92915050565b5f80fd5b61023b816101fd565b8114610245575f80fd5b50565b5f8135905061025681610232565b92915050565b5f80604083850312156102725761027161022e565b5b5f61027f85828601610248565b925050602061029085828601610248565b9150509250929050565b7f4e487b71000000000000000000000000000000000000000000000000000000005f52601160045260245ffd5b5f6102d1826101fd565b91506102dc836101fd565b92508282019050828112155f8312168382125f8412151617156103025761030161029a565b5b92915050565b7f4e487b71000000000000000000000000000000000000000000000000000000005f52601260045260245ffd5b5f61033f826101fd565b915061034a836101fd565b92508261035a57610359610308565b5b828207905092915050565b5f61036f826101fd565b915061037a836101fd565b9250828202610388816101fd565b91507f800000000000000000000000000000000000000000000000000000000000000084145f841216156103bf576103be61029a565b5b82820584148315176103d4576103d361029a565b5b5092915050565b5f6103e5826101fd565b91506103f0836101fd565b925082820390508181125f8412168282135f8512151617156104155761041461029a565b5b92915050565b5f610425826101fd565b9150610430836101fd565b9250826104405761043f610308565b5b60015f0383147f8000000000000000000000000000000000000000000000000000000000000000831416156104785761047761029a565b5b82820590509291505056fea264697066735822122043529a1dab9478624e8869cecd0be7cc46aed96646b8bb6eba4f580604582e7b64736f6c634300081a0033",
			"opcodes": "PUSH1 0x80 PUSH1 0x40 MSTORE CALLVALUE DUP1 ISZERO PUSH1 0xE JUMPI PUSH0 DUP1 REVERT JUMPDEST POP PUSH2 0x4B9 DUP1 PUSH2 0x1C PUSH0 CODECOPY PUSH0 RETURN INVALID PUSH1 0x80 PUSH1 0x40 MSTORE CALLVALUE DUP1 ISZERO PUSH2 0xF JUMPI PUSH0 DUP1 REVERT JUMPDEST POP PUSH1 0x4 CALLDATASIZE LT PUSH2 0x86 JUMPI PUSH0 CALLDATALOAD PUSH1 0xE0 SHR DUP1 PUSH4 0xA0684251 GT PUSH2 0x59 JUMPI DUP1 PUSH4 0xA0684251 EQ PUSH2 0x100 JUMPI DUP1 PUSH4 0xBF9CE952 EQ PUSH2 0x11E JUMPI DUP1 PUSH4 0xDD56653C EQ PUSH2 0x13C JUMPI DUP1 PUSH4 0xF360110B EQ PUSH2 0x15A JUMPI PUSH2 0x86 JUMP JUMPDEST DUP1 PUSH4 0xDBE671F EQ PUSH2 0x8A JUMPI DUP1 PUSH4 0x37D08D42 EQ PUSH2 0xA8 JUMPI DUP1 PUSH4 0x4DF7E3D0 EQ PUSH2 0xC4 JUMPI DUP1 PUSH4 0x853255CC EQ PUSH2 0xE2 JUMPI JUMPDEST PUSH0 DUP1 REVERT JUMPDEST PUSH2 0x92 PUSH2 0x178 JUMP JUMPDEST PUSH1 0x40 MLOAD PUSH2 0x9F SWAP2 SWAP1 PUSH2 0x215 JUMP JUMPDEST PUSH1 0x40 MLOAD DUP1 SWAP2 SUB SWAP1 RETURN JUMPDEST PUSH2 0xC2 PUSH1 0x4 DUP1 CALLDATASIZE SUB DUP2 ADD SWAP1 PUSH2 0xBD SWAP2 SWAP1 PUSH2 0x25C JUMP JUMPDEST PUSH2 0x17D JUMP JUMPDEST STOP JUMPDEST PUSH2 0xCC PUSH2 0x18E JUMP JUMPDEST PUSH1 0x40 MLOAD PUSH2 0xD9 SWAP2 SWAP1 PUSH2 0x215 JUMP JUMPDEST PUSH1 0x40 MLOAD DUP1 SWAP2 SUB SWAP1 RETURN JUMPDEST PUSH2 0xEA PUSH2 0x194 JUMP JUMPDEST PUSH1 0x40 MLOAD PUSH2 0xF7 SWAP2 SWAP1 PUSH2 0x215 JUMP JUMPDEST PUSH1 0x40 MLOAD DUP1 SWAP2 SUB SWAP1 RETURN JUMPDEST PUSH2 0x108 PUSH2 0x1A9 JUMP JUMPDEST PUSH1 0x40 MLOAD PUSH2 0x115 SWAP2 SWAP1 PUSH2 0x215 JUMP JUMPDEST PUSH1 0x40 MLOAD DUP1 SWAP2 SUB SWAP1 RETURN JUMPDEST PUSH2 0x126 PUSH2 0x1BE JUMP JUMPDEST PUSH1 0x40 MLOAD PUSH2 0x133 SWAP2 SWAP1 PUSH2 0x215 JUMP JUMPDEST PUSH1 0x40 MLOAD DUP1 SWAP2 SUB SWAP1 RETURN JUMPDEST PUSH2 0x144 PUSH2 0x1D3 JUMP JUMPDEST PUSH1 0x40 MLOAD PUSH2 0x151 SWAP2 SWAP1 PUSH2 0x215 JUMP JUMPDEST PUSH1 0x40 MLOAD DUP1 SWAP2 SUB SWAP1 RETURN JUMPDEST PUSH2 0x162 PUSH2 0x1E8 JUMP JUMPDEST PUSH1 0x40 MLOAD PUSH2 0x16F SWAP2 SWAP1 PUSH2 0x215 JUMP JUMPDEST PUSH1 0x40 MLOAD DUP1 SWAP2 SUB SWAP1 RETURN JUMPDEST PUSH0 SLOAD DUP2 JUMP JUMPDEST DUP2 PUSH0 DUP2 SWAP1 SSTORE POP DUP1 PUSH1 0x1 DUP2 SWAP1 SSTORE POP POP POP JUMP JUMPDEST PUSH1 0x1 SLOAD DUP2 JUMP JUMPDEST PUSH0 PUSH1 0x1 SLOAD PUSH0 SLOAD PUSH2 0x1A4 SWAP2 SWAP1 PUSH2 0x2C7 JUMP JUMPDEST SWAP1 POP SWAP1 JUMP JUMPDEST PUSH0 PUSH1 0x1 SLOAD PUSH0 SLOAD PUSH2 0x1B9 SWAP2 SWAP1 PUSH2 0x335 JUMP JUMPDEST SWAP1 POP SWAP1 JUMP JUMPDEST PUSH0 PUSH1 0x1 SLOAD PUSH0 SLOAD PUSH2 0x1CE SWAP2 SWAP1 PUSH2 0x365 JUMP JUMPDEST SWAP1 POP SWAP1 JUMP JUMPDEST PUSH0 PUSH1 0x1 SLOAD PUSH0 SLOAD PUSH2 0x1E3 SWAP2 SWAP1 PUSH2 0x3DB JUMP JUMPDEST SWAP1 POP SWAP1 JUMP JUMPDEST PUSH0 PUSH1 0x1 SLOAD PUSH0 SLOAD PUSH2 0x1F8 SWAP2 SWAP1 PUSH2 0x41B JUMP JUMPDEST SWAP1 POP SWAP1 JUMP JUMPDEST PUSH0 DUP2 SWAP1 POP SWAP2 SWAP1 POP JUMP JUMPDEST PUSH2 0x20F DUP2 PUSH2 0x1FD JUMP JUMPDEST DUP3 MSTORE POP POP JUMP JUMPDEST PUSH0 PUSH1 0x20 DUP3 ADD SWAP1 POP PUSH2 0x228 PUSH0 DUP4 ADD DUP5 PUSH2 0x206 JUMP JUMPDEST SWAP3 SWAP2 POP POP JUMP JUMPDEST PUSH0 DUP1 REVERT JUMPDEST PUSH2 0x23B DUP2 PUSH2 0x1FD JUMP JUMPDEST DUP2 EQ PUSH2 0x245 JUMPI PUSH0 DUP1 REVERT JUMPDEST POP JUMP JUMPDEST PUSH0 DUP2 CALLDATALOAD SWAP1 POP PUSH2 0x256 DUP2 PUSH2 0x232 JUMP JUMPDEST SWAP3 SWAP2 POP POP JUMP JUMPDEST PUSH0 DUP1 PUSH1 0x40 DUP4 DUP6 SUB SLT ISZERO PUSH2 0x272 JUMPI PUSH2 0x271 PUSH2 0x22E JUMP JUMPDEST JUMPDEST PUSH0 PUSH2 0x27F DUP6 DUP3 DUP7 ADD PUSH2 0x248 JUMP JUMPDEST SWAP3 POP POP PUSH1 0x20 PUSH2 0x290 DUP6 DUP3 DUP7 ADD PUSH2 0x248 JUMP JUMPDEST SWAP2 POP POP SWAP3 POP SWAP3 SWAP1 POP JUMP JUMPDEST PUSH32 0x4E487B7100000000000000000000000000000000000000000000000000000000 PUSH0 MSTORE PUSH1 0x11 PUSH1 0x4 MSTORE PUSH1 0x24 PUSH0 REVERT JUMPDEST PUSH0 PUSH2 0x2D1 DUP3 PUSH2 0x1FD JUMP JUMPDEST SWAP2 POP PUSH2 0x2DC DUP4 PUSH2 0x1FD JUMP JUMPDEST SWAP3 POP DUP3 DUP3 ADD SWAP1 POP DUP3 DUP2 SLT ISZERO PUSH0 DUP4 SLT AND DUP4 DUP3 SLT PUSH0 DUP5 SLT ISZERO AND OR ISZERO PUSH2 0x302 JUMPI PUSH2 0x301 PUSH2 0x29A JUMP JUMPDEST JUMPDEST SWAP3 SWAP2 POP POP JUMP JUMPDEST PUSH32 0x4E487B7100000000000000000000000000000000000000000000000000000000 PUSH0 MSTORE PUSH1 0x12 PUSH1 0x4 MSTORE PUSH1 0x24 PUSH0 REVERT JUMPDEST PUSH0 PUSH2 0x33F DUP3 PUSH2 0x1FD JUMP JUMPDEST SWAP2 POP PUSH2 0x34A DUP4 PUSH2 0x1FD JUMP JUMPDEST SWAP3 POP DUP3 PUSH2 0x35A JUMPI PUSH2 0x359 PUSH2 0x308 JUMP JUMPDEST JUMPDEST DUP3 DUP3 SMOD SWAP1 POP SWAP3 SWAP2 POP POP JUMP JUMPDEST PUSH0 PUSH2 0x36F DUP3 PUSH2 0x1FD JUMP JUMPDEST SWAP2 POP PUSH2 0x37A DUP4 PUSH2 0x1FD JUMP JUMPDEST SWAP3 POP DUP3 DUP3 MUL PUSH2 0x388 DUP2 PUSH2 0x1FD JUMP JUMPDEST SWAP2 POP PUSH32 0x8000000000000000000000000000000000000000000000000000000000000000 DUP5 EQ PUSH0 DUP5 SLT AND ISZERO PUSH2 0x3BF JUMPI PUSH2 0x3BE PUSH2 0x29A JUMP JUMPDEST JUMPDEST DUP3 DUP3 SDIV DUP5 EQ DUP4 ISZERO OR PUSH2 0x3D4 JUMPI PUSH2 0x3D3 PUSH2 0x29A JUMP JUMPDEST JUMPDEST POP SWAP3 SWAP2 POP POP JUMP JUMPDEST PUSH0 PUSH2 0x3E5 DUP3 PUSH2 0x1FD JUMP JUMPDEST SWAP2 POP PUSH2 0x3F0 DUP4 PUSH2 0x1FD JUMP JUMPDEST SWAP3 POP DUP3 DUP3 SUB SWAP1 POP DUP2 DUP2 SLT PUSH0 DUP5 SLT AND DUP3 DUP3 SGT PUSH0 DUP6 SLT ISZERO AND OR ISZERO PUSH2 0x415 JUMPI PUSH2 0x414 PUSH2 0x29A JUMP JUMPDEST JUMPDEST SWAP3 SWAP2 POP POP JUMP JUMPDEST PUSH0 PUSH2 0x425 DUP3 PUSH2 0x1FD JUMP JUMPDEST SWAP2 POP PUSH2 0x430 DUP4 PUSH2 0x1FD JUMP JUMPDEST SWAP3 POP DUP3 PUSH2 0x440 JUMPI PUSH2 0x43F PUSH2 0x308 JUMP JUMPDEST JUMPDEST PUSH1 0x1 PUSH0 SUB DUP4 EQ PUSH32 0x8000000000000000000000000000000000000000000000000000000000000000 DUP4 EQ AND ISZERO PUSH2 0x478 JUMPI PUSH2 0x477 PUSH2 0x29A JUMP JUMPDEST JUMPDEST DUP3 DUP3 SDIV SWAP1 POP SWAP3 SWAP2 POP POP JUMP INVALID LOG2 PUSH5 0x6970667358 0x22 SLT KECCAK256 NUMBER MSTORE SWAP11 SAR 0xAB SWAP5 PUSH25 0x624E8869CECD0BE7CC46AED96646B8BB6EBA4F580604582E7B PUSH5 0x736F6C6343 STOP ADDMOD BYTE STOP CALLER "
		},
		"gasEstimates": {
			"creation": {
				"codeDepositCost": "241800",
				"executionCost": "279",
				"totalCost": "242079"
			},
			"external": {
				"a()": "2425",
				"b()": "2470",
				"difference()": "infinite",
				"product()": "infinite",
				"quotient()": "infinite",
				"remainder()": "infinite",
				"setValues(int256,int256)": "infinite",
				"sum()": "infinite"
			}
		},
		"methodIdentifiers": {
			"a()": "0dbe671f",
			"b()": "4df7e3d0",
			"difference()": "dd56653c",
			"product()": "bf9ce952",
			"quotient()": "f360110b",
			"remainder()": "a0684251",
			"setValues(int256,int256)": "37d08d42",
			"sum()": "853255cc"
		}
	},
	"abi": [
		{
			"inputs": [],
			"name": "a",
			"outputs": [
				{
					"internalType": "int256",
					"name": "",
					"type": "int256"
				}
			],
			"stateMutability": "view",
			"type": "function"
		},
		{
			"inputs": [],
			"name": "b",
			"outputs": [
				{
					"internalType": "int256",
					"name": "",
					"type": "int256"
				}
			],
			"stateMutability": "view",
			"type": "function"
		},
		{
			"inputs": [],
			"name": "difference",
			"outputs": [
				{
					"internalType": "int256",
					"name": "",
					"type": "int256"
				}
			],
			"stateMutability": "view",
			"type": "function"
		},
		{
			"inputs": [],
			"name": "product",
			"outputs": [
				{
					"internalType": "int256",
					"name": "",
					"type": "int256"
				}
			],
			"stateMutability": "view",
			"type": "function"
		},
		{
			"inputs": [],
			"name": "quotient",
			"outputs": [
				{
					"internalType": "int256",
					"name": "",
					"type": "int256"
				}
			],
			"stateMutability": "view",
			"type": "function"
		},
		{
			"inputs": [],
			"name": "remainder",
			"outputs": [
				{
					"internalType": "int256",
					"name": "",
					"type": "int256"
				}
			],
			"stateMutability": "view",
			"type": "function"
		},
		{
			"inputs": [
				{
					"internalType": "int256",
					"name": "_a",
					"type": "int256"
				},
				{
					"internalType": "int256",
					"name": "_b",
					"type": "int256"
				}
			],
			"name": "setValues",
			"outputs": [],
			"stateMutability": "nonpayable",
			"type": "function"
		},
		{
			"inputs": [],
			"name": "sum",
			"outputs": [
				{
					"internalType": "int256",
					"name": "",
					"type": "int256"
				}
			],
			"stateMutability": "view",
			"type": "function"
		}
	]
}