{
	"data": {
		"bytecode": {
			"linkReferences": {},
			"object": "6080604052348015600e575f80fd5b5061029d8061001c5f395ff3fe608060405234801561000f575f80fd5b5060043610610034575f3560e01c80633df54ece146100385780638c48155814610069575b5f80fd5b610052600480360381019061004d9190610190565b61009a565b6040516100609291906101ef565b60405180910390f35b610083600480360381019061007e9190610190565b610119565b6040516100919291906101ef565b60405180910390f35b5f80849150818411156100ab578391505b818311156100b7578291505b849050808410156100c6578390505b808310156100d2578290505b7f21b53aeb894a11e37ce24472de8790048e6b1e86ec2c50b08696cdf344dfb29f8585858585604051610109959493929190610216565b60405180910390a1935093915050565b5f808491508184111561012a578391505b81831115610136578291505b84905080841015610145578390505b80831015610151578290505b935093915050565b5f80fd5b5f819050919050565b61016f8161015d565b8114610179575f80fd5b50565b5f8135905061018a81610166565b92915050565b5f805f606084860312156101a7576101a6610159565b5b5f6101b48682870161017c565b93505060206101c58682870161017c565b92505060406101d68682870161017c565b9150509250925092565b6101e98161015d565b82525050565b5f6040820190506102025f8301856101e0565b61020f60208301846101e0565b9392505050565b5f60a0820190506102295f8301886101e0565b61023660208301876101e0565b61024360408301866101e0565b61025060608301856101e0565b61025d60808301846101e0565b969550505050505056fea2646970667358221220797ae350444aab7c926f5bf326c4dfbbf58016063d6bc30f76462b1bc6ca6b0364736f6c634300081a0033",
			"opcodes": "PUSH1 0x80 PUSH1 0x40 MSTORE CALLVALUE DUP1 ISZERO PUSH1 0xE JUMPI PUSH0 DUP1 REVERT JUMPDEST POP PUSH2 0x29D DUP1 PUSH2 0x1C PUSH0 CODECOPY PUSH0 RETURN INVALID PUSH1 0x80 PUSH1 0x40 MSTORE CALLVALUE DUP1 ISZERO PUSH2 0xF JUMPI PUSH0 DUP1 REVERT JUMPDEST POP PUSH1 0x4 CALLDATASIZE LT PUSH2 0x34 JUMPI PUSH0 CALLDATALOAD PUSH1 0xE0 SHR DUP1 PUSH4 0x3DF54ECE EQ PUSH2 0x38 JUMPI DUP1 PUSH4 0x8C481558 EQ PUSH2 0x69 JUMPI JUMPDEST PUSH0 DUP1 REVERT JUMPDEST PUSH2 0x52 PUSH1 0x4 DUP1 CALLDATASIZE SUB DUP2 ADD SWAP1 PUSH2 0x4D SWAP2 SWAP1 PUSH2 0x190 JUMP JUMPDEST PUSH2 0x9A JUMP JUMPDEST PUSH1 0x40 MLOAD PUSH2 0x60 SWAP3 SWAP2 SWAP1 PUSH2 0x1EF JUMP JUMPDEST PUSH1 0x40 MLOAD DUP1 SWAP2 SUB SWAP1 RETURN JUMPDEST PUSH2 0x83 PUSH1 0x4 DUP1 CALLDATASIZE SUB DUP2 ADD SWAP1 PUSH2 0x7E SWAP2 SWAP1 PUSH2 0x190 JUMP JUMPDEST PUSH2 0x119 JUMP JUMPDEST PUSH1 0x40 MLOAD PUSH2 0x91 SWAP3 SWAP2 SWAP1 PUSH2 0x1EF JUMP JUMPDEST PUSH1 0x40 MLOAD DUP1 SWAP2 SUB SWAP1 RETURN JUMPDEST PUSH0 DUP1 DUP5 SWAP2 POP DUP2 DUP5 GT ISZERO PUSH2 0xAB JUMPI DUP4 SWAP2 POP JUMPDEST DUP2 DUP4 GT ISZERO PUSH2 0xB7 JUMPI DUP3 SWAP2 POP JUMPDEST DUP5 SWAP1 POP DUP1 DUP5 LT ISZERO PUSH2 0xC6 JUMPI DUP4 SWAP1 POP JUMPDEST DUP1 DUP4 LT ISZERO PUSH2 0xD2 JUMPI DUP3 SWAP1 POP JUMPDEST PUSH32 0x21B53AEB894A11E37CE24472DE8790048E6B1E86EC2C50B08696CDF344DFB29F DUP6 DUP6 DUP6 DUP6 DUP6 PUSH1 0x40 MLOAD PUSH2 0x109 SWAP6 SWAP5 SWAP4 SWAP3 SWAP2 SWAP1 PUSH2 0x216 JUMP JUMPDEST PUSH1 0x40 MLOAD DUP1 SWAP2 SUB SWAP1 LOG1 SWAP4 POP SWAP4 SWAP2 POP POP JUMP JUMPDEST PUSH0 DUP1 DUP5 SWAP2 POP DUP2 DUP5 GT ISZERO PUSH2 0x12A JUMPI DUP4 SWAP2 POP JUMPDEST DUP2 DUP4 GT ISZERO PUSH2 0x136 JUMPI DUP3 SWAP2 POP JUMPDEST DUP5 SWAP1 POP DUP1 DUP5 LT ISZERO PUSH2 0x145 JUMPI DUP4 SWAP1 POP JUMPDEST DUP1 DUP4 LT ISZERO PUSH2 0x151 JUMPI DUP3 SWAP1 POP JUMPDEST SWAP4 POP SWAP4 SWAP2 POP POP JUMP JUMPDEST PUSH0 DUP1 REVERT JUMPDEST PUSH0 DUP2 SWAP1 POP SWAP2 SWAP1 POP JUMP JUMPDEST PUSH2 0x16F DUP2 PUSH2 0x15D JUMP JUMPDEST DUP2 EQ PUSH2 0x179 JUMPI PUSH0 DUP1 REVERT JUMPDEST POP JUMP JUMPDEST PUSH0 DUP2 CALLDATALOAD SWAP1 POP PUSH2 0x18A DUP2 PUSH2 0x166 JUMP JUMPDEST SWAP3 SWAP2 POP POP JUMP JUMPDEST PUSH0 DUP1 PUSH0 PUSH1 0x60 DUP5 DUP7 SUB SLT ISZERO PUSH2 0x1A7 JUMPI PUSH2 0x1A6 PUSH2 0x159 JUMP JUMPDEST JUMPDEST PUSH0 PUSH2 0x1B4 DUP7 DUP3 DUP8 ADD PUSH2 0x17C JUMP JUMPDEST SWAP4 POP POP PUSH1 0x20 PUSH2 0x1C5 DUP7 DUP3 DUP8 ADD PUSH2 0x17C JUMP JUMPDEST SWAP3 POP POP PUSH1 0x40 PUSH2 0x1D6 DUP7 DUP3 DUP8 ADD PUSH2 0x17C JUMP JUMPDEST SWAP2 POP POP SWAP3 POP SWAP3 POP SWAP3 JUMP JUMPDEST PUSH2 0x1E9 DUP2 PUSH2 0x15D JUMP JUMPDEST DUP3 MSTORE POP POP JUMP JUMPDEST PUSH0 PUSH1 0x40 DUP3 ADD SWAP1 POP PUSH2 0x202 PUSH0 DUP4 ADD DUP6 PUSH2 0x1E0 JUMP JUMPDEST PUSH2 0x20F PUSH1 0x20 DUP4 ADD DUP5 PUSH2 0x1E0 JUMP JUMPDEST SWAP4 SWAP3 POP POP POP JUMP JUMPDEST PUSH0 PUSH1 0xA0 DUP3 ADD SWAP1 POP PUSH2 0x229 PUSH0 DUP4 ADD DUP9 PUSH2 0x1E0 JUMP JUMPDEST PUSH2 0x236 PUSH1 0x20 DUP4 ADD DUP8 PUSH2 0x1E0 JUMP JUMPDEST PUSH2 0x243 PUSH1 0x40 DUP4 ADD DUP7 PUSH2 0x1E0 JUMP JUMPDEST PUSH2 0x250 PUSH1 0x60 DUP4 ADD DUP6 PUSH2 0x1E0 JUMP JUMPDEST PUSH2 0x25D PUSH1 0x80 DUP4 ADD DUP5 PUSH2 0x1E0 JUMP JUMPDEST SWAP7 SWAP6 POP POP POP POP POP POP JUMP INVALID LOG2 PUSH5 0x6970667358 0x22 SLT KECCAK256 PUSH26 0x7AE350444AAB7C926F5BF326C4DFBBF58016063D6BC30F76462B SHL 0xC6 0xCA PUSH12 0x364736F6C634300081A0033 "
		},
		"gasEstimates": {
			"creation": {
				"codeDepositCost": "133800",
				"executionCost": "175",
				"totalCost": "133975"
			},
			"external": {
				"findMaxAndMin(uint256,uint256,uint256)": "infinite",
				"getMaxAndMin(uint256,uint256,uint256)": "infinite"
			}
		},
		"methodIdentifiers": {
			"findMaxAndMin(uint256,uint256,uint256)": "3df54ece",
			"getMaxAndMin(uint256,uint256,uint256)": "8c481558"
		}
	},
	"abi": [
		{
			"anonymous": false,
			"inputs": [
				{
					"indexed": false,
					"internalType": "uint256",
					"name": "a",
					"type": "uint256"
				},
				{
					"indexed": false,
					"internalType": "uint256",
					"name": "b",
					"type": "uint256"
				},
				{
					"indexed": false,
					"internalType": "uint256",
					"name": "c",
					"type": "uint256"
				},
				{
					"indexed": false,
					"internalType": "uint256",
					"name": "maximum",
					"type": "uint256"
				},
				{
					"indexed": false,
					"internalType": "uint256",
					"name": "minimum",
					"type": "uint256"
				}
			],
			"name": "ResultsCalculated",
			"type": "event"
		},
		{
			"inputs": [
				{
					"internalType": "uint256",
					"name": "a",
					"type": "uint256"
				},
				{
					"internalType": "uint256",
					"name": "b",
					"type": "uint256"
				},
				{
					"internalType": "uint256",
					"name": "c",
					"type": "uint256"
				}
			],
			"name": "findMaxAndMin",
			"outputs": [
				{
					"internalType": "uint256",
					"name": "maximum",
					"type": "uint256"
				},
				{
					"internalType": "uint256",
					"name": "minimum",
					"type": "uint256"
				}
			],
			"stateMutability": "nonpayable",
			"type": "function"
		},
		{
			"inputs": [
				{
					"internalType": "uint256",
					"name": "a",
					"type": "uint256"
				},
				{
					"internalType": "uint256",
					"name": "b",
					"type": "uint256"
				},
				{
					"internalType": "uint256",
					"name": "c",
					"type": "uint256"
				}
			],
			"name": "getMaxAndMin",
			"outputs": [
				{
					"internalType": "uint256",
					"name": "maximum",
					"type": "uint256"
				},
				{
					"internalType": "uint256",
					"name": "minimum",
					"type": "uint256"
				}
			],
			"stateMutability": "pure",
			"type": "function"
		}
	]
}