{
	"data": {
		"bytecode": {
			"linkReferences": {},
			"object": "6080604052348015600e575f80fd5b50610dff8061001c5f395ff3fe608060405234801561000f575f80fd5b506004361061003f575f3560e01c80633204c3a8146100435780637482670814610073578063872339bd146100a3575b5f80fd5b61005d60048036038101906100589190610854565b6100d3565b60405161006a91906108ef565b60405180910390f35b61008d60048036038101906100889190610942565b6101f4565b60405161009a9190610a1d565b60405180910390f35b6100bd60048036038101906100b89190610942565b610478565b6040516100ca9190610a1d565b60405180910390f35b6060600160ff168260ff1603610120576040518060400160405280600e81526020017f54776f205265616c20526f6f747300000000000000000000000000000000000081525090506101ef565b600260ff168260ff160361016b576040518060400160405280600d81526020017f4f6e65205265616c20526f6f740000000000000000000000000000000000000081525090506101ef565b600360ff168260ff16036101b6576040518060400160405280600d81526020017f436f6d706c657820526f6f74730000000000000000000000000000000000000081525090506101ef565b6040518060400160405280600781526020017f556e6b6e6f776e0000000000000000000000000000000000000000000000000081525090505b919050565b6101fc6107d3565b5f840361023e576040517f08c379a000000000000000000000000000000000000000000000000000000000815260040161023590610aa6565b60405180910390fd5b5f8285600461024d9190610af1565b6102579190610af1565b84856102639190610af1565b61026d9190610b67565b90506102776107d3565b5f821315610332576001815f019060ff16908160ff16815250505f61029b83610762565b90505f8760026102ab9190610af1565b90505f82886102b990610ba7565b6102c39190610bed565b90505f83896102d190610ba7565b6102db9190610b67565b905082826102e99190610c5b565b85602001515f0181815250505f85602001516020018181525050828161030f9190610c5b565b85604001515f0181815250505f856040015160200181815250505050505061046c565b5f82036103ad576002815f019060ff16908160ff16815250508560026103589190610af1565b8561036290610ba7565b61036c9190610c5b565b81602001515f0181815250505f8160200151602001818152505080602001515f015181604001515f0181815250505f8160400151602001818152505061046b565b6003815f019060ff16908160ff16815250505f8660026103cd9190610af1565b866103d790610ba7565b6103e19190610c5b565b90505f6103f6846103f190610ba7565b610762565b90505f8860026104069190610af1565b826104119190610c5b565b90505f891215610428578061042590610ba7565b90505b8284602001515f01818152505080846020015160200181815250508284604001515f0181815250508061045a90610ba7565b846040015160200181815250505050505b5b80925050509392505050565b6104806107d3565b5f84036104c2576040517f08c379a00000000000000000000000000000000000000000000000000000000081526004016104b990610aa6565b60405180910390fd5b5f828560046104d19190610af1565b6104db9190610af1565b84856104e79190610af1565b6104f19190610b67565b90506104fb6107d3565b5f8213156105b6576001815f019060ff16908160ff16815250505f61051f83610762565b90505f87600261052f9190610af1565b90505f828861053d90610ba7565b6105479190610bed565b90505f838961055590610ba7565b61055f9190610b67565b9050828261056d9190610c5b565b85602001515f0181815250505f8560200151602001818152505082816105939190610c5b565b85604001515f0181815250505f85604001516020018181525050505050506106f0565b5f8203610631576002815f019060ff16908160ff16815250508560026105dc9190610af1565b856105e690610ba7565b6105f09190610c5b565b81602001515f0181815250505f8160200151602001818152505080602001515f015181604001515f0181815250505f816040015160200181815250506106ef565b6003815f019060ff16908160ff16815250505f8660026106519190610af1565b8661065b90610ba7565b6106659190610c5b565b90505f61067a8461067590610ba7565b610762565b90505f88600261068a9190610af1565b826106959190610c5b565b90505f8912156106ac57806106a990610ba7565b90505b8284602001515f01818152505080846020015160200181815250508284604001515f018181525050806106de90610ba7565b846040015160200181815250505050505b5b7f282a4dd3f7fcdd9455e832507ac510c8c48d297d15409077fb59fcbeb493e105868686845f015185602001515f015186602001516020015187604001515f015188604001516020015160405161074e989796959493929190610ce1565b60405180910390a180925050509392505050565b5f808203610772575f90506107ce565b5f60026001846107829190610d66565b61078c9190610d99565b90505f8390505b808210156107c85781905060028283866107ad9190610d99565b6107b79190610d66565b6107c19190610d99565b9150610793565b80925050505b919050565b60405180606001604052805f60ff1681526020016107ef610802565b81526020016107fc610802565b81525090565b60405180604001604052805f81526020015f81525090565b5f80fd5b5f60ff82169050919050565b6108338161081e565b811461083d575f80fd5b50565b5f8135905061084e8161082a565b92915050565b5f602082840312156108695761086861081a565b5b5f61087684828501610840565b91505092915050565b5f81519050919050565b5f82825260208201905092915050565b8281835e5f83830152505050565b5f601f19601f8301169050919050565b5f6108c18261087f565b6108cb8185610889565b93506108db818560208601610899565b6108e4816108a7565b840191505092915050565b5f6020820190508181035f83015261090781846108b7565b905092915050565b5f819050919050565b6109218161090f565b811461092b575f80fd5b50565b5f8135905061093c81610918565b92915050565b5f805f606084860312156109595761095861081a565b5b5f6109668682870161092e565b93505060206109778682870161092e565b92505060406109888682870161092e565b9150509250925092565b61099b8161081e565b82525050565b6109aa8161090f565b82525050565b604082015f8201516109c45f8501826109a1565b5060208201516109d760208501826109a1565b50505050565b60a082015f8201516109f15f850182610992565b506020820151610a0460208501826109b0565b506040820151610a1760608501826109b0565b50505050565b5f60a082019050610a305f8301846109dd565b92915050565b7f4e6f74206120717561647261746963206571756174696f6e2c20276127206d755f8201527f7374206e6f74206265207a65726f000000000000000000000000000000000000602082015250565b5f610a90602e83610889565b9150610a9b82610a36565b604082019050919050565b5f6020820190508181035f830152610abd81610a84565b9050919050565b7f4e487b71000000000000000000000000000000000000000000000000000000005f52601160045260245ffd5b5f610afb8261090f565b9150610b068361090f565b9250828202610b148161090f565b91507f800000000000000000000000000000000000000000000000000000000000000084145f84121615610b4b57610b4a610ac4565b5b8282058414831517610b6057610b5f610ac4565b5b5092915050565b5f610b718261090f565b9150610b7c8361090f565b925082820390508181125f8412168282135f851215161715610ba157610ba0610ac4565b5b92915050565b5f610bb18261090f565b91507f80000000000000000000000000000000000000000000000000000000000000008203610be357610be2610ac4565b5b815f039050919050565b5f610bf78261090f565b9150610c028361090f565b92508282019050828112155f8312168382125f841215161715610c2857610c27610ac4565b5b92915050565b7f4e487b71000000000000000000000000000000000000000000000000000000005f52601260045260245ffd5b5f610c658261090f565b9150610c708361090f565b925082610c8057610c7f610c2e565b5b60015f0383147f800000000000000000000000000000000000000000000000000000000000000083141615610cb857610cb7610ac4565b5b828205905092915050565b610ccc8161090f565b82525050565b610cdb8161081e565b82525050565b5f61010082019050610cf55f83018b610cc3565b610d02602083018a610cc3565b610d0f6040830189610cc3565b610d1c6060830188610cd2565b610d296080830187610cc3565b610d3660a0830186610cc3565b610d4360c0830185610cc3565b610d5060e0830184610cc3565b9998505050505050505050565b5f819050919050565b5f610d7082610d5d565b9150610d7b83610d5d565b9250828201905080821115610d9357610d92610ac4565b5b92915050565b5f610da382610d5d565b9150610dae83610d5d565b925082610dbe57610dbd610c2e565b5b82820490509291505056fea2646970667358221220a62027aee1cb45044821e121b415353ec1870620133a1c7e816764a830c9304d64736f6c634300081a0033",
			"opcodes": "PUSH1 0x80 PUSH1 0x40 MSTORE CALLVALUE DUP1 ISZERO PUSH1 0xE JUMPI PUSH0 DUP1 REVERT JUMPDEST POP PUSH2 0xDFF DUP1 PUSH2 0x1C PUSH0 CODECOPY PUSH0 RETURN INVALID PUSH1 0x80 PUSH1 0x40 MSTORE CALLVALUE DUP1 ISZERO PUSH2 0xF JUMPI PUSH0 DUP1 REVERT JUMPDEST POP PUSH1 0x4 CALLDATASIZE LT PUSH2 0x3F JUMPI PUSH0 CALLDATALOAD PUSH1 0xE0 SHR DUP1 PUSH4 0x3204C3A8 EQ PUSH2 0x43 JUMPI DUP1 PUSH4 0x74826708 EQ PUSH2 0x73 JUMPI DUP1 PUSH4 0x872339BD EQ PUSH2 0xA3 JUMPI JUMPDEST PUSH0 DUP1 REVERT JUMPDEST PUSH2 0x5D PUSH1 0x4 DUP1 CALLDATASIZE SUB DUP2 ADD SWAP1 PUSH2 0x58 SWAP2 SWAP1 PUSH2 0x854 JUMP JUMPDEST PUSH2 0xD3 JUMP JUMPDEST PUSH1 0x40 MLOAD PUSH2 0x6A SWAP2 SWAP1 PUSH2 0x8EF JUMP JUMPDEST PUSH1 0x40 MLOAD DUP1 SWAP2 SUB SWAP1 RETURN JUMPDEST PUSH2 0x8D PUSH1 0x4 DUP1 CALLDATASIZE SUB DUP2 ADD SWAP1 PUSH2 0x88 SWAP2 SWAP1 PUSH2 0x942 JUMP JUMPDEST PUSH2 0x1F4 JUMP JUMPDEST PUSH1 0x40 MLOAD PUSH2 0x9A SWAP2 SWAP1 PUSH2 0xA1D JUMP JUMPDEST PUSH1 0x40 MLOAD DUP1 SWAP2 SUB SWAP1 RETURN JUMPDEST PUSH2 0xBD PUSH1 0x4 DUP1 CALLDATASIZE SUB DUP2 ADD SWAP1 PUSH2 0xB8 SWAP2 SWAP1 PUSH2 0x942 JUMP JUMPDEST PUSH2 0x478 JUMP JUMPDEST PUSH1 0x40 MLOAD PUSH2 0xCA SWAP2 SWAP1 PUSH2 0xA1D JUMP JUMPDEST PUSH1 0x40 MLOAD DUP1 SWAP2 SUB SWAP1 RETURN JUMPDEST PUSH1 0x60 PUSH1 0x1 PUSH1 0xFF AND DUP3 PUSH1 0xFF AND SUB PUSH2 0x120 JUMPI PUSH1 0x40 MLOAD DUP1 PUSH1 0x40 ADD PUSH1 0x40 MSTORE DUP1 PUSH1 0xE DUP2 MSTORE PUSH1 0x20 ADD PUSH32 0x54776F205265616C20526F6F7473000000000000000000000000000000000000 DUP2 MSTORE POP SWAP1 POP PUSH2 0x1EF JUMP JUMPDEST PUSH1 0x2 PUSH1 0xFF AND DUP3 PUSH1 0xFF AND SUB PUSH2 0x16B JUMPI PUSH1 0x40 MLOAD DUP1 PUSH1 0x40 ADD PUSH1 0x40 MSTORE DUP1 PUSH1 0xD DUP2 MSTORE PUSH1 0x20 ADD PUSH32 0x4F6E65205265616C20526F6F7400000000000000000000000000000000000000 DUP2 MSTORE POP SWAP1 POP PUSH2 0x1EF JUMP JUMPDEST PUSH1 0x3 PUSH1 0xFF AND DUP3 PUSH1 0xFF AND SUB PUSH2 0x1B6 JUMPI PUSH1 0x40 MLOAD DUP1 PUSH1 0x40 ADD PUSH1 0x40 MSTORE DUP1 PUSH1 0xD DUP2 MSTORE PUSH1 0x20 ADD PUSH32 0x436F6D706C657820526F6F747300000000000000000000000000000000000000 DUP2 MSTORE POP SWAP1 POP PUSH2 0x1EF JUMP JUMPDEST PUSH1 0x40 MLOAD DUP1 PUSH1 0x40 ADD PUSH1 0x40 MSTORE DUP1 PUSH1 0x7 DUP2 MSTORE PUSH1 0x20 ADD PUSH32 0x556E6B6E6F776E00000000000000000000000000000000000000000000000000 DUP2 MSTORE POP SWAP1 POP JUMPDEST SWAP2 SWAP1 POP JUMP JUMPDEST PUSH2 0x1FC PUSH2 0x7D3 JUMP JUMPDEST PUSH0 DUP5 SUB PUSH2 0x23E JUMPI PUSH1 0x40 MLOAD PUSH32 0x8C379A000000000000000000000000000000000000000000000000000000000 DUP2 MSTORE PUSH1 0x4 ADD PUSH2 0x235 SWAP1 PUSH2 0xAA6 JUMP JUMPDEST PUSH1 0x40 MLOAD DUP1 SWAP2 SUB SWAP1 REVERT JUMPDEST PUSH0 DUP3 DUP6 PUSH1 0x4 PUSH2 0x24D SWAP2 SWAP1 PUSH2 0xAF1 JUMP JUMPDEST PUSH2 0x257 SWAP2 SWAP1 PUSH2 0xAF1 JUMP JUMPDEST DUP5 DUP6 PUSH2 0x263 SWAP2 SWAP1 PUSH2 0xAF1 JUMP JUMPDEST PUSH2 0x26D SWAP2 SWAP1 PUSH2 0xB67 JUMP JUMPDEST SWAP1 POP PUSH2 0x277 PUSH2 0x7D3 JUMP JUMPDEST PUSH0 DUP3 SGT ISZERO PUSH2 0x332 JUMPI PUSH1 0x1 DUP2 PUSH0 ADD SWAP1 PUSH1 0xFF AND SWAP1 DUP2 PUSH1 0xFF AND DUP2 MSTORE POP POP PUSH0 PUSH2 0x29B DUP4 PUSH2 0x762 JUMP JUMPDEST SWAP1 POP PUSH0 DUP8 PUSH1 0x2 PUSH2 0x2AB SWAP2 SWAP1 PUSH2 0xAF1 JUMP JUMPDEST SWAP1 POP PUSH0 DUP3 DUP9 PUSH2 0x2B9 SWAP1 PUSH2 0xBA7 JUMP JUMPDEST PUSH2 0x2C3 SWAP2 SWAP1 PUSH2 0xBED JUMP JUMPDEST SWAP1 POP PUSH0 DUP4 DUP10 PUSH2 0x2D1 SWAP1 PUSH2 0xBA7 JUMP JUMPDEST PUSH2 0x2DB SWAP2 SWAP1 PUSH2 0xB67 JUMP JUMPDEST SWAP1 POP DUP3 DUP3 PUSH2 0x2E9 SWAP2 SWAP1 PUSH2 0xC5B JUMP JUMPDEST DUP6 PUSH1 0x20 ADD MLOAD PUSH0 ADD DUP2 DUP2 MSTORE POP POP PUSH0 DUP6 PUSH1 0x20 ADD MLOAD PUSH1 0x20 ADD DUP2 DUP2 MSTORE POP POP DUP3 DUP2 PUSH2 0x30F SWAP2 SWAP1 PUSH2 0xC5B JUMP JUMPDEST DUP6 PUSH1 0x40 ADD MLOAD PUSH0 ADD DUP2 DUP2 MSTORE POP POP PUSH0 DUP6 PUSH1 0x40 ADD MLOAD PUSH1 0x20 ADD DUP2 DUP2 MSTORE POP POP POP POP POP POP PUSH2 0x46C JUMP JUMPDEST PUSH0 DUP3 SUB PUSH2 0x3AD JUMPI PUSH1 0x2 DUP2 PUSH0 ADD SWAP1 PUSH1 0xFF AND SWAP1 DUP2 PUSH1 0xFF AND DUP2 MSTORE POP POP DUP6 PUSH1 0x2 PUSH2 0x358 SWAP2 SWAP1 PUSH2 0xAF1 JUMP JUMPDEST DUP6 PUSH2 0x362 SWAP1 PUSH2 0xBA7 JUMP JUMPDEST PUSH2 0x36C SWAP2 SWAP1 PUSH2 0xC5B JUMP JUMPDEST DUP2 PUSH1 0x20 ADD MLOAD PUSH0 ADD DUP2 DUP2 MSTORE POP POP PUSH0 DUP2 PUSH1 0x20 ADD MLOAD PUSH1 0x20 ADD DUP2 DUP2 MSTORE POP POP DUP1 PUSH1 0x20 ADD MLOAD PUSH0 ADD MLOAD DUP2 PUSH1 0x40 ADD MLOAD PUSH0 ADD DUP2 DUP2 MSTORE POP POP PUSH0 DUP2 PUSH1 0x40 ADD MLOAD PUSH1 0x20 ADD DUP2 DUP2 MSTORE POP POP PUSH2 0x46B JUMP JUMPDEST PUSH1 0x3 DUP2 PUSH0 ADD SWAP1 PUSH1 0xFF AND SWAP1 DUP2 PUSH1 0xFF AND DUP2 MSTORE POP POP PUSH0 DUP7 PUSH1 0x2 PUSH2 0x3CD SWAP2 SWAP1 PUSH2 0xAF1 JUMP JUMPDEST DUP7 PUSH2 0x3D7 SWAP1 PUSH2 0xBA7 JUMP JUMPDEST PUSH2 0x3E1 SWAP2 SWAP1 PUSH2 0xC5B JUMP JUMPDEST SWAP1 POP PUSH0 PUSH2 0x3F6 DUP5 PUSH2 0x3F1 SWAP1 PUSH2 0xBA7 JUMP JUMPDEST PUSH2 0x762 JUMP JUMPDEST SWAP1 POP PUSH0 DUP9 PUSH1 0x2 PUSH2 0x406 SWAP2 SWAP1 PUSH2 0xAF1 JUMP JUMPDEST DUP3 PUSH2 0x411 SWAP2 SWAP1 PUSH2 0xC5B JUMP JUMPDEST SWAP1 POP PUSH0 DUP10 SLT ISZERO PUSH2 0x428 JUMPI DUP1 PUSH2 0x425 SWAP1 PUSH2 0xBA7 JUMP JUMPDEST SWAP1 POP JUMPDEST DUP3 DUP5 PUSH1 0x20 ADD MLOAD PUSH0 ADD DUP2 DUP2 MSTORE POP POP DUP1 DUP5 PUSH1 0x20 ADD MLOAD PUSH1 0x20 ADD DUP2 DUP2 MSTORE POP POP DUP3 DUP5 PUSH1 0x40 ADD MLOAD PUSH0 ADD DUP2 DUP2 MSTORE POP POP DUP1 PUSH2 0x45A SWAP1 PUSH2 0xBA7 JUMP JUMPDEST DUP5 PUSH1 0x40 ADD MLOAD PUSH1 0x20 ADD DUP2 DUP2 MSTORE POP POP POP POP POP JUMPDEST JUMPDEST DUP1 SWAP3 POP POP POP SWAP4 SWAP3 POP POP POP JUMP JUMPDEST PUSH2 0x480 PUSH2 0x7D3 JUMP JUMPDEST PUSH0 DUP5 SUB PUSH2 0x4C2 JUMPI PUSH1 0x40 MLOAD PUSH32 0x8C379A000000000000000000000000000000000000000000000000000000000 DUP2 MSTORE PUSH1 0x4 ADD PUSH2 0x4B9 SWAP1 PUSH2 0xAA6 JUMP JUMPDEST PUSH1 0x40 MLOAD DUP1 SWAP2 SUB SWAP1 REVERT JUMPDEST PUSH0 DUP3 DUP6 PUSH1 0x4 PUSH2 0x4D1 SWAP2 SWAP1 PUSH2 0xAF1 JUMP JUMPDEST PUSH2 0x4DB SWAP2 SWAP1 PUSH2 0xAF1 JUMP JUMPDEST DUP5 DUP6 PUSH2 0x4E7 SWAP2 SWAP1 PUSH2 0xAF1 JUMP JUMPDEST PUSH2 0x4F1 SWAP2 SWAP1 PUSH2 0xB67 JUMP JUMPDEST SWAP1 POP PUSH2 0x4FB PUSH2 0x7D3 JUMP JUMPDEST PUSH0 DUP3 SGT ISZERO PUSH2 0x5B6 JUMPI PUSH1 0x1 DUP2 PUSH0 ADD SWAP1 PUSH1 0xFF AND SWAP1 DUP2 PUSH1 0xFF AND DUP2 MSTORE POP POP PUSH0 PUSH2 0x51F DUP4 PUSH2 0x762 JUMP JUMPDEST SWAP1 POP PUSH0 DUP8 PUSH1 0x2 PUSH2 0x52F SWAP2 SWAP1 PUSH2 0xAF1 JUMP JUMPDEST SWAP1 POP PUSH0 DUP3 DUP9 PUSH2 0x53D SWAP1 PUSH2 0xBA7 JUMP JUMPDEST PUSH2 0x547 SWAP2 SWAP1 PUSH2 0xBED JUMP JUMPDEST SWAP1 POP PUSH0 DUP4 DUP10 PUSH2 0x555 SWAP1 PUSH2 0xBA7 JUMP JUMPDEST PUSH2 0x55F SWAP2 SWAP1 PUSH2 0xB67 JUMP JUMPDEST SWAP1 POP DUP3 DUP3 PUSH2 0x56D SWAP2 SWAP1 PUSH2 0xC5B JUMP JUMPDEST DUP6 PUSH1 0x20 ADD MLOAD PUSH0 ADD DUP2 DUP2 MSTORE POP POP PUSH0 DUP6 PUSH1 0x20 ADD MLOAD PUSH1 0x20 ADD DUP2 DUP2 MSTORE POP POP DUP3 DUP2 PUSH2 0x593 SWAP2 SWAP1 PUSH2 0xC5B JUMP JUMPDEST DUP6 PUSH1 0x40 ADD MLOAD PUSH0 ADD DUP2 DUP2 MSTORE POP POP PUSH0 DUP6 PUSH1 0x40 ADD MLOAD PUSH1 0x20 ADD DUP2 DUP2 MSTORE POP POP POP POP POP POP PUSH2 0x6F0 JUMP JUMPDEST PUSH0 DUP3 SUB PUSH2 0x631 JUMPI PUSH1 0x2 DUP2 PUSH0 ADD SWAP1 PUSH1 0xFF AND SWAP1 DUP2 PUSH1 0xFF AND DUP2 MSTORE POP POP DUP6 PUSH1 0x2 PUSH2 0x5DC SWAP2 SWAP1 PUSH2 0xAF1 JUMP JUMPDEST DUP6 PUSH2 0x5E6 SWAP1 PUSH2 0xBA7 JUMP JUMPDEST PUSH2 0x5F0 SWAP2 SWAP1 PUSH2 0xC5B JUMP JUMPDEST DUP2 PUSH1 0x20 ADD MLOAD PUSH0 ADD DUP2 DUP2 MSTORE POP POP PUSH0 DUP2 PUSH1 0x20 ADD MLOAD PUSH1 0x20 ADD DUP2 DUP2 MSTORE POP POP DUP1 PUSH1 0x20 ADD MLOAD PUSH0 ADD MLOAD DUP2 PUSH1 0x40 ADD MLOAD PUSH0 ADD DUP2 DUP2 MSTORE POP POP PUSH0 DUP2 PUSH1 0x40 ADD MLOAD PUSH1 0x20 ADD DUP2 DUP2 MSTORE POP POP PUSH2 0x6EF JUMP JUMPDEST PUSH1 0x3 DUP2 PUSH0 ADD SWAP1 PUSH1 0xFF AND SWAP1 DUP2 PUSH1 0xFF AND DUP2 MSTORE POP POP PUSH0 DUP7 PUSH1 0x2 PUSH2 0x651 SWAP2 SWAP1 PUSH2 0xAF1 JUMP JUMPDEST DUP7 PUSH2 0x65B SWAP1 PUSH2 0xBA7 JUMP JUMPDEST PUSH2 0x665 SWAP2 SWAP1 PUSH2 0xC5B JUMP JUMPDEST SWAP1 POP PUSH0 PUSH2 0x67A DUP5 PUSH2 0x675 SWAP1 PUSH2 0xBA7 JUMP JUMPDEST PUSH2 0x762 JUMP JUMPDEST SWAP1 POP PUSH0 DUP9 PUSH1 0x2 PUSH2 0x68A SWAP2 SWAP1 PUSH2 0xAF1 JUMP JUMPDEST DUP3 PUSH2 0x695 SWAP2 SWAP1 PUSH2 0xC5B JUMP JUMPDEST SWAP1 POP PUSH0 DUP10 SLT ISZERO PUSH2 0x6AC JUMPI DUP1 PUSH2 0x6A9 SWAP1 PUSH2 0xBA7 JUMP JUMPDEST SWAP1 POP JUMPDEST DUP3 DUP5 PUSH1 0x20 ADD MLOAD PUSH0 ADD DUP2 DUP2 MSTORE POP POP DUP1 DUP5 PUSH1 0x20 ADD MLOAD PUSH1 0x20 ADD DUP2 DUP2 MSTORE POP POP DUP3 DUP5 PUSH1 0x40 ADD MLOAD PUSH0 ADD DUP2 DUP2 MSTORE POP POP DUP1 PUSH2 0x6DE SWAP1 PUSH2 0xBA7 JUMP JUMPDEST DUP5 PUSH1 0x40 ADD MLOAD PUSH1 0x20 ADD DUP2 DUP2 MSTORE POP POP POP POP POP JUMPDEST JUMPDEST PUSH32 0x282A4DD3F7FCDD9455E832507AC510C8C48D297D15409077FB59FCBEB493E105 DUP7 DUP7 DUP7 DUP5 PUSH0 ADD MLOAD DUP6 PUSH1 0x20 ADD MLOAD PUSH0 ADD MLOAD DUP7 PUSH1 0x20 ADD MLOAD PUSH1 0x20 ADD MLOAD DUP8 PUSH1 0x40 ADD MLOAD PUSH0 ADD MLOAD DUP9 PUSH1 0x40 ADD MLOAD PUSH1 0x20 ADD MLOAD PUSH1 0x40 MLOAD PUSH2 0x74E SWAP9 SWAP8 SWAP7 SWAP6 SWAP5 SWAP4 SWAP3 SWAP2 SWAP1 PUSH2 0xCE1 JUMP JUMPDEST PUSH1 0x40 MLOAD DUP1 SWAP2 SUB SWAP1 LOG1 DUP1 SWAP3 POP POP POP SWAP4 SWAP3 POP POP POP JUMP JUMPDEST PUSH0 DUP1 DUP3 SUB PUSH2 0x772 JUMPI PUSH0 SWAP1 POP PUSH2 0x7CE JUMP JUMPDEST PUSH0 PUSH1 0x2 PUSH1 0x1 DUP5 PUSH2 0x782 SWAP2 SWAP1 PUSH2 0xD66 JUMP JUMPDEST PUSH2 0x78C SWAP2 SWAP1 PUSH2 0xD99 JUMP JUMPDEST SWAP1 POP PUSH0 DUP4 SWAP1 POP JUMPDEST DUP1 DUP3 LT ISZERO PUSH2 0x7C8 JUMPI DUP2 SWAP1 POP PUSH1 0x2 DUP3 DUP4 DUP7 PUSH2 0x7AD SWAP2 SWAP1 PUSH2 0xD99 JUMP JUMPDEST PUSH2 0x7B7 SWAP2 SWAP1 PUSH2 0xD66 JUMP JUMPDEST PUSH2 0x7C1 SWAP2 SWAP1 PUSH2 0xD99 JUMP JUMPDEST SWAP2 POP PUSH2 0x793 JUMP JUMPDEST DUP1 SWAP3 POP POP POP JUMPDEST SWAP2 SWAP1 POP JUMP JUMPDEST PUSH1 0x40 MLOAD DUP1 PUSH1 0x60 ADD PUSH1 0x40 MSTORE DUP1 PUSH0 PUSH1 0xFF AND DUP2 MSTORE PUSH1 0x20 ADD PUSH2 0x7EF PUSH2 0x802 JUMP JUMPDEST DUP2 MSTORE PUSH1 0x20 ADD PUSH2 0x7FC PUSH2 0x802 JUMP JUMPDEST DUP2 MSTORE POP SWAP1 JUMP JUMPDEST PUSH1 0x40 MLOAD DUP1 PUSH1 0x40 ADD PUSH1 0x40 MSTORE DUP1 PUSH0 DUP2 MSTORE PUSH1 0x20 ADD PUSH0 DUP2 MSTORE POP SWAP1 JUMP JUMPDEST PUSH0 DUP1 REVERT JUMPDEST PUSH0 PUSH1 0xFF DUP3 AND SWAP1 POP SWAP2 SWAP1 POP JUMP JUMPDEST PUSH2 0x833 DUP2 PUSH2 0x81E JUMP JUMPDEST DUP2 EQ PUSH2 0x83D JUMPI PUSH0 DUP1 REVERT JUMPDEST POP JUMP JUMPDEST PUSH0 DUP2 CALLDATALOAD SWAP1 POP PUSH2 0x84E DUP2 PUSH2 0x82A JUMP JUMPDEST SWAP3 SWAP2 POP POP JUMP JUMPDEST PUSH0 PUSH1 0x20 DUP3 DUP5 SUB SLT ISZERO PUSH2 0x869 JUMPI PUSH2 0x868 PUSH2 0x81A JUMP JUMPDEST JUMPDEST PUSH0 PUSH2 0x876 DUP5 DUP3 DUP6 ADD PUSH2 0x840 JUMP JUMPDEST SWAP2 POP POP SWAP3 SWAP2 POP POP JUMP JUMPDEST PUSH0 DUP2 MLOAD SWAP1 POP SWAP2 SWAP1 POP JUMP JUMPDEST PUSH0 DUP3 DUP3 MSTORE PUSH1 0x20 DUP3 ADD SWAP1 POP SWAP3 SWAP2 POP POP JUMP JUMPDEST DUP3 DUP2 DUP4 MCOPY PUSH0 DUP4 DUP4 ADD MSTORE POP POP POP JUMP JUMPDEST PUSH0 PUSH1 0x1F NOT PUSH1 0x1F DUP4 ADD AND SWAP1 POP SWAP2 SWAP1 POP JUMP JUMPDEST PUSH0 PUSH2 0x8C1 DUP3 PUSH2 0x87F JUMP JUMPDEST PUSH2 0x8CB DUP2 DUP6 PUSH2 0x889 JUMP JUMPDEST SWAP4 POP PUSH2 0x8DB DUP2 DUP6 PUSH1 0x20 DUP7 ADD PUSH2 0x899 JUMP JUMPDEST PUSH2 0x8E4 DUP2 PUSH2 0x8A7 JUMP JUMPDEST DUP5 ADD SWAP2 POP POP SWAP3 SWAP2 POP POP JUMP JUMPDEST PUSH0 PUSH1 0x20 DUP3 ADD SWAP1 POP DUP2 DUP2 SUB PUSH0 DUP4 ADD MSTORE PUSH2 0x907 DUP2 DUP5 PUSH2 0x8B7 JUMP JUMPDEST SWAP1 POP SWAP3 SWAP2 POP POP JUMP JUMPDEST PUSH0 DUP2 SWAP1 POP SWAP2 SWAP1 POP JUMP JUMPDEST PUSH2 0x921 DUP2 PUSH2 0x90F JUMP JUMPDEST DUP2 EQ PUSH2 0x92B JUMPI PUSH0 DUP1 REVERT JUMPDEST POP JUMP JUMPDEST PUSH0 DUP2 CALLDATALOAD SWAP1 POP PUSH2 0x93C DUP2 PUSH2 0x918 JUMP JUMPDEST SWAP3 SWAP2 POP POP JUMP JUMPDEST PUSH0 DUP1 PUSH0 PUSH1 0x60 DUP5 DUP7 SUB SLT ISZERO PUSH2 0x959 JUMPI PUSH2 0x958 PUSH2 0x81A JUMP JUMPDEST JUMPDEST PUSH0 PUSH2 0x966 DUP7 DUP3 DUP8 ADD PUSH2 0x92E JUMP JUMPDEST SWAP4 POP POP PUSH1 0x20 PUSH2 0x977 DUP7 DUP3 DUP8 ADD PUSH2 0x92E JUMP JUMPDEST SWAP3 POP POP PUSH1 0x40 PUSH2 0x988 DUP7 DUP3 DUP8 ADD PUSH2 0x92E JUMP JUMPDEST SWAP2 POP POP SWAP3 POP SWAP3 POP SWAP3 JUMP JUMPDEST PUSH2 0x99B DUP2 PUSH2 0x81E JUMP JUMPDEST DUP3 MSTORE POP POP JUMP JUMPDEST PUSH2 0x9AA DUP2 PUSH2 0x90F JUMP JUMPDEST DUP3 MSTORE POP POP JUMP JUMPDEST PUSH1 0x40 DUP3 ADD PUSH0 DUP3 ADD MLOAD PUSH2 0x9C4 PUSH0 DUP6 ADD DUP3 PUSH2 0x9A1 JUMP JUMPDEST POP PUSH1 0x20 DUP3 ADD MLOAD PUSH2 0x9D7 PUSH1 0x20 DUP6 ADD DUP3 PUSH2 0x9A1 JUMP JUMPDEST POP POP POP POP JUMP JUMPDEST PUSH1 0xA0 DUP3 ADD PUSH0 DUP3 ADD MLOAD PUSH2 0x9F1 PUSH0 DUP6 ADD DUP3 PUSH2 0x992 JUMP JUMPDEST POP PUSH1 0x20 DUP3 ADD MLOAD PUSH2 0xA04 PUSH1 0x20 DUP6 ADD DUP3 PUSH2 0x9B0 JUMP JUMPDEST POP PUSH1 0x40 DUP3 ADD MLOAD PUSH2 0xA17 PUSH1 0x60 DUP6 ADD DUP3 PUSH2 0x9B0 JUMP JUMPDEST POP POP POP POP JUMP JUMPDEST PUSH0 PUSH1 0xA0 DUP3 ADD SWAP1 POP PUSH2 0xA30 PUSH0 DUP4 ADD DUP5 PUSH2 0x9DD JUMP JUMPDEST SWAP3 SWAP2 POP POP JUMP JUMPDEST PUSH32 0x4E6F74206120717561647261746963206571756174696F6E2C20276127206D75 PUSH0 DUP3 ADD MSTORE PUSH32 0x7374206E6F74206265207A65726F000000000000000000000000000000000000 PUSH1 0x20 DUP3 ADD MSTORE POP JUMP JUMPDEST PUSH0 PUSH2 0xA90 PUSH1 0x2E DUP4 PUSH2 0x889 JUMP JUMPDEST SWAP2 POP PUSH2 0xA9B DUP3 PUSH2 0xA36 JUMP JUMPDEST PUSH1 0x40 DUP3 ADD SWAP1 POP SWAP2 SWAP1 POP JUMP JUMPDEST PUSH0 PUSH1 0x20 DUP3 ADD SWAP1 POP DUP2 DUP2 SUB PUSH0 DUP4 ADD MSTORE PUSH2 0xABD DUP2 PUSH2 0xA84 JUMP JUMPDEST SWAP1 POP SWAP2 SWAP1 POP JUMP JUMPDEST PUSH32 0x4E487B7100000000000000000000000000000000000000000000000000000000 PUSH0 MSTORE PUSH1 0x11 PUSH1 0x4 MSTORE PUSH1 0x24 PUSH0 REVERT JUMPDEST PUSH0 PUSH2 0xAFB DUP3 PUSH2 0x90F JUMP JUMPDEST SWAP2 POP PUSH2 0xB06 DUP4 PUSH2 0x90F JUMP JUMPDEST SWAP3 POP DUP3 DUP3 MUL PUSH2 0xB14 DUP2 PUSH2 0x90F JUMP JUMPDEST SWAP2 POP PUSH32 0x8000000000000000000000000000000000000000000000000000000000000000 DUP5 EQ PUSH0 DUP5 SLT AND ISZERO PUSH2 0xB4B JUMPI PUSH2 0xB4A PUSH2 0xAC4 JUMP JUMPDEST JUMPDEST DUP3 DUP3 SDIV DUP5 EQ DUP4 ISZERO OR PUSH2 0xB60 JUMPI PUSH2 0xB5F PUSH2 0xAC4 JUMP JUMPDEST JUMPDEST POP SWAP3 SWAP2 POP POP JUMP JUMPDEST PUSH0 PUSH2 0xB71 DUP3 PUSH2 0x90F JUMP JUMPDEST SWAP2 POP PUSH2 0xB7C DUP4 PUSH2 0x90F JUMP JUMPDEST SWAP3 POP DUP3 DUP3 SUB SWAP1 POP DUP2 DUP2 SLT PUSH0 DUP5 SLT AND DUP3 DUP3 SGT PUSH0 DUP6 SLT ISZERO AND OR ISZERO PUSH2 0xBA1 JUMPI PUSH2 0xBA0 PUSH2 0xAC4 JUMP JUMPDEST JUMPDEST SWAP3 SWAP2 POP POP JUMP JUMPDEST PUSH0 PUSH2 0xBB1 DUP3 PUSH2 0x90F JUMP JUMPDEST SWAP2 POP PUSH32 0x8000000000000000000000000000000000000000000000000000000000000000 DUP3 SUB PUSH2 0xBE3 JUMPI PUSH2 0xBE2 PUSH2 0xAC4 JUMP JUMPDEST JUMPDEST DUP2 PUSH0 SUB SWAP1 POP SWAP2 SWAP1 POP JUMP JUMPDEST PUSH0 PUSH2 0xBF7 DUP3 PUSH2 0x90F JUMP JUMPDEST SWAP2 POP PUSH2 0xC02 DUP4 PUSH2 0x90F JUMP JUMPDEST SWAP3 POP DUP3 DUP3 ADD SWAP1 POP DUP3 DUP2 SLT ISZERO PUSH0 DUP4 SLT AND DUP4 DUP3 SLT PUSH0 DUP5 SLT ISZERO AND OR ISZERO PUSH2 0xC28 JUMPI PUSH2 0xC27 PUSH2 0xAC4 JUMP JUMPDEST JUMPDEST SWAP3 SWAP2 POP POP JUMP JUMPDEST PUSH32 0x4E487B7100000000000000000000000000000000000000000000000000000000 PUSH0 MSTORE PUSH1 0x12 PUSH1 0x4 MSTORE PUSH1 0x24 PUSH0 REVERT JUMPDEST PUSH0 PUSH2 0xC65 DUP3 PUSH2 0x90F JUMP JUMPDEST SWAP2 POP PUSH2 0xC70 DUP4 PUSH2 0x90F JUMP JUMPDEST SWAP3 POP DUP3 PUSH2 0xC80 JUMPI PUSH2 0xC7F PUSH2 0xC2E JUMP JUMPDEST JUMPDEST PUSH1 0x1 PUSH0 SUB DUP4 EQ PUSH32 0x8000000000000000000000000000000000000000000000000000000000000000 DUP4 EQ AND ISZERO PUSH2 0xCB8 JUMPI PUSH2 0xCB7 PUSH2 0xAC4 JUMP JUMPDEST JUMPDEST DUP3 DUP3 SDIV SWAP1 POP SWAP3 SWAP2 POP POP JUMP JUMPDEST PUSH2 0xCCC DUP2 PUSH2 0x90F JUMP JUMPDEST DUP3 MSTORE POP POP JUMP JUMPDEST PUSH2 0xCDB DUP2 PUSH2 0x81E JUMP JUMPDEST DUP3 MSTORE POP POP JUMP JUMPDEST PUSH0 PUSH2 0x100 DUP3 ADD SWAP1 POP PUSH2 0xCF5 PUSH0 DUP4 ADD DUP12 PUSH2 0xCC3 JUMP JUMPDEST PUSH2 0xD02 PUSH1 0x20 DUP4 ADD DUP11 PUSH2 0xCC3 JUMP JUMPDEST PUSH2 0xD0F PUSH1 0x40 DUP4 ADD DUP10 PUSH2 0xCC3 JUMP JUMPDEST PUSH2 0xD1C PUSH1 0x60 DUP4 ADD DUP9 PUSH2 0xCD2 JUMP JUMPDEST PUSH2 0xD29 PUSH1 0x80 DUP4 ADD DUP8 PUSH2 0xCC3 JUMP JUMPDEST PUSH2 0xD36 PUSH1 0xA0 DUP4 ADD DUP7 PUSH2 0xCC3 JUMP JUMPDEST PUSH2 0xD43 PUSH1 0xC0 DUP4 ADD DUP6 PUSH2 0xCC3 JUMP JUMPDEST PUSH2 0xD50 PUSH1 0xE0 DUP4 ADD DUP5 PUSH2 0xCC3 JUMP JUMPDEST SWAP10 SWAP9 POP POP POP POP POP POP POP POP POP JUMP JUMPDEST PUSH0 DUP2 SWAP1 POP SWAP2 SWAP1 POP JUMP JUMPDEST PUSH0 PUSH2 0xD70 DUP3 PUSH2 0xD5D JUMP JUMPDEST SWAP2 POP PUSH2 0xD7B DUP4 PUSH2 0xD5D JUMP JUMPDEST SWAP3 POP DUP3 DUP3 ADD SWAP1 POP DUP1 DUP3 GT ISZERO PUSH2 0xD93 JUMPI PUSH2 0xD92 PUSH2 0xAC4 JUMP JUMPDEST JUMPDEST SWAP3 SWAP2 POP POP JUMP JUMPDEST PUSH0 PUSH2 0xDA3 DUP3 PUSH2 0xD5D JUMP JUMPDEST SWAP2 POP PUSH2 0xDAE DUP4 PUSH2 0xD5D JUMP JUMPDEST SWAP3 POP DUP3 PUSH2 0xDBE JUMPI PUSH2 0xDBD PUSH2 0xC2E JUMP JUMPDEST JUMPDEST DUP3 DUP3 DIV SWAP1 POP SWAP3 SWAP2 POP POP JUMP INVALID LOG2 PUSH5 0x6970667358 0x22 SLT KECCAK256 0xA6 KECCAK256 0x27 0xAE 0xE1 0xCB GASLIMIT DIV BASEFEE 0x21 0xE1 0x21 0xB4 ISZERO CALLDATALOAD RETURNDATACOPY 0xC1 DUP8 MOD KECCAK256 SGT GASPRICE SHR PUSH31 0x816764A830C9304D64736F6C634300081A0033000000000000000000000000 "
		},
		"gasEstimates": {
			"creation": {
				"codeDepositCost": "716600",
				"executionCost": "745",
				"totalCost": "717345"
			},
			"external": {
				"getQuadraticRoots(int256,int256,int256)": "infinite",
				"getRootTypeName(uint8)": "infinite",
				"solveQuadratic(int256,int256,int256)": "infinite"
			},
			"internal": {
				"intSqrt(uint256)": "infinite"
			}
		},
		"methodIdentifiers": {
			"getQuadraticRoots(int256,int256,int256)": "74826708",
			"getRootTypeName(uint8)": "3204c3a8",
			"solveQuadratic(int256,int256,int256)": "872339bd"
		}
	},
	"abi": [
		{
			"anonymous": false,
			"inputs": [
				{
					"indexed": false,
					"internalType": "int256",
					"name": "a",
					"type": "int256"
				},
				{
					"indexed": false,
					"internalType": "int256",
					"name": "b",
					"type": "int256"
				},
				{
					"indexed": false,
					"internalType": "int256",
					"name": "c",
					"type": "int256"
				},
				{
					"indexed": false,
					"internalType": "uint8",
					"name": "rootType",
					"type": "uint8"
				},
				{
					"indexed": false,
					"internalType": "int256",
					"name": "root1Real",
					"type": "int256"
				},
				{
					"indexed": false,
					"internalType": "int256",
					"name": "root1Imaginary",
					"type": "int256"
				},
				{
					"indexed": false,
					"internalType": "int256",
					"name": "root2Real",
					"type": "int256"
				},
				{
					"indexed": false,
					"internalType": "int256",
					"name": "root2Imaginary",
					"type": "int256"
				}
			],
			"name": "RootsCalculated",
			"type": "event"
		},
		{
			"inputs": [
				{
					"internalType": "int256",
					"name": "a",
					"type": "int256"
				},
				{
					"internalType": "int256",
					"name": "b",
					"type": "int256"
				},
				{
					"internalType": "int256",
					"name": "c",
					"type": "int256"
				}
			],
			"name": "getQuadraticRoots",
			"outputs": [
				{
					"components": [
						{
							"internalType": "uint8",
							"name": "rootType",
							"type": "uint8"
						},
						{
							"components": [
								{
									"internalType": "int256",
									"name": "real",
									"type": "int256"
								},
								{
									"internalType": "int256",
									"name": "imaginary",
									"type": "int256"
								}
							],
							"internalType": "struct QuadraticEquationSolver.Complex",
							"name": "root1",
							"type": "tuple"
						},
						{
							"components": [
								{
									"internalType": "int256",
									"name": "real",
									"type": "int256"
								},
								{
									"internalType": "int256",
									"name": "imaginary",
									"type": "int256"
								}
							],
							"internalType": "struct QuadraticEquationSolver.Complex",
							"name": "root2",
							"type": "tuple"
						}
					],
					"internalType": "struct QuadraticEquationSolver.Roots",
					"name": "",
					"type": "tuple"
				}
			],
			"stateMutability": "pure",
			"type": "function"
		},
		{
			"inputs": [
				{
					"internalType": "uint8",
					"name": "rootType",
					"type": "uint8"
				}
			],
			"name": "getRootTypeName",
			"outputs": [
				{
					"internalType": "string",
					"name": "",
					"type": "string"
				}
			],
			"stateMutability": "pure",
			"type": "function"
		},
		{
			"inputs": [
				{
					"internalType": "int256",
					"name": "a",
					"type": "int256"
				},
				{
					"internalType": "int256",
					"name": "b",
					"type": "int256"
				},
				{
					"internalType": "int256",
					"name": "c",
					"type": "int256"
				}
			],
			"name": "solveQuadratic",
			"outputs": [
				{
					"components": [
						{
							"internalType": "uint8",
							"name": "rootType",
							"type": "uint8"
						},
						{
							"components": [
								{
									"internalType": "int256",
									"name": "real",
									"type": "int256"
								},
								{
									"internalType": "int256",
									"name": "imaginary",
									"type": "int256"
								}
							],
							"internalType": "struct QuadraticEquationSolver.Complex",
							"name": "root1",
							"type": "tuple"
						},
						{
							"components": [
								{
									"internalType": "int256",
									"name": "real",
									"type": "int256"
								},
								{
									"internalType": "int256",
									"name": "imaginary",
									"type": "int256"
								}
							],
							"internalType": "struct QuadraticEquationSolver.Complex",
							"name": "root2",
							"type": "tuple"
						}
					],
					"internalType": "struct QuadraticEquationSolver.Roots",
					"name": "",
					"type": "tuple"
				}
			],
			"stateMutability": "nonpayable",
			"type": "function"
		}
	]
}