{
	"data": {
		"bytecode": {
			"linkReferences": {},
			"object": "6080604052348015600e575f80fd5b506106ed8061001c5f395ff3fe608060405234801561000f575f80fd5b5060043610610034575f3560e01c80633bf1a7d114610038578063e1e0485e14610068575b5f80fd5b610052600480360381019061004d9190610557565b610098565b60405161005f91906105f2565b60405180910390f35b610082600480360381019061007d9190610557565b6102fe565b60405161008f91906105f2565b60405180910390f35b606060648211156100de576040517f08c379a00000000000000000000000000000000000000000000000000000000081526004016100d59061065c565b60405180910390fd5b6060605a8310610125576040518060400160405280600181526020017f4f0000000000000000000000000000000000000000000000000000000000000081525090506102bc565b6050831061016a576040518060400160405280600181526020017f450000000000000000000000000000000000000000000000000000000000000081525090506102bb565b604683106101af576040518060400160405280600181526020017f410000000000000000000000000000000000000000000000000000000000000081525090506102ba565b603c83106101f4576040518060400160405280600181526020017f420000000000000000000000000000000000000000000000000000000000000081525090506102b9565b60328310610239576040518060400160405280600181526020017f430000000000000000000000000000000000000000000000000000000000000081525090506102b8565b6028831061027e576040518060400160405280600181526020017f440000000000000000000000000000000000000000000000000000000000000081525090506102b7565b6040518060400160405280600181526020017f460000000000000000000000000000000000000000000000000000000000000081525090505b5b5b5b5b5b7f1f485ac3200e1a53d2895e2d8d47e98e98d6f2ed65e5a3da7022b906e8ce26c383826040516102ed929190610689565b60405180910390a180915050919050565b60606064821115610344576040517f08c379a000000000000000000000000000000000000000000000000000000000815260040161033b9061065c565b60405180910390fd5b605a8210610389576040518060400160405280600181526020017f4f00000000000000000000000000000000000000000000000000000000000000815250905061051b565b605082106103ce576040518060400160405280600181526020017f4500000000000000000000000000000000000000000000000000000000000000815250905061051b565b60468210610413576040518060400160405280600181526020017f4100000000000000000000000000000000000000000000000000000000000000815250905061051b565b603c8210610458576040518060400160405280600181526020017f4200000000000000000000000000000000000000000000000000000000000000815250905061051b565b6032821061049d576040518060400160405280600181526020017f4300000000000000000000000000000000000000000000000000000000000000815250905061051b565b602882106104e2576040518060400160405280600181526020017f4400000000000000000000000000000000000000000000000000000000000000815250905061051b565b6040518060400160405280600181526020017f460000000000000000000000000000000000000000000000000000000000000081525090505b919050565b5f80fd5b5f819050919050565b61053681610524565b8114610540575f80fd5b50565b5f813590506105518161052d565b92915050565b5f6020828403121561056c5761056b610520565b5b5f61057984828501610543565b91505092915050565b5f81519050919050565b5f82825260208201905092915050565b8281835e5f83830152505050565b5f601f19601f8301169050919050565b5f6105c482610582565b6105ce818561058c565b93506105de81856020860161059c565b6105e7816105aa565b840191505092915050565b5f6020820190508181035f83015261060a81846105ba565b905092915050565b7f53636f7265206d757374206265206265747765656e203020616e6420313030005f82015250565b5f610646601f8361058c565b915061065182610612565b602082019050919050565b5f6020820190508181035f8301526106738161063a565b9050919050565b61068381610524565b82525050565b5f60408201905061069c5f83018561067a565b81810360208301526106ae81846105ba565b9050939250505056fea2646970667358221220ba7b945447070eba96c106f5224c01e471a3900d6fab427a94447f6d3c7b9ebf64736f6c634300081a0033",
			"opcodes": "PUSH1 0x80 PUSH1 0x40 MSTORE CALLVALUE DUP1 ISZERO PUSH1 0xE JUMPI PUSH0 DUP1 REVERT JUMPDEST POP PUSH2 0x6ED DUP1 PUSH2 0x1C PUSH0 CODECOPY PUSH0 RETURN INVALID PUSH1 0x80 PUSH1 0x40 MSTORE CALLVALUE DUP1 ISZERO PUSH2 0xF JUMPI PUSH0 DUP1 REVERT JUMPDEST POP PUSH1 0x4 CALLDATASIZE LT PUSH2 0x34 JUMPI PUSH0 CALLDATALOAD PUSH1 0xE0 SHR DUP1 PUSH4 0x3BF1A7D1 EQ PUSH2 0x38 JUMPI DUP1 PUSH4 0xE1E0485E EQ PUSH2 0x68 JUMPI JUMPDEST PUSH0 DUP1 REVERT JUMPDEST PUSH2 0x52 PUSH1 0x4 DUP1 CALLDATASIZE SUB DUP2 ADD SWAP1 PUSH2 0x4D SWAP2 SWAP1 PUSH2 0x557 JUMP JUMPDEST PUSH2 0x98 JUMP JUMPDEST PUSH1 0x40 MLOAD PUSH2 0x5F SWAP2 SWAP1 PUSH2 0x5F2 JUMP JUMPDEST PUSH1 0x40 MLOAD DUP1 SWAP2 SUB SWAP1 RETURN JUMPDEST PUSH2 0x82 PUSH1 0x4 DUP1 CALLDATASIZE SUB DUP2 ADD SWAP1 PUSH2 0x7D SWAP2 SWAP1 PUSH2 0x557 JUMP JUMPDEST PUSH2 0x2FE JUMP JUMPDEST PUSH1 0x40 MLOAD PUSH2 0x8F SWAP2 SWAP1 PUSH2 0x5F2 JUMP JUMPDEST PUSH1 0x40 MLOAD DUP1 SWAP2 SUB SWAP1 RETURN JUMPDEST PUSH1 0x60 PUSH1 0x64 DUP3 GT ISZERO PUSH2 0xDE JUMPI PUSH1 0x40 MLOAD PUSH32 0x8C379A000000000000000000000000000000000000000000000000000000000 DUP2 MSTORE PUSH1 0x4 ADD PUSH2 0xD5 SWAP1 PUSH2 0x65C JUMP JUMPDEST PUSH1 0x40 MLOAD DUP1 SWAP2 SUB SWAP1 REVERT JUMPDEST PUSH1 0x60 PUSH1 0x5A DUP4 LT PUSH2 0x125 JUMPI PUSH1 0x40 MLOAD DUP1 PUSH1 0x40 ADD PUSH1 0x40 MSTORE DUP1 PUSH1 0x1 DUP2 MSTORE PUSH1 0x20 ADD PUSH32 0x4F00000000000000000000000000000000000000000000000000000000000000 DUP2 MSTORE POP SWAP1 POP PUSH2 0x2BC JUMP JUMPDEST PUSH1 0x50 DUP4 LT PUSH2 0x16A JUMPI PUSH1 0x40 MLOAD DUP1 PUSH1 0x40 ADD PUSH1 0x40 MSTORE DUP1 PUSH1 0x1 DUP2 MSTORE PUSH1 0x20 ADD PUSH32 0x4500000000000000000000000000000000000000000000000000000000000000 DUP2 MSTORE POP SWAP1 POP PUSH2 0x2BB JUMP JUMPDEST PUSH1 0x46 DUP4 LT PUSH2 0x1AF JUMPI PUSH1 0x40 MLOAD DUP1 PUSH1 0x40 ADD PUSH1 0x40 MSTORE DUP1 PUSH1 0x1 DUP2 MSTORE PUSH1 0x20 ADD PUSH32 0x4100000000000000000000000000000000000000000000000000000000000000 DUP2 MSTORE POP SWAP1 POP PUSH2 0x2BA JUMP JUMPDEST PUSH1 0x3C DUP4 LT PUSH2 0x1F4 JUMPI PUSH1 0x40 MLOAD DUP1 PUSH1 0x40 ADD PUSH1 0x40 MSTORE DUP1 PUSH1 0x1 DUP2 MSTORE PUSH1 0x20 ADD PUSH32 0x4200000000000000000000000000000000000000000000000000000000000000 DUP2 MSTORE POP SWAP1 POP PUSH2 0x2B9 JUMP JUMPDEST PUSH1 0x32 DUP4 LT PUSH2 0x239 JUMPI PUSH1 0x40 MLOAD DUP1 PUSH1 0x40 ADD PUSH1 0x40 MSTORE DUP1 PUSH1 0x1 DUP2 MSTORE PUSH1 0x20 ADD PUSH32 0x4300000000000000000000000000000000000000000000000000000000000000 DUP2 MSTORE POP SWAP1 POP PUSH2 0x2B8 JUMP JUMPDEST PUSH1 0x28 DUP4 LT PUSH2 0x27E JUMPI PUSH1 0x40 MLOAD DUP1 PUSH1 0x40 ADD PUSH1 0x40 MSTORE DUP1 PUSH1 0x1 DUP2 MSTORE PUSH1 0x20 ADD PUSH32 0x4400000000000000000000000000000000000000000000000000000000000000 DUP2 MSTORE POP SWAP1 POP PUSH2 0x2B7 JUMP JUMPDEST PUSH1 0x40 MLOAD DUP1 PUSH1 0x40 ADD PUSH1 0x40 MSTORE DUP1 PUSH1 0x1 DUP2 MSTORE PUSH1 0x20 ADD PUSH32 0x4600000000000000000000000000000000000000000000000000000000000000 DUP2 MSTORE POP SWAP1 POP JUMPDEST JUMPDEST JUMPDEST JUMPDEST JUMPDEST JUMPDEST PUSH32 0x1F485AC3200E1A53D2895E2D8D47E98E98D6F2ED65E5A3DA7022B906E8CE26C3 DUP4 DUP3 PUSH1 0x40 MLOAD PUSH2 0x2ED SWAP3 SWAP2 SWAP1 PUSH2 0x689 JUMP JUMPDEST PUSH1 0x40 MLOAD DUP1 SWAP2 SUB SWAP1 LOG1 DUP1 SWAP2 POP POP SWAP2 SWAP1 POP JUMP JUMPDEST PUSH1 0x60 PUSH1 0x64 DUP3 GT ISZERO PUSH2 0x344 JUMPI PUSH1 0x40 MLOAD PUSH32 0x8C379A000000000000000000000000000000000000000000000000000000000 DUP2 MSTORE PUSH1 0x4 ADD PUSH2 0x33B SWAP1 PUSH2 0x65C JUMP JUMPDEST PUSH1 0x40 MLOAD DUP1 SWAP2 SUB SWAP1 REVERT JUMPDEST PUSH1 0x5A DUP3 LT PUSH2 0x389 JUMPI PUSH1 0x40 MLOAD DUP1 PUSH1 0x40 ADD PUSH1 0x40 MSTORE DUP1 PUSH1 0x1 DUP2 MSTORE PUSH1 0x20 ADD PUSH32 0x4F00000000000000000000000000000000000000000000000000000000000000 DUP2 MSTORE POP SWAP1 POP PUSH2 0x51B JUMP JUMPDEST PUSH1 0x50 DUP3 LT PUSH2 0x3CE JUMPI PUSH1 0x40 MLOAD DUP1 PUSH1 0x40 ADD PUSH1 0x40 MSTORE DUP1 PUSH1 0x1 DUP2 MSTORE PUSH1 0x20 ADD PUSH32 0x4500000000000000000000000000000000000000000000000000000000000000 DUP2 MSTORE POP SWAP1 POP PUSH2 0x51B JUMP JUMPDEST PUSH1 0x46 DUP3 LT PUSH2 0x413 JUMPI PUSH1 0x40 MLOAD DUP1 PUSH1 0x40 ADD PUSH1 0x40 MSTORE DUP1 PUSH1 0x1 DUP2 MSTORE PUSH1 0x20 ADD PUSH32 0x4100000000000000000000000000000000000000000000000000000000000000 DUP2 MSTORE POP SWAP1 POP PUSH2 0x51B JUMP JUMPDEST PUSH1 0x3C DUP3 LT PUSH2 0x458 JUMPI PUSH1 0x40 MLOAD DUP1 PUSH1 0x40 ADD PUSH1 0x40 MSTORE DUP1 PUSH1 0x1 DUP2 MSTORE PUSH1 0x20 ADD PUSH32 0x4200000000000000000000000000000000000000000000000000000000000000 DUP2 MSTORE POP SWAP1 POP PUSH2 0x51B JUMP JUMPDEST PUSH1 0x32 DUP3 LT PUSH2 0x49D JUMPI PUSH1 0x40 MLOAD DUP1 PUSH1 0x40 ADD PUSH1 0x40 MSTORE DUP1 PUSH1 0x1 DUP2 MSTORE PUSH1 0x20 ADD PUSH32 0x4300000000000000000000000000000000000000000000000000000000000000 DUP2 MSTORE POP SWAP1 POP PUSH2 0x51B JUMP JUMPDEST PUSH1 0x28 DUP3 LT PUSH2 0x4E2 JUMPI PUSH1 0x40 MLOAD DUP1 PUSH1 0x40 ADD PUSH1 0x40 MSTORE DUP1 PUSH1 0x1 DUP2 MSTORE PUSH1 0x20 ADD PUSH32 0x4400000000000000000000000000000000000000000000000000000000000000 DUP2 MSTORE POP SWAP1 POP PUSH2 0x51B JUMP JUMPDEST PUSH1 0x40 MLOAD DUP1 PUSH1 0x40 ADD PUSH1 0x40 MSTORE DUP1 PUSH1 0x1 DUP2 MSTORE PUSH1 0x20 ADD PUSH32 0x4600000000000000000000000000000000000000000000000000000000000000 DUP2 MSTORE POP SWAP1 POP JUMPDEST SWAP2 SWAP1 POP JUMP JUMPDEST PUSH0 DUP1 REVERT JUMPDEST PUSH0 DUP2 SWAP1 POP SWAP2 SWAP1 POP JUMP JUMPDEST PUSH2 0x536 DUP2 PUSH2 0x524 JUMP JUMPDEST DUP2 EQ PUSH2 0x540 JUMPI PUSH0 DUP1 REVERT JUMPDEST POP JUMP JUMPDEST PUSH0 DUP2 CALLDATALOAD SWAP1 POP PUSH2 0x551 DUP2 PUSH2 0x52D JUMP JUMPDEST SWAP3 SWAP2 POP POP JUMP JUMPDEST PUSH0 PUSH1 0x20 DUP3 DUP5 SUB SLT ISZERO PUSH2 0x56C JUMPI PUSH2 0x56B PUSH2 0x520 JUMP JUMPDEST JUMPDEST PUSH0 PUSH2 0x579 DUP5 DUP3 DUP6 ADD PUSH2 0x543 JUMP JUMPDEST SWAP2 POP POP SWAP3 SWAP2 POP POP JUMP JUMPDEST PUSH0 DUP2 MLOAD SWAP1 POP SWAP2 SWAP1 POP JUMP JUMPDEST PUSH0 DUP3 DUP3 MSTORE PUSH1 0x20 DUP3 ADD SWAP1 POP SWAP3 SWAP2 POP POP JUMP JUMPDEST DUP3 DUP2 DUP4 MCOPY PUSH0 DUP4 DUP4 ADD MSTORE POP POP POP JUMP JUMPDEST PUSH0 PUSH1 0x1F NOT PUSH1 0x1F DUP4 ADD AND SWAP1 POP SWAP2 SWAP1 POP JUMP JUMPDEST PUSH0 PUSH2 0x5C4 DUP3 PUSH2 0x582 JUMP JUMPDEST PUSH2 0x5CE DUP2 DUP6 PUSH2 0x58C JUMP JUMPDEST SWAP4 POP PUSH2 0x5DE DUP2 DUP6 PUSH1 0x20 DUP7 ADD PUSH2 0x59C JUMP JUMPDEST PUSH2 0x5E7 DUP2 PUSH2 0x5AA JUMP JUMPDEST DUP5 ADD SWAP2 POP POP SWAP3 SWAP2 POP POP JUMP JUMPDEST PUSH0 PUSH1 0x20 DUP3 ADD SWAP1 POP DUP2 DUP2 SUB PUSH0 DUP4 ADD MSTORE PUSH2 0x60A DUP2 DUP5 PUSH2 0x5BA JUMP JUMPDEST SWAP1 POP SWAP3 SWAP2 POP POP JUMP JUMPDEST PUSH32 0x53636F7265206D757374206265206265747765656E203020616E642031303000 PUSH0 DUP3 ADD MSTORE POP JUMP JUMPDEST PUSH0 PUSH2 0x646 PUSH1 0x1F DUP4 PUSH2 0x58C JUMP JUMPDEST SWAP2 POP PUSH2 0x651 DUP3 PUSH2 0x612 JUMP JUMPDEST PUSH1 0x20 DUP3 ADD SWAP1 POP SWAP2 SWAP1 POP JUMP JUMPDEST PUSH0 PUSH1 0x20 DUP3 ADD SWAP1 POP DUP2 DUP2 SUB PUSH0 DUP4 ADD MSTORE PUSH2 0x673 DUP2 PUSH2 0x63A JUMP JUMPDEST SWAP1 POP SWAP2 SWAP1 POP JUMP JUMPDEST PUSH2 0x683 DUP2 PUSH2 0x524 JUMP JUMPDEST DUP3 MSTORE POP POP JUMP JUMPDEST PUSH0 PUSH1 0x40 DUP3 ADD SWAP1 POP PUSH2 0x69C PUSH0 DUP4 ADD DUP6 PUSH2 0x67A JUMP JUMPDEST DUP2 DUP2 SUB PUSH1 0x20 DUP4 ADD MSTORE PUSH2 0x6AE DUP2 DUP5 PUSH2 0x5BA JUMP JUMPDEST SWAP1 POP SWAP4 SWAP3 POP POP POP JUMP INVALID LOG2 PUSH5 0x6970667358 0x22 SLT KECCAK256 0xBA PUSH28 0x945447070EBA96C106F5224C01E471A3900D6FAB427A94447F6D3C7B SWAP15 0xBF PUSH5 0x736F6C6343 STOP ADDMOD BYTE STOP CALLER "
		},
		"gasEstimates": {
			"creation": {
				"codeDepositCost": "354600",
				"executionCost": "391",
				"totalCost": "354991"
			},
			"external": {
				"calculateGrade(uint256)": "infinite",
				"getGrade(uint256)": "infinite"
			}
		},
		"methodIdentifiers": {
			"calculateGrade(uint256)": "3bf1a7d1",
			"getGrade(uint256)": "e1e0485e"
		}
	},
	"abi": [
		{
			"anonymous": false,
			"inputs": [
				{
					"indexed": false,
					"internalType": "uint256",
					"name": "score",
					"type": "uint256"
				},
				{
					"indexed": false,
					"internalType": "string",
					"name": "grade",
					"type": "string"
				}
			],
			"name": "GradeCalculated",
			"type": "event"
		},
		{
			"inputs": [
				{
					"internalType": "uint256",
					"name": "score",
					"type": "uint256"
				}
			],
			"name": "calculateGrade",
			"outputs": [
				{
					"internalType": "string",
					"name": "",
					"type": "string"
				}
			],
			"stateMutability": "nonpayable",
			"type": "function"
		},
		{
			"inputs": [
				{
					"internalType": "uint256",
					"name": "score",
					"type": "uint256"
				}
			],
			"name": "getGrade",
			"outputs": [
				{
					"internalType": "string",
					"name": "",
					"type": "string"
				}
			],
			"stateMutability": "pure",
			"type": "function"
		}
	]
}