{
	"data": {
		"bytecode": {
			"linkReferences": {},
			"object": "6080604052348015600e575f80fd5b50610dd18061001c5f395ff3fe608060405234801561000f575f80fd5b506004361061003f575f3560e01c80630f5a416f146100435780631ffee7ed146100745780638d534a5e146100a4575b5f80fd5b61005d600480360381019061005891906109a3565b6100d5565b60405161006b929190610a1d565b60405180910390f35b61008e600480360381019061008991906109a3565b6101b7565b60405161009b9190610a5e565b60405180910390f35b6100be60048036038101906100b991906109a3565b6101fb565b6040516100cc929190610a1d565b60405180910390f35b5f805f8385876100e59190610aa4565b1180156100fc57508484876100fa9190610aa4565b115b801561011257508584866101109190610aa4565b115b905080610125575f8092509250506101af565b848614801561013357508385145b1561014157600392506101a0565b8486148061014e57508385145b8061015857508386145b156101805761016886868661036a565b15610176576004925061017b565b600292505b61019f565b61018b86868661036a565b15610199576004925061019e565b600192505b5b5b6101ab868686610440565b9150505b935093915050565b5f8183856101c59190610aa4565b1180156101dc57508282856101da9190610aa4565b115b80156101f257508382846101f09190610aa4565b115b90509392505050565b5f805f83858761020b9190610aa4565b11801561022257508484876102209190610aa4565b115b801561023857508584866102369190610aa4565b115b90508061028a577f806c1f1f08221e96ca583b40b3f6abe5d525e8290e97f78ee8595315a5404ab68686865f80604051610276959493929190610b73565b60405180910390a15f809250925050610362565b848614801561029857508385145b156102a65760039250610305565b848614806102b357508385145b806102bd57508386145b156102e5576102cd86868661036a565b156102db57600492506102e0565b600292505b610304565b6102f086868661036a565b156102fe5760049250610303565b600192505b5b5b610310868686610440565b91505f61031c846104c6565b90507f806c1f1f08221e96ca583b40b3f6abe5d525e8290e97f78ee8595315a5404ab687878787858860405161035796959493929190610c37565b60405180910390a150505b935093915050565b5f8061037785858561067c565b90508060026003811061038d5761038c610c9d565b5b6020020151816002600381106103a6576103a5610c9d565b5b60200201516103b59190610cca565b816001600381106103c9576103c8610c9d565b5b6020020151826001600381106103e2576103e1610c9d565b5b60200201516103f19190610cca565b825f6003811061040457610403610c9d565b5b6020020151835f6003811061041c5761041b610c9d565b5b602002015161042b9190610cca565b6104359190610aa4565b149150509392505050565b5f8060028385876104519190610aa4565b61045b9190610aa4565b6104659190610d38565b90505f83826104749190610d68565b85836104809190610d68565b878461048c9190610d68565b846104979190610cca565b6104a19190610cca565b6104ab9190610cca565b90505f6104b7826108d9565b90508093505050509392505050565b60605f60ff168260ff1603610512576040518060400160405280600e81526020017f4e6f74206120547269616e676c650000000000000000000000000000000000008152509050610677565b600160ff168260ff160361055d576040518060400160405280600781526020017f5363616c656e65000000000000000000000000000000000000000000000000008152509050610677565b600260ff168260ff16036105a8576040518060400160405280600981526020017f49736f7363656c657300000000000000000000000000000000000000000000008152509050610677565b600360ff168260ff16036105f3576040518060400160405280600b81526020017f457175696c61746572616c0000000000000000000000000000000000000000008152509050610677565b600460ff168260ff160361063e576040518060400160405280600c81526020017f52696768742d616e676c656400000000000000000000000000000000000000008152509050610677565b6040518060400160405280600781526020017f556e6b6e6f776e0000000000000000000000000000000000000000000000000081525090505b919050565b61068461094a565b61068c61094a565b84815f600381106106a05761069f610c9d565b5b60200201818152505083816001600381106106be576106bd610c9d565b5b60200201818152505082816002600381106106dc576106db610c9d565b5b602002018181525050806001600381106106f9576106f8610c9d565b5b6020020151815f6003811061071157610710610c9d565b5b6020020151111561078757806001600381106107305761072f610c9d565b5b6020020151815f6003811061074857610747610c9d565b5b6020020151825f600381106107605761075f610c9d565b5b602002018360016003811061077857610777610c9d565b5b60200201828152508281525050505b8060026003811061079b5761079a610c9d565b5b6020020151816001600381106107b4576107b3610c9d565b5b6020020151111561082c57806002600381106107d3576107d2610c9d565b5b6020020151816001600381106107ec576107eb610c9d565b5b60200201518260016003811061080557610804610c9d565b5b602002018360026003811061081d5761081c610c9d565b5b60200201828152508281525050505b806001600381106108405761083f610c9d565b5b6020020151815f6003811061085857610857610c9d565b5b602002015111156108ce578060016003811061087757610876610c9d565b5b6020020151815f6003811061088f5761088e610c9d565b5b6020020151825f600381106108a7576108a6610c9d565b5b60200201836001600381106108bf576108be610c9d565b5b60200201828152508281525050505b809150509392505050565b5f8082036108e9575f9050610945565b5f60026001846108f99190610aa4565b6109039190610d38565b90505f8390505b8082101561093f5781905060028283866109249190610d38565b61092e9190610aa4565b6109389190610d38565b915061090a565b80925050505b919050565b6040518060600160405280600390602082028036833780820191505090505090565b5f80fd5b5f819050919050565b61098281610970565b811461098c575f80fd5b50565b5f8135905061099d81610979565b92915050565b5f805f606084860312156109ba576109b961096c565b5b5f6109c78682870161098f565b93505060206109d88682870161098f565b92505060406109e98682870161098f565b9150509250925092565b5f60ff82169050919050565b610a08816109f3565b82525050565b610a1781610970565b82525050565b5f604082019050610a305f8301856109ff565b610a3d6020830184610a0e565b9392505050565b5f8115159050919050565b610a5881610a44565b82525050565b5f602082019050610a715f830184610a4f565b92915050565b7f4e487b71000000000000000000000000000000000000000000000000000000005f52601160045260245ffd5b5f610aae82610970565b9150610ab983610970565b9250828201905080821115610ad157610ad0610a77565b5b92915050565b5f82825260208201905092915050565b7f4e6f74206120547269616e676c650000000000000000000000000000000000005f82015250565b5f610b1b600e83610ad7565b9150610b2682610ae7565b602082019050919050565b5f819050919050565b5f819050919050565b5f610b5d610b58610b5384610b31565b610b3a565b610970565b9050919050565b610b6d81610b43565b82525050565b5f60c082019050610b865f830188610a0e565b610b936020830187610a0e565b610ba06040830186610a0e565b610bad60608301856109ff565b8181036080830152610bbe81610b0f565b9050610bcd60a0830184610b64565b9695505050505050565b5f81519050919050565b8281835e5f83830152505050565b5f601f19601f8301169050919050565b5f610c0982610bd7565b610c138185610ad7565b9350610c23818560208601610be1565b610c2c81610bef565b840191505092915050565b5f60c082019050610c4a5f830189610a0e565b610c576020830188610a0e565b610c646040830187610a0e565b610c7160608301866109ff565b8181036080830152610c838185610bff565b9050610c9260a0830184610a0e565b979650505050505050565b7f4e487b71000000000000000000000000000000000000000000000000000000005f52603260045260245ffd5b5f610cd482610970565b9150610cdf83610970565b9250828202610ced81610970565b91508282048414831517610d0457610d03610a77565b5b5092915050565b7f4e487b71000000000000000000000000000000000000000000000000000000005f52601260045260245ffd5b5f610d4282610970565b9150610d4d83610970565b925082610d5d57610d5c610d0b565b5b828204905092915050565b5f610d7282610970565b9150610d7d83610970565b9250828203905081811115610d9557610d94610a77565b5b9291505056fea2646970667358221220b099c55e6de1d281ff323129ebf159da43af8cbd3f5eff746fc430077c40851d64736f6c634300081a0033",
			"opcodes": "PUSH1 0x80 PUSH1 0x40 MSTORE CALLVALUE DUP1 ISZERO PUSH1 0xE JUMPI PUSH0 DUP1 REVERT JUMPDEST POP PUSH2 0xDD1 DUP1 PUSH2 0x1C PUSH0 CODECOPY PUSH0 RETURN INVALID PUSH1 0x80 PUSH1 0x40 MSTORE CALLVALUE DUP1 ISZERO PUSH2 0xF JUMPI PUSH0 DUP1 REVERT JUMPDEST POP PUSH1 0x4 CALLDATASIZE LT PUSH2 0x3F JUMPI PUSH0 CALLDATALOAD PUSH1 0xE0 SHR DUP1 PUSH4 0xF5A416F EQ PUSH2 0x43 JUMPI DUP1 PUSH4 0x1FFEE7ED EQ PUSH2 0x74 JUMPI DUP1 PUSH4 0x8D534A5E EQ PUSH2 0xA4 JUMPI JUMPDEST PUSH0 DUP1 REVERT JUMPDEST PUSH2 0x5D PUSH1 0x4 DUP1 CALLDATASIZE SUB DUP2 ADD SWAP1 PUSH2 0x58 SWAP2 SWAP1 PUSH2 0x9A3 JUMP JUMPDEST PUSH2 0xD5 JUMP JUMPDEST PUSH1 0x40 MLOAD PUSH2 0x6B SWAP3 SWAP2 SWAP1 PUSH2 0xA1D JUMP JUMPDEST PUSH1 0x40 MLOAD DUP1 SWAP2 SUB SWAP1 RETURN JUMPDEST PUSH2 0x8E PUSH1 0x4 DUP1 CALLDATASIZE SUB DUP2 ADD SWAP1 PUSH2 0x89 SWAP2 SWAP1 PUSH2 0x9A3 JUMP JUMPDEST PUSH2 0x1B7 JUMP JUMPDEST PUSH1 0x40 MLOAD PUSH2 0x9B SWAP2 SWAP1 PUSH2 0xA5E JUMP JUMPDEST PUSH1 0x40 MLOAD DUP1 SWAP2 SUB SWAP1 RETURN JUMPDEST PUSH2 0xBE PUSH1 0x4 DUP1 CALLDATASIZE SUB DUP2 ADD SWAP1 PUSH2 0xB9 SWAP2 SWAP1 PUSH2 0x9A3 JUMP JUMPDEST PUSH2 0x1FB JUMP JUMPDEST PUSH1 0x40 MLOAD PUSH2 0xCC SWAP3 SWAP2 SWAP1 PUSH2 0xA1D JUMP JUMPDEST PUSH1 0x40 MLOAD DUP1 SWAP2 SUB SWAP1 RETURN JUMPDEST PUSH0 DUP1 PUSH0 DUP4 DUP6 DUP8 PUSH2 0xE5 SWAP2 SWAP1 PUSH2 0xAA4 JUMP JUMPDEST GT DUP1 ISZERO PUSH2 0xFC JUMPI POP DUP5 DUP5 DUP8 PUSH2 0xFA SWAP2 SWAP1 PUSH2 0xAA4 JUMP JUMPDEST GT JUMPDEST DUP1 ISZERO PUSH2 0x112 JUMPI POP DUP6 DUP5 DUP7 PUSH2 0x110 SWAP2 SWAP1 PUSH2 0xAA4 JUMP JUMPDEST GT JUMPDEST SWAP1 POP DUP1 PUSH2 0x125 JUMPI PUSH0 DUP1 SWAP3 POP SWAP3 POP POP PUSH2 0x1AF JUMP JUMPDEST DUP5 DUP7 EQ DUP1 ISZERO PUSH2 0x133 JUMPI POP DUP4 DUP6 EQ JUMPDEST ISZERO PUSH2 0x141 JUMPI PUSH1 0x3 SWAP3 POP PUSH2 0x1A0 JUMP JUMPDEST DUP5 DUP7 EQ DUP1 PUSH2 0x14E JUMPI POP DUP4 DUP6 EQ JUMPDEST DUP1 PUSH2 0x158 JUMPI POP DUP4 DUP7 EQ JUMPDEST ISZERO PUSH2 0x180 JUMPI PUSH2 0x168 DUP7 DUP7 DUP7 PUSH2 0x36A JUMP JUMPDEST ISZERO PUSH2 0x176 JUMPI PUSH1 0x4 SWAP3 POP PUSH2 0x17B JUMP JUMPDEST PUSH1 0x2 SWAP3 POP JUMPDEST PUSH2 0x19F JUMP JUMPDEST PUSH2 0x18B DUP7 DUP7 DUP7 PUSH2 0x36A JUMP JUMPDEST ISZERO PUSH2 0x199 JUMPI PUSH1 0x4 SWAP3 POP PUSH2 0x19E JUMP JUMPDEST PUSH1 0x1 SWAP3 POP JUMPDEST JUMPDEST JUMPDEST PUSH2 0x1AB DUP7 DUP7 DUP7 PUSH2 0x440 JUMP JUMPDEST SWAP2 POP POP JUMPDEST SWAP4 POP SWAP4 SWAP2 POP POP JUMP JUMPDEST PUSH0 DUP2 DUP4 DUP6 PUSH2 0x1C5 SWAP2 SWAP1 PUSH2 0xAA4 JUMP JUMPDEST GT DUP1 ISZERO PUSH2 0x1DC JUMPI POP DUP3 DUP3 DUP6 PUSH2 0x1DA SWAP2 SWAP1 PUSH2 0xAA4 JUMP JUMPDEST GT JUMPDEST DUP1 ISZERO PUSH2 0x1F2 JUMPI POP DUP4 DUP3 DUP5 PUSH2 0x1F0 SWAP2 SWAP1 PUSH2 0xAA4 JUMP JUMPDEST GT JUMPDEST SWAP1 POP SWAP4 SWAP3 POP POP POP JUMP JUMPDEST PUSH0 DUP1 PUSH0 DUP4 DUP6 DUP8 PUSH2 0x20B SWAP2 SWAP1 PUSH2 0xAA4 JUMP JUMPDEST GT DUP1 ISZERO PUSH2 0x222 JUMPI POP DUP5 DUP5 DUP8 PUSH2 0x220 SWAP2 SWAP1 PUSH2 0xAA4 JUMP JUMPDEST GT JUMPDEST DUP1 ISZERO PUSH2 0x238 JUMPI POP DUP6 DUP5 DUP7 PUSH2 0x236 SWAP2 SWAP1 PUSH2 0xAA4 JUMP JUMPDEST GT JUMPDEST SWAP1 POP DUP1 PUSH2 0x28A JUMPI PUSH32 0x806C1F1F08221E96CA583B40B3F6ABE5D525E8290E97F78EE8595315A5404AB6 DUP7 DUP7 DUP7 PUSH0 DUP1 PUSH1 0x40 MLOAD PUSH2 0x276 SWAP6 SWAP5 SWAP4 SWAP3 SWAP2 SWAP1 PUSH2 0xB73 JUMP JUMPDEST PUSH1 0x40 MLOAD DUP1 SWAP2 SUB SWAP1 LOG1 PUSH0 DUP1 SWAP3 POP SWAP3 POP POP PUSH2 0x362 JUMP JUMPDEST DUP5 DUP7 EQ DUP1 ISZERO PUSH2 0x298 JUMPI POP DUP4 DUP6 EQ JUMPDEST ISZERO PUSH2 0x2A6 JUMPI PUSH1 0x3 SWAP3 POP PUSH2 0x305 JUMP JUMPDEST DUP5 DUP7 EQ DUP1 PUSH2 0x2B3 JUMPI POP DUP4 DUP6 EQ JUMPDEST DUP1 PUSH2 0x2BD JUMPI POP DUP4 DUP7 EQ JUMPDEST ISZERO PUSH2 0x2E5 JUMPI PUSH2 0x2CD DUP7 DUP7 DUP7 PUSH2 0x36A JUMP JUMPDEST ISZERO PUSH2 0x2DB JUMPI PUSH1 0x4 SWAP3 POP PUSH2 0x2E0 JUMP JUMPDEST PUSH1 0x2 SWAP3 POP JUMPDEST PUSH2 0x304 JUMP JUMPDEST PUSH2 0x2F0 DUP7 DUP7 DUP7 PUSH2 0x36A JUMP JUMPDEST ISZERO PUSH2 0x2FE JUMPI PUSH1 0x4 SWAP3 POP PUSH2 0x303 JUMP JUMPDEST PUSH1 0x1 SWAP3 POP JUMPDEST JUMPDEST JUMPDEST PUSH2 0x310 DUP7 DUP7 DUP7 PUSH2 0x440 JUMP JUMPDEST SWAP2 POP PUSH0 PUSH2 0x31C DUP5 PUSH2 0x4C6 JUMP JUMPDEST SWAP1 POP PUSH32 0x806C1F1F08221E96CA583B40B3F6ABE5D525E8290E97F78EE8595315A5404AB6 DUP8 DUP8 DUP8 DUP8 DUP6 DUP9 PUSH1 0x40 MLOAD PUSH2 0x357 SWAP7 SWAP6 SWAP5 SWAP4 SWAP3 SWAP2 SWAP1 PUSH2 0xC37 JUMP JUMPDEST PUSH1 0x40 MLOAD DUP1 SWAP2 SUB SWAP1 LOG1 POP POP JUMPDEST SWAP4 POP SWAP4 SWAP2 POP POP JUMP JUMPDEST PUSH0 DUP1 PUSH2 0x377 DUP6 DUP6 DUP6 PUSH2 0x67C JUMP JUMPDEST SWAP1 POP DUP1 PUSH1 0x2 PUSH1 0x3 DUP2 LT PUSH2 0x38D JUMPI PUSH2 0x38C PUSH2 0xC9D JUMP JUMPDEST JUMPDEST PUSH1 0x20 MUL ADD MLOAD DUP2 PUSH1 0x2 PUSH1 0x3 DUP2 LT PUSH2 0x3A6 JUMPI PUSH2 0x3A5 PUSH2 0xC9D JUMP JUMPDEST JUMPDEST PUSH1 0x20 MUL ADD MLOAD PUSH2 0x3B5 SWAP2 SWAP1 PUSH2 0xCCA JUMP JUMPDEST DUP2 PUSH1 0x1 PUSH1 0x3 DUP2 LT PUSH2 0x3C9 JUMPI PUSH2 0x3C8 PUSH2 0xC9D JUMP JUMPDEST JUMPDEST PUSH1 0x20 MUL ADD MLOAD DUP3 PUSH1 0x1 PUSH1 0x3 DUP2 LT PUSH2 0x3E2 JUMPI PUSH2 0x3E1 PUSH2 0xC9D JUMP JUMPDEST JUMPDEST PUSH1 0x20 MUL ADD MLOAD PUSH2 0x3F1 SWAP2 SWAP1 PUSH2 0xCCA JUMP JUMPDEST DUP3 PUSH0 PUSH1 0x3 DUP2 LT PUSH2 0x404 JUMPI PUSH2 0x403 PUSH2 0xC9D JUMP JUMPDEST JUMPDEST PUSH1 0x20 MUL ADD MLOAD DUP4 PUSH0 PUSH1 0x3 DUP2 LT PUSH2 0x41C JUMPI PUSH2 0x41B PUSH2 0xC9D JUMP JUMPDEST JUMPDEST PUSH1 0x20 MUL ADD MLOAD PUSH2 0x42B SWAP2 SWAP1 PUSH2 0xCCA JUMP JUMPDEST PUSH2 0x435 SWAP2 SWAP1 PUSH2 0xAA4 JUMP JUMPDEST EQ SWAP2 POP POP SWAP4 SWAP3 POP POP POP JUMP JUMPDEST PUSH0 DUP1 PUSH1 0x2 DUP4 DUP6 DUP8 PUSH2 0x451 SWAP2 SWAP1 PUSH2 0xAA4 JUMP JUMPDEST PUSH2 0x45B SWAP2 SWAP1 PUSH2 0xAA4 JUMP JUMPDEST PUSH2 0x465 SWAP2 SWAP1 PUSH2 0xD38 JUMP JUMPDEST SWAP1 POP PUSH0 DUP4 DUP3 PUSH2 0x474 SWAP2 SWAP1 PUSH2 0xD68 JUMP JUMPDEST DUP6 DUP4 PUSH2 0x480 SWAP2 SWAP1 PUSH2 0xD68 JUMP JUMPDEST DUP8 DUP5 PUSH2 0x48C SWAP2 SWAP1 PUSH2 0xD68 JUMP JUMPDEST DUP5 PUSH2 0x497 SWAP2 SWAP1 PUSH2 0xCCA JUMP JUMPDEST PUSH2 0x4A1 SWAP2 SWAP1 PUSH2 0xCCA JUMP JUMPDEST PUSH2 0x4AB SWAP2 SWAP1 PUSH2 0xCCA JUMP JUMPDEST SWAP1 POP PUSH0 PUSH2 0x4B7 DUP3 PUSH2 0x8D9 JUMP JUMPDEST SWAP1 POP DUP1 SWAP4 POP POP POP POP SWAP4 SWAP3 POP POP POP JUMP JUMPDEST PUSH1 0x60 PUSH0 PUSH1 0xFF AND DUP3 PUSH1 0xFF AND SUB PUSH2 0x512 JUMPI PUSH1 0x40 MLOAD DUP1 PUSH1 0x40 ADD PUSH1 0x40 MSTORE DUP1 PUSH1 0xE DUP2 MSTORE PUSH1 0x20 ADD PUSH32 0x4E6F74206120547269616E676C65000000000000000000000000000000000000 DUP2 MSTORE POP SWAP1 POP PUSH2 0x677 JUMP JUMPDEST PUSH1 0x1 PUSH1 0xFF AND DUP3 PUSH1 0xFF AND SUB PUSH2 0x55D JUMPI PUSH1 0x40 MLOAD DUP1 PUSH1 0x40 ADD PUSH1 0x40 MSTORE DUP1 PUSH1 0x7 DUP2 MSTORE PUSH1 0x20 ADD PUSH32 0x5363616C656E6500000000000000000000000000000000000000000000000000 DUP2 MSTORE POP SWAP1 POP PUSH2 0x677 JUMP JUMPDEST PUSH1 0x2 PUSH1 0xFF AND DUP3 PUSH1 0xFF AND SUB PUSH2 0x5A8 JUMPI PUSH1 0x40 MLOAD DUP1 PUSH1 0x40 ADD PUSH1 0x40 MSTORE DUP1 PUSH1 0x9 DUP2 MSTORE PUSH1 0x20 ADD PUSH32 0x49736F7363656C65730000000000000000000000000000000000000000000000 DUP2 MSTORE POP SWAP1 POP PUSH2 0x677 JUMP JUMPDEST PUSH1 0x3 PUSH1 0xFF AND DUP3 PUSH1 0xFF AND SUB PUSH2 0x5F3 JUMPI PUSH1 0x40 MLOAD DUP1 PUSH1 0x40 ADD PUSH1 0x40 MSTORE DUP1 PUSH1 0xB DUP2 MSTORE PUSH1 0x20 ADD PUSH32 0x457175696C61746572616C000000000000000000000000000000000000000000 DUP2 MSTORE POP SWAP1 POP PUSH2 0x677 JUMP JUMPDEST PUSH1 0x4 PUSH1 0xFF AND DUP3 PUSH1 0xFF AND SUB PUSH2 0x63E JUMPI PUSH1 0x40 MLOAD DUP1 PUSH1 0x40 ADD PUSH1 0x40 MSTORE DUP1 PUSH1 0xC DUP2 MSTORE PUSH1 0x20 ADD PUSH32 0x52696768742D616E676C65640000000000000000000000000000000000000000 DUP2 MSTORE POP SWAP1 POP PUSH2 0x677 JUMP JUMPDEST PUSH1 0x40 MLOAD DUP1 PUSH1 0x40 ADD PUSH1 0x40 MSTORE DUP1 PUSH1 0x7 DUP2 MSTORE PUSH1 0x20 ADD PUSH32 0x556E6B6E6F776E00000000000000000000000000000000000000000000000000 DUP2 MSTORE POP SWAP1 POP JUMPDEST SWAP2 SWAP1 POP JUMP JUMPDEST PUSH2 0x684 PUSH2 0x94A JUMP JUMPDEST PUSH2 0x68C PUSH2 0x94A JUMP JUMPDEST DUP5 DUP2 PUSH0 PUSH1 0x3 DUP2 LT PUSH2 0x6A0 JUMPI PUSH2 0x69F PUSH2 0xC9D JUMP JUMPDEST JUMPDEST PUSH1 0x20 MUL ADD DUP2 DUP2 MSTORE POP POP DUP4 DUP2 PUSH1 0x1 PUSH1 0x3 DUP2 LT PUSH2 0x6BE JUMPI PUSH2 0x6BD PUSH2 0xC9D JUMP JUMPDEST JUMPDEST PUSH1 0x20 MUL ADD DUP2 DUP2 MSTORE POP POP DUP3 DUP2 PUSH1 0x2 PUSH1 0x3 DUP2 LT PUSH2 0x6DC JUMPI PUSH2 0x6DB PUSH2 0xC9D JUMP JUMPDEST JUMPDEST PUSH1 0x20 MUL ADD DUP2 DUP2 MSTORE POP POP DUP1 PUSH1 0x1 PUSH1 0x3 DUP2 LT PUSH2 0x6F9 JUMPI PUSH2 0x6F8 PUSH2 0xC9D JUMP JUMPDEST JUMPDEST PUSH1 0x20 MUL ADD MLOAD DUP2 PUSH0 PUSH1 0x3 DUP2 LT PUSH2 0x711 JUMPI PUSH2 0x710 PUSH2 0xC9D JUMP JUMPDEST JUMPDEST PUSH1 0x20 MUL ADD MLOAD GT ISZERO PUSH2 0x787 JUMPI DUP1 PUSH1 0x1 PUSH1 0x3 DUP2 LT PUSH2 0x730 JUMPI PUSH2 0x72F PUSH2 0xC9D JUMP JUMPDEST JUMPDEST PUSH1 0x20 MUL ADD MLOAD DUP2 PUSH0 PUSH1 0x3 DUP2 LT PUSH2 0x748 JUMPI PUSH2 0x747 PUSH2 0xC9D JUMP JUMPDEST JUMPDEST PUSH1 0x20 MUL ADD MLOAD DUP3 PUSH0 PUSH1 0x3 DUP2 LT PUSH2 0x760 JUMPI PUSH2 0x75F PUSH2 0xC9D JUMP JUMPDEST JUMPDEST PUSH1 0x20 MUL ADD DUP4 PUSH1 0x1 PUSH1 0x3 DUP2 LT PUSH2 0x778 JUMPI PUSH2 0x777 PUSH2 0xC9D JUMP JUMPDEST JUMPDEST PUSH1 0x20 MUL ADD DUP3 DUP2 MSTORE POP DUP3 DUP2 MSTORE POP POP POP JUMPDEST DUP1 PUSH1 0x2 PUSH1 0x3 DUP2 LT PUSH2 0x79B JUMPI PUSH2 0x79A PUSH2 0xC9D JUMP JUMPDEST JUMPDEST PUSH1 0x20 MUL ADD MLOAD DUP2 PUSH1 0x1 PUSH1 0x3 DUP2 LT PUSH2 0x7B4 JUMPI PUSH2 0x7B3 PUSH2 0xC9D JUMP JUMPDEST JUMPDEST PUSH1 0x20 MUL ADD MLOAD GT ISZERO PUSH2 0x82C JUMPI DUP1 PUSH1 0x2 PUSH1 0x3 DUP2 LT PUSH2 0x7D3 JUMPI PUSH2 0x7D2 PUSH2 0xC9D JUMP JUMPDEST JUMPDEST PUSH1 0x20 MUL ADD MLOAD DUP2 PUSH1 0x1 PUSH1 0x3 DUP2 LT PUSH2 0x7EC JUMPI PUSH2 0x7EB PUSH2 0xC9D JUMP JUMPDEST JUMPDEST PUSH1 0x20 MUL ADD MLOAD DUP3 PUSH1 0x1 PUSH1 0x3 DUP2 LT PUSH2 0x805 JUMPI PUSH2 0x804 PUSH2 0xC9D JUMP JUMPDEST JUMPDEST PUSH1 0x20 MUL ADD DUP4 PUSH1 0x2 PUSH1 0x3 DUP2 LT PUSH2 0x81D JUMPI PUSH2 0x81C PUSH2 0xC9D JUMP JUMPDEST JUMPDEST PUSH1 0x20 MUL ADD DUP3 DUP2 MSTORE POP DUP3 DUP2 MSTORE POP POP POP JUMPDEST DUP1 PUSH1 0x1 PUSH1 0x3 DUP2 LT PUSH2 0x840 JUMPI PUSH2 0x83F PUSH2 0xC9D JUMP JUMPDEST JUMPDEST PUSH1 0x20 MUL ADD MLOAD DUP2 PUSH0 PUSH1 0x3 DUP2 LT PUSH2 0x858 JUMPI PUSH2 0x857 PUSH2 0xC9D JUMP JUMPDEST JUMPDEST PUSH1 0x20 MUL ADD MLOAD GT ISZERO PUSH2 0x8CE JUMPI DUP1 PUSH1 0x1 PUSH1 0x3 DUP2 LT PUSH2 0x877 JUMPI PUSH2 0x876 PUSH2 0xC9D JUMP JUMPDEST JUMPDEST PUSH1 0x20 MUL ADD MLOAD DUP2 PUSH0 PUSH1 0x3 DUP2 LT PUSH2 0x88F JUMPI PUSH2 0x88E PUSH2 0xC9D JUMP JUMPDEST JUMPDEST PUSH1 0x20 MUL ADD MLOAD DUP3 PUSH0 PUSH1 0x3 DUP2 LT PUSH2 0x8A7 JUMPI PUSH2 0x8A6 PUSH2 0xC9D JUMP JUMPDEST JUMPDEST PUSH1 0x20 MUL ADD DUP4 PUSH1 0x1 PUSH1 0x3 DUP2 LT PUSH2 0x8BF JUMPI PUSH2 0x8BE PUSH2 0xC9D JUMP JUMPDEST JUMPDEST PUSH1 0x20 MUL ADD DUP3 DUP2 MSTORE POP DUP3 DUP2 MSTORE POP POP POP JUMPDEST DUP1 SWAP2 POP POP SWAP4 SWAP3 POP POP POP JUMP JUMPDEST PUSH0 DUP1 DUP3 SUB PUSH2 0x8E9 JUMPI PUSH0 SWAP1 POP PUSH2 0x945 JUMP JUMPDEST PUSH0 PUSH1 0x2 PUSH1 0x1 DUP5 PUSH2 0x8F9 SWAP2 SWAP1 PUSH2 0xAA4 JUMP JUMPDEST PUSH2 0x903 SWAP2 SWAP1 PUSH2 0xD38 JUMP JUMPDEST SWAP1 POP PUSH0 DUP4 SWAP1 POP JUMPDEST DUP1 DUP3 LT ISZERO PUSH2 0x93F JUMPI DUP2 SWAP1 POP PUSH1 0x2 DUP3 DUP4 DUP7 PUSH2 0x924 SWAP2 SWAP1 PUSH2 0xD38 JUMP JUMPDEST PUSH2 0x92E SWAP2 SWAP1 PUSH2 0xAA4 JUMP JUMPDEST PUSH2 0x938 SWAP2 SWAP1 PUSH2 0xD38 JUMP JUMPDEST SWAP2 POP PUSH2 0x90A JUMP JUMPDEST DUP1 SWAP3 POP POP POP JUMPDEST SWAP2 SWAP1 POP JUMP JUMPDEST PUSH1 0x40 MLOAD DUP1 PUSH1 0x60 ADD PUSH1 0x40 MSTORE DUP1 PUSH1 0x3 SWAP1 PUSH1 0x20 DUP3 MUL DUP1 CALLDATASIZE DUP4 CALLDATACOPY DUP1 DUP3 ADD SWAP2 POP POP SWAP1 POP POP SWAP1 JUMP JUMPDEST PUSH0 DUP1 REVERT JUMPDEST PUSH0 DUP2 SWAP1 POP SWAP2 SWAP1 POP JUMP JUMPDEST PUSH2 0x982 DUP2 PUSH2 0x970 JUMP JUMPDEST DUP2 EQ PUSH2 0x98C JUMPI PUSH0 DUP1 REVERT JUMPDEST POP JUMP JUMPDEST PUSH0 DUP2 CALLDATALOAD SWAP1 POP PUSH2 0x99D DUP2 PUSH2 0x979 JUMP JUMPDEST SWAP3 SWAP2 POP POP JUMP JUMPDEST PUSH0 DUP1 PUSH0 PUSH1 0x60 DUP5 DUP7 SUB SLT ISZERO PUSH2 0x9BA JUMPI PUSH2 0x9B9 PUSH2 0x96C JUMP JUMPDEST JUMPDEST PUSH0 PUSH2 0x9C7 DUP7 DUP3 DUP8 ADD PUSH2 0x98F JUMP JUMPDEST SWAP4 POP POP PUSH1 0x20 PUSH2 0x9D8 DUP7 DUP3 DUP8 ADD PUSH2 0x98F JUMP JUMPDEST SWAP3 POP POP PUSH1 0x40 PUSH2 0x9E9 DUP7 DUP3 DUP8 ADD PUSH2 0x98F JUMP JUMPDEST SWAP2 POP POP SWAP3 POP SWAP3 POP SWAP3 JUMP JUMPDEST PUSH0 PUSH1 0xFF DUP3 AND SWAP1 POP SWAP2 SWAP1 POP JUMP JUMPDEST PUSH2 0xA08 DUP2 PUSH2 0x9F3 JUMP JUMPDEST DUP3 MSTORE POP POP JUMP JUMPDEST PUSH2 0xA17 DUP2 PUSH2 0x970 JUMP JUMPDEST DUP3 MSTORE POP POP JUMP JUMPDEST PUSH0 PUSH1 0x40 DUP3 ADD SWAP1 POP PUSH2 0xA30 PUSH0 DUP4 ADD DUP6 PUSH2 0x9FF JUMP JUMPDEST PUSH2 0xA3D PUSH1 0x20 DUP4 ADD DUP5 PUSH2 0xA0E JUMP JUMPDEST SWAP4 SWAP3 POP POP POP JUMP JUMPDEST PUSH0 DUP2 ISZERO ISZERO SWAP1 POP SWAP2 SWAP1 POP JUMP JUMPDEST PUSH2 0xA58 DUP2 PUSH2 0xA44 JUMP JUMPDEST DUP3 MSTORE POP POP JUMP JUMPDEST PUSH0 PUSH1 0x20 DUP3 ADD SWAP1 POP PUSH2 0xA71 PUSH0 DUP4 ADD DUP5 PUSH2 0xA4F JUMP JUMPDEST SWAP3 SWAP2 POP POP JUMP JUMPDEST PUSH32 0x4E487B7100000000000000000000000000000000000000000000000000000000 PUSH0 MSTORE PUSH1 0x11 PUSH1 0x4 MSTORE PUSH1 0x24 PUSH0 REVERT JUMPDEST PUSH0 PUSH2 0xAAE DUP3 PUSH2 0x970 JUMP JUMPDEST SWAP2 POP PUSH2 0xAB9 DUP4 PUSH2 0x970 JUMP JUMPDEST SWAP3 POP DUP3 DUP3 ADD SWAP1 POP DUP1 DUP3 GT ISZERO PUSH2 0xAD1 JUMPI PUSH2 0xAD0 PUSH2 0xA77 JUMP JUMPDEST JUMPDEST SWAP3 SWAP2 POP POP JUMP JUMPDEST PUSH0 DUP3 DUP3 MSTORE PUSH1 0x20 DUP3 ADD SWAP1 POP SWAP3 SWAP2 POP POP JUMP JUMPDEST PUSH32 0x4E6F74206120547269616E676C65000000000000000000000000000000000000 PUSH0 DUP3 ADD MSTORE POP JUMP JUMPDEST PUSH0 PUSH2 0xB1B PUSH1 0xE DUP4 PUSH2 0xAD7 JUMP JUMPDEST SWAP2 POP PUSH2 0xB26 DUP3 PUSH2 0xAE7 JUMP JUMPDEST PUSH1 0x20 DUP3 ADD SWAP1 POP SWAP2 SWAP1 POP JUMP JUMPDEST PUSH0 DUP2 SWAP1 POP SWAP2 SWAP1 POP JUMP JUMPDEST PUSH0 DUP2 SWAP1 POP SWAP2 SWAP1 POP JUMP JUMPDEST PUSH0 PUSH2 0xB5D PUSH2 0xB58 PUSH2 0xB53 DUP5 PUSH2 0xB31 JUMP JUMPDEST PUSH2 0xB3A JUMP JUMPDEST PUSH2 0x970 JUMP JUMPDEST SWAP1 POP SWAP2 SWAP1 POP JUMP JUMPDEST PUSH2 0xB6D DUP2 PUSH2 0xB43 JUMP JUMPDEST DUP3 MSTORE POP POP JUMP JUMPDEST PUSH0 PUSH1 0xC0 DUP3 ADD SWAP1 POP PUSH2 0xB86 PUSH0 DUP4 ADD DUP9 PUSH2 0xA0E JUMP JUMPDEST PUSH2 0xB93 PUSH1 0x20 DUP4 ADD DUP8 PUSH2 0xA0E JUMP JUMPDEST PUSH2 0xBA0 PUSH1 0x40 DUP4 ADD DUP7 PUSH2 0xA0E JUMP JUMPDEST PUSH2 0xBAD PUSH1 0x60 DUP4 ADD DUP6 PUSH2 0x9FF JUMP JUMPDEST DUP2 DUP2 SUB PUSH1 0x80 DUP4 ADD MSTORE PUSH2 0xBBE DUP2 PUSH2 0xB0F JUMP JUMPDEST SWAP1 POP PUSH2 0xBCD PUSH1 0xA0 DUP4 ADD DUP5 PUSH2 0xB64 JUMP JUMPDEST SWAP7 SWAP6 POP POP POP POP POP POP JUMP JUMPDEST PUSH0 DUP2 MLOAD SWAP1 POP SWAP2 SWAP1 POP JUMP JUMPDEST DUP3 DUP2 DUP4 MCOPY PUSH0 DUP4 DUP4 ADD MSTORE POP POP POP JUMP JUMPDEST PUSH0 PUSH1 0x1F NOT PUSH1 0x1F DUP4 ADD AND SWAP1 POP SWAP2 SWAP1 POP JUMP JUMPDEST PUSH0 PUSH2 0xC09 DUP3 PUSH2 0xBD7 JUMP JUMPDEST PUSH2 0xC13 DUP2 DUP6 PUSH2 0xAD7 JUMP JUMPDEST SWAP4 POP PUSH2 0xC23 DUP2 DUP6 PUSH1 0x20 DUP7 ADD PUSH2 0xBE1 JUMP JUMPDEST PUSH2 0xC2C DUP2 PUSH2 0xBEF JUMP JUMPDEST DUP5 ADD SWAP2 POP POP SWAP3 SWAP2 POP POP JUMP JUMPDEST PUSH0 PUSH1 0xC0 DUP3 ADD SWAP1 POP PUSH2 0xC4A PUSH0 DUP4 ADD DUP10 PUSH2 0xA0E JUMP JUMPDEST PUSH2 0xC57 PUSH1 0x20 DUP4 ADD DUP9 PUSH2 0xA0E JUMP JUMPDEST PUSH2 0xC64 PUSH1 0x40 DUP4 ADD DUP8 PUSH2 0xA0E JUMP JUMPDEST PUSH2 0xC71 PUSH1 0x60 DUP4 ADD DUP7 PUSH2 0x9FF JUMP JUMPDEST DUP2 DUP2 SUB PUSH1 0x80 DUP4 ADD MSTORE PUSH2 0xC83 DUP2 DUP6 PUSH2 0xBFF JUMP JUMPDEST SWAP1 POP PUSH2 0xC92 PUSH1 0xA0 DUP4 ADD DUP5 PUSH2 0xA0E JUMP JUMPDEST SWAP8 SWAP7 POP POP POP POP POP POP POP JUMP JUMPDEST PUSH32 0x4E487B7100000000000000000000000000000000000000000000000000000000 PUSH0 MSTORE PUSH1 0x32 PUSH1 0x4 MSTORE PUSH1 0x24 PUSH0 REVERT JUMPDEST PUSH0 PUSH2 0xCD4 DUP3 PUSH2 0x970 JUMP JUMPDEST SWAP2 POP PUSH2 0xCDF DUP4 PUSH2 0x970 JUMP JUMPDEST SWAP3 POP DUP3 DUP3 MUL PUSH2 0xCED DUP2 PUSH2 0x970 JUMP JUMPDEST SWAP2 POP DUP3 DUP3 DIV DUP5 EQ DUP4 ISZERO OR PUSH2 0xD04 JUMPI PUSH2 0xD03 PUSH2 0xA77 JUMP JUMPDEST JUMPDEST POP SWAP3 SWAP2 POP POP JUMP JUMPDEST PUSH32 0x4E487B7100000000000000000000000000000000000000000000000000000000 PUSH0 MSTORE PUSH1 0x12 PUSH1 0x4 MSTORE PUSH1 0x24 PUSH0 REVERT JUMPDEST PUSH0 PUSH2 0xD42 DUP3 PUSH2 0x970 JUMP JUMPDEST SWAP2 POP PUSH2 0xD4D DUP4 PUSH2 0x970 JUMP JUMPDEST SWAP3 POP DUP3 PUSH2 0xD5D JUMPI PUSH2 0xD5C PUSH2 0xD0B JUMP JUMPDEST JUMPDEST DUP3 DUP3 DIV SWAP1 POP SWAP3 SWAP2 POP POP JUMP JUMPDEST PUSH0 PUSH2 0xD72 DUP3 PUSH2 0x970 JUMP JUMPDEST SWAP2 POP PUSH2 0xD7D DUP4 PUSH2 0x970 JUMP JUMPDEST SWAP3 POP DUP3 DUP3 SUB SWAP1 POP DUP2 DUP2 GT ISZERO PUSH2 0xD95 JUMPI PUSH2 0xD94 PUSH2 0xA77 JUMP JUMPDEST JUMPDEST SWAP3 SWAP2 POP POP JUMP INVALID LOG2 PUSH5 0x6970667358 0x22 SLT KECCAK256 0xB0 SWAP10 0xC5 MCOPY PUSH14 0xE1D281FF323129EBF159DA43AF8C 0xBD EXTCODEHASH MCOPY SELFDESTRUCT PUSH21 0x6FC430077C40851D64736F6C634300081A00330000 "
		},
		"gasEstimates": {
			"creation": {
				"codeDepositCost": "707400",
				"executionCost": "739",
				"totalCost": "708139"
			},
			"external": {
				"analyzeTriangle(uint256,uint256,uint256)": "infinite",
				"getTriangleInfo(uint256,uint256,uint256)": "infinite",
				"isValidTriangle(uint256,uint256,uint256)": "infinite"
			},
			"internal": {
				"calculateArea(uint256,uint256,uint256)": "infinite",
				"getTriangleTypeName(uint8)": "infinite",
				"isRightAngled(uint256,uint256,uint256)": "infinite",
				"sortSides(uint256,uint256,uint256)": "infinite",
				"sqrt(uint256)": "infinite"
			}
		},
		"methodIdentifiers": {
			"analyzeTriangle(uint256,uint256,uint256)": "8d534a5e",
			"getTriangleInfo(uint256,uint256,uint256)": "0f5a416f",
			"isValidTriangle(uint256,uint256,uint256)": "1ffee7ed"
		}
	},
	"abi": [
		{
			"anonymous": false,
			"inputs": [
				{
					"indexed": false,
					"internalType": "uint256",
					"name": "side1",
					"type": "uint256"
				},
				{
					"indexed": false,
					"internalType": "uint256",
					"name": "side2",
					"type": "uint256"
				},
				{
					"indexed": false,
					"internalType": "uint256",
					"name": "side3",
					"type": "uint256"
				},
				{
					"indexed": false,
					"internalType": "uint8",
					"name": "triangleType",
					"type": "uint8"
				},
				{
					"indexed": false,
					"internalType": "string",
					"name": "triangleTypeName",
					"type": "string"
				},
				{
					"indexed": false,
					"internalType": "uint256",
					"name": "area",
					"type": "uint256"
				}
			],
			"name": "TriangleAnalyzed",
			"type": "event"
		},
		{
			"inputs": [
				{
					"internalType": "uint256",
					"name": "a",
					"type": "uint256"
				},
				{
					"internalType": "uint256",
					"name": "b",
					"type": "uint256"
				},
				{
					"internalType": "uint256",
					"name": "c",
					"type": "uint256"
				}
			],
			"name": "analyzeTriangle",
			"outputs": [
				{
					"internalType": "uint8",
					"name": "triangleType",
					"type": "uint8"
				},
				{
					"internalType": "uint256",
					"name": "area",
					"type": "uint256"
				}
			],
			"stateMutability": "nonpayable",
			"type": "function"
		},
		{
			"inputs": [
				{
					"internalType": "uint256",
					"name": "a",
					"type": "uint256"
				},
				{
					"internalType": "uint256",
					"name": "b",
					"type": "uint256"
				},
				{
					"internalType": "uint256",
					"name": "c",
					"type": "uint256"
				}
			],
			"name": "getTriangleInfo",
			"outputs": [
				{
					"internalType": "uint8",
					"name": "triangleType",
					"type": "uint8"
				},
				{
					"internalType": "uint256",
					"name": "area",
					"type": "uint256"
				}
			],
			"stateMutability": "pure",
			"type": "function"
		},
		{
			"inputs": [
				{
					"internalType": "uint256",
					"name": "a",
					"type": "uint256"
				},
				{
					"internalType": "uint256",
					"name": "b",
					"type": "uint256"
				},
				{
					"internalType": "uint256",
					"name": "c",
					"type": "uint256"
				}
			],
			"name": "isValidTriangle",
			"outputs": [
				{
					"internalType": "bool",
					"name": "",
					"type": "bool"
				}
			],
			"stateMutability": "pure",
			"type": "function"
		}
	]
}