{
	"Day-02/D2P3.sol": {
		"TriangleAnalyzer": {
			"abi": [
				{
					"anonymous": false,
					"inputs": [
						{
							"indexed": false,
							"internalType": "uint256",
							"name": "side1",
							"type": "uint256"
						},
						{
							"indexed": false,
							"internalType": "uint256",
							"name": "side2",
							"type": "uint256"
						},
						{
							"indexed": false,
							"internalType": "uint256",
							"name": "side3",
							"type": "uint256"
						},
						{
							"indexed": false,
							"internalType": "uint8",
							"name": "triangleType",
							"type": "uint8"
						},
						{
							"indexed": false,
							"internalType": "string",
							"name": "triangleTypeName",
							"type": "string"
						},
						{
							"indexed": false,
							"internalType": "uint256",
							"name": "area",
							"type": "uint256"
						}
					],
					"name": "TriangleAnalyzed",
					"type": "event"
				},
				{
					"inputs": [
						{
							"internalType": "uint256",
							"name": "a",
							"type": "uint256"
						},
						{
							"internalType": "uint256",
							"name": "b",
							"type": "uint256"
						},
						{
							"internalType": "uint256",
							"name": "c",
							"type": "uint256"
						}
					],
					"name": "analyzeTriangle",
					"outputs": [
						{
							"internalType": "uint8",
							"name": "triangleType",
							"type": "uint8"
						},
						{
							"internalType": "uint256",
							"name": "area",
							"type": "uint256"
						}
					],
					"stateMutability": "nonpayable",
					"type": "function"
				},
				{
					"inputs": [
						{
							"internalType": "uint256",
							"name": "a",
							"type": "uint256"
						},
						{
							"internalType": "uint256",
							"name": "b",
							"type": "uint256"
						},
						{
							"internalType": "uint256",
							"name": "c",
							"type": "uint256"
						}
					],
					"name": "getTriangleInfo",
					"outputs": [
						{
							"internalType": "uint8",
							"name": "triangleType",
							"type": "uint8"
						},
						{
							"internalType": "uint256",
							"name": "area",
							"type": "uint256"
						}
					],
					"stateMutability": "pure",
					"type": "function"
				},
				{
					"inputs": [
						{
							"internalType": "uint256",
							"name": "a",
							"type": "uint256"
						},
						{
							"internalType": "uint256",
							"name": "b",
							"type": "uint256"
						},
						{
							"internalType": "uint256",
							"name": "c",
							"type": "uint256"
						}
					],
					"name": "isValidTriangle",
					"outputs": [
						{
							"internalType": "bool",
							"name": "",
							"type": "bool"
						}
					],
					"stateMutability": "pure",
					"type": "function"
				}
			],
			"devdoc": {
				"kind": "dev",
				"methods": {},
				"version": 1
			},
			"evm": {
				"assembly": "    /* \"Day-02/D2P3.sol\":64:6305  contract TriangleAnalyzer {... */\n  mstore(0x40, 0x80)\n  callvalue\n  dup1\n  iszero\n  tag_1\n  jumpi\n  0x00\n  dup1\n  revert\ntag_1:\n  pop\n  dataSize(sub_0)\n  dup1\n  dataOffset(sub_0)\n  0x00\n  codecopy\n  0x00\n  return\nstop\n\nsub_0: assembly {\n        /* \"Day-02/D2P3.sol\":64:6305  contract TriangleAnalyzer {... */\n      mstore(0x40, 0x80)\n      callvalue\n      dup1\n      iszero\n      tag_1\n      jumpi\n      0x00\n      dup1\n      revert\n    tag_1:\n      pop\n      jumpi(tag_2, lt(calldatasize, 0x04))\n      shr(0xe0, calldataload(0x00))\n      dup1\n      0x0f5a416f\n      eq\n      tag_3\n      jumpi\n      dup1\n      0x1ffee7ed\n      eq\n      tag_4\n      jumpi\n      dup1\n      0x8d534a5e\n      eq\n      tag_5\n      jumpi\n    tag_2:\n      0x00\n      dup1\n      revert\n        /* \"Day-02/D2P3.sol\":2349:3454  function getTriangleInfo(uint256 a, uint256 b, uint256 c) public pure returns (uint8 triangleType, uint256 area) {... */\n    tag_3:\n      tag_6\n      0x04\n      dup1\n      calldatasize\n      sub\n      dup2\n      add\n      swap1\n      tag_7\n      swap2\n      swap1\n      tag_8\n      jump\t// in\n    tag_7:\n      tag_9\n      jump\t// in\n    tag_6:\n      mload(0x40)\n      tag_10\n      swap3\n      swap2\n      swap1\n      tag_11\n      jump\t// in\n    tag_10:\n      mload(0x40)\n      dup1\n      swap2\n      sub\n      swap1\n      return\n        /* \"Day-02/D2P3.sol\":2133:2285  function isValidTriangle(uint256 a, uint256 b, uint256 c) public pure returns (bool) {... */\n    tag_4:\n      tag_12\n      0x04\n      dup1\n      calldatasize\n      sub\n      dup2\n      add\n      swap1\n      tag_13\n      swap2\n      swap1\n      tag_8\n      jump\t// in\n    tag_13:\n      tag_14\n      jump\t// in\n    tag_12:\n      mload(0x40)\n      tag_15\n      swap2\n      swap1\n      tag_16\n      jump\t// in\n    tag_15:\n      mload(0x40)\n      dup1\n      swap2\n      sub\n      swap1\n      return\n        /* \"Day-02/D2P3.sol\":615:2064  function analyzeTriangle(uint256 a, uint256 b, uint256 c) public returns (uint8 triangleType, uint256 area) {... */\n    tag_5:\n      tag_17\n      0x04\n      dup1\n      calldatasize\n      sub\n      dup2\n      add\n      swap1\n      tag_18\n      swap2\n      swap1\n      tag_8\n      jump\t// in\n    tag_18:\n      tag_19\n      jump\t// in\n    tag_17:\n      mload(0x40)\n      tag_20\n      swap3\n      swap2\n      swap1\n      tag_11\n      jump\t// in\n    tag_20:\n      mload(0x40)\n      dup1\n      swap2\n      sub\n      swap1\n      return\n        /* \"Day-02/D2P3.sol\":2349:3454  function getTriangleInfo(uint256 a, uint256 b, uint256 c) public pure returns (uint8 triangleType, uint256 area) {... */\n    tag_9:\n        /* \"Day-02/D2P3.sol\":2428:2446  uint8 triangleType */\n      0x00\n        /* \"Day-02/D2P3.sol\":2448:2460  uint256 area */\n      dup1\n        /* \"Day-02/D2P3.sol\":2524:2539  bool isTriangle */\n      0x00\n        /* \"Day-02/D2P3.sol\":2551:2552  c */\n      dup4\n        /* \"Day-02/D2P3.sol\":2547:2548  b */\n      dup6\n        /* \"Day-02/D2P3.sol\":2543:2544  a */\n      dup8\n        /* \"Day-02/D2P3.sol\":2543:2548  a + b */\n      tag_22\n      swap2\n      swap1\n      tag_23\n      jump\t// in\n    tag_22:\n        /* \"Day-02/D2P3.sol\":2543:2552  a + b > c */\n      gt\n        /* \"Day-02/D2P3.sol\":2542:2568  (a + b > c) && (a + c > b) */\n      dup1\n      iszero\n      tag_24\n      jumpi\n      pop\n        /* \"Day-02/D2P3.sol\":2566:2567  b */\n      dup5\n        /* \"Day-02/D2P3.sol\":2562:2563  c */\n      dup5\n        /* \"Day-02/D2P3.sol\":2558:2559  a */\n      dup8\n        /* \"Day-02/D2P3.sol\":2558:2563  a + c */\n      tag_25\n      swap2\n      swap1\n      tag_23\n      jump\t// in\n    tag_25:\n        /* \"Day-02/D2P3.sol\":2558:2567  a + c > b */\n      gt\n        /* \"Day-02/D2P3.sol\":2542:2568  (a + b > c) && (a + c > b) */\n    tag_24:\n        /* \"Day-02/D2P3.sol\":2542:2583  (a + b > c) && (a + c > b) && (b + c > a) */\n      dup1\n      iszero\n      tag_26\n      jumpi\n      pop\n        /* \"Day-02/D2P3.sol\":2581:2582  a */\n      dup6\n        /* \"Day-02/D2P3.sol\":2577:2578  c */\n      dup5\n        /* \"Day-02/D2P3.sol\":2573:2574  b */\n      dup7\n        /* \"Day-02/D2P3.sol\":2573:2578  b + c */\n      tag_27\n      swap2\n      swap1\n      tag_23\n      jump\t// in\n    tag_27:\n        /* \"Day-02/D2P3.sol\":2573:2582  b + c > a */\n      gt\n        /* \"Day-02/D2P3.sol\":2542:2583  (a + b > c) && (a + c > b) && (b + c > a) */\n    tag_26:\n        /* \"Day-02/D2P3.sol\":2524:2583  bool isTriangle = (a + b > c) && (a + c > b) && (b + c > a) */\n      swap1\n      pop\n        /* \"Day-02/D2P3.sol\":2609:2619  isTriangle */\n      dup1\n        /* \"Day-02/D2P3.sol\":2604:2674  if (!isTriangle) {... */\n      tag_28\n      jumpi\n        /* \"Day-02/D2P3.sol\":172:173  0 */\n      0x00\n        /* \"Day-02/D2P3.sol\":2660:2661  0 */\n      dup1\n        /* \"Day-02/D2P3.sol\":2636:2662  return (NOT_A_TRIANGLE, 0) */\n      swap3\n      pop\n      swap3\n      pop\n      pop\n      jump(tag_21)\n        /* \"Day-02/D2P3.sol\":2604:2674  if (!isTriangle) {... */\n    tag_28:\n        /* \"Day-02/D2P3.sol\":2739:2740  b */\n      dup5\n        /* \"Day-02/D2P3.sol\":2734:2735  a */\n      dup7\n        /* \"Day-02/D2P3.sol\":2734:2740  a == b */\n      eq\n        /* \"Day-02/D2P3.sol\":2734:2750  a == b && b == c */\n      dup1\n      iszero\n      tag_29\n      jumpi\n      pop\n        /* \"Day-02/D2P3.sol\":2749:2750  c */\n      dup4\n        /* \"Day-02/D2P3.sol\":2744:2745  b */\n      dup6\n        /* \"Day-02/D2P3.sol\":2744:2750  b == c */\n      eq\n        /* \"Day-02/D2P3.sol\":2734:2750  a == b && b == c */\n    tag_29:\n        /* \"Day-02/D2P3.sol\":2730:3322  if (a == b && b == c) {... */\n      iszero\n      tag_30\n      jumpi\n        /* \"Day-02/D2P3.sol\":277:278  3 */\n      0x03\n        /* \"Day-02/D2P3.sol\":2767:2793  triangleType = EQUILATERAL */\n      swap3\n      pop\n        /* \"Day-02/D2P3.sol\":2730:3322  if (a == b && b == c) {... */\n      jump(tag_31)\n    tag_30:\n        /* \"Day-02/D2P3.sol\":2820:2821  b */\n      dup5\n        /* \"Day-02/D2P3.sol\":2815:2816  a */\n      dup7\n        /* \"Day-02/D2P3.sol\":2815:2821  a == b */\n      eq\n        /* \"Day-02/D2P3.sol\":2815:2831  a == b || b == c */\n      dup1\n      tag_32\n      jumpi\n      pop\n        /* \"Day-02/D2P3.sol\":2830:2831  c */\n      dup4\n        /* \"Day-02/D2P3.sol\":2825:2826  b */\n      dup6\n        /* \"Day-02/D2P3.sol\":2825:2831  b == c */\n      eq\n        /* \"Day-02/D2P3.sol\":2815:2831  a == b || b == c */\n    tag_32:\n        /* \"Day-02/D2P3.sol\":2815:2841  a == b || b == c || a == c */\n      dup1\n      tag_33\n      jumpi\n      pop\n        /* \"Day-02/D2P3.sol\":2840:2841  c */\n      dup4\n        /* \"Day-02/D2P3.sol\":2835:2836  a */\n      dup7\n        /* \"Day-02/D2P3.sol\":2835:2841  a == c */\n      eq\n        /* \"Day-02/D2P3.sol\":2815:2841  a == b || b == c || a == c */\n    tag_33:\n        /* \"Day-02/D2P3.sol\":2811:3322  if (a == b || b == c || a == c) {... */\n      iszero\n      tag_34\n      jumpi\n        /* \"Day-02/D2P3.sol\":2921:2943  isRightAngled(a, b, c) */\n      tag_35\n        /* \"Day-02/D2P3.sol\":2935:2936  a */\n      dup7\n        /* \"Day-02/D2P3.sol\":2938:2939  b */\n      dup7\n        /* \"Day-02/D2P3.sol\":2941:2942  c */\n      dup7\n        /* \"Day-02/D2P3.sol\":2921:2934  isRightAngled */\n      tag_36\n        /* \"Day-02/D2P3.sol\":2921:2943  isRightAngled(a, b, c) */\n      jump\t// in\n    tag_35:\n        /* \"Day-02/D2P3.sol\":2917:3072  if (isRightAngled(a, b, c)) {... */\n      iszero\n      tag_37\n      jumpi\n        /* \"Day-02/D2P3.sol\":315:316  4 */\n      0x04\n        /* \"Day-02/D2P3.sol\":2964:2991  triangleType = RIGHT_ANGLED */\n      swap3\n      pop\n        /* \"Day-02/D2P3.sol\":2917:3072  if (isRightAngled(a, b, c)) {... */\n      jump(tag_38)\n    tag_37:\n        /* \"Day-02/D2P3.sol\":240:241  2 */\n      0x02\n        /* \"Day-02/D2P3.sol\":3032:3056  triangleType = ISOSCELES */\n      swap3\n      pop\n        /* \"Day-02/D2P3.sol\":2917:3072  if (isRightAngled(a, b, c)) {... */\n    tag_38:\n        /* \"Day-02/D2P3.sol\":2811:3322  if (a == b || b == c || a == c) {... */\n      jump(tag_39)\n    tag_34:\n        /* \"Day-02/D2P3.sol\":3162:3184  isRightAngled(a, b, c) */\n      tag_40\n        /* \"Day-02/D2P3.sol\":3176:3177  a */\n      dup7\n        /* \"Day-02/D2P3.sol\":3179:3180  b */\n      dup7\n        /* \"Day-02/D2P3.sol\":3182:3183  c */\n      dup7\n        /* \"Day-02/D2P3.sol\":3162:3175  isRightAngled */\n      tag_36\n        /* \"Day-02/D2P3.sol\":3162:3184  isRightAngled(a, b, c) */\n      jump\t// in\n    tag_40:\n        /* \"Day-02/D2P3.sol\":3158:3311  if (isRightAngled(a, b, c)) {... */\n      iszero\n      tag_41\n      jumpi\n        /* \"Day-02/D2P3.sol\":315:316  4 */\n      0x04\n        /* \"Day-02/D2P3.sol\":3205:3232  triangleType = RIGHT_ANGLED */\n      swap3\n      pop\n        /* \"Day-02/D2P3.sol\":3158:3311  if (isRightAngled(a, b, c)) {... */\n      jump(tag_42)\n    tag_41:\n        /* \"Day-02/D2P3.sol\":205:206  1 */\n      0x01\n        /* \"Day-02/D2P3.sol\":3273:3295  triangleType = SCALENE */\n      swap3\n      pop\n        /* \"Day-02/D2P3.sol\":3158:3311  if (isRightAngled(a, b, c)) {... */\n    tag_42:\n        /* \"Day-02/D2P3.sol\":2811:3322  if (a == b || b == c || a == c) {... */\n    tag_39:\n        /* \"Day-02/D2P3.sol\":2730:3322  if (a == b && b == c) {... */\n    tag_31:\n        /* \"Day-02/D2P3.sol\":3376:3398  calculateArea(a, b, c) */\n      tag_43\n        /* \"Day-02/D2P3.sol\":3390:3391  a */\n      dup7\n        /* \"Day-02/D2P3.sol\":3393:3394  b */\n      dup7\n        /* \"Day-02/D2P3.sol\":3396:3397  c */\n      dup7\n        /* \"Day-02/D2P3.sol\":3376:3389  calculateArea */\n      tag_44\n        /* \"Day-02/D2P3.sol\":3376:3398  calculateArea(a, b, c) */\n      jump\t// in\n    tag_43:\n        /* \"Day-02/D2P3.sol\":3369:3398  area = calculateArea(a, b, c) */\n      swap2\n      pop\n        /* \"Day-02/D2P3.sol\":3419:3446  return (triangleType, area) */\n      pop\n        /* \"Day-02/D2P3.sol\":2349:3454  function getTriangleInfo(uint256 a, uint256 b, uint256 c) public pure returns (uint8 triangleType, uint256 area) {... */\n    tag_21:\n      swap4\n      pop\n      swap4\n      swap2\n      pop\n      pop\n      jump\t// out\n        /* \"Day-02/D2P3.sol\":2133:2285  function isValidTriangle(uint256 a, uint256 b, uint256 c) public pure returns (bool) {... */\n    tag_14:\n        /* \"Day-02/D2P3.sol\":2212:2216  bool */\n      0x00\n        /* \"Day-02/D2P3.sol\":2245:2246  c */\n      dup2\n        /* \"Day-02/D2P3.sol\":2241:2242  b */\n      dup4\n        /* \"Day-02/D2P3.sol\":2237:2238  a */\n      dup6\n        /* \"Day-02/D2P3.sol\":2237:2242  a + b */\n      tag_46\n      swap2\n      swap1\n      tag_23\n      jump\t// in\n    tag_46:\n        /* \"Day-02/D2P3.sol\":2237:2246  a + b > c */\n      gt\n        /* \"Day-02/D2P3.sol\":2236:2262  (a + b > c) && (a + c > b) */\n      dup1\n      iszero\n      tag_47\n      jumpi\n      pop\n        /* \"Day-02/D2P3.sol\":2260:2261  b */\n      dup3\n        /* \"Day-02/D2P3.sol\":2256:2257  c */\n      dup3\n        /* \"Day-02/D2P3.sol\":2252:2253  a */\n      dup6\n        /* \"Day-02/D2P3.sol\":2252:2257  a + c */\n      tag_48\n      swap2\n      swap1\n      tag_23\n      jump\t// in\n    tag_48:\n        /* \"Day-02/D2P3.sol\":2252:2261  a + c > b */\n      gt\n        /* \"Day-02/D2P3.sol\":2236:2262  (a + b > c) && (a + c > b) */\n    tag_47:\n        /* \"Day-02/D2P3.sol\":2236:2277  (a + b > c) && (a + c > b) && (b + c > a) */\n      dup1\n      iszero\n      tag_49\n      jumpi\n      pop\n        /* \"Day-02/D2P3.sol\":2275:2276  a */\n      dup4\n        /* \"Day-02/D2P3.sol\":2271:2272  c */\n      dup3\n        /* \"Day-02/D2P3.sol\":2267:2268  b */\n      dup5\n        /* \"Day-02/D2P3.sol\":2267:2272  b + c */\n      tag_50\n      swap2\n      swap1\n      tag_23\n      jump\t// in\n    tag_50:\n        /* \"Day-02/D2P3.sol\":2267:2276  b + c > a */\n      gt\n        /* \"Day-02/D2P3.sol\":2236:2277  (a + b > c) && (a + c > b) && (b + c > a) */\n    tag_49:\n        /* \"Day-02/D2P3.sol\":2229:2277  return (a + b > c) && (a + c > b) && (b + c > a) */\n      swap1\n      pop\n        /* \"Day-02/D2P3.sol\":2133:2285  function isValidTriangle(uint256 a, uint256 b, uint256 c) public pure returns (bool) {... */\n      swap4\n      swap3\n      pop\n      pop\n      pop\n      jump\t// out\n        /* \"Day-02/D2P3.sol\":615:2064  function analyzeTriangle(uint256 a, uint256 b, uint256 c) public returns (uint8 triangleType, uint256 area) {... */\n    tag_19:\n        /* \"Day-02/D2P3.sol\":689:707  uint8 triangleType */\n      0x00\n        /* \"Day-02/D2P3.sol\":709:721  uint256 area */\n      dup1\n        /* \"Day-02/D2P3.sol\":785:800  bool isTriangle */\n      0x00\n        /* \"Day-02/D2P3.sol\":812:813  c */\n      dup4\n        /* \"Day-02/D2P3.sol\":808:809  b */\n      dup6\n        /* \"Day-02/D2P3.sol\":804:805  a */\n      dup8\n        /* \"Day-02/D2P3.sol\":804:809  a + b */\n      tag_52\n      swap2\n      swap1\n      tag_23\n      jump\t// in\n    tag_52:\n        /* \"Day-02/D2P3.sol\":804:813  a + b > c */\n      gt\n        /* \"Day-02/D2P3.sol\":803:829  (a + b > c) && (a + c > b) */\n      dup1\n      iszero\n      tag_53\n      jumpi\n      pop\n        /* \"Day-02/D2P3.sol\":827:828  b */\n      dup5\n        /* \"Day-02/D2P3.sol\":823:824  c */\n      dup5\n        /* \"Day-02/D2P3.sol\":819:820  a */\n      dup8\n        /* \"Day-02/D2P3.sol\":819:824  a + c */\n      tag_54\n      swap2\n      swap1\n      tag_23\n      jump\t// in\n    tag_54:\n        /* \"Day-02/D2P3.sol\":819:828  a + c > b */\n      gt\n        /* \"Day-02/D2P3.sol\":803:829  (a + b > c) && (a + c > b) */\n    tag_53:\n        /* \"Day-02/D2P3.sol\":803:844  (a + b > c) && (a + c > b) && (b + c > a) */\n      dup1\n      iszero\n      tag_55\n      jumpi\n      pop\n        /* \"Day-02/D2P3.sol\":842:843  a */\n      dup6\n        /* \"Day-02/D2P3.sol\":838:839  c */\n      dup5\n        /* \"Day-02/D2P3.sol\":834:835  b */\n      dup7\n        /* \"Day-02/D2P3.sol\":834:839  b + c */\n      tag_56\n      swap2\n      swap1\n      tag_23\n      jump\t// in\n    tag_56:\n        /* \"Day-02/D2P3.sol\":834:843  b + c > a */\n      gt\n        /* \"Day-02/D2P3.sol\":803:844  (a + b > c) && (a + c > b) && (b + c > a) */\n    tag_55:\n        /* \"Day-02/D2P3.sol\":785:844  bool isTriangle = (a + b > c) && (a + c > b) && (b + c > a) */\n      swap1\n      pop\n        /* \"Day-02/D2P3.sol\":870:880  isTriangle */\n      dup1\n        /* \"Day-02/D2P3.sol\":865:1017  if (!isTriangle) {... */\n      tag_57\n      jumpi\n        /* \"Day-02/D2P3.sol\":902:964  TriangleAnalyzed(a, b, c, NOT_A_TRIANGLE, \"Not a Triangle\", 0) */\n      0x806c1f1f08221e96ca583b40b3f6abe5d525e8290e97f78ee8595315a5404ab6\n        /* \"Day-02/D2P3.sol\":919:920  a */\n      dup7\n        /* \"Day-02/D2P3.sol\":922:923  b */\n      dup7\n        /* \"Day-02/D2P3.sol\":925:926  c */\n      dup7\n        /* \"Day-02/D2P3.sol\":172:173  0 */\n      0x00\n        /* \"Day-02/D2P3.sol\":962:963  0 */\n      dup1\n        /* \"Day-02/D2P3.sol\":902:964  TriangleAnalyzed(a, b, c, NOT_A_TRIANGLE, \"Not a Triangle\", 0) */\n      mload(0x40)\n      tag_58\n      swap6\n      swap5\n      swap4\n      swap3\n      swap2\n      swap1\n      tag_59\n      jump\t// in\n    tag_58:\n      mload(0x40)\n      dup1\n      swap2\n      sub\n      swap1\n      log1\n        /* \"Day-02/D2P3.sol\":172:173  0 */\n      0x00\n        /* \"Day-02/D2P3.sol\":1003:1004  0 */\n      dup1\n        /* \"Day-02/D2P3.sol\":979:1005  return (NOT_A_TRIANGLE, 0) */\n      swap3\n      pop\n      swap3\n      pop\n      pop\n      jump(tag_51)\n        /* \"Day-02/D2P3.sol\":865:1017  if (!isTriangle) {... */\n    tag_57:\n        /* \"Day-02/D2P3.sol\":1082:1083  b */\n      dup5\n        /* \"Day-02/D2P3.sol\":1077:1078  a */\n      dup7\n        /* \"Day-02/D2P3.sol\":1077:1083  a == b */\n      eq\n        /* \"Day-02/D2P3.sol\":1077:1093  a == b && b == c */\n      dup1\n      iszero\n      tag_60\n      jumpi\n      pop\n        /* \"Day-02/D2P3.sol\":1092:1093  c */\n      dup4\n        /* \"Day-02/D2P3.sol\":1087:1088  b */\n      dup6\n        /* \"Day-02/D2P3.sol\":1087:1093  b == c */\n      eq\n        /* \"Day-02/D2P3.sol\":1077:1093  a == b && b == c */\n    tag_60:\n        /* \"Day-02/D2P3.sol\":1073:1665  if (a == b && b == c) {... */\n      iszero\n      tag_61\n      jumpi\n        /* \"Day-02/D2P3.sol\":277:278  3 */\n      0x03\n        /* \"Day-02/D2P3.sol\":1110:1136  triangleType = EQUILATERAL */\n      swap3\n      pop\n        /* \"Day-02/D2P3.sol\":1073:1665  if (a == b && b == c) {... */\n      jump(tag_62)\n    tag_61:\n        /* \"Day-02/D2P3.sol\":1163:1164  b */\n      dup5\n        /* \"Day-02/D2P3.sol\":1158:1159  a */\n      dup7\n        /* \"Day-02/D2P3.sol\":1158:1164  a == b */\n      eq\n        /* \"Day-02/D2P3.sol\":1158:1174  a == b || b == c */\n      dup1\n      tag_63\n      jumpi\n      pop\n        /* \"Day-02/D2P3.sol\":1173:1174  c */\n      dup4\n        /* \"Day-02/D2P3.sol\":1168:1169  b */\n      dup6\n        /* \"Day-02/D2P3.sol\":1168:1174  b == c */\n      eq\n        /* \"Day-02/D2P3.sol\":1158:1174  a == b || b == c */\n    tag_63:\n        /* \"Day-02/D2P3.sol\":1158:1184  a == b || b == c || a == c */\n      dup1\n      tag_64\n      jumpi\n      pop\n        /* \"Day-02/D2P3.sol\":1183:1184  c */\n      dup4\n        /* \"Day-02/D2P3.sol\":1178:1179  a */\n      dup7\n        /* \"Day-02/D2P3.sol\":1178:1184  a == c */\n      eq\n        /* \"Day-02/D2P3.sol\":1158:1184  a == b || b == c || a == c */\n    tag_64:\n        /* \"Day-02/D2P3.sol\":1154:1665  if (a == b || b == c || a == c) {... */\n      iszero\n      tag_65\n      jumpi\n        /* \"Day-02/D2P3.sol\":1264:1286  isRightAngled(a, b, c) */\n      tag_66\n        /* \"Day-02/D2P3.sol\":1278:1279  a */\n      dup7\n        /* \"Day-02/D2P3.sol\":1281:1282  b */\n      dup7\n        /* \"Day-02/D2P3.sol\":1284:1285  c */\n      dup7\n        /* \"Day-02/D2P3.sol\":1264:1277  isRightAngled */\n      tag_36\n        /* \"Day-02/D2P3.sol\":1264:1286  isRightAngled(a, b, c) */\n      jump\t// in\n    tag_66:\n        /* \"Day-02/D2P3.sol\":1260:1415  if (isRightAngled(a, b, c)) {... */\n      iszero\n      tag_67\n      jumpi\n        /* \"Day-02/D2P3.sol\":315:316  4 */\n      0x04\n        /* \"Day-02/D2P3.sol\":1307:1334  triangleType = RIGHT_ANGLED */\n      swap3\n      pop\n        /* \"Day-02/D2P3.sol\":1260:1415  if (isRightAngled(a, b, c)) {... */\n      jump(tag_68)\n    tag_67:\n        /* \"Day-02/D2P3.sol\":240:241  2 */\n      0x02\n        /* \"Day-02/D2P3.sol\":1375:1399  triangleType = ISOSCELES */\n      swap3\n      pop\n        /* \"Day-02/D2P3.sol\":1260:1415  if (isRightAngled(a, b, c)) {... */\n    tag_68:\n        /* \"Day-02/D2P3.sol\":1154:1665  if (a == b || b == c || a == c) {... */\n      jump(tag_69)\n    tag_65:\n        /* \"Day-02/D2P3.sol\":1505:1527  isRightAngled(a, b, c) */\n      tag_70\n        /* \"Day-02/D2P3.sol\":1519:1520  a */\n      dup7\n        /* \"Day-02/D2P3.sol\":1522:1523  b */\n      dup7\n        /* \"Day-02/D2P3.sol\":1525:1526  c */\n      dup7\n        /* \"Day-02/D2P3.sol\":1505:1518  isRightAngled */\n      tag_36\n        /* \"Day-02/D2P3.sol\":1505:1527  isRightAngled(a, b, c) */\n      jump\t// in\n    tag_70:\n        /* \"Day-02/D2P3.sol\":1501:1654  if (isRightAngled(a, b, c)) {... */\n      iszero\n      tag_71\n      jumpi\n        /* \"Day-02/D2P3.sol\":315:316  4 */\n      0x04\n        /* \"Day-02/D2P3.sol\":1548:1575  triangleType = RIGHT_ANGLED */\n      swap3\n      pop\n        /* \"Day-02/D2P3.sol\":1501:1654  if (isRightAngled(a, b, c)) {... */\n      jump(tag_72)\n    tag_71:\n        /* \"Day-02/D2P3.sol\":205:206  1 */\n      0x01\n        /* \"Day-02/D2P3.sol\":1616:1638  triangleType = SCALENE */\n      swap3\n      pop\n        /* \"Day-02/D2P3.sol\":1501:1654  if (isRightAngled(a, b, c)) {... */\n    tag_72:\n        /* \"Day-02/D2P3.sol\":1154:1665  if (a == b || b == c || a == c) {... */\n    tag_69:\n        /* \"Day-02/D2P3.sol\":1073:1665  if (a == b && b == c) {... */\n    tag_62:\n        /* \"Day-02/D2P3.sol\":1741:1763  calculateArea(a, b, c) */\n      tag_73\n        /* \"Day-02/D2P3.sol\":1755:1756  a */\n      dup7\n        /* \"Day-02/D2P3.sol\":1758:1759  b */\n      dup7\n        /* \"Day-02/D2P3.sol\":1761:1762  c */\n      dup7\n        /* \"Day-02/D2P3.sol\":1741:1754  calculateArea */\n      tag_44\n        /* \"Day-02/D2P3.sol\":1741:1763  calculateArea(a, b, c) */\n      jump\t// in\n    tag_73:\n        /* \"Day-02/D2P3.sol\":1734:1763  area = calculateArea(a, b, c) */\n      swap2\n      pop\n        /* \"Day-02/D2P3.sol\":1833:1855  string memory typeName */\n      0x00\n        /* \"Day-02/D2P3.sol\":1858:1891  getTriangleTypeName(triangleType) */\n      tag_74\n        /* \"Day-02/D2P3.sol\":1878:1890  triangleType */\n      dup5\n        /* \"Day-02/D2P3.sol\":1858:1877  getTriangleTypeName */\n      tag_75\n        /* \"Day-02/D2P3.sol\":1858:1891  getTriangleTypeName(triangleType) */\n      jump\t// in\n    tag_74:\n        /* \"Day-02/D2P3.sol\":1833:1891  string memory typeName = getTriangleTypeName(triangleType) */\n      swap1\n      pop\n        /* \"Day-02/D2P3.sol\":1953:2008  TriangleAnalyzed(a, b, c, triangleType, typeName, area) */\n      0x806c1f1f08221e96ca583b40b3f6abe5d525e8290e97f78ee8595315a5404ab6\n        /* \"Day-02/D2P3.sol\":1970:1971  a */\n      dup8\n        /* \"Day-02/D2P3.sol\":1973:1974  b */\n      dup8\n        /* \"Day-02/D2P3.sol\":1976:1977  c */\n      dup8\n        /* \"Day-02/D2P3.sol\":1979:1991  triangleType */\n      dup8\n        /* \"Day-02/D2P3.sol\":1993:2001  typeName */\n      dup6\n        /* \"Day-02/D2P3.sol\":2003:2007  area */\n      dup9\n        /* \"Day-02/D2P3.sol\":1953:2008  TriangleAnalyzed(a, b, c, triangleType, typeName, area) */\n      mload(0x40)\n      tag_76\n      swap7\n      swap6\n      swap5\n      swap4\n      swap3\n      swap2\n      swap1\n      tag_77\n      jump\t// in\n    tag_76:\n      mload(0x40)\n      dup1\n      swap2\n      sub\n      swap1\n      log1\n        /* \"Day-02/D2P3.sol\":2029:2056  return (triangleType, area) */\n      pop\n      pop\n        /* \"Day-02/D2P3.sol\":615:2064  function analyzeTriangle(uint256 a, uint256 b, uint256 c) public returns (uint8 triangleType, uint256 area) {... */\n    tag_51:\n      swap4\n      pop\n      swap4\n      swap2\n      pop\n      pop\n      jump\t// out\n        /* \"Day-02/D2P3.sol\":3529:3989  function isRightAngled(uint256 a, uint256 b, uint256 c) internal pure returns (bool) {... */\n    tag_36:\n        /* \"Day-02/D2P3.sol\":3608:3612  bool */\n      0x00\n        /* \"Day-02/D2P3.sol\":3681:3704  uint256[3] memory sides */\n      dup1\n        /* \"Day-02/D2P3.sol\":3707:3725  sortSides(a, b, c) */\n      tag_79\n        /* \"Day-02/D2P3.sol\":3717:3718  a */\n      dup6\n        /* \"Day-02/D2P3.sol\":3720:3721  b */\n      dup6\n        /* \"Day-02/D2P3.sol\":3723:3724  c */\n      dup6\n        /* \"Day-02/D2P3.sol\":3707:3716  sortSides */\n      tag_80\n        /* \"Day-02/D2P3.sol\":3707:3725  sortSides(a, b, c) */\n      jump\t// in\n    tag_79:\n        /* \"Day-02/D2P3.sol\":3681:3725  uint256[3] memory sides = sortSides(a, b, c) */\n      swap1\n      pop\n        /* \"Day-02/D2P3.sol\":3973:3978  sides */\n      dup1\n        /* \"Day-02/D2P3.sol\":3979:3980  2 */\n      0x02\n        /* \"Day-02/D2P3.sol\":3973:3981  sides[2] */\n      0x03\n      dup2\n      lt\n      tag_81\n      jumpi\n      tag_82\n      tag_83\n      jump\t// in\n    tag_82:\n    tag_81:\n      0x20\n      mul\n      add\n      mload\n        /* \"Day-02/D2P3.sol\":3962:3967  sides */\n      dup2\n        /* \"Day-02/D2P3.sol\":3968:3969  2 */\n      0x02\n        /* \"Day-02/D2P3.sol\":3962:3970  sides[2] */\n      0x03\n      dup2\n      lt\n      tag_84\n      jumpi\n      tag_85\n      tag_83\n      jump\t// in\n    tag_85:\n    tag_84:\n      0x20\n      mul\n      add\n      mload\n        /* \"Day-02/D2P3.sol\":3962:3981  sides[2] * sides[2] */\n      tag_86\n      swap2\n      swap1\n      tag_87\n      jump\t// in\n    tag_86:\n        /* \"Day-02/D2P3.sol\":3950:3955  sides */\n      dup2\n        /* \"Day-02/D2P3.sol\":3956:3957  1 */\n      0x01\n        /* \"Day-02/D2P3.sol\":3950:3958  sides[1] */\n      0x03\n      dup2\n      lt\n      tag_88\n      jumpi\n      tag_89\n      tag_83\n      jump\t// in\n    tag_89:\n    tag_88:\n      0x20\n      mul\n      add\n      mload\n        /* \"Day-02/D2P3.sol\":3939:3944  sides */\n      dup3\n        /* \"Day-02/D2P3.sol\":3945:3946  1 */\n      0x01\n        /* \"Day-02/D2P3.sol\":3939:3947  sides[1] */\n      0x03\n      dup2\n      lt\n      tag_90\n      jumpi\n      tag_91\n      tag_83\n      jump\t// in\n    tag_91:\n    tag_90:\n      0x20\n      mul\n      add\n      mload\n        /* \"Day-02/D2P3.sol\":3939:3958  sides[1] * sides[1] */\n      tag_92\n      swap2\n      swap1\n      tag_87\n      jump\t// in\n    tag_92:\n        /* \"Day-02/D2P3.sol\":3928:3933  sides */\n      dup3\n        /* \"Day-02/D2P3.sol\":3934:3935  0 */\n      0x00\n        /* \"Day-02/D2P3.sol\":3928:3936  sides[0] */\n      0x03\n      dup2\n      lt\n      tag_93\n      jumpi\n      tag_94\n      tag_83\n      jump\t// in\n    tag_94:\n    tag_93:\n      0x20\n      mul\n      add\n      mload\n        /* \"Day-02/D2P3.sol\":3917:3922  sides */\n      dup4\n        /* \"Day-02/D2P3.sol\":3923:3924  0 */\n      0x00\n        /* \"Day-02/D2P3.sol\":3917:3925  sides[0] */\n      0x03\n      dup2\n      lt\n      tag_95\n      jumpi\n      tag_96\n      tag_83\n      jump\t// in\n    tag_96:\n    tag_95:\n      0x20\n      mul\n      add\n      mload\n        /* \"Day-02/D2P3.sol\":3917:3936  sides[0] * sides[0] */\n      tag_97\n      swap2\n      swap1\n      tag_87\n      jump\t// in\n    tag_97:\n        /* \"Day-02/D2P3.sol\":3917:3958  sides[0] * sides[0] + sides[1] * sides[1] */\n      tag_98\n      swap2\n      swap1\n      tag_23\n      jump\t// in\n    tag_98:\n        /* \"Day-02/D2P3.sol\":3917:3981  sides[0] * sides[0] + sides[1] * sides[1] == sides[2] * sides[2] */\n      eq\n        /* \"Day-02/D2P3.sol\":3910:3981  return sides[0] * sides[0] + sides[1] * sides[1] == sides[2] * sides[2] */\n      swap2\n      pop\n      pop\n        /* \"Day-02/D2P3.sol\":3529:3989  function isRightAngled(uint256 a, uint256 b, uint256 c) internal pure returns (bool) {... */\n      swap4\n      swap3\n      pop\n      pop\n      pop\n      jump\t// out\n        /* \"Day-02/D2P3.sol\":4733:5357  function calculateArea(uint256 a, uint256 b, uint256 c) internal pure returns (uint256) {... */\n    tag_44:\n        /* \"Day-02/D2P3.sol\":4812:4819  uint256 */\n      0x00\n        /* \"Day-02/D2P3.sol\":4869:4878  uint256 s */\n      dup1\n        /* \"Day-02/D2P3.sol\":4895:4896  2 */\n      0x02\n        /* \"Day-02/D2P3.sol\":4890:4891  c */\n      dup4\n        /* \"Day-02/D2P3.sol\":4886:4887  b */\n      dup6\n        /* \"Day-02/D2P3.sol\":4882:4883  a */\n      dup8\n        /* \"Day-02/D2P3.sol\":4882:4887  a + b */\n      tag_100\n      swap2\n      swap1\n      tag_23\n      jump\t// in\n    tag_100:\n        /* \"Day-02/D2P3.sol\":4882:4891  a + b + c */\n      tag_101\n      swap2\n      swap1\n      tag_23\n      jump\t// in\n    tag_101:\n        /* \"Day-02/D2P3.sol\":4881:4896  (a + b + c) / 2 */\n      tag_102\n      swap2\n      swap1\n      tag_103\n      jump\t// in\n    tag_102:\n        /* \"Day-02/D2P3.sol\":4869:4896  uint256 s = (a + b + c) / 2 */\n      swap1\n      pop\n        /* \"Day-02/D2P3.sol\":5129:5148  uint256 squaredArea */\n      0x00\n        /* \"Day-02/D2P3.sol\":5180:5181  c */\n      dup4\n        /* \"Day-02/D2P3.sol\":5176:5177  s */\n      dup3\n        /* \"Day-02/D2P3.sol\":5176:5181  s - c */\n      tag_104\n      swap2\n      swap1\n      tag_105\n      jump\t// in\n    tag_104:\n        /* \"Day-02/D2P3.sol\":5170:5171  b */\n      dup6\n        /* \"Day-02/D2P3.sol\":5166:5167  s */\n      dup4\n        /* \"Day-02/D2P3.sol\":5166:5171  s - b */\n      tag_106\n      swap2\n      swap1\n      tag_105\n      jump\t// in\n    tag_106:\n        /* \"Day-02/D2P3.sol\":5160:5161  a */\n      dup8\n        /* \"Day-02/D2P3.sol\":5156:5157  s */\n      dup5\n        /* \"Day-02/D2P3.sol\":5156:5161  s - a */\n      tag_107\n      swap2\n      swap1\n      tag_105\n      jump\t// in\n    tag_107:\n        /* \"Day-02/D2P3.sol\":5151:5152  s */\n      dup5\n        /* \"Day-02/D2P3.sol\":5151:5162  s * (s - a) */\n      tag_108\n      swap2\n      swap1\n      tag_87\n      jump\t// in\n    tag_108:\n        /* \"Day-02/D2P3.sol\":5151:5172  s * (s - a) * (s - b) */\n      tag_109\n      swap2\n      swap1\n      tag_87\n      jump\t// in\n    tag_109:\n        /* \"Day-02/D2P3.sol\":5151:5182  s * (s - a) * (s - b) * (s - c) */\n      tag_110\n      swap2\n      swap1\n      tag_87\n      jump\t// in\n    tag_110:\n        /* \"Day-02/D2P3.sol\":5129:5182  uint256 squaredArea = s * (s - a) * (s - b) * (s - c) */\n      swap1\n      pop\n        /* \"Day-02/D2P3.sol\":5285:5297  uint256 area */\n      0x00\n        /* \"Day-02/D2P3.sol\":5300:5317  sqrt(squaredArea) */\n      tag_111\n        /* \"Day-02/D2P3.sol\":5305:5316  squaredArea */\n      dup3\n        /* \"Day-02/D2P3.sol\":5300:5304  sqrt */\n      tag_112\n        /* \"Day-02/D2P3.sol\":5300:5317  sqrt(squaredArea) */\n      jump\t// in\n    tag_111:\n        /* \"Day-02/D2P3.sol\":5285:5317  uint256 area = sqrt(squaredArea) */\n      swap1\n      pop\n        /* \"Day-02/D2P3.sol\":5345:5349  area */\n      dup1\n        /* \"Day-02/D2P3.sol\":5338:5349  return area */\n      swap4\n      pop\n      pop\n      pop\n      pop\n        /* \"Day-02/D2P3.sol\":4733:5357  function calculateArea(uint256 a, uint256 b, uint256 c) internal pure returns (uint256) {... */\n      swap4\n      swap3\n      pop\n      pop\n      pop\n      jump\t// out\n        /* \"Day-02/D2P3.sol\":5423:5861  function getTriangleTypeName(uint8 triangleType) internal pure returns (string memory) {... */\n    tag_75:\n        /* \"Day-02/D2P3.sol\":5495:5508  string memory */\n      0x60\n        /* \"Day-02/D2P3.sol\":172:173  0 */\n      0x00\n        /* \"Day-02/D2P3.sol\":5525:5555  triangleType == NOT_A_TRIANGLE */\n      0xff\n      and\n        /* \"Day-02/D2P3.sol\":5525:5537  triangleType */\n      dup3\n        /* \"Day-02/D2P3.sol\":5525:5555  triangleType == NOT_A_TRIANGLE */\n      0xff\n      and\n      sub\n        /* \"Day-02/D2P3.sol\":5521:5580  if (triangleType == NOT_A_TRIANGLE) return \"Not a Triangle\" */\n      tag_114\n      jumpi\n        /* \"Day-02/D2P3.sol\":5557:5580  return \"Not a Triangle\" */\n      mload(0x40)\n      dup1\n      0x40\n      add\n      0x40\n      mstore\n      dup1\n      0x0e\n      dup2\n      mstore\n      0x20\n      add\n      0x4e6f74206120547269616e676c65000000000000000000000000000000000000\n      dup2\n      mstore\n      pop\n      swap1\n      pop\n      jump(tag_113)\n        /* \"Day-02/D2P3.sol\":5521:5580  if (triangleType == NOT_A_TRIANGLE) return \"Not a Triangle\" */\n    tag_114:\n        /* \"Day-02/D2P3.sol\":205:206  1 */\n      0x01\n        /* \"Day-02/D2P3.sol\":5595:5618  triangleType == SCALENE */\n      0xff\n      and\n        /* \"Day-02/D2P3.sol\":5595:5607  triangleType */\n      dup3\n        /* \"Day-02/D2P3.sol\":5595:5618  triangleType == SCALENE */\n      0xff\n      and\n      sub\n        /* \"Day-02/D2P3.sol\":5591:5636  if (triangleType == SCALENE) return \"Scalene\" */\n      tag_115\n      jumpi\n        /* \"Day-02/D2P3.sol\":5620:5636  return \"Scalene\" */\n      mload(0x40)\n      dup1\n      0x40\n      add\n      0x40\n      mstore\n      dup1\n      0x07\n      dup2\n      mstore\n      0x20\n      add\n      0x5363616c656e6500000000000000000000000000000000000000000000000000\n      dup2\n      mstore\n      pop\n      swap1\n      pop\n      jump(tag_113)\n        /* \"Day-02/D2P3.sol\":5591:5636  if (triangleType == SCALENE) return \"Scalene\" */\n    tag_115:\n        /* \"Day-02/D2P3.sol\":240:241  2 */\n      0x02\n        /* \"Day-02/D2P3.sol\":5651:5676  triangleType == ISOSCELES */\n      0xff\n      and\n        /* \"Day-02/D2P3.sol\":5651:5663  triangleType */\n      dup3\n        /* \"Day-02/D2P3.sol\":5651:5676  triangleType == ISOSCELES */\n      0xff\n      and\n      sub\n        /* \"Day-02/D2P3.sol\":5647:5696  if (triangleType == ISOSCELES) return \"Isosceles\" */\n      tag_116\n      jumpi\n        /* \"Day-02/D2P3.sol\":5678:5696  return \"Isosceles\" */\n      mload(0x40)\n      dup1\n      0x40\n      add\n      0x40\n      mstore\n      dup1\n      0x09\n      dup2\n      mstore\n      0x20\n      add\n      0x49736f7363656c65730000000000000000000000000000000000000000000000\n      dup2\n      mstore\n      pop\n      swap1\n      pop\n      jump(tag_113)\n        /* \"Day-02/D2P3.sol\":5647:5696  if (triangleType == ISOSCELES) return \"Isosceles\" */\n    tag_116:\n        /* \"Day-02/D2P3.sol\":277:278  3 */\n      0x03\n        /* \"Day-02/D2P3.sol\":5711:5738  triangleType == EQUILATERAL */\n      0xff\n      and\n        /* \"Day-02/D2P3.sol\":5711:5723  triangleType */\n      dup3\n        /* \"Day-02/D2P3.sol\":5711:5738  triangleType == EQUILATERAL */\n      0xff\n      and\n      sub\n        /* \"Day-02/D2P3.sol\":5707:5760  if (triangleType == EQUILATERAL) return \"Equilateral\" */\n      tag_117\n      jumpi\n        /* \"Day-02/D2P3.sol\":5740:5760  return \"Equilateral\" */\n      mload(0x40)\n      dup1\n      0x40\n      add\n      0x40\n      mstore\n      dup1\n      0x0b\n      dup2\n      mstore\n      0x20\n      add\n      0x457175696c61746572616c000000000000000000000000000000000000000000\n      dup2\n      mstore\n      pop\n      swap1\n      pop\n      jump(tag_113)\n        /* \"Day-02/D2P3.sol\":5707:5760  if (triangleType == EQUILATERAL) return \"Equilateral\" */\n    tag_117:\n        /* \"Day-02/D2P3.sol\":315:316  4 */\n      0x04\n        /* \"Day-02/D2P3.sol\":5775:5803  triangleType == RIGHT_ANGLED */\n      0xff\n      and\n        /* \"Day-02/D2P3.sol\":5775:5787  triangleType */\n      dup3\n        /* \"Day-02/D2P3.sol\":5775:5803  triangleType == RIGHT_ANGLED */\n      0xff\n      and\n      sub\n        /* \"Day-02/D2P3.sol\":5771:5826  if (triangleType == RIGHT_ANGLED) return \"Right-angled\" */\n      tag_118\n      jumpi\n        /* \"Day-02/D2P3.sol\":5805:5826  return \"Right-angled\" */\n      mload(0x40)\n      dup1\n      0x40\n      add\n      0x40\n      mstore\n      dup1\n      0x0c\n      dup2\n      mstore\n      0x20\n      add\n      0x52696768742d616e676c65640000000000000000000000000000000000000000\n      dup2\n      mstore\n      pop\n      swap1\n      pop\n      jump(tag_113)\n        /* \"Day-02/D2P3.sol\":5771:5826  if (triangleType == RIGHT_ANGLED) return \"Right-angled\" */\n    tag_118:\n        /* \"Day-02/D2P3.sol\":5837:5853  return \"Unknown\" */\n      mload(0x40)\n      dup1\n      0x40\n      add\n      0x40\n      mstore\n      dup1\n      0x07\n      dup2\n      mstore\n      0x20\n      add\n      0x556e6b6e6f776e00000000000000000000000000000000000000000000000000\n      dup2\n      mstore\n      pop\n      swap1\n      pop\n        /* \"Day-02/D2P3.sol\":5423:5861  function getTriangleTypeName(uint8 triangleType) internal pure returns (string memory) {... */\n    tag_113:\n      swap2\n      swap1\n      pop\n      jump\t// out\n        /* \"Day-02/D2P3.sol\":4063:4657  function sortSides(uint256 a, uint256 b, uint256 c) internal pure returns (uint256[3] memory) {... */\n    tag_80:\n        /* \"Day-02/D2P3.sol\":4138:4155  uint256[3] memory */\n      tag_119\n      tag_120\n      jump\t// in\n    tag_119:\n        /* \"Day-02/D2P3.sol\":4168:4191  uint256[3] memory sides */\n      tag_122\n      tag_120\n      jump\t// in\n    tag_122:\n        /* \"Day-02/D2P3.sol\":4213:4214  a */\n      dup5\n        /* \"Day-02/D2P3.sol\":4202:4207  sides */\n      dup2\n        /* \"Day-02/D2P3.sol\":4208:4209  0 */\n      0x00\n        /* \"Day-02/D2P3.sol\":4202:4210  sides[0] */\n      0x03\n      dup2\n      lt\n      tag_123\n      jumpi\n      tag_124\n      tag_83\n      jump\t// in\n    tag_124:\n    tag_123:\n      0x20\n      mul\n      add\n        /* \"Day-02/D2P3.sol\":4202:4214  sides[0] = a */\n      dup2\n      dup2\n      mstore\n      pop\n      pop\n        /* \"Day-02/D2P3.sol\":4236:4237  b */\n      dup4\n        /* \"Day-02/D2P3.sol\":4225:4230  sides */\n      dup2\n        /* \"Day-02/D2P3.sol\":4231:4232  1 */\n      0x01\n        /* \"Day-02/D2P3.sol\":4225:4233  sides[1] */\n      0x03\n      dup2\n      lt\n      tag_125\n      jumpi\n      tag_126\n      tag_83\n      jump\t// in\n    tag_126:\n    tag_125:\n      0x20\n      mul\n      add\n        /* \"Day-02/D2P3.sol\":4225:4237  sides[1] = b */\n      dup2\n      dup2\n      mstore\n      pop\n      pop\n        /* \"Day-02/D2P3.sol\":4259:4260  c */\n      dup3\n        /* \"Day-02/D2P3.sol\":4248:4253  sides */\n      dup2\n        /* \"Day-02/D2P3.sol\":4254:4255  2 */\n      0x02\n        /* \"Day-02/D2P3.sol\":4248:4256  sides[2] */\n      0x03\n      dup2\n      lt\n      tag_127\n      jumpi\n      tag_128\n      tag_83\n      jump\t// in\n    tag_128:\n    tag_127:\n      0x20\n      mul\n      add\n        /* \"Day-02/D2P3.sol\":4248:4260  sides[2] = c */\n      dup2\n      dup2\n      mstore\n      pop\n      pop\n        /* \"Day-02/D2P3.sol\":4327:4332  sides */\n      dup1\n        /* \"Day-02/D2P3.sol\":4333:4334  1 */\n      0x01\n        /* \"Day-02/D2P3.sol\":4327:4335  sides[1] */\n      0x03\n      dup2\n      lt\n      tag_129\n      jumpi\n      tag_130\n      tag_83\n      jump\t// in\n    tag_130:\n    tag_129:\n      0x20\n      mul\n      add\n      mload\n        /* \"Day-02/D2P3.sol\":4316:4321  sides */\n      dup2\n        /* \"Day-02/D2P3.sol\":4322:4323  0 */\n      0x00\n        /* \"Day-02/D2P3.sol\":4316:4324  sides[0] */\n      0x03\n      dup2\n      lt\n      tag_131\n      jumpi\n      tag_132\n      tag_83\n      jump\t// in\n    tag_132:\n    tag_131:\n      0x20\n      mul\n      add\n      mload\n        /* \"Day-02/D2P3.sol\":4316:4335  sides[0] > sides[1] */\n      gt\n        /* \"Day-02/D2P3.sol\":4312:4407  if (sides[0] > sides[1]) {... */\n      iszero\n      tag_133\n      jumpi\n        /* \"Day-02/D2P3.sol\":4376:4381  sides */\n      dup1\n        /* \"Day-02/D2P3.sol\":4382:4383  1 */\n      0x01\n        /* \"Day-02/D2P3.sol\":4376:4384  sides[1] */\n      0x03\n      dup2\n      lt\n      tag_134\n      jumpi\n      tag_135\n      tag_83\n      jump\t// in\n    tag_135:\n    tag_134:\n      0x20\n      mul\n      add\n      mload\n        /* \"Day-02/D2P3.sol\":4386:4391  sides */\n      dup2\n        /* \"Day-02/D2P3.sol\":4392:4393  0 */\n      0x00\n        /* \"Day-02/D2P3.sol\":4386:4394  sides[0] */\n      0x03\n      dup2\n      lt\n      tag_136\n      jumpi\n      tag_137\n      tag_83\n      jump\t// in\n    tag_137:\n    tag_136:\n      0x20\n      mul\n      add\n      mload\n        /* \"Day-02/D2P3.sol\":4353:4358  sides */\n      dup3\n        /* \"Day-02/D2P3.sol\":4359:4360  0 */\n      0x00\n        /* \"Day-02/D2P3.sol\":4353:4361  sides[0] */\n      0x03\n      dup2\n      lt\n      tag_138\n      jumpi\n      tag_139\n      tag_83\n      jump\t// in\n    tag_139:\n    tag_138:\n      0x20\n      mul\n      add\n        /* \"Day-02/D2P3.sol\":4363:4368  sides */\n      dup4\n        /* \"Day-02/D2P3.sol\":4369:4370  1 */\n      0x01\n        /* \"Day-02/D2P3.sol\":4363:4371  sides[1] */\n      0x03\n      dup2\n      lt\n      tag_140\n      jumpi\n      tag_141\n      tag_83\n      jump\t// in\n    tag_141:\n    tag_140:\n      0x20\n      mul\n      add\n        /* \"Day-02/D2P3.sol\":4352:4395  (sides[0], sides[1]) = (sides[1], sides[0]) */\n      dup3\n      dup2\n      mstore\n      pop\n      dup3\n      dup2\n      mstore\n      pop\n      pop\n      pop\n        /* \"Day-02/D2P3.sol\":4312:4407  if (sides[0] > sides[1]) {... */\n    tag_133:\n        /* \"Day-02/D2P3.sol\":4432:4437  sides */\n      dup1\n        /* \"Day-02/D2P3.sol\":4438:4439  2 */\n      0x02\n        /* \"Day-02/D2P3.sol\":4432:4440  sides[2] */\n      0x03\n      dup2\n      lt\n      tag_142\n      jumpi\n      tag_143\n      tag_83\n      jump\t// in\n    tag_143:\n    tag_142:\n      0x20\n      mul\n      add\n      mload\n        /* \"Day-02/D2P3.sol\":4421:4426  sides */\n      dup2\n        /* \"Day-02/D2P3.sol\":4427:4428  1 */\n      0x01\n        /* \"Day-02/D2P3.sol\":4421:4429  sides[1] */\n      0x03\n      dup2\n      lt\n      tag_144\n      jumpi\n      tag_145\n      tag_83\n      jump\t// in\n    tag_145:\n    tag_144:\n      0x20\n      mul\n      add\n      mload\n        /* \"Day-02/D2P3.sol\":4421:4440  sides[1] > sides[2] */\n      gt\n        /* \"Day-02/D2P3.sol\":4417:4512  if (sides[1] > sides[2]) {... */\n      iszero\n      tag_146\n      jumpi\n        /* \"Day-02/D2P3.sol\":4481:4486  sides */\n      dup1\n        /* \"Day-02/D2P3.sol\":4487:4488  2 */\n      0x02\n        /* \"Day-02/D2P3.sol\":4481:4489  sides[2] */\n      0x03\n      dup2\n      lt\n      tag_147\n      jumpi\n      tag_148\n      tag_83\n      jump\t// in\n    tag_148:\n    tag_147:\n      0x20\n      mul\n      add\n      mload\n        /* \"Day-02/D2P3.sol\":4491:4496  sides */\n      dup2\n        /* \"Day-02/D2P3.sol\":4497:4498  1 */\n      0x01\n        /* \"Day-02/D2P3.sol\":4491:4499  sides[1] */\n      0x03\n      dup2\n      lt\n      tag_149\n      jumpi\n      tag_150\n      tag_83\n      jump\t// in\n    tag_150:\n    tag_149:\n      0x20\n      mul\n      add\n      mload\n        /* \"Day-02/D2P3.sol\":4458:4463  sides */\n      dup3\n        /* \"Day-02/D2P3.sol\":4464:4465  1 */\n      0x01\n        /* \"Day-02/D2P3.sol\":4458:4466  sides[1] */\n      0x03\n      dup2\n      lt\n      tag_151\n      jumpi\n      tag_152\n      tag_83\n      jump\t// in\n    tag_152:\n    tag_151:\n      0x20\n      mul\n      add\n        /* \"Day-02/D2P3.sol\":4468:4473  sides */\n      dup4\n        /* \"Day-02/D2P3.sol\":4474:4475  2 */\n      0x02\n        /* \"Day-02/D2P3.sol\":4468:4476  sides[2] */\n      0x03\n      dup2\n      lt\n      tag_153\n      jumpi\n      tag_154\n      tag_83\n      jump\t// in\n    tag_154:\n    tag_153:\n      0x20\n      mul\n      add\n        /* \"Day-02/D2P3.sol\":4457:4500  (sides[1], sides[2]) = (sides[2], sides[1]) */\n      dup3\n      dup2\n      mstore\n      pop\n      dup3\n      dup2\n      mstore\n      pop\n      pop\n      pop\n        /* \"Day-02/D2P3.sol\":4417:4512  if (sides[1] > sides[2]) {... */\n    tag_146:\n        /* \"Day-02/D2P3.sol\":4537:4542  sides */\n      dup1\n        /* \"Day-02/D2P3.sol\":4543:4544  1 */\n      0x01\n        /* \"Day-02/D2P3.sol\":4537:4545  sides[1] */\n      0x03\n      dup2\n      lt\n      tag_155\n      jumpi\n      tag_156\n      tag_83\n      jump\t// in\n    tag_156:\n    tag_155:\n      0x20\n      mul\n      add\n      mload\n        /* \"Day-02/D2P3.sol\":4526:4531  sides */\n      dup2\n        /* \"Day-02/D2P3.sol\":4532:4533  0 */\n      0x00\n        /* \"Day-02/D2P3.sol\":4526:4534  sides[0] */\n      0x03\n      dup2\n      lt\n      tag_157\n      jumpi\n      tag_158\n      tag_83\n      jump\t// in\n    tag_158:\n    tag_157:\n      0x20\n      mul\n      add\n      mload\n        /* \"Day-02/D2P3.sol\":4526:4545  sides[0] > sides[1] */\n      gt\n        /* \"Day-02/D2P3.sol\":4522:4617  if (sides[0] > sides[1]) {... */\n      iszero\n      tag_159\n      jumpi\n        /* \"Day-02/D2P3.sol\":4586:4591  sides */\n      dup1\n        /* \"Day-02/D2P3.sol\":4592:4593  1 */\n      0x01\n        /* \"Day-02/D2P3.sol\":4586:4594  sides[1] */\n      0x03\n      dup2\n      lt\n      tag_160\n      jumpi\n      tag_161\n      tag_83\n      jump\t// in\n    tag_161:\n    tag_160:\n      0x20\n      mul\n      add\n      mload\n        /* \"Day-02/D2P3.sol\":4596:4601  sides */\n      dup2\n        /* \"Day-02/D2P3.sol\":4602:4603  0 */\n      0x00\n        /* \"Day-02/D2P3.sol\":4596:4604  sides[0] */\n      0x03\n      dup2\n      lt\n      tag_162\n      jumpi\n      tag_163\n      tag_83\n      jump\t// in\n    tag_163:\n    tag_162:\n      0x20\n      mul\n      add\n      mload\n        /* \"Day-02/D2P3.sol\":4563:4568  sides */\n      dup3\n        /* \"Day-02/D2P3.sol\":4569:4570  0 */\n      0x00\n        /* \"Day-02/D2P3.sol\":4563:4571  sides[0] */\n      0x03\n      dup2\n      lt\n      tag_164\n      jumpi\n      tag_165\n      tag_83\n      jump\t// in\n    tag_165:\n    tag_164:\n      0x20\n      mul\n      add\n        /* \"Day-02/D2P3.sol\":4573:4578  sides */\n      dup4\n        /* \"Day-02/D2P3.sol\":4579:4580  1 */\n      0x01\n        /* \"Day-02/D2P3.sol\":4573:4581  sides[1] */\n      0x03\n      dup2\n      lt\n      tag_166\n      jumpi\n      tag_167\n      tag_83\n      jump\t// in\n    tag_167:\n    tag_166:\n      0x20\n      mul\n      add\n        /* \"Day-02/D2P3.sol\":4562:4605  (sides[0], sides[1]) = (sides[1], sides[0]) */\n      dup3\n      dup2\n      mstore\n      pop\n      dup3\n      dup2\n      mstore\n      pop\n      pop\n      pop\n        /* \"Day-02/D2P3.sol\":4522:4617  if (sides[0] > sides[1]) {... */\n    tag_159:\n        /* \"Day-02/D2P3.sol\":4644:4649  sides */\n      dup1\n        /* \"Day-02/D2P3.sol\":4637:4649  return sides */\n      swap2\n      pop\n      pop\n        /* \"Day-02/D2P3.sol\":4063:4657  function sortSides(uint256 a, uint256 b, uint256 c) internal pure returns (uint256[3] memory) {... */\n      swap4\n      swap3\n      pop\n      pop\n      pop\n      jump\t// out\n        /* \"Day-02/D2P3.sol\":5922:6302  function sqrt(uint256 x) internal pure returns (uint256) {... */\n    tag_112:\n        /* \"Day-02/D2P3.sol\":5970:5977  uint256 */\n      0x00\n        /* \"Day-02/D2P3.sol\":5999:6000  0 */\n      dup1\n        /* \"Day-02/D2P3.sol\":5994:5995  x */\n      dup3\n        /* \"Day-02/D2P3.sol\":5994:6000  x == 0 */\n      sub\n        /* \"Day-02/D2P3.sol\":5990:6010  if (x == 0) return 0 */\n      tag_169\n      jumpi\n        /* \"Day-02/D2P3.sol\":6009:6010  0 */\n      0x00\n        /* \"Day-02/D2P3.sol\":6002:6010  return 0 */\n      swap1\n      pop\n      jump(tag_168)\n        /* \"Day-02/D2P3.sol\":5990:6010  if (x == 0) return 0 */\n    tag_169:\n        /* \"Day-02/D2P3.sol\":6060:6069  uint256 z */\n      0x00\n        /* \"Day-02/D2P3.sol\":6082:6083  2 */\n      0x02\n        /* \"Day-02/D2P3.sol\":6077:6078  1 */\n      0x01\n        /* \"Day-02/D2P3.sol\":6073:6074  x */\n      dup5\n        /* \"Day-02/D2P3.sol\":6073:6078  x + 1 */\n      tag_170\n      swap2\n      swap1\n      tag_23\n      jump\t// in\n    tag_170:\n        /* \"Day-02/D2P3.sol\":6072:6083  (x + 1) / 2 */\n      tag_171\n      swap2\n      swap1\n      tag_103\n      jump\t// in\n    tag_171:\n        /* \"Day-02/D2P3.sol\":6060:6083  uint256 z = (x + 1) / 2 */\n      swap1\n      pop\n        /* \"Day-02/D2P3.sol\":6094:6103  uint256 y */\n      0x00\n        /* \"Day-02/D2P3.sol\":6106:6107  x */\n      dup4\n        /* \"Day-02/D2P3.sol\":6094:6107  uint256 y = x */\n      swap1\n      pop\n        /* \"Day-02/D2P3.sol\":6186:6266  while (z < y) {... */\n    tag_172:\n        /* \"Day-02/D2P3.sol\":6197:6198  y */\n      dup1\n        /* \"Day-02/D2P3.sol\":6193:6194  z */\n      dup3\n        /* \"Day-02/D2P3.sol\":6193:6198  z < y */\n      lt\n        /* \"Day-02/D2P3.sol\":6186:6266  while (z < y) {... */\n      iszero\n      tag_173\n      jumpi\n        /* \"Day-02/D2P3.sol\":6219:6220  z */\n      dup2\n        /* \"Day-02/D2P3.sol\":6215:6220  y = z */\n      swap1\n      pop\n        /* \"Day-02/D2P3.sol\":6253:6254  2 */\n      0x02\n        /* \"Day-02/D2P3.sol\":6248:6249  z */\n      dup3\n        /* \"Day-02/D2P3.sol\":6244:6245  z */\n      dup4\n        /* \"Day-02/D2P3.sol\":6240:6241  x */\n      dup7\n        /* \"Day-02/D2P3.sol\":6240:6245  x / z */\n      tag_174\n      swap2\n      swap1\n      tag_103\n      jump\t// in\n    tag_174:\n        /* \"Day-02/D2P3.sol\":6240:6249  x / z + z */\n      tag_175\n      swap2\n      swap1\n      tag_23\n      jump\t// in\n    tag_175:\n        /* \"Day-02/D2P3.sol\":6239:6254  (x / z + z) / 2 */\n      tag_176\n      swap2\n      swap1\n      tag_103\n      jump\t// in\n    tag_176:\n        /* \"Day-02/D2P3.sol\":6235:6254  z = (x / z + z) / 2 */\n      swap2\n      pop\n        /* \"Day-02/D2P3.sol\":6186:6266  while (z < y) {... */\n      jump(tag_172)\n    tag_173:\n        /* \"Day-02/D2P3.sol\":6293:6294  y */\n      dup1\n        /* \"Day-02/D2P3.sol\":6286:6294  return y */\n      swap3\n      pop\n      pop\n      pop\n        /* \"Day-02/D2P3.sol\":5922:6302  function sqrt(uint256 x) internal pure returns (uint256) {... */\n    tag_168:\n      swap2\n      swap1\n      pop\n      jump\t// out\n    tag_120:\n      mload(0x40)\n      dup1\n      0x60\n      add\n      0x40\n      mstore\n      dup1\n      0x03\n      swap1\n      0x20\n      dup3\n      mul\n      dup1\n      calldatasize\n      dup4\n      calldatacopy\n      dup1\n      dup3\n      add\n      swap2\n      pop\n      pop\n      swap1\n      pop\n      pop\n      swap1\n      jump\t// out\n        /* \"#utility.yul\":88:205   */\n    tag_178:\n        /* \"#utility.yul\":197:198   */\n      0x00\n        /* \"#utility.yul\":194:195   */\n      dup1\n        /* \"#utility.yul\":187:199   */\n      revert\n        /* \"#utility.yul\":334:411   */\n    tag_180:\n        /* \"#utility.yul\":371:378   */\n      0x00\n        /* \"#utility.yul\":400:405   */\n      dup2\n        /* \"#utility.yul\":389:405   */\n      swap1\n      pop\n        /* \"#utility.yul\":334:411   */\n      swap2\n      swap1\n      pop\n      jump\t// out\n        /* \"#utility.yul\":417:539   */\n    tag_181:\n        /* \"#utility.yul\":490:514   */\n      tag_207\n        /* \"#utility.yul\":508:513   */\n      dup2\n        /* \"#utility.yul\":490:514   */\n      tag_180\n      jump\t// in\n    tag_207:\n        /* \"#utility.yul\":483:488   */\n      dup2\n        /* \"#utility.yul\":480:515   */\n      eq\n        /* \"#utility.yul\":470:533   */\n      tag_208\n      jumpi\n        /* \"#utility.yul\":529:530   */\n      0x00\n        /* \"#utility.yul\":526:527   */\n      dup1\n        /* \"#utility.yul\":519:531   */\n      revert\n        /* \"#utility.yul\":470:533   */\n    tag_208:\n        /* \"#utility.yul\":417:539   */\n      pop\n      jump\t// out\n        /* \"#utility.yul\":545:684   */\n    tag_182:\n        /* \"#utility.yul\":591:596   */\n      0x00\n        /* \"#utility.yul\":629:635   */\n      dup2\n        /* \"#utility.yul\":616:636   */\n      calldataload\n        /* \"#utility.yul\":607:636   */\n      swap1\n      pop\n        /* \"#utility.yul\":645:678   */\n      tag_210\n        /* \"#utility.yul\":672:677   */\n      dup2\n        /* \"#utility.yul\":645:678   */\n      tag_181\n      jump\t// in\n    tag_210:\n        /* \"#utility.yul\":545:684   */\n      swap3\n      swap2\n      pop\n      pop\n      jump\t// out\n        /* \"#utility.yul\":690:1309   */\n    tag_8:\n        /* \"#utility.yul\":767:773   */\n      0x00\n        /* \"#utility.yul\":775:781   */\n      dup1\n        /* \"#utility.yul\":783:789   */\n      0x00\n        /* \"#utility.yul\":832:834   */\n      0x60\n        /* \"#utility.yul\":820:829   */\n      dup5\n        /* \"#utility.yul\":811:818   */\n      dup7\n        /* \"#utility.yul\":807:830   */\n      sub\n        /* \"#utility.yul\":803:835   */\n      slt\n        /* \"#utility.yul\":800:919   */\n      iszero\n      tag_212\n      jumpi\n        /* \"#utility.yul\":838:917   */\n      tag_213\n      tag_178\n      jump\t// in\n    tag_213:\n        /* \"#utility.yul\":800:919   */\n    tag_212:\n        /* \"#utility.yul\":958:959   */\n      0x00\n        /* \"#utility.yul\":983:1036   */\n      tag_214\n        /* \"#utility.yul\":1028:1035   */\n      dup7\n        /* \"#utility.yul\":1019:1025   */\n      dup3\n        /* \"#utility.yul\":1008:1017   */\n      dup8\n        /* \"#utility.yul\":1004:1026   */\n      add\n        /* \"#utility.yul\":983:1036   */\n      tag_182\n      jump\t// in\n    tag_214:\n        /* \"#utility.yul\":973:1036   */\n      swap4\n      pop\n        /* \"#utility.yul\":929:1046   */\n      pop\n        /* \"#utility.yul\":1085:1087   */\n      0x20\n        /* \"#utility.yul\":1111:1164   */\n      tag_215\n        /* \"#utility.yul\":1156:1163   */\n      dup7\n        /* \"#utility.yul\":1147:1153   */\n      dup3\n        /* \"#utility.yul\":1136:1145   */\n      dup8\n        /* \"#utility.yul\":1132:1154   */\n      add\n        /* \"#utility.yul\":1111:1164   */\n      tag_182\n      jump\t// in\n    tag_215:\n        /* \"#utility.yul\":1101:1164   */\n      swap3\n      pop\n        /* \"#utility.yul\":1056:1174   */\n      pop\n        /* \"#utility.yul\":1213:1215   */\n      0x40\n        /* \"#utility.yul\":1239:1292   */\n      tag_216\n        /* \"#utility.yul\":1284:1291   */\n      dup7\n        /* \"#utility.yul\":1275:1281   */\n      dup3\n        /* \"#utility.yul\":1264:1273   */\n      dup8\n        /* \"#utility.yul\":1260:1282   */\n      add\n        /* \"#utility.yul\":1239:1292   */\n      tag_182\n      jump\t// in\n    tag_216:\n        /* \"#utility.yul\":1229:1292   */\n      swap2\n      pop\n        /* \"#utility.yul\":1184:1302   */\n      pop\n        /* \"#utility.yul\":690:1309   */\n      swap3\n      pop\n      swap3\n      pop\n      swap3\n      jump\t// out\n        /* \"#utility.yul\":1315:1401   */\n    tag_183:\n        /* \"#utility.yul\":1350:1357   */\n      0x00\n        /* \"#utility.yul\":1390:1394   */\n      0xff\n        /* \"#utility.yul\":1383:1388   */\n      dup3\n        /* \"#utility.yul\":1379:1395   */\n      and\n        /* \"#utility.yul\":1368:1395   */\n      swap1\n      pop\n        /* \"#utility.yul\":1315:1401   */\n      swap2\n      swap1\n      pop\n      jump\t// out\n        /* \"#utility.yul\":1407:1519   */\n    tag_184:\n        /* \"#utility.yul\":1490:1512   */\n      tag_219\n        /* \"#utility.yul\":1506:1511   */\n      dup2\n        /* \"#utility.yul\":1490:1512   */\n      tag_183\n      jump\t// in\n    tag_219:\n        /* \"#utility.yul\":1485:1488   */\n      dup3\n        /* \"#utility.yul\":1478:1513   */\n      mstore\n        /* \"#utility.yul\":1407:1519   */\n      pop\n      pop\n      jump\t// out\n        /* \"#utility.yul\":1525:1643   */\n    tag_185:\n        /* \"#utility.yul\":1612:1636   */\n      tag_221\n        /* \"#utility.yul\":1630:1635   */\n      dup2\n        /* \"#utility.yul\":1612:1636   */\n      tag_180\n      jump\t// in\n    tag_221:\n        /* \"#utility.yul\":1607:1610   */\n      dup3\n        /* \"#utility.yul\":1600:1637   */\n      mstore\n        /* \"#utility.yul\":1525:1643   */\n      pop\n      pop\n      jump\t// out\n        /* \"#utility.yul\":1649:1973   */\n    tag_11:\n        /* \"#utility.yul\":1766:1770   */\n      0x00\n        /* \"#utility.yul\":1804:1806   */\n      0x40\n        /* \"#utility.yul\":1793:1802   */\n      dup3\n        /* \"#utility.yul\":1789:1807   */\n      add\n        /* \"#utility.yul\":1781:1807   */\n      swap1\n      pop\n        /* \"#utility.yul\":1817:1884   */\n      tag_223\n        /* \"#utility.yul\":1881:1882   */\n      0x00\n        /* \"#utility.yul\":1870:1879   */\n      dup4\n        /* \"#utility.yul\":1866:1883   */\n      add\n        /* \"#utility.yul\":1857:1863   */\n      dup6\n        /* \"#utility.yul\":1817:1884   */\n      tag_184\n      jump\t// in\n    tag_223:\n        /* \"#utility.yul\":1894:1966   */\n      tag_224\n        /* \"#utility.yul\":1962:1964   */\n      0x20\n        /* \"#utility.yul\":1951:1960   */\n      dup4\n        /* \"#utility.yul\":1947:1965   */\n      add\n        /* \"#utility.yul\":1938:1944   */\n      dup5\n        /* \"#utility.yul\":1894:1966   */\n      tag_185\n      jump\t// in\n    tag_224:\n        /* \"#utility.yul\":1649:1973   */\n      swap4\n      swap3\n      pop\n      pop\n      pop\n      jump\t// out\n        /* \"#utility.yul\":1979:2069   */\n    tag_186:\n        /* \"#utility.yul\":2013:2020   */\n      0x00\n        /* \"#utility.yul\":2056:2061   */\n      dup2\n        /* \"#utility.yul\":2049:2062   */\n      iszero\n        /* \"#utility.yul\":2042:2063   */\n      iszero\n        /* \"#utility.yul\":2031:2063   */\n      swap1\n      pop\n        /* \"#utility.yul\":1979:2069   */\n      swap2\n      swap1\n      pop\n      jump\t// out\n        /* \"#utility.yul\":2075:2184   */\n    tag_187:\n        /* \"#utility.yul\":2156:2177   */\n      tag_227\n        /* \"#utility.yul\":2171:2176   */\n      dup2\n        /* \"#utility.yul\":2156:2177   */\n      tag_186\n      jump\t// in\n    tag_227:\n        /* \"#utility.yul\":2151:2154   */\n      dup3\n        /* \"#utility.yul\":2144:2178   */\n      mstore\n        /* \"#utility.yul\":2075:2184   */\n      pop\n      pop\n      jump\t// out\n        /* \"#utility.yul\":2190:2400   */\n    tag_16:\n        /* \"#utility.yul\":2277:2281   */\n      0x00\n        /* \"#utility.yul\":2315:2317   */\n      0x20\n        /* \"#utility.yul\":2304:2313   */\n      dup3\n        /* \"#utility.yul\":2300:2318   */\n      add\n        /* \"#utility.yul\":2292:2318   */\n      swap1\n      pop\n        /* \"#utility.yul\":2328:2393   */\n      tag_229\n        /* \"#utility.yul\":2390:2391   */\n      0x00\n        /* \"#utility.yul\":2379:2388   */\n      dup4\n        /* \"#utility.yul\":2375:2392   */\n      add\n        /* \"#utility.yul\":2366:2372   */\n      dup5\n        /* \"#utility.yul\":2328:2393   */\n      tag_187\n      jump\t// in\n    tag_229:\n        /* \"#utility.yul\":2190:2400   */\n      swap3\n      swap2\n      pop\n      pop\n      jump\t// out\n        /* \"#utility.yul\":2406:2586   */\n    tag_188:\n        /* \"#utility.yul\":2454:2531   */\n      0x4e487b7100000000000000000000000000000000000000000000000000000000\n        /* \"#utility.yul\":2451:2452   */\n      0x00\n        /* \"#utility.yul\":2444:2532   */\n      mstore\n        /* \"#utility.yul\":2551:2555   */\n      0x11\n        /* \"#utility.yul\":2548:2549   */\n      0x04\n        /* \"#utility.yul\":2541:2556   */\n      mstore\n        /* \"#utility.yul\":2575:2579   */\n      0x24\n        /* \"#utility.yul\":2572:2573   */\n      0x00\n        /* \"#utility.yul\":2565:2580   */\n      revert\n        /* \"#utility.yul\":2592:2783   */\n    tag_23:\n        /* \"#utility.yul\":2632:2635   */\n      0x00\n        /* \"#utility.yul\":2651:2671   */\n      tag_232\n        /* \"#utility.yul\":2669:2670   */\n      dup3\n        /* \"#utility.yul\":2651:2671   */\n      tag_180\n      jump\t// in\n    tag_232:\n        /* \"#utility.yul\":2646:2671   */\n      swap2\n      pop\n        /* \"#utility.yul\":2685:2705   */\n      tag_233\n        /* \"#utility.yul\":2703:2704   */\n      dup4\n        /* \"#utility.yul\":2685:2705   */\n      tag_180\n      jump\t// in\n    tag_233:\n        /* \"#utility.yul\":2680:2705   */\n      swap3\n      pop\n        /* \"#utility.yul\":2728:2729   */\n      dup3\n        /* \"#utility.yul\":2725:2726   */\n      dup3\n        /* \"#utility.yul\":2721:2730   */\n      add\n        /* \"#utility.yul\":2714:2730   */\n      swap1\n      pop\n        /* \"#utility.yul\":2749:2752   */\n      dup1\n        /* \"#utility.yul\":2746:2747   */\n      dup3\n        /* \"#utility.yul\":2743:2753   */\n      gt\n        /* \"#utility.yul\":2740:2776   */\n      iszero\n      tag_234\n      jumpi\n        /* \"#utility.yul\":2756:2774   */\n      tag_235\n      tag_188\n      jump\t// in\n    tag_235:\n        /* \"#utility.yul\":2740:2776   */\n    tag_234:\n        /* \"#utility.yul\":2592:2783   */\n      swap3\n      swap2\n      pop\n      pop\n      jump\t// out\n        /* \"#utility.yul\":2789:2958   */\n    tag_189:\n        /* \"#utility.yul\":2873:2884   */\n      0x00\n        /* \"#utility.yul\":2907:2913   */\n      dup3\n        /* \"#utility.yul\":2902:2905   */\n      dup3\n        /* \"#utility.yul\":2895:2914   */\n      mstore\n        /* \"#utility.yul\":2947:2951   */\n      0x20\n        /* \"#utility.yul\":2942:2945   */\n      dup3\n        /* \"#utility.yul\":2938:2952   */\n      add\n        /* \"#utility.yul\":2923:2952   */\n      swap1\n      pop\n        /* \"#utility.yul\":2789:2958   */\n      swap3\n      swap2\n      pop\n      pop\n      jump\t// out\n        /* \"#utility.yul\":2964:3128   */\n    tag_190:\n        /* \"#utility.yul\":3104:3120   */\n      0x4e6f74206120547269616e676c65000000000000000000000000000000000000\n        /* \"#utility.yul\":3100:3101   */\n      0x00\n        /* \"#utility.yul\":3092:3098   */\n      dup3\n        /* \"#utility.yul\":3088:3102   */\n      add\n        /* \"#utility.yul\":3081:3121   */\n      mstore\n        /* \"#utility.yul\":2964:3128   */\n      pop\n      jump\t// out\n        /* \"#utility.yul\":3134:3500   */\n    tag_191:\n        /* \"#utility.yul\":3276:3279   */\n      0x00\n        /* \"#utility.yul\":3297:3364   */\n      tag_239\n        /* \"#utility.yul\":3361:3363   */\n      0x0e\n        /* \"#utility.yul\":3356:3359   */\n      dup4\n        /* \"#utility.yul\":3297:3364   */\n      tag_189\n      jump\t// in\n    tag_239:\n        /* \"#utility.yul\":3290:3364   */\n      swap2\n      pop\n        /* \"#utility.yul\":3373:3466   */\n      tag_240\n        /* \"#utility.yul\":3462:3465   */\n      dup3\n        /* \"#utility.yul\":3373:3466   */\n      tag_190\n      jump\t// in\n    tag_240:\n        /* \"#utility.yul\":3491:3493   */\n      0x20\n        /* \"#utility.yul\":3486:3489   */\n      dup3\n        /* \"#utility.yul\":3482:3494   */\n      add\n        /* \"#utility.yul\":3475:3494   */\n      swap1\n      pop\n        /* \"#utility.yul\":3134:3500   */\n      swap2\n      swap1\n      pop\n      jump\t// out\n        /* \"#utility.yul\":3506:3591   */\n    tag_192:\n        /* \"#utility.yul\":3551:3558   */\n      0x00\n        /* \"#utility.yul\":3580:3585   */\n      dup2\n        /* \"#utility.yul\":3569:3585   */\n      swap1\n      pop\n        /* \"#utility.yul\":3506:3591   */\n      swap2\n      swap1\n      pop\n      jump\t// out\n        /* \"#utility.yul\":3597:3657   */\n    tag_193:\n        /* \"#utility.yul\":3625:3628   */\n      0x00\n        /* \"#utility.yul\":3646:3651   */\n      dup2\n        /* \"#utility.yul\":3639:3651   */\n      swap1\n      pop\n        /* \"#utility.yul\":3597:3657   */\n      swap2\n      swap1\n      pop\n      jump\t// out\n        /* \"#utility.yul\":3663:3821   */\n    tag_194:\n        /* \"#utility.yul\":3721:3730   */\n      0x00\n        /* \"#utility.yul\":3754:3815   */\n      tag_244\n        /* \"#utility.yul\":3772:3814   */\n      tag_245\n        /* \"#utility.yul\":3781:3813   */\n      tag_246\n        /* \"#utility.yul\":3807:3812   */\n      dup5\n        /* \"#utility.yul\":3781:3813   */\n      tag_192\n      jump\t// in\n    tag_246:\n        /* \"#utility.yul\":3772:3814   */\n      tag_193\n      jump\t// in\n    tag_245:\n        /* \"#utility.yul\":3754:3815   */\n      tag_180\n      jump\t// in\n    tag_244:\n        /* \"#utility.yul\":3741:3815   */\n      swap1\n      pop\n        /* \"#utility.yul\":3663:3821   */\n      swap2\n      swap1\n      pop\n      jump\t// out\n        /* \"#utility.yul\":3827:3974   */\n    tag_195:\n        /* \"#utility.yul\":3922:3967   */\n      tag_248\n        /* \"#utility.yul\":3961:3966   */\n      dup2\n        /* \"#utility.yul\":3922:3967   */\n      tag_194\n      jump\t// in\n    tag_248:\n        /* \"#utility.yul\":3917:3920   */\n      dup3\n        /* \"#utility.yul\":3910:3968   */\n      mstore\n        /* \"#utility.yul\":3827:3974   */\n      pop\n      pop\n      jump\t// out\n        /* \"#utility.yul\":3980:4960   */\n    tag_59:\n        /* \"#utility.yul\":4290:4294   */\n      0x00\n        /* \"#utility.yul\":4328:4331   */\n      0xc0\n        /* \"#utility.yul\":4317:4326   */\n      dup3\n        /* \"#utility.yul\":4313:4332   */\n      add\n        /* \"#utility.yul\":4305:4332   */\n      swap1\n      pop\n        /* \"#utility.yul\":4342:4413   */\n      tag_250\n        /* \"#utility.yul\":4410:4411   */\n      0x00\n        /* \"#utility.yul\":4399:4408   */\n      dup4\n        /* \"#utility.yul\":4395:4412   */\n      add\n        /* \"#utility.yul\":4386:4392   */\n      dup9\n        /* \"#utility.yul\":4342:4413   */\n      tag_185\n      jump\t// in\n    tag_250:\n        /* \"#utility.yul\":4423:4495   */\n      tag_251\n        /* \"#utility.yul\":4491:4493   */\n      0x20\n        /* \"#utility.yul\":4480:4489   */\n      dup4\n        /* \"#utility.yul\":4476:4494   */\n      add\n        /* \"#utility.yul\":4467:4473   */\n      dup8\n        /* \"#utility.yul\":4423:4495   */\n      tag_185\n      jump\t// in\n    tag_251:\n        /* \"#utility.yul\":4505:4577   */\n      tag_252\n        /* \"#utility.yul\":4573:4575   */\n      0x40\n        /* \"#utility.yul\":4562:4571   */\n      dup4\n        /* \"#utility.yul\":4558:4576   */\n      add\n        /* \"#utility.yul\":4549:4555   */\n      dup7\n        /* \"#utility.yul\":4505:4577   */\n      tag_185\n      jump\t// in\n    tag_252:\n        /* \"#utility.yul\":4587:4655   */\n      tag_253\n        /* \"#utility.yul\":4651:4653   */\n      0x60\n        /* \"#utility.yul\":4640:4649   */\n      dup4\n        /* \"#utility.yul\":4636:4654   */\n      add\n        /* \"#utility.yul\":4627:4633   */\n      dup6\n        /* \"#utility.yul\":4587:4655   */\n      tag_184\n      jump\t// in\n    tag_253:\n        /* \"#utility.yul\":4703:4712   */\n      dup2\n        /* \"#utility.yul\":4697:4701   */\n      dup2\n        /* \"#utility.yul\":4693:4713   */\n      sub\n        /* \"#utility.yul\":4687:4690   */\n      0x80\n        /* \"#utility.yul\":4676:4685   */\n      dup4\n        /* \"#utility.yul\":4672:4691   */\n      add\n        /* \"#utility.yul\":4665:4714   */\n      mstore\n        /* \"#utility.yul\":4731:4862   */\n      tag_254\n        /* \"#utility.yul\":4857:4861   */\n      dup2\n        /* \"#utility.yul\":4731:4862   */\n      tag_191\n      jump\t// in\n    tag_254:\n        /* \"#utility.yul\":4723:4862   */\n      swap1\n      pop\n        /* \"#utility.yul\":4872:4953   */\n      tag_255\n        /* \"#utility.yul\":4948:4951   */\n      0xa0\n        /* \"#utility.yul\":4937:4946   */\n      dup4\n        /* \"#utility.yul\":4933:4952   */\n      add\n        /* \"#utility.yul\":4924:4930   */\n      dup5\n        /* \"#utility.yul\":4872:4953   */\n      tag_195\n      jump\t// in\n    tag_255:\n        /* \"#utility.yul\":3980:4960   */\n      swap7\n      swap6\n      pop\n      pop\n      pop\n      pop\n      pop\n      pop\n      jump\t// out\n        /* \"#utility.yul\":4966:5065   */\n    tag_196:\n        /* \"#utility.yul\":5018:5024   */\n      0x00\n        /* \"#utility.yul\":5052:5057   */\n      dup2\n        /* \"#utility.yul\":5046:5058   */\n      mload\n        /* \"#utility.yul\":5036:5058   */\n      swap1\n      pop\n        /* \"#utility.yul\":4966:5065   */\n      swap2\n      swap1\n      pop\n      jump\t// out\n        /* \"#utility.yul\":5071:5210   */\n    tag_197:\n        /* \"#utility.yul\":5160:5166   */\n      dup3\n        /* \"#utility.yul\":5155:5158   */\n      dup2\n        /* \"#utility.yul\":5150:5153   */\n      dup4\n        /* \"#utility.yul\":5144:5167   */\n      mcopy\n        /* \"#utility.yul\":5201:5202   */\n      0x00\n        /* \"#utility.yul\":5192:5198   */\n      dup4\n        /* \"#utility.yul\":5187:5190   */\n      dup4\n        /* \"#utility.yul\":5183:5199   */\n      add\n        /* \"#utility.yul\":5176:5203   */\n      mstore\n        /* \"#utility.yul\":5071:5210   */\n      pop\n      pop\n      pop\n      jump\t// out\n        /* \"#utility.yul\":5216:5318   */\n    tag_198:\n        /* \"#utility.yul\":5257:5263   */\n      0x00\n        /* \"#utility.yul\":5308:5310   */\n      0x1f\n        /* \"#utility.yul\":5304:5311   */\n      not\n        /* \"#utility.yul\":5299:5301   */\n      0x1f\n        /* \"#utility.yul\":5292:5297   */\n      dup4\n        /* \"#utility.yul\":5288:5302   */\n      add\n        /* \"#utility.yul\":5284:5312   */\n      and\n        /* \"#utility.yul\":5274:5312   */\n      swap1\n      pop\n        /* \"#utility.yul\":5216:5318   */\n      swap2\n      swap1\n      pop\n      jump\t// out\n        /* \"#utility.yul\":5324:5701   */\n    tag_199:\n        /* \"#utility.yul\":5412:5415   */\n      0x00\n        /* \"#utility.yul\":5440:5479   */\n      tag_260\n        /* \"#utility.yul\":5473:5478   */\n      dup3\n        /* \"#utility.yul\":5440:5479   */\n      tag_196\n      jump\t// in\n    tag_260:\n        /* \"#utility.yul\":5495:5566   */\n      tag_261\n        /* \"#utility.yul\":5559:5565   */\n      dup2\n        /* \"#utility.yul\":5554:5557   */\n      dup6\n        /* \"#utility.yul\":5495:5566   */\n      tag_189\n      jump\t// in\n    tag_261:\n        /* \"#utility.yul\":5488:5566   */\n      swap4\n      pop\n        /* \"#utility.yul\":5575:5640   */\n      tag_262\n        /* \"#utility.yul\":5633:5639   */\n      dup2\n        /* \"#utility.yul\":5628:5631   */\n      dup6\n        /* \"#utility.yul\":5621:5625   */\n      0x20\n        /* \"#utility.yul\":5614:5619   */\n      dup7\n        /* \"#utility.yul\":5610:5626   */\n      add\n        /* \"#utility.yul\":5575:5640   */\n      tag_197\n      jump\t// in\n    tag_262:\n        /* \"#utility.yul\":5665:5694   */\n      tag_263\n        /* \"#utility.yul\":5687:5693   */\n      dup2\n        /* \"#utility.yul\":5665:5694   */\n      tag_198\n      jump\t// in\n    tag_263:\n        /* \"#utility.yul\":5660:5663   */\n      dup5\n        /* \"#utility.yul\":5656:5695   */\n      add\n        /* \"#utility.yul\":5649:5695   */\n      swap2\n      pop\n        /* \"#utility.yul\":5416:5701   */\n      pop\n        /* \"#utility.yul\":5324:5701   */\n      swap3\n      swap2\n      pop\n      pop\n      jump\t// out\n        /* \"#utility.yul\":5707:6565   */\n    tag_77:\n        /* \"#utility.yul\":5956:5960   */\n      0x00\n        /* \"#utility.yul\":5994:5997   */\n      0xc0\n        /* \"#utility.yul\":5983:5992   */\n      dup3\n        /* \"#utility.yul\":5979:5998   */\n      add\n        /* \"#utility.yul\":5971:5998   */\n      swap1\n      pop\n        /* \"#utility.yul\":6008:6079   */\n      tag_265\n        /* \"#utility.yul\":6076:6077   */\n      0x00\n        /* \"#utility.yul\":6065:6074   */\n      dup4\n        /* \"#utility.yul\":6061:6078   */\n      add\n        /* \"#utility.yul\":6052:6058   */\n      dup10\n        /* \"#utility.yul\":6008:6079   */\n      tag_185\n      jump\t// in\n    tag_265:\n        /* \"#utility.yul\":6089:6161   */\n      tag_266\n        /* \"#utility.yul\":6157:6159   */\n      0x20\n        /* \"#utility.yul\":6146:6155   */\n      dup4\n        /* \"#utility.yul\":6142:6160   */\n      add\n        /* \"#utility.yul\":6133:6139   */\n      dup9\n        /* \"#utility.yul\":6089:6161   */\n      tag_185\n      jump\t// in\n    tag_266:\n        /* \"#utility.yul\":6171:6243   */\n      tag_267\n        /* \"#utility.yul\":6239:6241   */\n      0x40\n        /* \"#utility.yul\":6228:6237   */\n      dup4\n        /* \"#utility.yul\":6224:6242   */\n      add\n        /* \"#utility.yul\":6215:6221   */\n      dup8\n        /* \"#utility.yul\":6171:6243   */\n      tag_185\n      jump\t// in\n    tag_267:\n        /* \"#utility.yul\":6253:6321   */\n      tag_268\n        /* \"#utility.yul\":6317:6319   */\n      0x60\n        /* \"#utility.yul\":6306:6315   */\n      dup4\n        /* \"#utility.yul\":6302:6320   */\n      add\n        /* \"#utility.yul\":6293:6299   */\n      dup7\n        /* \"#utility.yul\":6253:6321   */\n      tag_184\n      jump\t// in\n    tag_268:\n        /* \"#utility.yul\":6369:6378   */\n      dup2\n        /* \"#utility.yul\":6363:6367   */\n      dup2\n        /* \"#utility.yul\":6359:6379   */\n      sub\n        /* \"#utility.yul\":6353:6356   */\n      0x80\n        /* \"#utility.yul\":6342:6351   */\n      dup4\n        /* \"#utility.yul\":6338:6357   */\n      add\n        /* \"#utility.yul\":6331:6380   */\n      mstore\n        /* \"#utility.yul\":6397:6475   */\n      tag_269\n        /* \"#utility.yul\":6470:6474   */\n      dup2\n        /* \"#utility.yul\":6461:6467   */\n      dup6\n        /* \"#utility.yul\":6397:6475   */\n      tag_199\n      jump\t// in\n    tag_269:\n        /* \"#utility.yul\":6389:6475   */\n      swap1\n      pop\n        /* \"#utility.yul\":6485:6558   */\n      tag_270\n        /* \"#utility.yul\":6553:6556   */\n      0xa0\n        /* \"#utility.yul\":6542:6551   */\n      dup4\n        /* \"#utility.yul\":6538:6557   */\n      add\n        /* \"#utility.yul\":6529:6535   */\n      dup5\n        /* \"#utility.yul\":6485:6558   */\n      tag_185\n      jump\t// in\n    tag_270:\n        /* \"#utility.yul\":5707:6565   */\n      swap8\n      swap7\n      pop\n      pop\n      pop\n      pop\n      pop\n      pop\n      pop\n      jump\t// out\n        /* \"#utility.yul\":6571:6751   */\n    tag_83:\n        /* \"#utility.yul\":6619:6696   */\n      0x4e487b7100000000000000000000000000000000000000000000000000000000\n        /* \"#utility.yul\":6616:6617   */\n      0x00\n        /* \"#utility.yul\":6609:6697   */\n      mstore\n        /* \"#utility.yul\":6716:6720   */\n      0x32\n        /* \"#utility.yul\":6713:6714   */\n      0x04\n        /* \"#utility.yul\":6706:6721   */\n      mstore\n        /* \"#utility.yul\":6740:6744   */\n      0x24\n        /* \"#utility.yul\":6737:6738   */\n      0x00\n        /* \"#utility.yul\":6730:6745   */\n      revert\n        /* \"#utility.yul\":6757:7167   */\n    tag_87:\n        /* \"#utility.yul\":6797:6804   */\n      0x00\n        /* \"#utility.yul\":6820:6840   */\n      tag_273\n        /* \"#utility.yul\":6838:6839   */\n      dup3\n        /* \"#utility.yul\":6820:6840   */\n      tag_180\n      jump\t// in\n    tag_273:\n        /* \"#utility.yul\":6815:6840   */\n      swap2\n      pop\n        /* \"#utility.yul\":6854:6874   */\n      tag_274\n        /* \"#utility.yul\":6872:6873   */\n      dup4\n        /* \"#utility.yul\":6854:6874   */\n      tag_180\n      jump\t// in\n    tag_274:\n        /* \"#utility.yul\":6849:6874   */\n      swap3\n      pop\n        /* \"#utility.yul\":6909:6910   */\n      dup3\n        /* \"#utility.yul\":6906:6907   */\n      dup3\n        /* \"#utility.yul\":6902:6911   */\n      mul\n        /* \"#utility.yul\":6931:6961   */\n      tag_275\n        /* \"#utility.yul\":6949:6960   */\n      dup2\n        /* \"#utility.yul\":6931:6961   */\n      tag_180\n      jump\t// in\n    tag_275:\n        /* \"#utility.yul\":6920:6961   */\n      swap2\n      pop\n        /* \"#utility.yul\":7110:7111   */\n      dup3\n        /* \"#utility.yul\":7101:7108   */\n      dup3\n        /* \"#utility.yul\":7097:7112   */\n      div\n        /* \"#utility.yul\":7094:7095   */\n      dup5\n        /* \"#utility.yul\":7091:7113   */\n      eq\n        /* \"#utility.yul\":7071:7072   */\n      dup4\n        /* \"#utility.yul\":7064:7073   */\n      iszero\n        /* \"#utility.yul\":7044:7127   */\n      or\n        /* \"#utility.yul\":7021:7160   */\n      tag_276\n      jumpi\n        /* \"#utility.yul\":7140:7158   */\n      tag_277\n      tag_188\n      jump\t// in\n    tag_277:\n        /* \"#utility.yul\":7021:7160   */\n    tag_276:\n        /* \"#utility.yul\":6805:7167   */\n      pop\n        /* \"#utility.yul\":6757:7167   */\n      swap3\n      swap2\n      pop\n      pop\n      jump\t// out\n        /* \"#utility.yul\":7173:7353   */\n    tag_200:\n        /* \"#utility.yul\":7221:7298   */\n      0x4e487b7100000000000000000000000000000000000000000000000000000000\n        /* \"#utility.yul\":7218:7219   */\n      0x00\n        /* \"#utility.yul\":7211:7299   */\n      mstore\n        /* \"#utility.yul\":7318:7322   */\n      0x12\n        /* \"#utility.yul\":7315:7316   */\n      0x04\n        /* \"#utility.yul\":7308:7323   */\n      mstore\n        /* \"#utility.yul\":7342:7346   */\n      0x24\n        /* \"#utility.yul\":7339:7340   */\n      0x00\n        /* \"#utility.yul\":7332:7347   */\n      revert\n        /* \"#utility.yul\":7359:7544   */\n    tag_103:\n        /* \"#utility.yul\":7399:7400   */\n      0x00\n        /* \"#utility.yul\":7416:7436   */\n      tag_280\n        /* \"#utility.yul\":7434:7435   */\n      dup3\n        /* \"#utility.yul\":7416:7436   */\n      tag_180\n      jump\t// in\n    tag_280:\n        /* \"#utility.yul\":7411:7436   */\n      swap2\n      pop\n        /* \"#utility.yul\":7450:7470   */\n      tag_281\n        /* \"#utility.yul\":7468:7469   */\n      dup4\n        /* \"#utility.yul\":7450:7470   */\n      tag_180\n      jump\t// in\n    tag_281:\n        /* \"#utility.yul\":7445:7470   */\n      swap3\n      pop\n        /* \"#utility.yul\":7489:7490   */\n      dup3\n        /* \"#utility.yul\":7479:7514   */\n      tag_282\n      jumpi\n        /* \"#utility.yul\":7494:7512   */\n      tag_283\n      tag_200\n      jump\t// in\n    tag_283:\n        /* \"#utility.yul\":7479:7514   */\n    tag_282:\n        /* \"#utility.yul\":7536:7537   */\n      dup3\n        /* \"#utility.yul\":7533:7534   */\n      dup3\n        /* \"#utility.yul\":7529:7538   */\n      div\n        /* \"#utility.yul\":7524:7538   */\n      swap1\n      pop\n        /* \"#utility.yul\":7359:7544   */\n      swap3\n      swap2\n      pop\n      pop\n      jump\t// out\n        /* \"#utility.yul\":7550:7744   */\n    tag_105:\n        /* \"#utility.yul\":7590:7594   */\n      0x00\n        /* \"#utility.yul\":7610:7630   */\n      tag_285\n        /* \"#utility.yul\":7628:7629   */\n      dup3\n        /* \"#utility.yul\":7610:7630   */\n      tag_180\n      jump\t// in\n    tag_285:\n        /* \"#utility.yul\":7605:7630   */\n      swap2\n      pop\n        /* \"#utility.yul\":7644:7664   */\n      tag_286\n        /* \"#utility.yul\":7662:7663   */\n      dup4\n        /* \"#utility.yul\":7644:7664   */\n      tag_180\n      jump\t// in\n    tag_286:\n        /* \"#utility.yul\":7639:7664   */\n      swap3\n      pop\n        /* \"#utility.yul\":7688:7689   */\n      dup3\n        /* \"#utility.yul\":7685:7686   */\n      dup3\n        /* \"#utility.yul\":7681:7690   */\n      sub\n        /* \"#utility.yul\":7673:7690   */\n      swap1\n      pop\n        /* \"#utility.yul\":7712:7713   */\n      dup2\n        /* \"#utility.yul\":7706:7710   */\n      dup2\n        /* \"#utility.yul\":7703:7714   */\n      gt\n        /* \"#utility.yul\":7700:7737   */\n      iszero\n      tag_287\n      jumpi\n        /* \"#utility.yul\":7717:7735   */\n      tag_288\n      tag_188\n      jump\t// in\n    tag_288:\n        /* \"#utility.yul\":7700:7737   */\n    tag_287:\n        /* \"#utility.yul\":7550:7744   */\n      swap3\n      swap2\n      pop\n      pop\n      jump\t// out\n\n    auxdata: 0xa2646970667358221220b099c55e6de1d281ff323129ebf159da43af8cbd3f5eff746fc430077c40851d64736f6c634300081a0033\n}\n",
				"bytecode": {
					"linkReferences": {},
					"object": "6080604052348015600e575f80fd5b50610dd18061001c5f395ff3fe608060405234801561000f575f80fd5b506004361061003f575f3560e01c80630f5a416f146100435780631ffee7ed146100745780638d534a5e146100a4575b5f80fd5b61005d600480360381019061005891906109a3565b6100d5565b60405161006b929190610a1d565b60405180910390f35b61008e600480360381019061008991906109a3565b6101b7565b60405161009b9190610a5e565b60405180910390f35b6100be60048036038101906100b991906109a3565b6101fb565b6040516100cc929190610a1d565b60405180910390f35b5f805f8385876100e59190610aa4565b1180156100fc57508484876100fa9190610aa4565b115b801561011257508584866101109190610aa4565b115b905080610125575f8092509250506101af565b848614801561013357508385145b1561014157600392506101a0565b8486148061014e57508385145b8061015857508386145b156101805761016886868661036a565b15610176576004925061017b565b600292505b61019f565b61018b86868661036a565b15610199576004925061019e565b600192505b5b5b6101ab868686610440565b9150505b935093915050565b5f8183856101c59190610aa4565b1180156101dc57508282856101da9190610aa4565b115b80156101f257508382846101f09190610aa4565b115b90509392505050565b5f805f83858761020b9190610aa4565b11801561022257508484876102209190610aa4565b115b801561023857508584866102369190610aa4565b115b90508061028a577f806c1f1f08221e96ca583b40b3f6abe5d525e8290e97f78ee8595315a5404ab68686865f80604051610276959493929190610b73565b60405180910390a15f809250925050610362565b848614801561029857508385145b156102a65760039250610305565b848614806102b357508385145b806102bd57508386145b156102e5576102cd86868661036a565b156102db57600492506102e0565b600292505b610304565b6102f086868661036a565b156102fe5760049250610303565b600192505b5b5b610310868686610440565b91505f61031c846104c6565b90507f806c1f1f08221e96ca583b40b3f6abe5d525e8290e97f78ee8595315a5404ab687878787858860405161035796959493929190610c37565b60405180910390a150505b935093915050565b5f8061037785858561067c565b90508060026003811061038d5761038c610c9d565b5b6020020151816002600381106103a6576103a5610c9d565b5b60200201516103b59190610cca565b816001600381106103c9576103c8610c9d565b5b6020020151826001600381106103e2576103e1610c9d565b5b60200201516103f19190610cca565b825f6003811061040457610403610c9d565b5b6020020151835f6003811061041c5761041b610c9d565b5b602002015161042b9190610cca565b6104359190610aa4565b149150509392505050565b5f8060028385876104519190610aa4565b61045b9190610aa4565b6104659190610d38565b90505f83826104749190610d68565b85836104809190610d68565b878461048c9190610d68565b846104979190610cca565b6104a19190610cca565b6104ab9190610cca565b90505f6104b7826108d9565b90508093505050509392505050565b60605f60ff168260ff1603610512576040518060400160405280600e81526020017f4e6f74206120547269616e676c650000000000000000000000000000000000008152509050610677565b600160ff168260ff160361055d576040518060400160405280600781526020017f5363616c656e65000000000000000000000000000000000000000000000000008152509050610677565b600260ff168260ff16036105a8576040518060400160405280600981526020017f49736f7363656c657300000000000000000000000000000000000000000000008152509050610677565b600360ff168260ff16036105f3576040518060400160405280600b81526020017f457175696c61746572616c0000000000000000000000000000000000000000008152509050610677565b600460ff168260ff160361063e576040518060400160405280600c81526020017f52696768742d616e676c656400000000000000000000000000000000000000008152509050610677565b6040518060400160405280600781526020017f556e6b6e6f776e0000000000000000000000000000000000000000000000000081525090505b919050565b61068461094a565b61068c61094a565b84815f600381106106a05761069f610c9d565b5b60200201818152505083816001600381106106be576106bd610c9d565b5b60200201818152505082816002600381106106dc576106db610c9d565b5b602002018181525050806001600381106106f9576106f8610c9d565b5b6020020151815f6003811061071157610710610c9d565b5b6020020151111561078757806001600381106107305761072f610c9d565b5b6020020151815f6003811061074857610747610c9d565b5b6020020151825f600381106107605761075f610c9d565b5b602002018360016003811061077857610777610c9d565b5b60200201828152508281525050505b8060026003811061079b5761079a610c9d565b5b6020020151816001600381106107b4576107b3610c9d565b5b6020020151111561082c57806002600381106107d3576107d2610c9d565b5b6020020151816001600381106107ec576107eb610c9d565b5b60200201518260016003811061080557610804610c9d565b5b602002018360026003811061081d5761081c610c9d565b5b60200201828152508281525050505b806001600381106108405761083f610c9d565b5b6020020151815f6003811061085857610857610c9d565b5b602002015111156108ce578060016003811061087757610876610c9d565b5b6020020151815f6003811061088f5761088e610c9d565b5b6020020151825f600381106108a7576108a6610c9d565b5b60200201836001600381106108bf576108be610c9d565b5b60200201828152508281525050505b809150509392505050565b5f8082036108e9575f9050610945565b5f60026001846108f99190610aa4565b6109039190610d38565b90505f8390505b8082101561093f5781905060028283866109249190610d38565b61092e9190610aa4565b6109389190610d38565b915061090a565b80925050505b919050565b6040518060600160405280600390602082028036833780820191505090505090565b5f80fd5b5f819050919050565b61098281610970565b811461098c575f80fd5b50565b5f8135905061099d81610979565b92915050565b5f805f606084860312156109ba576109b961096c565b5b5f6109c78682870161098f565b93505060206109d88682870161098f565b92505060406109e98682870161098f565b9150509250925092565b5f60ff82169050919050565b610a08816109f3565b82525050565b610a1781610970565b82525050565b5f604082019050610a305f8301856109ff565b610a3d6020830184610a0e565b9392505050565b5f8115159050919050565b610a5881610a44565b82525050565b5f602082019050610a715f830184610a4f565b92915050565b7f4e487b71000000000000000000000000000000000000000000000000000000005f52601160045260245ffd5b5f610aae82610970565b9150610ab983610970565b9250828201905080821115610ad157610ad0610a77565b5b92915050565b5f82825260208201905092915050565b7f4e6f74206120547269616e676c650000000000000000000000000000000000005f82015250565b5f610b1b600e83610ad7565b9150610b2682610ae7565b602082019050919050565b5f819050919050565b5f819050919050565b5f610b5d610b58610b5384610b31565b610b3a565b610970565b9050919050565b610b6d81610b43565b82525050565b5f60c082019050610b865f830188610a0e565b610b936020830187610a0e565b610ba06040830186610a0e565b610bad60608301856109ff565b8181036080830152610bbe81610b0f565b9050610bcd60a0830184610b64565b9695505050505050565b5f81519050919050565b8281835e5f83830152505050565b5f601f19601f8301169050919050565b5f610c0982610bd7565b610c138185610ad7565b9350610c23818560208601610be1565b610c2c81610bef565b840191505092915050565b5f60c082019050610c4a5f830189610a0e565b610c576020830188610a0e565b610c646040830187610a0e565b610c7160608301866109ff565b8181036080830152610c838185610bff565b9050610c9260a0830184610a0e565b979650505050505050565b7f4e487b71000000000000000000000000000000000000000000000000000000005f52603260045260245ffd5b5f610cd482610970565b9150610cdf83610970565b9250828202610ced81610970565b91508282048414831517610d0457610d03610a77565b5b5092915050565b7f4e487b71000000000000000000000000000000000000000000000000000000005f52601260045260245ffd5b5f610d4282610970565b9150610d4d83610970565b925082610d5d57610d5c610d0b565b5b828204905092915050565b5f610d7282610970565b9150610d7d83610970565b9250828203905081811115610d9557610d94610a77565b5b9291505056fea2646970667358221220b099c55e6de1d281ff323129ebf159da43af8cbd3f5eff746fc430077c40851d64736f6c634300081a0033",
					"opcodes": "PUSH1 0x80 PUSH1 0x40 MSTORE CALLVALUE DUP1 ISZERO PUSH1 0xE JUMPI PUSH0 DUP1 REVERT JUMPDEST POP PUSH2 0xDD1 DUP1 PUSH2 0x1C PUSH0 CODECOPY PUSH0 RETURN INVALID PUSH1 0x80 PUSH1 0x40 MSTORE CALLVALUE DUP1 ISZERO PUSH2 0xF JUMPI PUSH0 DUP1 REVERT JUMPDEST POP PUSH1 0x4 CALLDATASIZE LT PUSH2 0x3F JUMPI PUSH0 CALLDATALOAD PUSH1 0xE0 SHR DUP1 PUSH4 0xF5A416F EQ PUSH2 0x43 JUMPI DUP1 PUSH4 0x1FFEE7ED EQ PUSH2 0x74 JUMPI DUP1 PUSH4 0x8D534A5E EQ PUSH2 0xA4 JUMPI JUMPDEST PUSH0 DUP1 REVERT JUMPDEST PUSH2 0x5D PUSH1 0x4 DUP1 CALLDATASIZE SUB DUP2 ADD SWAP1 PUSH2 0x58 SWAP2 SWAP1 PUSH2 0x9A3 JUMP JUMPDEST PUSH2 0xD5 JUMP JUMPDEST PUSH1 0x40 MLOAD PUSH2 0x6B SWAP3 SWAP2 SWAP1 PUSH2 0xA1D JUMP JUMPDEST PUSH1 0x40 MLOAD DUP1 SWAP2 SUB SWAP1 RETURN JUMPDEST PUSH2 0x8E PUSH1 0x4 DUP1 CALLDATASIZE SUB DUP2 ADD SWAP1 PUSH2 0x89 SWAP2 SWAP1 PUSH2 0x9A3 JUMP JUMPDEST PUSH2 0x1B7 JUMP JUMPDEST PUSH1 0x40 MLOAD PUSH2 0x9B SWAP2 SWAP1 PUSH2 0xA5E JUMP JUMPDEST PUSH1 0x40 MLOAD DUP1 SWAP2 SUB SWAP1 RETURN JUMPDEST PUSH2 0xBE PUSH1 0x4 DUP1 CALLDATASIZE SUB DUP2 ADD SWAP1 PUSH2 0xB9 SWAP2 SWAP1 PUSH2 0x9A3 JUMP JUMPDEST PUSH2 0x1FB JUMP JUMPDEST PUSH1 0x40 MLOAD PUSH2 0xCC SWAP3 SWAP2 SWAP1 PUSH2 0xA1D JUMP JUMPDEST PUSH1 0x40 MLOAD DUP1 SWAP2 SUB SWAP1 RETURN JUMPDEST PUSH0 DUP1 PUSH0 DUP4 DUP6 DUP8 PUSH2 0xE5 SWAP2 SWAP1 PUSH2 0xAA4 JUMP JUMPDEST GT DUP1 ISZERO PUSH2 0xFC JUMPI POP DUP5 DUP5 DUP8 PUSH2 0xFA SWAP2 SWAP1 PUSH2 0xAA4 JUMP JUMPDEST GT JUMPDEST DUP1 ISZERO PUSH2 0x112 JUMPI POP DUP6 DUP5 DUP7 PUSH2 0x110 SWAP2 SWAP1 PUSH2 0xAA4 JUMP JUMPDEST GT JUMPDEST SWAP1 POP DUP1 PUSH2 0x125 JUMPI PUSH0 DUP1 SWAP3 POP SWAP3 POP POP PUSH2 0x1AF JUMP JUMPDEST DUP5 DUP7 EQ DUP1 ISZERO PUSH2 0x133 JUMPI POP DUP4 DUP6 EQ JUMPDEST ISZERO PUSH2 0x141 JUMPI PUSH1 0x3 SWAP3 POP PUSH2 0x1A0 JUMP JUMPDEST DUP5 DUP7 EQ DUP1 PUSH2 0x14E JUMPI POP DUP4 DUP6 EQ JUMPDEST DUP1 PUSH2 0x158 JUMPI POP DUP4 DUP7 EQ JUMPDEST ISZERO PUSH2 0x180 JUMPI PUSH2 0x168 DUP7 DUP7 DUP7 PUSH2 0x36A JUMP JUMPDEST ISZERO PUSH2 0x176 JUMPI PUSH1 0x4 SWAP3 POP PUSH2 0x17B JUMP JUMPDEST PUSH1 0x2 SWAP3 POP JUMPDEST PUSH2 0x19F JUMP JUMPDEST PUSH2 0x18B DUP7 DUP7 DUP7 PUSH2 0x36A JUMP JUMPDEST ISZERO PUSH2 0x199 JUMPI PUSH1 0x4 SWAP3 POP PUSH2 0x19E JUMP JUMPDEST PUSH1 0x1 SWAP3 POP JUMPDEST JUMPDEST JUMPDEST PUSH2 0x1AB DUP7 DUP7 DUP7 PUSH2 0x440 JUMP JUMPDEST SWAP2 POP POP JUMPDEST SWAP4 POP SWAP4 SWAP2 POP POP JUMP JUMPDEST PUSH0 DUP2 DUP4 DUP6 PUSH2 0x1C5 SWAP2 SWAP1 PUSH2 0xAA4 JUMP JUMPDEST GT DUP1 ISZERO PUSH2 0x1DC JUMPI POP DUP3 DUP3 DUP6 PUSH2 0x1DA SWAP2 SWAP1 PUSH2 0xAA4 JUMP JUMPDEST GT JUMPDEST DUP1 ISZERO PUSH2 0x1F2 JUMPI POP DUP4 DUP3 DUP5 PUSH2 0x1F0 SWAP2 SWAP1 PUSH2 0xAA4 JUMP JUMPDEST GT JUMPDEST SWAP1 POP SWAP4 SWAP3 POP POP POP JUMP JUMPDEST PUSH0 DUP1 PUSH0 DUP4 DUP6 DUP8 PUSH2 0x20B SWAP2 SWAP1 PUSH2 0xAA4 JUMP JUMPDEST GT DUP1 ISZERO PUSH2 0x222 JUMPI POP DUP5 DUP5 DUP8 PUSH2 0x220 SWAP2 SWAP1 PUSH2 0xAA4 JUMP JUMPDEST GT JUMPDEST DUP1 ISZERO PUSH2 0x238 JUMPI POP DUP6 DUP5 DUP7 PUSH2 0x236 SWAP2 SWAP1 PUSH2 0xAA4 JUMP JUMPDEST GT JUMPDEST SWAP1 POP DUP1 PUSH2 0x28A JUMPI PUSH32 0x806C1F1F08221E96CA583B40B3F6ABE5D525E8290E97F78EE8595315A5404AB6 DUP7 DUP7 DUP7 PUSH0 DUP1 PUSH1 0x40 MLOAD PUSH2 0x276 SWAP6 SWAP5 SWAP4 SWAP3 SWAP2 SWAP1 PUSH2 0xB73 JUMP JUMPDEST PUSH1 0x40 MLOAD DUP1 SWAP2 SUB SWAP1 LOG1 PUSH0 DUP1 SWAP3 POP SWAP3 POP POP PUSH2 0x362 JUMP JUMPDEST DUP5 DUP7 EQ DUP1 ISZERO PUSH2 0x298 JUMPI POP DUP4 DUP6 EQ JUMPDEST ISZERO PUSH2 0x2A6 JUMPI PUSH1 0x3 SWAP3 POP PUSH2 0x305 JUMP JUMPDEST DUP5 DUP7 EQ DUP1 PUSH2 0x2B3 JUMPI POP DUP4 DUP6 EQ JUMPDEST DUP1 PUSH2 0x2BD JUMPI POP DUP4 DUP7 EQ JUMPDEST ISZERO PUSH2 0x2E5 JUMPI PUSH2 0x2CD DUP7 DUP7 DUP7 PUSH2 0x36A JUMP JUMPDEST ISZERO PUSH2 0x2DB JUMPI PUSH1 0x4 SWAP3 POP PUSH2 0x2E0 JUMP JUMPDEST PUSH1 0x2 SWAP3 POP JUMPDEST PUSH2 0x304 JUMP JUMPDEST PUSH2 0x2F0 DUP7 DUP7 DUP7 PUSH2 0x36A JUMP JUMPDEST ISZERO PUSH2 0x2FE JUMPI PUSH1 0x4 SWAP3 POP PUSH2 0x303 JUMP JUMPDEST PUSH1 0x1 SWAP3 POP JUMPDEST JUMPDEST JUMPDEST PUSH2 0x310 DUP7 DUP7 DUP7 PUSH2 0x440 JUMP JUMPDEST SWAP2 POP PUSH0 PUSH2 0x31C DUP5 PUSH2 0x4C6 JUMP JUMPDEST SWAP1 POP PUSH32 0x806C1F1F08221E96CA583B40B3F6ABE5D525E8290E97F78EE8595315A5404AB6 DUP8 DUP8 DUP8 DUP8 DUP6 DUP9 PUSH1 0x40 MLOAD PUSH2 0x357 SWAP7 SWAP6 SWAP5 SWAP4 SWAP3 SWAP2 SWAP1 PUSH2 0xC37 JUMP JUMPDEST PUSH1 0x40 MLOAD DUP1 SWAP2 SUB SWAP1 LOG1 POP POP JUMPDEST SWAP4 POP SWAP4 SWAP2 POP POP JUMP JUMPDEST PUSH0 DUP1 PUSH2 0x377 DUP6 DUP6 DUP6 PUSH2 0x67C JUMP JUMPDEST SWAP1 POP DUP1 PUSH1 0x2 PUSH1 0x3 DUP2 LT PUSH2 0x38D JUMPI PUSH2 0x38C PUSH2 0xC9D JUMP JUMPDEST JUMPDEST PUSH1 0x20 MUL ADD MLOAD DUP2 PUSH1 0x2 PUSH1 0x3 DUP2 LT PUSH2 0x3A6 JUMPI PUSH2 0x3A5 PUSH2 0xC9D JUMP JUMPDEST JUMPDEST PUSH1 0x20 MUL ADD MLOAD PUSH2 0x3B5 SWAP2 SWAP1 PUSH2 0xCCA JUMP JUMPDEST DUP2 PUSH1 0x1 PUSH1 0x3 DUP2 LT PUSH2 0x3C9 JUMPI PUSH2 0x3C8 PUSH2 0xC9D JUMP JUMPDEST JUMPDEST PUSH1 0x20 MUL ADD MLOAD DUP3 PUSH1 0x1 PUSH1 0x3 DUP2 LT PUSH2 0x3E2 JUMPI PUSH2 0x3E1 PUSH2 0xC9D JUMP JUMPDEST JUMPDEST PUSH1 0x20 MUL ADD MLOAD PUSH2 0x3F1 SWAP2 SWAP1 PUSH2 0xCCA JUMP JUMPDEST DUP3 PUSH0 PUSH1 0x3 DUP2 LT PUSH2 0x404 JUMPI PUSH2 0x403 PUSH2 0xC9D JUMP JUMPDEST JUMPDEST PUSH1 0x20 MUL ADD MLOAD DUP4 PUSH0 PUSH1 0x3 DUP2 LT PUSH2 0x41C JUMPI PUSH2 0x41B PUSH2 0xC9D JUMP JUMPDEST JUMPDEST PUSH1 0x20 MUL ADD MLOAD PUSH2 0x42B SWAP2 SWAP1 PUSH2 0xCCA JUMP JUMPDEST PUSH2 0x435 SWAP2 SWAP1 PUSH2 0xAA4 JUMP JUMPDEST EQ SWAP2 POP POP SWAP4 SWAP3 POP POP POP JUMP JUMPDEST PUSH0 DUP1 PUSH1 0x2 DUP4 DUP6 DUP8 PUSH2 0x451 SWAP2 SWAP1 PUSH2 0xAA4 JUMP JUMPDEST PUSH2 0x45B SWAP2 SWAP1 PUSH2 0xAA4 JUMP JUMPDEST PUSH2 0x465 SWAP2 SWAP1 PUSH2 0xD38 JUMP JUMPDEST SWAP1 POP PUSH0 DUP4 DUP3 PUSH2 0x474 SWAP2 SWAP1 PUSH2 0xD68 JUMP JUMPDEST DUP6 DUP4 PUSH2 0x480 SWAP2 SWAP1 PUSH2 0xD68 JUMP JUMPDEST DUP8 DUP5 PUSH2 0x48C SWAP2 SWAP1 PUSH2 0xD68 JUMP JUMPDEST DUP5 PUSH2 0x497 SWAP2 SWAP1 PUSH2 0xCCA JUMP JUMPDEST PUSH2 0x4A1 SWAP2 SWAP1 PUSH2 0xCCA JUMP JUMPDEST PUSH2 0x4AB SWAP2 SWAP1 PUSH2 0xCCA JUMP JUMPDEST SWAP1 POP PUSH0 PUSH2 0x4B7 DUP3 PUSH2 0x8D9 JUMP JUMPDEST SWAP1 POP DUP1 SWAP4 POP POP POP POP SWAP4 SWAP3 POP POP POP JUMP JUMPDEST PUSH1 0x60 PUSH0 PUSH1 0xFF AND DUP3 PUSH1 0xFF AND SUB PUSH2 0x512 JUMPI PUSH1 0x40 MLOAD DUP1 PUSH1 0x40 ADD PUSH1 0x40 MSTORE DUP1 PUSH1 0xE DUP2 MSTORE PUSH1 0x20 ADD PUSH32 0x4E6F74206120547269616E676C65000000000000000000000000000000000000 DUP2 MSTORE POP SWAP1 POP PUSH2 0x677 JUMP JUMPDEST PUSH1 0x1 PUSH1 0xFF AND DUP3 PUSH1 0xFF AND SUB PUSH2 0x55D JUMPI PUSH1 0x40 MLOAD DUP1 PUSH1 0x40 ADD PUSH1 0x40 MSTORE DUP1 PUSH1 0x7 DUP2 MSTORE PUSH1 0x20 ADD PUSH32 0x5363616C656E6500000000000000000000000000000000000000000000000000 DUP2 MSTORE POP SWAP1 POP PUSH2 0x677 JUMP JUMPDEST PUSH1 0x2 PUSH1 0xFF AND DUP3 PUSH1 0xFF AND SUB PUSH2 0x5A8 JUMPI PUSH1 0x40 MLOAD DUP1 PUSH1 0x40 ADD PUSH1 0x40 MSTORE DUP1 PUSH1 0x9 DUP2 MSTORE PUSH1 0x20 ADD PUSH32 0x49736F7363656C65730000000000000000000000000000000000000000000000 DUP2 MSTORE POP SWAP1 POP PUSH2 0x677 JUMP JUMPDEST PUSH1 0x3 PUSH1 0xFF AND DUP3 PUSH1 0xFF AND SUB PUSH2 0x5F3 JUMPI PUSH1 0x40 MLOAD DUP1 PUSH1 0x40 ADD PUSH1 0x40 MSTORE DUP1 PUSH1 0xB DUP2 MSTORE PUSH1 0x20 ADD PUSH32 0x457175696C61746572616C000000000000000000000000000000000000000000 DUP2 MSTORE POP SWAP1 POP PUSH2 0x677 JUMP JUMPDEST PUSH1 0x4 PUSH1 0xFF AND DUP3 PUSH1 0xFF AND SUB PUSH2 0x63E JUMPI PUSH1 0x40 MLOAD DUP1 PUSH1 0x40 ADD PUSH1 0x40 MSTORE DUP1 PUSH1 0xC DUP2 MSTORE PUSH1 0x20 ADD PUSH32 0x52696768742D616E676C65640000000000000000000000000000000000000000 DUP2 MSTORE POP SWAP1 POP PUSH2 0x677 JUMP JUMPDEST PUSH1 0x40 MLOAD DUP1 PUSH1 0x40 ADD PUSH1 0x40 MSTORE DUP1 PUSH1 0x7 DUP2 MSTORE PUSH1 0x20 ADD PUSH32 0x556E6B6E6F776E00000000000000000000000000000000000000000000000000 DUP2 MSTORE POP SWAP1 POP JUMPDEST SWAP2 SWAP1 POP JUMP JUMPDEST PUSH2 0x684 PUSH2 0x94A JUMP JUMPDEST PUSH2 0x68C PUSH2 0x94A JUMP JUMPDEST DUP5 DUP2 PUSH0 PUSH1 0x3 DUP2 LT PUSH2 0x6A0 JUMPI PUSH2 0x69F PUSH2 0xC9D JUMP JUMPDEST JUMPDEST PUSH1 0x20 MUL ADD DUP2 DUP2 MSTORE POP POP DUP4 DUP2 PUSH1 0x1 PUSH1 0x3 DUP2 LT PUSH2 0x6BE JUMPI PUSH2 0x6BD PUSH2 0xC9D JUMP JUMPDEST JUMPDEST PUSH1 0x20 MUL ADD DUP2 DUP2 MSTORE POP POP DUP3 DUP2 PUSH1 0x2 PUSH1 0x3 DUP2 LT PUSH2 0x6DC JUMPI PUSH2 0x6DB PUSH2 0xC9D JUMP JUMPDEST JUMPDEST PUSH1 0x20 MUL ADD DUP2 DUP2 MSTORE POP POP DUP1 PUSH1 0x1 PUSH1 0x3 DUP2 LT PUSH2 0x6F9 JUMPI PUSH2 0x6F8 PUSH2 0xC9D JUMP JUMPDEST JUMPDEST PUSH1 0x20 MUL ADD MLOAD DUP2 PUSH0 PUSH1 0x3 DUP2 LT PUSH2 0x711 JUMPI PUSH2 0x710 PUSH2 0xC9D JUMP JUMPDEST JUMPDEST PUSH1 0x20 MUL ADD MLOAD GT ISZERO PUSH2 0x787 JUMPI DUP1 PUSH1 0x1 PUSH1 0x3 DUP2 LT PUSH2 0x730 JUMPI PUSH2 0x72F PUSH2 0xC9D JUMP JUMPDEST JUMPDEST PUSH1 0x20 MUL ADD MLOAD DUP2 PUSH0 PUSH1 0x3 DUP2 LT PUSH2 0x748 JUMPI PUSH2 0x747 PUSH2 0xC9D JUMP JUMPDEST JUMPDEST PUSH1 0x20 MUL ADD MLOAD DUP3 PUSH0 PUSH1 0x3 DUP2 LT PUSH2 0x760 JUMPI PUSH2 0x75F PUSH2 0xC9D JUMP JUMPDEST JUMPDEST PUSH1 0x20 MUL ADD DUP4 PUSH1 0x1 PUSH1 0x3 DUP2 LT PUSH2 0x778 JUMPI PUSH2 0x777 PUSH2 0xC9D JUMP JUMPDEST JUMPDEST PUSH1 0x20 MUL ADD DUP3 DUP2 MSTORE POP DUP3 DUP2 MSTORE POP POP POP JUMPDEST DUP1 PUSH1 0x2 PUSH1 0x3 DUP2 LT PUSH2 0x79B JUMPI PUSH2 0x79A PUSH2 0xC9D JUMP JUMPDEST JUMPDEST PUSH1 0x20 MUL ADD MLOAD DUP2 PUSH1 0x1 PUSH1 0x3 DUP2 LT PUSH2 0x7B4 JUMPI PUSH2 0x7B3 PUSH2 0xC9D JUMP JUMPDEST JUMPDEST PUSH1 0x20 MUL ADD MLOAD GT ISZERO PUSH2 0x82C JUMPI DUP1 PUSH1 0x2 PUSH1 0x3 DUP2 LT PUSH2 0x7D3 JUMPI PUSH2 0x7D2 PUSH2 0xC9D JUMP JUMPDEST JUMPDEST PUSH1 0x20 MUL ADD MLOAD DUP2 PUSH1 0x1 PUSH1 0x3 DUP2 LT PUSH2 0x7EC JUMPI PUSH2 0x7EB PUSH2 0xC9D JUMP JUMPDEST JUMPDEST PUSH1 0x20 MUL ADD MLOAD DUP3 PUSH1 0x1 PUSH1 0x3 DUP2 LT PUSH2 0x805 JUMPI PUSH2 0x804 PUSH2 0xC9D JUMP JUMPDEST JUMPDEST PUSH1 0x20 MUL ADD DUP4 PUSH1 0x2 PUSH1 0x3 DUP2 LT PUSH2 0x81D JUMPI PUSH2 0x81C PUSH2 0xC9D JUMP JUMPDEST JUMPDEST PUSH1 0x20 MUL ADD DUP3 DUP2 MSTORE POP DUP3 DUP2 MSTORE POP POP POP JUMPDEST DUP1 PUSH1 0x1 PUSH1 0x3 DUP2 LT PUSH2 0x840 JUMPI PUSH2 0x83F PUSH2 0xC9D JUMP JUMPDEST JUMPDEST PUSH1 0x20 MUL ADD MLOAD DUP2 PUSH0 PUSH1 0x3 DUP2 LT PUSH2 0x858 JUMPI PUSH2 0x857 PUSH2 0xC9D JUMP JUMPDEST JUMPDEST PUSH1 0x20 MUL ADD MLOAD GT ISZERO PUSH2 0x8CE JUMPI DUP1 PUSH1 0x1 PUSH1 0x3 DUP2 LT PUSH2 0x877 JUMPI PUSH2 0x876 PUSH2 0xC9D JUMP JUMPDEST JUMPDEST PUSH1 0x20 MUL ADD MLOAD DUP2 PUSH0 PUSH1 0x3 DUP2 LT PUSH2 0x88F JUMPI PUSH2 0x88E PUSH2 0xC9D JUMP JUMPDEST JUMPDEST PUSH1 0x20 MUL ADD MLOAD DUP3 PUSH0 PUSH1 0x3 DUP2 LT PUSH2 0x8A7 JUMPI PUSH2 0x8A6 PUSH2 0xC9D JUMP JUMPDEST JUMPDEST PUSH1 0x20 MUL ADD DUP4 PUSH1 0x1 PUSH1 0x3 DUP2 LT PUSH2 0x8BF JUMPI PUSH2 0x8BE PUSH2 0xC9D JUMP JUMPDEST JUMPDEST PUSH1 0x20 MUL ADD DUP3 DUP2 MSTORE POP DUP3 DUP2 MSTORE POP POP POP JUMPDEST DUP1 SWAP2 POP POP SWAP4 SWAP3 POP POP POP JUMP JUMPDEST PUSH0 DUP1 DUP3 SUB PUSH2 0x8E9 JUMPI PUSH0 SWAP1 POP PUSH2 0x945 JUMP JUMPDEST PUSH0 PUSH1 0x2 PUSH1 0x1 DUP5 PUSH2 0x8F9 SWAP2 SWAP1 PUSH2 0xAA4 JUMP JUMPDEST PUSH2 0x903 SWAP2 SWAP1 PUSH2 0xD38 JUMP JUMPDEST SWAP1 POP PUSH0 DUP4 SWAP1 POP JUMPDEST DUP1 DUP3 LT ISZERO PUSH2 0x93F JUMPI DUP2 SWAP1 POP PUSH1 0x2 DUP3 DUP4 DUP7 PUSH2 0x924 SWAP2 SWAP1 PUSH2 0xD38 JUMP JUMPDEST PUSH2 0x92E SWAP2 SWAP1 PUSH2 0xAA4 JUMP JUMPDEST PUSH2 0x938 SWAP2 SWAP1 PUSH2 0xD38 JUMP JUMPDEST SWAP2 POP PUSH2 0x90A JUMP JUMPDEST DUP1 SWAP3 POP POP POP JUMPDEST SWAP2 SWAP1 POP JUMP JUMPDEST PUSH1 0x40 MLOAD DUP1 PUSH1 0x60 ADD PUSH1 0x40 MSTORE DUP1 PUSH1 0x3 SWAP1 PUSH1 0x20 DUP3 MUL DUP1 CALLDATASIZE DUP4 CALLDATACOPY DUP1 DUP3 ADD SWAP2 POP POP SWAP1 POP POP SWAP1 JUMP JUMPDEST PUSH0 DUP1 REVERT JUMPDEST PUSH0 DUP2 SWAP1 POP SWAP2 SWAP1 POP JUMP JUMPDEST PUSH2 0x982 DUP2 PUSH2 0x970 JUMP JUMPDEST DUP2 EQ PUSH2 0x98C JUMPI PUSH0 DUP1 REVERT JUMPDEST POP JUMP JUMPDEST PUSH0 DUP2 CALLDATALOAD SWAP1 POP PUSH2 0x99D DUP2 PUSH2 0x979 JUMP JUMPDEST SWAP3 SWAP2 POP POP JUMP JUMPDEST PUSH0 DUP1 PUSH0 PUSH1 0x60 DUP5 DUP7 SUB SLT ISZERO PUSH2 0x9BA JUMPI PUSH2 0x9B9 PUSH2 0x96C JUMP JUMPDEST JUMPDEST PUSH0 PUSH2 0x9C7 DUP7 DUP3 DUP8 ADD PUSH2 0x98F JUMP JUMPDEST SWAP4 POP POP PUSH1 0x20 PUSH2 0x9D8 DUP7 DUP3 DUP8 ADD PUSH2 0x98F JUMP JUMPDEST SWAP3 POP POP PUSH1 0x40 PUSH2 0x9E9 DUP7 DUP3 DUP8 ADD PUSH2 0x98F JUMP JUMPDEST SWAP2 POP POP SWAP3 POP SWAP3 POP SWAP3 JUMP JUMPDEST PUSH0 PUSH1 0xFF DUP3 AND SWAP1 POP SWAP2 SWAP1 POP JUMP JUMPDEST PUSH2 0xA08 DUP2 PUSH2 0x9F3 JUMP JUMPDEST DUP3 MSTORE POP POP JUMP JUMPDEST PUSH2 0xA17 DUP2 PUSH2 0x970 JUMP JUMPDEST DUP3 MSTORE POP POP JUMP JUMPDEST PUSH0 PUSH1 0x40 DUP3 ADD SWAP1 POP PUSH2 0xA30 PUSH0 DUP4 ADD DUP6 PUSH2 0x9FF JUMP JUMPDEST PUSH2 0xA3D PUSH1 0x20 DUP4 ADD DUP5 PUSH2 0xA0E JUMP JUMPDEST SWAP4 SWAP3 POP POP POP JUMP JUMPDEST PUSH0 DUP2 ISZERO ISZERO SWAP1 POP SWAP2 SWAP1 POP JUMP JUMPDEST PUSH2 0xA58 DUP2 PUSH2 0xA44 JUMP JUMPDEST DUP3 MSTORE POP POP JUMP JUMPDEST PUSH0 PUSH1 0x20 DUP3 ADD SWAP1 POP PUSH2 0xA71 PUSH0 DUP4 ADD DUP5 PUSH2 0xA4F JUMP JUMPDEST SWAP3 SWAP2 POP POP JUMP JUMPDEST PUSH32 0x4E487B7100000000000000000000000000000000000000000000000000000000 PUSH0 MSTORE PUSH1 0x11 PUSH1 0x4 MSTORE PUSH1 0x24 PUSH0 REVERT JUMPDEST PUSH0 PUSH2 0xAAE DUP3 PUSH2 0x970 JUMP JUMPDEST SWAP2 POP PUSH2 0xAB9 DUP4 PUSH2 0x970 JUMP JUMPDEST SWAP3 POP DUP3 DUP3 ADD SWAP1 POP DUP1 DUP3 GT ISZERO PUSH2 0xAD1 JUMPI PUSH2 0xAD0 PUSH2 0xA77 JUMP JUMPDEST JUMPDEST SWAP3 SWAP2 POP POP JUMP JUMPDEST PUSH0 DUP3 DUP3 MSTORE PUSH1 0x20 DUP3 ADD SWAP1 POP SWAP3 SWAP2 POP POP JUMP JUMPDEST PUSH32 0x4E6F74206120547269616E676C65000000000000000000000000000000000000 PUSH0 DUP3 ADD MSTORE POP JUMP JUMPDEST PUSH0 PUSH2 0xB1B PUSH1 0xE DUP4 PUSH2 0xAD7 JUMP JUMPDEST SWAP2 POP PUSH2 0xB26 DUP3 PUSH2 0xAE7 JUMP JUMPDEST PUSH1 0x20 DUP3 ADD SWAP1 POP SWAP2 SWAP1 POP JUMP JUMPDEST PUSH0 DUP2 SWAP1 POP SWAP2 SWAP1 POP JUMP JUMPDEST PUSH0 DUP2 SWAP1 POP SWAP2 SWAP1 POP JUMP JUMPDEST PUSH0 PUSH2 0xB5D PUSH2 0xB58 PUSH2 0xB53 DUP5 PUSH2 0xB31 JUMP JUMPDEST PUSH2 0xB3A JUMP JUMPDEST PUSH2 0x970 JUMP JUMPDEST SWAP1 POP SWAP2 SWAP1 POP JUMP JUMPDEST PUSH2 0xB6D DUP2 PUSH2 0xB43 JUMP JUMPDEST DUP3 MSTORE POP POP JUMP JUMPDEST PUSH0 PUSH1 0xC0 DUP3 ADD SWAP1 POP PUSH2 0xB86 PUSH0 DUP4 ADD DUP9 PUSH2 0xA0E JUMP JUMPDEST PUSH2 0xB93 PUSH1 0x20 DUP4 ADD DUP8 PUSH2 0xA0E JUMP JUMPDEST PUSH2 0xBA0 PUSH1 0x40 DUP4 ADD DUP7 PUSH2 0xA0E JUMP JUMPDEST PUSH2 0xBAD PUSH1 0x60 DUP4 ADD DUP6 PUSH2 0x9FF JUMP JUMPDEST DUP2 DUP2 SUB PUSH1 0x80 DUP4 ADD MSTORE PUSH2 0xBBE DUP2 PUSH2 0xB0F JUMP JUMPDEST SWAP1 POP PUSH2 0xBCD PUSH1 0xA0 DUP4 ADD DUP5 PUSH2 0xB64 JUMP JUMPDEST SWAP7 SWAP6 POP POP POP POP POP POP JUMP JUMPDEST PUSH0 DUP2 MLOAD SWAP1 POP SWAP2 SWAP1 POP JUMP JUMPDEST DUP3 DUP2 DUP4 MCOPY PUSH0 DUP4 DUP4 ADD MSTORE POP POP POP JUMP JUMPDEST PUSH0 PUSH1 0x1F NOT PUSH1 0x1F DUP4 ADD AND SWAP1 POP SWAP2 SWAP1 POP JUMP JUMPDEST PUSH0 PUSH2 0xC09 DUP3 PUSH2 0xBD7 JUMP JUMPDEST PUSH2 0xC13 DUP2 DUP6 PUSH2 0xAD7 JUMP JUMPDEST SWAP4 POP PUSH2 0xC23 DUP2 DUP6 PUSH1 0x20 DUP7 ADD PUSH2 0xBE1 JUMP JUMPDEST PUSH2 0xC2C DUP2 PUSH2 0xBEF JUMP JUMPDEST DUP5 ADD SWAP2 POP POP SWAP3 SWAP2 POP POP JUMP JUMPDEST PUSH0 PUSH1 0xC0 DUP3 ADD SWAP1 POP PUSH2 0xC4A PUSH0 DUP4 ADD DUP10 PUSH2 0xA0E JUMP JUMPDEST PUSH2 0xC57 PUSH1 0x20 DUP4 ADD DUP9 PUSH2 0xA0E JUMP JUMPDEST PUSH2 0xC64 PUSH1 0x40 DUP4 ADD DUP8 PUSH2 0xA0E JUMP JUMPDEST PUSH2 0xC71 PUSH1 0x60 DUP4 ADD DUP7 PUSH2 0x9FF JUMP JUMPDEST DUP2 DUP2 SUB PUSH1 0x80 DUP4 ADD MSTORE PUSH2 0xC83 DUP2 DUP6 PUSH2 0xBFF JUMP JUMPDEST SWAP1 POP PUSH2 0xC92 PUSH1 0xA0 DUP4 ADD DUP5 PUSH2 0xA0E JUMP JUMPDEST SWAP8 SWAP7 POP POP POP POP POP POP POP JUMP JUMPDEST PUSH32 0x4E487B7100000000000000000000000000000000000000000000000000000000 PUSH0 MSTORE PUSH1 0x32 PUSH1 0x4 MSTORE PUSH1 0x24 PUSH0 REVERT JUMPDEST PUSH0 PUSH2 0xCD4 DUP3 PUSH2 0x970 JUMP JUMPDEST SWAP2 POP PUSH2 0xCDF DUP4 PUSH2 0x970 JUMP JUMPDEST SWAP3 POP DUP3 DUP3 MUL PUSH2 0xCED DUP2 PUSH2 0x970 JUMP JUMPDEST SWAP2 POP DUP3 DUP3 DIV DUP5 EQ DUP4 ISZERO OR PUSH2 0xD04 JUMPI PUSH2 0xD03 PUSH2 0xA77 JUMP JUMPDEST JUMPDEST POP SWAP3 SWAP2 POP POP JUMP JUMPDEST PUSH32 0x4E487B7100000000000000000000000000000000000000000000000000000000 PUSH0 MSTORE PUSH1 0x12 PUSH1 0x4 MSTORE PUSH1 0x24 PUSH0 REVERT JUMPDEST PUSH0 PUSH2 0xD42 DUP3 PUSH2 0x970 JUMP JUMPDEST SWAP2 POP PUSH2 0xD4D DUP4 PUSH2 0x970 JUMP JUMPDEST SWAP3 POP DUP3 PUSH2 0xD5D JUMPI PUSH2 0xD5C PUSH2 0xD0B JUMP JUMPDEST JUMPDEST DUP3 DUP3 DIV SWAP1 POP SWAP3 SWAP2 POP POP JUMP JUMPDEST PUSH0 PUSH2 0xD72 DUP3 PUSH2 0x970 JUMP JUMPDEST SWAP2 POP PUSH2 0xD7D DUP4 PUSH2 0x970 JUMP JUMPDEST SWAP3 POP DUP3 DUP3 SUB SWAP1 POP DUP2 DUP2 GT ISZERO PUSH2 0xD95 JUMPI PUSH2 0xD94 PUSH2 0xA77 JUMP JUMPDEST JUMPDEST SWAP3 SWAP2 POP POP JUMP INVALID LOG2 PUSH5 0x6970667358 0x22 SLT KECCAK256 0xB0 SWAP10 0xC5 MCOPY PUSH14 0xE1D281FF323129EBF159DA43AF8C 0xBD EXTCODEHASH MCOPY SELFDESTRUCT PUSH21 0x6FC430077C40851D64736F6C634300081A00330000 "
				},
				"gasEstimates": {
					"creation": {
						"codeDepositCost": "707400",
						"executionCost": "739",
						"totalCost": "708139"
					},
					"external": {
						"analyzeTriangle(uint256,uint256,uint256)": "infinite",
						"getTriangleInfo(uint256,uint256,uint256)": "infinite",
						"isValidTriangle(uint256,uint256,uint256)": "infinite"
					},
					"internal": {
						"calculateArea(uint256,uint256,uint256)": "infinite",
						"getTriangleTypeName(uint8)": "infinite",
						"isRightAngled(uint256,uint256,uint256)": "infinite",
						"sortSides(uint256,uint256,uint256)": "infinite",
						"sqrt(uint256)": "infinite"
					}
				},
				"methodIdentifiers": {
					"analyzeTriangle(uint256,uint256,uint256)": "8d534a5e",
					"getTriangleInfo(uint256,uint256,uint256)": "0f5a416f",
					"isValidTriangle(uint256,uint256,uint256)": "1ffee7ed"
				}
			},
			"storageLayout": {
				"storage": [],
				"types": null
			},
			"userdoc": {
				"kind": "user",
				"methods": {},
				"version": 1
			}
		}
	}
}