{
	"Day-02/D2P4.sol": {
		"QuadraticEquationSolver": {
			"abi": [
				{
					"anonymous": false,
					"inputs": [
						{
							"indexed": false,
							"internalType": "int256",
							"name": "a",
							"type": "int256"
						},
						{
							"indexed": false,
							"internalType": "int256",
							"name": "b",
							"type": "int256"
						},
						{
							"indexed": false,
							"internalType": "int256",
							"name": "c",
							"type": "int256"
						},
						{
							"indexed": false,
							"internalType": "uint8",
							"name": "rootType",
							"type": "uint8"
						},
						{
							"indexed": false,
							"internalType": "int256",
							"name": "root1Real",
							"type": "int256"
						},
						{
							"indexed": false,
							"internalType": "int256",
							"name": "root1Imaginary",
							"type": "int256"
						},
						{
							"indexed": false,
							"internalType": "int256",
							"name": "root2Real",
							"type": "int256"
						},
						{
							"indexed": false,
							"internalType": "int256",
							"name": "root2Imaginary",
							"type": "int256"
						}
					],
					"name": "RootsCalculated",
					"type": "event"
				},
				{
					"inputs": [
						{
							"internalType": "int256",
							"name": "a",
							"type": "int256"
						},
						{
							"internalType": "int256",
							"name": "b",
							"type": "int256"
						},
						{
							"internalType": "int256",
							"name": "c",
							"type": "int256"
						}
					],
					"name": "getQuadraticRoots",
					"outputs": [
						{
							"components": [
								{
									"internalType": "uint8",
									"name": "rootType",
									"type": "uint8"
								},
								{
									"components": [
										{
											"internalType": "int256",
											"name": "real",
											"type": "int256"
										},
										{
											"internalType": "int256",
											"name": "imaginary",
											"type": "int256"
										}
									],
									"internalType": "struct QuadraticEquationSolver.Complex",
									"name": "root1",
									"type": "tuple"
								},
								{
									"components": [
										{
											"internalType": "int256",
											"name": "real",
											"type": "int256"
										},
										{
											"internalType": "int256",
											"name": "imaginary",
											"type": "int256"
										}
									],
									"internalType": "struct QuadraticEquationSolver.Complex",
									"name": "root2",
									"type": "tuple"
								}
							],
							"internalType": "struct QuadraticEquationSolver.Roots",
							"name": "",
							"type": "tuple"
						}
					],
					"stateMutability": "pure",
					"type": "function"
				},
				{
					"inputs": [
						{
							"internalType": "uint8",
							"name": "rootType",
							"type": "uint8"
						}
					],
					"name": "getRootTypeName",
					"outputs": [
						{
							"internalType": "string",
							"name": "",
							"type": "string"
						}
					],
					"stateMutability": "pure",
					"type": "function"
				},
				{
					"inputs": [
						{
							"internalType": "int256",
							"name": "a",
							"type": "int256"
						},
						{
							"internalType": "int256",
							"name": "b",
							"type": "int256"
						},
						{
							"internalType": "int256",
							"name": "c",
							"type": "int256"
						}
					],
					"name": "solveQuadratic",
					"outputs": [
						{
							"components": [
								{
									"internalType": "uint8",
									"name": "rootType",
									"type": "uint8"
								},
								{
									"components": [
										{
											"internalType": "int256",
											"name": "real",
											"type": "int256"
										},
										{
											"internalType": "int256",
											"name": "imaginary",
											"type": "int256"
										}
									],
									"internalType": "struct QuadraticEquationSolver.Complex",
									"name": "root1",
									"type": "tuple"
								},
								{
									"components": [
										{
											"internalType": "int256",
											"name": "real",
											"type": "int256"
										},
										{
											"internalType": "int256",
											"name": "imaginary",
											"type": "int256"
										}
									],
									"internalType": "struct QuadraticEquationSolver.Complex",
									"name": "root2",
									"type": "tuple"
								}
							],
							"internalType": "struct QuadraticEquationSolver.Roots",
							"name": "",
							"type": "tuple"
						}
					],
					"stateMutability": "nonpayable",
					"type": "function"
				}
			],
			"devdoc": {
				"kind": "dev",
				"methods": {},
				"version": 1
			},
			"evm": {
				"assembly": "    /* \"Day-02/D2P4.sol\":64:6792  contract QuadraticEquationSolver {... */\n  mstore(0x40, 0x80)\n  callvalue\n  dup1\n  iszero\n  tag_1\n  jumpi\n  0x00\n  dup1\n  revert\ntag_1:\n  pop\n  dataSize(sub_0)\n  dup1\n  dataOffset(sub_0)\n  0x00\n  codecopy\n  0x00\n  return\nstop\n\nsub_0: assembly {\n        /* \"Day-02/D2P4.sol\":64:6792  contract QuadraticEquationSolver {... */\n      mstore(0x40, 0x80)\n      callvalue\n      dup1\n      iszero\n      tag_1\n      jumpi\n      0x00\n      dup1\n      revert\n    tag_1:\n      pop\n      jumpi(tag_2, lt(calldatasize, 0x04))\n      shr(0xe0, calldataload(0x00))\n      dup1\n      0x3204c3a8\n      eq\n      tag_3\n      jumpi\n      dup1\n      0x74826708\n      eq\n      tag_4\n      jumpi\n      dup1\n      0x872339bd\n      eq\n      tag_5\n      jumpi\n    tag_2:\n      0x00\n      dup1\n      revert\n        /* \"Day-02/D2P4.sol\":6483:6789  function getRootTypeName(uint8 rootType) public pure returns (string memory) {... */\n    tag_3:\n      tag_6\n      0x04\n      dup1\n      calldatasize\n      sub\n      dup2\n      add\n      swap1\n      tag_7\n      swap2\n      swap1\n      tag_8\n      jump\t// in\n    tag_7:\n      tag_9\n      jump\t// in\n    tag_6:\n      mload(0x40)\n      tag_10\n      swap2\n      swap1\n      tag_11\n      jump\t// in\n    tag_10:\n      mload(0x40)\n      dup1\n      swap2\n      sub\n      swap1\n      return\n        /* \"Day-02/D2P4.sol\":3604:5962  function getQuadraticRoots(int256 a, int256 b, int256 c) public pure returns (Roots memory) {... */\n    tag_4:\n      tag_12\n      0x04\n      dup1\n      calldatasize\n      sub\n      dup2\n      add\n      swap1\n      tag_13\n      swap2\n      swap1\n      tag_14\n      jump\t// in\n    tag_13:\n      tag_15\n      jump\t// in\n    tag_12:\n      mload(0x40)\n      tag_16\n      swap2\n      swap1\n      tag_17\n      jump\t// in\n    tag_16:\n      mload(0x40)\n      dup1\n      swap2\n      sub\n      swap1\n      return\n        /* \"Day-02/D2P4.sol\":860:3514  function solveQuadratic(int256 a, int256 b, int256 c) public returns (Roots memory) {... */\n    tag_5:\n      tag_18\n      0x04\n      dup1\n      calldatasize\n      sub\n      dup2\n      add\n      swap1\n      tag_19\n      swap2\n      swap1\n      tag_14\n      jump\t// in\n    tag_19:\n      tag_20\n      jump\t// in\n    tag_18:\n      mload(0x40)\n      tag_21\n      swap2\n      swap1\n      tag_17\n      jump\t// in\n    tag_21:\n      mload(0x40)\n      dup1\n      swap2\n      sub\n      swap1\n      return\n        /* \"Day-02/D2P4.sol\":6483:6789  function getRootTypeName(uint8 rootType) public pure returns (string memory) {... */\n    tag_9:\n        /* \"Day-02/D2P4.sol\":6545:6558  string memory */\n      0x60\n        /* \"Day-02/D2P4.sol\":162:163  1 */\n      0x01\n        /* \"Day-02/D2P4.sol\":6575:6601  rootType == TWO_REAL_ROOTS */\n      0xff\n      and\n        /* \"Day-02/D2P4.sol\":6575:6583  rootType */\n      dup3\n        /* \"Day-02/D2P4.sol\":6575:6601  rootType == TWO_REAL_ROOTS */\n      0xff\n      and\n      sub\n        /* \"Day-02/D2P4.sol\":6571:6626  if (rootType == TWO_REAL_ROOTS) return \"Two Real Roots\" */\n      tag_23\n      jumpi\n        /* \"Day-02/D2P4.sol\":6603:6626  return \"Two Real Roots\" */\n      mload(0x40)\n      dup1\n      0x40\n      add\n      0x40\n      mstore\n      dup1\n      0x0e\n      dup2\n      mstore\n      0x20\n      add\n      0x54776f205265616c20526f6f7473000000000000000000000000000000000000\n      dup2\n      mstore\n      pop\n      swap1\n      pop\n      jump(tag_22)\n        /* \"Day-02/D2P4.sol\":6571:6626  if (rootType == TWO_REAL_ROOTS) return \"Two Real Roots\" */\n    tag_23:\n        /* \"Day-02/D2P4.sol\":201:202  2 */\n      0x02\n        /* \"Day-02/D2P4.sol\":6641:6666  rootType == ONE_REAL_ROOT */\n      0xff\n      and\n        /* \"Day-02/D2P4.sol\":6641:6649  rootType */\n      dup3\n        /* \"Day-02/D2P4.sol\":6641:6666  rootType == ONE_REAL_ROOT */\n      0xff\n      and\n      sub\n        /* \"Day-02/D2P4.sol\":6637:6690  if (rootType == ONE_REAL_ROOT) return \"One Real Root\" */\n      tag_24\n      jumpi\n        /* \"Day-02/D2P4.sol\":6668:6690  return \"One Real Root\" */\n      mload(0x40)\n      dup1\n      0x40\n      add\n      0x40\n      mstore\n      dup1\n      0x0d\n      dup2\n      mstore\n      0x20\n      add\n      0x4f6e65205265616c20526f6f7400000000000000000000000000000000000000\n      dup2\n      mstore\n      pop\n      swap1\n      pop\n      jump(tag_22)\n        /* \"Day-02/D2P4.sol\":6637:6690  if (rootType == ONE_REAL_ROOT) return \"One Real Root\" */\n    tag_24:\n        /* \"Day-02/D2P4.sol\":240:241  3 */\n      0x03\n        /* \"Day-02/D2P4.sol\":6705:6730  rootType == COMPLEX_ROOTS */\n      0xff\n      and\n        /* \"Day-02/D2P4.sol\":6705:6713  rootType */\n      dup3\n        /* \"Day-02/D2P4.sol\":6705:6730  rootType == COMPLEX_ROOTS */\n      0xff\n      and\n      sub\n        /* \"Day-02/D2P4.sol\":6701:6754  if (rootType == COMPLEX_ROOTS) return \"Complex Roots\" */\n      tag_25\n      jumpi\n        /* \"Day-02/D2P4.sol\":6732:6754  return \"Complex Roots\" */\n      mload(0x40)\n      dup1\n      0x40\n      add\n      0x40\n      mstore\n      dup1\n      0x0d\n      dup2\n      mstore\n      0x20\n      add\n      0x436f6d706c657820526f6f747300000000000000000000000000000000000000\n      dup2\n      mstore\n      pop\n      swap1\n      pop\n      jump(tag_22)\n        /* \"Day-02/D2P4.sol\":6701:6754  if (rootType == COMPLEX_ROOTS) return \"Complex Roots\" */\n    tag_25:\n        /* \"Day-02/D2P4.sol\":6765:6781  return \"Unknown\" */\n      mload(0x40)\n      dup1\n      0x40\n      add\n      0x40\n      mstore\n      dup1\n      0x07\n      dup2\n      mstore\n      0x20\n      add\n      0x556e6b6e6f776e00000000000000000000000000000000000000000000000000\n      dup2\n      mstore\n      pop\n      swap1\n      pop\n        /* \"Day-02/D2P4.sol\":6483:6789  function getRootTypeName(uint8 rootType) public pure returns (string memory) {... */\n    tag_22:\n      swap2\n      swap1\n      pop\n      jump\t// out\n        /* \"Day-02/D2P4.sol\":3604:5962  function getQuadraticRoots(int256 a, int256 b, int256 c) public pure returns (Roots memory) {... */\n    tag_15:\n        /* \"Day-02/D2P4.sol\":3682:3694  Roots memory */\n      tag_26\n      tag_27\n      jump\t// in\n    tag_26:\n        /* \"Day-02/D2P4.sol\":3720:3721  0 */\n      0x00\n        /* \"Day-02/D2P4.sol\":3715:3716  a */\n      dup5\n        /* \"Day-02/D2P4.sol\":3715:3721  a != 0 */\n      sub\n        /* \"Day-02/D2P4.sol\":3707:3772  require(a != 0, \"Not a quadratic equation, 'a' must not be zero\") */\n      tag_29\n      jumpi\n      mload(0x40)\n      0x08c379a000000000000000000000000000000000000000000000000000000000\n      dup2\n      mstore\n      0x04\n      add\n      tag_30\n      swap1\n      tag_31\n      jump\t// in\n    tag_30:\n      mload(0x40)\n      dup1\n      swap2\n      sub\n      swap1\n      revert\n    tag_29:\n        /* \"Day-02/D2P4.sol\":3839:3858  int256 discriminant */\n      0x00\n        /* \"Day-02/D2P4.sol\":3877:3878  c */\n      dup3\n        /* \"Day-02/D2P4.sol\":3873:3874  a */\n      dup6\n        /* \"Day-02/D2P4.sol\":3869:3870  4 */\n      0x04\n        /* \"Day-02/D2P4.sol\":3869:3874  4 * a */\n      tag_32\n      swap2\n      swap1\n      tag_33\n      jump\t// in\n    tag_32:\n        /* \"Day-02/D2P4.sol\":3869:3878  4 * a * c */\n      tag_34\n      swap2\n      swap1\n      tag_33\n      jump\t// in\n    tag_34:\n        /* \"Day-02/D2P4.sol\":3865:3866  b */\n      dup5\n        /* \"Day-02/D2P4.sol\":3861:3862  b */\n      dup6\n        /* \"Day-02/D2P4.sol\":3861:3866  b * b */\n      tag_35\n      swap2\n      swap1\n      tag_33\n      jump\t// in\n    tag_35:\n        /* \"Day-02/D2P4.sol\":3861:3878  b * b - 4 * a * c */\n      tag_36\n      swap2\n      swap1\n      tag_37\n      jump\t// in\n    tag_36:\n        /* \"Day-02/D2P4.sol\":3839:3878  int256 discriminant = b * b - 4 * a * c */\n      swap1\n      pop\n        /* \"Day-02/D2P4.sol\":3899:3918  Roots memory result */\n      tag_38\n      tag_27\n      jump\t// in\n    tag_38:\n        /* \"Day-02/D2P4.sol\":3958:3959  0 */\n      0x00\n        /* \"Day-02/D2P4.sol\":3943:3955  discriminant */\n      dup3\n        /* \"Day-02/D2P4.sol\":3943:3959  discriminant > 0 */\n      sgt\n        /* \"Day-02/D2P4.sol\":3939:5921  if (discriminant > 0) {... */\n      iszero\n      tag_39\n      jumpi\n        /* \"Day-02/D2P4.sol\":162:163  1 */\n      0x01\n        /* \"Day-02/D2P4.sol\":4007:4013  result */\n      dup2\n        /* \"Day-02/D2P4.sol\":4007:4022  result.rootType */\n      0x00\n      add\n        /* \"Day-02/D2P4.sol\":4007:4039  result.rootType = TWO_REAL_ROOTS */\n      swap1\n      0xff\n      and\n      swap1\n      dup2\n      0xff\n      and\n      dup2\n      mstore\n      pop\n      pop\n        /* \"Day-02/D2P4.sol\":4126:4149  int256 sqrtDiscriminant */\n      0x00\n        /* \"Day-02/D2P4.sol\":4152:4182  intSqrt(uint256(discriminant)) */\n      tag_40\n        /* \"Day-02/D2P4.sol\":4168:4180  discriminant */\n      dup4\n        /* \"Day-02/D2P4.sol\":4152:4159  intSqrt */\n      tag_41\n        /* \"Day-02/D2P4.sol\":4152:4182  intSqrt(uint256(discriminant)) */\n      jump\t// in\n    tag_40:\n        /* \"Day-02/D2P4.sol\":4126:4182  int256 sqrtDiscriminant = intSqrt(uint256(discriminant)) */\n      swap1\n      pop\n        /* \"Day-02/D2P4.sol\":4307:4325  int256 denominator */\n      0x00\n        /* \"Day-02/D2P4.sol\":4332:4333  a */\n      dup8\n        /* \"Day-02/D2P4.sol\":4328:4329  2 */\n      0x02\n        /* \"Day-02/D2P4.sol\":4328:4333  2 * a */\n      tag_42\n      swap2\n      swap1\n      tag_33\n      jump\t// in\n    tag_42:\n        /* \"Day-02/D2P4.sol\":4307:4333  int256 denominator = 2 * a */\n      swap1\n      pop\n        /* \"Day-02/D2P4.sol\":4348:4365  int256 numerator1 */\n      0x00\n        /* \"Day-02/D2P4.sol\":4373:4389  sqrtDiscriminant */\n      dup3\n        /* \"Day-02/D2P4.sol\":4369:4370  b */\n      dup9\n        /* \"Day-02/D2P4.sol\":4368:4370  -b */\n      tag_43\n      swap1\n      tag_44\n      jump\t// in\n    tag_43:\n        /* \"Day-02/D2P4.sol\":4368:4389  -b + sqrtDiscriminant */\n      tag_45\n      swap2\n      swap1\n      tag_46\n      jump\t// in\n    tag_45:\n        /* \"Day-02/D2P4.sol\":4348:4389  int256 numerator1 = -b + sqrtDiscriminant */\n      swap1\n      pop\n        /* \"Day-02/D2P4.sol\":4404:4421  int256 numerator2 */\n      0x00\n        /* \"Day-02/D2P4.sol\":4429:4445  sqrtDiscriminant */\n      dup4\n        /* \"Day-02/D2P4.sol\":4425:4426  b */\n      dup10\n        /* \"Day-02/D2P4.sol\":4424:4426  -b */\n      tag_47\n      swap1\n      tag_44\n      jump\t// in\n    tag_47:\n        /* \"Day-02/D2P4.sol\":4424:4445  -b - sqrtDiscriminant */\n      tag_48\n      swap2\n      swap1\n      tag_37\n      jump\t// in\n    tag_48:\n        /* \"Day-02/D2P4.sol\":4404:4445  int256 numerator2 = -b - sqrtDiscriminant */\n      swap1\n      pop\n        /* \"Day-02/D2P4.sol\":4539:4550  denominator */\n      dup3\n        /* \"Day-02/D2P4.sol\":4526:4536  numerator1 */\n      dup3\n        /* \"Day-02/D2P4.sol\":4526:4550  numerator1 / denominator */\n      tag_49\n      swap2\n      swap1\n      tag_50\n      jump\t// in\n    tag_49:\n        /* \"Day-02/D2P4.sol\":4506:4512  result */\n      dup6\n        /* \"Day-02/D2P4.sol\":4506:4518  result.root1 */\n      0x20\n      add\n      mload\n        /* \"Day-02/D2P4.sol\":4506:4523  result.root1.real */\n      0x00\n      add\n        /* \"Day-02/D2P4.sol\":4506:4550  result.root1.real = numerator1 / denominator */\n      dup2\n      dup2\n      mstore\n      pop\n      pop\n        /* \"Day-02/D2P4.sol\":4590:4591  0 */\n      0x00\n        /* \"Day-02/D2P4.sol\":4565:4571  result */\n      dup6\n        /* \"Day-02/D2P4.sol\":4565:4577  result.root1 */\n      0x20\n      add\n      mload\n        /* \"Day-02/D2P4.sol\":4565:4587  result.root1.imaginary */\n      0x20\n      add\n        /* \"Day-02/D2P4.sol\":4565:4591  result.root1.imaginary = 0 */\n      dup2\n      dup2\n      mstore\n      pop\n      pop\n        /* \"Day-02/D2P4.sol\":4653:4664  denominator */\n      dup3\n        /* \"Day-02/D2P4.sol\":4640:4650  numerator2 */\n      dup2\n        /* \"Day-02/D2P4.sol\":4640:4664  numerator2 / denominator */\n      tag_51\n      swap2\n      swap1\n      tag_50\n      jump\t// in\n    tag_51:\n        /* \"Day-02/D2P4.sol\":4620:4626  result */\n      dup6\n        /* \"Day-02/D2P4.sol\":4620:4632  result.root2 */\n      0x40\n      add\n      mload\n        /* \"Day-02/D2P4.sol\":4620:4637  result.root2.real */\n      0x00\n      add\n        /* \"Day-02/D2P4.sol\":4620:4664  result.root2.real = numerator2 / denominator */\n      dup2\n      dup2\n      mstore\n      pop\n      pop\n        /* \"Day-02/D2P4.sol\":4704:4705  0 */\n      0x00\n        /* \"Day-02/D2P4.sol\":4679:4685  result */\n      dup6\n        /* \"Day-02/D2P4.sol\":4679:4691  result.root2 */\n      0x40\n      add\n      mload\n        /* \"Day-02/D2P4.sol\":4679:4701  result.root2.imaginary */\n      0x20\n      add\n        /* \"Day-02/D2P4.sol\":4679:4705  result.root2.imaginary = 0 */\n      dup2\n      dup2\n      mstore\n      pop\n      pop\n        /* \"Day-02/D2P4.sol\":3961:4717  {... */\n      pop\n      pop\n      pop\n      pop\n        /* \"Day-02/D2P4.sol\":3939:5921  if (discriminant > 0) {... */\n      jump(tag_52)\n    tag_39:\n        /* \"Day-02/D2P4.sol\":4753:4754  0 */\n      0x00\n        /* \"Day-02/D2P4.sol\":4737:4749  discriminant */\n      dup3\n        /* \"Day-02/D2P4.sol\":4737:4754  discriminant == 0 */\n      sub\n        /* \"Day-02/D2P4.sol\":4733:5921  if (discriminant == 0) {... */\n      tag_53\n      jumpi\n        /* \"Day-02/D2P4.sol\":201:202  2 */\n      0x02\n        /* \"Day-02/D2P4.sol\":4812:4818  result */\n      dup2\n        /* \"Day-02/D2P4.sol\":4812:4827  result.rootType */\n      0x00\n      add\n        /* \"Day-02/D2P4.sol\":4812:4843  result.rootType = ONE_REAL_ROOT */\n      swap1\n      0xff\n      and\n      swap1\n      dup2\n      0xff\n      and\n      dup2\n      mstore\n      pop\n      pop\n        /* \"Day-02/D2P4.sol\":4948:4949  a */\n      dup6\n        /* \"Day-02/D2P4.sol\":4944:4945  2 */\n      0x02\n        /* \"Day-02/D2P4.sol\":4944:4949  2 * a */\n      tag_54\n      swap2\n      swap1\n      tag_33\n      jump\t// in\n    tag_54:\n        /* \"Day-02/D2P4.sol\":4939:4940  b */\n      dup6\n        /* \"Day-02/D2P4.sol\":4938:4940  -b */\n      tag_55\n      swap1\n      tag_44\n      jump\t// in\n    tag_55:\n        /* \"Day-02/D2P4.sol\":4938:4950  -b / (2 * a) */\n      tag_56\n      swap2\n      swap1\n      tag_50\n      jump\t// in\n    tag_56:\n        /* \"Day-02/D2P4.sol\":4918:4924  result */\n      dup2\n        /* \"Day-02/D2P4.sol\":4918:4930  result.root1 */\n      0x20\n      add\n      mload\n        /* \"Day-02/D2P4.sol\":4918:4935  result.root1.real */\n      0x00\n      add\n        /* \"Day-02/D2P4.sol\":4918:4950  result.root1.real = -b / (2 * a) */\n      dup2\n      dup2\n      mstore\n      pop\n      pop\n        /* \"Day-02/D2P4.sol\":4990:4991  0 */\n      0x00\n        /* \"Day-02/D2P4.sol\":4965:4971  result */\n      dup2\n        /* \"Day-02/D2P4.sol\":4965:4977  result.root1 */\n      0x20\n      add\n      mload\n        /* \"Day-02/D2P4.sol\":4965:4987  result.root1.imaginary */\n      0x20\n      add\n        /* \"Day-02/D2P4.sol\":4965:4991  result.root1.imaginary = 0 */\n      dup2\n      dup2\n      mstore\n      pop\n      pop\n        /* \"Day-02/D2P4.sol\":5040:5046  result */\n      dup1\n        /* \"Day-02/D2P4.sol\":5040:5052  result.root1 */\n      0x20\n      add\n      mload\n        /* \"Day-02/D2P4.sol\":5040:5057  result.root1.real */\n      0x00\n      add\n      mload\n        /* \"Day-02/D2P4.sol\":5020:5026  result */\n      dup2\n        /* \"Day-02/D2P4.sol\":5020:5032  result.root2 */\n      0x40\n      add\n      mload\n        /* \"Day-02/D2P4.sol\":5020:5037  result.root2.real */\n      0x00\n      add\n        /* \"Day-02/D2P4.sol\":5020:5057  result.root2.real = result.root1.real */\n      dup2\n      dup2\n      mstore\n      pop\n      pop\n        /* \"Day-02/D2P4.sol\":5097:5098  0 */\n      0x00\n        /* \"Day-02/D2P4.sol\":5072:5078  result */\n      dup2\n        /* \"Day-02/D2P4.sol\":5072:5084  result.root2 */\n      0x40\n      add\n      mload\n        /* \"Day-02/D2P4.sol\":5072:5094  result.root2.imaginary */\n      0x20\n      add\n        /* \"Day-02/D2P4.sol\":5072:5098  result.root2.imaginary = 0 */\n      dup2\n      dup2\n      mstore\n      pop\n      pop\n        /* \"Day-02/D2P4.sol\":4733:5921  if (discriminant == 0) {... */\n      jump(tag_57)\n    tag_53:\n        /* \"Day-02/D2P4.sol\":240:241  3 */\n      0x03\n        /* \"Day-02/D2P4.sol\":5171:5177  result */\n      dup2\n        /* \"Day-02/D2P4.sol\":5171:5186  result.rootType */\n      0x00\n      add\n        /* \"Day-02/D2P4.sol\":5171:5202  result.rootType = COMPLEX_ROOTS */\n      swap1\n      0xff\n      and\n      swap1\n      dup2\n      0xff\n      and\n      dup2\n      mstore\n      pop\n      pop\n        /* \"Day-02/D2P4.sol\":5278:5293  int256 realPart */\n      0x00\n        /* \"Day-02/D2P4.sol\":5306:5307  a */\n      dup7\n        /* \"Day-02/D2P4.sol\":5302:5303  2 */\n      0x02\n        /* \"Day-02/D2P4.sol\":5302:5307  2 * a */\n      tag_58\n      swap2\n      swap1\n      tag_33\n      jump\t// in\n    tag_58:\n        /* \"Day-02/D2P4.sol\":5297:5298  b */\n      dup7\n        /* \"Day-02/D2P4.sol\":5296:5298  -b */\n      tag_59\n      swap1\n      tag_44\n      jump\t// in\n    tag_59:\n        /* \"Day-02/D2P4.sol\":5296:5308  -b / (2 * a) */\n      tag_60\n      swap2\n      swap1\n      tag_50\n      jump\t// in\n    tag_60:\n        /* \"Day-02/D2P4.sol\":5278:5308  int256 realPart = -b / (2 * a) */\n      swap1\n      pop\n        /* \"Day-02/D2P4.sol\":5407:5433  int256 sqrtAbsDiscriminant */\n      0x00\n        /* \"Day-02/D2P4.sol\":5436:5467  intSqrt(uint256(-discriminant)) */\n      tag_61\n        /* \"Day-02/D2P4.sol\":5453:5465  discriminant */\n      dup5\n        /* \"Day-02/D2P4.sol\":5452:5465  -discriminant */\n      tag_62\n      swap1\n      tag_44\n      jump\t// in\n    tag_62:\n        /* \"Day-02/D2P4.sol\":5436:5443  intSqrt */\n      tag_41\n        /* \"Day-02/D2P4.sol\":5436:5467  intSqrt(uint256(-discriminant)) */\n      jump\t// in\n    tag_61:\n        /* \"Day-02/D2P4.sol\":5407:5467  int256 sqrtAbsDiscriminant = intSqrt(uint256(-discriminant)) */\n      swap1\n      pop\n        /* \"Day-02/D2P4.sol\":5482:5502  int256 imaginaryPart */\n      0x00\n        /* \"Day-02/D2P4.sol\":5532:5533  a */\n      dup9\n        /* \"Day-02/D2P4.sol\":5528:5529  2 */\n      0x02\n        /* \"Day-02/D2P4.sol\":5528:5533  2 * a */\n      tag_63\n      swap2\n      swap1\n      tag_33\n      jump\t// in\n    tag_63:\n        /* \"Day-02/D2P4.sol\":5505:5524  sqrtAbsDiscriminant */\n      dup3\n        /* \"Day-02/D2P4.sol\":5505:5534  sqrtAbsDiscriminant / (2 * a) */\n      tag_64\n      swap2\n      swap1\n      tag_50\n      jump\t// in\n    tag_64:\n        /* \"Day-02/D2P4.sol\":5482:5534  int256 imaginaryPart = sqrtAbsDiscriminant / (2 * a) */\n      swap1\n      pop\n        /* \"Day-02/D2P4.sol\":5621:5622  0 */\n      0x00\n        /* \"Day-02/D2P4.sol\":5617:5618  a */\n      dup10\n        /* \"Day-02/D2P4.sol\":5617:5622  a < 0 */\n      slt\n        /* \"Day-02/D2P4.sol\":5613:5689  if (a < 0) {... */\n      iszero\n      tag_65\n      jumpi\n        /* \"Day-02/D2P4.sol\":5660:5673  imaginaryPart */\n      dup1\n        /* \"Day-02/D2P4.sol\":5659:5673  -imaginaryPart */\n      tag_66\n      swap1\n      tag_44\n      jump\t// in\n    tag_66:\n        /* \"Day-02/D2P4.sol\":5643:5673  imaginaryPart = -imaginaryPart */\n      swap1\n      pop\n        /* \"Day-02/D2P4.sol\":5613:5689  if (a < 0) {... */\n    tag_65:\n        /* \"Day-02/D2P4.sol\":5737:5745  realPart */\n      dup3\n        /* \"Day-02/D2P4.sol\":5717:5723  result */\n      dup5\n        /* \"Day-02/D2P4.sol\":5717:5729  result.root1 */\n      0x20\n      add\n      mload\n        /* \"Day-02/D2P4.sol\":5717:5734  result.root1.real */\n      0x00\n      add\n        /* \"Day-02/D2P4.sol\":5717:5745  result.root1.real = realPart */\n      dup2\n      dup2\n      mstore\n      pop\n      pop\n        /* \"Day-02/D2P4.sol\":5785:5798  imaginaryPart */\n      dup1\n        /* \"Day-02/D2P4.sol\":5760:5766  result */\n      dup5\n        /* \"Day-02/D2P4.sol\":5760:5772  result.root1 */\n      0x20\n      add\n      mload\n        /* \"Day-02/D2P4.sol\":5760:5782  result.root1.imaginary */\n      0x20\n      add\n        /* \"Day-02/D2P4.sol\":5760:5798  result.root1.imaginary = imaginaryPart */\n      dup2\n      dup2\n      mstore\n      pop\n      pop\n        /* \"Day-02/D2P4.sol\":5847:5855  realPart */\n      dup3\n        /* \"Day-02/D2P4.sol\":5827:5833  result */\n      dup5\n        /* \"Day-02/D2P4.sol\":5827:5839  result.root2 */\n      0x40\n      add\n      mload\n        /* \"Day-02/D2P4.sol\":5827:5844  result.root2.real */\n      0x00\n      add\n        /* \"Day-02/D2P4.sol\":5827:5855  result.root2.real = realPart */\n      dup2\n      dup2\n      mstore\n      pop\n      pop\n        /* \"Day-02/D2P4.sol\":5896:5909  imaginaryPart */\n      dup1\n        /* \"Day-02/D2P4.sol\":5895:5909  -imaginaryPart */\n      tag_67\n      swap1\n      tag_44\n      jump\t// in\n    tag_67:\n        /* \"Day-02/D2P4.sol\":5870:5876  result */\n      dup5\n        /* \"Day-02/D2P4.sol\":5870:5882  result.root2 */\n      0x40\n      add\n      mload\n        /* \"Day-02/D2P4.sol\":5870:5892  result.root2.imaginary */\n      0x20\n      add\n        /* \"Day-02/D2P4.sol\":5870:5909  result.root2.imaginary = -imaginaryPart */\n      dup2\n      dup2\n      mstore\n      pop\n      pop\n        /* \"Day-02/D2P4.sol\":5126:5921  {... */\n      pop\n      pop\n      pop\n        /* \"Day-02/D2P4.sol\":4733:5921  if (discriminant == 0) {... */\n    tag_57:\n        /* \"Day-02/D2P4.sol\":3939:5921  if (discriminant > 0) {... */\n    tag_52:\n        /* \"Day-02/D2P4.sol\":5948:5954  result */\n      dup1\n        /* \"Day-02/D2P4.sol\":5941:5954  return result */\n      swap3\n      pop\n      pop\n      pop\n        /* \"Day-02/D2P4.sol\":3604:5962  function getQuadraticRoots(int256 a, int256 b, int256 c) public pure returns (Roots memory) {... */\n      swap4\n      swap3\n      pop\n      pop\n      pop\n      jump\t// out\n        /* \"Day-02/D2P4.sol\":860:3514  function solveQuadratic(int256 a, int256 b, int256 c) public returns (Roots memory) {... */\n    tag_20:\n        /* \"Day-02/D2P4.sol\":930:942  Roots memory */\n      tag_68\n      tag_27\n      jump\t// in\n    tag_68:\n        /* \"Day-02/D2P4.sol\":968:969  0 */\n      0x00\n        /* \"Day-02/D2P4.sol\":963:964  a */\n      dup5\n        /* \"Day-02/D2P4.sol\":963:969  a != 0 */\n      sub\n        /* \"Day-02/D2P4.sol\":955:1020  require(a != 0, \"Not a quadratic equation, 'a' must not be zero\") */\n      tag_70\n      jumpi\n      mload(0x40)\n      0x08c379a000000000000000000000000000000000000000000000000000000000\n      dup2\n      mstore\n      0x04\n      add\n      tag_71\n      swap1\n      tag_31\n      jump\t// in\n    tag_71:\n      mload(0x40)\n      dup1\n      swap2\n      sub\n      swap1\n      revert\n    tag_70:\n        /* \"Day-02/D2P4.sol\":1087:1106  int256 discriminant */\n      0x00\n        /* \"Day-02/D2P4.sol\":1125:1126  c */\n      dup3\n        /* \"Day-02/D2P4.sol\":1121:1122  a */\n      dup6\n        /* \"Day-02/D2P4.sol\":1117:1118  4 */\n      0x04\n        /* \"Day-02/D2P4.sol\":1117:1122  4 * a */\n      tag_72\n      swap2\n      swap1\n      tag_33\n      jump\t// in\n    tag_72:\n        /* \"Day-02/D2P4.sol\":1117:1126  4 * a * c */\n      tag_73\n      swap2\n      swap1\n      tag_33\n      jump\t// in\n    tag_73:\n        /* \"Day-02/D2P4.sol\":1113:1114  b */\n      dup5\n        /* \"Day-02/D2P4.sol\":1109:1110  b */\n      dup6\n        /* \"Day-02/D2P4.sol\":1109:1114  b * b */\n      tag_74\n      swap2\n      swap1\n      tag_33\n      jump\t// in\n    tag_74:\n        /* \"Day-02/D2P4.sol\":1109:1126  b * b - 4 * a * c */\n      tag_75\n      swap2\n      swap1\n      tag_37\n      jump\t// in\n    tag_75:\n        /* \"Day-02/D2P4.sol\":1087:1126  int256 discriminant = b * b - 4 * a * c */\n      swap1\n      pop\n        /* \"Day-02/D2P4.sol\":1147:1166  Roots memory result */\n      tag_76\n      tag_27\n      jump\t// in\n    tag_76:\n        /* \"Day-02/D2P4.sol\":1206:1207  0 */\n      0x00\n        /* \"Day-02/D2P4.sol\":1191:1203  discriminant */\n      dup3\n        /* \"Day-02/D2P4.sol\":1191:1207  discriminant > 0 */\n      sgt\n        /* \"Day-02/D2P4.sol\":1187:3169  if (discriminant > 0) {... */\n      iszero\n      tag_77\n      jumpi\n        /* \"Day-02/D2P4.sol\":162:163  1 */\n      0x01\n        /* \"Day-02/D2P4.sol\":1255:1261  result */\n      dup2\n        /* \"Day-02/D2P4.sol\":1255:1270  result.rootType */\n      0x00\n      add\n        /* \"Day-02/D2P4.sol\":1255:1287  result.rootType = TWO_REAL_ROOTS */\n      swap1\n      0xff\n      and\n      swap1\n      dup2\n      0xff\n      and\n      dup2\n      mstore\n      pop\n      pop\n        /* \"Day-02/D2P4.sol\":1374:1397  int256 sqrtDiscriminant */\n      0x00\n        /* \"Day-02/D2P4.sol\":1400:1430  intSqrt(uint256(discriminant)) */\n      tag_78\n        /* \"Day-02/D2P4.sol\":1416:1428  discriminant */\n      dup4\n        /* \"Day-02/D2P4.sol\":1400:1407  intSqrt */\n      tag_41\n        /* \"Day-02/D2P4.sol\":1400:1430  intSqrt(uint256(discriminant)) */\n      jump\t// in\n    tag_78:\n        /* \"Day-02/D2P4.sol\":1374:1430  int256 sqrtDiscriminant = intSqrt(uint256(discriminant)) */\n      swap1\n      pop\n        /* \"Day-02/D2P4.sol\":1555:1573  int256 denominator */\n      0x00\n        /* \"Day-02/D2P4.sol\":1580:1581  a */\n      dup8\n        /* \"Day-02/D2P4.sol\":1576:1577  2 */\n      0x02\n        /* \"Day-02/D2P4.sol\":1576:1581  2 * a */\n      tag_79\n      swap2\n      swap1\n      tag_33\n      jump\t// in\n    tag_79:\n        /* \"Day-02/D2P4.sol\":1555:1581  int256 denominator = 2 * a */\n      swap1\n      pop\n        /* \"Day-02/D2P4.sol\":1596:1613  int256 numerator1 */\n      0x00\n        /* \"Day-02/D2P4.sol\":1621:1637  sqrtDiscriminant */\n      dup3\n        /* \"Day-02/D2P4.sol\":1617:1618  b */\n      dup9\n        /* \"Day-02/D2P4.sol\":1616:1618  -b */\n      tag_80\n      swap1\n      tag_44\n      jump\t// in\n    tag_80:\n        /* \"Day-02/D2P4.sol\":1616:1637  -b + sqrtDiscriminant */\n      tag_81\n      swap2\n      swap1\n      tag_46\n      jump\t// in\n    tag_81:\n        /* \"Day-02/D2P4.sol\":1596:1637  int256 numerator1 = -b + sqrtDiscriminant */\n      swap1\n      pop\n        /* \"Day-02/D2P4.sol\":1652:1669  int256 numerator2 */\n      0x00\n        /* \"Day-02/D2P4.sol\":1677:1693  sqrtDiscriminant */\n      dup4\n        /* \"Day-02/D2P4.sol\":1673:1674  b */\n      dup10\n        /* \"Day-02/D2P4.sol\":1672:1674  -b */\n      tag_82\n      swap1\n      tag_44\n      jump\t// in\n    tag_82:\n        /* \"Day-02/D2P4.sol\":1672:1693  -b - sqrtDiscriminant */\n      tag_83\n      swap2\n      swap1\n      tag_37\n      jump\t// in\n    tag_83:\n        /* \"Day-02/D2P4.sol\":1652:1693  int256 numerator2 = -b - sqrtDiscriminant */\n      swap1\n      pop\n        /* \"Day-02/D2P4.sol\":1787:1798  denominator */\n      dup3\n        /* \"Day-02/D2P4.sol\":1774:1784  numerator1 */\n      dup3\n        /* \"Day-02/D2P4.sol\":1774:1798  numerator1 / denominator */\n      tag_84\n      swap2\n      swap1\n      tag_50\n      jump\t// in\n    tag_84:\n        /* \"Day-02/D2P4.sol\":1754:1760  result */\n      dup6\n        /* \"Day-02/D2P4.sol\":1754:1766  result.root1 */\n      0x20\n      add\n      mload\n        /* \"Day-02/D2P4.sol\":1754:1771  result.root1.real */\n      0x00\n      add\n        /* \"Day-02/D2P4.sol\":1754:1798  result.root1.real = numerator1 / denominator */\n      dup2\n      dup2\n      mstore\n      pop\n      pop\n        /* \"Day-02/D2P4.sol\":1838:1839  0 */\n      0x00\n        /* \"Day-02/D2P4.sol\":1813:1819  result */\n      dup6\n        /* \"Day-02/D2P4.sol\":1813:1825  result.root1 */\n      0x20\n      add\n      mload\n        /* \"Day-02/D2P4.sol\":1813:1835  result.root1.imaginary */\n      0x20\n      add\n        /* \"Day-02/D2P4.sol\":1813:1839  result.root1.imaginary = 0 */\n      dup2\n      dup2\n      mstore\n      pop\n      pop\n        /* \"Day-02/D2P4.sol\":1901:1912  denominator */\n      dup3\n        /* \"Day-02/D2P4.sol\":1888:1898  numerator2 */\n      dup2\n        /* \"Day-02/D2P4.sol\":1888:1912  numerator2 / denominator */\n      tag_85\n      swap2\n      swap1\n      tag_50\n      jump\t// in\n    tag_85:\n        /* \"Day-02/D2P4.sol\":1868:1874  result */\n      dup6\n        /* \"Day-02/D2P4.sol\":1868:1880  result.root2 */\n      0x40\n      add\n      mload\n        /* \"Day-02/D2P4.sol\":1868:1885  result.root2.real */\n      0x00\n      add\n        /* \"Day-02/D2P4.sol\":1868:1912  result.root2.real = numerator2 / denominator */\n      dup2\n      dup2\n      mstore\n      pop\n      pop\n        /* \"Day-02/D2P4.sol\":1952:1953  0 */\n      0x00\n        /* \"Day-02/D2P4.sol\":1927:1933  result */\n      dup6\n        /* \"Day-02/D2P4.sol\":1927:1939  result.root2 */\n      0x40\n      add\n      mload\n        /* \"Day-02/D2P4.sol\":1927:1949  result.root2.imaginary */\n      0x20\n      add\n        /* \"Day-02/D2P4.sol\":1927:1953  result.root2.imaginary = 0 */\n      dup2\n      dup2\n      mstore\n      pop\n      pop\n        /* \"Day-02/D2P4.sol\":1209:1965  {... */\n      pop\n      pop\n      pop\n      pop\n        /* \"Day-02/D2P4.sol\":1187:3169  if (discriminant > 0) {... */\n      jump(tag_86)\n    tag_77:\n        /* \"Day-02/D2P4.sol\":2001:2002  0 */\n      0x00\n        /* \"Day-02/D2P4.sol\":1985:1997  discriminant */\n      dup3\n        /* \"Day-02/D2P4.sol\":1985:2002  discriminant == 0 */\n      sub\n        /* \"Day-02/D2P4.sol\":1981:3169  if (discriminant == 0) {... */\n      tag_87\n      jumpi\n        /* \"Day-02/D2P4.sol\":201:202  2 */\n      0x02\n        /* \"Day-02/D2P4.sol\":2060:2066  result */\n      dup2\n        /* \"Day-02/D2P4.sol\":2060:2075  result.rootType */\n      0x00\n      add\n        /* \"Day-02/D2P4.sol\":2060:2091  result.rootType = ONE_REAL_ROOT */\n      swap1\n      0xff\n      and\n      swap1\n      dup2\n      0xff\n      and\n      dup2\n      mstore\n      pop\n      pop\n        /* \"Day-02/D2P4.sol\":2196:2197  a */\n      dup6\n        /* \"Day-02/D2P4.sol\":2192:2193  2 */\n      0x02\n        /* \"Day-02/D2P4.sol\":2192:2197  2 * a */\n      tag_88\n      swap2\n      swap1\n      tag_33\n      jump\t// in\n    tag_88:\n        /* \"Day-02/D2P4.sol\":2187:2188  b */\n      dup6\n        /* \"Day-02/D2P4.sol\":2186:2188  -b */\n      tag_89\n      swap1\n      tag_44\n      jump\t// in\n    tag_89:\n        /* \"Day-02/D2P4.sol\":2186:2198  -b / (2 * a) */\n      tag_90\n      swap2\n      swap1\n      tag_50\n      jump\t// in\n    tag_90:\n        /* \"Day-02/D2P4.sol\":2166:2172  result */\n      dup2\n        /* \"Day-02/D2P4.sol\":2166:2178  result.root1 */\n      0x20\n      add\n      mload\n        /* \"Day-02/D2P4.sol\":2166:2183  result.root1.real */\n      0x00\n      add\n        /* \"Day-02/D2P4.sol\":2166:2198  result.root1.real = -b / (2 * a) */\n      dup2\n      dup2\n      mstore\n      pop\n      pop\n        /* \"Day-02/D2P4.sol\":2238:2239  0 */\n      0x00\n        /* \"Day-02/D2P4.sol\":2213:2219  result */\n      dup2\n        /* \"Day-02/D2P4.sol\":2213:2225  result.root1 */\n      0x20\n      add\n      mload\n        /* \"Day-02/D2P4.sol\":2213:2235  result.root1.imaginary */\n      0x20\n      add\n        /* \"Day-02/D2P4.sol\":2213:2239  result.root1.imaginary = 0 */\n      dup2\n      dup2\n      mstore\n      pop\n      pop\n        /* \"Day-02/D2P4.sol\":2288:2294  result */\n      dup1\n        /* \"Day-02/D2P4.sol\":2288:2300  result.root1 */\n      0x20\n      add\n      mload\n        /* \"Day-02/D2P4.sol\":2288:2305  result.root1.real */\n      0x00\n      add\n      mload\n        /* \"Day-02/D2P4.sol\":2268:2274  result */\n      dup2\n        /* \"Day-02/D2P4.sol\":2268:2280  result.root2 */\n      0x40\n      add\n      mload\n        /* \"Day-02/D2P4.sol\":2268:2285  result.root2.real */\n      0x00\n      add\n        /* \"Day-02/D2P4.sol\":2268:2305  result.root2.real = result.root1.real */\n      dup2\n      dup2\n      mstore\n      pop\n      pop\n        /* \"Day-02/D2P4.sol\":2345:2346  0 */\n      0x00\n        /* \"Day-02/D2P4.sol\":2320:2326  result */\n      dup2\n        /* \"Day-02/D2P4.sol\":2320:2332  result.root2 */\n      0x40\n      add\n      mload\n        /* \"Day-02/D2P4.sol\":2320:2342  result.root2.imaginary */\n      0x20\n      add\n        /* \"Day-02/D2P4.sol\":2320:2346  result.root2.imaginary = 0 */\n      dup2\n      dup2\n      mstore\n      pop\n      pop\n        /* \"Day-02/D2P4.sol\":1981:3169  if (discriminant == 0) {... */\n      jump(tag_91)\n    tag_87:\n        /* \"Day-02/D2P4.sol\":240:241  3 */\n      0x03\n        /* \"Day-02/D2P4.sol\":2419:2425  result */\n      dup2\n        /* \"Day-02/D2P4.sol\":2419:2434  result.rootType */\n      0x00\n      add\n        /* \"Day-02/D2P4.sol\":2419:2450  result.rootType = COMPLEX_ROOTS */\n      swap1\n      0xff\n      and\n      swap1\n      dup2\n      0xff\n      and\n      dup2\n      mstore\n      pop\n      pop\n        /* \"Day-02/D2P4.sol\":2526:2541  int256 realPart */\n      0x00\n        /* \"Day-02/D2P4.sol\":2554:2555  a */\n      dup7\n        /* \"Day-02/D2P4.sol\":2550:2551  2 */\n      0x02\n        /* \"Day-02/D2P4.sol\":2550:2555  2 * a */\n      tag_92\n      swap2\n      swap1\n      tag_33\n      jump\t// in\n    tag_92:\n        /* \"Day-02/D2P4.sol\":2545:2546  b */\n      dup7\n        /* \"Day-02/D2P4.sol\":2544:2546  -b */\n      tag_93\n      swap1\n      tag_44\n      jump\t// in\n    tag_93:\n        /* \"Day-02/D2P4.sol\":2544:2556  -b / (2 * a) */\n      tag_94\n      swap2\n      swap1\n      tag_50\n      jump\t// in\n    tag_94:\n        /* \"Day-02/D2P4.sol\":2526:2556  int256 realPart = -b / (2 * a) */\n      swap1\n      pop\n        /* \"Day-02/D2P4.sol\":2655:2681  int256 sqrtAbsDiscriminant */\n      0x00\n        /* \"Day-02/D2P4.sol\":2684:2715  intSqrt(uint256(-discriminant)) */\n      tag_95\n        /* \"Day-02/D2P4.sol\":2701:2713  discriminant */\n      dup5\n        /* \"Day-02/D2P4.sol\":2700:2713  -discriminant */\n      tag_96\n      swap1\n      tag_44\n      jump\t// in\n    tag_96:\n        /* \"Day-02/D2P4.sol\":2684:2691  intSqrt */\n      tag_41\n        /* \"Day-02/D2P4.sol\":2684:2715  intSqrt(uint256(-discriminant)) */\n      jump\t// in\n    tag_95:\n        /* \"Day-02/D2P4.sol\":2655:2715  int256 sqrtAbsDiscriminant = intSqrt(uint256(-discriminant)) */\n      swap1\n      pop\n        /* \"Day-02/D2P4.sol\":2730:2750  int256 imaginaryPart */\n      0x00\n        /* \"Day-02/D2P4.sol\":2780:2781  a */\n      dup9\n        /* \"Day-02/D2P4.sol\":2776:2777  2 */\n      0x02\n        /* \"Day-02/D2P4.sol\":2776:2781  2 * a */\n      tag_97\n      swap2\n      swap1\n      tag_33\n      jump\t// in\n    tag_97:\n        /* \"Day-02/D2P4.sol\":2753:2772  sqrtAbsDiscriminant */\n      dup3\n        /* \"Day-02/D2P4.sol\":2753:2782  sqrtAbsDiscriminant / (2 * a) */\n      tag_98\n      swap2\n      swap1\n      tag_50\n      jump\t// in\n    tag_98:\n        /* \"Day-02/D2P4.sol\":2730:2782  int256 imaginaryPart = sqrtAbsDiscriminant / (2 * a) */\n      swap1\n      pop\n        /* \"Day-02/D2P4.sol\":2869:2870  0 */\n      0x00\n        /* \"Day-02/D2P4.sol\":2865:2866  a */\n      dup10\n        /* \"Day-02/D2P4.sol\":2865:2870  a < 0 */\n      slt\n        /* \"Day-02/D2P4.sol\":2861:2937  if (a < 0) {... */\n      iszero\n      tag_99\n      jumpi\n        /* \"Day-02/D2P4.sol\":2908:2921  imaginaryPart */\n      dup1\n        /* \"Day-02/D2P4.sol\":2907:2921  -imaginaryPart */\n      tag_100\n      swap1\n      tag_44\n      jump\t// in\n    tag_100:\n        /* \"Day-02/D2P4.sol\":2891:2921  imaginaryPart = -imaginaryPart */\n      swap1\n      pop\n        /* \"Day-02/D2P4.sol\":2861:2937  if (a < 0) {... */\n    tag_99:\n        /* \"Day-02/D2P4.sol\":2985:2993  realPart */\n      dup3\n        /* \"Day-02/D2P4.sol\":2965:2971  result */\n      dup5\n        /* \"Day-02/D2P4.sol\":2965:2977  result.root1 */\n      0x20\n      add\n      mload\n        /* \"Day-02/D2P4.sol\":2965:2982  result.root1.real */\n      0x00\n      add\n        /* \"Day-02/D2P4.sol\":2965:2993  result.root1.real = realPart */\n      dup2\n      dup2\n      mstore\n      pop\n      pop\n        /* \"Day-02/D2P4.sol\":3033:3046  imaginaryPart */\n      dup1\n        /* \"Day-02/D2P4.sol\":3008:3014  result */\n      dup5\n        /* \"Day-02/D2P4.sol\":3008:3020  result.root1 */\n      0x20\n      add\n      mload\n        /* \"Day-02/D2P4.sol\":3008:3030  result.root1.imaginary */\n      0x20\n      add\n        /* \"Day-02/D2P4.sol\":3008:3046  result.root1.imaginary = imaginaryPart */\n      dup2\n      dup2\n      mstore\n      pop\n      pop\n        /* \"Day-02/D2P4.sol\":3095:3103  realPart */\n      dup3\n        /* \"Day-02/D2P4.sol\":3075:3081  result */\n      dup5\n        /* \"Day-02/D2P4.sol\":3075:3087  result.root2 */\n      0x40\n      add\n      mload\n        /* \"Day-02/D2P4.sol\":3075:3092  result.root2.real */\n      0x00\n      add\n        /* \"Day-02/D2P4.sol\":3075:3103  result.root2.real = realPart */\n      dup2\n      dup2\n      mstore\n      pop\n      pop\n        /* \"Day-02/D2P4.sol\":3144:3157  imaginaryPart */\n      dup1\n        /* \"Day-02/D2P4.sol\":3143:3157  -imaginaryPart */\n      tag_101\n      swap1\n      tag_44\n      jump\t// in\n    tag_101:\n        /* \"Day-02/D2P4.sol\":3118:3124  result */\n      dup5\n        /* \"Day-02/D2P4.sol\":3118:3130  result.root2 */\n      0x40\n      add\n      mload\n        /* \"Day-02/D2P4.sol\":3118:3140  result.root2.imaginary */\n      0x20\n      add\n        /* \"Day-02/D2P4.sol\":3118:3157  result.root2.imaginary = -imaginaryPart */\n      dup2\n      dup2\n      mstore\n      pop\n      pop\n        /* \"Day-02/D2P4.sol\":2374:3169  {... */\n      pop\n      pop\n      pop\n        /* \"Day-02/D2P4.sol\":1981:3169  if (discriminant == 0) {... */\n    tag_91:\n        /* \"Day-02/D2P4.sol\":1187:3169  if (discriminant > 0) {... */\n    tag_86:\n        /* \"Day-02/D2P4.sol\":3230:3472  RootsCalculated(... */\n      0x282a4dd3f7fcdd9455e832507ac510c8c48d297d15409077fb59fcbeb493e105\n        /* \"Day-02/D2P4.sol\":3260:3261  a */\n      dup7\n        /* \"Day-02/D2P4.sol\":3276:3277  b */\n      dup7\n        /* \"Day-02/D2P4.sol\":3292:3293  c */\n      dup7\n        /* \"Day-02/D2P4.sol\":3308:3314  result */\n      dup5\n        /* \"Day-02/D2P4.sol\":3308:3323  result.rootType */\n      0x00\n      add\n      mload\n        /* \"Day-02/D2P4.sol\":3338:3344  result */\n      dup6\n        /* \"Day-02/D2P4.sol\":3338:3350  result.root1 */\n      0x20\n      add\n      mload\n        /* \"Day-02/D2P4.sol\":3338:3355  result.root1.real */\n      0x00\n      add\n      mload\n        /* \"Day-02/D2P4.sol\":3370:3376  result */\n      dup7\n        /* \"Day-02/D2P4.sol\":3370:3382  result.root1 */\n      0x20\n      add\n      mload\n        /* \"Day-02/D2P4.sol\":3370:3392  result.root1.imaginary */\n      0x20\n      add\n      mload\n        /* \"Day-02/D2P4.sol\":3407:3413  result */\n      dup8\n        /* \"Day-02/D2P4.sol\":3407:3419  result.root2 */\n      0x40\n      add\n      mload\n        /* \"Day-02/D2P4.sol\":3407:3424  result.root2.real */\n      0x00\n      add\n      mload\n        /* \"Day-02/D2P4.sol\":3439:3445  result */\n      dup9\n        /* \"Day-02/D2P4.sol\":3439:3451  result.root2 */\n      0x40\n      add\n      mload\n        /* \"Day-02/D2P4.sol\":3439:3461  result.root2.imaginary */\n      0x20\n      add\n      mload\n        /* \"Day-02/D2P4.sol\":3230:3472  RootsCalculated(... */\n      mload(0x40)\n      tag_102\n      swap9\n      swap8\n      swap7\n      swap6\n      swap5\n      swap4\n      swap3\n      swap2\n      swap1\n      tag_103\n      jump\t// in\n    tag_102:\n      mload(0x40)\n      dup1\n      swap2\n      sub\n      swap1\n      log1\n        /* \"Day-02/D2P4.sol\":3500:3506  result */\n      dup1\n        /* \"Day-02/D2P4.sol\":3493:3506  return result */\n      swap3\n      pop\n      pop\n      pop\n        /* \"Day-02/D2P4.sol\":860:3514  function solveQuadratic(int256 a, int256 b, int256 c) public returns (Roots memory) {... */\n      swap4\n      swap3\n      pop\n      pop\n      pop\n      jump\t// out\n        /* \"Day-02/D2P4.sol\":6031:6421  function intSqrt(uint256 x) internal pure returns (int256) {... */\n    tag_41:\n        /* \"Day-02/D2P4.sol\":6082:6088  int256 */\n      0x00\n        /* \"Day-02/D2P4.sol\":6110:6111  0 */\n      dup1\n        /* \"Day-02/D2P4.sol\":6105:6106  x */\n      dup3\n        /* \"Day-02/D2P4.sol\":6105:6111  x == 0 */\n      sub\n        /* \"Day-02/D2P4.sol\":6101:6121  if (x == 0) return 0 */\n      tag_105\n      jumpi\n        /* \"Day-02/D2P4.sol\":6120:6121  0 */\n      0x00\n        /* \"Day-02/D2P4.sol\":6113:6121  return 0 */\n      swap1\n      pop\n      jump(tag_104)\n        /* \"Day-02/D2P4.sol\":6101:6121  if (x == 0) return 0 */\n    tag_105:\n        /* \"Day-02/D2P4.sol\":6171:6180  uint256 z */\n      0x00\n        /* \"Day-02/D2P4.sol\":6193:6194  2 */\n      0x02\n        /* \"Day-02/D2P4.sol\":6188:6189  1 */\n      0x01\n        /* \"Day-02/D2P4.sol\":6184:6185  x */\n      dup5\n        /* \"Day-02/D2P4.sol\":6184:6189  x + 1 */\n      tag_106\n      swap2\n      swap1\n      tag_107\n      jump\t// in\n    tag_106:\n        /* \"Day-02/D2P4.sol\":6183:6194  (x + 1) / 2 */\n      tag_108\n      swap2\n      swap1\n      tag_109\n      jump\t// in\n    tag_108:\n        /* \"Day-02/D2P4.sol\":6171:6194  uint256 z = (x + 1) / 2 */\n      swap1\n      pop\n        /* \"Day-02/D2P4.sol\":6205:6214  uint256 y */\n      0x00\n        /* \"Day-02/D2P4.sol\":6217:6218  x */\n      dup4\n        /* \"Day-02/D2P4.sol\":6205:6218  uint256 y = x */\n      swap1\n      pop\n        /* \"Day-02/D2P4.sol\":6297:6377  while (z < y) {... */\n    tag_110:\n        /* \"Day-02/D2P4.sol\":6308:6309  y */\n      dup1\n        /* \"Day-02/D2P4.sol\":6304:6305  z */\n      dup3\n        /* \"Day-02/D2P4.sol\":6304:6309  z < y */\n      lt\n        /* \"Day-02/D2P4.sol\":6297:6377  while (z < y) {... */\n      iszero\n      tag_111\n      jumpi\n        /* \"Day-02/D2P4.sol\":6330:6331  z */\n      dup2\n        /* \"Day-02/D2P4.sol\":6326:6331  y = z */\n      swap1\n      pop\n        /* \"Day-02/D2P4.sol\":6364:6365  2 */\n      0x02\n        /* \"Day-02/D2P4.sol\":6359:6360  z */\n      dup3\n        /* \"Day-02/D2P4.sol\":6355:6356  z */\n      dup4\n        /* \"Day-02/D2P4.sol\":6351:6352  x */\n      dup7\n        /* \"Day-02/D2P4.sol\":6351:6356  x / z */\n      tag_112\n      swap2\n      swap1\n      tag_109\n      jump\t// in\n    tag_112:\n        /* \"Day-02/D2P4.sol\":6351:6360  x / z + z */\n      tag_113\n      swap2\n      swap1\n      tag_107\n      jump\t// in\n    tag_113:\n        /* \"Day-02/D2P4.sol\":6350:6365  (x / z + z) / 2 */\n      tag_114\n      swap2\n      swap1\n      tag_109\n      jump\t// in\n    tag_114:\n        /* \"Day-02/D2P4.sol\":6346:6365  z = (x / z + z) / 2 */\n      swap2\n      pop\n        /* \"Day-02/D2P4.sol\":6297:6377  while (z < y) {... */\n      jump(tag_110)\n    tag_111:\n        /* \"Day-02/D2P4.sol\":6411:6412  y */\n      dup1\n        /* \"Day-02/D2P4.sol\":6397:6413  return int256(y) */\n      swap3\n      pop\n      pop\n      pop\n        /* \"Day-02/D2P4.sol\":6031:6421  function intSqrt(uint256 x) internal pure returns (int256) {... */\n    tag_104:\n      swap2\n      swap1\n      pop\n      jump\t// out\n    tag_27:\n      mload(0x40)\n      dup1\n      0x60\n      add\n      0x40\n      mstore\n      dup1\n      and(0xff, 0x00)\n      dup2\n      mstore\n      0x20\n      add\n      tag_115\n      tag_116\n      jump\t// in\n    tag_115:\n      dup2\n      mstore\n      0x20\n      add\n      tag_117\n      tag_116\n      jump\t// in\n    tag_117:\n      dup2\n      mstore\n      pop\n      swap1\n      jump\t// out\n    tag_116:\n      mload(0x40)\n      dup1\n      0x40\n      add\n      0x40\n      mstore\n      dup1\n      0x00\n      dup2\n      mstore\n      0x20\n      add\n      0x00\n      dup2\n      mstore\n      pop\n      swap1\n      jump\t// out\n        /* \"#utility.yul\":88:205   */\n    tag_119:\n        /* \"#utility.yul\":197:198   */\n      0x00\n        /* \"#utility.yul\":194:195   */\n      dup1\n        /* \"#utility.yul\":187:199   */\n      revert\n        /* \"#utility.yul\":334:420   */\n    tag_121:\n        /* \"#utility.yul\":369:376   */\n      0x00\n        /* \"#utility.yul\":409:413   */\n      0xff\n        /* \"#utility.yul\":402:407   */\n      dup3\n        /* \"#utility.yul\":398:414   */\n      and\n        /* \"#utility.yul\":387:414   */\n      swap1\n      pop\n        /* \"#utility.yul\":334:420   */\n      swap2\n      swap1\n      pop\n      jump\t// out\n        /* \"#utility.yul\":426:544   */\n    tag_122:\n        /* \"#utility.yul\":497:519   */\n      tag_149\n        /* \"#utility.yul\":513:518   */\n      dup2\n        /* \"#utility.yul\":497:519   */\n      tag_121\n      jump\t// in\n    tag_149:\n        /* \"#utility.yul\":490:495   */\n      dup2\n        /* \"#utility.yul\":487:520   */\n      eq\n        /* \"#utility.yul\":477:538   */\n      tag_150\n      jumpi\n        /* \"#utility.yul\":534:535   */\n      0x00\n        /* \"#utility.yul\":531:532   */\n      dup1\n        /* \"#utility.yul\":524:536   */\n      revert\n        /* \"#utility.yul\":477:538   */\n    tag_150:\n        /* \"#utility.yul\":426:544   */\n      pop\n      jump\t// out\n        /* \"#utility.yul\":550:685   */\n    tag_123:\n        /* \"#utility.yul\":594:599   */\n      0x00\n        /* \"#utility.yul\":632:638   */\n      dup2\n        /* \"#utility.yul\":619:639   */\n      calldataload\n        /* \"#utility.yul\":610:639   */\n      swap1\n      pop\n        /* \"#utility.yul\":648:679   */\n      tag_152\n        /* \"#utility.yul\":673:678   */\n      dup2\n        /* \"#utility.yul\":648:679   */\n      tag_122\n      jump\t// in\n    tag_152:\n        /* \"#utility.yul\":550:685   */\n      swap3\n      swap2\n      pop\n      pop\n      jump\t// out\n        /* \"#utility.yul\":691:1016   */\n    tag_8:\n        /* \"#utility.yul\":748:754   */\n      0x00\n        /* \"#utility.yul\":797:799   */\n      0x20\n        /* \"#utility.yul\":785:794   */\n      dup3\n        /* \"#utility.yul\":776:783   */\n      dup5\n        /* \"#utility.yul\":772:795   */\n      sub\n        /* \"#utility.yul\":768:800   */\n      slt\n        /* \"#utility.yul\":765:884   */\n      iszero\n      tag_154\n      jumpi\n        /* \"#utility.yul\":803:882   */\n      tag_155\n      tag_119\n      jump\t// in\n    tag_155:\n        /* \"#utility.yul\":765:884   */\n    tag_154:\n        /* \"#utility.yul\":923:924   */\n      0x00\n        /* \"#utility.yul\":948:999   */\n      tag_156\n        /* \"#utility.yul\":991:998   */\n      dup5\n        /* \"#utility.yul\":982:988   */\n      dup3\n        /* \"#utility.yul\":971:980   */\n      dup6\n        /* \"#utility.yul\":967:989   */\n      add\n        /* \"#utility.yul\":948:999   */\n      tag_123\n      jump\t// in\n    tag_156:\n        /* \"#utility.yul\":938:999   */\n      swap2\n      pop\n        /* \"#utility.yul\":894:1009   */\n      pop\n        /* \"#utility.yul\":691:1016   */\n      swap3\n      swap2\n      pop\n      pop\n      jump\t// out\n        /* \"#utility.yul\":1022:1121   */\n    tag_124:\n        /* \"#utility.yul\":1074:1080   */\n      0x00\n        /* \"#utility.yul\":1108:1113   */\n      dup2\n        /* \"#utility.yul\":1102:1114   */\n      mload\n        /* \"#utility.yul\":1092:1114   */\n      swap1\n      pop\n        /* \"#utility.yul\":1022:1121   */\n      swap2\n      swap1\n      pop\n      jump\t// out\n        /* \"#utility.yul\":1127:1296   */\n    tag_125:\n        /* \"#utility.yul\":1211:1222   */\n      0x00\n        /* \"#utility.yul\":1245:1251   */\n      dup3\n        /* \"#utility.yul\":1240:1243   */\n      dup3\n        /* \"#utility.yul\":1233:1252   */\n      mstore\n        /* \"#utility.yul\":1285:1289   */\n      0x20\n        /* \"#utility.yul\":1280:1283   */\n      dup3\n        /* \"#utility.yul\":1276:1290   */\n      add\n        /* \"#utility.yul\":1261:1290   */\n      swap1\n      pop\n        /* \"#utility.yul\":1127:1296   */\n      swap3\n      swap2\n      pop\n      pop\n      jump\t// out\n        /* \"#utility.yul\":1302:1441   */\n    tag_126:\n        /* \"#utility.yul\":1391:1397   */\n      dup3\n        /* \"#utility.yul\":1386:1389   */\n      dup2\n        /* \"#utility.yul\":1381:1384   */\n      dup4\n        /* \"#utility.yul\":1375:1398   */\n      mcopy\n        /* \"#utility.yul\":1432:1433   */\n      0x00\n        /* \"#utility.yul\":1423:1429   */\n      dup4\n        /* \"#utility.yul\":1418:1421   */\n      dup4\n        /* \"#utility.yul\":1414:1430   */\n      add\n        /* \"#utility.yul\":1407:1434   */\n      mstore\n        /* \"#utility.yul\":1302:1441   */\n      pop\n      pop\n      pop\n      jump\t// out\n        /* \"#utility.yul\":1447:1549   */\n    tag_127:\n        /* \"#utility.yul\":1488:1494   */\n      0x00\n        /* \"#utility.yul\":1539:1541   */\n      0x1f\n        /* \"#utility.yul\":1535:1542   */\n      not\n        /* \"#utility.yul\":1530:1532   */\n      0x1f\n        /* \"#utility.yul\":1523:1528   */\n      dup4\n        /* \"#utility.yul\":1519:1533   */\n      add\n        /* \"#utility.yul\":1515:1543   */\n      and\n        /* \"#utility.yul\":1505:1543   */\n      swap1\n      pop\n        /* \"#utility.yul\":1447:1549   */\n      swap2\n      swap1\n      pop\n      jump\t// out\n        /* \"#utility.yul\":1555:1932   */\n    tag_128:\n        /* \"#utility.yul\":1643:1646   */\n      0x00\n        /* \"#utility.yul\":1671:1710   */\n      tag_162\n        /* \"#utility.yul\":1704:1709   */\n      dup3\n        /* \"#utility.yul\":1671:1710   */\n      tag_124\n      jump\t// in\n    tag_162:\n        /* \"#utility.yul\":1726:1797   */\n      tag_163\n        /* \"#utility.yul\":1790:1796   */\n      dup2\n        /* \"#utility.yul\":1785:1788   */\n      dup6\n        /* \"#utility.yul\":1726:1797   */\n      tag_125\n      jump\t// in\n    tag_163:\n        /* \"#utility.yul\":1719:1797   */\n      swap4\n      pop\n        /* \"#utility.yul\":1806:1871   */\n      tag_164\n        /* \"#utility.yul\":1864:1870   */\n      dup2\n        /* \"#utility.yul\":1859:1862   */\n      dup6\n        /* \"#utility.yul\":1852:1856   */\n      0x20\n        /* \"#utility.yul\":1845:1850   */\n      dup7\n        /* \"#utility.yul\":1841:1857   */\n      add\n        /* \"#utility.yul\":1806:1871   */\n      tag_126\n      jump\t// in\n    tag_164:\n        /* \"#utility.yul\":1896:1925   */\n      tag_165\n        /* \"#utility.yul\":1918:1924   */\n      dup2\n        /* \"#utility.yul\":1896:1925   */\n      tag_127\n      jump\t// in\n    tag_165:\n        /* \"#utility.yul\":1891:1894   */\n      dup5\n        /* \"#utility.yul\":1887:1926   */\n      add\n        /* \"#utility.yul\":1880:1926   */\n      swap2\n      pop\n        /* \"#utility.yul\":1647:1932   */\n      pop\n        /* \"#utility.yul\":1555:1932   */\n      swap3\n      swap2\n      pop\n      pop\n      jump\t// out\n        /* \"#utility.yul\":1938:2251   */\n    tag_11:\n        /* \"#utility.yul\":2051:2055   */\n      0x00\n        /* \"#utility.yul\":2089:2091   */\n      0x20\n        /* \"#utility.yul\":2078:2087   */\n      dup3\n        /* \"#utility.yul\":2074:2092   */\n      add\n        /* \"#utility.yul\":2066:2092   */\n      swap1\n      pop\n        /* \"#utility.yul\":2138:2147   */\n      dup2\n        /* \"#utility.yul\":2132:2136   */\n      dup2\n        /* \"#utility.yul\":2128:2148   */\n      sub\n        /* \"#utility.yul\":2124:2125   */\n      0x00\n        /* \"#utility.yul\":2113:2122   */\n      dup4\n        /* \"#utility.yul\":2109:2126   */\n      add\n        /* \"#utility.yul\":2102:2149   */\n      mstore\n        /* \"#utility.yul\":2166:2244   */\n      tag_167\n        /* \"#utility.yul\":2239:2243   */\n      dup2\n        /* \"#utility.yul\":2230:2236   */\n      dup5\n        /* \"#utility.yul\":2166:2244   */\n      tag_128\n      jump\t// in\n    tag_167:\n        /* \"#utility.yul\":2158:2244   */\n      swap1\n      pop\n        /* \"#utility.yul\":1938:2251   */\n      swap3\n      swap2\n      pop\n      pop\n      jump\t// out\n        /* \"#utility.yul\":2257:2333   */\n    tag_129:\n        /* \"#utility.yul\":2293:2300   */\n      0x00\n        /* \"#utility.yul\":2322:2327   */\n      dup2\n        /* \"#utility.yul\":2311:2327   */\n      swap1\n      pop\n        /* \"#utility.yul\":2257:2333   */\n      swap2\n      swap1\n      pop\n      jump\t// out\n        /* \"#utility.yul\":2339:2459   */\n    tag_130:\n        /* \"#utility.yul\":2411:2434   */\n      tag_170\n        /* \"#utility.yul\":2428:2433   */\n      dup2\n        /* \"#utility.yul\":2411:2434   */\n      tag_129\n      jump\t// in\n    tag_170:\n        /* \"#utility.yul\":2404:2409   */\n      dup2\n        /* \"#utility.yul\":2401:2435   */\n      eq\n        /* \"#utility.yul\":2391:2453   */\n      tag_171\n      jumpi\n        /* \"#utility.yul\":2449:2450   */\n      0x00\n        /* \"#utility.yul\":2446:2447   */\n      dup1\n        /* \"#utility.yul\":2439:2451   */\n      revert\n        /* \"#utility.yul\":2391:2453   */\n    tag_171:\n        /* \"#utility.yul\":2339:2459   */\n      pop\n      jump\t// out\n        /* \"#utility.yul\":2465:2602   */\n    tag_131:\n        /* \"#utility.yul\":2510:2515   */\n      0x00\n        /* \"#utility.yul\":2548:2554   */\n      dup2\n        /* \"#utility.yul\":2535:2555   */\n      calldataload\n        /* \"#utility.yul\":2526:2555   */\n      swap1\n      pop\n        /* \"#utility.yul\":2564:2596   */\n      tag_173\n        /* \"#utility.yul\":2590:2595   */\n      dup2\n        /* \"#utility.yul\":2564:2596   */\n      tag_130\n      jump\t// in\n    tag_173:\n        /* \"#utility.yul\":2465:2602   */\n      swap3\n      swap2\n      pop\n      pop\n      jump\t// out\n        /* \"#utility.yul\":2608:3221   */\n    tag_14:\n        /* \"#utility.yul\":2682:2688   */\n      0x00\n        /* \"#utility.yul\":2690:2696   */\n      dup1\n        /* \"#utility.yul\":2698:2704   */\n      0x00\n        /* \"#utility.yul\":2747:2749   */\n      0x60\n        /* \"#utility.yul\":2735:2744   */\n      dup5\n        /* \"#utility.yul\":2726:2733   */\n      dup7\n        /* \"#utility.yul\":2722:2745   */\n      sub\n        /* \"#utility.yul\":2718:2750   */\n      slt\n        /* \"#utility.yul\":2715:2834   */\n      iszero\n      tag_175\n      jumpi\n        /* \"#utility.yul\":2753:2832   */\n      tag_176\n      tag_119\n      jump\t// in\n    tag_176:\n        /* \"#utility.yul\":2715:2834   */\n    tag_175:\n        /* \"#utility.yul\":2873:2874   */\n      0x00\n        /* \"#utility.yul\":2898:2950   */\n      tag_177\n        /* \"#utility.yul\":2942:2949   */\n      dup7\n        /* \"#utility.yul\":2933:2939   */\n      dup3\n        /* \"#utility.yul\":2922:2931   */\n      dup8\n        /* \"#utility.yul\":2918:2940   */\n      add\n        /* \"#utility.yul\":2898:2950   */\n      tag_131\n      jump\t// in\n    tag_177:\n        /* \"#utility.yul\":2888:2950   */\n      swap4\n      pop\n        /* \"#utility.yul\":2844:2960   */\n      pop\n        /* \"#utility.yul\":2999:3001   */\n      0x20\n        /* \"#utility.yul\":3025:3077   */\n      tag_178\n        /* \"#utility.yul\":3069:3076   */\n      dup7\n        /* \"#utility.yul\":3060:3066   */\n      dup3\n        /* \"#utility.yul\":3049:3058   */\n      dup8\n        /* \"#utility.yul\":3045:3067   */\n      add\n        /* \"#utility.yul\":3025:3077   */\n      tag_131\n      jump\t// in\n    tag_178:\n        /* \"#utility.yul\":3015:3077   */\n      swap3\n      pop\n        /* \"#utility.yul\":2970:3087   */\n      pop\n        /* \"#utility.yul\":3126:3128   */\n      0x40\n        /* \"#utility.yul\":3152:3204   */\n      tag_179\n        /* \"#utility.yul\":3196:3203   */\n      dup7\n        /* \"#utility.yul\":3187:3193   */\n      dup3\n        /* \"#utility.yul\":3176:3185   */\n      dup8\n        /* \"#utility.yul\":3172:3194   */\n      add\n        /* \"#utility.yul\":3152:3204   */\n      tag_131\n      jump\t// in\n    tag_179:\n        /* \"#utility.yul\":3142:3204   */\n      swap2\n      pop\n        /* \"#utility.yul\":3097:3214   */\n      pop\n        /* \"#utility.yul\":2608:3221   */\n      swap3\n      pop\n      swap3\n      pop\n      swap3\n      jump\t// out\n        /* \"#utility.yul\":3227:3329   */\n    tag_132:\n        /* \"#utility.yul\":3300:3322   */\n      tag_181\n        /* \"#utility.yul\":3316:3321   */\n      dup2\n        /* \"#utility.yul\":3300:3322   */\n      tag_121\n      jump\t// in\n    tag_181:\n        /* \"#utility.yul\":3295:3298   */\n      dup3\n        /* \"#utility.yul\":3288:3323   */\n      mstore\n        /* \"#utility.yul\":3227:3329   */\n      pop\n      pop\n      jump\t// out\n        /* \"#utility.yul\":3335:3440   */\n    tag_133:\n        /* \"#utility.yul\":3410:3433   */\n      tag_183\n        /* \"#utility.yul\":3427:3432   */\n      dup2\n        /* \"#utility.yul\":3410:3433   */\n      tag_129\n      jump\t// in\n    tag_183:\n        /* \"#utility.yul\":3405:3408   */\n      dup3\n        /* \"#utility.yul\":3398:3434   */\n      mstore\n        /* \"#utility.yul\":3335:3440   */\n      pop\n      pop\n      jump\t// out\n        /* \"#utility.yul\":3534:4028   */\n    tag_134:\n        /* \"#utility.yul\":3667:3671   */\n      0x40\n        /* \"#utility.yul\":3662:3665   */\n      dup3\n        /* \"#utility.yul\":3658:3672   */\n      add\n        /* \"#utility.yul\":3754:3758   */\n      0x00\n        /* \"#utility.yul\":3747:3752   */\n      dup3\n        /* \"#utility.yul\":3743:3759   */\n      add\n        /* \"#utility.yul\":3737:3760   */\n      mload\n        /* \"#utility.yul\":3773:3834   */\n      tag_185\n        /* \"#utility.yul\":3828:3832   */\n      0x00\n        /* \"#utility.yul\":3823:3826   */\n      dup6\n        /* \"#utility.yul\":3819:3833   */\n      add\n        /* \"#utility.yul\":3805:3817   */\n      dup3\n        /* \"#utility.yul\":3773:3834   */\n      tag_133\n      jump\t// in\n    tag_185:\n        /* \"#utility.yul\":3682:3844   */\n      pop\n        /* \"#utility.yul\":3931:3935   */\n      0x20\n        /* \"#utility.yul\":3924:3929   */\n      dup3\n        /* \"#utility.yul\":3920:3936   */\n      add\n        /* \"#utility.yul\":3914:3937   */\n      mload\n        /* \"#utility.yul\":3950:4011   */\n      tag_186\n        /* \"#utility.yul\":4005:4009   */\n      0x20\n        /* \"#utility.yul\":4000:4003   */\n      dup6\n        /* \"#utility.yul\":3996:4010   */\n      add\n        /* \"#utility.yul\":3982:3994   */\n      dup3\n        /* \"#utility.yul\":3950:4011   */\n      tag_133\n      jump\t// in\n    tag_186:\n        /* \"#utility.yul\":3854:4021   */\n      pop\n        /* \"#utility.yul\":3636:4028   */\n      pop\n        /* \"#utility.yul\":3534:4028   */\n      pop\n      pop\n      jump\t// out\n        /* \"#utility.yul\":4118:4885   */\n    tag_135:\n        /* \"#utility.yul\":4257:4261   */\n      0xa0\n        /* \"#utility.yul\":4252:4255   */\n      dup3\n        /* \"#utility.yul\":4248:4262   */\n      add\n        /* \"#utility.yul\":4348:4352   */\n      0x00\n        /* \"#utility.yul\":4341:4346   */\n      dup3\n        /* \"#utility.yul\":4337:4353   */\n      add\n        /* \"#utility.yul\":4331:4354   */\n      mload\n        /* \"#utility.yul\":4367:4426   */\n      tag_188\n        /* \"#utility.yul\":4420:4424   */\n      0x00\n        /* \"#utility.yul\":4415:4418   */\n      dup6\n        /* \"#utility.yul\":4411:4425   */\n      add\n        /* \"#utility.yul\":4397:4409   */\n      dup3\n        /* \"#utility.yul\":4367:4426   */\n      tag_132\n      jump\t// in\n    tag_188:\n        /* \"#utility.yul\":4272:4436   */\n      pop\n        /* \"#utility.yul\":4519:4523   */\n      0x20\n        /* \"#utility.yul\":4512:4517   */\n      dup3\n        /* \"#utility.yul\":4508:4524   */\n      add\n        /* \"#utility.yul\":4502:4525   */\n      mload\n        /* \"#utility.yul\":4538:4647   */\n      tag_189\n        /* \"#utility.yul\":4641:4645   */\n      0x20\n        /* \"#utility.yul\":4636:4639   */\n      dup6\n        /* \"#utility.yul\":4632:4646   */\n      add\n        /* \"#utility.yul\":4618:4630   */\n      dup3\n        /* \"#utility.yul\":4538:4647   */\n      tag_134\n      jump\t// in\n    tag_189:\n        /* \"#utility.yul\":4446:4657   */\n      pop\n        /* \"#utility.yul\":4740:4744   */\n      0x40\n        /* \"#utility.yul\":4733:4738   */\n      dup3\n        /* \"#utility.yul\":4729:4745   */\n      add\n        /* \"#utility.yul\":4723:4746   */\n      mload\n        /* \"#utility.yul\":4759:4868   */\n      tag_190\n        /* \"#utility.yul\":4862:4866   */\n      0x60\n        /* \"#utility.yul\":4857:4860   */\n      dup6\n        /* \"#utility.yul\":4853:4867   */\n      add\n        /* \"#utility.yul\":4839:4851   */\n      dup3\n        /* \"#utility.yul\":4759:4868   */\n      tag_134\n      jump\t// in\n    tag_190:\n        /* \"#utility.yul\":4667:4878   */\n      pop\n        /* \"#utility.yul\":4226:4885   */\n      pop\n        /* \"#utility.yul\":4118:4885   */\n      pop\n      pop\n      jump\t// out\n        /* \"#utility.yul\":4891:5198   */\n    tag_17:\n        /* \"#utility.yul\":5026:5030   */\n      0x00\n        /* \"#utility.yul\":5064:5067   */\n      0xa0\n        /* \"#utility.yul\":5053:5062   */\n      dup3\n        /* \"#utility.yul\":5049:5068   */\n      add\n        /* \"#utility.yul\":5041:5068   */\n      swap1\n      pop\n        /* \"#utility.yul\":5078:5191   */\n      tag_192\n        /* \"#utility.yul\":5188:5189   */\n      0x00\n        /* \"#utility.yul\":5177:5186   */\n      dup4\n        /* \"#utility.yul\":5173:5190   */\n      add\n        /* \"#utility.yul\":5164:5170   */\n      dup5\n        /* \"#utility.yul\":5078:5191   */\n      tag_135\n      jump\t// in\n    tag_192:\n        /* \"#utility.yul\":4891:5198   */\n      swap3\n      swap2\n      pop\n      pop\n      jump\t// out\n        /* \"#utility.yul\":5204:5437   */\n    tag_136:\n        /* \"#utility.yul\":5344:5378   */\n      0x4e6f74206120717561647261746963206571756174696f6e2c20276127206d75\n        /* \"#utility.yul\":5340:5341   */\n      0x00\n        /* \"#utility.yul\":5332:5338   */\n      dup3\n        /* \"#utility.yul\":5328:5342   */\n      add\n        /* \"#utility.yul\":5321:5379   */\n      mstore\n        /* \"#utility.yul\":5413:5429   */\n      0x7374206e6f74206265207a65726f000000000000000000000000000000000000\n        /* \"#utility.yul\":5408:5410   */\n      0x20\n        /* \"#utility.yul\":5400:5406   */\n      dup3\n        /* \"#utility.yul\":5396:5411   */\n      add\n        /* \"#utility.yul\":5389:5430   */\n      mstore\n        /* \"#utility.yul\":5204:5437   */\n      pop\n      jump\t// out\n        /* \"#utility.yul\":5443:5809   */\n    tag_137:\n        /* \"#utility.yul\":5585:5588   */\n      0x00\n        /* \"#utility.yul\":5606:5673   */\n      tag_195\n        /* \"#utility.yul\":5670:5672   */\n      0x2e\n        /* \"#utility.yul\":5665:5668   */\n      dup4\n        /* \"#utility.yul\":5606:5673   */\n      tag_125\n      jump\t// in\n    tag_195:\n        /* \"#utility.yul\":5599:5673   */\n      swap2\n      pop\n        /* \"#utility.yul\":5682:5775   */\n      tag_196\n        /* \"#utility.yul\":5771:5774   */\n      dup3\n        /* \"#utility.yul\":5682:5775   */\n      tag_136\n      jump\t// in\n    tag_196:\n        /* \"#utility.yul\":5800:5802   */\n      0x40\n        /* \"#utility.yul\":5795:5798   */\n      dup3\n        /* \"#utility.yul\":5791:5803   */\n      add\n        /* \"#utility.yul\":5784:5803   */\n      swap1\n      pop\n        /* \"#utility.yul\":5443:5809   */\n      swap2\n      swap1\n      pop\n      jump\t// out\n        /* \"#utility.yul\":5815:6234   */\n    tag_31:\n        /* \"#utility.yul\":5981:5985   */\n      0x00\n        /* \"#utility.yul\":6019:6021   */\n      0x20\n        /* \"#utility.yul\":6008:6017   */\n      dup3\n        /* \"#utility.yul\":6004:6022   */\n      add\n        /* \"#utility.yul\":5996:6022   */\n      swap1\n      pop\n        /* \"#utility.yul\":6068:6077   */\n      dup2\n        /* \"#utility.yul\":6062:6066   */\n      dup2\n        /* \"#utility.yul\":6058:6078   */\n      sub\n        /* \"#utility.yul\":6054:6055   */\n      0x00\n        /* \"#utility.yul\":6043:6052   */\n      dup4\n        /* \"#utility.yul\":6039:6056   */\n      add\n        /* \"#utility.yul\":6032:6079   */\n      mstore\n        /* \"#utility.yul\":6096:6227   */\n      tag_198\n        /* \"#utility.yul\":6222:6226   */\n      dup2\n        /* \"#utility.yul\":6096:6227   */\n      tag_137\n      jump\t// in\n    tag_198:\n        /* \"#utility.yul\":6088:6227   */\n      swap1\n      pop\n        /* \"#utility.yul\":5815:6234   */\n      swap2\n      swap1\n      pop\n      jump\t// out\n        /* \"#utility.yul\":6240:6420   */\n    tag_138:\n        /* \"#utility.yul\":6288:6365   */\n      0x4e487b7100000000000000000000000000000000000000000000000000000000\n        /* \"#utility.yul\":6285:6286   */\n      0x00\n        /* \"#utility.yul\":6278:6366   */\n      mstore\n        /* \"#utility.yul\":6385:6389   */\n      0x11\n        /* \"#utility.yul\":6382:6383   */\n      0x04\n        /* \"#utility.yul\":6375:6390   */\n      mstore\n        /* \"#utility.yul\":6409:6413   */\n      0x24\n        /* \"#utility.yul\":6406:6407   */\n      0x00\n        /* \"#utility.yul\":6399:6414   */\n      revert\n        /* \"#utility.yul\":6426:6982   */\n    tag_33:\n        /* \"#utility.yul\":6465:6472   */\n      0x00\n        /* \"#utility.yul\":6488:6507   */\n      tag_201\n        /* \"#utility.yul\":6505:6506   */\n      dup3\n        /* \"#utility.yul\":6488:6507   */\n      tag_129\n      jump\t// in\n    tag_201:\n        /* \"#utility.yul\":6483:6507   */\n      swap2\n      pop\n        /* \"#utility.yul\":6521:6540   */\n      tag_202\n        /* \"#utility.yul\":6538:6539   */\n      dup4\n        /* \"#utility.yul\":6521:6540   */\n      tag_129\n      jump\t// in\n    tag_202:\n        /* \"#utility.yul\":6516:6540   */\n      swap3\n      pop\n        /* \"#utility.yul\":6575:6576   */\n      dup3\n        /* \"#utility.yul\":6572:6573   */\n      dup3\n        /* \"#utility.yul\":6568:6577   */\n      mul\n        /* \"#utility.yul\":6597:6626   */\n      tag_203\n        /* \"#utility.yul\":6614:6625   */\n      dup2\n        /* \"#utility.yul\":6597:6626   */\n      tag_129\n      jump\t// in\n    tag_203:\n        /* \"#utility.yul\":6586:6626   */\n      swap2\n      pop\n        /* \"#utility.yul\":6684:6750   */\n      0x8000000000000000000000000000000000000000000000000000000000000000\n        /* \"#utility.yul\":6681:6682   */\n      dup5\n        /* \"#utility.yul\":6678:6751   */\n      eq\n        /* \"#utility.yul\":6674:6675   */\n      0x00\n        /* \"#utility.yul\":6671:6672   */\n      dup5\n        /* \"#utility.yul\":6667:6676   */\n      slt\n        /* \"#utility.yul\":6663:6752   */\n      and\n        /* \"#utility.yul\":6660:6775   */\n      iszero\n      tag_204\n      jumpi\n        /* \"#utility.yul\":6755:6773   */\n      tag_205\n      tag_138\n      jump\t// in\n    tag_205:\n        /* \"#utility.yul\":6660:6775   */\n    tag_204:\n        /* \"#utility.yul\":6925:6926   */\n      dup3\n        /* \"#utility.yul\":6916:6923   */\n      dup3\n        /* \"#utility.yul\":6911:6927   */\n      sdiv\n        /* \"#utility.yul\":6908:6909   */\n      dup5\n        /* \"#utility.yul\":6905:6928   */\n      eq\n        /* \"#utility.yul\":6885:6886   */\n      dup4\n        /* \"#utility.yul\":6878:6887   */\n      iszero\n        /* \"#utility.yul\":6858:6942   */\n      or\n        /* \"#utility.yul\":6835:6975   */\n      tag_206\n      jumpi\n        /* \"#utility.yul\":6955:6973   */\n      tag_207\n      tag_138\n      jump\t// in\n    tag_207:\n        /* \"#utility.yul\":6835:6975   */\n    tag_206:\n        /* \"#utility.yul\":6473:6982   */\n      pop\n        /* \"#utility.yul\":6426:6982   */\n      swap3\n      swap2\n      pop\n      pop\n      jump\t// out\n        /* \"#utility.yul\":6988:7360   */\n    tag_37:\n        /* \"#utility.yul\":7027:7031   */\n      0x00\n        /* \"#utility.yul\":7047:7066   */\n      tag_209\n        /* \"#utility.yul\":7064:7065   */\n      dup3\n        /* \"#utility.yul\":7047:7066   */\n      tag_129\n      jump\t// in\n    tag_209:\n        /* \"#utility.yul\":7042:7066   */\n      swap2\n      pop\n        /* \"#utility.yul\":7080:7099   */\n      tag_210\n        /* \"#utility.yul\":7097:7098   */\n      dup4\n        /* \"#utility.yul\":7080:7099   */\n      tag_129\n      jump\t// in\n    tag_210:\n        /* \"#utility.yul\":7075:7099   */\n      swap3\n      pop\n        /* \"#utility.yul\":7123:7124   */\n      dup3\n        /* \"#utility.yul\":7120:7121   */\n      dup3\n        /* \"#utility.yul\":7116:7125   */\n      sub\n        /* \"#utility.yul\":7108:7125   */\n      swap1\n      pop\n        /* \"#utility.yul\":7317:7318   */\n      dup2\n        /* \"#utility.yul\":7311:7315   */\n      dup2\n        /* \"#utility.yul\":7307:7319   */\n      slt\n        /* \"#utility.yul\":7303:7304   */\n      0x00\n        /* \"#utility.yul\":7300:7301   */\n      dup5\n        /* \"#utility.yul\":7296:7305   */\n      slt\n        /* \"#utility.yul\":7292:7320   */\n      and\n        /* \"#utility.yul\":7275:7276   */\n      dup3\n        /* \"#utility.yul\":7269:7273   */\n      dup3\n        /* \"#utility.yul\":7265:7277   */\n      sgt\n        /* \"#utility.yul\":7260:7261   */\n      0x00\n        /* \"#utility.yul\":7257:7258   */\n      dup6\n        /* \"#utility.yul\":7253:7262   */\n      slt\n        /* \"#utility.yul\":7246:7263   */\n      iszero\n        /* \"#utility.yul\":7242:7278   */\n      and\n        /* \"#utility.yul\":7226:7330   */\n      or\n        /* \"#utility.yul\":7223:7353   */\n      iszero\n      tag_211\n      jumpi\n        /* \"#utility.yul\":7333:7351   */\n      tag_212\n      tag_138\n      jump\t// in\n    tag_212:\n        /* \"#utility.yul\":7223:7353   */\n    tag_211:\n        /* \"#utility.yul\":6988:7360   */\n      swap3\n      swap2\n      pop\n      pop\n      jump\t// out\n        /* \"#utility.yul\":7366:7594   */\n    tag_44:\n        /* \"#utility.yul\":7401:7404   */\n      0x00\n        /* \"#utility.yul\":7424:7447   */\n      tag_214\n        /* \"#utility.yul\":7441:7446   */\n      dup3\n        /* \"#utility.yul\":7424:7447   */\n      tag_129\n      jump\t// in\n    tag_214:\n        /* \"#utility.yul\":7415:7447   */\n      swap2\n      pop\n        /* \"#utility.yul\":7469:7535   */\n      0x8000000000000000000000000000000000000000000000000000000000000000\n        /* \"#utility.yul\":7462:7467   */\n      dup3\n        /* \"#utility.yul\":7459:7536   */\n      sub\n        /* \"#utility.yul\":7456:7559   */\n      tag_215\n      jumpi\n        /* \"#utility.yul\":7539:7557   */\n      tag_216\n      tag_138\n      jump\t// in\n    tag_216:\n        /* \"#utility.yul\":7456:7559   */\n    tag_215:\n        /* \"#utility.yul\":7582:7587   */\n      dup2\n        /* \"#utility.yul\":7579:7580   */\n      0x00\n        /* \"#utility.yul\":7575:7588   */\n      sub\n        /* \"#utility.yul\":7568:7588   */\n      swap1\n      pop\n        /* \"#utility.yul\":7366:7594   */\n      swap2\n      swap1\n      pop\n      jump\t// out\n        /* \"#utility.yul\":7600:7975   */\n    tag_46:\n        /* \"#utility.yul\":7639:7642   */\n      0x00\n        /* \"#utility.yul\":7658:7677   */\n      tag_218\n        /* \"#utility.yul\":7675:7676   */\n      dup3\n        /* \"#utility.yul\":7658:7677   */\n      tag_129\n      jump\t// in\n    tag_218:\n        /* \"#utility.yul\":7653:7677   */\n      swap2\n      pop\n        /* \"#utility.yul\":7691:7710   */\n      tag_219\n        /* \"#utility.yul\":7708:7709   */\n      dup4\n        /* \"#utility.yul\":7691:7710   */\n      tag_129\n      jump\t// in\n    tag_219:\n        /* \"#utility.yul\":7686:7710   */\n      swap3\n      pop\n        /* \"#utility.yul\":7733:7734   */\n      dup3\n        /* \"#utility.yul\":7730:7731   */\n      dup3\n        /* \"#utility.yul\":7726:7735   */\n      add\n        /* \"#utility.yul\":7719:7735   */\n      swap1\n      pop\n        /* \"#utility.yul\":7931:7932   */\n      dup3\n        /* \"#utility.yul\":7926:7929   */\n      dup2\n        /* \"#utility.yul\":7922:7933   */\n      slt\n        /* \"#utility.yul\":7915:7934   */\n      iszero\n        /* \"#utility.yul\":7911:7912   */\n      0x00\n        /* \"#utility.yul\":7908:7909   */\n      dup4\n        /* \"#utility.yul\":7904:7913   */\n      slt\n        /* \"#utility.yul\":7900:7935   */\n      and\n        /* \"#utility.yul\":7883:7884   */\n      dup4\n        /* \"#utility.yul\":7878:7881   */\n      dup3\n        /* \"#utility.yul\":7874:7885   */\n      slt\n        /* \"#utility.yul\":7869:7870   */\n      0x00\n        /* \"#utility.yul\":7866:7867   */\n      dup5\n        /* \"#utility.yul\":7862:7871   */\n      slt\n        /* \"#utility.yul\":7855:7872   */\n      iszero\n        /* \"#utility.yul\":7851:7886   */\n      and\n        /* \"#utility.yul\":7835:7945   */\n      or\n        /* \"#utility.yul\":7832:7968   */\n      iszero\n      tag_220\n      jumpi\n        /* \"#utility.yul\":7948:7966   */\n      tag_221\n      tag_138\n      jump\t// in\n    tag_221:\n        /* \"#utility.yul\":7832:7968   */\n    tag_220:\n        /* \"#utility.yul\":7600:7975   */\n      swap3\n      swap2\n      pop\n      pop\n      jump\t// out\n        /* \"#utility.yul\":7981:8161   */\n    tag_139:\n        /* \"#utility.yul\":8029:8106   */\n      0x4e487b7100000000000000000000000000000000000000000000000000000000\n        /* \"#utility.yul\":8026:8027   */\n      0x00\n        /* \"#utility.yul\":8019:8107   */\n      mstore\n        /* \"#utility.yul\":8126:8130   */\n      0x12\n        /* \"#utility.yul\":8123:8124   */\n      0x04\n        /* \"#utility.yul\":8116:8131   */\n      mstore\n        /* \"#utility.yul\":8150:8154   */\n      0x24\n        /* \"#utility.yul\":8147:8148   */\n      0x00\n        /* \"#utility.yul\":8140:8155   */\n      revert\n        /* \"#utility.yul\":8167:8552   */\n    tag_50:\n        /* \"#utility.yul\":8206:8207   */\n      0x00\n        /* \"#utility.yul\":8223:8242   */\n      tag_224\n        /* \"#utility.yul\":8240:8241   */\n      dup3\n        /* \"#utility.yul\":8223:8242   */\n      tag_129\n      jump\t// in\n    tag_224:\n        /* \"#utility.yul\":8218:8242   */\n      swap2\n      pop\n        /* \"#utility.yul\":8256:8275   */\n      tag_225\n        /* \"#utility.yul\":8273:8274   */\n      dup4\n        /* \"#utility.yul\":8256:8275   */\n      tag_129\n      jump\t// in\n    tag_225:\n        /* \"#utility.yul\":8251:8275   */\n      swap3\n      pop\n        /* \"#utility.yul\":8294:8295   */\n      dup3\n        /* \"#utility.yul\":8284:8319   */\n      tag_226\n      jumpi\n        /* \"#utility.yul\":8299:8317   */\n      tag_227\n      tag_139\n      jump\t// in\n    tag_227:\n        /* \"#utility.yul\":8284:8319   */\n    tag_226:\n        /* \"#utility.yul\":8485:8486   */\n      0x01\n        /* \"#utility.yul\":8482:8483   */\n      0x00\n        /* \"#utility.yul\":8478:8487   */\n      sub\n        /* \"#utility.yul\":8475:8476   */\n      dup4\n        /* \"#utility.yul\":8472:8488   */\n      eq\n        /* \"#utility.yul\":8391:8457   */\n      0x8000000000000000000000000000000000000000000000000000000000000000\n        /* \"#utility.yul\":8388:8389   */\n      dup4\n        /* \"#utility.yul\":8385:8458   */\n      eq\n        /* \"#utility.yul\":8368:8498   */\n      and\n        /* \"#utility.yul\":8365:8521   */\n      iszero\n      tag_228\n      jumpi\n        /* \"#utility.yul\":8501:8519   */\n      tag_229\n      tag_138\n      jump\t// in\n    tag_229:\n        /* \"#utility.yul\":8365:8521   */\n    tag_228:\n        /* \"#utility.yul\":8544:8545   */\n      dup3\n        /* \"#utility.yul\":8541:8542   */\n      dup3\n        /* \"#utility.yul\":8536:8546   */\n      sdiv\n        /* \"#utility.yul\":8531:8546   */\n      swap1\n      pop\n        /* \"#utility.yul\":8167:8552   */\n      swap3\n      swap2\n      pop\n      pop\n      jump\t// out\n        /* \"#utility.yul\":8558:8673   */\n    tag_140:\n        /* \"#utility.yul\":8643:8666   */\n      tag_231\n        /* \"#utility.yul\":8660:8665   */\n      dup2\n        /* \"#utility.yul\":8643:8666   */\n      tag_129\n      jump\t// in\n    tag_231:\n        /* \"#utility.yul\":8638:8641   */\n      dup3\n        /* \"#utility.yul\":8631:8667   */\n      mstore\n        /* \"#utility.yul\":8558:8673   */\n      pop\n      pop\n      jump\t// out\n        /* \"#utility.yul\":8679:8791   */\n    tag_141:\n        /* \"#utility.yul\":8762:8784   */\n      tag_233\n        /* \"#utility.yul\":8778:8783   */\n      dup2\n        /* \"#utility.yul\":8762:8784   */\n      tag_121\n      jump\t// in\n    tag_233:\n        /* \"#utility.yul\":8757:8760   */\n      dup3\n        /* \"#utility.yul\":8750:8785   */\n      mstore\n        /* \"#utility.yul\":8679:8791   */\n      pop\n      pop\n      jump\t// out\n        /* \"#utility.yul\":8797:9758   */\n    tag_103:\n        /* \"#utility.yul\":9068:9072   */\n      0x00\n        /* \"#utility.yul\":9106:9109   */\n      0x0100\n        /* \"#utility.yul\":9095:9104   */\n      dup3\n        /* \"#utility.yul\":9091:9110   */\n      add\n        /* \"#utility.yul\":9083:9110   */\n      swap1\n      pop\n        /* \"#utility.yul\":9120:9189   */\n      tag_235\n        /* \"#utility.yul\":9186:9187   */\n      0x00\n        /* \"#utility.yul\":9175:9184   */\n      dup4\n        /* \"#utility.yul\":9171:9188   */\n      add\n        /* \"#utility.yul\":9162:9168   */\n      dup12\n        /* \"#utility.yul\":9120:9189   */\n      tag_140\n      jump\t// in\n    tag_235:\n        /* \"#utility.yul\":9199:9269   */\n      tag_236\n        /* \"#utility.yul\":9265:9267   */\n      0x20\n        /* \"#utility.yul\":9254:9263   */\n      dup4\n        /* \"#utility.yul\":9250:9268   */\n      add\n        /* \"#utility.yul\":9241:9247   */\n      dup11\n        /* \"#utility.yul\":9199:9269   */\n      tag_140\n      jump\t// in\n    tag_236:\n        /* \"#utility.yul\":9279:9349   */\n      tag_237\n        /* \"#utility.yul\":9345:9347   */\n      0x40\n        /* \"#utility.yul\":9334:9343   */\n      dup4\n        /* \"#utility.yul\":9330:9348   */\n      add\n        /* \"#utility.yul\":9321:9327   */\n      dup10\n        /* \"#utility.yul\":9279:9349   */\n      tag_140\n      jump\t// in\n    tag_237:\n        /* \"#utility.yul\":9359:9427   */\n      tag_238\n        /* \"#utility.yul\":9423:9425   */\n      0x60\n        /* \"#utility.yul\":9412:9421   */\n      dup4\n        /* \"#utility.yul\":9408:9426   */\n      add\n        /* \"#utility.yul\":9399:9405   */\n      dup9\n        /* \"#utility.yul\":9359:9427   */\n      tag_141\n      jump\t// in\n    tag_238:\n        /* \"#utility.yul\":9437:9508   */\n      tag_239\n        /* \"#utility.yul\":9503:9506   */\n      0x80\n        /* \"#utility.yul\":9492:9501   */\n      dup4\n        /* \"#utility.yul\":9488:9507   */\n      add\n        /* \"#utility.yul\":9479:9485   */\n      dup8\n        /* \"#utility.yul\":9437:9508   */\n      tag_140\n      jump\t// in\n    tag_239:\n        /* \"#utility.yul\":9518:9589   */\n      tag_240\n        /* \"#utility.yul\":9584:9587   */\n      0xa0\n        /* \"#utility.yul\":9573:9582   */\n      dup4\n        /* \"#utility.yul\":9569:9588   */\n      add\n        /* \"#utility.yul\":9560:9566   */\n      dup7\n        /* \"#utility.yul\":9518:9589   */\n      tag_140\n      jump\t// in\n    tag_240:\n        /* \"#utility.yul\":9599:9670   */\n      tag_241\n        /* \"#utility.yul\":9665:9668   */\n      0xc0\n        /* \"#utility.yul\":9654:9663   */\n      dup4\n        /* \"#utility.yul\":9650:9669   */\n      add\n        /* \"#utility.yul\":9641:9647   */\n      dup6\n        /* \"#utility.yul\":9599:9670   */\n      tag_140\n      jump\t// in\n    tag_241:\n        /* \"#utility.yul\":9680:9751   */\n      tag_242\n        /* \"#utility.yul\":9746:9749   */\n      0xe0\n        /* \"#utility.yul\":9735:9744   */\n      dup4\n        /* \"#utility.yul\":9731:9750   */\n      add\n        /* \"#utility.yul\":9722:9728   */\n      dup5\n        /* \"#utility.yul\":9680:9751   */\n      tag_140\n      jump\t// in\n    tag_242:\n        /* \"#utility.yul\":8797:9758   */\n      swap10\n      swap9\n      pop\n      pop\n      pop\n      pop\n      pop\n      pop\n      pop\n      pop\n      pop\n      jump\t// out\n        /* \"#utility.yul\":9764:9841   */\n    tag_142:\n        /* \"#utility.yul\":9801:9808   */\n      0x00\n        /* \"#utility.yul\":9830:9835   */\n      dup2\n        /* \"#utility.yul\":9819:9835   */\n      swap1\n      pop\n        /* \"#utility.yul\":9764:9841   */\n      swap2\n      swap1\n      pop\n      jump\t// out\n        /* \"#utility.yul\":9847:10038   */\n    tag_107:\n        /* \"#utility.yul\":9887:9890   */\n      0x00\n        /* \"#utility.yul\":9906:9926   */\n      tag_245\n        /* \"#utility.yul\":9924:9925   */\n      dup3\n        /* \"#utility.yul\":9906:9926   */\n      tag_142\n      jump\t// in\n    tag_245:\n        /* \"#utility.yul\":9901:9926   */\n      swap2\n      pop\n        /* \"#utility.yul\":9940:9960   */\n      tag_246\n        /* \"#utility.yul\":9958:9959   */\n      dup4\n        /* \"#utility.yul\":9940:9960   */\n      tag_142\n      jump\t// in\n    tag_246:\n        /* \"#utility.yul\":9935:9960   */\n      swap3\n      pop\n        /* \"#utility.yul\":9983:9984   */\n      dup3\n        /* \"#utility.yul\":9980:9981   */\n      dup3\n        /* \"#utility.yul\":9976:9985   */\n      add\n        /* \"#utility.yul\":9969:9985   */\n      swap1\n      pop\n        /* \"#utility.yul\":10004:10007   */\n      dup1\n        /* \"#utility.yul\":10001:10002   */\n      dup3\n        /* \"#utility.yul\":9998:10008   */\n      gt\n        /* \"#utility.yul\":9995:10031   */\n      iszero\n      tag_247\n      jumpi\n        /* \"#utility.yul\":10011:10029   */\n      tag_248\n      tag_138\n      jump\t// in\n    tag_248:\n        /* \"#utility.yul\":9995:10031   */\n    tag_247:\n        /* \"#utility.yul\":9847:10038   */\n      swap3\n      swap2\n      pop\n      pop\n      jump\t// out\n        /* \"#utility.yul\":10044:10229   */\n    tag_109:\n        /* \"#utility.yul\":10084:10085   */\n      0x00\n        /* \"#utility.yul\":10101:10121   */\n      tag_250\n        /* \"#utility.yul\":10119:10120   */\n      dup3\n        /* \"#utility.yul\":10101:10121   */\n      tag_142\n      jump\t// in\n    tag_250:\n        /* \"#utility.yul\":10096:10121   */\n      swap2\n      pop\n        /* \"#utility.yul\":10135:10155   */\n      tag_251\n        /* \"#utility.yul\":10153:10154   */\n      dup4\n        /* \"#utility.yul\":10135:10155   */\n      tag_142\n      jump\t// in\n    tag_251:\n        /* \"#utility.yul\":10130:10155   */\n      swap3\n      pop\n        /* \"#utility.yul\":10174:10175   */\n      dup3\n        /* \"#utility.yul\":10164:10199   */\n      tag_252\n      jumpi\n        /* \"#utility.yul\":10179:10197   */\n      tag_253\n      tag_139\n      jump\t// in\n    tag_253:\n        /* \"#utility.yul\":10164:10199   */\n    tag_252:\n        /* \"#utility.yul\":10221:10222   */\n      dup3\n        /* \"#utility.yul\":10218:10219   */\n      dup3\n        /* \"#utility.yul\":10214:10223   */\n      div\n        /* \"#utility.yul\":10209:10223   */\n      swap1\n      pop\n        /* \"#utility.yul\":10044:10229   */\n      swap3\n      swap2\n      pop\n      pop\n      jump\t// out\n\n    auxdata: 0xa2646970667358221220a62027aee1cb45044821e121b415353ec1870620133a1c7e816764a830c9304d64736f6c634300081a0033\n}\n",
				"bytecode": {
					"linkReferences": {},
					"object": "6080604052348015600e575f80fd5b50610dff8061001c5f395ff3fe608060405234801561000f575f80fd5b506004361061003f575f3560e01c80633204c3a8146100435780637482670814610073578063872339bd146100a3575b5f80fd5b61005d60048036038101906100589190610854565b6100d3565b60405161006a91906108ef565b60405180910390f35b61008d60048036038101906100889190610942565b6101f4565b60405161009a9190610a1d565b60405180910390f35b6100bd60048036038101906100b89190610942565b610478565b6040516100ca9190610a1d565b60405180910390f35b6060600160ff168260ff1603610120576040518060400160405280600e81526020017f54776f205265616c20526f6f747300000000000000000000000000000000000081525090506101ef565b600260ff168260ff160361016b576040518060400160405280600d81526020017f4f6e65205265616c20526f6f740000000000000000000000000000000000000081525090506101ef565b600360ff168260ff16036101b6576040518060400160405280600d81526020017f436f6d706c657820526f6f74730000000000000000000000000000000000000081525090506101ef565b6040518060400160405280600781526020017f556e6b6e6f776e0000000000000000000000000000000000000000000000000081525090505b919050565b6101fc6107d3565b5f840361023e576040517f08c379a000000000000000000000000000000000000000000000000000000000815260040161023590610aa6565b60405180910390fd5b5f8285600461024d9190610af1565b6102579190610af1565b84856102639190610af1565b61026d9190610b67565b90506102776107d3565b5f821315610332576001815f019060ff16908160ff16815250505f61029b83610762565b90505f8760026102ab9190610af1565b90505f82886102b990610ba7565b6102c39190610bed565b90505f83896102d190610ba7565b6102db9190610b67565b905082826102e99190610c5b565b85602001515f0181815250505f85602001516020018181525050828161030f9190610c5b565b85604001515f0181815250505f856040015160200181815250505050505061046c565b5f82036103ad576002815f019060ff16908160ff16815250508560026103589190610af1565b8561036290610ba7565b61036c9190610c5b565b81602001515f0181815250505f8160200151602001818152505080602001515f015181604001515f0181815250505f8160400151602001818152505061046b565b6003815f019060ff16908160ff16815250505f8660026103cd9190610af1565b866103d790610ba7565b6103e19190610c5b565b90505f6103f6846103f190610ba7565b610762565b90505f8860026104069190610af1565b826104119190610c5b565b90505f891215610428578061042590610ba7565b90505b8284602001515f01818152505080846020015160200181815250508284604001515f0181815250508061045a90610ba7565b846040015160200181815250505050505b5b80925050509392505050565b6104806107d3565b5f84036104c2576040517f08c379a00000000000000000000000000000000000000000000000000000000081526004016104b990610aa6565b60405180910390fd5b5f828560046104d19190610af1565b6104db9190610af1565b84856104e79190610af1565b6104f19190610b67565b90506104fb6107d3565b5f8213156105b6576001815f019060ff16908160ff16815250505f61051f83610762565b90505f87600261052f9190610af1565b90505f828861053d90610ba7565b6105479190610bed565b90505f838961055590610ba7565b61055f9190610b67565b9050828261056d9190610c5b565b85602001515f0181815250505f8560200151602001818152505082816105939190610c5b565b85604001515f0181815250505f85604001516020018181525050505050506106f0565b5f8203610631576002815f019060ff16908160ff16815250508560026105dc9190610af1565b856105e690610ba7565b6105f09190610c5b565b81602001515f0181815250505f8160200151602001818152505080602001515f015181604001515f0181815250505f816040015160200181815250506106ef565b6003815f019060ff16908160ff16815250505f8660026106519190610af1565b8661065b90610ba7565b6106659190610c5b565b90505f61067a8461067590610ba7565b610762565b90505f88600261068a9190610af1565b826106959190610c5b565b90505f8912156106ac57806106a990610ba7565b90505b8284602001515f01818152505080846020015160200181815250508284604001515f018181525050806106de90610ba7565b846040015160200181815250505050505b5b7f282a4dd3f7fcdd9455e832507ac510c8c48d297d15409077fb59fcbeb493e105868686845f015185602001515f015186602001516020015187604001515f015188604001516020015160405161074e989796959493929190610ce1565b60405180910390a180925050509392505050565b5f808203610772575f90506107ce565b5f60026001846107829190610d66565b61078c9190610d99565b90505f8390505b808210156107c85781905060028283866107ad9190610d99565b6107b79190610d66565b6107c19190610d99565b9150610793565b80925050505b919050565b60405180606001604052805f60ff1681526020016107ef610802565b81526020016107fc610802565b81525090565b60405180604001604052805f81526020015f81525090565b5f80fd5b5f60ff82169050919050565b6108338161081e565b811461083d575f80fd5b50565b5f8135905061084e8161082a565b92915050565b5f602082840312156108695761086861081a565b5b5f61087684828501610840565b91505092915050565b5f81519050919050565b5f82825260208201905092915050565b8281835e5f83830152505050565b5f601f19601f8301169050919050565b5f6108c18261087f565b6108cb8185610889565b93506108db818560208601610899565b6108e4816108a7565b840191505092915050565b5f6020820190508181035f83015261090781846108b7565b905092915050565b5f819050919050565b6109218161090f565b811461092b575f80fd5b50565b5f8135905061093c81610918565b92915050565b5f805f606084860312156109595761095861081a565b5b5f6109668682870161092e565b93505060206109778682870161092e565b92505060406109888682870161092e565b9150509250925092565b61099b8161081e565b82525050565b6109aa8161090f565b82525050565b604082015f8201516109c45f8501826109a1565b5060208201516109d760208501826109a1565b50505050565b60a082015f8201516109f15f850182610992565b506020820151610a0460208501826109b0565b506040820151610a1760608501826109b0565b50505050565b5f60a082019050610a305f8301846109dd565b92915050565b7f4e6f74206120717561647261746963206571756174696f6e2c20276127206d755f8201527f7374206e6f74206265207a65726f000000000000000000000000000000000000602082015250565b5f610a90602e83610889565b9150610a9b82610a36565b604082019050919050565b5f6020820190508181035f830152610abd81610a84565b9050919050565b7f4e487b71000000000000000000000000000000000000000000000000000000005f52601160045260245ffd5b5f610afb8261090f565b9150610b068361090f565b9250828202610b148161090f565b91507f800000000000000000000000000000000000000000000000000000000000000084145f84121615610b4b57610b4a610ac4565b5b8282058414831517610b6057610b5f610ac4565b5b5092915050565b5f610b718261090f565b9150610b7c8361090f565b925082820390508181125f8412168282135f851215161715610ba157610ba0610ac4565b5b92915050565b5f610bb18261090f565b91507f80000000000000000000000000000000000000000000000000000000000000008203610be357610be2610ac4565b5b815f039050919050565b5f610bf78261090f565b9150610c028361090f565b92508282019050828112155f8312168382125f841215161715610c2857610c27610ac4565b5b92915050565b7f4e487b71000000000000000000000000000000000000000000000000000000005f52601260045260245ffd5b5f610c658261090f565b9150610c708361090f565b925082610c8057610c7f610c2e565b5b60015f0383147f800000000000000000000000000000000000000000000000000000000000000083141615610cb857610cb7610ac4565b5b828205905092915050565b610ccc8161090f565b82525050565b610cdb8161081e565b82525050565b5f61010082019050610cf55f83018b610cc3565b610d02602083018a610cc3565b610d0f6040830189610cc3565b610d1c6060830188610cd2565b610d296080830187610cc3565b610d3660a0830186610cc3565b610d4360c0830185610cc3565b610d5060e0830184610cc3565b9998505050505050505050565b5f819050919050565b5f610d7082610d5d565b9150610d7b83610d5d565b9250828201905080821115610d9357610d92610ac4565b5b92915050565b5f610da382610d5d565b9150610dae83610d5d565b925082610dbe57610dbd610c2e565b5b82820490509291505056fea2646970667358221220a62027aee1cb45044821e121b415353ec1870620133a1c7e816764a830c9304d64736f6c634300081a0033",
					"opcodes": "PUSH1 0x80 PUSH1 0x40 MSTORE CALLVALUE DUP1 ISZERO PUSH1 0xE JUMPI PUSH0 DUP1 REVERT JUMPDEST POP PUSH2 0xDFF DUP1 PUSH2 0x1C PUSH0 CODECOPY PUSH0 RETURN INVALID PUSH1 0x80 PUSH1 0x40 MSTORE CALLVALUE DUP1 ISZERO PUSH2 0xF JUMPI PUSH0 DUP1 REVERT JUMPDEST POP PUSH1 0x4 CALLDATASIZE LT PUSH2 0x3F JUMPI PUSH0 CALLDATALOAD PUSH1 0xE0 SHR DUP1 PUSH4 0x3204C3A8 EQ PUSH2 0x43 JUMPI DUP1 PUSH4 0x74826708 EQ PUSH2 0x73 JUMPI DUP1 PUSH4 0x872339BD EQ PUSH2 0xA3 JUMPI JUMPDEST PUSH0 DUP1 REVERT JUMPDEST PUSH2 0x5D PUSH1 0x4 DUP1 CALLDATASIZE SUB DUP2 ADD SWAP1 PUSH2 0x58 SWAP2 SWAP1 PUSH2 0x854 JUMP JUMPDEST PUSH2 0xD3 JUMP JUMPDEST PUSH1 0x40 MLOAD PUSH2 0x6A SWAP2 SWAP1 PUSH2 0x8EF JUMP JUMPDEST PUSH1 0x40 MLOAD DUP1 SWAP2 SUB SWAP1 RETURN JUMPDEST PUSH2 0x8D PUSH1 0x4 DUP1 CALLDATASIZE SUB DUP2 ADD SWAP1 PUSH2 0x88 SWAP2 SWAP1 PUSH2 0x942 JUMP JUMPDEST PUSH2 0x1F4 JUMP JUMPDEST PUSH1 0x40 MLOAD PUSH2 0x9A SWAP2 SWAP1 PUSH2 0xA1D JUMP JUMPDEST PUSH1 0x40 MLOAD DUP1 SWAP2 SUB SWAP1 RETURN JUMPDEST PUSH2 0xBD PUSH1 0x4 DUP1 CALLDATASIZE SUB DUP2 ADD SWAP1 PUSH2 0xB8 SWAP2 SWAP1 PUSH2 0x942 JUMP JUMPDEST PUSH2 0x478 JUMP JUMPDEST PUSH1 0x40 MLOAD PUSH2 0xCA SWAP2 SWAP1 PUSH2 0xA1D JUMP JUMPDEST PUSH1 0x40 MLOAD DUP1 SWAP2 SUB SWAP1 RETURN JUMPDEST PUSH1 0x60 PUSH1 0x1 PUSH1 0xFF AND DUP3 PUSH1 0xFF AND SUB PUSH2 0x120 JUMPI PUSH1 0x40 MLOAD DUP1 PUSH1 0x40 ADD PUSH1 0x40 MSTORE DUP1 PUSH1 0xE DUP2 MSTORE PUSH1 0x20 ADD PUSH32 0x54776F205265616C20526F6F7473000000000000000000000000000000000000 DUP2 MSTORE POP SWAP1 POP PUSH2 0x1EF JUMP JUMPDEST PUSH1 0x2 PUSH1 0xFF AND DUP3 PUSH1 0xFF AND SUB PUSH2 0x16B JUMPI PUSH1 0x40 MLOAD DUP1 PUSH1 0x40 ADD PUSH1 0x40 MSTORE DUP1 PUSH1 0xD DUP2 MSTORE PUSH1 0x20 ADD PUSH32 0x4F6E65205265616C20526F6F7400000000000000000000000000000000000000 DUP2 MSTORE POP SWAP1 POP PUSH2 0x1EF JUMP JUMPDEST PUSH1 0x3 PUSH1 0xFF AND DUP3 PUSH1 0xFF AND SUB PUSH2 0x1B6 JUMPI PUSH1 0x40 MLOAD DUP1 PUSH1 0x40 ADD PUSH1 0x40 MSTORE DUP1 PUSH1 0xD DUP2 MSTORE PUSH1 0x20 ADD PUSH32 0x436F6D706C657820526F6F747300000000000000000000000000000000000000 DUP2 MSTORE POP SWAP1 POP PUSH2 0x1EF JUMP JUMPDEST PUSH1 0x40 MLOAD DUP1 PUSH1 0x40 ADD PUSH1 0x40 MSTORE DUP1 PUSH1 0x7 DUP2 MSTORE PUSH1 0x20 ADD PUSH32 0x556E6B6E6F776E00000000000000000000000000000000000000000000000000 DUP2 MSTORE POP SWAP1 POP JUMPDEST SWAP2 SWAP1 POP JUMP JUMPDEST PUSH2 0x1FC PUSH2 0x7D3 JUMP JUMPDEST PUSH0 DUP5 SUB PUSH2 0x23E JUMPI PUSH1 0x40 MLOAD PUSH32 0x8C379A000000000000000000000000000000000000000000000000000000000 DUP2 MSTORE PUSH1 0x4 ADD PUSH2 0x235 SWAP1 PUSH2 0xAA6 JUMP JUMPDEST PUSH1 0x40 MLOAD DUP1 SWAP2 SUB SWAP1 REVERT JUMPDEST PUSH0 DUP3 DUP6 PUSH1 0x4 PUSH2 0x24D SWAP2 SWAP1 PUSH2 0xAF1 JUMP JUMPDEST PUSH2 0x257 SWAP2 SWAP1 PUSH2 0xAF1 JUMP JUMPDEST DUP5 DUP6 PUSH2 0x263 SWAP2 SWAP1 PUSH2 0xAF1 JUMP JUMPDEST PUSH2 0x26D SWAP2 SWAP1 PUSH2 0xB67 JUMP JUMPDEST SWAP1 POP PUSH2 0x277 PUSH2 0x7D3 JUMP JUMPDEST PUSH0 DUP3 SGT ISZERO PUSH2 0x332 JUMPI PUSH1 0x1 DUP2 PUSH0 ADD SWAP1 PUSH1 0xFF AND SWAP1 DUP2 PUSH1 0xFF AND DUP2 MSTORE POP POP PUSH0 PUSH2 0x29B DUP4 PUSH2 0x762 JUMP JUMPDEST SWAP1 POP PUSH0 DUP8 PUSH1 0x2 PUSH2 0x2AB SWAP2 SWAP1 PUSH2 0xAF1 JUMP JUMPDEST SWAP1 POP PUSH0 DUP3 DUP9 PUSH2 0x2B9 SWAP1 PUSH2 0xBA7 JUMP JUMPDEST PUSH2 0x2C3 SWAP2 SWAP1 PUSH2 0xBED JUMP JUMPDEST SWAP1 POP PUSH0 DUP4 DUP10 PUSH2 0x2D1 SWAP1 PUSH2 0xBA7 JUMP JUMPDEST PUSH2 0x2DB SWAP2 SWAP1 PUSH2 0xB67 JUMP JUMPDEST SWAP1 POP DUP3 DUP3 PUSH2 0x2E9 SWAP2 SWAP1 PUSH2 0xC5B JUMP JUMPDEST DUP6 PUSH1 0x20 ADD MLOAD PUSH0 ADD DUP2 DUP2 MSTORE POP POP PUSH0 DUP6 PUSH1 0x20 ADD MLOAD PUSH1 0x20 ADD DUP2 DUP2 MSTORE POP POP DUP3 DUP2 PUSH2 0x30F SWAP2 SWAP1 PUSH2 0xC5B JUMP JUMPDEST DUP6 PUSH1 0x40 ADD MLOAD PUSH0 ADD DUP2 DUP2 MSTORE POP POP PUSH0 DUP6 PUSH1 0x40 ADD MLOAD PUSH1 0x20 ADD DUP2 DUP2 MSTORE POP POP POP POP POP POP PUSH2 0x46C JUMP JUMPDEST PUSH0 DUP3 SUB PUSH2 0x3AD JUMPI PUSH1 0x2 DUP2 PUSH0 ADD SWAP1 PUSH1 0xFF AND SWAP1 DUP2 PUSH1 0xFF AND DUP2 MSTORE POP POP DUP6 PUSH1 0x2 PUSH2 0x358 SWAP2 SWAP1 PUSH2 0xAF1 JUMP JUMPDEST DUP6 PUSH2 0x362 SWAP1 PUSH2 0xBA7 JUMP JUMPDEST PUSH2 0x36C SWAP2 SWAP1 PUSH2 0xC5B JUMP JUMPDEST DUP2 PUSH1 0x20 ADD MLOAD PUSH0 ADD DUP2 DUP2 MSTORE POP POP PUSH0 DUP2 PUSH1 0x20 ADD MLOAD PUSH1 0x20 ADD DUP2 DUP2 MSTORE POP POP DUP1 PUSH1 0x20 ADD MLOAD PUSH0 ADD MLOAD DUP2 PUSH1 0x40 ADD MLOAD PUSH0 ADD DUP2 DUP2 MSTORE POP POP PUSH0 DUP2 PUSH1 0x40 ADD MLOAD PUSH1 0x20 ADD DUP2 DUP2 MSTORE POP POP PUSH2 0x46B JUMP JUMPDEST PUSH1 0x3 DUP2 PUSH0 ADD SWAP1 PUSH1 0xFF AND SWAP1 DUP2 PUSH1 0xFF AND DUP2 MSTORE POP POP PUSH0 DUP7 PUSH1 0x2 PUSH2 0x3CD SWAP2 SWAP1 PUSH2 0xAF1 JUMP JUMPDEST DUP7 PUSH2 0x3D7 SWAP1 PUSH2 0xBA7 JUMP JUMPDEST PUSH2 0x3E1 SWAP2 SWAP1 PUSH2 0xC5B JUMP JUMPDEST SWAP1 POP PUSH0 PUSH2 0x3F6 DUP5 PUSH2 0x3F1 SWAP1 PUSH2 0xBA7 JUMP JUMPDEST PUSH2 0x762 JUMP JUMPDEST SWAP1 POP PUSH0 DUP9 PUSH1 0x2 PUSH2 0x406 SWAP2 SWAP1 PUSH2 0xAF1 JUMP JUMPDEST DUP3 PUSH2 0x411 SWAP2 SWAP1 PUSH2 0xC5B JUMP JUMPDEST SWAP1 POP PUSH0 DUP10 SLT ISZERO PUSH2 0x428 JUMPI DUP1 PUSH2 0x425 SWAP1 PUSH2 0xBA7 JUMP JUMPDEST SWAP1 POP JUMPDEST DUP3 DUP5 PUSH1 0x20 ADD MLOAD PUSH0 ADD DUP2 DUP2 MSTORE POP POP DUP1 DUP5 PUSH1 0x20 ADD MLOAD PUSH1 0x20 ADD DUP2 DUP2 MSTORE POP POP DUP3 DUP5 PUSH1 0x40 ADD MLOAD PUSH0 ADD DUP2 DUP2 MSTORE POP POP DUP1 PUSH2 0x45A SWAP1 PUSH2 0xBA7 JUMP JUMPDEST DUP5 PUSH1 0x40 ADD MLOAD PUSH1 0x20 ADD DUP2 DUP2 MSTORE POP POP POP POP POP JUMPDEST JUMPDEST DUP1 SWAP3 POP POP POP SWAP4 SWAP3 POP POP POP JUMP JUMPDEST PUSH2 0x480 PUSH2 0x7D3 JUMP JUMPDEST PUSH0 DUP5 SUB PUSH2 0x4C2 JUMPI PUSH1 0x40 MLOAD PUSH32 0x8C379A000000000000000000000000000000000000000000000000000000000 DUP2 MSTORE PUSH1 0x4 ADD PUSH2 0x4B9 SWAP1 PUSH2 0xAA6 JUMP JUMPDEST PUSH1 0x40 MLOAD DUP1 SWAP2 SUB SWAP1 REVERT JUMPDEST PUSH0 DUP3 DUP6 PUSH1 0x4 PUSH2 0x4D1 SWAP2 SWAP1 PUSH2 0xAF1 JUMP JUMPDEST PUSH2 0x4DB SWAP2 SWAP1 PUSH2 0xAF1 JUMP JUMPDEST DUP5 DUP6 PUSH2 0x4E7 SWAP2 SWAP1 PUSH2 0xAF1 JUMP JUMPDEST PUSH2 0x4F1 SWAP2 SWAP1 PUSH2 0xB67 JUMP JUMPDEST SWAP1 POP PUSH2 0x4FB PUSH2 0x7D3 JUMP JUMPDEST PUSH0 DUP3 SGT ISZERO PUSH2 0x5B6 JUMPI PUSH1 0x1 DUP2 PUSH0 ADD SWAP1 PUSH1 0xFF AND SWAP1 DUP2 PUSH1 0xFF AND DUP2 MSTORE POP POP PUSH0 PUSH2 0x51F DUP4 PUSH2 0x762 JUMP JUMPDEST SWAP1 POP PUSH0 DUP8 PUSH1 0x2 PUSH2 0x52F SWAP2 SWAP1 PUSH2 0xAF1 JUMP JUMPDEST SWAP1 POP PUSH0 DUP3 DUP9 PUSH2 0x53D SWAP1 PUSH2 0xBA7 JUMP JUMPDEST PUSH2 0x547 SWAP2 SWAP1 PUSH2 0xBED JUMP JUMPDEST SWAP1 POP PUSH0 DUP4 DUP10 PUSH2 0x555 SWAP1 PUSH2 0xBA7 JUMP JUMPDEST PUSH2 0x55F SWAP2 SWAP1 PUSH2 0xB67 JUMP JUMPDEST SWAP1 POP DUP3 DUP3 PUSH2 0x56D SWAP2 SWAP1 PUSH2 0xC5B JUMP JUMPDEST DUP6 PUSH1 0x20 ADD MLOAD PUSH0 ADD DUP2 DUP2 MSTORE POP POP PUSH0 DUP6 PUSH1 0x20 ADD MLOAD PUSH1 0x20 ADD DUP2 DUP2 MSTORE POP POP DUP3 DUP2 PUSH2 0x593 SWAP2 SWAP1 PUSH2 0xC5B JUMP JUMPDEST DUP6 PUSH1 0x40 ADD MLOAD PUSH0 ADD DUP2 DUP2 MSTORE POP POP PUSH0 DUP6 PUSH1 0x40 ADD MLOAD PUSH1 0x20 ADD DUP2 DUP2 MSTORE POP POP POP POP POP POP PUSH2 0x6F0 JUMP JUMPDEST PUSH0 DUP3 SUB PUSH2 0x631 JUMPI PUSH1 0x2 DUP2 PUSH0 ADD SWAP1 PUSH1 0xFF AND SWAP1 DUP2 PUSH1 0xFF AND DUP2 MSTORE POP POP DUP6 PUSH1 0x2 PUSH2 0x5DC SWAP2 SWAP1 PUSH2 0xAF1 JUMP JUMPDEST DUP6 PUSH2 0x5E6 SWAP1 PUSH2 0xBA7 JUMP JUMPDEST PUSH2 0x5F0 SWAP2 SWAP1 PUSH2 0xC5B JUMP JUMPDEST DUP2 PUSH1 0x20 ADD MLOAD PUSH0 ADD DUP2 DUP2 MSTORE POP POP PUSH0 DUP2 PUSH1 0x20 ADD MLOAD PUSH1 0x20 ADD DUP2 DUP2 MSTORE POP POP DUP1 PUSH1 0x20 ADD MLOAD PUSH0 ADD MLOAD DUP2 PUSH1 0x40 ADD MLOAD PUSH0 ADD DUP2 DUP2 MSTORE POP POP PUSH0 DUP2 PUSH1 0x40 ADD MLOAD PUSH1 0x20 ADD DUP2 DUP2 MSTORE POP POP PUSH2 0x6EF JUMP JUMPDEST PUSH1 0x3 DUP2 PUSH0 ADD SWAP1 PUSH1 0xFF AND SWAP1 DUP2 PUSH1 0xFF AND DUP2 MSTORE POP POP PUSH0 DUP7 PUSH1 0x2 PUSH2 0x651 SWAP2 SWAP1 PUSH2 0xAF1 JUMP JUMPDEST DUP7 PUSH2 0x65B SWAP1 PUSH2 0xBA7 JUMP JUMPDEST PUSH2 0x665 SWAP2 SWAP1 PUSH2 0xC5B JUMP JUMPDEST SWAP1 POP PUSH0 PUSH2 0x67A DUP5 PUSH2 0x675 SWAP1 PUSH2 0xBA7 JUMP JUMPDEST PUSH2 0x762 JUMP JUMPDEST SWAP1 POP PUSH0 DUP9 PUSH1 0x2 PUSH2 0x68A SWAP2 SWAP1 PUSH2 0xAF1 JUMP JUMPDEST DUP3 PUSH2 0x695 SWAP2 SWAP1 PUSH2 0xC5B JUMP JUMPDEST SWAP1 POP PUSH0 DUP10 SLT ISZERO PUSH2 0x6AC JUMPI DUP1 PUSH2 0x6A9 SWAP1 PUSH2 0xBA7 JUMP JUMPDEST SWAP1 POP JUMPDEST DUP3 DUP5 PUSH1 0x20 ADD MLOAD PUSH0 ADD DUP2 DUP2 MSTORE POP POP DUP1 DUP5 PUSH1 0x20 ADD MLOAD PUSH1 0x20 ADD DUP2 DUP2 MSTORE POP POP DUP3 DUP5 PUSH1 0x40 ADD MLOAD PUSH0 ADD DUP2 DUP2 MSTORE POP POP DUP1 PUSH2 0x6DE SWAP1 PUSH2 0xBA7 JUMP JUMPDEST DUP5 PUSH1 0x40 ADD MLOAD PUSH1 0x20 ADD DUP2 DUP2 MSTORE POP POP POP POP POP JUMPDEST JUMPDEST PUSH32 0x282A4DD3F7FCDD9455E832507AC510C8C48D297D15409077FB59FCBEB493E105 DUP7 DUP7 DUP7 DUP5 PUSH0 ADD MLOAD DUP6 PUSH1 0x20 ADD MLOAD PUSH0 ADD MLOAD DUP7 PUSH1 0x20 ADD MLOAD PUSH1 0x20 ADD MLOAD DUP8 PUSH1 0x40 ADD MLOAD PUSH0 ADD MLOAD DUP9 PUSH1 0x40 ADD MLOAD PUSH1 0x20 ADD MLOAD PUSH1 0x40 MLOAD PUSH2 0x74E SWAP9 SWAP8 SWAP7 SWAP6 SWAP5 SWAP4 SWAP3 SWAP2 SWAP1 PUSH2 0xCE1 JUMP JUMPDEST PUSH1 0x40 MLOAD DUP1 SWAP2 SUB SWAP1 LOG1 DUP1 SWAP3 POP POP POP SWAP4 SWAP3 POP POP POP JUMP JUMPDEST PUSH0 DUP1 DUP3 SUB PUSH2 0x772 JUMPI PUSH0 SWAP1 POP PUSH2 0x7CE JUMP JUMPDEST PUSH0 PUSH1 0x2 PUSH1 0x1 DUP5 PUSH2 0x782 SWAP2 SWAP1 PUSH2 0xD66 JUMP JUMPDEST PUSH2 0x78C SWAP2 SWAP1 PUSH2 0xD99 JUMP JUMPDEST SWAP1 POP PUSH0 DUP4 SWAP1 POP JUMPDEST DUP1 DUP3 LT ISZERO PUSH2 0x7C8 JUMPI DUP2 SWAP1 POP PUSH1 0x2 DUP3 DUP4 DUP7 PUSH2 0x7AD SWAP2 SWAP1 PUSH2 0xD99 JUMP JUMPDEST PUSH2 0x7B7 SWAP2 SWAP1 PUSH2 0xD66 JUMP JUMPDEST PUSH2 0x7C1 SWAP2 SWAP1 PUSH2 0xD99 JUMP JUMPDEST SWAP2 POP PUSH2 0x793 JUMP JUMPDEST DUP1 SWAP3 POP POP POP JUMPDEST SWAP2 SWAP1 POP JUMP JUMPDEST PUSH1 0x40 MLOAD DUP1 PUSH1 0x60 ADD PUSH1 0x40 MSTORE DUP1 PUSH0 PUSH1 0xFF AND DUP2 MSTORE PUSH1 0x20 ADD PUSH2 0x7EF PUSH2 0x802 JUMP JUMPDEST DUP2 MSTORE PUSH1 0x20 ADD PUSH2 0x7FC PUSH2 0x802 JUMP JUMPDEST DUP2 MSTORE POP SWAP1 JUMP JUMPDEST PUSH1 0x40 MLOAD DUP1 PUSH1 0x40 ADD PUSH1 0x40 MSTORE DUP1 PUSH0 DUP2 MSTORE PUSH1 0x20 ADD PUSH0 DUP2 MSTORE POP SWAP1 JUMP JUMPDEST PUSH0 DUP1 REVERT JUMPDEST PUSH0 PUSH1 0xFF DUP3 AND SWAP1 POP SWAP2 SWAP1 POP JUMP JUMPDEST PUSH2 0x833 DUP2 PUSH2 0x81E JUMP JUMPDEST DUP2 EQ PUSH2 0x83D JUMPI PUSH0 DUP1 REVERT JUMPDEST POP JUMP JUMPDEST PUSH0 DUP2 CALLDATALOAD SWAP1 POP PUSH2 0x84E DUP2 PUSH2 0x82A JUMP JUMPDEST SWAP3 SWAP2 POP POP JUMP JUMPDEST PUSH0 PUSH1 0x20 DUP3 DUP5 SUB SLT ISZERO PUSH2 0x869 JUMPI PUSH2 0x868 PUSH2 0x81A JUMP JUMPDEST JUMPDEST PUSH0 PUSH2 0x876 DUP5 DUP3 DUP6 ADD PUSH2 0x840 JUMP JUMPDEST SWAP2 POP POP SWAP3 SWAP2 POP POP JUMP JUMPDEST PUSH0 DUP2 MLOAD SWAP1 POP SWAP2 SWAP1 POP JUMP JUMPDEST PUSH0 DUP3 DUP3 MSTORE PUSH1 0x20 DUP3 ADD SWAP1 POP SWAP3 SWAP2 POP POP JUMP JUMPDEST DUP3 DUP2 DUP4 MCOPY PUSH0 DUP4 DUP4 ADD MSTORE POP POP POP JUMP JUMPDEST PUSH0 PUSH1 0x1F NOT PUSH1 0x1F DUP4 ADD AND SWAP1 POP SWAP2 SWAP1 POP JUMP JUMPDEST PUSH0 PUSH2 0x8C1 DUP3 PUSH2 0x87F JUMP JUMPDEST PUSH2 0x8CB DUP2 DUP6 PUSH2 0x889 JUMP JUMPDEST SWAP4 POP PUSH2 0x8DB DUP2 DUP6 PUSH1 0x20 DUP7 ADD PUSH2 0x899 JUMP JUMPDEST PUSH2 0x8E4 DUP2 PUSH2 0x8A7 JUMP JUMPDEST DUP5 ADD SWAP2 POP POP SWAP3 SWAP2 POP POP JUMP JUMPDEST PUSH0 PUSH1 0x20 DUP3 ADD SWAP1 POP DUP2 DUP2 SUB PUSH0 DUP4 ADD MSTORE PUSH2 0x907 DUP2 DUP5 PUSH2 0x8B7 JUMP JUMPDEST SWAP1 POP SWAP3 SWAP2 POP POP JUMP JUMPDEST PUSH0 DUP2 SWAP1 POP SWAP2 SWAP1 POP JUMP JUMPDEST PUSH2 0x921 DUP2 PUSH2 0x90F JUMP JUMPDEST DUP2 EQ PUSH2 0x92B JUMPI PUSH0 DUP1 REVERT JUMPDEST POP JUMP JUMPDEST PUSH0 DUP2 CALLDATALOAD SWAP1 POP PUSH2 0x93C DUP2 PUSH2 0x918 JUMP JUMPDEST SWAP3 SWAP2 POP POP JUMP JUMPDEST PUSH0 DUP1 PUSH0 PUSH1 0x60 DUP5 DUP7 SUB SLT ISZERO PUSH2 0x959 JUMPI PUSH2 0x958 PUSH2 0x81A JUMP JUMPDEST JUMPDEST PUSH0 PUSH2 0x966 DUP7 DUP3 DUP8 ADD PUSH2 0x92E JUMP JUMPDEST SWAP4 POP POP PUSH1 0x20 PUSH2 0x977 DUP7 DUP3 DUP8 ADD PUSH2 0x92E JUMP JUMPDEST SWAP3 POP POP PUSH1 0x40 PUSH2 0x988 DUP7 DUP3 DUP8 ADD PUSH2 0x92E JUMP JUMPDEST SWAP2 POP POP SWAP3 POP SWAP3 POP SWAP3 JUMP JUMPDEST PUSH2 0x99B DUP2 PUSH2 0x81E JUMP JUMPDEST DUP3 MSTORE POP POP JUMP JUMPDEST PUSH2 0x9AA DUP2 PUSH2 0x90F JUMP JUMPDEST DUP3 MSTORE POP POP JUMP JUMPDEST PUSH1 0x40 DUP3 ADD PUSH0 DUP3 ADD MLOAD PUSH2 0x9C4 PUSH0 DUP6 ADD DUP3 PUSH2 0x9A1 JUMP JUMPDEST POP PUSH1 0x20 DUP3 ADD MLOAD PUSH2 0x9D7 PUSH1 0x20 DUP6 ADD DUP3 PUSH2 0x9A1 JUMP JUMPDEST POP POP POP POP JUMP JUMPDEST PUSH1 0xA0 DUP3 ADD PUSH0 DUP3 ADD MLOAD PUSH2 0x9F1 PUSH0 DUP6 ADD DUP3 PUSH2 0x992 JUMP JUMPDEST POP PUSH1 0x20 DUP3 ADD MLOAD PUSH2 0xA04 PUSH1 0x20 DUP6 ADD DUP3 PUSH2 0x9B0 JUMP JUMPDEST POP PUSH1 0x40 DUP3 ADD MLOAD PUSH2 0xA17 PUSH1 0x60 DUP6 ADD DUP3 PUSH2 0x9B0 JUMP JUMPDEST POP POP POP POP JUMP JUMPDEST PUSH0 PUSH1 0xA0 DUP3 ADD SWAP1 POP PUSH2 0xA30 PUSH0 DUP4 ADD DUP5 PUSH2 0x9DD JUMP JUMPDEST SWAP3 SWAP2 POP POP JUMP JUMPDEST PUSH32 0x4E6F74206120717561647261746963206571756174696F6E2C20276127206D75 PUSH0 DUP3 ADD MSTORE PUSH32 0x7374206E6F74206265207A65726F000000000000000000000000000000000000 PUSH1 0x20 DUP3 ADD MSTORE POP JUMP JUMPDEST PUSH0 PUSH2 0xA90 PUSH1 0x2E DUP4 PUSH2 0x889 JUMP JUMPDEST SWAP2 POP PUSH2 0xA9B DUP3 PUSH2 0xA36 JUMP JUMPDEST PUSH1 0x40 DUP3 ADD SWAP1 POP SWAP2 SWAP1 POP JUMP JUMPDEST PUSH0 PUSH1 0x20 DUP3 ADD SWAP1 POP DUP2 DUP2 SUB PUSH0 DUP4 ADD MSTORE PUSH2 0xABD DUP2 PUSH2 0xA84 JUMP JUMPDEST SWAP1 POP SWAP2 SWAP1 POP JUMP JUMPDEST PUSH32 0x4E487B7100000000000000000000000000000000000000000000000000000000 PUSH0 MSTORE PUSH1 0x11 PUSH1 0x4 MSTORE PUSH1 0x24 PUSH0 REVERT JUMPDEST PUSH0 PUSH2 0xAFB DUP3 PUSH2 0x90F JUMP JUMPDEST SWAP2 POP PUSH2 0xB06 DUP4 PUSH2 0x90F JUMP JUMPDEST SWAP3 POP DUP3 DUP3 MUL PUSH2 0xB14 DUP2 PUSH2 0x90F JUMP JUMPDEST SWAP2 POP PUSH32 0x8000000000000000000000000000000000000000000000000000000000000000 DUP5 EQ PUSH0 DUP5 SLT AND ISZERO PUSH2 0xB4B JUMPI PUSH2 0xB4A PUSH2 0xAC4 JUMP JUMPDEST JUMPDEST DUP3 DUP3 SDIV DUP5 EQ DUP4 ISZERO OR PUSH2 0xB60 JUMPI PUSH2 0xB5F PUSH2 0xAC4 JUMP JUMPDEST JUMPDEST POP SWAP3 SWAP2 POP POP JUMP JUMPDEST PUSH0 PUSH2 0xB71 DUP3 PUSH2 0x90F JUMP JUMPDEST SWAP2 POP PUSH2 0xB7C DUP4 PUSH2 0x90F JUMP JUMPDEST SWAP3 POP DUP3 DUP3 SUB SWAP1 POP DUP2 DUP2 SLT PUSH0 DUP5 SLT AND DUP3 DUP3 SGT PUSH0 DUP6 SLT ISZERO AND OR ISZERO PUSH2 0xBA1 JUMPI PUSH2 0xBA0 PUSH2 0xAC4 JUMP JUMPDEST JUMPDEST SWAP3 SWAP2 POP POP JUMP JUMPDEST PUSH0 PUSH2 0xBB1 DUP3 PUSH2 0x90F JUMP JUMPDEST SWAP2 POP PUSH32 0x8000000000000000000000000000000000000000000000000000000000000000 DUP3 SUB PUSH2 0xBE3 JUMPI PUSH2 0xBE2 PUSH2 0xAC4 JUMP JUMPDEST JUMPDEST DUP2 PUSH0 SUB SWAP1 POP SWAP2 SWAP1 POP JUMP JUMPDEST PUSH0 PUSH2 0xBF7 DUP3 PUSH2 0x90F JUMP JUMPDEST SWAP2 POP PUSH2 0xC02 DUP4 PUSH2 0x90F JUMP JUMPDEST SWAP3 POP DUP3 DUP3 ADD SWAP1 POP DUP3 DUP2 SLT ISZERO PUSH0 DUP4 SLT AND DUP4 DUP3 SLT PUSH0 DUP5 SLT ISZERO AND OR ISZERO PUSH2 0xC28 JUMPI PUSH2 0xC27 PUSH2 0xAC4 JUMP JUMPDEST JUMPDEST SWAP3 SWAP2 POP POP JUMP JUMPDEST PUSH32 0x4E487B7100000000000000000000000000000000000000000000000000000000 PUSH0 MSTORE PUSH1 0x12 PUSH1 0x4 MSTORE PUSH1 0x24 PUSH0 REVERT JUMPDEST PUSH0 PUSH2 0xC65 DUP3 PUSH2 0x90F JUMP JUMPDEST SWAP2 POP PUSH2 0xC70 DUP4 PUSH2 0x90F JUMP JUMPDEST SWAP3 POP DUP3 PUSH2 0xC80 JUMPI PUSH2 0xC7F PUSH2 0xC2E JUMP JUMPDEST JUMPDEST PUSH1 0x1 PUSH0 SUB DUP4 EQ PUSH32 0x8000000000000000000000000000000000000000000000000000000000000000 DUP4 EQ AND ISZERO PUSH2 0xCB8 JUMPI PUSH2 0xCB7 PUSH2 0xAC4 JUMP JUMPDEST JUMPDEST DUP3 DUP3 SDIV SWAP1 POP SWAP3 SWAP2 POP POP JUMP JUMPDEST PUSH2 0xCCC DUP2 PUSH2 0x90F JUMP JUMPDEST DUP3 MSTORE POP POP JUMP JUMPDEST PUSH2 0xCDB DUP2 PUSH2 0x81E JUMP JUMPDEST DUP3 MSTORE POP POP JUMP JUMPDEST PUSH0 PUSH2 0x100 DUP3 ADD SWAP1 POP PUSH2 0xCF5 PUSH0 DUP4 ADD DUP12 PUSH2 0xCC3 JUMP JUMPDEST PUSH2 0xD02 PUSH1 0x20 DUP4 ADD DUP11 PUSH2 0xCC3 JUMP JUMPDEST PUSH2 0xD0F PUSH1 0x40 DUP4 ADD DUP10 PUSH2 0xCC3 JUMP JUMPDEST PUSH2 0xD1C PUSH1 0x60 DUP4 ADD DUP9 PUSH2 0xCD2 JUMP JUMPDEST PUSH2 0xD29 PUSH1 0x80 DUP4 ADD DUP8 PUSH2 0xCC3 JUMP JUMPDEST PUSH2 0xD36 PUSH1 0xA0 DUP4 ADD DUP7 PUSH2 0xCC3 JUMP JUMPDEST PUSH2 0xD43 PUSH1 0xC0 DUP4 ADD DUP6 PUSH2 0xCC3 JUMP JUMPDEST PUSH2 0xD50 PUSH1 0xE0 DUP4 ADD DUP5 PUSH2 0xCC3 JUMP JUMPDEST SWAP10 SWAP9 POP POP POP POP POP POP POP POP POP JUMP JUMPDEST PUSH0 DUP2 SWAP1 POP SWAP2 SWAP1 POP JUMP JUMPDEST PUSH0 PUSH2 0xD70 DUP3 PUSH2 0xD5D JUMP JUMPDEST SWAP2 POP PUSH2 0xD7B DUP4 PUSH2 0xD5D JUMP JUMPDEST SWAP3 POP DUP3 DUP3 ADD SWAP1 POP DUP1 DUP3 GT ISZERO PUSH2 0xD93 JUMPI PUSH2 0xD92 PUSH2 0xAC4 JUMP JUMPDEST JUMPDEST SWAP3 SWAP2 POP POP JUMP JUMPDEST PUSH0 PUSH2 0xDA3 DUP3 PUSH2 0xD5D JUMP JUMPDEST SWAP2 POP PUSH2 0xDAE DUP4 PUSH2 0xD5D JUMP JUMPDEST SWAP3 POP DUP3 PUSH2 0xDBE JUMPI PUSH2 0xDBD PUSH2 0xC2E JUMP JUMPDEST JUMPDEST DUP3 DUP3 DIV SWAP1 POP SWAP3 SWAP2 POP POP JUMP INVALID LOG2 PUSH5 0x6970667358 0x22 SLT KECCAK256 0xA6 KECCAK256 0x27 0xAE 0xE1 0xCB GASLIMIT DIV BASEFEE 0x21 0xE1 0x21 0xB4 ISZERO CALLDATALOAD RETURNDATACOPY 0xC1 DUP8 MOD KECCAK256 SGT GASPRICE SHR PUSH31 0x816764A830C9304D64736F6C634300081A0033000000000000000000000000 "
				},
				"gasEstimates": {
					"creation": {
						"codeDepositCost": "716600",
						"executionCost": "745",
						"totalCost": "717345"
					},
					"external": {
						"getQuadraticRoots(int256,int256,int256)": "infinite",
						"getRootTypeName(uint8)": "infinite",
						"solveQuadratic(int256,int256,int256)": "infinite"
					},
					"internal": {
						"intSqrt(uint256)": "infinite"
					}
				},
				"methodIdentifiers": {
					"getQuadraticRoots(int256,int256,int256)": "74826708",
					"getRootTypeName(uint8)": "3204c3a8",
					"solveQuadratic(int256,int256,int256)": "872339bd"
				}
			},
			"storageLayout": {
				"storage": [],
				"types": null
			},
			"userdoc": {
				"kind": "user",
				"methods": {},
				"version": 1
			}
		}
	}
}