{
	"Day-02/D2P5.sol": {
		"SimpleCalculator": {
			"abi": [
				{
					"anonymous": false,
					"inputs": [
						{
							"indexed": false,
							"internalType": "uint256",
							"name": "num1",
							"type": "uint256"
						},
						{
							"indexed": false,
							"internalType": "uint256",
							"name": "num2",
							"type": "uint256"
						},
						{
							"indexed": false,
							"internalType": "enum SimpleCalculator.Operation",
							"name": "operation",
							"type": "uint8"
						},
						{
							"indexed": false,
							"internalType": "int256",
							"name": "result",
							"type": "int256"
						}
					],
					"name": "CalculationPerformed",
					"type": "event"
				},
				{
					"inputs": [
						{
							"internalType": "uint256",
							"name": "num1",
							"type": "uint256"
						},
						{
							"internalType": "uint256",
							"name": "num2",
							"type": "uint256"
						},
						{
							"internalType": "uint8",
							"name": "operationCode",
							"type": "uint8"
						}
					],
					"name": "calculate",
					"outputs": [
						{
							"internalType": "int256",
							"name": "",
							"type": "int256"
						}
					],
					"stateMutability": "nonpayable",
					"type": "function"
				},
				{
					"inputs": [
						{
							"internalType": "address",
							"name": "",
							"type": "address"
						},
						{
							"internalType": "uint256",
							"name": "",
							"type": "uint256"
						}
					],
					"name": "calculationHistory",
					"outputs": [
						{
							"internalType": "uint256",
							"name": "timestamp",
							"type": "uint256"
						},
						{
							"internalType": "uint256",
							"name": "num1",
							"type": "uint256"
						},
						{
							"internalType": "uint256",
							"name": "num2",
							"type": "uint256"
						},
						{
							"internalType": "enum SimpleCalculator.Operation",
							"name": "operation",
							"type": "uint8"
						},
						{
							"internalType": "int256",
							"name": "result",
							"type": "int256"
						}
					],
					"stateMutability": "view",
					"type": "function"
				},
				{
					"inputs": [],
					"name": "clearCalculationHistory",
					"outputs": [],
					"stateMutability": "nonpayable",
					"type": "function"
				},
				{
					"inputs": [],
					"name": "getCalculationCount",
					"outputs": [
						{
							"internalType": "uint256",
							"name": "",
							"type": "uint256"
						}
					],
					"stateMutability": "view",
					"type": "function"
				},
				{
					"inputs": [
						{
							"internalType": "uint256",
							"name": "index",
							"type": "uint256"
						}
					],
					"name": "getCalculationFromHistory",
					"outputs": [
						{
							"components": [
								{
									"internalType": "uint256",
									"name": "timestamp",
									"type": "uint256"
								},
								{
									"internalType": "uint256",
									"name": "num1",
									"type": "uint256"
								},
								{
									"internalType": "uint256",
									"name": "num2",
									"type": "uint256"
								},
								{
									"internalType": "enum SimpleCalculator.Operation",
									"name": "operation",
									"type": "uint8"
								},
								{
									"internalType": "int256",
									"name": "result",
									"type": "int256"
								}
							],
							"internalType": "struct SimpleCalculator.Calculation",
							"name": "",
							"type": "tuple"
						}
					],
					"stateMutability": "view",
					"type": "function"
				},
				{
					"inputs": [
						{
							"internalType": "uint256",
							"name": "num1",
							"type": "uint256"
						},
						{
							"internalType": "uint256",
							"name": "num2",
							"type": "uint256"
						},
						{
							"internalType": "uint8",
							"name": "operationCode",
							"type": "uint8"
						}
					],
					"name": "getCalculationResult",
					"outputs": [
						{
							"internalType": "int256",
							"name": "",
							"type": "int256"
						}
					],
					"stateMutability": "pure",
					"type": "function"
				},
				{
					"inputs": [
						{
							"internalType": "uint8",
							"name": "operationCode",
							"type": "uint8"
						}
					],
					"name": "getOperationName",
					"outputs": [
						{
							"internalType": "string",
							"name": "",
							"type": "string"
						}
					],
					"stateMutability": "pure",
					"type": "function"
				}
			],
			"devdoc": {
				"kind": "dev",
				"methods": {},
				"version": 1
			},
			"evm": {
				"assembly": "    /* \"Day-02/D2P5.sol\":64:4554  contract SimpleCalculator {... */\n  mstore(0x40, 0x80)\n  callvalue\n  dup1\n  iszero\n  tag_1\n  jumpi\n  0x00\n  dup1\n  revert\ntag_1:\n  pop\n  dataSize(sub_0)\n  dup1\n  dataOffset(sub_0)\n  0x00\n  codecopy\n  0x00\n  return\nstop\n\nsub_0: assembly {\n        /* \"Day-02/D2P5.sol\":64:4554  contract SimpleCalculator {... */\n      mstore(0x40, 0x80)\n      callvalue\n      dup1\n      iszero\n      tag_1\n      jumpi\n      0x00\n      dup1\n      revert\n    tag_1:\n      pop\n      jumpi(tag_2, lt(calldatasize, 0x04))\n      shr(0xe0, calldataload(0x00))\n      dup1\n      0xa341a451\n      gt\n      tag_10\n      jumpi\n      dup1\n      0xa341a451\n      eq\n      tag_6\n      jumpi\n      dup1\n      0xa73370f5\n      eq\n      tag_7\n      jumpi\n      dup1\n      0xacd4293c\n      eq\n      tag_8\n      jumpi\n      dup1\n      0xc445bbce\n      eq\n      tag_9\n      jumpi\n      jump(tag_2)\n    tag_10:\n      dup1\n      0x0dbe3a39\n      eq\n      tag_3\n      jumpi\n      dup1\n      0x325c946a\n      eq\n      tag_4\n      jumpi\n      dup1\n      0x8ccf4695\n      eq\n      tag_5\n      jumpi\n    tag_2:\n      0x00\n      dup1\n      revert\n        /* \"Day-02/D2P5.sol\":3926:4395  function getOperationName(uint8 operationCode) public pure returns (string memory) {... */\n    tag_3:\n      tag_11\n      0x04\n      dup1\n      calldatasize\n      sub\n      dup2\n      add\n      swap1\n      tag_12\n      swap2\n      swap1\n      tag_13\n      jump\t// in\n    tag_12:\n      tag_14\n      jump\t// in\n    tag_11:\n      mload(0x40)\n      tag_15\n      swap2\n      swap1\n      tag_16\n      jump\t// in\n    tag_15:\n      mload(0x40)\n      dup1\n      swap2\n      sub\n      swap1\n      return\n        /* \"Day-02/D2P5.sol\":3623:3865  function getCalculationFromHistory(uint256 index) public view returns (Calculation memory) {... */\n    tag_4:\n      tag_17\n      0x04\n      dup1\n      calldatasize\n      sub\n      dup2\n      add\n      swap1\n      tag_18\n      swap2\n      swap1\n      tag_19\n      jump\t// in\n    tag_18:\n      tag_20\n      jump\t// in\n    tag_17:\n      mload(0x40)\n      tag_21\n      swap2\n      swap1\n      tag_22\n      jump\t// in\n    tag_21:\n      mload(0x40)\n      dup1\n      swap2\n      sub\n      swap1\n      return\n        /* \"Day-02/D2P5.sol\":481:540  mapping(address => Calculation[]) public calculationHistory */\n    tag_5:\n      tag_23\n      0x04\n      dup1\n      calldatasize\n      sub\n      dup2\n      add\n      swap1\n      tag_24\n      swap2\n      swap1\n      tag_25\n      jump\t// in\n    tag_24:\n      tag_26\n      jump\t// in\n    tag_23:\n      mload(0x40)\n      tag_27\n      swap6\n      swap5\n      swap4\n      swap3\n      swap2\n      swap1\n      tag_28\n      jump\t// in\n    tag_27:\n      mload(0x40)\n      dup1\n      swap2\n      sub\n      swap1\n      return\n        /* \"Day-02/D2P5.sol\":4453:4551  function clearCalculationHistory() public {... */\n    tag_6:\n      tag_29\n      tag_30\n      jump\t// in\n    tag_29:\n      stop\n        /* \"Day-02/D2P5.sol\":807:2276  function calculate(uint256 num1, uint256 num2, uint8 operationCode) public returns (int256) {... */\n    tag_7:\n      tag_31\n      0x04\n      dup1\n      calldatasize\n      sub\n      dup2\n      add\n      swap1\n      tag_32\n      swap2\n      swap1\n      tag_33\n      jump\t// in\n    tag_32:\n      tag_34\n      jump\t// in\n    tag_31:\n      mload(0x40)\n      tag_35\n      swap2\n      swap1\n      tag_36\n      jump\t// in\n    tag_35:\n      mload(0x40)\n      dup1\n      swap2\n      sub\n      swap1\n      return\n        /* \"Day-02/D2P5.sol\":3427:3551  function getCalculationCount() public view returns (uint256) {... */\n    tag_8:\n      tag_37\n      tag_38\n      jump\t// in\n    tag_37:\n      mload(0x40)\n      tag_39\n      swap2\n      swap1\n      tag_40\n      jump\t// in\n    tag_39:\n      mload(0x40)\n      dup1\n      swap2\n      sub\n      swap1\n      return\n        /* \"Day-02/D2P5.sol\":2357:3340  function getCalculationResult(uint256 num1, uint256 num2, uint8 operationCode) public pure returns (int256) {... */\n    tag_9:\n      tag_41\n      0x04\n      dup1\n      calldatasize\n      sub\n      dup2\n      add\n      swap1\n      tag_42\n      swap2\n      swap1\n      tag_33\n      jump\t// in\n    tag_42:\n      tag_43\n      jump\t// in\n    tag_41:\n      mload(0x40)\n      tag_44\n      swap2\n      swap1\n      tag_36\n      jump\t// in\n    tag_44:\n      mload(0x40)\n      dup1\n      swap2\n      sub\n      swap1\n      return\n        /* \"Day-02/D2P5.sol\":3926:4395  function getOperationName(uint8 operationCode) public pure returns (string memory) {... */\n    tag_14:\n        /* \"Day-02/D2P5.sol\":3994:4007  string memory */\n      0x60\n        /* \"Day-02/D2P5.sol\":4045:4046  4 */\n      0x04\n        /* \"Day-02/D2P5.sol\":4028:4041  operationCode */\n      dup3\n        /* \"Day-02/D2P5.sol\":4028:4046  operationCode <= 4 */\n      0xff\n      and\n      gt\n      iszero\n        /* \"Day-02/D2P5.sol\":4020:4073  require(operationCode <= 4, \"Invalid operation code\") */\n      tag_46\n      jumpi\n      mload(0x40)\n      0x08c379a000000000000000000000000000000000000000000000000000000000\n      dup2\n      mstore\n      0x04\n      add\n      tag_47\n      swap1\n      tag_48\n      jump\t// in\n    tag_47:\n      mload(0x40)\n      dup1\n      swap2\n      sub\n      swap1\n      revert\n    tag_46:\n        /* \"Day-02/D2P5.sol\":4115:4116  0 */\n      0x00\n        /* \"Day-02/D2P5.sol\":4098:4111  operationCode */\n      dup3\n        /* \"Day-02/D2P5.sol\":4098:4116  operationCode == 0 */\n      0xff\n      and\n      sub\n        /* \"Day-02/D2P5.sol\":4094:4135  if (operationCode == 0) return \"Addition\" */\n      tag_49\n      jumpi\n        /* \"Day-02/D2P5.sol\":4118:4135  return \"Addition\" */\n      mload(0x40)\n      dup1\n      0x40\n      add\n      0x40\n      mstore\n      dup1\n      0x08\n      dup2\n      mstore\n      0x20\n      add\n      0x4164646974696f6e000000000000000000000000000000000000000000000000\n      dup2\n      mstore\n      pop\n      swap1\n      pop\n      jump(tag_45)\n        /* \"Day-02/D2P5.sol\":4094:4135  if (operationCode == 0) return \"Addition\" */\n    tag_49:\n        /* \"Day-02/D2P5.sol\":4167:4168  1 */\n      0x01\n        /* \"Day-02/D2P5.sol\":4150:4163  operationCode */\n      dup3\n        /* \"Day-02/D2P5.sol\":4150:4168  operationCode == 1 */\n      0xff\n      and\n      sub\n        /* \"Day-02/D2P5.sol\":4146:4190  if (operationCode == 1) return \"Subtraction\" */\n      tag_50\n      jumpi\n        /* \"Day-02/D2P5.sol\":4170:4190  return \"Subtraction\" */\n      mload(0x40)\n      dup1\n      0x40\n      add\n      0x40\n      mstore\n      dup1\n      0x0b\n      dup2\n      mstore\n      0x20\n      add\n      0x5375627472616374696f6e000000000000000000000000000000000000000000\n      dup2\n      mstore\n      pop\n      swap1\n      pop\n      jump(tag_45)\n        /* \"Day-02/D2P5.sol\":4146:4190  if (operationCode == 1) return \"Subtraction\" */\n    tag_50:\n        /* \"Day-02/D2P5.sol\":4222:4223  2 */\n      0x02\n        /* \"Day-02/D2P5.sol\":4205:4218  operationCode */\n      dup3\n        /* \"Day-02/D2P5.sol\":4205:4223  operationCode == 2 */\n      0xff\n      and\n      sub\n        /* \"Day-02/D2P5.sol\":4201:4248  if (operationCode == 2) return \"Multiplication\" */\n      tag_51\n      jumpi\n        /* \"Day-02/D2P5.sol\":4225:4248  return \"Multiplication\" */\n      mload(0x40)\n      dup1\n      0x40\n      add\n      0x40\n      mstore\n      dup1\n      0x0e\n      dup2\n      mstore\n      0x20\n      add\n      0x4d756c7469706c69636174696f6e000000000000000000000000000000000000\n      dup2\n      mstore\n      pop\n      swap1\n      pop\n      jump(tag_45)\n        /* \"Day-02/D2P5.sol\":4201:4248  if (operationCode == 2) return \"Multiplication\" */\n    tag_51:\n        /* \"Day-02/D2P5.sol\":4280:4281  3 */\n      0x03\n        /* \"Day-02/D2P5.sol\":4263:4276  operationCode */\n      dup3\n        /* \"Day-02/D2P5.sol\":4263:4281  operationCode == 3 */\n      0xff\n      and\n      sub\n        /* \"Day-02/D2P5.sol\":4259:4300  if (operationCode == 3) return \"Division\" */\n      tag_52\n      jumpi\n        /* \"Day-02/D2P5.sol\":4283:4300  return \"Division\" */\n      mload(0x40)\n      dup1\n      0x40\n      add\n      0x40\n      mstore\n      dup1\n      0x08\n      dup2\n      mstore\n      0x20\n      add\n      0x4469766973696f6e000000000000000000000000000000000000000000000000\n      dup2\n      mstore\n      pop\n      swap1\n      pop\n      jump(tag_45)\n        /* \"Day-02/D2P5.sol\":4259:4300  if (operationCode == 3) return \"Division\" */\n    tag_52:\n        /* \"Day-02/D2P5.sol\":4332:4333  4 */\n      0x04\n        /* \"Day-02/D2P5.sol\":4315:4328  operationCode */\n      dup3\n        /* \"Day-02/D2P5.sol\":4315:4333  operationCode == 4 */\n      0xff\n      and\n      sub\n        /* \"Day-02/D2P5.sol\":4311:4350  if (operationCode == 4) return \"Modulo\" */\n      tag_53\n      jumpi\n        /* \"Day-02/D2P5.sol\":4335:4350  return \"Modulo\" */\n      mload(0x40)\n      dup1\n      0x40\n      add\n      0x40\n      mstore\n      dup1\n      0x06\n      dup2\n      mstore\n      0x20\n      add\n      0x4d6f64756c6f0000000000000000000000000000000000000000000000000000\n      dup2\n      mstore\n      pop\n      swap1\n      pop\n      jump(tag_45)\n        /* \"Day-02/D2P5.sol\":4311:4350  if (operationCode == 4) return \"Modulo\" */\n    tag_53:\n        /* \"Day-02/D2P5.sol\":4371:4387  return \"Unknown\" */\n      mload(0x40)\n      dup1\n      0x40\n      add\n      0x40\n      mstore\n      dup1\n      0x07\n      dup2\n      mstore\n      0x20\n      add\n      0x556e6b6e6f776e00000000000000000000000000000000000000000000000000\n      dup2\n      mstore\n      pop\n      swap1\n      pop\n        /* \"Day-02/D2P5.sol\":3926:4395  function getOperationName(uint8 operationCode) public pure returns (string memory) {... */\n    tag_45:\n      swap2\n      swap1\n      pop\n      jump\t// out\n        /* \"Day-02/D2P5.sol\":3623:3865  function getCalculationFromHistory(uint256 index) public view returns (Calculation memory) {... */\n    tag_20:\n        /* \"Day-02/D2P5.sol\":3694:3712  Calculation memory */\n      tag_54\n      tag_55\n      jump\t// in\n    tag_54:\n        /* \"Day-02/D2P5.sol\":3741:3759  calculationHistory */\n      0x00\n        /* \"Day-02/D2P5.sol\":3741:3771  calculationHistory[msg.sender] */\n      dup1\n        /* \"Day-02/D2P5.sol\":3760:3770  msg.sender */\n      caller\n        /* \"Day-02/D2P5.sol\":3741:3771  calculationHistory[msg.sender] */\n      0xffffffffffffffffffffffffffffffffffffffff\n      and\n      0xffffffffffffffffffffffffffffffffffffffff\n      and\n      dup2\n      mstore\n      0x20\n      add\n      swap1\n      dup2\n      mstore\n      0x20\n      add\n      0x00\n      keccak256\n        /* \"Day-02/D2P5.sol\":3741:3778  calculationHistory[msg.sender].length */\n      dup1\n      sload\n      swap1\n      pop\n        /* \"Day-02/D2P5.sol\":3733:3738  index */\n      dup3\n        /* \"Day-02/D2P5.sol\":3733:3778  index < calculationHistory[msg.sender].length */\n      lt\n        /* \"Day-02/D2P5.sol\":3725:3802  require(index < calculationHistory[msg.sender].length, \"Index out of bounds\") */\n      tag_57\n      jumpi\n      mload(0x40)\n      0x08c379a000000000000000000000000000000000000000000000000000000000\n      dup2\n      mstore\n      0x04\n      add\n      tag_58\n      swap1\n      tag_59\n      jump\t// in\n    tag_58:\n      mload(0x40)\n      dup1\n      swap2\n      sub\n      swap1\n      revert\n    tag_57:\n        /* \"Day-02/D2P5.sol\":3820:3838  calculationHistory */\n      0x00\n        /* \"Day-02/D2P5.sol\":3820:3850  calculationHistory[msg.sender] */\n      dup1\n        /* \"Day-02/D2P5.sol\":3839:3849  msg.sender */\n      caller\n        /* \"Day-02/D2P5.sol\":3820:3850  calculationHistory[msg.sender] */\n      0xffffffffffffffffffffffffffffffffffffffff\n      and\n      0xffffffffffffffffffffffffffffffffffffffff\n      and\n      dup2\n      mstore\n      0x20\n      add\n      swap1\n      dup2\n      mstore\n      0x20\n      add\n      0x00\n      keccak256\n        /* \"Day-02/D2P5.sol\":3851:3856  index */\n      dup3\n        /* \"Day-02/D2P5.sol\":3820:3857  calculationHistory[msg.sender][index] */\n      dup2\n      sload\n      dup2\n      lt\n      tag_60\n      jumpi\n      tag_61\n      tag_62\n      jump\t// in\n    tag_61:\n    tag_60:\n      swap1\n      0x00\n      mstore\n      keccak256(0x00, 0x20)\n      swap1\n      0x05\n      mul\n      add\n        /* \"Day-02/D2P5.sol\":3813:3857  return calculationHistory[msg.sender][index] */\n      mload(0x40)\n      dup1\n      0xa0\n      add\n      0x40\n      mstore\n      swap1\n      dup2\n      0x00\n      dup3\n      add\n      sload\n      dup2\n      mstore\n      0x20\n      add\n      0x01\n      dup3\n      add\n      sload\n      dup2\n      mstore\n      0x20\n      add\n      0x02\n      dup3\n      add\n      sload\n      dup2\n      mstore\n      0x20\n      add\n      0x03\n      dup3\n      add\n      0x00\n      swap1\n      sload\n      swap1\n      0x0100\n      exp\n      swap1\n      div\n      0xff\n      and\n      0x04\n      dup2\n      gt\n      iszero\n      tag_64\n      jumpi\n      tag_65\n      tag_66\n      jump\t// in\n    tag_65:\n    tag_64:\n      0x04\n      dup2\n      gt\n      iszero\n      tag_67\n      jumpi\n      tag_68\n      tag_66\n      jump\t// in\n    tag_68:\n    tag_67:\n      dup2\n      mstore\n      0x20\n      add\n      0x04\n      dup3\n      add\n      sload\n      dup2\n      mstore\n      pop\n      pop\n      swap1\n      pop\n        /* \"Day-02/D2P5.sol\":3623:3865  function getCalculationFromHistory(uint256 index) public view returns (Calculation memory) {... */\n      swap2\n      swap1\n      pop\n      jump\t// out\n        /* \"Day-02/D2P5.sol\":481:540  mapping(address => Calculation[]) public calculationHistory */\n    tag_26:\n      mstore(0x20, 0x00)\n      dup2\n      0x00\n      mstore\n      keccak256(0x00, 0x40)\n      dup2\n      dup2\n      sload\n      dup2\n      lt\n      tag_69\n      jumpi\n      0x00\n      dup1\n      revert\n    tag_69:\n      swap1\n      0x00\n      mstore\n      keccak256(0x00, 0x20)\n      swap1\n      0x05\n      mul\n      add\n      0x00\n      swap2\n      pop\n      swap2\n      pop\n      pop\n      dup1\n      0x00\n      add\n      sload\n      swap1\n      dup1\n      0x01\n      add\n      sload\n      swap1\n      dup1\n      0x02\n      add\n      sload\n      swap1\n      dup1\n      0x03\n      add\n      0x00\n      swap1\n      sload\n      swap1\n      0x0100\n      exp\n      swap1\n      div\n      0xff\n      and\n      swap1\n      dup1\n      0x04\n      add\n      sload\n      swap1\n      pop\n      dup6\n      jump\t// out\n        /* \"Day-02/D2P5.sol\":4453:4551  function clearCalculationHistory() public {... */\n    tag_30:\n        /* \"Day-02/D2P5.sol\":4513:4531  calculationHistory */\n      0x00\n        /* \"Day-02/D2P5.sol\":4513:4543  calculationHistory[msg.sender] */\n      dup1\n        /* \"Day-02/D2P5.sol\":4532:4542  msg.sender */\n      caller\n        /* \"Day-02/D2P5.sol\":4513:4543  calculationHistory[msg.sender] */\n      0xffffffffffffffffffffffffffffffffffffffff\n      and\n      0xffffffffffffffffffffffffffffffffffffffff\n      and\n      dup2\n      mstore\n      0x20\n      add\n      swap1\n      dup2\n      mstore\n      0x20\n      add\n      0x00\n      keccak256\n      0x00\n        /* \"Day-02/D2P5.sol\":4506:4543  delete calculationHistory[msg.sender] */\n      tag_72\n      swap2\n      swap1\n      tag_73\n      jump\t// in\n    tag_72:\n        /* \"Day-02/D2P5.sol\":4453:4551  function clearCalculationHistory() public {... */\n      jump\t// out\n        /* \"Day-02/D2P5.sol\":807:2276  function calculate(uint256 num1, uint256 num2, uint8 operationCode) public returns (int256) {... */\n    tag_34:\n        /* \"Day-02/D2P5.sol\":891:897  int256 */\n      0x00\n        /* \"Day-02/D2P5.sol\":935:936  4 */\n      0x04\n        /* \"Day-02/D2P5.sol\":918:931  operationCode */\n      dup3\n        /* \"Day-02/D2P5.sol\":918:936  operationCode <= 4 */\n      0xff\n      and\n      gt\n      iszero\n        /* \"Day-02/D2P5.sol\":910:1007  require(operationCode <= 4, \"Invalid operation: Use 0 for +, 1 for -, 2 for *, 3 for /, 4 for %\") */\n      tag_75\n      jumpi\n      mload(0x40)\n      0x08c379a000000000000000000000000000000000000000000000000000000000\n      dup2\n      mstore\n      0x04\n      add\n      tag_76\n      swap1\n      tag_77\n      jump\t// in\n    tag_76:\n      mload(0x40)\n      dup1\n      swap2\n      sub\n      swap1\n      revert\n    tag_75:\n        /* \"Day-02/D2P5.sol\":1028:1047  Operation operation */\n      0x00\n        /* \"Day-02/D2P5.sol\":1060:1073  operationCode */\n      dup3\n        /* \"Day-02/D2P5.sol\":1050:1074  Operation(operationCode) */\n      0xff\n      and\n      0x04\n      dup2\n      gt\n      iszero\n      tag_78\n      jumpi\n      tag_79\n      tag_66\n      jump\t// in\n    tag_79:\n    tag_78:\n        /* \"Day-02/D2P5.sol\":1028:1074  Operation operation = Operation(operationCode) */\n      swap1\n      pop\n        /* \"Day-02/D2P5.sol\":1085:1098  int256 result */\n      0x00\n        /* \"Day-02/D2P5.sol\":1191:1209  Operation.Addition */\n      dup1\n        /* \"Day-02/D2P5.sol\":1178:1209  operation == Operation.Addition */\n      0x04\n      dup2\n      gt\n      iszero\n      tag_80\n      jumpi\n      tag_81\n      tag_66\n      jump\t// in\n    tag_81:\n    tag_80:\n        /* \"Day-02/D2P5.sol\":1178:1187  operation */\n      dup3\n        /* \"Day-02/D2P5.sol\":1178:1209  operation == Operation.Addition */\n      0x04\n      dup2\n      gt\n      iszero\n      tag_82\n      jumpi\n      tag_83\n      tag_66\n      jump\t// in\n    tag_83:\n    tag_82:\n      sub\n        /* \"Day-02/D2P5.sol\":1174:1809  if (operation == Operation.Addition) {... */\n      tag_84\n      jumpi\n        /* \"Day-02/D2P5.sol\":1257:1261  num2 */\n      dup5\n        /* \"Day-02/D2P5.sol\":1242:1246  num1 */\n      dup7\n        /* \"Day-02/D2P5.sol\":1235:1262  int256(num1) + int256(num2) */\n      tag_85\n      swap2\n      swap1\n      tag_86\n      jump\t// in\n    tag_85:\n        /* \"Day-02/D2P5.sol\":1226:1262  result = int256(num1) + int256(num2) */\n      swap1\n      pop\n        /* \"Day-02/D2P5.sol\":1174:1809  if (operation == Operation.Addition) {... */\n      jump(tag_87)\n    tag_84:\n        /* \"Day-02/D2P5.sol\":1297:1318  Operation.Subtraction */\n      0x01\n        /* \"Day-02/D2P5.sol\":1284:1318  operation == Operation.Subtraction */\n      0x04\n      dup2\n      gt\n      iszero\n      tag_88\n      jumpi\n      tag_89\n      tag_66\n      jump\t// in\n    tag_89:\n    tag_88:\n        /* \"Day-02/D2P5.sol\":1284:1293  operation */\n      dup3\n        /* \"Day-02/D2P5.sol\":1284:1318  operation == Operation.Subtraction */\n      0x04\n      dup2\n      gt\n      iszero\n      tag_90\n      jumpi\n      tag_91\n      tag_66\n      jump\t// in\n    tag_91:\n    tag_90:\n      sub\n        /* \"Day-02/D2P5.sol\":1280:1809  if (operation == Operation.Subtraction) {... */\n      tag_92\n      jumpi\n        /* \"Day-02/D2P5.sol\":1366:1370  num2 */\n      dup5\n        /* \"Day-02/D2P5.sol\":1351:1355  num1 */\n      dup7\n        /* \"Day-02/D2P5.sol\":1344:1371  int256(num1) - int256(num2) */\n      tag_93\n      swap2\n      swap1\n      tag_94\n      jump\t// in\n    tag_93:\n        /* \"Day-02/D2P5.sol\":1335:1371  result = int256(num1) - int256(num2) */\n      swap1\n      pop\n        /* \"Day-02/D2P5.sol\":1280:1809  if (operation == Operation.Subtraction) {... */\n      jump(tag_95)\n    tag_92:\n        /* \"Day-02/D2P5.sol\":1406:1430  Operation.Multiplication */\n      0x02\n        /* \"Day-02/D2P5.sol\":1393:1430  operation == Operation.Multiplication */\n      0x04\n      dup2\n      gt\n      iszero\n      tag_96\n      jumpi\n      tag_97\n      tag_66\n      jump\t// in\n    tag_97:\n    tag_96:\n        /* \"Day-02/D2P5.sol\":1393:1402  operation */\n      dup3\n        /* \"Day-02/D2P5.sol\":1393:1430  operation == Operation.Multiplication */\n      0x04\n      dup2\n      gt\n      iszero\n      tag_98\n      jumpi\n      tag_99\n      tag_66\n      jump\t// in\n    tag_99:\n    tag_98:\n      sub\n        /* \"Day-02/D2P5.sol\":1389:1809  if (operation == Operation.Multiplication) {... */\n      tag_100\n      jumpi\n        /* \"Day-02/D2P5.sol\":1478:1482  num2 */\n      dup5\n        /* \"Day-02/D2P5.sol\":1463:1467  num1 */\n      dup7\n        /* \"Day-02/D2P5.sol\":1456:1483  int256(num1) * int256(num2) */\n      tag_101\n      swap2\n      swap1\n      tag_102\n      jump\t// in\n    tag_101:\n        /* \"Day-02/D2P5.sol\":1447:1483  result = int256(num1) * int256(num2) */\n      swap1\n      pop\n        /* \"Day-02/D2P5.sol\":1389:1809  if (operation == Operation.Multiplication) {... */\n      jump(tag_103)\n    tag_100:\n        /* \"Day-02/D2P5.sol\":1518:1536  Operation.Division */\n      0x03\n        /* \"Day-02/D2P5.sol\":1505:1536  operation == Operation.Division */\n      0x04\n      dup2\n      gt\n      iszero\n      tag_104\n      jumpi\n      tag_105\n      tag_66\n      jump\t// in\n    tag_105:\n    tag_104:\n        /* \"Day-02/D2P5.sol\":1505:1514  operation */\n      dup3\n        /* \"Day-02/D2P5.sol\":1505:1536  operation == Operation.Division */\n      0x04\n      dup2\n      gt\n      iszero\n      tag_106\n      jumpi\n      tag_107\n      tag_66\n      jump\t// in\n    tag_107:\n    tag_106:\n      sub\n        /* \"Day-02/D2P5.sol\":1501:1809  if (operation == Operation.Division) {... */\n      tag_108\n      jumpi\n        /* \"Day-02/D2P5.sol\":1569:1570  0 */\n      0x00\n        /* \"Day-02/D2P5.sol\":1561:1565  num2 */\n      dup6\n        /* \"Day-02/D2P5.sol\":1561:1570  num2 != 0 */\n      sub\n        /* \"Day-02/D2P5.sol\":1553:1591  require(num2 != 0, \"Division by zero\") */\n      tag_109\n      jumpi\n      mload(0x40)\n      0x08c379a000000000000000000000000000000000000000000000000000000000\n      dup2\n      mstore\n      0x04\n      add\n      tag_110\n      swap1\n      tag_111\n      jump\t// in\n    tag_110:\n      mload(0x40)\n      dup1\n      swap2\n      sub\n      swap1\n      revert\n    tag_109:\n        /* \"Day-02/D2P5.sol\":1637:1641  num2 */\n      dup5\n        /* \"Day-02/D2P5.sol\":1622:1626  num1 */\n      dup7\n        /* \"Day-02/D2P5.sol\":1615:1642  int256(num1) / int256(num2) */\n      tag_112\n      swap2\n      swap1\n      tag_113\n      jump\t// in\n    tag_112:\n        /* \"Day-02/D2P5.sol\":1606:1642  result = int256(num1) / int256(num2) */\n      swap1\n      pop\n        /* \"Day-02/D2P5.sol\":1501:1809  if (operation == Operation.Division) {... */\n      jump(tag_114)\n    tag_108:\n        /* \"Day-02/D2P5.sol\":1677:1693  Operation.Modulo */\n      0x04\n        /* \"Day-02/D2P5.sol\":1664:1693  operation == Operation.Modulo */\n      dup1\n      dup2\n      gt\n      iszero\n      tag_115\n      jumpi\n      tag_116\n      tag_66\n      jump\t// in\n    tag_116:\n    tag_115:\n        /* \"Day-02/D2P5.sol\":1664:1673  operation */\n      dup3\n        /* \"Day-02/D2P5.sol\":1664:1693  operation == Operation.Modulo */\n      0x04\n      dup2\n      gt\n      iszero\n      tag_117\n      jumpi\n      tag_118\n      tag_66\n      jump\t// in\n    tag_118:\n    tag_117:\n      sub\n        /* \"Day-02/D2P5.sol\":1660:1809  if (operation == Operation.Modulo) {... */\n      tag_119\n      jumpi\n        /* \"Day-02/D2P5.sol\":1726:1727  0 */\n      0x00\n        /* \"Day-02/D2P5.sol\":1718:1722  num2 */\n      dup6\n        /* \"Day-02/D2P5.sol\":1718:1727  num2 != 0 */\n      sub\n        /* \"Day-02/D2P5.sol\":1710:1746  require(num2 != 0, \"Modulo by zero\") */\n      tag_120\n      jumpi\n      mload(0x40)\n      0x08c379a000000000000000000000000000000000000000000000000000000000\n      dup2\n      mstore\n      0x04\n      add\n      tag_121\n      swap1\n      tag_122\n      jump\t// in\n    tag_121:\n      mload(0x40)\n      dup1\n      swap2\n      sub\n      swap1\n      revert\n    tag_120:\n        /* \"Day-02/D2P5.sol\":1792:1796  num2 */\n      dup5\n        /* \"Day-02/D2P5.sol\":1777:1781  num1 */\n      dup7\n        /* \"Day-02/D2P5.sol\":1770:1797  int256(num1) % int256(num2) */\n      tag_123\n      swap2\n      swap1\n      tag_124\n      jump\t// in\n    tag_123:\n        /* \"Day-02/D2P5.sol\":1761:1797  result = int256(num1) % int256(num2) */\n      swap1\n      pop\n        /* \"Day-02/D2P5.sol\":1660:1809  if (operation == Operation.Modulo) {... */\n    tag_119:\n        /* \"Day-02/D2P5.sol\":1501:1809  if (operation == Operation.Division) {... */\n    tag_114:\n        /* \"Day-02/D2P5.sol\":1389:1809  if (operation == Operation.Multiplication) {... */\n    tag_103:\n        /* \"Day-02/D2P5.sol\":1280:1809  if (operation == Operation.Subtraction) {... */\n    tag_95:\n        /* \"Day-02/D2P5.sol\":1174:1809  if (operation == Operation.Addition) {... */\n    tag_87:\n        /* \"Day-02/D2P5.sol\":1870:1888  calculationHistory */\n      0x00\n        /* \"Day-02/D2P5.sol\":1870:1900  calculationHistory[msg.sender] */\n      dup1\n        /* \"Day-02/D2P5.sol\":1889:1899  msg.sender */\n      caller\n        /* \"Day-02/D2P5.sol\":1870:1900  calculationHistory[msg.sender] */\n      0xffffffffffffffffffffffffffffffffffffffff\n      and\n      0xffffffffffffffffffffffffffffffffffffffff\n      and\n      dup2\n      mstore\n      0x20\n      add\n      swap1\n      dup2\n      mstore\n      0x20\n      add\n      0x00\n      keccak256\n        /* \"Day-02/D2P5.sol\":1920:2123  Calculation({... */\n      mload(0x40)\n      dup1\n      0xa0\n      add\n      0x40\n      mstore\n      dup1\n        /* \"Day-02/D2P5.sol\":1962:1977  block.timestamp */\n      timestamp\n        /* \"Day-02/D2P5.sol\":1920:2123  Calculation({... */\n      dup2\n      mstore\n      0x20\n      add\n        /* \"Day-02/D2P5.sol\":2002:2006  num1 */\n      dup9\n        /* \"Day-02/D2P5.sol\":1920:2123  Calculation({... */\n      dup2\n      mstore\n      0x20\n      add\n        /* \"Day-02/D2P5.sol\":2031:2035  num2 */\n      dup8\n        /* \"Day-02/D2P5.sol\":1920:2123  Calculation({... */\n      dup2\n      mstore\n      0x20\n      add\n        /* \"Day-02/D2P5.sol\":2065:2074  operation */\n      dup5\n        /* \"Day-02/D2P5.sol\":1920:2123  Calculation({... */\n      0x04\n      dup2\n      gt\n      iszero\n      tag_125\n      jumpi\n      tag_126\n      tag_66\n      jump\t// in\n    tag_126:\n    tag_125:\n      dup2\n      mstore\n      0x20\n      add\n        /* \"Day-02/D2P5.sol\":2101:2107  result */\n      dup4\n        /* \"Day-02/D2P5.sol\":1920:2123  Calculation({... */\n      dup2\n      mstore\n      pop\n        /* \"Day-02/D2P5.sol\":1870:2134  calculationHistory[msg.sender].push(... */\n      swap1\n      dup1\n      0x01\n      dup2\n      sload\n      add\n      dup1\n      dup3\n      sstore\n      dup1\n      swap2\n      pop\n      pop\n      0x01\n      swap1\n      sub\n      swap1\n      0x00\n      mstore\n      keccak256(0x00, 0x20)\n      swap1\n      0x05\n      mul\n      add\n      0x00\n      swap1\n      swap2\n      swap1\n      swap2\n      swap1\n      swap2\n      pop\n      0x00\n      dup3\n      add\n      mload\n      dup2\n      0x00\n      add\n      sstore\n      0x20\n      dup3\n      add\n      mload\n      dup2\n      0x01\n      add\n      sstore\n      0x40\n      dup3\n      add\n      mload\n      dup2\n      0x02\n      add\n      sstore\n      0x60\n      dup3\n      add\n      mload\n      dup2\n      0x03\n      add\n      exp(0x0100, 0x00)\n      dup2\n      sload\n      dup2\n      0xff\n      mul\n      not\n      and\n      swap1\n      dup4\n      0x04\n      dup2\n      gt\n      iszero\n      tag_128\n      jumpi\n      tag_129\n      tag_66\n      jump\t// in\n    tag_129:\n    tag_128:\n      mul\n      or\n      swap1\n      sstore\n      pop\n      0x80\n      dup3\n      add\n      mload\n      dup2\n      0x04\n      add\n      sstore\n      pop\n      pop\n        /* \"Day-02/D2P5.sol\":2183:2234  CalculationPerformed(num1, num2, operation, result) */\n      0x41deb3f74989a57044e364d2ea2c25f052e47668a5218ad2dcd1bebd37b657e7\n        /* \"Day-02/D2P5.sol\":2204:2208  num1 */\n      dup7\n        /* \"Day-02/D2P5.sol\":2210:2214  num2 */\n      dup7\n        /* \"Day-02/D2P5.sol\":2216:2225  operation */\n      dup5\n        /* \"Day-02/D2P5.sol\":2227:2233  result */\n      dup5\n        /* \"Day-02/D2P5.sol\":2183:2234  CalculationPerformed(num1, num2, operation, result) */\n      mload(0x40)\n      tag_130\n      swap5\n      swap4\n      swap3\n      swap2\n      swap1\n      tag_131\n      jump\t// in\n    tag_130:\n      mload(0x40)\n      dup1\n      swap2\n      sub\n      swap1\n      log1\n        /* \"Day-02/D2P5.sol\":2262:2268  result */\n      dup1\n        /* \"Day-02/D2P5.sol\":2255:2268  return result */\n      swap3\n      pop\n      pop\n      pop\n        /* \"Day-02/D2P5.sol\":807:2276  function calculate(uint256 num1, uint256 num2, uint8 operationCode) public returns (int256) {... */\n      swap4\n      swap3\n      pop\n      pop\n      pop\n      jump\t// out\n        /* \"Day-02/D2P5.sol\":3427:3551  function getCalculationCount() public view returns (uint256) {... */\n    tag_38:\n        /* \"Day-02/D2P5.sol\":3479:3486  uint256 */\n      0x00\n        /* \"Day-02/D2P5.sol\":3506:3524  calculationHistory */\n      dup1\n        /* \"Day-02/D2P5.sol\":3506:3536  calculationHistory[msg.sender] */\n      0x00\n        /* \"Day-02/D2P5.sol\":3525:3535  msg.sender */\n      caller\n        /* \"Day-02/D2P5.sol\":3506:3536  calculationHistory[msg.sender] */\n      0xffffffffffffffffffffffffffffffffffffffff\n      and\n      0xffffffffffffffffffffffffffffffffffffffff\n      and\n      dup2\n      mstore\n      0x20\n      add\n      swap1\n      dup2\n      mstore\n      0x20\n      add\n      0x00\n      keccak256\n        /* \"Day-02/D2P5.sol\":3506:3543  calculationHistory[msg.sender].length */\n      dup1\n      sload\n      swap1\n      pop\n        /* \"Day-02/D2P5.sol\":3499:3543  return calculationHistory[msg.sender].length */\n      swap1\n      pop\n        /* \"Day-02/D2P5.sol\":3427:3551  function getCalculationCount() public view returns (uint256) {... */\n      swap1\n      jump\t// out\n        /* \"Day-02/D2P5.sol\":2357:3340  function getCalculationResult(uint256 num1, uint256 num2, uint8 operationCode) public pure returns (int256) {... */\n    tag_43:\n        /* \"Day-02/D2P5.sol\":2457:2463  int256 */\n      0x00\n        /* \"Day-02/D2P5.sol\":2501:2502  4 */\n      0x04\n        /* \"Day-02/D2P5.sol\":2484:2497  operationCode */\n      dup3\n        /* \"Day-02/D2P5.sol\":2484:2502  operationCode <= 4 */\n      0xff\n      and\n      gt\n      iszero\n        /* \"Day-02/D2P5.sol\":2476:2573  require(operationCode <= 4, \"Invalid operation: Use 0 for +, 1 for -, 2 for *, 3 for /, 4 for %\") */\n      tag_134\n      jumpi\n      mload(0x40)\n      0x08c379a000000000000000000000000000000000000000000000000000000000\n      dup2\n      mstore\n      0x04\n      add\n      tag_135\n      swap1\n      tag_77\n      jump\t// in\n    tag_135:\n      mload(0x40)\n      dup1\n      swap2\n      sub\n      swap1\n      revert\n    tag_134:\n        /* \"Day-02/D2P5.sol\":2594:2613  Operation operation */\n      0x00\n        /* \"Day-02/D2P5.sol\":2626:2639  operationCode */\n      dup3\n        /* \"Day-02/D2P5.sol\":2616:2640  Operation(operationCode) */\n      0xff\n      and\n      0x04\n      dup2\n      gt\n      iszero\n      tag_136\n      jumpi\n      tag_137\n      tag_66\n      jump\t// in\n    tag_137:\n    tag_136:\n        /* \"Day-02/D2P5.sol\":2594:2640  Operation operation = Operation(operationCode) */\n      swap1\n      pop\n        /* \"Day-02/D2P5.sol\":2678:2696  Operation.Addition */\n      0x00\n        /* \"Day-02/D2P5.sol\":2665:2696  operation == Operation.Addition */\n      0x04\n      dup2\n      gt\n      iszero\n      tag_138\n      jumpi\n      tag_139\n      tag_66\n      jump\t// in\n    tag_139:\n    tag_138:\n        /* \"Day-02/D2P5.sol\":2665:2674  operation */\n      dup2\n        /* \"Day-02/D2P5.sol\":2665:2696  operation == Operation.Addition */\n      0x04\n      dup2\n      gt\n      iszero\n      tag_140\n      jumpi\n      tag_141\n      tag_66\n      jump\t// in\n    tag_141:\n    tag_140:\n      sub\n        /* \"Day-02/D2P5.sol\":2661:3286  if (operation == Operation.Addition) {... */\n      tag_142\n      jumpi\n        /* \"Day-02/D2P5.sol\":2742:2746  num2 */\n      dup4\n        /* \"Day-02/D2P5.sol\":2727:2731  num1 */\n      dup6\n        /* \"Day-02/D2P5.sol\":2720:2747  int256(num1) + int256(num2) */\n      tag_143\n      swap2\n      swap1\n      tag_86\n      jump\t// in\n    tag_143:\n        /* \"Day-02/D2P5.sol\":2713:2747  return int256(num1) + int256(num2) */\n      swap2\n      pop\n      pop\n      jump(tag_133)\n        /* \"Day-02/D2P5.sol\":2661:3286  if (operation == Operation.Addition) {... */\n    tag_142:\n        /* \"Day-02/D2P5.sol\":2782:2803  Operation.Subtraction */\n      0x01\n        /* \"Day-02/D2P5.sol\":2769:2803  operation == Operation.Subtraction */\n      0x04\n      dup2\n      gt\n      iszero\n      tag_145\n      jumpi\n      tag_146\n      tag_66\n      jump\t// in\n    tag_146:\n    tag_145:\n        /* \"Day-02/D2P5.sol\":2769:2778  operation */\n      dup2\n        /* \"Day-02/D2P5.sol\":2769:2803  operation == Operation.Subtraction */\n      0x04\n      dup2\n      gt\n      iszero\n      tag_147\n      jumpi\n      tag_148\n      tag_66\n      jump\t// in\n    tag_148:\n    tag_147:\n      sub\n        /* \"Day-02/D2P5.sol\":2765:3286  if (operation == Operation.Subtraction) {... */\n      tag_149\n      jumpi\n        /* \"Day-02/D2P5.sol\":2849:2853  num2 */\n      dup4\n        /* \"Day-02/D2P5.sol\":2834:2838  num1 */\n      dup6\n        /* \"Day-02/D2P5.sol\":2827:2854  int256(num1) - int256(num2) */\n      tag_150\n      swap2\n      swap1\n      tag_94\n      jump\t// in\n    tag_150:\n        /* \"Day-02/D2P5.sol\":2820:2854  return int256(num1) - int256(num2) */\n      swap2\n      pop\n      pop\n      jump(tag_133)\n        /* \"Day-02/D2P5.sol\":2765:3286  if (operation == Operation.Subtraction) {... */\n    tag_149:\n        /* \"Day-02/D2P5.sol\":2889:2913  Operation.Multiplication */\n      0x02\n        /* \"Day-02/D2P5.sol\":2876:2913  operation == Operation.Multiplication */\n      0x04\n      dup2\n      gt\n      iszero\n      tag_152\n      jumpi\n      tag_153\n      tag_66\n      jump\t// in\n    tag_153:\n    tag_152:\n        /* \"Day-02/D2P5.sol\":2876:2885  operation */\n      dup2\n        /* \"Day-02/D2P5.sol\":2876:2913  operation == Operation.Multiplication */\n      0x04\n      dup2\n      gt\n      iszero\n      tag_154\n      jumpi\n      tag_155\n      tag_66\n      jump\t// in\n    tag_155:\n    tag_154:\n      sub\n        /* \"Day-02/D2P5.sol\":2872:3286  if (operation == Operation.Multiplication) {... */\n      tag_156\n      jumpi\n        /* \"Day-02/D2P5.sol\":2959:2963  num2 */\n      dup4\n        /* \"Day-02/D2P5.sol\":2944:2948  num1 */\n      dup6\n        /* \"Day-02/D2P5.sol\":2937:2964  int256(num1) * int256(num2) */\n      tag_157\n      swap2\n      swap1\n      tag_102\n      jump\t// in\n    tag_157:\n        /* \"Day-02/D2P5.sol\":2930:2964  return int256(num1) * int256(num2) */\n      swap2\n      pop\n      pop\n      jump(tag_133)\n        /* \"Day-02/D2P5.sol\":2872:3286  if (operation == Operation.Multiplication) {... */\n    tag_156:\n        /* \"Day-02/D2P5.sol\":2999:3017  Operation.Division */\n      0x03\n        /* \"Day-02/D2P5.sol\":2986:3017  operation == Operation.Division */\n      0x04\n      dup2\n      gt\n      iszero\n      tag_159\n      jumpi\n      tag_160\n      tag_66\n      jump\t// in\n    tag_160:\n    tag_159:\n        /* \"Day-02/D2P5.sol\":2986:2995  operation */\n      dup2\n        /* \"Day-02/D2P5.sol\":2986:3017  operation == Operation.Division */\n      0x04\n      dup2\n      gt\n      iszero\n      tag_161\n      jumpi\n      tag_162\n      tag_66\n      jump\t// in\n    tag_162:\n    tag_161:\n      sub\n        /* \"Day-02/D2P5.sol\":2982:3286  if (operation == Operation.Division) {... */\n      tag_163\n      jumpi\n        /* \"Day-02/D2P5.sol\":3050:3051  0 */\n      0x00\n        /* \"Day-02/D2P5.sol\":3042:3046  num2 */\n      dup5\n        /* \"Day-02/D2P5.sol\":3042:3051  num2 != 0 */\n      sub\n        /* \"Day-02/D2P5.sol\":3034:3072  require(num2 != 0, \"Division by zero\") */\n      tag_164\n      jumpi\n      mload(0x40)\n      0x08c379a000000000000000000000000000000000000000000000000000000000\n      dup2\n      mstore\n      0x04\n      add\n      tag_165\n      swap1\n      tag_111\n      jump\t// in\n    tag_165:\n      mload(0x40)\n      dup1\n      swap2\n      sub\n      swap1\n      revert\n    tag_164:\n        /* \"Day-02/D2P5.sol\":3116:3120  num2 */\n      dup4\n        /* \"Day-02/D2P5.sol\":3101:3105  num1 */\n      dup6\n        /* \"Day-02/D2P5.sol\":3094:3121  int256(num1) / int256(num2) */\n      tag_166\n      swap2\n      swap1\n      tag_113\n      jump\t// in\n    tag_166:\n        /* \"Day-02/D2P5.sol\":3087:3121  return int256(num1) / int256(num2) */\n      swap2\n      pop\n      pop\n      jump(tag_133)\n        /* \"Day-02/D2P5.sol\":2982:3286  if (operation == Operation.Division) {... */\n    tag_163:\n        /* \"Day-02/D2P5.sol\":3156:3172  Operation.Modulo */\n      0x04\n        /* \"Day-02/D2P5.sol\":3143:3172  operation == Operation.Modulo */\n      dup1\n      dup2\n      gt\n      iszero\n      tag_168\n      jumpi\n      tag_169\n      tag_66\n      jump\t// in\n    tag_169:\n    tag_168:\n        /* \"Day-02/D2P5.sol\":3143:3152  operation */\n      dup2\n        /* \"Day-02/D2P5.sol\":3143:3172  operation == Operation.Modulo */\n      0x04\n      dup2\n      gt\n      iszero\n      tag_170\n      jumpi\n      tag_171\n      tag_66\n      jump\t// in\n    tag_171:\n    tag_170:\n      sub\n        /* \"Day-02/D2P5.sol\":3139:3286  if (operation == Operation.Modulo) {... */\n      tag_172\n      jumpi\n        /* \"Day-02/D2P5.sol\":3205:3206  0 */\n      0x00\n        /* \"Day-02/D2P5.sol\":3197:3201  num2 */\n      dup5\n        /* \"Day-02/D2P5.sol\":3197:3206  num2 != 0 */\n      sub\n        /* \"Day-02/D2P5.sol\":3189:3225  require(num2 != 0, \"Modulo by zero\") */\n      tag_173\n      jumpi\n      mload(0x40)\n      0x08c379a000000000000000000000000000000000000000000000000000000000\n      dup2\n      mstore\n      0x04\n      add\n      tag_174\n      swap1\n      tag_122\n      jump\t// in\n    tag_174:\n      mload(0x40)\n      dup1\n      swap2\n      sub\n      swap1\n      revert\n    tag_173:\n        /* \"Day-02/D2P5.sol\":3269:3273  num2 */\n      dup4\n        /* \"Day-02/D2P5.sol\":3254:3258  num1 */\n      dup6\n        /* \"Day-02/D2P5.sol\":3247:3274  int256(num1) % int256(num2) */\n      tag_175\n      swap2\n      swap1\n      tag_124\n      jump\t// in\n    tag_175:\n        /* \"Day-02/D2P5.sol\":3240:3274  return int256(num1) % int256(num2) */\n      swap2\n      pop\n      pop\n      jump(tag_133)\n        /* \"Day-02/D2P5.sol\":3139:3286  if (operation == Operation.Modulo) {... */\n    tag_172:\n        /* \"Day-02/D2P5.sol\":3306:3332  revert(\"Unexpected error\") */\n      mload(0x40)\n      0x08c379a000000000000000000000000000000000000000000000000000000000\n      dup2\n      mstore\n      0x04\n      add\n      tag_176\n      swap1\n      tag_177\n      jump\t// in\n    tag_176:\n      mload(0x40)\n      dup1\n      swap2\n      sub\n      swap1\n      revert\n        /* \"Day-02/D2P5.sol\":2357:3340  function getCalculationResult(uint256 num1, uint256 num2, uint8 operationCode) public pure returns (int256) {... */\n    tag_133:\n      swap4\n      swap3\n      pop\n      pop\n      pop\n      jump\t// out\n    tag_55:\n      mload(0x40)\n      dup1\n      0xa0\n      add\n      0x40\n      mstore\n      dup1\n      0x00\n      dup2\n      mstore\n      0x20\n      add\n      0x00\n      dup2\n      mstore\n      0x20\n      add\n      0x00\n      dup2\n      mstore\n      0x20\n      add\n      0x00\n      0x04\n      dup2\n      gt\n      iszero\n      tag_178\n      jumpi\n      tag_179\n      tag_66\n      jump\t// in\n    tag_179:\n    tag_178:\n      dup2\n      mstore\n      0x20\n      add\n      0x00\n      dup2\n      mstore\n      pop\n      swap1\n      jump\t// out\n    tag_73:\n      pop\n      dup1\n      sload\n      0x00\n      dup3\n      sstore\n      0x05\n      mul\n      swap1\n      0x00\n      mstore\n      keccak256(0x00, 0x20)\n      swap1\n      dup2\n      add\n      swap1\n      tag_181\n      swap2\n      swap1\n      tag_182\n      jump\t// in\n    tag_181:\n      pop\n      jump\t// out\n    tag_182:\n    tag_183:\n      dup1\n      dup3\n      gt\n      iszero\n      tag_184\n      jumpi\n      0x00\n      dup1\n      dup3\n      add\n      0x00\n      swap1\n      sstore\n      0x01\n      dup3\n      add\n      0x00\n      swap1\n      sstore\n      0x02\n      dup3\n      add\n      0x00\n      swap1\n      sstore\n      0x03\n      dup3\n      add\n      exp(0x0100, 0x00)\n      dup2\n      sload\n      swap1\n      0xff\n      mul\n      not\n      and\n      swap1\n      sstore\n      0x04\n      dup3\n      add\n      0x00\n      swap1\n      sstore\n      pop\n      0x05\n      add\n      jump(tag_183)\n    tag_184:\n      pop\n      swap1\n      jump\t// out\n        /* \"#utility.yul\":88:205   */\n    tag_186:\n        /* \"#utility.yul\":197:198   */\n      0x00\n        /* \"#utility.yul\":194:195   */\n      dup1\n        /* \"#utility.yul\":187:199   */\n      revert\n        /* \"#utility.yul\":334:420   */\n    tag_188:\n        /* \"#utility.yul\":369:376   */\n      0x00\n        /* \"#utility.yul\":409:413   */\n      0xff\n        /* \"#utility.yul\":402:407   */\n      dup3\n        /* \"#utility.yul\":398:414   */\n      and\n        /* \"#utility.yul\":387:414   */\n      swap1\n      pop\n        /* \"#utility.yul\":334:420   */\n      swap2\n      swap1\n      pop\n      jump\t// out\n        /* \"#utility.yul\":426:544   */\n    tag_189:\n        /* \"#utility.yul\":497:519   */\n      tag_234\n        /* \"#utility.yul\":513:518   */\n      dup2\n        /* \"#utility.yul\":497:519   */\n      tag_188\n      jump\t// in\n    tag_234:\n        /* \"#utility.yul\":490:495   */\n      dup2\n        /* \"#utility.yul\":487:520   */\n      eq\n        /* \"#utility.yul\":477:538   */\n      tag_235\n      jumpi\n        /* \"#utility.yul\":534:535   */\n      0x00\n        /* \"#utility.yul\":531:532   */\n      dup1\n        /* \"#utility.yul\":524:536   */\n      revert\n        /* \"#utility.yul\":477:538   */\n    tag_235:\n        /* \"#utility.yul\":426:544   */\n      pop\n      jump\t// out\n        /* \"#utility.yul\":550:685   */\n    tag_190:\n        /* \"#utility.yul\":594:599   */\n      0x00\n        /* \"#utility.yul\":632:638   */\n      dup2\n        /* \"#utility.yul\":619:639   */\n      calldataload\n        /* \"#utility.yul\":610:639   */\n      swap1\n      pop\n        /* \"#utility.yul\":648:679   */\n      tag_237\n        /* \"#utility.yul\":673:678   */\n      dup2\n        /* \"#utility.yul\":648:679   */\n      tag_189\n      jump\t// in\n    tag_237:\n        /* \"#utility.yul\":550:685   */\n      swap3\n      swap2\n      pop\n      pop\n      jump\t// out\n        /* \"#utility.yul\":691:1016   */\n    tag_13:\n        /* \"#utility.yul\":748:754   */\n      0x00\n        /* \"#utility.yul\":797:799   */\n      0x20\n        /* \"#utility.yul\":785:794   */\n      dup3\n        /* \"#utility.yul\":776:783   */\n      dup5\n        /* \"#utility.yul\":772:795   */\n      sub\n        /* \"#utility.yul\":768:800   */\n      slt\n        /* \"#utility.yul\":765:884   */\n      iszero\n      tag_239\n      jumpi\n        /* \"#utility.yul\":803:882   */\n      tag_240\n      tag_186\n      jump\t// in\n    tag_240:\n        /* \"#utility.yul\":765:884   */\n    tag_239:\n        /* \"#utility.yul\":923:924   */\n      0x00\n        /* \"#utility.yul\":948:999   */\n      tag_241\n        /* \"#utility.yul\":991:998   */\n      dup5\n        /* \"#utility.yul\":982:988   */\n      dup3\n        /* \"#utility.yul\":971:980   */\n      dup6\n        /* \"#utility.yul\":967:989   */\n      add\n        /* \"#utility.yul\":948:999   */\n      tag_190\n      jump\t// in\n    tag_241:\n        /* \"#utility.yul\":938:999   */\n      swap2\n      pop\n        /* \"#utility.yul\":894:1009   */\n      pop\n        /* \"#utility.yul\":691:1016   */\n      swap3\n      swap2\n      pop\n      pop\n      jump\t// out\n        /* \"#utility.yul\":1022:1121   */\n    tag_191:\n        /* \"#utility.yul\":1074:1080   */\n      0x00\n        /* \"#utility.yul\":1108:1113   */\n      dup2\n        /* \"#utility.yul\":1102:1114   */\n      mload\n        /* \"#utility.yul\":1092:1114   */\n      swap1\n      pop\n        /* \"#utility.yul\":1022:1121   */\n      swap2\n      swap1\n      pop\n      jump\t// out\n        /* \"#utility.yul\":1127:1296   */\n    tag_192:\n        /* \"#utility.yul\":1211:1222   */\n      0x00\n        /* \"#utility.yul\":1245:1251   */\n      dup3\n        /* \"#utility.yul\":1240:1243   */\n      dup3\n        /* \"#utility.yul\":1233:1252   */\n      mstore\n        /* \"#utility.yul\":1285:1289   */\n      0x20\n        /* \"#utility.yul\":1280:1283   */\n      dup3\n        /* \"#utility.yul\":1276:1290   */\n      add\n        /* \"#utility.yul\":1261:1290   */\n      swap1\n      pop\n        /* \"#utility.yul\":1127:1296   */\n      swap3\n      swap2\n      pop\n      pop\n      jump\t// out\n        /* \"#utility.yul\":1302:1441   */\n    tag_193:\n        /* \"#utility.yul\":1391:1397   */\n      dup3\n        /* \"#utility.yul\":1386:1389   */\n      dup2\n        /* \"#utility.yul\":1381:1384   */\n      dup4\n        /* \"#utility.yul\":1375:1398   */\n      mcopy\n        /* \"#utility.yul\":1432:1433   */\n      0x00\n        /* \"#utility.yul\":1423:1429   */\n      dup4\n        /* \"#utility.yul\":1418:1421   */\n      dup4\n        /* \"#utility.yul\":1414:1430   */\n      add\n        /* \"#utility.yul\":1407:1434   */\n      mstore\n        /* \"#utility.yul\":1302:1441   */\n      pop\n      pop\n      pop\n      jump\t// out\n        /* \"#utility.yul\":1447:1549   */\n    tag_194:\n        /* \"#utility.yul\":1488:1494   */\n      0x00\n        /* \"#utility.yul\":1539:1541   */\n      0x1f\n        /* \"#utility.yul\":1535:1542   */\n      not\n        /* \"#utility.yul\":1530:1532   */\n      0x1f\n        /* \"#utility.yul\":1523:1528   */\n      dup4\n        /* \"#utility.yul\":1519:1533   */\n      add\n        /* \"#utility.yul\":1515:1543   */\n      and\n        /* \"#utility.yul\":1505:1543   */\n      swap1\n      pop\n        /* \"#utility.yul\":1447:1549   */\n      swap2\n      swap1\n      pop\n      jump\t// out\n        /* \"#utility.yul\":1555:1932   */\n    tag_195:\n        /* \"#utility.yul\":1643:1646   */\n      0x00\n        /* \"#utility.yul\":1671:1710   */\n      tag_247\n        /* \"#utility.yul\":1704:1709   */\n      dup3\n        /* \"#utility.yul\":1671:1710   */\n      tag_191\n      jump\t// in\n    tag_247:\n        /* \"#utility.yul\":1726:1797   */\n      tag_248\n        /* \"#utility.yul\":1790:1796   */\n      dup2\n        /* \"#utility.yul\":1785:1788   */\n      dup6\n        /* \"#utility.yul\":1726:1797   */\n      tag_192\n      jump\t// in\n    tag_248:\n        /* \"#utility.yul\":1719:1797   */\n      swap4\n      pop\n        /* \"#utility.yul\":1806:1871   */\n      tag_249\n        /* \"#utility.yul\":1864:1870   */\n      dup2\n        /* \"#utility.yul\":1859:1862   */\n      dup6\n        /* \"#utility.yul\":1852:1856   */\n      0x20\n        /* \"#utility.yul\":1845:1850   */\n      dup7\n        /* \"#utility.yul\":1841:1857   */\n      add\n        /* \"#utility.yul\":1806:1871   */\n      tag_193\n      jump\t// in\n    tag_249:\n        /* \"#utility.yul\":1896:1925   */\n      tag_250\n        /* \"#utility.yul\":1918:1924   */\n      dup2\n        /* \"#utility.yul\":1896:1925   */\n      tag_194\n      jump\t// in\n    tag_250:\n        /* \"#utility.yul\":1891:1894   */\n      dup5\n        /* \"#utility.yul\":1887:1926   */\n      add\n        /* \"#utility.yul\":1880:1926   */\n      swap2\n      pop\n        /* \"#utility.yul\":1647:1932   */\n      pop\n        /* \"#utility.yul\":1555:1932   */\n      swap3\n      swap2\n      pop\n      pop\n      jump\t// out\n        /* \"#utility.yul\":1938:2251   */\n    tag_16:\n        /* \"#utility.yul\":2051:2055   */\n      0x00\n        /* \"#utility.yul\":2089:2091   */\n      0x20\n        /* \"#utility.yul\":2078:2087   */\n      dup3\n        /* \"#utility.yul\":2074:2092   */\n      add\n        /* \"#utility.yul\":2066:2092   */\n      swap1\n      pop\n        /* \"#utility.yul\":2138:2147   */\n      dup2\n        /* \"#utility.yul\":2132:2136   */\n      dup2\n        /* \"#utility.yul\":2128:2148   */\n      sub\n        /* \"#utility.yul\":2124:2125   */\n      0x00\n        /* \"#utility.yul\":2113:2122   */\n      dup4\n        /* \"#utility.yul\":2109:2126   */\n      add\n        /* \"#utility.yul\":2102:2149   */\n      mstore\n        /* \"#utility.yul\":2166:2244   */\n      tag_252\n        /* \"#utility.yul\":2239:2243   */\n      dup2\n        /* \"#utility.yul\":2230:2236   */\n      dup5\n        /* \"#utility.yul\":2166:2244   */\n      tag_195\n      jump\t// in\n    tag_252:\n        /* \"#utility.yul\":2158:2244   */\n      swap1\n      pop\n        /* \"#utility.yul\":1938:2251   */\n      swap3\n      swap2\n      pop\n      pop\n      jump\t// out\n        /* \"#utility.yul\":2257:2334   */\n    tag_196:\n        /* \"#utility.yul\":2294:2301   */\n      0x00\n        /* \"#utility.yul\":2323:2328   */\n      dup2\n        /* \"#utility.yul\":2312:2328   */\n      swap1\n      pop\n        /* \"#utility.yul\":2257:2334   */\n      swap2\n      swap1\n      pop\n      jump\t// out\n        /* \"#utility.yul\":2340:2462   */\n    tag_197:\n        /* \"#utility.yul\":2413:2437   */\n      tag_255\n        /* \"#utility.yul\":2431:2436   */\n      dup2\n        /* \"#utility.yul\":2413:2437   */\n      tag_196\n      jump\t// in\n    tag_255:\n        /* \"#utility.yul\":2406:2411   */\n      dup2\n        /* \"#utility.yul\":2403:2438   */\n      eq\n        /* \"#utility.yul\":2393:2456   */\n      tag_256\n      jumpi\n        /* \"#utility.yul\":2452:2453   */\n      0x00\n        /* \"#utility.yul\":2449:2450   */\n      dup1\n        /* \"#utility.yul\":2442:2454   */\n      revert\n        /* \"#utility.yul\":2393:2456   */\n    tag_256:\n        /* \"#utility.yul\":2340:2462   */\n      pop\n      jump\t// out\n        /* \"#utility.yul\":2468:2607   */\n    tag_198:\n        /* \"#utility.yul\":2514:2519   */\n      0x00\n        /* \"#utility.yul\":2552:2558   */\n      dup2\n        /* \"#utility.yul\":2539:2559   */\n      calldataload\n        /* \"#utility.yul\":2530:2559   */\n      swap1\n      pop\n        /* \"#utility.yul\":2568:2601   */\n      tag_258\n        /* \"#utility.yul\":2595:2600   */\n      dup2\n        /* \"#utility.yul\":2568:2601   */\n      tag_197\n      jump\t// in\n    tag_258:\n        /* \"#utility.yul\":2468:2607   */\n      swap3\n      swap2\n      pop\n      pop\n      jump\t// out\n        /* \"#utility.yul\":2613:2942   */\n    tag_19:\n        /* \"#utility.yul\":2672:2678   */\n      0x00\n        /* \"#utility.yul\":2721:2723   */\n      0x20\n        /* \"#utility.yul\":2709:2718   */\n      dup3\n        /* \"#utility.yul\":2700:2707   */\n      dup5\n        /* \"#utility.yul\":2696:2719   */\n      sub\n        /* \"#utility.yul\":2692:2724   */\n      slt\n        /* \"#utility.yul\":2689:2808   */\n      iszero\n      tag_260\n      jumpi\n        /* \"#utility.yul\":2727:2806   */\n      tag_261\n      tag_186\n      jump\t// in\n    tag_261:\n        /* \"#utility.yul\":2689:2808   */\n    tag_260:\n        /* \"#utility.yul\":2847:2848   */\n      0x00\n        /* \"#utility.yul\":2872:2925   */\n      tag_262\n        /* \"#utility.yul\":2917:2924   */\n      dup5\n        /* \"#utility.yul\":2908:2914   */\n      dup3\n        /* \"#utility.yul\":2897:2906   */\n      dup6\n        /* \"#utility.yul\":2893:2915   */\n      add\n        /* \"#utility.yul\":2872:2925   */\n      tag_198\n      jump\t// in\n    tag_262:\n        /* \"#utility.yul\":2862:2925   */\n      swap2\n      pop\n        /* \"#utility.yul\":2818:2935   */\n      pop\n        /* \"#utility.yul\":2613:2942   */\n      swap3\n      swap2\n      pop\n      pop\n      jump\t// out\n        /* \"#utility.yul\":2948:3056   */\n    tag_199:\n        /* \"#utility.yul\":3025:3049   */\n      tag_264\n        /* \"#utility.yul\":3043:3048   */\n      dup2\n        /* \"#utility.yul\":3025:3049   */\n      tag_196\n      jump\t// in\n    tag_264:\n        /* \"#utility.yul\":3020:3023   */\n      dup3\n        /* \"#utility.yul\":3013:3050   */\n      mstore\n        /* \"#utility.yul\":2948:3056   */\n      pop\n      pop\n      jump\t// out\n        /* \"#utility.yul\":3062:3242   */\n    tag_66:\n        /* \"#utility.yul\":3110:3187   */\n      0x4e487b7100000000000000000000000000000000000000000000000000000000\n        /* \"#utility.yul\":3107:3108   */\n      0x00\n        /* \"#utility.yul\":3100:3188   */\n      mstore\n        /* \"#utility.yul\":3207:3211   */\n      0x21\n        /* \"#utility.yul\":3204:3205   */\n      0x04\n        /* \"#utility.yul\":3197:3212   */\n      mstore\n        /* \"#utility.yul\":3231:3235   */\n      0x24\n        /* \"#utility.yul\":3228:3229   */\n      0x00\n        /* \"#utility.yul\":3221:3236   */\n      revert\n        /* \"#utility.yul\":3248:3364   */\n    tag_200:\n        /* \"#utility.yul\":3332:3333   */\n      0x05\n        /* \"#utility.yul\":3325:3330   */\n      dup2\n        /* \"#utility.yul\":3322:3334   */\n      lt\n        /* \"#utility.yul\":3312:3358   */\n      tag_267\n      jumpi\n        /* \"#utility.yul\":3338:3356   */\n      tag_268\n      tag_66\n      jump\t// in\n    tag_268:\n        /* \"#utility.yul\":3312:3358   */\n    tag_267:\n        /* \"#utility.yul\":3248:3364   */\n      pop\n      jump\t// out\n        /* \"#utility.yul\":3370:3503   */\n    tag_201:\n        /* \"#utility.yul\":3418:3425   */\n      0x00\n        /* \"#utility.yul\":3447:3452   */\n      dup2\n        /* \"#utility.yul\":3436:3452   */\n      swap1\n      pop\n        /* \"#utility.yul\":3453:3497   */\n      tag_270\n        /* \"#utility.yul\":3491:3496   */\n      dup3\n        /* \"#utility.yul\":3453:3497   */\n      tag_200\n      jump\t// in\n    tag_270:\n        /* \"#utility.yul\":3370:3503   */\n      swap2\n      swap1\n      pop\n      jump\t// out\n        /* \"#utility.yul\":3509:3642   */\n    tag_202:\n        /* \"#utility.yul\":3568:3577   */\n      0x00\n        /* \"#utility.yul\":3601:3636   */\n      tag_272\n        /* \"#utility.yul\":3630:3635   */\n      dup3\n        /* \"#utility.yul\":3601:3636   */\n      tag_201\n      jump\t// in\n    tag_272:\n        /* \"#utility.yul\":3588:3636   */\n      swap1\n      pop\n        /* \"#utility.yul\":3509:3642   */\n      swap2\n      swap1\n      pop\n      jump\t// out\n        /* \"#utility.yul\":3648:3787   */\n    tag_203:\n        /* \"#utility.yul\":3734:3780   */\n      tag_274\n        /* \"#utility.yul\":3774:3779   */\n      dup2\n        /* \"#utility.yul\":3734:3780   */\n      tag_202\n      jump\t// in\n    tag_274:\n        /* \"#utility.yul\":3729:3732   */\n      dup3\n        /* \"#utility.yul\":3722:3781   */\n      mstore\n        /* \"#utility.yul\":3648:3787   */\n      pop\n      pop\n      jump\t// out\n        /* \"#utility.yul\":3793:3869   */\n    tag_204:\n        /* \"#utility.yul\":3829:3836   */\n      0x00\n        /* \"#utility.yul\":3858:3863   */\n      dup2\n        /* \"#utility.yul\":3847:3863   */\n      swap1\n      pop\n        /* \"#utility.yul\":3793:3869   */\n      swap2\n      swap1\n      pop\n      jump\t// out\n        /* \"#utility.yul\":3875:3980   */\n    tag_205:\n        /* \"#utility.yul\":3950:3973   */\n      tag_277\n        /* \"#utility.yul\":3967:3972   */\n      dup2\n        /* \"#utility.yul\":3950:3973   */\n      tag_204\n      jump\t// in\n    tag_277:\n        /* \"#utility.yul\":3945:3948   */\n      dup3\n        /* \"#utility.yul\":3938:3974   */\n      mstore\n        /* \"#utility.yul\":3875:3980   */\n      pop\n      pop\n      jump\t// out\n        /* \"#utility.yul\":4068:5120   */\n    tag_206:\n        /* \"#utility.yul\":4219:4223   */\n      0xa0\n        /* \"#utility.yul\":4214:4217   */\n      dup3\n        /* \"#utility.yul\":4210:4224   */\n      add\n        /* \"#utility.yul\":4311:4315   */\n      0x00\n        /* \"#utility.yul\":4304:4309   */\n      dup3\n        /* \"#utility.yul\":4300:4316   */\n      add\n        /* \"#utility.yul\":4294:4317   */\n      mload\n        /* \"#utility.yul\":4330:4393   */\n      tag_279\n        /* \"#utility.yul\":4387:4391   */\n      0x00\n        /* \"#utility.yul\":4382:4385   */\n      dup6\n        /* \"#utility.yul\":4378:4392   */\n      add\n        /* \"#utility.yul\":4364:4376   */\n      dup3\n        /* \"#utility.yul\":4330:4393   */\n      tag_199\n      jump\t// in\n    tag_279:\n        /* \"#utility.yul\":4234:4403   */\n      pop\n        /* \"#utility.yul\":4485:4489   */\n      0x20\n        /* \"#utility.yul\":4478:4483   */\n      dup3\n        /* \"#utility.yul\":4474:4490   */\n      add\n        /* \"#utility.yul\":4468:4491   */\n      mload\n        /* \"#utility.yul\":4504:4567   */\n      tag_280\n        /* \"#utility.yul\":4561:4565   */\n      0x20\n        /* \"#utility.yul\":4556:4559   */\n      dup6\n        /* \"#utility.yul\":4552:4566   */\n      add\n        /* \"#utility.yul\":4538:4550   */\n      dup3\n        /* \"#utility.yul\":4504:4567   */\n      tag_199\n      jump\t// in\n    tag_280:\n        /* \"#utility.yul\":4413:4577   */\n      pop\n        /* \"#utility.yul\":4659:4663   */\n      0x40\n        /* \"#utility.yul\":4652:4657   */\n      dup3\n        /* \"#utility.yul\":4648:4664   */\n      add\n        /* \"#utility.yul\":4642:4665   */\n      mload\n        /* \"#utility.yul\":4678:4741   */\n      tag_281\n        /* \"#utility.yul\":4735:4739   */\n      0x40\n        /* \"#utility.yul\":4730:4733   */\n      dup6\n        /* \"#utility.yul\":4726:4740   */\n      add\n        /* \"#utility.yul\":4712:4724   */\n      dup3\n        /* \"#utility.yul\":4678:4741   */\n      tag_199\n      jump\t// in\n    tag_281:\n        /* \"#utility.yul\":4587:4751   */\n      pop\n        /* \"#utility.yul\":4838:4842   */\n      0x60\n        /* \"#utility.yul\":4831:4836   */\n      dup3\n        /* \"#utility.yul\":4827:4843   */\n      add\n        /* \"#utility.yul\":4821:4844   */\n      mload\n        /* \"#utility.yul\":4857:4929   */\n      tag_282\n        /* \"#utility.yul\":4923:4927   */\n      0x60\n        /* \"#utility.yul\":4918:4921   */\n      dup6\n        /* \"#utility.yul\":4914:4928   */\n      add\n        /* \"#utility.yul\":4900:4912   */\n      dup3\n        /* \"#utility.yul\":4857:4929   */\n      tag_203\n      jump\t// in\n    tag_282:\n        /* \"#utility.yul\":4761:4939   */\n      pop\n        /* \"#utility.yul\":5023:5027   */\n      0x80\n        /* \"#utility.yul\":5016:5021   */\n      dup3\n        /* \"#utility.yul\":5012:5028   */\n      add\n        /* \"#utility.yul\":5006:5029   */\n      mload\n        /* \"#utility.yul\":5042:5103   */\n      tag_283\n        /* \"#utility.yul\":5097:5101   */\n      0x80\n        /* \"#utility.yul\":5092:5095   */\n      dup6\n        /* \"#utility.yul\":5088:5102   */\n      add\n        /* \"#utility.yul\":5074:5086   */\n      dup3\n        /* \"#utility.yul\":5042:5103   */\n      tag_205\n      jump\t// in\n    tag_283:\n        /* \"#utility.yul\":4949:5113   */\n      pop\n        /* \"#utility.yul\":4188:5120   */\n      pop\n        /* \"#utility.yul\":4068:5120   */\n      pop\n      pop\n      jump\t// out\n        /* \"#utility.yul\":5126:5457   */\n    tag_22:\n        /* \"#utility.yul\":5273:5277   */\n      0x00\n        /* \"#utility.yul\":5311:5314   */\n      0xa0\n        /* \"#utility.yul\":5300:5309   */\n      dup3\n        /* \"#utility.yul\":5296:5315   */\n      add\n        /* \"#utility.yul\":5288:5315   */\n      swap1\n      pop\n        /* \"#utility.yul\":5325:5450   */\n      tag_285\n        /* \"#utility.yul\":5447:5448   */\n      0x00\n        /* \"#utility.yul\":5436:5445   */\n      dup4\n        /* \"#utility.yul\":5432:5449   */\n      add\n        /* \"#utility.yul\":5423:5429   */\n      dup5\n        /* \"#utility.yul\":5325:5450   */\n      tag_206\n      jump\t// in\n    tag_285:\n        /* \"#utility.yul\":5126:5457   */\n      swap3\n      swap2\n      pop\n      pop\n      jump\t// out\n        /* \"#utility.yul\":5463:5589   */\n    tag_207:\n        /* \"#utility.yul\":5500:5507   */\n      0x00\n        /* \"#utility.yul\":5540:5582   */\n      0xffffffffffffffffffffffffffffffffffffffff\n        /* \"#utility.yul\":5533:5538   */\n      dup3\n        /* \"#utility.yul\":5529:5583   */\n      and\n        /* \"#utility.yul\":5518:5583   */\n      swap1\n      pop\n        /* \"#utility.yul\":5463:5589   */\n      swap2\n      swap1\n      pop\n      jump\t// out\n        /* \"#utility.yul\":5595:5691   */\n    tag_208:\n        /* \"#utility.yul\":5632:5639   */\n      0x00\n        /* \"#utility.yul\":5661:5685   */\n      tag_288\n        /* \"#utility.yul\":5679:5684   */\n      dup3\n        /* \"#utility.yul\":5661:5685   */\n      tag_207\n      jump\t// in\n    tag_288:\n        /* \"#utility.yul\":5650:5685   */\n      swap1\n      pop\n        /* \"#utility.yul\":5595:5691   */\n      swap2\n      swap1\n      pop\n      jump\t// out\n        /* \"#utility.yul\":5697:5819   */\n    tag_209:\n        /* \"#utility.yul\":5770:5794   */\n      tag_290\n        /* \"#utility.yul\":5788:5793   */\n      dup2\n        /* \"#utility.yul\":5770:5794   */\n      tag_208\n      jump\t// in\n    tag_290:\n        /* \"#utility.yul\":5763:5768   */\n      dup2\n        /* \"#utility.yul\":5760:5795   */\n      eq\n        /* \"#utility.yul\":5750:5813   */\n      tag_291\n      jumpi\n        /* \"#utility.yul\":5809:5810   */\n      0x00\n        /* \"#utility.yul\":5806:5807   */\n      dup1\n        /* \"#utility.yul\":5799:5811   */\n      revert\n        /* \"#utility.yul\":5750:5813   */\n    tag_291:\n        /* \"#utility.yul\":5697:5819   */\n      pop\n      jump\t// out\n        /* \"#utility.yul\":5825:5964   */\n    tag_210:\n        /* \"#utility.yul\":5871:5876   */\n      0x00\n        /* \"#utility.yul\":5909:5915   */\n      dup2\n        /* \"#utility.yul\":5896:5916   */\n      calldataload\n        /* \"#utility.yul\":5887:5916   */\n      swap1\n      pop\n        /* \"#utility.yul\":5925:5958   */\n      tag_293\n        /* \"#utility.yul\":5952:5957   */\n      dup2\n        /* \"#utility.yul\":5925:5958   */\n      tag_209\n      jump\t// in\n    tag_293:\n        /* \"#utility.yul\":5825:5964   */\n      swap3\n      swap2\n      pop\n      pop\n      jump\t// out\n        /* \"#utility.yul\":5970:6444   */\n    tag_25:\n        /* \"#utility.yul\":6038:6044   */\n      0x00\n        /* \"#utility.yul\":6046:6052   */\n      dup1\n        /* \"#utility.yul\":6095:6097   */\n      0x40\n        /* \"#utility.yul\":6083:6092   */\n      dup4\n        /* \"#utility.yul\":6074:6081   */\n      dup6\n        /* \"#utility.yul\":6070:6093   */\n      sub\n        /* \"#utility.yul\":6066:6098   */\n      slt\n        /* \"#utility.yul\":6063:6182   */\n      iszero\n      tag_295\n      jumpi\n        /* \"#utility.yul\":6101:6180   */\n      tag_296\n      tag_186\n      jump\t// in\n    tag_296:\n        /* \"#utility.yul\":6063:6182   */\n    tag_295:\n        /* \"#utility.yul\":6221:6222   */\n      0x00\n        /* \"#utility.yul\":6246:6299   */\n      tag_297\n        /* \"#utility.yul\":6291:6298   */\n      dup6\n        /* \"#utility.yul\":6282:6288   */\n      dup3\n        /* \"#utility.yul\":6271:6280   */\n      dup7\n        /* \"#utility.yul\":6267:6289   */\n      add\n        /* \"#utility.yul\":6246:6299   */\n      tag_210\n      jump\t// in\n    tag_297:\n        /* \"#utility.yul\":6236:6299   */\n      swap3\n      pop\n        /* \"#utility.yul\":6192:6309   */\n      pop\n        /* \"#utility.yul\":6348:6350   */\n      0x20\n        /* \"#utility.yul\":6374:6427   */\n      tag_298\n        /* \"#utility.yul\":6419:6426   */\n      dup6\n        /* \"#utility.yul\":6410:6416   */\n      dup3\n        /* \"#utility.yul\":6399:6408   */\n      dup7\n        /* \"#utility.yul\":6395:6417   */\n      add\n        /* \"#utility.yul\":6374:6427   */\n      tag_198\n      jump\t// in\n    tag_298:\n        /* \"#utility.yul\":6364:6427   */\n      swap2\n      pop\n        /* \"#utility.yul\":6319:6437   */\n      pop\n        /* \"#utility.yul\":5970:6444   */\n      swap3\n      pop\n      swap3\n      swap1\n      pop\n      jump\t// out\n        /* \"#utility.yul\":6450:6568   */\n    tag_211:\n        /* \"#utility.yul\":6537:6561   */\n      tag_300\n        /* \"#utility.yul\":6555:6560   */\n      dup2\n        /* \"#utility.yul\":6537:6561   */\n      tag_196\n      jump\t// in\n    tag_300:\n        /* \"#utility.yul\":6532:6535   */\n      dup3\n        /* \"#utility.yul\":6525:6562   */\n      mstore\n        /* \"#utility.yul\":6450:6568   */\n      pop\n      pop\n      jump\t// out\n        /* \"#utility.yul\":6574:6723   */\n    tag_212:\n        /* \"#utility.yul\":6670:6716   */\n      tag_302\n        /* \"#utility.yul\":6710:6715   */\n      dup2\n        /* \"#utility.yul\":6670:6716   */\n      tag_202\n      jump\t// in\n    tag_302:\n        /* \"#utility.yul\":6665:6668   */\n      dup3\n        /* \"#utility.yul\":6658:6717   */\n      mstore\n        /* \"#utility.yul\":6574:6723   */\n      pop\n      pop\n      jump\t// out\n        /* \"#utility.yul\":6729:6844   */\n    tag_213:\n        /* \"#utility.yul\":6814:6837   */\n      tag_304\n        /* \"#utility.yul\":6831:6836   */\n      dup2\n        /* \"#utility.yul\":6814:6837   */\n      tag_204\n      jump\t// in\n    tag_304:\n        /* \"#utility.yul\":6809:6812   */\n      dup3\n        /* \"#utility.yul\":6802:6838   */\n      mstore\n        /* \"#utility.yul\":6729:6844   */\n      pop\n      pop\n      jump\t// out\n        /* \"#utility.yul\":6850:7528   */\n    tag_28:\n        /* \"#utility.yul\":7062:7066   */\n      0x00\n        /* \"#utility.yul\":7100:7103   */\n      0xa0\n        /* \"#utility.yul\":7089:7098   */\n      dup3\n        /* \"#utility.yul\":7085:7104   */\n      add\n        /* \"#utility.yul\":7077:7104   */\n      swap1\n      pop\n        /* \"#utility.yul\":7114:7185   */\n      tag_306\n        /* \"#utility.yul\":7182:7183   */\n      0x00\n        /* \"#utility.yul\":7171:7180   */\n      dup4\n        /* \"#utility.yul\":7167:7184   */\n      add\n        /* \"#utility.yul\":7158:7164   */\n      dup9\n        /* \"#utility.yul\":7114:7185   */\n      tag_211\n      jump\t// in\n    tag_306:\n        /* \"#utility.yul\":7195:7267   */\n      tag_307\n        /* \"#utility.yul\":7263:7265   */\n      0x20\n        /* \"#utility.yul\":7252:7261   */\n      dup4\n        /* \"#utility.yul\":7248:7266   */\n      add\n        /* \"#utility.yul\":7239:7245   */\n      dup8\n        /* \"#utility.yul\":7195:7267   */\n      tag_211\n      jump\t// in\n    tag_307:\n        /* \"#utility.yul\":7277:7349   */\n      tag_308\n        /* \"#utility.yul\":7345:7347   */\n      0x40\n        /* \"#utility.yul\":7334:7343   */\n      dup4\n        /* \"#utility.yul\":7330:7348   */\n      add\n        /* \"#utility.yul\":7321:7327   */\n      dup7\n        /* \"#utility.yul\":7277:7349   */\n      tag_211\n      jump\t// in\n    tag_308:\n        /* \"#utility.yul\":7359:7440   */\n      tag_309\n        /* \"#utility.yul\":7436:7438   */\n      0x60\n        /* \"#utility.yul\":7425:7434   */\n      dup4\n        /* \"#utility.yul\":7421:7439   */\n      add\n        /* \"#utility.yul\":7412:7418   */\n      dup6\n        /* \"#utility.yul\":7359:7440   */\n      tag_212\n      jump\t// in\n    tag_309:\n        /* \"#utility.yul\":7450:7521   */\n      tag_310\n        /* \"#utility.yul\":7516:7519   */\n      0x80\n        /* \"#utility.yul\":7505:7514   */\n      dup4\n        /* \"#utility.yul\":7501:7520   */\n      add\n        /* \"#utility.yul\":7492:7498   */\n      dup5\n        /* \"#utility.yul\":7450:7521   */\n      tag_213\n      jump\t// in\n    tag_310:\n        /* \"#utility.yul\":6850:7528   */\n      swap7\n      swap6\n      pop\n      pop\n      pop\n      pop\n      pop\n      pop\n      jump\t// out\n        /* \"#utility.yul\":7534:8149   */\n    tag_33:\n        /* \"#utility.yul\":7609:7615   */\n      0x00\n        /* \"#utility.yul\":7617:7623   */\n      dup1\n        /* \"#utility.yul\":7625:7631   */\n      0x00\n        /* \"#utility.yul\":7674:7676   */\n      0x60\n        /* \"#utility.yul\":7662:7671   */\n      dup5\n        /* \"#utility.yul\":7653:7660   */\n      dup7\n        /* \"#utility.yul\":7649:7672   */\n      sub\n        /* \"#utility.yul\":7645:7677   */\n      slt\n        /* \"#utility.yul\":7642:7761   */\n      iszero\n      tag_312\n      jumpi\n        /* \"#utility.yul\":7680:7759   */\n      tag_313\n      tag_186\n      jump\t// in\n    tag_313:\n        /* \"#utility.yul\":7642:7761   */\n    tag_312:\n        /* \"#utility.yul\":7800:7801   */\n      0x00\n        /* \"#utility.yul\":7825:7878   */\n      tag_314\n        /* \"#utility.yul\":7870:7877   */\n      dup7\n        /* \"#utility.yul\":7861:7867   */\n      dup3\n        /* \"#utility.yul\":7850:7859   */\n      dup8\n        /* \"#utility.yul\":7846:7868   */\n      add\n        /* \"#utility.yul\":7825:7878   */\n      tag_198\n      jump\t// in\n    tag_314:\n        /* \"#utility.yul\":7815:7878   */\n      swap4\n      pop\n        /* \"#utility.yul\":7771:7888   */\n      pop\n        /* \"#utility.yul\":7927:7929   */\n      0x20\n        /* \"#utility.yul\":7953:8006   */\n      tag_315\n        /* \"#utility.yul\":7998:8005   */\n      dup7\n        /* \"#utility.yul\":7989:7995   */\n      dup3\n        /* \"#utility.yul\":7978:7987   */\n      dup8\n        /* \"#utility.yul\":7974:7996   */\n      add\n        /* \"#utility.yul\":7953:8006   */\n      tag_198\n      jump\t// in\n    tag_315:\n        /* \"#utility.yul\":7943:8006   */\n      swap3\n      pop\n        /* \"#utility.yul\":7898:8016   */\n      pop\n        /* \"#utility.yul\":8055:8057   */\n      0x40\n        /* \"#utility.yul\":8081:8132   */\n      tag_316\n        /* \"#utility.yul\":8124:8131   */\n      dup7\n        /* \"#utility.yul\":8115:8121   */\n      dup3\n        /* \"#utility.yul\":8104:8113   */\n      dup8\n        /* \"#utility.yul\":8100:8122   */\n      add\n        /* \"#utility.yul\":8081:8132   */\n      tag_190\n      jump\t// in\n    tag_316:\n        /* \"#utility.yul\":8071:8132   */\n      swap2\n      pop\n        /* \"#utility.yul\":8026:8142   */\n      pop\n        /* \"#utility.yul\":7534:8149   */\n      swap3\n      pop\n      swap3\n      pop\n      swap3\n      jump\t// out\n        /* \"#utility.yul\":8155:8373   */\n    tag_36:\n        /* \"#utility.yul\":8246:8250   */\n      0x00\n        /* \"#utility.yul\":8284:8286   */\n      0x20\n        /* \"#utility.yul\":8273:8282   */\n      dup3\n        /* \"#utility.yul\":8269:8287   */\n      add\n        /* \"#utility.yul\":8261:8287   */\n      swap1\n      pop\n        /* \"#utility.yul\":8297:8366   */\n      tag_318\n        /* \"#utility.yul\":8363:8364   */\n      0x00\n        /* \"#utility.yul\":8352:8361   */\n      dup4\n        /* \"#utility.yul\":8348:8365   */\n      add\n        /* \"#utility.yul\":8339:8345   */\n      dup5\n        /* \"#utility.yul\":8297:8366   */\n      tag_213\n      jump\t// in\n    tag_318:\n        /* \"#utility.yul\":8155:8373   */\n      swap3\n      swap2\n      pop\n      pop\n      jump\t// out\n        /* \"#utility.yul\":8379:8601   */\n    tag_40:\n        /* \"#utility.yul\":8472:8476   */\n      0x00\n        /* \"#utility.yul\":8510:8512   */\n      0x20\n        /* \"#utility.yul\":8499:8508   */\n      dup3\n        /* \"#utility.yul\":8495:8513   */\n      add\n        /* \"#utility.yul\":8487:8513   */\n      swap1\n      pop\n        /* \"#utility.yul\":8523:8594   */\n      tag_320\n        /* \"#utility.yul\":8591:8592   */\n      0x00\n        /* \"#utility.yul\":8580:8589   */\n      dup4\n        /* \"#utility.yul\":8576:8593   */\n      add\n        /* \"#utility.yul\":8567:8573   */\n      dup5\n        /* \"#utility.yul\":8523:8594   */\n      tag_211\n      jump\t// in\n    tag_320:\n        /* \"#utility.yul\":8379:8601   */\n      swap3\n      swap2\n      pop\n      pop\n      jump\t// out\n        /* \"#utility.yul\":8607:8779   */\n    tag_214:\n        /* \"#utility.yul\":8747:8771   */\n      0x496e76616c6964206f7065726174696f6e20636f646500000000000000000000\n        /* \"#utility.yul\":8743:8744   */\n      0x00\n        /* \"#utility.yul\":8735:8741   */\n      dup3\n        /* \"#utility.yul\":8731:8745   */\n      add\n        /* \"#utility.yul\":8724:8772   */\n      mstore\n        /* \"#utility.yul\":8607:8779   */\n      pop\n      jump\t// out\n        /* \"#utility.yul\":8785:9151   */\n    tag_215:\n        /* \"#utility.yul\":8927:8930   */\n      0x00\n        /* \"#utility.yul\":8948:9015   */\n      tag_323\n        /* \"#utility.yul\":9012:9014   */\n      0x16\n        /* \"#utility.yul\":9007:9010   */\n      dup4\n        /* \"#utility.yul\":8948:9015   */\n      tag_192\n      jump\t// in\n    tag_323:\n        /* \"#utility.yul\":8941:9015   */\n      swap2\n      pop\n        /* \"#utility.yul\":9024:9117   */\n      tag_324\n        /* \"#utility.yul\":9113:9116   */\n      dup3\n        /* \"#utility.yul\":9024:9117   */\n      tag_214\n      jump\t// in\n    tag_324:\n        /* \"#utility.yul\":9142:9144   */\n      0x20\n        /* \"#utility.yul\":9137:9140   */\n      dup3\n        /* \"#utility.yul\":9133:9145   */\n      add\n        /* \"#utility.yul\":9126:9145   */\n      swap1\n      pop\n        /* \"#utility.yul\":8785:9151   */\n      swap2\n      swap1\n      pop\n      jump\t// out\n        /* \"#utility.yul\":9157:9576   */\n    tag_48:\n        /* \"#utility.yul\":9323:9327   */\n      0x00\n        /* \"#utility.yul\":9361:9363   */\n      0x20\n        /* \"#utility.yul\":9350:9359   */\n      dup3\n        /* \"#utility.yul\":9346:9364   */\n      add\n        /* \"#utility.yul\":9338:9364   */\n      swap1\n      pop\n        /* \"#utility.yul\":9410:9419   */\n      dup2\n        /* \"#utility.yul\":9404:9408   */\n      dup2\n        /* \"#utility.yul\":9400:9420   */\n      sub\n        /* \"#utility.yul\":9396:9397   */\n      0x00\n        /* \"#utility.yul\":9385:9394   */\n      dup4\n        /* \"#utility.yul\":9381:9398   */\n      add\n        /* \"#utility.yul\":9374:9421   */\n      mstore\n        /* \"#utility.yul\":9438:9569   */\n      tag_326\n        /* \"#utility.yul\":9564:9568   */\n      dup2\n        /* \"#utility.yul\":9438:9569   */\n      tag_215\n      jump\t// in\n    tag_326:\n        /* \"#utility.yul\":9430:9569   */\n      swap1\n      pop\n        /* \"#utility.yul\":9157:9576   */\n      swap2\n      swap1\n      pop\n      jump\t// out\n        /* \"#utility.yul\":9582:9751   */\n    tag_216:\n        /* \"#utility.yul\":9722:9743   */\n      0x496e646578206f7574206f6620626f756e647300000000000000000000000000\n        /* \"#utility.yul\":9718:9719   */\n      0x00\n        /* \"#utility.yul\":9710:9716   */\n      dup3\n        /* \"#utility.yul\":9706:9720   */\n      add\n        /* \"#utility.yul\":9699:9744   */\n      mstore\n        /* \"#utility.yul\":9582:9751   */\n      pop\n      jump\t// out\n        /* \"#utility.yul\":9757:10123   */\n    tag_217:\n        /* \"#utility.yul\":9899:9902   */\n      0x00\n        /* \"#utility.yul\":9920:9987   */\n      tag_329\n        /* \"#utility.yul\":9984:9986   */\n      0x13\n        /* \"#utility.yul\":9979:9982   */\n      dup4\n        /* \"#utility.yul\":9920:9987   */\n      tag_192\n      jump\t// in\n    tag_329:\n        /* \"#utility.yul\":9913:9987   */\n      swap2\n      pop\n        /* \"#utility.yul\":9996:10089   */\n      tag_330\n        /* \"#utility.yul\":10085:10088   */\n      dup3\n        /* \"#utility.yul\":9996:10089   */\n      tag_216\n      jump\t// in\n    tag_330:\n        /* \"#utility.yul\":10114:10116   */\n      0x20\n        /* \"#utility.yul\":10109:10112   */\n      dup3\n        /* \"#utility.yul\":10105:10117   */\n      add\n        /* \"#utility.yul\":10098:10117   */\n      swap1\n      pop\n        /* \"#utility.yul\":9757:10123   */\n      swap2\n      swap1\n      pop\n      jump\t// out\n        /* \"#utility.yul\":10129:10548   */\n    tag_59:\n        /* \"#utility.yul\":10295:10299   */\n      0x00\n        /* \"#utility.yul\":10333:10335   */\n      0x20\n        /* \"#utility.yul\":10322:10331   */\n      dup3\n        /* \"#utility.yul\":10318:10336   */\n      add\n        /* \"#utility.yul\":10310:10336   */\n      swap1\n      pop\n        /* \"#utility.yul\":10382:10391   */\n      dup2\n        /* \"#utility.yul\":10376:10380   */\n      dup2\n        /* \"#utility.yul\":10372:10392   */\n      sub\n        /* \"#utility.yul\":10368:10369   */\n      0x00\n        /* \"#utility.yul\":10357:10366   */\n      dup4\n        /* \"#utility.yul\":10353:10370   */\n      add\n        /* \"#utility.yul\":10346:10393   */\n      mstore\n        /* \"#utility.yul\":10410:10541   */\n      tag_332\n        /* \"#utility.yul\":10536:10540   */\n      dup2\n        /* \"#utility.yul\":10410:10541   */\n      tag_217\n      jump\t// in\n    tag_332:\n        /* \"#utility.yul\":10402:10541   */\n      swap1\n      pop\n        /* \"#utility.yul\":10129:10548   */\n      swap2\n      swap1\n      pop\n      jump\t// out\n        /* \"#utility.yul\":10554:10734   */\n    tag_62:\n        /* \"#utility.yul\":10602:10679   */\n      0x4e487b7100000000000000000000000000000000000000000000000000000000\n        /* \"#utility.yul\":10599:10600   */\n      0x00\n        /* \"#utility.yul\":10592:10680   */\n      mstore\n        /* \"#utility.yul\":10699:10703   */\n      0x32\n        /* \"#utility.yul\":10696:10697   */\n      0x04\n        /* \"#utility.yul\":10689:10704   */\n      mstore\n        /* \"#utility.yul\":10723:10727   */\n      0x24\n        /* \"#utility.yul\":10720:10721   */\n      0x00\n        /* \"#utility.yul\":10713:10728   */\n      revert\n        /* \"#utility.yul\":10740:11030   */\n    tag_218:\n        /* \"#utility.yul\":10880:10914   */\n      0x496e76616c6964206f7065726174696f6e3a20557365203020666f72202b2c20\n        /* \"#utility.yul\":10876:10877   */\n      0x00\n        /* \"#utility.yul\":10868:10874   */\n      dup3\n        /* \"#utility.yul\":10864:10878   */\n      add\n        /* \"#utility.yul\":10857:10915   */\n      mstore\n        /* \"#utility.yul\":10949:10983   */\n      0x3120666f72202d2c203220666f72202a2c203320666f72202f2c203420666f72\n        /* \"#utility.yul\":10944:10946   */\n      0x20\n        /* \"#utility.yul\":10936:10942   */\n      dup3\n        /* \"#utility.yul\":10932:10947   */\n      add\n        /* \"#utility.yul\":10925:10984   */\n      mstore\n        /* \"#utility.yul\":11018:11022   */\n      0x2025000000000000000000000000000000000000000000000000000000000000\n        /* \"#utility.yul\":11013:11015   */\n      0x40\n        /* \"#utility.yul\":11005:11011   */\n      dup3\n        /* \"#utility.yul\":11001:11016   */\n      add\n        /* \"#utility.yul\":10994:11023   */\n      mstore\n        /* \"#utility.yul\":10740:11030   */\n      pop\n      jump\t// out\n        /* \"#utility.yul\":11036:11402   */\n    tag_219:\n        /* \"#utility.yul\":11178:11181   */\n      0x00\n        /* \"#utility.yul\":11199:11266   */\n      tag_336\n        /* \"#utility.yul\":11263:11265   */\n      0x42\n        /* \"#utility.yul\":11258:11261   */\n      dup4\n        /* \"#utility.yul\":11199:11266   */\n      tag_192\n      jump\t// in\n    tag_336:\n        /* \"#utility.yul\":11192:11266   */\n      swap2\n      pop\n        /* \"#utility.yul\":11275:11368   */\n      tag_337\n        /* \"#utility.yul\":11364:11367   */\n      dup3\n        /* \"#utility.yul\":11275:11368   */\n      tag_218\n      jump\t// in\n    tag_337:\n        /* \"#utility.yul\":11393:11395   */\n      0x60\n        /* \"#utility.yul\":11388:11391   */\n      dup3\n        /* \"#utility.yul\":11384:11396   */\n      add\n        /* \"#utility.yul\":11377:11396   */\n      swap1\n      pop\n        /* \"#utility.yul\":11036:11402   */\n      swap2\n      swap1\n      pop\n      jump\t// out\n        /* \"#utility.yul\":11408:11827   */\n    tag_77:\n        /* \"#utility.yul\":11574:11578   */\n      0x00\n        /* \"#utility.yul\":11612:11614   */\n      0x20\n        /* \"#utility.yul\":11601:11610   */\n      dup3\n        /* \"#utility.yul\":11597:11615   */\n      add\n        /* \"#utility.yul\":11589:11615   */\n      swap1\n      pop\n        /* \"#utility.yul\":11661:11670   */\n      dup2\n        /* \"#utility.yul\":11655:11659   */\n      dup2\n        /* \"#utility.yul\":11651:11671   */\n      sub\n        /* \"#utility.yul\":11647:11648   */\n      0x00\n        /* \"#utility.yul\":11636:11645   */\n      dup4\n        /* \"#utility.yul\":11632:11649   */\n      add\n        /* \"#utility.yul\":11625:11672   */\n      mstore\n        /* \"#utility.yul\":11689:11820   */\n      tag_339\n        /* \"#utility.yul\":11815:11819   */\n      dup2\n        /* \"#utility.yul\":11689:11820   */\n      tag_219\n      jump\t// in\n    tag_339:\n        /* \"#utility.yul\":11681:11820   */\n      swap1\n      pop\n        /* \"#utility.yul\":11408:11827   */\n      swap2\n      swap1\n      pop\n      jump\t// out\n        /* \"#utility.yul\":11833:12013   */\n    tag_220:\n        /* \"#utility.yul\":11881:11958   */\n      0x4e487b7100000000000000000000000000000000000000000000000000000000\n        /* \"#utility.yul\":11878:11879   */\n      0x00\n        /* \"#utility.yul\":11871:11959   */\n      mstore\n        /* \"#utility.yul\":11978:11982   */\n      0x11\n        /* \"#utility.yul\":11975:11976   */\n      0x04\n        /* \"#utility.yul\":11968:11983   */\n      mstore\n        /* \"#utility.yul\":12002:12006   */\n      0x24\n        /* \"#utility.yul\":11999:12000   */\n      0x00\n        /* \"#utility.yul\":11992:12007   */\n      revert\n        /* \"#utility.yul\":12019:12394   */\n    tag_86:\n        /* \"#utility.yul\":12058:12061   */\n      0x00\n        /* \"#utility.yul\":12077:12096   */\n      tag_342\n        /* \"#utility.yul\":12094:12095   */\n      dup3\n        /* \"#utility.yul\":12077:12096   */\n      tag_204\n      jump\t// in\n    tag_342:\n        /* \"#utility.yul\":12072:12096   */\n      swap2\n      pop\n        /* \"#utility.yul\":12110:12129   */\n      tag_343\n        /* \"#utility.yul\":12127:12128   */\n      dup4\n        /* \"#utility.yul\":12110:12129   */\n      tag_204\n      jump\t// in\n    tag_343:\n        /* \"#utility.yul\":12105:12129   */\n      swap3\n      pop\n        /* \"#utility.yul\":12152:12153   */\n      dup3\n        /* \"#utility.yul\":12149:12150   */\n      dup3\n        /* \"#utility.yul\":12145:12154   */\n      add\n        /* \"#utility.yul\":12138:12154   */\n      swap1\n      pop\n        /* \"#utility.yul\":12350:12351   */\n      dup3\n        /* \"#utility.yul\":12345:12348   */\n      dup2\n        /* \"#utility.yul\":12341:12352   */\n      slt\n        /* \"#utility.yul\":12334:12353   */\n      iszero\n        /* \"#utility.yul\":12330:12331   */\n      0x00\n        /* \"#utility.yul\":12327:12328   */\n      dup4\n        /* \"#utility.yul\":12323:12332   */\n      slt\n        /* \"#utility.yul\":12319:12354   */\n      and\n        /* \"#utility.yul\":12302:12303   */\n      dup4\n        /* \"#utility.yul\":12297:12300   */\n      dup3\n        /* \"#utility.yul\":12293:12304   */\n      slt\n        /* \"#utility.yul\":12288:12289   */\n      0x00\n        /* \"#utility.yul\":12285:12286   */\n      dup5\n        /* \"#utility.yul\":12281:12290   */\n      slt\n        /* \"#utility.yul\":12274:12291   */\n      iszero\n        /* \"#utility.yul\":12270:12305   */\n      and\n        /* \"#utility.yul\":12254:12364   */\n      or\n        /* \"#utility.yul\":12251:12387   */\n      iszero\n      tag_344\n      jumpi\n        /* \"#utility.yul\":12367:12385   */\n      tag_345\n      tag_220\n      jump\t// in\n    tag_345:\n        /* \"#utility.yul\":12251:12387   */\n    tag_344:\n        /* \"#utility.yul\":12019:12394   */\n      swap3\n      swap2\n      pop\n      pop\n      jump\t// out\n        /* \"#utility.yul\":12400:12772   */\n    tag_94:\n        /* \"#utility.yul\":12439:12443   */\n      0x00\n        /* \"#utility.yul\":12459:12478   */\n      tag_347\n        /* \"#utility.yul\":12476:12477   */\n      dup3\n        /* \"#utility.yul\":12459:12478   */\n      tag_204\n      jump\t// in\n    tag_347:\n        /* \"#utility.yul\":12454:12478   */\n      swap2\n      pop\n        /* \"#utility.yul\":12492:12511   */\n      tag_348\n        /* \"#utility.yul\":12509:12510   */\n      dup4\n        /* \"#utility.yul\":12492:12511   */\n      tag_204\n      jump\t// in\n    tag_348:\n        /* \"#utility.yul\":12487:12511   */\n      swap3\n      pop\n        /* \"#utility.yul\":12535:12536   */\n      dup3\n        /* \"#utility.yul\":12532:12533   */\n      dup3\n        /* \"#utility.yul\":12528:12537   */\n      sub\n        /* \"#utility.yul\":12520:12537   */\n      swap1\n      pop\n        /* \"#utility.yul\":12729:12730   */\n      dup2\n        /* \"#utility.yul\":12723:12727   */\n      dup2\n        /* \"#utility.yul\":12719:12731   */\n      slt\n        /* \"#utility.yul\":12715:12716   */\n      0x00\n        /* \"#utility.yul\":12712:12713   */\n      dup5\n        /* \"#utility.yul\":12708:12717   */\n      slt\n        /* \"#utility.yul\":12704:12732   */\n      and\n        /* \"#utility.yul\":12687:12688   */\n      dup3\n        /* \"#utility.yul\":12681:12685   */\n      dup3\n        /* \"#utility.yul\":12677:12689   */\n      sgt\n        /* \"#utility.yul\":12672:12673   */\n      0x00\n        /* \"#utility.yul\":12669:12670   */\n      dup6\n        /* \"#utility.yul\":12665:12674   */\n      slt\n        /* \"#utility.yul\":12658:12675   */\n      iszero\n        /* \"#utility.yul\":12654:12690   */\n      and\n        /* \"#utility.yul\":12638:12742   */\n      or\n        /* \"#utility.yul\":12635:12765   */\n      iszero\n      tag_349\n      jumpi\n        /* \"#utility.yul\":12745:12763   */\n      tag_350\n      tag_220\n      jump\t// in\n    tag_350:\n        /* \"#utility.yul\":12635:12765   */\n    tag_349:\n        /* \"#utility.yul\":12400:12772   */\n      swap3\n      swap2\n      pop\n      pop\n      jump\t// out\n        /* \"#utility.yul\":12778:13334   */\n    tag_102:\n        /* \"#utility.yul\":12817:12824   */\n      0x00\n        /* \"#utility.yul\":12840:12859   */\n      tag_352\n        /* \"#utility.yul\":12857:12858   */\n      dup3\n        /* \"#utility.yul\":12840:12859   */\n      tag_204\n      jump\t// in\n    tag_352:\n        /* \"#utility.yul\":12835:12859   */\n      swap2\n      pop\n        /* \"#utility.yul\":12873:12892   */\n      tag_353\n        /* \"#utility.yul\":12890:12891   */\n      dup4\n        /* \"#utility.yul\":12873:12892   */\n      tag_204\n      jump\t// in\n    tag_353:\n        /* \"#utility.yul\":12868:12892   */\n      swap3\n      pop\n        /* \"#utility.yul\":12927:12928   */\n      dup3\n        /* \"#utility.yul\":12924:12925   */\n      dup3\n        /* \"#utility.yul\":12920:12929   */\n      mul\n        /* \"#utility.yul\":12949:12978   */\n      tag_354\n        /* \"#utility.yul\":12966:12977   */\n      dup2\n        /* \"#utility.yul\":12949:12978   */\n      tag_204\n      jump\t// in\n    tag_354:\n        /* \"#utility.yul\":12938:12978   */\n      swap2\n      pop\n        /* \"#utility.yul\":13036:13102   */\n      0x8000000000000000000000000000000000000000000000000000000000000000\n        /* \"#utility.yul\":13033:13034   */\n      dup5\n        /* \"#utility.yul\":13030:13103   */\n      eq\n        /* \"#utility.yul\":13026:13027   */\n      0x00\n        /* \"#utility.yul\":13023:13024   */\n      dup5\n        /* \"#utility.yul\":13019:13028   */\n      slt\n        /* \"#utility.yul\":13015:13104   */\n      and\n        /* \"#utility.yul\":13012:13127   */\n      iszero\n      tag_355\n      jumpi\n        /* \"#utility.yul\":13107:13125   */\n      tag_356\n      tag_220\n      jump\t// in\n    tag_356:\n        /* \"#utility.yul\":13012:13127   */\n    tag_355:\n        /* \"#utility.yul\":13277:13278   */\n      dup3\n        /* \"#utility.yul\":13268:13275   */\n      dup3\n        /* \"#utility.yul\":13263:13279   */\n      sdiv\n        /* \"#utility.yul\":13260:13261   */\n      dup5\n        /* \"#utility.yul\":13257:13280   */\n      eq\n        /* \"#utility.yul\":13237:13238   */\n      dup4\n        /* \"#utility.yul\":13230:13239   */\n      iszero\n        /* \"#utility.yul\":13210:13294   */\n      or\n        /* \"#utility.yul\":13187:13327   */\n      tag_357\n      jumpi\n        /* \"#utility.yul\":13307:13325   */\n      tag_358\n      tag_220\n      jump\t// in\n    tag_358:\n        /* \"#utility.yul\":13187:13327   */\n    tag_357:\n        /* \"#utility.yul\":12825:13334   */\n      pop\n        /* \"#utility.yul\":12778:13334   */\n      swap3\n      swap2\n      pop\n      pop\n      jump\t// out\n        /* \"#utility.yul\":13340:13506   */\n    tag_221:\n        /* \"#utility.yul\":13480:13498   */\n      0x4469766973696f6e206279207a65726f00000000000000000000000000000000\n        /* \"#utility.yul\":13476:13477   */\n      0x00\n        /* \"#utility.yul\":13468:13474   */\n      dup3\n        /* \"#utility.yul\":13464:13478   */\n      add\n        /* \"#utility.yul\":13457:13499   */\n      mstore\n        /* \"#utility.yul\":13340:13506   */\n      pop\n      jump\t// out\n        /* \"#utility.yul\":13512:13878   */\n    tag_222:\n        /* \"#utility.yul\":13654:13657   */\n      0x00\n        /* \"#utility.yul\":13675:13742   */\n      tag_361\n        /* \"#utility.yul\":13739:13741   */\n      0x10\n        /* \"#utility.yul\":13734:13737   */\n      dup4\n        /* \"#utility.yul\":13675:13742   */\n      tag_192\n      jump\t// in\n    tag_361:\n        /* \"#utility.yul\":13668:13742   */\n      swap2\n      pop\n        /* \"#utility.yul\":13751:13844   */\n      tag_362\n        /* \"#utility.yul\":13840:13843   */\n      dup3\n        /* \"#utility.yul\":13751:13844   */\n      tag_221\n      jump\t// in\n    tag_362:\n        /* \"#utility.yul\":13869:13871   */\n      0x20\n        /* \"#utility.yul\":13864:13867   */\n      dup3\n        /* \"#utility.yul\":13860:13872   */\n      add\n        /* \"#utility.yul\":13853:13872   */\n      swap1\n      pop\n        /* \"#utility.yul\":13512:13878   */\n      swap2\n      swap1\n      pop\n      jump\t// out\n        /* \"#utility.yul\":13884:14303   */\n    tag_111:\n        /* \"#utility.yul\":14050:14054   */\n      0x00\n        /* \"#utility.yul\":14088:14090   */\n      0x20\n        /* \"#utility.yul\":14077:14086   */\n      dup3\n        /* \"#utility.yul\":14073:14091   */\n      add\n        /* \"#utility.yul\":14065:14091   */\n      swap1\n      pop\n        /* \"#utility.yul\":14137:14146   */\n      dup2\n        /* \"#utility.yul\":14131:14135   */\n      dup2\n        /* \"#utility.yul\":14127:14147   */\n      sub\n        /* \"#utility.yul\":14123:14124   */\n      0x00\n        /* \"#utility.yul\":14112:14121   */\n      dup4\n        /* \"#utility.yul\":14108:14125   */\n      add\n        /* \"#utility.yul\":14101:14148   */\n      mstore\n        /* \"#utility.yul\":14165:14296   */\n      tag_364\n        /* \"#utility.yul\":14291:14295   */\n      dup2\n        /* \"#utility.yul\":14165:14296   */\n      tag_222\n      jump\t// in\n    tag_364:\n        /* \"#utility.yul\":14157:14296   */\n      swap1\n      pop\n        /* \"#utility.yul\":13884:14303   */\n      swap2\n      swap1\n      pop\n      jump\t// out\n        /* \"#utility.yul\":14309:14489   */\n    tag_223:\n        /* \"#utility.yul\":14357:14434   */\n      0x4e487b7100000000000000000000000000000000000000000000000000000000\n        /* \"#utility.yul\":14354:14355   */\n      0x00\n        /* \"#utility.yul\":14347:14435   */\n      mstore\n        /* \"#utility.yul\":14454:14458   */\n      0x12\n        /* \"#utility.yul\":14451:14452   */\n      0x04\n        /* \"#utility.yul\":14444:14459   */\n      mstore\n        /* \"#utility.yul\":14478:14482   */\n      0x24\n        /* \"#utility.yul\":14475:14476   */\n      0x00\n        /* \"#utility.yul\":14468:14483   */\n      revert\n        /* \"#utility.yul\":14495:14880   */\n    tag_113:\n        /* \"#utility.yul\":14534:14535   */\n      0x00\n        /* \"#utility.yul\":14551:14570   */\n      tag_367\n        /* \"#utility.yul\":14568:14569   */\n      dup3\n        /* \"#utility.yul\":14551:14570   */\n      tag_204\n      jump\t// in\n    tag_367:\n        /* \"#utility.yul\":14546:14570   */\n      swap2\n      pop\n        /* \"#utility.yul\":14584:14603   */\n      tag_368\n        /* \"#utility.yul\":14601:14602   */\n      dup4\n        /* \"#utility.yul\":14584:14603   */\n      tag_204\n      jump\t// in\n    tag_368:\n        /* \"#utility.yul\":14579:14603   */\n      swap3\n      pop\n        /* \"#utility.yul\":14622:14623   */\n      dup3\n        /* \"#utility.yul\":14612:14647   */\n      tag_369\n      jumpi\n        /* \"#utility.yul\":14627:14645   */\n      tag_370\n      tag_223\n      jump\t// in\n    tag_370:\n        /* \"#utility.yul\":14612:14647   */\n    tag_369:\n        /* \"#utility.yul\":14813:14814   */\n      0x01\n        /* \"#utility.yul\":14810:14811   */\n      0x00\n        /* \"#utility.yul\":14806:14815   */\n      sub\n        /* \"#utility.yul\":14803:14804   */\n      dup4\n        /* \"#utility.yul\":14800:14816   */\n      eq\n        /* \"#utility.yul\":14719:14785   */\n      0x8000000000000000000000000000000000000000000000000000000000000000\n        /* \"#utility.yul\":14716:14717   */\n      dup4\n        /* \"#utility.yul\":14713:14786   */\n      eq\n        /* \"#utility.yul\":14696:14826   */\n      and\n        /* \"#utility.yul\":14693:14849   */\n      iszero\n      tag_371\n      jumpi\n        /* \"#utility.yul\":14829:14847   */\n      tag_372\n      tag_220\n      jump\t// in\n    tag_372:\n        /* \"#utility.yul\":14693:14849   */\n    tag_371:\n        /* \"#utility.yul\":14872:14873   */\n      dup3\n        /* \"#utility.yul\":14869:14870   */\n      dup3\n        /* \"#utility.yul\":14864:14874   */\n      sdiv\n        /* \"#utility.yul\":14859:14874   */\n      swap1\n      pop\n        /* \"#utility.yul\":14495:14880   */\n      swap3\n      swap2\n      pop\n      pop\n      jump\t// out\n        /* \"#utility.yul\":14886:15050   */\n    tag_224:\n        /* \"#utility.yul\":15026:15042   */\n      0x4d6f64756c6f206279207a65726f000000000000000000000000000000000000\n        /* \"#utility.yul\":15022:15023   */\n      0x00\n        /* \"#utility.yul\":15014:15020   */\n      dup3\n        /* \"#utility.yul\":15010:15024   */\n      add\n        /* \"#utility.yul\":15003:15043   */\n      mstore\n        /* \"#utility.yul\":14886:15050   */\n      pop\n      jump\t// out\n        /* \"#utility.yul\":15056:15422   */\n    tag_225:\n        /* \"#utility.yul\":15198:15201   */\n      0x00\n        /* \"#utility.yul\":15219:15286   */\n      tag_375\n        /* \"#utility.yul\":15283:15285   */\n      0x0e\n        /* \"#utility.yul\":15278:15281   */\n      dup4\n        /* \"#utility.yul\":15219:15286   */\n      tag_192\n      jump\t// in\n    tag_375:\n        /* \"#utility.yul\":15212:15286   */\n      swap2\n      pop\n        /* \"#utility.yul\":15295:15388   */\n      tag_376\n        /* \"#utility.yul\":15384:15387   */\n      dup3\n        /* \"#utility.yul\":15295:15388   */\n      tag_224\n      jump\t// in\n    tag_376:\n        /* \"#utility.yul\":15413:15415   */\n      0x20\n        /* \"#utility.yul\":15408:15411   */\n      dup3\n        /* \"#utility.yul\":15404:15416   */\n      add\n        /* \"#utility.yul\":15397:15416   */\n      swap1\n      pop\n        /* \"#utility.yul\":15056:15422   */\n      swap2\n      swap1\n      pop\n      jump\t// out\n        /* \"#utility.yul\":15428:15847   */\n    tag_122:\n        /* \"#utility.yul\":15594:15598   */\n      0x00\n        /* \"#utility.yul\":15632:15634   */\n      0x20\n        /* \"#utility.yul\":15621:15630   */\n      dup3\n        /* \"#utility.yul\":15617:15635   */\n      add\n        /* \"#utility.yul\":15609:15635   */\n      swap1\n      pop\n        /* \"#utility.yul\":15681:15690   */\n      dup2\n        /* \"#utility.yul\":15675:15679   */\n      dup2\n        /* \"#utility.yul\":15671:15691   */\n      sub\n        /* \"#utility.yul\":15667:15668   */\n      0x00\n        /* \"#utility.yul\":15656:15665   */\n      dup4\n        /* \"#utility.yul\":15652:15669   */\n      add\n        /* \"#utility.yul\":15645:15692   */\n      mstore\n        /* \"#utility.yul\":15709:15840   */\n      tag_378\n        /* \"#utility.yul\":15835:15839   */\n      dup2\n        /* \"#utility.yul\":15709:15840   */\n      tag_225\n      jump\t// in\n    tag_378:\n        /* \"#utility.yul\":15701:15840   */\n      swap1\n      pop\n        /* \"#utility.yul\":15428:15847   */\n      swap2\n      swap1\n      pop\n      jump\t// out\n        /* \"#utility.yul\":15853:16027   */\n    tag_124:\n        /* \"#utility.yul\":15884:15885   */\n      0x00\n        /* \"#utility.yul\":15901:15920   */\n      tag_380\n        /* \"#utility.yul\":15918:15919   */\n      dup3\n        /* \"#utility.yul\":15901:15920   */\n      tag_204\n      jump\t// in\n    tag_380:\n        /* \"#utility.yul\":15896:15920   */\n      swap2\n      pop\n        /* \"#utility.yul\":15934:15953   */\n      tag_381\n        /* \"#utility.yul\":15951:15952   */\n      dup4\n        /* \"#utility.yul\":15934:15953   */\n      tag_204\n      jump\t// in\n    tag_381:\n        /* \"#utility.yul\":15929:15953   */\n      swap3\n      pop\n        /* \"#utility.yul\":15972:15973   */\n      dup3\n        /* \"#utility.yul\":15962:15997   */\n      tag_382\n      jumpi\n        /* \"#utility.yul\":15977:15995   */\n      tag_383\n      tag_223\n      jump\t// in\n    tag_383:\n        /* \"#utility.yul\":15962:15997   */\n    tag_382:\n        /* \"#utility.yul\":16019:16020   */\n      dup3\n        /* \"#utility.yul\":16016:16017   */\n      dup3\n        /* \"#utility.yul\":16011:16021   */\n      smod\n        /* \"#utility.yul\":16006:16021   */\n      swap1\n      pop\n        /* \"#utility.yul\":15853:16027   */\n      swap3\n      swap2\n      pop\n      pop\n      jump\t// out\n        /* \"#utility.yul\":16033:16600   */\n    tag_131:\n        /* \"#utility.yul\":16217:16221   */\n      0x00\n        /* \"#utility.yul\":16255:16258   */\n      0x80\n        /* \"#utility.yul\":16244:16253   */\n      dup3\n        /* \"#utility.yul\":16240:16259   */\n      add\n        /* \"#utility.yul\":16232:16259   */\n      swap1\n      pop\n        /* \"#utility.yul\":16269:16340   */\n      tag_385\n        /* \"#utility.yul\":16337:16338   */\n      0x00\n        /* \"#utility.yul\":16326:16335   */\n      dup4\n        /* \"#utility.yul\":16322:16339   */\n      add\n        /* \"#utility.yul\":16313:16319   */\n      dup8\n        /* \"#utility.yul\":16269:16340   */\n      tag_211\n      jump\t// in\n    tag_385:\n        /* \"#utility.yul\":16350:16422   */\n      tag_386\n        /* \"#utility.yul\":16418:16420   */\n      0x20\n        /* \"#utility.yul\":16407:16416   */\n      dup4\n        /* \"#utility.yul\":16403:16421   */\n      add\n        /* \"#utility.yul\":16394:16400   */\n      dup7\n        /* \"#utility.yul\":16350:16422   */\n      tag_211\n      jump\t// in\n    tag_386:\n        /* \"#utility.yul\":16432:16513   */\n      tag_387\n        /* \"#utility.yul\":16509:16511   */\n      0x40\n        /* \"#utility.yul\":16498:16507   */\n      dup4\n        /* \"#utility.yul\":16494:16512   */\n      add\n        /* \"#utility.yul\":16485:16491   */\n      dup6\n        /* \"#utility.yul\":16432:16513   */\n      tag_212\n      jump\t// in\n    tag_387:\n        /* \"#utility.yul\":16523:16593   */\n      tag_388\n        /* \"#utility.yul\":16589:16591   */\n      0x60\n        /* \"#utility.yul\":16578:16587   */\n      dup4\n        /* \"#utility.yul\":16574:16592   */\n      add\n        /* \"#utility.yul\":16565:16571   */\n      dup5\n        /* \"#utility.yul\":16523:16593   */\n      tag_213\n      jump\t// in\n    tag_388:\n        /* \"#utility.yul\":16033:16600   */\n      swap6\n      swap5\n      pop\n      pop\n      pop\n      pop\n      pop\n      jump\t// out\n        /* \"#utility.yul\":16606:16772   */\n    tag_226:\n        /* \"#utility.yul\":16746:16764   */\n      0x556e6578706563746564206572726f7200000000000000000000000000000000\n        /* \"#utility.yul\":16742:16743   */\n      0x00\n        /* \"#utility.yul\":16734:16740   */\n      dup3\n        /* \"#utility.yul\":16730:16744   */\n      add\n        /* \"#utility.yul\":16723:16765   */\n      mstore\n        /* \"#utility.yul\":16606:16772   */\n      pop\n      jump\t// out\n        /* \"#utility.yul\":16778:17144   */\n    tag_227:\n        /* \"#utility.yul\":16920:16923   */\n      0x00\n        /* \"#utility.yul\":16941:17008   */\n      tag_391\n        /* \"#utility.yul\":17005:17007   */\n      0x10\n        /* \"#utility.yul\":17000:17003   */\n      dup4\n        /* \"#utility.yul\":16941:17008   */\n      tag_192\n      jump\t// in\n    tag_391:\n        /* \"#utility.yul\":16934:17008   */\n      swap2\n      pop\n        /* \"#utility.yul\":17017:17110   */\n      tag_392\n        /* \"#utility.yul\":17106:17109   */\n      dup3\n        /* \"#utility.yul\":17017:17110   */\n      tag_226\n      jump\t// in\n    tag_392:\n        /* \"#utility.yul\":17135:17137   */\n      0x20\n        /* \"#utility.yul\":17130:17133   */\n      dup3\n        /* \"#utility.yul\":17126:17138   */\n      add\n        /* \"#utility.yul\":17119:17138   */\n      swap1\n      pop\n        /* \"#utility.yul\":16778:17144   */\n      swap2\n      swap1\n      pop\n      jump\t// out\n        /* \"#utility.yul\":17150:17569   */\n    tag_177:\n        /* \"#utility.yul\":17316:17320   */\n      0x00\n        /* \"#utility.yul\":17354:17356   */\n      0x20\n        /* \"#utility.yul\":17343:17352   */\n      dup3\n        /* \"#utility.yul\":17339:17357   */\n      add\n        /* \"#utility.yul\":17331:17357   */\n      swap1\n      pop\n        /* \"#utility.yul\":17403:17412   */\n      dup2\n        /* \"#utility.yul\":17397:17401   */\n      dup2\n        /* \"#utility.yul\":17393:17413   */\n      sub\n        /* \"#utility.yul\":17389:17390   */\n      0x00\n        /* \"#utility.yul\":17378:17387   */\n      dup4\n        /* \"#utility.yul\":17374:17391   */\n      add\n        /* \"#utility.yul\":17367:17414   */\n      mstore\n        /* \"#utility.yul\":17431:17562   */\n      tag_394\n        /* \"#utility.yul\":17557:17561   */\n      dup2\n        /* \"#utility.yul\":17431:17562   */\n      tag_227\n      jump\t// in\n    tag_394:\n        /* \"#utility.yul\":17423:17562   */\n      swap1\n      pop\n        /* \"#utility.yul\":17150:17569   */\n      swap2\n      swap1\n      pop\n      jump\t// out\n\n    auxdata: 0xa26469706673582212208e196e158ccfb35945de67ed7e062b3ca8cb302bf02c4f0257d59f3f7de7c1e764736f6c634300081a0033\n}\n",
				"bytecode": {
					"linkReferences": {},
					"object": "6080604052348015600e575f80fd5b506115758061001c5f395ff3fe608060405234801561000f575f80fd5b506004361061007b575f3560e01c8063a341a45111610059578063a341a45114610113578063a73370f51461011d578063acd4293c1461014d578063c445bbce1461016b5761007b565b80630dbe3a391461007f578063325c946a146100af5780638ccf4695146100df575b5f80fd5b61009960048036038101906100949190610c60565b61019b565b6040516100a69190610cfb565b60405180910390f35b6100c960048036038101906100c49190610d4e565b610389565b6040516100d69190610e79565b60405180910390f35b6100f960048036038101906100f49190610eec565b6104df565b60405161010a959493929190610f57565b60405180910390f35b61011b610536565b005b61013760048036038101906101329190610fa8565b61057f565b6040516101449190610ff8565b60405180910390f35b6101556108d9565b6040516101629190611011565b60405180910390f35b61018560048036038101906101809190610fa8565b61091f565b6040516101929190610ff8565b60405180910390f35b606060048260ff1611156101e4576040517f08c379a00000000000000000000000000000000000000000000000000000000081526004016101db90611074565b60405180910390fd5b5f8260ff160361022b576040518060400160405280600881526020017f4164646974696f6e0000000000000000000000000000000000000000000000008152509050610384565b60018260ff1603610273576040518060400160405280600b81526020017f5375627472616374696f6e0000000000000000000000000000000000000000008152509050610384565b60028260ff16036102bb576040518060400160405280600e81526020017f4d756c7469706c69636174696f6e0000000000000000000000000000000000008152509050610384565b60038260ff1603610303576040518060400160405280600881526020017f4469766973696f6e0000000000000000000000000000000000000000000000008152509050610384565b60048260ff160361034b576040518060400160405280600681526020017f4d6f64756c6f00000000000000000000000000000000000000000000000000008152509050610384565b6040518060400160405280600781526020017f556e6b6e6f776e0000000000000000000000000000000000000000000000000081525090505b919050565b610391610b84565b5f803373ffffffffffffffffffffffffffffffffffffffff1673ffffffffffffffffffffffffffffffffffffffff1681526020019081526020015f20805490508210610412576040517f08c379a0000000000000000000000000000000000000000000000000000000008152600401610409906110dc565b60405180910390fd5b5f803373ffffffffffffffffffffffffffffffffffffffff1673ffffffffffffffffffffffffffffffffffffffff1681526020019081526020015f2082815481106104605761045f6110fa565b5b905f5260205f2090600502016040518060a00160405290815f82015481526020016001820154815260200160028201548152602001600382015f9054906101000a900460ff1660048111156104b8576104b7610d88565b5b60048111156104ca576104c9610d88565b5b81526020016004820154815250509050919050565b5f602052815f5260405f2081815481106104f7575f80fd5b905f5260205f2090600502015f9150915050805f015490806001015490806002015490806003015f9054906101000a900460ff16908060040154905085565b5f803373ffffffffffffffffffffffffffffffffffffffff1673ffffffffffffffffffffffffffffffffffffffff1681526020019081526020015f205f61057d9190610bc0565b565b5f60048260ff1611156105c7576040517f08c379a00000000000000000000000000000000000000000000000000000000081526004016105be906111bd565b60405180910390fd5b5f8260ff1660048111156105de576105dd610d88565b5b90505f8060048111156105f4576105f3610d88565b5b82600481111561060757610606610d88565b5b0361061f5784866106189190611208565b905061079e565b6001600481111561063357610632610d88565b5b82600481111561064657610645610d88565b5b0361065e5784866106579190611249565b905061079d565b6002600481111561067257610671610d88565b5b82600481111561068557610684610d88565b5b0361069d5784866106969190611289565b905061079c565b600360048111156106b1576106b0610d88565b5b8260048111156106c4576106c3610d88565b5b0361071e575f850361070b576040517f08c379a000000000000000000000000000000000000000000000000000000000815260040161070290611349565b60405180910390fd5b84866107179190611394565b905061079b565b60048081111561073157610730610d88565b5b82600481111561074457610743610d88565b5b0361079a575f850361078b576040517f08c379a000000000000000000000000000000000000000000000000000000000815260040161078290611446565b60405180910390fd5b84866107979190611464565b90505b5b5b5b5b5f803373ffffffffffffffffffffffffffffffffffffffff1673ffffffffffffffffffffffffffffffffffffffff1681526020019081526020015f206040518060a0016040528042815260200188815260200187815260200184600481111561080a57610809610d88565b5b815260200183815250908060018154018082558091505060019003905f5260205f2090600502015f909190919091505f820151815f015560208201518160010155604082015181600201556060820151816003015f6101000a81548160ff0219169083600481111561087f5761087e610d88565b5b02179055506080820151816004015550507f41deb3f74989a57044e364d2ea2c25f052e47668a5218ad2dcd1bebd37b657e7868684846040516108c59493929190611494565b60405180910390a180925050509392505050565b5f805f3373ffffffffffffffffffffffffffffffffffffffff1673ffffffffffffffffffffffffffffffffffffffff1681526020019081526020015f2080549050905090565b5f60048260ff161115610967576040517f08c379a000000000000000000000000000000000000000000000000000000000815260040161095e906111bd565b60405180910390fd5b5f8260ff16600481111561097e5761097d610d88565b5b90505f600481111561099357610992610d88565b5b8160048111156109a6576109a5610d88565b5b036109bf5783856109b79190611208565b915050610b7d565b600160048111156109d3576109d2610d88565b5b8160048111156109e6576109e5610d88565b5b036109ff5783856109f79190611249565b915050610b7d565b60026004811115610a1357610a12610d88565b5b816004811115610a2657610a25610d88565b5b03610a3f578385610a379190611289565b915050610b7d565b60036004811115610a5357610a52610d88565b5b816004811115610a6657610a65610d88565b5b03610ac1575f8403610aad576040517f08c379a0000000000000000000000000000000000000000000000000000000008152600401610aa490611349565b60405180910390fd5b8385610ab99190611394565b915050610b7d565b600480811115610ad457610ad3610d88565b5b816004811115610ae757610ae6610d88565b5b03610b42575f8403610b2e576040517f08c379a0000000000000000000000000000000000000000000000000000000008152600401610b2590611446565b60405180910390fd5b8385610b3a9190611464565b915050610b7d565b6040517f08c379a0000000000000000000000000000000000000000000000000000000008152600401610b7490611521565b60405180910390fd5b9392505050565b6040518060a001604052805f81526020015f81526020015f81526020015f6004811115610bb457610bb3610d88565b5b81526020015f81525090565b5080545f8255600502905f5260205f2090810190610bde9190610be1565b50565b5b80821115610c22575f8082015f9055600182015f9055600282015f9055600382015f6101000a81549060ff0219169055600482015f905550600501610be2565b5090565b5f80fd5b5f60ff82169050919050565b610c3f81610c2a565b8114610c49575f80fd5b50565b5f81359050610c5a81610c36565b92915050565b5f60208284031215610c7557610c74610c26565b5b5f610c8284828501610c4c565b91505092915050565b5f81519050919050565b5f82825260208201905092915050565b8281835e5f83830152505050565b5f601f19601f8301169050919050565b5f610ccd82610c8b565b610cd78185610c95565b9350610ce7818560208601610ca5565b610cf081610cb3565b840191505092915050565b5f6020820190508181035f830152610d138184610cc3565b905092915050565b5f819050919050565b610d2d81610d1b565b8114610d37575f80fd5b50565b5f81359050610d4881610d24565b92915050565b5f60208284031215610d6357610d62610c26565b5b5f610d7084828501610d3a565b91505092915050565b610d8281610d1b565b82525050565b7f4e487b71000000000000000000000000000000000000000000000000000000005f52602160045260245ffd5b60058110610dc657610dc5610d88565b5b50565b5f819050610dd682610db5565b919050565b5f610de582610dc9565b9050919050565b610df581610ddb565b82525050565b5f819050919050565b610e0d81610dfb565b82525050565b60a082015f820151610e275f850182610d79565b506020820151610e3a6020850182610d79565b506040820151610e4d6040850182610d79565b506060820151610e606060850182610dec565b506080820151610e736080850182610e04565b50505050565b5f60a082019050610e8c5f830184610e13565b92915050565b5f73ffffffffffffffffffffffffffffffffffffffff82169050919050565b5f610ebb82610e92565b9050919050565b610ecb81610eb1565b8114610ed5575f80fd5b50565b5f81359050610ee681610ec2565b92915050565b5f8060408385031215610f0257610f01610c26565b5b5f610f0f85828601610ed8565b9250506020610f2085828601610d3a565b9150509250929050565b610f3381610d1b565b82525050565b610f4281610ddb565b82525050565b610f5181610dfb565b82525050565b5f60a082019050610f6a5f830188610f2a565b610f776020830187610f2a565b610f846040830186610f2a565b610f916060830185610f39565b610f9e6080830184610f48565b9695505050505050565b5f805f60608486031215610fbf57610fbe610c26565b5b5f610fcc86828701610d3a565b9350506020610fdd86828701610d3a565b9250506040610fee86828701610c4c565b9150509250925092565b5f60208201905061100b5f830184610f48565b92915050565b5f6020820190506110245f830184610f2a565b92915050565b7f496e76616c6964206f7065726174696f6e20636f6465000000000000000000005f82015250565b5f61105e601683610c95565b91506110698261102a565b602082019050919050565b5f6020820190508181035f83015261108b81611052565b9050919050565b7f496e646578206f7574206f6620626f756e6473000000000000000000000000005f82015250565b5f6110c6601383610c95565b91506110d182611092565b602082019050919050565b5f6020820190508181035f8301526110f3816110ba565b9050919050565b7f4e487b71000000000000000000000000000000000000000000000000000000005f52603260045260245ffd5b7f496e76616c6964206f7065726174696f6e3a20557365203020666f72202b2c205f8201527f3120666f72202d2c203220666f72202a2c203320666f72202f2c203420666f7260208201527f2025000000000000000000000000000000000000000000000000000000000000604082015250565b5f6111a7604283610c95565b91506111b282611127565b606082019050919050565b5f6020820190508181035f8301526111d48161119b565b9050919050565b7f4e487b71000000000000000000000000000000000000000000000000000000005f52601160045260245ffd5b5f61121282610dfb565b915061121d83610dfb565b92508282019050828112155f8312168382125f841215161715611243576112426111db565b5b92915050565b5f61125382610dfb565b915061125e83610dfb565b925082820390508181125f8412168282135f851215161715611283576112826111db565b5b92915050565b5f61129382610dfb565b915061129e83610dfb565b92508282026112ac81610dfb565b91507f800000000000000000000000000000000000000000000000000000000000000084145f841216156112e3576112e26111db565b5b82820584148315176112f8576112f76111db565b5b5092915050565b7f4469766973696f6e206279207a65726f000000000000000000000000000000005f82015250565b5f611333601083610c95565b915061133e826112ff565b602082019050919050565b5f6020820190508181035f83015261136081611327565b9050919050565b7f4e487b71000000000000000000000000000000000000000000000000000000005f52601260045260245ffd5b5f61139e82610dfb565b91506113a983610dfb565b9250826113b9576113b8611367565b5b60015f0383147f8000000000000000000000000000000000000000000000000000000000000000831416156113f1576113f06111db565b5b828205905092915050565b7f4d6f64756c6f206279207a65726f0000000000000000000000000000000000005f82015250565b5f611430600e83610c95565b915061143b826113fc565b602082019050919050565b5f6020820190508181035f83015261145d81611424565b9050919050565b5f61146e82610dfb565b915061147983610dfb565b92508261148957611488611367565b5b828207905092915050565b5f6080820190506114a75f830187610f2a565b6114b46020830186610f2a565b6114c16040830185610f39565b6114ce6060830184610f48565b95945050505050565b7f556e6578706563746564206572726f72000000000000000000000000000000005f82015250565b5f61150b601083610c95565b9150611516826114d7565b602082019050919050565b5f6020820190508181035f830152611538816114ff565b905091905056fea26469706673582212208e196e158ccfb35945de67ed7e062b3ca8cb302bf02c4f0257d59f3f7de7c1e764736f6c634300081a0033",
					"opcodes": "PUSH1 0x80 PUSH1 0x40 MSTORE CALLVALUE DUP1 ISZERO PUSH1 0xE JUMPI PUSH0 DUP1 REVERT JUMPDEST POP PUSH2 0x1575 DUP1 PUSH2 0x1C PUSH0 CODECOPY PUSH0 RETURN INVALID PUSH1 0x80 PUSH1 0x40 MSTORE CALLVALUE DUP1 ISZERO PUSH2 0xF JUMPI PUSH0 DUP1 REVERT JUMPDEST POP PUSH1 0x4 CALLDATASIZE LT PUSH2 0x7B JUMPI PUSH0 CALLDATALOAD PUSH1 0xE0 SHR DUP1 PUSH4 0xA341A451 GT PUSH2 0x59 JUMPI DUP1 PUSH4 0xA341A451 EQ PUSH2 0x113 JUMPI DUP1 PUSH4 0xA73370F5 EQ PUSH2 0x11D JUMPI DUP1 PUSH4 0xACD4293C EQ PUSH2 0x14D JUMPI DUP1 PUSH4 0xC445BBCE EQ PUSH2 0x16B JUMPI PUSH2 0x7B JUMP JUMPDEST DUP1 PUSH4 0xDBE3A39 EQ PUSH2 0x7F JUMPI DUP1 PUSH4 0x325C946A EQ PUSH2 0xAF JUMPI DUP1 PUSH4 0x8CCF4695 EQ PUSH2 0xDF JUMPI JUMPDEST PUSH0 DUP1 REVERT JUMPDEST PUSH2 0x99 PUSH1 0x4 DUP1 CALLDATASIZE SUB DUP2 ADD SWAP1 PUSH2 0x94 SWAP2 SWAP1 PUSH2 0xC60 JUMP JUMPDEST PUSH2 0x19B JUMP JUMPDEST PUSH1 0x40 MLOAD PUSH2 0xA6 SWAP2 SWAP1 PUSH2 0xCFB JUMP JUMPDEST PUSH1 0x40 MLOAD DUP1 SWAP2 SUB SWAP1 RETURN JUMPDEST PUSH2 0xC9 PUSH1 0x4 DUP1 CALLDATASIZE SUB DUP2 ADD SWAP1 PUSH2 0xC4 SWAP2 SWAP1 PUSH2 0xD4E JUMP JUMPDEST PUSH2 0x389 JUMP JUMPDEST PUSH1 0x40 MLOAD PUSH2 0xD6 SWAP2 SWAP1 PUSH2 0xE79 JUMP JUMPDEST PUSH1 0x40 MLOAD DUP1 SWAP2 SUB SWAP1 RETURN JUMPDEST PUSH2 0xF9 PUSH1 0x4 DUP1 CALLDATASIZE SUB DUP2 ADD SWAP1 PUSH2 0xF4 SWAP2 SWAP1 PUSH2 0xEEC JUMP JUMPDEST PUSH2 0x4DF JUMP JUMPDEST PUSH1 0x40 MLOAD PUSH2 0x10A SWAP6 SWAP5 SWAP4 SWAP3 SWAP2 SWAP1 PUSH2 0xF57 JUMP JUMPDEST PUSH1 0x40 MLOAD DUP1 SWAP2 SUB SWAP1 RETURN JUMPDEST PUSH2 0x11B PUSH2 0x536 JUMP JUMPDEST STOP JUMPDEST PUSH2 0x137 PUSH1 0x4 DUP1 CALLDATASIZE SUB DUP2 ADD SWAP1 PUSH2 0x132 SWAP2 SWAP1 PUSH2 0xFA8 JUMP JUMPDEST PUSH2 0x57F JUMP JUMPDEST PUSH1 0x40 MLOAD PUSH2 0x144 SWAP2 SWAP1 PUSH2 0xFF8 JUMP JUMPDEST PUSH1 0x40 MLOAD DUP1 SWAP2 SUB SWAP1 RETURN JUMPDEST PUSH2 0x155 PUSH2 0x8D9 JUMP JUMPDEST PUSH1 0x40 MLOAD PUSH2 0x162 SWAP2 SWAP1 PUSH2 0x1011 JUMP JUMPDEST PUSH1 0x40 MLOAD DUP1 SWAP2 SUB SWAP1 RETURN JUMPDEST PUSH2 0x185 PUSH1 0x4 DUP1 CALLDATASIZE SUB DUP2 ADD SWAP1 PUSH2 0x180 SWAP2 SWAP1 PUSH2 0xFA8 JUMP JUMPDEST PUSH2 0x91F JUMP JUMPDEST PUSH1 0x40 MLOAD PUSH2 0x192 SWAP2 SWAP1 PUSH2 0xFF8 JUMP JUMPDEST PUSH1 0x40 MLOAD DUP1 SWAP2 SUB SWAP1 RETURN JUMPDEST PUSH1 0x60 PUSH1 0x4 DUP3 PUSH1 0xFF AND GT ISZERO PUSH2 0x1E4 JUMPI PUSH1 0x40 MLOAD PUSH32 0x8C379A000000000000000000000000000000000000000000000000000000000 DUP2 MSTORE PUSH1 0x4 ADD PUSH2 0x1DB SWAP1 PUSH2 0x1074 JUMP JUMPDEST PUSH1 0x40 MLOAD DUP1 SWAP2 SUB SWAP1 REVERT JUMPDEST PUSH0 DUP3 PUSH1 0xFF AND SUB PUSH2 0x22B JUMPI PUSH1 0x40 MLOAD DUP1 PUSH1 0x40 ADD PUSH1 0x40 MSTORE DUP1 PUSH1 0x8 DUP2 MSTORE PUSH1 0x20 ADD PUSH32 0x4164646974696F6E000000000000000000000000000000000000000000000000 DUP2 MSTORE POP SWAP1 POP PUSH2 0x384 JUMP JUMPDEST PUSH1 0x1 DUP3 PUSH1 0xFF AND SUB PUSH2 0x273 JUMPI PUSH1 0x40 MLOAD DUP1 PUSH1 0x40 ADD PUSH1 0x40 MSTORE DUP1 PUSH1 0xB DUP2 MSTORE PUSH1 0x20 ADD PUSH32 0x5375627472616374696F6E000000000000000000000000000000000000000000 DUP2 MSTORE POP SWAP1 POP PUSH2 0x384 JUMP JUMPDEST PUSH1 0x2 DUP3 PUSH1 0xFF AND SUB PUSH2 0x2BB JUMPI PUSH1 0x40 MLOAD DUP1 PUSH1 0x40 ADD PUSH1 0x40 MSTORE DUP1 PUSH1 0xE DUP2 MSTORE PUSH1 0x20 ADD PUSH32 0x4D756C7469706C69636174696F6E000000000000000000000000000000000000 DUP2 MSTORE POP SWAP1 POP PUSH2 0x384 JUMP JUMPDEST PUSH1 0x3 DUP3 PUSH1 0xFF AND SUB PUSH2 0x303 JUMPI PUSH1 0x40 MLOAD DUP1 PUSH1 0x40 ADD PUSH1 0x40 MSTORE DUP1 PUSH1 0x8 DUP2 MSTORE PUSH1 0x20 ADD PUSH32 0x4469766973696F6E000000000000000000000000000000000000000000000000 DUP2 MSTORE POP SWAP1 POP PUSH2 0x384 JUMP JUMPDEST PUSH1 0x4 DUP3 PUSH1 0xFF AND SUB PUSH2 0x34B JUMPI PUSH1 0x40 MLOAD DUP1 PUSH1 0x40 ADD PUSH1 0x40 MSTORE DUP1 PUSH1 0x6 DUP2 MSTORE PUSH1 0x20 ADD PUSH32 0x4D6F64756C6F0000000000000000000000000000000000000000000000000000 DUP2 MSTORE POP SWAP1 POP PUSH2 0x384 JUMP JUMPDEST PUSH1 0x40 MLOAD DUP1 PUSH1 0x40 ADD PUSH1 0x40 MSTORE DUP1 PUSH1 0x7 DUP2 MSTORE PUSH1 0x20 ADD PUSH32 0x556E6B6E6F776E00000000000000000000000000000000000000000000000000 DUP2 MSTORE POP SWAP1 POP JUMPDEST SWAP2 SWAP1 POP JUMP JUMPDEST PUSH2 0x391 PUSH2 0xB84 JUMP JUMPDEST PUSH0 DUP1 CALLER PUSH20 0xFFFFFFFFFFFFFFFFFFFFFFFFFFFFFFFFFFFFFFFF AND PUSH20 0xFFFFFFFFFFFFFFFFFFFFFFFFFFFFFFFFFFFFFFFF AND DUP2 MSTORE PUSH1 0x20 ADD SWAP1 DUP2 MSTORE PUSH1 0x20 ADD PUSH0 KECCAK256 DUP1 SLOAD SWAP1 POP DUP3 LT PUSH2 0x412 JUMPI PUSH1 0x40 MLOAD PUSH32 0x8C379A000000000000000000000000000000000000000000000000000000000 DUP2 MSTORE PUSH1 0x4 ADD PUSH2 0x409 SWAP1 PUSH2 0x10DC JUMP JUMPDEST PUSH1 0x40 MLOAD DUP1 SWAP2 SUB SWAP1 REVERT JUMPDEST PUSH0 DUP1 CALLER PUSH20 0xFFFFFFFFFFFFFFFFFFFFFFFFFFFFFFFFFFFFFFFF AND PUSH20 0xFFFFFFFFFFFFFFFFFFFFFFFFFFFFFFFFFFFFFFFF AND DUP2 MSTORE PUSH1 0x20 ADD SWAP1 DUP2 MSTORE PUSH1 0x20 ADD PUSH0 KECCAK256 DUP3 DUP2 SLOAD DUP2 LT PUSH2 0x460 JUMPI PUSH2 0x45F PUSH2 0x10FA JUMP JUMPDEST JUMPDEST SWAP1 PUSH0 MSTORE PUSH1 0x20 PUSH0 KECCAK256 SWAP1 PUSH1 0x5 MUL ADD PUSH1 0x40 MLOAD DUP1 PUSH1 0xA0 ADD PUSH1 0x40 MSTORE SWAP1 DUP2 PUSH0 DUP3 ADD SLOAD DUP2 MSTORE PUSH1 0x20 ADD PUSH1 0x1 DUP3 ADD SLOAD DUP2 MSTORE PUSH1 0x20 ADD PUSH1 0x2 DUP3 ADD SLOAD DUP2 MSTORE PUSH1 0x20 ADD PUSH1 0x3 DUP3 ADD PUSH0 SWAP1 SLOAD SWAP1 PUSH2 0x100 EXP SWAP1 DIV PUSH1 0xFF AND PUSH1 0x4 DUP2 GT ISZERO PUSH2 0x4B8 JUMPI PUSH2 0x4B7 PUSH2 0xD88 JUMP JUMPDEST JUMPDEST PUSH1 0x4 DUP2 GT ISZERO PUSH2 0x4CA JUMPI PUSH2 0x4C9 PUSH2 0xD88 JUMP JUMPDEST JUMPDEST DUP2 MSTORE PUSH1 0x20 ADD PUSH1 0x4 DUP3 ADD SLOAD DUP2 MSTORE POP POP SWAP1 POP SWAP2 SWAP1 POP JUMP JUMPDEST PUSH0 PUSH1 0x20 MSTORE DUP2 PUSH0 MSTORE PUSH1 0x40 PUSH0 KECCAK256 DUP2 DUP2 SLOAD DUP2 LT PUSH2 0x4F7 JUMPI PUSH0 DUP1 REVERT JUMPDEST SWAP1 PUSH0 MSTORE PUSH1 0x20 PUSH0 KECCAK256 SWAP1 PUSH1 0x5 MUL ADD PUSH0 SWAP2 POP SWAP2 POP POP DUP1 PUSH0 ADD SLOAD SWAP1 DUP1 PUSH1 0x1 ADD SLOAD SWAP1 DUP1 PUSH1 0x2 ADD SLOAD SWAP1 DUP1 PUSH1 0x3 ADD PUSH0 SWAP1 SLOAD SWAP1 PUSH2 0x100 EXP SWAP1 DIV PUSH1 0xFF AND SWAP1 DUP1 PUSH1 0x4 ADD SLOAD SWAP1 POP DUP6 JUMP JUMPDEST PUSH0 DUP1 CALLER PUSH20 0xFFFFFFFFFFFFFFFFFFFFFFFFFFFFFFFFFFFFFFFF AND PUSH20 0xFFFFFFFFFFFFFFFFFFFFFFFFFFFFFFFFFFFFFFFF AND DUP2 MSTORE PUSH1 0x20 ADD SWAP1 DUP2 MSTORE PUSH1 0x20 ADD PUSH0 KECCAK256 PUSH0 PUSH2 0x57D SWAP2 SWAP1 PUSH2 0xBC0 JUMP JUMPDEST JUMP JUMPDEST PUSH0 PUSH1 0x4 DUP3 PUSH1 0xFF AND GT ISZERO PUSH2 0x5C7 JUMPI PUSH1 0x40 MLOAD PUSH32 0x8C379A000000000000000000000000000000000000000000000000000000000 DUP2 MSTORE PUSH1 0x4 ADD PUSH2 0x5BE SWAP1 PUSH2 0x11BD JUMP JUMPDEST PUSH1 0x40 MLOAD DUP1 SWAP2 SUB SWAP1 REVERT JUMPDEST PUSH0 DUP3 PUSH1 0xFF AND PUSH1 0x4 DUP2 GT ISZERO PUSH2 0x5DE JUMPI PUSH2 0x5DD PUSH2 0xD88 JUMP JUMPDEST JUMPDEST SWAP1 POP PUSH0 DUP1 PUSH1 0x4 DUP2 GT ISZERO PUSH2 0x5F4 JUMPI PUSH2 0x5F3 PUSH2 0xD88 JUMP JUMPDEST JUMPDEST DUP3 PUSH1 0x4 DUP2 GT ISZERO PUSH2 0x607 JUMPI PUSH2 0x606 PUSH2 0xD88 JUMP JUMPDEST JUMPDEST SUB PUSH2 0x61F JUMPI DUP5 DUP7 PUSH2 0x618 SWAP2 SWAP1 PUSH2 0x1208 JUMP JUMPDEST SWAP1 POP PUSH2 0x79E JUMP JUMPDEST PUSH1 0x1 PUSH1 0x4 DUP2 GT ISZERO PUSH2 0x633 JUMPI PUSH2 0x632 PUSH2 0xD88 JUMP JUMPDEST JUMPDEST DUP3 PUSH1 0x4 DUP2 GT ISZERO PUSH2 0x646 JUMPI PUSH2 0x645 PUSH2 0xD88 JUMP JUMPDEST JUMPDEST SUB PUSH2 0x65E JUMPI DUP5 DUP7 PUSH2 0x657 SWAP2 SWAP1 PUSH2 0x1249 JUMP JUMPDEST SWAP1 POP PUSH2 0x79D JUMP JUMPDEST PUSH1 0x2 PUSH1 0x4 DUP2 GT ISZERO PUSH2 0x672 JUMPI PUSH2 0x671 PUSH2 0xD88 JUMP JUMPDEST JUMPDEST DUP3 PUSH1 0x4 DUP2 GT ISZERO PUSH2 0x685 JUMPI PUSH2 0x684 PUSH2 0xD88 JUMP JUMPDEST JUMPDEST SUB PUSH2 0x69D JUMPI DUP5 DUP7 PUSH2 0x696 SWAP2 SWAP1 PUSH2 0x1289 JUMP JUMPDEST SWAP1 POP PUSH2 0x79C JUMP JUMPDEST PUSH1 0x3 PUSH1 0x4 DUP2 GT ISZERO PUSH2 0x6B1 JUMPI PUSH2 0x6B0 PUSH2 0xD88 JUMP JUMPDEST JUMPDEST DUP3 PUSH1 0x4 DUP2 GT ISZERO PUSH2 0x6C4 JUMPI PUSH2 0x6C3 PUSH2 0xD88 JUMP JUMPDEST JUMPDEST SUB PUSH2 0x71E JUMPI PUSH0 DUP6 SUB PUSH2 0x70B JUMPI PUSH1 0x40 MLOAD PUSH32 0x8C379A000000000000000000000000000000000000000000000000000000000 DUP2 MSTORE PUSH1 0x4 ADD PUSH2 0x702 SWAP1 PUSH2 0x1349 JUMP JUMPDEST PUSH1 0x40 MLOAD DUP1 SWAP2 SUB SWAP1 REVERT JUMPDEST DUP5 DUP7 PUSH2 0x717 SWAP2 SWAP1 PUSH2 0x1394 JUMP JUMPDEST SWAP1 POP PUSH2 0x79B JUMP JUMPDEST PUSH1 0x4 DUP1 DUP2 GT ISZERO PUSH2 0x731 JUMPI PUSH2 0x730 PUSH2 0xD88 JUMP JUMPDEST JUMPDEST DUP3 PUSH1 0x4 DUP2 GT ISZERO PUSH2 0x744 JUMPI PUSH2 0x743 PUSH2 0xD88 JUMP JUMPDEST JUMPDEST SUB PUSH2 0x79A JUMPI PUSH0 DUP6 SUB PUSH2 0x78B JUMPI PUSH1 0x40 MLOAD PUSH32 0x8C379A000000000000000000000000000000000000000000000000000000000 DUP2 MSTORE PUSH1 0x4 ADD PUSH2 0x782 SWAP1 PUSH2 0x1446 JUMP JUMPDEST PUSH1 0x40 MLOAD DUP1 SWAP2 SUB SWAP1 REVERT JUMPDEST DUP5 DUP7 PUSH2 0x797 SWAP2 SWAP1 PUSH2 0x1464 JUMP JUMPDEST SWAP1 POP JUMPDEST JUMPDEST JUMPDEST JUMPDEST JUMPDEST PUSH0 DUP1 CALLER PUSH20 0xFFFFFFFFFFFFFFFFFFFFFFFFFFFFFFFFFFFFFFFF AND PUSH20 0xFFFFFFFFFFFFFFFFFFFFFFFFFFFFFFFFFFFFFFFF AND DUP2 MSTORE PUSH1 0x20 ADD SWAP1 DUP2 MSTORE PUSH1 0x20 ADD PUSH0 KECCAK256 PUSH1 0x40 MLOAD DUP1 PUSH1 0xA0 ADD PUSH1 0x40 MSTORE DUP1 TIMESTAMP DUP2 MSTORE PUSH1 0x20 ADD DUP9 DUP2 MSTORE PUSH1 0x20 ADD DUP8 DUP2 MSTORE PUSH1 0x20 ADD DUP5 PUSH1 0x4 DUP2 GT ISZERO PUSH2 0x80A JUMPI PUSH2 0x809 PUSH2 0xD88 JUMP JUMPDEST JUMPDEST DUP2 MSTORE PUSH1 0x20 ADD DUP4 DUP2 MSTORE POP SWAP1 DUP1 PUSH1 0x1 DUP2 SLOAD ADD DUP1 DUP3 SSTORE DUP1 SWAP2 POP POP PUSH1 0x1 SWAP1 SUB SWAP1 PUSH0 MSTORE PUSH1 0x20 PUSH0 KECCAK256 SWAP1 PUSH1 0x5 MUL ADD PUSH0 SWAP1 SWAP2 SWAP1 SWAP2 SWAP1 SWAP2 POP PUSH0 DUP3 ADD MLOAD DUP2 PUSH0 ADD SSTORE PUSH1 0x20 DUP3 ADD MLOAD DUP2 PUSH1 0x1 ADD SSTORE PUSH1 0x40 DUP3 ADD MLOAD DUP2 PUSH1 0x2 ADD SSTORE PUSH1 0x60 DUP3 ADD MLOAD DUP2 PUSH1 0x3 ADD PUSH0 PUSH2 0x100 EXP DUP2 SLOAD DUP2 PUSH1 0xFF MUL NOT AND SWAP1 DUP4 PUSH1 0x4 DUP2 GT ISZERO PUSH2 0x87F JUMPI PUSH2 0x87E PUSH2 0xD88 JUMP JUMPDEST JUMPDEST MUL OR SWAP1 SSTORE POP PUSH1 0x80 DUP3 ADD MLOAD DUP2 PUSH1 0x4 ADD SSTORE POP POP PUSH32 0x41DEB3F74989A57044E364D2EA2C25F052E47668A5218AD2DCD1BEBD37B657E7 DUP7 DUP7 DUP5 DUP5 PUSH1 0x40 MLOAD PUSH2 0x8C5 SWAP5 SWAP4 SWAP3 SWAP2 SWAP1 PUSH2 0x1494 JUMP JUMPDEST PUSH1 0x40 MLOAD DUP1 SWAP2 SUB SWAP1 LOG1 DUP1 SWAP3 POP POP POP SWAP4 SWAP3 POP POP POP JUMP JUMPDEST PUSH0 DUP1 PUSH0 CALLER PUSH20 0xFFFFFFFFFFFFFFFFFFFFFFFFFFFFFFFFFFFFFFFF AND PUSH20 0xFFFFFFFFFFFFFFFFFFFFFFFFFFFFFFFFFFFFFFFF AND DUP2 MSTORE PUSH1 0x20 ADD SWAP1 DUP2 MSTORE PUSH1 0x20 ADD PUSH0 KECCAK256 DUP1 SLOAD SWAP1 POP SWAP1 POP SWAP1 JUMP JUMPDEST PUSH0 PUSH1 0x4 DUP3 PUSH1 0xFF AND GT ISZERO PUSH2 0x967 JUMPI PUSH1 0x40 MLOAD PUSH32 0x8C379A000000000000000000000000000000000000000000000000000000000 DUP2 MSTORE PUSH1 0x4 ADD PUSH2 0x95E SWAP1 PUSH2 0x11BD JUMP JUMPDEST PUSH1 0x40 MLOAD DUP1 SWAP2 SUB SWAP1 REVERT JUMPDEST PUSH0 DUP3 PUSH1 0xFF AND PUSH1 0x4 DUP2 GT ISZERO PUSH2 0x97E JUMPI PUSH2 0x97D PUSH2 0xD88 JUMP JUMPDEST JUMPDEST SWAP1 POP PUSH0 PUSH1 0x4 DUP2 GT ISZERO PUSH2 0x993 JUMPI PUSH2 0x992 PUSH2 0xD88 JUMP JUMPDEST JUMPDEST DUP2 PUSH1 0x4 DUP2 GT ISZERO PUSH2 0x9A6 JUMPI PUSH2 0x9A5 PUSH2 0xD88 JUMP JUMPDEST JUMPDEST SUB PUSH2 0x9BF JUMPI DUP4 DUP6 PUSH2 0x9B7 SWAP2 SWAP1 PUSH2 0x1208 JUMP JUMPDEST SWAP2 POP POP PUSH2 0xB7D JUMP JUMPDEST PUSH1 0x1 PUSH1 0x4 DUP2 GT ISZERO PUSH2 0x9D3 JUMPI PUSH2 0x9D2 PUSH2 0xD88 JUMP JUMPDEST JUMPDEST DUP2 PUSH1 0x4 DUP2 GT ISZERO PUSH2 0x9E6 JUMPI PUSH2 0x9E5 PUSH2 0xD88 JUMP JUMPDEST JUMPDEST SUB PUSH2 0x9FF JUMPI DUP4 DUP6 PUSH2 0x9F7 SWAP2 SWAP1 PUSH2 0x1249 JUMP JUMPDEST SWAP2 POP POP PUSH2 0xB7D JUMP JUMPDEST PUSH1 0x2 PUSH1 0x4 DUP2 GT ISZERO PUSH2 0xA13 JUMPI PUSH2 0xA12 PUSH2 0xD88 JUMP JUMPDEST JUMPDEST DUP2 PUSH1 0x4 DUP2 GT ISZERO PUSH2 0xA26 JUMPI PUSH2 0xA25 PUSH2 0xD88 JUMP JUMPDEST JUMPDEST SUB PUSH2 0xA3F JUMPI DUP4 DUP6 PUSH2 0xA37 SWAP2 SWAP1 PUSH2 0x1289 JUMP JUMPDEST SWAP2 POP POP PUSH2 0xB7D JUMP JUMPDEST PUSH1 0x3 PUSH1 0x4 DUP2 GT ISZERO PUSH2 0xA53 JUMPI PUSH2 0xA52 PUSH2 0xD88 JUMP JUMPDEST JUMPDEST DUP2 PUSH1 0x4 DUP2 GT ISZERO PUSH2 0xA66 JUMPI PUSH2 0xA65 PUSH2 0xD88 JUMP JUMPDEST JUMPDEST SUB PUSH2 0xAC1 JUMPI PUSH0 DUP5 SUB PUSH2 0xAAD JUMPI PUSH1 0x40 MLOAD PUSH32 0x8C379A000000000000000000000000000000000000000000000000000000000 DUP2 MSTORE PUSH1 0x4 ADD PUSH2 0xAA4 SWAP1 PUSH2 0x1349 JUMP JUMPDEST PUSH1 0x40 MLOAD DUP1 SWAP2 SUB SWAP1 REVERT JUMPDEST DUP4 DUP6 PUSH2 0xAB9 SWAP2 SWAP1 PUSH2 0x1394 JUMP JUMPDEST SWAP2 POP POP PUSH2 0xB7D JUMP JUMPDEST PUSH1 0x4 DUP1 DUP2 GT ISZERO PUSH2 0xAD4 JUMPI PUSH2 0xAD3 PUSH2 0xD88 JUMP JUMPDEST JUMPDEST DUP2 PUSH1 0x4 DUP2 GT ISZERO PUSH2 0xAE7 JUMPI PUSH2 0xAE6 PUSH2 0xD88 JUMP JUMPDEST JUMPDEST SUB PUSH2 0xB42 JUMPI PUSH0 DUP5 SUB PUSH2 0xB2E JUMPI PUSH1 0x40 MLOAD PUSH32 0x8C379A000000000000000000000000000000000000000000000000000000000 DUP2 MSTORE PUSH1 0x4 ADD PUSH2 0xB25 SWAP1 PUSH2 0x1446 JUMP JUMPDEST PUSH1 0x40 MLOAD DUP1 SWAP2 SUB SWAP1 REVERT JUMPDEST DUP4 DUP6 PUSH2 0xB3A SWAP2 SWAP1 PUSH2 0x1464 JUMP JUMPDEST SWAP2 POP POP PUSH2 0xB7D JUMP JUMPDEST PUSH1 0x40 MLOAD PUSH32 0x8C379A000000000000000000000000000000000000000000000000000000000 DUP2 MSTORE PUSH1 0x4 ADD PUSH2 0xB74 SWAP1 PUSH2 0x1521 JUMP JUMPDEST PUSH1 0x40 MLOAD DUP1 SWAP2 SUB SWAP1 REVERT JUMPDEST SWAP4 SWAP3 POP POP POP JUMP JUMPDEST PUSH1 0x40 MLOAD DUP1 PUSH1 0xA0 ADD PUSH1 0x40 MSTORE DUP1 PUSH0 DUP2 MSTORE PUSH1 0x20 ADD PUSH0 DUP2 MSTORE PUSH1 0x20 ADD PUSH0 DUP2 MSTORE PUSH1 0x20 ADD PUSH0 PUSH1 0x4 DUP2 GT ISZERO PUSH2 0xBB4 JUMPI PUSH2 0xBB3 PUSH2 0xD88 JUMP JUMPDEST JUMPDEST DUP2 MSTORE PUSH1 0x20 ADD PUSH0 DUP2 MSTORE POP SWAP1 JUMP JUMPDEST POP DUP1 SLOAD PUSH0 DUP3 SSTORE PUSH1 0x5 MUL SWAP1 PUSH0 MSTORE PUSH1 0x20 PUSH0 KECCAK256 SWAP1 DUP2 ADD SWAP1 PUSH2 0xBDE SWAP2 SWAP1 PUSH2 0xBE1 JUMP JUMPDEST POP JUMP JUMPDEST JUMPDEST DUP1 DUP3 GT ISZERO PUSH2 0xC22 JUMPI PUSH0 DUP1 DUP3 ADD PUSH0 SWAP1 SSTORE PUSH1 0x1 DUP3 ADD PUSH0 SWAP1 SSTORE PUSH1 0x2 DUP3 ADD PUSH0 SWAP1 SSTORE PUSH1 0x3 DUP3 ADD PUSH0 PUSH2 0x100 EXP DUP2 SLOAD SWAP1 PUSH1 0xFF MUL NOT AND SWAP1 SSTORE PUSH1 0x4 DUP3 ADD PUSH0 SWAP1 SSTORE POP PUSH1 0x5 ADD PUSH2 0xBE2 JUMP JUMPDEST POP SWAP1 JUMP JUMPDEST PUSH0 DUP1 REVERT JUMPDEST PUSH0 PUSH1 0xFF DUP3 AND SWAP1 POP SWAP2 SWAP1 POP JUMP JUMPDEST PUSH2 0xC3F DUP2 PUSH2 0xC2A JUMP JUMPDEST DUP2 EQ PUSH2 0xC49 JUMPI PUSH0 DUP1 REVERT JUMPDEST POP JUMP JUMPDEST PUSH0 DUP2 CALLDATALOAD SWAP1 POP PUSH2 0xC5A DUP2 PUSH2 0xC36 JUMP JUMPDEST SWAP3 SWAP2 POP POP JUMP JUMPDEST PUSH0 PUSH1 0x20 DUP3 DUP5 SUB SLT ISZERO PUSH2 0xC75 JUMPI PUSH2 0xC74 PUSH2 0xC26 JUMP JUMPDEST JUMPDEST PUSH0 PUSH2 0xC82 DUP5 DUP3 DUP6 ADD PUSH2 0xC4C JUMP JUMPDEST SWAP2 POP POP SWAP3 SWAP2 POP POP JUMP JUMPDEST PUSH0 DUP2 MLOAD SWAP1 POP SWAP2 SWAP1 POP JUMP JUMPDEST PUSH0 DUP3 DUP3 MSTORE PUSH1 0x20 DUP3 ADD SWAP1 POP SWAP3 SWAP2 POP POP JUMP JUMPDEST DUP3 DUP2 DUP4 MCOPY PUSH0 DUP4 DUP4 ADD MSTORE POP POP POP JUMP JUMPDEST PUSH0 PUSH1 0x1F NOT PUSH1 0x1F DUP4 ADD AND SWAP1 POP SWAP2 SWAP1 POP JUMP JUMPDEST PUSH0 PUSH2 0xCCD DUP3 PUSH2 0xC8B JUMP JUMPDEST PUSH2 0xCD7 DUP2 DUP6 PUSH2 0xC95 JUMP JUMPDEST SWAP4 POP PUSH2 0xCE7 DUP2 DUP6 PUSH1 0x20 DUP7 ADD PUSH2 0xCA5 JUMP JUMPDEST PUSH2 0xCF0 DUP2 PUSH2 0xCB3 JUMP JUMPDEST DUP5 ADD SWAP2 POP POP SWAP3 SWAP2 POP POP JUMP JUMPDEST PUSH0 PUSH1 0x20 DUP3 ADD SWAP1 POP DUP2 DUP2 SUB PUSH0 DUP4 ADD MSTORE PUSH2 0xD13 DUP2 DUP5 PUSH2 0xCC3 JUMP JUMPDEST SWAP1 POP SWAP3 SWAP2 POP POP JUMP JUMPDEST PUSH0 DUP2 SWAP1 POP SWAP2 SWAP1 POP JUMP JUMPDEST PUSH2 0xD2D DUP2 PUSH2 0xD1B JUMP JUMPDEST DUP2 EQ PUSH2 0xD37 JUMPI PUSH0 DUP1 REVERT JUMPDEST POP JUMP JUMPDEST PUSH0 DUP2 CALLDATALOAD SWAP1 POP PUSH2 0xD48 DUP2 PUSH2 0xD24 JUMP JUMPDEST SWAP3 SWAP2 POP POP JUMP JUMPDEST PUSH0 PUSH1 0x20 DUP3 DUP5 SUB SLT ISZERO PUSH2 0xD63 JUMPI PUSH2 0xD62 PUSH2 0xC26 JUMP JUMPDEST JUMPDEST PUSH0 PUSH2 0xD70 DUP5 DUP3 DUP6 ADD PUSH2 0xD3A JUMP JUMPDEST SWAP2 POP POP SWAP3 SWAP2 POP POP JUMP JUMPDEST PUSH2 0xD82 DUP2 PUSH2 0xD1B JUMP JUMPDEST DUP3 MSTORE POP POP JUMP JUMPDEST PUSH32 0x4E487B7100000000000000000000000000000000000000000000000000000000 PUSH0 MSTORE PUSH1 0x21 PUSH1 0x4 MSTORE PUSH1 0x24 PUSH0 REVERT JUMPDEST PUSH1 0x5 DUP2 LT PUSH2 0xDC6 JUMPI PUSH2 0xDC5 PUSH2 0xD88 JUMP JUMPDEST JUMPDEST POP JUMP JUMPDEST PUSH0 DUP2 SWAP1 POP PUSH2 0xDD6 DUP3 PUSH2 0xDB5 JUMP JUMPDEST SWAP2 SWAP1 POP JUMP JUMPDEST PUSH0 PUSH2 0xDE5 DUP3 PUSH2 0xDC9 JUMP JUMPDEST SWAP1 POP SWAP2 SWAP1 POP JUMP JUMPDEST PUSH2 0xDF5 DUP2 PUSH2 0xDDB JUMP JUMPDEST DUP3 MSTORE POP POP JUMP JUMPDEST PUSH0 DUP2 SWAP1 POP SWAP2 SWAP1 POP JUMP JUMPDEST PUSH2 0xE0D DUP2 PUSH2 0xDFB JUMP JUMPDEST DUP3 MSTORE POP POP JUMP JUMPDEST PUSH1 0xA0 DUP3 ADD PUSH0 DUP3 ADD MLOAD PUSH2 0xE27 PUSH0 DUP6 ADD DUP3 PUSH2 0xD79 JUMP JUMPDEST POP PUSH1 0x20 DUP3 ADD MLOAD PUSH2 0xE3A PUSH1 0x20 DUP6 ADD DUP3 PUSH2 0xD79 JUMP JUMPDEST POP PUSH1 0x40 DUP3 ADD MLOAD PUSH2 0xE4D PUSH1 0x40 DUP6 ADD DUP3 PUSH2 0xD79 JUMP JUMPDEST POP PUSH1 0x60 DUP3 ADD MLOAD PUSH2 0xE60 PUSH1 0x60 DUP6 ADD DUP3 PUSH2 0xDEC JUMP JUMPDEST POP PUSH1 0x80 DUP3 ADD MLOAD PUSH2 0xE73 PUSH1 0x80 DUP6 ADD DUP3 PUSH2 0xE04 JUMP JUMPDEST POP POP POP POP JUMP JUMPDEST PUSH0 PUSH1 0xA0 DUP3 ADD SWAP1 POP PUSH2 0xE8C PUSH0 DUP4 ADD DUP5 PUSH2 0xE13 JUMP JUMPDEST SWAP3 SWAP2 POP POP JUMP JUMPDEST PUSH0 PUSH20 0xFFFFFFFFFFFFFFFFFFFFFFFFFFFFFFFFFFFFFFFF DUP3 AND SWAP1 POP SWAP2 SWAP1 POP JUMP JUMPDEST PUSH0 PUSH2 0xEBB DUP3 PUSH2 0xE92 JUMP JUMPDEST SWAP1 POP SWAP2 SWAP1 POP JUMP JUMPDEST PUSH2 0xECB DUP2 PUSH2 0xEB1 JUMP JUMPDEST DUP2 EQ PUSH2 0xED5 JUMPI PUSH0 DUP1 REVERT JUMPDEST POP JUMP JUMPDEST PUSH0 DUP2 CALLDATALOAD SWAP1 POP PUSH2 0xEE6 DUP2 PUSH2 0xEC2 JUMP JUMPDEST SWAP3 SWAP2 POP POP JUMP JUMPDEST PUSH0 DUP1 PUSH1 0x40 DUP4 DUP6 SUB SLT ISZERO PUSH2 0xF02 JUMPI PUSH2 0xF01 PUSH2 0xC26 JUMP JUMPDEST JUMPDEST PUSH0 PUSH2 0xF0F DUP6 DUP3 DUP7 ADD PUSH2 0xED8 JUMP JUMPDEST SWAP3 POP POP PUSH1 0x20 PUSH2 0xF20 DUP6 DUP3 DUP7 ADD PUSH2 0xD3A JUMP JUMPDEST SWAP2 POP POP SWAP3 POP SWAP3 SWAP1 POP JUMP JUMPDEST PUSH2 0xF33 DUP2 PUSH2 0xD1B JUMP JUMPDEST DUP3 MSTORE POP POP JUMP JUMPDEST PUSH2 0xF42 DUP2 PUSH2 0xDDB JUMP JUMPDEST DUP3 MSTORE POP POP JUMP JUMPDEST PUSH2 0xF51 DUP2 PUSH2 0xDFB JUMP JUMPDEST DUP3 MSTORE POP POP JUMP JUMPDEST PUSH0 PUSH1 0xA0 DUP3 ADD SWAP1 POP PUSH2 0xF6A PUSH0 DUP4 ADD DUP9 PUSH2 0xF2A JUMP JUMPDEST PUSH2 0xF77 PUSH1 0x20 DUP4 ADD DUP8 PUSH2 0xF2A JUMP JUMPDEST PUSH2 0xF84 PUSH1 0x40 DUP4 ADD DUP7 PUSH2 0xF2A JUMP JUMPDEST PUSH2 0xF91 PUSH1 0x60 DUP4 ADD DUP6 PUSH2 0xF39 JUMP JUMPDEST PUSH2 0xF9E PUSH1 0x80 DUP4 ADD DUP5 PUSH2 0xF48 JUMP JUMPDEST SWAP7 SWAP6 POP POP POP POP POP POP JUMP JUMPDEST PUSH0 DUP1 PUSH0 PUSH1 0x60 DUP5 DUP7 SUB SLT ISZERO PUSH2 0xFBF JUMPI PUSH2 0xFBE PUSH2 0xC26 JUMP JUMPDEST JUMPDEST PUSH0 PUSH2 0xFCC DUP7 DUP3 DUP8 ADD PUSH2 0xD3A JUMP JUMPDEST SWAP4 POP POP PUSH1 0x20 PUSH2 0xFDD DUP7 DUP3 DUP8 ADD PUSH2 0xD3A JUMP JUMPDEST SWAP3 POP POP PUSH1 0x40 PUSH2 0xFEE DUP7 DUP3 DUP8 ADD PUSH2 0xC4C JUMP JUMPDEST SWAP2 POP POP SWAP3 POP SWAP3 POP SWAP3 JUMP JUMPDEST PUSH0 PUSH1 0x20 DUP3 ADD SWAP1 POP PUSH2 0x100B PUSH0 DUP4 ADD DUP5 PUSH2 0xF48 JUMP JUMPDEST SWAP3 SWAP2 POP POP JUMP JUMPDEST PUSH0 PUSH1 0x20 DUP3 ADD SWAP1 POP PUSH2 0x1024 PUSH0 DUP4 ADD DUP5 PUSH2 0xF2A JUMP JUMPDEST SWAP3 SWAP2 POP POP JUMP JUMPDEST PUSH32 0x496E76616C6964206F7065726174696F6E20636F646500000000000000000000 PUSH0 DUP3 ADD MSTORE POP JUMP JUMPDEST PUSH0 PUSH2 0x105E PUSH1 0x16 DUP4 PUSH2 0xC95 JUMP JUMPDEST SWAP2 POP PUSH2 0x1069 DUP3 PUSH2 0x102A JUMP JUMPDEST PUSH1 0x20 DUP3 ADD SWAP1 POP SWAP2 SWAP1 POP JUMP JUMPDEST PUSH0 PUSH1 0x20 DUP3 ADD SWAP1 POP DUP2 DUP2 SUB PUSH0 DUP4 ADD MSTORE PUSH2 0x108B DUP2 PUSH2 0x1052 JUMP JUMPDEST SWAP1 POP SWAP2 SWAP1 POP JUMP JUMPDEST PUSH32 0x496E646578206F7574206F6620626F756E647300000000000000000000000000 PUSH0 DUP3 ADD MSTORE POP JUMP JUMPDEST PUSH0 PUSH2 0x10C6 PUSH1 0x13 DUP4 PUSH2 0xC95 JUMP JUMPDEST SWAP2 POP PUSH2 0x10D1 DUP3 PUSH2 0x1092 JUMP JUMPDEST PUSH1 0x20 DUP3 ADD SWAP1 POP SWAP2 SWAP1 POP JUMP JUMPDEST PUSH0 PUSH1 0x20 DUP3 ADD SWAP1 POP DUP2 DUP2 SUB PUSH0 DUP4 ADD MSTORE PUSH2 0x10F3 DUP2 PUSH2 0x10BA JUMP JUMPDEST SWAP1 POP SWAP2 SWAP1 POP JUMP JUMPDEST PUSH32 0x4E487B7100000000000000000000000000000000000000000000000000000000 PUSH0 MSTORE PUSH1 0x32 PUSH1 0x4 MSTORE PUSH1 0x24 PUSH0 REVERT JUMPDEST PUSH32 0x496E76616C6964206F7065726174696F6E3A20557365203020666F72202B2C20 PUSH0 DUP3 ADD MSTORE PUSH32 0x3120666F72202D2C203220666F72202A2C203320666F72202F2C203420666F72 PUSH1 0x20 DUP3 ADD MSTORE PUSH32 0x2025000000000000000000000000000000000000000000000000000000000000 PUSH1 0x40 DUP3 ADD MSTORE POP JUMP JUMPDEST PUSH0 PUSH2 0x11A7 PUSH1 0x42 DUP4 PUSH2 0xC95 JUMP JUMPDEST SWAP2 POP PUSH2 0x11B2 DUP3 PUSH2 0x1127 JUMP JUMPDEST PUSH1 0x60 DUP3 ADD SWAP1 POP SWAP2 SWAP1 POP JUMP JUMPDEST PUSH0 PUSH1 0x20 DUP3 ADD SWAP1 POP DUP2 DUP2 SUB PUSH0 DUP4 ADD MSTORE PUSH2 0x11D4 DUP2 PUSH2 0x119B JUMP JUMPDEST SWAP1 POP SWAP2 SWAP1 POP JUMP JUMPDEST PUSH32 0x4E487B7100000000000000000000000000000000000000000000000000000000 PUSH0 MSTORE PUSH1 0x11 PUSH1 0x4 MSTORE PUSH1 0x24 PUSH0 REVERT JUMPDEST PUSH0 PUSH2 0x1212 DUP3 PUSH2 0xDFB JUMP JUMPDEST SWAP2 POP PUSH2 0x121D DUP4 PUSH2 0xDFB JUMP JUMPDEST SWAP3 POP DUP3 DUP3 ADD SWAP1 POP DUP3 DUP2 SLT ISZERO PUSH0 DUP4 SLT AND DUP4 DUP3 SLT PUSH0 DUP5 SLT ISZERO AND OR ISZERO PUSH2 0x1243 JUMPI PUSH2 0x1242 PUSH2 0x11DB JUMP JUMPDEST JUMPDEST SWAP3 SWAP2 POP POP JUMP JUMPDEST PUSH0 PUSH2 0x1253 DUP3 PUSH2 0xDFB JUMP JUMPDEST SWAP2 POP PUSH2 0x125E DUP4 PUSH2 0xDFB JUMP JUMPDEST SWAP3 POP DUP3 DUP3 SUB SWAP1 POP DUP2 DUP2 SLT PUSH0 DUP5 SLT AND DUP3 DUP3 SGT PUSH0 DUP6 SLT ISZERO AND OR ISZERO PUSH2 0x1283 JUMPI PUSH2 0x1282 PUSH2 0x11DB JUMP JUMPDEST JUMPDEST SWAP3 SWAP2 POP POP JUMP JUMPDEST PUSH0 PUSH2 0x1293 DUP3 PUSH2 0xDFB JUMP JUMPDEST SWAP2 POP PUSH2 0x129E DUP4 PUSH2 0xDFB JUMP JUMPDEST SWAP3 POP DUP3 DUP3 MUL PUSH2 0x12AC DUP2 PUSH2 0xDFB JUMP JUMPDEST SWAP2 POP PUSH32 0x8000000000000000000000000000000000000000000000000000000000000000 DUP5 EQ PUSH0 DUP5 SLT AND ISZERO PUSH2 0x12E3 JUMPI PUSH2 0x12E2 PUSH2 0x11DB JUMP JUMPDEST JUMPDEST DUP3 DUP3 SDIV DUP5 EQ DUP4 ISZERO OR PUSH2 0x12F8 JUMPI PUSH2 0x12F7 PUSH2 0x11DB JUMP JUMPDEST JUMPDEST POP SWAP3 SWAP2 POP POP JUMP JUMPDEST PUSH32 0x4469766973696F6E206279207A65726F00000000000000000000000000000000 PUSH0 DUP3 ADD MSTORE POP JUMP JUMPDEST PUSH0 PUSH2 0x1333 PUSH1 0x10 DUP4 PUSH2 0xC95 JUMP JUMPDEST SWAP2 POP PUSH2 0x133E DUP3 PUSH2 0x12FF JUMP JUMPDEST PUSH1 0x20 DUP3 ADD SWAP1 POP SWAP2 SWAP1 POP JUMP JUMPDEST PUSH0 PUSH1 0x20 DUP3 ADD SWAP1 POP DUP2 DUP2 SUB PUSH0 DUP4 ADD MSTORE PUSH2 0x1360 DUP2 PUSH2 0x1327 JUMP JUMPDEST SWAP1 POP SWAP2 SWAP1 POP JUMP JUMPDEST PUSH32 0x4E487B7100000000000000000000000000000000000000000000000000000000 PUSH0 MSTORE PUSH1 0x12 PUSH1 0x4 MSTORE PUSH1 0x24 PUSH0 REVERT JUMPDEST PUSH0 PUSH2 0x139E DUP3 PUSH2 0xDFB JUMP JUMPDEST SWAP2 POP PUSH2 0x13A9 DUP4 PUSH2 0xDFB JUMP JUMPDEST SWAP3 POP DUP3 PUSH2 0x13B9 JUMPI PUSH2 0x13B8 PUSH2 0x1367 JUMP JUMPDEST JUMPDEST PUSH1 0x1 PUSH0 SUB DUP4 EQ PUSH32 0x8000000000000000000000000000000000000000000000000000000000000000 DUP4 EQ AND ISZERO PUSH2 0x13F1 JUMPI PUSH2 0x13F0 PUSH2 0x11DB JUMP JUMPDEST JUMPDEST DUP3 DUP3 SDIV SWAP1 POP SWAP3 SWAP2 POP POP JUMP JUMPDEST PUSH32 0x4D6F64756C6F206279207A65726F000000000000000000000000000000000000 PUSH0 DUP3 ADD MSTORE POP JUMP JUMPDEST PUSH0 PUSH2 0x1430 PUSH1 0xE DUP4 PUSH2 0xC95 JUMP JUMPDEST SWAP2 POP PUSH2 0x143B DUP3 PUSH2 0x13FC JUMP JUMPDEST PUSH1 0x20 DUP3 ADD SWAP1 POP SWAP2 SWAP1 POP JUMP JUMPDEST PUSH0 PUSH1 0x20 DUP3 ADD SWAP1 POP DUP2 DUP2 SUB PUSH0 DUP4 ADD MSTORE PUSH2 0x145D DUP2 PUSH2 0x1424 JUMP JUMPDEST SWAP1 POP SWAP2 SWAP1 POP JUMP JUMPDEST PUSH0 PUSH2 0x146E DUP3 PUSH2 0xDFB JUMP JUMPDEST SWAP2 POP PUSH2 0x1479 DUP4 PUSH2 0xDFB JUMP JUMPDEST SWAP3 POP DUP3 PUSH2 0x1489 JUMPI PUSH2 0x1488 PUSH2 0x1367 JUMP JUMPDEST JUMPDEST DUP3 DUP3 SMOD SWAP1 POP SWAP3 SWAP2 POP POP JUMP JUMPDEST PUSH0 PUSH1 0x80 DUP3 ADD SWAP1 POP PUSH2 0x14A7 PUSH0 DUP4 ADD DUP8 PUSH2 0xF2A JUMP JUMPDEST PUSH2 0x14B4 PUSH1 0x20 DUP4 ADD DUP7 PUSH2 0xF2A JUMP JUMPDEST PUSH2 0x14C1 PUSH1 0x40 DUP4 ADD DUP6 PUSH2 0xF39 JUMP JUMPDEST PUSH2 0x14CE PUSH1 0x60 DUP4 ADD DUP5 PUSH2 0xF48 JUMP JUMPDEST SWAP6 SWAP5 POP POP POP POP POP JUMP JUMPDEST PUSH32 0x556E6578706563746564206572726F7200000000000000000000000000000000 PUSH0 DUP3 ADD MSTORE POP JUMP JUMPDEST PUSH0 PUSH2 0x150B PUSH1 0x10 DUP4 PUSH2 0xC95 JUMP JUMPDEST SWAP2 POP PUSH2 0x1516 DUP3 PUSH2 0x14D7 JUMP JUMPDEST PUSH1 0x20 DUP3 ADD SWAP1 POP SWAP2 SWAP1 POP JUMP JUMPDEST PUSH0 PUSH1 0x20 DUP3 ADD SWAP1 POP DUP2 DUP2 SUB PUSH0 DUP4 ADD MSTORE PUSH2 0x1538 DUP2 PUSH2 0x14FF JUMP JUMPDEST SWAP1 POP SWAP2 SWAP1 POP JUMP INVALID LOG2 PUSH5 0x6970667358 0x22 SLT KECCAK256 DUP15 NOT PUSH15 0x158CCFB35945DE67ED7E062B3CA8CB ADDRESS 0x2B CREATE 0x2C 0x4F MUL JUMPI 0xD5 SWAP16 EXTCODEHASH PUSH30 0xE7C1E764736F6C634300081A003300000000000000000000000000000000 "
				},
				"gasEstimates": {
					"creation": {
						"codeDepositCost": "1098600",
						"executionCost": "1138",
						"totalCost": "1099738"
					},
					"external": {
						"calculate(uint256,uint256,uint8)": "infinite",
						"calculationHistory(address,uint256)": "infinite",
						"clearCalculationHistory()": "infinite",
						"getCalculationCount()": "2571",
						"getCalculationFromHistory(uint256)": "infinite",
						"getCalculationResult(uint256,uint256,uint8)": "infinite",
						"getOperationName(uint8)": "infinite"
					}
				},
				"methodIdentifiers": {
					"calculate(uint256,uint256,uint8)": "a73370f5",
					"calculationHistory(address,uint256)": "8ccf4695",
					"clearCalculationHistory()": "a341a451",
					"getCalculationCount()": "acd4293c",
					"getCalculationFromHistory(uint256)": "325c946a",
					"getCalculationResult(uint256,uint256,uint8)": "c445bbce",
					"getOperationName(uint8)": "0dbe3a39"
				}
			},
			"storageLayout": {
				"storage": [
					{
						"astId": 24,
						"contract": "Day-02/D2P5.sol:SimpleCalculator",
						"label": "calculationHistory",
						"offset": 0,
						"slot": "0",
						"type": "t_mapping(t_address,t_array(t_struct(Calculation)36_storage)dyn_storage)"
					}
				],
				"types": {
					"t_address": {
						"encoding": "inplace",
						"label": "address",
						"numberOfBytes": "20"
					},
					"t_array(t_struct(Calculation)36_storage)dyn_storage": {
						"base": "t_struct(Calculation)36_storage",
						"encoding": "dynamic_array",
						"label": "struct SimpleCalculator.Calculation[]",
						"numberOfBytes": "32"
					},
					"t_enum(Operation)7": {
						"encoding": "inplace",
						"label": "enum SimpleCalculator.Operation",
						"numberOfBytes": "1"
					},
					"t_int256": {
						"encoding": "inplace",
						"label": "int256",
						"numberOfBytes": "32"
					},
					"t_mapping(t_address,t_array(t_struct(Calculation)36_storage)dyn_storage)": {
						"encoding": "mapping",
						"key": "t_address",
						"label": "mapping(address => struct SimpleCalculator.Calculation[])",
						"numberOfBytes": "32",
						"value": "t_array(t_struct(Calculation)36_storage)dyn_storage"
					},
					"t_struct(Calculation)36_storage": {
						"encoding": "inplace",
						"label": "struct SimpleCalculator.Calculation",
						"members": [
							{
								"astId": 26,
								"contract": "Day-02/D2P5.sol:SimpleCalculator",
								"label": "timestamp",
								"offset": 0,
								"slot": "0",
								"type": "t_uint256"
							},
							{
								"astId": 28,
								"contract": "Day-02/D2P5.sol:SimpleCalculator",
								"label": "num1",
								"offset": 0,
								"slot": "1",
								"type": "t_uint256"
							},
							{
								"astId": 30,
								"contract": "Day-02/D2P5.sol:SimpleCalculator",
								"label": "num2",
								"offset": 0,
								"slot": "2",
								"type": "t_uint256"
							},
							{
								"astId": 33,
								"contract": "Day-02/D2P5.sol:SimpleCalculator",
								"label": "operation",
								"offset": 0,
								"slot": "3",
								"type": "t_enum(Operation)7"
							},
							{
								"astId": 35,
								"contract": "Day-02/D2P5.sol:SimpleCalculator",
								"label": "result",
								"offset": 0,
								"slot": "4",
								"type": "t_int256"
							}
						],
						"numberOfBytes": "160"
					},
					"t_uint256": {
						"encoding": "inplace",
						"label": "uint256",
						"numberOfBytes": "32"
					}
				}
			},
			"userdoc": {
				"kind": "user",
				"methods": {},
				"version": 1
			}
		}
	}
}