{
	"Day-09/D9P3.sol": {
		"MainContract": {
			"abi": [
				{
					"inputs": [
						{
							"internalType": "uint256",
							"name": "_side",
							"type": "uint256"
						},
						{
							"internalType": "uint256",
							"name": "_radiusCyl",
							"type": "uint256"
						},
						{
							"internalType": "uint256",
							"name": "_heightCyl",
							"type": "uint256"
						},
						{
							"internalType": "uint256",
							"name": "_radiusCone",
							"type": "uint256"
						},
						{
							"internalType": "uint256",
							"name": "_heightCone",
							"type": "uint256"
						},
						{
							"internalType": "uint256",
							"name": "_slantHeightCone",
							"type": "uint256"
						}
					],
					"stateMutability": "nonpayable",
					"type": "constructor"
				},
				{
					"inputs": [],
					"name": "cone",
					"outputs": [
						{
							"internalType": "contract Cone",
							"name": "",
							"type": "address"
						}
					],
					"stateMutability": "view",
					"type": "function"
				},
				{
					"inputs": [],
					"name": "cube",
					"outputs": [
						{
							"internalType": "contract Cube",
							"name": "",
							"type": "address"
						}
					],
					"stateMutability": "view",
					"type": "function"
				},
				{
					"inputs": [],
					"name": "cylinder",
					"outputs": [
						{
							"internalType": "contract Cylinder",
							"name": "",
							"type": "address"
						}
					],
					"stateMutability": "view",
					"type": "function"
				},
				{
					"inputs": [],
					"name": "getSurfaceAreas",
					"outputs": [
						{
							"internalType": "uint256",
							"name": "",
							"type": "uint256"
						},
						{
							"internalType": "uint256",
							"name": "",
							"type": "uint256"
						},
						{
							"internalType": "uint256",
							"name": "",
							"type": "uint256"
						}
					],
					"stateMutability": "view",
					"type": "function"
				},
				{
					"inputs": [],
					"name": "getVolumes",
					"outputs": [
						{
							"internalType": "uint256",
							"name": "",
							"type": "uint256"
						},
						{
							"internalType": "uint256",
							"name": "",
							"type": "uint256"
						},
						{
							"internalType": "uint256",
							"name": "",
							"type": "uint256"
						}
					],
					"stateMutability": "view",
					"type": "function"
				}
			],
			"devdoc": {
				"kind": "dev",
				"methods": {},
				"version": 1
			},
			"evm": {
				"assembly": "    /* \"Day-09/D9P3.sol\":1994:2693  contract MainContract {... */\n  mstore(0x40, 0x80)\n    /* \"Day-09/D9P3.sol\":2100:2386  constructor(uint _side, uint _radiusCyl, uint _heightCyl, uint _radiusCone, uint _heightCone, uint _slantHeightCone) {... */\n  callvalue\n  dup1\n  iszero\n  tag_1\n  jumpi\n  0x00\n  dup1\n  revert\ntag_1:\n  pop\n  mload(0x40)\n  sub(codesize, bytecodeSize)\n  dup1\n  bytecodeSize\n  dup4\n  codecopy\n  dup2\n  dup2\n  add\n  0x40\n  mstore\n  dup2\n  add\n  swap1\n  tag_2\n  swap2\n  swap1\n  tag_3\n  jump\t// in\ntag_2:\n    /* \"Day-09/D9P3.sol\":2244:2249  _side */\n  dup6\n    /* \"Day-09/D9P3.sol\":2235:2250  new Cube(_side) */\n  mload(0x40)\n  tag_6\n  swap1\n  tag_7\n  jump\t// in\ntag_6:\n  tag_8\n  swap2\n  swap1\n  tag_9\n  jump\t// in\ntag_8:\n  mload(0x40)\n  dup1\n  swap2\n  sub\n  swap1\n  0x00\n  create\n  dup1\n  iszero\n  dup1\n  iszero\n  tag_10\n  jumpi\n  returndatasize\n  0x00\n  dup1\n  returndatacopy\n  revert(0x00, returndatasize)\ntag_10:\n  pop\n    /* \"Day-09/D9P3.sol\":2228:2232  cube */\n  0x00\n  dup1\n    /* \"Day-09/D9P3.sol\":2228:2250  cube = new Cube(_side) */\n  0x0100\n  exp\n  dup2\n  sload\n  dup2\n  0xffffffffffffffffffffffffffffffffffffffff\n  mul\n  not\n  and\n  swap1\n  dup4\n  0xffffffffffffffffffffffffffffffffffffffff\n  and\n  mul\n  or\n  swap1\n  sstore\n  pop\n    /* \"Day-09/D9P3.sol\":2285:2295  _radiusCyl */\n  dup5\n    /* \"Day-09/D9P3.sol\":2297:2307  _heightCyl */\n  dup5\n    /* \"Day-09/D9P3.sol\":2272:2308  new Cylinder(_radiusCyl, _heightCyl) */\n  mload(0x40)\n  tag_11\n  swap1\n  tag_12\n  jump\t// in\ntag_11:\n  tag_13\n  swap3\n  swap2\n  swap1\n  tag_14\n  jump\t// in\ntag_13:\n  mload(0x40)\n  dup1\n  swap2\n  sub\n  swap1\n  0x00\n  create\n  dup1\n  iszero\n  dup1\n  iszero\n  tag_15\n  jumpi\n  returndatasize\n  0x00\n  dup1\n  returndatacopy\n  revert(0x00, returndatasize)\ntag_15:\n  pop\n    /* \"Day-09/D9P3.sol\":2261:2269  cylinder */\n  0x01\n  0x00\n    /* \"Day-09/D9P3.sol\":2261:2308  cylinder = new Cylinder(_radiusCyl, _heightCyl) */\n  0x0100\n  exp\n  dup2\n  sload\n  dup2\n  0xffffffffffffffffffffffffffffffffffffffff\n  mul\n  not\n  and\n  swap1\n  dup4\n  0xffffffffffffffffffffffffffffffffffffffff\n  and\n  mul\n  or\n  swap1\n  sstore\n  pop\n    /* \"Day-09/D9P3.sol\":2335:2346  _radiusCone */\n  dup3\n    /* \"Day-09/D9P3.sol\":2348:2359  _heightCone */\n  dup3\n    /* \"Day-09/D9P3.sol\":2361:2377  _slantHeightCone */\n  dup3\n    /* \"Day-09/D9P3.sol\":2326:2378  new Cone(_radiusCone, _heightCone, _slantHeightCone) */\n  mload(0x40)\n  tag_16\n  swap1\n  tag_17\n  jump\t// in\ntag_16:\n  tag_18\n  swap4\n  swap3\n  swap2\n  swap1\n  tag_19\n  jump\t// in\ntag_18:\n  mload(0x40)\n  dup1\n  swap2\n  sub\n  swap1\n  0x00\n  create\n  dup1\n  iszero\n  dup1\n  iszero\n  tag_20\n  jumpi\n  returndatasize\n  0x00\n  dup1\n  returndatacopy\n  revert(0x00, returndatasize)\ntag_20:\n  pop\n    /* \"Day-09/D9P3.sol\":2319:2323  cone */\n  0x02\n  0x00\n    /* \"Day-09/D9P3.sol\":2319:2378  cone = new Cone(_radiusCone, _heightCone, _slantHeightCone) */\n  0x0100\n  exp\n  dup2\n  sload\n  dup2\n  0xffffffffffffffffffffffffffffffffffffffff\n  mul\n  not\n  and\n  swap1\n  dup4\n  0xffffffffffffffffffffffffffffffffffffffff\n  and\n  mul\n  or\n  swap1\n  sstore\n  pop\n    /* \"Day-09/D9P3.sol\":2100:2386  constructor(uint _side, uint _radiusCyl, uint _heightCyl, uint _radiusCone, uint _heightCone, uint _slantHeightCone) {... */\n  pop\n  pop\n  pop\n  pop\n  pop\n  pop\n    /* \"Day-09/D9P3.sol\":1994:2693  contract MainContract {... */\n  jump(tag_21)\ntag_7:\n  dataSize(sub_1)\n  dup1\n  dataOffset(sub_1)\n  dup4\n  codecopy\n  add\n  swap1\n  jump\t// out\ntag_12:\n  dataSize(sub_2)\n  dup1\n  dataOffset(sub_2)\n  dup4\n  codecopy\n  add\n  swap1\n  jump\t// out\ntag_17:\n  dataSize(sub_3)\n  dup1\n  dataOffset(sub_3)\n  dup4\n  codecopy\n  add\n  swap1\n  jump\t// out\n    /* \"#utility.yul\":88:205   */\ntag_23:\n    /* \"#utility.yul\":197:198   */\n  0x00\n    /* \"#utility.yul\":194:195   */\n  dup1\n    /* \"#utility.yul\":187:199   */\n  revert\n    /* \"#utility.yul\":334:411   */\ntag_25:\n    /* \"#utility.yul\":371:378   */\n  0x00\n    /* \"#utility.yul\":400:405   */\n  dup2\n    /* \"#utility.yul\":389:405   */\n  swap1\n  pop\n    /* \"#utility.yul\":334:411   */\n  swap2\n  swap1\n  pop\n  jump\t// out\n    /* \"#utility.yul\":417:539   */\ntag_26:\n    /* \"#utility.yul\":490:514   */\n  tag_35\n    /* \"#utility.yul\":508:513   */\n  dup2\n    /* \"#utility.yul\":490:514   */\n  tag_25\n  jump\t// in\ntag_35:\n    /* \"#utility.yul\":483:488   */\n  dup2\n    /* \"#utility.yul\":480:515   */\n  eq\n    /* \"#utility.yul\":470:533   */\n  tag_36\n  jumpi\n    /* \"#utility.yul\":529:530   */\n  0x00\n    /* \"#utility.yul\":526:527   */\n  dup1\n    /* \"#utility.yul\":519:531   */\n  revert\n    /* \"#utility.yul\":470:533   */\ntag_36:\n    /* \"#utility.yul\":417:539   */\n  pop\n  jump\t// out\n    /* \"#utility.yul\":545:688   */\ntag_27:\n    /* \"#utility.yul\":602:607   */\n  0x00\n    /* \"#utility.yul\":633:639   */\n  dup2\n    /* \"#utility.yul\":627:640   */\n  mload\n    /* \"#utility.yul\":618:640   */\n  swap1\n  pop\n    /* \"#utility.yul\":649:682   */\n  tag_38\n    /* \"#utility.yul\":676:681   */\n  dup2\n    /* \"#utility.yul\":649:682   */\n  tag_26\n  jump\t// in\ntag_38:\n    /* \"#utility.yul\":545:688   */\n  swap3\n  swap2\n  pop\n  pop\n  jump\t// out\n    /* \"#utility.yul\":694:1828   */\ntag_3:\n    /* \"#utility.yul\":809:815   */\n  0x00\n    /* \"#utility.yul\":817:823   */\n  dup1\n    /* \"#utility.yul\":825:831   */\n  0x00\n    /* \"#utility.yul\":833:839   */\n  dup1\n    /* \"#utility.yul\":841:847   */\n  0x00\n    /* \"#utility.yul\":849:855   */\n  dup1\n    /* \"#utility.yul\":898:901   */\n  0xc0\n    /* \"#utility.yul\":886:895   */\n  dup8\n    /* \"#utility.yul\":877:884   */\n  dup10\n    /* \"#utility.yul\":873:896   */\n  sub\n    /* \"#utility.yul\":869:902   */\n  slt\n    /* \"#utility.yul\":866:986   */\n  iszero\n  tag_40\n  jumpi\n    /* \"#utility.yul\":905:984   */\n  tag_41\n  tag_23\n  jump\t// in\ntag_41:\n    /* \"#utility.yul\":866:986   */\ntag_40:\n    /* \"#utility.yul\":1025:1026   */\n  0x00\n    /* \"#utility.yul\":1050:1114   */\n  tag_42\n    /* \"#utility.yul\":1106:1113   */\n  dup10\n    /* \"#utility.yul\":1097:1103   */\n  dup3\n    /* \"#utility.yul\":1086:1095   */\n  dup11\n    /* \"#utility.yul\":1082:1104   */\n  add\n    /* \"#utility.yul\":1050:1114   */\n  tag_27\n  jump\t// in\ntag_42:\n    /* \"#utility.yul\":1040:1114   */\n  swap7\n  pop\n    /* \"#utility.yul\":996:1124   */\n  pop\n    /* \"#utility.yul\":1163:1165   */\n  0x20\n    /* \"#utility.yul\":1189:1253   */\n  tag_43\n    /* \"#utility.yul\":1245:1252   */\n  dup10\n    /* \"#utility.yul\":1236:1242   */\n  dup3\n    /* \"#utility.yul\":1225:1234   */\n  dup11\n    /* \"#utility.yul\":1221:1243   */\n  add\n    /* \"#utility.yul\":1189:1253   */\n  tag_27\n  jump\t// in\ntag_43:\n    /* \"#utility.yul\":1179:1253   */\n  swap6\n  pop\n    /* \"#utility.yul\":1134:1263   */\n  pop\n    /* \"#utility.yul\":1302:1304   */\n  0x40\n    /* \"#utility.yul\":1328:1392   */\n  tag_44\n    /* \"#utility.yul\":1384:1391   */\n  dup10\n    /* \"#utility.yul\":1375:1381   */\n  dup3\n    /* \"#utility.yul\":1364:1373   */\n  dup11\n    /* \"#utility.yul\":1360:1382   */\n  add\n    /* \"#utility.yul\":1328:1392   */\n  tag_27\n  jump\t// in\ntag_44:\n    /* \"#utility.yul\":1318:1392   */\n  swap5\n  pop\n    /* \"#utility.yul\":1273:1402   */\n  pop\n    /* \"#utility.yul\":1441:1443   */\n  0x60\n    /* \"#utility.yul\":1467:1531   */\n  tag_45\n    /* \"#utility.yul\":1523:1530   */\n  dup10\n    /* \"#utility.yul\":1514:1520   */\n  dup3\n    /* \"#utility.yul\":1503:1512   */\n  dup11\n    /* \"#utility.yul\":1499:1521   */\n  add\n    /* \"#utility.yul\":1467:1531   */\n  tag_27\n  jump\t// in\ntag_45:\n    /* \"#utility.yul\":1457:1531   */\n  swap4\n  pop\n    /* \"#utility.yul\":1412:1541   */\n  pop\n    /* \"#utility.yul\":1580:1583   */\n  0x80\n    /* \"#utility.yul\":1607:1671   */\n  tag_46\n    /* \"#utility.yul\":1663:1670   */\n  dup10\n    /* \"#utility.yul\":1654:1660   */\n  dup3\n    /* \"#utility.yul\":1643:1652   */\n  dup11\n    /* \"#utility.yul\":1639:1661   */\n  add\n    /* \"#utility.yul\":1607:1671   */\n  tag_27\n  jump\t// in\ntag_46:\n    /* \"#utility.yul\":1597:1671   */\n  swap3\n  pop\n    /* \"#utility.yul\":1551:1681   */\n  pop\n    /* \"#utility.yul\":1720:1723   */\n  0xa0\n    /* \"#utility.yul\":1747:1811   */\n  tag_47\n    /* \"#utility.yul\":1803:1810   */\n  dup10\n    /* \"#utility.yul\":1794:1800   */\n  dup3\n    /* \"#utility.yul\":1783:1792   */\n  dup11\n    /* \"#utility.yul\":1779:1801   */\n  add\n    /* \"#utility.yul\":1747:1811   */\n  tag_27\n  jump\t// in\ntag_47:\n    /* \"#utility.yul\":1737:1811   */\n  swap2\n  pop\n    /* \"#utility.yul\":1691:1821   */\n  pop\n    /* \"#utility.yul\":694:1828   */\n  swap3\n  swap6\n  pop\n  swap3\n  swap6\n  pop\n  swap3\n  swap6\n  jump\t// out\n    /* \"#utility.yul\":1834:1952   */\ntag_28:\n    /* \"#utility.yul\":1921:1945   */\n  tag_49\n    /* \"#utility.yul\":1939:1944   */\n  dup2\n    /* \"#utility.yul\":1921:1945   */\n  tag_25\n  jump\t// in\ntag_49:\n    /* \"#utility.yul\":1916:1919   */\n  dup3\n    /* \"#utility.yul\":1909:1946   */\n  mstore\n    /* \"#utility.yul\":1834:1952   */\n  pop\n  pop\n  jump\t// out\n    /* \"#utility.yul\":1958:2180   */\ntag_9:\n    /* \"#utility.yul\":2051:2055   */\n  0x00\n    /* \"#utility.yul\":2089:2091   */\n  0x20\n    /* \"#utility.yul\":2078:2087   */\n  dup3\n    /* \"#utility.yul\":2074:2092   */\n  add\n    /* \"#utility.yul\":2066:2092   */\n  swap1\n  pop\n    /* \"#utility.yul\":2102:2173   */\n  tag_51\n    /* \"#utility.yul\":2170:2171   */\n  0x00\n    /* \"#utility.yul\":2159:2168   */\n  dup4\n    /* \"#utility.yul\":2155:2172   */\n  add\n    /* \"#utility.yul\":2146:2152   */\n  dup5\n    /* \"#utility.yul\":2102:2173   */\n  tag_28\n  jump\t// in\ntag_51:\n    /* \"#utility.yul\":1958:2180   */\n  swap3\n  swap2\n  pop\n  pop\n  jump\t// out\n    /* \"#utility.yul\":2186:2518   */\ntag_14:\n    /* \"#utility.yul\":2307:2311   */\n  0x00\n    /* \"#utility.yul\":2345:2347   */\n  0x40\n    /* \"#utility.yul\":2334:2343   */\n  dup3\n    /* \"#utility.yul\":2330:2348   */\n  add\n    /* \"#utility.yul\":2322:2348   */\n  swap1\n  pop\n    /* \"#utility.yul\":2358:2429   */\n  tag_53\n    /* \"#utility.yul\":2426:2427   */\n  0x00\n    /* \"#utility.yul\":2415:2424   */\n  dup4\n    /* \"#utility.yul\":2411:2428   */\n  add\n    /* \"#utility.yul\":2402:2408   */\n  dup6\n    /* \"#utility.yul\":2358:2429   */\n  tag_28\n  jump\t// in\ntag_53:\n    /* \"#utility.yul\":2439:2511   */\n  tag_54\n    /* \"#utility.yul\":2507:2509   */\n  0x20\n    /* \"#utility.yul\":2496:2505   */\n  dup4\n    /* \"#utility.yul\":2492:2510   */\n  add\n    /* \"#utility.yul\":2483:2489   */\n  dup5\n    /* \"#utility.yul\":2439:2511   */\n  tag_28\n  jump\t// in\ntag_54:\n    /* \"#utility.yul\":2186:2518   */\n  swap4\n  swap3\n  pop\n  pop\n  pop\n  jump\t// out\n    /* \"#utility.yul\":2524:2966   */\ntag_19:\n    /* \"#utility.yul\":2673:2677   */\n  0x00\n    /* \"#utility.yul\":2711:2713   */\n  0x60\n    /* \"#utility.yul\":2700:2709   */\n  dup3\n    /* \"#utility.yul\":2696:2714   */\n  add\n    /* \"#utility.yul\":2688:2714   */\n  swap1\n  pop\n    /* \"#utility.yul\":2724:2795   */\n  tag_56\n    /* \"#utility.yul\":2792:2793   */\n  0x00\n    /* \"#utility.yul\":2781:2790   */\n  dup4\n    /* \"#utility.yul\":2777:2794   */\n  add\n    /* \"#utility.yul\":2768:2774   */\n  dup7\n    /* \"#utility.yul\":2724:2795   */\n  tag_28\n  jump\t// in\ntag_56:\n    /* \"#utility.yul\":2805:2877   */\n  tag_57\n    /* \"#utility.yul\":2873:2875   */\n  0x20\n    /* \"#utility.yul\":2862:2871   */\n  dup4\n    /* \"#utility.yul\":2858:2876   */\n  add\n    /* \"#utility.yul\":2849:2855   */\n  dup6\n    /* \"#utility.yul\":2805:2877   */\n  tag_28\n  jump\t// in\ntag_57:\n    /* \"#utility.yul\":2887:2959   */\n  tag_58\n    /* \"#utility.yul\":2955:2957   */\n  0x40\n    /* \"#utility.yul\":2944:2953   */\n  dup4\n    /* \"#utility.yul\":2940:2958   */\n  add\n    /* \"#utility.yul\":2931:2937   */\n  dup5\n    /* \"#utility.yul\":2887:2959   */\n  tag_28\n  jump\t// in\ntag_58:\n    /* \"#utility.yul\":2524:2966   */\n  swap5\n  swap4\n  pop\n  pop\n  pop\n  pop\n  jump\t// out\n    /* \"Day-09/D9P3.sol\":1994:2693  contract MainContract {... */\ntag_21:\n  dataSize(sub_0)\n  dup1\n  dataOffset(sub_0)\n  0x00\n  codecopy\n  0x00\n  return\nstop\n\nsub_0: assembly {\n        /* \"Day-09/D9P3.sol\":1994:2693  contract MainContract {... */\n      mstore(0x40, 0x80)\n      callvalue\n      dup1\n      iszero\n      tag_1\n      jumpi\n      0x00\n      dup1\n      revert\n    tag_1:\n      pop\n      jumpi(tag_2, lt(calldatasize, 0x04))\n      shr(0xe0, calldataload(0x00))\n      dup1\n      0x5c771211\n      eq\n      tag_3\n      jumpi\n      dup1\n      0xa312363a\n      eq\n      tag_4\n      jumpi\n      dup1\n      0xa35e7d29\n      eq\n      tag_5\n      jumpi\n      dup1\n      0xcefb865a\n      eq\n      tag_6\n      jumpi\n      dup1\n      0xe07db016\n      eq\n      tag_7\n      jumpi\n    tag_2:\n      0x00\n      dup1\n      revert\n        /* \"Day-09/D9P3.sol\":2023:2039  Cube public cube */\n    tag_3:\n      tag_8\n      tag_9\n      jump\t// in\n    tag_8:\n      mload(0x40)\n      tag_10\n      swap2\n      swap1\n      tag_11\n      jump\t// in\n    tag_10:\n      mload(0x40)\n      dup1\n      swap2\n      sub\n      swap1\n      return\n        /* \"Day-09/D9P3.sol\":2077:2093  Cone public cone */\n    tag_4:\n      tag_12\n      tag_13\n      jump\t// in\n    tag_12:\n      mload(0x40)\n      tag_14\n      swap2\n      swap1\n      tag_15\n      jump\t// in\n    tag_14:\n      mload(0x40)\n      dup1\n      swap2\n      sub\n      swap1\n      return\n        /* \"Day-09/D9P3.sol\":2046:2070  Cylinder public cylinder */\n    tag_5:\n      tag_16\n      tag_17\n      jump\t// in\n    tag_16:\n      mload(0x40)\n      tag_18\n      swap2\n      swap1\n      tag_19\n      jump\t// in\n    tag_18:\n      mload(0x40)\n      dup1\n      swap2\n      sub\n      swap1\n      return\n        /* \"Day-09/D9P3.sol\":2554:2690  function getVolumes() public view returns (uint, uint, uint) {... */\n    tag_6:\n      tag_20\n      tag_21\n      jump\t// in\n    tag_20:\n      mload(0x40)\n      tag_22\n      swap4\n      swap3\n      swap2\n      swap1\n      tag_23\n      jump\t// in\n    tag_22:\n      mload(0x40)\n      dup1\n      swap2\n      sub\n      swap1\n      return\n        /* \"Day-09/D9P3.sol\":2392:2548  function getSurfaceAreas() public view returns (uint, uint, uint) {... */\n    tag_7:\n      tag_24\n      tag_25\n      jump\t// in\n    tag_24:\n      mload(0x40)\n      tag_26\n      swap4\n      swap3\n      swap2\n      swap1\n      tag_23\n      jump\t// in\n    tag_26:\n      mload(0x40)\n      dup1\n      swap2\n      sub\n      swap1\n      return\n        /* \"Day-09/D9P3.sol\":2023:2039  Cube public cube */\n    tag_9:\n      0x00\n      dup1\n      sload\n      swap1\n      0x0100\n      exp\n      swap1\n      div\n      0xffffffffffffffffffffffffffffffffffffffff\n      and\n      dup2\n      jump\t// out\n        /* \"Day-09/D9P3.sol\":2077:2093  Cone public cone */\n    tag_13:\n      0x02\n      0x00\n      swap1\n      sload\n      swap1\n      0x0100\n      exp\n      swap1\n      div\n      0xffffffffffffffffffffffffffffffffffffffff\n      and\n      dup2\n      jump\t// out\n        /* \"Day-09/D9P3.sol\":2046:2070  Cylinder public cylinder */\n    tag_17:\n      0x01\n      0x00\n      swap1\n      sload\n      swap1\n      0x0100\n      exp\n      swap1\n      div\n      0xffffffffffffffffffffffffffffffffffffffff\n      and\n      dup2\n      jump\t// out\n        /* \"Day-09/D9P3.sol\":2554:2690  function getVolumes() public view returns (uint, uint, uint) {... */\n    tag_21:\n        /* \"Day-09/D9P3.sol\":2597:2601  uint */\n      0x00\n        /* \"Day-09/D9P3.sol\":2603:2607  uint */\n      dup1\n        /* \"Day-09/D9P3.sol\":2609:2613  uint */\n      0x00\n        /* \"Day-09/D9P3.sol\":2634:2638  cube */\n      dup1\n      0x00\n      swap1\n      sload\n      swap1\n      0x0100\n      exp\n      swap1\n      div\n      0xffffffffffffffffffffffffffffffffffffffff\n      and\n        /* \"Day-09/D9P3.sol\":2634:2645  cube.volume */\n      0xffffffffffffffffffffffffffffffffffffffff\n      and\n      0xc618a1e4\n        /* \"Day-09/D9P3.sol\":2634:2647  cube.volume() */\n      mload(0x40)\n      dup2\n      0xffffffff\n      and\n      0xe0\n      shl\n      dup2\n      mstore\n      0x04\n      add\n      0x20\n      mload(0x40)\n      dup1\n      dup4\n      sub\n      dup2\n      dup7\n      gas\n      staticcall\n      iszero\n      dup1\n      iszero\n      tag_29\n      jumpi\n      returndatasize\n      0x00\n      dup1\n      returndatacopy\n      revert(0x00, returndatasize)\n    tag_29:\n      pop\n      pop\n      pop\n      pop\n      mload(0x40)\n      returndatasize\n      not(0x1f)\n      0x1f\n      dup3\n      add\n      and\n      dup3\n      add\n      dup1\n      0x40\n      mstore\n      pop\n      dup2\n      add\n      swap1\n      tag_30\n      swap2\n      swap1\n      tag_31\n      jump\t// in\n    tag_30:\n        /* \"Day-09/D9P3.sol\":2649:2657  cylinder */\n      0x01\n      0x00\n      swap1\n      sload\n      swap1\n      0x0100\n      exp\n      swap1\n      div\n      0xffffffffffffffffffffffffffffffffffffffff\n      and\n        /* \"Day-09/D9P3.sol\":2649:2664  cylinder.volume */\n      0xffffffffffffffffffffffffffffffffffffffff\n      and\n      0xc618a1e4\n        /* \"Day-09/D9P3.sol\":2649:2666  cylinder.volume() */\n      mload(0x40)\n      dup2\n      0xffffffff\n      and\n      0xe0\n      shl\n      dup2\n      mstore\n      0x04\n      add\n      0x20\n      mload(0x40)\n      dup1\n      dup4\n      sub\n      dup2\n      dup7\n      gas\n      staticcall\n      iszero\n      dup1\n      iszero\n      tag_33\n      jumpi\n      returndatasize\n      0x00\n      dup1\n      returndatacopy\n      revert(0x00, returndatasize)\n    tag_33:\n      pop\n      pop\n      pop\n      pop\n      mload(0x40)\n      returndatasize\n      not(0x1f)\n      0x1f\n      dup3\n      add\n      and\n      dup3\n      add\n      dup1\n      0x40\n      mstore\n      pop\n      dup2\n      add\n      swap1\n      tag_34\n      swap2\n      swap1\n      tag_31\n      jump\t// in\n    tag_34:\n        /* \"Day-09/D9P3.sol\":2668:2672  cone */\n      0x02\n      0x00\n      swap1\n      sload\n      swap1\n      0x0100\n      exp\n      swap1\n      div\n      0xffffffffffffffffffffffffffffffffffffffff\n      and\n        /* \"Day-09/D9P3.sol\":2668:2679  cone.volume */\n      0xffffffffffffffffffffffffffffffffffffffff\n      and\n      0xc618a1e4\n        /* \"Day-09/D9P3.sol\":2668:2681  cone.volume() */\n      mload(0x40)\n      dup2\n      0xffffffff\n      and\n      0xe0\n      shl\n      dup2\n      mstore\n      0x04\n      add\n      0x20\n      mload(0x40)\n      dup1\n      dup4\n      sub\n      dup2\n      dup7\n      gas\n      staticcall\n      iszero\n      dup1\n      iszero\n      tag_36\n      jumpi\n      returndatasize\n      0x00\n      dup1\n      returndatacopy\n      revert(0x00, returndatasize)\n    tag_36:\n      pop\n      pop\n      pop\n      pop\n      mload(0x40)\n      returndatasize\n      not(0x1f)\n      0x1f\n      dup3\n      add\n      and\n      dup3\n      add\n      dup1\n      0x40\n      mstore\n      pop\n      dup2\n      add\n      swap1\n      tag_37\n      swap2\n      swap1\n      tag_31\n      jump\t// in\n    tag_37:\n        /* \"Day-09/D9P3.sol\":2626:2682  return (cube.volume(), cylinder.volume(), cone.volume()) */\n      swap3\n      pop\n      swap3\n      pop\n      swap3\n      pop\n        /* \"Day-09/D9P3.sol\":2554:2690  function getVolumes() public view returns (uint, uint, uint) {... */\n      swap1\n      swap2\n      swap3\n      jump\t// out\n        /* \"Day-09/D9P3.sol\":2392:2548  function getSurfaceAreas() public view returns (uint, uint, uint) {... */\n    tag_25:\n        /* \"Day-09/D9P3.sol\":2440:2444  uint */\n      0x00\n        /* \"Day-09/D9P3.sol\":2446:2450  uint */\n      dup1\n        /* \"Day-09/D9P3.sol\":2452:2456  uint */\n      0x00\n        /* \"Day-09/D9P3.sol\":2477:2481  cube */\n      dup1\n      0x00\n      swap1\n      sload\n      swap1\n      0x0100\n      exp\n      swap1\n      div\n      0xffffffffffffffffffffffffffffffffffffffff\n      and\n        /* \"Day-09/D9P3.sol\":2477:2493  cube.surfaceArea */\n      0xffffffffffffffffffffffffffffffffffffffff\n      and\n      0x89e7995f\n        /* \"Day-09/D9P3.sol\":2477:2495  cube.surfaceArea() */\n      mload(0x40)\n      dup2\n      0xffffffff\n      and\n      0xe0\n      shl\n      dup2\n      mstore\n      0x04\n      add\n      0x20\n      mload(0x40)\n      dup1\n      dup4\n      sub\n      dup2\n      dup7\n      gas\n      staticcall\n      iszero\n      dup1\n      iszero\n      tag_40\n      jumpi\n      returndatasize\n      0x00\n      dup1\n      returndatacopy\n      revert(0x00, returndatasize)\n    tag_40:\n      pop\n      pop\n      pop\n      pop\n      mload(0x40)\n      returndatasize\n      not(0x1f)\n      0x1f\n      dup3\n      add\n      and\n      dup3\n      add\n      dup1\n      0x40\n      mstore\n      pop\n      dup2\n      add\n      swap1\n      tag_41\n      swap2\n      swap1\n      tag_31\n      jump\t// in\n    tag_41:\n        /* \"Day-09/D9P3.sol\":2497:2505  cylinder */\n      0x01\n      0x00\n      swap1\n      sload\n      swap1\n      0x0100\n      exp\n      swap1\n      div\n      0xffffffffffffffffffffffffffffffffffffffff\n      and\n        /* \"Day-09/D9P3.sol\":2497:2517  cylinder.surfaceArea */\n      0xffffffffffffffffffffffffffffffffffffffff\n      and\n      0x89e7995f\n        /* \"Day-09/D9P3.sol\":2497:2519  cylinder.surfaceArea() */\n      mload(0x40)\n      dup2\n      0xffffffff\n      and\n      0xe0\n      shl\n      dup2\n      mstore\n      0x04\n      add\n      0x20\n      mload(0x40)\n      dup1\n      dup4\n      sub\n      dup2\n      dup7\n      gas\n      staticcall\n      iszero\n      dup1\n      iszero\n      tag_43\n      jumpi\n      returndatasize\n      0x00\n      dup1\n      returndatacopy\n      revert(0x00, returndatasize)\n    tag_43:\n      pop\n      pop\n      pop\n      pop\n      mload(0x40)\n      returndatasize\n      not(0x1f)\n      0x1f\n      dup3\n      add\n      and\n      dup3\n      add\n      dup1\n      0x40\n      mstore\n      pop\n      dup2\n      add\n      swap1\n      tag_44\n      swap2\n      swap1\n      tag_31\n      jump\t// in\n    tag_44:\n        /* \"Day-09/D9P3.sol\":2521:2525  cone */\n      0x02\n      0x00\n      swap1\n      sload\n      swap1\n      0x0100\n      exp\n      swap1\n      div\n      0xffffffffffffffffffffffffffffffffffffffff\n      and\n        /* \"Day-09/D9P3.sol\":2521:2537  cone.surfaceArea */\n      0xffffffffffffffffffffffffffffffffffffffff\n      and\n      0x89e7995f\n        /* \"Day-09/D9P3.sol\":2521:2539  cone.surfaceArea() */\n      mload(0x40)\n      dup2\n      0xffffffff\n      and\n      0xe0\n      shl\n      dup2\n      mstore\n      0x04\n      add\n      0x20\n      mload(0x40)\n      dup1\n      dup4\n      sub\n      dup2\n      dup7\n      gas\n      staticcall\n      iszero\n      dup1\n      iszero\n      tag_46\n      jumpi\n      returndatasize\n      0x00\n      dup1\n      returndatacopy\n      revert(0x00, returndatasize)\n    tag_46:\n      pop\n      pop\n      pop\n      pop\n      mload(0x40)\n      returndatasize\n      not(0x1f)\n      0x1f\n      dup3\n      add\n      and\n      dup3\n      add\n      dup1\n      0x40\n      mstore\n      pop\n      dup2\n      add\n      swap1\n      tag_47\n      swap2\n      swap1\n      tag_31\n      jump\t// in\n    tag_47:\n        /* \"Day-09/D9P3.sol\":2469:2540  return (cube.surfaceArea(), cylinder.surfaceArea(), cone.surfaceArea()) */\n      swap3\n      pop\n      swap3\n      pop\n      swap3\n      pop\n        /* \"Day-09/D9P3.sol\":2392:2548  function getSurfaceAreas() public view returns (uint, uint, uint) {... */\n      swap1\n      swap2\n      swap3\n      jump\t// out\n        /* \"#utility.yul\":7:133   */\n    tag_48:\n        /* \"#utility.yul\":44:51   */\n      0x00\n        /* \"#utility.yul\":84:126   */\n      0xffffffffffffffffffffffffffffffffffffffff\n        /* \"#utility.yul\":77:82   */\n      dup3\n        /* \"#utility.yul\":73:127   */\n      and\n        /* \"#utility.yul\":62:127   */\n      swap1\n      pop\n        /* \"#utility.yul\":7:133   */\n      swap2\n      swap1\n      pop\n      jump\t// out\n        /* \"#utility.yul\":139:199   */\n    tag_49:\n        /* \"#utility.yul\":167:170   */\n      0x00\n        /* \"#utility.yul\":188:193   */\n      dup2\n        /* \"#utility.yul\":181:193   */\n      swap1\n      pop\n        /* \"#utility.yul\":139:199   */\n      swap2\n      swap1\n      pop\n      jump\t// out\n        /* \"#utility.yul\":205:347   */\n    tag_50:\n        /* \"#utility.yul\":255:264   */\n      0x00\n        /* \"#utility.yul\":288:341   */\n      tag_69\n        /* \"#utility.yul\":306:340   */\n      tag_70\n        /* \"#utility.yul\":315:339   */\n      tag_71\n        /* \"#utility.yul\":333:338   */\n      dup5\n        /* \"#utility.yul\":315:339   */\n      tag_48\n      jump\t// in\n    tag_71:\n        /* \"#utility.yul\":306:340   */\n      tag_49\n      jump\t// in\n    tag_70:\n        /* \"#utility.yul\":288:341   */\n      tag_48\n      jump\t// in\n    tag_69:\n        /* \"#utility.yul\":275:341   */\n      swap1\n      pop\n        /* \"#utility.yul\":205:347   */\n      swap2\n      swap1\n      pop\n      jump\t// out\n        /* \"#utility.yul\":353:479   */\n    tag_51:\n        /* \"#utility.yul\":403:412   */\n      0x00\n        /* \"#utility.yul\":436:473   */\n      tag_73\n        /* \"#utility.yul\":467:472   */\n      dup3\n        /* \"#utility.yul\":436:473   */\n      tag_50\n      jump\t// in\n    tag_73:\n        /* \"#utility.yul\":423:473   */\n      swap1\n      pop\n        /* \"#utility.yul\":353:479   */\n      swap2\n      swap1\n      pop\n      jump\t// out\n        /* \"#utility.yul\":485:623   */\n    tag_52:\n        /* \"#utility.yul\":547:556   */\n      0x00\n        /* \"#utility.yul\":580:617   */\n      tag_75\n        /* \"#utility.yul\":611:616   */\n      dup3\n        /* \"#utility.yul\":580:617   */\n      tag_51\n      jump\t// in\n    tag_75:\n        /* \"#utility.yul\":567:617   */\n      swap1\n      pop\n        /* \"#utility.yul\":485:623   */\n      swap2\n      swap1\n      pop\n      jump\t// out\n        /* \"#utility.yul\":629:784   */\n    tag_53:\n        /* \"#utility.yul\":728:777   */\n      tag_77\n        /* \"#utility.yul\":771:776   */\n      dup2\n        /* \"#utility.yul\":728:777   */\n      tag_52\n      jump\t// in\n    tag_77:\n        /* \"#utility.yul\":723:726   */\n      dup3\n        /* \"#utility.yul\":716:778   */\n      mstore\n        /* \"#utility.yul\":629:784   */\n      pop\n      pop\n      jump\t// out\n        /* \"#utility.yul\":790:1036   */\n    tag_11:\n        /* \"#utility.yul\":895:899   */\n      0x00\n        /* \"#utility.yul\":933:935   */\n      0x20\n        /* \"#utility.yul\":922:931   */\n      dup3\n        /* \"#utility.yul\":918:936   */\n      add\n        /* \"#utility.yul\":910:936   */\n      swap1\n      pop\n        /* \"#utility.yul\":946:1029   */\n      tag_79\n        /* \"#utility.yul\":1026:1027   */\n      0x00\n        /* \"#utility.yul\":1015:1024   */\n      dup4\n        /* \"#utility.yul\":1011:1028   */\n      add\n        /* \"#utility.yul\":1002:1008   */\n      dup5\n        /* \"#utility.yul\":946:1029   */\n      tag_53\n      jump\t// in\n    tag_79:\n        /* \"#utility.yul\":790:1036   */\n      swap3\n      swap2\n      pop\n      pop\n      jump\t// out\n        /* \"#utility.yul\":1042:1180   */\n    tag_54:\n        /* \"#utility.yul\":1104:1113   */\n      0x00\n        /* \"#utility.yul\":1137:1174   */\n      tag_81\n        /* \"#utility.yul\":1168:1173   */\n      dup3\n        /* \"#utility.yul\":1137:1174   */\n      tag_51\n      jump\t// in\n    tag_81:\n        /* \"#utility.yul\":1124:1174   */\n      swap1\n      pop\n        /* \"#utility.yul\":1042:1180   */\n      swap2\n      swap1\n      pop\n      jump\t// out\n        /* \"#utility.yul\":1186:1341   */\n    tag_55:\n        /* \"#utility.yul\":1285:1334   */\n      tag_83\n        /* \"#utility.yul\":1328:1333   */\n      dup2\n        /* \"#utility.yul\":1285:1334   */\n      tag_54\n      jump\t// in\n    tag_83:\n        /* \"#utility.yul\":1280:1283   */\n      dup3\n        /* \"#utility.yul\":1273:1335   */\n      mstore\n        /* \"#utility.yul\":1186:1341   */\n      pop\n      pop\n      jump\t// out\n        /* \"#utility.yul\":1347:1593   */\n    tag_15:\n        /* \"#utility.yul\":1452:1456   */\n      0x00\n        /* \"#utility.yul\":1490:1492   */\n      0x20\n        /* \"#utility.yul\":1479:1488   */\n      dup3\n        /* \"#utility.yul\":1475:1493   */\n      add\n        /* \"#utility.yul\":1467:1493   */\n      swap1\n      pop\n        /* \"#utility.yul\":1503:1586   */\n      tag_85\n        /* \"#utility.yul\":1583:1584   */\n      0x00\n        /* \"#utility.yul\":1572:1581   */\n      dup4\n        /* \"#utility.yul\":1568:1585   */\n      add\n        /* \"#utility.yul\":1559:1565   */\n      dup5\n        /* \"#utility.yul\":1503:1586   */\n      tag_55\n      jump\t// in\n    tag_85:\n        /* \"#utility.yul\":1347:1593   */\n      swap3\n      swap2\n      pop\n      pop\n      jump\t// out\n        /* \"#utility.yul\":1599:1741   */\n    tag_56:\n        /* \"#utility.yul\":1665:1674   */\n      0x00\n        /* \"#utility.yul\":1698:1735   */\n      tag_87\n        /* \"#utility.yul\":1729:1734   */\n      dup3\n        /* \"#utility.yul\":1698:1735   */\n      tag_51\n      jump\t// in\n    tag_87:\n        /* \"#utility.yul\":1685:1735   */\n      swap1\n      pop\n        /* \"#utility.yul\":1599:1741   */\n      swap2\n      swap1\n      pop\n      jump\t// out\n        /* \"#utility.yul\":1747:1910   */\n    tag_57:\n        /* \"#utility.yul\":1850:1903   */\n      tag_89\n        /* \"#utility.yul\":1897:1902   */\n      dup2\n        /* \"#utility.yul\":1850:1903   */\n      tag_56\n      jump\t// in\n    tag_89:\n        /* \"#utility.yul\":1845:1848   */\n      dup3\n        /* \"#utility.yul\":1838:1904   */\n      mstore\n        /* \"#utility.yul\":1747:1910   */\n      pop\n      pop\n      jump\t// out\n        /* \"#utility.yul\":1916:2170   */\n    tag_19:\n        /* \"#utility.yul\":2025:2029   */\n      0x00\n        /* \"#utility.yul\":2063:2065   */\n      0x20\n        /* \"#utility.yul\":2052:2061   */\n      dup3\n        /* \"#utility.yul\":2048:2066   */\n      add\n        /* \"#utility.yul\":2040:2066   */\n      swap1\n      pop\n        /* \"#utility.yul\":2076:2163   */\n      tag_91\n        /* \"#utility.yul\":2160:2161   */\n      0x00\n        /* \"#utility.yul\":2149:2158   */\n      dup4\n        /* \"#utility.yul\":2145:2162   */\n      add\n        /* \"#utility.yul\":2136:2142   */\n      dup5\n        /* \"#utility.yul\":2076:2163   */\n      tag_57\n      jump\t// in\n    tag_91:\n        /* \"#utility.yul\":1916:2170   */\n      swap3\n      swap2\n      pop\n      pop\n      jump\t// out\n        /* \"#utility.yul\":2176:2253   */\n    tag_58:\n        /* \"#utility.yul\":2213:2220   */\n      0x00\n        /* \"#utility.yul\":2242:2247   */\n      dup2\n        /* \"#utility.yul\":2231:2247   */\n      swap1\n      pop\n        /* \"#utility.yul\":2176:2253   */\n      swap2\n      swap1\n      pop\n      jump\t// out\n        /* \"#utility.yul\":2259:2377   */\n    tag_59:\n        /* \"#utility.yul\":2346:2370   */\n      tag_94\n        /* \"#utility.yul\":2364:2369   */\n      dup2\n        /* \"#utility.yul\":2346:2370   */\n      tag_58\n      jump\t// in\n    tag_94:\n        /* \"#utility.yul\":2341:2344   */\n      dup3\n        /* \"#utility.yul\":2334:2371   */\n      mstore\n        /* \"#utility.yul\":2259:2377   */\n      pop\n      pop\n      jump\t// out\n        /* \"#utility.yul\":2383:2825   */\n    tag_23:\n        /* \"#utility.yul\":2532:2536   */\n      0x00\n        /* \"#utility.yul\":2570:2572   */\n      0x60\n        /* \"#utility.yul\":2559:2568   */\n      dup3\n        /* \"#utility.yul\":2555:2573   */\n      add\n        /* \"#utility.yul\":2547:2573   */\n      swap1\n      pop\n        /* \"#utility.yul\":2583:2654   */\n      tag_96\n        /* \"#utility.yul\":2651:2652   */\n      0x00\n        /* \"#utility.yul\":2640:2649   */\n      dup4\n        /* \"#utility.yul\":2636:2653   */\n      add\n        /* \"#utility.yul\":2627:2633   */\n      dup7\n        /* \"#utility.yul\":2583:2654   */\n      tag_59\n      jump\t// in\n    tag_96:\n        /* \"#utility.yul\":2664:2736   */\n      tag_97\n        /* \"#utility.yul\":2732:2734   */\n      0x20\n        /* \"#utility.yul\":2721:2730   */\n      dup4\n        /* \"#utility.yul\":2717:2735   */\n      add\n        /* \"#utility.yul\":2708:2714   */\n      dup6\n        /* \"#utility.yul\":2664:2736   */\n      tag_59\n      jump\t// in\n    tag_97:\n        /* \"#utility.yul\":2746:2818   */\n      tag_98\n        /* \"#utility.yul\":2814:2816   */\n      0x40\n        /* \"#utility.yul\":2803:2812   */\n      dup4\n        /* \"#utility.yul\":2799:2817   */\n      add\n        /* \"#utility.yul\":2790:2796   */\n      dup5\n        /* \"#utility.yul\":2746:2818   */\n      tag_59\n      jump\t// in\n    tag_98:\n        /* \"#utility.yul\":2383:2825   */\n      swap5\n      swap4\n      pop\n      pop\n      pop\n      pop\n      jump\t// out\n        /* \"#utility.yul\":2912:3029   */\n    tag_61:\n        /* \"#utility.yul\":3021:3022   */\n      0x00\n        /* \"#utility.yul\":3018:3019   */\n      dup1\n        /* \"#utility.yul\":3011:3023   */\n      revert\n        /* \"#utility.yul\":3158:3280   */\n    tag_63:\n        /* \"#utility.yul\":3231:3255   */\n      tag_103\n        /* \"#utility.yul\":3249:3254   */\n      dup2\n        /* \"#utility.yul\":3231:3255   */\n      tag_58\n      jump\t// in\n    tag_103:\n        /* \"#utility.yul\":3224:3229   */\n      dup2\n        /* \"#utility.yul\":3221:3256   */\n      eq\n        /* \"#utility.yul\":3211:3274   */\n      tag_104\n      jumpi\n        /* \"#utility.yul\":3270:3271   */\n      0x00\n        /* \"#utility.yul\":3267:3268   */\n      dup1\n        /* \"#utility.yul\":3260:3272   */\n      revert\n        /* \"#utility.yul\":3211:3274   */\n    tag_104:\n        /* \"#utility.yul\":3158:3280   */\n      pop\n      jump\t// out\n        /* \"#utility.yul\":3286:3429   */\n    tag_64:\n        /* \"#utility.yul\":3343:3348   */\n      0x00\n        /* \"#utility.yul\":3374:3380   */\n      dup2\n        /* \"#utility.yul\":3368:3381   */\n      mload\n        /* \"#utility.yul\":3359:3381   */\n      swap1\n      pop\n        /* \"#utility.yul\":3390:3423   */\n      tag_106\n        /* \"#utility.yul\":3417:3422   */\n      dup2\n        /* \"#utility.yul\":3390:3423   */\n      tag_63\n      jump\t// in\n    tag_106:\n        /* \"#utility.yul\":3286:3429   */\n      swap3\n      swap2\n      pop\n      pop\n      jump\t// out\n        /* \"#utility.yul\":3435:3786   */\n    tag_31:\n        /* \"#utility.yul\":3505:3511   */\n      0x00\n        /* \"#utility.yul\":3554:3556   */\n      0x20\n        /* \"#utility.yul\":3542:3551   */\n      dup3\n        /* \"#utility.yul\":3533:3540   */\n      dup5\n        /* \"#utility.yul\":3529:3552   */\n      sub\n        /* \"#utility.yul\":3525:3557   */\n      slt\n        /* \"#utility.yul\":3522:3641   */\n      iszero\n      tag_108\n      jumpi\n        /* \"#utility.yul\":3560:3639   */\n      tag_109\n      tag_61\n      jump\t// in\n    tag_109:\n        /* \"#utility.yul\":3522:3641   */\n    tag_108:\n        /* \"#utility.yul\":3680:3681   */\n      0x00\n        /* \"#utility.yul\":3705:3769   */\n      tag_110\n        /* \"#utility.yul\":3761:3768   */\n      dup5\n        /* \"#utility.yul\":3752:3758   */\n      dup3\n        /* \"#utility.yul\":3741:3750   */\n      dup6\n        /* \"#utility.yul\":3737:3759   */\n      add\n        /* \"#utility.yul\":3705:3769   */\n      tag_64\n      jump\t// in\n    tag_110:\n        /* \"#utility.yul\":3695:3769   */\n      swap2\n      pop\n        /* \"#utility.yul\":3651:3779   */\n      pop\n        /* \"#utility.yul\":3435:3786   */\n      swap3\n      swap2\n      pop\n      pop\n      jump\t// out\n\n    auxdata: 0xa2646970667358221220923697cb41e5cb9b3ca3fc88700bee39781a0a683f208de47c30d8cdfd1004e364736f6c634300081a0033\n}\n\nsub_1: assembly {\n        /* \"Day-09/D9P3.sol\":707:1028  contract Cube is ThreeDObject {... */\n      mstore(0x40, 0x80)\n        /* \"Day-09/D9P3.sol\":760:815  constructor(uint _side) {... */\n      callvalue\n      dup1\n      iszero\n      tag_1\n      jumpi\n      0x00\n      dup1\n      revert\n    tag_1:\n      pop\n      mload(0x40)\n      sub(codesize, bytecodeSize)\n      dup1\n      bytecodeSize\n      dup4\n      codecopy\n      dup2\n      dup2\n      add\n      0x40\n      mstore\n      dup2\n      add\n      swap1\n      tag_2\n      swap2\n      swap1\n      tag_3\n      jump\t// in\n    tag_2:\n        /* \"Day-09/D9P3.sol\":802:807  _side */\n      dup1\n        /* \"Day-09/D9P3.sol\":795:799  side */\n      0x00\n        /* \"Day-09/D9P3.sol\":795:807  side = _side */\n      dup2\n      swap1\n      sstore\n      pop\n        /* \"Day-09/D9P3.sol\":760:815  constructor(uint _side) {... */\n      pop\n        /* \"Day-09/D9P3.sol\":707:1028  contract Cube is ThreeDObject {... */\n      jump(tag_6)\n        /* \"#utility.yul\":88:205   */\n    tag_8:\n        /* \"#utility.yul\":197:198   */\n      0x00\n        /* \"#utility.yul\":194:195   */\n      dup1\n        /* \"#utility.yul\":187:199   */\n      revert\n        /* \"#utility.yul\":334:411   */\n    tag_10:\n        /* \"#utility.yul\":371:378   */\n      0x00\n        /* \"#utility.yul\":400:405   */\n      dup2\n        /* \"#utility.yul\":389:405   */\n      swap1\n      pop\n        /* \"#utility.yul\":334:411   */\n      swap2\n      swap1\n      pop\n      jump\t// out\n        /* \"#utility.yul\":417:539   */\n    tag_11:\n        /* \"#utility.yul\":490:514   */\n      tag_19\n        /* \"#utility.yul\":508:513   */\n      dup2\n        /* \"#utility.yul\":490:514   */\n      tag_10\n      jump\t// in\n    tag_19:\n        /* \"#utility.yul\":483:488   */\n      dup2\n        /* \"#utility.yul\":480:515   */\n      eq\n        /* \"#utility.yul\":470:533   */\n      tag_20\n      jumpi\n        /* \"#utility.yul\":529:530   */\n      0x00\n        /* \"#utility.yul\":526:527   */\n      dup1\n        /* \"#utility.yul\":519:531   */\n      revert\n        /* \"#utility.yul\":470:533   */\n    tag_20:\n        /* \"#utility.yul\":417:539   */\n      pop\n      jump\t// out\n        /* \"#utility.yul\":545:688   */\n    tag_12:\n        /* \"#utility.yul\":602:607   */\n      0x00\n        /* \"#utility.yul\":633:639   */\n      dup2\n        /* \"#utility.yul\":627:640   */\n      mload\n        /* \"#utility.yul\":618:640   */\n      swap1\n      pop\n        /* \"#utility.yul\":649:682   */\n      tag_22\n        /* \"#utility.yul\":676:681   */\n      dup2\n        /* \"#utility.yul\":649:682   */\n      tag_11\n      jump\t// in\n    tag_22:\n        /* \"#utility.yul\":545:688   */\n      swap3\n      swap2\n      pop\n      pop\n      jump\t// out\n        /* \"#utility.yul\":694:1045   */\n    tag_3:\n        /* \"#utility.yul\":764:770   */\n      0x00\n        /* \"#utility.yul\":813:815   */\n      0x20\n        /* \"#utility.yul\":801:810   */\n      dup3\n        /* \"#utility.yul\":792:799   */\n      dup5\n        /* \"#utility.yul\":788:811   */\n      sub\n        /* \"#utility.yul\":784:816   */\n      slt\n        /* \"#utility.yul\":781:900   */\n      iszero\n      tag_24\n      jumpi\n        /* \"#utility.yul\":819:898   */\n      tag_25\n      tag_8\n      jump\t// in\n    tag_25:\n        /* \"#utility.yul\":781:900   */\n    tag_24:\n        /* \"#utility.yul\":939:940   */\n      0x00\n        /* \"#utility.yul\":964:1028   */\n      tag_26\n        /* \"#utility.yul\":1020:1027   */\n      dup5\n        /* \"#utility.yul\":1011:1017   */\n      dup3\n        /* \"#utility.yul\":1000:1009   */\n      dup6\n        /* \"#utility.yul\":996:1018   */\n      add\n        /* \"#utility.yul\":964:1028   */\n      tag_12\n      jump\t// in\n    tag_26:\n        /* \"#utility.yul\":954:1028   */\n      swap2\n      pop\n        /* \"#utility.yul\":910:1038   */\n      pop\n        /* \"#utility.yul\":694:1045   */\n      swap3\n      swap2\n      pop\n      pop\n      jump\t// out\n        /* \"Day-09/D9P3.sol\":707:1028  contract Cube is ThreeDObject {... */\n    tag_6:\n      dataSize(sub_0)\n      dup1\n      dataOffset(sub_0)\n      0x00\n      codecopy\n      0x00\n      return\n    stop\n\n    sub_0: assembly {\n            /* \"Day-09/D9P3.sol\":707:1028  contract Cube is ThreeDObject {... */\n          mstore(0x40, 0x80)\n          callvalue\n          dup1\n          iszero\n          tag_1\n          jumpi\n          0x00\n          dup1\n          revert\n        tag_1:\n          pop\n          jumpi(tag_2, lt(calldatasize, 0x04))\n          shr(0xe0, calldataload(0x00))\n          dup1\n          0x89e7995f\n          eq\n          tag_3\n          jumpi\n          dup1\n          0xc618a1e4\n          eq\n          tag_4\n          jumpi\n        tag_2:\n          0x00\n          dup1\n          revert\n            /* \"Day-09/D9P3.sol\":821:921  function surfaceArea() public view override returns (uint) {... */\n        tag_3:\n          tag_5\n          tag_6\n          jump\t// in\n        tag_5:\n          mload(0x40)\n          tag_7\n          swap2\n          swap1\n          tag_8\n          jump\t// in\n        tag_7:\n          mload(0x40)\n          dup1\n          swap2\n          sub\n          swap1\n          return\n            /* \"Day-09/D9P3.sol\":927:1025  function volume() public view override returns (uint) {... */\n        tag_4:\n          tag_9\n          tag_10\n          jump\t// in\n        tag_9:\n          mload(0x40)\n          tag_11\n          swap2\n          swap1\n          tag_8\n          jump\t// in\n        tag_11:\n          mload(0x40)\n          dup1\n          swap2\n          sub\n          swap1\n          return\n            /* \"Day-09/D9P3.sol\":821:921  function surfaceArea() public view override returns (uint) {... */\n        tag_6:\n            /* \"Day-09/D9P3.sol\":874:878  uint */\n          0x00\n            /* \"Day-09/D9P3.sol\":909:913  side */\n          dup1\n          sload\n            /* \"Day-09/D9P3.sol\":902:906  side */\n          sload(0x00)\n            /* \"Day-09/D9P3.sol\":898:899  6 */\n          0x06\n            /* \"Day-09/D9P3.sol\":898:906  6 * side */\n          tag_13\n          swap2\n          swap1\n          tag_14\n          jump\t// in\n        tag_13:\n            /* \"Day-09/D9P3.sol\":898:913  6 * side * side */\n          tag_15\n          swap2\n          swap1\n          tag_14\n          jump\t// in\n        tag_15:\n            /* \"Day-09/D9P3.sol\":891:913  return 6 * side * side */\n          swap1\n          pop\n            /* \"Day-09/D9P3.sol\":821:921  function surfaceArea() public view override returns (uint) {... */\n          swap1\n          jump\t// out\n            /* \"Day-09/D9P3.sol\":927:1025  function volume() public view override returns (uint) {... */\n        tag_10:\n            /* \"Day-09/D9P3.sol\":975:979  uint */\n          0x00\n            /* \"Day-09/D9P3.sol\":1013:1017  side */\n          dup1\n          sload\n            /* \"Day-09/D9P3.sol\":1006:1010  side */\n          sload(0x00)\n            /* \"Day-09/D9P3.sol\":999:1003  side */\n          sload(0x00)\n            /* \"Day-09/D9P3.sol\":999:1010  side * side */\n          tag_17\n          swap2\n          swap1\n          tag_14\n          jump\t// in\n        tag_17:\n            /* \"Day-09/D9P3.sol\":999:1017  side * side * side */\n          tag_18\n          swap2\n          swap1\n          tag_14\n          jump\t// in\n        tag_18:\n            /* \"Day-09/D9P3.sol\":992:1017  return side * side * side */\n          swap1\n          pop\n            /* \"Day-09/D9P3.sol\":927:1025  function volume() public view override returns (uint) {... */\n          swap1\n          jump\t// out\n            /* \"#utility.yul\":7:84   */\n        tag_19:\n            /* \"#utility.yul\":44:51   */\n          0x00\n            /* \"#utility.yul\":73:78   */\n          dup2\n            /* \"#utility.yul\":62:78   */\n          swap1\n          pop\n            /* \"#utility.yul\":7:84   */\n          swap2\n          swap1\n          pop\n          jump\t// out\n            /* \"#utility.yul\":90:208   */\n        tag_20:\n            /* \"#utility.yul\":177:201   */\n          tag_25\n            /* \"#utility.yul\":195:200   */\n          dup2\n            /* \"#utility.yul\":177:201   */\n          tag_19\n          jump\t// in\n        tag_25:\n            /* \"#utility.yul\":172:175   */\n          dup3\n            /* \"#utility.yul\":165:202   */\n          mstore\n            /* \"#utility.yul\":90:208   */\n          pop\n          pop\n          jump\t// out\n            /* \"#utility.yul\":214:436   */\n        tag_8:\n            /* \"#utility.yul\":307:311   */\n          0x00\n            /* \"#utility.yul\":345:347   */\n          0x20\n            /* \"#utility.yul\":334:343   */\n          dup3\n            /* \"#utility.yul\":330:348   */\n          add\n            /* \"#utility.yul\":322:348   */\n          swap1\n          pop\n            /* \"#utility.yul\":358:429   */\n          tag_27\n            /* \"#utility.yul\":426:427   */\n          0x00\n            /* \"#utility.yul\":415:424   */\n          dup4\n            /* \"#utility.yul\":411:428   */\n          add\n            /* \"#utility.yul\":402:408   */\n          dup5\n            /* \"#utility.yul\":358:429   */\n          tag_20\n          jump\t// in\n        tag_27:\n            /* \"#utility.yul\":214:436   */\n          swap3\n          swap2\n          pop\n          pop\n          jump\t// out\n            /* \"#utility.yul\":442:622   */\n        tag_21:\n            /* \"#utility.yul\":490:567   */\n          0x4e487b7100000000000000000000000000000000000000000000000000000000\n            /* \"#utility.yul\":487:488   */\n          0x00\n            /* \"#utility.yul\":480:568   */\n          mstore\n            /* \"#utility.yul\":587:591   */\n          0x11\n            /* \"#utility.yul\":584:585   */\n          0x04\n            /* \"#utility.yul\":577:592   */\n          mstore\n            /* \"#utility.yul\":611:615   */\n          0x24\n            /* \"#utility.yul\":608:609   */\n          0x00\n            /* \"#utility.yul\":601:616   */\n          revert\n            /* \"#utility.yul\":628:1038   */\n        tag_14:\n            /* \"#utility.yul\":668:675   */\n          0x00\n            /* \"#utility.yul\":691:711   */\n          tag_30\n            /* \"#utility.yul\":709:710   */\n          dup3\n            /* \"#utility.yul\":691:711   */\n          tag_19\n          jump\t// in\n        tag_30:\n            /* \"#utility.yul\":686:711   */\n          swap2\n          pop\n            /* \"#utility.yul\":725:745   */\n          tag_31\n            /* \"#utility.yul\":743:744   */\n          dup4\n            /* \"#utility.yul\":725:745   */\n          tag_19\n          jump\t// in\n        tag_31:\n            /* \"#utility.yul\":720:745   */\n          swap3\n          pop\n            /* \"#utility.yul\":780:781   */\n          dup3\n            /* \"#utility.yul\":777:778   */\n          dup3\n            /* \"#utility.yul\":773:782   */\n          mul\n            /* \"#utility.yul\":802:832   */\n          tag_32\n            /* \"#utility.yul\":820:831   */\n          dup2\n            /* \"#utility.yul\":802:832   */\n          tag_19\n          jump\t// in\n        tag_32:\n            /* \"#utility.yul\":791:832   */\n          swap2\n          pop\n            /* \"#utility.yul\":981:982   */\n          dup3\n            /* \"#utility.yul\":972:979   */\n          dup3\n            /* \"#utility.yul\":968:983   */\n          div\n            /* \"#utility.yul\":965:966   */\n          dup5\n            /* \"#utility.yul\":962:984   */\n          eq\n            /* \"#utility.yul\":942:943   */\n          dup4\n            /* \"#utility.yul\":935:944   */\n          iszero\n            /* \"#utility.yul\":915:998   */\n          or\n            /* \"#utility.yul\":892:1031   */\n          tag_33\n          jumpi\n            /* \"#utility.yul\":1011:1029   */\n          tag_34\n          tag_21\n          jump\t// in\n        tag_34:\n            /* \"#utility.yul\":892:1031   */\n        tag_33:\n            /* \"#utility.yul\":676:1038   */\n          pop\n            /* \"#utility.yul\":628:1038   */\n          swap3\n          swap2\n          pop\n          pop\n          jump\t// out\n\n        auxdata: 0xa26469706673582212201c595d23ebadfea212014cbfc91feb4b452045b87d3e5d489c661092a0c8c95664736f6c634300081a0033\n    }\n}\n\nsub_2: assembly {\n        /* \"Day-09/D9P3.sol\":1030:1467  contract Cylinder is ThreeDObject {... */\n      mstore(0x40, 0x80)\n        /* \"Day-09/D9P3.sol\":1107:1209  constructor(uint _radius, uint _height) {... */\n      callvalue\n      dup1\n      iszero\n      tag_1\n      jumpi\n      0x00\n      dup1\n      revert\n    tag_1:\n      pop\n      mload(0x40)\n      sub(codesize, bytecodeSize)\n      dup1\n      bytecodeSize\n      dup4\n      codecopy\n      dup2\n      dup2\n      add\n      0x40\n      mstore\n      dup2\n      add\n      swap1\n      tag_2\n      swap2\n      swap1\n      tag_3\n      jump\t// in\n    tag_2:\n        /* \"Day-09/D9P3.sol\":1167:1174  _radius */\n      dup2\n        /* \"Day-09/D9P3.sol\":1158:1164  radius */\n      0x00\n        /* \"Day-09/D9P3.sol\":1158:1174  radius = _radius */\n      dup2\n      swap1\n      sstore\n      pop\n        /* \"Day-09/D9P3.sol\":1194:1201  _height */\n      dup1\n        /* \"Day-09/D9P3.sol\":1185:1191  height */\n      0x01\n        /* \"Day-09/D9P3.sol\":1185:1201  height = _height */\n      dup2\n      swap1\n      sstore\n      pop\n        /* \"Day-09/D9P3.sol\":1107:1209  constructor(uint _radius, uint _height) {... */\n      pop\n      pop\n        /* \"Day-09/D9P3.sol\":1030:1467  contract Cylinder is ThreeDObject {... */\n      jump(tag_6)\n        /* \"#utility.yul\":88:205   */\n    tag_8:\n        /* \"#utility.yul\":197:198   */\n      0x00\n        /* \"#utility.yul\":194:195   */\n      dup1\n        /* \"#utility.yul\":187:199   */\n      revert\n        /* \"#utility.yul\":334:411   */\n    tag_10:\n        /* \"#utility.yul\":371:378   */\n      0x00\n        /* \"#utility.yul\":400:405   */\n      dup2\n        /* \"#utility.yul\":389:405   */\n      swap1\n      pop\n        /* \"#utility.yul\":334:411   */\n      swap2\n      swap1\n      pop\n      jump\t// out\n        /* \"#utility.yul\":417:539   */\n    tag_11:\n        /* \"#utility.yul\":490:514   */\n      tag_19\n        /* \"#utility.yul\":508:513   */\n      dup2\n        /* \"#utility.yul\":490:514   */\n      tag_10\n      jump\t// in\n    tag_19:\n        /* \"#utility.yul\":483:488   */\n      dup2\n        /* \"#utility.yul\":480:515   */\n      eq\n        /* \"#utility.yul\":470:533   */\n      tag_20\n      jumpi\n        /* \"#utility.yul\":529:530   */\n      0x00\n        /* \"#utility.yul\":526:527   */\n      dup1\n        /* \"#utility.yul\":519:531   */\n      revert\n        /* \"#utility.yul\":470:533   */\n    tag_20:\n        /* \"#utility.yul\":417:539   */\n      pop\n      jump\t// out\n        /* \"#utility.yul\":545:688   */\n    tag_12:\n        /* \"#utility.yul\":602:607   */\n      0x00\n        /* \"#utility.yul\":633:639   */\n      dup2\n        /* \"#utility.yul\":627:640   */\n      mload\n        /* \"#utility.yul\":618:640   */\n      swap1\n      pop\n        /* \"#utility.yul\":649:682   */\n      tag_22\n        /* \"#utility.yul\":676:681   */\n      dup2\n        /* \"#utility.yul\":649:682   */\n      tag_11\n      jump\t// in\n    tag_22:\n        /* \"#utility.yul\":545:688   */\n      swap3\n      swap2\n      pop\n      pop\n      jump\t// out\n        /* \"#utility.yul\":694:1201   */\n    tag_3:\n        /* \"#utility.yul\":773:779   */\n      0x00\n        /* \"#utility.yul\":781:787   */\n      dup1\n        /* \"#utility.yul\":830:832   */\n      0x40\n        /* \"#utility.yul\":818:827   */\n      dup4\n        /* \"#utility.yul\":809:816   */\n      dup6\n        /* \"#utility.yul\":805:828   */\n      sub\n        /* \"#utility.yul\":801:833   */\n      slt\n        /* \"#utility.yul\":798:917   */\n      iszero\n      tag_24\n      jumpi\n        /* \"#utility.yul\":836:915   */\n      tag_25\n      tag_8\n      jump\t// in\n    tag_25:\n        /* \"#utility.yul\":798:917   */\n    tag_24:\n        /* \"#utility.yul\":956:957   */\n      0x00\n        /* \"#utility.yul\":981:1045   */\n      tag_26\n        /* \"#utility.yul\":1037:1044   */\n      dup6\n        /* \"#utility.yul\":1028:1034   */\n      dup3\n        /* \"#utility.yul\":1017:1026   */\n      dup7\n        /* \"#utility.yul\":1013:1035   */\n      add\n        /* \"#utility.yul\":981:1045   */\n      tag_12\n      jump\t// in\n    tag_26:\n        /* \"#utility.yul\":971:1045   */\n      swap3\n      pop\n        /* \"#utility.yul\":927:1055   */\n      pop\n        /* \"#utility.yul\":1094:1096   */\n      0x20\n        /* \"#utility.yul\":1120:1184   */\n      tag_27\n        /* \"#utility.yul\":1176:1183   */\n      dup6\n        /* \"#utility.yul\":1167:1173   */\n      dup3\n        /* \"#utility.yul\":1156:1165   */\n      dup7\n        /* \"#utility.yul\":1152:1174   */\n      add\n        /* \"#utility.yul\":1120:1184   */\n      tag_12\n      jump\t// in\n    tag_27:\n        /* \"#utility.yul\":1110:1184   */\n      swap2\n      pop\n        /* \"#utility.yul\":1065:1194   */\n      pop\n        /* \"#utility.yul\":694:1201   */\n      swap3\n      pop\n      swap3\n      swap1\n      pop\n      jump\t// out\n        /* \"Day-09/D9P3.sol\":1030:1467  contract Cylinder is ThreeDObject {... */\n    tag_6:\n      dataSize(sub_0)\n      dup1\n      dataOffset(sub_0)\n      0x00\n      codecopy\n      0x00\n      return\n    stop\n\n    sub_0: assembly {\n            /* \"Day-09/D9P3.sol\":1030:1467  contract Cylinder is ThreeDObject {... */\n          mstore(0x40, 0x80)\n          callvalue\n          dup1\n          iszero\n          tag_1\n          jumpi\n          0x00\n          dup1\n          revert\n        tag_1:\n          pop\n          jumpi(tag_2, lt(calldatasize, 0x04))\n          shr(0xe0, calldataload(0x00))\n          dup1\n          0x89e7995f\n          eq\n          tag_3\n          jumpi\n          dup1\n          0xc618a1e4\n          eq\n          tag_4\n          jumpi\n        tag_2:\n          0x00\n          dup1\n          revert\n            /* \"Day-09/D9P3.sol\":1215:1342  function surfaceArea() public view override returns (uint) {... */\n        tag_3:\n          tag_5\n          tag_6\n          jump\t// in\n        tag_5:\n          mload(0x40)\n          tag_7\n          swap2\n          swap1\n          tag_8\n          jump\t// in\n        tag_7:\n          mload(0x40)\n          dup1\n          swap2\n          sub\n          swap1\n          return\n            /* \"Day-09/D9P3.sol\":1348:1464  function volume() public view override returns (uint) {... */\n        tag_4:\n          tag_9\n          tag_10\n          jump\t// in\n        tag_9:\n          mload(0x40)\n          tag_11\n          swap2\n          swap1\n          tag_8\n          jump\t// in\n        tag_11:\n          mload(0x40)\n          dup1\n          swap2\n          sub\n          swap1\n          return\n            /* \"Day-09/D9P3.sol\":1215:1342  function surfaceArea() public view override returns (uint) {... */\n        tag_6:\n            /* \"Day-09/D9P3.sol\":1268:1272  uint */\n          0x00\n            /* \"Day-09/D9P3.sol\":1331:1334  100 */\n          0x64\n            /* \"Day-09/D9P3.sol\":1321:1327  height */\n          sload(0x01)\n            /* \"Day-09/D9P3.sol\":1312:1318  radius */\n          sload(0x00)\n            /* \"Day-09/D9P3.sol\":1312:1327  radius + height */\n          tag_13\n          swap2\n          swap1\n          tag_14\n          jump\t// in\n        tag_13:\n            /* \"Day-09/D9P3.sol\":1302:1308  radius */\n          sload(0x00)\n            /* \"Day-09/D9P3.sol\":1292:1299  2 * 314 */\n          0x0274\n            /* \"Day-09/D9P3.sol\":1292:1308  2 * 314 * radius */\n          tag_15\n          swap2\n          swap1\n          tag_16\n          jump\t// in\n        tag_15:\n            /* \"Day-09/D9P3.sol\":1292:1328  2 * 314 * radius * (radius + height) */\n          tag_17\n          swap2\n          swap1\n          tag_16\n          jump\t// in\n        tag_17:\n            /* \"Day-09/D9P3.sol\":1292:1334  2 * 314 * radius * (radius + height) / 100 */\n          tag_18\n          swap2\n          swap1\n          tag_19\n          jump\t// in\n        tag_18:\n            /* \"Day-09/D9P3.sol\":1285:1334  return 2 * 314 * radius * (radius + height) / 100 */\n          swap1\n          pop\n            /* \"Day-09/D9P3.sol\":1215:1342  function surfaceArea() public view override returns (uint) {... */\n          swap1\n          jump\t// out\n            /* \"Day-09/D9P3.sol\":1348:1464  function volume() public view override returns (uint) {... */\n        tag_10:\n            /* \"Day-09/D9P3.sol\":1396:1400  uint */\n          0x00\n            /* \"Day-09/D9P3.sol\":1453:1456  100 */\n          0x64\n            /* \"Day-09/D9P3.sol\":1444:1450  height */\n          sload(0x01)\n            /* \"Day-09/D9P3.sol\":1435:1441  radius */\n          sload(0x00)\n            /* \"Day-09/D9P3.sol\":1426:1432  radius */\n          sload(0x00)\n            /* \"Day-09/D9P3.sol\":1420:1423  314 */\n          0x013a\n            /* \"Day-09/D9P3.sol\":1420:1432  314 * radius */\n          tag_21\n          swap2\n          swap1\n          tag_16\n          jump\t// in\n        tag_21:\n            /* \"Day-09/D9P3.sol\":1420:1441  314 * radius * radius */\n          tag_22\n          swap2\n          swap1\n          tag_16\n          jump\t// in\n        tag_22:\n            /* \"Day-09/D9P3.sol\":1420:1450  314 * radius * radius * height */\n          tag_23\n          swap2\n          swap1\n          tag_16\n          jump\t// in\n        tag_23:\n            /* \"Day-09/D9P3.sol\":1420:1456  314 * radius * radius * height / 100 */\n          tag_24\n          swap2\n          swap1\n          tag_19\n          jump\t// in\n        tag_24:\n            /* \"Day-09/D9P3.sol\":1413:1456  return 314 * radius * radius * height / 100 */\n          swap1\n          pop\n            /* \"Day-09/D9P3.sol\":1348:1464  function volume() public view override returns (uint) {... */\n          swap1\n          jump\t// out\n            /* \"#utility.yul\":7:84   */\n        tag_25:\n            /* \"#utility.yul\":44:51   */\n          0x00\n            /* \"#utility.yul\":73:78   */\n          dup2\n            /* \"#utility.yul\":62:78   */\n          swap1\n          pop\n            /* \"#utility.yul\":7:84   */\n          swap2\n          swap1\n          pop\n          jump\t// out\n            /* \"#utility.yul\":90:208   */\n        tag_26:\n            /* \"#utility.yul\":177:201   */\n          tag_32\n            /* \"#utility.yul\":195:200   */\n          dup2\n            /* \"#utility.yul\":177:201   */\n          tag_25\n          jump\t// in\n        tag_32:\n            /* \"#utility.yul\":172:175   */\n          dup3\n            /* \"#utility.yul\":165:202   */\n          mstore\n            /* \"#utility.yul\":90:208   */\n          pop\n          pop\n          jump\t// out\n            /* \"#utility.yul\":214:436   */\n        tag_8:\n            /* \"#utility.yul\":307:311   */\n          0x00\n            /* \"#utility.yul\":345:347   */\n          0x20\n            /* \"#utility.yul\":334:343   */\n          dup3\n            /* \"#utility.yul\":330:348   */\n          add\n            /* \"#utility.yul\":322:348   */\n          swap1\n          pop\n            /* \"#utility.yul\":358:429   */\n          tag_34\n            /* \"#utility.yul\":426:427   */\n          0x00\n            /* \"#utility.yul\":415:424   */\n          dup4\n            /* \"#utility.yul\":411:428   */\n          add\n            /* \"#utility.yul\":402:408   */\n          dup5\n            /* \"#utility.yul\":358:429   */\n          tag_26\n          jump\t// in\n        tag_34:\n            /* \"#utility.yul\":214:436   */\n          swap3\n          swap2\n          pop\n          pop\n          jump\t// out\n            /* \"#utility.yul\":442:622   */\n        tag_27:\n            /* \"#utility.yul\":490:567   */\n          0x4e487b7100000000000000000000000000000000000000000000000000000000\n            /* \"#utility.yul\":487:488   */\n          0x00\n            /* \"#utility.yul\":480:568   */\n          mstore\n            /* \"#utility.yul\":587:591   */\n          0x11\n            /* \"#utility.yul\":584:585   */\n          0x04\n            /* \"#utility.yul\":577:592   */\n          mstore\n            /* \"#utility.yul\":611:615   */\n          0x24\n            /* \"#utility.yul\":608:609   */\n          0x00\n            /* \"#utility.yul\":601:616   */\n          revert\n            /* \"#utility.yul\":628:819   */\n        tag_14:\n            /* \"#utility.yul\":668:671   */\n          0x00\n            /* \"#utility.yul\":687:707   */\n          tag_37\n            /* \"#utility.yul\":705:706   */\n          dup3\n            /* \"#utility.yul\":687:707   */\n          tag_25\n          jump\t// in\n        tag_37:\n            /* \"#utility.yul\":682:707   */\n          swap2\n          pop\n            /* \"#utility.yul\":721:741   */\n          tag_38\n            /* \"#utility.yul\":739:740   */\n          dup4\n            /* \"#utility.yul\":721:741   */\n          tag_25\n          jump\t// in\n        tag_38:\n            /* \"#utility.yul\":716:741   */\n          swap3\n          pop\n            /* \"#utility.yul\":764:765   */\n          dup3\n            /* \"#utility.yul\":761:762   */\n          dup3\n            /* \"#utility.yul\":757:766   */\n          add\n            /* \"#utility.yul\":750:766   */\n          swap1\n          pop\n            /* \"#utility.yul\":785:788   */\n          dup1\n            /* \"#utility.yul\":782:783   */\n          dup3\n            /* \"#utility.yul\":779:789   */\n          gt\n            /* \"#utility.yul\":776:812   */\n          iszero\n          tag_39\n          jumpi\n            /* \"#utility.yul\":792:810   */\n          tag_40\n          tag_27\n          jump\t// in\n        tag_40:\n            /* \"#utility.yul\":776:812   */\n        tag_39:\n            /* \"#utility.yul\":628:819   */\n          swap3\n          swap2\n          pop\n          pop\n          jump\t// out\n            /* \"#utility.yul\":825:1235   */\n        tag_16:\n            /* \"#utility.yul\":865:872   */\n          0x00\n            /* \"#utility.yul\":888:908   */\n          tag_42\n            /* \"#utility.yul\":906:907   */\n          dup3\n            /* \"#utility.yul\":888:908   */\n          tag_25\n          jump\t// in\n        tag_42:\n            /* \"#utility.yul\":883:908   */\n          swap2\n          pop\n            /* \"#utility.yul\":922:942   */\n          tag_43\n            /* \"#utility.yul\":940:941   */\n          dup4\n            /* \"#utility.yul\":922:942   */\n          tag_25\n          jump\t// in\n        tag_43:\n            /* \"#utility.yul\":917:942   */\n          swap3\n          pop\n            /* \"#utility.yul\":977:978   */\n          dup3\n            /* \"#utility.yul\":974:975   */\n          dup3\n            /* \"#utility.yul\":970:979   */\n          mul\n            /* \"#utility.yul\":999:1029   */\n          tag_44\n            /* \"#utility.yul\":1017:1028   */\n          dup2\n            /* \"#utility.yul\":999:1029   */\n          tag_25\n          jump\t// in\n        tag_44:\n            /* \"#utility.yul\":988:1029   */\n          swap2\n          pop\n            /* \"#utility.yul\":1178:1179   */\n          dup3\n            /* \"#utility.yul\":1169:1176   */\n          dup3\n            /* \"#utility.yul\":1165:1180   */\n          div\n            /* \"#utility.yul\":1162:1163   */\n          dup5\n            /* \"#utility.yul\":1159:1181   */\n          eq\n            /* \"#utility.yul\":1139:1140   */\n          dup4\n            /* \"#utility.yul\":1132:1141   */\n          iszero\n            /* \"#utility.yul\":1112:1195   */\n          or\n            /* \"#utility.yul\":1089:1228   */\n          tag_45\n          jumpi\n            /* \"#utility.yul\":1208:1226   */\n          tag_46\n          tag_27\n          jump\t// in\n        tag_46:\n            /* \"#utility.yul\":1089:1228   */\n        tag_45:\n            /* \"#utility.yul\":873:1235   */\n          pop\n            /* \"#utility.yul\":825:1235   */\n          swap3\n          swap2\n          pop\n          pop\n          jump\t// out\n            /* \"#utility.yul\":1241:1421   */\n        tag_28:\n            /* \"#utility.yul\":1289:1366   */\n          0x4e487b7100000000000000000000000000000000000000000000000000000000\n            /* \"#utility.yul\":1286:1287   */\n          0x00\n            /* \"#utility.yul\":1279:1367   */\n          mstore\n            /* \"#utility.yul\":1386:1390   */\n          0x12\n            /* \"#utility.yul\":1383:1384   */\n          0x04\n            /* \"#utility.yul\":1376:1391   */\n          mstore\n            /* \"#utility.yul\":1410:1414   */\n          0x24\n            /* \"#utility.yul\":1407:1408   */\n          0x00\n            /* \"#utility.yul\":1400:1415   */\n          revert\n            /* \"#utility.yul\":1427:1612   */\n        tag_19:\n            /* \"#utility.yul\":1467:1468   */\n          0x00\n            /* \"#utility.yul\":1484:1504   */\n          tag_49\n            /* \"#utility.yul\":1502:1503   */\n          dup3\n            /* \"#utility.yul\":1484:1504   */\n          tag_25\n          jump\t// in\n        tag_49:\n            /* \"#utility.yul\":1479:1504   */\n          swap2\n          pop\n            /* \"#utility.yul\":1518:1538   */\n          tag_50\n            /* \"#utility.yul\":1536:1537   */\n          dup4\n            /* \"#utility.yul\":1518:1538   */\n          tag_25\n          jump\t// in\n        tag_50:\n            /* \"#utility.yul\":1513:1538   */\n          swap3\n          pop\n            /* \"#utility.yul\":1557:1558   */\n          dup3\n            /* \"#utility.yul\":1547:1582   */\n          tag_51\n          jumpi\n            /* \"#utility.yul\":1562:1580   */\n          tag_52\n          tag_28\n          jump\t// in\n        tag_52:\n            /* \"#utility.yul\":1547:1582   */\n        tag_51:\n            /* \"#utility.yul\":1604:1605   */\n          dup3\n            /* \"#utility.yul\":1601:1602   */\n          dup3\n            /* \"#utility.yul\":1597:1606   */\n          div\n            /* \"#utility.yul\":1592:1606   */\n          swap1\n          pop\n            /* \"#utility.yul\":1427:1612   */\n          swap3\n          swap2\n          pop\n          pop\n          jump\t// out\n\n        auxdata: 0xa26469706673582212201631c00f72d3cf62620f4fc26a39f9eef527c2e98a4789124c4c2e5ef927cf3064736f6c634300081a0033\n    }\n}\n\nsub_3: assembly {\n        /* \"Day-09/D9P3.sol\":1469:1992  contract Cone is ThreeDObject {... */\n      mstore(0x40, 0x80)\n        /* \"Day-09/D9P3.sol\":1565:1723  constructor(uint _radius, uint _height, uint _slantHeight) {... */\n      callvalue\n      dup1\n      iszero\n      tag_1\n      jumpi\n      0x00\n      dup1\n      revert\n    tag_1:\n      pop\n      mload(0x40)\n      sub(codesize, bytecodeSize)\n      dup1\n      bytecodeSize\n      dup4\n      codecopy\n      dup2\n      dup2\n      add\n      0x40\n      mstore\n      dup2\n      add\n      swap1\n      tag_2\n      swap2\n      swap1\n      tag_3\n      jump\t// in\n    tag_2:\n        /* \"Day-09/D9P3.sol\":1644:1651  _radius */\n      dup3\n        /* \"Day-09/D9P3.sol\":1635:1641  radius */\n      0x00\n        /* \"Day-09/D9P3.sol\":1635:1651  radius = _radius */\n      dup2\n      swap1\n      sstore\n      pop\n        /* \"Day-09/D9P3.sol\":1671:1678  _height */\n      dup2\n        /* \"Day-09/D9P3.sol\":1662:1668  height */\n      0x01\n        /* \"Day-09/D9P3.sol\":1662:1678  height = _height */\n      dup2\n      swap1\n      sstore\n      pop\n        /* \"Day-09/D9P3.sol\":1703:1715  _slantHeight */\n      dup1\n        /* \"Day-09/D9P3.sol\":1689:1700  slantHeight */\n      0x02\n        /* \"Day-09/D9P3.sol\":1689:1715  slantHeight = _slantHeight */\n      dup2\n      swap1\n      sstore\n      pop\n        /* \"Day-09/D9P3.sol\":1565:1723  constructor(uint _radius, uint _height, uint _slantHeight) {... */\n      pop\n      pop\n      pop\n        /* \"Day-09/D9P3.sol\":1469:1992  contract Cone is ThreeDObject {... */\n      jump(tag_6)\n        /* \"#utility.yul\":88:205   */\n    tag_8:\n        /* \"#utility.yul\":197:198   */\n      0x00\n        /* \"#utility.yul\":194:195   */\n      dup1\n        /* \"#utility.yul\":187:199   */\n      revert\n        /* \"#utility.yul\":334:411   */\n    tag_10:\n        /* \"#utility.yul\":371:378   */\n      0x00\n        /* \"#utility.yul\":400:405   */\n      dup2\n        /* \"#utility.yul\":389:405   */\n      swap1\n      pop\n        /* \"#utility.yul\":334:411   */\n      swap2\n      swap1\n      pop\n      jump\t// out\n        /* \"#utility.yul\":417:539   */\n    tag_11:\n        /* \"#utility.yul\":490:514   */\n      tag_19\n        /* \"#utility.yul\":508:513   */\n      dup2\n        /* \"#utility.yul\":490:514   */\n      tag_10\n      jump\t// in\n    tag_19:\n        /* \"#utility.yul\":483:488   */\n      dup2\n        /* \"#utility.yul\":480:515   */\n      eq\n        /* \"#utility.yul\":470:533   */\n      tag_20\n      jumpi\n        /* \"#utility.yul\":529:530   */\n      0x00\n        /* \"#utility.yul\":526:527   */\n      dup1\n        /* \"#utility.yul\":519:531   */\n      revert\n        /* \"#utility.yul\":470:533   */\n    tag_20:\n        /* \"#utility.yul\":417:539   */\n      pop\n      jump\t// out\n        /* \"#utility.yul\":545:688   */\n    tag_12:\n        /* \"#utility.yul\":602:607   */\n      0x00\n        /* \"#utility.yul\":633:639   */\n      dup2\n        /* \"#utility.yul\":627:640   */\n      mload\n        /* \"#utility.yul\":618:640   */\n      swap1\n      pop\n        /* \"#utility.yul\":649:682   */\n      tag_22\n        /* \"#utility.yul\":676:681   */\n      dup2\n        /* \"#utility.yul\":649:682   */\n      tag_11\n      jump\t// in\n    tag_22:\n        /* \"#utility.yul\":545:688   */\n      swap3\n      swap2\n      pop\n      pop\n      jump\t// out\n        /* \"#utility.yul\":694:1357   */\n    tag_3:\n        /* \"#utility.yul\":782:788   */\n      0x00\n        /* \"#utility.yul\":790:796   */\n      dup1\n        /* \"#utility.yul\":798:804   */\n      0x00\n        /* \"#utility.yul\":847:849   */\n      0x60\n        /* \"#utility.yul\":835:844   */\n      dup5\n        /* \"#utility.yul\":826:833   */\n      dup7\n        /* \"#utility.yul\":822:845   */\n      sub\n        /* \"#utility.yul\":818:850   */\n      slt\n        /* \"#utility.yul\":815:934   */\n      iszero\n      tag_24\n      jumpi\n        /* \"#utility.yul\":853:932   */\n      tag_25\n      tag_8\n      jump\t// in\n    tag_25:\n        /* \"#utility.yul\":815:934   */\n    tag_24:\n        /* \"#utility.yul\":973:974   */\n      0x00\n        /* \"#utility.yul\":998:1062   */\n      tag_26\n        /* \"#utility.yul\":1054:1061   */\n      dup7\n        /* \"#utility.yul\":1045:1051   */\n      dup3\n        /* \"#utility.yul\":1034:1043   */\n      dup8\n        /* \"#utility.yul\":1030:1052   */\n      add\n        /* \"#utility.yul\":998:1062   */\n      tag_12\n      jump\t// in\n    tag_26:\n        /* \"#utility.yul\":988:1062   */\n      swap4\n      pop\n        /* \"#utility.yul\":944:1072   */\n      pop\n        /* \"#utility.yul\":1111:1113   */\n      0x20\n        /* \"#utility.yul\":1137:1201   */\n      tag_27\n        /* \"#utility.yul\":1193:1200   */\n      dup7\n        /* \"#utility.yul\":1184:1190   */\n      dup3\n        /* \"#utility.yul\":1173:1182   */\n      dup8\n        /* \"#utility.yul\":1169:1191   */\n      add\n        /* \"#utility.yul\":1137:1201   */\n      tag_12\n      jump\t// in\n    tag_27:\n        /* \"#utility.yul\":1127:1201   */\n      swap3\n      pop\n        /* \"#utility.yul\":1082:1211   */\n      pop\n        /* \"#utility.yul\":1250:1252   */\n      0x40\n        /* \"#utility.yul\":1276:1340   */\n      tag_28\n        /* \"#utility.yul\":1332:1339   */\n      dup7\n        /* \"#utility.yul\":1323:1329   */\n      dup3\n        /* \"#utility.yul\":1312:1321   */\n      dup8\n        /* \"#utility.yul\":1308:1330   */\n      add\n        /* \"#utility.yul\":1276:1340   */\n      tag_12\n      jump\t// in\n    tag_28:\n        /* \"#utility.yul\":1266:1340   */\n      swap2\n      pop\n        /* \"#utility.yul\":1221:1350   */\n      pop\n        /* \"#utility.yul\":694:1357   */\n      swap3\n      pop\n      swap3\n      pop\n      swap3\n      jump\t// out\n        /* \"Day-09/D9P3.sol\":1469:1992  contract Cone is ThreeDObject {... */\n    tag_6:\n      dataSize(sub_0)\n      dup1\n      dataOffset(sub_0)\n      0x00\n      codecopy\n      0x00\n      return\n    stop\n\n    sub_0: assembly {\n            /* \"Day-09/D9P3.sol\":1469:1992  contract Cone is ThreeDObject {... */\n          mstore(0x40, 0x80)\n          callvalue\n          dup1\n          iszero\n          tag_1\n          jumpi\n          0x00\n          dup1\n          revert\n        tag_1:\n          pop\n          jumpi(tag_2, lt(calldatasize, 0x04))\n          shr(0xe0, calldataload(0x00))\n          dup1\n          0x89e7995f\n          eq\n          tag_3\n          jumpi\n          dup1\n          0xc618a1e4\n          eq\n          tag_4\n          jumpi\n        tag_2:\n          0x00\n          dup1\n          revert\n            /* \"Day-09/D9P3.sol\":1729:1859  function surfaceArea() public view override returns (uint) {... */\n        tag_3:\n          tag_5\n          tag_6\n          jump\t// in\n        tag_5:\n          mload(0x40)\n          tag_7\n          swap2\n          swap1\n          tag_8\n          jump\t// in\n        tag_7:\n          mload(0x40)\n          dup1\n          swap2\n          sub\n          swap1\n          return\n            /* \"Day-09/D9P3.sol\":1865:1989  function volume() public view override returns (uint) {... */\n        tag_4:\n          tag_9\n          tag_10\n          jump\t// in\n        tag_9:\n          mload(0x40)\n          tag_11\n          swap2\n          swap1\n          tag_8\n          jump\t// in\n        tag_11:\n          mload(0x40)\n          dup1\n          swap2\n          sub\n          swap1\n          return\n            /* \"Day-09/D9P3.sol\":1729:1859  function surfaceArea() public view override returns (uint) {... */\n        tag_6:\n            /* \"Day-09/D9P3.sol\":1782:1786  uint */\n          0x00\n            /* \"Day-09/D9P3.sol\":1848:1851  100 */\n          0x64\n            /* \"Day-09/D9P3.sol\":1832:1843  slantHeight */\n          sload(0x02)\n            /* \"Day-09/D9P3.sol\":1823:1829  radius */\n          sload(0x00)\n            /* \"Day-09/D9P3.sol\":1823:1843  radius + slantHeight */\n          tag_13\n          swap2\n          swap1\n          tag_14\n          jump\t// in\n        tag_13:\n            /* \"Day-09/D9P3.sol\":1813:1819  radius */\n          sload(0x00)\n            /* \"Day-09/D9P3.sol\":1807:1810  314 */\n          0x013a\n            /* \"Day-09/D9P3.sol\":1807:1819  314 * radius */\n          tag_15\n          swap2\n          swap1\n          tag_16\n          jump\t// in\n        tag_15:\n            /* \"Day-09/D9P3.sol\":1807:1844  314 * radius * (radius + slantHeight) */\n          tag_17\n          swap2\n          swap1\n          tag_16\n          jump\t// in\n        tag_17:\n            /* \"Day-09/D9P3.sol\":1806:1851  (314 * radius * (radius + slantHeight)) / 100 */\n          tag_18\n          swap2\n          swap1\n          tag_19\n          jump\t// in\n        tag_18:\n            /* \"Day-09/D9P3.sol\":1799:1851  return (314 * radius * (radius + slantHeight)) / 100 */\n          swap1\n          pop\n            /* \"Day-09/D9P3.sol\":1729:1859  function surfaceArea() public view override returns (uint) {... */\n          swap1\n          jump\t// out\n            /* \"Day-09/D9P3.sol\":1865:1989  function volume() public view override returns (uint) {... */\n        tag_10:\n            /* \"Day-09/D9P3.sol\":1913:1917  uint */\n          0x00\n            /* \"Day-09/D9P3.sol\":1973:1980  3 * 100 */\n          0x012c\n            /* \"Day-09/D9P3.sol\":1962:1968  height */\n          sload(0x01)\n            /* \"Day-09/D9P3.sol\":1953:1959  radius */\n          sload(0x00)\n            /* \"Day-09/D9P3.sol\":1944:1950  radius */\n          sload(0x00)\n            /* \"Day-09/D9P3.sol\":1938:1941  314 */\n          0x013a\n            /* \"Day-09/D9P3.sol\":1938:1950  314 * radius */\n          tag_21\n          swap2\n          swap1\n          tag_16\n          jump\t// in\n        tag_21:\n            /* \"Day-09/D9P3.sol\":1938:1959  314 * radius * radius */\n          tag_22\n          swap2\n          swap1\n          tag_16\n          jump\t// in\n        tag_22:\n            /* \"Day-09/D9P3.sol\":1938:1968  314 * radius * radius * height */\n          tag_23\n          swap2\n          swap1\n          tag_16\n          jump\t// in\n        tag_23:\n            /* \"Day-09/D9P3.sol\":1937:1981  (314 * radius * radius * height) / (3 * 100) */\n          tag_24\n          swap2\n          swap1\n          tag_19\n          jump\t// in\n        tag_24:\n            /* \"Day-09/D9P3.sol\":1930:1981  return (314 * radius * radius * height) / (3 * 100) */\n          swap1\n          pop\n            /* \"Day-09/D9P3.sol\":1865:1989  function volume() public view override returns (uint) {... */\n          swap1\n          jump\t// out\n            /* \"#utility.yul\":7:84   */\n        tag_25:\n            /* \"#utility.yul\":44:51   */\n          0x00\n            /* \"#utility.yul\":73:78   */\n          dup2\n            /* \"#utility.yul\":62:78   */\n          swap1\n          pop\n            /* \"#utility.yul\":7:84   */\n          swap2\n          swap1\n          pop\n          jump\t// out\n            /* \"#utility.yul\":90:208   */\n        tag_26:\n            /* \"#utility.yul\":177:201   */\n          tag_32\n            /* \"#utility.yul\":195:200   */\n          dup2\n            /* \"#utility.yul\":177:201   */\n          tag_25\n          jump\t// in\n        tag_32:\n            /* \"#utility.yul\":172:175   */\n          dup3\n            /* \"#utility.yul\":165:202   */\n          mstore\n            /* \"#utility.yul\":90:208   */\n          pop\n          pop\n          jump\t// out\n            /* \"#utility.yul\":214:436   */\n        tag_8:\n            /* \"#utility.yul\":307:311   */\n          0x00\n            /* \"#utility.yul\":345:347   */\n          0x20\n            /* \"#utility.yul\":334:343   */\n          dup3\n            /* \"#utility.yul\":330:348   */\n          add\n            /* \"#utility.yul\":322:348   */\n          swap1\n          pop\n            /* \"#utility.yul\":358:429   */\n          tag_34\n            /* \"#utility.yul\":426:427   */\n          0x00\n            /* \"#utility.yul\":415:424   */\n          dup4\n            /* \"#utility.yul\":411:428   */\n          add\n            /* \"#utility.yul\":402:408   */\n          dup5\n            /* \"#utility.yul\":358:429   */\n          tag_26\n          jump\t// in\n        tag_34:\n            /* \"#utility.yul\":214:436   */\n          swap3\n          swap2\n          pop\n          pop\n          jump\t// out\n            /* \"#utility.yul\":442:622   */\n        tag_27:\n            /* \"#utility.yul\":490:567   */\n          0x4e487b7100000000000000000000000000000000000000000000000000000000\n            /* \"#utility.yul\":487:488   */\n          0x00\n            /* \"#utility.yul\":480:568   */\n          mstore\n            /* \"#utility.yul\":587:591   */\n          0x11\n            /* \"#utility.yul\":584:585   */\n          0x04\n            /* \"#utility.yul\":577:592   */\n          mstore\n            /* \"#utility.yul\":611:615   */\n          0x24\n            /* \"#utility.yul\":608:609   */\n          0x00\n            /* \"#utility.yul\":601:616   */\n          revert\n            /* \"#utility.yul\":628:819   */\n        tag_14:\n            /* \"#utility.yul\":668:671   */\n          0x00\n            /* \"#utility.yul\":687:707   */\n          tag_37\n            /* \"#utility.yul\":705:706   */\n          dup3\n            /* \"#utility.yul\":687:707   */\n          tag_25\n          jump\t// in\n        tag_37:\n            /* \"#utility.yul\":682:707   */\n          swap2\n          pop\n            /* \"#utility.yul\":721:741   */\n          tag_38\n            /* \"#utility.yul\":739:740   */\n          dup4\n            /* \"#utility.yul\":721:741   */\n          tag_25\n          jump\t// in\n        tag_38:\n            /* \"#utility.yul\":716:741   */\n          swap3\n          pop\n            /* \"#utility.yul\":764:765   */\n          dup3\n            /* \"#utility.yul\":761:762   */\n          dup3\n            /* \"#utility.yul\":757:766   */\n          add\n            /* \"#utility.yul\":750:766   */\n          swap1\n          pop\n            /* \"#utility.yul\":785:788   */\n          dup1\n            /* \"#utility.yul\":782:783   */\n          dup3\n            /* \"#utility.yul\":779:789   */\n          gt\n            /* \"#utility.yul\":776:812   */\n          iszero\n          tag_39\n          jumpi\n            /* \"#utility.yul\":792:810   */\n          tag_40\n          tag_27\n          jump\t// in\n        tag_40:\n            /* \"#utility.yul\":776:812   */\n        tag_39:\n            /* \"#utility.yul\":628:819   */\n          swap3\n          swap2\n          pop\n          pop\n          jump\t// out\n            /* \"#utility.yul\":825:1235   */\n        tag_16:\n            /* \"#utility.yul\":865:872   */\n          0x00\n            /* \"#utility.yul\":888:908   */\n          tag_42\n            /* \"#utility.yul\":906:907   */\n          dup3\n            /* \"#utility.yul\":888:908   */\n          tag_25\n          jump\t// in\n        tag_42:\n            /* \"#utility.yul\":883:908   */\n          swap2\n          pop\n            /* \"#utility.yul\":922:942   */\n          tag_43\n            /* \"#utility.yul\":940:941   */\n          dup4\n            /* \"#utility.yul\":922:942   */\n          tag_25\n          jump\t// in\n        tag_43:\n            /* \"#utility.yul\":917:942   */\n          swap3\n          pop\n            /* \"#utility.yul\":977:978   */\n          dup3\n            /* \"#utility.yul\":974:975   */\n          dup3\n            /* \"#utility.yul\":970:979   */\n          mul\n            /* \"#utility.yul\":999:1029   */\n          tag_44\n            /* \"#utility.yul\":1017:1028   */\n          dup2\n            /* \"#utility.yul\":999:1029   */\n          tag_25\n          jump\t// in\n        tag_44:\n            /* \"#utility.yul\":988:1029   */\n          swap2\n          pop\n            /* \"#utility.yul\":1178:1179   */\n          dup3\n            /* \"#utility.yul\":1169:1176   */\n          dup3\n            /* \"#utility.yul\":1165:1180   */\n          div\n            /* \"#utility.yul\":1162:1163   */\n          dup5\n            /* \"#utility.yul\":1159:1181   */\n          eq\n            /* \"#utility.yul\":1139:1140   */\n          dup4\n            /* \"#utility.yul\":1132:1141   */\n          iszero\n            /* \"#utility.yul\":1112:1195   */\n          or\n            /* \"#utility.yul\":1089:1228   */\n          tag_45\n          jumpi\n            /* \"#utility.yul\":1208:1226   */\n          tag_46\n          tag_27\n          jump\t// in\n        tag_46:\n            /* \"#utility.yul\":1089:1228   */\n        tag_45:\n            /* \"#utility.yul\":873:1235   */\n          pop\n            /* \"#utility.yul\":825:1235   */\n          swap3\n          swap2\n          pop\n          pop\n          jump\t// out\n            /* \"#utility.yul\":1241:1421   */\n        tag_28:\n            /* \"#utility.yul\":1289:1366   */\n          0x4e487b7100000000000000000000000000000000000000000000000000000000\n            /* \"#utility.yul\":1286:1287   */\n          0x00\n            /* \"#utility.yul\":1279:1367   */\n          mstore\n            /* \"#utility.yul\":1386:1390   */\n          0x12\n            /* \"#utility.yul\":1383:1384   */\n          0x04\n            /* \"#utility.yul\":1376:1391   */\n          mstore\n            /* \"#utility.yul\":1410:1414   */\n          0x24\n            /* \"#utility.yul\":1407:1408   */\n          0x00\n            /* \"#utility.yul\":1400:1415   */\n          revert\n            /* \"#utility.yul\":1427:1612   */\n        tag_19:\n            /* \"#utility.yul\":1467:1468   */\n          0x00\n            /* \"#utility.yul\":1484:1504   */\n          tag_49\n            /* \"#utility.yul\":1502:1503   */\n          dup3\n            /* \"#utility.yul\":1484:1504   */\n          tag_25\n          jump\t// in\n        tag_49:\n            /* \"#utility.yul\":1479:1504   */\n          swap2\n          pop\n            /* \"#utility.yul\":1518:1538   */\n          tag_50\n            /* \"#utility.yul\":1536:1537   */\n          dup4\n            /* \"#utility.yul\":1518:1538   */\n          tag_25\n          jump\t// in\n        tag_50:\n            /* \"#utility.yul\":1513:1538   */\n          swap3\n          pop\n            /* \"#utility.yul\":1557:1558   */\n          dup3\n            /* \"#utility.yul\":1547:1582   */\n          tag_51\n          jumpi\n            /* \"#utility.yul\":1562:1580   */\n          tag_52\n          tag_28\n          jump\t// in\n        tag_52:\n            /* \"#utility.yul\":1547:1582   */\n        tag_51:\n            /* \"#utility.yul\":1604:1605   */\n          dup3\n            /* \"#utility.yul\":1601:1602   */\n          dup3\n            /* \"#utility.yul\":1597:1606   */\n          div\n            /* \"#utility.yul\":1592:1606   */\n          swap1\n          pop\n            /* \"#utility.yul\":1427:1612   */\n          swap3\n          swap2\n          pop\n          pop\n          jump\t// out\n\n        auxdata: 0xa26469706673582212204c5615b6a6d0092001a0395d74fc2d4e8ba94f552397935b04d5733881754cd664736f6c634300081a0033\n    }\n}\n",
				"bytecode": {
					"linkReferences": {},
					"object": "608060405234801561000f575f80fd5b50604051611200380380611200833981810160405281019061003191906101ef565b8560405161003e90610191565b6100489190610287565b604051809103905ff080158015610061573d5f803e3d5ffd5b505f806101000a81548173ffffffffffffffffffffffffffffffffffffffff021916908373ffffffffffffffffffffffffffffffffffffffff16021790555084846040516100ae9061019e565b6100b99291906102a0565b604051809103905ff0801580156100d2573d5f803e3d5ffd5b5060015f6101000a81548173ffffffffffffffffffffffffffffffffffffffff021916908373ffffffffffffffffffffffffffffffffffffffff160217905550828282604051610121906101ab565b61012d939291906102c7565b604051809103905ff080158015610146573d5f803e3d5ffd5b5060025f6101000a81548173ffffffffffffffffffffffffffffffffffffffff021916908373ffffffffffffffffffffffffffffffffffffffff1602179055505050505050506102fc565b610227806109b883390190565b61030480610bdf83390190565b61031d80610ee383390190565b5f80fd5b5f819050919050565b6101ce816101bc565b81146101d8575f80fd5b50565b5f815190506101e9816101c5565b92915050565b5f805f805f8060c08789031215610209576102086101b8565b5b5f61021689828a016101db565b965050602061022789828a016101db565b955050604061023889828a016101db565b945050606061024989828a016101db565b935050608061025a89828a016101db565b92505060a061026b89828a016101db565b9150509295509295509295565b610281816101bc565b82525050565b5f60208201905061029a5f830184610278565b92915050565b5f6040820190506102b35f830185610278565b6102c06020830184610278565b9392505050565b5f6060820190506102da5f830186610278565b6102e76020830185610278565b6102f46040830184610278565b949350505050565b6106af806103095f395ff3fe608060405234801561000f575f80fd5b5060043610610055575f3560e01c80635c77121114610059578063a312363a14610077578063a35e7d2914610095578063cefb865a146100b3578063e07db016146100d3575b5f80fd5b6100616100f3565b60405161006e9190610548565b60405180910390f35b61007f610116565b60405161008c9190610581565b60405180910390f35b61009d61013b565b6040516100aa91906105ba565b60405180910390f35b6100bb610160565b6040516100ca939291906105eb565b60405180910390f35b6100db610317565b6040516100ea939291906105eb565b60405180910390f35b5f8054906101000a900473ffffffffffffffffffffffffffffffffffffffff1681565b60025f9054906101000a900473ffffffffffffffffffffffffffffffffffffffff1681565b60015f9054906101000a900473ffffffffffffffffffffffffffffffffffffffff1681565b5f805f805f9054906101000a900473ffffffffffffffffffffffffffffffffffffffff1673ffffffffffffffffffffffffffffffffffffffff1663c618a1e46040518163ffffffff1660e01b8152600401602060405180830381865afa1580156101cc573d5f803e3d5ffd5b505050506040513d601f19601f820116820180604052508101906101f0919061064e565b60015f9054906101000a900473ffffffffffffffffffffffffffffffffffffffff1673ffffffffffffffffffffffffffffffffffffffff1663c618a1e46040518163ffffffff1660e01b8152600401602060405180830381865afa15801561025a573d5f803e3d5ffd5b505050506040513d601f19601f8201168201806040525081019061027e919061064e565b60025f9054906101000a900473ffffffffffffffffffffffffffffffffffffffff1673ffffffffffffffffffffffffffffffffffffffff1663c618a1e46040518163ffffffff1660e01b8152600401602060405180830381865afa1580156102e8573d5f803e3d5ffd5b505050506040513d601f19601f8201168201806040525081019061030c919061064e565b925092509250909192565b5f805f805f9054906101000a900473ffffffffffffffffffffffffffffffffffffffff1673ffffffffffffffffffffffffffffffffffffffff166389e7995f6040518163ffffffff1660e01b8152600401602060405180830381865afa158015610383573d5f803e3d5ffd5b505050506040513d601f19601f820116820180604052508101906103a7919061064e565b60015f9054906101000a900473ffffffffffffffffffffffffffffffffffffffff1673ffffffffffffffffffffffffffffffffffffffff166389e7995f6040518163ffffffff1660e01b8152600401602060405180830381865afa158015610411573d5f803e3d5ffd5b505050506040513d601f19601f82011682018060405250810190610435919061064e565b60025f9054906101000a900473ffffffffffffffffffffffffffffffffffffffff1673ffffffffffffffffffffffffffffffffffffffff166389e7995f6040518163ffffffff1660e01b8152600401602060405180830381865afa15801561049f573d5f803e3d5ffd5b505050506040513d601f19601f820116820180604052508101906104c3919061064e565b925092509250909192565b5f73ffffffffffffffffffffffffffffffffffffffff82169050919050565b5f819050919050565b5f61051061050b610506846104ce565b6104ed565b6104ce565b9050919050565b5f610521826104f6565b9050919050565b5f61053282610517565b9050919050565b61054281610528565b82525050565b5f60208201905061055b5f830184610539565b92915050565b5f61056b82610517565b9050919050565b61057b81610561565b82525050565b5f6020820190506105945f830184610572565b92915050565b5f6105a482610517565b9050919050565b6105b48161059a565b82525050565b5f6020820190506105cd5f8301846105ab565b92915050565b5f819050919050565b6105e5816105d3565b82525050565b5f6060820190506105fe5f8301866105dc565b61060b60208301856105dc565b61061860408301846105dc565b949350505050565b5f80fd5b61062d816105d3565b8114610637575f80fd5b50565b5f8151905061064881610624565b92915050565b5f6020828403121561066357610662610620565b5b5f6106708482850161063a565b9150509291505056fea2646970667358221220923697cb41e5cb9b3ca3fc88700bee39781a0a683f208de47c30d8cdfd1004e364736f6c634300081a00336080604052348015600e575f80fd5b506040516102273803806102278339818101604052810190602e9190606b565b805f81905550506091565b5f80fd5b5f819050919050565b604d81603d565b81146056575f80fd5b50565b5f815190506065816046565b92915050565b5f60208284031215607d57607c6039565b5b5f6088848285016059565b91505092915050565b6101898061009e5f395ff3fe608060405234801561000f575f80fd5b5060043610610034575f3560e01c806389e7995f14610038578063c618a1e414610056575b5f80fd5b610040610074565b60405161004d91906100cc565b60405180910390f35b61005e610094565b60405161006b91906100cc565b60405180910390f35b5f80545f5460066100859190610112565b61008f9190610112565b905090565b5f80545f545f546100a59190610112565b6100af9190610112565b905090565b5f819050919050565b6100c6816100b4565b82525050565b5f6020820190506100df5f8301846100bd565b92915050565b7f4e487b71000000000000000000000000000000000000000000000000000000005f52601160045260245ffd5b5f61011c826100b4565b9150610127836100b4565b9250828202610135816100b4565b9150828204841483151761014c5761014b6100e5565b5b509291505056fea26469706673582212201c595d23ebadfea212014cbfc91feb4b452045b87d3e5d489c661092a0c8c95664736f6c634300081a00336080604052348015600e575f80fd5b506040516103043803806103048339818101604052810190602e91906073565b815f8190555080600181905550505060aa565b5f80fd5b5f819050919050565b6055816045565b8114605e575f80fd5b50565b5f81519050606d81604e565b92915050565b5f806040838503121560865760856041565b5b5f6091858286016061565b925050602060a0858286016061565b9150509250929050565b61024d806100b75f395ff3fe608060405234801561000f575f80fd5b5060043610610034575f3560e01c806389e7995f14610038578063c618a1e414610056575b5f80fd5b610040610074565b60405161004d9190610100565b60405180910390f35b61005e6100ae565b60405161006b9190610100565b60405180910390f35b5f60646001545f546100869190610146565b5f546102746100959190610179565b61009f9190610179565b6100a991906101e7565b905090565b5f60646001545f545f5461013a6100c59190610179565b6100cf9190610179565b6100d99190610179565b6100e391906101e7565b905090565b5f819050919050565b6100fa816100e8565b82525050565b5f6020820190506101135f8301846100f1565b92915050565b7f4e487b71000000000000000000000000000000000000000000000000000000005f52601160045260245ffd5b5f610150826100e8565b915061015b836100e8565b925082820190508082111561017357610172610119565b5b92915050565b5f610183826100e8565b915061018e836100e8565b925082820261019c816100e8565b915082820484148315176101b3576101b2610119565b5b5092915050565b7f4e487b71000000000000000000000000000000000000000000000000000000005f52601260045260245ffd5b5f6101f1826100e8565b91506101fc836100e8565b92508261020c5761020b6101ba565b5b82820490509291505056fea26469706673582212201631c00f72d3cf62620f4fc26a39f9eef527c2e98a4789124c4c2e5ef927cf3064736f6c634300081a00336080604052348015600e575f80fd5b5060405161031d38038061031d8339818101604052810190602e9190607b565b825f81905550816001819055508060028190555050505060c2565b5f80fd5b5f819050919050565b605d81604d565b81146066575f80fd5b50565b5f815190506075816056565b92915050565b5f805f60608486031215608f57608e6049565b5b5f609a868287016069565b935050602060a9868287016069565b925050604060b8868287016069565b9150509250925092565b61024e806100cf5f395ff3fe608060405234801561000f575f80fd5b5060043610610034575f3560e01c806389e7995f14610038578063c618a1e414610056575b5f80fd5b610040610074565b60405161004d9190610101565b60405180910390f35b61005e6100ae565b60405161006b9190610101565b60405180910390f35b5f60646002545f546100869190610147565b5f5461013a610095919061017a565b61009f919061017a565b6100a991906101e8565b905090565b5f61012c6001545f545f5461013a6100c6919061017a565b6100d0919061017a565b6100da919061017a565b6100e491906101e8565b905090565b5f819050919050565b6100fb816100e9565b82525050565b5f6020820190506101145f8301846100f2565b92915050565b7f4e487b71000000000000000000000000000000000000000000000000000000005f52601160045260245ffd5b5f610151826100e9565b915061015c836100e9565b92508282019050808211156101745761017361011a565b5b92915050565b5f610184826100e9565b915061018f836100e9565b925082820261019d816100e9565b915082820484148315176101b4576101b361011a565b5b5092915050565b7f4e487b71000000000000000000000000000000000000000000000000000000005f52601260045260245ffd5b5f6101f2826100e9565b91506101fd836100e9565b92508261020d5761020c6101bb565b5b82820490509291505056fea26469706673582212204c5615b6a6d0092001a0395d74fc2d4e8ba94f552397935b04d5733881754cd664736f6c634300081a0033",
					"opcodes": "PUSH1 0x80 PUSH1 0x40 MSTORE CALLVALUE DUP1 ISZERO PUSH2 0xF JUMPI PUSH0 DUP1 REVERT JUMPDEST POP PUSH1 0x40 MLOAD PUSH2 0x1200 CODESIZE SUB DUP1 PUSH2 0x1200 DUP4 CODECOPY DUP2 DUP2 ADD PUSH1 0x40 MSTORE DUP2 ADD SWAP1 PUSH2 0x31 SWAP2 SWAP1 PUSH2 0x1EF JUMP JUMPDEST DUP6 PUSH1 0x40 MLOAD PUSH2 0x3E SWAP1 PUSH2 0x191 JUMP JUMPDEST PUSH2 0x48 SWAP2 SWAP1 PUSH2 0x287 JUMP JUMPDEST PUSH1 0x40 MLOAD DUP1 SWAP2 SUB SWAP1 PUSH0 CREATE DUP1 ISZERO DUP1 ISZERO PUSH2 0x61 JUMPI RETURNDATASIZE PUSH0 DUP1 RETURNDATACOPY RETURNDATASIZE PUSH0 REVERT JUMPDEST POP PUSH0 DUP1 PUSH2 0x100 EXP DUP2 SLOAD DUP2 PUSH20 0xFFFFFFFFFFFFFFFFFFFFFFFFFFFFFFFFFFFFFFFF MUL NOT AND SWAP1 DUP4 PUSH20 0xFFFFFFFFFFFFFFFFFFFFFFFFFFFFFFFFFFFFFFFF AND MUL OR SWAP1 SSTORE POP DUP5 DUP5 PUSH1 0x40 MLOAD PUSH2 0xAE SWAP1 PUSH2 0x19E JUMP JUMPDEST PUSH2 0xB9 SWAP3 SWAP2 SWAP1 PUSH2 0x2A0 JUMP JUMPDEST PUSH1 0x40 MLOAD DUP1 SWAP2 SUB SWAP1 PUSH0 CREATE DUP1 ISZERO DUP1 ISZERO PUSH2 0xD2 JUMPI RETURNDATASIZE PUSH0 DUP1 RETURNDATACOPY RETURNDATASIZE PUSH0 REVERT JUMPDEST POP PUSH1 0x1 PUSH0 PUSH2 0x100 EXP DUP2 SLOAD DUP2 PUSH20 0xFFFFFFFFFFFFFFFFFFFFFFFFFFFFFFFFFFFFFFFF MUL NOT AND SWAP1 DUP4 PUSH20 0xFFFFFFFFFFFFFFFFFFFFFFFFFFFFFFFFFFFFFFFF AND MUL OR SWAP1 SSTORE POP DUP3 DUP3 DUP3 PUSH1 0x40 MLOAD PUSH2 0x121 SWAP1 PUSH2 0x1AB JUMP JUMPDEST PUSH2 0x12D SWAP4 SWAP3 SWAP2 SWAP1 PUSH2 0x2C7 JUMP JUMPDEST PUSH1 0x40 MLOAD DUP1 SWAP2 SUB SWAP1 PUSH0 CREATE DUP1 ISZERO DUP1 ISZERO PUSH2 0x146 JUMPI RETURNDATASIZE PUSH0 DUP1 RETURNDATACOPY RETURNDATASIZE PUSH0 REVERT JUMPDEST POP PUSH1 0x2 PUSH0 PUSH2 0x100 EXP DUP2 SLOAD DUP2 PUSH20 0xFFFFFFFFFFFFFFFFFFFFFFFFFFFFFFFFFFFFFFFF MUL NOT AND SWAP1 DUP4 PUSH20 0xFFFFFFFFFFFFFFFFFFFFFFFFFFFFFFFFFFFFFFFF AND MUL OR SWAP1 SSTORE POP POP POP POP POP POP POP PUSH2 0x2FC JUMP JUMPDEST PUSH2 0x227 DUP1 PUSH2 0x9B8 DUP4 CODECOPY ADD SWAP1 JUMP JUMPDEST PUSH2 0x304 DUP1 PUSH2 0xBDF DUP4 CODECOPY ADD SWAP1 JUMP JUMPDEST PUSH2 0x31D DUP1 PUSH2 0xEE3 DUP4 CODECOPY ADD SWAP1 JUMP JUMPDEST PUSH0 DUP1 REVERT JUMPDEST PUSH0 DUP2 SWAP1 POP SWAP2 SWAP1 POP JUMP JUMPDEST PUSH2 0x1CE DUP2 PUSH2 0x1BC JUMP JUMPDEST DUP2 EQ PUSH2 0x1D8 JUMPI PUSH0 DUP1 REVERT JUMPDEST POP JUMP JUMPDEST PUSH0 DUP2 MLOAD SWAP1 POP PUSH2 0x1E9 DUP2 PUSH2 0x1C5 JUMP JUMPDEST SWAP3 SWAP2 POP POP JUMP JUMPDEST PUSH0 DUP1 PUSH0 DUP1 PUSH0 DUP1 PUSH1 0xC0 DUP8 DUP10 SUB SLT ISZERO PUSH2 0x209 JUMPI PUSH2 0x208 PUSH2 0x1B8 JUMP JUMPDEST JUMPDEST PUSH0 PUSH2 0x216 DUP10 DUP3 DUP11 ADD PUSH2 0x1DB JUMP JUMPDEST SWAP7 POP POP PUSH1 0x20 PUSH2 0x227 DUP10 DUP3 DUP11 ADD PUSH2 0x1DB JUMP JUMPDEST SWAP6 POP POP PUSH1 0x40 PUSH2 0x238 DUP10 DUP3 DUP11 ADD PUSH2 0x1DB JUMP JUMPDEST SWAP5 POP POP PUSH1 0x60 PUSH2 0x249 DUP10 DUP3 DUP11 ADD PUSH2 0x1DB JUMP JUMPDEST SWAP4 POP POP PUSH1 0x80 PUSH2 0x25A DUP10 DUP3 DUP11 ADD PUSH2 0x1DB JUMP JUMPDEST SWAP3 POP POP PUSH1 0xA0 PUSH2 0x26B DUP10 DUP3 DUP11 ADD PUSH2 0x1DB JUMP JUMPDEST SWAP2 POP POP SWAP3 SWAP6 POP SWAP3 SWAP6 POP SWAP3 SWAP6 JUMP JUMPDEST PUSH2 0x281 DUP2 PUSH2 0x1BC JUMP JUMPDEST DUP3 MSTORE POP POP JUMP JUMPDEST PUSH0 PUSH1 0x20 DUP3 ADD SWAP1 POP PUSH2 0x29A PUSH0 DUP4 ADD DUP5 PUSH2 0x278 JUMP JUMPDEST SWAP3 SWAP2 POP POP JUMP JUMPDEST PUSH0 PUSH1 0x40 DUP3 ADD SWAP1 POP PUSH2 0x2B3 PUSH0 DUP4 ADD DUP6 PUSH2 0x278 JUMP JUMPDEST PUSH2 0x2C0 PUSH1 0x20 DUP4 ADD DUP5 PUSH2 0x278 JUMP JUMPDEST SWAP4 SWAP3 POP POP POP JUMP JUMPDEST PUSH0 PUSH1 0x60 DUP3 ADD SWAP1 POP PUSH2 0x2DA PUSH0 DUP4 ADD DUP7 PUSH2 0x278 JUMP JUMPDEST PUSH2 0x2E7 PUSH1 0x20 DUP4 ADD DUP6 PUSH2 0x278 JUMP JUMPDEST PUSH2 0x2F4 PUSH1 0x40 DUP4 ADD DUP5 PUSH2 0x278 JUMP JUMPDEST SWAP5 SWAP4 POP POP POP POP JUMP JUMPDEST PUSH2 0x6AF DUP1 PUSH2 0x309 PUSH0 CODECOPY PUSH0 RETURN INVALID PUSH1 0x80 PUSH1 0x40 MSTORE CALLVALUE DUP1 ISZERO PUSH2 0xF JUMPI PUSH0 DUP1 REVERT JUMPDEST POP PUSH1 0x4 CALLDATASIZE LT PUSH2 0x55 JUMPI PUSH0 CALLDATALOAD PUSH1 0xE0 SHR DUP1 PUSH4 0x5C771211 EQ PUSH2 0x59 JUMPI DUP1 PUSH4 0xA312363A EQ PUSH2 0x77 JUMPI DUP1 PUSH4 0xA35E7D29 EQ PUSH2 0x95 JUMPI DUP1 PUSH4 0xCEFB865A EQ PUSH2 0xB3 JUMPI DUP1 PUSH4 0xE07DB016 EQ PUSH2 0xD3 JUMPI JUMPDEST PUSH0 DUP1 REVERT JUMPDEST PUSH2 0x61 PUSH2 0xF3 JUMP JUMPDEST PUSH1 0x40 MLOAD PUSH2 0x6E SWAP2 SWAP1 PUSH2 0x548 JUMP JUMPDEST PUSH1 0x40 MLOAD DUP1 SWAP2 SUB SWAP1 RETURN JUMPDEST PUSH2 0x7F PUSH2 0x116 JUMP JUMPDEST PUSH1 0x40 MLOAD PUSH2 0x8C SWAP2 SWAP1 PUSH2 0x581 JUMP JUMPDEST PUSH1 0x40 MLOAD DUP1 SWAP2 SUB SWAP1 RETURN JUMPDEST PUSH2 0x9D PUSH2 0x13B JUMP JUMPDEST PUSH1 0x40 MLOAD PUSH2 0xAA SWAP2 SWAP1 PUSH2 0x5BA JUMP JUMPDEST PUSH1 0x40 MLOAD DUP1 SWAP2 SUB SWAP1 RETURN JUMPDEST PUSH2 0xBB PUSH2 0x160 JUMP JUMPDEST PUSH1 0x40 MLOAD PUSH2 0xCA SWAP4 SWAP3 SWAP2 SWAP1 PUSH2 0x5EB JUMP JUMPDEST PUSH1 0x40 MLOAD DUP1 SWAP2 SUB SWAP1 RETURN JUMPDEST PUSH2 0xDB PUSH2 0x317 JUMP JUMPDEST PUSH1 0x40 MLOAD PUSH2 0xEA SWAP4 SWAP3 SWAP2 SWAP1 PUSH2 0x5EB JUMP JUMPDEST PUSH1 0x40 MLOAD DUP1 SWAP2 SUB SWAP1 RETURN JUMPDEST PUSH0 DUP1 SLOAD SWAP1 PUSH2 0x100 EXP SWAP1 DIV PUSH20 0xFFFFFFFFFFFFFFFFFFFFFFFFFFFFFFFFFFFFFFFF AND DUP2 JUMP JUMPDEST PUSH1 0x2 PUSH0 SWAP1 SLOAD SWAP1 PUSH2 0x100 EXP SWAP1 DIV PUSH20 0xFFFFFFFFFFFFFFFFFFFFFFFFFFFFFFFFFFFFFFFF AND DUP2 JUMP JUMPDEST PUSH1 0x1 PUSH0 SWAP1 SLOAD SWAP1 PUSH2 0x100 EXP SWAP1 DIV PUSH20 0xFFFFFFFFFFFFFFFFFFFFFFFFFFFFFFFFFFFFFFFF AND DUP2 JUMP JUMPDEST PUSH0 DUP1 PUSH0 DUP1 PUSH0 SWAP1 SLOAD SWAP1 PUSH2 0x100 EXP SWAP1 DIV PUSH20 0xFFFFFFFFFFFFFFFFFFFFFFFFFFFFFFFFFFFFFFFF AND PUSH20 0xFFFFFFFFFFFFFFFFFFFFFFFFFFFFFFFFFFFFFFFF AND PUSH4 0xC618A1E4 PUSH1 0x40 MLOAD DUP2 PUSH4 0xFFFFFFFF AND PUSH1 0xE0 SHL DUP2 MSTORE PUSH1 0x4 ADD PUSH1 0x20 PUSH1 0x40 MLOAD DUP1 DUP4 SUB DUP2 DUP7 GAS STATICCALL ISZERO DUP1 ISZERO PUSH2 0x1CC JUMPI RETURNDATASIZE PUSH0 DUP1 RETURNDATACOPY RETURNDATASIZE PUSH0 REVERT JUMPDEST POP POP POP POP PUSH1 0x40 MLOAD RETURNDATASIZE PUSH1 0x1F NOT PUSH1 0x1F DUP3 ADD AND DUP3 ADD DUP1 PUSH1 0x40 MSTORE POP DUP2 ADD SWAP1 PUSH2 0x1F0 SWAP2 SWAP1 PUSH2 0x64E JUMP JUMPDEST PUSH1 0x1 PUSH0 SWAP1 SLOAD SWAP1 PUSH2 0x100 EXP SWAP1 DIV PUSH20 0xFFFFFFFFFFFFFFFFFFFFFFFFFFFFFFFFFFFFFFFF AND PUSH20 0xFFFFFFFFFFFFFFFFFFFFFFFFFFFFFFFFFFFFFFFF AND PUSH4 0xC618A1E4 PUSH1 0x40 MLOAD DUP2 PUSH4 0xFFFFFFFF AND PUSH1 0xE0 SHL DUP2 MSTORE PUSH1 0x4 ADD PUSH1 0x20 PUSH1 0x40 MLOAD DUP1 DUP4 SUB DUP2 DUP7 GAS STATICCALL ISZERO DUP1 ISZERO PUSH2 0x25A JUMPI RETURNDATASIZE PUSH0 DUP1 RETURNDATACOPY RETURNDATASIZE PUSH0 REVERT JUMPDEST POP POP POP POP PUSH1 0x40 MLOAD RETURNDATASIZE PUSH1 0x1F NOT PUSH1 0x1F DUP3 ADD AND DUP3 ADD DUP1 PUSH1 0x40 MSTORE POP DUP2 ADD SWAP1 PUSH2 0x27E SWAP2 SWAP1 PUSH2 0x64E JUMP JUMPDEST PUSH1 0x2 PUSH0 SWAP1 SLOAD SWAP1 PUSH2 0x100 EXP SWAP1 DIV PUSH20 0xFFFFFFFFFFFFFFFFFFFFFFFFFFFFFFFFFFFFFFFF AND PUSH20 0xFFFFFFFFFFFFFFFFFFFFFFFFFFFFFFFFFFFFFFFF AND PUSH4 0xC618A1E4 PUSH1 0x40 MLOAD DUP2 PUSH4 0xFFFFFFFF AND PUSH1 0xE0 SHL DUP2 MSTORE PUSH1 0x4 ADD PUSH1 0x20 PUSH1 0x40 MLOAD DUP1 DUP4 SUB DUP2 DUP7 GAS STATICCALL ISZERO DUP1 ISZERO PUSH2 0x2E8 JUMPI RETURNDATASIZE PUSH0 DUP1 RETURNDATACOPY RETURNDATASIZE PUSH0 REVERT JUMPDEST POP POP POP POP PUSH1 0x40 MLOAD RETURNDATASIZE PUSH1 0x1F NOT PUSH1 0x1F DUP3 ADD AND DUP3 ADD DUP1 PUSH1 0x40 MSTORE POP DUP2 ADD SWAP1 PUSH2 0x30C SWAP2 SWAP1 PUSH2 0x64E JUMP JUMPDEST SWAP3 POP SWAP3 POP SWAP3 POP SWAP1 SWAP2 SWAP3 JUMP JUMPDEST PUSH0 DUP1 PUSH0 DUP1 PUSH0 SWAP1 SLOAD SWAP1 PUSH2 0x100 EXP SWAP1 DIV PUSH20 0xFFFFFFFFFFFFFFFFFFFFFFFFFFFFFFFFFFFFFFFF AND PUSH20 0xFFFFFFFFFFFFFFFFFFFFFFFFFFFFFFFFFFFFFFFF AND PUSH4 0x89E7995F PUSH1 0x40 MLOAD DUP2 PUSH4 0xFFFFFFFF AND PUSH1 0xE0 SHL DUP2 MSTORE PUSH1 0x4 ADD PUSH1 0x20 PUSH1 0x40 MLOAD DUP1 DUP4 SUB DUP2 DUP7 GAS STATICCALL ISZERO DUP1 ISZERO PUSH2 0x383 JUMPI RETURNDATASIZE PUSH0 DUP1 RETURNDATACOPY RETURNDATASIZE PUSH0 REVERT JUMPDEST POP POP POP POP PUSH1 0x40 MLOAD RETURNDATASIZE PUSH1 0x1F NOT PUSH1 0x1F DUP3 ADD AND DUP3 ADD DUP1 PUSH1 0x40 MSTORE POP DUP2 ADD SWAP1 PUSH2 0x3A7 SWAP2 SWAP1 PUSH2 0x64E JUMP JUMPDEST PUSH1 0x1 PUSH0 SWAP1 SLOAD SWAP1 PUSH2 0x100 EXP SWAP1 DIV PUSH20 0xFFFFFFFFFFFFFFFFFFFFFFFFFFFFFFFFFFFFFFFF AND PUSH20 0xFFFFFFFFFFFFFFFFFFFFFFFFFFFFFFFFFFFFFFFF AND PUSH4 0x89E7995F PUSH1 0x40 MLOAD DUP2 PUSH4 0xFFFFFFFF AND PUSH1 0xE0 SHL DUP2 MSTORE PUSH1 0x4 ADD PUSH1 0x20 PUSH1 0x40 MLOAD DUP1 DUP4 SUB DUP2 DUP7 GAS STATICCALL ISZERO DUP1 ISZERO PUSH2 0x411 JUMPI RETURNDATASIZE PUSH0 DUP1 RETURNDATACOPY RETURNDATASIZE PUSH0 REVERT JUMPDEST POP POP POP POP PUSH1 0x40 MLOAD RETURNDATASIZE PUSH1 0x1F NOT PUSH1 0x1F DUP3 ADD AND DUP3 ADD DUP1 PUSH1 0x40 MSTORE POP DUP2 ADD SWAP1 PUSH2 0x435 SWAP2 SWAP1 PUSH2 0x64E JUMP JUMPDEST PUSH1 0x2 PUSH0 SWAP1 SLOAD SWAP1 PUSH2 0x100 EXP SWAP1 DIV PUSH20 0xFFFFFFFFFFFFFFFFFFFFFFFFFFFFFFFFFFFFFFFF AND PUSH20 0xFFFFFFFFFFFFFFFFFFFFFFFFFFFFFFFFFFFFFFFF AND PUSH4 0x89E7995F PUSH1 0x40 MLOAD DUP2 PUSH4 0xFFFFFFFF AND PUSH1 0xE0 SHL DUP2 MSTORE PUSH1 0x4 ADD PUSH1 0x20 PUSH1 0x40 MLOAD DUP1 DUP4 SUB DUP2 DUP7 GAS STATICCALL ISZERO DUP1 ISZERO PUSH2 0x49F JUMPI RETURNDATASIZE PUSH0 DUP1 RETURNDATACOPY RETURNDATASIZE PUSH0 REVERT JUMPDEST POP POP POP POP PUSH1 0x40 MLOAD RETURNDATASIZE PUSH1 0x1F NOT PUSH1 0x1F DUP3 ADD AND DUP3 ADD DUP1 PUSH1 0x40 MSTORE POP DUP2 ADD SWAP1 PUSH2 0x4C3 SWAP2 SWAP1 PUSH2 0x64E JUMP JUMPDEST SWAP3 POP SWAP3 POP SWAP3 POP SWAP1 SWAP2 SWAP3 JUMP JUMPDEST PUSH0 PUSH20 0xFFFFFFFFFFFFFFFFFFFFFFFFFFFFFFFFFFFFFFFF DUP3 AND SWAP1 POP SWAP2 SWAP1 POP JUMP JUMPDEST PUSH0 DUP2 SWAP1 POP SWAP2 SWAP1 POP JUMP JUMPDEST PUSH0 PUSH2 0x510 PUSH2 0x50B PUSH2 0x506 DUP5 PUSH2 0x4CE JUMP JUMPDEST PUSH2 0x4ED JUMP JUMPDEST PUSH2 0x4CE JUMP JUMPDEST SWAP1 POP SWAP2 SWAP1 POP JUMP JUMPDEST PUSH0 PUSH2 0x521 DUP3 PUSH2 0x4F6 JUMP JUMPDEST SWAP1 POP SWAP2 SWAP1 POP JUMP JUMPDEST PUSH0 PUSH2 0x532 DUP3 PUSH2 0x517 JUMP JUMPDEST SWAP1 POP SWAP2 SWAP1 POP JUMP JUMPDEST PUSH2 0x542 DUP2 PUSH2 0x528 JUMP JUMPDEST DUP3 MSTORE POP POP JUMP JUMPDEST PUSH0 PUSH1 0x20 DUP3 ADD SWAP1 POP PUSH2 0x55B PUSH0 DUP4 ADD DUP5 PUSH2 0x539 JUMP JUMPDEST SWAP3 SWAP2 POP POP JUMP JUMPDEST PUSH0 PUSH2 0x56B DUP3 PUSH2 0x517 JUMP JUMPDEST SWAP1 POP SWAP2 SWAP1 POP JUMP JUMPDEST PUSH2 0x57B DUP2 PUSH2 0x561 JUMP JUMPDEST DUP3 MSTORE POP POP JUMP JUMPDEST PUSH0 PUSH1 0x20 DUP3 ADD SWAP1 POP PUSH2 0x594 PUSH0 DUP4 ADD DUP5 PUSH2 0x572 JUMP JUMPDEST SWAP3 SWAP2 POP POP JUMP JUMPDEST PUSH0 PUSH2 0x5A4 DUP3 PUSH2 0x517 JUMP JUMPDEST SWAP1 POP SWAP2 SWAP1 POP JUMP JUMPDEST PUSH2 0x5B4 DUP2 PUSH2 0x59A JUMP JUMPDEST DUP3 MSTORE POP POP JUMP JUMPDEST PUSH0 PUSH1 0x20 DUP3 ADD SWAP1 POP PUSH2 0x5CD PUSH0 DUP4 ADD DUP5 PUSH2 0x5AB JUMP JUMPDEST SWAP3 SWAP2 POP POP JUMP JUMPDEST PUSH0 DUP2 SWAP1 POP SWAP2 SWAP1 POP JUMP JUMPDEST PUSH2 0x5E5 DUP2 PUSH2 0x5D3 JUMP JUMPDEST DUP3 MSTORE POP POP JUMP JUMPDEST PUSH0 PUSH1 0x60 DUP3 ADD SWAP1 POP PUSH2 0x5FE PUSH0 DUP4 ADD DUP7 PUSH2 0x5DC JUMP JUMPDEST PUSH2 0x60B PUSH1 0x20 DUP4 ADD DUP6 PUSH2 0x5DC JUMP JUMPDEST PUSH2 0x618 PUSH1 0x40 DUP4 ADD DUP5 PUSH2 0x5DC JUMP JUMPDEST SWAP5 SWAP4 POP POP POP POP JUMP JUMPDEST PUSH0 DUP1 REVERT JUMPDEST PUSH2 0x62D DUP2 PUSH2 0x5D3 JUMP JUMPDEST DUP2 EQ PUSH2 0x637 JUMPI PUSH0 DUP1 REVERT JUMPDEST POP JUMP JUMPDEST PUSH0 DUP2 MLOAD SWAP1 POP PUSH2 0x648 DUP2 PUSH2 0x624 JUMP JUMPDEST SWAP3 SWAP2 POP POP JUMP JUMPDEST PUSH0 PUSH1 0x20 DUP3 DUP5 SUB SLT ISZERO PUSH2 0x663 JUMPI PUSH2 0x662 PUSH2 0x620 JUMP JUMPDEST JUMPDEST PUSH0 PUSH2 0x670 DUP5 DUP3 DUP6 ADD PUSH2 0x63A JUMP JUMPDEST SWAP2 POP POP SWAP3 SWAP2 POP POP JUMP INVALID LOG2 PUSH5 0x6970667358 0x22 SLT KECCAK256 SWAP3 CALLDATASIZE SWAP8 0xCB COINBASE 0xE5 0xCB SWAP12 EXTCODECOPY LOG3 0xFC DUP9 PUSH17 0xBEE39781A0A683F208DE47C30D8CDFD10 DIV 0xE3 PUSH5 0x736F6C6343 STOP ADDMOD BYTE STOP CALLER PUSH1 0x80 PUSH1 0x40 MSTORE CALLVALUE DUP1 ISZERO PUSH1 0xE JUMPI PUSH0 DUP1 REVERT JUMPDEST POP PUSH1 0x40 MLOAD PUSH2 0x227 CODESIZE SUB DUP1 PUSH2 0x227 DUP4 CODECOPY DUP2 DUP2 ADD PUSH1 0x40 MSTORE DUP2 ADD SWAP1 PUSH1 0x2E SWAP2 SWAP1 PUSH1 0x6B JUMP JUMPDEST DUP1 PUSH0 DUP2 SWAP1 SSTORE POP POP PUSH1 0x91 JUMP JUMPDEST PUSH0 DUP1 REVERT JUMPDEST PUSH0 DUP2 SWAP1 POP SWAP2 SWAP1 POP JUMP JUMPDEST PUSH1 0x4D DUP2 PUSH1 0x3D JUMP JUMPDEST DUP2 EQ PUSH1 0x56 JUMPI PUSH0 DUP1 REVERT JUMPDEST POP JUMP JUMPDEST PUSH0 DUP2 MLOAD SWAP1 POP PUSH1 0x65 DUP2 PUSH1 0x46 JUMP JUMPDEST SWAP3 SWAP2 POP POP JUMP JUMPDEST PUSH0 PUSH1 0x20 DUP3 DUP5 SUB SLT ISZERO PUSH1 0x7D JUMPI PUSH1 0x7C PUSH1 0x39 JUMP JUMPDEST JUMPDEST PUSH0 PUSH1 0x88 DUP5 DUP3 DUP6 ADD PUSH1 0x59 JUMP JUMPDEST SWAP2 POP POP SWAP3 SWAP2 POP POP JUMP JUMPDEST PUSH2 0x189 DUP1 PUSH2 0x9E PUSH0 CODECOPY PUSH0 RETURN INVALID PUSH1 0x80 PUSH1 0x40 MSTORE CALLVALUE DUP1 ISZERO PUSH2 0xF JUMPI PUSH0 DUP1 REVERT JUMPDEST POP PUSH1 0x4 CALLDATASIZE LT PUSH2 0x34 JUMPI PUSH0 CALLDATALOAD PUSH1 0xE0 SHR DUP1 PUSH4 0x89E7995F EQ PUSH2 0x38 JUMPI DUP1 PUSH4 0xC618A1E4 EQ PUSH2 0x56 JUMPI JUMPDEST PUSH0 DUP1 REVERT JUMPDEST PUSH2 0x40 PUSH2 0x74 JUMP JUMPDEST PUSH1 0x40 MLOAD PUSH2 0x4D SWAP2 SWAP1 PUSH2 0xCC JUMP JUMPDEST PUSH1 0x40 MLOAD DUP1 SWAP2 SUB SWAP1 RETURN JUMPDEST PUSH2 0x5E PUSH2 0x94 JUMP JUMPDEST PUSH1 0x40 MLOAD PUSH2 0x6B SWAP2 SWAP1 PUSH2 0xCC JUMP JUMPDEST PUSH1 0x40 MLOAD DUP1 SWAP2 SUB SWAP1 RETURN JUMPDEST PUSH0 DUP1 SLOAD PUSH0 SLOAD PUSH1 0x6 PUSH2 0x85 SWAP2 SWAP1 PUSH2 0x112 JUMP JUMPDEST PUSH2 0x8F SWAP2 SWAP1 PUSH2 0x112 JUMP JUMPDEST SWAP1 POP SWAP1 JUMP JUMPDEST PUSH0 DUP1 SLOAD PUSH0 SLOAD PUSH0 SLOAD PUSH2 0xA5 SWAP2 SWAP1 PUSH2 0x112 JUMP JUMPDEST PUSH2 0xAF SWAP2 SWAP1 PUSH2 0x112 JUMP JUMPDEST SWAP1 POP SWAP1 JUMP JUMPDEST PUSH0 DUP2 SWAP1 POP SWAP2 SWAP1 POP JUMP JUMPDEST PUSH2 0xC6 DUP2 PUSH2 0xB4 JUMP JUMPDEST DUP3 MSTORE POP POP JUMP JUMPDEST PUSH0 PUSH1 0x20 DUP3 ADD SWAP1 POP PUSH2 0xDF PUSH0 DUP4 ADD DUP5 PUSH2 0xBD JUMP JUMPDEST SWAP3 SWAP2 POP POP JUMP JUMPDEST PUSH32 0x4E487B7100000000000000000000000000000000000000000000000000000000 PUSH0 MSTORE PUSH1 0x11 PUSH1 0x4 MSTORE PUSH1 0x24 PUSH0 REVERT JUMPDEST PUSH0 PUSH2 0x11C DUP3 PUSH2 0xB4 JUMP JUMPDEST SWAP2 POP PUSH2 0x127 DUP4 PUSH2 0xB4 JUMP JUMPDEST SWAP3 POP DUP3 DUP3 MUL PUSH2 0x135 DUP2 PUSH2 0xB4 JUMP JUMPDEST SWAP2 POP DUP3 DUP3 DIV DUP5 EQ DUP4 ISZERO OR PUSH2 0x14C JUMPI PUSH2 0x14B PUSH2 0xE5 JUMP JUMPDEST JUMPDEST POP SWAP3 SWAP2 POP POP JUMP INVALID LOG2 PUSH5 0x6970667358 0x22 SLT KECCAK256 SHR MSIZE TSTORE 0x23 0xEB 0xAD INVALID LOG2 SLT ADD 0x4C 0xBF 0xC9 0x1F 0xEB 0x4B GASLIMIT KECCAK256 GASLIMIT 0xB8 PUSH30 0x3E5D489C661092A0C8C95664736F6C634300081A00336080604052348015 PUSH1 0xE JUMPI PUSH0 DUP1 REVERT JUMPDEST POP PUSH1 0x40 MLOAD PUSH2 0x304 CODESIZE SUB DUP1 PUSH2 0x304 DUP4 CODECOPY DUP2 DUP2 ADD PUSH1 0x40 MSTORE DUP2 ADD SWAP1 PUSH1 0x2E SWAP2 SWAP1 PUSH1 0x73 JUMP JUMPDEST DUP2 PUSH0 DUP2 SWAP1 SSTORE POP DUP1 PUSH1 0x1 DUP2 SWAP1 SSTORE POP POP POP PUSH1 0xAA JUMP JUMPDEST PUSH0 DUP1 REVERT JUMPDEST PUSH0 DUP2 SWAP1 POP SWAP2 SWAP1 POP JUMP JUMPDEST PUSH1 0x55 DUP2 PUSH1 0x45 JUMP JUMPDEST DUP2 EQ PUSH1 0x5E JUMPI PUSH0 DUP1 REVERT JUMPDEST POP JUMP JUMPDEST PUSH0 DUP2 MLOAD SWAP1 POP PUSH1 0x6D DUP2 PUSH1 0x4E JUMP JUMPDEST SWAP3 SWAP2 POP POP JUMP JUMPDEST PUSH0 DUP1 PUSH1 0x40 DUP4 DUP6 SUB SLT ISZERO PUSH1 0x86 JUMPI PUSH1 0x85 PUSH1 0x41 JUMP JUMPDEST JUMPDEST PUSH0 PUSH1 0x91 DUP6 DUP3 DUP7 ADD PUSH1 0x61 JUMP JUMPDEST SWAP3 POP POP PUSH1 0x20 PUSH1 0xA0 DUP6 DUP3 DUP7 ADD PUSH1 0x61 JUMP JUMPDEST SWAP2 POP POP SWAP3 POP SWAP3 SWAP1 POP JUMP JUMPDEST PUSH2 0x24D DUP1 PUSH2 0xB7 PUSH0 CODECOPY PUSH0 RETURN INVALID PUSH1 0x80 PUSH1 0x40 MSTORE CALLVALUE DUP1 ISZERO PUSH2 0xF JUMPI PUSH0 DUP1 REVERT JUMPDEST POP PUSH1 0x4 CALLDATASIZE LT PUSH2 0x34 JUMPI PUSH0 CALLDATALOAD PUSH1 0xE0 SHR DUP1 PUSH4 0x89E7995F EQ PUSH2 0x38 JUMPI DUP1 PUSH4 0xC618A1E4 EQ PUSH2 0x56 JUMPI JUMPDEST PUSH0 DUP1 REVERT JUMPDEST PUSH2 0x40 PUSH2 0x74 JUMP JUMPDEST PUSH1 0x40 MLOAD PUSH2 0x4D SWAP2 SWAP1 PUSH2 0x100 JUMP JUMPDEST PUSH1 0x40 MLOAD DUP1 SWAP2 SUB SWAP1 RETURN JUMPDEST PUSH2 0x5E PUSH2 0xAE JUMP JUMPDEST PUSH1 0x40 MLOAD PUSH2 0x6B SWAP2 SWAP1 PUSH2 0x100 JUMP JUMPDEST PUSH1 0x40 MLOAD DUP1 SWAP2 SUB SWAP1 RETURN JUMPDEST PUSH0 PUSH1 0x64 PUSH1 0x1 SLOAD PUSH0 SLOAD PUSH2 0x86 SWAP2 SWAP1 PUSH2 0x146 JUMP JUMPDEST PUSH0 SLOAD PUSH2 0x274 PUSH2 0x95 SWAP2 SWAP1 PUSH2 0x179 JUMP JUMPDEST PUSH2 0x9F SWAP2 SWAP1 PUSH2 0x179 JUMP JUMPDEST PUSH2 0xA9 SWAP2 SWAP1 PUSH2 0x1E7 JUMP JUMPDEST SWAP1 POP SWAP1 JUMP JUMPDEST PUSH0 PUSH1 0x64 PUSH1 0x1 SLOAD PUSH0 SLOAD PUSH0 SLOAD PUSH2 0x13A PUSH2 0xC5 SWAP2 SWAP1 PUSH2 0x179 JUMP JUMPDEST PUSH2 0xCF SWAP2 SWAP1 PUSH2 0x179 JUMP JUMPDEST PUSH2 0xD9 SWAP2 SWAP1 PUSH2 0x179 JUMP JUMPDEST PUSH2 0xE3 SWAP2 SWAP1 PUSH2 0x1E7 JUMP JUMPDEST SWAP1 POP SWAP1 JUMP JUMPDEST PUSH0 DUP2 SWAP1 POP SWAP2 SWAP1 POP JUMP JUMPDEST PUSH2 0xFA DUP2 PUSH2 0xE8 JUMP JUMPDEST DUP3 MSTORE POP POP JUMP JUMPDEST PUSH0 PUSH1 0x20 DUP3 ADD SWAP1 POP PUSH2 0x113 PUSH0 DUP4 ADD DUP5 PUSH2 0xF1 JUMP JUMPDEST SWAP3 SWAP2 POP POP JUMP JUMPDEST PUSH32 0x4E487B7100000000000000000000000000000000000000000000000000000000 PUSH0 MSTORE PUSH1 0x11 PUSH1 0x4 MSTORE PUSH1 0x24 PUSH0 REVERT JUMPDEST PUSH0 PUSH2 0x150 DUP3 PUSH2 0xE8 JUMP JUMPDEST SWAP2 POP PUSH2 0x15B DUP4 PUSH2 0xE8 JUMP JUMPDEST SWAP3 POP DUP3 DUP3 ADD SWAP1 POP DUP1 DUP3 GT ISZERO PUSH2 0x173 JUMPI PUSH2 0x172 PUSH2 0x119 JUMP JUMPDEST JUMPDEST SWAP3 SWAP2 POP POP JUMP JUMPDEST PUSH0 PUSH2 0x183 DUP3 PUSH2 0xE8 JUMP JUMPDEST SWAP2 POP PUSH2 0x18E DUP4 PUSH2 0xE8 JUMP JUMPDEST SWAP3 POP DUP3 DUP3 MUL PUSH2 0x19C DUP2 PUSH2 0xE8 JUMP JUMPDEST SWAP2 POP DUP3 DUP3 DIV DUP5 EQ DUP4 ISZERO OR PUSH2 0x1B3 JUMPI PUSH2 0x1B2 PUSH2 0x119 JUMP JUMPDEST JUMPDEST POP SWAP3 SWAP2 POP POP JUMP JUMPDEST PUSH32 0x4E487B7100000000000000000000000000000000000000000000000000000000 PUSH0 MSTORE PUSH1 0x12 PUSH1 0x4 MSTORE PUSH1 0x24 PUSH0 REVERT JUMPDEST PUSH0 PUSH2 0x1F1 DUP3 PUSH2 0xE8 JUMP JUMPDEST SWAP2 POP PUSH2 0x1FC DUP4 PUSH2 0xE8 JUMP JUMPDEST SWAP3 POP DUP3 PUSH2 0x20C JUMPI PUSH2 0x20B PUSH2 0x1BA JUMP JUMPDEST JUMPDEST DUP3 DUP3 DIV SWAP1 POP SWAP3 SWAP2 POP POP JUMP INVALID LOG2 PUSH5 0x6970667358 0x22 SLT KECCAK256 AND BALANCE 0xC0 0xF PUSH19 0xD3CF62620F4FC26A39F9EEF527C2E98A478912 0x4C 0x4C 0x2E MCOPY 0xF9 0x27 0xCF ADDRESS PUSH5 0x736F6C6343 STOP ADDMOD BYTE STOP CALLER PUSH1 0x80 PUSH1 0x40 MSTORE CALLVALUE DUP1 ISZERO PUSH1 0xE JUMPI PUSH0 DUP1 REVERT JUMPDEST POP PUSH1 0x40 MLOAD PUSH2 0x31D CODESIZE SUB DUP1 PUSH2 0x31D DUP4 CODECOPY DUP2 DUP2 ADD PUSH1 0x40 MSTORE DUP2 ADD SWAP1 PUSH1 0x2E SWAP2 SWAP1 PUSH1 0x7B JUMP JUMPDEST DUP3 PUSH0 DUP2 SWAP1 SSTORE POP DUP2 PUSH1 0x1 DUP2 SWAP1 SSTORE POP DUP1 PUSH1 0x2 DUP2 SWAP1 SSTORE POP POP POP POP PUSH1 0xC2 JUMP JUMPDEST PUSH0 DUP1 REVERT JUMPDEST PUSH0 DUP2 SWAP1 POP SWAP2 SWAP1 POP JUMP JUMPDEST PUSH1 0x5D DUP2 PUSH1 0x4D JUMP JUMPDEST DUP2 EQ PUSH1 0x66 JUMPI PUSH0 DUP1 REVERT JUMPDEST POP JUMP JUMPDEST PUSH0 DUP2 MLOAD SWAP1 POP PUSH1 0x75 DUP2 PUSH1 0x56 JUMP JUMPDEST SWAP3 SWAP2 POP POP JUMP JUMPDEST PUSH0 DUP1 PUSH0 PUSH1 0x60 DUP5 DUP7 SUB SLT ISZERO PUSH1 0x8F JUMPI PUSH1 0x8E PUSH1 0x49 JUMP JUMPDEST JUMPDEST PUSH0 PUSH1 0x9A DUP7 DUP3 DUP8 ADD PUSH1 0x69 JUMP JUMPDEST SWAP4 POP POP PUSH1 0x20 PUSH1 0xA9 DUP7 DUP3 DUP8 ADD PUSH1 0x69 JUMP JUMPDEST SWAP3 POP POP PUSH1 0x40 PUSH1 0xB8 DUP7 DUP3 DUP8 ADD PUSH1 0x69 JUMP JUMPDEST SWAP2 POP POP SWAP3 POP SWAP3 POP SWAP3 JUMP JUMPDEST PUSH2 0x24E DUP1 PUSH2 0xCF PUSH0 CODECOPY PUSH0 RETURN INVALID PUSH1 0x80 PUSH1 0x40 MSTORE CALLVALUE DUP1 ISZERO PUSH2 0xF JUMPI PUSH0 DUP1 REVERT JUMPDEST POP PUSH1 0x4 CALLDATASIZE LT PUSH2 0x34 JUMPI PUSH0 CALLDATALOAD PUSH1 0xE0 SHR DUP1 PUSH4 0x89E7995F EQ PUSH2 0x38 JUMPI DUP1 PUSH4 0xC618A1E4 EQ PUSH2 0x56 JUMPI JUMPDEST PUSH0 DUP1 REVERT JUMPDEST PUSH2 0x40 PUSH2 0x74 JUMP JUMPDEST PUSH1 0x40 MLOAD PUSH2 0x4D SWAP2 SWAP1 PUSH2 0x101 JUMP JUMPDEST PUSH1 0x40 MLOAD DUP1 SWAP2 SUB SWAP1 RETURN JUMPDEST PUSH2 0x5E PUSH2 0xAE JUMP JUMPDEST PUSH1 0x40 MLOAD PUSH2 0x6B SWAP2 SWAP1 PUSH2 0x101 JUMP JUMPDEST PUSH1 0x40 MLOAD DUP1 SWAP2 SUB SWAP1 RETURN JUMPDEST PUSH0 PUSH1 0x64 PUSH1 0x2 SLOAD PUSH0 SLOAD PUSH2 0x86 SWAP2 SWAP1 PUSH2 0x147 JUMP JUMPDEST PUSH0 SLOAD PUSH2 0x13A PUSH2 0x95 SWAP2 SWAP1 PUSH2 0x17A JUMP JUMPDEST PUSH2 0x9F SWAP2 SWAP1 PUSH2 0x17A JUMP JUMPDEST PUSH2 0xA9 SWAP2 SWAP1 PUSH2 0x1E8 JUMP JUMPDEST SWAP1 POP SWAP1 JUMP JUMPDEST PUSH0 PUSH2 0x12C PUSH1 0x1 SLOAD PUSH0 SLOAD PUSH0 SLOAD PUSH2 0x13A PUSH2 0xC6 SWAP2 SWAP1 PUSH2 0x17A JUMP JUMPDEST PUSH2 0xD0 SWAP2 SWAP1 PUSH2 0x17A JUMP JUMPDEST PUSH2 0xDA SWAP2 SWAP1 PUSH2 0x17A JUMP JUMPDEST PUSH2 0xE4 SWAP2 SWAP1 PUSH2 0x1E8 JUMP JUMPDEST SWAP1 POP SWAP1 JUMP JUMPDEST PUSH0 DUP2 SWAP1 POP SWAP2 SWAP1 POP JUMP JUMPDEST PUSH2 0xFB DUP2 PUSH2 0xE9 JUMP JUMPDEST DUP3 MSTORE POP POP JUMP JUMPDEST PUSH0 PUSH1 0x20 DUP3 ADD SWAP1 POP PUSH2 0x114 PUSH0 DUP4 ADD DUP5 PUSH2 0xF2 JUMP JUMPDEST SWAP3 SWAP2 POP POP JUMP JUMPDEST PUSH32 0x4E487B7100000000000000000000000000000000000000000000000000000000 PUSH0 MSTORE PUSH1 0x11 PUSH1 0x4 MSTORE PUSH1 0x24 PUSH0 REVERT JUMPDEST PUSH0 PUSH2 0x151 DUP3 PUSH2 0xE9 JUMP JUMPDEST SWAP2 POP PUSH2 0x15C DUP4 PUSH2 0xE9 JUMP JUMPDEST SWAP3 POP DUP3 DUP3 ADD SWAP1 POP DUP1 DUP3 GT ISZERO PUSH2 0x174 JUMPI PUSH2 0x173 PUSH2 0x11A JUMP JUMPDEST JUMPDEST SWAP3 SWAP2 POP POP JUMP JUMPDEST PUSH0 PUSH2 0x184 DUP3 PUSH2 0xE9 JUMP JUMPDEST SWAP2 POP PUSH2 0x18F DUP4 PUSH2 0xE9 JUMP JUMPDEST SWAP3 POP DUP3 DUP3 MUL PUSH2 0x19D DUP2 PUSH2 0xE9 JUMP JUMPDEST SWAP2 POP DUP3 DUP3 DIV DUP5 EQ DUP4 ISZERO OR PUSH2 0x1B4 JUMPI PUSH2 0x1B3 PUSH2 0x11A JUMP JUMPDEST JUMPDEST POP SWAP3 SWAP2 POP POP JUMP JUMPDEST PUSH32 0x4E487B7100000000000000000000000000000000000000000000000000000000 PUSH0 MSTORE PUSH1 0x12 PUSH1 0x4 MSTORE PUSH1 0x24 PUSH0 REVERT JUMPDEST PUSH0 PUSH2 0x1F2 DUP3 PUSH2 0xE9 JUMP JUMPDEST SWAP2 POP PUSH2 0x1FD DUP4 PUSH2 0xE9 JUMP JUMPDEST SWAP3 POP DUP3 PUSH2 0x20D JUMPI PUSH2 0x20C PUSH2 0x1BB JUMP JUMPDEST JUMPDEST DUP3 DUP3 DIV SWAP1 POP SWAP3 SWAP2 POP POP JUMP INVALID LOG2 PUSH5 0x6970667358 0x22 SLT KECCAK256 0x4C JUMP ISZERO 0xB6 0xA6 0xD0 MULMOD KECCAK256 ADD LOG0 CODECOPY TSTORE PUSH21 0xFC2D4E8BA94F552397935B04D5733881754CD66473 PUSH16 0x6C634300081A00330000000000000000 "
				},
				"gasEstimates": {
					"creation": {
						"codeDepositCost": "342200",
						"executionCost": "infinite",
						"totalCost": "infinite"
					},
					"external": {
						"cone()": "infinite",
						"cube()": "infinite",
						"cylinder()": "infinite",
						"getSurfaceAreas()": "infinite",
						"getVolumes()": "infinite"
					}
				},
				"methodIdentifiers": {
					"cone()": "a312363a",
					"cube()": "5c771211",
					"cylinder()": "a35e7d29",
					"getSurfaceAreas()": "e07db016",
					"getVolumes()": "cefb865a"
				}
			},
			"storageLayout": {
				"storage": [
					{
						"astId": 253,
						"contract": "Day-09/D9P3.sol:MainContract",
						"label": "cube",
						"offset": 0,
						"slot": "0",
						"type": "t_contract(Cube)119"
					},
					{
						"astId": 256,
						"contract": "Day-09/D9P3.sol:MainContract",
						"label": "cylinder",
						"offset": 0,
						"slot": "1",
						"type": "t_contract(Cylinder)179"
					},
					{
						"astId": 259,
						"contract": "Day-09/D9P3.sol:MainContract",
						"label": "cone",
						"offset": 0,
						"slot": "2",
						"type": "t_contract(Cone)250"
					}
				],
				"types": {
					"t_contract(Cone)250": {
						"encoding": "inplace",
						"label": "contract Cone",
						"numberOfBytes": "20"
					},
					"t_contract(Cube)119": {
						"encoding": "inplace",
						"label": "contract Cube",
						"numberOfBytes": "20"
					},
					"t_contract(Cylinder)179": {
						"encoding": "inplace",
						"label": "contract Cylinder",
						"numberOfBytes": "20"
					}
				}
			},
			"userdoc": {
				"kind": "user",
				"methods": {},
				"version": 1
			}
		}
	}
}