{
	"Day-09/D9P3.sol": {
		"Cone": {
			"abi": [
				{
					"inputs": [
						{
							"internalType": "uint256",
							"name": "_radius",
							"type": "uint256"
						},
						{
							"internalType": "uint256",
							"name": "_height",
							"type": "uint256"
						},
						{
							"internalType": "uint256",
							"name": "_slantHeight",
							"type": "uint256"
						}
					],
					"stateMutability": "nonpayable",
					"type": "constructor"
				},
				{
					"inputs": [],
					"name": "surfaceArea",
					"outputs": [
						{
							"internalType": "uint256",
							"name": "",
							"type": "uint256"
						}
					],
					"stateMutability": "view",
					"type": "function"
				},
				{
					"inputs": [],
					"name": "volume",
					"outputs": [
						{
							"internalType": "uint256",
							"name": "",
							"type": "uint256"
						}
					],
					"stateMutability": "view",
					"type": "function"
				}
			],
			"devdoc": {
				"kind": "dev",
				"methods": {},
				"version": 1
			},
			"evm": {
				"assembly": "    /* \"Day-09/D9P3.sol\":1469:1992  contract Cone is ThreeDObject {... */\n  mstore(0x40, 0x80)\n    /* \"Day-09/D9P3.sol\":1565:1723  constructor(uint _radius, uint _height, uint _slantHeight) {... */\n  callvalue\n  dup1\n  iszero\n  tag_1\n  jumpi\n  0x00\n  dup1\n  revert\ntag_1:\n  pop\n  mload(0x40)\n  sub(codesize, bytecodeSize)\n  dup1\n  bytecodeSize\n  dup4\n  codecopy\n  dup2\n  dup2\n  add\n  0x40\n  mstore\n  dup2\n  add\n  swap1\n  tag_2\n  swap2\n  swap1\n  tag_3\n  jump\t// in\ntag_2:\n    /* \"Day-09/D9P3.sol\":1644:1651  _radius */\n  dup3\n    /* \"Day-09/D9P3.sol\":1635:1641  radius */\n  0x00\n    /* \"Day-09/D9P3.sol\":1635:1651  radius = _radius */\n  dup2\n  swap1\n  sstore\n  pop\n    /* \"Day-09/D9P3.sol\":1671:1678  _height */\n  dup2\n    /* \"Day-09/D9P3.sol\":1662:1668  height */\n  0x01\n    /* \"Day-09/D9P3.sol\":1662:1678  height = _height */\n  dup2\n  swap1\n  sstore\n  pop\n    /* \"Day-09/D9P3.sol\":1703:1715  _slantHeight */\n  dup1\n    /* \"Day-09/D9P3.sol\":1689:1700  slantHeight */\n  0x02\n    /* \"Day-09/D9P3.sol\":1689:1715  slantHeight = _slantHeight */\n  dup2\n  swap1\n  sstore\n  pop\n    /* \"Day-09/D9P3.sol\":1565:1723  constructor(uint _radius, uint _height, uint _slantHeight) {... */\n  pop\n  pop\n  pop\n    /* \"Day-09/D9P3.sol\":1469:1992  contract Cone is ThreeDObject {... */\n  jump(tag_6)\n    /* \"#utility.yul\":88:205   */\ntag_8:\n    /* \"#utility.yul\":197:198   */\n  0x00\n    /* \"#utility.yul\":194:195   */\n  dup1\n    /* \"#utility.yul\":187:199   */\n  revert\n    /* \"#utility.yul\":334:411   */\ntag_10:\n    /* \"#utility.yul\":371:378   */\n  0x00\n    /* \"#utility.yul\":400:405   */\n  dup2\n    /* \"#utility.yul\":389:405   */\n  swap1\n  pop\n    /* \"#utility.yul\":334:411   */\n  swap2\n  swap1\n  pop\n  jump\t// out\n    /* \"#utility.yul\":417:539   */\ntag_11:\n    /* \"#utility.yul\":490:514   */\n  tag_19\n    /* \"#utility.yul\":508:513   */\n  dup2\n    /* \"#utility.yul\":490:514   */\n  tag_10\n  jump\t// in\ntag_19:\n    /* \"#utility.yul\":483:488   */\n  dup2\n    /* \"#utility.yul\":480:515   */\n  eq\n    /* \"#utility.yul\":470:533   */\n  tag_20\n  jumpi\n    /* \"#utility.yul\":529:530   */\n  0x00\n    /* \"#utility.yul\":526:527   */\n  dup1\n    /* \"#utility.yul\":519:531   */\n  revert\n    /* \"#utility.yul\":470:533   */\ntag_20:\n    /* \"#utility.yul\":417:539   */\n  pop\n  jump\t// out\n    /* \"#utility.yul\":545:688   */\ntag_12:\n    /* \"#utility.yul\":602:607   */\n  0x00\n    /* \"#utility.yul\":633:639   */\n  dup2\n    /* \"#utility.yul\":627:640   */\n  mload\n    /* \"#utility.yul\":618:640   */\n  swap1\n  pop\n    /* \"#utility.yul\":649:682   */\n  tag_22\n    /* \"#utility.yul\":676:681   */\n  dup2\n    /* \"#utility.yul\":649:682   */\n  tag_11\n  jump\t// in\ntag_22:\n    /* \"#utility.yul\":545:688   */\n  swap3\n  swap2\n  pop\n  pop\n  jump\t// out\n    /* \"#utility.yul\":694:1357   */\ntag_3:\n    /* \"#utility.yul\":782:788   */\n  0x00\n    /* \"#utility.yul\":790:796   */\n  dup1\n    /* \"#utility.yul\":798:804   */\n  0x00\n    /* \"#utility.yul\":847:849   */\n  0x60\n    /* \"#utility.yul\":835:844   */\n  dup5\n    /* \"#utility.yul\":826:833   */\n  dup7\n    /* \"#utility.yul\":822:845   */\n  sub\n    /* \"#utility.yul\":818:850   */\n  slt\n    /* \"#utility.yul\":815:934   */\n  iszero\n  tag_24\n  jumpi\n    /* \"#utility.yul\":853:932   */\n  tag_25\n  tag_8\n  jump\t// in\ntag_25:\n    /* \"#utility.yul\":815:934   */\ntag_24:\n    /* \"#utility.yul\":973:974   */\n  0x00\n    /* \"#utility.yul\":998:1062   */\n  tag_26\n    /* \"#utility.yul\":1054:1061   */\n  dup7\n    /* \"#utility.yul\":1045:1051   */\n  dup3\n    /* \"#utility.yul\":1034:1043   */\n  dup8\n    /* \"#utility.yul\":1030:1052   */\n  add\n    /* \"#utility.yul\":998:1062   */\n  tag_12\n  jump\t// in\ntag_26:\n    /* \"#utility.yul\":988:1062   */\n  swap4\n  pop\n    /* \"#utility.yul\":944:1072   */\n  pop\n    /* \"#utility.yul\":1111:1113   */\n  0x20\n    /* \"#utility.yul\":1137:1201   */\n  tag_27\n    /* \"#utility.yul\":1193:1200   */\n  dup7\n    /* \"#utility.yul\":1184:1190   */\n  dup3\n    /* \"#utility.yul\":1173:1182   */\n  dup8\n    /* \"#utility.yul\":1169:1191   */\n  add\n    /* \"#utility.yul\":1137:1201   */\n  tag_12\n  jump\t// in\ntag_27:\n    /* \"#utility.yul\":1127:1201   */\n  swap3\n  pop\n    /* \"#utility.yul\":1082:1211   */\n  pop\n    /* \"#utility.yul\":1250:1252   */\n  0x40\n    /* \"#utility.yul\":1276:1340   */\n  tag_28\n    /* \"#utility.yul\":1332:1339   */\n  dup7\n    /* \"#utility.yul\":1323:1329   */\n  dup3\n    /* \"#utility.yul\":1312:1321   */\n  dup8\n    /* \"#utility.yul\":1308:1330   */\n  add\n    /* \"#utility.yul\":1276:1340   */\n  tag_12\n  jump\t// in\ntag_28:\n    /* \"#utility.yul\":1266:1340   */\n  swap2\n  pop\n    /* \"#utility.yul\":1221:1350   */\n  pop\n    /* \"#utility.yul\":694:1357   */\n  swap3\n  pop\n  swap3\n  pop\n  swap3\n  jump\t// out\n    /* \"Day-09/D9P3.sol\":1469:1992  contract Cone is ThreeDObject {... */\ntag_6:\n  dataSize(sub_0)\n  dup1\n  dataOffset(sub_0)\n  0x00\n  codecopy\n  0x00\n  return\nstop\n\nsub_0: assembly {\n        /* \"Day-09/D9P3.sol\":1469:1992  contract Cone is ThreeDObject {... */\n      mstore(0x40, 0x80)\n      callvalue\n      dup1\n      iszero\n      tag_1\n      jumpi\n      0x00\n      dup1\n      revert\n    tag_1:\n      pop\n      jumpi(tag_2, lt(calldatasize, 0x04))\n      shr(0xe0, calldataload(0x00))\n      dup1\n      0x89e7995f\n      eq\n      tag_3\n      jumpi\n      dup1\n      0xc618a1e4\n      eq\n      tag_4\n      jumpi\n    tag_2:\n      0x00\n      dup1\n      revert\n        /* \"Day-09/D9P3.sol\":1729:1859  function surfaceArea() public view override returns (uint) {... */\n    tag_3:\n      tag_5\n      tag_6\n      jump\t// in\n    tag_5:\n      mload(0x40)\n      tag_7\n      swap2\n      swap1\n      tag_8\n      jump\t// in\n    tag_7:\n      mload(0x40)\n      dup1\n      swap2\n      sub\n      swap1\n      return\n        /* \"Day-09/D9P3.sol\":1865:1989  function volume() public view override returns (uint) {... */\n    tag_4:\n      tag_9\n      tag_10\n      jump\t// in\n    tag_9:\n      mload(0x40)\n      tag_11\n      swap2\n      swap1\n      tag_8\n      jump\t// in\n    tag_11:\n      mload(0x40)\n      dup1\n      swap2\n      sub\n      swap1\n      return\n        /* \"Day-09/D9P3.sol\":1729:1859  function surfaceArea() public view override returns (uint) {... */\n    tag_6:\n        /* \"Day-09/D9P3.sol\":1782:1786  uint */\n      0x00\n        /* \"Day-09/D9P3.sol\":1848:1851  100 */\n      0x64\n        /* \"Day-09/D9P3.sol\":1832:1843  slantHeight */\n      sload(0x02)\n        /* \"Day-09/D9P3.sol\":1823:1829  radius */\n      sload(0x00)\n        /* \"Day-09/D9P3.sol\":1823:1843  radius + slantHeight */\n      tag_13\n      swap2\n      swap1\n      tag_14\n      jump\t// in\n    tag_13:\n        /* \"Day-09/D9P3.sol\":1813:1819  radius */\n      sload(0x00)\n        /* \"Day-09/D9P3.sol\":1807:1810  314 */\n      0x013a\n        /* \"Day-09/D9P3.sol\":1807:1819  314 * radius */\n      tag_15\n      swap2\n      swap1\n      tag_16\n      jump\t// in\n    tag_15:\n        /* \"Day-09/D9P3.sol\":1807:1844  314 * radius * (radius + slantHeight) */\n      tag_17\n      swap2\n      swap1\n      tag_16\n      jump\t// in\n    tag_17:\n        /* \"Day-09/D9P3.sol\":1806:1851  (314 * radius * (radius + slantHeight)) / 100 */\n      tag_18\n      swap2\n      swap1\n      tag_19\n      jump\t// in\n    tag_18:\n        /* \"Day-09/D9P3.sol\":1799:1851  return (314 * radius * (radius + slantHeight)) / 100 */\n      swap1\n      pop\n        /* \"Day-09/D9P3.sol\":1729:1859  function surfaceArea() public view override returns (uint) {... */\n      swap1\n      jump\t// out\n        /* \"Day-09/D9P3.sol\":1865:1989  function volume() public view override returns (uint) {... */\n    tag_10:\n        /* \"Day-09/D9P3.sol\":1913:1917  uint */\n      0x00\n        /* \"Day-09/D9P3.sol\":1973:1980  3 * 100 */\n      0x012c\n        /* \"Day-09/D9P3.sol\":1962:1968  height */\n      sload(0x01)\n        /* \"Day-09/D9P3.sol\":1953:1959  radius */\n      sload(0x00)\n        /* \"Day-09/D9P3.sol\":1944:1950  radius */\n      sload(0x00)\n        /* \"Day-09/D9P3.sol\":1938:1941  314 */\n      0x013a\n        /* \"Day-09/D9P3.sol\":1938:1950  314 * radius */\n      tag_21\n      swap2\n      swap1\n      tag_16\n      jump\t// in\n    tag_21:\n        /* \"Day-09/D9P3.sol\":1938:1959  314 * radius * radius */\n      tag_22\n      swap2\n      swap1\n      tag_16\n      jump\t// in\n    tag_22:\n        /* \"Day-09/D9P3.sol\":1938:1968  314 * radius * radius * height */\n      tag_23\n      swap2\n      swap1\n      tag_16\n      jump\t// in\n    tag_23:\n        /* \"Day-09/D9P3.sol\":1937:1981  (314 * radius * radius * height) / (3 * 100) */\n      tag_24\n      swap2\n      swap1\n      tag_19\n      jump\t// in\n    tag_24:\n        /* \"Day-09/D9P3.sol\":1930:1981  return (314 * radius * radius * height) / (3 * 100) */\n      swap1\n      pop\n        /* \"Day-09/D9P3.sol\":1865:1989  function volume() public view override returns (uint) {... */\n      swap1\n      jump\t// out\n        /* \"#utility.yul\":7:84   */\n    tag_25:\n        /* \"#utility.yul\":44:51   */\n      0x00\n        /* \"#utility.yul\":73:78   */\n      dup2\n        /* \"#utility.yul\":62:78   */\n      swap1\n      pop\n        /* \"#utility.yul\":7:84   */\n      swap2\n      swap1\n      pop\n      jump\t// out\n        /* \"#utility.yul\":90:208   */\n    tag_26:\n        /* \"#utility.yul\":177:201   */\n      tag_32\n        /* \"#utility.yul\":195:200   */\n      dup2\n        /* \"#utility.yul\":177:201   */\n      tag_25\n      jump\t// in\n    tag_32:\n        /* \"#utility.yul\":172:175   */\n      dup3\n        /* \"#utility.yul\":165:202   */\n      mstore\n        /* \"#utility.yul\":90:208   */\n      pop\n      pop\n      jump\t// out\n        /* \"#utility.yul\":214:436   */\n    tag_8:\n        /* \"#utility.yul\":307:311   */\n      0x00\n        /* \"#utility.yul\":345:347   */\n      0x20\n        /* \"#utility.yul\":334:343   */\n      dup3\n        /* \"#utility.yul\":330:348   */\n      add\n        /* \"#utility.yul\":322:348   */\n      swap1\n      pop\n        /* \"#utility.yul\":358:429   */\n      tag_34\n        /* \"#utility.yul\":426:427   */\n      0x00\n        /* \"#utility.yul\":415:424   */\n      dup4\n        /* \"#utility.yul\":411:428   */\n      add\n        /* \"#utility.yul\":402:408   */\n      dup5\n        /* \"#utility.yul\":358:429   */\n      tag_26\n      jump\t// in\n    tag_34:\n        /* \"#utility.yul\":214:436   */\n      swap3\n      swap2\n      pop\n      pop\n      jump\t// out\n        /* \"#utility.yul\":442:622   */\n    tag_27:\n        /* \"#utility.yul\":490:567   */\n      0x4e487b7100000000000000000000000000000000000000000000000000000000\n        /* \"#utility.yul\":487:488   */\n      0x00\n        /* \"#utility.yul\":480:568   */\n      mstore\n        /* \"#utility.yul\":587:591   */\n      0x11\n        /* \"#utility.yul\":584:585   */\n      0x04\n        /* \"#utility.yul\":577:592   */\n      mstore\n        /* \"#utility.yul\":611:615   */\n      0x24\n        /* \"#utility.yul\":608:609   */\n      0x00\n        /* \"#utility.yul\":601:616   */\n      revert\n        /* \"#utility.yul\":628:819   */\n    tag_14:\n        /* \"#utility.yul\":668:671   */\n      0x00\n        /* \"#utility.yul\":687:707   */\n      tag_37\n        /* \"#utility.yul\":705:706   */\n      dup3\n        /* \"#utility.yul\":687:707   */\n      tag_25\n      jump\t// in\n    tag_37:\n        /* \"#utility.yul\":682:707   */\n      swap2\n      pop\n        /* \"#utility.yul\":721:741   */\n      tag_38\n        /* \"#utility.yul\":739:740   */\n      dup4\n        /* \"#utility.yul\":721:741   */\n      tag_25\n      jump\t// in\n    tag_38:\n        /* \"#utility.yul\":716:741   */\n      swap3\n      pop\n        /* \"#utility.yul\":764:765   */\n      dup3\n        /* \"#utility.yul\":761:762   */\n      dup3\n        /* \"#utility.yul\":757:766   */\n      add\n        /* \"#utility.yul\":750:766   */\n      swap1\n      pop\n        /* \"#utility.yul\":785:788   */\n      dup1\n        /* \"#utility.yul\":782:783   */\n      dup3\n        /* \"#utility.yul\":779:789   */\n      gt\n        /* \"#utility.yul\":776:812   */\n      iszero\n      tag_39\n      jumpi\n        /* \"#utility.yul\":792:810   */\n      tag_40\n      tag_27\n      jump\t// in\n    tag_40:\n        /* \"#utility.yul\":776:812   */\n    tag_39:\n        /* \"#utility.yul\":628:819   */\n      swap3\n      swap2\n      pop\n      pop\n      jump\t// out\n        /* \"#utility.yul\":825:1235   */\n    tag_16:\n        /* \"#utility.yul\":865:872   */\n      0x00\n        /* \"#utility.yul\":888:908   */\n      tag_42\n        /* \"#utility.yul\":906:907   */\n      dup3\n        /* \"#utility.yul\":888:908   */\n      tag_25\n      jump\t// in\n    tag_42:\n        /* \"#utility.yul\":883:908   */\n      swap2\n      pop\n        /* \"#utility.yul\":922:942   */\n      tag_43\n        /* \"#utility.yul\":940:941   */\n      dup4\n        /* \"#utility.yul\":922:942   */\n      tag_25\n      jump\t// in\n    tag_43:\n        /* \"#utility.yul\":917:942   */\n      swap3\n      pop\n        /* \"#utility.yul\":977:978   */\n      dup3\n        /* \"#utility.yul\":974:975   */\n      dup3\n        /* \"#utility.yul\":970:979   */\n      mul\n        /* \"#utility.yul\":999:1029   */\n      tag_44\n        /* \"#utility.yul\":1017:1028   */\n      dup2\n        /* \"#utility.yul\":999:1029   */\n      tag_25\n      jump\t// in\n    tag_44:\n        /* \"#utility.yul\":988:1029   */\n      swap2\n      pop\n        /* \"#utility.yul\":1178:1179   */\n      dup3\n        /* \"#utility.yul\":1169:1176   */\n      dup3\n        /* \"#utility.yul\":1165:1180   */\n      div\n        /* \"#utility.yul\":1162:1163   */\n      dup5\n        /* \"#utility.yul\":1159:1181   */\n      eq\n        /* \"#utility.yul\":1139:1140   */\n      dup4\n        /* \"#utility.yul\":1132:1141   */\n      iszero\n        /* \"#utility.yul\":1112:1195   */\n      or\n        /* \"#utility.yul\":1089:1228   */\n      tag_45\n      jumpi\n        /* \"#utility.yul\":1208:1226   */\n      tag_46\n      tag_27\n      jump\t// in\n    tag_46:\n        /* \"#utility.yul\":1089:1228   */\n    tag_45:\n        /* \"#utility.yul\":873:1235   */\n      pop\n        /* \"#utility.yul\":825:1235   */\n      swap3\n      swap2\n      pop\n      pop\n      jump\t// out\n        /* \"#utility.yul\":1241:1421   */\n    tag_28:\n        /* \"#utility.yul\":1289:1366   */\n      0x4e487b7100000000000000000000000000000000000000000000000000000000\n        /* \"#utility.yul\":1286:1287   */\n      0x00\n        /* \"#utility.yul\":1279:1367   */\n      mstore\n        /* \"#utility.yul\":1386:1390   */\n      0x12\n        /* \"#utility.yul\":1383:1384   */\n      0x04\n        /* \"#utility.yul\":1376:1391   */\n      mstore\n        /* \"#utility.yul\":1410:1414   */\n      0x24\n        /* \"#utility.yul\":1407:1408   */\n      0x00\n        /* \"#utility.yul\":1400:1415   */\n      revert\n        /* \"#utility.yul\":1427:1612   */\n    tag_19:\n        /* \"#utility.yul\":1467:1468   */\n      0x00\n        /* \"#utility.yul\":1484:1504   */\n      tag_49\n        /* \"#utility.yul\":1502:1503   */\n      dup3\n        /* \"#utility.yul\":1484:1504   */\n      tag_25\n      jump\t// in\n    tag_49:\n        /* \"#utility.yul\":1479:1504   */\n      swap2\n      pop\n        /* \"#utility.yul\":1518:1538   */\n      tag_50\n        /* \"#utility.yul\":1536:1537   */\n      dup4\n        /* \"#utility.yul\":1518:1538   */\n      tag_25\n      jump\t// in\n    tag_50:\n        /* \"#utility.yul\":1513:1538   */\n      swap3\n      pop\n        /* \"#utility.yul\":1557:1558   */\n      dup3\n        /* \"#utility.yul\":1547:1582   */\n      tag_51\n      jumpi\n        /* \"#utility.yul\":1562:1580   */\n      tag_52\n      tag_28\n      jump\t// in\n    tag_52:\n        /* \"#utility.yul\":1547:1582   */\n    tag_51:\n        /* \"#utility.yul\":1604:1605   */\n      dup3\n        /* \"#utility.yul\":1601:1602   */\n      dup3\n        /* \"#utility.yul\":1597:1606   */\n      div\n        /* \"#utility.yul\":1592:1606   */\n      swap1\n      pop\n        /* \"#utility.yul\":1427:1612   */\n      swap3\n      swap2\n      pop\n      pop\n      jump\t// out\n\n    auxdata: 0xa26469706673582212204c5615b6a6d0092001a0395d74fc2d4e8ba94f552397935b04d5733881754cd664736f6c634300081a0033\n}\n",
				"bytecode": {
					"linkReferences": {},
					"object": "6080604052348015600e575f80fd5b5060405161031d38038061031d8339818101604052810190602e9190607b565b825f81905550816001819055508060028190555050505060c2565b5f80fd5b5f819050919050565b605d81604d565b81146066575f80fd5b50565b5f815190506075816056565b92915050565b5f805f60608486031215608f57608e6049565b5b5f609a868287016069565b935050602060a9868287016069565b925050604060b8868287016069565b9150509250925092565b61024e806100cf5f395ff3fe608060405234801561000f575f80fd5b5060043610610034575f3560e01c806389e7995f14610038578063c618a1e414610056575b5f80fd5b610040610074565b60405161004d9190610101565b60405180910390f35b61005e6100ae565b60405161006b9190610101565b60405180910390f35b5f60646002545f546100869190610147565b5f5461013a610095919061017a565b61009f919061017a565b6100a991906101e8565b905090565b5f61012c6001545f545f5461013a6100c6919061017a565b6100d0919061017a565b6100da919061017a565b6100e491906101e8565b905090565b5f819050919050565b6100fb816100e9565b82525050565b5f6020820190506101145f8301846100f2565b92915050565b7f4e487b71000000000000000000000000000000000000000000000000000000005f52601160045260245ffd5b5f610151826100e9565b915061015c836100e9565b92508282019050808211156101745761017361011a565b5b92915050565b5f610184826100e9565b915061018f836100e9565b925082820261019d816100e9565b915082820484148315176101b4576101b361011a565b5b5092915050565b7f4e487b71000000000000000000000000000000000000000000000000000000005f52601260045260245ffd5b5f6101f2826100e9565b91506101fd836100e9565b92508261020d5761020c6101bb565b5b82820490509291505056fea26469706673582212204c5615b6a6d0092001a0395d74fc2d4e8ba94f552397935b04d5733881754cd664736f6c634300081a0033",
					"opcodes": "PUSH1 0x80 PUSH1 0x40 MSTORE CALLVALUE DUP1 ISZERO PUSH1 0xE JUMPI PUSH0 DUP1 REVERT JUMPDEST POP PUSH1 0x40 MLOAD PUSH2 0x31D CODESIZE SUB DUP1 PUSH2 0x31D DUP4 CODECOPY DUP2 DUP2 ADD PUSH1 0x40 MSTORE DUP2 ADD SWAP1 PUSH1 0x2E SWAP2 SWAP1 PUSH1 0x7B JUMP JUMPDEST DUP3 PUSH0 DUP2 SWAP1 SSTORE POP DUP2 PUSH1 0x1 DUP2 SWAP1 SSTORE POP DUP1 PUSH1 0x2 DUP2 SWAP1 SSTORE POP POP POP POP PUSH1 0xC2 JUMP JUMPDEST PUSH0 DUP1 REVERT JUMPDEST PUSH0 DUP2 SWAP1 POP SWAP2 SWAP1 POP JUMP JUMPDEST PUSH1 0x5D DUP2 PUSH1 0x4D JUMP JUMPDEST DUP2 EQ PUSH1 0x66 JUMPI PUSH0 DUP1 REVERT JUMPDEST POP JUMP JUMPDEST PUSH0 DUP2 MLOAD SWAP1 POP PUSH1 0x75 DUP2 PUSH1 0x56 JUMP JUMPDEST SWAP3 SWAP2 POP POP JUMP JUMPDEST PUSH0 DUP1 PUSH0 PUSH1 0x60 DUP5 DUP7 SUB SLT ISZERO PUSH1 0x8F JUMPI PUSH1 0x8E PUSH1 0x49 JUMP JUMPDEST JUMPDEST PUSH0 PUSH1 0x9A DUP7 DUP3 DUP8 ADD PUSH1 0x69 JUMP JUMPDEST SWAP4 POP POP PUSH1 0x20 PUSH1 0xA9 DUP7 DUP3 DUP8 ADD PUSH1 0x69 JUMP JUMPDEST SWAP3 POP POP PUSH1 0x40 PUSH1 0xB8 DUP7 DUP3 DUP8 ADD PUSH1 0x69 JUMP JUMPDEST SWAP2 POP POP SWAP3 POP SWAP3 POP SWAP3 JUMP JUMPDEST PUSH2 0x24E DUP1 PUSH2 0xCF PUSH0 CODECOPY PUSH0 RETURN INVALID PUSH1 0x80 PUSH1 0x40 MSTORE CALLVALUE DUP1 ISZERO PUSH2 0xF JUMPI PUSH0 DUP1 REVERT JUMPDEST POP PUSH1 0x4 CALLDATASIZE LT PUSH2 0x34 JUMPI PUSH0 CALLDATALOAD PUSH1 0xE0 SHR DUP1 PUSH4 0x89E7995F EQ PUSH2 0x38 JUMPI DUP1 PUSH4 0xC618A1E4 EQ PUSH2 0x56 JUMPI JUMPDEST PUSH0 DUP1 REVERT JUMPDEST PUSH2 0x40 PUSH2 0x74 JUMP JUMPDEST PUSH1 0x40 MLOAD PUSH2 0x4D SWAP2 SWAP1 PUSH2 0x101 JUMP JUMPDEST PUSH1 0x40 MLOAD DUP1 SWAP2 SUB SWAP1 RETURN JUMPDEST PUSH2 0x5E PUSH2 0xAE JUMP JUMPDEST PUSH1 0x40 MLOAD PUSH2 0x6B SWAP2 SWAP1 PUSH2 0x101 JUMP JUMPDEST PUSH1 0x40 MLOAD DUP1 SWAP2 SUB SWAP1 RETURN JUMPDEST PUSH0 PUSH1 0x64 PUSH1 0x2 SLOAD PUSH0 SLOAD PUSH2 0x86 SWAP2 SWAP1 PUSH2 0x147 JUMP JUMPDEST PUSH0 SLOAD PUSH2 0x13A PUSH2 0x95 SWAP2 SWAP1 PUSH2 0x17A JUMP JUMPDEST PUSH2 0x9F SWAP2 SWAP1 PUSH2 0x17A JUMP JUMPDEST PUSH2 0xA9 SWAP2 SWAP1 PUSH2 0x1E8 JUMP JUMPDEST SWAP1 POP SWAP1 JUMP JUMPDEST PUSH0 PUSH2 0x12C PUSH1 0x1 SLOAD PUSH0 SLOAD PUSH0 SLOAD PUSH2 0x13A PUSH2 0xC6 SWAP2 SWAP1 PUSH2 0x17A JUMP JUMPDEST PUSH2 0xD0 SWAP2 SWAP1 PUSH2 0x17A JUMP JUMPDEST PUSH2 0xDA SWAP2 SWAP1 PUSH2 0x17A JUMP JUMPDEST PUSH2 0xE4 SWAP2 SWAP1 PUSH2 0x1E8 JUMP JUMPDEST SWAP1 POP SWAP1 JUMP JUMPDEST PUSH0 DUP2 SWAP1 POP SWAP2 SWAP1 POP JUMP JUMPDEST PUSH2 0xFB DUP2 PUSH2 0xE9 JUMP JUMPDEST DUP3 MSTORE POP POP JUMP JUMPDEST PUSH0 PUSH1 0x20 DUP3 ADD SWAP1 POP PUSH2 0x114 PUSH0 DUP4 ADD DUP5 PUSH2 0xF2 JUMP JUMPDEST SWAP3 SWAP2 POP POP JUMP JUMPDEST PUSH32 0x4E487B7100000000000000000000000000000000000000000000000000000000 PUSH0 MSTORE PUSH1 0x11 PUSH1 0x4 MSTORE PUSH1 0x24 PUSH0 REVERT JUMPDEST PUSH0 PUSH2 0x151 DUP3 PUSH2 0xE9 JUMP JUMPDEST SWAP2 POP PUSH2 0x15C DUP4 PUSH2 0xE9 JUMP JUMPDEST SWAP3 POP DUP3 DUP3 ADD SWAP1 POP DUP1 DUP3 GT ISZERO PUSH2 0x174 JUMPI PUSH2 0x173 PUSH2 0x11A JUMP JUMPDEST JUMPDEST SWAP3 SWAP2 POP POP JUMP JUMPDEST PUSH0 PUSH2 0x184 DUP3 PUSH2 0xE9 JUMP JUMPDEST SWAP2 POP PUSH2 0x18F DUP4 PUSH2 0xE9 JUMP JUMPDEST SWAP3 POP DUP3 DUP3 MUL PUSH2 0x19D DUP2 PUSH2 0xE9 JUMP JUMPDEST SWAP2 POP DUP3 DUP3 DIV DUP5 EQ DUP4 ISZERO OR PUSH2 0x1B4 JUMPI PUSH2 0x1B3 PUSH2 0x11A JUMP JUMPDEST JUMPDEST POP SWAP3 SWAP2 POP POP JUMP JUMPDEST PUSH32 0x4E487B7100000000000000000000000000000000000000000000000000000000 PUSH0 MSTORE PUSH1 0x12 PUSH1 0x4 MSTORE PUSH1 0x24 PUSH0 REVERT JUMPDEST PUSH0 PUSH2 0x1F2 DUP3 PUSH2 0xE9 JUMP JUMPDEST SWAP2 POP PUSH2 0x1FD DUP4 PUSH2 0xE9 JUMP JUMPDEST SWAP3 POP DUP3 PUSH2 0x20D JUMPI PUSH2 0x20C PUSH2 0x1BB JUMP JUMPDEST JUMPDEST DUP3 DUP3 DIV SWAP1 POP SWAP3 SWAP2 POP POP JUMP INVALID LOG2 PUSH5 0x6970667358 0x22 SLT KECCAK256 0x4C JUMP ISZERO 0xB6 0xA6 0xD0 MULMOD KECCAK256 ADD LOG0 CODECOPY TSTORE PUSH21 0xFC2D4E8BA94F552397935B04D5733881754CD66473 PUSH16 0x6C634300081A00330000000000000000 "
				},
				"gasEstimates": {
					"creation": {
						"codeDepositCost": "118000",
						"executionCost": "infinite",
						"totalCost": "infinite"
					},
					"external": {
						"surfaceArea()": "infinite",
						"volume()": "infinite"
					}
				},
				"methodIdentifiers": {
					"surfaceArea()": "89e7995f",
					"volume()": "c618a1e4"
				}
			},
			"storageLayout": {
				"storage": [
					{
						"astId": 183,
						"contract": "Day-09/D9P3.sol:Cone",
						"label": "radius",
						"offset": 0,
						"slot": "0",
						"type": "t_uint256"
					},
					{
						"astId": 185,
						"contract": "Day-09/D9P3.sol:Cone",
						"label": "height",
						"offset": 0,
						"slot": "1",
						"type": "t_uint256"
					},
					{
						"astId": 187,
						"contract": "Day-09/D9P3.sol:Cone",
						"label": "slantHeight",
						"offset": 0,
						"slot": "2",
						"type": "t_uint256"
					}
				],
				"types": {
					"t_uint256": {
						"encoding": "inplace",
						"label": "uint256",
						"numberOfBytes": "32"
					}
				}
			},
			"userdoc": {
				"kind": "user",
				"methods": {},
				"version": 1
			}
		}
	}
}