{
	"Day-09/D9P2.sol": {
		"Department": {
			"abi": [
				{
					"inputs": [],
					"name": "DeptHead",
					"outputs": [
						{
							"internalType": "string",
							"name": "",
							"type": "string"
						}
					],
					"stateMutability": "view",
					"type": "function"
				},
				{
					"inputs": [],
					"name": "deptName",
					"outputs": [
						{
							"internalType": "string",
							"name": "",
							"type": "string"
						}
					],
					"stateMutability": "view",
					"type": "function"
				},
				{
					"inputs": [],
					"name": "displayDepartmentDetails",
					"outputs": [
						{
							"internalType": "string",
							"name": "",
							"type": "string"
						},
						{
							"internalType": "string",
							"name": "",
							"type": "string"
						}
					],
					"stateMutability": "view",
					"type": "function"
				},
				{
					"inputs": [
						{
							"internalType": "string",
							"name": "_deptName",
							"type": "string"
						},
						{
							"internalType": "string",
							"name": "_DeptHead",
							"type": "string"
						}
					],
					"name": "setDepartmentDetails",
					"outputs": [],
					"stateMutability": "nonpayable",
					"type": "function"
				}
			],
			"devdoc": {
				"kind": "dev",
				"methods": {},
				"version": 1
			},
			"evm": {
				"assembly": "    /* \"Day-09/D9P2.sol\":213:597  contract Department {... */\n  mstore(0x40, 0x80)\n  callvalue\n  dup1\n  iszero\n  tag_1\n  jumpi\n  0x00\n  dup1\n  revert\ntag_1:\n  pop\n  dataSize(sub_0)\n  dup1\n  dataOffset(sub_0)\n  0x00\n  codecopy\n  0x00\n  return\nstop\n\nsub_0: assembly {\n        /* \"Day-09/D9P2.sol\":213:597  contract Department {... */\n      mstore(0x40, 0x80)\n      callvalue\n      dup1\n      iszero\n      tag_1\n      jumpi\n      0x00\n      dup1\n      revert\n    tag_1:\n      pop\n      jumpi(tag_2, lt(calldatasize, 0x04))\n      shr(0xe0, calldataload(0x00))\n      dup1\n      0x176ee95f\n      eq\n      tag_3\n      jumpi\n      dup1\n      0x735f5aec\n      eq\n      tag_4\n      jumpi\n      dup1\n      0xb975abb3\n      eq\n      tag_5\n      jumpi\n      dup1\n      0xdf404d5c\n      eq\n      tag_6\n      jumpi\n    tag_2:\n      0x00\n      dup1\n      revert\n        /* \"Day-09/D9P2.sol\":269:291  string public DeptHead */\n    tag_3:\n      tag_7\n      tag_8\n      jump\t// in\n    tag_7:\n      mload(0x40)\n      tag_9\n      swap2\n      swap1\n      tag_10\n      jump\t// in\n    tag_9:\n      mload(0x40)\n      dup1\n      swap2\n      sub\n      swap1\n      return\n        /* \"Day-09/D9P2.sol\":298:455  function setDepartmentDetails(string memory _deptName, string memory _DeptHead) public {... */\n    tag_4:\n      tag_11\n      0x04\n      dup1\n      calldatasize\n      sub\n      dup2\n      add\n      swap1\n      tag_12\n      swap2\n      swap1\n      tag_13\n      jump\t// in\n    tag_12:\n      tag_14\n      jump\t// in\n    tag_11:\n      stop\n        /* \"Day-09/D9P2.sol\":240:262  string public deptName */\n    tag_5:\n      tag_15\n      tag_16\n      jump\t// in\n    tag_15:\n      mload(0x40)\n      tag_17\n      swap2\n      swap1\n      tag_10\n      jump\t// in\n    tag_17:\n      mload(0x40)\n      dup1\n      swap2\n      sub\n      swap1\n      return\n        /* \"Day-09/D9P2.sol\":461:594  function displayDepartmentDetails() public view returns (string memory, string memory) {... */\n    tag_6:\n      tag_18\n      tag_19\n      jump\t// in\n    tag_18:\n      mload(0x40)\n      tag_20\n      swap3\n      swap2\n      swap1\n      tag_21\n      jump\t// in\n    tag_20:\n      mload(0x40)\n      dup1\n      swap2\n      sub\n      swap1\n      return\n        /* \"Day-09/D9P2.sol\":269:291  string public DeptHead */\n    tag_8:\n      0x01\n      dup1\n      sload\n      tag_22\n      swap1\n      tag_23\n      jump\t// in\n    tag_22:\n      dup1\n      0x1f\n      add\n      0x20\n      dup1\n      swap2\n      div\n      mul\n      0x20\n      add\n      mload(0x40)\n      swap1\n      dup2\n      add\n      0x40\n      mstore\n      dup1\n      swap3\n      swap2\n      swap1\n      dup2\n      dup2\n      mstore\n      0x20\n      add\n      dup3\n      dup1\n      sload\n      tag_24\n      swap1\n      tag_23\n      jump\t// in\n    tag_24:\n      dup1\n      iszero\n      tag_25\n      jumpi\n      dup1\n      0x1f\n      lt\n      tag_26\n      jumpi\n      0x0100\n      dup1\n      dup4\n      sload\n      div\n      mul\n      dup4\n      mstore\n      swap2\n      0x20\n      add\n      swap2\n      jump(tag_25)\n    tag_26:\n      dup3\n      add\n      swap2\n      swap1\n      0x00\n      mstore\n      keccak256(0x00, 0x20)\n      swap1\n    tag_27:\n      dup2\n      sload\n      dup2\n      mstore\n      swap1\n      0x01\n      add\n      swap1\n      0x20\n      add\n      dup1\n      dup4\n      gt\n      tag_27\n      jumpi\n      dup3\n      swap1\n      sub\n      0x1f\n      and\n      dup3\n      add\n      swap2\n    tag_25:\n      pop\n      pop\n      pop\n      pop\n      pop\n      dup2\n      jump\t// out\n        /* \"Day-09/D9P2.sol\":298:455  function setDepartmentDetails(string memory _deptName, string memory _DeptHead) public {... */\n    tag_14:\n        /* \"Day-09/D9P2.sol\":407:416  _deptName */\n      dup2\n        /* \"Day-09/D9P2.sol\":396:404  deptName */\n      0x00\n        /* \"Day-09/D9P2.sol\":396:416  deptName = _deptName */\n      swap1\n      dup2\n      tag_29\n      swap2\n      swap1\n      tag_30\n      jump\t// in\n    tag_29:\n      pop\n        /* \"Day-09/D9P2.sol\":438:447  _DeptHead */\n      dup1\n        /* \"Day-09/D9P2.sol\":427:435  DeptHead */\n      0x01\n        /* \"Day-09/D9P2.sol\":427:447  DeptHead = _DeptHead */\n      swap1\n      dup2\n      tag_31\n      swap2\n      swap1\n      tag_30\n      jump\t// in\n    tag_31:\n      pop\n        /* \"Day-09/D9P2.sol\":298:455  function setDepartmentDetails(string memory _deptName, string memory _DeptHead) public {... */\n      pop\n      pop\n      jump\t// out\n        /* \"Day-09/D9P2.sol\":240:262  string public deptName */\n    tag_16:\n      0x00\n      dup1\n      sload\n      tag_32\n      swap1\n      tag_23\n      jump\t// in\n    tag_32:\n      dup1\n      0x1f\n      add\n      0x20\n      dup1\n      swap2\n      div\n      mul\n      0x20\n      add\n      mload(0x40)\n      swap1\n      dup2\n      add\n      0x40\n      mstore\n      dup1\n      swap3\n      swap2\n      swap1\n      dup2\n      dup2\n      mstore\n      0x20\n      add\n      dup3\n      dup1\n      sload\n      tag_33\n      swap1\n      tag_23\n      jump\t// in\n    tag_33:\n      dup1\n      iszero\n      tag_34\n      jumpi\n      dup1\n      0x1f\n      lt\n      tag_35\n      jumpi\n      0x0100\n      dup1\n      dup4\n      sload\n      div\n      mul\n      dup4\n      mstore\n      swap2\n      0x20\n      add\n      swap2\n      jump(tag_34)\n    tag_35:\n      dup3\n      add\n      swap2\n      swap1\n      0x00\n      mstore\n      keccak256(0x00, 0x20)\n      swap1\n    tag_36:\n      dup2\n      sload\n      dup2\n      mstore\n      swap1\n      0x01\n      add\n      swap1\n      0x20\n      add\n      dup1\n      dup4\n      gt\n      tag_36\n      jumpi\n      dup3\n      swap1\n      sub\n      0x1f\n      and\n      dup3\n      add\n      swap2\n    tag_34:\n      pop\n      pop\n      pop\n      pop\n      pop\n      dup2\n      jump\t// out\n        /* \"Day-09/D9P2.sol\":461:594  function displayDepartmentDetails() public view returns (string memory, string memory) {... */\n    tag_19:\n        /* \"Day-09/D9P2.sol\":518:531  string memory */\n      0x60\n        /* \"Day-09/D9P2.sol\":533:546  string memory */\n      dup1\n        /* \"Day-09/D9P2.sol\":567:575  deptName */\n      0x00\n        /* \"Day-09/D9P2.sol\":577:585  DeptHead */\n      0x01\n        /* \"Day-09/D9P2.sol\":559:586  return (deptName, DeptHead) */\n      dup2\n      dup1\n      sload\n      tag_38\n      swap1\n      tag_23\n      jump\t// in\n    tag_38:\n      dup1\n      0x1f\n      add\n      0x20\n      dup1\n      swap2\n      div\n      mul\n      0x20\n      add\n      mload(0x40)\n      swap1\n      dup2\n      add\n      0x40\n      mstore\n      dup1\n      swap3\n      swap2\n      swap1\n      dup2\n      dup2\n      mstore\n      0x20\n      add\n      dup3\n      dup1\n      sload\n      tag_39\n      swap1\n      tag_23\n      jump\t// in\n    tag_39:\n      dup1\n      iszero\n      tag_40\n      jumpi\n      dup1\n      0x1f\n      lt\n      tag_41\n      jumpi\n      0x0100\n      dup1\n      dup4\n      sload\n      div\n      mul\n      dup4\n      mstore\n      swap2\n      0x20\n      add\n      swap2\n      jump(tag_40)\n    tag_41:\n      dup3\n      add\n      swap2\n      swap1\n      0x00\n      mstore\n      keccak256(0x00, 0x20)\n      swap1\n    tag_42:\n      dup2\n      sload\n      dup2\n      mstore\n      swap1\n      0x01\n      add\n      swap1\n      0x20\n      add\n      dup1\n      dup4\n      gt\n      tag_42\n      jumpi\n      dup3\n      swap1\n      sub\n      0x1f\n      and\n      dup3\n      add\n      swap2\n    tag_40:\n      pop\n      pop\n      pop\n      pop\n      pop\n      swap2\n      pop\n      dup1\n      dup1\n      sload\n      tag_43\n      swap1\n      tag_23\n      jump\t// in\n    tag_43:\n      dup1\n      0x1f\n      add\n      0x20\n      dup1\n      swap2\n      div\n      mul\n      0x20\n      add\n      mload(0x40)\n      swap1\n      dup2\n      add\n      0x40\n      mstore\n      dup1\n      swap3\n      swap2\n      swap1\n      dup2\n      dup2\n      mstore\n      0x20\n      add\n      dup3\n      dup1\n      sload\n      tag_44\n      swap1\n      tag_23\n      jump\t// in\n    tag_44:\n      dup1\n      iszero\n      tag_45\n      jumpi\n      dup1\n      0x1f\n      lt\n      tag_46\n      jumpi\n      0x0100\n      dup1\n      dup4\n      sload\n      div\n      mul\n      dup4\n      mstore\n      swap2\n      0x20\n      add\n      swap2\n      jump(tag_45)\n    tag_46:\n      dup3\n      add\n      swap2\n      swap1\n      0x00\n      mstore\n      keccak256(0x00, 0x20)\n      swap1\n    tag_47:\n      dup2\n      sload\n      dup2\n      mstore\n      swap1\n      0x01\n      add\n      swap1\n      0x20\n      add\n      dup1\n      dup4\n      gt\n      tag_47\n      jumpi\n      dup3\n      swap1\n      sub\n      0x1f\n      and\n      dup3\n      add\n      swap2\n    tag_45:\n      pop\n      pop\n      pop\n      pop\n      pop\n      swap1\n      pop\n      swap2\n      pop\n      swap2\n      pop\n        /* \"Day-09/D9P2.sol\":461:594  function displayDepartmentDetails() public view returns (string memory, string memory) {... */\n      swap1\n      swap2\n      jump\t// out\n        /* \"#utility.yul\":7:106   */\n    tag_48:\n        /* \"#utility.yul\":59:65   */\n      0x00\n        /* \"#utility.yul\":93:98   */\n      dup2\n        /* \"#utility.yul\":87:99   */\n      mload\n        /* \"#utility.yul\":77:99   */\n      swap1\n      pop\n        /* \"#utility.yul\":7:106   */\n      swap2\n      swap1\n      pop\n      jump\t// out\n        /* \"#utility.yul\":112:281   */\n    tag_49:\n        /* \"#utility.yul\":196:207   */\n      0x00\n        /* \"#utility.yul\":230:236   */\n      dup3\n        /* \"#utility.yul\":225:228   */\n      dup3\n        /* \"#utility.yul\":218:237   */\n      mstore\n        /* \"#utility.yul\":270:274   */\n      0x20\n        /* \"#utility.yul\":265:268   */\n      dup3\n        /* \"#utility.yul\":261:275   */\n      add\n        /* \"#utility.yul\":246:275   */\n      swap1\n      pop\n        /* \"#utility.yul\":112:281   */\n      swap3\n      swap2\n      pop\n      pop\n      jump\t// out\n        /* \"#utility.yul\":287:426   */\n    tag_50:\n        /* \"#utility.yul\":376:382   */\n      dup3\n        /* \"#utility.yul\":371:374   */\n      dup2\n        /* \"#utility.yul\":366:369   */\n      dup4\n        /* \"#utility.yul\":360:383   */\n      mcopy\n        /* \"#utility.yul\":417:418   */\n      0x00\n        /* \"#utility.yul\":408:414   */\n      dup4\n        /* \"#utility.yul\":403:406   */\n      dup4\n        /* \"#utility.yul\":399:415   */\n      add\n        /* \"#utility.yul\":392:419   */\n      mstore\n        /* \"#utility.yul\":287:426   */\n      pop\n      pop\n      pop\n      jump\t// out\n        /* \"#utility.yul\":432:534   */\n    tag_51:\n        /* \"#utility.yul\":473:479   */\n      0x00\n        /* \"#utility.yul\":524:526   */\n      0x1f\n        /* \"#utility.yul\":520:527   */\n      not\n        /* \"#utility.yul\":515:517   */\n      0x1f\n        /* \"#utility.yul\":508:513   */\n      dup4\n        /* \"#utility.yul\":504:518   */\n      add\n        /* \"#utility.yul\":500:528   */\n      and\n        /* \"#utility.yul\":490:528   */\n      swap1\n      pop\n        /* \"#utility.yul\":432:534   */\n      swap2\n      swap1\n      pop\n      jump\t// out\n        /* \"#utility.yul\":540:917   */\n    tag_52:\n        /* \"#utility.yul\":628:631   */\n      0x00\n        /* \"#utility.yul\":656:695   */\n      tag_88\n        /* \"#utility.yul\":689:694   */\n      dup3\n        /* \"#utility.yul\":656:695   */\n      tag_48\n      jump\t// in\n    tag_88:\n        /* \"#utility.yul\":711:782   */\n      tag_89\n        /* \"#utility.yul\":775:781   */\n      dup2\n        /* \"#utility.yul\":770:773   */\n      dup6\n        /* \"#utility.yul\":711:782   */\n      tag_49\n      jump\t// in\n    tag_89:\n        /* \"#utility.yul\":704:782   */\n      swap4\n      pop\n        /* \"#utility.yul\":791:856   */\n      tag_90\n        /* \"#utility.yul\":849:855   */\n      dup2\n        /* \"#utility.yul\":844:847   */\n      dup6\n        /* \"#utility.yul\":837:841   */\n      0x20\n        /* \"#utility.yul\":830:835   */\n      dup7\n        /* \"#utility.yul\":826:842   */\n      add\n        /* \"#utility.yul\":791:856   */\n      tag_50\n      jump\t// in\n    tag_90:\n        /* \"#utility.yul\":881:910   */\n      tag_91\n        /* \"#utility.yul\":903:909   */\n      dup2\n        /* \"#utility.yul\":881:910   */\n      tag_51\n      jump\t// in\n    tag_91:\n        /* \"#utility.yul\":876:879   */\n      dup5\n        /* \"#utility.yul\":872:911   */\n      add\n        /* \"#utility.yul\":865:911   */\n      swap2\n      pop\n        /* \"#utility.yul\":632:917   */\n      pop\n        /* \"#utility.yul\":540:917   */\n      swap3\n      swap2\n      pop\n      pop\n      jump\t// out\n        /* \"#utility.yul\":923:1236   */\n    tag_10:\n        /* \"#utility.yul\":1036:1040   */\n      0x00\n        /* \"#utility.yul\":1074:1076   */\n      0x20\n        /* \"#utility.yul\":1063:1072   */\n      dup3\n        /* \"#utility.yul\":1059:1077   */\n      add\n        /* \"#utility.yul\":1051:1077   */\n      swap1\n      pop\n        /* \"#utility.yul\":1123:1132   */\n      dup2\n        /* \"#utility.yul\":1117:1121   */\n      dup2\n        /* \"#utility.yul\":1113:1133   */\n      sub\n        /* \"#utility.yul\":1109:1110   */\n      0x00\n        /* \"#utility.yul\":1098:1107   */\n      dup4\n        /* \"#utility.yul\":1094:1111   */\n      add\n        /* \"#utility.yul\":1087:1134   */\n      mstore\n        /* \"#utility.yul\":1151:1229   */\n      tag_93\n        /* \"#utility.yul\":1224:1228   */\n      dup2\n        /* \"#utility.yul\":1215:1221   */\n      dup5\n        /* \"#utility.yul\":1151:1229   */\n      tag_52\n      jump\t// in\n    tag_93:\n        /* \"#utility.yul\":1143:1229   */\n      swap1\n      pop\n        /* \"#utility.yul\":923:1236   */\n      swap3\n      swap2\n      pop\n      pop\n      jump\t// out\n        /* \"#utility.yul\":1242:1317   */\n    tag_53:\n        /* \"#utility.yul\":1275:1281   */\n      0x00\n        /* \"#utility.yul\":1308:1310   */\n      0x40\n        /* \"#utility.yul\":1302:1311   */\n      mload\n        /* \"#utility.yul\":1292:1311   */\n      swap1\n      pop\n        /* \"#utility.yul\":1242:1317   */\n      swap1\n      jump\t// out\n        /* \"#utility.yul\":1323:1440   */\n    tag_54:\n        /* \"#utility.yul\":1432:1433   */\n      0x00\n        /* \"#utility.yul\":1429:1430   */\n      dup1\n        /* \"#utility.yul\":1422:1434   */\n      revert\n        /* \"#utility.yul\":1446:1563   */\n    tag_55:\n        /* \"#utility.yul\":1555:1556   */\n      0x00\n        /* \"#utility.yul\":1552:1553   */\n      dup1\n        /* \"#utility.yul\":1545:1557   */\n      revert\n        /* \"#utility.yul\":1569:1686   */\n    tag_56:\n        /* \"#utility.yul\":1678:1679   */\n      0x00\n        /* \"#utility.yul\":1675:1676   */\n      dup1\n        /* \"#utility.yul\":1668:1680   */\n      revert\n        /* \"#utility.yul\":1692:1809   */\n    tag_57:\n        /* \"#utility.yul\":1801:1802   */\n      0x00\n        /* \"#utility.yul\":1798:1799   */\n      dup1\n        /* \"#utility.yul\":1791:1803   */\n      revert\n        /* \"#utility.yul\":1815:1995   */\n    tag_58:\n        /* \"#utility.yul\":1863:1940   */\n      0x4e487b7100000000000000000000000000000000000000000000000000000000\n        /* \"#utility.yul\":1860:1861   */\n      0x00\n        /* \"#utility.yul\":1853:1941   */\n      mstore\n        /* \"#utility.yul\":1960:1964   */\n      0x41\n        /* \"#utility.yul\":1957:1958   */\n      0x04\n        /* \"#utility.yul\":1950:1965   */\n      mstore\n        /* \"#utility.yul\":1984:1988   */\n      0x24\n        /* \"#utility.yul\":1981:1982   */\n      0x00\n        /* \"#utility.yul\":1974:1989   */\n      revert\n        /* \"#utility.yul\":2001:2282   */\n    tag_59:\n        /* \"#utility.yul\":2084:2111   */\n      tag_101\n        /* \"#utility.yul\":2106:2110   */\n      dup3\n        /* \"#utility.yul\":2084:2111   */\n      tag_51\n      jump\t// in\n    tag_101:\n        /* \"#utility.yul\":2076:2082   */\n      dup2\n        /* \"#utility.yul\":2072:2112   */\n      add\n        /* \"#utility.yul\":2214:2220   */\n      dup2\n        /* \"#utility.yul\":2202:2212   */\n      dup2\n        /* \"#utility.yul\":2199:2221   */\n      lt\n        /* \"#utility.yul\":2178:2196   */\n      0xffffffffffffffff\n        /* \"#utility.yul\":2166:2176   */\n      dup3\n        /* \"#utility.yul\":2163:2197   */\n      gt\n        /* \"#utility.yul\":2160:2222   */\n      or\n        /* \"#utility.yul\":2157:2245   */\n      iszero\n      tag_102\n      jumpi\n        /* \"#utility.yul\":2225:2243   */\n      tag_103\n      tag_58\n      jump\t// in\n    tag_103:\n        /* \"#utility.yul\":2157:2245   */\n    tag_102:\n        /* \"#utility.yul\":2265:2275   */\n      dup1\n        /* \"#utility.yul\":2261:2263   */\n      0x40\n        /* \"#utility.yul\":2254:2276   */\n      mstore\n        /* \"#utility.yul\":2044:2282   */\n      pop\n        /* \"#utility.yul\":2001:2282   */\n      pop\n      pop\n      jump\t// out\n        /* \"#utility.yul\":2288:2417   */\n    tag_60:\n        /* \"#utility.yul\":2322:2328   */\n      0x00\n        /* \"#utility.yul\":2349:2369   */\n      tag_105\n      tag_53\n      jump\t// in\n    tag_105:\n        /* \"#utility.yul\":2339:2369   */\n      swap1\n      pop\n        /* \"#utility.yul\":2378:2411   */\n      tag_106\n        /* \"#utility.yul\":2406:2410   */\n      dup3\n        /* \"#utility.yul\":2398:2404   */\n      dup3\n        /* \"#utility.yul\":2378:2411   */\n      tag_59\n      jump\t// in\n    tag_106:\n        /* \"#utility.yul\":2288:2417   */\n      swap2\n      swap1\n      pop\n      jump\t// out\n        /* \"#utility.yul\":2423:2731   */\n    tag_61:\n        /* \"#utility.yul\":2485:2489   */\n      0x00\n        /* \"#utility.yul\":2575:2593   */\n      0xffffffffffffffff\n        /* \"#utility.yul\":2567:2573   */\n      dup3\n        /* \"#utility.yul\":2564:2594   */\n      gt\n        /* \"#utility.yul\":2561:2617   */\n      iszero\n      tag_108\n      jumpi\n        /* \"#utility.yul\":2597:2615   */\n      tag_109\n      tag_58\n      jump\t// in\n    tag_109:\n        /* \"#utility.yul\":2561:2617   */\n    tag_108:\n        /* \"#utility.yul\":2635:2664   */\n      tag_110\n        /* \"#utility.yul\":2657:2663   */\n      dup3\n        /* \"#utility.yul\":2635:2664   */\n      tag_51\n      jump\t// in\n    tag_110:\n        /* \"#utility.yul\":2627:2664   */\n      swap1\n      pop\n        /* \"#utility.yul\":2719:2723   */\n      0x20\n        /* \"#utility.yul\":2713:2717   */\n      dup2\n        /* \"#utility.yul\":2709:2724   */\n      add\n        /* \"#utility.yul\":2701:2724   */\n      swap1\n      pop\n        /* \"#utility.yul\":2423:2731   */\n      swap2\n      swap1\n      pop\n      jump\t// out\n        /* \"#utility.yul\":2737:2885   */\n    tag_62:\n        /* \"#utility.yul\":2835:2841   */\n      dup3\n        /* \"#utility.yul\":2830:2833   */\n      dup2\n        /* \"#utility.yul\":2825:2828   */\n      dup4\n        /* \"#utility.yul\":2812:2842   */\n      calldatacopy\n        /* \"#utility.yul\":2876:2877   */\n      0x00\n        /* \"#utility.yul\":2867:2873   */\n      dup4\n        /* \"#utility.yul\":2862:2865   */\n      dup4\n        /* \"#utility.yul\":2858:2874   */\n      add\n        /* \"#utility.yul\":2851:2878   */\n      mstore\n        /* \"#utility.yul\":2737:2885   */\n      pop\n      pop\n      pop\n      jump\t// out\n        /* \"#utility.yul\":2891:3316   */\n    tag_63:\n        /* \"#utility.yul\":2969:2974   */\n      0x00\n        /* \"#utility.yul\":2994:3060   */\n      tag_113\n        /* \"#utility.yul\":3010:3059   */\n      tag_114\n        /* \"#utility.yul\":3052:3058   */\n      dup5\n        /* \"#utility.yul\":3010:3059   */\n      tag_61\n      jump\t// in\n    tag_114:\n        /* \"#utility.yul\":2994:3060   */\n      tag_60\n      jump\t// in\n    tag_113:\n        /* \"#utility.yul\":2985:3060   */\n      swap1\n      pop\n        /* \"#utility.yul\":3083:3089   */\n      dup3\n        /* \"#utility.yul\":3076:3081   */\n      dup2\n        /* \"#utility.yul\":3069:3090   */\n      mstore\n        /* \"#utility.yul\":3121:3125   */\n      0x20\n        /* \"#utility.yul\":3114:3119   */\n      dup2\n        /* \"#utility.yul\":3110:3126   */\n      add\n        /* \"#utility.yul\":3159:3162   */\n      dup5\n        /* \"#utility.yul\":3150:3156   */\n      dup5\n        /* \"#utility.yul\":3145:3148   */\n      dup5\n        /* \"#utility.yul\":3141:3157   */\n      add\n        /* \"#utility.yul\":3138:3163   */\n      gt\n        /* \"#utility.yul\":3135:3247   */\n      iszero\n      tag_115\n      jumpi\n        /* \"#utility.yul\":3166:3245   */\n      tag_116\n      tag_57\n      jump\t// in\n    tag_116:\n        /* \"#utility.yul\":3135:3247   */\n    tag_115:\n        /* \"#utility.yul\":3256:3310   */\n      tag_117\n        /* \"#utility.yul\":3303:3309   */\n      dup5\n        /* \"#utility.yul\":3298:3301   */\n      dup3\n        /* \"#utility.yul\":3293:3296   */\n      dup6\n        /* \"#utility.yul\":3256:3310   */\n      tag_62\n      jump\t// in\n    tag_117:\n        /* \"#utility.yul\":2975:3316   */\n      pop\n        /* \"#utility.yul\":2891:3316   */\n      swap4\n      swap3\n      pop\n      pop\n      pop\n      jump\t// out\n        /* \"#utility.yul\":3336:3676   */\n    tag_64:\n        /* \"#utility.yul\":3392:3397   */\n      0x00\n        /* \"#utility.yul\":3441:3444   */\n      dup3\n        /* \"#utility.yul\":3434:3438   */\n      0x1f\n        /* \"#utility.yul\":3426:3432   */\n      dup4\n        /* \"#utility.yul\":3422:3439   */\n      add\n        /* \"#utility.yul\":3418:3445   */\n      slt\n        /* \"#utility.yul\":3408:3530   */\n      tag_119\n      jumpi\n        /* \"#utility.yul\":3449:3528   */\n      tag_120\n      tag_56\n      jump\t// in\n    tag_120:\n        /* \"#utility.yul\":3408:3530   */\n    tag_119:\n        /* \"#utility.yul\":3566:3572   */\n      dup2\n        /* \"#utility.yul\":3553:3573   */\n      calldataload\n        /* \"#utility.yul\":3591:3670   */\n      tag_121\n        /* \"#utility.yul\":3666:3669   */\n      dup5\n        /* \"#utility.yul\":3658:3664   */\n      dup3\n        /* \"#utility.yul\":3651:3655   */\n      0x20\n        /* \"#utility.yul\":3643:3649   */\n      dup7\n        /* \"#utility.yul\":3639:3656   */\n      add\n        /* \"#utility.yul\":3591:3670   */\n      tag_63\n      jump\t// in\n    tag_121:\n        /* \"#utility.yul\":3582:3670   */\n      swap2\n      pop\n        /* \"#utility.yul\":3398:3676   */\n      pop\n        /* \"#utility.yul\":3336:3676   */\n      swap3\n      swap2\n      pop\n      pop\n      jump\t// out\n        /* \"#utility.yul\":3682:4516   */\n    tag_13:\n        /* \"#utility.yul\":3770:3776   */\n      0x00\n        /* \"#utility.yul\":3778:3784   */\n      dup1\n        /* \"#utility.yul\":3827:3829   */\n      0x40\n        /* \"#utility.yul\":3815:3824   */\n      dup4\n        /* \"#utility.yul\":3806:3813   */\n      dup6\n        /* \"#utility.yul\":3802:3825   */\n      sub\n        /* \"#utility.yul\":3798:3830   */\n      slt\n        /* \"#utility.yul\":3795:3914   */\n      iszero\n      tag_123\n      jumpi\n        /* \"#utility.yul\":3833:3912   */\n      tag_124\n      tag_54\n      jump\t// in\n    tag_124:\n        /* \"#utility.yul\":3795:3914   */\n    tag_123:\n        /* \"#utility.yul\":3981:3982   */\n      0x00\n        /* \"#utility.yul\":3970:3979   */\n      dup4\n        /* \"#utility.yul\":3966:3983   */\n      add\n        /* \"#utility.yul\":3953:3984   */\n      calldataload\n        /* \"#utility.yul\":4011:4029   */\n      0xffffffffffffffff\n        /* \"#utility.yul\":4003:4009   */\n      dup2\n        /* \"#utility.yul\":4000:4030   */\n      gt\n        /* \"#utility.yul\":3997:4114   */\n      iszero\n      tag_125\n      jumpi\n        /* \"#utility.yul\":4033:4112   */\n      tag_126\n      tag_55\n      jump\t// in\n    tag_126:\n        /* \"#utility.yul\":3997:4114   */\n    tag_125:\n        /* \"#utility.yul\":4138:4201   */\n      tag_127\n        /* \"#utility.yul\":4193:4200   */\n      dup6\n        /* \"#utility.yul\":4184:4190   */\n      dup3\n        /* \"#utility.yul\":4173:4182   */\n      dup7\n        /* \"#utility.yul\":4169:4191   */\n      add\n        /* \"#utility.yul\":4138:4201   */\n      tag_64\n      jump\t// in\n    tag_127:\n        /* \"#utility.yul\":4128:4201   */\n      swap3\n      pop\n        /* \"#utility.yul\":3924:4211   */\n      pop\n        /* \"#utility.yul\":4278:4280   */\n      0x20\n        /* \"#utility.yul\":4267:4276   */\n      dup4\n        /* \"#utility.yul\":4263:4281   */\n      add\n        /* \"#utility.yul\":4250:4282   */\n      calldataload\n        /* \"#utility.yul\":4309:4327   */\n      0xffffffffffffffff\n        /* \"#utility.yul\":4301:4307   */\n      dup2\n        /* \"#utility.yul\":4298:4328   */\n      gt\n        /* \"#utility.yul\":4295:4412   */\n      iszero\n      tag_128\n      jumpi\n        /* \"#utility.yul\":4331:4410   */\n      tag_129\n      tag_55\n      jump\t// in\n    tag_129:\n        /* \"#utility.yul\":4295:4412   */\n    tag_128:\n        /* \"#utility.yul\":4436:4499   */\n      tag_130\n        /* \"#utility.yul\":4491:4498   */\n      dup6\n        /* \"#utility.yul\":4482:4488   */\n      dup3\n        /* \"#utility.yul\":4471:4480   */\n      dup7\n        /* \"#utility.yul\":4467:4489   */\n      add\n        /* \"#utility.yul\":4436:4499   */\n      tag_64\n      jump\t// in\n    tag_130:\n        /* \"#utility.yul\":4426:4499   */\n      swap2\n      pop\n        /* \"#utility.yul\":4221:4509   */\n      pop\n        /* \"#utility.yul\":3682:4516   */\n      swap3\n      pop\n      swap3\n      swap1\n      pop\n      jump\t// out\n        /* \"#utility.yul\":4522:5036   */\n    tag_21:\n        /* \"#utility.yul\":4683:4687   */\n      0x00\n        /* \"#utility.yul\":4721:4723   */\n      0x40\n        /* \"#utility.yul\":4710:4719   */\n      dup3\n        /* \"#utility.yul\":4706:4724   */\n      add\n        /* \"#utility.yul\":4698:4724   */\n      swap1\n      pop\n        /* \"#utility.yul\":4770:4779   */\n      dup2\n        /* \"#utility.yul\":4764:4768   */\n      dup2\n        /* \"#utility.yul\":4760:4780   */\n      sub\n        /* \"#utility.yul\":4756:4757   */\n      0x00\n        /* \"#utility.yul\":4745:4754   */\n      dup4\n        /* \"#utility.yul\":4741:4758   */\n      add\n        /* \"#utility.yul\":4734:4781   */\n      mstore\n        /* \"#utility.yul\":4798:4876   */\n      tag_132\n        /* \"#utility.yul\":4871:4875   */\n      dup2\n        /* \"#utility.yul\":4862:4868   */\n      dup6\n        /* \"#utility.yul\":4798:4876   */\n      tag_52\n      jump\t// in\n    tag_132:\n        /* \"#utility.yul\":4790:4876   */\n      swap1\n      pop\n        /* \"#utility.yul\":4923:4932   */\n      dup2\n        /* \"#utility.yul\":4917:4921   */\n      dup2\n        /* \"#utility.yul\":4913:4933   */\n      sub\n        /* \"#utility.yul\":4908:4910   */\n      0x20\n        /* \"#utility.yul\":4897:4906   */\n      dup4\n        /* \"#utility.yul\":4893:4911   */\n      add\n        /* \"#utility.yul\":4886:4934   */\n      mstore\n        /* \"#utility.yul\":4951:5029   */\n      tag_133\n        /* \"#utility.yul\":5024:5028   */\n      dup2\n        /* \"#utility.yul\":5015:5021   */\n      dup5\n        /* \"#utility.yul\":4951:5029   */\n      tag_52\n      jump\t// in\n    tag_133:\n        /* \"#utility.yul\":4943:5029   */\n      swap1\n      pop\n        /* \"#utility.yul\":4522:5036   */\n      swap4\n      swap3\n      pop\n      pop\n      pop\n      jump\t// out\n        /* \"#utility.yul\":5042:5222   */\n    tag_65:\n        /* \"#utility.yul\":5090:5167   */\n      0x4e487b7100000000000000000000000000000000000000000000000000000000\n        /* \"#utility.yul\":5087:5088   */\n      0x00\n        /* \"#utility.yul\":5080:5168   */\n      mstore\n        /* \"#utility.yul\":5187:5191   */\n      0x22\n        /* \"#utility.yul\":5184:5185   */\n      0x04\n        /* \"#utility.yul\":5177:5192   */\n      mstore\n        /* \"#utility.yul\":5211:5215   */\n      0x24\n        /* \"#utility.yul\":5208:5209   */\n      0x00\n        /* \"#utility.yul\":5201:5216   */\n      revert\n        /* \"#utility.yul\":5228:5548   */\n    tag_23:\n        /* \"#utility.yul\":5272:5278   */\n      0x00\n        /* \"#utility.yul\":5309:5310   */\n      0x02\n        /* \"#utility.yul\":5303:5307   */\n      dup3\n        /* \"#utility.yul\":5299:5311   */\n      div\n        /* \"#utility.yul\":5289:5311   */\n      swap1\n      pop\n        /* \"#utility.yul\":5356:5357   */\n      0x01\n        /* \"#utility.yul\":5350:5354   */\n      dup3\n        /* \"#utility.yul\":5346:5358   */\n      and\n        /* \"#utility.yul\":5377:5395   */\n      dup1\n        /* \"#utility.yul\":5367:5448   */\n      tag_136\n      jumpi\n        /* \"#utility.yul\":5433:5437   */\n      0x7f\n        /* \"#utility.yul\":5425:5431   */\n      dup3\n        /* \"#utility.yul\":5421:5438   */\n      and\n        /* \"#utility.yul\":5411:5438   */\n      swap2\n      pop\n        /* \"#utility.yul\":5367:5448   */\n    tag_136:\n        /* \"#utility.yul\":5495:5497   */\n      0x20\n        /* \"#utility.yul\":5487:5493   */\n      dup3\n        /* \"#utility.yul\":5484:5498   */\n      lt\n        /* \"#utility.yul\":5464:5482   */\n      dup2\n        /* \"#utility.yul\":5461:5499   */\n      sub\n        /* \"#utility.yul\":5458:5542   */\n      tag_137\n      jumpi\n        /* \"#utility.yul\":5514:5532   */\n      tag_138\n      tag_65\n      jump\t// in\n    tag_138:\n        /* \"#utility.yul\":5458:5542   */\n    tag_137:\n        /* \"#utility.yul\":5279:5548   */\n      pop\n        /* \"#utility.yul\":5228:5548   */\n      swap2\n      swap1\n      pop\n      jump\t// out\n        /* \"#utility.yul\":5554:5695   */\n    tag_66:\n        /* \"#utility.yul\":5603:5607   */\n      0x00\n        /* \"#utility.yul\":5626:5629   */\n      dup2\n        /* \"#utility.yul\":5618:5629   */\n      swap1\n      pop\n        /* \"#utility.yul\":5649:5652   */\n      dup2\n        /* \"#utility.yul\":5646:5647   */\n      0x00\n        /* \"#utility.yul\":5639:5653   */\n      mstore\n        /* \"#utility.yul\":5683:5687   */\n      0x20\n        /* \"#utility.yul\":5680:5681   */\n      0x00\n        /* \"#utility.yul\":5670:5688   */\n      keccak256\n        /* \"#utility.yul\":5662:5688   */\n      swap1\n      pop\n        /* \"#utility.yul\":5554:5695   */\n      swap2\n      swap1\n      pop\n      jump\t// out\n        /* \"#utility.yul\":5701:5794   */\n    tag_67:\n        /* \"#utility.yul\":5738:5744   */\n      0x00\n        /* \"#utility.yul\":5785:5787   */\n      0x20\n        /* \"#utility.yul\":5780:5782   */\n      0x1f\n        /* \"#utility.yul\":5773:5778   */\n      dup4\n        /* \"#utility.yul\":5769:5783   */\n      add\n        /* \"#utility.yul\":5765:5788   */\n      div\n        /* \"#utility.yul\":5755:5788   */\n      swap1\n      pop\n        /* \"#utility.yul\":5701:5794   */\n      swap2\n      swap1\n      pop\n      jump\t// out\n        /* \"#utility.yul\":5800:5907   */\n    tag_68:\n        /* \"#utility.yul\":5844:5852   */\n      0x00\n        /* \"#utility.yul\":5894:5899   */\n      dup3\n        /* \"#utility.yul\":5888:5892   */\n      dup3\n        /* \"#utility.yul\":5884:5900   */\n      shl\n        /* \"#utility.yul\":5863:5900   */\n      swap1\n      pop\n        /* \"#utility.yul\":5800:5907   */\n      swap3\n      swap2\n      pop\n      pop\n      jump\t// out\n        /* \"#utility.yul\":5913:6306   */\n    tag_69:\n        /* \"#utility.yul\":5982:5988   */\n      0x00\n        /* \"#utility.yul\":6032:6033   */\n      0x08\n        /* \"#utility.yul\":6020:6030   */\n      dup4\n        /* \"#utility.yul\":6016:6034   */\n      mul\n        /* \"#utility.yul\":6055:6152   */\n      tag_143\n        /* \"#utility.yul\":6085:6151   */\n      0xffffffffffffffffffffffffffffffffffffffffffffffffffffffffffffffff\n        /* \"#utility.yul\":6074:6083   */\n      dup3\n        /* \"#utility.yul\":6055:6152   */\n      tag_68\n      jump\t// in\n    tag_143:\n        /* \"#utility.yul\":6173:6212   */\n      tag_144\n        /* \"#utility.yul\":6203:6211   */\n      dup7\n        /* \"#utility.yul\":6192:6201   */\n      dup4\n        /* \"#utility.yul\":6173:6212   */\n      tag_68\n      jump\t// in\n    tag_144:\n        /* \"#utility.yul\":6161:6212   */\n      swap6\n      pop\n        /* \"#utility.yul\":6245:6249   */\n      dup1\n        /* \"#utility.yul\":6241:6250   */\n      not\n        /* \"#utility.yul\":6234:6239   */\n      dup5\n        /* \"#utility.yul\":6230:6251   */\n      and\n        /* \"#utility.yul\":6221:6251   */\n      swap4\n      pop\n        /* \"#utility.yul\":6294:6298   */\n      dup1\n        /* \"#utility.yul\":6284:6292   */\n      dup7\n        /* \"#utility.yul\":6280:6299   */\n      and\n        /* \"#utility.yul\":6273:6278   */\n      dup5\n        /* \"#utility.yul\":6270:6300   */\n      or\n        /* \"#utility.yul\":6260:6300   */\n      swap3\n      pop\n        /* \"#utility.yul\":5989:6306   */\n      pop\n      pop\n        /* \"#utility.yul\":5913:6306   */\n      swap4\n      swap3\n      pop\n      pop\n      pop\n      jump\t// out\n        /* \"#utility.yul\":6312:6389   */\n    tag_70:\n        /* \"#utility.yul\":6349:6356   */\n      0x00\n        /* \"#utility.yul\":6378:6383   */\n      dup2\n        /* \"#utility.yul\":6367:6383   */\n      swap1\n      pop\n        /* \"#utility.yul\":6312:6389   */\n      swap2\n      swap1\n      pop\n      jump\t// out\n        /* \"#utility.yul\":6395:6455   */\n    tag_71:\n        /* \"#utility.yul\":6423:6426   */\n      0x00\n        /* \"#utility.yul\":6444:6449   */\n      dup2\n        /* \"#utility.yul\":6437:6449   */\n      swap1\n      pop\n        /* \"#utility.yul\":6395:6455   */\n      swap2\n      swap1\n      pop\n      jump\t// out\n        /* \"#utility.yul\":6461:6603   */\n    tag_72:\n        /* \"#utility.yul\":6511:6520   */\n      0x00\n        /* \"#utility.yul\":6544:6597   */\n      tag_148\n        /* \"#utility.yul\":6562:6596   */\n      tag_149\n        /* \"#utility.yul\":6571:6595   */\n      tag_150\n        /* \"#utility.yul\":6589:6594   */\n      dup5\n        /* \"#utility.yul\":6571:6595   */\n      tag_70\n      jump\t// in\n    tag_150:\n        /* \"#utility.yul\":6562:6596   */\n      tag_71\n      jump\t// in\n    tag_149:\n        /* \"#utility.yul\":6544:6597   */\n      tag_70\n      jump\t// in\n    tag_148:\n        /* \"#utility.yul\":6531:6597   */\n      swap1\n      pop\n        /* \"#utility.yul\":6461:6603   */\n      swap2\n      swap1\n      pop\n      jump\t// out\n        /* \"#utility.yul\":6609:6684   */\n    tag_73:\n        /* \"#utility.yul\":6652:6655   */\n      0x00\n        /* \"#utility.yul\":6673:6678   */\n      dup2\n        /* \"#utility.yul\":6666:6678   */\n      swap1\n      pop\n        /* \"#utility.yul\":6609:6684   */\n      swap2\n      swap1\n      pop\n      jump\t// out\n        /* \"#utility.yul\":6690:6959   */\n    tag_74:\n        /* \"#utility.yul\":6800:6839   */\n      tag_153\n        /* \"#utility.yul\":6831:6838   */\n      dup4\n        /* \"#utility.yul\":6800:6839   */\n      tag_72\n      jump\t// in\n    tag_153:\n        /* \"#utility.yul\":6861:6952   */\n      tag_154\n        /* \"#utility.yul\":6910:6951   */\n      tag_155\n        /* \"#utility.yul\":6934:6950   */\n      dup3\n        /* \"#utility.yul\":6910:6951   */\n      tag_73\n      jump\t// in\n    tag_155:\n        /* \"#utility.yul\":6902:6908   */\n      dup5\n        /* \"#utility.yul\":6895:6899   */\n      dup5\n        /* \"#utility.yul\":6889:6900   */\n      sload\n        /* \"#utility.yul\":6861:6952   */\n      tag_69\n      jump\t// in\n    tag_154:\n        /* \"#utility.yul\":6855:6859   */\n      dup3\n        /* \"#utility.yul\":6848:6953   */\n      sstore\n        /* \"#utility.yul\":6766:6959   */\n      pop\n        /* \"#utility.yul\":6690:6959   */\n      pop\n      pop\n      pop\n      jump\t// out\n        /* \"#utility.yul\":6965:7038   */\n    tag_75:\n        /* \"#utility.yul\":7010:7013   */\n      0x00\n        /* \"#utility.yul\":6965:7038   */\n      swap1\n      jump\t// out\n        /* \"#utility.yul\":7044:7233   */\n    tag_76:\n        /* \"#utility.yul\":7121:7153   */\n      tag_158\n      tag_75\n      jump\t// in\n    tag_158:\n        /* \"#utility.yul\":7162:7227   */\n      tag_159\n        /* \"#utility.yul\":7220:7226   */\n      dup2\n        /* \"#utility.yul\":7212:7218   */\n      dup5\n        /* \"#utility.yul\":7206:7210   */\n      dup5\n        /* \"#utility.yul\":7162:7227   */\n      tag_74\n      jump\t// in\n    tag_159:\n        /* \"#utility.yul\":7097:7233   */\n      pop\n        /* \"#utility.yul\":7044:7233   */\n      pop\n      pop\n      jump\t// out\n        /* \"#utility.yul\":7239:7425   */\n    tag_77:\n        /* \"#utility.yul\":7299:7419   */\n    tag_161:\n        /* \"#utility.yul\":7316:7319   */\n      dup2\n        /* \"#utility.yul\":7309:7314   */\n      dup2\n        /* \"#utility.yul\":7306:7320   */\n      lt\n        /* \"#utility.yul\":7299:7419   */\n      iszero\n      tag_163\n      jumpi\n        /* \"#utility.yul\":7370:7409   */\n      tag_164\n        /* \"#utility.yul\":7407:7408   */\n      0x00\n        /* \"#utility.yul\":7400:7405   */\n      dup3\n        /* \"#utility.yul\":7370:7409   */\n      tag_76\n      jump\t// in\n    tag_164:\n        /* \"#utility.yul\":7343:7344   */\n      0x01\n        /* \"#utility.yul\":7336:7341   */\n      dup2\n        /* \"#utility.yul\":7332:7345   */\n      add\n        /* \"#utility.yul\":7323:7345   */\n      swap1\n      pop\n        /* \"#utility.yul\":7299:7419   */\n      jump(tag_161)\n    tag_163:\n        /* \"#utility.yul\":7239:7425   */\n      pop\n      pop\n      jump\t// out\n        /* \"#utility.yul\":7431:7974   */\n    tag_78:\n        /* \"#utility.yul\":7532:7534   */\n      0x1f\n        /* \"#utility.yul\":7527:7530   */\n      dup3\n        /* \"#utility.yul\":7524:7535   */\n      gt\n        /* \"#utility.yul\":7521:7967   */\n      iszero\n      tag_166\n      jumpi\n        /* \"#utility.yul\":7566:7604   */\n      tag_167\n        /* \"#utility.yul\":7598:7603   */\n      dup2\n        /* \"#utility.yul\":7566:7604   */\n      tag_66\n      jump\t// in\n    tag_167:\n        /* \"#utility.yul\":7650:7679   */\n      tag_168\n        /* \"#utility.yul\":7668:7678   */\n      dup5\n        /* \"#utility.yul\":7650:7679   */\n      tag_67\n      jump\t// in\n    tag_168:\n        /* \"#utility.yul\":7640:7648   */\n      dup2\n        /* \"#utility.yul\":7636:7680   */\n      add\n        /* \"#utility.yul\":7833:7835   */\n      0x20\n        /* \"#utility.yul\":7821:7831   */\n      dup6\n        /* \"#utility.yul\":7818:7836   */\n      lt\n        /* \"#utility.yul\":7815:7864   */\n      iszero\n      tag_169\n      jumpi\n        /* \"#utility.yul\":7854:7862   */\n      dup2\n        /* \"#utility.yul\":7839:7862   */\n      swap1\n      pop\n        /* \"#utility.yul\":7815:7864   */\n    tag_169:\n        /* \"#utility.yul\":7877:7957   */\n      tag_170\n        /* \"#utility.yul\":7933:7955   */\n      tag_171\n        /* \"#utility.yul\":7951:7954   */\n      dup6\n        /* \"#utility.yul\":7933:7955   */\n      tag_67\n      jump\t// in\n    tag_171:\n        /* \"#utility.yul\":7923:7931   */\n      dup4\n        /* \"#utility.yul\":7919:7956   */\n      add\n        /* \"#utility.yul\":7906:7917   */\n      dup3\n        /* \"#utility.yul\":7877:7957   */\n      tag_77\n      jump\t// in\n    tag_170:\n        /* \"#utility.yul\":7536:7967   */\n      pop\n      pop\n        /* \"#utility.yul\":7521:7967   */\n    tag_166:\n        /* \"#utility.yul\":7431:7974   */\n      pop\n      pop\n      pop\n      jump\t// out\n        /* \"#utility.yul\":7980:8097   */\n    tag_79:\n        /* \"#utility.yul\":8034:8042   */\n      0x00\n        /* \"#utility.yul\":8084:8089   */\n      dup3\n        /* \"#utility.yul\":8078:8082   */\n      dup3\n        /* \"#utility.yul\":8074:8090   */\n      shr\n        /* \"#utility.yul\":8053:8090   */\n      swap1\n      pop\n        /* \"#utility.yul\":7980:8097   */\n      swap3\n      swap2\n      pop\n      pop\n      jump\t// out\n        /* \"#utility.yul\":8103:8272   */\n    tag_80:\n        /* \"#utility.yul\":8147:8153   */\n      0x00\n        /* \"#utility.yul\":8180:8231   */\n      tag_174\n        /* \"#utility.yul\":8228:8229   */\n      0x00\n        /* \"#utility.yul\":8224:8230   */\n      not\n        /* \"#utility.yul\":8216:8221   */\n      dup5\n        /* \"#utility.yul\":8213:8214   */\n      0x08\n        /* \"#utility.yul\":8209:8222   */\n      mul\n        /* \"#utility.yul\":8180:8231   */\n      tag_79\n      jump\t// in\n    tag_174:\n        /* \"#utility.yul\":8176:8232   */\n      not\n        /* \"#utility.yul\":8261:8265   */\n      dup1\n        /* \"#utility.yul\":8255:8259   */\n      dup4\n        /* \"#utility.yul\":8251:8266   */\n      and\n        /* \"#utility.yul\":8241:8266   */\n      swap2\n      pop\n        /* \"#utility.yul\":8154:8272   */\n      pop\n        /* \"#utility.yul\":8103:8272   */\n      swap3\n      swap2\n      pop\n      pop\n      jump\t// out\n        /* \"#utility.yul\":8277:8572   */\n    tag_81:\n        /* \"#utility.yul\":8353:8357   */\n      0x00\n        /* \"#utility.yul\":8499:8528   */\n      tag_176\n        /* \"#utility.yul\":8524:8527   */\n      dup4\n        /* \"#utility.yul\":8518:8522   */\n      dup4\n        /* \"#utility.yul\":8499:8528   */\n      tag_80\n      jump\t// in\n    tag_176:\n        /* \"#utility.yul\":8491:8528   */\n      swap2\n      pop\n        /* \"#utility.yul\":8561:8564   */\n      dup3\n        /* \"#utility.yul\":8558:8559   */\n      0x02\n        /* \"#utility.yul\":8554:8565   */\n      mul\n        /* \"#utility.yul\":8548:8552   */\n      dup3\n        /* \"#utility.yul\":8545:8566   */\n      or\n        /* \"#utility.yul\":8537:8566   */\n      swap1\n      pop\n        /* \"#utility.yul\":8277:8572   */\n      swap3\n      swap2\n      pop\n      pop\n      jump\t// out\n        /* \"#utility.yul\":8577:9972   */\n    tag_30:\n        /* \"#utility.yul\":8694:8731   */\n      tag_178\n        /* \"#utility.yul\":8727:8730   */\n      dup3\n        /* \"#utility.yul\":8694:8731   */\n      tag_48\n      jump\t// in\n    tag_178:\n        /* \"#utility.yul\":8796:8814   */\n      0xffffffffffffffff\n        /* \"#utility.yul\":8788:8794   */\n      dup2\n        /* \"#utility.yul\":8785:8815   */\n      gt\n        /* \"#utility.yul\":8782:8838   */\n      iszero\n      tag_179\n      jumpi\n        /* \"#utility.yul\":8818:8836   */\n      tag_180\n      tag_58\n      jump\t// in\n    tag_180:\n        /* \"#utility.yul\":8782:8838   */\n    tag_179:\n        /* \"#utility.yul\":8862:8900   */\n      tag_181\n        /* \"#utility.yul\":8894:8898   */\n      dup3\n        /* \"#utility.yul\":8888:8899   */\n      sload\n        /* \"#utility.yul\":8862:8900   */\n      tag_23\n      jump\t// in\n    tag_181:\n        /* \"#utility.yul\":8947:9014   */\n      tag_182\n        /* \"#utility.yul\":9007:9013   */\n      dup3\n        /* \"#utility.yul\":8999:9005   */\n      dup3\n        /* \"#utility.yul\":8993:8997   */\n      dup6\n        /* \"#utility.yul\":8947:9014   */\n      tag_78\n      jump\t// in\n    tag_182:\n        /* \"#utility.yul\":9041:9042   */\n      0x00\n        /* \"#utility.yul\":9065:9069   */\n      0x20\n        /* \"#utility.yul\":9052:9069   */\n      swap1\n      pop\n        /* \"#utility.yul\":9097:9099   */\n      0x1f\n        /* \"#utility.yul\":9089:9095   */\n      dup4\n        /* \"#utility.yul\":9086:9100   */\n      gt\n        /* \"#utility.yul\":9114:9115   */\n      0x01\n        /* \"#utility.yul\":9109:9727   */\n      dup2\n      eq\n      tag_184\n      jumpi\n        /* \"#utility.yul\":9771:9772   */\n      0x00\n        /* \"#utility.yul\":9788:9794   */\n      dup5\n        /* \"#utility.yul\":9785:9862   */\n      iszero\n      tag_185\n      jumpi\n        /* \"#utility.yul\":9837:9846   */\n      dup3\n        /* \"#utility.yul\":9832:9835   */\n      dup8\n        /* \"#utility.yul\":9828:9847   */\n      add\n        /* \"#utility.yul\":9822:9848   */\n      mload\n        /* \"#utility.yul\":9813:9848   */\n      swap1\n      pop\n        /* \"#utility.yul\":9785:9862   */\n    tag_185:\n        /* \"#utility.yul\":9888:9955   */\n      tag_186\n        /* \"#utility.yul\":9948:9954   */\n      dup6\n        /* \"#utility.yul\":9941:9946   */\n      dup3\n        /* \"#utility.yul\":9888:9955   */\n      tag_81\n      jump\t// in\n    tag_186:\n        /* \"#utility.yul\":9882:9886   */\n      dup7\n        /* \"#utility.yul\":9875:9956   */\n      sstore\n        /* \"#utility.yul\":9744:9966   */\n      pop\n        /* \"#utility.yul\":9079:9966   */\n      jump(tag_183)\n        /* \"#utility.yul\":9109:9727   */\n    tag_184:\n        /* \"#utility.yul\":9161:9165   */\n      0x1f\n        /* \"#utility.yul\":9157:9166   */\n      not\n        /* \"#utility.yul\":9149:9155   */\n      dup5\n        /* \"#utility.yul\":9145:9167   */\n      and\n        /* \"#utility.yul\":9195:9232   */\n      tag_187\n        /* \"#utility.yul\":9227:9231   */\n      dup7\n        /* \"#utility.yul\":9195:9232   */\n      tag_66\n      jump\t// in\n    tag_187:\n        /* \"#utility.yul\":9254:9255   */\n      0x00\n        /* \"#utility.yul\":9268:9476   */\n    tag_188:\n        /* \"#utility.yul\":9282:9289   */\n      dup3\n        /* \"#utility.yul\":9279:9280   */\n      dup2\n        /* \"#utility.yul\":9276:9290   */\n      lt\n        /* \"#utility.yul\":9268:9476   */\n      iszero\n      tag_190\n      jumpi\n        /* \"#utility.yul\":9361:9370   */\n      dup5\n        /* \"#utility.yul\":9356:9359   */\n      dup10\n        /* \"#utility.yul\":9352:9371   */\n      add\n        /* \"#utility.yul\":9346:9372   */\n      mload\n        /* \"#utility.yul\":9338:9344   */\n      dup3\n        /* \"#utility.yul\":9331:9373   */\n      sstore\n        /* \"#utility.yul\":9412:9413   */\n      0x01\n        /* \"#utility.yul\":9404:9410   */\n      dup3\n        /* \"#utility.yul\":9400:9414   */\n      add\n        /* \"#utility.yul\":9390:9414   */\n      swap2\n      pop\n        /* \"#utility.yul\":9459:9461   */\n      0x20\n        /* \"#utility.yul\":9448:9457   */\n      dup6\n        /* \"#utility.yul\":9444:9462   */\n      add\n        /* \"#utility.yul\":9431:9462   */\n      swap5\n      pop\n        /* \"#utility.yul\":9305:9309   */\n      0x20\n        /* \"#utility.yul\":9302:9303   */\n      dup2\n        /* \"#utility.yul\":9298:9310   */\n      add\n        /* \"#utility.yul\":9293:9310   */\n      swap1\n      pop\n        /* \"#utility.yul\":9268:9476   */\n      jump(tag_188)\n    tag_190:\n        /* \"#utility.yul\":9504:9510   */\n      dup7\n        /* \"#utility.yul\":9495:9502   */\n      dup4\n        /* \"#utility.yul\":9492:9511   */\n      lt\n        /* \"#utility.yul\":9489:9668   */\n      iszero\n      tag_191\n      jumpi\n        /* \"#utility.yul\":9562:9571   */\n      dup5\n        /* \"#utility.yul\":9557:9560   */\n      dup10\n        /* \"#utility.yul\":9553:9572   */\n      add\n        /* \"#utility.yul\":9547:9573   */\n      mload\n        /* \"#utility.yul\":9605:9653   */\n      tag_192\n        /* \"#utility.yul\":9647:9651   */\n      0x1f\n        /* \"#utility.yul\":9639:9645   */\n      dup10\n        /* \"#utility.yul\":9635:9652   */\n      and\n        /* \"#utility.yul\":9624:9633   */\n      dup3\n        /* \"#utility.yul\":9605:9653   */\n      tag_80\n      jump\t// in\n    tag_192:\n        /* \"#utility.yul\":9597:9603   */\n      dup4\n        /* \"#utility.yul\":9590:9654   */\n      sstore\n        /* \"#utility.yul\":9512:9668   */\n      pop\n        /* \"#utility.yul\":9489:9668   */\n    tag_191:\n        /* \"#utility.yul\":9714:9715   */\n      0x01\n        /* \"#utility.yul\":9710:9711   */\n      0x02\n        /* \"#utility.yul\":9702:9708   */\n      dup9\n        /* \"#utility.yul\":9698:9712   */\n      mul\n        /* \"#utility.yul\":9694:9716   */\n      add\n        /* \"#utility.yul\":9688:9692   */\n      dup9\n        /* \"#utility.yul\":9681:9717   */\n      sstore\n        /* \"#utility.yul\":9116:9727   */\n      pop\n      pop\n      pop\n        /* \"#utility.yul\":9079:9966   */\n    tag_183:\n      pop\n        /* \"#utility.yul\":8669:9972   */\n      pop\n      pop\n      pop\n        /* \"#utility.yul\":8577:9972   */\n      pop\n      pop\n      jump\t// out\n\n    auxdata: 0xa2646970667358221220cd8faec83360eecf548c514d904ff89f7f9d160d76d420905c740a88ec12dbe664736f6c634300081a0033\n}\n",
				"bytecode": {
					"linkReferences": {},
					"object": "6080604052348015600e575f80fd5b506108a18061001c5f395ff3fe608060405234801561000f575f80fd5b506004361061004a575f3560e01c8063176ee95f1461004e578063735f5aec1461006c578063b975abb314610088578063df404d5c146100a6575b5f80fd5b6100566100c5565b6040516100639190610391565b60405180910390f35b610086600480360381019061008191906104ee565b610151565b005b610090610174565b60405161009d9190610391565b60405180910390f35b6100ae6101ff565b6040516100bc929190610564565b60405180910390f35b600180546100d2906105c6565b80601f01602080910402602001604051908101604052809291908181526020018280546100fe906105c6565b80156101495780601f1061012057610100808354040283529160200191610149565b820191905f5260205f20905b81548152906001019060200180831161012c57829003601f168201915b505050505081565b815f908161015f919061079c565b50806001908161016f919061079c565b505050565b5f8054610180906105c6565b80601f01602080910402602001604051908101604052809291908181526020018280546101ac906105c6565b80156101f75780601f106101ce576101008083540402835291602001916101f7565b820191905f5260205f20905b8154815290600101906020018083116101da57829003601f168201915b505050505081565b6060805f6001818054610211906105c6565b80601f016020809104026020016040519081016040528092919081815260200182805461023d906105c6565b80156102885780601f1061025f57610100808354040283529160200191610288565b820191905f5260205f20905b81548152906001019060200180831161026b57829003601f168201915b5050505050915080805461029b906105c6565b80601f01602080910402602001604051908101604052809291908181526020018280546102c7906105c6565b80156103125780601f106102e957610100808354040283529160200191610312565b820191905f5260205f20905b8154815290600101906020018083116102f557829003601f168201915b50505050509050915091509091565b5f81519050919050565b5f82825260208201905092915050565b8281835e5f83830152505050565b5f601f19601f8301169050919050565b5f61036382610321565b61036d818561032b565b935061037d81856020860161033b565b61038681610349565b840191505092915050565b5f6020820190508181035f8301526103a98184610359565b905092915050565b5f604051905090565b5f80fd5b5f80fd5b5f80fd5b5f80fd5b7f4e487b71000000000000000000000000000000000000000000000000000000005f52604160045260245ffd5b61040082610349565b810181811067ffffffffffffffff8211171561041f5761041e6103ca565b5b80604052505050565b5f6104316103b1565b905061043d82826103f7565b919050565b5f67ffffffffffffffff82111561045c5761045b6103ca565b5b61046582610349565b9050602081019050919050565b828183375f83830152505050565b5f61049261048d84610442565b610428565b9050828152602081018484840111156104ae576104ad6103c6565b5b6104b9848285610472565b509392505050565b5f82601f8301126104d5576104d46103c2565b5b81356104e5848260208601610480565b91505092915050565b5f8060408385031215610504576105036103ba565b5b5f83013567ffffffffffffffff811115610521576105206103be565b5b61052d858286016104c1565b925050602083013567ffffffffffffffff81111561054e5761054d6103be565b5b61055a858286016104c1565b9150509250929050565b5f6040820190508181035f83015261057c8185610359565b905081810360208301526105908184610359565b90509392505050565b7f4e487b71000000000000000000000000000000000000000000000000000000005f52602260045260245ffd5b5f60028204905060018216806105dd57607f821691505b6020821081036105f0576105ef610599565b5b50919050565b5f819050815f5260205f209050919050565b5f6020601f8301049050919050565b5f82821b905092915050565b5f600883026106527fffffffffffffffffffffffffffffffffffffffffffffffffffffffffffffffff82610617565b61065c8683610617565b95508019841693508086168417925050509392505050565b5f819050919050565b5f819050919050565b5f6106a061069b61069684610674565b61067d565b610674565b9050919050565b5f819050919050565b6106b983610686565b6106cd6106c5826106a7565b848454610623565b825550505050565b5f90565b6106e16106d5565b6106ec8184846106b0565b505050565b5b8181101561070f576107045f826106d9565b6001810190506106f2565b5050565b601f82111561075457610725816105f6565b61072e84610608565b8101602085101561073d578190505b61075161074985610608565b8301826106f1565b50505b505050565b5f82821c905092915050565b5f6107745f1984600802610759565b1980831691505092915050565b5f61078c8383610765565b9150826002028217905092915050565b6107a582610321565b67ffffffffffffffff8111156107be576107bd6103ca565b5b6107c882546105c6565b6107d3828285610713565b5f60209050601f831160018114610804575f84156107f2578287015190505b6107fc8582610781565b865550610863565b601f198416610812866105f6565b5f5b8281101561083957848901518255600182019150602085019450602081019050610814565b868310156108565784890151610852601f891682610765565b8355505b6001600288020188555050505b50505050505056fea2646970667358221220cd8faec83360eecf548c514d904ff89f7f9d160d76d420905c740a88ec12dbe664736f6c634300081a0033",
					"opcodes": "PUSH1 0x80 PUSH1 0x40 MSTORE CALLVALUE DUP1 ISZERO PUSH1 0xE JUMPI PUSH0 DUP1 REVERT JUMPDEST POP PUSH2 0x8A1 DUP1 PUSH2 0x1C PUSH0 CODECOPY PUSH0 RETURN INVALID PUSH1 0x80 PUSH1 0x40 MSTORE CALLVALUE DUP1 ISZERO PUSH2 0xF JUMPI PUSH0 DUP1 REVERT JUMPDEST POP PUSH1 0x4 CALLDATASIZE LT PUSH2 0x4A JUMPI PUSH0 CALLDATALOAD PUSH1 0xE0 SHR DUP1 PUSH4 0x176EE95F EQ PUSH2 0x4E JUMPI DUP1 PUSH4 0x735F5AEC EQ PUSH2 0x6C JUMPI DUP1 PUSH4 0xB975ABB3 EQ PUSH2 0x88 JUMPI DUP1 PUSH4 0xDF404D5C EQ PUSH2 0xA6 JUMPI JUMPDEST PUSH0 DUP1 REVERT JUMPDEST PUSH2 0x56 PUSH2 0xC5 JUMP JUMPDEST PUSH1 0x40 MLOAD PUSH2 0x63 SWAP2 SWAP1 PUSH2 0x391 JUMP JUMPDEST PUSH1 0x40 MLOAD DUP1 SWAP2 SUB SWAP1 RETURN JUMPDEST PUSH2 0x86 PUSH1 0x4 DUP1 CALLDATASIZE SUB DUP2 ADD SWAP1 PUSH2 0x81 SWAP2 SWAP1 PUSH2 0x4EE JUMP JUMPDEST PUSH2 0x151 JUMP JUMPDEST STOP JUMPDEST PUSH2 0x90 PUSH2 0x174 JUMP JUMPDEST PUSH1 0x40 MLOAD PUSH2 0x9D SWAP2 SWAP1 PUSH2 0x391 JUMP JUMPDEST PUSH1 0x40 MLOAD DUP1 SWAP2 SUB SWAP1 RETURN JUMPDEST PUSH2 0xAE PUSH2 0x1FF JUMP JUMPDEST PUSH1 0x40 MLOAD PUSH2 0xBC SWAP3 SWAP2 SWAP1 PUSH2 0x564 JUMP JUMPDEST PUSH1 0x40 MLOAD DUP1 SWAP2 SUB SWAP1 RETURN JUMPDEST PUSH1 0x1 DUP1 SLOAD PUSH2 0xD2 SWAP1 PUSH2 0x5C6 JUMP JUMPDEST DUP1 PUSH1 0x1F ADD PUSH1 0x20 DUP1 SWAP2 DIV MUL PUSH1 0x20 ADD PUSH1 0x40 MLOAD SWAP1 DUP2 ADD PUSH1 0x40 MSTORE DUP1 SWAP3 SWAP2 SWAP1 DUP2 DUP2 MSTORE PUSH1 0x20 ADD DUP3 DUP1 SLOAD PUSH2 0xFE SWAP1 PUSH2 0x5C6 JUMP JUMPDEST DUP1 ISZERO PUSH2 0x149 JUMPI DUP1 PUSH1 0x1F LT PUSH2 0x120 JUMPI PUSH2 0x100 DUP1 DUP4 SLOAD DIV MUL DUP4 MSTORE SWAP2 PUSH1 0x20 ADD SWAP2 PUSH2 0x149 JUMP JUMPDEST DUP3 ADD SWAP2 SWAP1 PUSH0 MSTORE PUSH1 0x20 PUSH0 KECCAK256 SWAP1 JUMPDEST DUP2 SLOAD DUP2 MSTORE SWAP1 PUSH1 0x1 ADD SWAP1 PUSH1 0x20 ADD DUP1 DUP4 GT PUSH2 0x12C JUMPI DUP3 SWAP1 SUB PUSH1 0x1F AND DUP3 ADD SWAP2 JUMPDEST POP POP POP POP POP DUP2 JUMP JUMPDEST DUP2 PUSH0 SWAP1 DUP2 PUSH2 0x15F SWAP2 SWAP1 PUSH2 0x79C JUMP JUMPDEST POP DUP1 PUSH1 0x1 SWAP1 DUP2 PUSH2 0x16F SWAP2 SWAP1 PUSH2 0x79C JUMP JUMPDEST POP POP POP JUMP JUMPDEST PUSH0 DUP1 SLOAD PUSH2 0x180 SWAP1 PUSH2 0x5C6 JUMP JUMPDEST DUP1 PUSH1 0x1F ADD PUSH1 0x20 DUP1 SWAP2 DIV MUL PUSH1 0x20 ADD PUSH1 0x40 MLOAD SWAP1 DUP2 ADD PUSH1 0x40 MSTORE DUP1 SWAP3 SWAP2 SWAP1 DUP2 DUP2 MSTORE PUSH1 0x20 ADD DUP3 DUP1 SLOAD PUSH2 0x1AC SWAP1 PUSH2 0x5C6 JUMP JUMPDEST DUP1 ISZERO PUSH2 0x1F7 JUMPI DUP1 PUSH1 0x1F LT PUSH2 0x1CE JUMPI PUSH2 0x100 DUP1 DUP4 SLOAD DIV MUL DUP4 MSTORE SWAP2 PUSH1 0x20 ADD SWAP2 PUSH2 0x1F7 JUMP JUMPDEST DUP3 ADD SWAP2 SWAP1 PUSH0 MSTORE PUSH1 0x20 PUSH0 KECCAK256 SWAP1 JUMPDEST DUP2 SLOAD DUP2 MSTORE SWAP1 PUSH1 0x1 ADD SWAP1 PUSH1 0x20 ADD DUP1 DUP4 GT PUSH2 0x1DA JUMPI DUP3 SWAP1 SUB PUSH1 0x1F AND DUP3 ADD SWAP2 JUMPDEST POP POP POP POP POP DUP2 JUMP JUMPDEST PUSH1 0x60 DUP1 PUSH0 PUSH1 0x1 DUP2 DUP1 SLOAD PUSH2 0x211 SWAP1 PUSH2 0x5C6 JUMP JUMPDEST DUP1 PUSH1 0x1F ADD PUSH1 0x20 DUP1 SWAP2 DIV MUL PUSH1 0x20 ADD PUSH1 0x40 MLOAD SWAP1 DUP2 ADD PUSH1 0x40 MSTORE DUP1 SWAP3 SWAP2 SWAP1 DUP2 DUP2 MSTORE PUSH1 0x20 ADD DUP3 DUP1 SLOAD PUSH2 0x23D SWAP1 PUSH2 0x5C6 JUMP JUMPDEST DUP1 ISZERO PUSH2 0x288 JUMPI DUP1 PUSH1 0x1F LT PUSH2 0x25F JUMPI PUSH2 0x100 DUP1 DUP4 SLOAD DIV MUL DUP4 MSTORE SWAP2 PUSH1 0x20 ADD SWAP2 PUSH2 0x288 JUMP JUMPDEST DUP3 ADD SWAP2 SWAP1 PUSH0 MSTORE PUSH1 0x20 PUSH0 KECCAK256 SWAP1 JUMPDEST DUP2 SLOAD DUP2 MSTORE SWAP1 PUSH1 0x1 ADD SWAP1 PUSH1 0x20 ADD DUP1 DUP4 GT PUSH2 0x26B JUMPI DUP3 SWAP1 SUB PUSH1 0x1F AND DUP3 ADD SWAP2 JUMPDEST POP POP POP POP POP SWAP2 POP DUP1 DUP1 SLOAD PUSH2 0x29B SWAP1 PUSH2 0x5C6 JUMP JUMPDEST DUP1 PUSH1 0x1F ADD PUSH1 0x20 DUP1 SWAP2 DIV MUL PUSH1 0x20 ADD PUSH1 0x40 MLOAD SWAP1 DUP2 ADD PUSH1 0x40 MSTORE DUP1 SWAP3 SWAP2 SWAP1 DUP2 DUP2 MSTORE PUSH1 0x20 ADD DUP3 DUP1 SLOAD PUSH2 0x2C7 SWAP1 PUSH2 0x5C6 JUMP JUMPDEST DUP1 ISZERO PUSH2 0x312 JUMPI DUP1 PUSH1 0x1F LT PUSH2 0x2E9 JUMPI PUSH2 0x100 DUP1 DUP4 SLOAD DIV MUL DUP4 MSTORE SWAP2 PUSH1 0x20 ADD SWAP2 PUSH2 0x312 JUMP JUMPDEST DUP3 ADD SWAP2 SWAP1 PUSH0 MSTORE PUSH1 0x20 PUSH0 KECCAK256 SWAP1 JUMPDEST DUP2 SLOAD DUP2 MSTORE SWAP1 PUSH1 0x1 ADD SWAP1 PUSH1 0x20 ADD DUP1 DUP4 GT PUSH2 0x2F5 JUMPI DUP3 SWAP1 SUB PUSH1 0x1F AND DUP3 ADD SWAP2 JUMPDEST POP POP POP POP POP SWAP1 POP SWAP2 POP SWAP2 POP SWAP1 SWAP2 JUMP JUMPDEST PUSH0 DUP2 MLOAD SWAP1 POP SWAP2 SWAP1 POP JUMP JUMPDEST PUSH0 DUP3 DUP3 MSTORE PUSH1 0x20 DUP3 ADD SWAP1 POP SWAP3 SWAP2 POP POP JUMP JUMPDEST DUP3 DUP2 DUP4 MCOPY PUSH0 DUP4 DUP4 ADD MSTORE POP POP POP JUMP JUMPDEST PUSH0 PUSH1 0x1F NOT PUSH1 0x1F DUP4 ADD AND SWAP1 POP SWAP2 SWAP1 POP JUMP JUMPDEST PUSH0 PUSH2 0x363 DUP3 PUSH2 0x321 JUMP JUMPDEST PUSH2 0x36D DUP2 DUP6 PUSH2 0x32B JUMP JUMPDEST SWAP4 POP PUSH2 0x37D DUP2 DUP6 PUSH1 0x20 DUP7 ADD PUSH2 0x33B JUMP JUMPDEST PUSH2 0x386 DUP2 PUSH2 0x349 JUMP JUMPDEST DUP5 ADD SWAP2 POP POP SWAP3 SWAP2 POP POP JUMP JUMPDEST PUSH0 PUSH1 0x20 DUP3 ADD SWAP1 POP DUP2 DUP2 SUB PUSH0 DUP4 ADD MSTORE PUSH2 0x3A9 DUP2 DUP5 PUSH2 0x359 JUMP JUMPDEST SWAP1 POP SWAP3 SWAP2 POP POP JUMP JUMPDEST PUSH0 PUSH1 0x40 MLOAD SWAP1 POP SWAP1 JUMP JUMPDEST PUSH0 DUP1 REVERT JUMPDEST PUSH0 DUP1 REVERT JUMPDEST PUSH0 DUP1 REVERT JUMPDEST PUSH0 DUP1 REVERT JUMPDEST PUSH32 0x4E487B7100000000000000000000000000000000000000000000000000000000 PUSH0 MSTORE PUSH1 0x41 PUSH1 0x4 MSTORE PUSH1 0x24 PUSH0 REVERT JUMPDEST PUSH2 0x400 DUP3 PUSH2 0x349 JUMP JUMPDEST DUP2 ADD DUP2 DUP2 LT PUSH8 0xFFFFFFFFFFFFFFFF DUP3 GT OR ISZERO PUSH2 0x41F JUMPI PUSH2 0x41E PUSH2 0x3CA JUMP JUMPDEST JUMPDEST DUP1 PUSH1 0x40 MSTORE POP POP POP JUMP JUMPDEST PUSH0 PUSH2 0x431 PUSH2 0x3B1 JUMP JUMPDEST SWAP1 POP PUSH2 0x43D DUP3 DUP3 PUSH2 0x3F7 JUMP JUMPDEST SWAP2 SWAP1 POP JUMP JUMPDEST PUSH0 PUSH8 0xFFFFFFFFFFFFFFFF DUP3 GT ISZERO PUSH2 0x45C JUMPI PUSH2 0x45B PUSH2 0x3CA JUMP JUMPDEST JUMPDEST PUSH2 0x465 DUP3 PUSH2 0x349 JUMP JUMPDEST SWAP1 POP PUSH1 0x20 DUP2 ADD SWAP1 POP SWAP2 SWAP1 POP JUMP JUMPDEST DUP3 DUP2 DUP4 CALLDATACOPY PUSH0 DUP4 DUP4 ADD MSTORE POP POP POP JUMP JUMPDEST PUSH0 PUSH2 0x492 PUSH2 0x48D DUP5 PUSH2 0x442 JUMP JUMPDEST PUSH2 0x428 JUMP JUMPDEST SWAP1 POP DUP3 DUP2 MSTORE PUSH1 0x20 DUP2 ADD DUP5 DUP5 DUP5 ADD GT ISZERO PUSH2 0x4AE JUMPI PUSH2 0x4AD PUSH2 0x3C6 JUMP JUMPDEST JUMPDEST PUSH2 0x4B9 DUP5 DUP3 DUP6 PUSH2 0x472 JUMP JUMPDEST POP SWAP4 SWAP3 POP POP POP JUMP JUMPDEST PUSH0 DUP3 PUSH1 0x1F DUP4 ADD SLT PUSH2 0x4D5 JUMPI PUSH2 0x4D4 PUSH2 0x3C2 JUMP JUMPDEST JUMPDEST DUP2 CALLDATALOAD PUSH2 0x4E5 DUP5 DUP3 PUSH1 0x20 DUP7 ADD PUSH2 0x480 JUMP JUMPDEST SWAP2 POP POP SWAP3 SWAP2 POP POP JUMP JUMPDEST PUSH0 DUP1 PUSH1 0x40 DUP4 DUP6 SUB SLT ISZERO PUSH2 0x504 JUMPI PUSH2 0x503 PUSH2 0x3BA JUMP JUMPDEST JUMPDEST PUSH0 DUP4 ADD CALLDATALOAD PUSH8 0xFFFFFFFFFFFFFFFF DUP2 GT ISZERO PUSH2 0x521 JUMPI PUSH2 0x520 PUSH2 0x3BE JUMP JUMPDEST JUMPDEST PUSH2 0x52D DUP6 DUP3 DUP7 ADD PUSH2 0x4C1 JUMP JUMPDEST SWAP3 POP POP PUSH1 0x20 DUP4 ADD CALLDATALOAD PUSH8 0xFFFFFFFFFFFFFFFF DUP2 GT ISZERO PUSH2 0x54E JUMPI PUSH2 0x54D PUSH2 0x3BE JUMP JUMPDEST JUMPDEST PUSH2 0x55A DUP6 DUP3 DUP7 ADD PUSH2 0x4C1 JUMP JUMPDEST SWAP2 POP POP SWAP3 POP SWAP3 SWAP1 POP JUMP JUMPDEST PUSH0 PUSH1 0x40 DUP3 ADD SWAP1 POP DUP2 DUP2 SUB PUSH0 DUP4 ADD MSTORE PUSH2 0x57C DUP2 DUP6 PUSH2 0x359 JUMP JUMPDEST SWAP1 POP DUP2 DUP2 SUB PUSH1 0x20 DUP4 ADD MSTORE PUSH2 0x590 DUP2 DUP5 PUSH2 0x359 JUMP JUMPDEST SWAP1 POP SWAP4 SWAP3 POP POP POP JUMP JUMPDEST PUSH32 0x4E487B7100000000000000000000000000000000000000000000000000000000 PUSH0 MSTORE PUSH1 0x22 PUSH1 0x4 MSTORE PUSH1 0x24 PUSH0 REVERT JUMPDEST PUSH0 PUSH1 0x2 DUP3 DIV SWAP1 POP PUSH1 0x1 DUP3 AND DUP1 PUSH2 0x5DD JUMPI PUSH1 0x7F DUP3 AND SWAP2 POP JUMPDEST PUSH1 0x20 DUP3 LT DUP2 SUB PUSH2 0x5F0 JUMPI PUSH2 0x5EF PUSH2 0x599 JUMP JUMPDEST JUMPDEST POP SWAP2 SWAP1 POP JUMP JUMPDEST PUSH0 DUP2 SWAP1 POP DUP2 PUSH0 MSTORE PUSH1 0x20 PUSH0 KECCAK256 SWAP1 POP SWAP2 SWAP1 POP JUMP JUMPDEST PUSH0 PUSH1 0x20 PUSH1 0x1F DUP4 ADD DIV SWAP1 POP SWAP2 SWAP1 POP JUMP JUMPDEST PUSH0 DUP3 DUP3 SHL SWAP1 POP SWAP3 SWAP2 POP POP JUMP JUMPDEST PUSH0 PUSH1 0x8 DUP4 MUL PUSH2 0x652 PUSH32 0xFFFFFFFFFFFFFFFFFFFFFFFFFFFFFFFFFFFFFFFFFFFFFFFFFFFFFFFFFFFFFFFF DUP3 PUSH2 0x617 JUMP JUMPDEST PUSH2 0x65C DUP7 DUP4 PUSH2 0x617 JUMP JUMPDEST SWAP6 POP DUP1 NOT DUP5 AND SWAP4 POP DUP1 DUP7 AND DUP5 OR SWAP3 POP POP POP SWAP4 SWAP3 POP POP POP JUMP JUMPDEST PUSH0 DUP2 SWAP1 POP SWAP2 SWAP1 POP JUMP JUMPDEST PUSH0 DUP2 SWAP1 POP SWAP2 SWAP1 POP JUMP JUMPDEST PUSH0 PUSH2 0x6A0 PUSH2 0x69B PUSH2 0x696 DUP5 PUSH2 0x674 JUMP JUMPDEST PUSH2 0x67D JUMP JUMPDEST PUSH2 0x674 JUMP JUMPDEST SWAP1 POP SWAP2 SWAP1 POP JUMP JUMPDEST PUSH0 DUP2 SWAP1 POP SWAP2 SWAP1 POP JUMP JUMPDEST PUSH2 0x6B9 DUP4 PUSH2 0x686 JUMP JUMPDEST PUSH2 0x6CD PUSH2 0x6C5 DUP3 PUSH2 0x6A7 JUMP JUMPDEST DUP5 DUP5 SLOAD PUSH2 0x623 JUMP JUMPDEST DUP3 SSTORE POP POP POP POP JUMP JUMPDEST PUSH0 SWAP1 JUMP JUMPDEST PUSH2 0x6E1 PUSH2 0x6D5 JUMP JUMPDEST PUSH2 0x6EC DUP2 DUP5 DUP5 PUSH2 0x6B0 JUMP JUMPDEST POP POP POP JUMP JUMPDEST JUMPDEST DUP2 DUP2 LT ISZERO PUSH2 0x70F JUMPI PUSH2 0x704 PUSH0 DUP3 PUSH2 0x6D9 JUMP JUMPDEST PUSH1 0x1 DUP2 ADD SWAP1 POP PUSH2 0x6F2 JUMP JUMPDEST POP POP JUMP JUMPDEST PUSH1 0x1F DUP3 GT ISZERO PUSH2 0x754 JUMPI PUSH2 0x725 DUP2 PUSH2 0x5F6 JUMP JUMPDEST PUSH2 0x72E DUP5 PUSH2 0x608 JUMP JUMPDEST DUP2 ADD PUSH1 0x20 DUP6 LT ISZERO PUSH2 0x73D JUMPI DUP2 SWAP1 POP JUMPDEST PUSH2 0x751 PUSH2 0x749 DUP6 PUSH2 0x608 JUMP JUMPDEST DUP4 ADD DUP3 PUSH2 0x6F1 JUMP JUMPDEST POP POP JUMPDEST POP POP POP JUMP JUMPDEST PUSH0 DUP3 DUP3 SHR SWAP1 POP SWAP3 SWAP2 POP POP JUMP JUMPDEST PUSH0 PUSH2 0x774 PUSH0 NOT DUP5 PUSH1 0x8 MUL PUSH2 0x759 JUMP JUMPDEST NOT DUP1 DUP4 AND SWAP2 POP POP SWAP3 SWAP2 POP POP JUMP JUMPDEST PUSH0 PUSH2 0x78C DUP4 DUP4 PUSH2 0x765 JUMP JUMPDEST SWAP2 POP DUP3 PUSH1 0x2 MUL DUP3 OR SWAP1 POP SWAP3 SWAP2 POP POP JUMP JUMPDEST PUSH2 0x7A5 DUP3 PUSH2 0x321 JUMP JUMPDEST PUSH8 0xFFFFFFFFFFFFFFFF DUP2 GT ISZERO PUSH2 0x7BE JUMPI PUSH2 0x7BD PUSH2 0x3CA JUMP JUMPDEST JUMPDEST PUSH2 0x7C8 DUP3 SLOAD PUSH2 0x5C6 JUMP JUMPDEST PUSH2 0x7D3 DUP3 DUP3 DUP6 PUSH2 0x713 JUMP JUMPDEST PUSH0 PUSH1 0x20 SWAP1 POP PUSH1 0x1F DUP4 GT PUSH1 0x1 DUP2 EQ PUSH2 0x804 JUMPI PUSH0 DUP5 ISZERO PUSH2 0x7F2 JUMPI DUP3 DUP8 ADD MLOAD SWAP1 POP JUMPDEST PUSH2 0x7FC DUP6 DUP3 PUSH2 0x781 JUMP JUMPDEST DUP7 SSTORE POP PUSH2 0x863 JUMP JUMPDEST PUSH1 0x1F NOT DUP5 AND PUSH2 0x812 DUP7 PUSH2 0x5F6 JUMP JUMPDEST PUSH0 JUMPDEST DUP3 DUP2 LT ISZERO PUSH2 0x839 JUMPI DUP5 DUP10 ADD MLOAD DUP3 SSTORE PUSH1 0x1 DUP3 ADD SWAP2 POP PUSH1 0x20 DUP6 ADD SWAP5 POP PUSH1 0x20 DUP2 ADD SWAP1 POP PUSH2 0x814 JUMP JUMPDEST DUP7 DUP4 LT ISZERO PUSH2 0x856 JUMPI DUP5 DUP10 ADD MLOAD PUSH2 0x852 PUSH1 0x1F DUP10 AND DUP3 PUSH2 0x765 JUMP JUMPDEST DUP4 SSTORE POP JUMPDEST PUSH1 0x1 PUSH1 0x2 DUP9 MUL ADD DUP9 SSTORE POP POP POP JUMPDEST POP POP POP POP POP POP JUMP INVALID LOG2 PUSH5 0x6970667358 0x22 SLT KECCAK256 0xCD DUP16 0xAE 0xC8 CALLER PUSH1 0xEE 0xCF SLOAD DUP13 MLOAD 0x4D SWAP1 0x4F 0xF8 SWAP16 PUSH32 0x9D160D76D420905C740A88EC12DBE664736F6C634300081A0033000000000000 "
				},
				"gasEstimates": {
					"creation": {
						"codeDepositCost": "441800",
						"executionCost": "478",
						"totalCost": "442278"
					},
					"external": {
						"DeptHead()": "infinite",
						"deptName()": "infinite",
						"displayDepartmentDetails()": "infinite",
						"setDepartmentDetails(string,string)": "infinite"
					}
				},
				"methodIdentifiers": {
					"DeptHead()": "176ee95f",
					"deptName()": "b975abb3",
					"displayDepartmentDetails()": "df404d5c",
					"setDepartmentDetails(string,string)": "735f5aec"
				}
			},
			"storageLayout": {
				"storage": [
					{
						"astId": 14,
						"contract": "Day-09/D9P2.sol:Department",
						"label": "deptName",
						"offset": 0,
						"slot": "0",
						"type": "t_string_storage"
					},
					{
						"astId": 16,
						"contract": "Day-09/D9P2.sol:Department",
						"label": "DeptHead",
						"offset": 0,
						"slot": "1",
						"type": "t_string_storage"
					}
				],
				"types": {
					"t_string_storage": {
						"encoding": "bytes",
						"label": "string",
						"numberOfBytes": "32"
					}
				}
			},
			"userdoc": {
				"kind": "user",
				"methods": {},
				"version": 1
			}
		}
	}
}