{
	"Day-09/D9P2.sol": {
		"Student": {
			"abi": [
				{
					"inputs": [
						{
							"internalType": "string",
							"name": "_collegeName",
							"type": "string"
						},
						{
							"internalType": "uint256",
							"name": "_collegeCode",
							"type": "uint256"
						},
						{
							"internalType": "string",
							"name": "_deptName",
							"type": "string"
						},
						{
							"internalType": "string",
							"name": "_DeptHead",
							"type": "string"
						},
						{
							"internalType": "string",
							"name": "_studentName",
							"type": "string"
						},
						{
							"internalType": "uint256",
							"name": "_regNo",
							"type": "uint256"
						},
						{
							"internalType": "uint256",
							"name": "_Marks",
							"type": "uint256"
						}
					],
					"stateMutability": "nonpayable",
					"type": "constructor"
				},
				{
					"inputs": [],
					"name": "DeptHead",
					"outputs": [
						{
							"internalType": "string",
							"name": "",
							"type": "string"
						}
					],
					"stateMutability": "view",
					"type": "function"
				},
				{
					"inputs": [],
					"name": "Marks",
					"outputs": [
						{
							"internalType": "uint256",
							"name": "",
							"type": "uint256"
						}
					],
					"stateMutability": "view",
					"type": "function"
				},
				{
					"inputs": [],
					"name": "deptName",
					"outputs": [
						{
							"internalType": "string",
							"name": "",
							"type": "string"
						}
					],
					"stateMutability": "view",
					"type": "function"
				},
				{
					"inputs": [],
					"name": "displayDepartmentDetails",
					"outputs": [
						{
							"internalType": "string",
							"name": "",
							"type": "string"
						},
						{
							"internalType": "string",
							"name": "",
							"type": "string"
						}
					],
					"stateMutability": "view",
					"type": "function"
				},
				{
					"inputs": [],
					"name": "displayStudentReportCard",
					"outputs": [
						{
							"internalType": "string",
							"name": "",
							"type": "string"
						},
						{
							"internalType": "uint256",
							"name": "",
							"type": "uint256"
						},
						{
							"internalType": "string",
							"name": "",
							"type": "string"
						},
						{
							"internalType": "string",
							"name": "",
							"type": "string"
						},
						{
							"internalType": "uint256",
							"name": "",
							"type": "uint256"
						},
						{
							"internalType": "uint256",
							"name": "",
							"type": "uint256"
						},
						{
							"internalType": "string",
							"name": "",
							"type": "string"
						}
					],
					"stateMutability": "view",
					"type": "function"
				},
				{
					"inputs": [],
					"name": "getCollegeCode",
					"outputs": [
						{
							"internalType": "uint256",
							"name": "",
							"type": "uint256"
						}
					],
					"stateMutability": "view",
					"type": "function"
				},
				{
					"inputs": [],
					"name": "getCollegeName",
					"outputs": [
						{
							"internalType": "string",
							"name": "",
							"type": "string"
						}
					],
					"stateMutability": "view",
					"type": "function"
				},
				{
					"inputs": [],
					"name": "regNo",
					"outputs": [
						{
							"internalType": "uint256",
							"name": "",
							"type": "uint256"
						}
					],
					"stateMutability": "view",
					"type": "function"
				},
				{
					"inputs": [
						{
							"internalType": "string",
							"name": "_deptName",
							"type": "string"
						},
						{
							"internalType": "string",
							"name": "_DeptHead",
							"type": "string"
						}
					],
					"name": "setDepartmentDetails",
					"outputs": [],
					"stateMutability": "nonpayable",
					"type": "function"
				},
				{
					"inputs": [],
					"name": "studentName",
					"outputs": [
						{
							"internalType": "string",
							"name": "",
							"type": "string"
						}
					],
					"stateMutability": "view",
					"type": "function"
				}
			],
			"devdoc": {
				"kind": "dev",
				"methods": {},
				"version": 1
			},
			"evm": {
				"assembly": "    /* \"Day-09/D9P2.sol\":599:1840  contract Student is Department, College {... */\n  mstore(0x40, 0x80)\n    /* \"Day-09/D9P2.sol\":790:1251  constructor(... */\n  callvalue\n  dup1\n  iszero\n  tag_1\n  jumpi\n  0x00\n  dup1\n  revert\ntag_1:\n  pop\n  mload(0x40)\n  sub(codesize, bytecodeSize)\n  dup1\n  bytecodeSize\n  dup4\n  codecopy\n  dup2\n  dup2\n  add\n  0x40\n  mstore\n  dup2\n  add\n  swap1\n  tag_2\n  swap2\n  swap1\n  tag_3\n  jump\t// in\ntag_2:\n    /* \"Day-09/D9P2.sol\":1054:1066  _collegeName */\n  dup7\n    /* \"Day-09/D9P2.sol\":1040:1051  collegeName */\n  0x05\n    /* \"Day-09/D9P2.sol\":1040:1066  collegeName = _collegeName */\n  swap1\n  dup2\n  tag_6\n  swap2\n  swap1\n  tag_7\n  jump\t// in\ntag_6:\n  pop\n    /* \"Day-09/D9P2.sol\":1091:1103  _collegeCode */\n  dup6\n    /* \"Day-09/D9P2.sol\":1077:1088  collegeCode */\n  0x06\n    /* \"Day-09/D9P2.sol\":1077:1103  collegeCode = _collegeCode */\n  dup2\n  swap1\n  sstore\n  pop\n    /* \"Day-09/D9P2.sol\":1114:1156  setDepartmentDetails(_deptName, _DeptHead) */\n  tag_8\n    /* \"Day-09/D9P2.sol\":1135:1144  _deptName */\n  dup6\n    /* \"Day-09/D9P2.sol\":1146:1155  _DeptHead */\n  dup6\n    /* \"Day-09/D9P2.sol\":1114:1134  setDepartmentDetails */\n  shl(0x20, tag_9)\n    /* \"Day-09/D9P2.sol\":1114:1156  setDepartmentDetails(_deptName, _DeptHead) */\n  0x20\n  shr\n  jump\t// in\ntag_8:\n    /* \"Day-09/D9P2.sol\":1181:1193  _studentName */\n  dup3\n    /* \"Day-09/D9P2.sol\":1167:1178  studentName */\n  0x02\n    /* \"Day-09/D9P2.sol\":1167:1193  studentName = _studentName */\n  swap1\n  dup2\n  tag_10\n  swap2\n  swap1\n  tag_7\n  jump\t// in\ntag_10:\n  pop\n    /* \"Day-09/D9P2.sol\":1212:1218  _regNo */\n  dup2\n    /* \"Day-09/D9P2.sol\":1204:1209  regNo */\n  0x03\n    /* \"Day-09/D9P2.sol\":1204:1218  regNo = _regNo */\n  dup2\n  swap1\n  sstore\n  pop\n    /* \"Day-09/D9P2.sol\":1237:1243  _Marks */\n  dup1\n    /* \"Day-09/D9P2.sol\":1229:1234  Marks */\n  0x04\n    /* \"Day-09/D9P2.sol\":1229:1243  Marks = _Marks */\n  dup2\n  swap1\n  sstore\n  pop\n    /* \"Day-09/D9P2.sol\":790:1251  constructor(... */\n  pop\n  pop\n  pop\n  pop\n  pop\n  pop\n  pop\n    /* \"Day-09/D9P2.sol\":599:1840  contract Student is Department, College {... */\n  jump(tag_11)\n    /* \"Day-09/D9P2.sol\":298:455  function setDepartmentDetails(string memory _deptName, string memory _DeptHead) public {... */\ntag_9:\n    /* \"Day-09/D9P2.sol\":407:416  _deptName */\n  dup2\n    /* \"Day-09/D9P2.sol\":396:404  deptName */\n  0x00\n    /* \"Day-09/D9P2.sol\":396:416  deptName = _deptName */\n  swap1\n  dup2\n  tag_13\n  swap2\n  swap1\n  tag_7\n  jump\t// in\ntag_13:\n  pop\n    /* \"Day-09/D9P2.sol\":438:447  _DeptHead */\n  dup1\n    /* \"Day-09/D9P2.sol\":427:435  DeptHead */\n  0x01\n    /* \"Day-09/D9P2.sol\":427:447  DeptHead = _DeptHead */\n  swap1\n  dup2\n  tag_14\n  swap2\n  swap1\n  tag_7\n  jump\t// in\ntag_14:\n  pop\n    /* \"Day-09/D9P2.sol\":298:455  function setDepartmentDetails(string memory _deptName, string memory _DeptHead) public {... */\n  pop\n  pop\n  jump\t// out\n    /* \"#utility.yul\":7:82   */\ntag_15:\n    /* \"#utility.yul\":40:46   */\n  0x00\n    /* \"#utility.yul\":73:75   */\n  0x40\n    /* \"#utility.yul\":67:76   */\n  mload\n    /* \"#utility.yul\":57:76   */\n  swap1\n  pop\n    /* \"#utility.yul\":7:82   */\n  swap1\n  jump\t// out\n    /* \"#utility.yul\":88:205   */\ntag_16:\n    /* \"#utility.yul\":197:198   */\n  0x00\n    /* \"#utility.yul\":194:195   */\n  dup1\n    /* \"#utility.yul\":187:199   */\n  revert\n    /* \"#utility.yul\":211:328   */\ntag_17:\n    /* \"#utility.yul\":320:321   */\n  0x00\n    /* \"#utility.yul\":317:318   */\n  dup1\n    /* \"#utility.yul\":310:322   */\n  revert\n    /* \"#utility.yul\":334:451   */\ntag_18:\n    /* \"#utility.yul\":443:444   */\n  0x00\n    /* \"#utility.yul\":440:441   */\n  dup1\n    /* \"#utility.yul\":433:445   */\n  revert\n    /* \"#utility.yul\":457:574   */\ntag_19:\n    /* \"#utility.yul\":566:567   */\n  0x00\n    /* \"#utility.yul\":563:564   */\n  dup1\n    /* \"#utility.yul\":556:568   */\n  revert\n    /* \"#utility.yul\":580:682   */\ntag_20:\n    /* \"#utility.yul\":621:627   */\n  0x00\n    /* \"#utility.yul\":672:674   */\n  0x1f\n    /* \"#utility.yul\":668:675   */\n  not\n    /* \"#utility.yul\":663:665   */\n  0x1f\n    /* \"#utility.yul\":656:661   */\n  dup4\n    /* \"#utility.yul\":652:666   */\n  add\n    /* \"#utility.yul\":648:676   */\n  and\n    /* \"#utility.yul\":638:676   */\n  swap1\n  pop\n    /* \"#utility.yul\":580:682   */\n  swap2\n  swap1\n  pop\n  jump\t// out\n    /* \"#utility.yul\":688:868   */\ntag_21:\n    /* \"#utility.yul\":736:813   */\n  0x4e487b7100000000000000000000000000000000000000000000000000000000\n    /* \"#utility.yul\":733:734   */\n  0x00\n    /* \"#utility.yul\":726:814   */\n  mstore\n    /* \"#utility.yul\":833:837   */\n  0x41\n    /* \"#utility.yul\":830:831   */\n  0x04\n    /* \"#utility.yul\":823:838   */\n  mstore\n    /* \"#utility.yul\":857:861   */\n  0x24\n    /* \"#utility.yul\":854:855   */\n  0x00\n    /* \"#utility.yul\":847:862   */\n  revert\n    /* \"#utility.yul\":874:1155   */\ntag_22:\n    /* \"#utility.yul\":957:984   */\n  tag_58\n    /* \"#utility.yul\":979:983   */\n  dup3\n    /* \"#utility.yul\":957:984   */\n  tag_20\n  jump\t// in\ntag_58:\n    /* \"#utility.yul\":949:955   */\n  dup2\n    /* \"#utility.yul\":945:985   */\n  add\n    /* \"#utility.yul\":1087:1093   */\n  dup2\n    /* \"#utility.yul\":1075:1085   */\n  dup2\n    /* \"#utility.yul\":1072:1094   */\n  lt\n    /* \"#utility.yul\":1051:1069   */\n  0xffffffffffffffff\n    /* \"#utility.yul\":1039:1049   */\n  dup3\n    /* \"#utility.yul\":1036:1070   */\n  gt\n    /* \"#utility.yul\":1033:1095   */\n  or\n    /* \"#utility.yul\":1030:1118   */\n  iszero\n  tag_59\n  jumpi\n    /* \"#utility.yul\":1098:1116   */\n  tag_60\n  tag_21\n  jump\t// in\ntag_60:\n    /* \"#utility.yul\":1030:1118   */\ntag_59:\n    /* \"#utility.yul\":1138:1148   */\n  dup1\n    /* \"#utility.yul\":1134:1136   */\n  0x40\n    /* \"#utility.yul\":1127:1149   */\n  mstore\n    /* \"#utility.yul\":917:1155   */\n  pop\n    /* \"#utility.yul\":874:1155   */\n  pop\n  pop\n  jump\t// out\n    /* \"#utility.yul\":1161:1290   */\ntag_23:\n    /* \"#utility.yul\":1195:1201   */\n  0x00\n    /* \"#utility.yul\":1222:1242   */\n  tag_62\n  tag_15\n  jump\t// in\ntag_62:\n    /* \"#utility.yul\":1212:1242   */\n  swap1\n  pop\n    /* \"#utility.yul\":1251:1284   */\n  tag_63\n    /* \"#utility.yul\":1279:1283   */\n  dup3\n    /* \"#utility.yul\":1271:1277   */\n  dup3\n    /* \"#utility.yul\":1251:1284   */\n  tag_22\n  jump\t// in\ntag_63:\n    /* \"#utility.yul\":1161:1290   */\n  swap2\n  swap1\n  pop\n  jump\t// out\n    /* \"#utility.yul\":1296:1604   */\ntag_24:\n    /* \"#utility.yul\":1358:1362   */\n  0x00\n    /* \"#utility.yul\":1448:1466   */\n  0xffffffffffffffff\n    /* \"#utility.yul\":1440:1446   */\n  dup3\n    /* \"#utility.yul\":1437:1467   */\n  gt\n    /* \"#utility.yul\":1434:1490   */\n  iszero\n  tag_65\n  jumpi\n    /* \"#utility.yul\":1470:1488   */\n  tag_66\n  tag_21\n  jump\t// in\ntag_66:\n    /* \"#utility.yul\":1434:1490   */\ntag_65:\n    /* \"#utility.yul\":1508:1537   */\n  tag_67\n    /* \"#utility.yul\":1530:1536   */\n  dup3\n    /* \"#utility.yul\":1508:1537   */\n  tag_20\n  jump\t// in\ntag_67:\n    /* \"#utility.yul\":1500:1537   */\n  swap1\n  pop\n    /* \"#utility.yul\":1592:1596   */\n  0x20\n    /* \"#utility.yul\":1586:1590   */\n  dup2\n    /* \"#utility.yul\":1582:1597   */\n  add\n    /* \"#utility.yul\":1574:1597   */\n  swap1\n  pop\n    /* \"#utility.yul\":1296:1604   */\n  swap2\n  swap1\n  pop\n  jump\t// out\n    /* \"#utility.yul\":1610:1749   */\ntag_25:\n    /* \"#utility.yul\":1699:1705   */\n  dup3\n    /* \"#utility.yul\":1694:1697   */\n  dup2\n    /* \"#utility.yul\":1689:1692   */\n  dup4\n    /* \"#utility.yul\":1683:1706   */\n  mcopy\n    /* \"#utility.yul\":1740:1741   */\n  0x00\n    /* \"#utility.yul\":1731:1737   */\n  dup4\n    /* \"#utility.yul\":1726:1729   */\n  dup4\n    /* \"#utility.yul\":1722:1738   */\n  add\n    /* \"#utility.yul\":1715:1742   */\n  mstore\n    /* \"#utility.yul\":1610:1749   */\n  pop\n  pop\n  pop\n  jump\t// out\n    /* \"#utility.yul\":1755:2189   */\ntag_26:\n    /* \"#utility.yul\":1844:1849   */\n  0x00\n    /* \"#utility.yul\":1869:1935   */\n  tag_70\n    /* \"#utility.yul\":1885:1934   */\n  tag_71\n    /* \"#utility.yul\":1927:1933   */\n  dup5\n    /* \"#utility.yul\":1885:1934   */\n  tag_24\n  jump\t// in\ntag_71:\n    /* \"#utility.yul\":1869:1935   */\n  tag_23\n  jump\t// in\ntag_70:\n    /* \"#utility.yul\":1860:1935   */\n  swap1\n  pop\n    /* \"#utility.yul\":1958:1964   */\n  dup3\n    /* \"#utility.yul\":1951:1956   */\n  dup2\n    /* \"#utility.yul\":1944:1965   */\n  mstore\n    /* \"#utility.yul\":1996:2000   */\n  0x20\n    /* \"#utility.yul\":1989:1994   */\n  dup2\n    /* \"#utility.yul\":1985:2001   */\n  add\n    /* \"#utility.yul\":2034:2037   */\n  dup5\n    /* \"#utility.yul\":2025:2031   */\n  dup5\n    /* \"#utility.yul\":2020:2023   */\n  dup5\n    /* \"#utility.yul\":2016:2032   */\n  add\n    /* \"#utility.yul\":2013:2038   */\n  gt\n    /* \"#utility.yul\":2010:2122   */\n  iszero\n  tag_72\n  jumpi\n    /* \"#utility.yul\":2041:2120   */\n  tag_73\n  tag_19\n  jump\t// in\ntag_73:\n    /* \"#utility.yul\":2010:2122   */\ntag_72:\n    /* \"#utility.yul\":2131:2183   */\n  tag_74\n    /* \"#utility.yul\":2176:2182   */\n  dup5\n    /* \"#utility.yul\":2171:2174   */\n  dup3\n    /* \"#utility.yul\":2166:2169   */\n  dup6\n    /* \"#utility.yul\":2131:2183   */\n  tag_25\n  jump\t// in\ntag_74:\n    /* \"#utility.yul\":1850:2189   */\n  pop\n    /* \"#utility.yul\":1755:2189   */\n  swap4\n  swap3\n  pop\n  pop\n  pop\n  jump\t// out\n    /* \"#utility.yul\":2209:2564   */\ntag_27:\n    /* \"#utility.yul\":2276:2281   */\n  0x00\n    /* \"#utility.yul\":2325:2328   */\n  dup3\n    /* \"#utility.yul\":2318:2322   */\n  0x1f\n    /* \"#utility.yul\":2310:2316   */\n  dup4\n    /* \"#utility.yul\":2306:2323   */\n  add\n    /* \"#utility.yul\":2302:2329   */\n  slt\n    /* \"#utility.yul\":2292:2414   */\n  tag_76\n  jumpi\n    /* \"#utility.yul\":2333:2412   */\n  tag_77\n  tag_18\n  jump\t// in\ntag_77:\n    /* \"#utility.yul\":2292:2414   */\ntag_76:\n    /* \"#utility.yul\":2443:2449   */\n  dup2\n    /* \"#utility.yul\":2437:2450   */\n  mload\n    /* \"#utility.yul\":2468:2558   */\n  tag_78\n    /* \"#utility.yul\":2554:2557   */\n  dup5\n    /* \"#utility.yul\":2546:2552   */\n  dup3\n    /* \"#utility.yul\":2539:2543   */\n  0x20\n    /* \"#utility.yul\":2531:2537   */\n  dup7\n    /* \"#utility.yul\":2527:2544   */\n  add\n    /* \"#utility.yul\":2468:2558   */\n  tag_26\n  jump\t// in\ntag_78:\n    /* \"#utility.yul\":2459:2558   */\n  swap2\n  pop\n    /* \"#utility.yul\":2282:2564   */\n  pop\n    /* \"#utility.yul\":2209:2564   */\n  swap3\n  swap2\n  pop\n  pop\n  jump\t// out\n    /* \"#utility.yul\":2570:2647   */\ntag_28:\n    /* \"#utility.yul\":2607:2614   */\n  0x00\n    /* \"#utility.yul\":2636:2641   */\n  dup2\n    /* \"#utility.yul\":2625:2641   */\n  swap1\n  pop\n    /* \"#utility.yul\":2570:2647   */\n  swap2\n  swap1\n  pop\n  jump\t// out\n    /* \"#utility.yul\":2653:2775   */\ntag_29:\n    /* \"#utility.yul\":2726:2750   */\n  tag_81\n    /* \"#utility.yul\":2744:2749   */\n  dup2\n    /* \"#utility.yul\":2726:2750   */\n  tag_28\n  jump\t// in\ntag_81:\n    /* \"#utility.yul\":2719:2724   */\n  dup2\n    /* \"#utility.yul\":2716:2751   */\n  eq\n    /* \"#utility.yul\":2706:2769   */\n  tag_82\n  jumpi\n    /* \"#utility.yul\":2765:2766   */\n  0x00\n    /* \"#utility.yul\":2762:2763   */\n  dup1\n    /* \"#utility.yul\":2755:2767   */\n  revert\n    /* \"#utility.yul\":2706:2769   */\ntag_82:\n    /* \"#utility.yul\":2653:2775   */\n  pop\n  jump\t// out\n    /* \"#utility.yul\":2781:2924   */\ntag_30:\n    /* \"#utility.yul\":2838:2843   */\n  0x00\n    /* \"#utility.yul\":2869:2875   */\n  dup2\n    /* \"#utility.yul\":2863:2876   */\n  mload\n    /* \"#utility.yul\":2854:2876   */\n  swap1\n  pop\n    /* \"#utility.yul\":2885:2918   */\n  tag_84\n    /* \"#utility.yul\":2912:2917   */\n  dup2\n    /* \"#utility.yul\":2885:2918   */\n  tag_29\n  jump\t// in\ntag_84:\n    /* \"#utility.yul\":2781:2924   */\n  swap3\n  swap2\n  pop\n  pop\n  jump\t// out\n    /* \"#utility.yul\":2930:4913   */\ntag_3:\n    /* \"#utility.yul\":3094:3100   */\n  0x00\n    /* \"#utility.yul\":3102:3108   */\n  dup1\n    /* \"#utility.yul\":3110:3116   */\n  0x00\n    /* \"#utility.yul\":3118:3124   */\n  dup1\n    /* \"#utility.yul\":3126:3132   */\n  0x00\n    /* \"#utility.yul\":3134:3140   */\n  dup1\n    /* \"#utility.yul\":3142:3148   */\n  0x00\n    /* \"#utility.yul\":3191:3194   */\n  0xe0\n    /* \"#utility.yul\":3179:3188   */\n  dup9\n    /* \"#utility.yul\":3170:3177   */\n  dup11\n    /* \"#utility.yul\":3166:3189   */\n  sub\n    /* \"#utility.yul\":3162:3195   */\n  slt\n    /* \"#utility.yul\":3159:3279   */\n  iszero\n  tag_86\n  jumpi\n    /* \"#utility.yul\":3198:3277   */\n  tag_87\n  tag_16\n  jump\t// in\ntag_87:\n    /* \"#utility.yul\":3159:3279   */\ntag_86:\n    /* \"#utility.yul\":3339:3340   */\n  0x00\n    /* \"#utility.yul\":3328:3337   */\n  dup9\n    /* \"#utility.yul\":3324:3341   */\n  add\n    /* \"#utility.yul\":3318:3342   */\n  mload\n    /* \"#utility.yul\":3369:3387   */\n  0xffffffffffffffff\n    /* \"#utility.yul\":3361:3367   */\n  dup2\n    /* \"#utility.yul\":3358:3388   */\n  gt\n    /* \"#utility.yul\":3355:3472   */\n  iszero\n  tag_88\n  jumpi\n    /* \"#utility.yul\":3391:3470   */\n  tag_89\n  tag_17\n  jump\t// in\ntag_89:\n    /* \"#utility.yul\":3355:3472   */\ntag_88:\n    /* \"#utility.yul\":3496:3570   */\n  tag_90\n    /* \"#utility.yul\":3562:3569   */\n  dup11\n    /* \"#utility.yul\":3553:3559   */\n  dup3\n    /* \"#utility.yul\":3542:3551   */\n  dup12\n    /* \"#utility.yul\":3538:3560   */\n  add\n    /* \"#utility.yul\":3496:3570   */\n  tag_27\n  jump\t// in\ntag_90:\n    /* \"#utility.yul\":3486:3570   */\n  swap8\n  pop\n    /* \"#utility.yul\":3289:3580   */\n  pop\n    /* \"#utility.yul\":3619:3621   */\n  0x20\n    /* \"#utility.yul\":3645:3709   */\n  tag_91\n    /* \"#utility.yul\":3701:3708   */\n  dup11\n    /* \"#utility.yul\":3692:3698   */\n  dup3\n    /* \"#utility.yul\":3681:3690   */\n  dup12\n    /* \"#utility.yul\":3677:3699   */\n  add\n    /* \"#utility.yul\":3645:3709   */\n  tag_30\n  jump\t// in\ntag_91:\n    /* \"#utility.yul\":3635:3709   */\n  swap7\n  pop\n    /* \"#utility.yul\":3590:3719   */\n  pop\n    /* \"#utility.yul\":3779:3781   */\n  0x40\n    /* \"#utility.yul\":3768:3777   */\n  dup9\n    /* \"#utility.yul\":3764:3782   */\n  add\n    /* \"#utility.yul\":3758:3783   */\n  mload\n    /* \"#utility.yul\":3810:3828   */\n  0xffffffffffffffff\n    /* \"#utility.yul\":3802:3808   */\n  dup2\n    /* \"#utility.yul\":3799:3829   */\n  gt\n    /* \"#utility.yul\":3796:3913   */\n  iszero\n  tag_92\n  jumpi\n    /* \"#utility.yul\":3832:3911   */\n  tag_93\n  tag_17\n  jump\t// in\ntag_93:\n    /* \"#utility.yul\":3796:3913   */\ntag_92:\n    /* \"#utility.yul\":3937:4011   */\n  tag_94\n    /* \"#utility.yul\":4003:4010   */\n  dup11\n    /* \"#utility.yul\":3994:4000   */\n  dup3\n    /* \"#utility.yul\":3983:3992   */\n  dup12\n    /* \"#utility.yul\":3979:4001   */\n  add\n    /* \"#utility.yul\":3937:4011   */\n  tag_27\n  jump\t// in\ntag_94:\n    /* \"#utility.yul\":3927:4011   */\n  swap6\n  pop\n    /* \"#utility.yul\":3729:4021   */\n  pop\n    /* \"#utility.yul\":4081:4083   */\n  0x60\n    /* \"#utility.yul\":4070:4079   */\n  dup9\n    /* \"#utility.yul\":4066:4084   */\n  add\n    /* \"#utility.yul\":4060:4085   */\n  mload\n    /* \"#utility.yul\":4112:4130   */\n  0xffffffffffffffff\n    /* \"#utility.yul\":4104:4110   */\n  dup2\n    /* \"#utility.yul\":4101:4131   */\n  gt\n    /* \"#utility.yul\":4098:4215   */\n  iszero\n  tag_95\n  jumpi\n    /* \"#utility.yul\":4134:4213   */\n  tag_96\n  tag_17\n  jump\t// in\ntag_96:\n    /* \"#utility.yul\":4098:4215   */\ntag_95:\n    /* \"#utility.yul\":4239:4313   */\n  tag_97\n    /* \"#utility.yul\":4305:4312   */\n  dup11\n    /* \"#utility.yul\":4296:4302   */\n  dup3\n    /* \"#utility.yul\":4285:4294   */\n  dup12\n    /* \"#utility.yul\":4281:4303   */\n  add\n    /* \"#utility.yul\":4239:4313   */\n  tag_27\n  jump\t// in\ntag_97:\n    /* \"#utility.yul\":4229:4313   */\n  swap5\n  pop\n    /* \"#utility.yul\":4031:4323   */\n  pop\n    /* \"#utility.yul\":4383:4386   */\n  0x80\n    /* \"#utility.yul\":4372:4381   */\n  dup9\n    /* \"#utility.yul\":4368:4387   */\n  add\n    /* \"#utility.yul\":4362:4388   */\n  mload\n    /* \"#utility.yul\":4415:4433   */\n  0xffffffffffffffff\n    /* \"#utility.yul\":4407:4413   */\n  dup2\n    /* \"#utility.yul\":4404:4434   */\n  gt\n    /* \"#utility.yul\":4401:4518   */\n  iszero\n  tag_98\n  jumpi\n    /* \"#utility.yul\":4437:4516   */\n  tag_99\n  tag_17\n  jump\t// in\ntag_99:\n    /* \"#utility.yul\":4401:4518   */\ntag_98:\n    /* \"#utility.yul\":4542:4616   */\n  tag_100\n    /* \"#utility.yul\":4608:4615   */\n  dup11\n    /* \"#utility.yul\":4599:4605   */\n  dup3\n    /* \"#utility.yul\":4588:4597   */\n  dup12\n    /* \"#utility.yul\":4584:4606   */\n  add\n    /* \"#utility.yul\":4542:4616   */\n  tag_27\n  jump\t// in\ntag_100:\n    /* \"#utility.yul\":4532:4616   */\n  swap4\n  pop\n    /* \"#utility.yul\":4333:4626   */\n  pop\n    /* \"#utility.yul\":4665:4668   */\n  0xa0\n    /* \"#utility.yul\":4692:4756   */\n  tag_101\n    /* \"#utility.yul\":4748:4755   */\n  dup11\n    /* \"#utility.yul\":4739:4745   */\n  dup3\n    /* \"#utility.yul\":4728:4737   */\n  dup12\n    /* \"#utility.yul\":4724:4746   */\n  add\n    /* \"#utility.yul\":4692:4756   */\n  tag_30\n  jump\t// in\ntag_101:\n    /* \"#utility.yul\":4682:4756   */\n  swap3\n  pop\n    /* \"#utility.yul\":4636:4766   */\n  pop\n    /* \"#utility.yul\":4805:4808   */\n  0xc0\n    /* \"#utility.yul\":4832:4896   */\n  tag_102\n    /* \"#utility.yul\":4888:4895   */\n  dup11\n    /* \"#utility.yul\":4879:4885   */\n  dup3\n    /* \"#utility.yul\":4868:4877   */\n  dup12\n    /* \"#utility.yul\":4864:4886   */\n  add\n    /* \"#utility.yul\":4832:4896   */\n  tag_30\n  jump\t// in\ntag_102:\n    /* \"#utility.yul\":4822:4896   */\n  swap2\n  pop\n    /* \"#utility.yul\":4776:4906   */\n  pop\n    /* \"#utility.yul\":2930:4913   */\n  swap3\n  swap6\n  swap9\n  swap2\n  swap5\n  swap8\n  pop\n  swap3\n  swap6\n  pop\n  jump\t// out\n    /* \"#utility.yul\":4919:5018   */\ntag_31:\n    /* \"#utility.yul\":4971:4977   */\n  0x00\n    /* \"#utility.yul\":5005:5010   */\n  dup2\n    /* \"#utility.yul\":4999:5011   */\n  mload\n    /* \"#utility.yul\":4989:5011   */\n  swap1\n  pop\n    /* \"#utility.yul\":4919:5018   */\n  swap2\n  swap1\n  pop\n  jump\t// out\n    /* \"#utility.yul\":5024:5204   */\ntag_32:\n    /* \"#utility.yul\":5072:5149   */\n  0x4e487b7100000000000000000000000000000000000000000000000000000000\n    /* \"#utility.yul\":5069:5070   */\n  0x00\n    /* \"#utility.yul\":5062:5150   */\n  mstore\n    /* \"#utility.yul\":5169:5173   */\n  0x22\n    /* \"#utility.yul\":5166:5167   */\n  0x04\n    /* \"#utility.yul\":5159:5174   */\n  mstore\n    /* \"#utility.yul\":5193:5197   */\n  0x24\n    /* \"#utility.yul\":5190:5191   */\n  0x00\n    /* \"#utility.yul\":5183:5198   */\n  revert\n    /* \"#utility.yul\":5210:5530   */\ntag_33:\n    /* \"#utility.yul\":5254:5260   */\n  0x00\n    /* \"#utility.yul\":5291:5292   */\n  0x02\n    /* \"#utility.yul\":5285:5289   */\n  dup3\n    /* \"#utility.yul\":5281:5293   */\n  div\n    /* \"#utility.yul\":5271:5293   */\n  swap1\n  pop\n    /* \"#utility.yul\":5338:5339   */\n  0x01\n    /* \"#utility.yul\":5332:5336   */\n  dup3\n    /* \"#utility.yul\":5328:5340   */\n  and\n    /* \"#utility.yul\":5359:5377   */\n  dup1\n    /* \"#utility.yul\":5349:5430   */\n  tag_106\n  jumpi\n    /* \"#utility.yul\":5415:5419   */\n  0x7f\n    /* \"#utility.yul\":5407:5413   */\n  dup3\n    /* \"#utility.yul\":5403:5420   */\n  and\n    /* \"#utility.yul\":5393:5420   */\n  swap2\n  pop\n    /* \"#utility.yul\":5349:5430   */\ntag_106:\n    /* \"#utility.yul\":5477:5479   */\n  0x20\n    /* \"#utility.yul\":5469:5475   */\n  dup3\n    /* \"#utility.yul\":5466:5480   */\n  lt\n    /* \"#utility.yul\":5446:5464   */\n  dup2\n    /* \"#utility.yul\":5443:5481   */\n  sub\n    /* \"#utility.yul\":5440:5524   */\n  tag_107\n  jumpi\n    /* \"#utility.yul\":5496:5514   */\n  tag_108\n  tag_32\n  jump\t// in\ntag_108:\n    /* \"#utility.yul\":5440:5524   */\ntag_107:\n    /* \"#utility.yul\":5261:5530   */\n  pop\n    /* \"#utility.yul\":5210:5530   */\n  swap2\n  swap1\n  pop\n  jump\t// out\n    /* \"#utility.yul\":5536:5677   */\ntag_34:\n    /* \"#utility.yul\":5585:5589   */\n  0x00\n    /* \"#utility.yul\":5608:5611   */\n  dup2\n    /* \"#utility.yul\":5600:5611   */\n  swap1\n  pop\n    /* \"#utility.yul\":5631:5634   */\n  dup2\n    /* \"#utility.yul\":5628:5629   */\n  0x00\n    /* \"#utility.yul\":5621:5635   */\n  mstore\n    /* \"#utility.yul\":5665:5669   */\n  0x20\n    /* \"#utility.yul\":5662:5663   */\n  0x00\n    /* \"#utility.yul\":5652:5670   */\n  keccak256\n    /* \"#utility.yul\":5644:5670   */\n  swap1\n  pop\n    /* \"#utility.yul\":5536:5677   */\n  swap2\n  swap1\n  pop\n  jump\t// out\n    /* \"#utility.yul\":5683:5776   */\ntag_35:\n    /* \"#utility.yul\":5720:5726   */\n  0x00\n    /* \"#utility.yul\":5767:5769   */\n  0x20\n    /* \"#utility.yul\":5762:5764   */\n  0x1f\n    /* \"#utility.yul\":5755:5760   */\n  dup4\n    /* \"#utility.yul\":5751:5765   */\n  add\n    /* \"#utility.yul\":5747:5770   */\n  div\n    /* \"#utility.yul\":5737:5770   */\n  swap1\n  pop\n    /* \"#utility.yul\":5683:5776   */\n  swap2\n  swap1\n  pop\n  jump\t// out\n    /* \"#utility.yul\":5782:5889   */\ntag_36:\n    /* \"#utility.yul\":5826:5834   */\n  0x00\n    /* \"#utility.yul\":5876:5881   */\n  dup3\n    /* \"#utility.yul\":5870:5874   */\n  dup3\n    /* \"#utility.yul\":5866:5882   */\n  shl\n    /* \"#utility.yul\":5845:5882   */\n  swap1\n  pop\n    /* \"#utility.yul\":5782:5889   */\n  swap3\n  swap2\n  pop\n  pop\n  jump\t// out\n    /* \"#utility.yul\":5895:6288   */\ntag_37:\n    /* \"#utility.yul\":5964:5970   */\n  0x00\n    /* \"#utility.yul\":6014:6015   */\n  0x08\n    /* \"#utility.yul\":6002:6012   */\n  dup4\n    /* \"#utility.yul\":5998:6016   */\n  mul\n    /* \"#utility.yul\":6037:6134   */\n  tag_113\n    /* \"#utility.yul\":6067:6133   */\n  0xffffffffffffffffffffffffffffffffffffffffffffffffffffffffffffffff\n    /* \"#utility.yul\":6056:6065   */\n  dup3\n    /* \"#utility.yul\":6037:6134   */\n  tag_36\n  jump\t// in\ntag_113:\n    /* \"#utility.yul\":6155:6194   */\n  tag_114\n    /* \"#utility.yul\":6185:6193   */\n  dup7\n    /* \"#utility.yul\":6174:6183   */\n  dup4\n    /* \"#utility.yul\":6155:6194   */\n  tag_36\n  jump\t// in\ntag_114:\n    /* \"#utility.yul\":6143:6194   */\n  swap6\n  pop\n    /* \"#utility.yul\":6227:6231   */\n  dup1\n    /* \"#utility.yul\":6223:6232   */\n  not\n    /* \"#utility.yul\":6216:6221   */\n  dup5\n    /* \"#utility.yul\":6212:6233   */\n  and\n    /* \"#utility.yul\":6203:6233   */\n  swap4\n  pop\n    /* \"#utility.yul\":6276:6280   */\n  dup1\n    /* \"#utility.yul\":6266:6274   */\n  dup7\n    /* \"#utility.yul\":6262:6281   */\n  and\n    /* \"#utility.yul\":6255:6260   */\n  dup5\n    /* \"#utility.yul\":6252:6282   */\n  or\n    /* \"#utility.yul\":6242:6282   */\n  swap3\n  pop\n    /* \"#utility.yul\":5971:6288   */\n  pop\n  pop\n    /* \"#utility.yul\":5895:6288   */\n  swap4\n  swap3\n  pop\n  pop\n  pop\n  jump\t// out\n    /* \"#utility.yul\":6294:6354   */\ntag_38:\n    /* \"#utility.yul\":6322:6325   */\n  0x00\n    /* \"#utility.yul\":6343:6348   */\n  dup2\n    /* \"#utility.yul\":6336:6348   */\n  swap1\n  pop\n    /* \"#utility.yul\":6294:6354   */\n  swap2\n  swap1\n  pop\n  jump\t// out\n    /* \"#utility.yul\":6360:6502   */\ntag_39:\n    /* \"#utility.yul\":6410:6419   */\n  0x00\n    /* \"#utility.yul\":6443:6496   */\n  tag_117\n    /* \"#utility.yul\":6461:6495   */\n  tag_118\n    /* \"#utility.yul\":6470:6494   */\n  tag_119\n    /* \"#utility.yul\":6488:6493   */\n  dup5\n    /* \"#utility.yul\":6470:6494   */\n  tag_28\n  jump\t// in\ntag_119:\n    /* \"#utility.yul\":6461:6495   */\n  tag_38\n  jump\t// in\ntag_118:\n    /* \"#utility.yul\":6443:6496   */\n  tag_28\n  jump\t// in\ntag_117:\n    /* \"#utility.yul\":6430:6496   */\n  swap1\n  pop\n    /* \"#utility.yul\":6360:6502   */\n  swap2\n  swap1\n  pop\n  jump\t// out\n    /* \"#utility.yul\":6508:6583   */\ntag_40:\n    /* \"#utility.yul\":6551:6554   */\n  0x00\n    /* \"#utility.yul\":6572:6577   */\n  dup2\n    /* \"#utility.yul\":6565:6577   */\n  swap1\n  pop\n    /* \"#utility.yul\":6508:6583   */\n  swap2\n  swap1\n  pop\n  jump\t// out\n    /* \"#utility.yul\":6589:6858   */\ntag_41:\n    /* \"#utility.yul\":6699:6738   */\n  tag_122\n    /* \"#utility.yul\":6730:6737   */\n  dup4\n    /* \"#utility.yul\":6699:6738   */\n  tag_39\n  jump\t// in\ntag_122:\n    /* \"#utility.yul\":6760:6851   */\n  tag_123\n    /* \"#utility.yul\":6809:6850   */\n  tag_124\n    /* \"#utility.yul\":6833:6849   */\n  dup3\n    /* \"#utility.yul\":6809:6850   */\n  tag_40\n  jump\t// in\ntag_124:\n    /* \"#utility.yul\":6801:6807   */\n  dup5\n    /* \"#utility.yul\":6794:6798   */\n  dup5\n    /* \"#utility.yul\":6788:6799   */\n  sload\n    /* \"#utility.yul\":6760:6851   */\n  tag_37\n  jump\t// in\ntag_123:\n    /* \"#utility.yul\":6754:6758   */\n  dup3\n    /* \"#utility.yul\":6747:6852   */\n  sstore\n    /* \"#utility.yul\":6665:6858   */\n  pop\n    /* \"#utility.yul\":6589:6858   */\n  pop\n  pop\n  pop\n  jump\t// out\n    /* \"#utility.yul\":6864:6937   */\ntag_42:\n    /* \"#utility.yul\":6909:6912   */\n  0x00\n    /* \"#utility.yul\":6864:6937   */\n  swap1\n  jump\t// out\n    /* \"#utility.yul\":6943:7132   */\ntag_43:\n    /* \"#utility.yul\":7020:7052   */\n  tag_127\n  tag_42\n  jump\t// in\ntag_127:\n    /* \"#utility.yul\":7061:7126   */\n  tag_128\n    /* \"#utility.yul\":7119:7125   */\n  dup2\n    /* \"#utility.yul\":7111:7117   */\n  dup5\n    /* \"#utility.yul\":7105:7109   */\n  dup5\n    /* \"#utility.yul\":7061:7126   */\n  tag_41\n  jump\t// in\ntag_128:\n    /* \"#utility.yul\":6996:7132   */\n  pop\n    /* \"#utility.yul\":6943:7132   */\n  pop\n  pop\n  jump\t// out\n    /* \"#utility.yul\":7138:7324   */\ntag_44:\n    /* \"#utility.yul\":7198:7318   */\ntag_130:\n    /* \"#utility.yul\":7215:7218   */\n  dup2\n    /* \"#utility.yul\":7208:7213   */\n  dup2\n    /* \"#utility.yul\":7205:7219   */\n  lt\n    /* \"#utility.yul\":7198:7318   */\n  iszero\n  tag_132\n  jumpi\n    /* \"#utility.yul\":7269:7308   */\n  tag_133\n    /* \"#utility.yul\":7306:7307   */\n  0x00\n    /* \"#utility.yul\":7299:7304   */\n  dup3\n    /* \"#utility.yul\":7269:7308   */\n  tag_43\n  jump\t// in\ntag_133:\n    /* \"#utility.yul\":7242:7243   */\n  0x01\n    /* \"#utility.yul\":7235:7240   */\n  dup2\n    /* \"#utility.yul\":7231:7244   */\n  add\n    /* \"#utility.yul\":7222:7244   */\n  swap1\n  pop\n    /* \"#utility.yul\":7198:7318   */\n  jump(tag_130)\ntag_132:\n    /* \"#utility.yul\":7138:7324   */\n  pop\n  pop\n  jump\t// out\n    /* \"#utility.yul\":7330:7873   */\ntag_45:\n    /* \"#utility.yul\":7431:7433   */\n  0x1f\n    /* \"#utility.yul\":7426:7429   */\n  dup3\n    /* \"#utility.yul\":7423:7434   */\n  gt\n    /* \"#utility.yul\":7420:7866   */\n  iszero\n  tag_135\n  jumpi\n    /* \"#utility.yul\":7465:7503   */\n  tag_136\n    /* \"#utility.yul\":7497:7502   */\n  dup2\n    /* \"#utility.yul\":7465:7503   */\n  tag_34\n  jump\t// in\ntag_136:\n    /* \"#utility.yul\":7549:7578   */\n  tag_137\n    /* \"#utility.yul\":7567:7577   */\n  dup5\n    /* \"#utility.yul\":7549:7578   */\n  tag_35\n  jump\t// in\ntag_137:\n    /* \"#utility.yul\":7539:7547   */\n  dup2\n    /* \"#utility.yul\":7535:7579   */\n  add\n    /* \"#utility.yul\":7732:7734   */\n  0x20\n    /* \"#utility.yul\":7720:7730   */\n  dup6\n    /* \"#utility.yul\":7717:7735   */\n  lt\n    /* \"#utility.yul\":7714:7763   */\n  iszero\n  tag_138\n  jumpi\n    /* \"#utility.yul\":7753:7761   */\n  dup2\n    /* \"#utility.yul\":7738:7761   */\n  swap1\n  pop\n    /* \"#utility.yul\":7714:7763   */\ntag_138:\n    /* \"#utility.yul\":7776:7856   */\n  tag_139\n    /* \"#utility.yul\":7832:7854   */\n  tag_140\n    /* \"#utility.yul\":7850:7853   */\n  dup6\n    /* \"#utility.yul\":7832:7854   */\n  tag_35\n  jump\t// in\ntag_140:\n    /* \"#utility.yul\":7822:7830   */\n  dup4\n    /* \"#utility.yul\":7818:7855   */\n  add\n    /* \"#utility.yul\":7805:7816   */\n  dup3\n    /* \"#utility.yul\":7776:7856   */\n  tag_44\n  jump\t// in\ntag_139:\n    /* \"#utility.yul\":7435:7866   */\n  pop\n  pop\n    /* \"#utility.yul\":7420:7866   */\ntag_135:\n    /* \"#utility.yul\":7330:7873   */\n  pop\n  pop\n  pop\n  jump\t// out\n    /* \"#utility.yul\":7879:7996   */\ntag_46:\n    /* \"#utility.yul\":7933:7941   */\n  0x00\n    /* \"#utility.yul\":7983:7988   */\n  dup3\n    /* \"#utility.yul\":7977:7981   */\n  dup3\n    /* \"#utility.yul\":7973:7989   */\n  shr\n    /* \"#utility.yul\":7952:7989   */\n  swap1\n  pop\n    /* \"#utility.yul\":7879:7996   */\n  swap3\n  swap2\n  pop\n  pop\n  jump\t// out\n    /* \"#utility.yul\":8002:8171   */\ntag_47:\n    /* \"#utility.yul\":8046:8052   */\n  0x00\n    /* \"#utility.yul\":8079:8130   */\n  tag_143\n    /* \"#utility.yul\":8127:8128   */\n  0x00\n    /* \"#utility.yul\":8123:8129   */\n  not\n    /* \"#utility.yul\":8115:8120   */\n  dup5\n    /* \"#utility.yul\":8112:8113   */\n  0x08\n    /* \"#utility.yul\":8108:8121   */\n  mul\n    /* \"#utility.yul\":8079:8130   */\n  tag_46\n  jump\t// in\ntag_143:\n    /* \"#utility.yul\":8075:8131   */\n  not\n    /* \"#utility.yul\":8160:8164   */\n  dup1\n    /* \"#utility.yul\":8154:8158   */\n  dup4\n    /* \"#utility.yul\":8150:8165   */\n  and\n    /* \"#utility.yul\":8140:8165   */\n  swap2\n  pop\n    /* \"#utility.yul\":8053:8171   */\n  pop\n    /* \"#utility.yul\":8002:8171   */\n  swap3\n  swap2\n  pop\n  pop\n  jump\t// out\n    /* \"#utility.yul\":8176:8471   */\ntag_48:\n    /* \"#utility.yul\":8252:8256   */\n  0x00\n    /* \"#utility.yul\":8398:8427   */\n  tag_145\n    /* \"#utility.yul\":8423:8426   */\n  dup4\n    /* \"#utility.yul\":8417:8421   */\n  dup4\n    /* \"#utility.yul\":8398:8427   */\n  tag_47\n  jump\t// in\ntag_145:\n    /* \"#utility.yul\":8390:8427   */\n  swap2\n  pop\n    /* \"#utility.yul\":8460:8463   */\n  dup3\n    /* \"#utility.yul\":8457:8458   */\n  0x02\n    /* \"#utility.yul\":8453:8464   */\n  mul\n    /* \"#utility.yul\":8447:8451   */\n  dup3\n    /* \"#utility.yul\":8444:8465   */\n  or\n    /* \"#utility.yul\":8436:8465   */\n  swap1\n  pop\n    /* \"#utility.yul\":8176:8471   */\n  swap3\n  swap2\n  pop\n  pop\n  jump\t// out\n    /* \"#utility.yul\":8476:9871   */\ntag_7:\n    /* \"#utility.yul\":8593:8630   */\n  tag_147\n    /* \"#utility.yul\":8626:8629   */\n  dup3\n    /* \"#utility.yul\":8593:8630   */\n  tag_31\n  jump\t// in\ntag_147:\n    /* \"#utility.yul\":8695:8713   */\n  0xffffffffffffffff\n    /* \"#utility.yul\":8687:8693   */\n  dup2\n    /* \"#utility.yul\":8684:8714   */\n  gt\n    /* \"#utility.yul\":8681:8737   */\n  iszero\n  tag_148\n  jumpi\n    /* \"#utility.yul\":8717:8735   */\n  tag_149\n  tag_21\n  jump\t// in\ntag_149:\n    /* \"#utility.yul\":8681:8737   */\ntag_148:\n    /* \"#utility.yul\":8761:8799   */\n  tag_150\n    /* \"#utility.yul\":8793:8797   */\n  dup3\n    /* \"#utility.yul\":8787:8798   */\n  sload\n    /* \"#utility.yul\":8761:8799   */\n  tag_33\n  jump\t// in\ntag_150:\n    /* \"#utility.yul\":8846:8913   */\n  tag_151\n    /* \"#utility.yul\":8906:8912   */\n  dup3\n    /* \"#utility.yul\":8898:8904   */\n  dup3\n    /* \"#utility.yul\":8892:8896   */\n  dup6\n    /* \"#utility.yul\":8846:8913   */\n  tag_45\n  jump\t// in\ntag_151:\n    /* \"#utility.yul\":8940:8941   */\n  0x00\n    /* \"#utility.yul\":8964:8968   */\n  0x20\n    /* \"#utility.yul\":8951:8968   */\n  swap1\n  pop\n    /* \"#utility.yul\":8996:8998   */\n  0x1f\n    /* \"#utility.yul\":8988:8994   */\n  dup4\n    /* \"#utility.yul\":8985:8999   */\n  gt\n    /* \"#utility.yul\":9013:9014   */\n  0x01\n    /* \"#utility.yul\":9008:9626   */\n  dup2\n  eq\n  tag_153\n  jumpi\n    /* \"#utility.yul\":9670:9671   */\n  0x00\n    /* \"#utility.yul\":9687:9693   */\n  dup5\n    /* \"#utility.yul\":9684:9761   */\n  iszero\n  tag_154\n  jumpi\n    /* \"#utility.yul\":9736:9745   */\n  dup3\n    /* \"#utility.yul\":9731:9734   */\n  dup8\n    /* \"#utility.yul\":9727:9746   */\n  add\n    /* \"#utility.yul\":9721:9747   */\n  mload\n    /* \"#utility.yul\":9712:9747   */\n  swap1\n  pop\n    /* \"#utility.yul\":9684:9761   */\ntag_154:\n    /* \"#utility.yul\":9787:9854   */\n  tag_155\n    /* \"#utility.yul\":9847:9853   */\n  dup6\n    /* \"#utility.yul\":9840:9845   */\n  dup3\n    /* \"#utility.yul\":9787:9854   */\n  tag_48\n  jump\t// in\ntag_155:\n    /* \"#utility.yul\":9781:9785   */\n  dup7\n    /* \"#utility.yul\":9774:9855   */\n  sstore\n    /* \"#utility.yul\":9643:9865   */\n  pop\n    /* \"#utility.yul\":8978:9865   */\n  jump(tag_152)\n    /* \"#utility.yul\":9008:9626   */\ntag_153:\n    /* \"#utility.yul\":9060:9064   */\n  0x1f\n    /* \"#utility.yul\":9056:9065   */\n  not\n    /* \"#utility.yul\":9048:9054   */\n  dup5\n    /* \"#utility.yul\":9044:9066   */\n  and\n    /* \"#utility.yul\":9094:9131   */\n  tag_156\n    /* \"#utility.yul\":9126:9130   */\n  dup7\n    /* \"#utility.yul\":9094:9131   */\n  tag_34\n  jump\t// in\ntag_156:\n    /* \"#utility.yul\":9153:9154   */\n  0x00\n    /* \"#utility.yul\":9167:9375   */\ntag_157:\n    /* \"#utility.yul\":9181:9188   */\n  dup3\n    /* \"#utility.yul\":9178:9179   */\n  dup2\n    /* \"#utility.yul\":9175:9189   */\n  lt\n    /* \"#utility.yul\":9167:9375   */\n  iszero\n  tag_159\n  jumpi\n    /* \"#utility.yul\":9260:9269   */\n  dup5\n    /* \"#utility.yul\":9255:9258   */\n  dup10\n    /* \"#utility.yul\":9251:9270   */\n  add\n    /* \"#utility.yul\":9245:9271   */\n  mload\n    /* \"#utility.yul\":9237:9243   */\n  dup3\n    /* \"#utility.yul\":9230:9272   */\n  sstore\n    /* \"#utility.yul\":9311:9312   */\n  0x01\n    /* \"#utility.yul\":9303:9309   */\n  dup3\n    /* \"#utility.yul\":9299:9313   */\n  add\n    /* \"#utility.yul\":9289:9313   */\n  swap2\n  pop\n    /* \"#utility.yul\":9358:9360   */\n  0x20\n    /* \"#utility.yul\":9347:9356   */\n  dup6\n    /* \"#utility.yul\":9343:9361   */\n  add\n    /* \"#utility.yul\":9330:9361   */\n  swap5\n  pop\n    /* \"#utility.yul\":9204:9208   */\n  0x20\n    /* \"#utility.yul\":9201:9202   */\n  dup2\n    /* \"#utility.yul\":9197:9209   */\n  add\n    /* \"#utility.yul\":9192:9209   */\n  swap1\n  pop\n    /* \"#utility.yul\":9167:9375   */\n  jump(tag_157)\ntag_159:\n    /* \"#utility.yul\":9403:9409   */\n  dup7\n    /* \"#utility.yul\":9394:9401   */\n  dup4\n    /* \"#utility.yul\":9391:9410   */\n  lt\n    /* \"#utility.yul\":9388:9567   */\n  iszero\n  tag_160\n  jumpi\n    /* \"#utility.yul\":9461:9470   */\n  dup5\n    /* \"#utility.yul\":9456:9459   */\n  dup10\n    /* \"#utility.yul\":9452:9471   */\n  add\n    /* \"#utility.yul\":9446:9472   */\n  mload\n    /* \"#utility.yul\":9504:9552   */\n  tag_161\n    /* \"#utility.yul\":9546:9550   */\n  0x1f\n    /* \"#utility.yul\":9538:9544   */\n  dup10\n    /* \"#utility.yul\":9534:9551   */\n  and\n    /* \"#utility.yul\":9523:9532   */\n  dup3\n    /* \"#utility.yul\":9504:9552   */\n  tag_47\n  jump\t// in\ntag_161:\n    /* \"#utility.yul\":9496:9502   */\n  dup4\n    /* \"#utility.yul\":9489:9553   */\n  sstore\n    /* \"#utility.yul\":9411:9567   */\n  pop\n    /* \"#utility.yul\":9388:9567   */\ntag_160:\n    /* \"#utility.yul\":9613:9614   */\n  0x01\n    /* \"#utility.yul\":9609:9610   */\n  0x02\n    /* \"#utility.yul\":9601:9607   */\n  dup9\n    /* \"#utility.yul\":9597:9611   */\n  mul\n    /* \"#utility.yul\":9593:9615   */\n  add\n    /* \"#utility.yul\":9587:9591   */\n  dup9\n    /* \"#utility.yul\":9580:9616   */\n  sstore\n    /* \"#utility.yul\":9015:9626   */\n  pop\n  pop\n  pop\n    /* \"#utility.yul\":8978:9865   */\ntag_152:\n  pop\n    /* \"#utility.yul\":8568:9871   */\n  pop\n  pop\n  pop\n    /* \"#utility.yul\":8476:9871   */\n  pop\n  pop\n  jump\t// out\n    /* \"Day-09/D9P2.sol\":599:1840  contract Student is Department, College {... */\ntag_11:\n  dataSize(sub_0)\n  dup1\n  dataOffset(sub_0)\n  0x00\n  codecopy\n  0x00\n  return\nstop\n\nsub_0: assembly {\n        /* \"Day-09/D9P2.sol\":599:1840  contract Student is Department, College {... */\n      mstore(0x40, 0x80)\n      callvalue\n      dup1\n      iszero\n      tag_1\n      jumpi\n      0x00\n      dup1\n      revert\n    tag_1:\n      pop\n      jumpi(tag_2, lt(calldatasize, 0x04))\n      shr(0xe0, calldataload(0x00))\n      dup1\n      0x9bbb62aa\n      gt\n      tag_13\n      jumpi\n      dup1\n      0x9bbb62aa\n      eq\n      tag_8\n      jumpi\n      dup1\n      0xb508ba31\n      eq\n      tag_9\n      jumpi\n      dup1\n      0xb8ce08ea\n      eq\n      tag_10\n      jumpi\n      dup1\n      0xb975abb3\n      eq\n      tag_11\n      jumpi\n      dup1\n      0xdf404d5c\n      eq\n      tag_12\n      jumpi\n      jump(tag_2)\n    tag_13:\n      dup1\n      0x176ee95f\n      eq\n      tag_3\n      jumpi\n      dup1\n      0x4ed5a232\n      eq\n      tag_4\n      jumpi\n      dup1\n      0x6c08283f\n      eq\n      tag_5\n      jumpi\n      dup1\n      0x6ef9a278\n      eq\n      tag_6\n      jumpi\n      dup1\n      0x735f5aec\n      eq\n      tag_7\n      jumpi\n    tag_2:\n      0x00\n      dup1\n      revert\n        /* \"Day-09/D9P2.sol\":269:291  string public DeptHead */\n    tag_3:\n      tag_14\n      tag_15\n      jump\t// in\n    tag_14:\n      mload(0x40)\n      tag_16\n      swap2\n      swap1\n      tag_17\n      jump\t// in\n    tag_16:\n      mload(0x40)\n      dup1\n      swap2\n      sub\n      swap1\n      return\n        /* \"Day-09/D9P2.sol\":702:719  uint public Marks */\n    tag_4:\n      tag_18\n      tag_19\n      jump\t// in\n    tag_18:\n      mload(0x40)\n      tag_20\n      swap2\n      swap1\n      tag_21\n      jump\t// in\n    tag_20:\n      mload(0x40)\n      dup1\n      swap2\n      sub\n      swap1\n      return\n        /* \"Day-09/D9P2.sol\":1257:1367  function getCollegeName() external view override returns (string memory) {... */\n    tag_5:\n      tag_22\n      tag_23\n      jump\t// in\n    tag_22:\n      mload(0x40)\n      tag_24\n      swap2\n      swap1\n      tag_17\n      jump\t// in\n    tag_24:\n      mload(0x40)\n      dup1\n      swap2\n      sub\n      swap1\n      return\n        /* \"Day-09/D9P2.sol\":678:695  uint public regNo */\n    tag_6:\n      tag_25\n      tag_26\n      jump\t// in\n    tag_25:\n      mload(0x40)\n      tag_27\n      swap2\n      swap1\n      tag_21\n      jump\t// in\n    tag_27:\n      mload(0x40)\n      dup1\n      swap2\n      sub\n      swap1\n      return\n        /* \"Day-09/D9P2.sol\":298:455  function setDepartmentDetails(string memory _deptName, string memory _DeptHead) public {... */\n    tag_7:\n      tag_28\n      0x04\n      dup1\n      calldatasize\n      sub\n      dup2\n      add\n      swap1\n      tag_29\n      swap2\n      swap1\n      tag_30\n      jump\t// in\n    tag_29:\n      tag_31\n      jump\t// in\n    tag_28:\n      stop\n        /* \"Day-09/D9P2.sol\":1480:1837  function displayStudentReportCard() public view returns (... */\n    tag_8:\n      tag_32\n      tag_33\n      jump\t// in\n    tag_32:\n      mload(0x40)\n      tag_34\n      swap8\n      swap7\n      swap6\n      swap5\n      swap4\n      swap3\n      swap2\n      swap1\n      tag_35\n      jump\t// in\n    tag_34:\n      mload(0x40)\n      dup1\n      swap2\n      sub\n      swap1\n      return\n        /* \"Day-09/D9P2.sol\":646:671  string public studentName */\n    tag_9:\n      tag_36\n      tag_37\n      jump\t// in\n    tag_36:\n      mload(0x40)\n      tag_38\n      swap2\n      swap1\n      tag_17\n      jump\t// in\n    tag_38:\n      mload(0x40)\n      dup1\n      swap2\n      sub\n      swap1\n      return\n        /* \"Day-09/D9P2.sol\":1373:1474  function getCollegeCode() external view override returns (uint) {... */\n    tag_10:\n      tag_39\n      tag_40\n      jump\t// in\n    tag_39:\n      mload(0x40)\n      tag_41\n      swap2\n      swap1\n      tag_21\n      jump\t// in\n    tag_41:\n      mload(0x40)\n      dup1\n      swap2\n      sub\n      swap1\n      return\n        /* \"Day-09/D9P2.sol\":240:262  string public deptName */\n    tag_11:\n      tag_42\n      tag_43\n      jump\t// in\n    tag_42:\n      mload(0x40)\n      tag_44\n      swap2\n      swap1\n      tag_17\n      jump\t// in\n    tag_44:\n      mload(0x40)\n      dup1\n      swap2\n      sub\n      swap1\n      return\n        /* \"Day-09/D9P2.sol\":461:594  function displayDepartmentDetails() public view returns (string memory, string memory) {... */\n    tag_12:\n      tag_45\n      tag_46\n      jump\t// in\n    tag_45:\n      mload(0x40)\n      tag_47\n      swap3\n      swap2\n      swap1\n      tag_48\n      jump\t// in\n    tag_47:\n      mload(0x40)\n      dup1\n      swap2\n      sub\n      swap1\n      return\n        /* \"Day-09/D9P2.sol\":269:291  string public DeptHead */\n    tag_15:\n      0x01\n      dup1\n      sload\n      tag_49\n      swap1\n      tag_50\n      jump\t// in\n    tag_49:\n      dup1\n      0x1f\n      add\n      0x20\n      dup1\n      swap2\n      div\n      mul\n      0x20\n      add\n      mload(0x40)\n      swap1\n      dup2\n      add\n      0x40\n      mstore\n      dup1\n      swap3\n      swap2\n      swap1\n      dup2\n      dup2\n      mstore\n      0x20\n      add\n      dup3\n      dup1\n      sload\n      tag_51\n      swap1\n      tag_50\n      jump\t// in\n    tag_51:\n      dup1\n      iszero\n      tag_52\n      jumpi\n      dup1\n      0x1f\n      lt\n      tag_53\n      jumpi\n      0x0100\n      dup1\n      dup4\n      sload\n      div\n      mul\n      dup4\n      mstore\n      swap2\n      0x20\n      add\n      swap2\n      jump(tag_52)\n    tag_53:\n      dup3\n      add\n      swap2\n      swap1\n      0x00\n      mstore\n      keccak256(0x00, 0x20)\n      swap1\n    tag_54:\n      dup2\n      sload\n      dup2\n      mstore\n      swap1\n      0x01\n      add\n      swap1\n      0x20\n      add\n      dup1\n      dup4\n      gt\n      tag_54\n      jumpi\n      dup3\n      swap1\n      sub\n      0x1f\n      and\n      dup3\n      add\n      swap2\n    tag_52:\n      pop\n      pop\n      pop\n      pop\n      pop\n      dup2\n      jump\t// out\n        /* \"Day-09/D9P2.sol\":702:719  uint public Marks */\n    tag_19:\n      sload(0x04)\n      dup2\n      jump\t// out\n        /* \"Day-09/D9P2.sol\":1257:1367  function getCollegeName() external view override returns (string memory) {... */\n    tag_23:\n        /* \"Day-09/D9P2.sol\":1315:1328  string memory */\n      0x60\n        /* \"Day-09/D9P2.sol\":1348:1359  collegeName */\n      0x05\n        /* \"Day-09/D9P2.sol\":1341:1359  return collegeName */\n      dup1\n      sload\n      tag_56\n      swap1\n      tag_50\n      jump\t// in\n    tag_56:\n      dup1\n      0x1f\n      add\n      0x20\n      dup1\n      swap2\n      div\n      mul\n      0x20\n      add\n      mload(0x40)\n      swap1\n      dup2\n      add\n      0x40\n      mstore\n      dup1\n      swap3\n      swap2\n      swap1\n      dup2\n      dup2\n      mstore\n      0x20\n      add\n      dup3\n      dup1\n      sload\n      tag_57\n      swap1\n      tag_50\n      jump\t// in\n    tag_57:\n      dup1\n      iszero\n      tag_58\n      jumpi\n      dup1\n      0x1f\n      lt\n      tag_59\n      jumpi\n      0x0100\n      dup1\n      dup4\n      sload\n      div\n      mul\n      dup4\n      mstore\n      swap2\n      0x20\n      add\n      swap2\n      jump(tag_58)\n    tag_59:\n      dup3\n      add\n      swap2\n      swap1\n      0x00\n      mstore\n      keccak256(0x00, 0x20)\n      swap1\n    tag_60:\n      dup2\n      sload\n      dup2\n      mstore\n      swap1\n      0x01\n      add\n      swap1\n      0x20\n      add\n      dup1\n      dup4\n      gt\n      tag_60\n      jumpi\n      dup3\n      swap1\n      sub\n      0x1f\n      and\n      dup3\n      add\n      swap2\n    tag_58:\n      pop\n      pop\n      pop\n      pop\n      pop\n      swap1\n      pop\n        /* \"Day-09/D9P2.sol\":1257:1367  function getCollegeName() external view override returns (string memory) {... */\n      swap1\n      jump\t// out\n        /* \"Day-09/D9P2.sol\":678:695  uint public regNo */\n    tag_26:\n      sload(0x03)\n      dup2\n      jump\t// out\n        /* \"Day-09/D9P2.sol\":298:455  function setDepartmentDetails(string memory _deptName, string memory _DeptHead) public {... */\n    tag_31:\n        /* \"Day-09/D9P2.sol\":407:416  _deptName */\n      dup2\n        /* \"Day-09/D9P2.sol\":396:404  deptName */\n      0x00\n        /* \"Day-09/D9P2.sol\":396:416  deptName = _deptName */\n      swap1\n      dup2\n      tag_62\n      swap2\n      swap1\n      tag_63\n      jump\t// in\n    tag_62:\n      pop\n        /* \"Day-09/D9P2.sol\":438:447  _DeptHead */\n      dup1\n        /* \"Day-09/D9P2.sol\":427:435  DeptHead */\n      0x01\n        /* \"Day-09/D9P2.sol\":427:447  DeptHead = _DeptHead */\n      swap1\n      dup2\n      tag_64\n      swap2\n      swap1\n      tag_63\n      jump\t// in\n    tag_64:\n      pop\n        /* \"Day-09/D9P2.sol\":298:455  function setDepartmentDetails(string memory _deptName, string memory _DeptHead) public {... */\n      pop\n      pop\n      jump\t// out\n        /* \"Day-09/D9P2.sol\":1480:1837  function displayStudentReportCard() public view returns (... */\n    tag_33:\n        /* \"Day-09/D9P2.sol\":1547:1560  string memory */\n      0x60\n        /* \"Day-09/D9P2.sol\":1562:1566  uint */\n      0x00\n        /* \"Day-09/D9P2.sol\":1568:1581  string memory */\n      0x60\n        /* \"Day-09/D9P2.sol\":1583:1596  string memory */\n      dup1\n        /* \"Day-09/D9P2.sol\":1598:1602  uint */\n      0x00\n        /* \"Day-09/D9P2.sol\":1604:1608  uint */\n      dup1\n        /* \"Day-09/D9P2.sol\":1610:1623  string memory */\n      0x60\n        /* \"Day-09/D9P2.sol\":1664:1675  studentName */\n      0x02\n        /* \"Day-09/D9P2.sol\":1691:1696  regNo */\n      sload(0x03)\n        /* \"Day-09/D9P2.sol\":1712:1720  deptName */\n      0x00\n        /* \"Day-09/D9P2.sol\":1736:1744  DeptHead */\n      0x01\n        /* \"Day-09/D9P2.sol\":1760:1765  Marks */\n      sload(0x04)\n        /* \"Day-09/D9P2.sol\":1781:1792  collegeCode */\n      sload(0x06)\n        /* \"Day-09/D9P2.sol\":1807:1818  collegeName */\n      0x05\n        /* \"Day-09/D9P2.sol\":1642:1829  return (... */\n      dup7\n      dup1\n      sload\n      tag_66\n      swap1\n      tag_50\n      jump\t// in\n    tag_66:\n      dup1\n      0x1f\n      add\n      0x20\n      dup1\n      swap2\n      div\n      mul\n      0x20\n      add\n      mload(0x40)\n      swap1\n      dup2\n      add\n      0x40\n      mstore\n      dup1\n      swap3\n      swap2\n      swap1\n      dup2\n      dup2\n      mstore\n      0x20\n      add\n      dup3\n      dup1\n      sload\n      tag_67\n      swap1\n      tag_50\n      jump\t// in\n    tag_67:\n      dup1\n      iszero\n      tag_68\n      jumpi\n      dup1\n      0x1f\n      lt\n      tag_69\n      jumpi\n      0x0100\n      dup1\n      dup4\n      sload\n      div\n      mul\n      dup4\n      mstore\n      swap2\n      0x20\n      add\n      swap2\n      jump(tag_68)\n    tag_69:\n      dup3\n      add\n      swap2\n      swap1\n      0x00\n      mstore\n      keccak256(0x00, 0x20)\n      swap1\n    tag_70:\n      dup2\n      sload\n      dup2\n      mstore\n      swap1\n      0x01\n      add\n      swap1\n      0x20\n      add\n      dup1\n      dup4\n      gt\n      tag_70\n      jumpi\n      dup3\n      swap1\n      sub\n      0x1f\n      and\n      dup3\n      add\n      swap2\n    tag_68:\n      pop\n      pop\n      pop\n      pop\n      pop\n      swap7\n      pop\n      dup5\n      dup1\n      sload\n      tag_71\n      swap1\n      tag_50\n      jump\t// in\n    tag_71:\n      dup1\n      0x1f\n      add\n      0x20\n      dup1\n      swap2\n      div\n      mul\n      0x20\n      add\n      mload(0x40)\n      swap1\n      dup2\n      add\n      0x40\n      mstore\n      dup1\n      swap3\n      swap2\n      swap1\n      dup2\n      dup2\n      mstore\n      0x20\n      add\n      dup3\n      dup1\n      sload\n      tag_72\n      swap1\n      tag_50\n      jump\t// in\n    tag_72:\n      dup1\n      iszero\n      tag_73\n      jumpi\n      dup1\n      0x1f\n      lt\n      tag_74\n      jumpi\n      0x0100\n      dup1\n      dup4\n      sload\n      div\n      mul\n      dup4\n      mstore\n      swap2\n      0x20\n      add\n      swap2\n      jump(tag_73)\n    tag_74:\n      dup3\n      add\n      swap2\n      swap1\n      0x00\n      mstore\n      keccak256(0x00, 0x20)\n      swap1\n    tag_75:\n      dup2\n      sload\n      dup2\n      mstore\n      swap1\n      0x01\n      add\n      swap1\n      0x20\n      add\n      dup1\n      dup4\n      gt\n      tag_75\n      jumpi\n      dup3\n      swap1\n      sub\n      0x1f\n      and\n      dup3\n      add\n      swap2\n    tag_73:\n      pop\n      pop\n      pop\n      pop\n      pop\n      swap5\n      pop\n      dup4\n      dup1\n      sload\n      tag_76\n      swap1\n      tag_50\n      jump\t// in\n    tag_76:\n      dup1\n      0x1f\n      add\n      0x20\n      dup1\n      swap2\n      div\n      mul\n      0x20\n      add\n      mload(0x40)\n      swap1\n      dup2\n      add\n      0x40\n      mstore\n      dup1\n      swap3\n      swap2\n      swap1\n      dup2\n      dup2\n      mstore\n      0x20\n      add\n      dup3\n      dup1\n      sload\n      tag_77\n      swap1\n      tag_50\n      jump\t// in\n    tag_77:\n      dup1\n      iszero\n      tag_78\n      jumpi\n      dup1\n      0x1f\n      lt\n      tag_79\n      jumpi\n      0x0100\n      dup1\n      dup4\n      sload\n      div\n      mul\n      dup4\n      mstore\n      swap2\n      0x20\n      add\n      swap2\n      jump(tag_78)\n    tag_79:\n      dup3\n      add\n      swap2\n      swap1\n      0x00\n      mstore\n      keccak256(0x00, 0x20)\n      swap1\n    tag_80:\n      dup2\n      sload\n      dup2\n      mstore\n      swap1\n      0x01\n      add\n      swap1\n      0x20\n      add\n      dup1\n      dup4\n      gt\n      tag_80\n      jumpi\n      dup3\n      swap1\n      sub\n      0x1f\n      and\n      dup3\n      add\n      swap2\n    tag_78:\n      pop\n      pop\n      pop\n      pop\n      pop\n      swap4\n      pop\n      dup1\n      dup1\n      sload\n      tag_81\n      swap1\n      tag_50\n      jump\t// in\n    tag_81:\n      dup1\n      0x1f\n      add\n      0x20\n      dup1\n      swap2\n      div\n      mul\n      0x20\n      add\n      mload(0x40)\n      swap1\n      dup2\n      add\n      0x40\n      mstore\n      dup1\n      swap3\n      swap2\n      swap1\n      dup2\n      dup2\n      mstore\n      0x20\n      add\n      dup3\n      dup1\n      sload\n      tag_82\n      swap1\n      tag_50\n      jump\t// in\n    tag_82:\n      dup1\n      iszero\n      tag_83\n      jumpi\n      dup1\n      0x1f\n      lt\n      tag_84\n      jumpi\n      0x0100\n      dup1\n      dup4\n      sload\n      div\n      mul\n      dup4\n      mstore\n      swap2\n      0x20\n      add\n      swap2\n      jump(tag_83)\n    tag_84:\n      dup3\n      add\n      swap2\n      swap1\n      0x00\n      mstore\n      keccak256(0x00, 0x20)\n      swap1\n    tag_85:\n      dup2\n      sload\n      dup2\n      mstore\n      swap1\n      0x01\n      add\n      swap1\n      0x20\n      add\n      dup1\n      dup4\n      gt\n      tag_85\n      jumpi\n      dup3\n      swap1\n      sub\n      0x1f\n      and\n      dup3\n      add\n      swap2\n    tag_83:\n      pop\n      pop\n      pop\n      pop\n      pop\n      swap1\n      pop\n      swap7\n      pop\n      swap7\n      pop\n      swap7\n      pop\n      swap7\n      pop\n      swap7\n      pop\n      swap7\n      pop\n      swap7\n      pop\n        /* \"Day-09/D9P2.sol\":1480:1837  function displayStudentReportCard() public view returns (... */\n      swap1\n      swap2\n      swap3\n      swap4\n      swap5\n      swap6\n      swap7\n      jump\t// out\n        /* \"Day-09/D9P2.sol\":646:671  string public studentName */\n    tag_37:\n      0x02\n      dup1\n      sload\n      tag_86\n      swap1\n      tag_50\n      jump\t// in\n    tag_86:\n      dup1\n      0x1f\n      add\n      0x20\n      dup1\n      swap2\n      div\n      mul\n      0x20\n      add\n      mload(0x40)\n      swap1\n      dup2\n      add\n      0x40\n      mstore\n      dup1\n      swap3\n      swap2\n      swap1\n      dup2\n      dup2\n      mstore\n      0x20\n      add\n      dup3\n      dup1\n      sload\n      tag_87\n      swap1\n      tag_50\n      jump\t// in\n    tag_87:\n      dup1\n      iszero\n      tag_88\n      jumpi\n      dup1\n      0x1f\n      lt\n      tag_89\n      jumpi\n      0x0100\n      dup1\n      dup4\n      sload\n      div\n      mul\n      dup4\n      mstore\n      swap2\n      0x20\n      add\n      swap2\n      jump(tag_88)\n    tag_89:\n      dup3\n      add\n      swap2\n      swap1\n      0x00\n      mstore\n      keccak256(0x00, 0x20)\n      swap1\n    tag_90:\n      dup2\n      sload\n      dup2\n      mstore\n      swap1\n      0x01\n      add\n      swap1\n      0x20\n      add\n      dup1\n      dup4\n      gt\n      tag_90\n      jumpi\n      dup3\n      swap1\n      sub\n      0x1f\n      and\n      dup3\n      add\n      swap2\n    tag_88:\n      pop\n      pop\n      pop\n      pop\n      pop\n      dup2\n      jump\t// out\n        /* \"Day-09/D9P2.sol\":1373:1474  function getCollegeCode() external view override returns (uint) {... */\n    tag_40:\n        /* \"Day-09/D9P2.sol\":1431:1435  uint */\n      0x00\n        /* \"Day-09/D9P2.sol\":1455:1466  collegeCode */\n      sload(0x06)\n        /* \"Day-09/D9P2.sol\":1448:1466  return collegeCode */\n      swap1\n      pop\n        /* \"Day-09/D9P2.sol\":1373:1474  function getCollegeCode() external view override returns (uint) {... */\n      swap1\n      jump\t// out\n        /* \"Day-09/D9P2.sol\":240:262  string public deptName */\n    tag_43:\n      0x00\n      dup1\n      sload\n      tag_92\n      swap1\n      tag_50\n      jump\t// in\n    tag_92:\n      dup1\n      0x1f\n      add\n      0x20\n      dup1\n      swap2\n      div\n      mul\n      0x20\n      add\n      mload(0x40)\n      swap1\n      dup2\n      add\n      0x40\n      mstore\n      dup1\n      swap3\n      swap2\n      swap1\n      dup2\n      dup2\n      mstore\n      0x20\n      add\n      dup3\n      dup1\n      sload\n      tag_93\n      swap1\n      tag_50\n      jump\t// in\n    tag_93:\n      dup1\n      iszero\n      tag_94\n      jumpi\n      dup1\n      0x1f\n      lt\n      tag_95\n      jumpi\n      0x0100\n      dup1\n      dup4\n      sload\n      div\n      mul\n      dup4\n      mstore\n      swap2\n      0x20\n      add\n      swap2\n      jump(tag_94)\n    tag_95:\n      dup3\n      add\n      swap2\n      swap1\n      0x00\n      mstore\n      keccak256(0x00, 0x20)\n      swap1\n    tag_96:\n      dup2\n      sload\n      dup2\n      mstore\n      swap1\n      0x01\n      add\n      swap1\n      0x20\n      add\n      dup1\n      dup4\n      gt\n      tag_96\n      jumpi\n      dup3\n      swap1\n      sub\n      0x1f\n      and\n      dup3\n      add\n      swap2\n    tag_94:\n      pop\n      pop\n      pop\n      pop\n      pop\n      dup2\n      jump\t// out\n        /* \"Day-09/D9P2.sol\":461:594  function displayDepartmentDetails() public view returns (string memory, string memory) {... */\n    tag_46:\n        /* \"Day-09/D9P2.sol\":518:531  string memory */\n      0x60\n        /* \"Day-09/D9P2.sol\":533:546  string memory */\n      dup1\n        /* \"Day-09/D9P2.sol\":567:575  deptName */\n      0x00\n        /* \"Day-09/D9P2.sol\":577:585  DeptHead */\n      0x01\n        /* \"Day-09/D9P2.sol\":559:586  return (deptName, DeptHead) */\n      dup2\n      dup1\n      sload\n      tag_98\n      swap1\n      tag_50\n      jump\t// in\n    tag_98:\n      dup1\n      0x1f\n      add\n      0x20\n      dup1\n      swap2\n      div\n      mul\n      0x20\n      add\n      mload(0x40)\n      swap1\n      dup2\n      add\n      0x40\n      mstore\n      dup1\n      swap3\n      swap2\n      swap1\n      dup2\n      dup2\n      mstore\n      0x20\n      add\n      dup3\n      dup1\n      sload\n      tag_99\n      swap1\n      tag_50\n      jump\t// in\n    tag_99:\n      dup1\n      iszero\n      tag_100\n      jumpi\n      dup1\n      0x1f\n      lt\n      tag_101\n      jumpi\n      0x0100\n      dup1\n      dup4\n      sload\n      div\n      mul\n      dup4\n      mstore\n      swap2\n      0x20\n      add\n      swap2\n      jump(tag_100)\n    tag_101:\n      dup3\n      add\n      swap2\n      swap1\n      0x00\n      mstore\n      keccak256(0x00, 0x20)\n      swap1\n    tag_102:\n      dup2\n      sload\n      dup2\n      mstore\n      swap1\n      0x01\n      add\n      swap1\n      0x20\n      add\n      dup1\n      dup4\n      gt\n      tag_102\n      jumpi\n      dup3\n      swap1\n      sub\n      0x1f\n      and\n      dup3\n      add\n      swap2\n    tag_100:\n      pop\n      pop\n      pop\n      pop\n      pop\n      swap2\n      pop\n      dup1\n      dup1\n      sload\n      tag_103\n      swap1\n      tag_50\n      jump\t// in\n    tag_103:\n      dup1\n      0x1f\n      add\n      0x20\n      dup1\n      swap2\n      div\n      mul\n      0x20\n      add\n      mload(0x40)\n      swap1\n      dup2\n      add\n      0x40\n      mstore\n      dup1\n      swap3\n      swap2\n      swap1\n      dup2\n      dup2\n      mstore\n      0x20\n      add\n      dup3\n      dup1\n      sload\n      tag_104\n      swap1\n      tag_50\n      jump\t// in\n    tag_104:\n      dup1\n      iszero\n      tag_105\n      jumpi\n      dup1\n      0x1f\n      lt\n      tag_106\n      jumpi\n      0x0100\n      dup1\n      dup4\n      sload\n      div\n      mul\n      dup4\n      mstore\n      swap2\n      0x20\n      add\n      swap2\n      jump(tag_105)\n    tag_106:\n      dup3\n      add\n      swap2\n      swap1\n      0x00\n      mstore\n      keccak256(0x00, 0x20)\n      swap1\n    tag_107:\n      dup2\n      sload\n      dup2\n      mstore\n      swap1\n      0x01\n      add\n      swap1\n      0x20\n      add\n      dup1\n      dup4\n      gt\n      tag_107\n      jumpi\n      dup3\n      swap1\n      sub\n      0x1f\n      and\n      dup3\n      add\n      swap2\n    tag_105:\n      pop\n      pop\n      pop\n      pop\n      pop\n      swap1\n      pop\n      swap2\n      pop\n      swap2\n      pop\n        /* \"Day-09/D9P2.sol\":461:594  function displayDepartmentDetails() public view returns (string memory, string memory) {... */\n      swap1\n      swap2\n      jump\t// out\n        /* \"#utility.yul\":7:106   */\n    tag_108:\n        /* \"#utility.yul\":59:65   */\n      0x00\n        /* \"#utility.yul\":93:98   */\n      dup2\n        /* \"#utility.yul\":87:99   */\n      mload\n        /* \"#utility.yul\":77:99   */\n      swap1\n      pop\n        /* \"#utility.yul\":7:106   */\n      swap2\n      swap1\n      pop\n      jump\t// out\n        /* \"#utility.yul\":112:281   */\n    tag_109:\n        /* \"#utility.yul\":196:207   */\n      0x00\n        /* \"#utility.yul\":230:236   */\n      dup3\n        /* \"#utility.yul\":225:228   */\n      dup3\n        /* \"#utility.yul\":218:237   */\n      mstore\n        /* \"#utility.yul\":270:274   */\n      0x20\n        /* \"#utility.yul\":265:268   */\n      dup3\n        /* \"#utility.yul\":261:275   */\n      add\n        /* \"#utility.yul\":246:275   */\n      swap1\n      pop\n        /* \"#utility.yul\":112:281   */\n      swap3\n      swap2\n      pop\n      pop\n      jump\t// out\n        /* \"#utility.yul\":287:426   */\n    tag_110:\n        /* \"#utility.yul\":376:382   */\n      dup3\n        /* \"#utility.yul\":371:374   */\n      dup2\n        /* \"#utility.yul\":366:369   */\n      dup4\n        /* \"#utility.yul\":360:383   */\n      mcopy\n        /* \"#utility.yul\":417:418   */\n      0x00\n        /* \"#utility.yul\":408:414   */\n      dup4\n        /* \"#utility.yul\":403:406   */\n      dup4\n        /* \"#utility.yul\":399:415   */\n      add\n        /* \"#utility.yul\":392:419   */\n      mstore\n        /* \"#utility.yul\":287:426   */\n      pop\n      pop\n      pop\n      jump\t// out\n        /* \"#utility.yul\":432:534   */\n    tag_111:\n        /* \"#utility.yul\":473:479   */\n      0x00\n        /* \"#utility.yul\":524:526   */\n      0x1f\n        /* \"#utility.yul\":520:527   */\n      not\n        /* \"#utility.yul\":515:517   */\n      0x1f\n        /* \"#utility.yul\":508:513   */\n      dup4\n        /* \"#utility.yul\":504:518   */\n      add\n        /* \"#utility.yul\":500:528   */\n      and\n        /* \"#utility.yul\":490:528   */\n      swap1\n      pop\n        /* \"#utility.yul\":432:534   */\n      swap2\n      swap1\n      pop\n      jump\t// out\n        /* \"#utility.yul\":540:917   */\n    tag_112:\n        /* \"#utility.yul\":628:631   */\n      0x00\n        /* \"#utility.yul\":656:695   */\n      tag_149\n        /* \"#utility.yul\":689:694   */\n      dup3\n        /* \"#utility.yul\":656:695   */\n      tag_108\n      jump\t// in\n    tag_149:\n        /* \"#utility.yul\":711:782   */\n      tag_150\n        /* \"#utility.yul\":775:781   */\n      dup2\n        /* \"#utility.yul\":770:773   */\n      dup6\n        /* \"#utility.yul\":711:782   */\n      tag_109\n      jump\t// in\n    tag_150:\n        /* \"#utility.yul\":704:782   */\n      swap4\n      pop\n        /* \"#utility.yul\":791:856   */\n      tag_151\n        /* \"#utility.yul\":849:855   */\n      dup2\n        /* \"#utility.yul\":844:847   */\n      dup6\n        /* \"#utility.yul\":837:841   */\n      0x20\n        /* \"#utility.yul\":830:835   */\n      dup7\n        /* \"#utility.yul\":826:842   */\n      add\n        /* \"#utility.yul\":791:856   */\n      tag_110\n      jump\t// in\n    tag_151:\n        /* \"#utility.yul\":881:910   */\n      tag_152\n        /* \"#utility.yul\":903:909   */\n      dup2\n        /* \"#utility.yul\":881:910   */\n      tag_111\n      jump\t// in\n    tag_152:\n        /* \"#utility.yul\":876:879   */\n      dup5\n        /* \"#utility.yul\":872:911   */\n      add\n        /* \"#utility.yul\":865:911   */\n      swap2\n      pop\n        /* \"#utility.yul\":632:917   */\n      pop\n        /* \"#utility.yul\":540:917   */\n      swap3\n      swap2\n      pop\n      pop\n      jump\t// out\n        /* \"#utility.yul\":923:1236   */\n    tag_17:\n        /* \"#utility.yul\":1036:1040   */\n      0x00\n        /* \"#utility.yul\":1074:1076   */\n      0x20\n        /* \"#utility.yul\":1063:1072   */\n      dup3\n        /* \"#utility.yul\":1059:1077   */\n      add\n        /* \"#utility.yul\":1051:1077   */\n      swap1\n      pop\n        /* \"#utility.yul\":1123:1132   */\n      dup2\n        /* \"#utility.yul\":1117:1121   */\n      dup2\n        /* \"#utility.yul\":1113:1133   */\n      sub\n        /* \"#utility.yul\":1109:1110   */\n      0x00\n        /* \"#utility.yul\":1098:1107   */\n      dup4\n        /* \"#utility.yul\":1094:1111   */\n      add\n        /* \"#utility.yul\":1087:1134   */\n      mstore\n        /* \"#utility.yul\":1151:1229   */\n      tag_154\n        /* \"#utility.yul\":1224:1228   */\n      dup2\n        /* \"#utility.yul\":1215:1221   */\n      dup5\n        /* \"#utility.yul\":1151:1229   */\n      tag_112\n      jump\t// in\n    tag_154:\n        /* \"#utility.yul\":1143:1229   */\n      swap1\n      pop\n        /* \"#utility.yul\":923:1236   */\n      swap3\n      swap2\n      pop\n      pop\n      jump\t// out\n        /* \"#utility.yul\":1242:1319   */\n    tag_113:\n        /* \"#utility.yul\":1279:1286   */\n      0x00\n        /* \"#utility.yul\":1308:1313   */\n      dup2\n        /* \"#utility.yul\":1297:1313   */\n      swap1\n      pop\n        /* \"#utility.yul\":1242:1319   */\n      swap2\n      swap1\n      pop\n      jump\t// out\n        /* \"#utility.yul\":1325:1443   */\n    tag_114:\n        /* \"#utility.yul\":1412:1436   */\n      tag_157\n        /* \"#utility.yul\":1430:1435   */\n      dup2\n        /* \"#utility.yul\":1412:1436   */\n      tag_113\n      jump\t// in\n    tag_157:\n        /* \"#utility.yul\":1407:1410   */\n      dup3\n        /* \"#utility.yul\":1400:1437   */\n      mstore\n        /* \"#utility.yul\":1325:1443   */\n      pop\n      pop\n      jump\t// out\n        /* \"#utility.yul\":1449:1671   */\n    tag_21:\n        /* \"#utility.yul\":1542:1546   */\n      0x00\n        /* \"#utility.yul\":1580:1582   */\n      0x20\n        /* \"#utility.yul\":1569:1578   */\n      dup3\n        /* \"#utility.yul\":1565:1583   */\n      add\n        /* \"#utility.yul\":1557:1583   */\n      swap1\n      pop\n        /* \"#utility.yul\":1593:1664   */\n      tag_159\n        /* \"#utility.yul\":1661:1662   */\n      0x00\n        /* \"#utility.yul\":1650:1659   */\n      dup4\n        /* \"#utility.yul\":1646:1663   */\n      add\n        /* \"#utility.yul\":1637:1643   */\n      dup5\n        /* \"#utility.yul\":1593:1664   */\n      tag_114\n      jump\t// in\n    tag_159:\n        /* \"#utility.yul\":1449:1671   */\n      swap3\n      swap2\n      pop\n      pop\n      jump\t// out\n        /* \"#utility.yul\":1677:1752   */\n    tag_115:\n        /* \"#utility.yul\":1710:1716   */\n      0x00\n        /* \"#utility.yul\":1743:1745   */\n      0x40\n        /* \"#utility.yul\":1737:1746   */\n      mload\n        /* \"#utility.yul\":1727:1746   */\n      swap1\n      pop\n        /* \"#utility.yul\":1677:1752   */\n      swap1\n      jump\t// out\n        /* \"#utility.yul\":1758:1875   */\n    tag_116:\n        /* \"#utility.yul\":1867:1868   */\n      0x00\n        /* \"#utility.yul\":1864:1865   */\n      dup1\n        /* \"#utility.yul\":1857:1869   */\n      revert\n        /* \"#utility.yul\":1881:1998   */\n    tag_117:\n        /* \"#utility.yul\":1990:1991   */\n      0x00\n        /* \"#utility.yul\":1987:1988   */\n      dup1\n        /* \"#utility.yul\":1980:1992   */\n      revert\n        /* \"#utility.yul\":2004:2121   */\n    tag_118:\n        /* \"#utility.yul\":2113:2114   */\n      0x00\n        /* \"#utility.yul\":2110:2111   */\n      dup1\n        /* \"#utility.yul\":2103:2115   */\n      revert\n        /* \"#utility.yul\":2127:2244   */\n    tag_119:\n        /* \"#utility.yul\":2236:2237   */\n      0x00\n        /* \"#utility.yul\":2233:2234   */\n      dup1\n        /* \"#utility.yul\":2226:2238   */\n      revert\n        /* \"#utility.yul\":2250:2430   */\n    tag_120:\n        /* \"#utility.yul\":2298:2375   */\n      0x4e487b7100000000000000000000000000000000000000000000000000000000\n        /* \"#utility.yul\":2295:2296   */\n      0x00\n        /* \"#utility.yul\":2288:2376   */\n      mstore\n        /* \"#utility.yul\":2395:2399   */\n      0x41\n        /* \"#utility.yul\":2392:2393   */\n      0x04\n        /* \"#utility.yul\":2385:2400   */\n      mstore\n        /* \"#utility.yul\":2419:2423   */\n      0x24\n        /* \"#utility.yul\":2416:2417   */\n      0x00\n        /* \"#utility.yul\":2409:2424   */\n      revert\n        /* \"#utility.yul\":2436:2717   */\n    tag_121:\n        /* \"#utility.yul\":2519:2546   */\n      tag_167\n        /* \"#utility.yul\":2541:2545   */\n      dup3\n        /* \"#utility.yul\":2519:2546   */\n      tag_111\n      jump\t// in\n    tag_167:\n        /* \"#utility.yul\":2511:2517   */\n      dup2\n        /* \"#utility.yul\":2507:2547   */\n      add\n        /* \"#utility.yul\":2649:2655   */\n      dup2\n        /* \"#utility.yul\":2637:2647   */\n      dup2\n        /* \"#utility.yul\":2634:2656   */\n      lt\n        /* \"#utility.yul\":2613:2631   */\n      0xffffffffffffffff\n        /* \"#utility.yul\":2601:2611   */\n      dup3\n        /* \"#utility.yul\":2598:2632   */\n      gt\n        /* \"#utility.yul\":2595:2657   */\n      or\n        /* \"#utility.yul\":2592:2680   */\n      iszero\n      tag_168\n      jumpi\n        /* \"#utility.yul\":2660:2678   */\n      tag_169\n      tag_120\n      jump\t// in\n    tag_169:\n        /* \"#utility.yul\":2592:2680   */\n    tag_168:\n        /* \"#utility.yul\":2700:2710   */\n      dup1\n        /* \"#utility.yul\":2696:2698   */\n      0x40\n        /* \"#utility.yul\":2689:2711   */\n      mstore\n        /* \"#utility.yul\":2479:2717   */\n      pop\n        /* \"#utility.yul\":2436:2717   */\n      pop\n      pop\n      jump\t// out\n        /* \"#utility.yul\":2723:2852   */\n    tag_122:\n        /* \"#utility.yul\":2757:2763   */\n      0x00\n        /* \"#utility.yul\":2784:2804   */\n      tag_171\n      tag_115\n      jump\t// in\n    tag_171:\n        /* \"#utility.yul\":2774:2804   */\n      swap1\n      pop\n        /* \"#utility.yul\":2813:2846   */\n      tag_172\n        /* \"#utility.yul\":2841:2845   */\n      dup3\n        /* \"#utility.yul\":2833:2839   */\n      dup3\n        /* \"#utility.yul\":2813:2846   */\n      tag_121\n      jump\t// in\n    tag_172:\n        /* \"#utility.yul\":2723:2852   */\n      swap2\n      swap1\n      pop\n      jump\t// out\n        /* \"#utility.yul\":2858:3166   */\n    tag_123:\n        /* \"#utility.yul\":2920:2924   */\n      0x00\n        /* \"#utility.yul\":3010:3028   */\n      0xffffffffffffffff\n        /* \"#utility.yul\":3002:3008   */\n      dup3\n        /* \"#utility.yul\":2999:3029   */\n      gt\n        /* \"#utility.yul\":2996:3052   */\n      iszero\n      tag_174\n      jumpi\n        /* \"#utility.yul\":3032:3050   */\n      tag_175\n      tag_120\n      jump\t// in\n    tag_175:\n        /* \"#utility.yul\":2996:3052   */\n    tag_174:\n        /* \"#utility.yul\":3070:3099   */\n      tag_176\n        /* \"#utility.yul\":3092:3098   */\n      dup3\n        /* \"#utility.yul\":3070:3099   */\n      tag_111\n      jump\t// in\n    tag_176:\n        /* \"#utility.yul\":3062:3099   */\n      swap1\n      pop\n        /* \"#utility.yul\":3154:3158   */\n      0x20\n        /* \"#utility.yul\":3148:3152   */\n      dup2\n        /* \"#utility.yul\":3144:3159   */\n      add\n        /* \"#utility.yul\":3136:3159   */\n      swap1\n      pop\n        /* \"#utility.yul\":2858:3166   */\n      swap2\n      swap1\n      pop\n      jump\t// out\n        /* \"#utility.yul\":3172:3320   */\n    tag_124:\n        /* \"#utility.yul\":3270:3276   */\n      dup3\n        /* \"#utility.yul\":3265:3268   */\n      dup2\n        /* \"#utility.yul\":3260:3263   */\n      dup4\n        /* \"#utility.yul\":3247:3277   */\n      calldatacopy\n        /* \"#utility.yul\":3311:3312   */\n      0x00\n        /* \"#utility.yul\":3302:3308   */\n      dup4\n        /* \"#utility.yul\":3297:3300   */\n      dup4\n        /* \"#utility.yul\":3293:3309   */\n      add\n        /* \"#utility.yul\":3286:3313   */\n      mstore\n        /* \"#utility.yul\":3172:3320   */\n      pop\n      pop\n      pop\n      jump\t// out\n        /* \"#utility.yul\":3326:3751   */\n    tag_125:\n        /* \"#utility.yul\":3404:3409   */\n      0x00\n        /* \"#utility.yul\":3429:3495   */\n      tag_179\n        /* \"#utility.yul\":3445:3494   */\n      tag_180\n        /* \"#utility.yul\":3487:3493   */\n      dup5\n        /* \"#utility.yul\":3445:3494   */\n      tag_123\n      jump\t// in\n    tag_180:\n        /* \"#utility.yul\":3429:3495   */\n      tag_122\n      jump\t// in\n    tag_179:\n        /* \"#utility.yul\":3420:3495   */\n      swap1\n      pop\n        /* \"#utility.yul\":3518:3524   */\n      dup3\n        /* \"#utility.yul\":3511:3516   */\n      dup2\n        /* \"#utility.yul\":3504:3525   */\n      mstore\n        /* \"#utility.yul\":3556:3560   */\n      0x20\n        /* \"#utility.yul\":3549:3554   */\n      dup2\n        /* \"#utility.yul\":3545:3561   */\n      add\n        /* \"#utility.yul\":3594:3597   */\n      dup5\n        /* \"#utility.yul\":3585:3591   */\n      dup5\n        /* \"#utility.yul\":3580:3583   */\n      dup5\n        /* \"#utility.yul\":3576:3592   */\n      add\n        /* \"#utility.yul\":3573:3598   */\n      gt\n        /* \"#utility.yul\":3570:3682   */\n      iszero\n      tag_181\n      jumpi\n        /* \"#utility.yul\":3601:3680   */\n      tag_182\n      tag_119\n      jump\t// in\n    tag_182:\n        /* \"#utility.yul\":3570:3682   */\n    tag_181:\n        /* \"#utility.yul\":3691:3745   */\n      tag_183\n        /* \"#utility.yul\":3738:3744   */\n      dup5\n        /* \"#utility.yul\":3733:3736   */\n      dup3\n        /* \"#utility.yul\":3728:3731   */\n      dup6\n        /* \"#utility.yul\":3691:3745   */\n      tag_124\n      jump\t// in\n    tag_183:\n        /* \"#utility.yul\":3410:3751   */\n      pop\n        /* \"#utility.yul\":3326:3751   */\n      swap4\n      swap3\n      pop\n      pop\n      pop\n      jump\t// out\n        /* \"#utility.yul\":3771:4111   */\n    tag_126:\n        /* \"#utility.yul\":3827:3832   */\n      0x00\n        /* \"#utility.yul\":3876:3879   */\n      dup3\n        /* \"#utility.yul\":3869:3873   */\n      0x1f\n        /* \"#utility.yul\":3861:3867   */\n      dup4\n        /* \"#utility.yul\":3857:3874   */\n      add\n        /* \"#utility.yul\":3853:3880   */\n      slt\n        /* \"#utility.yul\":3843:3965   */\n      tag_185\n      jumpi\n        /* \"#utility.yul\":3884:3963   */\n      tag_186\n      tag_118\n      jump\t// in\n    tag_186:\n        /* \"#utility.yul\":3843:3965   */\n    tag_185:\n        /* \"#utility.yul\":4001:4007   */\n      dup2\n        /* \"#utility.yul\":3988:4008   */\n      calldataload\n        /* \"#utility.yul\":4026:4105   */\n      tag_187\n        /* \"#utility.yul\":4101:4104   */\n      dup5\n        /* \"#utility.yul\":4093:4099   */\n      dup3\n        /* \"#utility.yul\":4086:4090   */\n      0x20\n        /* \"#utility.yul\":4078:4084   */\n      dup7\n        /* \"#utility.yul\":4074:4091   */\n      add\n        /* \"#utility.yul\":4026:4105   */\n      tag_125\n      jump\t// in\n    tag_187:\n        /* \"#utility.yul\":4017:4105   */\n      swap2\n      pop\n        /* \"#utility.yul\":3833:4111   */\n      pop\n        /* \"#utility.yul\":3771:4111   */\n      swap3\n      swap2\n      pop\n      pop\n      jump\t// out\n        /* \"#utility.yul\":4117:4951   */\n    tag_30:\n        /* \"#utility.yul\":4205:4211   */\n      0x00\n        /* \"#utility.yul\":4213:4219   */\n      dup1\n        /* \"#utility.yul\":4262:4264   */\n      0x40\n        /* \"#utility.yul\":4250:4259   */\n      dup4\n        /* \"#utility.yul\":4241:4248   */\n      dup6\n        /* \"#utility.yul\":4237:4260   */\n      sub\n        /* \"#utility.yul\":4233:4265   */\n      slt\n        /* \"#utility.yul\":4230:4349   */\n      iszero\n      tag_189\n      jumpi\n        /* \"#utility.yul\":4268:4347   */\n      tag_190\n      tag_116\n      jump\t// in\n    tag_190:\n        /* \"#utility.yul\":4230:4349   */\n    tag_189:\n        /* \"#utility.yul\":4416:4417   */\n      0x00\n        /* \"#utility.yul\":4405:4414   */\n      dup4\n        /* \"#utility.yul\":4401:4418   */\n      add\n        /* \"#utility.yul\":4388:4419   */\n      calldataload\n        /* \"#utility.yul\":4446:4464   */\n      0xffffffffffffffff\n        /* \"#utility.yul\":4438:4444   */\n      dup2\n        /* \"#utility.yul\":4435:4465   */\n      gt\n        /* \"#utility.yul\":4432:4549   */\n      iszero\n      tag_191\n      jumpi\n        /* \"#utility.yul\":4468:4547   */\n      tag_192\n      tag_117\n      jump\t// in\n    tag_192:\n        /* \"#utility.yul\":4432:4549   */\n    tag_191:\n        /* \"#utility.yul\":4573:4636   */\n      tag_193\n        /* \"#utility.yul\":4628:4635   */\n      dup6\n        /* \"#utility.yul\":4619:4625   */\n      dup3\n        /* \"#utility.yul\":4608:4617   */\n      dup7\n        /* \"#utility.yul\":4604:4626   */\n      add\n        /* \"#utility.yul\":4573:4636   */\n      tag_126\n      jump\t// in\n    tag_193:\n        /* \"#utility.yul\":4563:4636   */\n      swap3\n      pop\n        /* \"#utility.yul\":4359:4646   */\n      pop\n        /* \"#utility.yul\":4713:4715   */\n      0x20\n        /* \"#utility.yul\":4702:4711   */\n      dup4\n        /* \"#utility.yul\":4698:4716   */\n      add\n        /* \"#utility.yul\":4685:4717   */\n      calldataload\n        /* \"#utility.yul\":4744:4762   */\n      0xffffffffffffffff\n        /* \"#utility.yul\":4736:4742   */\n      dup2\n        /* \"#utility.yul\":4733:4763   */\n      gt\n        /* \"#utility.yul\":4730:4847   */\n      iszero\n      tag_194\n      jumpi\n        /* \"#utility.yul\":4766:4845   */\n      tag_195\n      tag_117\n      jump\t// in\n    tag_195:\n        /* \"#utility.yul\":4730:4847   */\n    tag_194:\n        /* \"#utility.yul\":4871:4934   */\n      tag_196\n        /* \"#utility.yul\":4926:4933   */\n      dup6\n        /* \"#utility.yul\":4917:4923   */\n      dup3\n        /* \"#utility.yul\":4906:4915   */\n      dup7\n        /* \"#utility.yul\":4902:4924   */\n      add\n        /* \"#utility.yul\":4871:4934   */\n      tag_126\n      jump\t// in\n    tag_196:\n        /* \"#utility.yul\":4861:4934   */\n      swap2\n      pop\n        /* \"#utility.yul\":4656:4944   */\n      pop\n        /* \"#utility.yul\":4117:4951   */\n      swap3\n      pop\n      swap3\n      swap1\n      pop\n      jump\t// out\n        /* \"#utility.yul\":4957:6207   */\n    tag_35:\n        /* \"#utility.yul\":5298:5302   */\n      0x00\n        /* \"#utility.yul\":5336:5339   */\n      0xe0\n        /* \"#utility.yul\":5325:5334   */\n      dup3\n        /* \"#utility.yul\":5321:5340   */\n      add\n        /* \"#utility.yul\":5313:5340   */\n      swap1\n      pop\n        /* \"#utility.yul\":5386:5395   */\n      dup2\n        /* \"#utility.yul\":5380:5384   */\n      dup2\n        /* \"#utility.yul\":5376:5396   */\n      sub\n        /* \"#utility.yul\":5372:5373   */\n      0x00\n        /* \"#utility.yul\":5361:5370   */\n      dup4\n        /* \"#utility.yul\":5357:5374   */\n      add\n        /* \"#utility.yul\":5350:5397   */\n      mstore\n        /* \"#utility.yul\":5414:5492   */\n      tag_198\n        /* \"#utility.yul\":5487:5491   */\n      dup2\n        /* \"#utility.yul\":5478:5484   */\n      dup11\n        /* \"#utility.yul\":5414:5492   */\n      tag_112\n      jump\t// in\n    tag_198:\n        /* \"#utility.yul\":5406:5492   */\n      swap1\n      pop\n        /* \"#utility.yul\":5502:5574   */\n      tag_199\n        /* \"#utility.yul\":5570:5572   */\n      0x20\n        /* \"#utility.yul\":5559:5568   */\n      dup4\n        /* \"#utility.yul\":5555:5573   */\n      add\n        /* \"#utility.yul\":5546:5552   */\n      dup10\n        /* \"#utility.yul\":5502:5574   */\n      tag_114\n      jump\t// in\n    tag_199:\n        /* \"#utility.yul\":5621:5630   */\n      dup2\n        /* \"#utility.yul\":5615:5619   */\n      dup2\n        /* \"#utility.yul\":5611:5631   */\n      sub\n        /* \"#utility.yul\":5606:5608   */\n      0x40\n        /* \"#utility.yul\":5595:5604   */\n      dup4\n        /* \"#utility.yul\":5591:5609   */\n      add\n        /* \"#utility.yul\":5584:5632   */\n      mstore\n        /* \"#utility.yul\":5649:5727   */\n      tag_200\n        /* \"#utility.yul\":5722:5726   */\n      dup2\n        /* \"#utility.yul\":5713:5719   */\n      dup9\n        /* \"#utility.yul\":5649:5727   */\n      tag_112\n      jump\t// in\n    tag_200:\n        /* \"#utility.yul\":5641:5727   */\n      swap1\n      pop\n        /* \"#utility.yul\":5774:5783   */\n      dup2\n        /* \"#utility.yul\":5768:5772   */\n      dup2\n        /* \"#utility.yul\":5764:5784   */\n      sub\n        /* \"#utility.yul\":5759:5761   */\n      0x60\n        /* \"#utility.yul\":5748:5757   */\n      dup4\n        /* \"#utility.yul\":5744:5762   */\n      add\n        /* \"#utility.yul\":5737:5785   */\n      mstore\n        /* \"#utility.yul\":5802:5880   */\n      tag_201\n        /* \"#utility.yul\":5875:5879   */\n      dup2\n        /* \"#utility.yul\":5866:5872   */\n      dup8\n        /* \"#utility.yul\":5802:5880   */\n      tag_112\n      jump\t// in\n    tag_201:\n        /* \"#utility.yul\":5794:5880   */\n      swap1\n      pop\n        /* \"#utility.yul\":5890:5963   */\n      tag_202\n        /* \"#utility.yul\":5958:5961   */\n      0x80\n        /* \"#utility.yul\":5947:5956   */\n      dup4\n        /* \"#utility.yul\":5943:5962   */\n      add\n        /* \"#utility.yul\":5934:5940   */\n      dup7\n        /* \"#utility.yul\":5890:5963   */\n      tag_114\n      jump\t// in\n    tag_202:\n        /* \"#utility.yul\":5973:6046   */\n      tag_203\n        /* \"#utility.yul\":6041:6044   */\n      0xa0\n        /* \"#utility.yul\":6030:6039   */\n      dup4\n        /* \"#utility.yul\":6026:6045   */\n      add\n        /* \"#utility.yul\":6017:6023   */\n      dup6\n        /* \"#utility.yul\":5973:6046   */\n      tag_114\n      jump\t// in\n    tag_203:\n        /* \"#utility.yul\":6094:6103   */\n      dup2\n        /* \"#utility.yul\":6088:6092   */\n      dup2\n        /* \"#utility.yul\":6084:6104   */\n      sub\n        /* \"#utility.yul\":6078:6081   */\n      0xc0\n        /* \"#utility.yul\":6067:6076   */\n      dup4\n        /* \"#utility.yul\":6063:6082   */\n      add\n        /* \"#utility.yul\":6056:6105   */\n      mstore\n        /* \"#utility.yul\":6122:6200   */\n      tag_204\n        /* \"#utility.yul\":6195:6199   */\n      dup2\n        /* \"#utility.yul\":6186:6192   */\n      dup5\n        /* \"#utility.yul\":6122:6200   */\n      tag_112\n      jump\t// in\n    tag_204:\n        /* \"#utility.yul\":6114:6200   */\n      swap1\n      pop\n        /* \"#utility.yul\":4957:6207   */\n      swap9\n      swap8\n      pop\n      pop\n      pop\n      pop\n      pop\n      pop\n      pop\n      pop\n      jump\t// out\n        /* \"#utility.yul\":6213:6727   */\n    tag_48:\n        /* \"#utility.yul\":6374:6378   */\n      0x00\n        /* \"#utility.yul\":6412:6414   */\n      0x40\n        /* \"#utility.yul\":6401:6410   */\n      dup3\n        /* \"#utility.yul\":6397:6415   */\n      add\n        /* \"#utility.yul\":6389:6415   */\n      swap1\n      pop\n        /* \"#utility.yul\":6461:6470   */\n      dup2\n        /* \"#utility.yul\":6455:6459   */\n      dup2\n        /* \"#utility.yul\":6451:6471   */\n      sub\n        /* \"#utility.yul\":6447:6448   */\n      0x00\n        /* \"#utility.yul\":6436:6445   */\n      dup4\n        /* \"#utility.yul\":6432:6449   */\n      add\n        /* \"#utility.yul\":6425:6472   */\n      mstore\n        /* \"#utility.yul\":6489:6567   */\n      tag_206\n        /* \"#utility.yul\":6562:6566   */\n      dup2\n        /* \"#utility.yul\":6553:6559   */\n      dup6\n        /* \"#utility.yul\":6489:6567   */\n      tag_112\n      jump\t// in\n    tag_206:\n        /* \"#utility.yul\":6481:6567   */\n      swap1\n      pop\n        /* \"#utility.yul\":6614:6623   */\n      dup2\n        /* \"#utility.yul\":6608:6612   */\n      dup2\n        /* \"#utility.yul\":6604:6624   */\n      sub\n        /* \"#utility.yul\":6599:6601   */\n      0x20\n        /* \"#utility.yul\":6588:6597   */\n      dup4\n        /* \"#utility.yul\":6584:6602   */\n      add\n        /* \"#utility.yul\":6577:6625   */\n      mstore\n        /* \"#utility.yul\":6642:6720   */\n      tag_207\n        /* \"#utility.yul\":6715:6719   */\n      dup2\n        /* \"#utility.yul\":6706:6712   */\n      dup5\n        /* \"#utility.yul\":6642:6720   */\n      tag_112\n      jump\t// in\n    tag_207:\n        /* \"#utility.yul\":6634:6720   */\n      swap1\n      pop\n        /* \"#utility.yul\":6213:6727   */\n      swap4\n      swap3\n      pop\n      pop\n      pop\n      jump\t// out\n        /* \"#utility.yul\":6733:6913   */\n    tag_127:\n        /* \"#utility.yul\":6781:6858   */\n      0x4e487b7100000000000000000000000000000000000000000000000000000000\n        /* \"#utility.yul\":6778:6779   */\n      0x00\n        /* \"#utility.yul\":6771:6859   */\n      mstore\n        /* \"#utility.yul\":6878:6882   */\n      0x22\n        /* \"#utility.yul\":6875:6876   */\n      0x04\n        /* \"#utility.yul\":6868:6883   */\n      mstore\n        /* \"#utility.yul\":6902:6906   */\n      0x24\n        /* \"#utility.yul\":6899:6900   */\n      0x00\n        /* \"#utility.yul\":6892:6907   */\n      revert\n        /* \"#utility.yul\":6919:7239   */\n    tag_50:\n        /* \"#utility.yul\":6963:6969   */\n      0x00\n        /* \"#utility.yul\":7000:7001   */\n      0x02\n        /* \"#utility.yul\":6994:6998   */\n      dup3\n        /* \"#utility.yul\":6990:7002   */\n      div\n        /* \"#utility.yul\":6980:7002   */\n      swap1\n      pop\n        /* \"#utility.yul\":7047:7048   */\n      0x01\n        /* \"#utility.yul\":7041:7045   */\n      dup3\n        /* \"#utility.yul\":7037:7049   */\n      and\n        /* \"#utility.yul\":7068:7086   */\n      dup1\n        /* \"#utility.yul\":7058:7139   */\n      tag_210\n      jumpi\n        /* \"#utility.yul\":7124:7128   */\n      0x7f\n        /* \"#utility.yul\":7116:7122   */\n      dup3\n        /* \"#utility.yul\":7112:7129   */\n      and\n        /* \"#utility.yul\":7102:7129   */\n      swap2\n      pop\n        /* \"#utility.yul\":7058:7139   */\n    tag_210:\n        /* \"#utility.yul\":7186:7188   */\n      0x20\n        /* \"#utility.yul\":7178:7184   */\n      dup3\n        /* \"#utility.yul\":7175:7189   */\n      lt\n        /* \"#utility.yul\":7155:7173   */\n      dup2\n        /* \"#utility.yul\":7152:7190   */\n      sub\n        /* \"#utility.yul\":7149:7233   */\n      tag_211\n      jumpi\n        /* \"#utility.yul\":7205:7223   */\n      tag_212\n      tag_127\n      jump\t// in\n    tag_212:\n        /* \"#utility.yul\":7149:7233   */\n    tag_211:\n        /* \"#utility.yul\":6970:7239   */\n      pop\n        /* \"#utility.yul\":6919:7239   */\n      swap2\n      swap1\n      pop\n      jump\t// out\n        /* \"#utility.yul\":7245:7386   */\n    tag_128:\n        /* \"#utility.yul\":7294:7298   */\n      0x00\n        /* \"#utility.yul\":7317:7320   */\n      dup2\n        /* \"#utility.yul\":7309:7320   */\n      swap1\n      pop\n        /* \"#utility.yul\":7340:7343   */\n      dup2\n        /* \"#utility.yul\":7337:7338   */\n      0x00\n        /* \"#utility.yul\":7330:7344   */\n      mstore\n        /* \"#utility.yul\":7374:7378   */\n      0x20\n        /* \"#utility.yul\":7371:7372   */\n      0x00\n        /* \"#utility.yul\":7361:7379   */\n      keccak256\n        /* \"#utility.yul\":7353:7379   */\n      swap1\n      pop\n        /* \"#utility.yul\":7245:7386   */\n      swap2\n      swap1\n      pop\n      jump\t// out\n        /* \"#utility.yul\":7392:7485   */\n    tag_129:\n        /* \"#utility.yul\":7429:7435   */\n      0x00\n        /* \"#utility.yul\":7476:7478   */\n      0x20\n        /* \"#utility.yul\":7471:7473   */\n      0x1f\n        /* \"#utility.yul\":7464:7469   */\n      dup4\n        /* \"#utility.yul\":7460:7474   */\n      add\n        /* \"#utility.yul\":7456:7479   */\n      div\n        /* \"#utility.yul\":7446:7479   */\n      swap1\n      pop\n        /* \"#utility.yul\":7392:7485   */\n      swap2\n      swap1\n      pop\n      jump\t// out\n        /* \"#utility.yul\":7491:7598   */\n    tag_130:\n        /* \"#utility.yul\":7535:7543   */\n      0x00\n        /* \"#utility.yul\":7585:7590   */\n      dup3\n        /* \"#utility.yul\":7579:7583   */\n      dup3\n        /* \"#utility.yul\":7575:7591   */\n      shl\n        /* \"#utility.yul\":7554:7591   */\n      swap1\n      pop\n        /* \"#utility.yul\":7491:7598   */\n      swap3\n      swap2\n      pop\n      pop\n      jump\t// out\n        /* \"#utility.yul\":7604:7997   */\n    tag_131:\n        /* \"#utility.yul\":7673:7679   */\n      0x00\n        /* \"#utility.yul\":7723:7724   */\n      0x08\n        /* \"#utility.yul\":7711:7721   */\n      dup4\n        /* \"#utility.yul\":7707:7725   */\n      mul\n        /* \"#utility.yul\":7746:7843   */\n      tag_217\n        /* \"#utility.yul\":7776:7842   */\n      0xffffffffffffffffffffffffffffffffffffffffffffffffffffffffffffffff\n        /* \"#utility.yul\":7765:7774   */\n      dup3\n        /* \"#utility.yul\":7746:7843   */\n      tag_130\n      jump\t// in\n    tag_217:\n        /* \"#utility.yul\":7864:7903   */\n      tag_218\n        /* \"#utility.yul\":7894:7902   */\n      dup7\n        /* \"#utility.yul\":7883:7892   */\n      dup4\n        /* \"#utility.yul\":7864:7903   */\n      tag_130\n      jump\t// in\n    tag_218:\n        /* \"#utility.yul\":7852:7903   */\n      swap6\n      pop\n        /* \"#utility.yul\":7936:7940   */\n      dup1\n        /* \"#utility.yul\":7932:7941   */\n      not\n        /* \"#utility.yul\":7925:7930   */\n      dup5\n        /* \"#utility.yul\":7921:7942   */\n      and\n        /* \"#utility.yul\":7912:7942   */\n      swap4\n      pop\n        /* \"#utility.yul\":7985:7989   */\n      dup1\n        /* \"#utility.yul\":7975:7983   */\n      dup7\n        /* \"#utility.yul\":7971:7990   */\n      and\n        /* \"#utility.yul\":7964:7969   */\n      dup5\n        /* \"#utility.yul\":7961:7991   */\n      or\n        /* \"#utility.yul\":7951:7991   */\n      swap3\n      pop\n        /* \"#utility.yul\":7680:7997   */\n      pop\n      pop\n        /* \"#utility.yul\":7604:7997   */\n      swap4\n      swap3\n      pop\n      pop\n      pop\n      jump\t// out\n        /* \"#utility.yul\":8003:8063   */\n    tag_132:\n        /* \"#utility.yul\":8031:8034   */\n      0x00\n        /* \"#utility.yul\":8052:8057   */\n      dup2\n        /* \"#utility.yul\":8045:8057   */\n      swap1\n      pop\n        /* \"#utility.yul\":8003:8063   */\n      swap2\n      swap1\n      pop\n      jump\t// out\n        /* \"#utility.yul\":8069:8211   */\n    tag_133:\n        /* \"#utility.yul\":8119:8128   */\n      0x00\n        /* \"#utility.yul\":8152:8205   */\n      tag_221\n        /* \"#utility.yul\":8170:8204   */\n      tag_222\n        /* \"#utility.yul\":8179:8203   */\n      tag_223\n        /* \"#utility.yul\":8197:8202   */\n      dup5\n        /* \"#utility.yul\":8179:8203   */\n      tag_113\n      jump\t// in\n    tag_223:\n        /* \"#utility.yul\":8170:8204   */\n      tag_132\n      jump\t// in\n    tag_222:\n        /* \"#utility.yul\":8152:8205   */\n      tag_113\n      jump\t// in\n    tag_221:\n        /* \"#utility.yul\":8139:8205   */\n      swap1\n      pop\n        /* \"#utility.yul\":8069:8211   */\n      swap2\n      swap1\n      pop\n      jump\t// out\n        /* \"#utility.yul\":8217:8292   */\n    tag_134:\n        /* \"#utility.yul\":8260:8263   */\n      0x00\n        /* \"#utility.yul\":8281:8286   */\n      dup2\n        /* \"#utility.yul\":8274:8286   */\n      swap1\n      pop\n        /* \"#utility.yul\":8217:8292   */\n      swap2\n      swap1\n      pop\n      jump\t// out\n        /* \"#utility.yul\":8298:8567   */\n    tag_135:\n        /* \"#utility.yul\":8408:8447   */\n      tag_226\n        /* \"#utility.yul\":8439:8446   */\n      dup4\n        /* \"#utility.yul\":8408:8447   */\n      tag_133\n      jump\t// in\n    tag_226:\n        /* \"#utility.yul\":8469:8560   */\n      tag_227\n        /* \"#utility.yul\":8518:8559   */\n      tag_228\n        /* \"#utility.yul\":8542:8558   */\n      dup3\n        /* \"#utility.yul\":8518:8559   */\n      tag_134\n      jump\t// in\n    tag_228:\n        /* \"#utility.yul\":8510:8516   */\n      dup5\n        /* \"#utility.yul\":8503:8507   */\n      dup5\n        /* \"#utility.yul\":8497:8508   */\n      sload\n        /* \"#utility.yul\":8469:8560   */\n      tag_131\n      jump\t// in\n    tag_227:\n        /* \"#utility.yul\":8463:8467   */\n      dup3\n        /* \"#utility.yul\":8456:8561   */\n      sstore\n        /* \"#utility.yul\":8374:8567   */\n      pop\n        /* \"#utility.yul\":8298:8567   */\n      pop\n      pop\n      pop\n      jump\t// out\n        /* \"#utility.yul\":8573:8646   */\n    tag_136:\n        /* \"#utility.yul\":8618:8621   */\n      0x00\n        /* \"#utility.yul\":8573:8646   */\n      swap1\n      jump\t// out\n        /* \"#utility.yul\":8652:8841   */\n    tag_137:\n        /* \"#utility.yul\":8729:8761   */\n      tag_231\n      tag_136\n      jump\t// in\n    tag_231:\n        /* \"#utility.yul\":8770:8835   */\n      tag_232\n        /* \"#utility.yul\":8828:8834   */\n      dup2\n        /* \"#utility.yul\":8820:8826   */\n      dup5\n        /* \"#utility.yul\":8814:8818   */\n      dup5\n        /* \"#utility.yul\":8770:8835   */\n      tag_135\n      jump\t// in\n    tag_232:\n        /* \"#utility.yul\":8705:8841   */\n      pop\n        /* \"#utility.yul\":8652:8841   */\n      pop\n      pop\n      jump\t// out\n        /* \"#utility.yul\":8847:9033   */\n    tag_138:\n        /* \"#utility.yul\":8907:9027   */\n    tag_234:\n        /* \"#utility.yul\":8924:8927   */\n      dup2\n        /* \"#utility.yul\":8917:8922   */\n      dup2\n        /* \"#utility.yul\":8914:8928   */\n      lt\n        /* \"#utility.yul\":8907:9027   */\n      iszero\n      tag_236\n      jumpi\n        /* \"#utility.yul\":8978:9017   */\n      tag_237\n        /* \"#utility.yul\":9015:9016   */\n      0x00\n        /* \"#utility.yul\":9008:9013   */\n      dup3\n        /* \"#utility.yul\":8978:9017   */\n      tag_137\n      jump\t// in\n    tag_237:\n        /* \"#utility.yul\":8951:8952   */\n      0x01\n        /* \"#utility.yul\":8944:8949   */\n      dup2\n        /* \"#utility.yul\":8940:8953   */\n      add\n        /* \"#utility.yul\":8931:8953   */\n      swap1\n      pop\n        /* \"#utility.yul\":8907:9027   */\n      jump(tag_234)\n    tag_236:\n        /* \"#utility.yul\":8847:9033   */\n      pop\n      pop\n      jump\t// out\n        /* \"#utility.yul\":9039:9582   */\n    tag_139:\n        /* \"#utility.yul\":9140:9142   */\n      0x1f\n        /* \"#utility.yul\":9135:9138   */\n      dup3\n        /* \"#utility.yul\":9132:9143   */\n      gt\n        /* \"#utility.yul\":9129:9575   */\n      iszero\n      tag_239\n      jumpi\n        /* \"#utility.yul\":9174:9212   */\n      tag_240\n        /* \"#utility.yul\":9206:9211   */\n      dup2\n        /* \"#utility.yul\":9174:9212   */\n      tag_128\n      jump\t// in\n    tag_240:\n        /* \"#utility.yul\":9258:9287   */\n      tag_241\n        /* \"#utility.yul\":9276:9286   */\n      dup5\n        /* \"#utility.yul\":9258:9287   */\n      tag_129\n      jump\t// in\n    tag_241:\n        /* \"#utility.yul\":9248:9256   */\n      dup2\n        /* \"#utility.yul\":9244:9288   */\n      add\n        /* \"#utility.yul\":9441:9443   */\n      0x20\n        /* \"#utility.yul\":9429:9439   */\n      dup6\n        /* \"#utility.yul\":9426:9444   */\n      lt\n        /* \"#utility.yul\":9423:9472   */\n      iszero\n      tag_242\n      jumpi\n        /* \"#utility.yul\":9462:9470   */\n      dup2\n        /* \"#utility.yul\":9447:9470   */\n      swap1\n      pop\n        /* \"#utility.yul\":9423:9472   */\n    tag_242:\n        /* \"#utility.yul\":9485:9565   */\n      tag_243\n        /* \"#utility.yul\":9541:9563   */\n      tag_244\n        /* \"#utility.yul\":9559:9562   */\n      dup6\n        /* \"#utility.yul\":9541:9563   */\n      tag_129\n      jump\t// in\n    tag_244:\n        /* \"#utility.yul\":9531:9539   */\n      dup4\n        /* \"#utility.yul\":9527:9564   */\n      add\n        /* \"#utility.yul\":9514:9525   */\n      dup3\n        /* \"#utility.yul\":9485:9565   */\n      tag_138\n      jump\t// in\n    tag_243:\n        /* \"#utility.yul\":9144:9575   */\n      pop\n      pop\n        /* \"#utility.yul\":9129:9575   */\n    tag_239:\n        /* \"#utility.yul\":9039:9582   */\n      pop\n      pop\n      pop\n      jump\t// out\n        /* \"#utility.yul\":9588:9705   */\n    tag_140:\n        /* \"#utility.yul\":9642:9650   */\n      0x00\n        /* \"#utility.yul\":9692:9697   */\n      dup3\n        /* \"#utility.yul\":9686:9690   */\n      dup3\n        /* \"#utility.yul\":9682:9698   */\n      shr\n        /* \"#utility.yul\":9661:9698   */\n      swap1\n      pop\n        /* \"#utility.yul\":9588:9705   */\n      swap3\n      swap2\n      pop\n      pop\n      jump\t// out\n        /* \"#utility.yul\":9711:9880   */\n    tag_141:\n        /* \"#utility.yul\":9755:9761   */\n      0x00\n        /* \"#utility.yul\":9788:9839   */\n      tag_247\n        /* \"#utility.yul\":9836:9837   */\n      0x00\n        /* \"#utility.yul\":9832:9838   */\n      not\n        /* \"#utility.yul\":9824:9829   */\n      dup5\n        /* \"#utility.yul\":9821:9822   */\n      0x08\n        /* \"#utility.yul\":9817:9830   */\n      mul\n        /* \"#utility.yul\":9788:9839   */\n      tag_140\n      jump\t// in\n    tag_247:\n        /* \"#utility.yul\":9784:9840   */\n      not\n        /* \"#utility.yul\":9869:9873   */\n      dup1\n        /* \"#utility.yul\":9863:9867   */\n      dup4\n        /* \"#utility.yul\":9859:9874   */\n      and\n        /* \"#utility.yul\":9849:9874   */\n      swap2\n      pop\n        /* \"#utility.yul\":9762:9880   */\n      pop\n        /* \"#utility.yul\":9711:9880   */\n      swap3\n      swap2\n      pop\n      pop\n      jump\t// out\n        /* \"#utility.yul\":9885:10180   */\n    tag_142:\n        /* \"#utility.yul\":9961:9965   */\n      0x00\n        /* \"#utility.yul\":10107:10136   */\n      tag_249\n        /* \"#utility.yul\":10132:10135   */\n      dup4\n        /* \"#utility.yul\":10126:10130   */\n      dup4\n        /* \"#utility.yul\":10107:10136   */\n      tag_141\n      jump\t// in\n    tag_249:\n        /* \"#utility.yul\":10099:10136   */\n      swap2\n      pop\n        /* \"#utility.yul\":10169:10172   */\n      dup3\n        /* \"#utility.yul\":10166:10167   */\n      0x02\n        /* \"#utility.yul\":10162:10173   */\n      mul\n        /* \"#utility.yul\":10156:10160   */\n      dup3\n        /* \"#utility.yul\":10153:10174   */\n      or\n        /* \"#utility.yul\":10145:10174   */\n      swap1\n      pop\n        /* \"#utility.yul\":9885:10180   */\n      swap3\n      swap2\n      pop\n      pop\n      jump\t// out\n        /* \"#utility.yul\":10185:11580   */\n    tag_63:\n        /* \"#utility.yul\":10302:10339   */\n      tag_251\n        /* \"#utility.yul\":10335:10338   */\n      dup3\n        /* \"#utility.yul\":10302:10339   */\n      tag_108\n      jump\t// in\n    tag_251:\n        /* \"#utility.yul\":10404:10422   */\n      0xffffffffffffffff\n        /* \"#utility.yul\":10396:10402   */\n      dup2\n        /* \"#utility.yul\":10393:10423   */\n      gt\n        /* \"#utility.yul\":10390:10446   */\n      iszero\n      tag_252\n      jumpi\n        /* \"#utility.yul\":10426:10444   */\n      tag_253\n      tag_120\n      jump\t// in\n    tag_253:\n        /* \"#utility.yul\":10390:10446   */\n    tag_252:\n        /* \"#utility.yul\":10470:10508   */\n      tag_254\n        /* \"#utility.yul\":10502:10506   */\n      dup3\n        /* \"#utility.yul\":10496:10507   */\n      sload\n        /* \"#utility.yul\":10470:10508   */\n      tag_50\n      jump\t// in\n    tag_254:\n        /* \"#utility.yul\":10555:10622   */\n      tag_255\n        /* \"#utility.yul\":10615:10621   */\n      dup3\n        /* \"#utility.yul\":10607:10613   */\n      dup3\n        /* \"#utility.yul\":10601:10605   */\n      dup6\n        /* \"#utility.yul\":10555:10622   */\n      tag_139\n      jump\t// in\n    tag_255:\n        /* \"#utility.yul\":10649:10650   */\n      0x00\n        /* \"#utility.yul\":10673:10677   */\n      0x20\n        /* \"#utility.yul\":10660:10677   */\n      swap1\n      pop\n        /* \"#utility.yul\":10705:10707   */\n      0x1f\n        /* \"#utility.yul\":10697:10703   */\n      dup4\n        /* \"#utility.yul\":10694:10708   */\n      gt\n        /* \"#utility.yul\":10722:10723   */\n      0x01\n        /* \"#utility.yul\":10717:11335   */\n      dup2\n      eq\n      tag_257\n      jumpi\n        /* \"#utility.yul\":11379:11380   */\n      0x00\n        /* \"#utility.yul\":11396:11402   */\n      dup5\n        /* \"#utility.yul\":11393:11470   */\n      iszero\n      tag_258\n      jumpi\n        /* \"#utility.yul\":11445:11454   */\n      dup3\n        /* \"#utility.yul\":11440:11443   */\n      dup8\n        /* \"#utility.yul\":11436:11455   */\n      add\n        /* \"#utility.yul\":11430:11456   */\n      mload\n        /* \"#utility.yul\":11421:11456   */\n      swap1\n      pop\n        /* \"#utility.yul\":11393:11470   */\n    tag_258:\n        /* \"#utility.yul\":11496:11563   */\n      tag_259\n        /* \"#utility.yul\":11556:11562   */\n      dup6\n        /* \"#utility.yul\":11549:11554   */\n      dup3\n        /* \"#utility.yul\":11496:11563   */\n      tag_142\n      jump\t// in\n    tag_259:\n        /* \"#utility.yul\":11490:11494   */\n      dup7\n        /* \"#utility.yul\":11483:11564   */\n      sstore\n        /* \"#utility.yul\":11352:11574   */\n      pop\n        /* \"#utility.yul\":10687:11574   */\n      jump(tag_256)\n        /* \"#utility.yul\":10717:11335   */\n    tag_257:\n        /* \"#utility.yul\":10769:10773   */\n      0x1f\n        /* \"#utility.yul\":10765:10774   */\n      not\n        /* \"#utility.yul\":10757:10763   */\n      dup5\n        /* \"#utility.yul\":10753:10775   */\n      and\n        /* \"#utility.yul\":10803:10840   */\n      tag_260\n        /* \"#utility.yul\":10835:10839   */\n      dup7\n        /* \"#utility.yul\":10803:10840   */\n      tag_128\n      jump\t// in\n    tag_260:\n        /* \"#utility.yul\":10862:10863   */\n      0x00\n        /* \"#utility.yul\":10876:11084   */\n    tag_261:\n        /* \"#utility.yul\":10890:10897   */\n      dup3\n        /* \"#utility.yul\":10887:10888   */\n      dup2\n        /* \"#utility.yul\":10884:10898   */\n      lt\n        /* \"#utility.yul\":10876:11084   */\n      iszero\n      tag_263\n      jumpi\n        /* \"#utility.yul\":10969:10978   */\n      dup5\n        /* \"#utility.yul\":10964:10967   */\n      dup10\n        /* \"#utility.yul\":10960:10979   */\n      add\n        /* \"#utility.yul\":10954:10980   */\n      mload\n        /* \"#utility.yul\":10946:10952   */\n      dup3\n        /* \"#utility.yul\":10939:10981   */\n      sstore\n        /* \"#utility.yul\":11020:11021   */\n      0x01\n        /* \"#utility.yul\":11012:11018   */\n      dup3\n        /* \"#utility.yul\":11008:11022   */\n      add\n        /* \"#utility.yul\":10998:11022   */\n      swap2\n      pop\n        /* \"#utility.yul\":11067:11069   */\n      0x20\n        /* \"#utility.yul\":11056:11065   */\n      dup6\n        /* \"#utility.yul\":11052:11070   */\n      add\n        /* \"#utility.yul\":11039:11070   */\n      swap5\n      pop\n        /* \"#utility.yul\":10913:10917   */\n      0x20\n        /* \"#utility.yul\":10910:10911   */\n      dup2\n        /* \"#utility.yul\":10906:10918   */\n      add\n        /* \"#utility.yul\":10901:10918   */\n      swap1\n      pop\n        /* \"#utility.yul\":10876:11084   */\n      jump(tag_261)\n    tag_263:\n        /* \"#utility.yul\":11112:11118   */\n      dup7\n        /* \"#utility.yul\":11103:11110   */\n      dup4\n        /* \"#utility.yul\":11100:11119   */\n      lt\n        /* \"#utility.yul\":11097:11276   */\n      iszero\n      tag_264\n      jumpi\n        /* \"#utility.yul\":11170:11179   */\n      dup5\n        /* \"#utility.yul\":11165:11168   */\n      dup10\n        /* \"#utility.yul\":11161:11180   */\n      add\n        /* \"#utility.yul\":11155:11181   */\n      mload\n        /* \"#utility.yul\":11213:11261   */\n      tag_265\n        /* \"#utility.yul\":11255:11259   */\n      0x1f\n        /* \"#utility.yul\":11247:11253   */\n      dup10\n        /* \"#utility.yul\":11243:11260   */\n      and\n        /* \"#utility.yul\":11232:11241   */\n      dup3\n        /* \"#utility.yul\":11213:11261   */\n      tag_141\n      jump\t// in\n    tag_265:\n        /* \"#utility.yul\":11205:11211   */\n      dup4\n        /* \"#utility.yul\":11198:11262   */\n      sstore\n        /* \"#utility.yul\":11120:11276   */\n      pop\n        /* \"#utility.yul\":11097:11276   */\n    tag_264:\n        /* \"#utility.yul\":11322:11323   */\n      0x01\n        /* \"#utility.yul\":11318:11319   */\n      0x02\n        /* \"#utility.yul\":11310:11316   */\n      dup9\n        /* \"#utility.yul\":11306:11320   */\n      mul\n        /* \"#utility.yul\":11302:11324   */\n      add\n        /* \"#utility.yul\":11296:11300   */\n      dup9\n        /* \"#utility.yul\":11289:11325   */\n      sstore\n        /* \"#utility.yul\":10724:11335   */\n      pop\n      pop\n      pop\n        /* \"#utility.yul\":10687:11574   */\n    tag_256:\n      pop\n        /* \"#utility.yul\":10277:11580   */\n      pop\n      pop\n      pop\n        /* \"#utility.yul\":10185:11580   */\n      pop\n      pop\n      jump\t// out\n\n    auxdata: 0xa2646970667358221220a5833669205728b57720f457d0752781988ec8be0fd6e6e1d60dc866444155e464736f6c634300081a0033\n}\n",
				"bytecode": {
					"linkReferences": {},
					"object": "608060405234801561000f575f80fd5b506040516113fa3803806113fa83398181016040528101906100319190610225565b86600590816100409190610536565b5085600681905550610058858561008260201b60201c565b82600290816100679190610536565b50816003819055508060048190555050505050505050610605565b815f90816100909190610536565b5080600190816100a09190610536565b505050565b5f604051905090565b5f80fd5b5f80fd5b5f80fd5b5f80fd5b5f601f19601f8301169050919050565b7f4e487b71000000000000000000000000000000000000000000000000000000005f52604160045260245ffd5b610104826100be565b810181811067ffffffffffffffff82111715610123576101226100ce565b5b80604052505050565b5f6101356100a5565b905061014182826100fb565b919050565b5f67ffffffffffffffff8211156101605761015f6100ce565b5b610169826100be565b9050602081019050919050565b8281835e5f83830152505050565b5f61019661019184610146565b61012c565b9050828152602081018484840111156101b2576101b16100ba565b5b6101bd848285610176565b509392505050565b5f82601f8301126101d9576101d86100b6565b5b81516101e9848260208601610184565b91505092915050565b5f819050919050565b610204816101f2565b811461020e575f80fd5b50565b5f8151905061021f816101fb565b92915050565b5f805f805f805f60e0888a0312156102405761023f6100ae565b5b5f88015167ffffffffffffffff81111561025d5761025c6100b2565b5b6102698a828b016101c5565b975050602061027a8a828b01610211565b965050604088015167ffffffffffffffff81111561029b5761029a6100b2565b5b6102a78a828b016101c5565b955050606088015167ffffffffffffffff8111156102c8576102c76100b2565b5b6102d48a828b016101c5565b945050608088015167ffffffffffffffff8111156102f5576102f46100b2565b5b6103018a828b016101c5565b93505060a06103128a828b01610211565b92505060c06103238a828b01610211565b91505092959891949750929550565b5f81519050919050565b7f4e487b71000000000000000000000000000000000000000000000000000000005f52602260045260245ffd5b5f600282049050600182168061038057607f821691505b6020821081036103935761039261033c565b5b50919050565b5f819050815f5260205f209050919050565b5f6020601f8301049050919050565b5f82821b905092915050565b5f600883026103f57fffffffffffffffffffffffffffffffffffffffffffffffffffffffffffffffff826103ba565b6103ff86836103ba565b95508019841693508086168417925050509392505050565b5f819050919050565b5f61043a610435610430846101f2565b610417565b6101f2565b9050919050565b5f819050919050565b61045383610420565b61046761045f82610441565b8484546103c6565b825550505050565b5f90565b61047b61046f565b61048681848461044a565b505050565b5b818110156104a95761049e5f82610473565b60018101905061048c565b5050565b601f8211156104ee576104bf81610399565b6104c8846103ab565b810160208510156104d7578190505b6104eb6104e3856103ab565b83018261048b565b50505b505050565b5f82821c905092915050565b5f61050e5f19846008026104f3565b1980831691505092915050565b5f61052683836104ff565b9150826002028217905092915050565b61053f82610332565b67ffffffffffffffff811115610558576105576100ce565b5b6105628254610369565b61056d8282856104ad565b5f60209050601f83116001811461059e575f841561058c578287015190505b610596858261051b565b8655506105fd565b601f1984166105ac86610399565b5f5b828110156105d3578489015182556001820191506020850194506020810190506105ae565b868310156105f057848901516105ec601f8916826104ff565b8355505b6001600288020188555050505b505050505050565b610de8806106125f395ff3fe608060405234801561000f575f80fd5b506004361061009c575f3560e01c80639bbb62aa116100645780639bbb62aa14610134578063b508ba3114610158578063b8ce08ea14610176578063b975abb314610194578063df404d5c146101b25761009c565b8063176ee95f146100a05780634ed5a232146100be5780636c08283f146100dc5780636ef9a278146100fa578063735f5aec14610118575b5f80fd5b6100a86101d1565b6040516100b59190610827565b60405180910390f35b6100c661025d565b6040516100d3919061085f565b60405180910390f35b6100e4610263565b6040516100f19190610827565b60405180910390f35b6101026102f3565b60405161010f919061085f565b60405180910390f35b610132600480360381019061012d91906109b5565b6102f9565b005b61013c61031c565b60405161014f9796959493929190610a2b565b60405180910390f35b610160610575565b60405161016d9190610827565b60405180910390f35b61017e610601565b60405161018b919061085f565b60405180910390f35b61019c61060a565b6040516101a99190610827565b60405180910390f35b6101ba610695565b6040516101c8929190610ab4565b60405180910390f35b600180546101de90610b16565b80601f016020809104026020016040519081016040528092919081815260200182805461020a90610b16565b80156102555780601f1061022c57610100808354040283529160200191610255565b820191905f5260205f20905b81548152906001019060200180831161023857829003601f168201915b505050505081565b60045481565b60606005805461027290610b16565b80601f016020809104026020016040519081016040528092919081815260200182805461029e90610b16565b80156102e95780601f106102c0576101008083540402835291602001916102e9565b820191905f5260205f20905b8154815290600101906020018083116102cc57829003601f168201915b5050505050905090565b60035481565b815f90816103079190610ce3565b5080600190816103179190610ce3565b505050565b60605f6060805f80606060026003545f6001600454600654600586805461034290610b16565b80601f016020809104026020016040519081016040528092919081815260200182805461036e90610b16565b80156103b95780601f10610390576101008083540402835291602001916103b9565b820191905f5260205f20905b81548152906001019060200180831161039c57829003601f168201915b505050505096508480546103cc90610b16565b80601f01602080910402602001604051908101604052809291908181526020018280546103f890610b16565b80156104435780601f1061041a57610100808354040283529160200191610443565b820191905f5260205f20905b81548152906001019060200180831161042657829003601f168201915b5050505050945083805461045690610b16565b80601f016020809104026020016040519081016040528092919081815260200182805461048290610b16565b80156104cd5780601f106104a4576101008083540402835291602001916104cd565b820191905f5260205f20905b8154815290600101906020018083116104b057829003601f168201915b505050505093508080546104e090610b16565b80601f016020809104026020016040519081016040528092919081815260200182805461050c90610b16565b80156105575780601f1061052e57610100808354040283529160200191610557565b820191905f5260205f20905b81548152906001019060200180831161053a57829003601f168201915b50505050509050965096509650965096509650965090919293949596565b6002805461058290610b16565b80601f01602080910402602001604051908101604052809291908181526020018280546105ae90610b16565b80156105f95780601f106105d0576101008083540402835291602001916105f9565b820191905f5260205f20905b8154815290600101906020018083116105dc57829003601f168201915b505050505081565b5f600654905090565b5f805461061690610b16565b80601f016020809104026020016040519081016040528092919081815260200182805461064290610b16565b801561068d5780601f106106645761010080835404028352916020019161068d565b820191905f5260205f20905b81548152906001019060200180831161067057829003601f168201915b505050505081565b6060805f60018180546106a790610b16565b80601f01602080910402602001604051908101604052809291908181526020018280546106d390610b16565b801561071e5780601f106106f55761010080835404028352916020019161071e565b820191905f5260205f20905b81548152906001019060200180831161070157829003601f168201915b5050505050915080805461073190610b16565b80601f016020809104026020016040519081016040528092919081815260200182805461075d90610b16565b80156107a85780601f1061077f576101008083540402835291602001916107a8565b820191905f5260205f20905b81548152906001019060200180831161078b57829003601f168201915b50505050509050915091509091565b5f81519050919050565b5f82825260208201905092915050565b8281835e5f83830152505050565b5f601f19601f8301169050919050565b5f6107f9826107b7565b61080381856107c1565b93506108138185602086016107d1565b61081c816107df565b840191505092915050565b5f6020820190508181035f83015261083f81846107ef565b905092915050565b5f819050919050565b61085981610847565b82525050565b5f6020820190506108725f830184610850565b92915050565b5f604051905090565b5f80fd5b5f80fd5b5f80fd5b5f80fd5b7f4e487b71000000000000000000000000000000000000000000000000000000005f52604160045260245ffd5b6108c7826107df565b810181811067ffffffffffffffff821117156108e6576108e5610891565b5b80604052505050565b5f6108f8610878565b905061090482826108be565b919050565b5f67ffffffffffffffff82111561092357610922610891565b5b61092c826107df565b9050602081019050919050565b828183375f83830152505050565b5f61095961095484610909565b6108ef565b9050828152602081018484840111156109755761097461088d565b5b610980848285610939565b509392505050565b5f82601f83011261099c5761099b610889565b5b81356109ac848260208601610947565b91505092915050565b5f80604083850312156109cb576109ca610881565b5b5f83013567ffffffffffffffff8111156109e8576109e7610885565b5b6109f485828601610988565b925050602083013567ffffffffffffffff811115610a1557610a14610885565b5b610a2185828601610988565b9150509250929050565b5f60e0820190508181035f830152610a43818a6107ef565b9050610a526020830189610850565b8181036040830152610a6481886107ef565b90508181036060830152610a7881876107ef565b9050610a876080830186610850565b610a9460a0830185610850565b81810360c0830152610aa681846107ef565b905098975050505050505050565b5f6040820190508181035f830152610acc81856107ef565b90508181036020830152610ae081846107ef565b90509392505050565b7f4e487b71000000000000000000000000000000000000000000000000000000005f52602260045260245ffd5b5f6002820490506001821680610b2d57607f821691505b602082108103610b4057610b3f610ae9565b5b50919050565b5f819050815f5260205f209050919050565b5f6020601f8301049050919050565b5f82821b905092915050565b5f60088302610ba27fffffffffffffffffffffffffffffffffffffffffffffffffffffffffffffffff82610b67565b610bac8683610b67565b95508019841693508086168417925050509392505050565b5f819050919050565b5f610be7610be2610bdd84610847565b610bc4565b610847565b9050919050565b5f819050919050565b610c0083610bcd565b610c14610c0c82610bee565b848454610b73565b825550505050565b5f90565b610c28610c1c565b610c33818484610bf7565b505050565b5b81811015610c5657610c4b5f82610c20565b600181019050610c39565b5050565b601f821115610c9b57610c6c81610b46565b610c7584610b58565b81016020851015610c84578190505b610c98610c9085610b58565b830182610c38565b50505b505050565b5f82821c905092915050565b5f610cbb5f1984600802610ca0565b1980831691505092915050565b5f610cd38383610cac565b9150826002028217905092915050565b610cec826107b7565b67ffffffffffffffff811115610d0557610d04610891565b5b610d0f8254610b16565b610d1a828285610c5a565b5f60209050601f831160018114610d4b575f8415610d39578287015190505b610d438582610cc8565b865550610daa565b601f198416610d5986610b46565b5f5b82811015610d8057848901518255600182019150602085019450602081019050610d5b565b86831015610d9d5784890151610d99601f891682610cac565b8355505b6001600288020188555050505b50505050505056fea2646970667358221220a5833669205728b57720f457d0752781988ec8be0fd6e6e1d60dc866444155e464736f6c634300081a0033",
					"opcodes": "PUSH1 0x80 PUSH1 0x40 MSTORE CALLVALUE DUP1 ISZERO PUSH2 0xF JUMPI PUSH0 DUP1 REVERT JUMPDEST POP PUSH1 0x40 MLOAD PUSH2 0x13FA CODESIZE SUB DUP1 PUSH2 0x13FA DUP4 CODECOPY DUP2 DUP2 ADD PUSH1 0x40 MSTORE DUP2 ADD SWAP1 PUSH2 0x31 SWAP2 SWAP1 PUSH2 0x225 JUMP JUMPDEST DUP7 PUSH1 0x5 SWAP1 DUP2 PUSH2 0x40 SWAP2 SWAP1 PUSH2 0x536 JUMP JUMPDEST POP DUP6 PUSH1 0x6 DUP2 SWAP1 SSTORE POP PUSH2 0x58 DUP6 DUP6 PUSH2 0x82 PUSH1 0x20 SHL PUSH1 0x20 SHR JUMP JUMPDEST DUP3 PUSH1 0x2 SWAP1 DUP2 PUSH2 0x67 SWAP2 SWAP1 PUSH2 0x536 JUMP JUMPDEST POP DUP2 PUSH1 0x3 DUP2 SWAP1 SSTORE POP DUP1 PUSH1 0x4 DUP2 SWAP1 SSTORE POP POP POP POP POP POP POP POP PUSH2 0x605 JUMP JUMPDEST DUP2 PUSH0 SWAP1 DUP2 PUSH2 0x90 SWAP2 SWAP1 PUSH2 0x536 JUMP JUMPDEST POP DUP1 PUSH1 0x1 SWAP1 DUP2 PUSH2 0xA0 SWAP2 SWAP1 PUSH2 0x536 JUMP JUMPDEST POP POP POP JUMP JUMPDEST PUSH0 PUSH1 0x40 MLOAD SWAP1 POP SWAP1 JUMP JUMPDEST PUSH0 DUP1 REVERT JUMPDEST PUSH0 DUP1 REVERT JUMPDEST PUSH0 DUP1 REVERT JUMPDEST PUSH0 DUP1 REVERT JUMPDEST PUSH0 PUSH1 0x1F NOT PUSH1 0x1F DUP4 ADD AND SWAP1 POP SWAP2 SWAP1 POP JUMP JUMPDEST PUSH32 0x4E487B7100000000000000000000000000000000000000000000000000000000 PUSH0 MSTORE PUSH1 0x41 PUSH1 0x4 MSTORE PUSH1 0x24 PUSH0 REVERT JUMPDEST PUSH2 0x104 DUP3 PUSH2 0xBE JUMP JUMPDEST DUP2 ADD DUP2 DUP2 LT PUSH8 0xFFFFFFFFFFFFFFFF DUP3 GT OR ISZERO PUSH2 0x123 JUMPI PUSH2 0x122 PUSH2 0xCE JUMP JUMPDEST JUMPDEST DUP1 PUSH1 0x40 MSTORE POP POP POP JUMP JUMPDEST PUSH0 PUSH2 0x135 PUSH2 0xA5 JUMP JUMPDEST SWAP1 POP PUSH2 0x141 DUP3 DUP3 PUSH2 0xFB JUMP JUMPDEST SWAP2 SWAP1 POP JUMP JUMPDEST PUSH0 PUSH8 0xFFFFFFFFFFFFFFFF DUP3 GT ISZERO PUSH2 0x160 JUMPI PUSH2 0x15F PUSH2 0xCE JUMP JUMPDEST JUMPDEST PUSH2 0x169 DUP3 PUSH2 0xBE JUMP JUMPDEST SWAP1 POP PUSH1 0x20 DUP2 ADD SWAP1 POP SWAP2 SWAP1 POP JUMP JUMPDEST DUP3 DUP2 DUP4 MCOPY PUSH0 DUP4 DUP4 ADD MSTORE POP POP POP JUMP JUMPDEST PUSH0 PUSH2 0x196 PUSH2 0x191 DUP5 PUSH2 0x146 JUMP JUMPDEST PUSH2 0x12C JUMP JUMPDEST SWAP1 POP DUP3 DUP2 MSTORE PUSH1 0x20 DUP2 ADD DUP5 DUP5 DUP5 ADD GT ISZERO PUSH2 0x1B2 JUMPI PUSH2 0x1B1 PUSH2 0xBA JUMP JUMPDEST JUMPDEST PUSH2 0x1BD DUP5 DUP3 DUP6 PUSH2 0x176 JUMP JUMPDEST POP SWAP4 SWAP3 POP POP POP JUMP JUMPDEST PUSH0 DUP3 PUSH1 0x1F DUP4 ADD SLT PUSH2 0x1D9 JUMPI PUSH2 0x1D8 PUSH2 0xB6 JUMP JUMPDEST JUMPDEST DUP2 MLOAD PUSH2 0x1E9 DUP5 DUP3 PUSH1 0x20 DUP7 ADD PUSH2 0x184 JUMP JUMPDEST SWAP2 POP POP SWAP3 SWAP2 POP POP JUMP JUMPDEST PUSH0 DUP2 SWAP1 POP SWAP2 SWAP1 POP JUMP JUMPDEST PUSH2 0x204 DUP2 PUSH2 0x1F2 JUMP JUMPDEST DUP2 EQ PUSH2 0x20E JUMPI PUSH0 DUP1 REVERT JUMPDEST POP JUMP JUMPDEST PUSH0 DUP2 MLOAD SWAP1 POP PUSH2 0x21F DUP2 PUSH2 0x1FB JUMP JUMPDEST SWAP3 SWAP2 POP POP JUMP JUMPDEST PUSH0 DUP1 PUSH0 DUP1 PUSH0 DUP1 PUSH0 PUSH1 0xE0 DUP9 DUP11 SUB SLT ISZERO PUSH2 0x240 JUMPI PUSH2 0x23F PUSH2 0xAE JUMP JUMPDEST JUMPDEST PUSH0 DUP9 ADD MLOAD PUSH8 0xFFFFFFFFFFFFFFFF DUP2 GT ISZERO PUSH2 0x25D JUMPI PUSH2 0x25C PUSH2 0xB2 JUMP JUMPDEST JUMPDEST PUSH2 0x269 DUP11 DUP3 DUP12 ADD PUSH2 0x1C5 JUMP JUMPDEST SWAP8 POP POP PUSH1 0x20 PUSH2 0x27A DUP11 DUP3 DUP12 ADD PUSH2 0x211 JUMP JUMPDEST SWAP7 POP POP PUSH1 0x40 DUP9 ADD MLOAD PUSH8 0xFFFFFFFFFFFFFFFF DUP2 GT ISZERO PUSH2 0x29B JUMPI PUSH2 0x29A PUSH2 0xB2 JUMP JUMPDEST JUMPDEST PUSH2 0x2A7 DUP11 DUP3 DUP12 ADD PUSH2 0x1C5 JUMP JUMPDEST SWAP6 POP POP PUSH1 0x60 DUP9 ADD MLOAD PUSH8 0xFFFFFFFFFFFFFFFF DUP2 GT ISZERO PUSH2 0x2C8 JUMPI PUSH2 0x2C7 PUSH2 0xB2 JUMP JUMPDEST JUMPDEST PUSH2 0x2D4 DUP11 DUP3 DUP12 ADD PUSH2 0x1C5 JUMP JUMPDEST SWAP5 POP POP PUSH1 0x80 DUP9 ADD MLOAD PUSH8 0xFFFFFFFFFFFFFFFF DUP2 GT ISZERO PUSH2 0x2F5 JUMPI PUSH2 0x2F4 PUSH2 0xB2 JUMP JUMPDEST JUMPDEST PUSH2 0x301 DUP11 DUP3 DUP12 ADD PUSH2 0x1C5 JUMP JUMPDEST SWAP4 POP POP PUSH1 0xA0 PUSH2 0x312 DUP11 DUP3 DUP12 ADD PUSH2 0x211 JUMP JUMPDEST SWAP3 POP POP PUSH1 0xC0 PUSH2 0x323 DUP11 DUP3 DUP12 ADD PUSH2 0x211 JUMP JUMPDEST SWAP2 POP POP SWAP3 SWAP6 SWAP9 SWAP2 SWAP5 SWAP8 POP SWAP3 SWAP6 POP JUMP JUMPDEST PUSH0 DUP2 MLOAD SWAP1 POP SWAP2 SWAP1 POP JUMP JUMPDEST PUSH32 0x4E487B7100000000000000000000000000000000000000000000000000000000 PUSH0 MSTORE PUSH1 0x22 PUSH1 0x4 MSTORE PUSH1 0x24 PUSH0 REVERT JUMPDEST PUSH0 PUSH1 0x2 DUP3 DIV SWAP1 POP PUSH1 0x1 DUP3 AND DUP1 PUSH2 0x380 JUMPI PUSH1 0x7F DUP3 AND SWAP2 POP JUMPDEST PUSH1 0x20 DUP3 LT DUP2 SUB PUSH2 0x393 JUMPI PUSH2 0x392 PUSH2 0x33C JUMP JUMPDEST JUMPDEST POP SWAP2 SWAP1 POP JUMP JUMPDEST PUSH0 DUP2 SWAP1 POP DUP2 PUSH0 MSTORE PUSH1 0x20 PUSH0 KECCAK256 SWAP1 POP SWAP2 SWAP1 POP JUMP JUMPDEST PUSH0 PUSH1 0x20 PUSH1 0x1F DUP4 ADD DIV SWAP1 POP SWAP2 SWAP1 POP JUMP JUMPDEST PUSH0 DUP3 DUP3 SHL SWAP1 POP SWAP3 SWAP2 POP POP JUMP JUMPDEST PUSH0 PUSH1 0x8 DUP4 MUL PUSH2 0x3F5 PUSH32 0xFFFFFFFFFFFFFFFFFFFFFFFFFFFFFFFFFFFFFFFFFFFFFFFFFFFFFFFFFFFFFFFF DUP3 PUSH2 0x3BA JUMP JUMPDEST PUSH2 0x3FF DUP7 DUP4 PUSH2 0x3BA JUMP JUMPDEST SWAP6 POP DUP1 NOT DUP5 AND SWAP4 POP DUP1 DUP7 AND DUP5 OR SWAP3 POP POP POP SWAP4 SWAP3 POP POP POP JUMP JUMPDEST PUSH0 DUP2 SWAP1 POP SWAP2 SWAP1 POP JUMP JUMPDEST PUSH0 PUSH2 0x43A PUSH2 0x435 PUSH2 0x430 DUP5 PUSH2 0x1F2 JUMP JUMPDEST PUSH2 0x417 JUMP JUMPDEST PUSH2 0x1F2 JUMP JUMPDEST SWAP1 POP SWAP2 SWAP1 POP JUMP JUMPDEST PUSH0 DUP2 SWAP1 POP SWAP2 SWAP1 POP JUMP JUMPDEST PUSH2 0x453 DUP4 PUSH2 0x420 JUMP JUMPDEST PUSH2 0x467 PUSH2 0x45F DUP3 PUSH2 0x441 JUMP JUMPDEST DUP5 DUP5 SLOAD PUSH2 0x3C6 JUMP JUMPDEST DUP3 SSTORE POP POP POP POP JUMP JUMPDEST PUSH0 SWAP1 JUMP JUMPDEST PUSH2 0x47B PUSH2 0x46F JUMP JUMPDEST PUSH2 0x486 DUP2 DUP5 DUP5 PUSH2 0x44A JUMP JUMPDEST POP POP POP JUMP JUMPDEST JUMPDEST DUP2 DUP2 LT ISZERO PUSH2 0x4A9 JUMPI PUSH2 0x49E PUSH0 DUP3 PUSH2 0x473 JUMP JUMPDEST PUSH1 0x1 DUP2 ADD SWAP1 POP PUSH2 0x48C JUMP JUMPDEST POP POP JUMP JUMPDEST PUSH1 0x1F DUP3 GT ISZERO PUSH2 0x4EE JUMPI PUSH2 0x4BF DUP2 PUSH2 0x399 JUMP JUMPDEST PUSH2 0x4C8 DUP5 PUSH2 0x3AB JUMP JUMPDEST DUP2 ADD PUSH1 0x20 DUP6 LT ISZERO PUSH2 0x4D7 JUMPI DUP2 SWAP1 POP JUMPDEST PUSH2 0x4EB PUSH2 0x4E3 DUP6 PUSH2 0x3AB JUMP JUMPDEST DUP4 ADD DUP3 PUSH2 0x48B JUMP JUMPDEST POP POP JUMPDEST POP POP POP JUMP JUMPDEST PUSH0 DUP3 DUP3 SHR SWAP1 POP SWAP3 SWAP2 POP POP JUMP JUMPDEST PUSH0 PUSH2 0x50E PUSH0 NOT DUP5 PUSH1 0x8 MUL PUSH2 0x4F3 JUMP JUMPDEST NOT DUP1 DUP4 AND SWAP2 POP POP SWAP3 SWAP2 POP POP JUMP JUMPDEST PUSH0 PUSH2 0x526 DUP4 DUP4 PUSH2 0x4FF JUMP JUMPDEST SWAP2 POP DUP3 PUSH1 0x2 MUL DUP3 OR SWAP1 POP SWAP3 SWAP2 POP POP JUMP JUMPDEST PUSH2 0x53F DUP3 PUSH2 0x332 JUMP JUMPDEST PUSH8 0xFFFFFFFFFFFFFFFF DUP2 GT ISZERO PUSH2 0x558 JUMPI PUSH2 0x557 PUSH2 0xCE JUMP JUMPDEST JUMPDEST PUSH2 0x562 DUP3 SLOAD PUSH2 0x369 JUMP JUMPDEST PUSH2 0x56D DUP3 DUP3 DUP6 PUSH2 0x4AD JUMP JUMPDEST PUSH0 PUSH1 0x20 SWAP1 POP PUSH1 0x1F DUP4 GT PUSH1 0x1 DUP2 EQ PUSH2 0x59E JUMPI PUSH0 DUP5 ISZERO PUSH2 0x58C JUMPI DUP3 DUP8 ADD MLOAD SWAP1 POP JUMPDEST PUSH2 0x596 DUP6 DUP3 PUSH2 0x51B JUMP JUMPDEST DUP7 SSTORE POP PUSH2 0x5FD JUMP JUMPDEST PUSH1 0x1F NOT DUP5 AND PUSH2 0x5AC DUP7 PUSH2 0x399 JUMP JUMPDEST PUSH0 JUMPDEST DUP3 DUP2 LT ISZERO PUSH2 0x5D3 JUMPI DUP5 DUP10 ADD MLOAD DUP3 SSTORE PUSH1 0x1 DUP3 ADD SWAP2 POP PUSH1 0x20 DUP6 ADD SWAP5 POP PUSH1 0x20 DUP2 ADD SWAP1 POP PUSH2 0x5AE JUMP JUMPDEST DUP7 DUP4 LT ISZERO PUSH2 0x5F0 JUMPI DUP5 DUP10 ADD MLOAD PUSH2 0x5EC PUSH1 0x1F DUP10 AND DUP3 PUSH2 0x4FF JUMP JUMPDEST DUP4 SSTORE POP JUMPDEST PUSH1 0x1 PUSH1 0x2 DUP9 MUL ADD DUP9 SSTORE POP POP POP JUMPDEST POP POP POP POP POP POP JUMP JUMPDEST PUSH2 0xDE8 DUP1 PUSH2 0x612 PUSH0 CODECOPY PUSH0 RETURN INVALID PUSH1 0x80 PUSH1 0x40 MSTORE CALLVALUE DUP1 ISZERO PUSH2 0xF JUMPI PUSH0 DUP1 REVERT JUMPDEST POP PUSH1 0x4 CALLDATASIZE LT PUSH2 0x9C JUMPI PUSH0 CALLDATALOAD PUSH1 0xE0 SHR DUP1 PUSH4 0x9BBB62AA GT PUSH2 0x64 JUMPI DUP1 PUSH4 0x9BBB62AA EQ PUSH2 0x134 JUMPI DUP1 PUSH4 0xB508BA31 EQ PUSH2 0x158 JUMPI DUP1 PUSH4 0xB8CE08EA EQ PUSH2 0x176 JUMPI DUP1 PUSH4 0xB975ABB3 EQ PUSH2 0x194 JUMPI DUP1 PUSH4 0xDF404D5C EQ PUSH2 0x1B2 JUMPI PUSH2 0x9C JUMP JUMPDEST DUP1 PUSH4 0x176EE95F EQ PUSH2 0xA0 JUMPI DUP1 PUSH4 0x4ED5A232 EQ PUSH2 0xBE JUMPI DUP1 PUSH4 0x6C08283F EQ PUSH2 0xDC JUMPI DUP1 PUSH4 0x6EF9A278 EQ PUSH2 0xFA JUMPI DUP1 PUSH4 0x735F5AEC EQ PUSH2 0x118 JUMPI JUMPDEST PUSH0 DUP1 REVERT JUMPDEST PUSH2 0xA8 PUSH2 0x1D1 JUMP JUMPDEST PUSH1 0x40 MLOAD PUSH2 0xB5 SWAP2 SWAP1 PUSH2 0x827 JUMP JUMPDEST PUSH1 0x40 MLOAD DUP1 SWAP2 SUB SWAP1 RETURN JUMPDEST PUSH2 0xC6 PUSH2 0x25D JUMP JUMPDEST PUSH1 0x40 MLOAD PUSH2 0xD3 SWAP2 SWAP1 PUSH2 0x85F JUMP JUMPDEST PUSH1 0x40 MLOAD DUP1 SWAP2 SUB SWAP1 RETURN JUMPDEST PUSH2 0xE4 PUSH2 0x263 JUMP JUMPDEST PUSH1 0x40 MLOAD PUSH2 0xF1 SWAP2 SWAP1 PUSH2 0x827 JUMP JUMPDEST PUSH1 0x40 MLOAD DUP1 SWAP2 SUB SWAP1 RETURN JUMPDEST PUSH2 0x102 PUSH2 0x2F3 JUMP JUMPDEST PUSH1 0x40 MLOAD PUSH2 0x10F SWAP2 SWAP1 PUSH2 0x85F JUMP JUMPDEST PUSH1 0x40 MLOAD DUP1 SWAP2 SUB SWAP1 RETURN JUMPDEST PUSH2 0x132 PUSH1 0x4 DUP1 CALLDATASIZE SUB DUP2 ADD SWAP1 PUSH2 0x12D SWAP2 SWAP1 PUSH2 0x9B5 JUMP JUMPDEST PUSH2 0x2F9 JUMP JUMPDEST STOP JUMPDEST PUSH2 0x13C PUSH2 0x31C JUMP JUMPDEST PUSH1 0x40 MLOAD PUSH2 0x14F SWAP8 SWAP7 SWAP6 SWAP5 SWAP4 SWAP3 SWAP2 SWAP1 PUSH2 0xA2B JUMP JUMPDEST PUSH1 0x40 MLOAD DUP1 SWAP2 SUB SWAP1 RETURN JUMPDEST PUSH2 0x160 PUSH2 0x575 JUMP JUMPDEST PUSH1 0x40 MLOAD PUSH2 0x16D SWAP2 SWAP1 PUSH2 0x827 JUMP JUMPDEST PUSH1 0x40 MLOAD DUP1 SWAP2 SUB SWAP1 RETURN JUMPDEST PUSH2 0x17E PUSH2 0x601 JUMP JUMPDEST PUSH1 0x40 MLOAD PUSH2 0x18B SWAP2 SWAP1 PUSH2 0x85F JUMP JUMPDEST PUSH1 0x40 MLOAD DUP1 SWAP2 SUB SWAP1 RETURN JUMPDEST PUSH2 0x19C PUSH2 0x60A JUMP JUMPDEST PUSH1 0x40 MLOAD PUSH2 0x1A9 SWAP2 SWAP1 PUSH2 0x827 JUMP JUMPDEST PUSH1 0x40 MLOAD DUP1 SWAP2 SUB SWAP1 RETURN JUMPDEST PUSH2 0x1BA PUSH2 0x695 JUMP JUMPDEST PUSH1 0x40 MLOAD PUSH2 0x1C8 SWAP3 SWAP2 SWAP1 PUSH2 0xAB4 JUMP JUMPDEST PUSH1 0x40 MLOAD DUP1 SWAP2 SUB SWAP1 RETURN JUMPDEST PUSH1 0x1 DUP1 SLOAD PUSH2 0x1DE SWAP1 PUSH2 0xB16 JUMP JUMPDEST DUP1 PUSH1 0x1F ADD PUSH1 0x20 DUP1 SWAP2 DIV MUL PUSH1 0x20 ADD PUSH1 0x40 MLOAD SWAP1 DUP2 ADD PUSH1 0x40 MSTORE DUP1 SWAP3 SWAP2 SWAP1 DUP2 DUP2 MSTORE PUSH1 0x20 ADD DUP3 DUP1 SLOAD PUSH2 0x20A SWAP1 PUSH2 0xB16 JUMP JUMPDEST DUP1 ISZERO PUSH2 0x255 JUMPI DUP1 PUSH1 0x1F LT PUSH2 0x22C JUMPI PUSH2 0x100 DUP1 DUP4 SLOAD DIV MUL DUP4 MSTORE SWAP2 PUSH1 0x20 ADD SWAP2 PUSH2 0x255 JUMP JUMPDEST DUP3 ADD SWAP2 SWAP1 PUSH0 MSTORE PUSH1 0x20 PUSH0 KECCAK256 SWAP1 JUMPDEST DUP2 SLOAD DUP2 MSTORE SWAP1 PUSH1 0x1 ADD SWAP1 PUSH1 0x20 ADD DUP1 DUP4 GT PUSH2 0x238 JUMPI DUP3 SWAP1 SUB PUSH1 0x1F AND DUP3 ADD SWAP2 JUMPDEST POP POP POP POP POP DUP2 JUMP JUMPDEST PUSH1 0x4 SLOAD DUP2 JUMP JUMPDEST PUSH1 0x60 PUSH1 0x5 DUP1 SLOAD PUSH2 0x272 SWAP1 PUSH2 0xB16 JUMP JUMPDEST DUP1 PUSH1 0x1F ADD PUSH1 0x20 DUP1 SWAP2 DIV MUL PUSH1 0x20 ADD PUSH1 0x40 MLOAD SWAP1 DUP2 ADD PUSH1 0x40 MSTORE DUP1 SWAP3 SWAP2 SWAP1 DUP2 DUP2 MSTORE PUSH1 0x20 ADD DUP3 DUP1 SLOAD PUSH2 0x29E SWAP1 PUSH2 0xB16 JUMP JUMPDEST DUP1 ISZERO PUSH2 0x2E9 JUMPI DUP1 PUSH1 0x1F LT PUSH2 0x2C0 JUMPI PUSH2 0x100 DUP1 DUP4 SLOAD DIV MUL DUP4 MSTORE SWAP2 PUSH1 0x20 ADD SWAP2 PUSH2 0x2E9 JUMP JUMPDEST DUP3 ADD SWAP2 SWAP1 PUSH0 MSTORE PUSH1 0x20 PUSH0 KECCAK256 SWAP1 JUMPDEST DUP2 SLOAD DUP2 MSTORE SWAP1 PUSH1 0x1 ADD SWAP1 PUSH1 0x20 ADD DUP1 DUP4 GT PUSH2 0x2CC JUMPI DUP3 SWAP1 SUB PUSH1 0x1F AND DUP3 ADD SWAP2 JUMPDEST POP POP POP POP POP SWAP1 POP SWAP1 JUMP JUMPDEST PUSH1 0x3 SLOAD DUP2 JUMP JUMPDEST DUP2 PUSH0 SWAP1 DUP2 PUSH2 0x307 SWAP2 SWAP1 PUSH2 0xCE3 JUMP JUMPDEST POP DUP1 PUSH1 0x1 SWAP1 DUP2 PUSH2 0x317 SWAP2 SWAP1 PUSH2 0xCE3 JUMP JUMPDEST POP POP POP JUMP JUMPDEST PUSH1 0x60 PUSH0 PUSH1 0x60 DUP1 PUSH0 DUP1 PUSH1 0x60 PUSH1 0x2 PUSH1 0x3 SLOAD PUSH0 PUSH1 0x1 PUSH1 0x4 SLOAD PUSH1 0x6 SLOAD PUSH1 0x5 DUP7 DUP1 SLOAD PUSH2 0x342 SWAP1 PUSH2 0xB16 JUMP JUMPDEST DUP1 PUSH1 0x1F ADD PUSH1 0x20 DUP1 SWAP2 DIV MUL PUSH1 0x20 ADD PUSH1 0x40 MLOAD SWAP1 DUP2 ADD PUSH1 0x40 MSTORE DUP1 SWAP3 SWAP2 SWAP1 DUP2 DUP2 MSTORE PUSH1 0x20 ADD DUP3 DUP1 SLOAD PUSH2 0x36E SWAP1 PUSH2 0xB16 JUMP JUMPDEST DUP1 ISZERO PUSH2 0x3B9 JUMPI DUP1 PUSH1 0x1F LT PUSH2 0x390 JUMPI PUSH2 0x100 DUP1 DUP4 SLOAD DIV MUL DUP4 MSTORE SWAP2 PUSH1 0x20 ADD SWAP2 PUSH2 0x3B9 JUMP JUMPDEST DUP3 ADD SWAP2 SWAP1 PUSH0 MSTORE PUSH1 0x20 PUSH0 KECCAK256 SWAP1 JUMPDEST DUP2 SLOAD DUP2 MSTORE SWAP1 PUSH1 0x1 ADD SWAP1 PUSH1 0x20 ADD DUP1 DUP4 GT PUSH2 0x39C JUMPI DUP3 SWAP1 SUB PUSH1 0x1F AND DUP3 ADD SWAP2 JUMPDEST POP POP POP POP POP SWAP7 POP DUP5 DUP1 SLOAD PUSH2 0x3CC SWAP1 PUSH2 0xB16 JUMP JUMPDEST DUP1 PUSH1 0x1F ADD PUSH1 0x20 DUP1 SWAP2 DIV MUL PUSH1 0x20 ADD PUSH1 0x40 MLOAD SWAP1 DUP2 ADD PUSH1 0x40 MSTORE DUP1 SWAP3 SWAP2 SWAP1 DUP2 DUP2 MSTORE PUSH1 0x20 ADD DUP3 DUP1 SLOAD PUSH2 0x3F8 SWAP1 PUSH2 0xB16 JUMP JUMPDEST DUP1 ISZERO PUSH2 0x443 JUMPI DUP1 PUSH1 0x1F LT PUSH2 0x41A JUMPI PUSH2 0x100 DUP1 DUP4 SLOAD DIV MUL DUP4 MSTORE SWAP2 PUSH1 0x20 ADD SWAP2 PUSH2 0x443 JUMP JUMPDEST DUP3 ADD SWAP2 SWAP1 PUSH0 MSTORE PUSH1 0x20 PUSH0 KECCAK256 SWAP1 JUMPDEST DUP2 SLOAD DUP2 MSTORE SWAP1 PUSH1 0x1 ADD SWAP1 PUSH1 0x20 ADD DUP1 DUP4 GT PUSH2 0x426 JUMPI DUP3 SWAP1 SUB PUSH1 0x1F AND DUP3 ADD SWAP2 JUMPDEST POP POP POP POP POP SWAP5 POP DUP4 DUP1 SLOAD PUSH2 0x456 SWAP1 PUSH2 0xB16 JUMP JUMPDEST DUP1 PUSH1 0x1F ADD PUSH1 0x20 DUP1 SWAP2 DIV MUL PUSH1 0x20 ADD PUSH1 0x40 MLOAD SWAP1 DUP2 ADD PUSH1 0x40 MSTORE DUP1 SWAP3 SWAP2 SWAP1 DUP2 DUP2 MSTORE PUSH1 0x20 ADD DUP3 DUP1 SLOAD PUSH2 0x482 SWAP1 PUSH2 0xB16 JUMP JUMPDEST DUP1 ISZERO PUSH2 0x4CD JUMPI DUP1 PUSH1 0x1F LT PUSH2 0x4A4 JUMPI PUSH2 0x100 DUP1 DUP4 SLOAD DIV MUL DUP4 MSTORE SWAP2 PUSH1 0x20 ADD SWAP2 PUSH2 0x4CD JUMP JUMPDEST DUP3 ADD SWAP2 SWAP1 PUSH0 MSTORE PUSH1 0x20 PUSH0 KECCAK256 SWAP1 JUMPDEST DUP2 SLOAD DUP2 MSTORE SWAP1 PUSH1 0x1 ADD SWAP1 PUSH1 0x20 ADD DUP1 DUP4 GT PUSH2 0x4B0 JUMPI DUP3 SWAP1 SUB PUSH1 0x1F AND DUP3 ADD SWAP2 JUMPDEST POP POP POP POP POP SWAP4 POP DUP1 DUP1 SLOAD PUSH2 0x4E0 SWAP1 PUSH2 0xB16 JUMP JUMPDEST DUP1 PUSH1 0x1F ADD PUSH1 0x20 DUP1 SWAP2 DIV MUL PUSH1 0x20 ADD PUSH1 0x40 MLOAD SWAP1 DUP2 ADD PUSH1 0x40 MSTORE DUP1 SWAP3 SWAP2 SWAP1 DUP2 DUP2 MSTORE PUSH1 0x20 ADD DUP3 DUP1 SLOAD PUSH2 0x50C SWAP1 PUSH2 0xB16 JUMP JUMPDEST DUP1 ISZERO PUSH2 0x557 JUMPI DUP1 PUSH1 0x1F LT PUSH2 0x52E JUMPI PUSH2 0x100 DUP1 DUP4 SLOAD DIV MUL DUP4 MSTORE SWAP2 PUSH1 0x20 ADD SWAP2 PUSH2 0x557 JUMP JUMPDEST DUP3 ADD SWAP2 SWAP1 PUSH0 MSTORE PUSH1 0x20 PUSH0 KECCAK256 SWAP1 JUMPDEST DUP2 SLOAD DUP2 MSTORE SWAP1 PUSH1 0x1 ADD SWAP1 PUSH1 0x20 ADD DUP1 DUP4 GT PUSH2 0x53A JUMPI DUP3 SWAP1 SUB PUSH1 0x1F AND DUP3 ADD SWAP2 JUMPDEST POP POP POP POP POP SWAP1 POP SWAP7 POP SWAP7 POP SWAP7 POP SWAP7 POP SWAP7 POP SWAP7 POP SWAP7 POP SWAP1 SWAP2 SWAP3 SWAP4 SWAP5 SWAP6 SWAP7 JUMP JUMPDEST PUSH1 0x2 DUP1 SLOAD PUSH2 0x582 SWAP1 PUSH2 0xB16 JUMP JUMPDEST DUP1 PUSH1 0x1F ADD PUSH1 0x20 DUP1 SWAP2 DIV MUL PUSH1 0x20 ADD PUSH1 0x40 MLOAD SWAP1 DUP2 ADD PUSH1 0x40 MSTORE DUP1 SWAP3 SWAP2 SWAP1 DUP2 DUP2 MSTORE PUSH1 0x20 ADD DUP3 DUP1 SLOAD PUSH2 0x5AE SWAP1 PUSH2 0xB16 JUMP JUMPDEST DUP1 ISZERO PUSH2 0x5F9 JUMPI DUP1 PUSH1 0x1F LT PUSH2 0x5D0 JUMPI PUSH2 0x100 DUP1 DUP4 SLOAD DIV MUL DUP4 MSTORE SWAP2 PUSH1 0x20 ADD SWAP2 PUSH2 0x5F9 JUMP JUMPDEST DUP3 ADD SWAP2 SWAP1 PUSH0 MSTORE PUSH1 0x20 PUSH0 KECCAK256 SWAP1 JUMPDEST DUP2 SLOAD DUP2 MSTORE SWAP1 PUSH1 0x1 ADD SWAP1 PUSH1 0x20 ADD DUP1 DUP4 GT PUSH2 0x5DC JUMPI DUP3 SWAP1 SUB PUSH1 0x1F AND DUP3 ADD SWAP2 JUMPDEST POP POP POP POP POP DUP2 JUMP JUMPDEST PUSH0 PUSH1 0x6 SLOAD SWAP1 POP SWAP1 JUMP JUMPDEST PUSH0 DUP1 SLOAD PUSH2 0x616 SWAP1 PUSH2 0xB16 JUMP JUMPDEST DUP1 PUSH1 0x1F ADD PUSH1 0x20 DUP1 SWAP2 DIV MUL PUSH1 0x20 ADD PUSH1 0x40 MLOAD SWAP1 DUP2 ADD PUSH1 0x40 MSTORE DUP1 SWAP3 SWAP2 SWAP1 DUP2 DUP2 MSTORE PUSH1 0x20 ADD DUP3 DUP1 SLOAD PUSH2 0x642 SWAP1 PUSH2 0xB16 JUMP JUMPDEST DUP1 ISZERO PUSH2 0x68D JUMPI DUP1 PUSH1 0x1F LT PUSH2 0x664 JUMPI PUSH2 0x100 DUP1 DUP4 SLOAD DIV MUL DUP4 MSTORE SWAP2 PUSH1 0x20 ADD SWAP2 PUSH2 0x68D JUMP JUMPDEST DUP3 ADD SWAP2 SWAP1 PUSH0 MSTORE PUSH1 0x20 PUSH0 KECCAK256 SWAP1 JUMPDEST DUP2 SLOAD DUP2 MSTORE SWAP1 PUSH1 0x1 ADD SWAP1 PUSH1 0x20 ADD DUP1 DUP4 GT PUSH2 0x670 JUMPI DUP3 SWAP1 SUB PUSH1 0x1F AND DUP3 ADD SWAP2 JUMPDEST POP POP POP POP POP DUP2 JUMP JUMPDEST PUSH1 0x60 DUP1 PUSH0 PUSH1 0x1 DUP2 DUP1 SLOAD PUSH2 0x6A7 SWAP1 PUSH2 0xB16 JUMP JUMPDEST DUP1 PUSH1 0x1F ADD PUSH1 0x20 DUP1 SWAP2 DIV MUL PUSH1 0x20 ADD PUSH1 0x40 MLOAD SWAP1 DUP2 ADD PUSH1 0x40 MSTORE DUP1 SWAP3 SWAP2 SWAP1 DUP2 DUP2 MSTORE PUSH1 0x20 ADD DUP3 DUP1 SLOAD PUSH2 0x6D3 SWAP1 PUSH2 0xB16 JUMP JUMPDEST DUP1 ISZERO PUSH2 0x71E JUMPI DUP1 PUSH1 0x1F LT PUSH2 0x6F5 JUMPI PUSH2 0x100 DUP1 DUP4 SLOAD DIV MUL DUP4 MSTORE SWAP2 PUSH1 0x20 ADD SWAP2 PUSH2 0x71E JUMP JUMPDEST DUP3 ADD SWAP2 SWAP1 PUSH0 MSTORE PUSH1 0x20 PUSH0 KECCAK256 SWAP1 JUMPDEST DUP2 SLOAD DUP2 MSTORE SWAP1 PUSH1 0x1 ADD SWAP1 PUSH1 0x20 ADD DUP1 DUP4 GT PUSH2 0x701 JUMPI DUP3 SWAP1 SUB PUSH1 0x1F AND DUP3 ADD SWAP2 JUMPDEST POP POP POP POP POP SWAP2 POP DUP1 DUP1 SLOAD PUSH2 0x731 SWAP1 PUSH2 0xB16 JUMP JUMPDEST DUP1 PUSH1 0x1F ADD PUSH1 0x20 DUP1 SWAP2 DIV MUL PUSH1 0x20 ADD PUSH1 0x40 MLOAD SWAP1 DUP2 ADD PUSH1 0x40 MSTORE DUP1 SWAP3 SWAP2 SWAP1 DUP2 DUP2 MSTORE PUSH1 0x20 ADD DUP3 DUP1 SLOAD PUSH2 0x75D SWAP1 PUSH2 0xB16 JUMP JUMPDEST DUP1 ISZERO PUSH2 0x7A8 JUMPI DUP1 PUSH1 0x1F LT PUSH2 0x77F JUMPI PUSH2 0x100 DUP1 DUP4 SLOAD DIV MUL DUP4 MSTORE SWAP2 PUSH1 0x20 ADD SWAP2 PUSH2 0x7A8 JUMP JUMPDEST DUP3 ADD SWAP2 SWAP1 PUSH0 MSTORE PUSH1 0x20 PUSH0 KECCAK256 SWAP1 JUMPDEST DUP2 SLOAD DUP2 MSTORE SWAP1 PUSH1 0x1 ADD SWAP1 PUSH1 0x20 ADD DUP1 DUP4 GT PUSH2 0x78B JUMPI DUP3 SWAP1 SUB PUSH1 0x1F AND DUP3 ADD SWAP2 JUMPDEST POP POP POP POP POP SWAP1 POP SWAP2 POP SWAP2 POP SWAP1 SWAP2 JUMP JUMPDEST PUSH0 DUP2 MLOAD SWAP1 POP SWAP2 SWAP1 POP JUMP JUMPDEST PUSH0 DUP3 DUP3 MSTORE PUSH1 0x20 DUP3 ADD SWAP1 POP SWAP3 SWAP2 POP POP JUMP JUMPDEST DUP3 DUP2 DUP4 MCOPY PUSH0 DUP4 DUP4 ADD MSTORE POP POP POP JUMP JUMPDEST PUSH0 PUSH1 0x1F NOT PUSH1 0x1F DUP4 ADD AND SWAP1 POP SWAP2 SWAP1 POP JUMP JUMPDEST PUSH0 PUSH2 0x7F9 DUP3 PUSH2 0x7B7 JUMP JUMPDEST PUSH2 0x803 DUP2 DUP6 PUSH2 0x7C1 JUMP JUMPDEST SWAP4 POP PUSH2 0x813 DUP2 DUP6 PUSH1 0x20 DUP7 ADD PUSH2 0x7D1 JUMP JUMPDEST PUSH2 0x81C DUP2 PUSH2 0x7DF JUMP JUMPDEST DUP5 ADD SWAP2 POP POP SWAP3 SWAP2 POP POP JUMP JUMPDEST PUSH0 PUSH1 0x20 DUP3 ADD SWAP1 POP DUP2 DUP2 SUB PUSH0 DUP4 ADD MSTORE PUSH2 0x83F DUP2 DUP5 PUSH2 0x7EF JUMP JUMPDEST SWAP1 POP SWAP3 SWAP2 POP POP JUMP JUMPDEST PUSH0 DUP2 SWAP1 POP SWAP2 SWAP1 POP JUMP JUMPDEST PUSH2 0x859 DUP2 PUSH2 0x847 JUMP JUMPDEST DUP3 MSTORE POP POP JUMP JUMPDEST PUSH0 PUSH1 0x20 DUP3 ADD SWAP1 POP PUSH2 0x872 PUSH0 DUP4 ADD DUP5 PUSH2 0x850 JUMP JUMPDEST SWAP3 SWAP2 POP POP JUMP JUMPDEST PUSH0 PUSH1 0x40 MLOAD SWAP1 POP SWAP1 JUMP JUMPDEST PUSH0 DUP1 REVERT JUMPDEST PUSH0 DUP1 REVERT JUMPDEST PUSH0 DUP1 REVERT JUMPDEST PUSH0 DUP1 REVERT JUMPDEST PUSH32 0x4E487B7100000000000000000000000000000000000000000000000000000000 PUSH0 MSTORE PUSH1 0x41 PUSH1 0x4 MSTORE PUSH1 0x24 PUSH0 REVERT JUMPDEST PUSH2 0x8C7 DUP3 PUSH2 0x7DF JUMP JUMPDEST DUP2 ADD DUP2 DUP2 LT PUSH8 0xFFFFFFFFFFFFFFFF DUP3 GT OR ISZERO PUSH2 0x8E6 JUMPI PUSH2 0x8E5 PUSH2 0x891 JUMP JUMPDEST JUMPDEST DUP1 PUSH1 0x40 MSTORE POP POP POP JUMP JUMPDEST PUSH0 PUSH2 0x8F8 PUSH2 0x878 JUMP JUMPDEST SWAP1 POP PUSH2 0x904 DUP3 DUP3 PUSH2 0x8BE JUMP JUMPDEST SWAP2 SWAP1 POP JUMP JUMPDEST PUSH0 PUSH8 0xFFFFFFFFFFFFFFFF DUP3 GT ISZERO PUSH2 0x923 JUMPI PUSH2 0x922 PUSH2 0x891 JUMP JUMPDEST JUMPDEST PUSH2 0x92C DUP3 PUSH2 0x7DF JUMP JUMPDEST SWAP1 POP PUSH1 0x20 DUP2 ADD SWAP1 POP SWAP2 SWAP1 POP JUMP JUMPDEST DUP3 DUP2 DUP4 CALLDATACOPY PUSH0 DUP4 DUP4 ADD MSTORE POP POP POP JUMP JUMPDEST PUSH0 PUSH2 0x959 PUSH2 0x954 DUP5 PUSH2 0x909 JUMP JUMPDEST PUSH2 0x8EF JUMP JUMPDEST SWAP1 POP DUP3 DUP2 MSTORE PUSH1 0x20 DUP2 ADD DUP5 DUP5 DUP5 ADD GT ISZERO PUSH2 0x975 JUMPI PUSH2 0x974 PUSH2 0x88D JUMP JUMPDEST JUMPDEST PUSH2 0x980 DUP5 DUP3 DUP6 PUSH2 0x939 JUMP JUMPDEST POP SWAP4 SWAP3 POP POP POP JUMP JUMPDEST PUSH0 DUP3 PUSH1 0x1F DUP4 ADD SLT PUSH2 0x99C JUMPI PUSH2 0x99B PUSH2 0x889 JUMP JUMPDEST JUMPDEST DUP2 CALLDATALOAD PUSH2 0x9AC DUP5 DUP3 PUSH1 0x20 DUP7 ADD PUSH2 0x947 JUMP JUMPDEST SWAP2 POP POP SWAP3 SWAP2 POP POP JUMP JUMPDEST PUSH0 DUP1 PUSH1 0x40 DUP4 DUP6 SUB SLT ISZERO PUSH2 0x9CB JUMPI PUSH2 0x9CA PUSH2 0x881 JUMP JUMPDEST JUMPDEST PUSH0 DUP4 ADD CALLDATALOAD PUSH8 0xFFFFFFFFFFFFFFFF DUP2 GT ISZERO PUSH2 0x9E8 JUMPI PUSH2 0x9E7 PUSH2 0x885 JUMP JUMPDEST JUMPDEST PUSH2 0x9F4 DUP6 DUP3 DUP7 ADD PUSH2 0x988 JUMP JUMPDEST SWAP3 POP POP PUSH1 0x20 DUP4 ADD CALLDATALOAD PUSH8 0xFFFFFFFFFFFFFFFF DUP2 GT ISZERO PUSH2 0xA15 JUMPI PUSH2 0xA14 PUSH2 0x885 JUMP JUMPDEST JUMPDEST PUSH2 0xA21 DUP6 DUP3 DUP7 ADD PUSH2 0x988 JUMP JUMPDEST SWAP2 POP POP SWAP3 POP SWAP3 SWAP1 POP JUMP JUMPDEST PUSH0 PUSH1 0xE0 DUP3 ADD SWAP1 POP DUP2 DUP2 SUB PUSH0 DUP4 ADD MSTORE PUSH2 0xA43 DUP2 DUP11 PUSH2 0x7EF JUMP JUMPDEST SWAP1 POP PUSH2 0xA52 PUSH1 0x20 DUP4 ADD DUP10 PUSH2 0x850 JUMP JUMPDEST DUP2 DUP2 SUB PUSH1 0x40 DUP4 ADD MSTORE PUSH2 0xA64 DUP2 DUP9 PUSH2 0x7EF JUMP JUMPDEST SWAP1 POP DUP2 DUP2 SUB PUSH1 0x60 DUP4 ADD MSTORE PUSH2 0xA78 DUP2 DUP8 PUSH2 0x7EF JUMP JUMPDEST SWAP1 POP PUSH2 0xA87 PUSH1 0x80 DUP4 ADD DUP7 PUSH2 0x850 JUMP JUMPDEST PUSH2 0xA94 PUSH1 0xA0 DUP4 ADD DUP6 PUSH2 0x850 JUMP JUMPDEST DUP2 DUP2 SUB PUSH1 0xC0 DUP4 ADD MSTORE PUSH2 0xAA6 DUP2 DUP5 PUSH2 0x7EF JUMP JUMPDEST SWAP1 POP SWAP9 SWAP8 POP POP POP POP POP POP POP POP JUMP JUMPDEST PUSH0 PUSH1 0x40 DUP3 ADD SWAP1 POP DUP2 DUP2 SUB PUSH0 DUP4 ADD MSTORE PUSH2 0xACC DUP2 DUP6 PUSH2 0x7EF JUMP JUMPDEST SWAP1 POP DUP2 DUP2 SUB PUSH1 0x20 DUP4 ADD MSTORE PUSH2 0xAE0 DUP2 DUP5 PUSH2 0x7EF JUMP JUMPDEST SWAP1 POP SWAP4 SWAP3 POP POP POP JUMP JUMPDEST PUSH32 0x4E487B7100000000000000000000000000000000000000000000000000000000 PUSH0 MSTORE PUSH1 0x22 PUSH1 0x4 MSTORE PUSH1 0x24 PUSH0 REVERT JUMPDEST PUSH0 PUSH1 0x2 DUP3 DIV SWAP1 POP PUSH1 0x1 DUP3 AND DUP1 PUSH2 0xB2D JUMPI PUSH1 0x7F DUP3 AND SWAP2 POP JUMPDEST PUSH1 0x20 DUP3 LT DUP2 SUB PUSH2 0xB40 JUMPI PUSH2 0xB3F PUSH2 0xAE9 JUMP JUMPDEST JUMPDEST POP SWAP2 SWAP1 POP JUMP JUMPDEST PUSH0 DUP2 SWAP1 POP DUP2 PUSH0 MSTORE PUSH1 0x20 PUSH0 KECCAK256 SWAP1 POP SWAP2 SWAP1 POP JUMP JUMPDEST PUSH0 PUSH1 0x20 PUSH1 0x1F DUP4 ADD DIV SWAP1 POP SWAP2 SWAP1 POP JUMP JUMPDEST PUSH0 DUP3 DUP3 SHL SWAP1 POP SWAP3 SWAP2 POP POP JUMP JUMPDEST PUSH0 PUSH1 0x8 DUP4 MUL PUSH2 0xBA2 PUSH32 0xFFFFFFFFFFFFFFFFFFFFFFFFFFFFFFFFFFFFFFFFFFFFFFFFFFFFFFFFFFFFFFFF DUP3 PUSH2 0xB67 JUMP JUMPDEST PUSH2 0xBAC DUP7 DUP4 PUSH2 0xB67 JUMP JUMPDEST SWAP6 POP DUP1 NOT DUP5 AND SWAP4 POP DUP1 DUP7 AND DUP5 OR SWAP3 POP POP POP SWAP4 SWAP3 POP POP POP JUMP JUMPDEST PUSH0 DUP2 SWAP1 POP SWAP2 SWAP1 POP JUMP JUMPDEST PUSH0 PUSH2 0xBE7 PUSH2 0xBE2 PUSH2 0xBDD DUP5 PUSH2 0x847 JUMP JUMPDEST PUSH2 0xBC4 JUMP JUMPDEST PUSH2 0x847 JUMP JUMPDEST SWAP1 POP SWAP2 SWAP1 POP JUMP JUMPDEST PUSH0 DUP2 SWAP1 POP SWAP2 SWAP1 POP JUMP JUMPDEST PUSH2 0xC00 DUP4 PUSH2 0xBCD JUMP JUMPDEST PUSH2 0xC14 PUSH2 0xC0C DUP3 PUSH2 0xBEE JUMP JUMPDEST DUP5 DUP5 SLOAD PUSH2 0xB73 JUMP JUMPDEST DUP3 SSTORE POP POP POP POP JUMP JUMPDEST PUSH0 SWAP1 JUMP JUMPDEST PUSH2 0xC28 PUSH2 0xC1C JUMP JUMPDEST PUSH2 0xC33 DUP2 DUP5 DUP5 PUSH2 0xBF7 JUMP JUMPDEST POP POP POP JUMP JUMPDEST JUMPDEST DUP2 DUP2 LT ISZERO PUSH2 0xC56 JUMPI PUSH2 0xC4B PUSH0 DUP3 PUSH2 0xC20 JUMP JUMPDEST PUSH1 0x1 DUP2 ADD SWAP1 POP PUSH2 0xC39 JUMP JUMPDEST POP POP JUMP JUMPDEST PUSH1 0x1F DUP3 GT ISZERO PUSH2 0xC9B JUMPI PUSH2 0xC6C DUP2 PUSH2 0xB46 JUMP JUMPDEST PUSH2 0xC75 DUP5 PUSH2 0xB58 JUMP JUMPDEST DUP2 ADD PUSH1 0x20 DUP6 LT ISZERO PUSH2 0xC84 JUMPI DUP2 SWAP1 POP JUMPDEST PUSH2 0xC98 PUSH2 0xC90 DUP6 PUSH2 0xB58 JUMP JUMPDEST DUP4 ADD DUP3 PUSH2 0xC38 JUMP JUMPDEST POP POP JUMPDEST POP POP POP JUMP JUMPDEST PUSH0 DUP3 DUP3 SHR SWAP1 POP SWAP3 SWAP2 POP POP JUMP JUMPDEST PUSH0 PUSH2 0xCBB PUSH0 NOT DUP5 PUSH1 0x8 MUL PUSH2 0xCA0 JUMP JUMPDEST NOT DUP1 DUP4 AND SWAP2 POP POP SWAP3 SWAP2 POP POP JUMP JUMPDEST PUSH0 PUSH2 0xCD3 DUP4 DUP4 PUSH2 0xCAC JUMP JUMPDEST SWAP2 POP DUP3 PUSH1 0x2 MUL DUP3 OR SWAP1 POP SWAP3 SWAP2 POP POP JUMP JUMPDEST PUSH2 0xCEC DUP3 PUSH2 0x7B7 JUMP JUMPDEST PUSH8 0xFFFFFFFFFFFFFFFF DUP2 GT ISZERO PUSH2 0xD05 JUMPI PUSH2 0xD04 PUSH2 0x891 JUMP JUMPDEST JUMPDEST PUSH2 0xD0F DUP3 SLOAD PUSH2 0xB16 JUMP JUMPDEST PUSH2 0xD1A DUP3 DUP3 DUP6 PUSH2 0xC5A JUMP JUMPDEST PUSH0 PUSH1 0x20 SWAP1 POP PUSH1 0x1F DUP4 GT PUSH1 0x1 DUP2 EQ PUSH2 0xD4B JUMPI PUSH0 DUP5 ISZERO PUSH2 0xD39 JUMPI DUP3 DUP8 ADD MLOAD SWAP1 POP JUMPDEST PUSH2 0xD43 DUP6 DUP3 PUSH2 0xCC8 JUMP JUMPDEST DUP7 SSTORE POP PUSH2 0xDAA JUMP JUMPDEST PUSH1 0x1F NOT DUP5 AND PUSH2 0xD59 DUP7 PUSH2 0xB46 JUMP JUMPDEST PUSH0 JUMPDEST DUP3 DUP2 LT ISZERO PUSH2 0xD80 JUMPI DUP5 DUP10 ADD MLOAD DUP3 SSTORE PUSH1 0x1 DUP3 ADD SWAP2 POP PUSH1 0x20 DUP6 ADD SWAP5 POP PUSH1 0x20 DUP2 ADD SWAP1 POP PUSH2 0xD5B JUMP JUMPDEST DUP7 DUP4 LT ISZERO PUSH2 0xD9D JUMPI DUP5 DUP10 ADD MLOAD PUSH2 0xD99 PUSH1 0x1F DUP10 AND DUP3 PUSH2 0xCAC JUMP JUMPDEST DUP4 SSTORE POP JUMPDEST PUSH1 0x1 PUSH1 0x2 DUP9 MUL ADD DUP9 SSTORE POP POP POP JUMPDEST POP POP POP POP POP POP JUMP INVALID LOG2 PUSH5 0x6970667358 0x22 SLT KECCAK256 0xA5 DUP4 CALLDATASIZE PUSH10 0x205728B57720F457D075 0x27 DUP2 SWAP9 DUP15 0xC8 0xBE 0xF 0xD6 0xE6 0xE1 0xD6 0xD 0xC8 PUSH7 0x444155E464736F PUSH13 0x634300081A0033000000000000 "
				},
				"gasEstimates": {
					"creation": {
						"codeDepositCost": "712000",
						"executionCost": "infinite",
						"totalCost": "infinite"
					},
					"external": {
						"DeptHead()": "infinite",
						"Marks()": "2448",
						"deptName()": "infinite",
						"displayDepartmentDetails()": "infinite",
						"displayStudentReportCard()": "infinite",
						"getCollegeCode()": "2476",
						"getCollegeName()": "infinite",
						"regNo()": "2492",
						"setDepartmentDetails(string,string)": "infinite",
						"studentName()": "infinite"
					}
				},
				"methodIdentifiers": {
					"DeptHead()": "176ee95f",
					"Marks()": "4ed5a232",
					"deptName()": "b975abb3",
					"displayDepartmentDetails()": "df404d5c",
					"displayStudentReportCard()": "9bbb62aa",
					"getCollegeCode()": "b8ce08ea",
					"getCollegeName()": "6c08283f",
					"regNo()": "6ef9a278",
					"setDepartmentDetails(string,string)": "735f5aec",
					"studentName()": "b508ba31"
				}
			},
			"storageLayout": {
				"storage": [
					{
						"astId": 14,
						"contract": "Day-09/D9P2.sol:Student",
						"label": "deptName",
						"offset": 0,
						"slot": "0",
						"type": "t_string_storage"
					},
					{
						"astId": 16,
						"contract": "Day-09/D9P2.sol:Student",
						"label": "DeptHead",
						"offset": 0,
						"slot": "1",
						"type": "t_string_storage"
					},
					{
						"astId": 51,
						"contract": "Day-09/D9P2.sol:Student",
						"label": "studentName",
						"offset": 0,
						"slot": "2",
						"type": "t_string_storage"
					},
					{
						"astId": 53,
						"contract": "Day-09/D9P2.sol:Student",
						"label": "regNo",
						"offset": 0,
						"slot": "3",
						"type": "t_uint256"
					},
					{
						"astId": 55,
						"contract": "Day-09/D9P2.sol:Student",
						"label": "Marks",
						"offset": 0,
						"slot": "4",
						"type": "t_uint256"
					},
					{
						"astId": 57,
						"contract": "Day-09/D9P2.sol:Student",
						"label": "collegeName",
						"offset": 0,
						"slot": "5",
						"type": "t_string_storage"
					},
					{
						"astId": 59,
						"contract": "Day-09/D9P2.sol:Student",
						"label": "collegeCode",
						"offset": 0,
						"slot": "6",
						"type": "t_uint256"
					}
				],
				"types": {
					"t_string_storage": {
						"encoding": "bytes",
						"label": "string",
						"numberOfBytes": "32"
					},
					"t_uint256": {
						"encoding": "inplace",
						"label": "uint256",
						"numberOfBytes": "32"
					}
				}
			},
			"userdoc": {
				"kind": "user",
				"methods": {},
				"version": 1
			}
		}
	}
}