{
	"data": {
		"bytecode": {
			"linkReferences": {},
			"object": "6080604052348015600e575f80fd5b50610f118061001c5f395ff3fe608060405234801561000f575f80fd5b5060043610610029575f3560e01c806323475a101461002d575b5f80fd5b61004760048036038101906100429190610410565b610062565b60405161005996959493929190610496565b60405180910390f35b5f805f805f805f8b604051610076906103b2565b61008091906104f5565b604051809103905ff080158015610099573d5f803e3d5ffd5b5090505f8b8b6040516100ab906103bf565b6100b692919061050e565b604051809103905ff0801580156100cf573d5f803e3d5ffd5b5090505f8a8a6040516100e1906103cc565b6100ec92919061050e565b604051809103905ff080158015610105573d5f803e3d5ffd5b5090508273ffffffffffffffffffffffffffffffffffffffff166389e7995f6040518163ffffffff1660e01b8152600401602060405180830381865afa158015610151573d5f803e3d5ffd5b505050506040513d601f19601f820116820180604052508101906101759190610549565b98508273ffffffffffffffffffffffffffffffffffffffff1663c618a1e46040518163ffffffff1660e01b8152600401602060405180830381865afa1580156101c0573d5f803e3d5ffd5b505050506040513d601f19601f820116820180604052508101906101e49190610549565b97508173ffffffffffffffffffffffffffffffffffffffff166389e7995f6040518163ffffffff1660e01b8152600401602060405180830381865afa15801561022f573d5f803e3d5ffd5b505050506040513d601f19601f820116820180604052508101906102539190610549565b96508173ffffffffffffffffffffffffffffffffffffffff1663c618a1e46040518163ffffffff1660e01b8152600401602060405180830381865afa15801561029e573d5f803e3d5ffd5b505050506040513d601f19601f820116820180604052508101906102c29190610549565b95508073ffffffffffffffffffffffffffffffffffffffff166389e7995f6040518163ffffffff1660e01b8152600401602060405180830381865afa15801561030d573d5f803e3d5ffd5b505050506040513d601f19601f820116820180604052508101906103319190610549565b94508073ffffffffffffffffffffffffffffffffffffffff1663c618a1e46040518163ffffffff1660e01b8152600401602060405180830381865afa15801561037c573d5f803e3d5ffd5b505050506040513d601f19601f820116820180604052508101906103a09190610549565b93505050509550955095509550955095565b6102558061057583390190565b610373806107ca83390190565b61039f80610b3d83390190565b5f80fd5b5f819050919050565b6103ef816103dd565b81146103f9575f80fd5b50565b5f8135905061040a816103e6565b92915050565b5f805f805f60a08688031215610429576104286103d9565b5b5f610436888289016103fc565b9550506020610447888289016103fc565b9450506040610458888289016103fc565b9350506060610469888289016103fc565b925050608061047a888289016103fc565b9150509295509295909350565b610490816103dd565b82525050565b5f60c0820190506104a95f830189610487565b6104b66020830188610487565b6104c36040830187610487565b6104d06060830186610487565b6104dd6080830185610487565b6104ea60a0830184610487565b979650505050505050565b5f6020820190506105085f830184610487565b92915050565b5f6040820190506105215f830185610487565b61052e6020830184610487565b9392505050565b5f81519050610543816103e6565b92915050565b5f6020828403121561055e5761055d6103d9565b5b5f61056b84828501610535565b9150509291505056fe6080604052348015600e575f80fd5b506040516102553803806102558339818101604052810190602e9190606b565b805f81905550506091565b5f80fd5b5f819050919050565b604d81603d565b81146056575f80fd5b50565b5f815190506065816046565b92915050565b5f60208284031215607d57607c6039565b5b5f6088848285016059565b91505092915050565b6101b78061009e5f395ff3fe608060405234801561000f575f80fd5b506004361061003f575f3560e01c80638475c0281461004357806389e7995f14610061578063c618a1e41461007f575b5f80fd5b61004b61009d565b60405161005891906100fa565b60405180910390f35b6100696100a2565b60405161007691906100fa565b60405180910390f35b6100876100c2565b60405161009491906100fa565b60405180910390f35b5f5481565b5f80545f5460066100b39190610140565b6100bd9190610140565b905090565b5f80545f545f546100d39190610140565b6100dd9190610140565b905090565b5f819050919050565b6100f4816100e2565b82525050565b5f60208201905061010d5f8301846100eb565b92915050565b7f4e487b71000000000000000000000000000000000000000000000000000000005f52601160045260245ffd5b5f61014a826100e2565b9150610155836100e2565b9250828202610163816100e2565b9150828204841483151761017a57610179610113565b5b509291505056fea264697066735822122088b37bc2778bb729e158d4ce17daed3e5ef838d05acbb5b8c58bf7270f0ee40064736f6c634300081a00336080604052348015600e575f80fd5b506040516103733803806103738339818101604052810190602e91906073565b815f8190555080600181905550505060aa565b5f80fd5b5f819050919050565b6055816045565b8114605e575f80fd5b50565b5f81519050606d81604e565b92915050565b5f806040838503121560865760856041565b5b5f6091858286016061565b925050602060a0858286016061565b9150509250929050565b6102bc806100b75f395ff3fe608060405234801561000f575f80fd5b506004361061004a575f3560e01c80630ef267431461004e578063217f43531461006c57806389e7995f1461008a578063c618a1e4146100a8575b5f80fd5b6100566100c6565b604051610063919061016f565b60405180910390f35b6100746100cc565b604051610081919061016f565b60405180910390f35b6100926100d1565b60405161009f919061016f565b60405180910390f35b6100b061011a565b6040516100bd919061016f565b60405180910390f35b60015481565b5f5481565b5f620f42406001545f546100e591906101b5565b5f54622fefd860026100f791906101e8565b61010191906101e8565b61010b91906101e8565b6101159190610256565b905090565b5f620f42406001545f545f54622fefd861013491906101e8565b61013e91906101e8565b61014891906101e8565b6101529190610256565b905090565b5f819050919050565b61016981610157565b82525050565b5f6020820190506101825f830184610160565b92915050565b7f4e487b71000000000000000000000000000000000000000000000000000000005f52601160045260245ffd5b5f6101bf82610157565b91506101ca83610157565b92508282019050808211156101e2576101e1610188565b5b92915050565b5f6101f282610157565b91506101fd83610157565b925082820261020b81610157565b9150828204841483151761022257610221610188565b5b5092915050565b7f4e487b71000000000000000000000000000000000000000000000000000000005f52601260045260245ffd5b5f61026082610157565b915061026b83610157565b92508261027b5761027a610229565b5b82820490509291505056fea26469706673582212205490f56daaeef06afe651c0454898a42674f10b2ae066c35d4a46d0540822be264736f6c634300081a00336080604052348015600e575f80fd5b5060405161039f38038061039f8339818101604052810190602e91906073565b815f8190555080600181905550505060aa565b5f80fd5b5f819050919050565b6055816045565b8114605e575f80fd5b50565b5f81519050606d81604e565b92915050565b5f806040838503121560865760856041565b5b5f6091858286016061565b925050602060a0858286016061565b9150509250929050565b6102e8806100b75f395ff3fe608060405234801561000f575f80fd5b506004361061004a575f3560e01c80630ef267431461004e578063217f43531461006c57806389e7995f1461008a578063c618a1e4146100a8575b5f80fd5b6100566100c6565b604051610063919061019b565b60405180910390f35b6100746100cc565b604051610081919061019b565b60405180910390f35b6100926100d1565b60405161009f919061019b565b60405180910390f35b6100b0610146565b6040516100bd919061019b565b60405180910390f35b60015481565b5f5481565b5f80620f42406001546001546100e791906101e1565b5f545f546100f591906101e1565b6100ff9190610222565b6101099190610282565b9050620f4240815f5461011c9190610222565b5f54622fefd861012c91906101e1565b61013691906101e1565b6101409190610282565b91505090565b5f622dc6c06001545f545f54622fefd861016091906101e1565b61016a91906101e1565b61017491906101e1565b61017e9190610282565b905090565b5f819050919050565b61019581610183565b82525050565b5f6020820190506101ae5f83018461018c565b92915050565b7f4e487b71000000000000000000000000000000000000000000000000000000005f52601160045260245ffd5b5f6101eb82610183565b91506101f683610183565b925082820261020481610183565b9150828204841483151761021b5761021a6101b4565b5b5092915050565b5f61022c82610183565b915061023783610183565b925082820190508082111561024f5761024e6101b4565b5b92915050565b7f4e487b71000000000000000000000000000000000000000000000000000000005f52601260045260245ffd5b5f61028c82610183565b915061029783610183565b9250826102a7576102a6610255565b5b82820490509291505056fea26469706673582212205533bbe5ea0db7ae21570f046bcb0192e22a3ebcf203823388f6d88a4fc44ba464736f6c634300081a0033a2646970667358221220f38ca0e250bead87a7f55f2359a9cf55e4963f3f069d97a7fc4a16f175a9137064736f6c634300081a0033",
			"opcodes": "PUSH1 0x80 PUSH1 0x40 MSTORE CALLVALUE DUP1 ISZERO PUSH1 0xE JUMPI PUSH0 DUP1 REVERT JUMPDEST POP PUSH2 0xF11 DUP1 PUSH2 0x1C PUSH0 CODECOPY PUSH0 RETURN INVALID PUSH1 0x80 PUSH1 0x40 MSTORE CALLVALUE DUP1 ISZERO PUSH2 0xF JUMPI PUSH0 DUP1 REVERT JUMPDEST POP PUSH1 0x4 CALLDATASIZE LT PUSH2 0x29 JUMPI PUSH0 CALLDATALOAD PUSH1 0xE0 SHR DUP1 PUSH4 0x23475A10 EQ PUSH2 0x2D JUMPI JUMPDEST PUSH0 DUP1 REVERT JUMPDEST PUSH2 0x47 PUSH1 0x4 DUP1 CALLDATASIZE SUB DUP2 ADD SWAP1 PUSH2 0x42 SWAP2 SWAP1 PUSH2 0x410 JUMP JUMPDEST PUSH2 0x62 JUMP JUMPDEST PUSH1 0x40 MLOAD PUSH2 0x59 SWAP7 SWAP6 SWAP5 SWAP4 SWAP3 SWAP2 SWAP1 PUSH2 0x496 JUMP JUMPDEST PUSH1 0x40 MLOAD DUP1 SWAP2 SUB SWAP1 RETURN JUMPDEST PUSH0 DUP1 PUSH0 DUP1 PUSH0 DUP1 PUSH0 DUP12 PUSH1 0x40 MLOAD PUSH2 0x76 SWAP1 PUSH2 0x3B2 JUMP JUMPDEST PUSH2 0x80 SWAP2 SWAP1 PUSH2 0x4F5 JUMP JUMPDEST PUSH1 0x40 MLOAD DUP1 SWAP2 SUB SWAP1 PUSH0 CREATE DUP1 ISZERO DUP1 ISZERO PUSH2 0x99 JUMPI RETURNDATASIZE PUSH0 DUP1 RETURNDATACOPY RETURNDATASIZE PUSH0 REVERT JUMPDEST POP SWAP1 POP PUSH0 DUP12 DUP12 PUSH1 0x40 MLOAD PUSH2 0xAB SWAP1 PUSH2 0x3BF JUMP JUMPDEST PUSH2 0xB6 SWAP3 SWAP2 SWAP1 PUSH2 0x50E JUMP JUMPDEST PUSH1 0x40 MLOAD DUP1 SWAP2 SUB SWAP1 PUSH0 CREATE DUP1 ISZERO DUP1 ISZERO PUSH2 0xCF JUMPI RETURNDATASIZE PUSH0 DUP1 RETURNDATACOPY RETURNDATASIZE PUSH0 REVERT JUMPDEST POP SWAP1 POP PUSH0 DUP11 DUP11 PUSH1 0x40 MLOAD PUSH2 0xE1 SWAP1 PUSH2 0x3CC JUMP JUMPDEST PUSH2 0xEC SWAP3 SWAP2 SWAP1 PUSH2 0x50E JUMP JUMPDEST PUSH1 0x40 MLOAD DUP1 SWAP2 SUB SWAP1 PUSH0 CREATE DUP1 ISZERO DUP1 ISZERO PUSH2 0x105 JUMPI RETURNDATASIZE PUSH0 DUP1 RETURNDATACOPY RETURNDATASIZE PUSH0 REVERT JUMPDEST POP SWAP1 POP DUP3 PUSH20 0xFFFFFFFFFFFFFFFFFFFFFFFFFFFFFFFFFFFFFFFF AND PUSH4 0x89E7995F PUSH1 0x40 MLOAD DUP2 PUSH4 0xFFFFFFFF AND PUSH1 0xE0 SHL DUP2 MSTORE PUSH1 0x4 ADD PUSH1 0x20 PUSH1 0x40 MLOAD DUP1 DUP4 SUB DUP2 DUP7 GAS STATICCALL ISZERO DUP1 ISZERO PUSH2 0x151 JUMPI RETURNDATASIZE PUSH0 DUP1 RETURNDATACOPY RETURNDATASIZE PUSH0 REVERT JUMPDEST POP POP POP POP PUSH1 0x40 MLOAD RETURNDATASIZE PUSH1 0x1F NOT PUSH1 0x1F DUP3 ADD AND DUP3 ADD DUP1 PUSH1 0x40 MSTORE POP DUP2 ADD SWAP1 PUSH2 0x175 SWAP2 SWAP1 PUSH2 0x549 JUMP JUMPDEST SWAP9 POP DUP3 PUSH20 0xFFFFFFFFFFFFFFFFFFFFFFFFFFFFFFFFFFFFFFFF AND PUSH4 0xC618A1E4 PUSH1 0x40 MLOAD DUP2 PUSH4 0xFFFFFFFF AND PUSH1 0xE0 SHL DUP2 MSTORE PUSH1 0x4 ADD PUSH1 0x20 PUSH1 0x40 MLOAD DUP1 DUP4 SUB DUP2 DUP7 GAS STATICCALL ISZERO DUP1 ISZERO PUSH2 0x1C0 JUMPI RETURNDATASIZE PUSH0 DUP1 RETURNDATACOPY RETURNDATASIZE PUSH0 REVERT JUMPDEST POP POP POP POP PUSH1 0x40 MLOAD RETURNDATASIZE PUSH1 0x1F NOT PUSH1 0x1F DUP3 ADD AND DUP3 ADD DUP1 PUSH1 0x40 MSTORE POP DUP2 ADD SWAP1 PUSH2 0x1E4 SWAP2 SWAP1 PUSH2 0x549 JUMP JUMPDEST SWAP8 POP DUP2 PUSH20 0xFFFFFFFFFFFFFFFFFFFFFFFFFFFFFFFFFFFFFFFF AND PUSH4 0x89E7995F PUSH1 0x40 MLOAD DUP2 PUSH4 0xFFFFFFFF AND PUSH1 0xE0 SHL DUP2 MSTORE PUSH1 0x4 ADD PUSH1 0x20 PUSH1 0x40 MLOAD DUP1 DUP4 SUB DUP2 DUP7 GAS STATICCALL ISZERO DUP1 ISZERO PUSH2 0x22F JUMPI RETURNDATASIZE PUSH0 DUP1 RETURNDATACOPY RETURNDATASIZE PUSH0 REVERT JUMPDEST POP POP POP POP PUSH1 0x40 MLOAD RETURNDATASIZE PUSH1 0x1F NOT PUSH1 0x1F DUP3 ADD AND DUP3 ADD DUP1 PUSH1 0x40 MSTORE POP DUP2 ADD SWAP1 PUSH2 0x253 SWAP2 SWAP1 PUSH2 0x549 JUMP JUMPDEST SWAP7 POP DUP2 PUSH20 0xFFFFFFFFFFFFFFFFFFFFFFFFFFFFFFFFFFFFFFFF AND PUSH4 0xC618A1E4 PUSH1 0x40 MLOAD DUP2 PUSH4 0xFFFFFFFF AND PUSH1 0xE0 SHL DUP2 MSTORE PUSH1 0x4 ADD PUSH1 0x20 PUSH1 0x40 MLOAD DUP1 DUP4 SUB DUP2 DUP7 GAS STATICCALL ISZERO DUP1 ISZERO PUSH2 0x29E JUMPI RETURNDATASIZE PUSH0 DUP1 RETURNDATACOPY RETURNDATASIZE PUSH0 REVERT JUMPDEST POP POP POP POP PUSH1 0x40 MLOAD RETURNDATASIZE PUSH1 0x1F NOT PUSH1 0x1F DUP3 ADD AND DUP3 ADD DUP1 PUSH1 0x40 MSTORE POP DUP2 ADD SWAP1 PUSH2 0x2C2 SWAP2 SWAP1 PUSH2 0x549 JUMP JUMPDEST SWAP6 POP DUP1 PUSH20 0xFFFFFFFFFFFFFFFFFFFFFFFFFFFFFFFFFFFFFFFF AND PUSH4 0x89E7995F PUSH1 0x40 MLOAD DUP2 PUSH4 0xFFFFFFFF AND PUSH1 0xE0 SHL DUP2 MSTORE PUSH1 0x4 ADD PUSH1 0x20 PUSH1 0x40 MLOAD DUP1 DUP4 SUB DUP2 DUP7 GAS STATICCALL ISZERO DUP1 ISZERO PUSH2 0x30D JUMPI RETURNDATASIZE PUSH0 DUP1 RETURNDATACOPY RETURNDATASIZE PUSH0 REVERT JUMPDEST POP POP POP POP PUSH1 0x40 MLOAD RETURNDATASIZE PUSH1 0x1F NOT PUSH1 0x1F DUP3 ADD AND DUP3 ADD DUP1 PUSH1 0x40 MSTORE POP DUP2 ADD SWAP1 PUSH2 0x331 SWAP2 SWAP1 PUSH2 0x549 JUMP JUMPDEST SWAP5 POP DUP1 PUSH20 0xFFFFFFFFFFFFFFFFFFFFFFFFFFFFFFFFFFFFFFFF AND PUSH4 0xC618A1E4 PUSH1 0x40 MLOAD DUP2 PUSH4 0xFFFFFFFF AND PUSH1 0xE0 SHL DUP2 MSTORE PUSH1 0x4 ADD PUSH1 0x20 PUSH1 0x40 MLOAD DUP1 DUP4 SUB DUP2 DUP7 GAS STATICCALL ISZERO DUP1 ISZERO PUSH2 0x37C JUMPI RETURNDATASIZE PUSH0 DUP1 RETURNDATACOPY RETURNDATASIZE PUSH0 REVERT JUMPDEST POP POP POP POP PUSH1 0x40 MLOAD RETURNDATASIZE PUSH1 0x1F NOT PUSH1 0x1F DUP3 ADD AND DUP3 ADD DUP1 PUSH1 0x40 MSTORE POP DUP2 ADD SWAP1 PUSH2 0x3A0 SWAP2 SWAP1 PUSH2 0x549 JUMP JUMPDEST SWAP4 POP POP POP POP SWAP6 POP SWAP6 POP SWAP6 POP SWAP6 POP SWAP6 POP SWAP6 JUMP JUMPDEST PUSH2 0x255 DUP1 PUSH2 0x575 DUP4 CODECOPY ADD SWAP1 JUMP JUMPDEST PUSH2 0x373 DUP1 PUSH2 0x7CA DUP4 CODECOPY ADD SWAP1 JUMP JUMPDEST PUSH2 0x39F DUP1 PUSH2 0xB3D DUP4 CODECOPY ADD SWAP1 JUMP JUMPDEST PUSH0 DUP1 REVERT JUMPDEST PUSH0 DUP2 SWAP1 POP SWAP2 SWAP1 POP JUMP JUMPDEST PUSH2 0x3EF DUP2 PUSH2 0x3DD JUMP JUMPDEST DUP2 EQ PUSH2 0x3F9 JUMPI PUSH0 DUP1 REVERT JUMPDEST POP JUMP JUMPDEST PUSH0 DUP2 CALLDATALOAD SWAP1 POP PUSH2 0x40A DUP2 PUSH2 0x3E6 JUMP JUMPDEST SWAP3 SWAP2 POP POP JUMP JUMPDEST PUSH0 DUP1 PUSH0 DUP1 PUSH0 PUSH1 0xA0 DUP7 DUP9 SUB SLT ISZERO PUSH2 0x429 JUMPI PUSH2 0x428 PUSH2 0x3D9 JUMP JUMPDEST JUMPDEST PUSH0 PUSH2 0x436 DUP9 DUP3 DUP10 ADD PUSH2 0x3FC JUMP JUMPDEST SWAP6 POP POP PUSH1 0x20 PUSH2 0x447 DUP9 DUP3 DUP10 ADD PUSH2 0x3FC JUMP JUMPDEST SWAP5 POP POP PUSH1 0x40 PUSH2 0x458 DUP9 DUP3 DUP10 ADD PUSH2 0x3FC JUMP JUMPDEST SWAP4 POP POP PUSH1 0x60 PUSH2 0x469 DUP9 DUP3 DUP10 ADD PUSH2 0x3FC JUMP JUMPDEST SWAP3 POP POP PUSH1 0x80 PUSH2 0x47A DUP9 DUP3 DUP10 ADD PUSH2 0x3FC JUMP JUMPDEST SWAP2 POP POP SWAP3 SWAP6 POP SWAP3 SWAP6 SWAP1 SWAP4 POP JUMP JUMPDEST PUSH2 0x490 DUP2 PUSH2 0x3DD JUMP JUMPDEST DUP3 MSTORE POP POP JUMP JUMPDEST PUSH0 PUSH1 0xC0 DUP3 ADD SWAP1 POP PUSH2 0x4A9 PUSH0 DUP4 ADD DUP10 PUSH2 0x487 JUMP JUMPDEST PUSH2 0x4B6 PUSH1 0x20 DUP4 ADD DUP9 PUSH2 0x487 JUMP JUMPDEST PUSH2 0x4C3 PUSH1 0x40 DUP4 ADD DUP8 PUSH2 0x487 JUMP JUMPDEST PUSH2 0x4D0 PUSH1 0x60 DUP4 ADD DUP7 PUSH2 0x487 JUMP JUMPDEST PUSH2 0x4DD PUSH1 0x80 DUP4 ADD DUP6 PUSH2 0x487 JUMP JUMPDEST PUSH2 0x4EA PUSH1 0xA0 DUP4 ADD DUP5 PUSH2 0x487 JUMP JUMPDEST SWAP8 SWAP7 POP POP POP POP POP POP POP JUMP JUMPDEST PUSH0 PUSH1 0x20 DUP3 ADD SWAP1 POP PUSH2 0x508 PUSH0 DUP4 ADD DUP5 PUSH2 0x487 JUMP JUMPDEST SWAP3 SWAP2 POP POP JUMP JUMPDEST PUSH0 PUSH1 0x40 DUP3 ADD SWAP1 POP PUSH2 0x521 PUSH0 DUP4 ADD DUP6 PUSH2 0x487 JUMP JUMPDEST PUSH2 0x52E PUSH1 0x20 DUP4 ADD DUP5 PUSH2 0x487 JUMP JUMPDEST SWAP4 SWAP3 POP POP POP JUMP JUMPDEST PUSH0 DUP2 MLOAD SWAP1 POP PUSH2 0x543 DUP2 PUSH2 0x3E6 JUMP JUMPDEST SWAP3 SWAP2 POP POP JUMP JUMPDEST PUSH0 PUSH1 0x20 DUP3 DUP5 SUB SLT ISZERO PUSH2 0x55E JUMPI PUSH2 0x55D PUSH2 0x3D9 JUMP JUMPDEST JUMPDEST PUSH0 PUSH2 0x56B DUP5 DUP3 DUP6 ADD PUSH2 0x535 JUMP JUMPDEST SWAP2 POP POP SWAP3 SWAP2 POP POP JUMP INVALID PUSH1 0x80 PUSH1 0x40 MSTORE CALLVALUE DUP1 ISZERO PUSH1 0xE JUMPI PUSH0 DUP1 REVERT JUMPDEST POP PUSH1 0x40 MLOAD PUSH2 0x255 CODESIZE SUB DUP1 PUSH2 0x255 DUP4 CODECOPY DUP2 DUP2 ADD PUSH1 0x40 MSTORE DUP2 ADD SWAP1 PUSH1 0x2E SWAP2 SWAP1 PUSH1 0x6B JUMP JUMPDEST DUP1 PUSH0 DUP2 SWAP1 SSTORE POP POP PUSH1 0x91 JUMP JUMPDEST PUSH0 DUP1 REVERT JUMPDEST PUSH0 DUP2 SWAP1 POP SWAP2 SWAP1 POP JUMP JUMPDEST PUSH1 0x4D DUP2 PUSH1 0x3D JUMP JUMPDEST DUP2 EQ PUSH1 0x56 JUMPI PUSH0 DUP1 REVERT JUMPDEST POP JUMP JUMPDEST PUSH0 DUP2 MLOAD SWAP1 POP PUSH1 0x65 DUP2 PUSH1 0x46 JUMP JUMPDEST SWAP3 SWAP2 POP POP JUMP JUMPDEST PUSH0 PUSH1 0x20 DUP3 DUP5 SUB SLT ISZERO PUSH1 0x7D JUMPI PUSH1 0x7C PUSH1 0x39 JUMP JUMPDEST JUMPDEST PUSH0 PUSH1 0x88 DUP5 DUP3 DUP6 ADD PUSH1 0x59 JUMP JUMPDEST SWAP2 POP POP SWAP3 SWAP2 POP POP JUMP JUMPDEST PUSH2 0x1B7 DUP1 PUSH2 0x9E PUSH0 CODECOPY PUSH0 RETURN INVALID PUSH1 0x80 PUSH1 0x40 MSTORE CALLVALUE DUP1 ISZERO PUSH2 0xF JUMPI PUSH0 DUP1 REVERT JUMPDEST POP PUSH1 0x4 CALLDATASIZE LT PUSH2 0x3F JUMPI PUSH0 CALLDATALOAD PUSH1 0xE0 SHR DUP1 PUSH4 0x8475C028 EQ PUSH2 0x43 JUMPI DUP1 PUSH4 0x89E7995F EQ PUSH2 0x61 JUMPI DUP1 PUSH4 0xC618A1E4 EQ PUSH2 0x7F JUMPI JUMPDEST PUSH0 DUP1 REVERT JUMPDEST PUSH2 0x4B PUSH2 0x9D JUMP JUMPDEST PUSH1 0x40 MLOAD PUSH2 0x58 SWAP2 SWAP1 PUSH2 0xFA JUMP JUMPDEST PUSH1 0x40 MLOAD DUP1 SWAP2 SUB SWAP1 RETURN JUMPDEST PUSH2 0x69 PUSH2 0xA2 JUMP JUMPDEST PUSH1 0x40 MLOAD PUSH2 0x76 SWAP2 SWAP1 PUSH2 0xFA JUMP JUMPDEST PUSH1 0x40 MLOAD DUP1 SWAP2 SUB SWAP1 RETURN JUMPDEST PUSH2 0x87 PUSH2 0xC2 JUMP JUMPDEST PUSH1 0x40 MLOAD PUSH2 0x94 SWAP2 SWAP1 PUSH2 0xFA JUMP JUMPDEST PUSH1 0x40 MLOAD DUP1 SWAP2 SUB SWAP1 RETURN JUMPDEST PUSH0 SLOAD DUP2 JUMP JUMPDEST PUSH0 DUP1 SLOAD PUSH0 SLOAD PUSH1 0x6 PUSH2 0xB3 SWAP2 SWAP1 PUSH2 0x140 JUMP JUMPDEST PUSH2 0xBD SWAP2 SWAP1 PUSH2 0x140 JUMP JUMPDEST SWAP1 POP SWAP1 JUMP JUMPDEST PUSH0 DUP1 SLOAD PUSH0 SLOAD PUSH0 SLOAD PUSH2 0xD3 SWAP2 SWAP1 PUSH2 0x140 JUMP JUMPDEST PUSH2 0xDD SWAP2 SWAP1 PUSH2 0x140 JUMP JUMPDEST SWAP1 POP SWAP1 JUMP JUMPDEST PUSH0 DUP2 SWAP1 POP SWAP2 SWAP1 POP JUMP JUMPDEST PUSH2 0xF4 DUP2 PUSH2 0xE2 JUMP JUMPDEST DUP3 MSTORE POP POP JUMP JUMPDEST PUSH0 PUSH1 0x20 DUP3 ADD SWAP1 POP PUSH2 0x10D PUSH0 DUP4 ADD DUP5 PUSH2 0xEB JUMP JUMPDEST SWAP3 SWAP2 POP POP JUMP JUMPDEST PUSH32 0x4E487B7100000000000000000000000000000000000000000000000000000000 PUSH0 MSTORE PUSH1 0x11 PUSH1 0x4 MSTORE PUSH1 0x24 PUSH0 REVERT JUMPDEST PUSH0 PUSH2 0x14A DUP3 PUSH2 0xE2 JUMP JUMPDEST SWAP2 POP PUSH2 0x155 DUP4 PUSH2 0xE2 JUMP JUMPDEST SWAP3 POP DUP3 DUP3 MUL PUSH2 0x163 DUP2 PUSH2 0xE2 JUMP JUMPDEST SWAP2 POP DUP3 DUP3 DIV DUP5 EQ DUP4 ISZERO OR PUSH2 0x17A JUMPI PUSH2 0x179 PUSH2 0x113 JUMP JUMPDEST JUMPDEST POP SWAP3 SWAP2 POP POP JUMP INVALID LOG2 PUSH5 0x6970667358 0x22 SLT KECCAK256 DUP9 0xB3 PUSH28 0xC2778BB729E158D4CE17DAED3E5EF838D05ACBB5B8C58BF7270F0EE4 STOP PUSH5 0x736F6C6343 STOP ADDMOD BYTE STOP CALLER PUSH1 0x80 PUSH1 0x40 MSTORE CALLVALUE DUP1 ISZERO PUSH1 0xE JUMPI PUSH0 DUP1 REVERT JUMPDEST POP PUSH1 0x40 MLOAD PUSH2 0x373 CODESIZE SUB DUP1 PUSH2 0x373 DUP4 CODECOPY DUP2 DUP2 ADD PUSH1 0x40 MSTORE DUP2 ADD SWAP1 PUSH1 0x2E SWAP2 SWAP1 PUSH1 0x73 JUMP JUMPDEST DUP2 PUSH0 DUP2 SWAP1 SSTORE POP DUP1 PUSH1 0x1 DUP2 SWAP1 SSTORE POP POP POP PUSH1 0xAA JUMP JUMPDEST PUSH0 DUP1 REVERT JUMPDEST PUSH0 DUP2 SWAP1 POP SWAP2 SWAP1 POP JUMP JUMPDEST PUSH1 0x55 DUP2 PUSH1 0x45 JUMP JUMPDEST DUP2 EQ PUSH1 0x5E JUMPI PUSH0 DUP1 REVERT JUMPDEST POP JUMP JUMPDEST PUSH0 DUP2 MLOAD SWAP1 POP PUSH1 0x6D DUP2 PUSH1 0x4E JUMP JUMPDEST SWAP3 SWAP2 POP POP JUMP JUMPDEST PUSH0 DUP1 PUSH1 0x40 DUP4 DUP6 SUB SLT ISZERO PUSH1 0x86 JUMPI PUSH1 0x85 PUSH1 0x41 JUMP JUMPDEST JUMPDEST PUSH0 PUSH1 0x91 DUP6 DUP3 DUP7 ADD PUSH1 0x61 JUMP JUMPDEST SWAP3 POP POP PUSH1 0x20 PUSH1 0xA0 DUP6 DUP3 DUP7 ADD PUSH1 0x61 JUMP JUMPDEST SWAP2 POP POP SWAP3 POP SWAP3 SWAP1 POP JUMP JUMPDEST PUSH2 0x2BC DUP1 PUSH2 0xB7 PUSH0 CODECOPY PUSH0 RETURN INVALID PUSH1 0x80 PUSH1 0x40 MSTORE CALLVALUE DUP1 ISZERO PUSH2 0xF JUMPI PUSH0 DUP1 REVERT JUMPDEST POP PUSH1 0x4 CALLDATASIZE LT PUSH2 0x4A JUMPI PUSH0 CALLDATALOAD PUSH1 0xE0 SHR DUP1 PUSH4 0xEF26743 EQ PUSH2 0x4E JUMPI DUP1 PUSH4 0x217F4353 EQ PUSH2 0x6C JUMPI DUP1 PUSH4 0x89E7995F EQ PUSH2 0x8A JUMPI DUP1 PUSH4 0xC618A1E4 EQ PUSH2 0xA8 JUMPI JUMPDEST PUSH0 DUP1 REVERT JUMPDEST PUSH2 0x56 PUSH2 0xC6 JUMP JUMPDEST PUSH1 0x40 MLOAD PUSH2 0x63 SWAP2 SWAP1 PUSH2 0x16F JUMP JUMPDEST PUSH1 0x40 MLOAD DUP1 SWAP2 SUB SWAP1 RETURN JUMPDEST PUSH2 0x74 PUSH2 0xCC JUMP JUMPDEST PUSH1 0x40 MLOAD PUSH2 0x81 SWAP2 SWAP1 PUSH2 0x16F JUMP JUMPDEST PUSH1 0x40 MLOAD DUP1 SWAP2 SUB SWAP1 RETURN JUMPDEST PUSH2 0x92 PUSH2 0xD1 JUMP JUMPDEST PUSH1 0x40 MLOAD PUSH2 0x9F SWAP2 SWAP1 PUSH2 0x16F JUMP JUMPDEST PUSH1 0x40 MLOAD DUP1 SWAP2 SUB SWAP1 RETURN JUMPDEST PUSH2 0xB0 PUSH2 0x11A JUMP JUMPDEST PUSH1 0x40 MLOAD PUSH2 0xBD SWAP2 SWAP1 PUSH2 0x16F JUMP JUMPDEST PUSH1 0x40 MLOAD DUP1 SWAP2 SUB SWAP1 RETURN JUMPDEST PUSH1 0x1 SLOAD DUP2 JUMP JUMPDEST PUSH0 SLOAD DUP2 JUMP JUMPDEST PUSH0 PUSH3 0xF4240 PUSH1 0x1 SLOAD PUSH0 SLOAD PUSH2 0xE5 SWAP2 SWAP1 PUSH2 0x1B5 JUMP JUMPDEST PUSH0 SLOAD PUSH3 0x2FEFD8 PUSH1 0x2 PUSH2 0xF7 SWAP2 SWAP1 PUSH2 0x1E8 JUMP JUMPDEST PUSH2 0x101 SWAP2 SWAP1 PUSH2 0x1E8 JUMP JUMPDEST PUSH2 0x10B SWAP2 SWAP1 PUSH2 0x1E8 JUMP JUMPDEST PUSH2 0x115 SWAP2 SWAP1 PUSH2 0x256 JUMP JUMPDEST SWAP1 POP SWAP1 JUMP JUMPDEST PUSH0 PUSH3 0xF4240 PUSH1 0x1 SLOAD PUSH0 SLOAD PUSH0 SLOAD PUSH3 0x2FEFD8 PUSH2 0x134 SWAP2 SWAP1 PUSH2 0x1E8 JUMP JUMPDEST PUSH2 0x13E SWAP2 SWAP1 PUSH2 0x1E8 JUMP JUMPDEST PUSH2 0x148 SWAP2 SWAP1 PUSH2 0x1E8 JUMP JUMPDEST PUSH2 0x152 SWAP2 SWAP1 PUSH2 0x256 JUMP JUMPDEST SWAP1 POP SWAP1 JUMP JUMPDEST PUSH0 DUP2 SWAP1 POP SWAP2 SWAP1 POP JUMP JUMPDEST PUSH2 0x169 DUP2 PUSH2 0x157 JUMP JUMPDEST DUP3 MSTORE POP POP JUMP JUMPDEST PUSH0 PUSH1 0x20 DUP3 ADD SWAP1 POP PUSH2 0x182 PUSH0 DUP4 ADD DUP5 PUSH2 0x160 JUMP JUMPDEST SWAP3 SWAP2 POP POP JUMP JUMPDEST PUSH32 0x4E487B7100000000000000000000000000000000000000000000000000000000 PUSH0 MSTORE PUSH1 0x11 PUSH1 0x4 MSTORE PUSH1 0x24 PUSH0 REVERT JUMPDEST PUSH0 PUSH2 0x1BF DUP3 PUSH2 0x157 JUMP JUMPDEST SWAP2 POP PUSH2 0x1CA DUP4 PUSH2 0x157 JUMP JUMPDEST SWAP3 POP DUP3 DUP3 ADD SWAP1 POP DUP1 DUP3 GT ISZERO PUSH2 0x1E2 JUMPI PUSH2 0x1E1 PUSH2 0x188 JUMP JUMPDEST JUMPDEST SWAP3 SWAP2 POP POP JUMP JUMPDEST PUSH0 PUSH2 0x1F2 DUP3 PUSH2 0x157 JUMP JUMPDEST SWAP2 POP PUSH2 0x1FD DUP4 PUSH2 0x157 JUMP JUMPDEST SWAP3 POP DUP3 DUP3 MUL PUSH2 0x20B DUP2 PUSH2 0x157 JUMP JUMPDEST SWAP2 POP DUP3 DUP3 DIV DUP5 EQ DUP4 ISZERO OR PUSH2 0x222 JUMPI PUSH2 0x221 PUSH2 0x188 JUMP JUMPDEST JUMPDEST POP SWAP3 SWAP2 POP POP JUMP JUMPDEST PUSH32 0x4E487B7100000000000000000000000000000000000000000000000000000000 PUSH0 MSTORE PUSH1 0x12 PUSH1 0x4 MSTORE PUSH1 0x24 PUSH0 REVERT JUMPDEST PUSH0 PUSH2 0x260 DUP3 PUSH2 0x157 JUMP JUMPDEST SWAP2 POP PUSH2 0x26B DUP4 PUSH2 0x157 JUMP JUMPDEST SWAP3 POP DUP3 PUSH2 0x27B JUMPI PUSH2 0x27A PUSH2 0x229 JUMP JUMPDEST JUMPDEST DUP3 DUP3 DIV SWAP1 POP SWAP3 SWAP2 POP POP JUMP INVALID LOG2 PUSH5 0x6970667358 0x22 SLT KECCAK256 SLOAD SWAP1 CREATE2 PUSH14 0xAAEEF06AFE651C0454898A42674F LT 0xB2 0xAE MOD PUSH13 0x35D4A46D0540822BE264736F6C PUSH4 0x4300081A STOP CALLER PUSH1 0x80 PUSH1 0x40 MSTORE CALLVALUE DUP1 ISZERO PUSH1 0xE JUMPI PUSH0 DUP1 REVERT JUMPDEST POP PUSH1 0x40 MLOAD PUSH2 0x39F CODESIZE SUB DUP1 PUSH2 0x39F DUP4 CODECOPY DUP2 DUP2 ADD PUSH1 0x40 MSTORE DUP2 ADD SWAP1 PUSH1 0x2E SWAP2 SWAP1 PUSH1 0x73 JUMP JUMPDEST DUP2 PUSH0 DUP2 SWAP1 SSTORE POP DUP1 PUSH1 0x1 DUP2 SWAP1 SSTORE POP POP POP PUSH1 0xAA JUMP JUMPDEST PUSH0 DUP1 REVERT JUMPDEST PUSH0 DUP2 SWAP1 POP SWAP2 SWAP1 POP JUMP JUMPDEST PUSH1 0x55 DUP2 PUSH1 0x45 JUMP JUMPDEST DUP2 EQ PUSH1 0x5E JUMPI PUSH0 DUP1 REVERT JUMPDEST POP JUMP JUMPDEST PUSH0 DUP2 MLOAD SWAP1 POP PUSH1 0x6D DUP2 PUSH1 0x4E JUMP JUMPDEST SWAP3 SWAP2 POP POP JUMP JUMPDEST PUSH0 DUP1 PUSH1 0x40 DUP4 DUP6 SUB SLT ISZERO PUSH1 0x86 JUMPI PUSH1 0x85 PUSH1 0x41 JUMP JUMPDEST JUMPDEST PUSH0 PUSH1 0x91 DUP6 DUP3 DUP7 ADD PUSH1 0x61 JUMP JUMPDEST SWAP3 POP POP PUSH1 0x20 PUSH1 0xA0 DUP6 DUP3 DUP7 ADD PUSH1 0x61 JUMP JUMPDEST SWAP2 POP POP SWAP3 POP SWAP3 SWAP1 POP JUMP JUMPDEST PUSH2 0x2E8 DUP1 PUSH2 0xB7 PUSH0 CODECOPY PUSH0 RETURN INVALID PUSH1 0x80 PUSH1 0x40 MSTORE CALLVALUE DUP1 ISZERO PUSH2 0xF JUMPI PUSH0 DUP1 REVERT JUMPDEST POP PUSH1 0x4 CALLDATASIZE LT PUSH2 0x4A JUMPI PUSH0 CALLDATALOAD PUSH1 0xE0 SHR DUP1 PUSH4 0xEF26743 EQ PUSH2 0x4E JUMPI DUP1 PUSH4 0x217F4353 EQ PUSH2 0x6C JUMPI DUP1 PUSH4 0x89E7995F EQ PUSH2 0x8A JUMPI DUP1 PUSH4 0xC618A1E4 EQ PUSH2 0xA8 JUMPI JUMPDEST PUSH0 DUP1 REVERT JUMPDEST PUSH2 0x56 PUSH2 0xC6 JUMP JUMPDEST PUSH1 0x40 MLOAD PUSH2 0x63 SWAP2 SWAP1 PUSH2 0x19B JUMP JUMPDEST PUSH1 0x40 MLOAD DUP1 SWAP2 SUB SWAP1 RETURN JUMPDEST PUSH2 0x74 PUSH2 0xCC JUMP JUMPDEST PUSH1 0x40 MLOAD PUSH2 0x81 SWAP2 SWAP1 PUSH2 0x19B JUMP JUMPDEST PUSH1 0x40 MLOAD DUP1 SWAP2 SUB SWAP1 RETURN JUMPDEST PUSH2 0x92 PUSH2 0xD1 JUMP JUMPDEST PUSH1 0x40 MLOAD PUSH2 0x9F SWAP2 SWAP1 PUSH2 0x19B JUMP JUMPDEST PUSH1 0x40 MLOAD DUP1 SWAP2 SUB SWAP1 RETURN JUMPDEST PUSH2 0xB0 PUSH2 0x146 JUMP JUMPDEST PUSH1 0x40 MLOAD PUSH2 0xBD SWAP2 SWAP1 PUSH2 0x19B JUMP JUMPDEST PUSH1 0x40 MLOAD DUP1 SWAP2 SUB SWAP1 RETURN JUMPDEST PUSH1 0x1 SLOAD DUP2 JUMP JUMPDEST PUSH0 SLOAD DUP2 JUMP JUMPDEST PUSH0 DUP1 PUSH3 0xF4240 PUSH1 0x1 SLOAD PUSH1 0x1 SLOAD PUSH2 0xE7 SWAP2 SWAP1 PUSH2 0x1E1 JUMP JUMPDEST PUSH0 SLOAD PUSH0 SLOAD PUSH2 0xF5 SWAP2 SWAP1 PUSH2 0x1E1 JUMP JUMPDEST PUSH2 0xFF SWAP2 SWAP1 PUSH2 0x222 JUMP JUMPDEST PUSH2 0x109 SWAP2 SWAP1 PUSH2 0x282 JUMP JUMPDEST SWAP1 POP PUSH3 0xF4240 DUP2 PUSH0 SLOAD PUSH2 0x11C SWAP2 SWAP1 PUSH2 0x222 JUMP JUMPDEST PUSH0 SLOAD PUSH3 0x2FEFD8 PUSH2 0x12C SWAP2 SWAP1 PUSH2 0x1E1 JUMP JUMPDEST PUSH2 0x136 SWAP2 SWAP1 PUSH2 0x1E1 JUMP JUMPDEST PUSH2 0x140 SWAP2 SWAP1 PUSH2 0x282 JUMP JUMPDEST SWAP2 POP POP SWAP1 JUMP JUMPDEST PUSH0 PUSH3 0x2DC6C0 PUSH1 0x1 SLOAD PUSH0 SLOAD PUSH0 SLOAD PUSH3 0x2FEFD8 PUSH2 0x160 SWAP2 SWAP1 PUSH2 0x1E1 JUMP JUMPDEST PUSH2 0x16A SWAP2 SWAP1 PUSH2 0x1E1 JUMP JUMPDEST PUSH2 0x174 SWAP2 SWAP1 PUSH2 0x1E1 JUMP JUMPDEST PUSH2 0x17E SWAP2 SWAP1 PUSH2 0x282 JUMP JUMPDEST SWAP1 POP SWAP1 JUMP JUMPDEST PUSH0 DUP2 SWAP1 POP SWAP2 SWAP1 POP JUMP JUMPDEST PUSH2 0x195 DUP2 PUSH2 0x183 JUMP JUMPDEST DUP3 MSTORE POP POP JUMP JUMPDEST PUSH0 PUSH1 0x20 DUP3 ADD SWAP1 POP PUSH2 0x1AE PUSH0 DUP4 ADD DUP5 PUSH2 0x18C JUMP JUMPDEST SWAP3 SWAP2 POP POP JUMP JUMPDEST PUSH32 0x4E487B7100000000000000000000000000000000000000000000000000000000 PUSH0 MSTORE PUSH1 0x11 PUSH1 0x4 MSTORE PUSH1 0x24 PUSH0 REVERT JUMPDEST PUSH0 PUSH2 0x1EB DUP3 PUSH2 0x183 JUMP JUMPDEST SWAP2 POP PUSH2 0x1F6 DUP4 PUSH2 0x183 JUMP JUMPDEST SWAP3 POP DUP3 DUP3 MUL PUSH2 0x204 DUP2 PUSH2 0x183 JUMP JUMPDEST SWAP2 POP DUP3 DUP3 DIV DUP5 EQ DUP4 ISZERO OR PUSH2 0x21B JUMPI PUSH2 0x21A PUSH2 0x1B4 JUMP JUMPDEST JUMPDEST POP SWAP3 SWAP2 POP POP JUMP JUMPDEST PUSH0 PUSH2 0x22C DUP3 PUSH2 0x183 JUMP JUMPDEST SWAP2 POP PUSH2 0x237 DUP4 PUSH2 0x183 JUMP JUMPDEST SWAP3 POP DUP3 DUP3 ADD SWAP1 POP DUP1 DUP3 GT ISZERO PUSH2 0x24F JUMPI PUSH2 0x24E PUSH2 0x1B4 JUMP JUMPDEST JUMPDEST SWAP3 SWAP2 POP POP JUMP JUMPDEST PUSH32 0x4E487B7100000000000000000000000000000000000000000000000000000000 PUSH0 MSTORE PUSH1 0x12 PUSH1 0x4 MSTORE PUSH1 0x24 PUSH0 REVERT JUMPDEST PUSH0 PUSH2 0x28C DUP3 PUSH2 0x183 JUMP JUMPDEST SWAP2 POP PUSH2 0x297 DUP4 PUSH2 0x183 JUMP JUMPDEST SWAP3 POP DUP3 PUSH2 0x2A7 JUMPI PUSH2 0x2A6 PUSH2 0x255 JUMP JUMPDEST JUMPDEST DUP3 DUP3 DIV SWAP1 POP SWAP3 SWAP2 POP POP JUMP INVALID LOG2 PUSH5 0x6970667358 0x22 SLT KECCAK256 SSTORE CALLER 0xBB 0xE5 0xEA 0xD 0xB7 0xAE 0x21 JUMPI 0xF DIV PUSH12 0xCB0192E22A3EBCF203823388 0xF6 0xD8 DUP11 0x4F 0xC4 0x4B LOG4 PUSH5 0x736F6C6343 STOP ADDMOD BYTE STOP CALLER LOG2 PUSH5 0x6970667358 0x22 SLT KECCAK256 RETURN DUP13 LOG0 0xE2 POP 0xBE 0xAD DUP8 0xA7 CREATE2 PUSH0 0x23 MSIZE 0xA9 0xCF SSTORE 0xE4 SWAP7 EXTCODEHASH EXTCODEHASH MOD SWAP14 SWAP8 0xA7 0xFC BLOBBASEFEE AND CALL PUSH22 0xA9137064736F6C634300081A00330000000000000000 "
		},
		"gasEstimates": {
			"creation": {
				"codeDepositCost": "771400",
				"executionCost": "803",
				"totalCost": "772203"
			},
			"external": {
				"testShapes(uint256,uint256,uint256,uint256,uint256)": "infinite"
			}
		},
		"methodIdentifiers": {
			"testShapes(uint256,uint256,uint256,uint256,uint256)": "23475a10"
		}
	},
	"abi": [
		{
			"inputs": [
				{
					"internalType": "uint256",
					"name": "cubeSide",
					"type": "uint256"
				},
				{
					"internalType": "uint256",
					"name": "cylRadius",
					"type": "uint256"
				},
				{
					"internalType": "uint256",
					"name": "cylHeight",
					"type": "uint256"
				},
				{
					"internalType": "uint256",
					"name": "coneRadius",
					"type": "uint256"
				},
				{
					"internalType": "uint256",
					"name": "coneHeight",
					"type": "uint256"
				}
			],
			"name": "testShapes",
			"outputs": [
				{
					"internalType": "uint256",
					"name": "cubeSA",
					"type": "uint256"
				},
				{
					"internalType": "uint256",
					"name": "cubeVol",
					"type": "uint256"
				},
				{
					"internalType": "uint256",
					"name": "cylSA",
					"type": "uint256"
				},
				{
					"internalType": "uint256",
					"name": "cylVol",
					"type": "uint256"
				},
				{
					"internalType": "uint256",
					"name": "coneSA",
					"type": "uint256"
				},
				{
					"internalType": "uint256",
					"name": "coneVol",
					"type": "uint256"
				}
			],
			"stateMutability": "nonpayable",
			"type": "function"
		}
	]
}