{
	"data": {
		"bytecode": {
			"linkReferences": {},
			"object": "6080604052348015600e575f80fd5b506121698061001c5f395ff3fe608060405234801561000f575f80fd5b506004361061004a575f3560e01c806306ead22e1461004e578063086d0dc81461007e578063be9efc3e1461009a578063d6aafbcc146100b6575b5f80fd5b610068600480360381019061006391906107bf565b6100ee565b6040516100759190610864565b60405180910390f35b610098600480360381019061009391906109b9565b610128565b005b6100b460048036038101906100af9190610a55565b610372565b005b6100d060048036038101906100cb91906107bf565b61041c565b6040516100e599989796959493929190610c30565b60405180910390f35b5f81815481106100fc575f80fd5b905f5260205f20015f915054906101000a900473ffffffffffffffffffffffffffffffffffffffff1681565b5f80858154811061013c5761013b610ce5565b5b905f5260205f20015f9054906101000a900473ffffffffffffffffffffffffffffffffffffffff1690505f8173ffffffffffffffffffffffffffffffffffffffff16635fd7b16a6040518163ffffffff1660e01b81526004015f60405180830381865afa1580156101af573d5f803e3d5ffd5b505050506040513d5f823e3d601f19601f820116820180604052508101906101d79190610d94565b93505050505f805f8473ffffffffffffffffffffffffffffffffffffffff16635fd7b16a6040518163ffffffff1660e01b81526004015f60405180830381865afa158015610227573d5f803e3d5ffd5b505050506040513d5f823e3d601f19601f8201168201806040525081019061024f9190610d94565b509250925092505f808673ffffffffffffffffffffffffffffffffffffffff1663bb489e806040518163ffffffff1660e01b81526004015f60405180830381865afa1580156102a0573d5f803e3d5ffd5b505050506040513d5f823e3d601f19601f820116820180604052508101906102c89190610e30565b91509150848484888d8d8d88886040516102e19061076e565b6102f399989796959493929190610c30565b604051809103905ff08015801561030c573d5f803e3d5ffd5b505f8c815481106103205761031f610ce5565b5b905f5260205f20015f6101000a81548173ffffffffffffffffffffffffffffffffffffffff021916908373ffffffffffffffffffffffffffffffffffffffff1602179055505050505050505050505050565b5f8989898989898989896040516103889061076e565b61039a99989796959493929190610c30565b604051809103905ff0801580156103b3573d5f803e3d5ffd5b50908060018154018082558091505060019003905f5260205f20015f9091909190916101000a81548173ffffffffffffffffffffffffffffffffffffffff021916908373ffffffffffffffffffffffffffffffffffffffff160217905550505050505050505050565b60605f60605f6060805f6060805f5b5f80549050811015610725575f80828154811061044b5761044a610ce5565b5b905f5260205f20015f9054906101000a900473ffffffffffffffffffffffffffffffffffffffff1673ffffffffffffffffffffffffffffffffffffffff16635fd7b16a6040518163ffffffff1660e01b81526004015f60405180830381865afa1580156104ba573d5f803e3d5ffd5b505050506040513d5f823e3d601f19601f820116820180604052508101906104e29190610d94565b50509150508b8103610717575f828154811061050157610500610ce5565b5b905f5260205f20015f9054906101000a900473ffffffffffffffffffffffffffffffffffffffff1673ffffffffffffffffffffffffffffffffffffffff16635fd7b16a6040518163ffffffff1660e01b81526004015f60405180830381865afa158015610570573d5f803e3d5ffd5b505050506040513d5f823e3d601f19601f820116820180604052508101906105989190610d94565b809b50819c50829d50839e50505050505f82815481106105bb576105ba610ce5565b5b905f5260205f20015f9054906101000a900473ffffffffffffffffffffffffffffffffffffffff1673ffffffffffffffffffffffffffffffffffffffff1663c48cb7ba6040518163ffffffff1660e01b81526004015f60405180830381865afa15801561062a573d5f803e3d5ffd5b505050506040513d5f823e3d601f19601f820116820180604052508101906106529190610ea6565b8097508198508299505050505f828154811061067157610670610ce5565b5b905f5260205f20015f9054906101000a900473ffffffffffffffffffffffffffffffffffffffff1673ffffffffffffffffffffffffffffffffffffffff1663bb489e806040518163ffffffff1660e01b81526004015f60405180830381865afa1580156106e0573d5f803e3d5ffd5b505050506040513d5f823e3d601f19601f820116820180604052508101906107089190610e30565b80945081955050505050610761565b50808060010191505061042b565b506040517f08c379a000000000000000000000000000000000000000000000000000000000815260040161075890610f78565b60405180910390fd5b9193959799909294969850565b61119d80610f9783390190565b5f604051905090565b5f80fd5b5f80fd5b5f819050919050565b61079e8161078c565b81146107a8575f80fd5b50565b5f813590506107b981610795565b92915050565b5f602082840312156107d4576107d3610784565b5b5f6107e1848285016107ab565b91505092915050565b5f73ffffffffffffffffffffffffffffffffffffffff82169050919050565b5f819050919050565b5f61082c610827610822846107ea565b610809565b6107ea565b9050919050565b5f61083d82610812565b9050919050565b5f61084e82610833565b9050919050565b61085e81610844565b82525050565b5f6020820190506108775f830184610855565b92915050565b5f80fd5b5f80fd5b5f601f19601f8301169050919050565b7f4e487b71000000000000000000000000000000000000000000000000000000005f52604160045260245ffd5b6108cb82610885565b810181811067ffffffffffffffff821117156108ea576108e9610895565b5b80604052505050565b5f6108fc61077b565b905061090882826108c2565b919050565b5f67ffffffffffffffff82111561092757610926610895565b5b61093082610885565b9050602081019050919050565b828183375f83830152505050565b5f61095d6109588461090d565b6108f3565b90508281526020810184848401111561097957610978610881565b5b61098484828561093d565b509392505050565b5f82601f8301126109a05761099f61087d565b5b81356109b084826020860161094b565b91505092915050565b5f805f80608085870312156109d1576109d0610784565b5b5f6109de878288016107ab565b945050602085013567ffffffffffffffff8111156109ff576109fe610788565b5b610a0b8782880161098c565b935050604085013567ffffffffffffffff811115610a2c57610a2b610788565b5b610a388782880161098c565b9250506060610a49878288016107ab565b91505092959194509250565b5f805f805f805f805f6101208a8c031215610a7357610a72610784565b5b5f8a013567ffffffffffffffff811115610a9057610a8f610788565b5b610a9c8c828d0161098c565b9950506020610aad8c828d016107ab565b98505060408a013567ffffffffffffffff811115610ace57610acd610788565b5b610ada8c828d0161098c565b9750506060610aeb8c828d016107ab565b96505060808a013567ffffffffffffffff811115610b0c57610b0b610788565b5b610b188c828d0161098c565b95505060a08a013567ffffffffffffffff811115610b3957610b38610788565b5b610b458c828d0161098c565b94505060c0610b568c828d016107ab565b93505060e08a013567ffffffffffffffff811115610b7757610b76610788565b5b610b838c828d0161098c565b9250506101008a013567ffffffffffffffff811115610ba557610ba4610788565b5b610bb18c828d0161098c565b9150509295985092959850929598565b5f81519050919050565b5f82825260208201905092915050565b8281835e5f83830152505050565b5f610bf382610bc1565b610bfd8185610bcb565b9350610c0d818560208601610bdb565b610c1681610885565b840191505092915050565b610c2a8161078c565b82525050565b5f610120820190508181035f830152610c49818c610be9565b9050610c58602083018b610c21565b8181036040830152610c6a818a610be9565b9050610c796060830189610c21565b8181036080830152610c8b8188610be9565b905081810360a0830152610c9f8187610be9565b9050610cae60c0830186610c21565b81810360e0830152610cc08185610be9565b9050818103610100830152610cd58184610be9565b90509a9950505050505050505050565b7f4e487b71000000000000000000000000000000000000000000000000000000005f52603260045260245ffd5b5f610d24610d1f8461090d565b6108f3565b905082815260208101848484011115610d4057610d3f610881565b5b610d4b848285610bdb565b509392505050565b5f82601f830112610d6757610d6661087d565b5b8151610d77848260208601610d12565b91505092915050565b5f81519050610d8e81610795565b92915050565b5f805f8060808587031215610dac57610dab610784565b5b5f85015167ffffffffffffffff811115610dc957610dc8610788565b5b610dd587828801610d53565b9450506020610de687828801610d80565b935050604085015167ffffffffffffffff811115610e0757610e06610788565b5b610e1387828801610d53565b9250506060610e2487828801610d80565b91505092959194509250565b5f8060408385031215610e4657610e45610784565b5b5f83015167ffffffffffffffff811115610e6357610e62610788565b5b610e6f85828601610d53565b925050602083015167ffffffffffffffff811115610e9057610e8f610788565b5b610e9c85828601610d53565b9150509250929050565b5f805f60608486031215610ebd57610ebc610784565b5b5f84015167ffffffffffffffff811115610eda57610ed9610788565b5b610ee686828701610d53565b935050602084015167ffffffffffffffff811115610f0757610f06610788565b5b610f1386828701610d53565b9250506040610f2486828701610d80565b9150509250925092565b7f53747564656e74206e6f7420666f756e640000000000000000000000000000005f82015250565b5f610f62601183610bcb565b9150610f6d82610f2e565b602082019050919050565b5f6020820190508181035f830152610f8f81610f56565b905091905056fe608060405234801561000f575f80fd5b5060405161119d38038061119d83398181016040528101906100319190610239565b848484825f908161004291906105a9565b50816001908161005291906105a9565b5080600281905550505050886003908161006c91906105a9565b5087600481905550866005908161008391906105a9565b5085600681905550816007908161009a91906105a9565b5080600890816100aa91906105a9565b50505050505050505050610678565b5f604051905090565b5f80fd5b5f80fd5b5f80fd5b5f80fd5b5f601f19601f8301169050919050565b7f4e487b71000000000000000000000000000000000000000000000000000000005f52604160045260245ffd5b610118826100d2565b810181811067ffffffffffffffff82111715610137576101366100e2565b5b80604052505050565b5f6101496100b9565b9050610155828261010f565b919050565b5f67ffffffffffffffff821115610174576101736100e2565b5b61017d826100d2565b9050602081019050919050565b8281835e5f83830152505050565b5f6101aa6101a58461015a565b610140565b9050828152602081018484840111156101c6576101c56100ce565b5b6101d184828561018a565b509392505050565b5f82601f8301126101ed576101ec6100ca565b5b81516101fd848260208601610198565b91505092915050565b5f819050919050565b61021881610206565b8114610222575f80fd5b50565b5f815190506102338161020f565b92915050565b5f805f805f805f805f6101208a8c031215610257576102566100c2565b5b5f8a015167ffffffffffffffff811115610274576102736100c6565b5b6102808c828d016101d9565b99505060206102918c828d01610225565b98505060408a015167ffffffffffffffff8111156102b2576102b16100c6565b5b6102be8c828d016101d9565b97505060606102cf8c828d01610225565b96505060808a015167ffffffffffffffff8111156102f0576102ef6100c6565b5b6102fc8c828d016101d9565b95505060a08a015167ffffffffffffffff81111561031d5761031c6100c6565b5b6103298c828d016101d9565b94505060c061033a8c828d01610225565b93505060e08a015167ffffffffffffffff81111561035b5761035a6100c6565b5b6103678c828d016101d9565b9250506101008a015167ffffffffffffffff811115610389576103886100c6565b5b6103958c828d016101d9565b9150509295985092959850929598565b5f81519050919050565b7f4e487b71000000000000000000000000000000000000000000000000000000005f52602260045260245ffd5b5f60028204905060018216806103f357607f821691505b602082108103610406576104056103af565b5b50919050565b5f819050815f5260205f209050919050565b5f6020601f8301049050919050565b5f82821b905092915050565b5f600883026104687fffffffffffffffffffffffffffffffffffffffffffffffffffffffffffffffff8261042d565b610472868361042d565b95508019841693508086168417925050509392505050565b5f819050919050565b5f6104ad6104a86104a384610206565b61048a565b610206565b9050919050565b5f819050919050565b6104c683610493565b6104da6104d2826104b4565b848454610439565b825550505050565b5f90565b6104ee6104e2565b6104f98184846104bd565b505050565b5b8181101561051c576105115f826104e6565b6001810190506104ff565b5050565b601f821115610561576105328161040c565b61053b8461041e565b8101602085101561054a578190505b61055e6105568561041e565b8301826104fe565b50505b505050565b5f82821c905092915050565b5f6105815f1984600802610566565b1980831691505092915050565b5f6105998383610572565b9150826002028217905092915050565b6105b2826103a5565b67ffffffffffffffff8111156105cb576105ca6100e2565b5b6105d582546103dc565b6105e0828285610520565b5f60209050601f831160018114610611575f84156105ff578287015190505b610609858261058e565b865550610670565b601f19841661061f8661040c565b5f5b8281101561064657848901518255600182019150602085019450602081019050610621565b86831015610663578489015161065f601f891682610572565b8355505b6001600288020188555050505b505050505050565b610b18806106855f395ff3fe608060405234801561000f575f80fd5b50600436106100b2575f3560e01c8063bb489e801161006f578063bb489e801461016d578063c48cb7ba1461018c578063c607ba4d146101ac578063cb9cb0c2146101ca578063d57831f5146101e8578063eb96548f14610206576100b2565b806311ebae41146100b65780635fd7b16a146100d45780638d1d2d90146100f557806399d568b314610113578063b508ba3114610131578063b975abb31461014f575b5f80fd5b6100be610224565b6040516100cb919061096b565b60405180910390f35b6100dc6102b0565b6040516100ec94939291906109a3565b60405180910390f35b6100fd6103e2565b60405161010a91906109f4565b60405180910390f35b61011b6103e8565b60405161012891906109f4565b60405180910390f35b6101396103ee565b604051610146919061096b565b60405180910390f35b61015761047a565b604051610164919061096b565b60405180910390f35b610175610506565b604051610183929190610a0d565b60405180910390f35b610194610629565b6040516101a393929190610a42565b60405180910390f35b6101b4610752565b6040516101c1919061096b565b60405180910390f35b6101d26107de565b6040516101df919061096b565b60405180910390f35b6101f0610869565b6040516101fd91906109f4565b60405180910390f35b61020e61086f565b60405161021b919061096b565b60405180910390f35b6001805461023190610ab2565b80601f016020809104026020016040519081016040528092919081815260200182805461025d90610ab2565b80156102a85780601f1061027f576101008083540402835291602001916102a8565b820191905f5260205f20905b81548152906001019060200180831161028b57829003601f168201915b505050505081565b60605f60605f600360045460056006548380546102cc90610ab2565b80601f01602080910402602001604051908101604052809291908181526020018280546102f890610ab2565b80156103435780601f1061031a57610100808354040283529160200191610343565b820191905f5260205f20905b81548152906001019060200180831161032657829003601f168201915b5050505050935081805461035690610ab2565b80601f016020809104026020016040519081016040528092919081815260200182805461038290610ab2565b80156103cd5780601f106103a4576101008083540402835291602001916103cd565b820191905f5260205f20905b8154815290600101906020018083116103b057829003601f168201915b50505050509150935093509350935090919293565b60045481565b60025481565b600380546103fb90610ab2565b80601f016020809104026020016040519081016040528092919081815260200182805461042790610ab2565b80156104725780601f1061044957610100808354040283529160200191610472565b820191905f5260205f20905b81548152906001019060200180831161045557829003601f168201915b505050505081565b6007805461048790610ab2565b80601f01602080910402602001604051908101604052809291908181526020018280546104b390610ab2565b80156104fe5780601f106104d5576101008083540402835291602001916104fe565b820191905f5260205f20905b8154815290600101906020018083116104e157829003601f168201915b505050505081565b6060806007600881805461051990610ab2565b80601f016020809104026020016040519081016040528092919081815260200182805461054590610ab2565b80156105905780601f1061056757610100808354040283529160200191610590565b820191905f5260205f20905b81548152906001019060200180831161057357829003601f168201915b505050505091508080546105a390610ab2565b80601f01602080910402602001604051908101604052809291908181526020018280546105cf90610ab2565b801561061a5780601f106105f15761010080835404028352916020019161061a565b820191905f5260205f20905b8154815290600101906020018083116105fd57829003601f168201915b50505050509050915091509091565b6060805f80600160025482805461063f90610ab2565b80601f016020809104026020016040519081016040528092919081815260200182805461066b90610ab2565b80156106b65780601f1061068d576101008083540402835291602001916106b6565b820191905f5260205f20905b81548152906001019060200180831161069957829003601f168201915b505050505092508180546106c990610ab2565b80601f01602080910402602001604051908101604052809291908181526020018280546106f590610ab2565b80156107405780601f1061071757610100808354040283529160200191610740565b820191905f5260205f20905b81548152906001019060200180831161072357829003601f168201915b50505050509150925092509250909192565b6005805461075f90610ab2565b80601f016020809104026020016040519081016040528092919081815260200182805461078b90610ab2565b80156107d65780601f106107ad576101008083540402835291602001916107d6565b820191905f5260205f20905b8154815290600101906020018083116107b957829003601f168201915b505050505081565b5f80546107ea90610ab2565b80601f016020809104026020016040519081016040528092919081815260200182805461081690610ab2565b80156108615780601f1061083857610100808354040283529160200191610861565b820191905f5260205f20905b81548152906001019060200180831161084457829003601f168201915b505050505081565b60065481565b6008805461087c90610ab2565b80601f01602080910402602001604051908101604052809291908181526020018280546108a890610ab2565b80156108f35780601f106108ca576101008083540402835291602001916108f3565b820191905f5260205f20905b8154815290600101906020018083116108d657829003601f168201915b505050505081565b5f81519050919050565b5f82825260208201905092915050565b8281835e5f83830152505050565b5f601f19601f8301169050919050565b5f61093d826108fb565b6109478185610905565b9350610957818560208601610915565b61096081610923565b840191505092915050565b5f6020820190508181035f8301526109838184610933565b905092915050565b5f819050919050565b61099d8161098b565b82525050565b5f6080820190508181035f8301526109bb8187610933565b90506109ca6020830186610994565b81810360408301526109dc8185610933565b90506109eb6060830184610994565b95945050505050565b5f602082019050610a075f830184610994565b92915050565b5f6040820190508181035f830152610a258185610933565b90508181036020830152610a398184610933565b90509392505050565b5f6060820190508181035f830152610a5a8186610933565b90508181036020830152610a6e8185610933565b9050610a7d6040830184610994565b949350505050565b7f4e487b71000000000000000000000000000000000000000000000000000000005f52602260045260245ffd5b5f6002820490506001821680610ac957607f821691505b602082108103610adc57610adb610a85565b5b5091905056fea26469706673582212207bab9cd9c6d46d6798bd2505239909d706d807d24ea99a947a9fbf62923d5cce64736f6c634300081a0033a264697066735822122093c201aa519a8390b2c1bf8206ea41b12f3c3d687381bce65e0d50356793c76964736f6c634300081a0033",
			"opcodes": "PUSH1 0x80 PUSH1 0x40 MSTORE CALLVALUE DUP1 ISZERO PUSH1 0xE JUMPI PUSH0 DUP1 REVERT JUMPDEST POP PUSH2 0x2169 DUP1 PUSH2 0x1C PUSH0 CODECOPY PUSH0 RETURN INVALID PUSH1 0x80 PUSH1 0x40 MSTORE CALLVALUE DUP1 ISZERO PUSH2 0xF JUMPI PUSH0 DUP1 REVERT JUMPDEST POP PUSH1 0x4 CALLDATASIZE LT PUSH2 0x4A JUMPI PUSH0 CALLDATALOAD PUSH1 0xE0 SHR DUP1 PUSH4 0x6EAD22E EQ PUSH2 0x4E JUMPI DUP1 PUSH4 0x86D0DC8 EQ PUSH2 0x7E JUMPI DUP1 PUSH4 0xBE9EFC3E EQ PUSH2 0x9A JUMPI DUP1 PUSH4 0xD6AAFBCC EQ PUSH2 0xB6 JUMPI JUMPDEST PUSH0 DUP1 REVERT JUMPDEST PUSH2 0x68 PUSH1 0x4 DUP1 CALLDATASIZE SUB DUP2 ADD SWAP1 PUSH2 0x63 SWAP2 SWAP1 PUSH2 0x7BF JUMP JUMPDEST PUSH2 0xEE JUMP JUMPDEST PUSH1 0x40 MLOAD PUSH2 0x75 SWAP2 SWAP1 PUSH2 0x864 JUMP JUMPDEST PUSH1 0x40 MLOAD DUP1 SWAP2 SUB SWAP1 RETURN JUMPDEST PUSH2 0x98 PUSH1 0x4 DUP1 CALLDATASIZE SUB DUP2 ADD SWAP1 PUSH2 0x93 SWAP2 SWAP1 PUSH2 0x9B9 JUMP JUMPDEST PUSH2 0x128 JUMP JUMPDEST STOP JUMPDEST PUSH2 0xB4 PUSH1 0x4 DUP1 CALLDATASIZE SUB DUP2 ADD SWAP1 PUSH2 0xAF SWAP2 SWAP1 PUSH2 0xA55 JUMP JUMPDEST PUSH2 0x372 JUMP JUMPDEST STOP JUMPDEST PUSH2 0xD0 PUSH1 0x4 DUP1 CALLDATASIZE SUB DUP2 ADD SWAP1 PUSH2 0xCB SWAP2 SWAP1 PUSH2 0x7BF JUMP JUMPDEST PUSH2 0x41C JUMP JUMPDEST PUSH1 0x40 MLOAD PUSH2 0xE5 SWAP10 SWAP9 SWAP8 SWAP7 SWAP6 SWAP5 SWAP4 SWAP3 SWAP2 SWAP1 PUSH2 0xC30 JUMP JUMPDEST PUSH1 0x40 MLOAD DUP1 SWAP2 SUB SWAP1 RETURN JUMPDEST PUSH0 DUP2 DUP2 SLOAD DUP2 LT PUSH2 0xFC JUMPI PUSH0 DUP1 REVERT JUMPDEST SWAP1 PUSH0 MSTORE PUSH1 0x20 PUSH0 KECCAK256 ADD PUSH0 SWAP2 POP SLOAD SWAP1 PUSH2 0x100 EXP SWAP1 DIV PUSH20 0xFFFFFFFFFFFFFFFFFFFFFFFFFFFFFFFFFFFFFFFF AND DUP2 JUMP JUMPDEST PUSH0 DUP1 DUP6 DUP2 SLOAD DUP2 LT PUSH2 0x13C JUMPI PUSH2 0x13B PUSH2 0xCE5 JUMP JUMPDEST JUMPDEST SWAP1 PUSH0 MSTORE PUSH1 0x20 PUSH0 KECCAK256 ADD PUSH0 SWAP1 SLOAD SWAP1 PUSH2 0x100 EXP SWAP1 DIV PUSH20 0xFFFFFFFFFFFFFFFFFFFFFFFFFFFFFFFFFFFFFFFF AND SWAP1 POP PUSH0 DUP2 PUSH20 0xFFFFFFFFFFFFFFFFFFFFFFFFFFFFFFFFFFFFFFFF AND PUSH4 0x5FD7B16A PUSH1 0x40 MLOAD DUP2 PUSH4 0xFFFFFFFF AND PUSH1 0xE0 SHL DUP2 MSTORE PUSH1 0x4 ADD PUSH0 PUSH1 0x40 MLOAD DUP1 DUP4 SUB DUP2 DUP7 GAS STATICCALL ISZERO DUP1 ISZERO PUSH2 0x1AF JUMPI RETURNDATASIZE PUSH0 DUP1 RETURNDATACOPY RETURNDATASIZE PUSH0 REVERT JUMPDEST POP POP POP POP PUSH1 0x40 MLOAD RETURNDATASIZE PUSH0 DUP3 RETURNDATACOPY RETURNDATASIZE PUSH1 0x1F NOT PUSH1 0x1F DUP3 ADD AND DUP3 ADD DUP1 PUSH1 0x40 MSTORE POP DUP2 ADD SWAP1 PUSH2 0x1D7 SWAP2 SWAP1 PUSH2 0xD94 JUMP JUMPDEST SWAP4 POP POP POP POP PUSH0 DUP1 PUSH0 DUP5 PUSH20 0xFFFFFFFFFFFFFFFFFFFFFFFFFFFFFFFFFFFFFFFF AND PUSH4 0x5FD7B16A PUSH1 0x40 MLOAD DUP2 PUSH4 0xFFFFFFFF AND PUSH1 0xE0 SHL DUP2 MSTORE PUSH1 0x4 ADD PUSH0 PUSH1 0x40 MLOAD DUP1 DUP4 SUB DUP2 DUP7 GAS STATICCALL ISZERO DUP1 ISZERO PUSH2 0x227 JUMPI RETURNDATASIZE PUSH0 DUP1 RETURNDATACOPY RETURNDATASIZE PUSH0 REVERT JUMPDEST POP POP POP POP PUSH1 0x40 MLOAD RETURNDATASIZE PUSH0 DUP3 RETURNDATACOPY RETURNDATASIZE PUSH1 0x1F NOT PUSH1 0x1F DUP3 ADD AND DUP3 ADD DUP1 PUSH1 0x40 MSTORE POP DUP2 ADD SWAP1 PUSH2 0x24F SWAP2 SWAP1 PUSH2 0xD94 JUMP JUMPDEST POP SWAP3 POP SWAP3 POP SWAP3 POP PUSH0 DUP1 DUP7 PUSH20 0xFFFFFFFFFFFFFFFFFFFFFFFFFFFFFFFFFFFFFFFF AND PUSH4 0xBB489E80 PUSH1 0x40 MLOAD DUP2 PUSH4 0xFFFFFFFF AND PUSH1 0xE0 SHL DUP2 MSTORE PUSH1 0x4 ADD PUSH0 PUSH1 0x40 MLOAD DUP1 DUP4 SUB DUP2 DUP7 GAS STATICCALL ISZERO DUP1 ISZERO PUSH2 0x2A0 JUMPI RETURNDATASIZE PUSH0 DUP1 RETURNDATACOPY RETURNDATASIZE PUSH0 REVERT JUMPDEST POP POP POP POP PUSH1 0x40 MLOAD RETURNDATASIZE PUSH0 DUP3 RETURNDATACOPY RETURNDATASIZE PUSH1 0x1F NOT PUSH1 0x1F DUP3 ADD AND DUP3 ADD DUP1 PUSH1 0x40 MSTORE POP DUP2 ADD SWAP1 PUSH2 0x2C8 SWAP2 SWAP1 PUSH2 0xE30 JUMP JUMPDEST SWAP2 POP SWAP2 POP DUP5 DUP5 DUP5 DUP9 DUP14 DUP14 DUP14 DUP9 DUP9 PUSH1 0x40 MLOAD PUSH2 0x2E1 SWAP1 PUSH2 0x76E JUMP JUMPDEST PUSH2 0x2F3 SWAP10 SWAP9 SWAP8 SWAP7 SWAP6 SWAP5 SWAP4 SWAP3 SWAP2 SWAP1 PUSH2 0xC30 JUMP JUMPDEST PUSH1 0x40 MLOAD DUP1 SWAP2 SUB SWAP1 PUSH0 CREATE DUP1 ISZERO DUP1 ISZERO PUSH2 0x30C JUMPI RETURNDATASIZE PUSH0 DUP1 RETURNDATACOPY RETURNDATASIZE PUSH0 REVERT JUMPDEST POP PUSH0 DUP13 DUP2 SLOAD DUP2 LT PUSH2 0x320 JUMPI PUSH2 0x31F PUSH2 0xCE5 JUMP JUMPDEST JUMPDEST SWAP1 PUSH0 MSTORE PUSH1 0x20 PUSH0 KECCAK256 ADD PUSH0 PUSH2 0x100 EXP DUP2 SLOAD DUP2 PUSH20 0xFFFFFFFFFFFFFFFFFFFFFFFFFFFFFFFFFFFFFFFF MUL NOT AND SWAP1 DUP4 PUSH20 0xFFFFFFFFFFFFFFFFFFFFFFFFFFFFFFFFFFFFFFFF AND MUL OR SWAP1 SSTORE POP POP POP POP POP POP POP POP POP POP POP POP JUMP JUMPDEST PUSH0 DUP10 DUP10 DUP10 DUP10 DUP10 DUP10 DUP10 DUP10 DUP10 PUSH1 0x40 MLOAD PUSH2 0x388 SWAP1 PUSH2 0x76E JUMP JUMPDEST PUSH2 0x39A SWAP10 SWAP9 SWAP8 SWAP7 SWAP6 SWAP5 SWAP4 SWAP3 SWAP2 SWAP1 PUSH2 0xC30 JUMP JUMPDEST PUSH1 0x40 MLOAD DUP1 SWAP2 SUB SWAP1 PUSH0 CREATE DUP1 ISZERO DUP1 ISZERO PUSH2 0x3B3 JUMPI RETURNDATASIZE PUSH0 DUP1 RETURNDATACOPY RETURNDATASIZE PUSH0 REVERT JUMPDEST POP SWAP1 DUP1 PUSH1 0x1 DUP2 SLOAD ADD DUP1 DUP3 SSTORE DUP1 SWAP2 POP POP PUSH1 0x1 SWAP1 SUB SWAP1 PUSH0 MSTORE PUSH1 0x20 PUSH0 KECCAK256 ADD PUSH0 SWAP1 SWAP2 SWAP1 SWAP2 SWAP1 SWAP2 PUSH2 0x100 EXP DUP2 SLOAD DUP2 PUSH20 0xFFFFFFFFFFFFFFFFFFFFFFFFFFFFFFFFFFFFFFFF MUL NOT AND SWAP1 DUP4 PUSH20 0xFFFFFFFFFFFFFFFFFFFFFFFFFFFFFFFFFFFFFFFF AND MUL OR SWAP1 SSTORE POP POP POP POP POP POP POP POP POP POP JUMP JUMPDEST PUSH1 0x60 PUSH0 PUSH1 0x60 PUSH0 PUSH1 0x60 DUP1 PUSH0 PUSH1 0x60 DUP1 PUSH0 JUMPDEST PUSH0 DUP1 SLOAD SWAP1 POP DUP2 LT ISZERO PUSH2 0x725 JUMPI PUSH0 DUP1 DUP3 DUP2 SLOAD DUP2 LT PUSH2 0x44B JUMPI PUSH2 0x44A PUSH2 0xCE5 JUMP JUMPDEST JUMPDEST SWAP1 PUSH0 MSTORE PUSH1 0x20 PUSH0 KECCAK256 ADD PUSH0 SWAP1 SLOAD SWAP1 PUSH2 0x100 EXP SWAP1 DIV PUSH20 0xFFFFFFFFFFFFFFFFFFFFFFFFFFFFFFFFFFFFFFFF AND PUSH20 0xFFFFFFFFFFFFFFFFFFFFFFFFFFFFFFFFFFFFFFFF AND PUSH4 0x5FD7B16A PUSH1 0x40 MLOAD DUP2 PUSH4 0xFFFFFFFF AND PUSH1 0xE0 SHL DUP2 MSTORE PUSH1 0x4 ADD PUSH0 PUSH1 0x40 MLOAD DUP1 DUP4 SUB DUP2 DUP7 GAS STATICCALL ISZERO DUP1 ISZERO PUSH2 0x4BA JUMPI RETURNDATASIZE PUSH0 DUP1 RETURNDATACOPY RETURNDATASIZE PUSH0 REVERT JUMPDEST POP POP POP POP PUSH1 0x40 MLOAD RETURNDATASIZE PUSH0 DUP3 RETURNDATACOPY RETURNDATASIZE PUSH1 0x1F NOT PUSH1 0x1F DUP3 ADD AND DUP3 ADD DUP1 PUSH1 0x40 MSTORE POP DUP2 ADD SWAP1 PUSH2 0x4E2 SWAP2 SWAP1 PUSH2 0xD94 JUMP JUMPDEST POP POP SWAP2 POP POP DUP12 DUP2 SUB PUSH2 0x717 JUMPI PUSH0 DUP3 DUP2 SLOAD DUP2 LT PUSH2 0x501 JUMPI PUSH2 0x500 PUSH2 0xCE5 JUMP JUMPDEST JUMPDEST SWAP1 PUSH0 MSTORE PUSH1 0x20 PUSH0 KECCAK256 ADD PUSH0 SWAP1 SLOAD SWAP1 PUSH2 0x100 EXP SWAP1 DIV PUSH20 0xFFFFFFFFFFFFFFFFFFFFFFFFFFFFFFFFFFFFFFFF AND PUSH20 0xFFFFFFFFFFFFFFFFFFFFFFFFFFFFFFFFFFFFFFFF AND PUSH4 0x5FD7B16A PUSH1 0x40 MLOAD DUP2 PUSH4 0xFFFFFFFF AND PUSH1 0xE0 SHL DUP2 MSTORE PUSH1 0x4 ADD PUSH0 PUSH1 0x40 MLOAD DUP1 DUP4 SUB DUP2 DUP7 GAS STATICCALL ISZERO DUP1 ISZERO PUSH2 0x570 JUMPI RETURNDATASIZE PUSH0 DUP1 RETURNDATACOPY RETURNDATASIZE PUSH0 REVERT JUMPDEST POP POP POP POP PUSH1 0x40 MLOAD RETURNDATASIZE PUSH0 DUP3 RETURNDATACOPY RETURNDATASIZE PUSH1 0x1F NOT PUSH1 0x1F DUP3 ADD AND DUP3 ADD DUP1 PUSH1 0x40 MSTORE POP DUP2 ADD SWAP1 PUSH2 0x598 SWAP2 SWAP1 PUSH2 0xD94 JUMP JUMPDEST DUP1 SWAP12 POP DUP2 SWAP13 POP DUP3 SWAP14 POP DUP4 SWAP15 POP POP POP POP POP PUSH0 DUP3 DUP2 SLOAD DUP2 LT PUSH2 0x5BB JUMPI PUSH2 0x5BA PUSH2 0xCE5 JUMP JUMPDEST JUMPDEST SWAP1 PUSH0 MSTORE PUSH1 0x20 PUSH0 KECCAK256 ADD PUSH0 SWAP1 SLOAD SWAP1 PUSH2 0x100 EXP SWAP1 DIV PUSH20 0xFFFFFFFFFFFFFFFFFFFFFFFFFFFFFFFFFFFFFFFF AND PUSH20 0xFFFFFFFFFFFFFFFFFFFFFFFFFFFFFFFFFFFFFFFF AND PUSH4 0xC48CB7BA PUSH1 0x40 MLOAD DUP2 PUSH4 0xFFFFFFFF AND PUSH1 0xE0 SHL DUP2 MSTORE PUSH1 0x4 ADD PUSH0 PUSH1 0x40 MLOAD DUP1 DUP4 SUB DUP2 DUP7 GAS STATICCALL ISZERO DUP1 ISZERO PUSH2 0x62A JUMPI RETURNDATASIZE PUSH0 DUP1 RETURNDATACOPY RETURNDATASIZE PUSH0 REVERT JUMPDEST POP POP POP POP PUSH1 0x40 MLOAD RETURNDATASIZE PUSH0 DUP3 RETURNDATACOPY RETURNDATASIZE PUSH1 0x1F NOT PUSH1 0x1F DUP3 ADD AND DUP3 ADD DUP1 PUSH1 0x40 MSTORE POP DUP2 ADD SWAP1 PUSH2 0x652 SWAP2 SWAP1 PUSH2 0xEA6 JUMP JUMPDEST DUP1 SWAP8 POP DUP2 SWAP9 POP DUP3 SWAP10 POP POP POP POP PUSH0 DUP3 DUP2 SLOAD DUP2 LT PUSH2 0x671 JUMPI PUSH2 0x670 PUSH2 0xCE5 JUMP JUMPDEST JUMPDEST SWAP1 PUSH0 MSTORE PUSH1 0x20 PUSH0 KECCAK256 ADD PUSH0 SWAP1 SLOAD SWAP1 PUSH2 0x100 EXP SWAP1 DIV PUSH20 0xFFFFFFFFFFFFFFFFFFFFFFFFFFFFFFFFFFFFFFFF AND PUSH20 0xFFFFFFFFFFFFFFFFFFFFFFFFFFFFFFFFFFFFFFFF AND PUSH4 0xBB489E80 PUSH1 0x40 MLOAD DUP2 PUSH4 0xFFFFFFFF AND PUSH1 0xE0 SHL DUP2 MSTORE PUSH1 0x4 ADD PUSH0 PUSH1 0x40 MLOAD DUP1 DUP4 SUB DUP2 DUP7 GAS STATICCALL ISZERO DUP1 ISZERO PUSH2 0x6E0 JUMPI RETURNDATASIZE PUSH0 DUP1 RETURNDATACOPY RETURNDATASIZE PUSH0 REVERT JUMPDEST POP POP POP POP PUSH1 0x40 MLOAD RETURNDATASIZE PUSH0 DUP3 RETURNDATACOPY RETURNDATASIZE PUSH1 0x1F NOT PUSH1 0x1F DUP3 ADD AND DUP3 ADD DUP1 PUSH1 0x40 MSTORE POP DUP2 ADD SWAP1 PUSH2 0x708 SWAP2 SWAP1 PUSH2 0xE30 JUMP JUMPDEST DUP1 SWAP5 POP DUP2 SWAP6 POP POP POP POP POP PUSH2 0x761 JUMP JUMPDEST POP DUP1 DUP1 PUSH1 0x1 ADD SWAP2 POP POP PUSH2 0x42B JUMP JUMPDEST POP PUSH1 0x40 MLOAD PUSH32 0x8C379A000000000000000000000000000000000000000000000000000000000 DUP2 MSTORE PUSH1 0x4 ADD PUSH2 0x758 SWAP1 PUSH2 0xF78 JUMP JUMPDEST PUSH1 0x40 MLOAD DUP1 SWAP2 SUB SWAP1 REVERT JUMPDEST SWAP2 SWAP4 SWAP6 SWAP8 SWAP10 SWAP1 SWAP3 SWAP5 SWAP7 SWAP9 POP JUMP JUMPDEST PUSH2 0x119D DUP1 PUSH2 0xF97 DUP4 CODECOPY ADD SWAP1 JUMP JUMPDEST PUSH0 PUSH1 0x40 MLOAD SWAP1 POP SWAP1 JUMP JUMPDEST PUSH0 DUP1 REVERT JUMPDEST PUSH0 DUP1 REVERT JUMPDEST PUSH0 DUP2 SWAP1 POP SWAP2 SWAP1 POP JUMP JUMPDEST PUSH2 0x79E DUP2 PUSH2 0x78C JUMP JUMPDEST DUP2 EQ PUSH2 0x7A8 JUMPI PUSH0 DUP1 REVERT JUMPDEST POP JUMP JUMPDEST PUSH0 DUP2 CALLDATALOAD SWAP1 POP PUSH2 0x7B9 DUP2 PUSH2 0x795 JUMP JUMPDEST SWAP3 SWAP2 POP POP JUMP JUMPDEST PUSH0 PUSH1 0x20 DUP3 DUP5 SUB SLT ISZERO PUSH2 0x7D4 JUMPI PUSH2 0x7D3 PUSH2 0x784 JUMP JUMPDEST JUMPDEST PUSH0 PUSH2 0x7E1 DUP5 DUP3 DUP6 ADD PUSH2 0x7AB JUMP JUMPDEST SWAP2 POP POP SWAP3 SWAP2 POP POP JUMP JUMPDEST PUSH0 PUSH20 0xFFFFFFFFFFFFFFFFFFFFFFFFFFFFFFFFFFFFFFFF DUP3 AND SWAP1 POP SWAP2 SWAP1 POP JUMP JUMPDEST PUSH0 DUP2 SWAP1 POP SWAP2 SWAP1 POP JUMP JUMPDEST PUSH0 PUSH2 0x82C PUSH2 0x827 PUSH2 0x822 DUP5 PUSH2 0x7EA JUMP JUMPDEST PUSH2 0x809 JUMP JUMPDEST PUSH2 0x7EA JUMP JUMPDEST SWAP1 POP SWAP2 SWAP1 POP JUMP JUMPDEST PUSH0 PUSH2 0x83D DUP3 PUSH2 0x812 JUMP JUMPDEST SWAP1 POP SWAP2 SWAP1 POP JUMP JUMPDEST PUSH0 PUSH2 0x84E DUP3 PUSH2 0x833 JUMP JUMPDEST SWAP1 POP SWAP2 SWAP1 POP JUMP JUMPDEST PUSH2 0x85E DUP2 PUSH2 0x844 JUMP JUMPDEST DUP3 MSTORE POP POP JUMP JUMPDEST PUSH0 PUSH1 0x20 DUP3 ADD SWAP1 POP PUSH2 0x877 PUSH0 DUP4 ADD DUP5 PUSH2 0x855 JUMP JUMPDEST SWAP3 SWAP2 POP POP JUMP JUMPDEST PUSH0 DUP1 REVERT JUMPDEST PUSH0 DUP1 REVERT JUMPDEST PUSH0 PUSH1 0x1F NOT PUSH1 0x1F DUP4 ADD AND SWAP1 POP SWAP2 SWAP1 POP JUMP JUMPDEST PUSH32 0x4E487B7100000000000000000000000000000000000000000000000000000000 PUSH0 MSTORE PUSH1 0x41 PUSH1 0x4 MSTORE PUSH1 0x24 PUSH0 REVERT JUMPDEST PUSH2 0x8CB DUP3 PUSH2 0x885 JUMP JUMPDEST DUP2 ADD DUP2 DUP2 LT PUSH8 0xFFFFFFFFFFFFFFFF DUP3 GT OR ISZERO PUSH2 0x8EA JUMPI PUSH2 0x8E9 PUSH2 0x895 JUMP JUMPDEST JUMPDEST DUP1 PUSH1 0x40 MSTORE POP POP POP JUMP JUMPDEST PUSH0 PUSH2 0x8FC PUSH2 0x77B JUMP JUMPDEST SWAP1 POP PUSH2 0x908 DUP3 DUP3 PUSH2 0x8C2 JUMP JUMPDEST SWAP2 SWAP1 POP JUMP JUMPDEST PUSH0 PUSH8 0xFFFFFFFFFFFFFFFF DUP3 GT ISZERO PUSH2 0x927 JUMPI PUSH2 0x926 PUSH2 0x895 JUMP JUMPDEST JUMPDEST PUSH2 0x930 DUP3 PUSH2 0x885 JUMP JUMPDEST SWAP1 POP PUSH1 0x20 DUP2 ADD SWAP1 POP SWAP2 SWAP1 POP JUMP JUMPDEST DUP3 DUP2 DUP4 CALLDATACOPY PUSH0 DUP4 DUP4 ADD MSTORE POP POP POP JUMP JUMPDEST PUSH0 PUSH2 0x95D PUSH2 0x958 DUP5 PUSH2 0x90D JUMP JUMPDEST PUSH2 0x8F3 JUMP JUMPDEST SWAP1 POP DUP3 DUP2 MSTORE PUSH1 0x20 DUP2 ADD DUP5 DUP5 DUP5 ADD GT ISZERO PUSH2 0x979 JUMPI PUSH2 0x978 PUSH2 0x881 JUMP JUMPDEST JUMPDEST PUSH2 0x984 DUP5 DUP3 DUP6 PUSH2 0x93D JUMP JUMPDEST POP SWAP4 SWAP3 POP POP POP JUMP JUMPDEST PUSH0 DUP3 PUSH1 0x1F DUP4 ADD SLT PUSH2 0x9A0 JUMPI PUSH2 0x99F PUSH2 0x87D JUMP JUMPDEST JUMPDEST DUP2 CALLDATALOAD PUSH2 0x9B0 DUP5 DUP3 PUSH1 0x20 DUP7 ADD PUSH2 0x94B JUMP JUMPDEST SWAP2 POP POP SWAP3 SWAP2 POP POP JUMP JUMPDEST PUSH0 DUP1 PUSH0 DUP1 PUSH1 0x80 DUP6 DUP8 SUB SLT ISZERO PUSH2 0x9D1 JUMPI PUSH2 0x9D0 PUSH2 0x784 JUMP JUMPDEST JUMPDEST PUSH0 PUSH2 0x9DE DUP8 DUP3 DUP9 ADD PUSH2 0x7AB JUMP JUMPDEST SWAP5 POP POP PUSH1 0x20 DUP6 ADD CALLDATALOAD PUSH8 0xFFFFFFFFFFFFFFFF DUP2 GT ISZERO PUSH2 0x9FF JUMPI PUSH2 0x9FE PUSH2 0x788 JUMP JUMPDEST JUMPDEST PUSH2 0xA0B DUP8 DUP3 DUP9 ADD PUSH2 0x98C JUMP JUMPDEST SWAP4 POP POP PUSH1 0x40 DUP6 ADD CALLDATALOAD PUSH8 0xFFFFFFFFFFFFFFFF DUP2 GT ISZERO PUSH2 0xA2C JUMPI PUSH2 0xA2B PUSH2 0x788 JUMP JUMPDEST JUMPDEST PUSH2 0xA38 DUP8 DUP3 DUP9 ADD PUSH2 0x98C JUMP JUMPDEST SWAP3 POP POP PUSH1 0x60 PUSH2 0xA49 DUP8 DUP3 DUP9 ADD PUSH2 0x7AB JUMP JUMPDEST SWAP2 POP POP SWAP3 SWAP6 SWAP2 SWAP5 POP SWAP3 POP JUMP JUMPDEST PUSH0 DUP1 PUSH0 DUP1 PUSH0 DUP1 PUSH0 DUP1 PUSH0 PUSH2 0x120 DUP11 DUP13 SUB SLT ISZERO PUSH2 0xA73 JUMPI PUSH2 0xA72 PUSH2 0x784 JUMP JUMPDEST JUMPDEST PUSH0 DUP11 ADD CALLDATALOAD PUSH8 0xFFFFFFFFFFFFFFFF DUP2 GT ISZERO PUSH2 0xA90 JUMPI PUSH2 0xA8F PUSH2 0x788 JUMP JUMPDEST JUMPDEST PUSH2 0xA9C DUP13 DUP3 DUP14 ADD PUSH2 0x98C JUMP JUMPDEST SWAP10 POP POP PUSH1 0x20 PUSH2 0xAAD DUP13 DUP3 DUP14 ADD PUSH2 0x7AB JUMP JUMPDEST SWAP9 POP POP PUSH1 0x40 DUP11 ADD CALLDATALOAD PUSH8 0xFFFFFFFFFFFFFFFF DUP2 GT ISZERO PUSH2 0xACE JUMPI PUSH2 0xACD PUSH2 0x788 JUMP JUMPDEST JUMPDEST PUSH2 0xADA DUP13 DUP3 DUP14 ADD PUSH2 0x98C JUMP JUMPDEST SWAP8 POP POP PUSH1 0x60 PUSH2 0xAEB DUP13 DUP3 DUP14 ADD PUSH2 0x7AB JUMP JUMPDEST SWAP7 POP POP PUSH1 0x80 DUP11 ADD CALLDATALOAD PUSH8 0xFFFFFFFFFFFFFFFF DUP2 GT ISZERO PUSH2 0xB0C JUMPI PUSH2 0xB0B PUSH2 0x788 JUMP JUMPDEST JUMPDEST PUSH2 0xB18 DUP13 DUP3 DUP14 ADD PUSH2 0x98C JUMP JUMPDEST SWAP6 POP POP PUSH1 0xA0 DUP11 ADD CALLDATALOAD PUSH8 0xFFFFFFFFFFFFFFFF DUP2 GT ISZERO PUSH2 0xB39 JUMPI PUSH2 0xB38 PUSH2 0x788 JUMP JUMPDEST JUMPDEST PUSH2 0xB45 DUP13 DUP3 DUP14 ADD PUSH2 0x98C JUMP JUMPDEST SWAP5 POP POP PUSH1 0xC0 PUSH2 0xB56 DUP13 DUP3 DUP14 ADD PUSH2 0x7AB JUMP JUMPDEST SWAP4 POP POP PUSH1 0xE0 DUP11 ADD CALLDATALOAD PUSH8 0xFFFFFFFFFFFFFFFF DUP2 GT ISZERO PUSH2 0xB77 JUMPI PUSH2 0xB76 PUSH2 0x788 JUMP JUMPDEST JUMPDEST PUSH2 0xB83 DUP13 DUP3 DUP14 ADD PUSH2 0x98C JUMP JUMPDEST SWAP3 POP POP PUSH2 0x100 DUP11 ADD CALLDATALOAD PUSH8 0xFFFFFFFFFFFFFFFF DUP2 GT ISZERO PUSH2 0xBA5 JUMPI PUSH2 0xBA4 PUSH2 0x788 JUMP JUMPDEST JUMPDEST PUSH2 0xBB1 DUP13 DUP3 DUP14 ADD PUSH2 0x98C JUMP JUMPDEST SWAP2 POP POP SWAP3 SWAP6 SWAP9 POP SWAP3 SWAP6 SWAP9 POP SWAP3 SWAP6 SWAP9 JUMP JUMPDEST PUSH0 DUP2 MLOAD SWAP1 POP SWAP2 SWAP1 POP JUMP JUMPDEST PUSH0 DUP3 DUP3 MSTORE PUSH1 0x20 DUP3 ADD SWAP1 POP SWAP3 SWAP2 POP POP JUMP JUMPDEST DUP3 DUP2 DUP4 MCOPY PUSH0 DUP4 DUP4 ADD MSTORE POP POP POP JUMP JUMPDEST PUSH0 PUSH2 0xBF3 DUP3 PUSH2 0xBC1 JUMP JUMPDEST PUSH2 0xBFD DUP2 DUP6 PUSH2 0xBCB JUMP JUMPDEST SWAP4 POP PUSH2 0xC0D DUP2 DUP6 PUSH1 0x20 DUP7 ADD PUSH2 0xBDB JUMP JUMPDEST PUSH2 0xC16 DUP2 PUSH2 0x885 JUMP JUMPDEST DUP5 ADD SWAP2 POP POP SWAP3 SWAP2 POP POP JUMP JUMPDEST PUSH2 0xC2A DUP2 PUSH2 0x78C JUMP JUMPDEST DUP3 MSTORE POP POP JUMP JUMPDEST PUSH0 PUSH2 0x120 DUP3 ADD SWAP1 POP DUP2 DUP2 SUB PUSH0 DUP4 ADD MSTORE PUSH2 0xC49 DUP2 DUP13 PUSH2 0xBE9 JUMP JUMPDEST SWAP1 POP PUSH2 0xC58 PUSH1 0x20 DUP4 ADD DUP12 PUSH2 0xC21 JUMP JUMPDEST DUP2 DUP2 SUB PUSH1 0x40 DUP4 ADD MSTORE PUSH2 0xC6A DUP2 DUP11 PUSH2 0xBE9 JUMP JUMPDEST SWAP1 POP PUSH2 0xC79 PUSH1 0x60 DUP4 ADD DUP10 PUSH2 0xC21 JUMP JUMPDEST DUP2 DUP2 SUB PUSH1 0x80 DUP4 ADD MSTORE PUSH2 0xC8B DUP2 DUP9 PUSH2 0xBE9 JUMP JUMPDEST SWAP1 POP DUP2 DUP2 SUB PUSH1 0xA0 DUP4 ADD MSTORE PUSH2 0xC9F DUP2 DUP8 PUSH2 0xBE9 JUMP JUMPDEST SWAP1 POP PUSH2 0xCAE PUSH1 0xC0 DUP4 ADD DUP7 PUSH2 0xC21 JUMP JUMPDEST DUP2 DUP2 SUB PUSH1 0xE0 DUP4 ADD MSTORE PUSH2 0xCC0 DUP2 DUP6 PUSH2 0xBE9 JUMP JUMPDEST SWAP1 POP DUP2 DUP2 SUB PUSH2 0x100 DUP4 ADD MSTORE PUSH2 0xCD5 DUP2 DUP5 PUSH2 0xBE9 JUMP JUMPDEST SWAP1 POP SWAP11 SWAP10 POP POP POP POP POP POP POP POP POP POP JUMP JUMPDEST PUSH32 0x4E487B7100000000000000000000000000000000000000000000000000000000 PUSH0 MSTORE PUSH1 0x32 PUSH1 0x4 MSTORE PUSH1 0x24 PUSH0 REVERT JUMPDEST PUSH0 PUSH2 0xD24 PUSH2 0xD1F DUP5 PUSH2 0x90D JUMP JUMPDEST PUSH2 0x8F3 JUMP JUMPDEST SWAP1 POP DUP3 DUP2 MSTORE PUSH1 0x20 DUP2 ADD DUP5 DUP5 DUP5 ADD GT ISZERO PUSH2 0xD40 JUMPI PUSH2 0xD3F PUSH2 0x881 JUMP JUMPDEST JUMPDEST PUSH2 0xD4B DUP5 DUP3 DUP6 PUSH2 0xBDB JUMP JUMPDEST POP SWAP4 SWAP3 POP POP POP JUMP JUMPDEST PUSH0 DUP3 PUSH1 0x1F DUP4 ADD SLT PUSH2 0xD67 JUMPI PUSH2 0xD66 PUSH2 0x87D JUMP JUMPDEST JUMPDEST DUP2 MLOAD PUSH2 0xD77 DUP5 DUP3 PUSH1 0x20 DUP7 ADD PUSH2 0xD12 JUMP JUMPDEST SWAP2 POP POP SWAP3 SWAP2 POP POP JUMP JUMPDEST PUSH0 DUP2 MLOAD SWAP1 POP PUSH2 0xD8E DUP2 PUSH2 0x795 JUMP JUMPDEST SWAP3 SWAP2 POP POP JUMP JUMPDEST PUSH0 DUP1 PUSH0 DUP1 PUSH1 0x80 DUP6 DUP8 SUB SLT ISZERO PUSH2 0xDAC JUMPI PUSH2 0xDAB PUSH2 0x784 JUMP JUMPDEST JUMPDEST PUSH0 DUP6 ADD MLOAD PUSH8 0xFFFFFFFFFFFFFFFF DUP2 GT ISZERO PUSH2 0xDC9 JUMPI PUSH2 0xDC8 PUSH2 0x788 JUMP JUMPDEST JUMPDEST PUSH2 0xDD5 DUP8 DUP3 DUP9 ADD PUSH2 0xD53 JUMP JUMPDEST SWAP5 POP POP PUSH1 0x20 PUSH2 0xDE6 DUP8 DUP3 DUP9 ADD PUSH2 0xD80 JUMP JUMPDEST SWAP4 POP POP PUSH1 0x40 DUP6 ADD MLOAD PUSH8 0xFFFFFFFFFFFFFFFF DUP2 GT ISZERO PUSH2 0xE07 JUMPI PUSH2 0xE06 PUSH2 0x788 JUMP JUMPDEST JUMPDEST PUSH2 0xE13 DUP8 DUP3 DUP9 ADD PUSH2 0xD53 JUMP JUMPDEST SWAP3 POP POP PUSH1 0x60 PUSH2 0xE24 DUP8 DUP3 DUP9 ADD PUSH2 0xD80 JUMP JUMPDEST SWAP2 POP POP SWAP3 SWAP6 SWAP2 SWAP5 POP SWAP3 POP JUMP JUMPDEST PUSH0 DUP1 PUSH1 0x40 DUP4 DUP6 SUB SLT ISZERO PUSH2 0xE46 JUMPI PUSH2 0xE45 PUSH2 0x784 JUMP JUMPDEST JUMPDEST PUSH0 DUP4 ADD MLOAD PUSH8 0xFFFFFFFFFFFFFFFF DUP2 GT ISZERO PUSH2 0xE63 JUMPI PUSH2 0xE62 PUSH2 0x788 JUMP JUMPDEST JUMPDEST PUSH2 0xE6F DUP6 DUP3 DUP7 ADD PUSH2 0xD53 JUMP JUMPDEST SWAP3 POP POP PUSH1 0x20 DUP4 ADD MLOAD PUSH8 0xFFFFFFFFFFFFFFFF DUP2 GT ISZERO PUSH2 0xE90 JUMPI PUSH2 0xE8F PUSH2 0x788 JUMP JUMPDEST JUMPDEST PUSH2 0xE9C DUP6 DUP3 DUP7 ADD PUSH2 0xD53 JUMP JUMPDEST SWAP2 POP POP SWAP3 POP SWAP3 SWAP1 POP JUMP JUMPDEST PUSH0 DUP1 PUSH0 PUSH1 0x60 DUP5 DUP7 SUB SLT ISZERO PUSH2 0xEBD JUMPI PUSH2 0xEBC PUSH2 0x784 JUMP JUMPDEST JUMPDEST PUSH0 DUP5 ADD MLOAD PUSH8 0xFFFFFFFFFFFFFFFF DUP2 GT ISZERO PUSH2 0xEDA JUMPI PUSH2 0xED9 PUSH2 0x788 JUMP JUMPDEST JUMPDEST PUSH2 0xEE6 DUP7 DUP3 DUP8 ADD PUSH2 0xD53 JUMP JUMPDEST SWAP4 POP POP PUSH1 0x20 DUP5 ADD MLOAD PUSH8 0xFFFFFFFFFFFFFFFF DUP2 GT ISZERO PUSH2 0xF07 JUMPI PUSH2 0xF06 PUSH2 0x788 JUMP JUMPDEST JUMPDEST PUSH2 0xF13 DUP7 DUP3 DUP8 ADD PUSH2 0xD53 JUMP JUMPDEST SWAP3 POP POP PUSH1 0x40 PUSH2 0xF24 DUP7 DUP3 DUP8 ADD PUSH2 0xD80 JUMP JUMPDEST SWAP2 POP POP SWAP3 POP SWAP3 POP SWAP3 JUMP JUMPDEST PUSH32 0x53747564656E74206E6F7420666F756E64000000000000000000000000000000 PUSH0 DUP3 ADD MSTORE POP JUMP JUMPDEST PUSH0 PUSH2 0xF62 PUSH1 0x11 DUP4 PUSH2 0xBCB JUMP JUMPDEST SWAP2 POP PUSH2 0xF6D DUP3 PUSH2 0xF2E JUMP JUMPDEST PUSH1 0x20 DUP3 ADD SWAP1 POP SWAP2 SWAP1 POP JUMP JUMPDEST PUSH0 PUSH1 0x20 DUP3 ADD SWAP1 POP DUP2 DUP2 SUB PUSH0 DUP4 ADD MSTORE PUSH2 0xF8F DUP2 PUSH2 0xF56 JUMP JUMPDEST SWAP1 POP SWAP2 SWAP1 POP JUMP INVALID PUSH1 0x80 PUSH1 0x40 MSTORE CALLVALUE DUP1 ISZERO PUSH2 0xF JUMPI PUSH0 DUP1 REVERT JUMPDEST POP PUSH1 0x40 MLOAD PUSH2 0x119D CODESIZE SUB DUP1 PUSH2 0x119D DUP4 CODECOPY DUP2 DUP2 ADD PUSH1 0x40 MSTORE DUP2 ADD SWAP1 PUSH2 0x31 SWAP2 SWAP1 PUSH2 0x239 JUMP JUMPDEST DUP5 DUP5 DUP5 DUP3 PUSH0 SWAP1 DUP2 PUSH2 0x42 SWAP2 SWAP1 PUSH2 0x5A9 JUMP JUMPDEST POP DUP2 PUSH1 0x1 SWAP1 DUP2 PUSH2 0x52 SWAP2 SWAP1 PUSH2 0x5A9 JUMP JUMPDEST POP DUP1 PUSH1 0x2 DUP2 SWAP1 SSTORE POP POP POP POP DUP9 PUSH1 0x3 SWAP1 DUP2 PUSH2 0x6C SWAP2 SWAP1 PUSH2 0x5A9 JUMP JUMPDEST POP DUP8 PUSH1 0x4 DUP2 SWAP1 SSTORE POP DUP7 PUSH1 0x5 SWAP1 DUP2 PUSH2 0x83 SWAP2 SWAP1 PUSH2 0x5A9 JUMP JUMPDEST POP DUP6 PUSH1 0x6 DUP2 SWAP1 SSTORE POP DUP2 PUSH1 0x7 SWAP1 DUP2 PUSH2 0x9A SWAP2 SWAP1 PUSH2 0x5A9 JUMP JUMPDEST POP DUP1 PUSH1 0x8 SWAP1 DUP2 PUSH2 0xAA SWAP2 SWAP1 PUSH2 0x5A9 JUMP JUMPDEST POP POP POP POP POP POP POP POP POP POP PUSH2 0x678 JUMP JUMPDEST PUSH0 PUSH1 0x40 MLOAD SWAP1 POP SWAP1 JUMP JUMPDEST PUSH0 DUP1 REVERT JUMPDEST PUSH0 DUP1 REVERT JUMPDEST PUSH0 DUP1 REVERT JUMPDEST PUSH0 DUP1 REVERT JUMPDEST PUSH0 PUSH1 0x1F NOT PUSH1 0x1F DUP4 ADD AND SWAP1 POP SWAP2 SWAP1 POP JUMP JUMPDEST PUSH32 0x4E487B7100000000000000000000000000000000000000000000000000000000 PUSH0 MSTORE PUSH1 0x41 PUSH1 0x4 MSTORE PUSH1 0x24 PUSH0 REVERT JUMPDEST PUSH2 0x118 DUP3 PUSH2 0xD2 JUMP JUMPDEST DUP2 ADD DUP2 DUP2 LT PUSH8 0xFFFFFFFFFFFFFFFF DUP3 GT OR ISZERO PUSH2 0x137 JUMPI PUSH2 0x136 PUSH2 0xE2 JUMP JUMPDEST JUMPDEST DUP1 PUSH1 0x40 MSTORE POP POP POP JUMP JUMPDEST PUSH0 PUSH2 0x149 PUSH2 0xB9 JUMP JUMPDEST SWAP1 POP PUSH2 0x155 DUP3 DUP3 PUSH2 0x10F JUMP JUMPDEST SWAP2 SWAP1 POP JUMP JUMPDEST PUSH0 PUSH8 0xFFFFFFFFFFFFFFFF DUP3 GT ISZERO PUSH2 0x174 JUMPI PUSH2 0x173 PUSH2 0xE2 JUMP JUMPDEST JUMPDEST PUSH2 0x17D DUP3 PUSH2 0xD2 JUMP JUMPDEST SWAP1 POP PUSH1 0x20 DUP2 ADD SWAP1 POP SWAP2 SWAP1 POP JUMP JUMPDEST DUP3 DUP2 DUP4 MCOPY PUSH0 DUP4 DUP4 ADD MSTORE POP POP POP JUMP JUMPDEST PUSH0 PUSH2 0x1AA PUSH2 0x1A5 DUP5 PUSH2 0x15A JUMP JUMPDEST PUSH2 0x140 JUMP JUMPDEST SWAP1 POP DUP3 DUP2 MSTORE PUSH1 0x20 DUP2 ADD DUP5 DUP5 DUP5 ADD GT ISZERO PUSH2 0x1C6 JUMPI PUSH2 0x1C5 PUSH2 0xCE JUMP JUMPDEST JUMPDEST PUSH2 0x1D1 DUP5 DUP3 DUP6 PUSH2 0x18A JUMP JUMPDEST POP SWAP4 SWAP3 POP POP POP JUMP JUMPDEST PUSH0 DUP3 PUSH1 0x1F DUP4 ADD SLT PUSH2 0x1ED JUMPI PUSH2 0x1EC PUSH2 0xCA JUMP JUMPDEST JUMPDEST DUP2 MLOAD PUSH2 0x1FD DUP5 DUP3 PUSH1 0x20 DUP7 ADD PUSH2 0x198 JUMP JUMPDEST SWAP2 POP POP SWAP3 SWAP2 POP POP JUMP JUMPDEST PUSH0 DUP2 SWAP1 POP SWAP2 SWAP1 POP JUMP JUMPDEST PUSH2 0x218 DUP2 PUSH2 0x206 JUMP JUMPDEST DUP2 EQ PUSH2 0x222 JUMPI PUSH0 DUP1 REVERT JUMPDEST POP JUMP JUMPDEST PUSH0 DUP2 MLOAD SWAP1 POP PUSH2 0x233 DUP2 PUSH2 0x20F JUMP JUMPDEST SWAP3 SWAP2 POP POP JUMP JUMPDEST PUSH0 DUP1 PUSH0 DUP1 PUSH0 DUP1 PUSH0 DUP1 PUSH0 PUSH2 0x120 DUP11 DUP13 SUB SLT ISZERO PUSH2 0x257 JUMPI PUSH2 0x256 PUSH2 0xC2 JUMP JUMPDEST JUMPDEST PUSH0 DUP11 ADD MLOAD PUSH8 0xFFFFFFFFFFFFFFFF DUP2 GT ISZERO PUSH2 0x274 JUMPI PUSH2 0x273 PUSH2 0xC6 JUMP JUMPDEST JUMPDEST PUSH2 0x280 DUP13 DUP3 DUP14 ADD PUSH2 0x1D9 JUMP JUMPDEST SWAP10 POP POP PUSH1 0x20 PUSH2 0x291 DUP13 DUP3 DUP14 ADD PUSH2 0x225 JUMP JUMPDEST SWAP9 POP POP PUSH1 0x40 DUP11 ADD MLOAD PUSH8 0xFFFFFFFFFFFFFFFF DUP2 GT ISZERO PUSH2 0x2B2 JUMPI PUSH2 0x2B1 PUSH2 0xC6 JUMP JUMPDEST JUMPDEST PUSH2 0x2BE DUP13 DUP3 DUP14 ADD PUSH2 0x1D9 JUMP JUMPDEST SWAP8 POP POP PUSH1 0x60 PUSH2 0x2CF DUP13 DUP3 DUP14 ADD PUSH2 0x225 JUMP JUMPDEST SWAP7 POP POP PUSH1 0x80 DUP11 ADD MLOAD PUSH8 0xFFFFFFFFFFFFFFFF DUP2 GT ISZERO PUSH2 0x2F0 JUMPI PUSH2 0x2EF PUSH2 0xC6 JUMP JUMPDEST JUMPDEST PUSH2 0x2FC DUP13 DUP3 DUP14 ADD PUSH2 0x1D9 JUMP JUMPDEST SWAP6 POP POP PUSH1 0xA0 DUP11 ADD MLOAD PUSH8 0xFFFFFFFFFFFFFFFF DUP2 GT ISZERO PUSH2 0x31D JUMPI PUSH2 0x31C PUSH2 0xC6 JUMP JUMPDEST JUMPDEST PUSH2 0x329 DUP13 DUP3 DUP14 ADD PUSH2 0x1D9 JUMP JUMPDEST SWAP5 POP POP PUSH1 0xC0 PUSH2 0x33A DUP13 DUP3 DUP14 ADD PUSH2 0x225 JUMP JUMPDEST SWAP4 POP POP PUSH1 0xE0 DUP11 ADD MLOAD PUSH8 0xFFFFFFFFFFFFFFFF DUP2 GT ISZERO PUSH2 0x35B JUMPI PUSH2 0x35A PUSH2 0xC6 JUMP JUMPDEST JUMPDEST PUSH2 0x367 DUP13 DUP3 DUP14 ADD PUSH2 0x1D9 JUMP JUMPDEST SWAP3 POP POP PUSH2 0x100 DUP11 ADD MLOAD PUSH8 0xFFFFFFFFFFFFFFFF DUP2 GT ISZERO PUSH2 0x389 JUMPI PUSH2 0x388 PUSH2 0xC6 JUMP JUMPDEST JUMPDEST PUSH2 0x395 DUP13 DUP3 DUP14 ADD PUSH2 0x1D9 JUMP JUMPDEST SWAP2 POP POP SWAP3 SWAP6 SWAP9 POP SWAP3 SWAP6 SWAP9 POP SWAP3 SWAP6 SWAP9 JUMP JUMPDEST PUSH0 DUP2 MLOAD SWAP1 POP SWAP2 SWAP1 POP JUMP JUMPDEST PUSH32 0x4E487B7100000000000000000000000000000000000000000000000000000000 PUSH0 MSTORE PUSH1 0x22 PUSH1 0x4 MSTORE PUSH1 0x24 PUSH0 REVERT JUMPDEST PUSH0 PUSH1 0x2 DUP3 DIV SWAP1 POP PUSH1 0x1 DUP3 AND DUP1 PUSH2 0x3F3 JUMPI PUSH1 0x7F DUP3 AND SWAP2 POP JUMPDEST PUSH1 0x20 DUP3 LT DUP2 SUB PUSH2 0x406 JUMPI PUSH2 0x405 PUSH2 0x3AF JUMP JUMPDEST JUMPDEST POP SWAP2 SWAP1 POP JUMP JUMPDEST PUSH0 DUP2 SWAP1 POP DUP2 PUSH0 MSTORE PUSH1 0x20 PUSH0 KECCAK256 SWAP1 POP SWAP2 SWAP1 POP JUMP JUMPDEST PUSH0 PUSH1 0x20 PUSH1 0x1F DUP4 ADD DIV SWAP1 POP SWAP2 SWAP1 POP JUMP JUMPDEST PUSH0 DUP3 DUP3 SHL SWAP1 POP SWAP3 SWAP2 POP POP JUMP JUMPDEST PUSH0 PUSH1 0x8 DUP4 MUL PUSH2 0x468 PUSH32 0xFFFFFFFFFFFFFFFFFFFFFFFFFFFFFFFFFFFFFFFFFFFFFFFFFFFFFFFFFFFFFFFF DUP3 PUSH2 0x42D JUMP JUMPDEST PUSH2 0x472 DUP7 DUP4 PUSH2 0x42D JUMP JUMPDEST SWAP6 POP DUP1 NOT DUP5 AND SWAP4 POP DUP1 DUP7 AND DUP5 OR SWAP3 POP POP POP SWAP4 SWAP3 POP POP POP JUMP JUMPDEST PUSH0 DUP2 SWAP1 POP SWAP2 SWAP1 POP JUMP JUMPDEST PUSH0 PUSH2 0x4AD PUSH2 0x4A8 PUSH2 0x4A3 DUP5 PUSH2 0x206 JUMP JUMPDEST PUSH2 0x48A JUMP JUMPDEST PUSH2 0x206 JUMP JUMPDEST SWAP1 POP SWAP2 SWAP1 POP JUMP JUMPDEST PUSH0 DUP2 SWAP1 POP SWAP2 SWAP1 POP JUMP JUMPDEST PUSH2 0x4C6 DUP4 PUSH2 0x493 JUMP JUMPDEST PUSH2 0x4DA PUSH2 0x4D2 DUP3 PUSH2 0x4B4 JUMP JUMPDEST DUP5 DUP5 SLOAD PUSH2 0x439 JUMP JUMPDEST DUP3 SSTORE POP POP POP POP JUMP JUMPDEST PUSH0 SWAP1 JUMP JUMPDEST PUSH2 0x4EE PUSH2 0x4E2 JUMP JUMPDEST PUSH2 0x4F9 DUP2 DUP5 DUP5 PUSH2 0x4BD JUMP JUMPDEST POP POP POP JUMP JUMPDEST JUMPDEST DUP2 DUP2 LT ISZERO PUSH2 0x51C JUMPI PUSH2 0x511 PUSH0 DUP3 PUSH2 0x4E6 JUMP JUMPDEST PUSH1 0x1 DUP2 ADD SWAP1 POP PUSH2 0x4FF JUMP JUMPDEST POP POP JUMP JUMPDEST PUSH1 0x1F DUP3 GT ISZERO PUSH2 0x561 JUMPI PUSH2 0x532 DUP2 PUSH2 0x40C JUMP JUMPDEST PUSH2 0x53B DUP5 PUSH2 0x41E JUMP JUMPDEST DUP2 ADD PUSH1 0x20 DUP6 LT ISZERO PUSH2 0x54A JUMPI DUP2 SWAP1 POP JUMPDEST PUSH2 0x55E PUSH2 0x556 DUP6 PUSH2 0x41E JUMP JUMPDEST DUP4 ADD DUP3 PUSH2 0x4FE JUMP JUMPDEST POP POP JUMPDEST POP POP POP JUMP JUMPDEST PUSH0 DUP3 DUP3 SHR SWAP1 POP SWAP3 SWAP2 POP POP JUMP JUMPDEST PUSH0 PUSH2 0x581 PUSH0 NOT DUP5 PUSH1 0x8 MUL PUSH2 0x566 JUMP JUMPDEST NOT DUP1 DUP4 AND SWAP2 POP POP SWAP3 SWAP2 POP POP JUMP JUMPDEST PUSH0 PUSH2 0x599 DUP4 DUP4 PUSH2 0x572 JUMP JUMPDEST SWAP2 POP DUP3 PUSH1 0x2 MUL DUP3 OR SWAP1 POP SWAP3 SWAP2 POP POP JUMP JUMPDEST PUSH2 0x5B2 DUP3 PUSH2 0x3A5 JUMP JUMPDEST PUSH8 0xFFFFFFFFFFFFFFFF DUP2 GT ISZERO PUSH2 0x5CB JUMPI PUSH2 0x5CA PUSH2 0xE2 JUMP JUMPDEST JUMPDEST PUSH2 0x5D5 DUP3 SLOAD PUSH2 0x3DC JUMP JUMPDEST PUSH2 0x5E0 DUP3 DUP3 DUP6 PUSH2 0x520 JUMP JUMPDEST PUSH0 PUSH1 0x20 SWAP1 POP PUSH1 0x1F DUP4 GT PUSH1 0x1 DUP2 EQ PUSH2 0x611 JUMPI PUSH0 DUP5 ISZERO PUSH2 0x5FF JUMPI DUP3 DUP8 ADD MLOAD SWAP1 POP JUMPDEST PUSH2 0x609 DUP6 DUP3 PUSH2 0x58E JUMP JUMPDEST DUP7 SSTORE POP PUSH2 0x670 JUMP JUMPDEST PUSH1 0x1F NOT DUP5 AND PUSH2 0x61F DUP7 PUSH2 0x40C JUMP JUMPDEST PUSH0 JUMPDEST DUP3 DUP2 LT ISZERO PUSH2 0x646 JUMPI DUP5 DUP10 ADD MLOAD DUP3 SSTORE PUSH1 0x1 DUP3 ADD SWAP2 POP PUSH1 0x20 DUP6 ADD SWAP5 POP PUSH1 0x20 DUP2 ADD SWAP1 POP PUSH2 0x621 JUMP JUMPDEST DUP7 DUP4 LT ISZERO PUSH2 0x663 JUMPI DUP5 DUP10 ADD MLOAD PUSH2 0x65F PUSH1 0x1F DUP10 AND DUP3 PUSH2 0x572 JUMP JUMPDEST DUP4 SSTORE POP JUMPDEST PUSH1 0x1 PUSH1 0x2 DUP9 MUL ADD DUP9 SSTORE POP POP POP JUMPDEST POP POP POP POP POP POP JUMP JUMPDEST PUSH2 0xB18 DUP1 PUSH2 0x685 PUSH0 CODECOPY PUSH0 RETURN INVALID PUSH1 0x80 PUSH1 0x40 MSTORE CALLVALUE DUP1 ISZERO PUSH2 0xF JUMPI PUSH0 DUP1 REVERT JUMPDEST POP PUSH1 0x4 CALLDATASIZE LT PUSH2 0xB2 JUMPI PUSH0 CALLDATALOAD PUSH1 0xE0 SHR DUP1 PUSH4 0xBB489E80 GT PUSH2 0x6F JUMPI DUP1 PUSH4 0xBB489E80 EQ PUSH2 0x16D JUMPI DUP1 PUSH4 0xC48CB7BA EQ PUSH2 0x18C JUMPI DUP1 PUSH4 0xC607BA4D EQ PUSH2 0x1AC JUMPI DUP1 PUSH4 0xCB9CB0C2 EQ PUSH2 0x1CA JUMPI DUP1 PUSH4 0xD57831F5 EQ PUSH2 0x1E8 JUMPI DUP1 PUSH4 0xEB96548F EQ PUSH2 0x206 JUMPI PUSH2 0xB2 JUMP JUMPDEST DUP1 PUSH4 0x11EBAE41 EQ PUSH2 0xB6 JUMPI DUP1 PUSH4 0x5FD7B16A EQ PUSH2 0xD4 JUMPI DUP1 PUSH4 0x8D1D2D90 EQ PUSH2 0xF5 JUMPI DUP1 PUSH4 0x99D568B3 EQ PUSH2 0x113 JUMPI DUP1 PUSH4 0xB508BA31 EQ PUSH2 0x131 JUMPI DUP1 PUSH4 0xB975ABB3 EQ PUSH2 0x14F JUMPI JUMPDEST PUSH0 DUP1 REVERT JUMPDEST PUSH2 0xBE PUSH2 0x224 JUMP JUMPDEST PUSH1 0x40 MLOAD PUSH2 0xCB SWAP2 SWAP1 PUSH2 0x96B JUMP JUMPDEST PUSH1 0x40 MLOAD DUP1 SWAP2 SUB SWAP1 RETURN JUMPDEST PUSH2 0xDC PUSH2 0x2B0 JUMP JUMPDEST PUSH1 0x40 MLOAD PUSH2 0xEC SWAP5 SWAP4 SWAP3 SWAP2 SWAP1 PUSH2 0x9A3 JUMP JUMPDEST PUSH1 0x40 MLOAD DUP1 SWAP2 SUB SWAP1 RETURN JUMPDEST PUSH2 0xFD PUSH2 0x3E2 JUMP JUMPDEST PUSH1 0x40 MLOAD PUSH2 0x10A SWAP2 SWAP1 PUSH2 0x9F4 JUMP JUMPDEST PUSH1 0x40 MLOAD DUP1 SWAP2 SUB SWAP1 RETURN JUMPDEST PUSH2 0x11B PUSH2 0x3E8 JUMP JUMPDEST PUSH1 0x40 MLOAD PUSH2 0x128 SWAP2 SWAP1 PUSH2 0x9F4 JUMP JUMPDEST PUSH1 0x40 MLOAD DUP1 SWAP2 SUB SWAP1 RETURN JUMPDEST PUSH2 0x139 PUSH2 0x3EE JUMP JUMPDEST PUSH1 0x40 MLOAD PUSH2 0x146 SWAP2 SWAP1 PUSH2 0x96B JUMP JUMPDEST PUSH1 0x40 MLOAD DUP1 SWAP2 SUB SWAP1 RETURN JUMPDEST PUSH2 0x157 PUSH2 0x47A JUMP JUMPDEST PUSH1 0x40 MLOAD PUSH2 0x164 SWAP2 SWAP1 PUSH2 0x96B JUMP JUMPDEST PUSH1 0x40 MLOAD DUP1 SWAP2 SUB SWAP1 RETURN JUMPDEST PUSH2 0x175 PUSH2 0x506 JUMP JUMPDEST PUSH1 0x40 MLOAD PUSH2 0x183 SWAP3 SWAP2 SWAP1 PUSH2 0xA0D JUMP JUMPDEST PUSH1 0x40 MLOAD DUP1 SWAP2 SUB SWAP1 RETURN JUMPDEST PUSH2 0x194 PUSH2 0x629 JUMP JUMPDEST PUSH1 0x40 MLOAD PUSH2 0x1A3 SWAP4 SWAP3 SWAP2 SWAP1 PUSH2 0xA42 JUMP JUMPDEST PUSH1 0x40 MLOAD DUP1 SWAP2 SUB SWAP1 RETURN JUMPDEST PUSH2 0x1B4 PUSH2 0x752 JUMP JUMPDEST PUSH1 0x40 MLOAD PUSH2 0x1C1 SWAP2 SWAP1 PUSH2 0x96B JUMP JUMPDEST PUSH1 0x40 MLOAD DUP1 SWAP2 SUB SWAP1 RETURN JUMPDEST PUSH2 0x1D2 PUSH2 0x7DE JUMP JUMPDEST PUSH1 0x40 MLOAD PUSH2 0x1DF SWAP2 SWAP1 PUSH2 0x96B JUMP JUMPDEST PUSH1 0x40 MLOAD DUP1 SWAP2 SUB SWAP1 RETURN JUMPDEST PUSH2 0x1F0 PUSH2 0x869 JUMP JUMPDEST PUSH1 0x40 MLOAD PUSH2 0x1FD SWAP2 SWAP1 PUSH2 0x9F4 JUMP JUMPDEST PUSH1 0x40 MLOAD DUP1 SWAP2 SUB SWAP1 RETURN JUMPDEST PUSH2 0x20E PUSH2 0x86F JUMP JUMPDEST PUSH1 0x40 MLOAD PUSH2 0x21B SWAP2 SWAP1 PUSH2 0x96B JUMP JUMPDEST PUSH1 0x40 MLOAD DUP1 SWAP2 SUB SWAP1 RETURN JUMPDEST PUSH1 0x1 DUP1 SLOAD PUSH2 0x231 SWAP1 PUSH2 0xAB2 JUMP JUMPDEST DUP1 PUSH1 0x1F ADD PUSH1 0x20 DUP1 SWAP2 DIV MUL PUSH1 0x20 ADD PUSH1 0x40 MLOAD SWAP1 DUP2 ADD PUSH1 0x40 MSTORE DUP1 SWAP3 SWAP2 SWAP1 DUP2 DUP2 MSTORE PUSH1 0x20 ADD DUP3 DUP1 SLOAD PUSH2 0x25D SWAP1 PUSH2 0xAB2 JUMP JUMPDEST DUP1 ISZERO PUSH2 0x2A8 JUMPI DUP1 PUSH1 0x1F LT PUSH2 0x27F JUMPI PUSH2 0x100 DUP1 DUP4 SLOAD DIV MUL DUP4 MSTORE SWAP2 PUSH1 0x20 ADD SWAP2 PUSH2 0x2A8 JUMP JUMPDEST DUP3 ADD SWAP2 SWAP1 PUSH0 MSTORE PUSH1 0x20 PUSH0 KECCAK256 SWAP1 JUMPDEST DUP2 SLOAD DUP2 MSTORE SWAP1 PUSH1 0x1 ADD SWAP1 PUSH1 0x20 ADD DUP1 DUP4 GT PUSH2 0x28B JUMPI DUP3 SWAP1 SUB PUSH1 0x1F AND DUP3 ADD SWAP2 JUMPDEST POP POP POP POP POP DUP2 JUMP JUMPDEST PUSH1 0x60 PUSH0 PUSH1 0x60 PUSH0 PUSH1 0x3 PUSH1 0x4 SLOAD PUSH1 0x5 PUSH1 0x6 SLOAD DUP4 DUP1 SLOAD PUSH2 0x2CC SWAP1 PUSH2 0xAB2 JUMP JUMPDEST DUP1 PUSH1 0x1F ADD PUSH1 0x20 DUP1 SWAP2 DIV MUL PUSH1 0x20 ADD PUSH1 0x40 MLOAD SWAP1 DUP2 ADD PUSH1 0x40 MSTORE DUP1 SWAP3 SWAP2 SWAP1 DUP2 DUP2 MSTORE PUSH1 0x20 ADD DUP3 DUP1 SLOAD PUSH2 0x2F8 SWAP1 PUSH2 0xAB2 JUMP JUMPDEST DUP1 ISZERO PUSH2 0x343 JUMPI DUP1 PUSH1 0x1F LT PUSH2 0x31A JUMPI PUSH2 0x100 DUP1 DUP4 SLOAD DIV MUL DUP4 MSTORE SWAP2 PUSH1 0x20 ADD SWAP2 PUSH2 0x343 JUMP JUMPDEST DUP3 ADD SWAP2 SWAP1 PUSH0 MSTORE PUSH1 0x20 PUSH0 KECCAK256 SWAP1 JUMPDEST DUP2 SLOAD DUP2 MSTORE SWAP1 PUSH1 0x1 ADD SWAP1 PUSH1 0x20 ADD DUP1 DUP4 GT PUSH2 0x326 JUMPI DUP3 SWAP1 SUB PUSH1 0x1F AND DUP3 ADD SWAP2 JUMPDEST POP POP POP POP POP SWAP4 POP DUP2 DUP1 SLOAD PUSH2 0x356 SWAP1 PUSH2 0xAB2 JUMP JUMPDEST DUP1 PUSH1 0x1F ADD PUSH1 0x20 DUP1 SWAP2 DIV MUL PUSH1 0x20 ADD PUSH1 0x40 MLOAD SWAP1 DUP2 ADD PUSH1 0x40 MSTORE DUP1 SWAP3 SWAP2 SWAP1 DUP2 DUP2 MSTORE PUSH1 0x20 ADD DUP3 DUP1 SLOAD PUSH2 0x382 SWAP1 PUSH2 0xAB2 JUMP JUMPDEST DUP1 ISZERO PUSH2 0x3CD JUMPI DUP1 PUSH1 0x1F LT PUSH2 0x3A4 JUMPI PUSH2 0x100 DUP1 DUP4 SLOAD DIV MUL DUP4 MSTORE SWAP2 PUSH1 0x20 ADD SWAP2 PUSH2 0x3CD JUMP JUMPDEST DUP3 ADD SWAP2 SWAP1 PUSH0 MSTORE PUSH1 0x20 PUSH0 KECCAK256 SWAP1 JUMPDEST DUP2 SLOAD DUP2 MSTORE SWAP1 PUSH1 0x1 ADD SWAP1 PUSH1 0x20 ADD DUP1 DUP4 GT PUSH2 0x3B0 JUMPI DUP3 SWAP1 SUB PUSH1 0x1F AND DUP3 ADD SWAP2 JUMPDEST POP POP POP POP POP SWAP2 POP SWAP4 POP SWAP4 POP SWAP4 POP SWAP4 POP SWAP1 SWAP2 SWAP3 SWAP4 JUMP JUMPDEST PUSH1 0x4 SLOAD DUP2 JUMP JUMPDEST PUSH1 0x2 SLOAD DUP2 JUMP JUMPDEST PUSH1 0x3 DUP1 SLOAD PUSH2 0x3FB SWAP1 PUSH2 0xAB2 JUMP JUMPDEST DUP1 PUSH1 0x1F ADD PUSH1 0x20 DUP1 SWAP2 DIV MUL PUSH1 0x20 ADD PUSH1 0x40 MLOAD SWAP1 DUP2 ADD PUSH1 0x40 MSTORE DUP1 SWAP3 SWAP2 SWAP1 DUP2 DUP2 MSTORE PUSH1 0x20 ADD DUP3 DUP1 SLOAD PUSH2 0x427 SWAP1 PUSH2 0xAB2 JUMP JUMPDEST DUP1 ISZERO PUSH2 0x472 JUMPI DUP1 PUSH1 0x1F LT PUSH2 0x449 JUMPI PUSH2 0x100 DUP1 DUP4 SLOAD DIV MUL DUP4 MSTORE SWAP2 PUSH1 0x20 ADD SWAP2 PUSH2 0x472 JUMP JUMPDEST DUP3 ADD SWAP2 SWAP1 PUSH0 MSTORE PUSH1 0x20 PUSH0 KECCAK256 SWAP1 JUMPDEST DUP2 SLOAD DUP2 MSTORE SWAP1 PUSH1 0x1 ADD SWAP1 PUSH1 0x20 ADD DUP1 DUP4 GT PUSH2 0x455 JUMPI DUP3 SWAP1 SUB PUSH1 0x1F AND DUP3 ADD SWAP2 JUMPDEST POP POP POP POP POP DUP2 JUMP JUMPDEST PUSH1 0x7 DUP1 SLOAD PUSH2 0x487 SWAP1 PUSH2 0xAB2 JUMP JUMPDEST DUP1 PUSH1 0x1F ADD PUSH1 0x20 DUP1 SWAP2 DIV MUL PUSH1 0x20 ADD PUSH1 0x40 MLOAD SWAP1 DUP2 ADD PUSH1 0x40 MSTORE DUP1 SWAP3 SWAP2 SWAP1 DUP2 DUP2 MSTORE PUSH1 0x20 ADD DUP3 DUP1 SLOAD PUSH2 0x4B3 SWAP1 PUSH2 0xAB2 JUMP JUMPDEST DUP1 ISZERO PUSH2 0x4FE JUMPI DUP1 PUSH1 0x1F LT PUSH2 0x4D5 JUMPI PUSH2 0x100 DUP1 DUP4 SLOAD DIV MUL DUP4 MSTORE SWAP2 PUSH1 0x20 ADD SWAP2 PUSH2 0x4FE JUMP JUMPDEST DUP3 ADD SWAP2 SWAP1 PUSH0 MSTORE PUSH1 0x20 PUSH0 KECCAK256 SWAP1 JUMPDEST DUP2 SLOAD DUP2 MSTORE SWAP1 PUSH1 0x1 ADD SWAP1 PUSH1 0x20 ADD DUP1 DUP4 GT PUSH2 0x4E1 JUMPI DUP3 SWAP1 SUB PUSH1 0x1F AND DUP3 ADD SWAP2 JUMPDEST POP POP POP POP POP DUP2 JUMP JUMPDEST PUSH1 0x60 DUP1 PUSH1 0x7 PUSH1 0x8 DUP2 DUP1 SLOAD PUSH2 0x519 SWAP1 PUSH2 0xAB2 JUMP JUMPDEST DUP1 PUSH1 0x1F ADD PUSH1 0x20 DUP1 SWAP2 DIV MUL PUSH1 0x20 ADD PUSH1 0x40 MLOAD SWAP1 DUP2 ADD PUSH1 0x40 MSTORE DUP1 SWAP3 SWAP2 SWAP1 DUP2 DUP2 MSTORE PUSH1 0x20 ADD DUP3 DUP1 SLOAD PUSH2 0x545 SWAP1 PUSH2 0xAB2 JUMP JUMPDEST DUP1 ISZERO PUSH2 0x590 JUMPI DUP1 PUSH1 0x1F LT PUSH2 0x567 JUMPI PUSH2 0x100 DUP1 DUP4 SLOAD DIV MUL DUP4 MSTORE SWAP2 PUSH1 0x20 ADD SWAP2 PUSH2 0x590 JUMP JUMPDEST DUP3 ADD SWAP2 SWAP1 PUSH0 MSTORE PUSH1 0x20 PUSH0 KECCAK256 SWAP1 JUMPDEST DUP2 SLOAD DUP2 MSTORE SWAP1 PUSH1 0x1 ADD SWAP1 PUSH1 0x20 ADD DUP1 DUP4 GT PUSH2 0x573 JUMPI DUP3 SWAP1 SUB PUSH1 0x1F AND DUP3 ADD SWAP2 JUMPDEST POP POP POP POP POP SWAP2 POP DUP1 DUP1 SLOAD PUSH2 0x5A3 SWAP1 PUSH2 0xAB2 JUMP JUMPDEST DUP1 PUSH1 0x1F ADD PUSH1 0x20 DUP1 SWAP2 DIV MUL PUSH1 0x20 ADD PUSH1 0x40 MLOAD SWAP1 DUP2 ADD PUSH1 0x40 MSTORE DUP1 SWAP3 SWAP2 SWAP1 DUP2 DUP2 MSTORE PUSH1 0x20 ADD DUP3 DUP1 SLOAD PUSH2 0x5CF SWAP1 PUSH2 0xAB2 JUMP JUMPDEST DUP1 ISZERO PUSH2 0x61A JUMPI DUP1 PUSH1 0x1F LT PUSH2 0x5F1 JUMPI PUSH2 0x100 DUP1 DUP4 SLOAD DIV MUL DUP4 MSTORE SWAP2 PUSH1 0x20 ADD SWAP2 PUSH2 0x61A JUMP JUMPDEST DUP3 ADD SWAP2 SWAP1 PUSH0 MSTORE PUSH1 0x20 PUSH0 KECCAK256 SWAP1 JUMPDEST DUP2 SLOAD DUP2 MSTORE SWAP1 PUSH1 0x1 ADD SWAP1 PUSH1 0x20 ADD DUP1 DUP4 GT PUSH2 0x5FD JUMPI DUP3 SWAP1 SUB PUSH1 0x1F AND DUP3 ADD SWAP2 JUMPDEST POP POP POP POP POP SWAP1 POP SWAP2 POP SWAP2 POP SWAP1 SWAP2 JUMP JUMPDEST PUSH1 0x60 DUP1 PUSH0 DUP1 PUSH1 0x1 PUSH1 0x2 SLOAD DUP3 DUP1 SLOAD PUSH2 0x63F SWAP1 PUSH2 0xAB2 JUMP JUMPDEST DUP1 PUSH1 0x1F ADD PUSH1 0x20 DUP1 SWAP2 DIV MUL PUSH1 0x20 ADD PUSH1 0x40 MLOAD SWAP1 DUP2 ADD PUSH1 0x40 MSTORE DUP1 SWAP3 SWAP2 SWAP1 DUP2 DUP2 MSTORE PUSH1 0x20 ADD DUP3 DUP1 SLOAD PUSH2 0x66B SWAP1 PUSH2 0xAB2 JUMP JUMPDEST DUP1 ISZERO PUSH2 0x6B6 JUMPI DUP1 PUSH1 0x1F LT PUSH2 0x68D JUMPI PUSH2 0x100 DUP1 DUP4 SLOAD DIV MUL DUP4 MSTORE SWAP2 PUSH1 0x20 ADD SWAP2 PUSH2 0x6B6 JUMP JUMPDEST DUP3 ADD SWAP2 SWAP1 PUSH0 MSTORE PUSH1 0x20 PUSH0 KECCAK256 SWAP1 JUMPDEST DUP2 SLOAD DUP2 MSTORE SWAP1 PUSH1 0x1 ADD SWAP1 PUSH1 0x20 ADD DUP1 DUP4 GT PUSH2 0x699 JUMPI DUP3 SWAP1 SUB PUSH1 0x1F AND DUP3 ADD SWAP2 JUMPDEST POP POP POP POP POP SWAP3 POP DUP2 DUP1 SLOAD PUSH2 0x6C9 SWAP1 PUSH2 0xAB2 JUMP JUMPDEST DUP1 PUSH1 0x1F ADD PUSH1 0x20 DUP1 SWAP2 DIV MUL PUSH1 0x20 ADD PUSH1 0x40 MLOAD SWAP1 DUP2 ADD PUSH1 0x40 MSTORE DUP1 SWAP3 SWAP2 SWAP1 DUP2 DUP2 MSTORE PUSH1 0x20 ADD DUP3 DUP1 SLOAD PUSH2 0x6F5 SWAP1 PUSH2 0xAB2 JUMP JUMPDEST DUP1 ISZERO PUSH2 0x740 JUMPI DUP1 PUSH1 0x1F LT PUSH2 0x717 JUMPI PUSH2 0x100 DUP1 DUP4 SLOAD DIV MUL DUP4 MSTORE SWAP2 PUSH1 0x20 ADD SWAP2 PUSH2 0x740 JUMP JUMPDEST DUP3 ADD SWAP2 SWAP1 PUSH0 MSTORE PUSH1 0x20 PUSH0 KECCAK256 SWAP1 JUMPDEST DUP2 SLOAD DUP2 MSTORE SWAP1 PUSH1 0x1 ADD SWAP1 PUSH1 0x20 ADD DUP1 DUP4 GT PUSH2 0x723 JUMPI DUP3 SWAP1 SUB PUSH1 0x1F AND DUP3 ADD SWAP2 JUMPDEST POP POP POP POP POP SWAP2 POP SWAP3 POP SWAP3 POP SWAP3 POP SWAP1 SWAP2 SWAP3 JUMP JUMPDEST PUSH1 0x5 DUP1 SLOAD PUSH2 0x75F SWAP1 PUSH2 0xAB2 JUMP JUMPDEST DUP1 PUSH1 0x1F ADD PUSH1 0x20 DUP1 SWAP2 DIV MUL PUSH1 0x20 ADD PUSH1 0x40 MLOAD SWAP1 DUP2 ADD PUSH1 0x40 MSTORE DUP1 SWAP3 SWAP2 SWAP1 DUP2 DUP2 MSTORE PUSH1 0x20 ADD DUP3 DUP1 SLOAD PUSH2 0x78B SWAP1 PUSH2 0xAB2 JUMP JUMPDEST DUP1 ISZERO PUSH2 0x7D6 JUMPI DUP1 PUSH1 0x1F LT PUSH2 0x7AD JUMPI PUSH2 0x100 DUP1 DUP4 SLOAD DIV MUL DUP4 MSTORE SWAP2 PUSH1 0x20 ADD SWAP2 PUSH2 0x7D6 JUMP JUMPDEST DUP3 ADD SWAP2 SWAP1 PUSH0 MSTORE PUSH1 0x20 PUSH0 KECCAK256 SWAP1 JUMPDEST DUP2 SLOAD DUP2 MSTORE SWAP1 PUSH1 0x1 ADD SWAP1 PUSH1 0x20 ADD DUP1 DUP4 GT PUSH2 0x7B9 JUMPI DUP3 SWAP1 SUB PUSH1 0x1F AND DUP3 ADD SWAP2 JUMPDEST POP POP POP POP POP DUP2 JUMP JUMPDEST PUSH0 DUP1 SLOAD PUSH2 0x7EA SWAP1 PUSH2 0xAB2 JUMP JUMPDEST DUP1 PUSH1 0x1F ADD PUSH1 0x20 DUP1 SWAP2 DIV MUL PUSH1 0x20 ADD PUSH1 0x40 MLOAD SWAP1 DUP2 ADD PUSH1 0x40 MSTORE DUP1 SWAP3 SWAP2 SWAP1 DUP2 DUP2 MSTORE PUSH1 0x20 ADD DUP3 DUP1 SLOAD PUSH2 0x816 SWAP1 PUSH2 0xAB2 JUMP JUMPDEST DUP1 ISZERO PUSH2 0x861 JUMPI DUP1 PUSH1 0x1F LT PUSH2 0x838 JUMPI PUSH2 0x100 DUP1 DUP4 SLOAD DIV MUL DUP4 MSTORE SWAP2 PUSH1 0x20 ADD SWAP2 PUSH2 0x861 JUMP JUMPDEST DUP3 ADD SWAP2 SWAP1 PUSH0 MSTORE PUSH1 0x20 PUSH0 KECCAK256 SWAP1 JUMPDEST DUP2 SLOAD DUP2 MSTORE SWAP1 PUSH1 0x1 ADD SWAP1 PUSH1 0x20 ADD DUP1 DUP4 GT PUSH2 0x844 JUMPI DUP3 SWAP1 SUB PUSH1 0x1F AND DUP3 ADD SWAP2 JUMPDEST POP POP POP POP POP DUP2 JUMP JUMPDEST PUSH1 0x6 SLOAD DUP2 JUMP JUMPDEST PUSH1 0x8 DUP1 SLOAD PUSH2 0x87C SWAP1 PUSH2 0xAB2 JUMP JUMPDEST DUP1 PUSH1 0x1F ADD PUSH1 0x20 DUP1 SWAP2 DIV MUL PUSH1 0x20 ADD PUSH1 0x40 MLOAD SWAP1 DUP2 ADD PUSH1 0x40 MSTORE DUP1 SWAP3 SWAP2 SWAP1 DUP2 DUP2 MSTORE PUSH1 0x20 ADD DUP3 DUP1 SLOAD PUSH2 0x8A8 SWAP1 PUSH2 0xAB2 JUMP JUMPDEST DUP1 ISZERO PUSH2 0x8F3 JUMPI DUP1 PUSH1 0x1F LT PUSH2 0x8CA JUMPI PUSH2 0x100 DUP1 DUP4 SLOAD DIV MUL DUP4 MSTORE SWAP2 PUSH1 0x20 ADD SWAP2 PUSH2 0x8F3 JUMP JUMPDEST DUP3 ADD SWAP2 SWAP1 PUSH0 MSTORE PUSH1 0x20 PUSH0 KECCAK256 SWAP1 JUMPDEST DUP2 SLOAD DUP2 MSTORE SWAP1 PUSH1 0x1 ADD SWAP1 PUSH1 0x20 ADD DUP1 DUP4 GT PUSH2 0x8D6 JUMPI DUP3 SWAP1 SUB PUSH1 0x1F AND DUP3 ADD SWAP2 JUMPDEST POP POP POP POP POP DUP2 JUMP JUMPDEST PUSH0 DUP2 MLOAD SWAP1 POP SWAP2 SWAP1 POP JUMP JUMPDEST PUSH0 DUP3 DUP3 MSTORE PUSH1 0x20 DUP3 ADD SWAP1 POP SWAP3 SWAP2 POP POP JUMP JUMPDEST DUP3 DUP2 DUP4 MCOPY PUSH0 DUP4 DUP4 ADD MSTORE POP POP POP JUMP JUMPDEST PUSH0 PUSH1 0x1F NOT PUSH1 0x1F DUP4 ADD AND SWAP1 POP SWAP2 SWAP1 POP JUMP JUMPDEST PUSH0 PUSH2 0x93D DUP3 PUSH2 0x8FB JUMP JUMPDEST PUSH2 0x947 DUP2 DUP6 PUSH2 0x905 JUMP JUMPDEST SWAP4 POP PUSH2 0x957 DUP2 DUP6 PUSH1 0x20 DUP7 ADD PUSH2 0x915 JUMP JUMPDEST PUSH2 0x960 DUP2 PUSH2 0x923 JUMP JUMPDEST DUP5 ADD SWAP2 POP POP SWAP3 SWAP2 POP POP JUMP JUMPDEST PUSH0 PUSH1 0x20 DUP3 ADD SWAP1 POP DUP2 DUP2 SUB PUSH0 DUP4 ADD MSTORE PUSH2 0x983 DUP2 DUP5 PUSH2 0x933 JUMP JUMPDEST SWAP1 POP SWAP3 SWAP2 POP POP JUMP JUMPDEST PUSH0 DUP2 SWAP1 POP SWAP2 SWAP1 POP JUMP JUMPDEST PUSH2 0x99D DUP2 PUSH2 0x98B JUMP JUMPDEST DUP3 MSTORE POP POP JUMP JUMPDEST PUSH0 PUSH1 0x80 DUP3 ADD SWAP1 POP DUP2 DUP2 SUB PUSH0 DUP4 ADD MSTORE PUSH2 0x9BB DUP2 DUP8 PUSH2 0x933 JUMP JUMPDEST SWAP1 POP PUSH2 0x9CA PUSH1 0x20 DUP4 ADD DUP7 PUSH2 0x994 JUMP JUMPDEST DUP2 DUP2 SUB PUSH1 0x40 DUP4 ADD MSTORE PUSH2 0x9DC DUP2 DUP6 PUSH2 0x933 JUMP JUMPDEST SWAP1 POP PUSH2 0x9EB PUSH1 0x60 DUP4 ADD DUP5 PUSH2 0x994 JUMP JUMPDEST SWAP6 SWAP5 POP POP POP POP POP JUMP JUMPDEST PUSH0 PUSH1 0x20 DUP3 ADD SWAP1 POP PUSH2 0xA07 PUSH0 DUP4 ADD DUP5 PUSH2 0x994 JUMP JUMPDEST SWAP3 SWAP2 POP POP JUMP JUMPDEST PUSH0 PUSH1 0x40 DUP3 ADD SWAP1 POP DUP2 DUP2 SUB PUSH0 DUP4 ADD MSTORE PUSH2 0xA25 DUP2 DUP6 PUSH2 0x933 JUMP JUMPDEST SWAP1 POP DUP2 DUP2 SUB PUSH1 0x20 DUP4 ADD MSTORE PUSH2 0xA39 DUP2 DUP5 PUSH2 0x933 JUMP JUMPDEST SWAP1 POP SWAP4 SWAP3 POP POP POP JUMP JUMPDEST PUSH0 PUSH1 0x60 DUP3 ADD SWAP1 POP DUP2 DUP2 SUB PUSH0 DUP4 ADD MSTORE PUSH2 0xA5A DUP2 DUP7 PUSH2 0x933 JUMP JUMPDEST SWAP1 POP DUP2 DUP2 SUB PUSH1 0x20 DUP4 ADD MSTORE PUSH2 0xA6E DUP2 DUP6 PUSH2 0x933 JUMP JUMPDEST SWAP1 POP PUSH2 0xA7D PUSH1 0x40 DUP4 ADD DUP5 PUSH2 0x994 JUMP JUMPDEST SWAP5 SWAP4 POP POP POP POP JUMP JUMPDEST PUSH32 0x4E487B7100000000000000000000000000000000000000000000000000000000 PUSH0 MSTORE PUSH1 0x22 PUSH1 0x4 MSTORE PUSH1 0x24 PUSH0 REVERT JUMPDEST PUSH0 PUSH1 0x2 DUP3 DIV SWAP1 POP PUSH1 0x1 DUP3 AND DUP1 PUSH2 0xAC9 JUMPI PUSH1 0x7F DUP3 AND SWAP2 POP JUMPDEST PUSH1 0x20 DUP3 LT DUP2 SUB PUSH2 0xADC JUMPI PUSH2 0xADB PUSH2 0xA85 JUMP JUMPDEST JUMPDEST POP SWAP2 SWAP1 POP JUMP INVALID LOG2 PUSH5 0x6970667358 0x22 SLT KECCAK256 PUSH28 0xAB9CD9C6D46D6798BD2505239909D706D807D24EA99A947A9FBF6292 RETURNDATASIZE TLOAD 0xCE PUSH5 0x736F6C6343 STOP ADDMOD BYTE STOP CALLER LOG2 PUSH5 0x6970667358 0x22 SLT KECCAK256 SWAP4 0xC2 ADD 0xAA MLOAD SWAP11 DUP4 SWAP1 0xB2 0xC1 0xBF DUP3 MOD 0xEA COINBASE 0xB1 0x2F EXTCODECOPY RETURNDATASIZE PUSH9 0x7381BCE65E0D503567 SWAP4 0xC7 PUSH10 0x64736F6C634300081A00 CALLER "
		},
		"gasEstimates": {
			"creation": {
				"codeDepositCost": "1710600",
				"executionCost": "1797",
				"totalCost": "1712397"
			},
			"external": {
				"admitStudent(string,uint256,string,uint256,string,string,uint256,string,string)": "infinite",
				"displayStudent(uint256)": "infinite",
				"migrateStudent(uint256,string,string,uint256)": "infinite",
				"students(uint256)": "infinite"
			}
		},
		"methodIdentifiers": {
			"admitStudent(string,uint256,string,uint256,string,string,uint256,string,string)": "be9efc3e",
			"displayStudent(uint256)": "d6aafbcc",
			"migrateStudent(uint256,string,string,uint256)": "086d0dc8",
			"students(uint256)": "06ead22e"
		}
	},
	"abi": [
		{
			"inputs": [
				{
					"internalType": "string",
					"name": "_studentName",
					"type": "string"
				},
				{
					"internalType": "uint256",
					"name": "_regdNo",
					"type": "uint256"
				},
				{
					"internalType": "string",
					"name": "_elective",
					"type": "string"
				},
				{
					"internalType": "uint256",
					"name": "_marks",
					"type": "uint256"
				},
				{
					"internalType": "string",
					"name": "_hostelName",
					"type": "string"
				},
				{
					"internalType": "string",
					"name": "_hostelLocation",
					"type": "string"
				},
				{
					"internalType": "uint256",
					"name": "_rooms",
					"type": "uint256"
				},
				{
					"internalType": "string",
					"name": "_deptName",
					"type": "string"
				},
				{
					"internalType": "string",
					"name": "_deptHead",
					"type": "string"
				}
			],
			"name": "admitStudent",
			"outputs": [],
			"stateMutability": "nonpayable",
			"type": "function"
		},
		{
			"inputs": [
				{
					"internalType": "uint256",
					"name": "_regdNo",
					"type": "uint256"
				}
			],
			"name": "displayStudent",
			"outputs": [
				{
					"internalType": "string",
					"name": "studentName",
					"type": "string"
				},
				{
					"internalType": "uint256",
					"name": "regdNo",
					"type": "uint256"
				},
				{
					"internalType": "string",
					"name": "elective",
					"type": "string"
				},
				{
					"internalType": "uint256",
					"name": "avgMarks",
					"type": "uint256"
				},
				{
					"internalType": "string",
					"name": "hostelName",
					"type": "string"
				},
				{
					"internalType": "string",
					"name": "hostelLocation",
					"type": "string"
				},
				{
					"internalType": "uint256",
					"name": "numberOfRooms",
					"type": "uint256"
				},
				{
					"internalType": "string",
					"name": "deptName",
					"type": "string"
				},
				{
					"internalType": "string",
					"name": "deptHead",
					"type": "string"
				}
			],
			"stateMutability": "view",
			"type": "function"
		},
		{
			"inputs": [
				{
					"internalType": "uint256",
					"name": "_index",
					"type": "uint256"
				},
				{
					"internalType": "string",
					"name": "_hostelName",
					"type": "string"
				},
				{
					"internalType": "string",
					"name": "_hostelLocation",
					"type": "string"
				},
				{
					"internalType": "uint256",
					"name": "_rooms",
					"type": "uint256"
				}
			],
			"name": "migrateStudent",
			"outputs": [],
			"stateMutability": "nonpayable",
			"type": "function"
		},
		{
			"inputs": [
				{
					"internalType": "uint256",
					"name": "",
					"type": "uint256"
				}
			],
			"name": "students",
			"outputs": [
				{
					"internalType": "contract Student",
					"name": "",
					"type": "address"
				}
			],
			"stateMutability": "view",
			"type": "function"
		}
	]
}