{
	"Day-06/D6P2.sol": {
		"Truck": {
			"abi": [
				{
					"inputs": [
						{
							"internalType": "string",
							"name": "_make",
							"type": "string"
						},
						{
							"internalType": "string",
							"name": "_model",
							"type": "string"
						},
						{
							"internalType": "uint256",
							"name": "_year",
							"type": "uint256"
						},
						{
							"internalType": "string",
							"name": "_fuelType",
							"type": "string"
						},
						{
							"internalType": "uint256",
							"name": "_cargoCapacity",
							"type": "uint256"
						}
					],
					"stateMutability": "nonpayable",
					"type": "constructor"
				},
				{
					"inputs": [],
					"name": "cargoCapacity",
					"outputs": [
						{
							"internalType": "uint256",
							"name": "",
							"type": "uint256"
						}
					],
					"stateMutability": "view",
					"type": "function"
				},
				{
					"inputs": [
						{
							"internalType": "uint256",
							"name": "fuelAmount",
							"type": "uint256"
						}
					],
					"name": "distanceTraveled",
					"outputs": [
						{
							"internalType": "uint256",
							"name": "",
							"type": "uint256"
						}
					],
					"stateMutability": "pure",
					"type": "function"
				},
				{
					"inputs": [],
					"name": "fuelEfficiency",
					"outputs": [
						{
							"internalType": "uint256",
							"name": "",
							"type": "uint256"
						}
					],
					"stateMutability": "pure",
					"type": "function"
				},
				{
					"inputs": [],
					"name": "fuelType",
					"outputs": [
						{
							"internalType": "string",
							"name": "",
							"type": "string"
						}
					],
					"stateMutability": "view",
					"type": "function"
				},
				{
					"inputs": [],
					"name": "make",
					"outputs": [
						{
							"internalType": "string",
							"name": "",
							"type": "string"
						}
					],
					"stateMutability": "view",
					"type": "function"
				},
				{
					"inputs": [],
					"name": "maxSpeed",
					"outputs": [
						{
							"internalType": "uint256",
							"name": "",
							"type": "uint256"
						}
					],
					"stateMutability": "pure",
					"type": "function"
				},
				{
					"inputs": [],
					"name": "model",
					"outputs": [
						{
							"internalType": "string",
							"name": "",
							"type": "string"
						}
					],
					"stateMutability": "view",
					"type": "function"
				},
				{
					"inputs": [],
					"name": "year",
					"outputs": [
						{
							"internalType": "uint256",
							"name": "",
							"type": "uint256"
						}
					],
					"stateMutability": "view",
					"type": "function"
				}
			],
			"devdoc": {
				"kind": "dev",
				"methods": {},
				"version": 1
			},
			"evm": {
				"assembly": "    /* \"Day-06/D6P2.sol\":1338:2125  contract Truck is Vehicle {... */\n  mstore(0x40, 0x80)\n    /* \"Day-06/D6P2.sol\":1506:1718  constructor(string memory _make, string memory _model, uint _year, string memory _fuelType, uint _cargoCapacity)... */\n  callvalue\n  dup1\n  iszero\n  tag_1\n  jumpi\n  0x00\n  dup1\n  revert\ntag_1:\n  pop\n  mload(0x40)\n  sub(codesize, bytecodeSize)\n  dup1\n  bytecodeSize\n  dup4\n  codecopy\n  dup2\n  dup2\n  add\n  0x40\n  mstore\n  dup2\n  add\n  swap1\n  tag_2\n  swap2\n  swap1\n  tag_3\n  jump\t// in\ntag_2:\n    /* \"Day-06/D6P2.sol\":1636:1641  _make */\n  dup5\n    /* \"Day-06/D6P2.sol\":1643:1649  _model */\n  dup5\n    /* \"Day-06/D6P2.sol\":1651:1656  _year */\n  dup5\n    /* \"Day-06/D6P2.sol\":1658:1667  _fuelType */\n  dup5\n    /* \"Day-06/D6P2.sol\":391:396  _make */\n  dup4\n    /* \"Day-06/D6P2.sol\":384:388  make */\n  0x00\n    /* \"Day-06/D6P2.sol\":384:396  make = _make */\n  swap1\n  dup2\n  tag_7\n  swap2\n  swap1\n  tag_8\n  jump\t// in\ntag_7:\n  pop\n    /* \"Day-06/D6P2.sol\":415:421  _model */\n  dup3\n    /* \"Day-06/D6P2.sol\":407:412  model */\n  0x01\n    /* \"Day-06/D6P2.sol\":407:421  model = _model */\n  swap1\n  dup2\n  tag_9\n  swap2\n  swap1\n  tag_8\n  jump\t// in\ntag_9:\n  pop\n    /* \"Day-06/D6P2.sol\":439:444  _year */\n  dup2\n    /* \"Day-06/D6P2.sol\":432:436  year */\n  0x02\n    /* \"Day-06/D6P2.sol\":432:444  year = _year */\n  dup2\n  swap1\n  sstore\n  pop\n    /* \"Day-06/D6P2.sol\":466:475  _fuelType */\n  dup1\n    /* \"Day-06/D6P2.sol\":455:463  fuelType */\n  0x03\n    /* \"Day-06/D6P2.sol\":455:475  fuelType = _fuelType */\n  swap1\n  dup2\n  tag_10\n  swap2\n  swap1\n  tag_8\n  jump\t// in\ntag_10:\n  pop\n    /* \"Day-06/D6P2.sol\":281:483  constructor(string memory _make, string memory _model, uint _year, string memory _fuelType) {... */\n  pop\n  pop\n  pop\n  pop\n    /* \"Day-06/D6P2.sol\":1696:1710  _cargoCapacity */\n  dup1\n    /* \"Day-06/D6P2.sol\":1680:1693  cargoCapacity */\n  0x04\n    /* \"Day-06/D6P2.sol\":1680:1710  cargoCapacity = _cargoCapacity */\n  dup2\n  swap1\n  sstore\n  pop\n    /* \"Day-06/D6P2.sol\":1506:1718  constructor(string memory _make, string memory _model, uint _year, string memory _fuelType, uint _cargoCapacity)... */\n  pop\n  pop\n  pop\n  pop\n  pop\n    /* \"Day-06/D6P2.sol\":1338:2125  contract Truck is Vehicle {... */\n  jump(tag_12)\n    /* \"#utility.yul\":7:82   */\ntag_13:\n    /* \"#utility.yul\":40:46   */\n  0x00\n    /* \"#utility.yul\":73:75   */\n  0x40\n    /* \"#utility.yul\":67:76   */\n  mload\n    /* \"#utility.yul\":57:76   */\n  swap1\n  pop\n    /* \"#utility.yul\":7:82   */\n  swap1\n  jump\t// out\n    /* \"#utility.yul\":88:205   */\ntag_14:\n    /* \"#utility.yul\":197:198   */\n  0x00\n    /* \"#utility.yul\":194:195   */\n  dup1\n    /* \"#utility.yul\":187:199   */\n  revert\n    /* \"#utility.yul\":211:328   */\ntag_15:\n    /* \"#utility.yul\":320:321   */\n  0x00\n    /* \"#utility.yul\":317:318   */\n  dup1\n    /* \"#utility.yul\":310:322   */\n  revert\n    /* \"#utility.yul\":334:451   */\ntag_16:\n    /* \"#utility.yul\":443:444   */\n  0x00\n    /* \"#utility.yul\":440:441   */\n  dup1\n    /* \"#utility.yul\":433:445   */\n  revert\n    /* \"#utility.yul\":457:574   */\ntag_17:\n    /* \"#utility.yul\":566:567   */\n  0x00\n    /* \"#utility.yul\":563:564   */\n  dup1\n    /* \"#utility.yul\":556:568   */\n  revert\n    /* \"#utility.yul\":580:682   */\ntag_18:\n    /* \"#utility.yul\":621:627   */\n  0x00\n    /* \"#utility.yul\":672:674   */\n  0x1f\n    /* \"#utility.yul\":668:675   */\n  not\n    /* \"#utility.yul\":663:665   */\n  0x1f\n    /* \"#utility.yul\":656:661   */\n  dup4\n    /* \"#utility.yul\":652:666   */\n  add\n    /* \"#utility.yul\":648:676   */\n  and\n    /* \"#utility.yul\":638:676   */\n  swap1\n  pop\n    /* \"#utility.yul\":580:682   */\n  swap2\n  swap1\n  pop\n  jump\t// out\n    /* \"#utility.yul\":688:868   */\ntag_19:\n    /* \"#utility.yul\":736:813   */\n  0x4e487b7100000000000000000000000000000000000000000000000000000000\n    /* \"#utility.yul\":733:734   */\n  0x00\n    /* \"#utility.yul\":726:814   */\n  mstore\n    /* \"#utility.yul\":833:837   */\n  0x41\n    /* \"#utility.yul\":830:831   */\n  0x04\n    /* \"#utility.yul\":823:838   */\n  mstore\n    /* \"#utility.yul\":857:861   */\n  0x24\n    /* \"#utility.yul\":854:855   */\n  0x00\n    /* \"#utility.yul\":847:862   */\n  revert\n    /* \"#utility.yul\":874:1155   */\ntag_20:\n    /* \"#utility.yul\":957:984   */\n  tag_56\n    /* \"#utility.yul\":979:983   */\n  dup3\n    /* \"#utility.yul\":957:984   */\n  tag_18\n  jump\t// in\ntag_56:\n    /* \"#utility.yul\":949:955   */\n  dup2\n    /* \"#utility.yul\":945:985   */\n  add\n    /* \"#utility.yul\":1087:1093   */\n  dup2\n    /* \"#utility.yul\":1075:1085   */\n  dup2\n    /* \"#utility.yul\":1072:1094   */\n  lt\n    /* \"#utility.yul\":1051:1069   */\n  0xffffffffffffffff\n    /* \"#utility.yul\":1039:1049   */\n  dup3\n    /* \"#utility.yul\":1036:1070   */\n  gt\n    /* \"#utility.yul\":1033:1095   */\n  or\n    /* \"#utility.yul\":1030:1118   */\n  iszero\n  tag_57\n  jumpi\n    /* \"#utility.yul\":1098:1116   */\n  tag_58\n  tag_19\n  jump\t// in\ntag_58:\n    /* \"#utility.yul\":1030:1118   */\ntag_57:\n    /* \"#utility.yul\":1138:1148   */\n  dup1\n    /* \"#utility.yul\":1134:1136   */\n  0x40\n    /* \"#utility.yul\":1127:1149   */\n  mstore\n    /* \"#utility.yul\":917:1155   */\n  pop\n    /* \"#utility.yul\":874:1155   */\n  pop\n  pop\n  jump\t// out\n    /* \"#utility.yul\":1161:1290   */\ntag_21:\n    /* \"#utility.yul\":1195:1201   */\n  0x00\n    /* \"#utility.yul\":1222:1242   */\n  tag_60\n  tag_13\n  jump\t// in\ntag_60:\n    /* \"#utility.yul\":1212:1242   */\n  swap1\n  pop\n    /* \"#utility.yul\":1251:1284   */\n  tag_61\n    /* \"#utility.yul\":1279:1283   */\n  dup3\n    /* \"#utility.yul\":1271:1277   */\n  dup3\n    /* \"#utility.yul\":1251:1284   */\n  tag_20\n  jump\t// in\ntag_61:\n    /* \"#utility.yul\":1161:1290   */\n  swap2\n  swap1\n  pop\n  jump\t// out\n    /* \"#utility.yul\":1296:1604   */\ntag_22:\n    /* \"#utility.yul\":1358:1362   */\n  0x00\n    /* \"#utility.yul\":1448:1466   */\n  0xffffffffffffffff\n    /* \"#utility.yul\":1440:1446   */\n  dup3\n    /* \"#utility.yul\":1437:1467   */\n  gt\n    /* \"#utility.yul\":1434:1490   */\n  iszero\n  tag_63\n  jumpi\n    /* \"#utility.yul\":1470:1488   */\n  tag_64\n  tag_19\n  jump\t// in\ntag_64:\n    /* \"#utility.yul\":1434:1490   */\ntag_63:\n    /* \"#utility.yul\":1508:1537   */\n  tag_65\n    /* \"#utility.yul\":1530:1536   */\n  dup3\n    /* \"#utility.yul\":1508:1537   */\n  tag_18\n  jump\t// in\ntag_65:\n    /* \"#utility.yul\":1500:1537   */\n  swap1\n  pop\n    /* \"#utility.yul\":1592:1596   */\n  0x20\n    /* \"#utility.yul\":1586:1590   */\n  dup2\n    /* \"#utility.yul\":1582:1597   */\n  add\n    /* \"#utility.yul\":1574:1597   */\n  swap1\n  pop\n    /* \"#utility.yul\":1296:1604   */\n  swap2\n  swap1\n  pop\n  jump\t// out\n    /* \"#utility.yul\":1610:1856   */\ntag_23:\n    /* \"#utility.yul\":1691:1692   */\n  0x00\n    /* \"#utility.yul\":1701:1814   */\ntag_67:\n    /* \"#utility.yul\":1715:1721   */\n  dup4\n    /* \"#utility.yul\":1712:1713   */\n  dup2\n    /* \"#utility.yul\":1709:1722   */\n  lt\n    /* \"#utility.yul\":1701:1814   */\n  iszero\n  tag_69\n  jumpi\n    /* \"#utility.yul\":1800:1801   */\n  dup1\n    /* \"#utility.yul\":1795:1798   */\n  dup3\n    /* \"#utility.yul\":1791:1802   */\n  add\n    /* \"#utility.yul\":1785:1803   */\n  mload\n    /* \"#utility.yul\":1781:1782   */\n  dup2\n    /* \"#utility.yul\":1776:1779   */\n  dup5\n    /* \"#utility.yul\":1772:1783   */\n  add\n    /* \"#utility.yul\":1765:1804   */\n  mstore\n    /* \"#utility.yul\":1737:1739   */\n  0x20\n    /* \"#utility.yul\":1734:1735   */\n  dup2\n    /* \"#utility.yul\":1730:1740   */\n  add\n    /* \"#utility.yul\":1725:1740   */\n  swap1\n  pop\n    /* \"#utility.yul\":1701:1814   */\n  jump(tag_67)\ntag_69:\n    /* \"#utility.yul\":1848:1849   */\n  0x00\n    /* \"#utility.yul\":1839:1845   */\n  dup5\n    /* \"#utility.yul\":1834:1837   */\n  dup5\n    /* \"#utility.yul\":1830:1846   */\n  add\n    /* \"#utility.yul\":1823:1850   */\n  mstore\n    /* \"#utility.yul\":1672:1856   */\n  pop\n    /* \"#utility.yul\":1610:1856   */\n  pop\n  pop\n  pop\n  jump\t// out\n    /* \"#utility.yul\":1862:2296   */\ntag_24:\n    /* \"#utility.yul\":1951:1956   */\n  0x00\n    /* \"#utility.yul\":1976:2042   */\n  tag_71\n    /* \"#utility.yul\":1992:2041   */\n  tag_72\n    /* \"#utility.yul\":2034:2040   */\n  dup5\n    /* \"#utility.yul\":1992:2041   */\n  tag_22\n  jump\t// in\ntag_72:\n    /* \"#utility.yul\":1976:2042   */\n  tag_21\n  jump\t// in\ntag_71:\n    /* \"#utility.yul\":1967:2042   */\n  swap1\n  pop\n    /* \"#utility.yul\":2065:2071   */\n  dup3\n    /* \"#utility.yul\":2058:2063   */\n  dup2\n    /* \"#utility.yul\":2051:2072   */\n  mstore\n    /* \"#utility.yul\":2103:2107   */\n  0x20\n    /* \"#utility.yul\":2096:2101   */\n  dup2\n    /* \"#utility.yul\":2092:2108   */\n  add\n    /* \"#utility.yul\":2141:2144   */\n  dup5\n    /* \"#utility.yul\":2132:2138   */\n  dup5\n    /* \"#utility.yul\":2127:2130   */\n  dup5\n    /* \"#utility.yul\":2123:2139   */\n  add\n    /* \"#utility.yul\":2120:2145   */\n  gt\n    /* \"#utility.yul\":2117:2229   */\n  iszero\n  tag_73\n  jumpi\n    /* \"#utility.yul\":2148:2227   */\n  tag_74\n  tag_17\n  jump\t// in\ntag_74:\n    /* \"#utility.yul\":2117:2229   */\ntag_73:\n    /* \"#utility.yul\":2238:2290   */\n  tag_75\n    /* \"#utility.yul\":2283:2289   */\n  dup5\n    /* \"#utility.yul\":2278:2281   */\n  dup3\n    /* \"#utility.yul\":2273:2276   */\n  dup6\n    /* \"#utility.yul\":2238:2290   */\n  tag_23\n  jump\t// in\ntag_75:\n    /* \"#utility.yul\":1957:2296   */\n  pop\n    /* \"#utility.yul\":1862:2296   */\n  swap4\n  swap3\n  pop\n  pop\n  pop\n  jump\t// out\n    /* \"#utility.yul\":2316:2671   */\ntag_25:\n    /* \"#utility.yul\":2383:2388   */\n  0x00\n    /* \"#utility.yul\":2432:2435   */\n  dup3\n    /* \"#utility.yul\":2425:2429   */\n  0x1f\n    /* \"#utility.yul\":2417:2423   */\n  dup4\n    /* \"#utility.yul\":2413:2430   */\n  add\n    /* \"#utility.yul\":2409:2436   */\n  slt\n    /* \"#utility.yul\":2399:2521   */\n  tag_77\n  jumpi\n    /* \"#utility.yul\":2440:2519   */\n  tag_78\n  tag_16\n  jump\t// in\ntag_78:\n    /* \"#utility.yul\":2399:2521   */\ntag_77:\n    /* \"#utility.yul\":2550:2556   */\n  dup2\n    /* \"#utility.yul\":2544:2557   */\n  mload\n    /* \"#utility.yul\":2575:2665   */\n  tag_79\n    /* \"#utility.yul\":2661:2664   */\n  dup5\n    /* \"#utility.yul\":2653:2659   */\n  dup3\n    /* \"#utility.yul\":2646:2650   */\n  0x20\n    /* \"#utility.yul\":2638:2644   */\n  dup7\n    /* \"#utility.yul\":2634:2651   */\n  add\n    /* \"#utility.yul\":2575:2665   */\n  tag_24\n  jump\t// in\ntag_79:\n    /* \"#utility.yul\":2566:2665   */\n  swap2\n  pop\n    /* \"#utility.yul\":2389:2671   */\n  pop\n    /* \"#utility.yul\":2316:2671   */\n  swap3\n  swap2\n  pop\n  pop\n  jump\t// out\n    /* \"#utility.yul\":2677:2754   */\ntag_26:\n    /* \"#utility.yul\":2714:2721   */\n  0x00\n    /* \"#utility.yul\":2743:2748   */\n  dup2\n    /* \"#utility.yul\":2732:2748   */\n  swap1\n  pop\n    /* \"#utility.yul\":2677:2754   */\n  swap2\n  swap1\n  pop\n  jump\t// out\n    /* \"#utility.yul\":2760:2882   */\ntag_27:\n    /* \"#utility.yul\":2833:2857   */\n  tag_82\n    /* \"#utility.yul\":2851:2856   */\n  dup2\n    /* \"#utility.yul\":2833:2857   */\n  tag_26\n  jump\t// in\ntag_82:\n    /* \"#utility.yul\":2826:2831   */\n  dup2\n    /* \"#utility.yul\":2823:2858   */\n  eq\n    /* \"#utility.yul\":2813:2876   */\n  tag_83\n  jumpi\n    /* \"#utility.yul\":2872:2873   */\n  0x00\n    /* \"#utility.yul\":2869:2870   */\n  dup1\n    /* \"#utility.yul\":2862:2874   */\n  revert\n    /* \"#utility.yul\":2813:2876   */\ntag_83:\n    /* \"#utility.yul\":2760:2882   */\n  pop\n  jump\t// out\n    /* \"#utility.yul\":2888:3031   */\ntag_28:\n    /* \"#utility.yul\":2945:2950   */\n  0x00\n    /* \"#utility.yul\":2976:2982   */\n  dup2\n    /* \"#utility.yul\":2970:2983   */\n  mload\n    /* \"#utility.yul\":2961:2983   */\n  swap1\n  pop\n    /* \"#utility.yul\":2992:3025   */\n  tag_85\n    /* \"#utility.yul\":3019:3024   */\n  dup2\n    /* \"#utility.yul\":2992:3025   */\n  tag_27\n  jump\t// in\ntag_85:\n    /* \"#utility.yul\":2888:3031   */\n  swap3\n  swap2\n  pop\n  pop\n  jump\t// out\n    /* \"#utility.yul\":3037:4533   */\ntag_3:\n    /* \"#utility.yul\":3173:3179   */\n  0x00\n    /* \"#utility.yul\":3181:3187   */\n  dup1\n    /* \"#utility.yul\":3189:3195   */\n  0x00\n    /* \"#utility.yul\":3197:3203   */\n  dup1\n    /* \"#utility.yul\":3205:3211   */\n  0x00\n    /* \"#utility.yul\":3254:3257   */\n  0xa0\n    /* \"#utility.yul\":3242:3251   */\n  dup7\n    /* \"#utility.yul\":3233:3240   */\n  dup9\n    /* \"#utility.yul\":3229:3252   */\n  sub\n    /* \"#utility.yul\":3225:3258   */\n  slt\n    /* \"#utility.yul\":3222:3342   */\n  iszero\n  tag_87\n  jumpi\n    /* \"#utility.yul\":3261:3340   */\n  tag_88\n  tag_14\n  jump\t// in\ntag_88:\n    /* \"#utility.yul\":3222:3342   */\ntag_87:\n    /* \"#utility.yul\":3402:3403   */\n  0x00\n    /* \"#utility.yul\":3391:3400   */\n  dup7\n    /* \"#utility.yul\":3387:3404   */\n  add\n    /* \"#utility.yul\":3381:3405   */\n  mload\n    /* \"#utility.yul\":3432:3450   */\n  0xffffffffffffffff\n    /* \"#utility.yul\":3424:3430   */\n  dup2\n    /* \"#utility.yul\":3421:3451   */\n  gt\n    /* \"#utility.yul\":3418:3535   */\n  iszero\n  tag_89\n  jumpi\n    /* \"#utility.yul\":3454:3533   */\n  tag_90\n  tag_15\n  jump\t// in\ntag_90:\n    /* \"#utility.yul\":3418:3535   */\ntag_89:\n    /* \"#utility.yul\":3559:3633   */\n  tag_91\n    /* \"#utility.yul\":3625:3632   */\n  dup9\n    /* \"#utility.yul\":3616:3622   */\n  dup3\n    /* \"#utility.yul\":3605:3614   */\n  dup10\n    /* \"#utility.yul\":3601:3623   */\n  add\n    /* \"#utility.yul\":3559:3633   */\n  tag_25\n  jump\t// in\ntag_91:\n    /* \"#utility.yul\":3549:3633   */\n  swap6\n  pop\n    /* \"#utility.yul\":3352:3643   */\n  pop\n    /* \"#utility.yul\":3703:3705   */\n  0x20\n    /* \"#utility.yul\":3692:3701   */\n  dup7\n    /* \"#utility.yul\":3688:3706   */\n  add\n    /* \"#utility.yul\":3682:3707   */\n  mload\n    /* \"#utility.yul\":3734:3752   */\n  0xffffffffffffffff\n    /* \"#utility.yul\":3726:3732   */\n  dup2\n    /* \"#utility.yul\":3723:3753   */\n  gt\n    /* \"#utility.yul\":3720:3837   */\n  iszero\n  tag_92\n  jumpi\n    /* \"#utility.yul\":3756:3835   */\n  tag_93\n  tag_15\n  jump\t// in\ntag_93:\n    /* \"#utility.yul\":3720:3837   */\ntag_92:\n    /* \"#utility.yul\":3861:3935   */\n  tag_94\n    /* \"#utility.yul\":3927:3934   */\n  dup9\n    /* \"#utility.yul\":3918:3924   */\n  dup3\n    /* \"#utility.yul\":3907:3916   */\n  dup10\n    /* \"#utility.yul\":3903:3925   */\n  add\n    /* \"#utility.yul\":3861:3935   */\n  tag_25\n  jump\t// in\ntag_94:\n    /* \"#utility.yul\":3851:3935   */\n  swap5\n  pop\n    /* \"#utility.yul\":3653:3945   */\n  pop\n    /* \"#utility.yul\":3984:3986   */\n  0x40\n    /* \"#utility.yul\":4010:4074   */\n  tag_95\n    /* \"#utility.yul\":4066:4073   */\n  dup9\n    /* \"#utility.yul\":4057:4063   */\n  dup3\n    /* \"#utility.yul\":4046:4055   */\n  dup10\n    /* \"#utility.yul\":4042:4064   */\n  add\n    /* \"#utility.yul\":4010:4074   */\n  tag_28\n  jump\t// in\ntag_95:\n    /* \"#utility.yul\":4000:4074   */\n  swap4\n  pop\n    /* \"#utility.yul\":3955:4084   */\n  pop\n    /* \"#utility.yul\":4144:4146   */\n  0x60\n    /* \"#utility.yul\":4133:4142   */\n  dup7\n    /* \"#utility.yul\":4129:4147   */\n  add\n    /* \"#utility.yul\":4123:4148   */\n  mload\n    /* \"#utility.yul\":4175:4193   */\n  0xffffffffffffffff\n    /* \"#utility.yul\":4167:4173   */\n  dup2\n    /* \"#utility.yul\":4164:4194   */\n  gt\n    /* \"#utility.yul\":4161:4278   */\n  iszero\n  tag_96\n  jumpi\n    /* \"#utility.yul\":4197:4276   */\n  tag_97\n  tag_15\n  jump\t// in\ntag_97:\n    /* \"#utility.yul\":4161:4278   */\ntag_96:\n    /* \"#utility.yul\":4302:4376   */\n  tag_98\n    /* \"#utility.yul\":4368:4375   */\n  dup9\n    /* \"#utility.yul\":4359:4365   */\n  dup3\n    /* \"#utility.yul\":4348:4357   */\n  dup10\n    /* \"#utility.yul\":4344:4366   */\n  add\n    /* \"#utility.yul\":4302:4376   */\n  tag_25\n  jump\t// in\ntag_98:\n    /* \"#utility.yul\":4292:4376   */\n  swap3\n  pop\n    /* \"#utility.yul\":4094:4386   */\n  pop\n    /* \"#utility.yul\":4425:4428   */\n  0x80\n    /* \"#utility.yul\":4452:4516   */\n  tag_99\n    /* \"#utility.yul\":4508:4515   */\n  dup9\n    /* \"#utility.yul\":4499:4505   */\n  dup3\n    /* \"#utility.yul\":4488:4497   */\n  dup10\n    /* \"#utility.yul\":4484:4506   */\n  add\n    /* \"#utility.yul\":4452:4516   */\n  tag_28\n  jump\t// in\ntag_99:\n    /* \"#utility.yul\":4442:4516   */\n  swap2\n  pop\n    /* \"#utility.yul\":4396:4526   */\n  pop\n    /* \"#utility.yul\":3037:4533   */\n  swap3\n  swap6\n  pop\n  swap3\n  swap6\n  swap1\n  swap4\n  pop\n  jump\t// out\n    /* \"#utility.yul\":4539:4638   */\ntag_29:\n    /* \"#utility.yul\":4591:4597   */\n  0x00\n    /* \"#utility.yul\":4625:4630   */\n  dup2\n    /* \"#utility.yul\":4619:4631   */\n  mload\n    /* \"#utility.yul\":4609:4631   */\n  swap1\n  pop\n    /* \"#utility.yul\":4539:4638   */\n  swap2\n  swap1\n  pop\n  jump\t// out\n    /* \"#utility.yul\":4644:4824   */\ntag_30:\n    /* \"#utility.yul\":4692:4769   */\n  0x4e487b7100000000000000000000000000000000000000000000000000000000\n    /* \"#utility.yul\":4689:4690   */\n  0x00\n    /* \"#utility.yul\":4682:4770   */\n  mstore\n    /* \"#utility.yul\":4789:4793   */\n  0x22\n    /* \"#utility.yul\":4786:4787   */\n  0x04\n    /* \"#utility.yul\":4779:4794   */\n  mstore\n    /* \"#utility.yul\":4813:4817   */\n  0x24\n    /* \"#utility.yul\":4810:4811   */\n  0x00\n    /* \"#utility.yul\":4803:4818   */\n  revert\n    /* \"#utility.yul\":4830:5150   */\ntag_31:\n    /* \"#utility.yul\":4874:4880   */\n  0x00\n    /* \"#utility.yul\":4911:4912   */\n  0x02\n    /* \"#utility.yul\":4905:4909   */\n  dup3\n    /* \"#utility.yul\":4901:4913   */\n  div\n    /* \"#utility.yul\":4891:4913   */\n  swap1\n  pop\n    /* \"#utility.yul\":4958:4959   */\n  0x01\n    /* \"#utility.yul\":4952:4956   */\n  dup3\n    /* \"#utility.yul\":4948:4960   */\n  and\n    /* \"#utility.yul\":4979:4997   */\n  dup1\n    /* \"#utility.yul\":4969:5050   */\n  tag_103\n  jumpi\n    /* \"#utility.yul\":5035:5039   */\n  0x7f\n    /* \"#utility.yul\":5027:5033   */\n  dup3\n    /* \"#utility.yul\":5023:5040   */\n  and\n    /* \"#utility.yul\":5013:5040   */\n  swap2\n  pop\n    /* \"#utility.yul\":4969:5050   */\ntag_103:\n    /* \"#utility.yul\":5097:5099   */\n  0x20\n    /* \"#utility.yul\":5089:5095   */\n  dup3\n    /* \"#utility.yul\":5086:5100   */\n  lt\n    /* \"#utility.yul\":5066:5084   */\n  dup2\n    /* \"#utility.yul\":5063:5101   */\n  sub\n    /* \"#utility.yul\":5060:5144   */\n  tag_104\n  jumpi\n    /* \"#utility.yul\":5116:5134   */\n  tag_105\n  tag_30\n  jump\t// in\ntag_105:\n    /* \"#utility.yul\":5060:5144   */\ntag_104:\n    /* \"#utility.yul\":4881:5150   */\n  pop\n    /* \"#utility.yul\":4830:5150   */\n  swap2\n  swap1\n  pop\n  jump\t// out\n    /* \"#utility.yul\":5156:5297   */\ntag_32:\n    /* \"#utility.yul\":5205:5209   */\n  0x00\n    /* \"#utility.yul\":5228:5231   */\n  dup2\n    /* \"#utility.yul\":5220:5231   */\n  swap1\n  pop\n    /* \"#utility.yul\":5251:5254   */\n  dup2\n    /* \"#utility.yul\":5248:5249   */\n  0x00\n    /* \"#utility.yul\":5241:5255   */\n  mstore\n    /* \"#utility.yul\":5285:5289   */\n  0x20\n    /* \"#utility.yul\":5282:5283   */\n  0x00\n    /* \"#utility.yul\":5272:5290   */\n  keccak256\n    /* \"#utility.yul\":5264:5290   */\n  swap1\n  pop\n    /* \"#utility.yul\":5156:5297   */\n  swap2\n  swap1\n  pop\n  jump\t// out\n    /* \"#utility.yul\":5303:5396   */\ntag_33:\n    /* \"#utility.yul\":5340:5346   */\n  0x00\n    /* \"#utility.yul\":5387:5389   */\n  0x20\n    /* \"#utility.yul\":5382:5384   */\n  0x1f\n    /* \"#utility.yul\":5375:5380   */\n  dup4\n    /* \"#utility.yul\":5371:5385   */\n  add\n    /* \"#utility.yul\":5367:5390   */\n  div\n    /* \"#utility.yul\":5357:5390   */\n  swap1\n  pop\n    /* \"#utility.yul\":5303:5396   */\n  swap2\n  swap1\n  pop\n  jump\t// out\n    /* \"#utility.yul\":5402:5509   */\ntag_34:\n    /* \"#utility.yul\":5446:5454   */\n  0x00\n    /* \"#utility.yul\":5496:5501   */\n  dup3\n    /* \"#utility.yul\":5490:5494   */\n  dup3\n    /* \"#utility.yul\":5486:5502   */\n  shl\n    /* \"#utility.yul\":5465:5502   */\n  swap1\n  pop\n    /* \"#utility.yul\":5402:5509   */\n  swap3\n  swap2\n  pop\n  pop\n  jump\t// out\n    /* \"#utility.yul\":5515:5908   */\ntag_35:\n    /* \"#utility.yul\":5584:5590   */\n  0x00\n    /* \"#utility.yul\":5634:5635   */\n  0x08\n    /* \"#utility.yul\":5622:5632   */\n  dup4\n    /* \"#utility.yul\":5618:5636   */\n  mul\n    /* \"#utility.yul\":5657:5754   */\n  tag_110\n    /* \"#utility.yul\":5687:5753   */\n  0xffffffffffffffffffffffffffffffffffffffffffffffffffffffffffffffff\n    /* \"#utility.yul\":5676:5685   */\n  dup3\n    /* \"#utility.yul\":5657:5754   */\n  tag_34\n  jump\t// in\ntag_110:\n    /* \"#utility.yul\":5775:5814   */\n  tag_111\n    /* \"#utility.yul\":5805:5813   */\n  dup7\n    /* \"#utility.yul\":5794:5803   */\n  dup4\n    /* \"#utility.yul\":5775:5814   */\n  tag_34\n  jump\t// in\ntag_111:\n    /* \"#utility.yul\":5763:5814   */\n  swap6\n  pop\n    /* \"#utility.yul\":5847:5851   */\n  dup1\n    /* \"#utility.yul\":5843:5852   */\n  not\n    /* \"#utility.yul\":5836:5841   */\n  dup5\n    /* \"#utility.yul\":5832:5853   */\n  and\n    /* \"#utility.yul\":5823:5853   */\n  swap4\n  pop\n    /* \"#utility.yul\":5896:5900   */\n  dup1\n    /* \"#utility.yul\":5886:5894   */\n  dup7\n    /* \"#utility.yul\":5882:5901   */\n  and\n    /* \"#utility.yul\":5875:5880   */\n  dup5\n    /* \"#utility.yul\":5872:5902   */\n  or\n    /* \"#utility.yul\":5862:5902   */\n  swap3\n  pop\n    /* \"#utility.yul\":5591:5908   */\n  pop\n  pop\n    /* \"#utility.yul\":5515:5908   */\n  swap4\n  swap3\n  pop\n  pop\n  pop\n  jump\t// out\n    /* \"#utility.yul\":5914:5974   */\ntag_36:\n    /* \"#utility.yul\":5942:5945   */\n  0x00\n    /* \"#utility.yul\":5963:5968   */\n  dup2\n    /* \"#utility.yul\":5956:5968   */\n  swap1\n  pop\n    /* \"#utility.yul\":5914:5974   */\n  swap2\n  swap1\n  pop\n  jump\t// out\n    /* \"#utility.yul\":5980:6122   */\ntag_37:\n    /* \"#utility.yul\":6030:6039   */\n  0x00\n    /* \"#utility.yul\":6063:6116   */\n  tag_114\n    /* \"#utility.yul\":6081:6115   */\n  tag_115\n    /* \"#utility.yul\":6090:6114   */\n  tag_116\n    /* \"#utility.yul\":6108:6113   */\n  dup5\n    /* \"#utility.yul\":6090:6114   */\n  tag_26\n  jump\t// in\ntag_116:\n    /* \"#utility.yul\":6081:6115   */\n  tag_36\n  jump\t// in\ntag_115:\n    /* \"#utility.yul\":6063:6116   */\n  tag_26\n  jump\t// in\ntag_114:\n    /* \"#utility.yul\":6050:6116   */\n  swap1\n  pop\n    /* \"#utility.yul\":5980:6122   */\n  swap2\n  swap1\n  pop\n  jump\t// out\n    /* \"#utility.yul\":6128:6203   */\ntag_38:\n    /* \"#utility.yul\":6171:6174   */\n  0x00\n    /* \"#utility.yul\":6192:6197   */\n  dup2\n    /* \"#utility.yul\":6185:6197   */\n  swap1\n  pop\n    /* \"#utility.yul\":6128:6203   */\n  swap2\n  swap1\n  pop\n  jump\t// out\n    /* \"#utility.yul\":6209:6478   */\ntag_39:\n    /* \"#utility.yul\":6319:6358   */\n  tag_119\n    /* \"#utility.yul\":6350:6357   */\n  dup4\n    /* \"#utility.yul\":6319:6358   */\n  tag_37\n  jump\t// in\ntag_119:\n    /* \"#utility.yul\":6380:6471   */\n  tag_120\n    /* \"#utility.yul\":6429:6470   */\n  tag_121\n    /* \"#utility.yul\":6453:6469   */\n  dup3\n    /* \"#utility.yul\":6429:6470   */\n  tag_38\n  jump\t// in\ntag_121:\n    /* \"#utility.yul\":6421:6427   */\n  dup5\n    /* \"#utility.yul\":6414:6418   */\n  dup5\n    /* \"#utility.yul\":6408:6419   */\n  sload\n    /* \"#utility.yul\":6380:6471   */\n  tag_35\n  jump\t// in\ntag_120:\n    /* \"#utility.yul\":6374:6378   */\n  dup3\n    /* \"#utility.yul\":6367:6472   */\n  sstore\n    /* \"#utility.yul\":6285:6478   */\n  pop\n    /* \"#utility.yul\":6209:6478   */\n  pop\n  pop\n  pop\n  jump\t// out\n    /* \"#utility.yul\":6484:6557   */\ntag_40:\n    /* \"#utility.yul\":6529:6532   */\n  0x00\n    /* \"#utility.yul\":6484:6557   */\n  swap1\n  jump\t// out\n    /* \"#utility.yul\":6563:6752   */\ntag_41:\n    /* \"#utility.yul\":6640:6672   */\n  tag_124\n  tag_40\n  jump\t// in\ntag_124:\n    /* \"#utility.yul\":6681:6746   */\n  tag_125\n    /* \"#utility.yul\":6739:6745   */\n  dup2\n    /* \"#utility.yul\":6731:6737   */\n  dup5\n    /* \"#utility.yul\":6725:6729   */\n  dup5\n    /* \"#utility.yul\":6681:6746   */\n  tag_39\n  jump\t// in\ntag_125:\n    /* \"#utility.yul\":6616:6752   */\n  pop\n    /* \"#utility.yul\":6563:6752   */\n  pop\n  pop\n  jump\t// out\n    /* \"#utility.yul\":6758:6944   */\ntag_42:\n    /* \"#utility.yul\":6818:6938   */\ntag_127:\n    /* \"#utility.yul\":6835:6838   */\n  dup2\n    /* \"#utility.yul\":6828:6833   */\n  dup2\n    /* \"#utility.yul\":6825:6839   */\n  lt\n    /* \"#utility.yul\":6818:6938   */\n  iszero\n  tag_129\n  jumpi\n    /* \"#utility.yul\":6889:6928   */\n  tag_130\n    /* \"#utility.yul\":6926:6927   */\n  0x00\n    /* \"#utility.yul\":6919:6924   */\n  dup3\n    /* \"#utility.yul\":6889:6928   */\n  tag_41\n  jump\t// in\ntag_130:\n    /* \"#utility.yul\":6862:6863   */\n  0x01\n    /* \"#utility.yul\":6855:6860   */\n  dup2\n    /* \"#utility.yul\":6851:6864   */\n  add\n    /* \"#utility.yul\":6842:6864   */\n  swap1\n  pop\n    /* \"#utility.yul\":6818:6938   */\n  jump(tag_127)\ntag_129:\n    /* \"#utility.yul\":6758:6944   */\n  pop\n  pop\n  jump\t// out\n    /* \"#utility.yul\":6950:7493   */\ntag_43:\n    /* \"#utility.yul\":7051:7053   */\n  0x1f\n    /* \"#utility.yul\":7046:7049   */\n  dup3\n    /* \"#utility.yul\":7043:7054   */\n  gt\n    /* \"#utility.yul\":7040:7486   */\n  iszero\n  tag_132\n  jumpi\n    /* \"#utility.yul\":7085:7123   */\n  tag_133\n    /* \"#utility.yul\":7117:7122   */\n  dup2\n    /* \"#utility.yul\":7085:7123   */\n  tag_32\n  jump\t// in\ntag_133:\n    /* \"#utility.yul\":7169:7198   */\n  tag_134\n    /* \"#utility.yul\":7187:7197   */\n  dup5\n    /* \"#utility.yul\":7169:7198   */\n  tag_33\n  jump\t// in\ntag_134:\n    /* \"#utility.yul\":7159:7167   */\n  dup2\n    /* \"#utility.yul\":7155:7199   */\n  add\n    /* \"#utility.yul\":7352:7354   */\n  0x20\n    /* \"#utility.yul\":7340:7350   */\n  dup6\n    /* \"#utility.yul\":7337:7355   */\n  lt\n    /* \"#utility.yul\":7334:7383   */\n  iszero\n  tag_135\n  jumpi\n    /* \"#utility.yul\":7373:7381   */\n  dup2\n    /* \"#utility.yul\":7358:7381   */\n  swap1\n  pop\n    /* \"#utility.yul\":7334:7383   */\ntag_135:\n    /* \"#utility.yul\":7396:7476   */\n  tag_136\n    /* \"#utility.yul\":7452:7474   */\n  tag_137\n    /* \"#utility.yul\":7470:7473   */\n  dup6\n    /* \"#utility.yul\":7452:7474   */\n  tag_33\n  jump\t// in\ntag_137:\n    /* \"#utility.yul\":7442:7450   */\n  dup4\n    /* \"#utility.yul\":7438:7475   */\n  add\n    /* \"#utility.yul\":7425:7436   */\n  dup3\n    /* \"#utility.yul\":7396:7476   */\n  tag_42\n  jump\t// in\ntag_136:\n    /* \"#utility.yul\":7055:7486   */\n  pop\n  pop\n    /* \"#utility.yul\":7040:7486   */\ntag_132:\n    /* \"#utility.yul\":6950:7493   */\n  pop\n  pop\n  pop\n  jump\t// out\n    /* \"#utility.yul\":7499:7616   */\ntag_44:\n    /* \"#utility.yul\":7553:7561   */\n  0x00\n    /* \"#utility.yul\":7603:7608   */\n  dup3\n    /* \"#utility.yul\":7597:7601   */\n  dup3\n    /* \"#utility.yul\":7593:7609   */\n  shr\n    /* \"#utility.yul\":7572:7609   */\n  swap1\n  pop\n    /* \"#utility.yul\":7499:7616   */\n  swap3\n  swap2\n  pop\n  pop\n  jump\t// out\n    /* \"#utility.yul\":7622:7791   */\ntag_45:\n    /* \"#utility.yul\":7666:7672   */\n  0x00\n    /* \"#utility.yul\":7699:7750   */\n  tag_140\n    /* \"#utility.yul\":7747:7748   */\n  0x00\n    /* \"#utility.yul\":7743:7749   */\n  not\n    /* \"#utility.yul\":7735:7740   */\n  dup5\n    /* \"#utility.yul\":7732:7733   */\n  0x08\n    /* \"#utility.yul\":7728:7741   */\n  mul\n    /* \"#utility.yul\":7699:7750   */\n  tag_44\n  jump\t// in\ntag_140:\n    /* \"#utility.yul\":7695:7751   */\n  not\n    /* \"#utility.yul\":7780:7784   */\n  dup1\n    /* \"#utility.yul\":7774:7778   */\n  dup4\n    /* \"#utility.yul\":7770:7785   */\n  and\n    /* \"#utility.yul\":7760:7785   */\n  swap2\n  pop\n    /* \"#utility.yul\":7673:7791   */\n  pop\n    /* \"#utility.yul\":7622:7791   */\n  swap3\n  swap2\n  pop\n  pop\n  jump\t// out\n    /* \"#utility.yul\":7796:8091   */\ntag_46:\n    /* \"#utility.yul\":7872:7876   */\n  0x00\n    /* \"#utility.yul\":8018:8047   */\n  tag_142\n    /* \"#utility.yul\":8043:8046   */\n  dup4\n    /* \"#utility.yul\":8037:8041   */\n  dup4\n    /* \"#utility.yul\":8018:8047   */\n  tag_45\n  jump\t// in\ntag_142:\n    /* \"#utility.yul\":8010:8047   */\n  swap2\n  pop\n    /* \"#utility.yul\":8080:8083   */\n  dup3\n    /* \"#utility.yul\":8077:8078   */\n  0x02\n    /* \"#utility.yul\":8073:8084   */\n  mul\n    /* \"#utility.yul\":8067:8071   */\n  dup3\n    /* \"#utility.yul\":8064:8085   */\n  or\n    /* \"#utility.yul\":8056:8085   */\n  swap1\n  pop\n    /* \"#utility.yul\":7796:8091   */\n  swap3\n  swap2\n  pop\n  pop\n  jump\t// out\n    /* \"#utility.yul\":8096:9491   */\ntag_8:\n    /* \"#utility.yul\":8213:8250   */\n  tag_144\n    /* \"#utility.yul\":8246:8249   */\n  dup3\n    /* \"#utility.yul\":8213:8250   */\n  tag_29\n  jump\t// in\ntag_144:\n    /* \"#utility.yul\":8315:8333   */\n  0xffffffffffffffff\n    /* \"#utility.yul\":8307:8313   */\n  dup2\n    /* \"#utility.yul\":8304:8334   */\n  gt\n    /* \"#utility.yul\":8301:8357   */\n  iszero\n  tag_145\n  jumpi\n    /* \"#utility.yul\":8337:8355   */\n  tag_146\n  tag_19\n  jump\t// in\ntag_146:\n    /* \"#utility.yul\":8301:8357   */\ntag_145:\n    /* \"#utility.yul\":8381:8419   */\n  tag_147\n    /* \"#utility.yul\":8413:8417   */\n  dup3\n    /* \"#utility.yul\":8407:8418   */\n  sload\n    /* \"#utility.yul\":8381:8419   */\n  tag_31\n  jump\t// in\ntag_147:\n    /* \"#utility.yul\":8466:8533   */\n  tag_148\n    /* \"#utility.yul\":8526:8532   */\n  dup3\n    /* \"#utility.yul\":8518:8524   */\n  dup3\n    /* \"#utility.yul\":8512:8516   */\n  dup6\n    /* \"#utility.yul\":8466:8533   */\n  tag_43\n  jump\t// in\ntag_148:\n    /* \"#utility.yul\":8560:8561   */\n  0x00\n    /* \"#utility.yul\":8584:8588   */\n  0x20\n    /* \"#utility.yul\":8571:8588   */\n  swap1\n  pop\n    /* \"#utility.yul\":8616:8618   */\n  0x1f\n    /* \"#utility.yul\":8608:8614   */\n  dup4\n    /* \"#utility.yul\":8605:8619   */\n  gt\n    /* \"#utility.yul\":8633:8634   */\n  0x01\n    /* \"#utility.yul\":8628:9246   */\n  dup2\n  eq\n  tag_150\n  jumpi\n    /* \"#utility.yul\":9290:9291   */\n  0x00\n    /* \"#utility.yul\":9307:9313   */\n  dup5\n    /* \"#utility.yul\":9304:9381   */\n  iszero\n  tag_151\n  jumpi\n    /* \"#utility.yul\":9356:9365   */\n  dup3\n    /* \"#utility.yul\":9351:9354   */\n  dup8\n    /* \"#utility.yul\":9347:9366   */\n  add\n    /* \"#utility.yul\":9341:9367   */\n  mload\n    /* \"#utility.yul\":9332:9367   */\n  swap1\n  pop\n    /* \"#utility.yul\":9304:9381   */\ntag_151:\n    /* \"#utility.yul\":9407:9474   */\n  tag_152\n    /* \"#utility.yul\":9467:9473   */\n  dup6\n    /* \"#utility.yul\":9460:9465   */\n  dup3\n    /* \"#utility.yul\":9407:9474   */\n  tag_46\n  jump\t// in\ntag_152:\n    /* \"#utility.yul\":9401:9405   */\n  dup7\n    /* \"#utility.yul\":9394:9475   */\n  sstore\n    /* \"#utility.yul\":9263:9485   */\n  pop\n    /* \"#utility.yul\":8598:9485   */\n  jump(tag_149)\n    /* \"#utility.yul\":8628:9246   */\ntag_150:\n    /* \"#utility.yul\":8680:8684   */\n  0x1f\n    /* \"#utility.yul\":8676:8685   */\n  not\n    /* \"#utility.yul\":8668:8674   */\n  dup5\n    /* \"#utility.yul\":8664:8686   */\n  and\n    /* \"#utility.yul\":8714:8751   */\n  tag_153\n    /* \"#utility.yul\":8746:8750   */\n  dup7\n    /* \"#utility.yul\":8714:8751   */\n  tag_32\n  jump\t// in\ntag_153:\n    /* \"#utility.yul\":8773:8774   */\n  0x00\n    /* \"#utility.yul\":8787:8995   */\ntag_154:\n    /* \"#utility.yul\":8801:8808   */\n  dup3\n    /* \"#utility.yul\":8798:8799   */\n  dup2\n    /* \"#utility.yul\":8795:8809   */\n  lt\n    /* \"#utility.yul\":8787:8995   */\n  iszero\n  tag_156\n  jumpi\n    /* \"#utility.yul\":8880:8889   */\n  dup5\n    /* \"#utility.yul\":8875:8878   */\n  dup10\n    /* \"#utility.yul\":8871:8890   */\n  add\n    /* \"#utility.yul\":8865:8891   */\n  mload\n    /* \"#utility.yul\":8857:8863   */\n  dup3\n    /* \"#utility.yul\":8850:8892   */\n  sstore\n    /* \"#utility.yul\":8931:8932   */\n  0x01\n    /* \"#utility.yul\":8923:8929   */\n  dup3\n    /* \"#utility.yul\":8919:8933   */\n  add\n    /* \"#utility.yul\":8909:8933   */\n  swap2\n  pop\n    /* \"#utility.yul\":8978:8980   */\n  0x20\n    /* \"#utility.yul\":8967:8976   */\n  dup6\n    /* \"#utility.yul\":8963:8981   */\n  add\n    /* \"#utility.yul\":8950:8981   */\n  swap5\n  pop\n    /* \"#utility.yul\":8824:8828   */\n  0x20\n    /* \"#utility.yul\":8821:8822   */\n  dup2\n    /* \"#utility.yul\":8817:8829   */\n  add\n    /* \"#utility.yul\":8812:8829   */\n  swap1\n  pop\n    /* \"#utility.yul\":8787:8995   */\n  jump(tag_154)\ntag_156:\n    /* \"#utility.yul\":9023:9029   */\n  dup7\n    /* \"#utility.yul\":9014:9021   */\n  dup4\n    /* \"#utility.yul\":9011:9030   */\n  lt\n    /* \"#utility.yul\":9008:9187   */\n  iszero\n  tag_157\n  jumpi\n    /* \"#utility.yul\":9081:9090   */\n  dup5\n    /* \"#utility.yul\":9076:9079   */\n  dup10\n    /* \"#utility.yul\":9072:9091   */\n  add\n    /* \"#utility.yul\":9066:9092   */\n  mload\n    /* \"#utility.yul\":9124:9172   */\n  tag_158\n    /* \"#utility.yul\":9166:9170   */\n  0x1f\n    /* \"#utility.yul\":9158:9164   */\n  dup10\n    /* \"#utility.yul\":9154:9171   */\n  and\n    /* \"#utility.yul\":9143:9152   */\n  dup3\n    /* \"#utility.yul\":9124:9172   */\n  tag_45\n  jump\t// in\ntag_158:\n    /* \"#utility.yul\":9116:9122   */\n  dup4\n    /* \"#utility.yul\":9109:9173   */\n  sstore\n    /* \"#utility.yul\":9031:9187   */\n  pop\n    /* \"#utility.yul\":9008:9187   */\ntag_157:\n    /* \"#utility.yul\":9233:9234   */\n  0x01\n    /* \"#utility.yul\":9229:9230   */\n  0x02\n    /* \"#utility.yul\":9221:9227   */\n  dup9\n    /* \"#utility.yul\":9217:9231   */\n  mul\n    /* \"#utility.yul\":9213:9235   */\n  add\n    /* \"#utility.yul\":9207:9211   */\n  dup9\n    /* \"#utility.yul\":9200:9236   */\n  sstore\n    /* \"#utility.yul\":8635:9246   */\n  pop\n  pop\n  pop\n    /* \"#utility.yul\":8598:9485   */\ntag_149:\n  pop\n    /* \"#utility.yul\":8188:9491   */\n  pop\n  pop\n  pop\n    /* \"#utility.yul\":8096:9491   */\n  pop\n  pop\n  jump\t// out\n    /* \"Day-06/D6P2.sol\":1338:2125  contract Truck is Vehicle {... */\ntag_12:\n  dataSize(sub_0)\n  dup1\n  dataOffset(sub_0)\n  0x00\n  codecopy\n  0x00\n  return\nstop\n\nsub_0: assembly {\n        /* \"Day-06/D6P2.sol\":1338:2125  contract Truck is Vehicle {... */\n      mstore(0x40, 0x80)\n      callvalue\n      dup1\n      iszero\n      tag_1\n      jumpi\n      0x00\n      dup1\n      revert\n    tag_1:\n      pop\n      jumpi(tag_2, lt(calldatasize, 0x04))\n      shr(0xe0, calldataload(0x00))\n      dup1\n      0xd21e1993\n      gt\n      tag_11\n      jumpi\n      dup1\n      0xd21e1993\n      eq\n      tag_7\n      jumpi\n      dup1\n      0xe8311f84\n      eq\n      tag_8\n      jumpi\n      dup1\n      0xf3269716\n      eq\n      tag_9\n      jumpi\n      dup1\n      0xf64eeab6\n      eq\n      tag_10\n      jumpi\n      jump(tag_2)\n    tag_11:\n      dup1\n      0x0ad9d052\n      eq\n      tag_3\n      jumpi\n      dup1\n      0x1e006929\n      eq\n      tag_4\n      jumpi\n      dup1\n      0xaa2ea2ca\n      eq\n      tag_5\n      jumpi\n      dup1\n      0xc6dad082\n      eq\n      tag_6\n      jumpi\n    tag_2:\n      0x00\n      dup1\n      revert\n        /* \"Day-06/D6P2.sol\":147:166  string public model */\n    tag_3:\n      tag_12\n      tag_13\n      jump\t// in\n    tag_12:\n      mload(0x40)\n      tag_14\n      swap2\n      swap1\n      tag_15\n      jump\t// in\n    tag_14:\n      mload(0x40)\n      dup1\n      swap2\n      sub\n      swap1\n      return\n        /* \"Day-06/D6P2.sol\":862:995  function distanceTraveled(uint fuelAmount) public pure virtual returns (uint) {... */\n    tag_4:\n      tag_16\n      0x04\n      dup1\n      calldatasize\n      sub\n      dup2\n      add\n      swap1\n      tag_17\n      swap2\n      swap1\n      tag_18\n      jump\t// in\n    tag_17:\n      tag_19\n      jump\t// in\n    tag_16:\n      mload(0x40)\n      tag_20\n      swap2\n      swap1\n      tag_21\n      jump\t// in\n    tag_20:\n      mload(0x40)\n      dup1\n      swap2\n      sub\n      swap1\n      return\n        /* \"Day-06/D6P2.sol\":1371:1396  uint public cargoCapacity */\n    tag_5:\n      tag_22\n      tag_23\n      jump\t// in\n    tag_22:\n      mload(0x40)\n      tag_24\n      swap2\n      swap1\n      tag_21\n      jump\t// in\n    tag_24:\n      mload(0x40)\n      dup1\n      swap2\n      sub\n      swap1\n      return\n        /* \"Day-06/D6P2.sol\":122:140  string public make */\n    tag_6:\n      tag_25\n      tag_26\n      jump\t// in\n    tag_25:\n      mload(0x40)\n      tag_27\n      swap2\n      swap1\n      tag_15\n      jump\t// in\n    tag_27:\n      mload(0x40)\n      dup1\n      swap2\n      sub\n      swap1\n      return\n        /* \"Day-06/D6P2.sol\":1980:2122  function maxSpeed() public pure override returns (uint) {... */\n    tag_7:\n      tag_28\n      tag_29\n      jump\t// in\n    tag_28:\n      mload(0x40)\n      tag_30\n      swap2\n      swap1\n      tag_21\n      jump\t// in\n    tag_30:\n      mload(0x40)\n      dup1\n      swap2\n      sub\n      swap1\n      return\n        /* \"Day-06/D6P2.sol\":196:218  string public fuelType */\n    tag_8:\n      tag_31\n      tag_32\n      jump\t// in\n    tag_31:\n      mload(0x40)\n      tag_33\n      swap2\n      swap1\n      tag_15\n      jump\t// in\n    tag_33:\n      mload(0x40)\n      dup1\n      swap2\n      sub\n      swap1\n      return\n        /* \"Day-06/D6P2.sol\":173:189  uint public year */\n    tag_9:\n      tag_34\n      tag_35\n      jump\t// in\n    tag_34:\n      mload(0x40)\n      tag_36\n      swap2\n      swap1\n      tag_21\n      jump\t// in\n    tag_36:\n      mload(0x40)\n      dup1\n      swap2\n      sub\n      swap1\n      return\n        /* \"Day-06/D6P2.sol\":1780:1932  function fuelEfficiency() public pure override returns (uint) {... */\n    tag_10:\n      tag_37\n      tag_38\n      jump\t// in\n    tag_37:\n      mload(0x40)\n      tag_39\n      swap2\n      swap1\n      tag_21\n      jump\t// in\n    tag_39:\n      mload(0x40)\n      dup1\n      swap2\n      sub\n      swap1\n      return\n        /* \"Day-06/D6P2.sol\":147:166  string public model */\n    tag_13:\n      0x01\n      dup1\n      sload\n      tag_40\n      swap1\n      tag_41\n      jump\t// in\n    tag_40:\n      dup1\n      0x1f\n      add\n      0x20\n      dup1\n      swap2\n      div\n      mul\n      0x20\n      add\n      mload(0x40)\n      swap1\n      dup2\n      add\n      0x40\n      mstore\n      dup1\n      swap3\n      swap2\n      swap1\n      dup2\n      dup2\n      mstore\n      0x20\n      add\n      dup3\n      dup1\n      sload\n      tag_42\n      swap1\n      tag_41\n      jump\t// in\n    tag_42:\n      dup1\n      iszero\n      tag_43\n      jumpi\n      dup1\n      0x1f\n      lt\n      tag_44\n      jumpi\n      0x0100\n      dup1\n      dup4\n      sload\n      div\n      mul\n      dup4\n      mstore\n      swap2\n      0x20\n      add\n      swap2\n      jump(tag_43)\n    tag_44:\n      dup3\n      add\n      swap2\n      swap1\n      0x00\n      mstore\n      keccak256(0x00, 0x20)\n      swap1\n    tag_45:\n      dup2\n      sload\n      dup2\n      mstore\n      swap1\n      0x01\n      add\n      swap1\n      0x20\n      add\n      dup1\n      dup4\n      gt\n      tag_45\n      jumpi\n      dup3\n      swap1\n      sub\n      0x1f\n      and\n      dup3\n      add\n      swap2\n    tag_43:\n      pop\n      pop\n      pop\n      pop\n      pop\n      dup2\n      jump\t// out\n        /* \"Day-06/D6P2.sol\":862:995  function distanceTraveled(uint fuelAmount) public pure virtual returns (uint) {... */\n    tag_19:\n        /* \"Day-06/D6P2.sol\":934:938  uint */\n      0x00\n        /* \"Day-06/D6P2.sol\":971:987  fuelEfficiency() */\n      tag_47\n        /* \"Day-06/D6P2.sol\":971:985  fuelEfficiency */\n      tag_38\n        /* \"Day-06/D6P2.sol\":971:987  fuelEfficiency() */\n      jump\t// in\n    tag_47:\n        /* \"Day-06/D6P2.sol\":958:968  fuelAmount */\n      dup3\n        /* \"Day-06/D6P2.sol\":958:987  fuelAmount * fuelEfficiency() */\n      tag_48\n      swap2\n      swap1\n      tag_49\n      jump\t// in\n    tag_48:\n        /* \"Day-06/D6P2.sol\":951:987  return fuelAmount * fuelEfficiency() */\n      swap1\n      pop\n        /* \"Day-06/D6P2.sol\":862:995  function distanceTraveled(uint fuelAmount) public pure virtual returns (uint) {... */\n      swap2\n      swap1\n      pop\n      jump\t// out\n        /* \"Day-06/D6P2.sol\":1371:1396  uint public cargoCapacity */\n    tag_23:\n      sload(0x04)\n      dup2\n      jump\t// out\n        /* \"Day-06/D6P2.sol\":122:140  string public make */\n    tag_26:\n      0x00\n      dup1\n      sload\n      tag_50\n      swap1\n      tag_41\n      jump\t// in\n    tag_50:\n      dup1\n      0x1f\n      add\n      0x20\n      dup1\n      swap2\n      div\n      mul\n      0x20\n      add\n      mload(0x40)\n      swap1\n      dup2\n      add\n      0x40\n      mstore\n      dup1\n      swap3\n      swap2\n      swap1\n      dup2\n      dup2\n      mstore\n      0x20\n      add\n      dup3\n      dup1\n      sload\n      tag_51\n      swap1\n      tag_41\n      jump\t// in\n    tag_51:\n      dup1\n      iszero\n      tag_52\n      jumpi\n      dup1\n      0x1f\n      lt\n      tag_53\n      jumpi\n      0x0100\n      dup1\n      dup4\n      sload\n      div\n      mul\n      dup4\n      mstore\n      swap2\n      0x20\n      add\n      swap2\n      jump(tag_52)\n    tag_53:\n      dup3\n      add\n      swap2\n      swap1\n      0x00\n      mstore\n      keccak256(0x00, 0x20)\n      swap1\n    tag_54:\n      dup2\n      sload\n      dup2\n      mstore\n      swap1\n      0x01\n      add\n      swap1\n      0x20\n      add\n      dup1\n      dup4\n      gt\n      tag_54\n      jumpi\n      dup3\n      swap1\n      sub\n      0x1f\n      and\n      dup3\n      add\n      swap2\n    tag_52:\n      pop\n      pop\n      pop\n      pop\n      pop\n      dup2\n      jump\t// out\n        /* \"Day-06/D6P2.sol\":1980:2122  function maxSpeed() public pure override returns (uint) {... */\n    tag_29:\n        /* \"Day-06/D6P2.sol\":2030:2034  uint */\n      0x00\n        /* \"Day-06/D6P2.sol\":2054:2057  100 */\n      0x64\n        /* \"Day-06/D6P2.sol\":2047:2057  return 100 */\n      swap1\n      pop\n        /* \"Day-06/D6P2.sol\":1980:2122  function maxSpeed() public pure override returns (uint) {... */\n      swap1\n      jump\t// out\n        /* \"Day-06/D6P2.sol\":196:218  string public fuelType */\n    tag_32:\n      0x03\n      dup1\n      sload\n      tag_56\n      swap1\n      tag_41\n      jump\t// in\n    tag_56:\n      dup1\n      0x1f\n      add\n      0x20\n      dup1\n      swap2\n      div\n      mul\n      0x20\n      add\n      mload(0x40)\n      swap1\n      dup2\n      add\n      0x40\n      mstore\n      dup1\n      swap3\n      swap2\n      swap1\n      dup2\n      dup2\n      mstore\n      0x20\n      add\n      dup3\n      dup1\n      sload\n      tag_57\n      swap1\n      tag_41\n      jump\t// in\n    tag_57:\n      dup1\n      iszero\n      tag_58\n      jumpi\n      dup1\n      0x1f\n      lt\n      tag_59\n      jumpi\n      0x0100\n      dup1\n      dup4\n      sload\n      div\n      mul\n      dup4\n      mstore\n      swap2\n      0x20\n      add\n      swap2\n      jump(tag_58)\n    tag_59:\n      dup3\n      add\n      swap2\n      swap1\n      0x00\n      mstore\n      keccak256(0x00, 0x20)\n      swap1\n    tag_60:\n      dup2\n      sload\n      dup2\n      mstore\n      swap1\n      0x01\n      add\n      swap1\n      0x20\n      add\n      dup1\n      dup4\n      gt\n      tag_60\n      jumpi\n      dup3\n      swap1\n      sub\n      0x1f\n      and\n      dup3\n      add\n      swap2\n    tag_58:\n      pop\n      pop\n      pop\n      pop\n      pop\n      dup2\n      jump\t// out\n        /* \"Day-06/D6P2.sol\":173:189  uint public year */\n    tag_35:\n      sload(0x02)\n      dup2\n      jump\t// out\n        /* \"Day-06/D6P2.sol\":1780:1932  function fuelEfficiency() public pure override returns (uint) {... */\n    tag_38:\n        /* \"Day-06/D6P2.sol\":1836:1840  uint */\n      0x00\n        /* \"Day-06/D6P2.sol\":1860:1861  8 */\n      0x08\n        /* \"Day-06/D6P2.sol\":1853:1861  return 8 */\n      swap1\n      pop\n        /* \"Day-06/D6P2.sol\":1780:1932  function fuelEfficiency() public pure override returns (uint) {... */\n      swap1\n      jump\t// out\n        /* \"#utility.yul\":7:106   */\n    tag_62:\n        /* \"#utility.yul\":59:65   */\n      0x00\n        /* \"#utility.yul\":93:98   */\n      dup2\n        /* \"#utility.yul\":87:99   */\n      mload\n        /* \"#utility.yul\":77:99   */\n      swap1\n      pop\n        /* \"#utility.yul\":7:106   */\n      swap2\n      swap1\n      pop\n      jump\t// out\n        /* \"#utility.yul\":112:281   */\n    tag_63:\n        /* \"#utility.yul\":196:207   */\n      0x00\n        /* \"#utility.yul\":230:236   */\n      dup3\n        /* \"#utility.yul\":225:228   */\n      dup3\n        /* \"#utility.yul\":218:237   */\n      mstore\n        /* \"#utility.yul\":270:274   */\n      0x20\n        /* \"#utility.yul\":265:268   */\n      dup3\n        /* \"#utility.yul\":261:275   */\n      add\n        /* \"#utility.yul\":246:275   */\n      swap1\n      pop\n        /* \"#utility.yul\":112:281   */\n      swap3\n      swap2\n      pop\n      pop\n      jump\t// out\n        /* \"#utility.yul\":287:533   */\n    tag_64:\n        /* \"#utility.yul\":368:369   */\n      0x00\n        /* \"#utility.yul\":378:491   */\n    tag_80:\n        /* \"#utility.yul\":392:398   */\n      dup4\n        /* \"#utility.yul\":389:390   */\n      dup2\n        /* \"#utility.yul\":386:399   */\n      lt\n        /* \"#utility.yul\":378:491   */\n      iszero\n      tag_82\n      jumpi\n        /* \"#utility.yul\":477:478   */\n      dup1\n        /* \"#utility.yul\":472:475   */\n      dup3\n        /* \"#utility.yul\":468:479   */\n      add\n        /* \"#utility.yul\":462:480   */\n      mload\n        /* \"#utility.yul\":458:459   */\n      dup2\n        /* \"#utility.yul\":453:456   */\n      dup5\n        /* \"#utility.yul\":449:460   */\n      add\n        /* \"#utility.yul\":442:481   */\n      mstore\n        /* \"#utility.yul\":414:416   */\n      0x20\n        /* \"#utility.yul\":411:412   */\n      dup2\n        /* \"#utility.yul\":407:417   */\n      add\n        /* \"#utility.yul\":402:417   */\n      swap1\n      pop\n        /* \"#utility.yul\":378:491   */\n      jump(tag_80)\n    tag_82:\n        /* \"#utility.yul\":525:526   */\n      0x00\n        /* \"#utility.yul\":516:522   */\n      dup5\n        /* \"#utility.yul\":511:514   */\n      dup5\n        /* \"#utility.yul\":507:523   */\n      add\n        /* \"#utility.yul\":500:527   */\n      mstore\n        /* \"#utility.yul\":349:533   */\n      pop\n        /* \"#utility.yul\":287:533   */\n      pop\n      pop\n      pop\n      jump\t// out\n        /* \"#utility.yul\":539:641   */\n    tag_65:\n        /* \"#utility.yul\":580:586   */\n      0x00\n        /* \"#utility.yul\":631:633   */\n      0x1f\n        /* \"#utility.yul\":627:634   */\n      not\n        /* \"#utility.yul\":622:624   */\n      0x1f\n        /* \"#utility.yul\":615:620   */\n      dup4\n        /* \"#utility.yul\":611:625   */\n      add\n        /* \"#utility.yul\":607:635   */\n      and\n        /* \"#utility.yul\":597:635   */\n      swap1\n      pop\n        /* \"#utility.yul\":539:641   */\n      swap2\n      swap1\n      pop\n      jump\t// out\n        /* \"#utility.yul\":647:1024   */\n    tag_66:\n        /* \"#utility.yul\":735:738   */\n      0x00\n        /* \"#utility.yul\":763:802   */\n      tag_85\n        /* \"#utility.yul\":796:801   */\n      dup3\n        /* \"#utility.yul\":763:802   */\n      tag_62\n      jump\t// in\n    tag_85:\n        /* \"#utility.yul\":818:889   */\n      tag_86\n        /* \"#utility.yul\":882:888   */\n      dup2\n        /* \"#utility.yul\":877:880   */\n      dup6\n        /* \"#utility.yul\":818:889   */\n      tag_63\n      jump\t// in\n    tag_86:\n        /* \"#utility.yul\":811:889   */\n      swap4\n      pop\n        /* \"#utility.yul\":898:963   */\n      tag_87\n        /* \"#utility.yul\":956:962   */\n      dup2\n        /* \"#utility.yul\":951:954   */\n      dup6\n        /* \"#utility.yul\":944:948   */\n      0x20\n        /* \"#utility.yul\":937:942   */\n      dup7\n        /* \"#utility.yul\":933:949   */\n      add\n        /* \"#utility.yul\":898:963   */\n      tag_64\n      jump\t// in\n    tag_87:\n        /* \"#utility.yul\":988:1017   */\n      tag_88\n        /* \"#utility.yul\":1010:1016   */\n      dup2\n        /* \"#utility.yul\":988:1017   */\n      tag_65\n      jump\t// in\n    tag_88:\n        /* \"#utility.yul\":983:986   */\n      dup5\n        /* \"#utility.yul\":979:1018   */\n      add\n        /* \"#utility.yul\":972:1018   */\n      swap2\n      pop\n        /* \"#utility.yul\":739:1024   */\n      pop\n        /* \"#utility.yul\":647:1024   */\n      swap3\n      swap2\n      pop\n      pop\n      jump\t// out\n        /* \"#utility.yul\":1030:1343   */\n    tag_15:\n        /* \"#utility.yul\":1143:1147   */\n      0x00\n        /* \"#utility.yul\":1181:1183   */\n      0x20\n        /* \"#utility.yul\":1170:1179   */\n      dup3\n        /* \"#utility.yul\":1166:1184   */\n      add\n        /* \"#utility.yul\":1158:1184   */\n      swap1\n      pop\n        /* \"#utility.yul\":1230:1239   */\n      dup2\n        /* \"#utility.yul\":1224:1228   */\n      dup2\n        /* \"#utility.yul\":1220:1240   */\n      sub\n        /* \"#utility.yul\":1216:1217   */\n      0x00\n        /* \"#utility.yul\":1205:1214   */\n      dup4\n        /* \"#utility.yul\":1201:1218   */\n      add\n        /* \"#utility.yul\":1194:1241   */\n      mstore\n        /* \"#utility.yul\":1258:1336   */\n      tag_90\n        /* \"#utility.yul\":1331:1335   */\n      dup2\n        /* \"#utility.yul\":1322:1328   */\n      dup5\n        /* \"#utility.yul\":1258:1336   */\n      tag_66\n      jump\t// in\n    tag_90:\n        /* \"#utility.yul\":1250:1336   */\n      swap1\n      pop\n        /* \"#utility.yul\":1030:1343   */\n      swap3\n      swap2\n      pop\n      pop\n      jump\t// out\n        /* \"#utility.yul\":1430:1547   */\n    tag_68:\n        /* \"#utility.yul\":1539:1540   */\n      0x00\n        /* \"#utility.yul\":1536:1537   */\n      dup1\n        /* \"#utility.yul\":1529:1541   */\n      revert\n        /* \"#utility.yul\":1676:1753   */\n    tag_70:\n        /* \"#utility.yul\":1713:1720   */\n      0x00\n        /* \"#utility.yul\":1742:1747   */\n      dup2\n        /* \"#utility.yul\":1731:1747   */\n      swap1\n      pop\n        /* \"#utility.yul\":1676:1753   */\n      swap2\n      swap1\n      pop\n      jump\t// out\n        /* \"#utility.yul\":1759:1881   */\n    tag_71:\n        /* \"#utility.yul\":1832:1856   */\n      tag_96\n        /* \"#utility.yul\":1850:1855   */\n      dup2\n        /* \"#utility.yul\":1832:1856   */\n      tag_70\n      jump\t// in\n    tag_96:\n        /* \"#utility.yul\":1825:1830   */\n      dup2\n        /* \"#utility.yul\":1822:1857   */\n      eq\n        /* \"#utility.yul\":1812:1875   */\n      tag_97\n      jumpi\n        /* \"#utility.yul\":1871:1872   */\n      0x00\n        /* \"#utility.yul\":1868:1869   */\n      dup1\n        /* \"#utility.yul\":1861:1873   */\n      revert\n        /* \"#utility.yul\":1812:1875   */\n    tag_97:\n        /* \"#utility.yul\":1759:1881   */\n      pop\n      jump\t// out\n        /* \"#utility.yul\":1887:2026   */\n    tag_72:\n        /* \"#utility.yul\":1933:1938   */\n      0x00\n        /* \"#utility.yul\":1971:1977   */\n      dup2\n        /* \"#utility.yul\":1958:1978   */\n      calldataload\n        /* \"#utility.yul\":1949:1978   */\n      swap1\n      pop\n        /* \"#utility.yul\":1987:2020   */\n      tag_99\n        /* \"#utility.yul\":2014:2019   */\n      dup2\n        /* \"#utility.yul\":1987:2020   */\n      tag_71\n      jump\t// in\n    tag_99:\n        /* \"#utility.yul\":1887:2026   */\n      swap3\n      swap2\n      pop\n      pop\n      jump\t// out\n        /* \"#utility.yul\":2032:2361   */\n    tag_18:\n        /* \"#utility.yul\":2091:2097   */\n      0x00\n        /* \"#utility.yul\":2140:2142   */\n      0x20\n        /* \"#utility.yul\":2128:2137   */\n      dup3\n        /* \"#utility.yul\":2119:2126   */\n      dup5\n        /* \"#utility.yul\":2115:2138   */\n      sub\n        /* \"#utility.yul\":2111:2143   */\n      slt\n        /* \"#utility.yul\":2108:2227   */\n      iszero\n      tag_101\n      jumpi\n        /* \"#utility.yul\":2146:2225   */\n      tag_102\n      tag_68\n      jump\t// in\n    tag_102:\n        /* \"#utility.yul\":2108:2227   */\n    tag_101:\n        /* \"#utility.yul\":2266:2267   */\n      0x00\n        /* \"#utility.yul\":2291:2344   */\n      tag_103\n        /* \"#utility.yul\":2336:2343   */\n      dup5\n        /* \"#utility.yul\":2327:2333   */\n      dup3\n        /* \"#utility.yul\":2316:2325   */\n      dup6\n        /* \"#utility.yul\":2312:2334   */\n      add\n        /* \"#utility.yul\":2291:2344   */\n      tag_72\n      jump\t// in\n    tag_103:\n        /* \"#utility.yul\":2281:2344   */\n      swap2\n      pop\n        /* \"#utility.yul\":2237:2354   */\n      pop\n        /* \"#utility.yul\":2032:2361   */\n      swap3\n      swap2\n      pop\n      pop\n      jump\t// out\n        /* \"#utility.yul\":2367:2485   */\n    tag_73:\n        /* \"#utility.yul\":2454:2478   */\n      tag_105\n        /* \"#utility.yul\":2472:2477   */\n      dup2\n        /* \"#utility.yul\":2454:2478   */\n      tag_70\n      jump\t// in\n    tag_105:\n        /* \"#utility.yul\":2449:2452   */\n      dup3\n        /* \"#utility.yul\":2442:2479   */\n      mstore\n        /* \"#utility.yul\":2367:2485   */\n      pop\n      pop\n      jump\t// out\n        /* \"#utility.yul\":2491:2713   */\n    tag_21:\n        /* \"#utility.yul\":2584:2588   */\n      0x00\n        /* \"#utility.yul\":2622:2624   */\n      0x20\n        /* \"#utility.yul\":2611:2620   */\n      dup3\n        /* \"#utility.yul\":2607:2625   */\n      add\n        /* \"#utility.yul\":2599:2625   */\n      swap1\n      pop\n        /* \"#utility.yul\":2635:2706   */\n      tag_107\n        /* \"#utility.yul\":2703:2704   */\n      0x00\n        /* \"#utility.yul\":2692:2701   */\n      dup4\n        /* \"#utility.yul\":2688:2705   */\n      add\n        /* \"#utility.yul\":2679:2685   */\n      dup5\n        /* \"#utility.yul\":2635:2706   */\n      tag_73\n      jump\t// in\n    tag_107:\n        /* \"#utility.yul\":2491:2713   */\n      swap3\n      swap2\n      pop\n      pop\n      jump\t// out\n        /* \"#utility.yul\":2719:2899   */\n    tag_74:\n        /* \"#utility.yul\":2767:2844   */\n      0x4e487b7100000000000000000000000000000000000000000000000000000000\n        /* \"#utility.yul\":2764:2765   */\n      0x00\n        /* \"#utility.yul\":2757:2845   */\n      mstore\n        /* \"#utility.yul\":2864:2868   */\n      0x22\n        /* \"#utility.yul\":2861:2862   */\n      0x04\n        /* \"#utility.yul\":2854:2869   */\n      mstore\n        /* \"#utility.yul\":2888:2892   */\n      0x24\n        /* \"#utility.yul\":2885:2886   */\n      0x00\n        /* \"#utility.yul\":2878:2893   */\n      revert\n        /* \"#utility.yul\":2905:3225   */\n    tag_41:\n        /* \"#utility.yul\":2949:2955   */\n      0x00\n        /* \"#utility.yul\":2986:2987   */\n      0x02\n        /* \"#utility.yul\":2980:2984   */\n      dup3\n        /* \"#utility.yul\":2976:2988   */\n      div\n        /* \"#utility.yul\":2966:2988   */\n      swap1\n      pop\n        /* \"#utility.yul\":3033:3034   */\n      0x01\n        /* \"#utility.yul\":3027:3031   */\n      dup3\n        /* \"#utility.yul\":3023:3035   */\n      and\n        /* \"#utility.yul\":3054:3072   */\n      dup1\n        /* \"#utility.yul\":3044:3125   */\n      tag_110\n      jumpi\n        /* \"#utility.yul\":3110:3114   */\n      0x7f\n        /* \"#utility.yul\":3102:3108   */\n      dup3\n        /* \"#utility.yul\":3098:3115   */\n      and\n        /* \"#utility.yul\":3088:3115   */\n      swap2\n      pop\n        /* \"#utility.yul\":3044:3125   */\n    tag_110:\n        /* \"#utility.yul\":3172:3174   */\n      0x20\n        /* \"#utility.yul\":3164:3170   */\n      dup3\n        /* \"#utility.yul\":3161:3175   */\n      lt\n        /* \"#utility.yul\":3141:3159   */\n      dup2\n        /* \"#utility.yul\":3138:3176   */\n      sub\n        /* \"#utility.yul\":3135:3219   */\n      tag_111\n      jumpi\n        /* \"#utility.yul\":3191:3209   */\n      tag_112\n      tag_74\n      jump\t// in\n    tag_112:\n        /* \"#utility.yul\":3135:3219   */\n    tag_111:\n        /* \"#utility.yul\":2956:3225   */\n      pop\n        /* \"#utility.yul\":2905:3225   */\n      swap2\n      swap1\n      pop\n      jump\t// out\n        /* \"#utility.yul\":3231:3411   */\n    tag_75:\n        /* \"#utility.yul\":3279:3356   */\n      0x4e487b7100000000000000000000000000000000000000000000000000000000\n        /* \"#utility.yul\":3276:3277   */\n      0x00\n        /* \"#utility.yul\":3269:3357   */\n      mstore\n        /* \"#utility.yul\":3376:3380   */\n      0x11\n        /* \"#utility.yul\":3373:3374   */\n      0x04\n        /* \"#utility.yul\":3366:3381   */\n      mstore\n        /* \"#utility.yul\":3400:3404   */\n      0x24\n        /* \"#utility.yul\":3397:3398   */\n      0x00\n        /* \"#utility.yul\":3390:3405   */\n      revert\n        /* \"#utility.yul\":3417:3827   */\n    tag_49:\n        /* \"#utility.yul\":3457:3464   */\n      0x00\n        /* \"#utility.yul\":3480:3500   */\n      tag_115\n        /* \"#utility.yul\":3498:3499   */\n      dup3\n        /* \"#utility.yul\":3480:3500   */\n      tag_70\n      jump\t// in\n    tag_115:\n        /* \"#utility.yul\":3475:3500   */\n      swap2\n      pop\n        /* \"#utility.yul\":3514:3534   */\n      tag_116\n        /* \"#utility.yul\":3532:3533   */\n      dup4\n        /* \"#utility.yul\":3514:3534   */\n      tag_70\n      jump\t// in\n    tag_116:\n        /* \"#utility.yul\":3509:3534   */\n      swap3\n      pop\n        /* \"#utility.yul\":3569:3570   */\n      dup3\n        /* \"#utility.yul\":3566:3567   */\n      dup3\n        /* \"#utility.yul\":3562:3571   */\n      mul\n        /* \"#utility.yul\":3591:3621   */\n      tag_117\n        /* \"#utility.yul\":3609:3620   */\n      dup2\n        /* \"#utility.yul\":3591:3621   */\n      tag_70\n      jump\t// in\n    tag_117:\n        /* \"#utility.yul\":3580:3621   */\n      swap2\n      pop\n        /* \"#utility.yul\":3770:3771   */\n      dup3\n        /* \"#utility.yul\":3761:3768   */\n      dup3\n        /* \"#utility.yul\":3757:3772   */\n      div\n        /* \"#utility.yul\":3754:3755   */\n      dup5\n        /* \"#utility.yul\":3751:3773   */\n      eq\n        /* \"#utility.yul\":3731:3732   */\n      dup4\n        /* \"#utility.yul\":3724:3733   */\n      iszero\n        /* \"#utility.yul\":3704:3787   */\n      or\n        /* \"#utility.yul\":3681:3820   */\n      tag_118\n      jumpi\n        /* \"#utility.yul\":3800:3818   */\n      tag_119\n      tag_75\n      jump\t// in\n    tag_119:\n        /* \"#utility.yul\":3681:3820   */\n    tag_118:\n        /* \"#utility.yul\":3465:3827   */\n      pop\n        /* \"#utility.yul\":3417:3827   */\n      swap3\n      swap2\n      pop\n      pop\n      jump\t// out\n\n    auxdata: 0xa2646970667358221220fc0e8b6204451cefc67da7c06f913ff444ecee0ab50d3b9dac6ec08dddc375e064736f6c63430008120033\n}\n",
				"bytecode": {
					"linkReferences": {},
					"object": "60806040523480156200001157600080fd5b5060405162000c3738038062000c3783398181016040528101906200003791906200025c565b8484848483600090816200004c919062000582565b5082600190816200005e919062000582565b5081600281905550806003908162000077919062000582565b505050505080600481905550505050505062000669565b6000604051905090565b600080fd5b600080fd5b600080fd5b600080fd5b6000601f19601f8301169050919050565b7f4e487b7100000000000000000000000000000000000000000000000000000000600052604160045260246000fd5b620000f782620000ac565b810181811067ffffffffffffffff82111715620001195762000118620000bd565b5b80604052505050565b60006200012e6200008e565b90506200013c8282620000ec565b919050565b600067ffffffffffffffff8211156200015f576200015e620000bd565b5b6200016a82620000ac565b9050602081019050919050565b60005b83811015620001975780820151818401526020810190506200017a565b60008484015250505050565b6000620001ba620001b48462000141565b62000122565b905082815260208101848484011115620001d957620001d8620000a7565b5b620001e684828562000177565b509392505050565b600082601f830112620002065762000205620000a2565b5b815162000218848260208601620001a3565b91505092915050565b6000819050919050565b620002368162000221565b81146200024257600080fd5b50565b60008151905062000256816200022b565b92915050565b600080600080600060a086880312156200027b576200027a62000098565b5b600086015167ffffffffffffffff8111156200029c576200029b6200009d565b5b620002aa88828901620001ee565b955050602086015167ffffffffffffffff811115620002ce57620002cd6200009d565b5b620002dc88828901620001ee565b9450506040620002ef8882890162000245565b935050606086015167ffffffffffffffff8111156200031357620003126200009d565b5b6200032188828901620001ee565b9250506080620003348882890162000245565b9150509295509295909350565b600081519050919050565b7f4e487b7100000000000000000000000000000000000000000000000000000000600052602260045260246000fd5b600060028204905060018216806200039457607f821691505b602082108103620003aa57620003a96200034c565b5b50919050565b60008190508160005260206000209050919050565b60006020601f8301049050919050565b600082821b905092915050565b600060088302620004147fffffffffffffffffffffffffffffffffffffffffffffffffffffffffffffffff82620003d5565b620004208683620003d5565b95508019841693508086168417925050509392505050565b6000819050919050565b6000620004636200045d620004578462000221565b62000438565b62000221565b9050919050565b6000819050919050565b6200047f8362000442565b620004976200048e826200046a565b848454620003e2565b825550505050565b600090565b620004ae6200049f565b620004bb81848462000474565b505050565b5b81811015620004e357620004d7600082620004a4565b600181019050620004c1565b5050565b601f8211156200053257620004fc81620003b0565b6200050784620003c5565b8101602085101562000517578190505b6200052f6200052685620003c5565b830182620004c0565b50505b505050565b600082821c905092915050565b6000620005576000198460080262000537565b1980831691505092915050565b600062000572838362000544565b9150826002028217905092915050565b6200058d8262000341565b67ffffffffffffffff811115620005a957620005a8620000bd565b5b620005b582546200037b565b620005c2828285620004e7565b600060209050601f831160018114620005fa5760008415620005e5578287015190505b620005f1858262000564565b86555062000661565b601f1984166200060a86620003b0565b60005b8281101562000634578489015182556001820191506020850194506020810190506200060d565b8683101562000654578489015162000650601f89168262000544565b8355505b6001600288020188555050505b505050505050565b6105be80620006796000396000f3fe608060405234801561001057600080fd5b50600436106100885760003560e01c8063d21e19931161005b578063d21e199314610117578063e8311f8414610135578063f326971614610153578063f64eeab61461017157610088565b80630ad9d0521461008d5780631e006929146100ab578063aa2ea2ca146100db578063c6dad082146100f9575b600080fd5b61009561018f565b6040516100a29190610403565b60405180910390f35b6100c560048036038101906100c09190610460565b61021d565b6040516100d2919061049c565b60405180910390f35b6100e3610239565b6040516100f0919061049c565b60405180910390f35b61010161023f565b60405161010e9190610403565b60405180910390f35b61011f6102cd565b60405161012c919061049c565b60405180910390f35b61013d6102d6565b60405161014a9190610403565b60405180910390f35b61015b610364565b604051610168919061049c565b60405180910390f35b61017961036a565b604051610186919061049c565b60405180910390f35b6001805461019c906104e6565b80601f01602080910402602001604051908101604052809291908181526020018280546101c8906104e6565b80156102155780601f106101ea57610100808354040283529160200191610215565b820191906000526020600020905b8154815290600101906020018083116101f857829003601f168201915b505050505081565b600061022761036a565b826102329190610546565b9050919050565b60045481565b6000805461024c906104e6565b80601f0160208091040260200160405190810160405280929190818152602001828054610278906104e6565b80156102c55780601f1061029a576101008083540402835291602001916102c5565b820191906000526020600020905b8154815290600101906020018083116102a857829003601f168201915b505050505081565b60006064905090565b600380546102e3906104e6565b80601f016020809104026020016040519081016040528092919081815260200182805461030f906104e6565b801561035c5780601f106103315761010080835404028352916020019161035c565b820191906000526020600020905b81548152906001019060200180831161033f57829003601f168201915b505050505081565b60025481565b60006008905090565b600081519050919050565b600082825260208201905092915050565b60005b838110156103ad578082015181840152602081019050610392565b60008484015250505050565b6000601f19601f8301169050919050565b60006103d582610373565b6103df818561037e565b93506103ef81856020860161038f565b6103f8816103b9565b840191505092915050565b6000602082019050818103600083015261041d81846103ca565b905092915050565b600080fd5b6000819050919050565b61043d8161042a565b811461044857600080fd5b50565b60008135905061045a81610434565b92915050565b60006020828403121561047657610475610425565b5b60006104848482850161044b565b91505092915050565b6104968161042a565b82525050565b60006020820190506104b1600083018461048d565b92915050565b7f4e487b7100000000000000000000000000000000000000000000000000000000600052602260045260246000fd5b600060028204905060018216806104fe57607f821691505b602082108103610511576105106104b7565b5b50919050565b7f4e487b7100000000000000000000000000000000000000000000000000000000600052601160045260246000fd5b60006105518261042a565b915061055c8361042a565b925082820261056a8161042a565b9150828204841483151761058157610580610517565b5b509291505056fea2646970667358221220fc0e8b6204451cefc67da7c06f913ff444ecee0ab50d3b9dac6ec08dddc375e064736f6c63430008120033",
					"opcodes": "PUSH1 0x80 PUSH1 0x40 MSTORE CALLVALUE DUP1 ISZERO PUSH3 0x11 JUMPI PUSH1 0x0 DUP1 REVERT JUMPDEST POP PUSH1 0x40 MLOAD PUSH3 0xC37 CODESIZE SUB DUP1 PUSH3 0xC37 DUP4 CODECOPY DUP2 DUP2 ADD PUSH1 0x40 MSTORE DUP2 ADD SWAP1 PUSH3 0x37 SWAP2 SWAP1 PUSH3 0x25C JUMP JUMPDEST DUP5 DUP5 DUP5 DUP5 DUP4 PUSH1 0x0 SWAP1 DUP2 PUSH3 0x4C SWAP2 SWAP1 PUSH3 0x582 JUMP JUMPDEST POP DUP3 PUSH1 0x1 SWAP1 DUP2 PUSH3 0x5E SWAP2 SWAP1 PUSH3 0x582 JUMP JUMPDEST POP DUP2 PUSH1 0x2 DUP2 SWAP1 SSTORE POP DUP1 PUSH1 0x3 SWAP1 DUP2 PUSH3 0x77 SWAP2 SWAP1 PUSH3 0x582 JUMP JUMPDEST POP POP POP POP POP DUP1 PUSH1 0x4 DUP2 SWAP1 SSTORE POP POP POP POP POP POP PUSH3 0x669 JUMP JUMPDEST PUSH1 0x0 PUSH1 0x40 MLOAD SWAP1 POP SWAP1 JUMP JUMPDEST PUSH1 0x0 DUP1 REVERT JUMPDEST PUSH1 0x0 DUP1 REVERT JUMPDEST PUSH1 0x0 DUP1 REVERT JUMPDEST PUSH1 0x0 DUP1 REVERT JUMPDEST PUSH1 0x0 PUSH1 0x1F NOT PUSH1 0x1F DUP4 ADD AND SWAP1 POP SWAP2 SWAP1 POP JUMP JUMPDEST PUSH32 0x4E487B7100000000000000000000000000000000000000000000000000000000 PUSH1 0x0 MSTORE PUSH1 0x41 PUSH1 0x4 MSTORE PUSH1 0x24 PUSH1 0x0 REVERT JUMPDEST PUSH3 0xF7 DUP3 PUSH3 0xAC JUMP JUMPDEST DUP2 ADD DUP2 DUP2 LT PUSH8 0xFFFFFFFFFFFFFFFF DUP3 GT OR ISZERO PUSH3 0x119 JUMPI PUSH3 0x118 PUSH3 0xBD JUMP JUMPDEST JUMPDEST DUP1 PUSH1 0x40 MSTORE POP POP POP JUMP JUMPDEST PUSH1 0x0 PUSH3 0x12E PUSH3 0x8E JUMP JUMPDEST SWAP1 POP PUSH3 0x13C DUP3 DUP3 PUSH3 0xEC JUMP JUMPDEST SWAP2 SWAP1 POP JUMP JUMPDEST PUSH1 0x0 PUSH8 0xFFFFFFFFFFFFFFFF DUP3 GT ISZERO PUSH3 0x15F JUMPI PUSH3 0x15E PUSH3 0xBD JUMP JUMPDEST JUMPDEST PUSH3 0x16A DUP3 PUSH3 0xAC JUMP JUMPDEST SWAP1 POP PUSH1 0x20 DUP2 ADD SWAP1 POP SWAP2 SWAP1 POP JUMP JUMPDEST PUSH1 0x0 JUMPDEST DUP4 DUP2 LT ISZERO PUSH3 0x197 JUMPI DUP1 DUP3 ADD MLOAD DUP2 DUP5 ADD MSTORE PUSH1 0x20 DUP2 ADD SWAP1 POP PUSH3 0x17A JUMP JUMPDEST PUSH1 0x0 DUP5 DUP5 ADD MSTORE POP POP POP POP JUMP JUMPDEST PUSH1 0x0 PUSH3 0x1BA PUSH3 0x1B4 DUP5 PUSH3 0x141 JUMP JUMPDEST PUSH3 0x122 JUMP JUMPDEST SWAP1 POP DUP3 DUP2 MSTORE PUSH1 0x20 DUP2 ADD DUP5 DUP5 DUP5 ADD GT ISZERO PUSH3 0x1D9 JUMPI PUSH3 0x1D8 PUSH3 0xA7 JUMP JUMPDEST JUMPDEST PUSH3 0x1E6 DUP5 DUP3 DUP6 PUSH3 0x177 JUMP JUMPDEST POP SWAP4 SWAP3 POP POP POP JUMP JUMPDEST PUSH1 0x0 DUP3 PUSH1 0x1F DUP4 ADD SLT PUSH3 0x206 JUMPI PUSH3 0x205 PUSH3 0xA2 JUMP JUMPDEST JUMPDEST DUP2 MLOAD PUSH3 0x218 DUP5 DUP3 PUSH1 0x20 DUP7 ADD PUSH3 0x1A3 JUMP JUMPDEST SWAP2 POP POP SWAP3 SWAP2 POP POP JUMP JUMPDEST PUSH1 0x0 DUP2 SWAP1 POP SWAP2 SWAP1 POP JUMP JUMPDEST PUSH3 0x236 DUP2 PUSH3 0x221 JUMP JUMPDEST DUP2 EQ PUSH3 0x242 JUMPI PUSH1 0x0 DUP1 REVERT JUMPDEST POP JUMP JUMPDEST PUSH1 0x0 DUP2 MLOAD SWAP1 POP PUSH3 0x256 DUP2 PUSH3 0x22B JUMP JUMPDEST SWAP3 SWAP2 POP POP JUMP JUMPDEST PUSH1 0x0 DUP1 PUSH1 0x0 DUP1 PUSH1 0x0 PUSH1 0xA0 DUP7 DUP9 SUB SLT ISZERO PUSH3 0x27B JUMPI PUSH3 0x27A PUSH3 0x98 JUMP JUMPDEST JUMPDEST PUSH1 0x0 DUP7 ADD MLOAD PUSH8 0xFFFFFFFFFFFFFFFF DUP2 GT ISZERO PUSH3 0x29C JUMPI PUSH3 0x29B PUSH3 0x9D JUMP JUMPDEST JUMPDEST PUSH3 0x2AA DUP9 DUP3 DUP10 ADD PUSH3 0x1EE JUMP JUMPDEST SWAP6 POP POP PUSH1 0x20 DUP7 ADD MLOAD PUSH8 0xFFFFFFFFFFFFFFFF DUP2 GT ISZERO PUSH3 0x2CE JUMPI PUSH3 0x2CD PUSH3 0x9D JUMP JUMPDEST JUMPDEST PUSH3 0x2DC DUP9 DUP3 DUP10 ADD PUSH3 0x1EE JUMP JUMPDEST SWAP5 POP POP PUSH1 0x40 PUSH3 0x2EF DUP9 DUP3 DUP10 ADD PUSH3 0x245 JUMP JUMPDEST SWAP4 POP POP PUSH1 0x60 DUP7 ADD MLOAD PUSH8 0xFFFFFFFFFFFFFFFF DUP2 GT ISZERO PUSH3 0x313 JUMPI PUSH3 0x312 PUSH3 0x9D JUMP JUMPDEST JUMPDEST PUSH3 0x321 DUP9 DUP3 DUP10 ADD PUSH3 0x1EE JUMP JUMPDEST SWAP3 POP POP PUSH1 0x80 PUSH3 0x334 DUP9 DUP3 DUP10 ADD PUSH3 0x245 JUMP JUMPDEST SWAP2 POP POP SWAP3 SWAP6 POP SWAP3 SWAP6 SWAP1 SWAP4 POP JUMP JUMPDEST PUSH1 0x0 DUP2 MLOAD SWAP1 POP SWAP2 SWAP1 POP JUMP JUMPDEST PUSH32 0x4E487B7100000000000000000000000000000000000000000000000000000000 PUSH1 0x0 MSTORE PUSH1 0x22 PUSH1 0x4 MSTORE PUSH1 0x24 PUSH1 0x0 REVERT JUMPDEST PUSH1 0x0 PUSH1 0x2 DUP3 DIV SWAP1 POP PUSH1 0x1 DUP3 AND DUP1 PUSH3 0x394 JUMPI PUSH1 0x7F DUP3 AND SWAP2 POP JUMPDEST PUSH1 0x20 DUP3 LT DUP2 SUB PUSH3 0x3AA JUMPI PUSH3 0x3A9 PUSH3 0x34C JUMP JUMPDEST JUMPDEST POP SWAP2 SWAP1 POP JUMP JUMPDEST PUSH1 0x0 DUP2 SWAP1 POP DUP2 PUSH1 0x0 MSTORE PUSH1 0x20 PUSH1 0x0 KECCAK256 SWAP1 POP SWAP2 SWAP1 POP JUMP JUMPDEST PUSH1 0x0 PUSH1 0x20 PUSH1 0x1F DUP4 ADD DIV SWAP1 POP SWAP2 SWAP1 POP JUMP JUMPDEST PUSH1 0x0 DUP3 DUP3 SHL SWAP1 POP SWAP3 SWAP2 POP POP JUMP JUMPDEST PUSH1 0x0 PUSH1 0x8 DUP4 MUL PUSH3 0x414 PUSH32 0xFFFFFFFFFFFFFFFFFFFFFFFFFFFFFFFFFFFFFFFFFFFFFFFFFFFFFFFFFFFFFFFF DUP3 PUSH3 0x3D5 JUMP JUMPDEST PUSH3 0x420 DUP7 DUP4 PUSH3 0x3D5 JUMP JUMPDEST SWAP6 POP DUP1 NOT DUP5 AND SWAP4 POP DUP1 DUP7 AND DUP5 OR SWAP3 POP POP POP SWAP4 SWAP3 POP POP POP JUMP JUMPDEST PUSH1 0x0 DUP2 SWAP1 POP SWAP2 SWAP1 POP JUMP JUMPDEST PUSH1 0x0 PUSH3 0x463 PUSH3 0x45D PUSH3 0x457 DUP5 PUSH3 0x221 JUMP JUMPDEST PUSH3 0x438 JUMP JUMPDEST PUSH3 0x221 JUMP JUMPDEST SWAP1 POP SWAP2 SWAP1 POP JUMP JUMPDEST PUSH1 0x0 DUP2 SWAP1 POP SWAP2 SWAP1 POP JUMP JUMPDEST PUSH3 0x47F DUP4 PUSH3 0x442 JUMP JUMPDEST PUSH3 0x497 PUSH3 0x48E DUP3 PUSH3 0x46A JUMP JUMPDEST DUP5 DUP5 SLOAD PUSH3 0x3E2 JUMP JUMPDEST DUP3 SSTORE POP POP POP POP JUMP JUMPDEST PUSH1 0x0 SWAP1 JUMP JUMPDEST PUSH3 0x4AE PUSH3 0x49F JUMP JUMPDEST PUSH3 0x4BB DUP2 DUP5 DUP5 PUSH3 0x474 JUMP JUMPDEST POP POP POP JUMP JUMPDEST JUMPDEST DUP2 DUP2 LT ISZERO PUSH3 0x4E3 JUMPI PUSH3 0x4D7 PUSH1 0x0 DUP3 PUSH3 0x4A4 JUMP JUMPDEST PUSH1 0x1 DUP2 ADD SWAP1 POP PUSH3 0x4C1 JUMP JUMPDEST POP POP JUMP JUMPDEST PUSH1 0x1F DUP3 GT ISZERO PUSH3 0x532 JUMPI PUSH3 0x4FC DUP2 PUSH3 0x3B0 JUMP JUMPDEST PUSH3 0x507 DUP5 PUSH3 0x3C5 JUMP JUMPDEST DUP2 ADD PUSH1 0x20 DUP6 LT ISZERO PUSH3 0x517 JUMPI DUP2 SWAP1 POP JUMPDEST PUSH3 0x52F PUSH3 0x526 DUP6 PUSH3 0x3C5 JUMP JUMPDEST DUP4 ADD DUP3 PUSH3 0x4C0 JUMP JUMPDEST POP POP JUMPDEST POP POP POP JUMP JUMPDEST PUSH1 0x0 DUP3 DUP3 SHR SWAP1 POP SWAP3 SWAP2 POP POP JUMP JUMPDEST PUSH1 0x0 PUSH3 0x557 PUSH1 0x0 NOT DUP5 PUSH1 0x8 MUL PUSH3 0x537 JUMP JUMPDEST NOT DUP1 DUP4 AND SWAP2 POP POP SWAP3 SWAP2 POP POP JUMP JUMPDEST PUSH1 0x0 PUSH3 0x572 DUP4 DUP4 PUSH3 0x544 JUMP JUMPDEST SWAP2 POP DUP3 PUSH1 0x2 MUL DUP3 OR SWAP1 POP SWAP3 SWAP2 POP POP JUMP JUMPDEST PUSH3 0x58D DUP3 PUSH3 0x341 JUMP JUMPDEST PUSH8 0xFFFFFFFFFFFFFFFF DUP2 GT ISZERO PUSH3 0x5A9 JUMPI PUSH3 0x5A8 PUSH3 0xBD JUMP JUMPDEST JUMPDEST PUSH3 0x5B5 DUP3 SLOAD PUSH3 0x37B JUMP JUMPDEST PUSH3 0x5C2 DUP3 DUP3 DUP6 PUSH3 0x4E7 JUMP JUMPDEST PUSH1 0x0 PUSH1 0x20 SWAP1 POP PUSH1 0x1F DUP4 GT PUSH1 0x1 DUP2 EQ PUSH3 0x5FA JUMPI PUSH1 0x0 DUP5 ISZERO PUSH3 0x5E5 JUMPI DUP3 DUP8 ADD MLOAD SWAP1 POP JUMPDEST PUSH3 0x5F1 DUP6 DUP3 PUSH3 0x564 JUMP JUMPDEST DUP7 SSTORE POP PUSH3 0x661 JUMP JUMPDEST PUSH1 0x1F NOT DUP5 AND PUSH3 0x60A DUP7 PUSH3 0x3B0 JUMP JUMPDEST PUSH1 0x0 JUMPDEST DUP3 DUP2 LT ISZERO PUSH3 0x634 JUMPI DUP5 DUP10 ADD MLOAD DUP3 SSTORE PUSH1 0x1 DUP3 ADD SWAP2 POP PUSH1 0x20 DUP6 ADD SWAP5 POP PUSH1 0x20 DUP2 ADD SWAP1 POP PUSH3 0x60D JUMP JUMPDEST DUP7 DUP4 LT ISZERO PUSH3 0x654 JUMPI DUP5 DUP10 ADD MLOAD PUSH3 0x650 PUSH1 0x1F DUP10 AND DUP3 PUSH3 0x544 JUMP JUMPDEST DUP4 SSTORE POP JUMPDEST PUSH1 0x1 PUSH1 0x2 DUP9 MUL ADD DUP9 SSTORE POP POP POP JUMPDEST POP POP POP POP POP POP JUMP JUMPDEST PUSH2 0x5BE DUP1 PUSH3 0x679 PUSH1 0x0 CODECOPY PUSH1 0x0 RETURN INVALID PUSH1 0x80 PUSH1 0x40 MSTORE CALLVALUE DUP1 ISZERO PUSH2 0x10 JUMPI PUSH1 0x0 DUP1 REVERT JUMPDEST POP PUSH1 0x4 CALLDATASIZE LT PUSH2 0x88 JUMPI PUSH1 0x0 CALLDATALOAD PUSH1 0xE0 SHR DUP1 PUSH4 0xD21E1993 GT PUSH2 0x5B JUMPI DUP1 PUSH4 0xD21E1993 EQ PUSH2 0x117 JUMPI DUP1 PUSH4 0xE8311F84 EQ PUSH2 0x135 JUMPI DUP1 PUSH4 0xF3269716 EQ PUSH2 0x153 JUMPI DUP1 PUSH4 0xF64EEAB6 EQ PUSH2 0x171 JUMPI PUSH2 0x88 JUMP JUMPDEST DUP1 PUSH4 0xAD9D052 EQ PUSH2 0x8D JUMPI DUP1 PUSH4 0x1E006929 EQ PUSH2 0xAB JUMPI DUP1 PUSH4 0xAA2EA2CA EQ PUSH2 0xDB JUMPI DUP1 PUSH4 0xC6DAD082 EQ PUSH2 0xF9 JUMPI JUMPDEST PUSH1 0x0 DUP1 REVERT JUMPDEST PUSH2 0x95 PUSH2 0x18F JUMP JUMPDEST PUSH1 0x40 MLOAD PUSH2 0xA2 SWAP2 SWAP1 PUSH2 0x403 JUMP JUMPDEST PUSH1 0x40 MLOAD DUP1 SWAP2 SUB SWAP1 RETURN JUMPDEST PUSH2 0xC5 PUSH1 0x4 DUP1 CALLDATASIZE SUB DUP2 ADD SWAP1 PUSH2 0xC0 SWAP2 SWAP1 PUSH2 0x460 JUMP JUMPDEST PUSH2 0x21D JUMP JUMPDEST PUSH1 0x40 MLOAD PUSH2 0xD2 SWAP2 SWAP1 PUSH2 0x49C JUMP JUMPDEST PUSH1 0x40 MLOAD DUP1 SWAP2 SUB SWAP1 RETURN JUMPDEST PUSH2 0xE3 PUSH2 0x239 JUMP JUMPDEST PUSH1 0x40 MLOAD PUSH2 0xF0 SWAP2 SWAP1 PUSH2 0x49C JUMP JUMPDEST PUSH1 0x40 MLOAD DUP1 SWAP2 SUB SWAP1 RETURN JUMPDEST PUSH2 0x101 PUSH2 0x23F JUMP JUMPDEST PUSH1 0x40 MLOAD PUSH2 0x10E SWAP2 SWAP1 PUSH2 0x403 JUMP JUMPDEST PUSH1 0x40 MLOAD DUP1 SWAP2 SUB SWAP1 RETURN JUMPDEST PUSH2 0x11F PUSH2 0x2CD JUMP JUMPDEST PUSH1 0x40 MLOAD PUSH2 0x12C SWAP2 SWAP1 PUSH2 0x49C JUMP JUMPDEST PUSH1 0x40 MLOAD DUP1 SWAP2 SUB SWAP1 RETURN JUMPDEST PUSH2 0x13D PUSH2 0x2D6 JUMP JUMPDEST PUSH1 0x40 MLOAD PUSH2 0x14A SWAP2 SWAP1 PUSH2 0x403 JUMP JUMPDEST PUSH1 0x40 MLOAD DUP1 SWAP2 SUB SWAP1 RETURN JUMPDEST PUSH2 0x15B PUSH2 0x364 JUMP JUMPDEST PUSH1 0x40 MLOAD PUSH2 0x168 SWAP2 SWAP1 PUSH2 0x49C JUMP JUMPDEST PUSH1 0x40 MLOAD DUP1 SWAP2 SUB SWAP1 RETURN JUMPDEST PUSH2 0x179 PUSH2 0x36A JUMP JUMPDEST PUSH1 0x40 MLOAD PUSH2 0x186 SWAP2 SWAP1 PUSH2 0x49C JUMP JUMPDEST PUSH1 0x40 MLOAD DUP1 SWAP2 SUB SWAP1 RETURN JUMPDEST PUSH1 0x1 DUP1 SLOAD PUSH2 0x19C SWAP1 PUSH2 0x4E6 JUMP JUMPDEST DUP1 PUSH1 0x1F ADD PUSH1 0x20 DUP1 SWAP2 DIV MUL PUSH1 0x20 ADD PUSH1 0x40 MLOAD SWAP1 DUP2 ADD PUSH1 0x40 MSTORE DUP1 SWAP3 SWAP2 SWAP1 DUP2 DUP2 MSTORE PUSH1 0x20 ADD DUP3 DUP1 SLOAD PUSH2 0x1C8 SWAP1 PUSH2 0x4E6 JUMP JUMPDEST DUP1 ISZERO PUSH2 0x215 JUMPI DUP1 PUSH1 0x1F LT PUSH2 0x1EA JUMPI PUSH2 0x100 DUP1 DUP4 SLOAD DIV MUL DUP4 MSTORE SWAP2 PUSH1 0x20 ADD SWAP2 PUSH2 0x215 JUMP JUMPDEST DUP3 ADD SWAP2 SWAP1 PUSH1 0x0 MSTORE PUSH1 0x20 PUSH1 0x0 KECCAK256 SWAP1 JUMPDEST DUP2 SLOAD DUP2 MSTORE SWAP1 PUSH1 0x1 ADD SWAP1 PUSH1 0x20 ADD DUP1 DUP4 GT PUSH2 0x1F8 JUMPI DUP3 SWAP1 SUB PUSH1 0x1F AND DUP3 ADD SWAP2 JUMPDEST POP POP POP POP POP DUP2 JUMP JUMPDEST PUSH1 0x0 PUSH2 0x227 PUSH2 0x36A JUMP JUMPDEST DUP3 PUSH2 0x232 SWAP2 SWAP1 PUSH2 0x546 JUMP JUMPDEST SWAP1 POP SWAP2 SWAP1 POP JUMP JUMPDEST PUSH1 0x4 SLOAD DUP2 JUMP JUMPDEST PUSH1 0x0 DUP1 SLOAD PUSH2 0x24C SWAP1 PUSH2 0x4E6 JUMP JUMPDEST DUP1 PUSH1 0x1F ADD PUSH1 0x20 DUP1 SWAP2 DIV MUL PUSH1 0x20 ADD PUSH1 0x40 MLOAD SWAP1 DUP2 ADD PUSH1 0x40 MSTORE DUP1 SWAP3 SWAP2 SWAP1 DUP2 DUP2 MSTORE PUSH1 0x20 ADD DUP3 DUP1 SLOAD PUSH2 0x278 SWAP1 PUSH2 0x4E6 JUMP JUMPDEST DUP1 ISZERO PUSH2 0x2C5 JUMPI DUP1 PUSH1 0x1F LT PUSH2 0x29A JUMPI PUSH2 0x100 DUP1 DUP4 SLOAD DIV MUL DUP4 MSTORE SWAP2 PUSH1 0x20 ADD SWAP2 PUSH2 0x2C5 JUMP JUMPDEST DUP3 ADD SWAP2 SWAP1 PUSH1 0x0 MSTORE PUSH1 0x20 PUSH1 0x0 KECCAK256 SWAP1 JUMPDEST DUP2 SLOAD DUP2 MSTORE SWAP1 PUSH1 0x1 ADD SWAP1 PUSH1 0x20 ADD DUP1 DUP4 GT PUSH2 0x2A8 JUMPI DUP3 SWAP1 SUB PUSH1 0x1F AND DUP3 ADD SWAP2 JUMPDEST POP POP POP POP POP DUP2 JUMP JUMPDEST PUSH1 0x0 PUSH1 0x64 SWAP1 POP SWAP1 JUMP JUMPDEST PUSH1 0x3 DUP1 SLOAD PUSH2 0x2E3 SWAP1 PUSH2 0x4E6 JUMP JUMPDEST DUP1 PUSH1 0x1F ADD PUSH1 0x20 DUP1 SWAP2 DIV MUL PUSH1 0x20 ADD PUSH1 0x40 MLOAD SWAP1 DUP2 ADD PUSH1 0x40 MSTORE DUP1 SWAP3 SWAP2 SWAP1 DUP2 DUP2 MSTORE PUSH1 0x20 ADD DUP3 DUP1 SLOAD PUSH2 0x30F SWAP1 PUSH2 0x4E6 JUMP JUMPDEST DUP1 ISZERO PUSH2 0x35C JUMPI DUP1 PUSH1 0x1F LT PUSH2 0x331 JUMPI PUSH2 0x100 DUP1 DUP4 SLOAD DIV MUL DUP4 MSTORE SWAP2 PUSH1 0x20 ADD SWAP2 PUSH2 0x35C JUMP JUMPDEST DUP3 ADD SWAP2 SWAP1 PUSH1 0x0 MSTORE PUSH1 0x20 PUSH1 0x0 KECCAK256 SWAP1 JUMPDEST DUP2 SLOAD DUP2 MSTORE SWAP1 PUSH1 0x1 ADD SWAP1 PUSH1 0x20 ADD DUP1 DUP4 GT PUSH2 0x33F JUMPI DUP3 SWAP1 SUB PUSH1 0x1F AND DUP3 ADD SWAP2 JUMPDEST POP POP POP POP POP DUP2 JUMP JUMPDEST PUSH1 0x2 SLOAD DUP2 JUMP JUMPDEST PUSH1 0x0 PUSH1 0x8 SWAP1 POP SWAP1 JUMP JUMPDEST PUSH1 0x0 DUP2 MLOAD SWAP1 POP SWAP2 SWAP1 POP JUMP JUMPDEST PUSH1 0x0 DUP3 DUP3 MSTORE PUSH1 0x20 DUP3 ADD SWAP1 POP SWAP3 SWAP2 POP POP JUMP JUMPDEST PUSH1 0x0 JUMPDEST DUP4 DUP2 LT ISZERO PUSH2 0x3AD JUMPI DUP1 DUP3 ADD MLOAD DUP2 DUP5 ADD MSTORE PUSH1 0x20 DUP2 ADD SWAP1 POP PUSH2 0x392 JUMP JUMPDEST PUSH1 0x0 DUP5 DUP5 ADD MSTORE POP POP POP POP JUMP JUMPDEST PUSH1 0x0 PUSH1 0x1F NOT PUSH1 0x1F DUP4 ADD AND SWAP1 POP SWAP2 SWAP1 POP JUMP JUMPDEST PUSH1 0x0 PUSH2 0x3D5 DUP3 PUSH2 0x373 JUMP JUMPDEST PUSH2 0x3DF DUP2 DUP6 PUSH2 0x37E JUMP JUMPDEST SWAP4 POP PUSH2 0x3EF DUP2 DUP6 PUSH1 0x20 DUP7 ADD PUSH2 0x38F JUMP JUMPDEST PUSH2 0x3F8 DUP2 PUSH2 0x3B9 JUMP JUMPDEST DUP5 ADD SWAP2 POP POP SWAP3 SWAP2 POP POP JUMP JUMPDEST PUSH1 0x0 PUSH1 0x20 DUP3 ADD SWAP1 POP DUP2 DUP2 SUB PUSH1 0x0 DUP4 ADD MSTORE PUSH2 0x41D DUP2 DUP5 PUSH2 0x3CA JUMP JUMPDEST SWAP1 POP SWAP3 SWAP2 POP POP JUMP JUMPDEST PUSH1 0x0 DUP1 REVERT JUMPDEST PUSH1 0x0 DUP2 SWAP1 POP SWAP2 SWAP1 POP JUMP JUMPDEST PUSH2 0x43D DUP2 PUSH2 0x42A JUMP JUMPDEST DUP2 EQ PUSH2 0x448 JUMPI PUSH1 0x0 DUP1 REVERT JUMPDEST POP JUMP JUMPDEST PUSH1 0x0 DUP2 CALLDATALOAD SWAP1 POP PUSH2 0x45A DUP2 PUSH2 0x434 JUMP JUMPDEST SWAP3 SWAP2 POP POP JUMP JUMPDEST PUSH1 0x0 PUSH1 0x20 DUP3 DUP5 SUB SLT ISZERO PUSH2 0x476 JUMPI PUSH2 0x475 PUSH2 0x425 JUMP JUMPDEST JUMPDEST PUSH1 0x0 PUSH2 0x484 DUP5 DUP3 DUP6 ADD PUSH2 0x44B JUMP JUMPDEST SWAP2 POP POP SWAP3 SWAP2 POP POP JUMP JUMPDEST PUSH2 0x496 DUP2 PUSH2 0x42A JUMP JUMPDEST DUP3 MSTORE POP POP JUMP JUMPDEST PUSH1 0x0 PUSH1 0x20 DUP3 ADD SWAP1 POP PUSH2 0x4B1 PUSH1 0x0 DUP4 ADD DUP5 PUSH2 0x48D JUMP JUMPDEST SWAP3 SWAP2 POP POP JUMP JUMPDEST PUSH32 0x4E487B7100000000000000000000000000000000000000000000000000000000 PUSH1 0x0 MSTORE PUSH1 0x22 PUSH1 0x4 MSTORE PUSH1 0x24 PUSH1 0x0 REVERT JUMPDEST PUSH1 0x0 PUSH1 0x2 DUP3 DIV SWAP1 POP PUSH1 0x1 DUP3 AND DUP1 PUSH2 0x4FE JUMPI PUSH1 0x7F DUP3 AND SWAP2 POP JUMPDEST PUSH1 0x20 DUP3 LT DUP2 SUB PUSH2 0x511 JUMPI PUSH2 0x510 PUSH2 0x4B7 JUMP JUMPDEST JUMPDEST POP SWAP2 SWAP1 POP JUMP JUMPDEST PUSH32 0x4E487B7100000000000000000000000000000000000000000000000000000000 PUSH1 0x0 MSTORE PUSH1 0x11 PUSH1 0x4 MSTORE PUSH1 0x24 PUSH1 0x0 REVERT JUMPDEST PUSH1 0x0 PUSH2 0x551 DUP3 PUSH2 0x42A JUMP JUMPDEST SWAP2 POP PUSH2 0x55C DUP4 PUSH2 0x42A JUMP JUMPDEST SWAP3 POP DUP3 DUP3 MUL PUSH2 0x56A DUP2 PUSH2 0x42A JUMP JUMPDEST SWAP2 POP DUP3 DUP3 DIV DUP5 EQ DUP4 ISZERO OR PUSH2 0x581 JUMPI PUSH2 0x580 PUSH2 0x517 JUMP JUMPDEST JUMPDEST POP SWAP3 SWAP2 POP POP JUMP INVALID LOG2 PUSH5 0x6970667358 0x22 SLT KECCAK256 0xFC 0xE DUP12 PUSH3 0x4451C 0xEF 0xC6 PUSH30 0xA7C06F913FF444ECEE0AB50D3B9DAC6EC08DDDC375E064736F6C63430008 SLT STOP CALLER "
				},
				"gasEstimates": {
					"creation": {
						"codeDepositCost": "294000",
						"executionCost": "infinite",
						"totalCost": "infinite"
					},
					"external": {
						"cargoCapacity()": "2474",
						"distanceTraveled(uint256)": "infinite",
						"fuelEfficiency()": "403",
						"fuelType()": "infinite",
						"make()": "infinite",
						"maxSpeed()": "337",
						"model()": "infinite",
						"year()": "2473"
					}
				},
				"methodIdentifiers": {
					"cargoCapacity()": "aa2ea2ca",
					"distanceTraveled(uint256)": "1e006929",
					"fuelEfficiency()": "f64eeab6",
					"fuelType()": "e8311f84",
					"make()": "c6dad082",
					"maxSpeed()": "d21e1993",
					"model()": "0ad9d052",
					"year()": "f3269716"
				}
			},
			"storageLayout": {
				"storage": [
					{
						"astId": 3,
						"contract": "Day-06/D6P2.sol:Truck",
						"label": "make",
						"offset": 0,
						"slot": "0",
						"type": "t_string_storage"
					},
					{
						"astId": 5,
						"contract": "Day-06/D6P2.sol:Truck",
						"label": "model",
						"offset": 0,
						"slot": "1",
						"type": "t_string_storage"
					},
					{
						"astId": 7,
						"contract": "Day-06/D6P2.sol:Truck",
						"label": "year",
						"offset": 0,
						"slot": "2",
						"type": "t_uint256"
					},
					{
						"astId": 9,
						"contract": "Day-06/D6P2.sol:Truck",
						"label": "fuelType",
						"offset": 0,
						"slot": "3",
						"type": "t_string_storage"
					},
					{
						"astId": 71,
						"contract": "Day-06/D6P2.sol:Truck",
						"label": "cargoCapacity",
						"offset": 0,
						"slot": "4",
						"type": "t_uint256"
					}
				],
				"types": {
					"t_string_storage": {
						"encoding": "bytes",
						"label": "string",
						"numberOfBytes": "32"
					},
					"t_uint256": {
						"encoding": "inplace",
						"label": "uint256",
						"numberOfBytes": "32"
					}
				}
			},
			"userdoc": {
				"kind": "user",
				"methods": {},
				"version": 1
			}
		}
	}
}