{
	"Day-06/D6P2.sol": {
		"Motorcycle": {
			"abi": [
				{
					"inputs": [
						{
							"internalType": "string",
							"name": "_make",
							"type": "string"
						},
						{
							"internalType": "string",
							"name": "_model",
							"type": "string"
						},
						{
							"internalType": "uint256",
							"name": "_year",
							"type": "uint256"
						},
						{
							"internalType": "string",
							"name": "_fuelType",
							"type": "string"
						},
						{
							"internalType": "bool",
							"name": "_hasSideCar",
							"type": "bool"
						}
					],
					"stateMutability": "nonpayable",
					"type": "constructor"
				},
				{
					"inputs": [
						{
							"internalType": "uint256",
							"name": "fuelAmount",
							"type": "uint256"
						}
					],
					"name": "distanceTraveled",
					"outputs": [
						{
							"internalType": "uint256",
							"name": "",
							"type": "uint256"
						}
					],
					"stateMutability": "pure",
					"type": "function"
				},
				{
					"inputs": [],
					"name": "fuelEfficiency",
					"outputs": [
						{
							"internalType": "uint256",
							"name": "",
							"type": "uint256"
						}
					],
					"stateMutability": "pure",
					"type": "function"
				},
				{
					"inputs": [],
					"name": "fuelType",
					"outputs": [
						{
							"internalType": "string",
							"name": "",
							"type": "string"
						}
					],
					"stateMutability": "view",
					"type": "function"
				},
				{
					"inputs": [],
					"name": "hasSideCar",
					"outputs": [
						{
							"internalType": "bool",
							"name": "",
							"type": "bool"
						}
					],
					"stateMutability": "view",
					"type": "function"
				},
				{
					"inputs": [],
					"name": "make",
					"outputs": [
						{
							"internalType": "string",
							"name": "",
							"type": "string"
						}
					],
					"stateMutability": "view",
					"type": "function"
				},
				{
					"inputs": [],
					"name": "maxSpeed",
					"outputs": [
						{
							"internalType": "uint256",
							"name": "",
							"type": "uint256"
						}
					],
					"stateMutability": "pure",
					"type": "function"
				},
				{
					"inputs": [],
					"name": "model",
					"outputs": [
						{
							"internalType": "string",
							"name": "",
							"type": "string"
						}
					],
					"stateMutability": "view",
					"type": "function"
				},
				{
					"inputs": [],
					"name": "year",
					"outputs": [
						{
							"internalType": "uint256",
							"name": "",
							"type": "uint256"
						}
					],
					"stateMutability": "view",
					"type": "function"
				}
			],
			"devdoc": {
				"kind": "dev",
				"methods": {},
				"version": 1
			},
			"evm": {
				"assembly": "    /* \"Day-06/D6P2.sol\":2850:3649  contract Motorcycle is Vehicle {... */\n  mstore(0x40, 0x80)\n    /* \"Day-06/D6P2.sol\":3030:3233  constructor(string memory _make, string memory _model, uint _year, string memory _fuelType, bool _hasSideCar)... */\n  callvalue\n  dup1\n  iszero\n  tag_1\n  jumpi\n  0x00\n  dup1\n  revert\ntag_1:\n  pop\n  mload(0x40)\n  sub(codesize, bytecodeSize)\n  dup1\n  bytecodeSize\n  dup4\n  codecopy\n  dup2\n  dup2\n  add\n  0x40\n  mstore\n  dup2\n  add\n  swap1\n  tag_2\n  swap2\n  swap1\n  tag_3\n  jump\t// in\ntag_2:\n    /* \"Day-06/D6P2.sol\":3157:3162  _make */\n  dup5\n    /* \"Day-06/D6P2.sol\":3164:3170  _model */\n  dup5\n    /* \"Day-06/D6P2.sol\":3172:3177  _year */\n  dup5\n    /* \"Day-06/D6P2.sol\":3179:3188  _fuelType */\n  dup5\n    /* \"Day-06/D6P2.sol\":391:396  _make */\n  dup4\n    /* \"Day-06/D6P2.sol\":384:388  make */\n  0x00\n    /* \"Day-06/D6P2.sol\":384:396  make = _make */\n  swap1\n  dup2\n  tag_7\n  swap2\n  swap1\n  tag_8\n  jump\t// in\ntag_7:\n  pop\n    /* \"Day-06/D6P2.sol\":415:421  _model */\n  dup3\n    /* \"Day-06/D6P2.sol\":407:412  model */\n  0x01\n    /* \"Day-06/D6P2.sol\":407:421  model = _model */\n  swap1\n  dup2\n  tag_9\n  swap2\n  swap1\n  tag_8\n  jump\t// in\ntag_9:\n  pop\n    /* \"Day-06/D6P2.sol\":439:444  _year */\n  dup2\n    /* \"Day-06/D6P2.sol\":432:436  year */\n  0x02\n    /* \"Day-06/D6P2.sol\":432:444  year = _year */\n  dup2\n  swap1\n  sstore\n  pop\n    /* \"Day-06/D6P2.sol\":466:475  _fuelType */\n  dup1\n    /* \"Day-06/D6P2.sol\":455:463  fuelType */\n  0x03\n    /* \"Day-06/D6P2.sol\":455:475  fuelType = _fuelType */\n  swap1\n  dup2\n  tag_10\n  swap2\n  swap1\n  tag_8\n  jump\t// in\ntag_10:\n  pop\n    /* \"Day-06/D6P2.sol\":281:483  constructor(string memory _make, string memory _model, uint _year, string memory _fuelType) {... */\n  pop\n  pop\n  pop\n  pop\n    /* \"Day-06/D6P2.sol\":3214:3225  _hasSideCar */\n  dup1\n    /* \"Day-06/D6P2.sol\":3201:3211  hasSideCar */\n  0x04\n  0x00\n    /* \"Day-06/D6P2.sol\":3201:3225  hasSideCar = _hasSideCar */\n  0x0100\n  exp\n  dup2\n  sload\n  dup2\n  0xff\n  mul\n  not\n  and\n  swap1\n  dup4\n  iszero\n  iszero\n  mul\n  or\n  swap1\n  sstore\n  pop\n    /* \"Day-06/D6P2.sol\":3030:3233  constructor(string memory _make, string memory _model, uint _year, string memory _fuelType, bool _hasSideCar)... */\n  pop\n  pop\n  pop\n  pop\n  pop\n    /* \"Day-06/D6P2.sol\":2850:3649  contract Motorcycle is Vehicle {... */\n  jump(tag_12)\n    /* \"#utility.yul\":7:82   */\ntag_13:\n    /* \"#utility.yul\":40:46   */\n  0x00\n    /* \"#utility.yul\":73:75   */\n  0x40\n    /* \"#utility.yul\":67:76   */\n  mload\n    /* \"#utility.yul\":57:76   */\n  swap1\n  pop\n    /* \"#utility.yul\":7:82   */\n  swap1\n  jump\t// out\n    /* \"#utility.yul\":88:205   */\ntag_14:\n    /* \"#utility.yul\":197:198   */\n  0x00\n    /* \"#utility.yul\":194:195   */\n  dup1\n    /* \"#utility.yul\":187:199   */\n  revert\n    /* \"#utility.yul\":211:328   */\ntag_15:\n    /* \"#utility.yul\":320:321   */\n  0x00\n    /* \"#utility.yul\":317:318   */\n  dup1\n    /* \"#utility.yul\":310:322   */\n  revert\n    /* \"#utility.yul\":334:451   */\ntag_16:\n    /* \"#utility.yul\":443:444   */\n  0x00\n    /* \"#utility.yul\":440:441   */\n  dup1\n    /* \"#utility.yul\":433:445   */\n  revert\n    /* \"#utility.yul\":457:574   */\ntag_17:\n    /* \"#utility.yul\":566:567   */\n  0x00\n    /* \"#utility.yul\":563:564   */\n  dup1\n    /* \"#utility.yul\":556:568   */\n  revert\n    /* \"#utility.yul\":580:682   */\ntag_18:\n    /* \"#utility.yul\":621:627   */\n  0x00\n    /* \"#utility.yul\":672:674   */\n  0x1f\n    /* \"#utility.yul\":668:675   */\n  not\n    /* \"#utility.yul\":663:665   */\n  0x1f\n    /* \"#utility.yul\":656:661   */\n  dup4\n    /* \"#utility.yul\":652:666   */\n  add\n    /* \"#utility.yul\":648:676   */\n  and\n    /* \"#utility.yul\":638:676   */\n  swap1\n  pop\n    /* \"#utility.yul\":580:682   */\n  swap2\n  swap1\n  pop\n  jump\t// out\n    /* \"#utility.yul\":688:868   */\ntag_19:\n    /* \"#utility.yul\":736:813   */\n  0x4e487b7100000000000000000000000000000000000000000000000000000000\n    /* \"#utility.yul\":733:734   */\n  0x00\n    /* \"#utility.yul\":726:814   */\n  mstore\n    /* \"#utility.yul\":833:837   */\n  0x41\n    /* \"#utility.yul\":830:831   */\n  0x04\n    /* \"#utility.yul\":823:838   */\n  mstore\n    /* \"#utility.yul\":857:861   */\n  0x24\n    /* \"#utility.yul\":854:855   */\n  0x00\n    /* \"#utility.yul\":847:862   */\n  revert\n    /* \"#utility.yul\":874:1155   */\ntag_20:\n    /* \"#utility.yul\":957:984   */\n  tag_59\n    /* \"#utility.yul\":979:983   */\n  dup3\n    /* \"#utility.yul\":957:984   */\n  tag_18\n  jump\t// in\ntag_59:\n    /* \"#utility.yul\":949:955   */\n  dup2\n    /* \"#utility.yul\":945:985   */\n  add\n    /* \"#utility.yul\":1087:1093   */\n  dup2\n    /* \"#utility.yul\":1075:1085   */\n  dup2\n    /* \"#utility.yul\":1072:1094   */\n  lt\n    /* \"#utility.yul\":1051:1069   */\n  0xffffffffffffffff\n    /* \"#utility.yul\":1039:1049   */\n  dup3\n    /* \"#utility.yul\":1036:1070   */\n  gt\n    /* \"#utility.yul\":1033:1095   */\n  or\n    /* \"#utility.yul\":1030:1118   */\n  iszero\n  tag_60\n  jumpi\n    /* \"#utility.yul\":1098:1116   */\n  tag_61\n  tag_19\n  jump\t// in\ntag_61:\n    /* \"#utility.yul\":1030:1118   */\ntag_60:\n    /* \"#utility.yul\":1138:1148   */\n  dup1\n    /* \"#utility.yul\":1134:1136   */\n  0x40\n    /* \"#utility.yul\":1127:1149   */\n  mstore\n    /* \"#utility.yul\":917:1155   */\n  pop\n    /* \"#utility.yul\":874:1155   */\n  pop\n  pop\n  jump\t// out\n    /* \"#utility.yul\":1161:1290   */\ntag_21:\n    /* \"#utility.yul\":1195:1201   */\n  0x00\n    /* \"#utility.yul\":1222:1242   */\n  tag_63\n  tag_13\n  jump\t// in\ntag_63:\n    /* \"#utility.yul\":1212:1242   */\n  swap1\n  pop\n    /* \"#utility.yul\":1251:1284   */\n  tag_64\n    /* \"#utility.yul\":1279:1283   */\n  dup3\n    /* \"#utility.yul\":1271:1277   */\n  dup3\n    /* \"#utility.yul\":1251:1284   */\n  tag_20\n  jump\t// in\ntag_64:\n    /* \"#utility.yul\":1161:1290   */\n  swap2\n  swap1\n  pop\n  jump\t// out\n    /* \"#utility.yul\":1296:1604   */\ntag_22:\n    /* \"#utility.yul\":1358:1362   */\n  0x00\n    /* \"#utility.yul\":1448:1466   */\n  0xffffffffffffffff\n    /* \"#utility.yul\":1440:1446   */\n  dup3\n    /* \"#utility.yul\":1437:1467   */\n  gt\n    /* \"#utility.yul\":1434:1490   */\n  iszero\n  tag_66\n  jumpi\n    /* \"#utility.yul\":1470:1488   */\n  tag_67\n  tag_19\n  jump\t// in\ntag_67:\n    /* \"#utility.yul\":1434:1490   */\ntag_66:\n    /* \"#utility.yul\":1508:1537   */\n  tag_68\n    /* \"#utility.yul\":1530:1536   */\n  dup3\n    /* \"#utility.yul\":1508:1537   */\n  tag_18\n  jump\t// in\ntag_68:\n    /* \"#utility.yul\":1500:1537   */\n  swap1\n  pop\n    /* \"#utility.yul\":1592:1596   */\n  0x20\n    /* \"#utility.yul\":1586:1590   */\n  dup2\n    /* \"#utility.yul\":1582:1597   */\n  add\n    /* \"#utility.yul\":1574:1597   */\n  swap1\n  pop\n    /* \"#utility.yul\":1296:1604   */\n  swap2\n  swap1\n  pop\n  jump\t// out\n    /* \"#utility.yul\":1610:1856   */\ntag_23:\n    /* \"#utility.yul\":1691:1692   */\n  0x00\n    /* \"#utility.yul\":1701:1814   */\ntag_70:\n    /* \"#utility.yul\":1715:1721   */\n  dup4\n    /* \"#utility.yul\":1712:1713   */\n  dup2\n    /* \"#utility.yul\":1709:1722   */\n  lt\n    /* \"#utility.yul\":1701:1814   */\n  iszero\n  tag_72\n  jumpi\n    /* \"#utility.yul\":1800:1801   */\n  dup1\n    /* \"#utility.yul\":1795:1798   */\n  dup3\n    /* \"#utility.yul\":1791:1802   */\n  add\n    /* \"#utility.yul\":1785:1803   */\n  mload\n    /* \"#utility.yul\":1781:1782   */\n  dup2\n    /* \"#utility.yul\":1776:1779   */\n  dup5\n    /* \"#utility.yul\":1772:1783   */\n  add\n    /* \"#utility.yul\":1765:1804   */\n  mstore\n    /* \"#utility.yul\":1737:1739   */\n  0x20\n    /* \"#utility.yul\":1734:1735   */\n  dup2\n    /* \"#utility.yul\":1730:1740   */\n  add\n    /* \"#utility.yul\":1725:1740   */\n  swap1\n  pop\n    /* \"#utility.yul\":1701:1814   */\n  jump(tag_70)\ntag_72:\n    /* \"#utility.yul\":1848:1849   */\n  0x00\n    /* \"#utility.yul\":1839:1845   */\n  dup5\n    /* \"#utility.yul\":1834:1837   */\n  dup5\n    /* \"#utility.yul\":1830:1846   */\n  add\n    /* \"#utility.yul\":1823:1850   */\n  mstore\n    /* \"#utility.yul\":1672:1856   */\n  pop\n    /* \"#utility.yul\":1610:1856   */\n  pop\n  pop\n  pop\n  jump\t// out\n    /* \"#utility.yul\":1862:2296   */\ntag_24:\n    /* \"#utility.yul\":1951:1956   */\n  0x00\n    /* \"#utility.yul\":1976:2042   */\n  tag_74\n    /* \"#utility.yul\":1992:2041   */\n  tag_75\n    /* \"#utility.yul\":2034:2040   */\n  dup5\n    /* \"#utility.yul\":1992:2041   */\n  tag_22\n  jump\t// in\ntag_75:\n    /* \"#utility.yul\":1976:2042   */\n  tag_21\n  jump\t// in\ntag_74:\n    /* \"#utility.yul\":1967:2042   */\n  swap1\n  pop\n    /* \"#utility.yul\":2065:2071   */\n  dup3\n    /* \"#utility.yul\":2058:2063   */\n  dup2\n    /* \"#utility.yul\":2051:2072   */\n  mstore\n    /* \"#utility.yul\":2103:2107   */\n  0x20\n    /* \"#utility.yul\":2096:2101   */\n  dup2\n    /* \"#utility.yul\":2092:2108   */\n  add\n    /* \"#utility.yul\":2141:2144   */\n  dup5\n    /* \"#utility.yul\":2132:2138   */\n  dup5\n    /* \"#utility.yul\":2127:2130   */\n  dup5\n    /* \"#utility.yul\":2123:2139   */\n  add\n    /* \"#utility.yul\":2120:2145   */\n  gt\n    /* \"#utility.yul\":2117:2229   */\n  iszero\n  tag_76\n  jumpi\n    /* \"#utility.yul\":2148:2227   */\n  tag_77\n  tag_17\n  jump\t// in\ntag_77:\n    /* \"#utility.yul\":2117:2229   */\ntag_76:\n    /* \"#utility.yul\":2238:2290   */\n  tag_78\n    /* \"#utility.yul\":2283:2289   */\n  dup5\n    /* \"#utility.yul\":2278:2281   */\n  dup3\n    /* \"#utility.yul\":2273:2276   */\n  dup6\n    /* \"#utility.yul\":2238:2290   */\n  tag_23\n  jump\t// in\ntag_78:\n    /* \"#utility.yul\":1957:2296   */\n  pop\n    /* \"#utility.yul\":1862:2296   */\n  swap4\n  swap3\n  pop\n  pop\n  pop\n  jump\t// out\n    /* \"#utility.yul\":2316:2671   */\ntag_25:\n    /* \"#utility.yul\":2383:2388   */\n  0x00\n    /* \"#utility.yul\":2432:2435   */\n  dup3\n    /* \"#utility.yul\":2425:2429   */\n  0x1f\n    /* \"#utility.yul\":2417:2423   */\n  dup4\n    /* \"#utility.yul\":2413:2430   */\n  add\n    /* \"#utility.yul\":2409:2436   */\n  slt\n    /* \"#utility.yul\":2399:2521   */\n  tag_80\n  jumpi\n    /* \"#utility.yul\":2440:2519   */\n  tag_81\n  tag_16\n  jump\t// in\ntag_81:\n    /* \"#utility.yul\":2399:2521   */\ntag_80:\n    /* \"#utility.yul\":2550:2556   */\n  dup2\n    /* \"#utility.yul\":2544:2557   */\n  mload\n    /* \"#utility.yul\":2575:2665   */\n  tag_82\n    /* \"#utility.yul\":2661:2664   */\n  dup5\n    /* \"#utility.yul\":2653:2659   */\n  dup3\n    /* \"#utility.yul\":2646:2650   */\n  0x20\n    /* \"#utility.yul\":2638:2644   */\n  dup7\n    /* \"#utility.yul\":2634:2651   */\n  add\n    /* \"#utility.yul\":2575:2665   */\n  tag_24\n  jump\t// in\ntag_82:\n    /* \"#utility.yul\":2566:2665   */\n  swap2\n  pop\n    /* \"#utility.yul\":2389:2671   */\n  pop\n    /* \"#utility.yul\":2316:2671   */\n  swap3\n  swap2\n  pop\n  pop\n  jump\t// out\n    /* \"#utility.yul\":2677:2754   */\ntag_26:\n    /* \"#utility.yul\":2714:2721   */\n  0x00\n    /* \"#utility.yul\":2743:2748   */\n  dup2\n    /* \"#utility.yul\":2732:2748   */\n  swap1\n  pop\n    /* \"#utility.yul\":2677:2754   */\n  swap2\n  swap1\n  pop\n  jump\t// out\n    /* \"#utility.yul\":2760:2882   */\ntag_27:\n    /* \"#utility.yul\":2833:2857   */\n  tag_85\n    /* \"#utility.yul\":2851:2856   */\n  dup2\n    /* \"#utility.yul\":2833:2857   */\n  tag_26\n  jump\t// in\ntag_85:\n    /* \"#utility.yul\":2826:2831   */\n  dup2\n    /* \"#utility.yul\":2823:2858   */\n  eq\n    /* \"#utility.yul\":2813:2876   */\n  tag_86\n  jumpi\n    /* \"#utility.yul\":2872:2873   */\n  0x00\n    /* \"#utility.yul\":2869:2870   */\n  dup1\n    /* \"#utility.yul\":2862:2874   */\n  revert\n    /* \"#utility.yul\":2813:2876   */\ntag_86:\n    /* \"#utility.yul\":2760:2882   */\n  pop\n  jump\t// out\n    /* \"#utility.yul\":2888:3031   */\ntag_28:\n    /* \"#utility.yul\":2945:2950   */\n  0x00\n    /* \"#utility.yul\":2976:2982   */\n  dup2\n    /* \"#utility.yul\":2970:2983   */\n  mload\n    /* \"#utility.yul\":2961:2983   */\n  swap1\n  pop\n    /* \"#utility.yul\":2992:3025   */\n  tag_88\n    /* \"#utility.yul\":3019:3024   */\n  dup2\n    /* \"#utility.yul\":2992:3025   */\n  tag_27\n  jump\t// in\ntag_88:\n    /* \"#utility.yul\":2888:3031   */\n  swap3\n  swap2\n  pop\n  pop\n  jump\t// out\n    /* \"#utility.yul\":3037:3127   */\ntag_29:\n    /* \"#utility.yul\":3071:3078   */\n  0x00\n    /* \"#utility.yul\":3114:3119   */\n  dup2\n    /* \"#utility.yul\":3107:3120   */\n  iszero\n    /* \"#utility.yul\":3100:3121   */\n  iszero\n    /* \"#utility.yul\":3089:3121   */\n  swap1\n  pop\n    /* \"#utility.yul\":3037:3127   */\n  swap2\n  swap1\n  pop\n  jump\t// out\n    /* \"#utility.yul\":3133:3249   */\ntag_30:\n    /* \"#utility.yul\":3203:3224   */\n  tag_91\n    /* \"#utility.yul\":3218:3223   */\n  dup2\n    /* \"#utility.yul\":3203:3224   */\n  tag_29\n  jump\t// in\ntag_91:\n    /* \"#utility.yul\":3196:3201   */\n  dup2\n    /* \"#utility.yul\":3193:3225   */\n  eq\n    /* \"#utility.yul\":3183:3243   */\n  tag_92\n  jumpi\n    /* \"#utility.yul\":3239:3240   */\n  0x00\n    /* \"#utility.yul\":3236:3237   */\n  dup1\n    /* \"#utility.yul\":3229:3241   */\n  revert\n    /* \"#utility.yul\":3183:3243   */\ntag_92:\n    /* \"#utility.yul\":3133:3249   */\n  pop\n  jump\t// out\n    /* \"#utility.yul\":3255:3392   */\ntag_31:\n    /* \"#utility.yul\":3309:3314   */\n  0x00\n    /* \"#utility.yul\":3340:3346   */\n  dup2\n    /* \"#utility.yul\":3334:3347   */\n  mload\n    /* \"#utility.yul\":3325:3347   */\n  swap1\n  pop\n    /* \"#utility.yul\":3356:3386   */\n  tag_94\n    /* \"#utility.yul\":3380:3385   */\n  dup2\n    /* \"#utility.yul\":3356:3386   */\n  tag_30\n  jump\t// in\ntag_94:\n    /* \"#utility.yul\":3255:3392   */\n  swap3\n  swap2\n  pop\n  pop\n  jump\t// out\n    /* \"#utility.yul\":3398:4888   */\ntag_3:\n    /* \"#utility.yul\":3531:3537   */\n  0x00\n    /* \"#utility.yul\":3539:3545   */\n  dup1\n    /* \"#utility.yul\":3547:3553   */\n  0x00\n    /* \"#utility.yul\":3555:3561   */\n  dup1\n    /* \"#utility.yul\":3563:3569   */\n  0x00\n    /* \"#utility.yul\":3612:3615   */\n  0xa0\n    /* \"#utility.yul\":3600:3609   */\n  dup7\n    /* \"#utility.yul\":3591:3598   */\n  dup9\n    /* \"#utility.yul\":3587:3610   */\n  sub\n    /* \"#utility.yul\":3583:3616   */\n  slt\n    /* \"#utility.yul\":3580:3700   */\n  iszero\n  tag_96\n  jumpi\n    /* \"#utility.yul\":3619:3698   */\n  tag_97\n  tag_14\n  jump\t// in\ntag_97:\n    /* \"#utility.yul\":3580:3700   */\ntag_96:\n    /* \"#utility.yul\":3760:3761   */\n  0x00\n    /* \"#utility.yul\":3749:3758   */\n  dup7\n    /* \"#utility.yul\":3745:3762   */\n  add\n    /* \"#utility.yul\":3739:3763   */\n  mload\n    /* \"#utility.yul\":3790:3808   */\n  0xffffffffffffffff\n    /* \"#utility.yul\":3782:3788   */\n  dup2\n    /* \"#utility.yul\":3779:3809   */\n  gt\n    /* \"#utility.yul\":3776:3893   */\n  iszero\n  tag_98\n  jumpi\n    /* \"#utility.yul\":3812:3891   */\n  tag_99\n  tag_15\n  jump\t// in\ntag_99:\n    /* \"#utility.yul\":3776:3893   */\ntag_98:\n    /* \"#utility.yul\":3917:3991   */\n  tag_100\n    /* \"#utility.yul\":3983:3990   */\n  dup9\n    /* \"#utility.yul\":3974:3980   */\n  dup3\n    /* \"#utility.yul\":3963:3972   */\n  dup10\n    /* \"#utility.yul\":3959:3981   */\n  add\n    /* \"#utility.yul\":3917:3991   */\n  tag_25\n  jump\t// in\ntag_100:\n    /* \"#utility.yul\":3907:3991   */\n  swap6\n  pop\n    /* \"#utility.yul\":3710:4001   */\n  pop\n    /* \"#utility.yul\":4061:4063   */\n  0x20\n    /* \"#utility.yul\":4050:4059   */\n  dup7\n    /* \"#utility.yul\":4046:4064   */\n  add\n    /* \"#utility.yul\":4040:4065   */\n  mload\n    /* \"#utility.yul\":4092:4110   */\n  0xffffffffffffffff\n    /* \"#utility.yul\":4084:4090   */\n  dup2\n    /* \"#utility.yul\":4081:4111   */\n  gt\n    /* \"#utility.yul\":4078:4195   */\n  iszero\n  tag_101\n  jumpi\n    /* \"#utility.yul\":4114:4193   */\n  tag_102\n  tag_15\n  jump\t// in\ntag_102:\n    /* \"#utility.yul\":4078:4195   */\ntag_101:\n    /* \"#utility.yul\":4219:4293   */\n  tag_103\n    /* \"#utility.yul\":4285:4292   */\n  dup9\n    /* \"#utility.yul\":4276:4282   */\n  dup3\n    /* \"#utility.yul\":4265:4274   */\n  dup10\n    /* \"#utility.yul\":4261:4283   */\n  add\n    /* \"#utility.yul\":4219:4293   */\n  tag_25\n  jump\t// in\ntag_103:\n    /* \"#utility.yul\":4209:4293   */\n  swap5\n  pop\n    /* \"#utility.yul\":4011:4303   */\n  pop\n    /* \"#utility.yul\":4342:4344   */\n  0x40\n    /* \"#utility.yul\":4368:4432   */\n  tag_104\n    /* \"#utility.yul\":4424:4431   */\n  dup9\n    /* \"#utility.yul\":4415:4421   */\n  dup3\n    /* \"#utility.yul\":4404:4413   */\n  dup10\n    /* \"#utility.yul\":4400:4422   */\n  add\n    /* \"#utility.yul\":4368:4432   */\n  tag_28\n  jump\t// in\ntag_104:\n    /* \"#utility.yul\":4358:4432   */\n  swap4\n  pop\n    /* \"#utility.yul\":4313:4442   */\n  pop\n    /* \"#utility.yul\":4502:4504   */\n  0x60\n    /* \"#utility.yul\":4491:4500   */\n  dup7\n    /* \"#utility.yul\":4487:4505   */\n  add\n    /* \"#utility.yul\":4481:4506   */\n  mload\n    /* \"#utility.yul\":4533:4551   */\n  0xffffffffffffffff\n    /* \"#utility.yul\":4525:4531   */\n  dup2\n    /* \"#utility.yul\":4522:4552   */\n  gt\n    /* \"#utility.yul\":4519:4636   */\n  iszero\n  tag_105\n  jumpi\n    /* \"#utility.yul\":4555:4634   */\n  tag_106\n  tag_15\n  jump\t// in\ntag_106:\n    /* \"#utility.yul\":4519:4636   */\ntag_105:\n    /* \"#utility.yul\":4660:4734   */\n  tag_107\n    /* \"#utility.yul\":4726:4733   */\n  dup9\n    /* \"#utility.yul\":4717:4723   */\n  dup3\n    /* \"#utility.yul\":4706:4715   */\n  dup10\n    /* \"#utility.yul\":4702:4724   */\n  add\n    /* \"#utility.yul\":4660:4734   */\n  tag_25\n  jump\t// in\ntag_107:\n    /* \"#utility.yul\":4650:4734   */\n  swap3\n  pop\n    /* \"#utility.yul\":4452:4744   */\n  pop\n    /* \"#utility.yul\":4783:4786   */\n  0x80\n    /* \"#utility.yul\":4810:4871   */\n  tag_108\n    /* \"#utility.yul\":4863:4870   */\n  dup9\n    /* \"#utility.yul\":4854:4860   */\n  dup3\n    /* \"#utility.yul\":4843:4852   */\n  dup10\n    /* \"#utility.yul\":4839:4861   */\n  add\n    /* \"#utility.yul\":4810:4871   */\n  tag_31\n  jump\t// in\ntag_108:\n    /* \"#utility.yul\":4800:4871   */\n  swap2\n  pop\n    /* \"#utility.yul\":4754:4881   */\n  pop\n    /* \"#utility.yul\":3398:4888   */\n  swap3\n  swap6\n  pop\n  swap3\n  swap6\n  swap1\n  swap4\n  pop\n  jump\t// out\n    /* \"#utility.yul\":4894:4993   */\ntag_32:\n    /* \"#utility.yul\":4946:4952   */\n  0x00\n    /* \"#utility.yul\":4980:4985   */\n  dup2\n    /* \"#utility.yul\":4974:4986   */\n  mload\n    /* \"#utility.yul\":4964:4986   */\n  swap1\n  pop\n    /* \"#utility.yul\":4894:4993   */\n  swap2\n  swap1\n  pop\n  jump\t// out\n    /* \"#utility.yul\":4999:5179   */\ntag_33:\n    /* \"#utility.yul\":5047:5124   */\n  0x4e487b7100000000000000000000000000000000000000000000000000000000\n    /* \"#utility.yul\":5044:5045   */\n  0x00\n    /* \"#utility.yul\":5037:5125   */\n  mstore\n    /* \"#utility.yul\":5144:5148   */\n  0x22\n    /* \"#utility.yul\":5141:5142   */\n  0x04\n    /* \"#utility.yul\":5134:5149   */\n  mstore\n    /* \"#utility.yul\":5168:5172   */\n  0x24\n    /* \"#utility.yul\":5165:5166   */\n  0x00\n    /* \"#utility.yul\":5158:5173   */\n  revert\n    /* \"#utility.yul\":5185:5505   */\ntag_34:\n    /* \"#utility.yul\":5229:5235   */\n  0x00\n    /* \"#utility.yul\":5266:5267   */\n  0x02\n    /* \"#utility.yul\":5260:5264   */\n  dup3\n    /* \"#utility.yul\":5256:5268   */\n  div\n    /* \"#utility.yul\":5246:5268   */\n  swap1\n  pop\n    /* \"#utility.yul\":5313:5314   */\n  0x01\n    /* \"#utility.yul\":5307:5311   */\n  dup3\n    /* \"#utility.yul\":5303:5315   */\n  and\n    /* \"#utility.yul\":5334:5352   */\n  dup1\n    /* \"#utility.yul\":5324:5405   */\n  tag_112\n  jumpi\n    /* \"#utility.yul\":5390:5394   */\n  0x7f\n    /* \"#utility.yul\":5382:5388   */\n  dup3\n    /* \"#utility.yul\":5378:5395   */\n  and\n    /* \"#utility.yul\":5368:5395   */\n  swap2\n  pop\n    /* \"#utility.yul\":5324:5405   */\ntag_112:\n    /* \"#utility.yul\":5452:5454   */\n  0x20\n    /* \"#utility.yul\":5444:5450   */\n  dup3\n    /* \"#utility.yul\":5441:5455   */\n  lt\n    /* \"#utility.yul\":5421:5439   */\n  dup2\n    /* \"#utility.yul\":5418:5456   */\n  sub\n    /* \"#utility.yul\":5415:5499   */\n  tag_113\n  jumpi\n    /* \"#utility.yul\":5471:5489   */\n  tag_114\n  tag_33\n  jump\t// in\ntag_114:\n    /* \"#utility.yul\":5415:5499   */\ntag_113:\n    /* \"#utility.yul\":5236:5505   */\n  pop\n    /* \"#utility.yul\":5185:5505   */\n  swap2\n  swap1\n  pop\n  jump\t// out\n    /* \"#utility.yul\":5511:5652   */\ntag_35:\n    /* \"#utility.yul\":5560:5564   */\n  0x00\n    /* \"#utility.yul\":5583:5586   */\n  dup2\n    /* \"#utility.yul\":5575:5586   */\n  swap1\n  pop\n    /* \"#utility.yul\":5606:5609   */\n  dup2\n    /* \"#utility.yul\":5603:5604   */\n  0x00\n    /* \"#utility.yul\":5596:5610   */\n  mstore\n    /* \"#utility.yul\":5640:5644   */\n  0x20\n    /* \"#utility.yul\":5637:5638   */\n  0x00\n    /* \"#utility.yul\":5627:5645   */\n  keccak256\n    /* \"#utility.yul\":5619:5645   */\n  swap1\n  pop\n    /* \"#utility.yul\":5511:5652   */\n  swap2\n  swap1\n  pop\n  jump\t// out\n    /* \"#utility.yul\":5658:5751   */\ntag_36:\n    /* \"#utility.yul\":5695:5701   */\n  0x00\n    /* \"#utility.yul\":5742:5744   */\n  0x20\n    /* \"#utility.yul\":5737:5739   */\n  0x1f\n    /* \"#utility.yul\":5730:5735   */\n  dup4\n    /* \"#utility.yul\":5726:5740   */\n  add\n    /* \"#utility.yul\":5722:5745   */\n  div\n    /* \"#utility.yul\":5712:5745   */\n  swap1\n  pop\n    /* \"#utility.yul\":5658:5751   */\n  swap2\n  swap1\n  pop\n  jump\t// out\n    /* \"#utility.yul\":5757:5864   */\ntag_37:\n    /* \"#utility.yul\":5801:5809   */\n  0x00\n    /* \"#utility.yul\":5851:5856   */\n  dup3\n    /* \"#utility.yul\":5845:5849   */\n  dup3\n    /* \"#utility.yul\":5841:5857   */\n  shl\n    /* \"#utility.yul\":5820:5857   */\n  swap1\n  pop\n    /* \"#utility.yul\":5757:5864   */\n  swap3\n  swap2\n  pop\n  pop\n  jump\t// out\n    /* \"#utility.yul\":5870:6263   */\ntag_38:\n    /* \"#utility.yul\":5939:5945   */\n  0x00\n    /* \"#utility.yul\":5989:5990   */\n  0x08\n    /* \"#utility.yul\":5977:5987   */\n  dup4\n    /* \"#utility.yul\":5973:5991   */\n  mul\n    /* \"#utility.yul\":6012:6109   */\n  tag_119\n    /* \"#utility.yul\":6042:6108   */\n  0xffffffffffffffffffffffffffffffffffffffffffffffffffffffffffffffff\n    /* \"#utility.yul\":6031:6040   */\n  dup3\n    /* \"#utility.yul\":6012:6109   */\n  tag_37\n  jump\t// in\ntag_119:\n    /* \"#utility.yul\":6130:6169   */\n  tag_120\n    /* \"#utility.yul\":6160:6168   */\n  dup7\n    /* \"#utility.yul\":6149:6158   */\n  dup4\n    /* \"#utility.yul\":6130:6169   */\n  tag_37\n  jump\t// in\ntag_120:\n    /* \"#utility.yul\":6118:6169   */\n  swap6\n  pop\n    /* \"#utility.yul\":6202:6206   */\n  dup1\n    /* \"#utility.yul\":6198:6207   */\n  not\n    /* \"#utility.yul\":6191:6196   */\n  dup5\n    /* \"#utility.yul\":6187:6208   */\n  and\n    /* \"#utility.yul\":6178:6208   */\n  swap4\n  pop\n    /* \"#utility.yul\":6251:6255   */\n  dup1\n    /* \"#utility.yul\":6241:6249   */\n  dup7\n    /* \"#utility.yul\":6237:6256   */\n  and\n    /* \"#utility.yul\":6230:6235   */\n  dup5\n    /* \"#utility.yul\":6227:6257   */\n  or\n    /* \"#utility.yul\":6217:6257   */\n  swap3\n  pop\n    /* \"#utility.yul\":5946:6263   */\n  pop\n  pop\n    /* \"#utility.yul\":5870:6263   */\n  swap4\n  swap3\n  pop\n  pop\n  pop\n  jump\t// out\n    /* \"#utility.yul\":6269:6329   */\ntag_39:\n    /* \"#utility.yul\":6297:6300   */\n  0x00\n    /* \"#utility.yul\":6318:6323   */\n  dup2\n    /* \"#utility.yul\":6311:6323   */\n  swap1\n  pop\n    /* \"#utility.yul\":6269:6329   */\n  swap2\n  swap1\n  pop\n  jump\t// out\n    /* \"#utility.yul\":6335:6477   */\ntag_40:\n    /* \"#utility.yul\":6385:6394   */\n  0x00\n    /* \"#utility.yul\":6418:6471   */\n  tag_123\n    /* \"#utility.yul\":6436:6470   */\n  tag_124\n    /* \"#utility.yul\":6445:6469   */\n  tag_125\n    /* \"#utility.yul\":6463:6468   */\n  dup5\n    /* \"#utility.yul\":6445:6469   */\n  tag_26\n  jump\t// in\ntag_125:\n    /* \"#utility.yul\":6436:6470   */\n  tag_39\n  jump\t// in\ntag_124:\n    /* \"#utility.yul\":6418:6471   */\n  tag_26\n  jump\t// in\ntag_123:\n    /* \"#utility.yul\":6405:6471   */\n  swap1\n  pop\n    /* \"#utility.yul\":6335:6477   */\n  swap2\n  swap1\n  pop\n  jump\t// out\n    /* \"#utility.yul\":6483:6558   */\ntag_41:\n    /* \"#utility.yul\":6526:6529   */\n  0x00\n    /* \"#utility.yul\":6547:6552   */\n  dup2\n    /* \"#utility.yul\":6540:6552   */\n  swap1\n  pop\n    /* \"#utility.yul\":6483:6558   */\n  swap2\n  swap1\n  pop\n  jump\t// out\n    /* \"#utility.yul\":6564:6833   */\ntag_42:\n    /* \"#utility.yul\":6674:6713   */\n  tag_128\n    /* \"#utility.yul\":6705:6712   */\n  dup4\n    /* \"#utility.yul\":6674:6713   */\n  tag_40\n  jump\t// in\ntag_128:\n    /* \"#utility.yul\":6735:6826   */\n  tag_129\n    /* \"#utility.yul\":6784:6825   */\n  tag_130\n    /* \"#utility.yul\":6808:6824   */\n  dup3\n    /* \"#utility.yul\":6784:6825   */\n  tag_41\n  jump\t// in\ntag_130:\n    /* \"#utility.yul\":6776:6782   */\n  dup5\n    /* \"#utility.yul\":6769:6773   */\n  dup5\n    /* \"#utility.yul\":6763:6774   */\n  sload\n    /* \"#utility.yul\":6735:6826   */\n  tag_38\n  jump\t// in\ntag_129:\n    /* \"#utility.yul\":6729:6733   */\n  dup3\n    /* \"#utility.yul\":6722:6827   */\n  sstore\n    /* \"#utility.yul\":6640:6833   */\n  pop\n    /* \"#utility.yul\":6564:6833   */\n  pop\n  pop\n  pop\n  jump\t// out\n    /* \"#utility.yul\":6839:6912   */\ntag_43:\n    /* \"#utility.yul\":6884:6887   */\n  0x00\n    /* \"#utility.yul\":6839:6912   */\n  swap1\n  jump\t// out\n    /* \"#utility.yul\":6918:7107   */\ntag_44:\n    /* \"#utility.yul\":6995:7027   */\n  tag_133\n  tag_43\n  jump\t// in\ntag_133:\n    /* \"#utility.yul\":7036:7101   */\n  tag_134\n    /* \"#utility.yul\":7094:7100   */\n  dup2\n    /* \"#utility.yul\":7086:7092   */\n  dup5\n    /* \"#utility.yul\":7080:7084   */\n  dup5\n    /* \"#utility.yul\":7036:7101   */\n  tag_42\n  jump\t// in\ntag_134:\n    /* \"#utility.yul\":6971:7107   */\n  pop\n    /* \"#utility.yul\":6918:7107   */\n  pop\n  pop\n  jump\t// out\n    /* \"#utility.yul\":7113:7299   */\ntag_45:\n    /* \"#utility.yul\":7173:7293   */\ntag_136:\n    /* \"#utility.yul\":7190:7193   */\n  dup2\n    /* \"#utility.yul\":7183:7188   */\n  dup2\n    /* \"#utility.yul\":7180:7194   */\n  lt\n    /* \"#utility.yul\":7173:7293   */\n  iszero\n  tag_138\n  jumpi\n    /* \"#utility.yul\":7244:7283   */\n  tag_139\n    /* \"#utility.yul\":7281:7282   */\n  0x00\n    /* \"#utility.yul\":7274:7279   */\n  dup3\n    /* \"#utility.yul\":7244:7283   */\n  tag_44\n  jump\t// in\ntag_139:\n    /* \"#utility.yul\":7217:7218   */\n  0x01\n    /* \"#utility.yul\":7210:7215   */\n  dup2\n    /* \"#utility.yul\":7206:7219   */\n  add\n    /* \"#utility.yul\":7197:7219   */\n  swap1\n  pop\n    /* \"#utility.yul\":7173:7293   */\n  jump(tag_136)\ntag_138:\n    /* \"#utility.yul\":7113:7299   */\n  pop\n  pop\n  jump\t// out\n    /* \"#utility.yul\":7305:7848   */\ntag_46:\n    /* \"#utility.yul\":7406:7408   */\n  0x1f\n    /* \"#utility.yul\":7401:7404   */\n  dup3\n    /* \"#utility.yul\":7398:7409   */\n  gt\n    /* \"#utility.yul\":7395:7841   */\n  iszero\n  tag_141\n  jumpi\n    /* \"#utility.yul\":7440:7478   */\n  tag_142\n    /* \"#utility.yul\":7472:7477   */\n  dup2\n    /* \"#utility.yul\":7440:7478   */\n  tag_35\n  jump\t// in\ntag_142:\n    /* \"#utility.yul\":7524:7553   */\n  tag_143\n    /* \"#utility.yul\":7542:7552   */\n  dup5\n    /* \"#utility.yul\":7524:7553   */\n  tag_36\n  jump\t// in\ntag_143:\n    /* \"#utility.yul\":7514:7522   */\n  dup2\n    /* \"#utility.yul\":7510:7554   */\n  add\n    /* \"#utility.yul\":7707:7709   */\n  0x20\n    /* \"#utility.yul\":7695:7705   */\n  dup6\n    /* \"#utility.yul\":7692:7710   */\n  lt\n    /* \"#utility.yul\":7689:7738   */\n  iszero\n  tag_144\n  jumpi\n    /* \"#utility.yul\":7728:7736   */\n  dup2\n    /* \"#utility.yul\":7713:7736   */\n  swap1\n  pop\n    /* \"#utility.yul\":7689:7738   */\ntag_144:\n    /* \"#utility.yul\":7751:7831   */\n  tag_145\n    /* \"#utility.yul\":7807:7829   */\n  tag_146\n    /* \"#utility.yul\":7825:7828   */\n  dup6\n    /* \"#utility.yul\":7807:7829   */\n  tag_36\n  jump\t// in\ntag_146:\n    /* \"#utility.yul\":7797:7805   */\n  dup4\n    /* \"#utility.yul\":7793:7830   */\n  add\n    /* \"#utility.yul\":7780:7791   */\n  dup3\n    /* \"#utility.yul\":7751:7831   */\n  tag_45\n  jump\t// in\ntag_145:\n    /* \"#utility.yul\":7410:7841   */\n  pop\n  pop\n    /* \"#utility.yul\":7395:7841   */\ntag_141:\n    /* \"#utility.yul\":7305:7848   */\n  pop\n  pop\n  pop\n  jump\t// out\n    /* \"#utility.yul\":7854:7971   */\ntag_47:\n    /* \"#utility.yul\":7908:7916   */\n  0x00\n    /* \"#utility.yul\":7958:7963   */\n  dup3\n    /* \"#utility.yul\":7952:7956   */\n  dup3\n    /* \"#utility.yul\":7948:7964   */\n  shr\n    /* \"#utility.yul\":7927:7964   */\n  swap1\n  pop\n    /* \"#utility.yul\":7854:7971   */\n  swap3\n  swap2\n  pop\n  pop\n  jump\t// out\n    /* \"#utility.yul\":7977:8146   */\ntag_48:\n    /* \"#utility.yul\":8021:8027   */\n  0x00\n    /* \"#utility.yul\":8054:8105   */\n  tag_149\n    /* \"#utility.yul\":8102:8103   */\n  0x00\n    /* \"#utility.yul\":8098:8104   */\n  not\n    /* \"#utility.yul\":8090:8095   */\n  dup5\n    /* \"#utility.yul\":8087:8088   */\n  0x08\n    /* \"#utility.yul\":8083:8096   */\n  mul\n    /* \"#utility.yul\":8054:8105   */\n  tag_47\n  jump\t// in\ntag_149:\n    /* \"#utility.yul\":8050:8106   */\n  not\n    /* \"#utility.yul\":8135:8139   */\n  dup1\n    /* \"#utility.yul\":8129:8133   */\n  dup4\n    /* \"#utility.yul\":8125:8140   */\n  and\n    /* \"#utility.yul\":8115:8140   */\n  swap2\n  pop\n    /* \"#utility.yul\":8028:8146   */\n  pop\n    /* \"#utility.yul\":7977:8146   */\n  swap3\n  swap2\n  pop\n  pop\n  jump\t// out\n    /* \"#utility.yul\":8151:8446   */\ntag_49:\n    /* \"#utility.yul\":8227:8231   */\n  0x00\n    /* \"#utility.yul\":8373:8402   */\n  tag_151\n    /* \"#utility.yul\":8398:8401   */\n  dup4\n    /* \"#utility.yul\":8392:8396   */\n  dup4\n    /* \"#utility.yul\":8373:8402   */\n  tag_48\n  jump\t// in\ntag_151:\n    /* \"#utility.yul\":8365:8402   */\n  swap2\n  pop\n    /* \"#utility.yul\":8435:8438   */\n  dup3\n    /* \"#utility.yul\":8432:8433   */\n  0x02\n    /* \"#utility.yul\":8428:8439   */\n  mul\n    /* \"#utility.yul\":8422:8426   */\n  dup3\n    /* \"#utility.yul\":8419:8440   */\n  or\n    /* \"#utility.yul\":8411:8440   */\n  swap1\n  pop\n    /* \"#utility.yul\":8151:8446   */\n  swap3\n  swap2\n  pop\n  pop\n  jump\t// out\n    /* \"#utility.yul\":8451:9846   */\ntag_8:\n    /* \"#utility.yul\":8568:8605   */\n  tag_153\n    /* \"#utility.yul\":8601:8604   */\n  dup3\n    /* \"#utility.yul\":8568:8605   */\n  tag_32\n  jump\t// in\ntag_153:\n    /* \"#utility.yul\":8670:8688   */\n  0xffffffffffffffff\n    /* \"#utility.yul\":8662:8668   */\n  dup2\n    /* \"#utility.yul\":8659:8689   */\n  gt\n    /* \"#utility.yul\":8656:8712   */\n  iszero\n  tag_154\n  jumpi\n    /* \"#utility.yul\":8692:8710   */\n  tag_155\n  tag_19\n  jump\t// in\ntag_155:\n    /* \"#utility.yul\":8656:8712   */\ntag_154:\n    /* \"#utility.yul\":8736:8774   */\n  tag_156\n    /* \"#utility.yul\":8768:8772   */\n  dup3\n    /* \"#utility.yul\":8762:8773   */\n  sload\n    /* \"#utility.yul\":8736:8774   */\n  tag_34\n  jump\t// in\ntag_156:\n    /* \"#utility.yul\":8821:8888   */\n  tag_157\n    /* \"#utility.yul\":8881:8887   */\n  dup3\n    /* \"#utility.yul\":8873:8879   */\n  dup3\n    /* \"#utility.yul\":8867:8871   */\n  dup6\n    /* \"#utility.yul\":8821:8888   */\n  tag_46\n  jump\t// in\ntag_157:\n    /* \"#utility.yul\":8915:8916   */\n  0x00\n    /* \"#utility.yul\":8939:8943   */\n  0x20\n    /* \"#utility.yul\":8926:8943   */\n  swap1\n  pop\n    /* \"#utility.yul\":8971:8973   */\n  0x1f\n    /* \"#utility.yul\":8963:8969   */\n  dup4\n    /* \"#utility.yul\":8960:8974   */\n  gt\n    /* \"#utility.yul\":8988:8989   */\n  0x01\n    /* \"#utility.yul\":8983:9601   */\n  dup2\n  eq\n  tag_159\n  jumpi\n    /* \"#utility.yul\":9645:9646   */\n  0x00\n    /* \"#utility.yul\":9662:9668   */\n  dup5\n    /* \"#utility.yul\":9659:9736   */\n  iszero\n  tag_160\n  jumpi\n    /* \"#utility.yul\":9711:9720   */\n  dup3\n    /* \"#utility.yul\":9706:9709   */\n  dup8\n    /* \"#utility.yul\":9702:9721   */\n  add\n    /* \"#utility.yul\":9696:9722   */\n  mload\n    /* \"#utility.yul\":9687:9722   */\n  swap1\n  pop\n    /* \"#utility.yul\":9659:9736   */\ntag_160:\n    /* \"#utility.yul\":9762:9829   */\n  tag_161\n    /* \"#utility.yul\":9822:9828   */\n  dup6\n    /* \"#utility.yul\":9815:9820   */\n  dup3\n    /* \"#utility.yul\":9762:9829   */\n  tag_49\n  jump\t// in\ntag_161:\n    /* \"#utility.yul\":9756:9760   */\n  dup7\n    /* \"#utility.yul\":9749:9830   */\n  sstore\n    /* \"#utility.yul\":9618:9840   */\n  pop\n    /* \"#utility.yul\":8953:9840   */\n  jump(tag_158)\n    /* \"#utility.yul\":8983:9601   */\ntag_159:\n    /* \"#utility.yul\":9035:9039   */\n  0x1f\n    /* \"#utility.yul\":9031:9040   */\n  not\n    /* \"#utility.yul\":9023:9029   */\n  dup5\n    /* \"#utility.yul\":9019:9041   */\n  and\n    /* \"#utility.yul\":9069:9106   */\n  tag_162\n    /* \"#utility.yul\":9101:9105   */\n  dup7\n    /* \"#utility.yul\":9069:9106   */\n  tag_35\n  jump\t// in\ntag_162:\n    /* \"#utility.yul\":9128:9129   */\n  0x00\n    /* \"#utility.yul\":9142:9350   */\ntag_163:\n    /* \"#utility.yul\":9156:9163   */\n  dup3\n    /* \"#utility.yul\":9153:9154   */\n  dup2\n    /* \"#utility.yul\":9150:9164   */\n  lt\n    /* \"#utility.yul\":9142:9350   */\n  iszero\n  tag_165\n  jumpi\n    /* \"#utility.yul\":9235:9244   */\n  dup5\n    /* \"#utility.yul\":9230:9233   */\n  dup10\n    /* \"#utility.yul\":9226:9245   */\n  add\n    /* \"#utility.yul\":9220:9246   */\n  mload\n    /* \"#utility.yul\":9212:9218   */\n  dup3\n    /* \"#utility.yul\":9205:9247   */\n  sstore\n    /* \"#utility.yul\":9286:9287   */\n  0x01\n    /* \"#utility.yul\":9278:9284   */\n  dup3\n    /* \"#utility.yul\":9274:9288   */\n  add\n    /* \"#utility.yul\":9264:9288   */\n  swap2\n  pop\n    /* \"#utility.yul\":9333:9335   */\n  0x20\n    /* \"#utility.yul\":9322:9331   */\n  dup6\n    /* \"#utility.yul\":9318:9336   */\n  add\n    /* \"#utility.yul\":9305:9336   */\n  swap5\n  pop\n    /* \"#utility.yul\":9179:9183   */\n  0x20\n    /* \"#utility.yul\":9176:9177   */\n  dup2\n    /* \"#utility.yul\":9172:9184   */\n  add\n    /* \"#utility.yul\":9167:9184   */\n  swap1\n  pop\n    /* \"#utility.yul\":9142:9350   */\n  jump(tag_163)\ntag_165:\n    /* \"#utility.yul\":9378:9384   */\n  dup7\n    /* \"#utility.yul\":9369:9376   */\n  dup4\n    /* \"#utility.yul\":9366:9385   */\n  lt\n    /* \"#utility.yul\":9363:9542   */\n  iszero\n  tag_166\n  jumpi\n    /* \"#utility.yul\":9436:9445   */\n  dup5\n    /* \"#utility.yul\":9431:9434   */\n  dup10\n    /* \"#utility.yul\":9427:9446   */\n  add\n    /* \"#utility.yul\":9421:9447   */\n  mload\n    /* \"#utility.yul\":9479:9527   */\n  tag_167\n    /* \"#utility.yul\":9521:9525   */\n  0x1f\n    /* \"#utility.yul\":9513:9519   */\n  dup10\n    /* \"#utility.yul\":9509:9526   */\n  and\n    /* \"#utility.yul\":9498:9507   */\n  dup3\n    /* \"#utility.yul\":9479:9527   */\n  tag_48\n  jump\t// in\ntag_167:\n    /* \"#utility.yul\":9471:9477   */\n  dup4\n    /* \"#utility.yul\":9464:9528   */\n  sstore\n    /* \"#utility.yul\":9386:9542   */\n  pop\n    /* \"#utility.yul\":9363:9542   */\ntag_166:\n    /* \"#utility.yul\":9588:9589   */\n  0x01\n    /* \"#utility.yul\":9584:9585   */\n  0x02\n    /* \"#utility.yul\":9576:9582   */\n  dup9\n    /* \"#utility.yul\":9572:9586   */\n  mul\n    /* \"#utility.yul\":9568:9590   */\n  add\n    /* \"#utility.yul\":9562:9566   */\n  dup9\n    /* \"#utility.yul\":9555:9591   */\n  sstore\n    /* \"#utility.yul\":8990:9601   */\n  pop\n  pop\n  pop\n    /* \"#utility.yul\":8953:9840   */\ntag_158:\n  pop\n    /* \"#utility.yul\":8543:9846   */\n  pop\n  pop\n  pop\n    /* \"#utility.yul\":8451:9846   */\n  pop\n  pop\n  jump\t// out\n    /* \"Day-06/D6P2.sol\":2850:3649  contract Motorcycle is Vehicle {... */\ntag_12:\n  dataSize(sub_0)\n  dup1\n  dataOffset(sub_0)\n  0x00\n  codecopy\n  0x00\n  return\nstop\n\nsub_0: assembly {\n        /* \"Day-06/D6P2.sol\":2850:3649  contract Motorcycle is Vehicle {... */\n      mstore(0x40, 0x80)\n      callvalue\n      dup1\n      iszero\n      tag_1\n      jumpi\n      0x00\n      dup1\n      revert\n    tag_1:\n      pop\n      jumpi(tag_2, lt(calldatasize, 0x04))\n      shr(0xe0, calldataload(0x00))\n      dup1\n      0xd21e1993\n      gt\n      tag_11\n      jumpi\n      dup1\n      0xd21e1993\n      eq\n      tag_7\n      jumpi\n      dup1\n      0xe8311f84\n      eq\n      tag_8\n      jumpi\n      dup1\n      0xf3269716\n      eq\n      tag_9\n      jumpi\n      dup1\n      0xf64eeab6\n      eq\n      tag_10\n      jumpi\n      jump(tag_2)\n    tag_11:\n      dup1\n      0x0ad9d052\n      eq\n      tag_3\n      jumpi\n      dup1\n      0x1e006929\n      eq\n      tag_4\n      jumpi\n      dup1\n      0x60bc9d0a\n      eq\n      tag_5\n      jumpi\n      dup1\n      0xc6dad082\n      eq\n      tag_6\n      jumpi\n    tag_2:\n      0x00\n      dup1\n      revert\n        /* \"Day-06/D6P2.sol\":147:166  string public model */\n    tag_3:\n      tag_12\n      tag_13\n      jump\t// in\n    tag_12:\n      mload(0x40)\n      tag_14\n      swap2\n      swap1\n      tag_15\n      jump\t// in\n    tag_14:\n      mload(0x40)\n      dup1\n      swap2\n      sub\n      swap1\n      return\n        /* \"Day-06/D6P2.sol\":862:995  function distanceTraveled(uint fuelAmount) public pure virtual returns (uint) {... */\n    tag_4:\n      tag_16\n      0x04\n      dup1\n      calldatasize\n      sub\n      dup2\n      add\n      swap1\n      tag_17\n      swap2\n      swap1\n      tag_18\n      jump\t// in\n    tag_17:\n      tag_19\n      jump\t// in\n    tag_16:\n      mload(0x40)\n      tag_20\n      swap2\n      swap1\n      tag_21\n      jump\t// in\n    tag_20:\n      mload(0x40)\n      dup1\n      swap2\n      sub\n      swap1\n      return\n        /* \"Day-06/D6P2.sol\":2888:2910  bool public hasSideCar */\n    tag_5:\n      tag_22\n      tag_23\n      jump\t// in\n    tag_22:\n      mload(0x40)\n      tag_24\n      swap2\n      swap1\n      tag_25\n      jump\t// in\n    tag_24:\n      mload(0x40)\n      dup1\n      swap2\n      sub\n      swap1\n      return\n        /* \"Day-06/D6P2.sol\":122:140  string public make */\n    tag_6:\n      tag_26\n      tag_27\n      jump\t// in\n    tag_26:\n      mload(0x40)\n      tag_28\n      swap2\n      swap1\n      tag_15\n      jump\t// in\n    tag_28:\n      mload(0x40)\n      dup1\n      swap2\n      sub\n      swap1\n      return\n        /* \"Day-06/D6P2.sol\":3516:3646  function maxSpeed() public pure override returns (uint) {... */\n    tag_7:\n      tag_29\n      tag_30\n      jump\t// in\n    tag_29:\n      mload(0x40)\n      tag_31\n      swap2\n      swap1\n      tag_21\n      jump\t// in\n    tag_31:\n      mload(0x40)\n      dup1\n      swap2\n      sub\n      swap1\n      return\n        /* \"Day-06/D6P2.sol\":196:218  string public fuelType */\n    tag_8:\n      tag_32\n      tag_33\n      jump\t// in\n    tag_32:\n      mload(0x40)\n      tag_34\n      swap2\n      swap1\n      tag_15\n      jump\t// in\n    tag_34:\n      mload(0x40)\n      dup1\n      swap2\n      sub\n      swap1\n      return\n        /* \"Day-06/D6P2.sol\":173:189  uint public year */\n    tag_9:\n      tag_35\n      tag_36\n      jump\t// in\n    tag_35:\n      mload(0x40)\n      tag_37\n      swap2\n      swap1\n      tag_21\n      jump\t// in\n    tag_37:\n      mload(0x40)\n      dup1\n      swap2\n      sub\n      swap1\n      return\n        /* \"Day-06/D6P2.sol\":3300:3463  function fuelEfficiency() public pure override returns (uint) {... */\n    tag_10:\n      tag_38\n      tag_39\n      jump\t// in\n    tag_38:\n      mload(0x40)\n      tag_40\n      swap2\n      swap1\n      tag_21\n      jump\t// in\n    tag_40:\n      mload(0x40)\n      dup1\n      swap2\n      sub\n      swap1\n      return\n        /* \"Day-06/D6P2.sol\":147:166  string public model */\n    tag_13:\n      0x01\n      dup1\n      sload\n      tag_41\n      swap1\n      tag_42\n      jump\t// in\n    tag_41:\n      dup1\n      0x1f\n      add\n      0x20\n      dup1\n      swap2\n      div\n      mul\n      0x20\n      add\n      mload(0x40)\n      swap1\n      dup2\n      add\n      0x40\n      mstore\n      dup1\n      swap3\n      swap2\n      swap1\n      dup2\n      dup2\n      mstore\n      0x20\n      add\n      dup3\n      dup1\n      sload\n      tag_43\n      swap1\n      tag_42\n      jump\t// in\n    tag_43:\n      dup1\n      iszero\n      tag_44\n      jumpi\n      dup1\n      0x1f\n      lt\n      tag_45\n      jumpi\n      0x0100\n      dup1\n      dup4\n      sload\n      div\n      mul\n      dup4\n      mstore\n      swap2\n      0x20\n      add\n      swap2\n      jump(tag_44)\n    tag_45:\n      dup3\n      add\n      swap2\n      swap1\n      0x00\n      mstore\n      keccak256(0x00, 0x20)\n      swap1\n    tag_46:\n      dup2\n      sload\n      dup2\n      mstore\n      swap1\n      0x01\n      add\n      swap1\n      0x20\n      add\n      dup1\n      dup4\n      gt\n      tag_46\n      jumpi\n      dup3\n      swap1\n      sub\n      0x1f\n      and\n      dup3\n      add\n      swap2\n    tag_44:\n      pop\n      pop\n      pop\n      pop\n      pop\n      dup2\n      jump\t// out\n        /* \"Day-06/D6P2.sol\":862:995  function distanceTraveled(uint fuelAmount) public pure virtual returns (uint) {... */\n    tag_19:\n        /* \"Day-06/D6P2.sol\":934:938  uint */\n      0x00\n        /* \"Day-06/D6P2.sol\":971:987  fuelEfficiency() */\n      tag_48\n        /* \"Day-06/D6P2.sol\":971:985  fuelEfficiency */\n      tag_39\n        /* \"Day-06/D6P2.sol\":971:987  fuelEfficiency() */\n      jump\t// in\n    tag_48:\n        /* \"Day-06/D6P2.sol\":958:968  fuelAmount */\n      dup3\n        /* \"Day-06/D6P2.sol\":958:987  fuelAmount * fuelEfficiency() */\n      tag_49\n      swap2\n      swap1\n      tag_50\n      jump\t// in\n    tag_49:\n        /* \"Day-06/D6P2.sol\":951:987  return fuelAmount * fuelEfficiency() */\n      swap1\n      pop\n        /* \"Day-06/D6P2.sol\":862:995  function distanceTraveled(uint fuelAmount) public pure virtual returns (uint) {... */\n      swap2\n      swap1\n      pop\n      jump\t// out\n        /* \"Day-06/D6P2.sol\":2888:2910  bool public hasSideCar */\n    tag_23:\n      0x04\n      0x00\n      swap1\n      sload\n      swap1\n      0x0100\n      exp\n      swap1\n      div\n      0xff\n      and\n      dup2\n      jump\t// out\n        /* \"Day-06/D6P2.sol\":122:140  string public make */\n    tag_27:\n      0x00\n      dup1\n      sload\n      tag_51\n      swap1\n      tag_42\n      jump\t// in\n    tag_51:\n      dup1\n      0x1f\n      add\n      0x20\n      dup1\n      swap2\n      div\n      mul\n      0x20\n      add\n      mload(0x40)\n      swap1\n      dup2\n      add\n      0x40\n      mstore\n      dup1\n      swap3\n      swap2\n      swap1\n      dup2\n      dup2\n      mstore\n      0x20\n      add\n      dup3\n      dup1\n      sload\n      tag_52\n      swap1\n      tag_42\n      jump\t// in\n    tag_52:\n      dup1\n      iszero\n      tag_53\n      jumpi\n      dup1\n      0x1f\n      lt\n      tag_54\n      jumpi\n      0x0100\n      dup1\n      dup4\n      sload\n      div\n      mul\n      dup4\n      mstore\n      swap2\n      0x20\n      add\n      swap2\n      jump(tag_53)\n    tag_54:\n      dup3\n      add\n      swap2\n      swap1\n      0x00\n      mstore\n      keccak256(0x00, 0x20)\n      swap1\n    tag_55:\n      dup2\n      sload\n      dup2\n      mstore\n      swap1\n      0x01\n      add\n      swap1\n      0x20\n      add\n      dup1\n      dup4\n      gt\n      tag_55\n      jumpi\n      dup3\n      swap1\n      sub\n      0x1f\n      and\n      dup3\n      add\n      swap2\n    tag_53:\n      pop\n      pop\n      pop\n      pop\n      pop\n      dup2\n      jump\t// out\n        /* \"Day-06/D6P2.sol\":3516:3646  function maxSpeed() public pure override returns (uint) {... */\n    tag_30:\n        /* \"Day-06/D6P2.sol\":3566:3570  uint */\n      0x00\n        /* \"Day-06/D6P2.sol\":3590:3593  200 */\n      0xc8\n        /* \"Day-06/D6P2.sol\":3583:3593  return 200 */\n      swap1\n      pop\n        /* \"Day-06/D6P2.sol\":3516:3646  function maxSpeed() public pure override returns (uint) {... */\n      swap1\n      jump\t// out\n        /* \"Day-06/D6P2.sol\":196:218  string public fuelType */\n    tag_33:\n      0x03\n      dup1\n      sload\n      tag_57\n      swap1\n      tag_42\n      jump\t// in\n    tag_57:\n      dup1\n      0x1f\n      add\n      0x20\n      dup1\n      swap2\n      div\n      mul\n      0x20\n      add\n      mload(0x40)\n      swap1\n      dup2\n      add\n      0x40\n      mstore\n      dup1\n      swap3\n      swap2\n      swap1\n      dup2\n      dup2\n      mstore\n      0x20\n      add\n      dup3\n      dup1\n      sload\n      tag_58\n      swap1\n      tag_42\n      jump\t// in\n    tag_58:\n      dup1\n      iszero\n      tag_59\n      jumpi\n      dup1\n      0x1f\n      lt\n      tag_60\n      jumpi\n      0x0100\n      dup1\n      dup4\n      sload\n      div\n      mul\n      dup4\n      mstore\n      swap2\n      0x20\n      add\n      swap2\n      jump(tag_59)\n    tag_60:\n      dup3\n      add\n      swap2\n      swap1\n      0x00\n      mstore\n      keccak256(0x00, 0x20)\n      swap1\n    tag_61:\n      dup2\n      sload\n      dup2\n      mstore\n      swap1\n      0x01\n      add\n      swap1\n      0x20\n      add\n      dup1\n      dup4\n      gt\n      tag_61\n      jumpi\n      dup3\n      swap1\n      sub\n      0x1f\n      and\n      dup3\n      add\n      swap2\n    tag_59:\n      pop\n      pop\n      pop\n      pop\n      pop\n      dup2\n      jump\t// out\n        /* \"Day-06/D6P2.sol\":173:189  uint public year */\n    tag_36:\n      sload(0x02)\n      dup2\n      jump\t// out\n        /* \"Day-06/D6P2.sol\":3300:3463  function fuelEfficiency() public pure override returns (uint) {... */\n    tag_39:\n        /* \"Day-06/D6P2.sol\":3356:3360  uint */\n      0x00\n        /* \"Day-06/D6P2.sol\":3380:3382  25 */\n      0x19\n        /* \"Day-06/D6P2.sol\":3373:3382  return 25 */\n      swap1\n      pop\n        /* \"Day-06/D6P2.sol\":3300:3463  function fuelEfficiency() public pure override returns (uint) {... */\n      swap1\n      jump\t// out\n        /* \"#utility.yul\":7:106   */\n    tag_63:\n        /* \"#utility.yul\":59:65   */\n      0x00\n        /* \"#utility.yul\":93:98   */\n      dup2\n        /* \"#utility.yul\":87:99   */\n      mload\n        /* \"#utility.yul\":77:99   */\n      swap1\n      pop\n        /* \"#utility.yul\":7:106   */\n      swap2\n      swap1\n      pop\n      jump\t// out\n        /* \"#utility.yul\":112:281   */\n    tag_64:\n        /* \"#utility.yul\":196:207   */\n      0x00\n        /* \"#utility.yul\":230:236   */\n      dup3\n        /* \"#utility.yul\":225:228   */\n      dup3\n        /* \"#utility.yul\":218:237   */\n      mstore\n        /* \"#utility.yul\":270:274   */\n      0x20\n        /* \"#utility.yul\":265:268   */\n      dup3\n        /* \"#utility.yul\":261:275   */\n      add\n        /* \"#utility.yul\":246:275   */\n      swap1\n      pop\n        /* \"#utility.yul\":112:281   */\n      swap3\n      swap2\n      pop\n      pop\n      jump\t// out\n        /* \"#utility.yul\":287:533   */\n    tag_65:\n        /* \"#utility.yul\":368:369   */\n      0x00\n        /* \"#utility.yul\":378:491   */\n    tag_83:\n        /* \"#utility.yul\":392:398   */\n      dup4\n        /* \"#utility.yul\":389:390   */\n      dup2\n        /* \"#utility.yul\":386:399   */\n      lt\n        /* \"#utility.yul\":378:491   */\n      iszero\n      tag_85\n      jumpi\n        /* \"#utility.yul\":477:478   */\n      dup1\n        /* \"#utility.yul\":472:475   */\n      dup3\n        /* \"#utility.yul\":468:479   */\n      add\n        /* \"#utility.yul\":462:480   */\n      mload\n        /* \"#utility.yul\":458:459   */\n      dup2\n        /* \"#utility.yul\":453:456   */\n      dup5\n        /* \"#utility.yul\":449:460   */\n      add\n        /* \"#utility.yul\":442:481   */\n      mstore\n        /* \"#utility.yul\":414:416   */\n      0x20\n        /* \"#utility.yul\":411:412   */\n      dup2\n        /* \"#utility.yul\":407:417   */\n      add\n        /* \"#utility.yul\":402:417   */\n      swap1\n      pop\n        /* \"#utility.yul\":378:491   */\n      jump(tag_83)\n    tag_85:\n        /* \"#utility.yul\":525:526   */\n      0x00\n        /* \"#utility.yul\":516:522   */\n      dup5\n        /* \"#utility.yul\":511:514   */\n      dup5\n        /* \"#utility.yul\":507:523   */\n      add\n        /* \"#utility.yul\":500:527   */\n      mstore\n        /* \"#utility.yul\":349:533   */\n      pop\n        /* \"#utility.yul\":287:533   */\n      pop\n      pop\n      pop\n      jump\t// out\n        /* \"#utility.yul\":539:641   */\n    tag_66:\n        /* \"#utility.yul\":580:586   */\n      0x00\n        /* \"#utility.yul\":631:633   */\n      0x1f\n        /* \"#utility.yul\":627:634   */\n      not\n        /* \"#utility.yul\":622:624   */\n      0x1f\n        /* \"#utility.yul\":615:620   */\n      dup4\n        /* \"#utility.yul\":611:625   */\n      add\n        /* \"#utility.yul\":607:635   */\n      and\n        /* \"#utility.yul\":597:635   */\n      swap1\n      pop\n        /* \"#utility.yul\":539:641   */\n      swap2\n      swap1\n      pop\n      jump\t// out\n        /* \"#utility.yul\":647:1024   */\n    tag_67:\n        /* \"#utility.yul\":735:738   */\n      0x00\n        /* \"#utility.yul\":763:802   */\n      tag_88\n        /* \"#utility.yul\":796:801   */\n      dup3\n        /* \"#utility.yul\":763:802   */\n      tag_63\n      jump\t// in\n    tag_88:\n        /* \"#utility.yul\":818:889   */\n      tag_89\n        /* \"#utility.yul\":882:888   */\n      dup2\n        /* \"#utility.yul\":877:880   */\n      dup6\n        /* \"#utility.yul\":818:889   */\n      tag_64\n      jump\t// in\n    tag_89:\n        /* \"#utility.yul\":811:889   */\n      swap4\n      pop\n        /* \"#utility.yul\":898:963   */\n      tag_90\n        /* \"#utility.yul\":956:962   */\n      dup2\n        /* \"#utility.yul\":951:954   */\n      dup6\n        /* \"#utility.yul\":944:948   */\n      0x20\n        /* \"#utility.yul\":937:942   */\n      dup7\n        /* \"#utility.yul\":933:949   */\n      add\n        /* \"#utility.yul\":898:963   */\n      tag_65\n      jump\t// in\n    tag_90:\n        /* \"#utility.yul\":988:1017   */\n      tag_91\n        /* \"#utility.yul\":1010:1016   */\n      dup2\n        /* \"#utility.yul\":988:1017   */\n      tag_66\n      jump\t// in\n    tag_91:\n        /* \"#utility.yul\":983:986   */\n      dup5\n        /* \"#utility.yul\":979:1018   */\n      add\n        /* \"#utility.yul\":972:1018   */\n      swap2\n      pop\n        /* \"#utility.yul\":739:1024   */\n      pop\n        /* \"#utility.yul\":647:1024   */\n      swap3\n      swap2\n      pop\n      pop\n      jump\t// out\n        /* \"#utility.yul\":1030:1343   */\n    tag_15:\n        /* \"#utility.yul\":1143:1147   */\n      0x00\n        /* \"#utility.yul\":1181:1183   */\n      0x20\n        /* \"#utility.yul\":1170:1179   */\n      dup3\n        /* \"#utility.yul\":1166:1184   */\n      add\n        /* \"#utility.yul\":1158:1184   */\n      swap1\n      pop\n        /* \"#utility.yul\":1230:1239   */\n      dup2\n        /* \"#utility.yul\":1224:1228   */\n      dup2\n        /* \"#utility.yul\":1220:1240   */\n      sub\n        /* \"#utility.yul\":1216:1217   */\n      0x00\n        /* \"#utility.yul\":1205:1214   */\n      dup4\n        /* \"#utility.yul\":1201:1218   */\n      add\n        /* \"#utility.yul\":1194:1241   */\n      mstore\n        /* \"#utility.yul\":1258:1336   */\n      tag_93\n        /* \"#utility.yul\":1331:1335   */\n      dup2\n        /* \"#utility.yul\":1322:1328   */\n      dup5\n        /* \"#utility.yul\":1258:1336   */\n      tag_67\n      jump\t// in\n    tag_93:\n        /* \"#utility.yul\":1250:1336   */\n      swap1\n      pop\n        /* \"#utility.yul\":1030:1343   */\n      swap3\n      swap2\n      pop\n      pop\n      jump\t// out\n        /* \"#utility.yul\":1430:1547   */\n    tag_69:\n        /* \"#utility.yul\":1539:1540   */\n      0x00\n        /* \"#utility.yul\":1536:1537   */\n      dup1\n        /* \"#utility.yul\":1529:1541   */\n      revert\n        /* \"#utility.yul\":1676:1753   */\n    tag_71:\n        /* \"#utility.yul\":1713:1720   */\n      0x00\n        /* \"#utility.yul\":1742:1747   */\n      dup2\n        /* \"#utility.yul\":1731:1747   */\n      swap1\n      pop\n        /* \"#utility.yul\":1676:1753   */\n      swap2\n      swap1\n      pop\n      jump\t// out\n        /* \"#utility.yul\":1759:1881   */\n    tag_72:\n        /* \"#utility.yul\":1832:1856   */\n      tag_99\n        /* \"#utility.yul\":1850:1855   */\n      dup2\n        /* \"#utility.yul\":1832:1856   */\n      tag_71\n      jump\t// in\n    tag_99:\n        /* \"#utility.yul\":1825:1830   */\n      dup2\n        /* \"#utility.yul\":1822:1857   */\n      eq\n        /* \"#utility.yul\":1812:1875   */\n      tag_100\n      jumpi\n        /* \"#utility.yul\":1871:1872   */\n      0x00\n        /* \"#utility.yul\":1868:1869   */\n      dup1\n        /* \"#utility.yul\":1861:1873   */\n      revert\n        /* \"#utility.yul\":1812:1875   */\n    tag_100:\n        /* \"#utility.yul\":1759:1881   */\n      pop\n      jump\t// out\n        /* \"#utility.yul\":1887:2026   */\n    tag_73:\n        /* \"#utility.yul\":1933:1938   */\n      0x00\n        /* \"#utility.yul\":1971:1977   */\n      dup2\n        /* \"#utility.yul\":1958:1978   */\n      calldataload\n        /* \"#utility.yul\":1949:1978   */\n      swap1\n      pop\n        /* \"#utility.yul\":1987:2020   */\n      tag_102\n        /* \"#utility.yul\":2014:2019   */\n      dup2\n        /* \"#utility.yul\":1987:2020   */\n      tag_72\n      jump\t// in\n    tag_102:\n        /* \"#utility.yul\":1887:2026   */\n      swap3\n      swap2\n      pop\n      pop\n      jump\t// out\n        /* \"#utility.yul\":2032:2361   */\n    tag_18:\n        /* \"#utility.yul\":2091:2097   */\n      0x00\n        /* \"#utility.yul\":2140:2142   */\n      0x20\n        /* \"#utility.yul\":2128:2137   */\n      dup3\n        /* \"#utility.yul\":2119:2126   */\n      dup5\n        /* \"#utility.yul\":2115:2138   */\n      sub\n        /* \"#utility.yul\":2111:2143   */\n      slt\n        /* \"#utility.yul\":2108:2227   */\n      iszero\n      tag_104\n      jumpi\n        /* \"#utility.yul\":2146:2225   */\n      tag_105\n      tag_69\n      jump\t// in\n    tag_105:\n        /* \"#utility.yul\":2108:2227   */\n    tag_104:\n        /* \"#utility.yul\":2266:2267   */\n      0x00\n        /* \"#utility.yul\":2291:2344   */\n      tag_106\n        /* \"#utility.yul\":2336:2343   */\n      dup5\n        /* \"#utility.yul\":2327:2333   */\n      dup3\n        /* \"#utility.yul\":2316:2325   */\n      dup6\n        /* \"#utility.yul\":2312:2334   */\n      add\n        /* \"#utility.yul\":2291:2344   */\n      tag_73\n      jump\t// in\n    tag_106:\n        /* \"#utility.yul\":2281:2344   */\n      swap2\n      pop\n        /* \"#utility.yul\":2237:2354   */\n      pop\n        /* \"#utility.yul\":2032:2361   */\n      swap3\n      swap2\n      pop\n      pop\n      jump\t// out\n        /* \"#utility.yul\":2367:2485   */\n    tag_74:\n        /* \"#utility.yul\":2454:2478   */\n      tag_108\n        /* \"#utility.yul\":2472:2477   */\n      dup2\n        /* \"#utility.yul\":2454:2478   */\n      tag_71\n      jump\t// in\n    tag_108:\n        /* \"#utility.yul\":2449:2452   */\n      dup3\n        /* \"#utility.yul\":2442:2479   */\n      mstore\n        /* \"#utility.yul\":2367:2485   */\n      pop\n      pop\n      jump\t// out\n        /* \"#utility.yul\":2491:2713   */\n    tag_21:\n        /* \"#utility.yul\":2584:2588   */\n      0x00\n        /* \"#utility.yul\":2622:2624   */\n      0x20\n        /* \"#utility.yul\":2611:2620   */\n      dup3\n        /* \"#utility.yul\":2607:2625   */\n      add\n        /* \"#utility.yul\":2599:2625   */\n      swap1\n      pop\n        /* \"#utility.yul\":2635:2706   */\n      tag_110\n        /* \"#utility.yul\":2703:2704   */\n      0x00\n        /* \"#utility.yul\":2692:2701   */\n      dup4\n        /* \"#utility.yul\":2688:2705   */\n      add\n        /* \"#utility.yul\":2679:2685   */\n      dup5\n        /* \"#utility.yul\":2635:2706   */\n      tag_74\n      jump\t// in\n    tag_110:\n        /* \"#utility.yul\":2491:2713   */\n      swap3\n      swap2\n      pop\n      pop\n      jump\t// out\n        /* \"#utility.yul\":2719:2809   */\n    tag_75:\n        /* \"#utility.yul\":2753:2760   */\n      0x00\n        /* \"#utility.yul\":2796:2801   */\n      dup2\n        /* \"#utility.yul\":2789:2802   */\n      iszero\n        /* \"#utility.yul\":2782:2803   */\n      iszero\n        /* \"#utility.yul\":2771:2803   */\n      swap1\n      pop\n        /* \"#utility.yul\":2719:2809   */\n      swap2\n      swap1\n      pop\n      jump\t// out\n        /* \"#utility.yul\":2815:2924   */\n    tag_76:\n        /* \"#utility.yul\":2896:2917   */\n      tag_113\n        /* \"#utility.yul\":2911:2916   */\n      dup2\n        /* \"#utility.yul\":2896:2917   */\n      tag_75\n      jump\t// in\n    tag_113:\n        /* \"#utility.yul\":2891:2894   */\n      dup3\n        /* \"#utility.yul\":2884:2918   */\n      mstore\n        /* \"#utility.yul\":2815:2924   */\n      pop\n      pop\n      jump\t// out\n        /* \"#utility.yul\":2930:3140   */\n    tag_25:\n        /* \"#utility.yul\":3017:3021   */\n      0x00\n        /* \"#utility.yul\":3055:3057   */\n      0x20\n        /* \"#utility.yul\":3044:3053   */\n      dup3\n        /* \"#utility.yul\":3040:3058   */\n      add\n        /* \"#utility.yul\":3032:3058   */\n      swap1\n      pop\n        /* \"#utility.yul\":3068:3133   */\n      tag_115\n        /* \"#utility.yul\":3130:3131   */\n      0x00\n        /* \"#utility.yul\":3119:3128   */\n      dup4\n        /* \"#utility.yul\":3115:3132   */\n      add\n        /* \"#utility.yul\":3106:3112   */\n      dup5\n        /* \"#utility.yul\":3068:3133   */\n      tag_76\n      jump\t// in\n    tag_115:\n        /* \"#utility.yul\":2930:3140   */\n      swap3\n      swap2\n      pop\n      pop\n      jump\t// out\n        /* \"#utility.yul\":3146:3326   */\n    tag_77:\n        /* \"#utility.yul\":3194:3271   */\n      0x4e487b7100000000000000000000000000000000000000000000000000000000\n        /* \"#utility.yul\":3191:3192   */\n      0x00\n        /* \"#utility.yul\":3184:3272   */\n      mstore\n        /* \"#utility.yul\":3291:3295   */\n      0x22\n        /* \"#utility.yul\":3288:3289   */\n      0x04\n        /* \"#utility.yul\":3281:3296   */\n      mstore\n        /* \"#utility.yul\":3315:3319   */\n      0x24\n        /* \"#utility.yul\":3312:3313   */\n      0x00\n        /* \"#utility.yul\":3305:3320   */\n      revert\n        /* \"#utility.yul\":3332:3652   */\n    tag_42:\n        /* \"#utility.yul\":3376:3382   */\n      0x00\n        /* \"#utility.yul\":3413:3414   */\n      0x02\n        /* \"#utility.yul\":3407:3411   */\n      dup3\n        /* \"#utility.yul\":3403:3415   */\n      div\n        /* \"#utility.yul\":3393:3415   */\n      swap1\n      pop\n        /* \"#utility.yul\":3460:3461   */\n      0x01\n        /* \"#utility.yul\":3454:3458   */\n      dup3\n        /* \"#utility.yul\":3450:3462   */\n      and\n        /* \"#utility.yul\":3481:3499   */\n      dup1\n        /* \"#utility.yul\":3471:3552   */\n      tag_118\n      jumpi\n        /* \"#utility.yul\":3537:3541   */\n      0x7f\n        /* \"#utility.yul\":3529:3535   */\n      dup3\n        /* \"#utility.yul\":3525:3542   */\n      and\n        /* \"#utility.yul\":3515:3542   */\n      swap2\n      pop\n        /* \"#utility.yul\":3471:3552   */\n    tag_118:\n        /* \"#utility.yul\":3599:3601   */\n      0x20\n        /* \"#utility.yul\":3591:3597   */\n      dup3\n        /* \"#utility.yul\":3588:3602   */\n      lt\n        /* \"#utility.yul\":3568:3586   */\n      dup2\n        /* \"#utility.yul\":3565:3603   */\n      sub\n        /* \"#utility.yul\":3562:3646   */\n      tag_119\n      jumpi\n        /* \"#utility.yul\":3618:3636   */\n      tag_120\n      tag_77\n      jump\t// in\n    tag_120:\n        /* \"#utility.yul\":3562:3646   */\n    tag_119:\n        /* \"#utility.yul\":3383:3652   */\n      pop\n        /* \"#utility.yul\":3332:3652   */\n      swap2\n      swap1\n      pop\n      jump\t// out\n        /* \"#utility.yul\":3658:3838   */\n    tag_78:\n        /* \"#utility.yul\":3706:3783   */\n      0x4e487b7100000000000000000000000000000000000000000000000000000000\n        /* \"#utility.yul\":3703:3704   */\n      0x00\n        /* \"#utility.yul\":3696:3784   */\n      mstore\n        /* \"#utility.yul\":3803:3807   */\n      0x11\n        /* \"#utility.yul\":3800:3801   */\n      0x04\n        /* \"#utility.yul\":3793:3808   */\n      mstore\n        /* \"#utility.yul\":3827:3831   */\n      0x24\n        /* \"#utility.yul\":3824:3825   */\n      0x00\n        /* \"#utility.yul\":3817:3832   */\n      revert\n        /* \"#utility.yul\":3844:4254   */\n    tag_50:\n        /* \"#utility.yul\":3884:3891   */\n      0x00\n        /* \"#utility.yul\":3907:3927   */\n      tag_123\n        /* \"#utility.yul\":3925:3926   */\n      dup3\n        /* \"#utility.yul\":3907:3927   */\n      tag_71\n      jump\t// in\n    tag_123:\n        /* \"#utility.yul\":3902:3927   */\n      swap2\n      pop\n        /* \"#utility.yul\":3941:3961   */\n      tag_124\n        /* \"#utility.yul\":3959:3960   */\n      dup4\n        /* \"#utility.yul\":3941:3961   */\n      tag_71\n      jump\t// in\n    tag_124:\n        /* \"#utility.yul\":3936:3961   */\n      swap3\n      pop\n        /* \"#utility.yul\":3996:3997   */\n      dup3\n        /* \"#utility.yul\":3993:3994   */\n      dup3\n        /* \"#utility.yul\":3989:3998   */\n      mul\n        /* \"#utility.yul\":4018:4048   */\n      tag_125\n        /* \"#utility.yul\":4036:4047   */\n      dup2\n        /* \"#utility.yul\":4018:4048   */\n      tag_71\n      jump\t// in\n    tag_125:\n        /* \"#utility.yul\":4007:4048   */\n      swap2\n      pop\n        /* \"#utility.yul\":4197:4198   */\n      dup3\n        /* \"#utility.yul\":4188:4195   */\n      dup3\n        /* \"#utility.yul\":4184:4199   */\n      div\n        /* \"#utility.yul\":4181:4182   */\n      dup5\n        /* \"#utility.yul\":4178:4200   */\n      eq\n        /* \"#utility.yul\":4158:4159   */\n      dup4\n        /* \"#utility.yul\":4151:4160   */\n      iszero\n        /* \"#utility.yul\":4131:4214   */\n      or\n        /* \"#utility.yul\":4108:4247   */\n      tag_126\n      jumpi\n        /* \"#utility.yul\":4227:4245   */\n      tag_127\n      tag_78\n      jump\t// in\n    tag_127:\n        /* \"#utility.yul\":4108:4247   */\n    tag_126:\n        /* \"#utility.yul\":3892:4254   */\n      pop\n        /* \"#utility.yul\":3844:4254   */\n      swap3\n      swap2\n      pop\n      pop\n      jump\t// out\n\n    auxdata: 0xa2646970667358221220d81fb5119e47f6af1381c581666a35d47cdd3cd75ce9197acdf2c63c0ce166c464736f6c63430008120033\n}\n",
				"bytecode": {
					"linkReferences": {},
					"object": "60806040523480156200001157600080fd5b5060405162000cca38038062000cca8339818101604052810190620000379190620002ac565b8484848483600090816200004c9190620005d2565b5082600190816200005e9190620005d2565b50816002819055508060039081620000779190620005d2565b505050505080600460006101000a81548160ff0219169083151502179055505050505050620006b9565b6000604051905090565b600080fd5b600080fd5b600080fd5b600080fd5b6000601f19601f8301169050919050565b7f4e487b7100000000000000000000000000000000000000000000000000000000600052604160045260246000fd5b6200010a82620000bf565b810181811067ffffffffffffffff821117156200012c576200012b620000d0565b5b80604052505050565b600062000141620000a1565b90506200014f8282620000ff565b919050565b600067ffffffffffffffff821115620001725762000171620000d0565b5b6200017d82620000bf565b9050602081019050919050565b60005b83811015620001aa5780820151818401526020810190506200018d565b60008484015250505050565b6000620001cd620001c78462000154565b62000135565b905082815260208101848484011115620001ec57620001eb620000ba565b5b620001f98482856200018a565b509392505050565b600082601f830112620002195762000218620000b5565b5b81516200022b848260208601620001b6565b91505092915050565b6000819050919050565b620002498162000234565b81146200025557600080fd5b50565b60008151905062000269816200023e565b92915050565b60008115159050919050565b62000286816200026f565b81146200029257600080fd5b50565b600081519050620002a6816200027b565b92915050565b600080600080600060a08688031215620002cb57620002ca620000ab565b5b600086015167ffffffffffffffff811115620002ec57620002eb620000b0565b5b620002fa8882890162000201565b955050602086015167ffffffffffffffff8111156200031e576200031d620000b0565b5b6200032c8882890162000201565b94505060406200033f8882890162000258565b935050606086015167ffffffffffffffff811115620003635762000362620000b0565b5b620003718882890162000201565b9250506080620003848882890162000295565b9150509295509295909350565b600081519050919050565b7f4e487b7100000000000000000000000000000000000000000000000000000000600052602260045260246000fd5b60006002820490506001821680620003e457607f821691505b602082108103620003fa57620003f96200039c565b5b50919050565b60008190508160005260206000209050919050565b60006020601f8301049050919050565b600082821b905092915050565b600060088302620004647fffffffffffffffffffffffffffffffffffffffffffffffffffffffffffffffff8262000425565b62000470868362000425565b95508019841693508086168417925050509392505050565b6000819050919050565b6000620004b3620004ad620004a78462000234565b62000488565b62000234565b9050919050565b6000819050919050565b620004cf8362000492565b620004e7620004de82620004ba565b84845462000432565b825550505050565b600090565b620004fe620004ef565b6200050b818484620004c4565b505050565b5b81811015620005335762000527600082620004f4565b60018101905062000511565b5050565b601f82111562000582576200054c8162000400565b620005578462000415565b8101602085101562000567578190505b6200057f620005768562000415565b83018262000510565b50505b505050565b600082821c905092915050565b6000620005a76000198460080262000587565b1980831691505092915050565b6000620005c2838362000594565b9150826002028217905092915050565b620005dd8262000391565b67ffffffffffffffff811115620005f957620005f8620000d0565b5b620006058254620003cb565b6200061282828562000537565b600060209050601f8311600181146200064a576000841562000635578287015190505b620006418582620005b4565b865550620006b1565b601f1984166200065a8662000400565b60005b8281101562000684578489015182556001820191506020850194506020810190506200065d565b86831015620006a45784890151620006a0601f89168262000594565b8355505b6001600288020188555050505b505050505050565b61060180620006c96000396000f3fe608060405234801561001057600080fd5b50600436106100885760003560e01c8063d21e19931161005b578063d21e199314610117578063e8311f8414610135578063f326971614610153578063f64eeab61461017157610088565b80630ad9d0521461008d5780631e006929146100ab57806360bc9d0a146100db578063c6dad082146100f9575b600080fd5b61009561018f565b6040516100a29190610410565b60405180910390f35b6100c560048036038101906100c0919061046d565b61021d565b6040516100d291906104a9565b60405180910390f35b6100e3610239565b6040516100f091906104df565b60405180910390f35b61010161024c565b60405161010e9190610410565b60405180910390f35b61011f6102da565b60405161012c91906104a9565b60405180910390f35b61013d6102e3565b60405161014a9190610410565b60405180910390f35b61015b610371565b60405161016891906104a9565b60405180910390f35b610179610377565b60405161018691906104a9565b60405180910390f35b6001805461019c90610529565b80601f01602080910402602001604051908101604052809291908181526020018280546101c890610529565b80156102155780601f106101ea57610100808354040283529160200191610215565b820191906000526020600020905b8154815290600101906020018083116101f857829003601f168201915b505050505081565b6000610227610377565b826102329190610589565b9050919050565b600460009054906101000a900460ff1681565b6000805461025990610529565b80601f016020809104026020016040519081016040528092919081815260200182805461028590610529565b80156102d25780601f106102a7576101008083540402835291602001916102d2565b820191906000526020600020905b8154815290600101906020018083116102b557829003601f168201915b505050505081565b600060c8905090565b600380546102f090610529565b80601f016020809104026020016040519081016040528092919081815260200182805461031c90610529565b80156103695780601f1061033e57610100808354040283529160200191610369565b820191906000526020600020905b81548152906001019060200180831161034c57829003601f168201915b505050505081565b60025481565b60006019905090565b600081519050919050565b600082825260208201905092915050565b60005b838110156103ba57808201518184015260208101905061039f565b60008484015250505050565b6000601f19601f8301169050919050565b60006103e282610380565b6103ec818561038b565b93506103fc81856020860161039c565b610405816103c6565b840191505092915050565b6000602082019050818103600083015261042a81846103d7565b905092915050565b600080fd5b6000819050919050565b61044a81610437565b811461045557600080fd5b50565b60008135905061046781610441565b92915050565b60006020828403121561048357610482610432565b5b600061049184828501610458565b91505092915050565b6104a381610437565b82525050565b60006020820190506104be600083018461049a565b92915050565b60008115159050919050565b6104d9816104c4565b82525050565b60006020820190506104f460008301846104d0565b92915050565b7f4e487b7100000000000000000000000000000000000000000000000000000000600052602260045260246000fd5b6000600282049050600182168061054157607f821691505b602082108103610554576105536104fa565b5b50919050565b7f4e487b7100000000000000000000000000000000000000000000000000000000600052601160045260246000fd5b600061059482610437565b915061059f83610437565b92508282026105ad81610437565b915082820484148315176105c4576105c361055a565b5b509291505056fea2646970667358221220d81fb5119e47f6af1381c581666a35d47cdd3cd75ce9197acdf2c63c0ce166c464736f6c63430008120033",
					"opcodes": "PUSH1 0x80 PUSH1 0x40 MSTORE CALLVALUE DUP1 ISZERO PUSH3 0x11 JUMPI PUSH1 0x0 DUP1 REVERT JUMPDEST POP PUSH1 0x40 MLOAD PUSH3 0xCCA CODESIZE SUB DUP1 PUSH3 0xCCA DUP4 CODECOPY DUP2 DUP2 ADD PUSH1 0x40 MSTORE DUP2 ADD SWAP1 PUSH3 0x37 SWAP2 SWAP1 PUSH3 0x2AC JUMP JUMPDEST DUP5 DUP5 DUP5 DUP5 DUP4 PUSH1 0x0 SWAP1 DUP2 PUSH3 0x4C SWAP2 SWAP1 PUSH3 0x5D2 JUMP JUMPDEST POP DUP3 PUSH1 0x1 SWAP1 DUP2 PUSH3 0x5E SWAP2 SWAP1 PUSH3 0x5D2 JUMP JUMPDEST POP DUP2 PUSH1 0x2 DUP2 SWAP1 SSTORE POP DUP1 PUSH1 0x3 SWAP1 DUP2 PUSH3 0x77 SWAP2 SWAP1 PUSH3 0x5D2 JUMP JUMPDEST POP POP POP POP POP DUP1 PUSH1 0x4 PUSH1 0x0 PUSH2 0x100 EXP DUP2 SLOAD DUP2 PUSH1 0xFF MUL NOT AND SWAP1 DUP4 ISZERO ISZERO MUL OR SWAP1 SSTORE POP POP POP POP POP POP PUSH3 0x6B9 JUMP JUMPDEST PUSH1 0x0 PUSH1 0x40 MLOAD SWAP1 POP SWAP1 JUMP JUMPDEST PUSH1 0x0 DUP1 REVERT JUMPDEST PUSH1 0x0 DUP1 REVERT JUMPDEST PUSH1 0x0 DUP1 REVERT JUMPDEST PUSH1 0x0 DUP1 REVERT JUMPDEST PUSH1 0x0 PUSH1 0x1F NOT PUSH1 0x1F DUP4 ADD AND SWAP1 POP SWAP2 SWAP1 POP JUMP JUMPDEST PUSH32 0x4E487B7100000000000000000000000000000000000000000000000000000000 PUSH1 0x0 MSTORE PUSH1 0x41 PUSH1 0x4 MSTORE PUSH1 0x24 PUSH1 0x0 REVERT JUMPDEST PUSH3 0x10A DUP3 PUSH3 0xBF JUMP JUMPDEST DUP2 ADD DUP2 DUP2 LT PUSH8 0xFFFFFFFFFFFFFFFF DUP3 GT OR ISZERO PUSH3 0x12C JUMPI PUSH3 0x12B PUSH3 0xD0 JUMP JUMPDEST JUMPDEST DUP1 PUSH1 0x40 MSTORE POP POP POP JUMP JUMPDEST PUSH1 0x0 PUSH3 0x141 PUSH3 0xA1 JUMP JUMPDEST SWAP1 POP PUSH3 0x14F DUP3 DUP3 PUSH3 0xFF JUMP JUMPDEST SWAP2 SWAP1 POP JUMP JUMPDEST PUSH1 0x0 PUSH8 0xFFFFFFFFFFFFFFFF DUP3 GT ISZERO PUSH3 0x172 JUMPI PUSH3 0x171 PUSH3 0xD0 JUMP JUMPDEST JUMPDEST PUSH3 0x17D DUP3 PUSH3 0xBF JUMP JUMPDEST SWAP1 POP PUSH1 0x20 DUP2 ADD SWAP1 POP SWAP2 SWAP1 POP JUMP JUMPDEST PUSH1 0x0 JUMPDEST DUP4 DUP2 LT ISZERO PUSH3 0x1AA JUMPI DUP1 DUP3 ADD MLOAD DUP2 DUP5 ADD MSTORE PUSH1 0x20 DUP2 ADD SWAP1 POP PUSH3 0x18D JUMP JUMPDEST PUSH1 0x0 DUP5 DUP5 ADD MSTORE POP POP POP POP JUMP JUMPDEST PUSH1 0x0 PUSH3 0x1CD PUSH3 0x1C7 DUP5 PUSH3 0x154 JUMP JUMPDEST PUSH3 0x135 JUMP JUMPDEST SWAP1 POP DUP3 DUP2 MSTORE PUSH1 0x20 DUP2 ADD DUP5 DUP5 DUP5 ADD GT ISZERO PUSH3 0x1EC JUMPI PUSH3 0x1EB PUSH3 0xBA JUMP JUMPDEST JUMPDEST PUSH3 0x1F9 DUP5 DUP3 DUP6 PUSH3 0x18A JUMP JUMPDEST POP SWAP4 SWAP3 POP POP POP JUMP JUMPDEST PUSH1 0x0 DUP3 PUSH1 0x1F DUP4 ADD SLT PUSH3 0x219 JUMPI PUSH3 0x218 PUSH3 0xB5 JUMP JUMPDEST JUMPDEST DUP2 MLOAD PUSH3 0x22B DUP5 DUP3 PUSH1 0x20 DUP7 ADD PUSH3 0x1B6 JUMP JUMPDEST SWAP2 POP POP SWAP3 SWAP2 POP POP JUMP JUMPDEST PUSH1 0x0 DUP2 SWAP1 POP SWAP2 SWAP1 POP JUMP JUMPDEST PUSH3 0x249 DUP2 PUSH3 0x234 JUMP JUMPDEST DUP2 EQ PUSH3 0x255 JUMPI PUSH1 0x0 DUP1 REVERT JUMPDEST POP JUMP JUMPDEST PUSH1 0x0 DUP2 MLOAD SWAP1 POP PUSH3 0x269 DUP2 PUSH3 0x23E JUMP JUMPDEST SWAP3 SWAP2 POP POP JUMP JUMPDEST PUSH1 0x0 DUP2 ISZERO ISZERO SWAP1 POP SWAP2 SWAP1 POP JUMP JUMPDEST PUSH3 0x286 DUP2 PUSH3 0x26F JUMP JUMPDEST DUP2 EQ PUSH3 0x292 JUMPI PUSH1 0x0 DUP1 REVERT JUMPDEST POP JUMP JUMPDEST PUSH1 0x0 DUP2 MLOAD SWAP1 POP PUSH3 0x2A6 DUP2 PUSH3 0x27B JUMP JUMPDEST SWAP3 SWAP2 POP POP JUMP JUMPDEST PUSH1 0x0 DUP1 PUSH1 0x0 DUP1 PUSH1 0x0 PUSH1 0xA0 DUP7 DUP9 SUB SLT ISZERO PUSH3 0x2CB JUMPI PUSH3 0x2CA PUSH3 0xAB JUMP JUMPDEST JUMPDEST PUSH1 0x0 DUP7 ADD MLOAD PUSH8 0xFFFFFFFFFFFFFFFF DUP2 GT ISZERO PUSH3 0x2EC JUMPI PUSH3 0x2EB PUSH3 0xB0 JUMP JUMPDEST JUMPDEST PUSH3 0x2FA DUP9 DUP3 DUP10 ADD PUSH3 0x201 JUMP JUMPDEST SWAP6 POP POP PUSH1 0x20 DUP7 ADD MLOAD PUSH8 0xFFFFFFFFFFFFFFFF DUP2 GT ISZERO PUSH3 0x31E JUMPI PUSH3 0x31D PUSH3 0xB0 JUMP JUMPDEST JUMPDEST PUSH3 0x32C DUP9 DUP3 DUP10 ADD PUSH3 0x201 JUMP JUMPDEST SWAP5 POP POP PUSH1 0x40 PUSH3 0x33F DUP9 DUP3 DUP10 ADD PUSH3 0x258 JUMP JUMPDEST SWAP4 POP POP PUSH1 0x60 DUP7 ADD MLOAD PUSH8 0xFFFFFFFFFFFFFFFF DUP2 GT ISZERO PUSH3 0x363 JUMPI PUSH3 0x362 PUSH3 0xB0 JUMP JUMPDEST JUMPDEST PUSH3 0x371 DUP9 DUP3 DUP10 ADD PUSH3 0x201 JUMP JUMPDEST SWAP3 POP POP PUSH1 0x80 PUSH3 0x384 DUP9 DUP3 DUP10 ADD PUSH3 0x295 JUMP JUMPDEST SWAP2 POP POP SWAP3 SWAP6 POP SWAP3 SWAP6 SWAP1 SWAP4 POP JUMP JUMPDEST PUSH1 0x0 DUP2 MLOAD SWAP1 POP SWAP2 SWAP1 POP JUMP JUMPDEST PUSH32 0x4E487B7100000000000000000000000000000000000000000000000000000000 PUSH1 0x0 MSTORE PUSH1 0x22 PUSH1 0x4 MSTORE PUSH1 0x24 PUSH1 0x0 REVERT JUMPDEST PUSH1 0x0 PUSH1 0x2 DUP3 DIV SWAP1 POP PUSH1 0x1 DUP3 AND DUP1 PUSH3 0x3E4 JUMPI PUSH1 0x7F DUP3 AND SWAP2 POP JUMPDEST PUSH1 0x20 DUP3 LT DUP2 SUB PUSH3 0x3FA JUMPI PUSH3 0x3F9 PUSH3 0x39C JUMP JUMPDEST JUMPDEST POP SWAP2 SWAP1 POP JUMP JUMPDEST PUSH1 0x0 DUP2 SWAP1 POP DUP2 PUSH1 0x0 MSTORE PUSH1 0x20 PUSH1 0x0 KECCAK256 SWAP1 POP SWAP2 SWAP1 POP JUMP JUMPDEST PUSH1 0x0 PUSH1 0x20 PUSH1 0x1F DUP4 ADD DIV SWAP1 POP SWAP2 SWAP1 POP JUMP JUMPDEST PUSH1 0x0 DUP3 DUP3 SHL SWAP1 POP SWAP3 SWAP2 POP POP JUMP JUMPDEST PUSH1 0x0 PUSH1 0x8 DUP4 MUL PUSH3 0x464 PUSH32 0xFFFFFFFFFFFFFFFFFFFFFFFFFFFFFFFFFFFFFFFFFFFFFFFFFFFFFFFFFFFFFFFF DUP3 PUSH3 0x425 JUMP JUMPDEST PUSH3 0x470 DUP7 DUP4 PUSH3 0x425 JUMP JUMPDEST SWAP6 POP DUP1 NOT DUP5 AND SWAP4 POP DUP1 DUP7 AND DUP5 OR SWAP3 POP POP POP SWAP4 SWAP3 POP POP POP JUMP JUMPDEST PUSH1 0x0 DUP2 SWAP1 POP SWAP2 SWAP1 POP JUMP JUMPDEST PUSH1 0x0 PUSH3 0x4B3 PUSH3 0x4AD PUSH3 0x4A7 DUP5 PUSH3 0x234 JUMP JUMPDEST PUSH3 0x488 JUMP JUMPDEST PUSH3 0x234 JUMP JUMPDEST SWAP1 POP SWAP2 SWAP1 POP JUMP JUMPDEST PUSH1 0x0 DUP2 SWAP1 POP SWAP2 SWAP1 POP JUMP JUMPDEST PUSH3 0x4CF DUP4 PUSH3 0x492 JUMP JUMPDEST PUSH3 0x4E7 PUSH3 0x4DE DUP3 PUSH3 0x4BA JUMP JUMPDEST DUP5 DUP5 SLOAD PUSH3 0x432 JUMP JUMPDEST DUP3 SSTORE POP POP POP POP JUMP JUMPDEST PUSH1 0x0 SWAP1 JUMP JUMPDEST PUSH3 0x4FE PUSH3 0x4EF JUMP JUMPDEST PUSH3 0x50B DUP2 DUP5 DUP5 PUSH3 0x4C4 JUMP JUMPDEST POP POP POP JUMP JUMPDEST JUMPDEST DUP2 DUP2 LT ISZERO PUSH3 0x533 JUMPI PUSH3 0x527 PUSH1 0x0 DUP3 PUSH3 0x4F4 JUMP JUMPDEST PUSH1 0x1 DUP2 ADD SWAP1 POP PUSH3 0x511 JUMP JUMPDEST POP POP JUMP JUMPDEST PUSH1 0x1F DUP3 GT ISZERO PUSH3 0x582 JUMPI PUSH3 0x54C DUP2 PUSH3 0x400 JUMP JUMPDEST PUSH3 0x557 DUP5 PUSH3 0x415 JUMP JUMPDEST DUP2 ADD PUSH1 0x20 DUP6 LT ISZERO PUSH3 0x567 JUMPI DUP2 SWAP1 POP JUMPDEST PUSH3 0x57F PUSH3 0x576 DUP6 PUSH3 0x415 JUMP JUMPDEST DUP4 ADD DUP3 PUSH3 0x510 JUMP JUMPDEST POP POP JUMPDEST POP POP POP JUMP JUMPDEST PUSH1 0x0 DUP3 DUP3 SHR SWAP1 POP SWAP3 SWAP2 POP POP JUMP JUMPDEST PUSH1 0x0 PUSH3 0x5A7 PUSH1 0x0 NOT DUP5 PUSH1 0x8 MUL PUSH3 0x587 JUMP JUMPDEST NOT DUP1 DUP4 AND SWAP2 POP POP SWAP3 SWAP2 POP POP JUMP JUMPDEST PUSH1 0x0 PUSH3 0x5C2 DUP4 DUP4 PUSH3 0x594 JUMP JUMPDEST SWAP2 POP DUP3 PUSH1 0x2 MUL DUP3 OR SWAP1 POP SWAP3 SWAP2 POP POP JUMP JUMPDEST PUSH3 0x5DD DUP3 PUSH3 0x391 JUMP JUMPDEST PUSH8 0xFFFFFFFFFFFFFFFF DUP2 GT ISZERO PUSH3 0x5F9 JUMPI PUSH3 0x5F8 PUSH3 0xD0 JUMP JUMPDEST JUMPDEST PUSH3 0x605 DUP3 SLOAD PUSH3 0x3CB JUMP JUMPDEST PUSH3 0x612 DUP3 DUP3 DUP6 PUSH3 0x537 JUMP JUMPDEST PUSH1 0x0 PUSH1 0x20 SWAP1 POP PUSH1 0x1F DUP4 GT PUSH1 0x1 DUP2 EQ PUSH3 0x64A JUMPI PUSH1 0x0 DUP5 ISZERO PUSH3 0x635 JUMPI DUP3 DUP8 ADD MLOAD SWAP1 POP JUMPDEST PUSH3 0x641 DUP6 DUP3 PUSH3 0x5B4 JUMP JUMPDEST DUP7 SSTORE POP PUSH3 0x6B1 JUMP JUMPDEST PUSH1 0x1F NOT DUP5 AND PUSH3 0x65A DUP7 PUSH3 0x400 JUMP JUMPDEST PUSH1 0x0 JUMPDEST DUP3 DUP2 LT ISZERO PUSH3 0x684 JUMPI DUP5 DUP10 ADD MLOAD DUP3 SSTORE PUSH1 0x1 DUP3 ADD SWAP2 POP PUSH1 0x20 DUP6 ADD SWAP5 POP PUSH1 0x20 DUP2 ADD SWAP1 POP PUSH3 0x65D JUMP JUMPDEST DUP7 DUP4 LT ISZERO PUSH3 0x6A4 JUMPI DUP5 DUP10 ADD MLOAD PUSH3 0x6A0 PUSH1 0x1F DUP10 AND DUP3 PUSH3 0x594 JUMP JUMPDEST DUP4 SSTORE POP JUMPDEST PUSH1 0x1 PUSH1 0x2 DUP9 MUL ADD DUP9 SSTORE POP POP POP JUMPDEST POP POP POP POP POP POP JUMP JUMPDEST PUSH2 0x601 DUP1 PUSH3 0x6C9 PUSH1 0x0 CODECOPY PUSH1 0x0 RETURN INVALID PUSH1 0x80 PUSH1 0x40 MSTORE CALLVALUE DUP1 ISZERO PUSH2 0x10 JUMPI PUSH1 0x0 DUP1 REVERT JUMPDEST POP PUSH1 0x4 CALLDATASIZE LT PUSH2 0x88 JUMPI PUSH1 0x0 CALLDATALOAD PUSH1 0xE0 SHR DUP1 PUSH4 0xD21E1993 GT PUSH2 0x5B JUMPI DUP1 PUSH4 0xD21E1993 EQ PUSH2 0x117 JUMPI DUP1 PUSH4 0xE8311F84 EQ PUSH2 0x135 JUMPI DUP1 PUSH4 0xF3269716 EQ PUSH2 0x153 JUMPI DUP1 PUSH4 0xF64EEAB6 EQ PUSH2 0x171 JUMPI PUSH2 0x88 JUMP JUMPDEST DUP1 PUSH4 0xAD9D052 EQ PUSH2 0x8D JUMPI DUP1 PUSH4 0x1E006929 EQ PUSH2 0xAB JUMPI DUP1 PUSH4 0x60BC9D0A EQ PUSH2 0xDB JUMPI DUP1 PUSH4 0xC6DAD082 EQ PUSH2 0xF9 JUMPI JUMPDEST PUSH1 0x0 DUP1 REVERT JUMPDEST PUSH2 0x95 PUSH2 0x18F JUMP JUMPDEST PUSH1 0x40 MLOAD PUSH2 0xA2 SWAP2 SWAP1 PUSH2 0x410 JUMP JUMPDEST PUSH1 0x40 MLOAD DUP1 SWAP2 SUB SWAP1 RETURN JUMPDEST PUSH2 0xC5 PUSH1 0x4 DUP1 CALLDATASIZE SUB DUP2 ADD SWAP1 PUSH2 0xC0 SWAP2 SWAP1 PUSH2 0x46D JUMP JUMPDEST PUSH2 0x21D JUMP JUMPDEST PUSH1 0x40 MLOAD PUSH2 0xD2 SWAP2 SWAP1 PUSH2 0x4A9 JUMP JUMPDEST PUSH1 0x40 MLOAD DUP1 SWAP2 SUB SWAP1 RETURN JUMPDEST PUSH2 0xE3 PUSH2 0x239 JUMP JUMPDEST PUSH1 0x40 MLOAD PUSH2 0xF0 SWAP2 SWAP1 PUSH2 0x4DF JUMP JUMPDEST PUSH1 0x40 MLOAD DUP1 SWAP2 SUB SWAP1 RETURN JUMPDEST PUSH2 0x101 PUSH2 0x24C JUMP JUMPDEST PUSH1 0x40 MLOAD PUSH2 0x10E SWAP2 SWAP1 PUSH2 0x410 JUMP JUMPDEST PUSH1 0x40 MLOAD DUP1 SWAP2 SUB SWAP1 RETURN JUMPDEST PUSH2 0x11F PUSH2 0x2DA JUMP JUMPDEST PUSH1 0x40 MLOAD PUSH2 0x12C SWAP2 SWAP1 PUSH2 0x4A9 JUMP JUMPDEST PUSH1 0x40 MLOAD DUP1 SWAP2 SUB SWAP1 RETURN JUMPDEST PUSH2 0x13D PUSH2 0x2E3 JUMP JUMPDEST PUSH1 0x40 MLOAD PUSH2 0x14A SWAP2 SWAP1 PUSH2 0x410 JUMP JUMPDEST PUSH1 0x40 MLOAD DUP1 SWAP2 SUB SWAP1 RETURN JUMPDEST PUSH2 0x15B PUSH2 0x371 JUMP JUMPDEST PUSH1 0x40 MLOAD PUSH2 0x168 SWAP2 SWAP1 PUSH2 0x4A9 JUMP JUMPDEST PUSH1 0x40 MLOAD DUP1 SWAP2 SUB SWAP1 RETURN JUMPDEST PUSH2 0x179 PUSH2 0x377 JUMP JUMPDEST PUSH1 0x40 MLOAD PUSH2 0x186 SWAP2 SWAP1 PUSH2 0x4A9 JUMP JUMPDEST PUSH1 0x40 MLOAD DUP1 SWAP2 SUB SWAP1 RETURN JUMPDEST PUSH1 0x1 DUP1 SLOAD PUSH2 0x19C SWAP1 PUSH2 0x529 JUMP JUMPDEST DUP1 PUSH1 0x1F ADD PUSH1 0x20 DUP1 SWAP2 DIV MUL PUSH1 0x20 ADD PUSH1 0x40 MLOAD SWAP1 DUP2 ADD PUSH1 0x40 MSTORE DUP1 SWAP3 SWAP2 SWAP1 DUP2 DUP2 MSTORE PUSH1 0x20 ADD DUP3 DUP1 SLOAD PUSH2 0x1C8 SWAP1 PUSH2 0x529 JUMP JUMPDEST DUP1 ISZERO PUSH2 0x215 JUMPI DUP1 PUSH1 0x1F LT PUSH2 0x1EA JUMPI PUSH2 0x100 DUP1 DUP4 SLOAD DIV MUL DUP4 MSTORE SWAP2 PUSH1 0x20 ADD SWAP2 PUSH2 0x215 JUMP JUMPDEST DUP3 ADD SWAP2 SWAP1 PUSH1 0x0 MSTORE PUSH1 0x20 PUSH1 0x0 KECCAK256 SWAP1 JUMPDEST DUP2 SLOAD DUP2 MSTORE SWAP1 PUSH1 0x1 ADD SWAP1 PUSH1 0x20 ADD DUP1 DUP4 GT PUSH2 0x1F8 JUMPI DUP3 SWAP1 SUB PUSH1 0x1F AND DUP3 ADD SWAP2 JUMPDEST POP POP POP POP POP DUP2 JUMP JUMPDEST PUSH1 0x0 PUSH2 0x227 PUSH2 0x377 JUMP JUMPDEST DUP3 PUSH2 0x232 SWAP2 SWAP1 PUSH2 0x589 JUMP JUMPDEST SWAP1 POP SWAP2 SWAP1 POP JUMP JUMPDEST PUSH1 0x4 PUSH1 0x0 SWAP1 SLOAD SWAP1 PUSH2 0x100 EXP SWAP1 DIV PUSH1 0xFF AND DUP2 JUMP JUMPDEST PUSH1 0x0 DUP1 SLOAD PUSH2 0x259 SWAP1 PUSH2 0x529 JUMP JUMPDEST DUP1 PUSH1 0x1F ADD PUSH1 0x20 DUP1 SWAP2 DIV MUL PUSH1 0x20 ADD PUSH1 0x40 MLOAD SWAP1 DUP2 ADD PUSH1 0x40 MSTORE DUP1 SWAP3 SWAP2 SWAP1 DUP2 DUP2 MSTORE PUSH1 0x20 ADD DUP3 DUP1 SLOAD PUSH2 0x285 SWAP1 PUSH2 0x529 JUMP JUMPDEST DUP1 ISZERO PUSH2 0x2D2 JUMPI DUP1 PUSH1 0x1F LT PUSH2 0x2A7 JUMPI PUSH2 0x100 DUP1 DUP4 SLOAD DIV MUL DUP4 MSTORE SWAP2 PUSH1 0x20 ADD SWAP2 PUSH2 0x2D2 JUMP JUMPDEST DUP3 ADD SWAP2 SWAP1 PUSH1 0x0 MSTORE PUSH1 0x20 PUSH1 0x0 KECCAK256 SWAP1 JUMPDEST DUP2 SLOAD DUP2 MSTORE SWAP1 PUSH1 0x1 ADD SWAP1 PUSH1 0x20 ADD DUP1 DUP4 GT PUSH2 0x2B5 JUMPI DUP3 SWAP1 SUB PUSH1 0x1F AND DUP3 ADD SWAP2 JUMPDEST POP POP POP POP POP DUP2 JUMP JUMPDEST PUSH1 0x0 PUSH1 0xC8 SWAP1 POP SWAP1 JUMP JUMPDEST PUSH1 0x3 DUP1 SLOAD PUSH2 0x2F0 SWAP1 PUSH2 0x529 JUMP JUMPDEST DUP1 PUSH1 0x1F ADD PUSH1 0x20 DUP1 SWAP2 DIV MUL PUSH1 0x20 ADD PUSH1 0x40 MLOAD SWAP1 DUP2 ADD PUSH1 0x40 MSTORE DUP1 SWAP3 SWAP2 SWAP1 DUP2 DUP2 MSTORE PUSH1 0x20 ADD DUP3 DUP1 SLOAD PUSH2 0x31C SWAP1 PUSH2 0x529 JUMP JUMPDEST DUP1 ISZERO PUSH2 0x369 JUMPI DUP1 PUSH1 0x1F LT PUSH2 0x33E JUMPI PUSH2 0x100 DUP1 DUP4 SLOAD DIV MUL DUP4 MSTORE SWAP2 PUSH1 0x20 ADD SWAP2 PUSH2 0x369 JUMP JUMPDEST DUP3 ADD SWAP2 SWAP1 PUSH1 0x0 MSTORE PUSH1 0x20 PUSH1 0x0 KECCAK256 SWAP1 JUMPDEST DUP2 SLOAD DUP2 MSTORE SWAP1 PUSH1 0x1 ADD SWAP1 PUSH1 0x20 ADD DUP1 DUP4 GT PUSH2 0x34C JUMPI DUP3 SWAP1 SUB PUSH1 0x1F AND DUP3 ADD SWAP2 JUMPDEST POP POP POP POP POP DUP2 JUMP JUMPDEST PUSH1 0x2 SLOAD DUP2 JUMP JUMPDEST PUSH1 0x0 PUSH1 0x19 SWAP1 POP SWAP1 JUMP JUMPDEST PUSH1 0x0 DUP2 MLOAD SWAP1 POP SWAP2 SWAP1 POP JUMP JUMPDEST PUSH1 0x0 DUP3 DUP3 MSTORE PUSH1 0x20 DUP3 ADD SWAP1 POP SWAP3 SWAP2 POP POP JUMP JUMPDEST PUSH1 0x0 JUMPDEST DUP4 DUP2 LT ISZERO PUSH2 0x3BA JUMPI DUP1 DUP3 ADD MLOAD DUP2 DUP5 ADD MSTORE PUSH1 0x20 DUP2 ADD SWAP1 POP PUSH2 0x39F JUMP JUMPDEST PUSH1 0x0 DUP5 DUP5 ADD MSTORE POP POP POP POP JUMP JUMPDEST PUSH1 0x0 PUSH1 0x1F NOT PUSH1 0x1F DUP4 ADD AND SWAP1 POP SWAP2 SWAP1 POP JUMP JUMPDEST PUSH1 0x0 PUSH2 0x3E2 DUP3 PUSH2 0x380 JUMP JUMPDEST PUSH2 0x3EC DUP2 DUP6 PUSH2 0x38B JUMP JUMPDEST SWAP4 POP PUSH2 0x3FC DUP2 DUP6 PUSH1 0x20 DUP7 ADD PUSH2 0x39C JUMP JUMPDEST PUSH2 0x405 DUP2 PUSH2 0x3C6 JUMP JUMPDEST DUP5 ADD SWAP2 POP POP SWAP3 SWAP2 POP POP JUMP JUMPDEST PUSH1 0x0 PUSH1 0x20 DUP3 ADD SWAP1 POP DUP2 DUP2 SUB PUSH1 0x0 DUP4 ADD MSTORE PUSH2 0x42A DUP2 DUP5 PUSH2 0x3D7 JUMP JUMPDEST SWAP1 POP SWAP3 SWAP2 POP POP JUMP JUMPDEST PUSH1 0x0 DUP1 REVERT JUMPDEST PUSH1 0x0 DUP2 SWAP1 POP SWAP2 SWAP1 POP JUMP JUMPDEST PUSH2 0x44A DUP2 PUSH2 0x437 JUMP JUMPDEST DUP2 EQ PUSH2 0x455 JUMPI PUSH1 0x0 DUP1 REVERT JUMPDEST POP JUMP JUMPDEST PUSH1 0x0 DUP2 CALLDATALOAD SWAP1 POP PUSH2 0x467 DUP2 PUSH2 0x441 JUMP JUMPDEST SWAP3 SWAP2 POP POP JUMP JUMPDEST PUSH1 0x0 PUSH1 0x20 DUP3 DUP5 SUB SLT ISZERO PUSH2 0x483 JUMPI PUSH2 0x482 PUSH2 0x432 JUMP JUMPDEST JUMPDEST PUSH1 0x0 PUSH2 0x491 DUP5 DUP3 DUP6 ADD PUSH2 0x458 JUMP JUMPDEST SWAP2 POP POP SWAP3 SWAP2 POP POP JUMP JUMPDEST PUSH2 0x4A3 DUP2 PUSH2 0x437 JUMP JUMPDEST DUP3 MSTORE POP POP JUMP JUMPDEST PUSH1 0x0 PUSH1 0x20 DUP3 ADD SWAP1 POP PUSH2 0x4BE PUSH1 0x0 DUP4 ADD DUP5 PUSH2 0x49A JUMP JUMPDEST SWAP3 SWAP2 POP POP JUMP JUMPDEST PUSH1 0x0 DUP2 ISZERO ISZERO SWAP1 POP SWAP2 SWAP1 POP JUMP JUMPDEST PUSH2 0x4D9 DUP2 PUSH2 0x4C4 JUMP JUMPDEST DUP3 MSTORE POP POP JUMP JUMPDEST PUSH1 0x0 PUSH1 0x20 DUP3 ADD SWAP1 POP PUSH2 0x4F4 PUSH1 0x0 DUP4 ADD DUP5 PUSH2 0x4D0 JUMP JUMPDEST SWAP3 SWAP2 POP POP JUMP JUMPDEST PUSH32 0x4E487B7100000000000000000000000000000000000000000000000000000000 PUSH1 0x0 MSTORE PUSH1 0x22 PUSH1 0x4 MSTORE PUSH1 0x24 PUSH1 0x0 REVERT JUMPDEST PUSH1 0x0 PUSH1 0x2 DUP3 DIV SWAP1 POP PUSH1 0x1 DUP3 AND DUP1 PUSH2 0x541 JUMPI PUSH1 0x7F DUP3 AND SWAP2 POP JUMPDEST PUSH1 0x20 DUP3 LT DUP2 SUB PUSH2 0x554 JUMPI PUSH2 0x553 PUSH2 0x4FA JUMP JUMPDEST JUMPDEST POP SWAP2 SWAP1 POP JUMP JUMPDEST PUSH32 0x4E487B7100000000000000000000000000000000000000000000000000000000 PUSH1 0x0 MSTORE PUSH1 0x11 PUSH1 0x4 MSTORE PUSH1 0x24 PUSH1 0x0 REVERT JUMPDEST PUSH1 0x0 PUSH2 0x594 DUP3 PUSH2 0x437 JUMP JUMPDEST SWAP2 POP PUSH2 0x59F DUP4 PUSH2 0x437 JUMP JUMPDEST SWAP3 POP DUP3 DUP3 MUL PUSH2 0x5AD DUP2 PUSH2 0x437 JUMP JUMPDEST SWAP2 POP DUP3 DUP3 DIV DUP5 EQ DUP4 ISZERO OR PUSH2 0x5C4 JUMPI PUSH2 0x5C3 PUSH2 0x55A JUMP JUMPDEST JUMPDEST POP SWAP3 SWAP2 POP POP JUMP INVALID LOG2 PUSH5 0x6970667358 0x22 SLT KECCAK256 0xD8 0x1F 0xB5 GT SWAP15 SELFBALANCE 0xF6 0xAF SGT DUP2 0xC5 DUP2 PUSH7 0x6A35D47CDD3CD7 0x5C 0xE9 NOT PUSH27 0xCDF2C63C0CE166C464736F6C634300081200330000000000000000 "
				},
				"gasEstimates": {
					"creation": {
						"codeDepositCost": "307400",
						"executionCost": "infinite",
						"totalCost": "infinite"
					},
					"external": {
						"distanceTraveled(uint256)": "infinite",
						"fuelEfficiency()": "403",
						"fuelType()": "infinite",
						"hasSideCar()": "2516",
						"make()": "infinite",
						"maxSpeed()": "337",
						"model()": "infinite",
						"year()": "2473"
					}
				},
				"methodIdentifiers": {
					"distanceTraveled(uint256)": "1e006929",
					"fuelEfficiency()": "f64eeab6",
					"fuelType()": "e8311f84",
					"hasSideCar()": "60bc9d0a",
					"make()": "c6dad082",
					"maxSpeed()": "d21e1993",
					"model()": "0ad9d052",
					"year()": "f3269716"
				}
			},
			"storageLayout": {
				"storage": [
					{
						"astId": 3,
						"contract": "Day-06/D6P2.sol:Motorcycle",
						"label": "make",
						"offset": 0,
						"slot": "0",
						"type": "t_string_storage"
					},
					{
						"astId": 5,
						"contract": "Day-06/D6P2.sol:Motorcycle",
						"label": "model",
						"offset": 0,
						"slot": "1",
						"type": "t_string_storage"
					},
					{
						"astId": 7,
						"contract": "Day-06/D6P2.sol:Motorcycle",
						"label": "year",
						"offset": 0,
						"slot": "2",
						"type": "t_uint256"
					},
					{
						"astId": 9,
						"contract": "Day-06/D6P2.sol:Motorcycle",
						"label": "fuelType",
						"offset": 0,
						"slot": "3",
						"type": "t_string_storage"
					},
					{
						"astId": 157,
						"contract": "Day-06/D6P2.sol:Motorcycle",
						"label": "hasSideCar",
						"offset": 0,
						"slot": "4",
						"type": "t_bool"
					}
				],
				"types": {
					"t_bool": {
						"encoding": "inplace",
						"label": "bool",
						"numberOfBytes": "1"
					},
					"t_string_storage": {
						"encoding": "bytes",
						"label": "string",
						"numberOfBytes": "32"
					},
					"t_uint256": {
						"encoding": "inplace",
						"label": "uint256",
						"numberOfBytes": "32"
					}
				}
			},
			"userdoc": {
				"kind": "user",
				"methods": {},
				"version": 1
			}
		}
	}
}