{
	"Day-06/D6P2.sol": {
		"Car": {
			"abi": [
				{
					"inputs": [
						{
							"internalType": "string",
							"name": "_make",
							"type": "string"
						},
						{
							"internalType": "string",
							"name": "_model",
							"type": "string"
						},
						{
							"internalType": "uint256",
							"name": "_year",
							"type": "uint256"
						},
						{
							"internalType": "string",
							"name": "_fuelType",
							"type": "string"
						}
					],
					"stateMutability": "nonpayable",
					"type": "constructor"
				},
				{
					"inputs": [
						{
							"internalType": "uint256",
							"name": "fuelAmount",
							"type": "uint256"
						}
					],
					"name": "distanceTraveled",
					"outputs": [
						{
							"internalType": "uint256",
							"name": "",
							"type": "uint256"
						}
					],
					"stateMutability": "pure",
					"type": "function"
				},
				{
					"inputs": [],
					"name": "fuelEfficiency",
					"outputs": [
						{
							"internalType": "uint256",
							"name": "",
							"type": "uint256"
						}
					],
					"stateMutability": "pure",
					"type": "function"
				},
				{
					"inputs": [],
					"name": "fuelType",
					"outputs": [
						{
							"internalType": "string",
							"name": "",
							"type": "string"
						}
					],
					"stateMutability": "view",
					"type": "function"
				},
				{
					"inputs": [],
					"name": "make",
					"outputs": [
						{
							"internalType": "string",
							"name": "",
							"type": "string"
						}
					],
					"stateMutability": "view",
					"type": "function"
				},
				{
					"inputs": [],
					"name": "maxSpeed",
					"outputs": [
						{
							"internalType": "uint256",
							"name": "",
							"type": "uint256"
						}
					],
					"stateMutability": "pure",
					"type": "function"
				},
				{
					"inputs": [],
					"name": "model",
					"outputs": [
						{
							"internalType": "string",
							"name": "",
							"type": "string"
						}
					],
					"stateMutability": "view",
					"type": "function"
				},
				{
					"inputs": [],
					"name": "year",
					"outputs": [
						{
							"internalType": "uint256",
							"name": "",
							"type": "uint256"
						}
					],
					"stateMutability": "view",
					"type": "function"
				}
			],
			"devdoc": {
				"kind": "dev",
				"methods": {},
				"version": 1
			},
			"evm": {
				"assembly": "    /* \"Day-06/D6P2.sol\":2173:2795  contract Car is Vehicle {... */\n  mstore(0x40, 0x80)\n    /* \"Day-06/D6P2.sol\":2262:2412  constructor(string memory _make, string memory _model, uint _year, string memory _fuelType)... */\n  callvalue\n  dup1\n  iszero\n  tag_1\n  jumpi\n  0x00\n  dup1\n  revert\ntag_1:\n  pop\n  mload(0x40)\n  sub(codesize, bytecodeSize)\n  dup1\n  bytecodeSize\n  dup4\n  codecopy\n  dup2\n  dup2\n  add\n  0x40\n  mstore\n  dup2\n  add\n  swap1\n  tag_2\n  swap2\n  swap1\n  tag_3\n  jump\t// in\ntag_2:\n    /* \"Day-06/D6P2.sol\":2371:2376  _make */\n  dup4\n    /* \"Day-06/D6P2.sol\":2378:2384  _model */\n  dup4\n    /* \"Day-06/D6P2.sol\":2386:2391  _year */\n  dup4\n    /* \"Day-06/D6P2.sol\":2393:2402  _fuelType */\n  dup4\n    /* \"Day-06/D6P2.sol\":391:396  _make */\n  dup4\n    /* \"Day-06/D6P2.sol\":384:388  make */\n  0x00\n    /* \"Day-06/D6P2.sol\":384:396  make = _make */\n  swap1\n  dup2\n  tag_7\n  swap2\n  swap1\n  tag_8\n  jump\t// in\ntag_7:\n  pop\n    /* \"Day-06/D6P2.sol\":415:421  _model */\n  dup3\n    /* \"Day-06/D6P2.sol\":407:412  model */\n  0x01\n    /* \"Day-06/D6P2.sol\":407:421  model = _model */\n  swap1\n  dup2\n  tag_9\n  swap2\n  swap1\n  tag_8\n  jump\t// in\ntag_9:\n  pop\n    /* \"Day-06/D6P2.sol\":439:444  _year */\n  dup2\n    /* \"Day-06/D6P2.sol\":432:436  year */\n  0x02\n    /* \"Day-06/D6P2.sol\":432:444  year = _year */\n  dup2\n  swap1\n  sstore\n  pop\n    /* \"Day-06/D6P2.sol\":466:475  _fuelType */\n  dup1\n    /* \"Day-06/D6P2.sol\":455:463  fuelType */\n  0x03\n    /* \"Day-06/D6P2.sol\":455:475  fuelType = _fuelType */\n  swap1\n  dup2\n  tag_10\n  swap2\n  swap1\n  tag_8\n  jump\t// in\ntag_10:\n  pop\n    /* \"Day-06/D6P2.sol\":281:483  constructor(string memory _make, string memory _model, uint _year, string memory _fuelType) {... */\n  pop\n  pop\n  pop\n  pop\n    /* \"Day-06/D6P2.sol\":2262:2412  constructor(string memory _make, string memory _model, uint _year, string memory _fuelType)... */\n  pop\n  pop\n  pop\n  pop\n    /* \"Day-06/D6P2.sol\":2173:2795  contract Car is Vehicle {... */\n  jump(tag_12)\n    /* \"#utility.yul\":7:82   */\ntag_13:\n    /* \"#utility.yul\":40:46   */\n  0x00\n    /* \"#utility.yul\":73:75   */\n  0x40\n    /* \"#utility.yul\":67:76   */\n  mload\n    /* \"#utility.yul\":57:76   */\n  swap1\n  pop\n    /* \"#utility.yul\":7:82   */\n  swap1\n  jump\t// out\n    /* \"#utility.yul\":88:205   */\ntag_14:\n    /* \"#utility.yul\":197:198   */\n  0x00\n    /* \"#utility.yul\":194:195   */\n  dup1\n    /* \"#utility.yul\":187:199   */\n  revert\n    /* \"#utility.yul\":211:328   */\ntag_15:\n    /* \"#utility.yul\":320:321   */\n  0x00\n    /* \"#utility.yul\":317:318   */\n  dup1\n    /* \"#utility.yul\":310:322   */\n  revert\n    /* \"#utility.yul\":334:451   */\ntag_16:\n    /* \"#utility.yul\":443:444   */\n  0x00\n    /* \"#utility.yul\":440:441   */\n  dup1\n    /* \"#utility.yul\":433:445   */\n  revert\n    /* \"#utility.yul\":457:574   */\ntag_17:\n    /* \"#utility.yul\":566:567   */\n  0x00\n    /* \"#utility.yul\":563:564   */\n  dup1\n    /* \"#utility.yul\":556:568   */\n  revert\n    /* \"#utility.yul\":580:682   */\ntag_18:\n    /* \"#utility.yul\":621:627   */\n  0x00\n    /* \"#utility.yul\":672:674   */\n  0x1f\n    /* \"#utility.yul\":668:675   */\n  not\n    /* \"#utility.yul\":663:665   */\n  0x1f\n    /* \"#utility.yul\":656:661   */\n  dup4\n    /* \"#utility.yul\":652:666   */\n  add\n    /* \"#utility.yul\":648:676   */\n  and\n    /* \"#utility.yul\":638:676   */\n  swap1\n  pop\n    /* \"#utility.yul\":580:682   */\n  swap2\n  swap1\n  pop\n  jump\t// out\n    /* \"#utility.yul\":688:868   */\ntag_19:\n    /* \"#utility.yul\":736:813   */\n  0x4e487b7100000000000000000000000000000000000000000000000000000000\n    /* \"#utility.yul\":733:734   */\n  0x00\n    /* \"#utility.yul\":726:814   */\n  mstore\n    /* \"#utility.yul\":833:837   */\n  0x41\n    /* \"#utility.yul\":830:831   */\n  0x04\n    /* \"#utility.yul\":823:838   */\n  mstore\n    /* \"#utility.yul\":857:861   */\n  0x24\n    /* \"#utility.yul\":854:855   */\n  0x00\n    /* \"#utility.yul\":847:862   */\n  revert\n    /* \"#utility.yul\":874:1155   */\ntag_20:\n    /* \"#utility.yul\":957:984   */\n  tag_56\n    /* \"#utility.yul\":979:983   */\n  dup3\n    /* \"#utility.yul\":957:984   */\n  tag_18\n  jump\t// in\ntag_56:\n    /* \"#utility.yul\":949:955   */\n  dup2\n    /* \"#utility.yul\":945:985   */\n  add\n    /* \"#utility.yul\":1087:1093   */\n  dup2\n    /* \"#utility.yul\":1075:1085   */\n  dup2\n    /* \"#utility.yul\":1072:1094   */\n  lt\n    /* \"#utility.yul\":1051:1069   */\n  0xffffffffffffffff\n    /* \"#utility.yul\":1039:1049   */\n  dup3\n    /* \"#utility.yul\":1036:1070   */\n  gt\n    /* \"#utility.yul\":1033:1095   */\n  or\n    /* \"#utility.yul\":1030:1118   */\n  iszero\n  tag_57\n  jumpi\n    /* \"#utility.yul\":1098:1116   */\n  tag_58\n  tag_19\n  jump\t// in\ntag_58:\n    /* \"#utility.yul\":1030:1118   */\ntag_57:\n    /* \"#utility.yul\":1138:1148   */\n  dup1\n    /* \"#utility.yul\":1134:1136   */\n  0x40\n    /* \"#utility.yul\":1127:1149   */\n  mstore\n    /* \"#utility.yul\":917:1155   */\n  pop\n    /* \"#utility.yul\":874:1155   */\n  pop\n  pop\n  jump\t// out\n    /* \"#utility.yul\":1161:1290   */\ntag_21:\n    /* \"#utility.yul\":1195:1201   */\n  0x00\n    /* \"#utility.yul\":1222:1242   */\n  tag_60\n  tag_13\n  jump\t// in\ntag_60:\n    /* \"#utility.yul\":1212:1242   */\n  swap1\n  pop\n    /* \"#utility.yul\":1251:1284   */\n  tag_61\n    /* \"#utility.yul\":1279:1283   */\n  dup3\n    /* \"#utility.yul\":1271:1277   */\n  dup3\n    /* \"#utility.yul\":1251:1284   */\n  tag_20\n  jump\t// in\ntag_61:\n    /* \"#utility.yul\":1161:1290   */\n  swap2\n  swap1\n  pop\n  jump\t// out\n    /* \"#utility.yul\":1296:1604   */\ntag_22:\n    /* \"#utility.yul\":1358:1362   */\n  0x00\n    /* \"#utility.yul\":1448:1466   */\n  0xffffffffffffffff\n    /* \"#utility.yul\":1440:1446   */\n  dup3\n    /* \"#utility.yul\":1437:1467   */\n  gt\n    /* \"#utility.yul\":1434:1490   */\n  iszero\n  tag_63\n  jumpi\n    /* \"#utility.yul\":1470:1488   */\n  tag_64\n  tag_19\n  jump\t// in\ntag_64:\n    /* \"#utility.yul\":1434:1490   */\ntag_63:\n    /* \"#utility.yul\":1508:1537   */\n  tag_65\n    /* \"#utility.yul\":1530:1536   */\n  dup3\n    /* \"#utility.yul\":1508:1537   */\n  tag_18\n  jump\t// in\ntag_65:\n    /* \"#utility.yul\":1500:1537   */\n  swap1\n  pop\n    /* \"#utility.yul\":1592:1596   */\n  0x20\n    /* \"#utility.yul\":1586:1590   */\n  dup2\n    /* \"#utility.yul\":1582:1597   */\n  add\n    /* \"#utility.yul\":1574:1597   */\n  swap1\n  pop\n    /* \"#utility.yul\":1296:1604   */\n  swap2\n  swap1\n  pop\n  jump\t// out\n    /* \"#utility.yul\":1610:1856   */\ntag_23:\n    /* \"#utility.yul\":1691:1692   */\n  0x00\n    /* \"#utility.yul\":1701:1814   */\ntag_67:\n    /* \"#utility.yul\":1715:1721   */\n  dup4\n    /* \"#utility.yul\":1712:1713   */\n  dup2\n    /* \"#utility.yul\":1709:1722   */\n  lt\n    /* \"#utility.yul\":1701:1814   */\n  iszero\n  tag_69\n  jumpi\n    /* \"#utility.yul\":1800:1801   */\n  dup1\n    /* \"#utility.yul\":1795:1798   */\n  dup3\n    /* \"#utility.yul\":1791:1802   */\n  add\n    /* \"#utility.yul\":1785:1803   */\n  mload\n    /* \"#utility.yul\":1781:1782   */\n  dup2\n    /* \"#utility.yul\":1776:1779   */\n  dup5\n    /* \"#utility.yul\":1772:1783   */\n  add\n    /* \"#utility.yul\":1765:1804   */\n  mstore\n    /* \"#utility.yul\":1737:1739   */\n  0x20\n    /* \"#utility.yul\":1734:1735   */\n  dup2\n    /* \"#utility.yul\":1730:1740   */\n  add\n    /* \"#utility.yul\":1725:1740   */\n  swap1\n  pop\n    /* \"#utility.yul\":1701:1814   */\n  jump(tag_67)\ntag_69:\n    /* \"#utility.yul\":1848:1849   */\n  0x00\n    /* \"#utility.yul\":1839:1845   */\n  dup5\n    /* \"#utility.yul\":1834:1837   */\n  dup5\n    /* \"#utility.yul\":1830:1846   */\n  add\n    /* \"#utility.yul\":1823:1850   */\n  mstore\n    /* \"#utility.yul\":1672:1856   */\n  pop\n    /* \"#utility.yul\":1610:1856   */\n  pop\n  pop\n  pop\n  jump\t// out\n    /* \"#utility.yul\":1862:2296   */\ntag_24:\n    /* \"#utility.yul\":1951:1956   */\n  0x00\n    /* \"#utility.yul\":1976:2042   */\n  tag_71\n    /* \"#utility.yul\":1992:2041   */\n  tag_72\n    /* \"#utility.yul\":2034:2040   */\n  dup5\n    /* \"#utility.yul\":1992:2041   */\n  tag_22\n  jump\t// in\ntag_72:\n    /* \"#utility.yul\":1976:2042   */\n  tag_21\n  jump\t// in\ntag_71:\n    /* \"#utility.yul\":1967:2042   */\n  swap1\n  pop\n    /* \"#utility.yul\":2065:2071   */\n  dup3\n    /* \"#utility.yul\":2058:2063   */\n  dup2\n    /* \"#utility.yul\":2051:2072   */\n  mstore\n    /* \"#utility.yul\":2103:2107   */\n  0x20\n    /* \"#utility.yul\":2096:2101   */\n  dup2\n    /* \"#utility.yul\":2092:2108   */\n  add\n    /* \"#utility.yul\":2141:2144   */\n  dup5\n    /* \"#utility.yul\":2132:2138   */\n  dup5\n    /* \"#utility.yul\":2127:2130   */\n  dup5\n    /* \"#utility.yul\":2123:2139   */\n  add\n    /* \"#utility.yul\":2120:2145   */\n  gt\n    /* \"#utility.yul\":2117:2229   */\n  iszero\n  tag_73\n  jumpi\n    /* \"#utility.yul\":2148:2227   */\n  tag_74\n  tag_17\n  jump\t// in\ntag_74:\n    /* \"#utility.yul\":2117:2229   */\ntag_73:\n    /* \"#utility.yul\":2238:2290   */\n  tag_75\n    /* \"#utility.yul\":2283:2289   */\n  dup5\n    /* \"#utility.yul\":2278:2281   */\n  dup3\n    /* \"#utility.yul\":2273:2276   */\n  dup6\n    /* \"#utility.yul\":2238:2290   */\n  tag_23\n  jump\t// in\ntag_75:\n    /* \"#utility.yul\":1957:2296   */\n  pop\n    /* \"#utility.yul\":1862:2296   */\n  swap4\n  swap3\n  pop\n  pop\n  pop\n  jump\t// out\n    /* \"#utility.yul\":2316:2671   */\ntag_25:\n    /* \"#utility.yul\":2383:2388   */\n  0x00\n    /* \"#utility.yul\":2432:2435   */\n  dup3\n    /* \"#utility.yul\":2425:2429   */\n  0x1f\n    /* \"#utility.yul\":2417:2423   */\n  dup4\n    /* \"#utility.yul\":2413:2430   */\n  add\n    /* \"#utility.yul\":2409:2436   */\n  slt\n    /* \"#utility.yul\":2399:2521   */\n  tag_77\n  jumpi\n    /* \"#utility.yul\":2440:2519   */\n  tag_78\n  tag_16\n  jump\t// in\ntag_78:\n    /* \"#utility.yul\":2399:2521   */\ntag_77:\n    /* \"#utility.yul\":2550:2556   */\n  dup2\n    /* \"#utility.yul\":2544:2557   */\n  mload\n    /* \"#utility.yul\":2575:2665   */\n  tag_79\n    /* \"#utility.yul\":2661:2664   */\n  dup5\n    /* \"#utility.yul\":2653:2659   */\n  dup3\n    /* \"#utility.yul\":2646:2650   */\n  0x20\n    /* \"#utility.yul\":2638:2644   */\n  dup7\n    /* \"#utility.yul\":2634:2651   */\n  add\n    /* \"#utility.yul\":2575:2665   */\n  tag_24\n  jump\t// in\ntag_79:\n    /* \"#utility.yul\":2566:2665   */\n  swap2\n  pop\n    /* \"#utility.yul\":2389:2671   */\n  pop\n    /* \"#utility.yul\":2316:2671   */\n  swap3\n  swap2\n  pop\n  pop\n  jump\t// out\n    /* \"#utility.yul\":2677:2754   */\ntag_26:\n    /* \"#utility.yul\":2714:2721   */\n  0x00\n    /* \"#utility.yul\":2743:2748   */\n  dup2\n    /* \"#utility.yul\":2732:2748   */\n  swap1\n  pop\n    /* \"#utility.yul\":2677:2754   */\n  swap2\n  swap1\n  pop\n  jump\t// out\n    /* \"#utility.yul\":2760:2882   */\ntag_27:\n    /* \"#utility.yul\":2833:2857   */\n  tag_82\n    /* \"#utility.yul\":2851:2856   */\n  dup2\n    /* \"#utility.yul\":2833:2857   */\n  tag_26\n  jump\t// in\ntag_82:\n    /* \"#utility.yul\":2826:2831   */\n  dup2\n    /* \"#utility.yul\":2823:2858   */\n  eq\n    /* \"#utility.yul\":2813:2876   */\n  tag_83\n  jumpi\n    /* \"#utility.yul\":2872:2873   */\n  0x00\n    /* \"#utility.yul\":2869:2870   */\n  dup1\n    /* \"#utility.yul\":2862:2874   */\n  revert\n    /* \"#utility.yul\":2813:2876   */\ntag_83:\n    /* \"#utility.yul\":2760:2882   */\n  pop\n  jump\t// out\n    /* \"#utility.yul\":2888:3031   */\ntag_28:\n    /* \"#utility.yul\":2945:2950   */\n  0x00\n    /* \"#utility.yul\":2976:2982   */\n  dup2\n    /* \"#utility.yul\":2970:2983   */\n  mload\n    /* \"#utility.yul\":2961:2983   */\n  swap1\n  pop\n    /* \"#utility.yul\":2992:3025   */\n  tag_85\n    /* \"#utility.yul\":3019:3024   */\n  dup2\n    /* \"#utility.yul\":2992:3025   */\n  tag_27\n  jump\t// in\ntag_85:\n    /* \"#utility.yul\":2888:3031   */\n  swap3\n  swap2\n  pop\n  pop\n  jump\t// out\n    /* \"#utility.yul\":3037:4376   */\ntag_3:\n    /* \"#utility.yul\":3164:3170   */\n  0x00\n    /* \"#utility.yul\":3172:3178   */\n  dup1\n    /* \"#utility.yul\":3180:3186   */\n  0x00\n    /* \"#utility.yul\":3188:3194   */\n  dup1\n    /* \"#utility.yul\":3237:3240   */\n  0x80\n    /* \"#utility.yul\":3225:3234   */\n  dup6\n    /* \"#utility.yul\":3216:3223   */\n  dup8\n    /* \"#utility.yul\":3212:3235   */\n  sub\n    /* \"#utility.yul\":3208:3241   */\n  slt\n    /* \"#utility.yul\":3205:3325   */\n  iszero\n  tag_87\n  jumpi\n    /* \"#utility.yul\":3244:3323   */\n  tag_88\n  tag_14\n  jump\t// in\ntag_88:\n    /* \"#utility.yul\":3205:3325   */\ntag_87:\n    /* \"#utility.yul\":3385:3386   */\n  0x00\n    /* \"#utility.yul\":3374:3383   */\n  dup6\n    /* \"#utility.yul\":3370:3387   */\n  add\n    /* \"#utility.yul\":3364:3388   */\n  mload\n    /* \"#utility.yul\":3415:3433   */\n  0xffffffffffffffff\n    /* \"#utility.yul\":3407:3413   */\n  dup2\n    /* \"#utility.yul\":3404:3434   */\n  gt\n    /* \"#utility.yul\":3401:3518   */\n  iszero\n  tag_89\n  jumpi\n    /* \"#utility.yul\":3437:3516   */\n  tag_90\n  tag_15\n  jump\t// in\ntag_90:\n    /* \"#utility.yul\":3401:3518   */\ntag_89:\n    /* \"#utility.yul\":3542:3616   */\n  tag_91\n    /* \"#utility.yul\":3608:3615   */\n  dup8\n    /* \"#utility.yul\":3599:3605   */\n  dup3\n    /* \"#utility.yul\":3588:3597   */\n  dup9\n    /* \"#utility.yul\":3584:3606   */\n  add\n    /* \"#utility.yul\":3542:3616   */\n  tag_25\n  jump\t// in\ntag_91:\n    /* \"#utility.yul\":3532:3616   */\n  swap5\n  pop\n    /* \"#utility.yul\":3335:3626   */\n  pop\n    /* \"#utility.yul\":3686:3688   */\n  0x20\n    /* \"#utility.yul\":3675:3684   */\n  dup6\n    /* \"#utility.yul\":3671:3689   */\n  add\n    /* \"#utility.yul\":3665:3690   */\n  mload\n    /* \"#utility.yul\":3717:3735   */\n  0xffffffffffffffff\n    /* \"#utility.yul\":3709:3715   */\n  dup2\n    /* \"#utility.yul\":3706:3736   */\n  gt\n    /* \"#utility.yul\":3703:3820   */\n  iszero\n  tag_92\n  jumpi\n    /* \"#utility.yul\":3739:3818   */\n  tag_93\n  tag_15\n  jump\t// in\ntag_93:\n    /* \"#utility.yul\":3703:3820   */\ntag_92:\n    /* \"#utility.yul\":3844:3918   */\n  tag_94\n    /* \"#utility.yul\":3910:3917   */\n  dup8\n    /* \"#utility.yul\":3901:3907   */\n  dup3\n    /* \"#utility.yul\":3890:3899   */\n  dup9\n    /* \"#utility.yul\":3886:3908   */\n  add\n    /* \"#utility.yul\":3844:3918   */\n  tag_25\n  jump\t// in\ntag_94:\n    /* \"#utility.yul\":3834:3918   */\n  swap4\n  pop\n    /* \"#utility.yul\":3636:3928   */\n  pop\n    /* \"#utility.yul\":3967:3969   */\n  0x40\n    /* \"#utility.yul\":3993:4057   */\n  tag_95\n    /* \"#utility.yul\":4049:4056   */\n  dup8\n    /* \"#utility.yul\":4040:4046   */\n  dup3\n    /* \"#utility.yul\":4029:4038   */\n  dup9\n    /* \"#utility.yul\":4025:4047   */\n  add\n    /* \"#utility.yul\":3993:4057   */\n  tag_28\n  jump\t// in\ntag_95:\n    /* \"#utility.yul\":3983:4057   */\n  swap3\n  pop\n    /* \"#utility.yul\":3938:4067   */\n  pop\n    /* \"#utility.yul\":4127:4129   */\n  0x60\n    /* \"#utility.yul\":4116:4125   */\n  dup6\n    /* \"#utility.yul\":4112:4130   */\n  add\n    /* \"#utility.yul\":4106:4131   */\n  mload\n    /* \"#utility.yul\":4158:4176   */\n  0xffffffffffffffff\n    /* \"#utility.yul\":4150:4156   */\n  dup2\n    /* \"#utility.yul\":4147:4177   */\n  gt\n    /* \"#utility.yul\":4144:4261   */\n  iszero\n  tag_96\n  jumpi\n    /* \"#utility.yul\":4180:4259   */\n  tag_97\n  tag_15\n  jump\t// in\ntag_97:\n    /* \"#utility.yul\":4144:4261   */\ntag_96:\n    /* \"#utility.yul\":4285:4359   */\n  tag_98\n    /* \"#utility.yul\":4351:4358   */\n  dup8\n    /* \"#utility.yul\":4342:4348   */\n  dup3\n    /* \"#utility.yul\":4331:4340   */\n  dup9\n    /* \"#utility.yul\":4327:4349   */\n  add\n    /* \"#utility.yul\":4285:4359   */\n  tag_25\n  jump\t// in\ntag_98:\n    /* \"#utility.yul\":4275:4359   */\n  swap2\n  pop\n    /* \"#utility.yul\":4077:4369   */\n  pop\n    /* \"#utility.yul\":3037:4376   */\n  swap3\n  swap6\n  swap2\n  swap5\n  pop\n  swap3\n  pop\n  jump\t// out\n    /* \"#utility.yul\":4382:4481   */\ntag_29:\n    /* \"#utility.yul\":4434:4440   */\n  0x00\n    /* \"#utility.yul\":4468:4473   */\n  dup2\n    /* \"#utility.yul\":4462:4474   */\n  mload\n    /* \"#utility.yul\":4452:4474   */\n  swap1\n  pop\n    /* \"#utility.yul\":4382:4481   */\n  swap2\n  swap1\n  pop\n  jump\t// out\n    /* \"#utility.yul\":4487:4667   */\ntag_30:\n    /* \"#utility.yul\":4535:4612   */\n  0x4e487b7100000000000000000000000000000000000000000000000000000000\n    /* \"#utility.yul\":4532:4533   */\n  0x00\n    /* \"#utility.yul\":4525:4613   */\n  mstore\n    /* \"#utility.yul\":4632:4636   */\n  0x22\n    /* \"#utility.yul\":4629:4630   */\n  0x04\n    /* \"#utility.yul\":4622:4637   */\n  mstore\n    /* \"#utility.yul\":4656:4660   */\n  0x24\n    /* \"#utility.yul\":4653:4654   */\n  0x00\n    /* \"#utility.yul\":4646:4661   */\n  revert\n    /* \"#utility.yul\":4673:4993   */\ntag_31:\n    /* \"#utility.yul\":4717:4723   */\n  0x00\n    /* \"#utility.yul\":4754:4755   */\n  0x02\n    /* \"#utility.yul\":4748:4752   */\n  dup3\n    /* \"#utility.yul\":4744:4756   */\n  div\n    /* \"#utility.yul\":4734:4756   */\n  swap1\n  pop\n    /* \"#utility.yul\":4801:4802   */\n  0x01\n    /* \"#utility.yul\":4795:4799   */\n  dup3\n    /* \"#utility.yul\":4791:4803   */\n  and\n    /* \"#utility.yul\":4822:4840   */\n  dup1\n    /* \"#utility.yul\":4812:4893   */\n  tag_102\n  jumpi\n    /* \"#utility.yul\":4878:4882   */\n  0x7f\n    /* \"#utility.yul\":4870:4876   */\n  dup3\n    /* \"#utility.yul\":4866:4883   */\n  and\n    /* \"#utility.yul\":4856:4883   */\n  swap2\n  pop\n    /* \"#utility.yul\":4812:4893   */\ntag_102:\n    /* \"#utility.yul\":4940:4942   */\n  0x20\n    /* \"#utility.yul\":4932:4938   */\n  dup3\n    /* \"#utility.yul\":4929:4943   */\n  lt\n    /* \"#utility.yul\":4909:4927   */\n  dup2\n    /* \"#utility.yul\":4906:4944   */\n  sub\n    /* \"#utility.yul\":4903:4987   */\n  tag_103\n  jumpi\n    /* \"#utility.yul\":4959:4977   */\n  tag_104\n  tag_30\n  jump\t// in\ntag_104:\n    /* \"#utility.yul\":4903:4987   */\ntag_103:\n    /* \"#utility.yul\":4724:4993   */\n  pop\n    /* \"#utility.yul\":4673:4993   */\n  swap2\n  swap1\n  pop\n  jump\t// out\n    /* \"#utility.yul\":4999:5140   */\ntag_32:\n    /* \"#utility.yul\":5048:5052   */\n  0x00\n    /* \"#utility.yul\":5071:5074   */\n  dup2\n    /* \"#utility.yul\":5063:5074   */\n  swap1\n  pop\n    /* \"#utility.yul\":5094:5097   */\n  dup2\n    /* \"#utility.yul\":5091:5092   */\n  0x00\n    /* \"#utility.yul\":5084:5098   */\n  mstore\n    /* \"#utility.yul\":5128:5132   */\n  0x20\n    /* \"#utility.yul\":5125:5126   */\n  0x00\n    /* \"#utility.yul\":5115:5133   */\n  keccak256\n    /* \"#utility.yul\":5107:5133   */\n  swap1\n  pop\n    /* \"#utility.yul\":4999:5140   */\n  swap2\n  swap1\n  pop\n  jump\t// out\n    /* \"#utility.yul\":5146:5239   */\ntag_33:\n    /* \"#utility.yul\":5183:5189   */\n  0x00\n    /* \"#utility.yul\":5230:5232   */\n  0x20\n    /* \"#utility.yul\":5225:5227   */\n  0x1f\n    /* \"#utility.yul\":5218:5223   */\n  dup4\n    /* \"#utility.yul\":5214:5228   */\n  add\n    /* \"#utility.yul\":5210:5233   */\n  div\n    /* \"#utility.yul\":5200:5233   */\n  swap1\n  pop\n    /* \"#utility.yul\":5146:5239   */\n  swap2\n  swap1\n  pop\n  jump\t// out\n    /* \"#utility.yul\":5245:5352   */\ntag_34:\n    /* \"#utility.yul\":5289:5297   */\n  0x00\n    /* \"#utility.yul\":5339:5344   */\n  dup3\n    /* \"#utility.yul\":5333:5337   */\n  dup3\n    /* \"#utility.yul\":5329:5345   */\n  shl\n    /* \"#utility.yul\":5308:5345   */\n  swap1\n  pop\n    /* \"#utility.yul\":5245:5352   */\n  swap3\n  swap2\n  pop\n  pop\n  jump\t// out\n    /* \"#utility.yul\":5358:5751   */\ntag_35:\n    /* \"#utility.yul\":5427:5433   */\n  0x00\n    /* \"#utility.yul\":5477:5478   */\n  0x08\n    /* \"#utility.yul\":5465:5475   */\n  dup4\n    /* \"#utility.yul\":5461:5479   */\n  mul\n    /* \"#utility.yul\":5500:5597   */\n  tag_109\n    /* \"#utility.yul\":5530:5596   */\n  0xffffffffffffffffffffffffffffffffffffffffffffffffffffffffffffffff\n    /* \"#utility.yul\":5519:5528   */\n  dup3\n    /* \"#utility.yul\":5500:5597   */\n  tag_34\n  jump\t// in\ntag_109:\n    /* \"#utility.yul\":5618:5657   */\n  tag_110\n    /* \"#utility.yul\":5648:5656   */\n  dup7\n    /* \"#utility.yul\":5637:5646   */\n  dup4\n    /* \"#utility.yul\":5618:5657   */\n  tag_34\n  jump\t// in\ntag_110:\n    /* \"#utility.yul\":5606:5657   */\n  swap6\n  pop\n    /* \"#utility.yul\":5690:5694   */\n  dup1\n    /* \"#utility.yul\":5686:5695   */\n  not\n    /* \"#utility.yul\":5679:5684   */\n  dup5\n    /* \"#utility.yul\":5675:5696   */\n  and\n    /* \"#utility.yul\":5666:5696   */\n  swap4\n  pop\n    /* \"#utility.yul\":5739:5743   */\n  dup1\n    /* \"#utility.yul\":5729:5737   */\n  dup7\n    /* \"#utility.yul\":5725:5744   */\n  and\n    /* \"#utility.yul\":5718:5723   */\n  dup5\n    /* \"#utility.yul\":5715:5745   */\n  or\n    /* \"#utility.yul\":5705:5745   */\n  swap3\n  pop\n    /* \"#utility.yul\":5434:5751   */\n  pop\n  pop\n    /* \"#utility.yul\":5358:5751   */\n  swap4\n  swap3\n  pop\n  pop\n  pop\n  jump\t// out\n    /* \"#utility.yul\":5757:5817   */\ntag_36:\n    /* \"#utility.yul\":5785:5788   */\n  0x00\n    /* \"#utility.yul\":5806:5811   */\n  dup2\n    /* \"#utility.yul\":5799:5811   */\n  swap1\n  pop\n    /* \"#utility.yul\":5757:5817   */\n  swap2\n  swap1\n  pop\n  jump\t// out\n    /* \"#utility.yul\":5823:5965   */\ntag_37:\n    /* \"#utility.yul\":5873:5882   */\n  0x00\n    /* \"#utility.yul\":5906:5959   */\n  tag_113\n    /* \"#utility.yul\":5924:5958   */\n  tag_114\n    /* \"#utility.yul\":5933:5957   */\n  tag_115\n    /* \"#utility.yul\":5951:5956   */\n  dup5\n    /* \"#utility.yul\":5933:5957   */\n  tag_26\n  jump\t// in\ntag_115:\n    /* \"#utility.yul\":5924:5958   */\n  tag_36\n  jump\t// in\ntag_114:\n    /* \"#utility.yul\":5906:5959   */\n  tag_26\n  jump\t// in\ntag_113:\n    /* \"#utility.yul\":5893:5959   */\n  swap1\n  pop\n    /* \"#utility.yul\":5823:5965   */\n  swap2\n  swap1\n  pop\n  jump\t// out\n    /* \"#utility.yul\":5971:6046   */\ntag_38:\n    /* \"#utility.yul\":6014:6017   */\n  0x00\n    /* \"#utility.yul\":6035:6040   */\n  dup2\n    /* \"#utility.yul\":6028:6040   */\n  swap1\n  pop\n    /* \"#utility.yul\":5971:6046   */\n  swap2\n  swap1\n  pop\n  jump\t// out\n    /* \"#utility.yul\":6052:6321   */\ntag_39:\n    /* \"#utility.yul\":6162:6201   */\n  tag_118\n    /* \"#utility.yul\":6193:6200   */\n  dup4\n    /* \"#utility.yul\":6162:6201   */\n  tag_37\n  jump\t// in\ntag_118:\n    /* \"#utility.yul\":6223:6314   */\n  tag_119\n    /* \"#utility.yul\":6272:6313   */\n  tag_120\n    /* \"#utility.yul\":6296:6312   */\n  dup3\n    /* \"#utility.yul\":6272:6313   */\n  tag_38\n  jump\t// in\ntag_120:\n    /* \"#utility.yul\":6264:6270   */\n  dup5\n    /* \"#utility.yul\":6257:6261   */\n  dup5\n    /* \"#utility.yul\":6251:6262   */\n  sload\n    /* \"#utility.yul\":6223:6314   */\n  tag_35\n  jump\t// in\ntag_119:\n    /* \"#utility.yul\":6217:6221   */\n  dup3\n    /* \"#utility.yul\":6210:6315   */\n  sstore\n    /* \"#utility.yul\":6128:6321   */\n  pop\n    /* \"#utility.yul\":6052:6321   */\n  pop\n  pop\n  pop\n  jump\t// out\n    /* \"#utility.yul\":6327:6400   */\ntag_40:\n    /* \"#utility.yul\":6372:6375   */\n  0x00\n    /* \"#utility.yul\":6327:6400   */\n  swap1\n  jump\t// out\n    /* \"#utility.yul\":6406:6595   */\ntag_41:\n    /* \"#utility.yul\":6483:6515   */\n  tag_123\n  tag_40\n  jump\t// in\ntag_123:\n    /* \"#utility.yul\":6524:6589   */\n  tag_124\n    /* \"#utility.yul\":6582:6588   */\n  dup2\n    /* \"#utility.yul\":6574:6580   */\n  dup5\n    /* \"#utility.yul\":6568:6572   */\n  dup5\n    /* \"#utility.yul\":6524:6589   */\n  tag_39\n  jump\t// in\ntag_124:\n    /* \"#utility.yul\":6459:6595   */\n  pop\n    /* \"#utility.yul\":6406:6595   */\n  pop\n  pop\n  jump\t// out\n    /* \"#utility.yul\":6601:6787   */\ntag_42:\n    /* \"#utility.yul\":6661:6781   */\ntag_126:\n    /* \"#utility.yul\":6678:6681   */\n  dup2\n    /* \"#utility.yul\":6671:6676   */\n  dup2\n    /* \"#utility.yul\":6668:6682   */\n  lt\n    /* \"#utility.yul\":6661:6781   */\n  iszero\n  tag_128\n  jumpi\n    /* \"#utility.yul\":6732:6771   */\n  tag_129\n    /* \"#utility.yul\":6769:6770   */\n  0x00\n    /* \"#utility.yul\":6762:6767   */\n  dup3\n    /* \"#utility.yul\":6732:6771   */\n  tag_41\n  jump\t// in\ntag_129:\n    /* \"#utility.yul\":6705:6706   */\n  0x01\n    /* \"#utility.yul\":6698:6703   */\n  dup2\n    /* \"#utility.yul\":6694:6707   */\n  add\n    /* \"#utility.yul\":6685:6707   */\n  swap1\n  pop\n    /* \"#utility.yul\":6661:6781   */\n  jump(tag_126)\ntag_128:\n    /* \"#utility.yul\":6601:6787   */\n  pop\n  pop\n  jump\t// out\n    /* \"#utility.yul\":6793:7336   */\ntag_43:\n    /* \"#utility.yul\":6894:6896   */\n  0x1f\n    /* \"#utility.yul\":6889:6892   */\n  dup3\n    /* \"#utility.yul\":6886:6897   */\n  gt\n    /* \"#utility.yul\":6883:7329   */\n  iszero\n  tag_131\n  jumpi\n    /* \"#utility.yul\":6928:6966   */\n  tag_132\n    /* \"#utility.yul\":6960:6965   */\n  dup2\n    /* \"#utility.yul\":6928:6966   */\n  tag_32\n  jump\t// in\ntag_132:\n    /* \"#utility.yul\":7012:7041   */\n  tag_133\n    /* \"#utility.yul\":7030:7040   */\n  dup5\n    /* \"#utility.yul\":7012:7041   */\n  tag_33\n  jump\t// in\ntag_133:\n    /* \"#utility.yul\":7002:7010   */\n  dup2\n    /* \"#utility.yul\":6998:7042   */\n  add\n    /* \"#utility.yul\":7195:7197   */\n  0x20\n    /* \"#utility.yul\":7183:7193   */\n  dup6\n    /* \"#utility.yul\":7180:7198   */\n  lt\n    /* \"#utility.yul\":7177:7226   */\n  iszero\n  tag_134\n  jumpi\n    /* \"#utility.yul\":7216:7224   */\n  dup2\n    /* \"#utility.yul\":7201:7224   */\n  swap1\n  pop\n    /* \"#utility.yul\":7177:7226   */\ntag_134:\n    /* \"#utility.yul\":7239:7319   */\n  tag_135\n    /* \"#utility.yul\":7295:7317   */\n  tag_136\n    /* \"#utility.yul\":7313:7316   */\n  dup6\n    /* \"#utility.yul\":7295:7317   */\n  tag_33\n  jump\t// in\ntag_136:\n    /* \"#utility.yul\":7285:7293   */\n  dup4\n    /* \"#utility.yul\":7281:7318   */\n  add\n    /* \"#utility.yul\":7268:7279   */\n  dup3\n    /* \"#utility.yul\":7239:7319   */\n  tag_42\n  jump\t// in\ntag_135:\n    /* \"#utility.yul\":6898:7329   */\n  pop\n  pop\n    /* \"#utility.yul\":6883:7329   */\ntag_131:\n    /* \"#utility.yul\":6793:7336   */\n  pop\n  pop\n  pop\n  jump\t// out\n    /* \"#utility.yul\":7342:7459   */\ntag_44:\n    /* \"#utility.yul\":7396:7404   */\n  0x00\n    /* \"#utility.yul\":7446:7451   */\n  dup3\n    /* \"#utility.yul\":7440:7444   */\n  dup3\n    /* \"#utility.yul\":7436:7452   */\n  shr\n    /* \"#utility.yul\":7415:7452   */\n  swap1\n  pop\n    /* \"#utility.yul\":7342:7459   */\n  swap3\n  swap2\n  pop\n  pop\n  jump\t// out\n    /* \"#utility.yul\":7465:7634   */\ntag_45:\n    /* \"#utility.yul\":7509:7515   */\n  0x00\n    /* \"#utility.yul\":7542:7593   */\n  tag_139\n    /* \"#utility.yul\":7590:7591   */\n  0x00\n    /* \"#utility.yul\":7586:7592   */\n  not\n    /* \"#utility.yul\":7578:7583   */\n  dup5\n    /* \"#utility.yul\":7575:7576   */\n  0x08\n    /* \"#utility.yul\":7571:7584   */\n  mul\n    /* \"#utility.yul\":7542:7593   */\n  tag_44\n  jump\t// in\ntag_139:\n    /* \"#utility.yul\":7538:7594   */\n  not\n    /* \"#utility.yul\":7623:7627   */\n  dup1\n    /* \"#utility.yul\":7617:7621   */\n  dup4\n    /* \"#utility.yul\":7613:7628   */\n  and\n    /* \"#utility.yul\":7603:7628   */\n  swap2\n  pop\n    /* \"#utility.yul\":7516:7634   */\n  pop\n    /* \"#utility.yul\":7465:7634   */\n  swap3\n  swap2\n  pop\n  pop\n  jump\t// out\n    /* \"#utility.yul\":7639:7934   */\ntag_46:\n    /* \"#utility.yul\":7715:7719   */\n  0x00\n    /* \"#utility.yul\":7861:7890   */\n  tag_141\n    /* \"#utility.yul\":7886:7889   */\n  dup4\n    /* \"#utility.yul\":7880:7884   */\n  dup4\n    /* \"#utility.yul\":7861:7890   */\n  tag_45\n  jump\t// in\ntag_141:\n    /* \"#utility.yul\":7853:7890   */\n  swap2\n  pop\n    /* \"#utility.yul\":7923:7926   */\n  dup3\n    /* \"#utility.yul\":7920:7921   */\n  0x02\n    /* \"#utility.yul\":7916:7927   */\n  mul\n    /* \"#utility.yul\":7910:7914   */\n  dup3\n    /* \"#utility.yul\":7907:7928   */\n  or\n    /* \"#utility.yul\":7899:7928   */\n  swap1\n  pop\n    /* \"#utility.yul\":7639:7934   */\n  swap3\n  swap2\n  pop\n  pop\n  jump\t// out\n    /* \"#utility.yul\":7939:9334   */\ntag_8:\n    /* \"#utility.yul\":8056:8093   */\n  tag_143\n    /* \"#utility.yul\":8089:8092   */\n  dup3\n    /* \"#utility.yul\":8056:8093   */\n  tag_29\n  jump\t// in\ntag_143:\n    /* \"#utility.yul\":8158:8176   */\n  0xffffffffffffffff\n    /* \"#utility.yul\":8150:8156   */\n  dup2\n    /* \"#utility.yul\":8147:8177   */\n  gt\n    /* \"#utility.yul\":8144:8200   */\n  iszero\n  tag_144\n  jumpi\n    /* \"#utility.yul\":8180:8198   */\n  tag_145\n  tag_19\n  jump\t// in\ntag_145:\n    /* \"#utility.yul\":8144:8200   */\ntag_144:\n    /* \"#utility.yul\":8224:8262   */\n  tag_146\n    /* \"#utility.yul\":8256:8260   */\n  dup3\n    /* \"#utility.yul\":8250:8261   */\n  sload\n    /* \"#utility.yul\":8224:8262   */\n  tag_31\n  jump\t// in\ntag_146:\n    /* \"#utility.yul\":8309:8376   */\n  tag_147\n    /* \"#utility.yul\":8369:8375   */\n  dup3\n    /* \"#utility.yul\":8361:8367   */\n  dup3\n    /* \"#utility.yul\":8355:8359   */\n  dup6\n    /* \"#utility.yul\":8309:8376   */\n  tag_43\n  jump\t// in\ntag_147:\n    /* \"#utility.yul\":8403:8404   */\n  0x00\n    /* \"#utility.yul\":8427:8431   */\n  0x20\n    /* \"#utility.yul\":8414:8431   */\n  swap1\n  pop\n    /* \"#utility.yul\":8459:8461   */\n  0x1f\n    /* \"#utility.yul\":8451:8457   */\n  dup4\n    /* \"#utility.yul\":8448:8462   */\n  gt\n    /* \"#utility.yul\":8476:8477   */\n  0x01\n    /* \"#utility.yul\":8471:9089   */\n  dup2\n  eq\n  tag_149\n  jumpi\n    /* \"#utility.yul\":9133:9134   */\n  0x00\n    /* \"#utility.yul\":9150:9156   */\n  dup5\n    /* \"#utility.yul\":9147:9224   */\n  iszero\n  tag_150\n  jumpi\n    /* \"#utility.yul\":9199:9208   */\n  dup3\n    /* \"#utility.yul\":9194:9197   */\n  dup8\n    /* \"#utility.yul\":9190:9209   */\n  add\n    /* \"#utility.yul\":9184:9210   */\n  mload\n    /* \"#utility.yul\":9175:9210   */\n  swap1\n  pop\n    /* \"#utility.yul\":9147:9224   */\ntag_150:\n    /* \"#utility.yul\":9250:9317   */\n  tag_151\n    /* \"#utility.yul\":9310:9316   */\n  dup6\n    /* \"#utility.yul\":9303:9308   */\n  dup3\n    /* \"#utility.yul\":9250:9317   */\n  tag_46\n  jump\t// in\ntag_151:\n    /* \"#utility.yul\":9244:9248   */\n  dup7\n    /* \"#utility.yul\":9237:9318   */\n  sstore\n    /* \"#utility.yul\":9106:9328   */\n  pop\n    /* \"#utility.yul\":8441:9328   */\n  jump(tag_148)\n    /* \"#utility.yul\":8471:9089   */\ntag_149:\n    /* \"#utility.yul\":8523:8527   */\n  0x1f\n    /* \"#utility.yul\":8519:8528   */\n  not\n    /* \"#utility.yul\":8511:8517   */\n  dup5\n    /* \"#utility.yul\":8507:8529   */\n  and\n    /* \"#utility.yul\":8557:8594   */\n  tag_152\n    /* \"#utility.yul\":8589:8593   */\n  dup7\n    /* \"#utility.yul\":8557:8594   */\n  tag_32\n  jump\t// in\ntag_152:\n    /* \"#utility.yul\":8616:8617   */\n  0x00\n    /* \"#utility.yul\":8630:8838   */\ntag_153:\n    /* \"#utility.yul\":8644:8651   */\n  dup3\n    /* \"#utility.yul\":8641:8642   */\n  dup2\n    /* \"#utility.yul\":8638:8652   */\n  lt\n    /* \"#utility.yul\":8630:8838   */\n  iszero\n  tag_155\n  jumpi\n    /* \"#utility.yul\":8723:8732   */\n  dup5\n    /* \"#utility.yul\":8718:8721   */\n  dup10\n    /* \"#utility.yul\":8714:8733   */\n  add\n    /* \"#utility.yul\":8708:8734   */\n  mload\n    /* \"#utility.yul\":8700:8706   */\n  dup3\n    /* \"#utility.yul\":8693:8735   */\n  sstore\n    /* \"#utility.yul\":8774:8775   */\n  0x01\n    /* \"#utility.yul\":8766:8772   */\n  dup3\n    /* \"#utility.yul\":8762:8776   */\n  add\n    /* \"#utility.yul\":8752:8776   */\n  swap2\n  pop\n    /* \"#utility.yul\":8821:8823   */\n  0x20\n    /* \"#utility.yul\":8810:8819   */\n  dup6\n    /* \"#utility.yul\":8806:8824   */\n  add\n    /* \"#utility.yul\":8793:8824   */\n  swap5\n  pop\n    /* \"#utility.yul\":8667:8671   */\n  0x20\n    /* \"#utility.yul\":8664:8665   */\n  dup2\n    /* \"#utility.yul\":8660:8672   */\n  add\n    /* \"#utility.yul\":8655:8672   */\n  swap1\n  pop\n    /* \"#utility.yul\":8630:8838   */\n  jump(tag_153)\ntag_155:\n    /* \"#utility.yul\":8866:8872   */\n  dup7\n    /* \"#utility.yul\":8857:8864   */\n  dup4\n    /* \"#utility.yul\":8854:8873   */\n  lt\n    /* \"#utility.yul\":8851:9030   */\n  iszero\n  tag_156\n  jumpi\n    /* \"#utility.yul\":8924:8933   */\n  dup5\n    /* \"#utility.yul\":8919:8922   */\n  dup10\n    /* \"#utility.yul\":8915:8934   */\n  add\n    /* \"#utility.yul\":8909:8935   */\n  mload\n    /* \"#utility.yul\":8967:9015   */\n  tag_157\n    /* \"#utility.yul\":9009:9013   */\n  0x1f\n    /* \"#utility.yul\":9001:9007   */\n  dup10\n    /* \"#utility.yul\":8997:9014   */\n  and\n    /* \"#utility.yul\":8986:8995   */\n  dup3\n    /* \"#utility.yul\":8967:9015   */\n  tag_45\n  jump\t// in\ntag_157:\n    /* \"#utility.yul\":8959:8965   */\n  dup4\n    /* \"#utility.yul\":8952:9016   */\n  sstore\n    /* \"#utility.yul\":8874:9030   */\n  pop\n    /* \"#utility.yul\":8851:9030   */\ntag_156:\n    /* \"#utility.yul\":9076:9077   */\n  0x01\n    /* \"#utility.yul\":9072:9073   */\n  0x02\n    /* \"#utility.yul\":9064:9070   */\n  dup9\n    /* \"#utility.yul\":9060:9074   */\n  mul\n    /* \"#utility.yul\":9056:9078   */\n  add\n    /* \"#utility.yul\":9050:9054   */\n  dup9\n    /* \"#utility.yul\":9043:9079   */\n  sstore\n    /* \"#utility.yul\":8478:9089   */\n  pop\n  pop\n  pop\n    /* \"#utility.yul\":8441:9328   */\ntag_148:\n  pop\n    /* \"#utility.yul\":8031:9334   */\n  pop\n  pop\n  pop\n    /* \"#utility.yul\":7939:9334   */\n  pop\n  pop\n  jump\t// out\n    /* \"Day-06/D6P2.sol\":2173:2795  contract Car is Vehicle {... */\ntag_12:\n  dataSize(sub_0)\n  dup1\n  dataOffset(sub_0)\n  0x00\n  codecopy\n  0x00\n  return\nstop\n\nsub_0: assembly {\n        /* \"Day-06/D6P2.sol\":2173:2795  contract Car is Vehicle {... */\n      mstore(0x40, 0x80)\n      callvalue\n      dup1\n      iszero\n      tag_1\n      jumpi\n      0x00\n      dup1\n      revert\n    tag_1:\n      pop\n      jumpi(tag_2, lt(calldatasize, 0x04))\n      shr(0xe0, calldataload(0x00))\n      dup1\n      0xd21e1993\n      gt\n      tag_10\n      jumpi\n      dup1\n      0xd21e1993\n      eq\n      tag_6\n      jumpi\n      dup1\n      0xe8311f84\n      eq\n      tag_7\n      jumpi\n      dup1\n      0xf3269716\n      eq\n      tag_8\n      jumpi\n      dup1\n      0xf64eeab6\n      eq\n      tag_9\n      jumpi\n      jump(tag_2)\n    tag_10:\n      dup1\n      0x0ad9d052\n      eq\n      tag_3\n      jumpi\n      dup1\n      0x1e006929\n      eq\n      tag_4\n      jumpi\n      dup1\n      0xc6dad082\n      eq\n      tag_5\n      jumpi\n    tag_2:\n      0x00\n      dup1\n      revert\n        /* \"Day-06/D6P2.sol\":147:166  string public model */\n    tag_3:\n      tag_11\n      tag_12\n      jump\t// in\n    tag_11:\n      mload(0x40)\n      tag_13\n      swap2\n      swap1\n      tag_14\n      jump\t// in\n    tag_13:\n      mload(0x40)\n      dup1\n      swap2\n      sub\n      swap1\n      return\n        /* \"Day-06/D6P2.sol\":862:995  function distanceTraveled(uint fuelAmount) public pure virtual returns (uint) {... */\n    tag_4:\n      tag_15\n      0x04\n      dup1\n      calldatasize\n      sub\n      dup2\n      add\n      swap1\n      tag_16\n      swap2\n      swap1\n      tag_17\n      jump\t// in\n    tag_16:\n      tag_18\n      jump\t// in\n    tag_15:\n      mload(0x40)\n      tag_19\n      swap2\n      swap1\n      tag_20\n      jump\t// in\n    tag_19:\n      mload(0x40)\n      dup1\n      swap2\n      sub\n      swap1\n      return\n        /* \"Day-06/D6P2.sol\":122:140  string public make */\n    tag_5:\n      tag_21\n      tag_22\n      jump\t// in\n    tag_21:\n      mload(0x40)\n      tag_23\n      swap2\n      swap1\n      tag_14\n      jump\t// in\n    tag_23:\n      mload(0x40)\n      dup1\n      swap2\n      sub\n      swap1\n      return\n        /* \"Day-06/D6P2.sol\":2669:2792  function maxSpeed() public pure override returns (uint) {... */\n    tag_6:\n      tag_24\n      tag_25\n      jump\t// in\n    tag_24:\n      mload(0x40)\n      tag_26\n      swap2\n      swap1\n      tag_20\n      jump\t// in\n    tag_26:\n      mload(0x40)\n      dup1\n      swap2\n      sub\n      swap1\n      return\n        /* \"Day-06/D6P2.sol\":196:218  string public fuelType */\n    tag_7:\n      tag_27\n      tag_28\n      jump\t// in\n    tag_27:\n      mload(0x40)\n      tag_29\n      swap2\n      swap1\n      tag_14\n      jump\t// in\n    tag_29:\n      mload(0x40)\n      dup1\n      swap2\n      sub\n      swap1\n      return\n        /* \"Day-06/D6P2.sol\":173:189  uint public year */\n    tag_8:\n      tag_30\n      tag_31\n      jump\t// in\n    tag_30:\n      mload(0x40)\n      tag_32\n      swap2\n      swap1\n      tag_20\n      jump\t// in\n    tag_32:\n      mload(0x40)\n      dup1\n      swap2\n      sub\n      swap1\n      return\n        /* \"Day-06/D6P2.sol\":2472:2623  function fuelEfficiency() public pure override returns (uint) {... */\n    tag_9:\n      tag_33\n      tag_34\n      jump\t// in\n    tag_33:\n      mload(0x40)\n      tag_35\n      swap2\n      swap1\n      tag_20\n      jump\t// in\n    tag_35:\n      mload(0x40)\n      dup1\n      swap2\n      sub\n      swap1\n      return\n        /* \"Day-06/D6P2.sol\":147:166  string public model */\n    tag_12:\n      0x01\n      dup1\n      sload\n      tag_36\n      swap1\n      tag_37\n      jump\t// in\n    tag_36:\n      dup1\n      0x1f\n      add\n      0x20\n      dup1\n      swap2\n      div\n      mul\n      0x20\n      add\n      mload(0x40)\n      swap1\n      dup2\n      add\n      0x40\n      mstore\n      dup1\n      swap3\n      swap2\n      swap1\n      dup2\n      dup2\n      mstore\n      0x20\n      add\n      dup3\n      dup1\n      sload\n      tag_38\n      swap1\n      tag_37\n      jump\t// in\n    tag_38:\n      dup1\n      iszero\n      tag_39\n      jumpi\n      dup1\n      0x1f\n      lt\n      tag_40\n      jumpi\n      0x0100\n      dup1\n      dup4\n      sload\n      div\n      mul\n      dup4\n      mstore\n      swap2\n      0x20\n      add\n      swap2\n      jump(tag_39)\n    tag_40:\n      dup3\n      add\n      swap2\n      swap1\n      0x00\n      mstore\n      keccak256(0x00, 0x20)\n      swap1\n    tag_41:\n      dup2\n      sload\n      dup2\n      mstore\n      swap1\n      0x01\n      add\n      swap1\n      0x20\n      add\n      dup1\n      dup4\n      gt\n      tag_41\n      jumpi\n      dup3\n      swap1\n      sub\n      0x1f\n      and\n      dup3\n      add\n      swap2\n    tag_39:\n      pop\n      pop\n      pop\n      pop\n      pop\n      dup2\n      jump\t// out\n        /* \"Day-06/D6P2.sol\":862:995  function distanceTraveled(uint fuelAmount) public pure virtual returns (uint) {... */\n    tag_18:\n        /* \"Day-06/D6P2.sol\":934:938  uint */\n      0x00\n        /* \"Day-06/D6P2.sol\":971:987  fuelEfficiency() */\n      tag_43\n        /* \"Day-06/D6P2.sol\":971:985  fuelEfficiency */\n      tag_34\n        /* \"Day-06/D6P2.sol\":971:987  fuelEfficiency() */\n      jump\t// in\n    tag_43:\n        /* \"Day-06/D6P2.sol\":958:968  fuelAmount */\n      dup3\n        /* \"Day-06/D6P2.sol\":958:987  fuelAmount * fuelEfficiency() */\n      tag_44\n      swap2\n      swap1\n      tag_45\n      jump\t// in\n    tag_44:\n        /* \"Day-06/D6P2.sol\":951:987  return fuelAmount * fuelEfficiency() */\n      swap1\n      pop\n        /* \"Day-06/D6P2.sol\":862:995  function distanceTraveled(uint fuelAmount) public pure virtual returns (uint) {... */\n      swap2\n      swap1\n      pop\n      jump\t// out\n        /* \"Day-06/D6P2.sol\":122:140  string public make */\n    tag_22:\n      0x00\n      dup1\n      sload\n      tag_46\n      swap1\n      tag_37\n      jump\t// in\n    tag_46:\n      dup1\n      0x1f\n      add\n      0x20\n      dup1\n      swap2\n      div\n      mul\n      0x20\n      add\n      mload(0x40)\n      swap1\n      dup2\n      add\n      0x40\n      mstore\n      dup1\n      swap3\n      swap2\n      swap1\n      dup2\n      dup2\n      mstore\n      0x20\n      add\n      dup3\n      dup1\n      sload\n      tag_47\n      swap1\n      tag_37\n      jump\t// in\n    tag_47:\n      dup1\n      iszero\n      tag_48\n      jumpi\n      dup1\n      0x1f\n      lt\n      tag_49\n      jumpi\n      0x0100\n      dup1\n      dup4\n      sload\n      div\n      mul\n      dup4\n      mstore\n      swap2\n      0x20\n      add\n      swap2\n      jump(tag_48)\n    tag_49:\n      dup3\n      add\n      swap2\n      swap1\n      0x00\n      mstore\n      keccak256(0x00, 0x20)\n      swap1\n    tag_50:\n      dup2\n      sload\n      dup2\n      mstore\n      swap1\n      0x01\n      add\n      swap1\n      0x20\n      add\n      dup1\n      dup4\n      gt\n      tag_50\n      jumpi\n      dup3\n      swap1\n      sub\n      0x1f\n      and\n      dup3\n      add\n      swap2\n    tag_48:\n      pop\n      pop\n      pop\n      pop\n      pop\n      dup2\n      jump\t// out\n        /* \"Day-06/D6P2.sol\":2669:2792  function maxSpeed() public pure override returns (uint) {... */\n    tag_25:\n        /* \"Day-06/D6P2.sol\":2719:2723  uint */\n      0x00\n        /* \"Day-06/D6P2.sol\":2743:2746  180 */\n      0xb4\n        /* \"Day-06/D6P2.sol\":2736:2746  return 180 */\n      swap1\n      pop\n        /* \"Day-06/D6P2.sol\":2669:2792  function maxSpeed() public pure override returns (uint) {... */\n      swap1\n      jump\t// out\n        /* \"Day-06/D6P2.sol\":196:218  string public fuelType */\n    tag_28:\n      0x03\n      dup1\n      sload\n      tag_52\n      swap1\n      tag_37\n      jump\t// in\n    tag_52:\n      dup1\n      0x1f\n      add\n      0x20\n      dup1\n      swap2\n      div\n      mul\n      0x20\n      add\n      mload(0x40)\n      swap1\n      dup2\n      add\n      0x40\n      mstore\n      dup1\n      swap3\n      swap2\n      swap1\n      dup2\n      dup2\n      mstore\n      0x20\n      add\n      dup3\n      dup1\n      sload\n      tag_53\n      swap1\n      tag_37\n      jump\t// in\n    tag_53:\n      dup1\n      iszero\n      tag_54\n      jumpi\n      dup1\n      0x1f\n      lt\n      tag_55\n      jumpi\n      0x0100\n      dup1\n      dup4\n      sload\n      div\n      mul\n      dup4\n      mstore\n      swap2\n      0x20\n      add\n      swap2\n      jump(tag_54)\n    tag_55:\n      dup3\n      add\n      swap2\n      swap1\n      0x00\n      mstore\n      keccak256(0x00, 0x20)\n      swap1\n    tag_56:\n      dup2\n      sload\n      dup2\n      mstore\n      swap1\n      0x01\n      add\n      swap1\n      0x20\n      add\n      dup1\n      dup4\n      gt\n      tag_56\n      jumpi\n      dup3\n      swap1\n      sub\n      0x1f\n      and\n      dup3\n      add\n      swap2\n    tag_54:\n      pop\n      pop\n      pop\n      pop\n      pop\n      dup2\n      jump\t// out\n        /* \"Day-06/D6P2.sol\":173:189  uint public year */\n    tag_31:\n      sload(0x02)\n      dup2\n      jump\t// out\n        /* \"Day-06/D6P2.sol\":2472:2623  function fuelEfficiency() public pure override returns (uint) {... */\n    tag_34:\n        /* \"Day-06/D6P2.sol\":2528:2532  uint */\n      0x00\n        /* \"Day-06/D6P2.sol\":2552:2554  15 */\n      0x0f\n        /* \"Day-06/D6P2.sol\":2545:2554  return 15 */\n      swap1\n      pop\n        /* \"Day-06/D6P2.sol\":2472:2623  function fuelEfficiency() public pure override returns (uint) {... */\n      swap1\n      jump\t// out\n        /* \"#utility.yul\":7:106   */\n    tag_58:\n        /* \"#utility.yul\":59:65   */\n      0x00\n        /* \"#utility.yul\":93:98   */\n      dup2\n        /* \"#utility.yul\":87:99   */\n      mload\n        /* \"#utility.yul\":77:99   */\n      swap1\n      pop\n        /* \"#utility.yul\":7:106   */\n      swap2\n      swap1\n      pop\n      jump\t// out\n        /* \"#utility.yul\":112:281   */\n    tag_59:\n        /* \"#utility.yul\":196:207   */\n      0x00\n        /* \"#utility.yul\":230:236   */\n      dup3\n        /* \"#utility.yul\":225:228   */\n      dup3\n        /* \"#utility.yul\":218:237   */\n      mstore\n        /* \"#utility.yul\":270:274   */\n      0x20\n        /* \"#utility.yul\":265:268   */\n      dup3\n        /* \"#utility.yul\":261:275   */\n      add\n        /* \"#utility.yul\":246:275   */\n      swap1\n      pop\n        /* \"#utility.yul\":112:281   */\n      swap3\n      swap2\n      pop\n      pop\n      jump\t// out\n        /* \"#utility.yul\":287:533   */\n    tag_60:\n        /* \"#utility.yul\":368:369   */\n      0x00\n        /* \"#utility.yul\":378:491   */\n    tag_76:\n        /* \"#utility.yul\":392:398   */\n      dup4\n        /* \"#utility.yul\":389:390   */\n      dup2\n        /* \"#utility.yul\":386:399   */\n      lt\n        /* \"#utility.yul\":378:491   */\n      iszero\n      tag_78\n      jumpi\n        /* \"#utility.yul\":477:478   */\n      dup1\n        /* \"#utility.yul\":472:475   */\n      dup3\n        /* \"#utility.yul\":468:479   */\n      add\n        /* \"#utility.yul\":462:480   */\n      mload\n        /* \"#utility.yul\":458:459   */\n      dup2\n        /* \"#utility.yul\":453:456   */\n      dup5\n        /* \"#utility.yul\":449:460   */\n      add\n        /* \"#utility.yul\":442:481   */\n      mstore\n        /* \"#utility.yul\":414:416   */\n      0x20\n        /* \"#utility.yul\":411:412   */\n      dup2\n        /* \"#utility.yul\":407:417   */\n      add\n        /* \"#utility.yul\":402:417   */\n      swap1\n      pop\n        /* \"#utility.yul\":378:491   */\n      jump(tag_76)\n    tag_78:\n        /* \"#utility.yul\":525:526   */\n      0x00\n        /* \"#utility.yul\":516:522   */\n      dup5\n        /* \"#utility.yul\":511:514   */\n      dup5\n        /* \"#utility.yul\":507:523   */\n      add\n        /* \"#utility.yul\":500:527   */\n      mstore\n        /* \"#utility.yul\":349:533   */\n      pop\n        /* \"#utility.yul\":287:533   */\n      pop\n      pop\n      pop\n      jump\t// out\n        /* \"#utility.yul\":539:641   */\n    tag_61:\n        /* \"#utility.yul\":580:586   */\n      0x00\n        /* \"#utility.yul\":631:633   */\n      0x1f\n        /* \"#utility.yul\":627:634   */\n      not\n        /* \"#utility.yul\":622:624   */\n      0x1f\n        /* \"#utility.yul\":615:620   */\n      dup4\n        /* \"#utility.yul\":611:625   */\n      add\n        /* \"#utility.yul\":607:635   */\n      and\n        /* \"#utility.yul\":597:635   */\n      swap1\n      pop\n        /* \"#utility.yul\":539:641   */\n      swap2\n      swap1\n      pop\n      jump\t// out\n        /* \"#utility.yul\":647:1024   */\n    tag_62:\n        /* \"#utility.yul\":735:738   */\n      0x00\n        /* \"#utility.yul\":763:802   */\n      tag_81\n        /* \"#utility.yul\":796:801   */\n      dup3\n        /* \"#utility.yul\":763:802   */\n      tag_58\n      jump\t// in\n    tag_81:\n        /* \"#utility.yul\":818:889   */\n      tag_82\n        /* \"#utility.yul\":882:888   */\n      dup2\n        /* \"#utility.yul\":877:880   */\n      dup6\n        /* \"#utility.yul\":818:889   */\n      tag_59\n      jump\t// in\n    tag_82:\n        /* \"#utility.yul\":811:889   */\n      swap4\n      pop\n        /* \"#utility.yul\":898:963   */\n      tag_83\n        /* \"#utility.yul\":956:962   */\n      dup2\n        /* \"#utility.yul\":951:954   */\n      dup6\n        /* \"#utility.yul\":944:948   */\n      0x20\n        /* \"#utility.yul\":937:942   */\n      dup7\n        /* \"#utility.yul\":933:949   */\n      add\n        /* \"#utility.yul\":898:963   */\n      tag_60\n      jump\t// in\n    tag_83:\n        /* \"#utility.yul\":988:1017   */\n      tag_84\n        /* \"#utility.yul\":1010:1016   */\n      dup2\n        /* \"#utility.yul\":988:1017   */\n      tag_61\n      jump\t// in\n    tag_84:\n        /* \"#utility.yul\":983:986   */\n      dup5\n        /* \"#utility.yul\":979:1018   */\n      add\n        /* \"#utility.yul\":972:1018   */\n      swap2\n      pop\n        /* \"#utility.yul\":739:1024   */\n      pop\n        /* \"#utility.yul\":647:1024   */\n      swap3\n      swap2\n      pop\n      pop\n      jump\t// out\n        /* \"#utility.yul\":1030:1343   */\n    tag_14:\n        /* \"#utility.yul\":1143:1147   */\n      0x00\n        /* \"#utility.yul\":1181:1183   */\n      0x20\n        /* \"#utility.yul\":1170:1179   */\n      dup3\n        /* \"#utility.yul\":1166:1184   */\n      add\n        /* \"#utility.yul\":1158:1184   */\n      swap1\n      pop\n        /* \"#utility.yul\":1230:1239   */\n      dup2\n        /* \"#utility.yul\":1224:1228   */\n      dup2\n        /* \"#utility.yul\":1220:1240   */\n      sub\n        /* \"#utility.yul\":1216:1217   */\n      0x00\n        /* \"#utility.yul\":1205:1214   */\n      dup4\n        /* \"#utility.yul\":1201:1218   */\n      add\n        /* \"#utility.yul\":1194:1241   */\n      mstore\n        /* \"#utility.yul\":1258:1336   */\n      tag_86\n        /* \"#utility.yul\":1331:1335   */\n      dup2\n        /* \"#utility.yul\":1322:1328   */\n      dup5\n        /* \"#utility.yul\":1258:1336   */\n      tag_62\n      jump\t// in\n    tag_86:\n        /* \"#utility.yul\":1250:1336   */\n      swap1\n      pop\n        /* \"#utility.yul\":1030:1343   */\n      swap3\n      swap2\n      pop\n      pop\n      jump\t// out\n        /* \"#utility.yul\":1430:1547   */\n    tag_64:\n        /* \"#utility.yul\":1539:1540   */\n      0x00\n        /* \"#utility.yul\":1536:1537   */\n      dup1\n        /* \"#utility.yul\":1529:1541   */\n      revert\n        /* \"#utility.yul\":1676:1753   */\n    tag_66:\n        /* \"#utility.yul\":1713:1720   */\n      0x00\n        /* \"#utility.yul\":1742:1747   */\n      dup2\n        /* \"#utility.yul\":1731:1747   */\n      swap1\n      pop\n        /* \"#utility.yul\":1676:1753   */\n      swap2\n      swap1\n      pop\n      jump\t// out\n        /* \"#utility.yul\":1759:1881   */\n    tag_67:\n        /* \"#utility.yul\":1832:1856   */\n      tag_92\n        /* \"#utility.yul\":1850:1855   */\n      dup2\n        /* \"#utility.yul\":1832:1856   */\n      tag_66\n      jump\t// in\n    tag_92:\n        /* \"#utility.yul\":1825:1830   */\n      dup2\n        /* \"#utility.yul\":1822:1857   */\n      eq\n        /* \"#utility.yul\":1812:1875   */\n      tag_93\n      jumpi\n        /* \"#utility.yul\":1871:1872   */\n      0x00\n        /* \"#utility.yul\":1868:1869   */\n      dup1\n        /* \"#utility.yul\":1861:1873   */\n      revert\n        /* \"#utility.yul\":1812:1875   */\n    tag_93:\n        /* \"#utility.yul\":1759:1881   */\n      pop\n      jump\t// out\n        /* \"#utility.yul\":1887:2026   */\n    tag_68:\n        /* \"#utility.yul\":1933:1938   */\n      0x00\n        /* \"#utility.yul\":1971:1977   */\n      dup2\n        /* \"#utility.yul\":1958:1978   */\n      calldataload\n        /* \"#utility.yul\":1949:1978   */\n      swap1\n      pop\n        /* \"#utility.yul\":1987:2020   */\n      tag_95\n        /* \"#utility.yul\":2014:2019   */\n      dup2\n        /* \"#utility.yul\":1987:2020   */\n      tag_67\n      jump\t// in\n    tag_95:\n        /* \"#utility.yul\":1887:2026   */\n      swap3\n      swap2\n      pop\n      pop\n      jump\t// out\n        /* \"#utility.yul\":2032:2361   */\n    tag_17:\n        /* \"#utility.yul\":2091:2097   */\n      0x00\n        /* \"#utility.yul\":2140:2142   */\n      0x20\n        /* \"#utility.yul\":2128:2137   */\n      dup3\n        /* \"#utility.yul\":2119:2126   */\n      dup5\n        /* \"#utility.yul\":2115:2138   */\n      sub\n        /* \"#utility.yul\":2111:2143   */\n      slt\n        /* \"#utility.yul\":2108:2227   */\n      iszero\n      tag_97\n      jumpi\n        /* \"#utility.yul\":2146:2225   */\n      tag_98\n      tag_64\n      jump\t// in\n    tag_98:\n        /* \"#utility.yul\":2108:2227   */\n    tag_97:\n        /* \"#utility.yul\":2266:2267   */\n      0x00\n        /* \"#utility.yul\":2291:2344   */\n      tag_99\n        /* \"#utility.yul\":2336:2343   */\n      dup5\n        /* \"#utility.yul\":2327:2333   */\n      dup3\n        /* \"#utility.yul\":2316:2325   */\n      dup6\n        /* \"#utility.yul\":2312:2334   */\n      add\n        /* \"#utility.yul\":2291:2344   */\n      tag_68\n      jump\t// in\n    tag_99:\n        /* \"#utility.yul\":2281:2344   */\n      swap2\n      pop\n        /* \"#utility.yul\":2237:2354   */\n      pop\n        /* \"#utility.yul\":2032:2361   */\n      swap3\n      swap2\n      pop\n      pop\n      jump\t// out\n        /* \"#utility.yul\":2367:2485   */\n    tag_69:\n        /* \"#utility.yul\":2454:2478   */\n      tag_101\n        /* \"#utility.yul\":2472:2477   */\n      dup2\n        /* \"#utility.yul\":2454:2478   */\n      tag_66\n      jump\t// in\n    tag_101:\n        /* \"#utility.yul\":2449:2452   */\n      dup3\n        /* \"#utility.yul\":2442:2479   */\n      mstore\n        /* \"#utility.yul\":2367:2485   */\n      pop\n      pop\n      jump\t// out\n        /* \"#utility.yul\":2491:2713   */\n    tag_20:\n        /* \"#utility.yul\":2584:2588   */\n      0x00\n        /* \"#utility.yul\":2622:2624   */\n      0x20\n        /* \"#utility.yul\":2611:2620   */\n      dup3\n        /* \"#utility.yul\":2607:2625   */\n      add\n        /* \"#utility.yul\":2599:2625   */\n      swap1\n      pop\n        /* \"#utility.yul\":2635:2706   */\n      tag_103\n        /* \"#utility.yul\":2703:2704   */\n      0x00\n        /* \"#utility.yul\":2692:2701   */\n      dup4\n        /* \"#utility.yul\":2688:2705   */\n      add\n        /* \"#utility.yul\":2679:2685   */\n      dup5\n        /* \"#utility.yul\":2635:2706   */\n      tag_69\n      jump\t// in\n    tag_103:\n        /* \"#utility.yul\":2491:2713   */\n      swap3\n      swap2\n      pop\n      pop\n      jump\t// out\n        /* \"#utility.yul\":2719:2899   */\n    tag_70:\n        /* \"#utility.yul\":2767:2844   */\n      0x4e487b7100000000000000000000000000000000000000000000000000000000\n        /* \"#utility.yul\":2764:2765   */\n      0x00\n        /* \"#utility.yul\":2757:2845   */\n      mstore\n        /* \"#utility.yul\":2864:2868   */\n      0x22\n        /* \"#utility.yul\":2861:2862   */\n      0x04\n        /* \"#utility.yul\":2854:2869   */\n      mstore\n        /* \"#utility.yul\":2888:2892   */\n      0x24\n        /* \"#utility.yul\":2885:2886   */\n      0x00\n        /* \"#utility.yul\":2878:2893   */\n      revert\n        /* \"#utility.yul\":2905:3225   */\n    tag_37:\n        /* \"#utility.yul\":2949:2955   */\n      0x00\n        /* \"#utility.yul\":2986:2987   */\n      0x02\n        /* \"#utility.yul\":2980:2984   */\n      dup3\n        /* \"#utility.yul\":2976:2988   */\n      div\n        /* \"#utility.yul\":2966:2988   */\n      swap1\n      pop\n        /* \"#utility.yul\":3033:3034   */\n      0x01\n        /* \"#utility.yul\":3027:3031   */\n      dup3\n        /* \"#utility.yul\":3023:3035   */\n      and\n        /* \"#utility.yul\":3054:3072   */\n      dup1\n        /* \"#utility.yul\":3044:3125   */\n      tag_106\n      jumpi\n        /* \"#utility.yul\":3110:3114   */\n      0x7f\n        /* \"#utility.yul\":3102:3108   */\n      dup3\n        /* \"#utility.yul\":3098:3115   */\n      and\n        /* \"#utility.yul\":3088:3115   */\n      swap2\n      pop\n        /* \"#utility.yul\":3044:3125   */\n    tag_106:\n        /* \"#utility.yul\":3172:3174   */\n      0x20\n        /* \"#utility.yul\":3164:3170   */\n      dup3\n        /* \"#utility.yul\":3161:3175   */\n      lt\n        /* \"#utility.yul\":3141:3159   */\n      dup2\n        /* \"#utility.yul\":3138:3176   */\n      sub\n        /* \"#utility.yul\":3135:3219   */\n      tag_107\n      jumpi\n        /* \"#utility.yul\":3191:3209   */\n      tag_108\n      tag_70\n      jump\t// in\n    tag_108:\n        /* \"#utility.yul\":3135:3219   */\n    tag_107:\n        /* \"#utility.yul\":2956:3225   */\n      pop\n        /* \"#utility.yul\":2905:3225   */\n      swap2\n      swap1\n      pop\n      jump\t// out\n        /* \"#utility.yul\":3231:3411   */\n    tag_71:\n        /* \"#utility.yul\":3279:3356   */\n      0x4e487b7100000000000000000000000000000000000000000000000000000000\n        /* \"#utility.yul\":3276:3277   */\n      0x00\n        /* \"#utility.yul\":3269:3357   */\n      mstore\n        /* \"#utility.yul\":3376:3380   */\n      0x11\n        /* \"#utility.yul\":3373:3374   */\n      0x04\n        /* \"#utility.yul\":3366:3381   */\n      mstore\n        /* \"#utility.yul\":3400:3404   */\n      0x24\n        /* \"#utility.yul\":3397:3398   */\n      0x00\n        /* \"#utility.yul\":3390:3405   */\n      revert\n        /* \"#utility.yul\":3417:3827   */\n    tag_45:\n        /* \"#utility.yul\":3457:3464   */\n      0x00\n        /* \"#utility.yul\":3480:3500   */\n      tag_111\n        /* \"#utility.yul\":3498:3499   */\n      dup3\n        /* \"#utility.yul\":3480:3500   */\n      tag_66\n      jump\t// in\n    tag_111:\n        /* \"#utility.yul\":3475:3500   */\n      swap2\n      pop\n        /* \"#utility.yul\":3514:3534   */\n      tag_112\n        /* \"#utility.yul\":3532:3533   */\n      dup4\n        /* \"#utility.yul\":3514:3534   */\n      tag_66\n      jump\t// in\n    tag_112:\n        /* \"#utility.yul\":3509:3534   */\n      swap3\n      pop\n        /* \"#utility.yul\":3569:3570   */\n      dup3\n        /* \"#utility.yul\":3566:3567   */\n      dup3\n        /* \"#utility.yul\":3562:3571   */\n      mul\n        /* \"#utility.yul\":3591:3621   */\n      tag_113\n        /* \"#utility.yul\":3609:3620   */\n      dup2\n        /* \"#utility.yul\":3591:3621   */\n      tag_66\n      jump\t// in\n    tag_113:\n        /* \"#utility.yul\":3580:3621   */\n      swap2\n      pop\n        /* \"#utility.yul\":3770:3771   */\n      dup3\n        /* \"#utility.yul\":3761:3768   */\n      dup3\n        /* \"#utility.yul\":3757:3772   */\n      div\n        /* \"#utility.yul\":3754:3755   */\n      dup5\n        /* \"#utility.yul\":3751:3773   */\n      eq\n        /* \"#utility.yul\":3731:3732   */\n      dup4\n        /* \"#utility.yul\":3724:3733   */\n      iszero\n        /* \"#utility.yul\":3704:3787   */\n      or\n        /* \"#utility.yul\":3681:3820   */\n      tag_114\n      jumpi\n        /* \"#utility.yul\":3800:3818   */\n      tag_115\n      tag_71\n      jump\t// in\n    tag_115:\n        /* \"#utility.yul\":3681:3820   */\n    tag_114:\n        /* \"#utility.yul\":3465:3827   */\n      pop\n        /* \"#utility.yul\":3417:3827   */\n      swap3\n      swap2\n      pop\n      pop\n      jump\t// out\n\n    auxdata: 0xa2646970667358221220c5964247da74c6fddafef3fa831ed11caf83557da187170b9da977781b1ef33664736f6c63430008120033\n}\n",
				"bytecode": {
					"linkReferences": {},
					"object": "60806040523480156200001157600080fd5b5060405162000bea38038062000bea833981810160405281019062000037919062000254565b8383838383600090816200004c919062000564565b5082600190816200005e919062000564565b5081600281905550806003908162000077919062000564565b5050505050505050506200064b565b6000604051905090565b600080fd5b600080fd5b600080fd5b600080fd5b6000601f19601f8301169050919050565b7f4e487b7100000000000000000000000000000000000000000000000000000000600052604160045260246000fd5b620000ef82620000a4565b810181811067ffffffffffffffff82111715620001115762000110620000b5565b5b80604052505050565b60006200012662000086565b9050620001348282620000e4565b919050565b600067ffffffffffffffff821115620001575762000156620000b5565b5b6200016282620000a4565b9050602081019050919050565b60005b838110156200018f57808201518184015260208101905062000172565b60008484015250505050565b6000620001b2620001ac8462000139565b6200011a565b905082815260208101848484011115620001d157620001d06200009f565b5b620001de8482856200016f565b509392505050565b600082601f830112620001fe57620001fd6200009a565b5b8151620002108482602086016200019b565b91505092915050565b6000819050919050565b6200022e8162000219565b81146200023a57600080fd5b50565b6000815190506200024e8162000223565b92915050565b6000806000806080858703121562000271576200027062000090565b5b600085015167ffffffffffffffff81111562000292576200029162000095565b5b620002a087828801620001e6565b945050602085015167ffffffffffffffff811115620002c457620002c362000095565b5b620002d287828801620001e6565b9350506040620002e5878288016200023d565b925050606085015167ffffffffffffffff81111562000309576200030862000095565b5b6200031787828801620001e6565b91505092959194509250565b600081519050919050565b7f4e487b7100000000000000000000000000000000000000000000000000000000600052602260045260246000fd5b600060028204905060018216806200037657607f821691505b6020821081036200038c576200038b6200032e565b5b50919050565b60008190508160005260206000209050919050565b60006020601f8301049050919050565b600082821b905092915050565b600060088302620003f67fffffffffffffffffffffffffffffffffffffffffffffffffffffffffffffffff82620003b7565b620004028683620003b7565b95508019841693508086168417925050509392505050565b6000819050919050565b6000620004456200043f620004398462000219565b6200041a565b62000219565b9050919050565b6000819050919050565b620004618362000424565b6200047962000470826200044c565b848454620003c4565b825550505050565b600090565b6200049062000481565b6200049d81848462000456565b505050565b5b81811015620004c557620004b960008262000486565b600181019050620004a3565b5050565b601f8211156200051457620004de8162000392565b620004e984620003a7565b81016020851015620004f9578190505b620005116200050885620003a7565b830182620004a2565b50505b505050565b600082821c905092915050565b6000620005396000198460080262000519565b1980831691505092915050565b600062000554838362000526565b9150826002028217905092915050565b6200056f8262000323565b67ffffffffffffffff8111156200058b576200058a620000b5565b5b6200059782546200035d565b620005a4828285620004c9565b600060209050601f831160018114620005dc5760008415620005c7578287015190505b620005d3858262000546565b86555062000643565b601f198416620005ec8662000392565b60005b828110156200061657848901518255600182019150602085019450602081019050620005ef565b8683101562000636578489015162000632601f89168262000526565b8355505b6001600288020188555050505b505050505050565b61058f806200065b6000396000f3fe608060405234801561001057600080fd5b506004361061007d5760003560e01c8063d21e19931161005b578063d21e1993146100ee578063e8311f841461010c578063f32697161461012a578063f64eeab6146101485761007d565b80630ad9d052146100825780631e006929146100a0578063c6dad082146100d0575b600080fd5b61008a610166565b60405161009791906103d4565b60405180910390f35b6100ba60048036038101906100b59190610431565b6101f4565b6040516100c7919061046d565b60405180910390f35b6100d8610210565b6040516100e591906103d4565b60405180910390f35b6100f661029e565b604051610103919061046d565b60405180910390f35b6101146102a7565b60405161012191906103d4565b60405180910390f35b610132610335565b60405161013f919061046d565b60405180910390f35b61015061033b565b60405161015d919061046d565b60405180910390f35b60018054610173906104b7565b80601f016020809104026020016040519081016040528092919081815260200182805461019f906104b7565b80156101ec5780601f106101c1576101008083540402835291602001916101ec565b820191906000526020600020905b8154815290600101906020018083116101cf57829003601f168201915b505050505081565b60006101fe61033b565b826102099190610517565b9050919050565b6000805461021d906104b7565b80601f0160208091040260200160405190810160405280929190818152602001828054610249906104b7565b80156102965780601f1061026b57610100808354040283529160200191610296565b820191906000526020600020905b81548152906001019060200180831161027957829003601f168201915b505050505081565b600060b4905090565b600380546102b4906104b7565b80601f01602080910402602001604051908101604052809291908181526020018280546102e0906104b7565b801561032d5780601f106103025761010080835404028352916020019161032d565b820191906000526020600020905b81548152906001019060200180831161031057829003601f168201915b505050505081565b60025481565b6000600f905090565b600081519050919050565b600082825260208201905092915050565b60005b8381101561037e578082015181840152602081019050610363565b60008484015250505050565b6000601f19601f8301169050919050565b60006103a682610344565b6103b0818561034f565b93506103c0818560208601610360565b6103c98161038a565b840191505092915050565b600060208201905081810360008301526103ee818461039b565b905092915050565b600080fd5b6000819050919050565b61040e816103fb565b811461041957600080fd5b50565b60008135905061042b81610405565b92915050565b600060208284031215610447576104466103f6565b5b60006104558482850161041c565b91505092915050565b610467816103fb565b82525050565b6000602082019050610482600083018461045e565b92915050565b7f4e487b7100000000000000000000000000000000000000000000000000000000600052602260045260246000fd5b600060028204905060018216806104cf57607f821691505b6020821081036104e2576104e1610488565b5b50919050565b7f4e487b7100000000000000000000000000000000000000000000000000000000600052601160045260246000fd5b6000610522826103fb565b915061052d836103fb565b925082820261053b816103fb565b91508282048414831517610552576105516104e8565b5b509291505056fea2646970667358221220c5964247da74c6fddafef3fa831ed11caf83557da187170b9da977781b1ef33664736f6c63430008120033",
					"opcodes": "PUSH1 0x80 PUSH1 0x40 MSTORE CALLVALUE DUP1 ISZERO PUSH3 0x11 JUMPI PUSH1 0x0 DUP1 REVERT JUMPDEST POP PUSH1 0x40 MLOAD PUSH3 0xBEA CODESIZE SUB DUP1 PUSH3 0xBEA DUP4 CODECOPY DUP2 DUP2 ADD PUSH1 0x40 MSTORE DUP2 ADD SWAP1 PUSH3 0x37 SWAP2 SWAP1 PUSH3 0x254 JUMP JUMPDEST DUP4 DUP4 DUP4 DUP4 DUP4 PUSH1 0x0 SWAP1 DUP2 PUSH3 0x4C SWAP2 SWAP1 PUSH3 0x564 JUMP JUMPDEST POP DUP3 PUSH1 0x1 SWAP1 DUP2 PUSH3 0x5E SWAP2 SWAP1 PUSH3 0x564 JUMP JUMPDEST POP DUP2 PUSH1 0x2 DUP2 SWAP1 SSTORE POP DUP1 PUSH1 0x3 SWAP1 DUP2 PUSH3 0x77 SWAP2 SWAP1 PUSH3 0x564 JUMP JUMPDEST POP POP POP POP POP POP POP POP POP PUSH3 0x64B JUMP JUMPDEST PUSH1 0x0 PUSH1 0x40 MLOAD SWAP1 POP SWAP1 JUMP JUMPDEST PUSH1 0x0 DUP1 REVERT JUMPDEST PUSH1 0x0 DUP1 REVERT JUMPDEST PUSH1 0x0 DUP1 REVERT JUMPDEST PUSH1 0x0 DUP1 REVERT JUMPDEST PUSH1 0x0 PUSH1 0x1F NOT PUSH1 0x1F DUP4 ADD AND SWAP1 POP SWAP2 SWAP1 POP JUMP JUMPDEST PUSH32 0x4E487B7100000000000000000000000000000000000000000000000000000000 PUSH1 0x0 MSTORE PUSH1 0x41 PUSH1 0x4 MSTORE PUSH1 0x24 PUSH1 0x0 REVERT JUMPDEST PUSH3 0xEF DUP3 PUSH3 0xA4 JUMP JUMPDEST DUP2 ADD DUP2 DUP2 LT PUSH8 0xFFFFFFFFFFFFFFFF DUP3 GT OR ISZERO PUSH3 0x111 JUMPI PUSH3 0x110 PUSH3 0xB5 JUMP JUMPDEST JUMPDEST DUP1 PUSH1 0x40 MSTORE POP POP POP JUMP JUMPDEST PUSH1 0x0 PUSH3 0x126 PUSH3 0x86 JUMP JUMPDEST SWAP1 POP PUSH3 0x134 DUP3 DUP3 PUSH3 0xE4 JUMP JUMPDEST SWAP2 SWAP1 POP JUMP JUMPDEST PUSH1 0x0 PUSH8 0xFFFFFFFFFFFFFFFF DUP3 GT ISZERO PUSH3 0x157 JUMPI PUSH3 0x156 PUSH3 0xB5 JUMP JUMPDEST JUMPDEST PUSH3 0x162 DUP3 PUSH3 0xA4 JUMP JUMPDEST SWAP1 POP PUSH1 0x20 DUP2 ADD SWAP1 POP SWAP2 SWAP1 POP JUMP JUMPDEST PUSH1 0x0 JUMPDEST DUP4 DUP2 LT ISZERO PUSH3 0x18F JUMPI DUP1 DUP3 ADD MLOAD DUP2 DUP5 ADD MSTORE PUSH1 0x20 DUP2 ADD SWAP1 POP PUSH3 0x172 JUMP JUMPDEST PUSH1 0x0 DUP5 DUP5 ADD MSTORE POP POP POP POP JUMP JUMPDEST PUSH1 0x0 PUSH3 0x1B2 PUSH3 0x1AC DUP5 PUSH3 0x139 JUMP JUMPDEST PUSH3 0x11A JUMP JUMPDEST SWAP1 POP DUP3 DUP2 MSTORE PUSH1 0x20 DUP2 ADD DUP5 DUP5 DUP5 ADD GT ISZERO PUSH3 0x1D1 JUMPI PUSH3 0x1D0 PUSH3 0x9F JUMP JUMPDEST JUMPDEST PUSH3 0x1DE DUP5 DUP3 DUP6 PUSH3 0x16F JUMP JUMPDEST POP SWAP4 SWAP3 POP POP POP JUMP JUMPDEST PUSH1 0x0 DUP3 PUSH1 0x1F DUP4 ADD SLT PUSH3 0x1FE JUMPI PUSH3 0x1FD PUSH3 0x9A JUMP JUMPDEST JUMPDEST DUP2 MLOAD PUSH3 0x210 DUP5 DUP3 PUSH1 0x20 DUP7 ADD PUSH3 0x19B JUMP JUMPDEST SWAP2 POP POP SWAP3 SWAP2 POP POP JUMP JUMPDEST PUSH1 0x0 DUP2 SWAP1 POP SWAP2 SWAP1 POP JUMP JUMPDEST PUSH3 0x22E DUP2 PUSH3 0x219 JUMP JUMPDEST DUP2 EQ PUSH3 0x23A JUMPI PUSH1 0x0 DUP1 REVERT JUMPDEST POP JUMP JUMPDEST PUSH1 0x0 DUP2 MLOAD SWAP1 POP PUSH3 0x24E DUP2 PUSH3 0x223 JUMP JUMPDEST SWAP3 SWAP2 POP POP JUMP JUMPDEST PUSH1 0x0 DUP1 PUSH1 0x0 DUP1 PUSH1 0x80 DUP6 DUP8 SUB SLT ISZERO PUSH3 0x271 JUMPI PUSH3 0x270 PUSH3 0x90 JUMP JUMPDEST JUMPDEST PUSH1 0x0 DUP6 ADD MLOAD PUSH8 0xFFFFFFFFFFFFFFFF DUP2 GT ISZERO PUSH3 0x292 JUMPI PUSH3 0x291 PUSH3 0x95 JUMP JUMPDEST JUMPDEST PUSH3 0x2A0 DUP8 DUP3 DUP9 ADD PUSH3 0x1E6 JUMP JUMPDEST SWAP5 POP POP PUSH1 0x20 DUP6 ADD MLOAD PUSH8 0xFFFFFFFFFFFFFFFF DUP2 GT ISZERO PUSH3 0x2C4 JUMPI PUSH3 0x2C3 PUSH3 0x95 JUMP JUMPDEST JUMPDEST PUSH3 0x2D2 DUP8 DUP3 DUP9 ADD PUSH3 0x1E6 JUMP JUMPDEST SWAP4 POP POP PUSH1 0x40 PUSH3 0x2E5 DUP8 DUP3 DUP9 ADD PUSH3 0x23D JUMP JUMPDEST SWAP3 POP POP PUSH1 0x60 DUP6 ADD MLOAD PUSH8 0xFFFFFFFFFFFFFFFF DUP2 GT ISZERO PUSH3 0x309 JUMPI PUSH3 0x308 PUSH3 0x95 JUMP JUMPDEST JUMPDEST PUSH3 0x317 DUP8 DUP3 DUP9 ADD PUSH3 0x1E6 JUMP JUMPDEST SWAP2 POP POP SWAP3 SWAP6 SWAP2 SWAP5 POP SWAP3 POP JUMP JUMPDEST PUSH1 0x0 DUP2 MLOAD SWAP1 POP SWAP2 SWAP1 POP JUMP JUMPDEST PUSH32 0x4E487B7100000000000000000000000000000000000000000000000000000000 PUSH1 0x0 MSTORE PUSH1 0x22 PUSH1 0x4 MSTORE PUSH1 0x24 PUSH1 0x0 REVERT JUMPDEST PUSH1 0x0 PUSH1 0x2 DUP3 DIV SWAP1 POP PUSH1 0x1 DUP3 AND DUP1 PUSH3 0x376 JUMPI PUSH1 0x7F DUP3 AND SWAP2 POP JUMPDEST PUSH1 0x20 DUP3 LT DUP2 SUB PUSH3 0x38C JUMPI PUSH3 0x38B PUSH3 0x32E JUMP JUMPDEST JUMPDEST POP SWAP2 SWAP1 POP JUMP JUMPDEST PUSH1 0x0 DUP2 SWAP1 POP DUP2 PUSH1 0x0 MSTORE PUSH1 0x20 PUSH1 0x0 KECCAK256 SWAP1 POP SWAP2 SWAP1 POP JUMP JUMPDEST PUSH1 0x0 PUSH1 0x20 PUSH1 0x1F DUP4 ADD DIV SWAP1 POP SWAP2 SWAP1 POP JUMP JUMPDEST PUSH1 0x0 DUP3 DUP3 SHL SWAP1 POP SWAP3 SWAP2 POP POP JUMP JUMPDEST PUSH1 0x0 PUSH1 0x8 DUP4 MUL PUSH3 0x3F6 PUSH32 0xFFFFFFFFFFFFFFFFFFFFFFFFFFFFFFFFFFFFFFFFFFFFFFFFFFFFFFFFFFFFFFFF DUP3 PUSH3 0x3B7 JUMP JUMPDEST PUSH3 0x402 DUP7 DUP4 PUSH3 0x3B7 JUMP JUMPDEST SWAP6 POP DUP1 NOT DUP5 AND SWAP4 POP DUP1 DUP7 AND DUP5 OR SWAP3 POP POP POP SWAP4 SWAP3 POP POP POP JUMP JUMPDEST PUSH1 0x0 DUP2 SWAP1 POP SWAP2 SWAP1 POP JUMP JUMPDEST PUSH1 0x0 PUSH3 0x445 PUSH3 0x43F PUSH3 0x439 DUP5 PUSH3 0x219 JUMP JUMPDEST PUSH3 0x41A JUMP JUMPDEST PUSH3 0x219 JUMP JUMPDEST SWAP1 POP SWAP2 SWAP1 POP JUMP JUMPDEST PUSH1 0x0 DUP2 SWAP1 POP SWAP2 SWAP1 POP JUMP JUMPDEST PUSH3 0x461 DUP4 PUSH3 0x424 JUMP JUMPDEST PUSH3 0x479 PUSH3 0x470 DUP3 PUSH3 0x44C JUMP JUMPDEST DUP5 DUP5 SLOAD PUSH3 0x3C4 JUMP JUMPDEST DUP3 SSTORE POP POP POP POP JUMP JUMPDEST PUSH1 0x0 SWAP1 JUMP JUMPDEST PUSH3 0x490 PUSH3 0x481 JUMP JUMPDEST PUSH3 0x49D DUP2 DUP5 DUP5 PUSH3 0x456 JUMP JUMPDEST POP POP POP JUMP JUMPDEST JUMPDEST DUP2 DUP2 LT ISZERO PUSH3 0x4C5 JUMPI PUSH3 0x4B9 PUSH1 0x0 DUP3 PUSH3 0x486 JUMP JUMPDEST PUSH1 0x1 DUP2 ADD SWAP1 POP PUSH3 0x4A3 JUMP JUMPDEST POP POP JUMP JUMPDEST PUSH1 0x1F DUP3 GT ISZERO PUSH3 0x514 JUMPI PUSH3 0x4DE DUP2 PUSH3 0x392 JUMP JUMPDEST PUSH3 0x4E9 DUP5 PUSH3 0x3A7 JUMP JUMPDEST DUP2 ADD PUSH1 0x20 DUP6 LT ISZERO PUSH3 0x4F9 JUMPI DUP2 SWAP1 POP JUMPDEST PUSH3 0x511 PUSH3 0x508 DUP6 PUSH3 0x3A7 JUMP JUMPDEST DUP4 ADD DUP3 PUSH3 0x4A2 JUMP JUMPDEST POP POP JUMPDEST POP POP POP JUMP JUMPDEST PUSH1 0x0 DUP3 DUP3 SHR SWAP1 POP SWAP3 SWAP2 POP POP JUMP JUMPDEST PUSH1 0x0 PUSH3 0x539 PUSH1 0x0 NOT DUP5 PUSH1 0x8 MUL PUSH3 0x519 JUMP JUMPDEST NOT DUP1 DUP4 AND SWAP2 POP POP SWAP3 SWAP2 POP POP JUMP JUMPDEST PUSH1 0x0 PUSH3 0x554 DUP4 DUP4 PUSH3 0x526 JUMP JUMPDEST SWAP2 POP DUP3 PUSH1 0x2 MUL DUP3 OR SWAP1 POP SWAP3 SWAP2 POP POP JUMP JUMPDEST PUSH3 0x56F DUP3 PUSH3 0x323 JUMP JUMPDEST PUSH8 0xFFFFFFFFFFFFFFFF DUP2 GT ISZERO PUSH3 0x58B JUMPI PUSH3 0x58A PUSH3 0xB5 JUMP JUMPDEST JUMPDEST PUSH3 0x597 DUP3 SLOAD PUSH3 0x35D JUMP JUMPDEST PUSH3 0x5A4 DUP3 DUP3 DUP6 PUSH3 0x4C9 JUMP JUMPDEST PUSH1 0x0 PUSH1 0x20 SWAP1 POP PUSH1 0x1F DUP4 GT PUSH1 0x1 DUP2 EQ PUSH3 0x5DC JUMPI PUSH1 0x0 DUP5 ISZERO PUSH3 0x5C7 JUMPI DUP3 DUP8 ADD MLOAD SWAP1 POP JUMPDEST PUSH3 0x5D3 DUP6 DUP3 PUSH3 0x546 JUMP JUMPDEST DUP7 SSTORE POP PUSH3 0x643 JUMP JUMPDEST PUSH1 0x1F NOT DUP5 AND PUSH3 0x5EC DUP7 PUSH3 0x392 JUMP JUMPDEST PUSH1 0x0 JUMPDEST DUP3 DUP2 LT ISZERO PUSH3 0x616 JUMPI DUP5 DUP10 ADD MLOAD DUP3 SSTORE PUSH1 0x1 DUP3 ADD SWAP2 POP PUSH1 0x20 DUP6 ADD SWAP5 POP PUSH1 0x20 DUP2 ADD SWAP1 POP PUSH3 0x5EF JUMP JUMPDEST DUP7 DUP4 LT ISZERO PUSH3 0x636 JUMPI DUP5 DUP10 ADD MLOAD PUSH3 0x632 PUSH1 0x1F DUP10 AND DUP3 PUSH3 0x526 JUMP JUMPDEST DUP4 SSTORE POP JUMPDEST PUSH1 0x1 PUSH1 0x2 DUP9 MUL ADD DUP9 SSTORE POP POP POP JUMPDEST POP POP POP POP POP POP JUMP JUMPDEST PUSH2 0x58F DUP1 PUSH3 0x65B PUSH1 0x0 CODECOPY PUSH1 0x0 RETURN INVALID PUSH1 0x80 PUSH1 0x40 MSTORE CALLVALUE DUP1 ISZERO PUSH2 0x10 JUMPI PUSH1 0x0 DUP1 REVERT JUMPDEST POP PUSH1 0x4 CALLDATASIZE LT PUSH2 0x7D JUMPI PUSH1 0x0 CALLDATALOAD PUSH1 0xE0 SHR DUP1 PUSH4 0xD21E1993 GT PUSH2 0x5B JUMPI DUP1 PUSH4 0xD21E1993 EQ PUSH2 0xEE JUMPI DUP1 PUSH4 0xE8311F84 EQ PUSH2 0x10C JUMPI DUP1 PUSH4 0xF3269716 EQ PUSH2 0x12A JUMPI DUP1 PUSH4 0xF64EEAB6 EQ PUSH2 0x148 JUMPI PUSH2 0x7D JUMP JUMPDEST DUP1 PUSH4 0xAD9D052 EQ PUSH2 0x82 JUMPI DUP1 PUSH4 0x1E006929 EQ PUSH2 0xA0 JUMPI DUP1 PUSH4 0xC6DAD082 EQ PUSH2 0xD0 JUMPI JUMPDEST PUSH1 0x0 DUP1 REVERT JUMPDEST PUSH2 0x8A PUSH2 0x166 JUMP JUMPDEST PUSH1 0x40 MLOAD PUSH2 0x97 SWAP2 SWAP1 PUSH2 0x3D4 JUMP JUMPDEST PUSH1 0x40 MLOAD DUP1 SWAP2 SUB SWAP1 RETURN JUMPDEST PUSH2 0xBA PUSH1 0x4 DUP1 CALLDATASIZE SUB DUP2 ADD SWAP1 PUSH2 0xB5 SWAP2 SWAP1 PUSH2 0x431 JUMP JUMPDEST PUSH2 0x1F4 JUMP JUMPDEST PUSH1 0x40 MLOAD PUSH2 0xC7 SWAP2 SWAP1 PUSH2 0x46D JUMP JUMPDEST PUSH1 0x40 MLOAD DUP1 SWAP2 SUB SWAP1 RETURN JUMPDEST PUSH2 0xD8 PUSH2 0x210 JUMP JUMPDEST PUSH1 0x40 MLOAD PUSH2 0xE5 SWAP2 SWAP1 PUSH2 0x3D4 JUMP JUMPDEST PUSH1 0x40 MLOAD DUP1 SWAP2 SUB SWAP1 RETURN JUMPDEST PUSH2 0xF6 PUSH2 0x29E JUMP JUMPDEST PUSH1 0x40 MLOAD PUSH2 0x103 SWAP2 SWAP1 PUSH2 0x46D JUMP JUMPDEST PUSH1 0x40 MLOAD DUP1 SWAP2 SUB SWAP1 RETURN JUMPDEST PUSH2 0x114 PUSH2 0x2A7 JUMP JUMPDEST PUSH1 0x40 MLOAD PUSH2 0x121 SWAP2 SWAP1 PUSH2 0x3D4 JUMP JUMPDEST PUSH1 0x40 MLOAD DUP1 SWAP2 SUB SWAP1 RETURN JUMPDEST PUSH2 0x132 PUSH2 0x335 JUMP JUMPDEST PUSH1 0x40 MLOAD PUSH2 0x13F SWAP2 SWAP1 PUSH2 0x46D JUMP JUMPDEST PUSH1 0x40 MLOAD DUP1 SWAP2 SUB SWAP1 RETURN JUMPDEST PUSH2 0x150 PUSH2 0x33B JUMP JUMPDEST PUSH1 0x40 MLOAD PUSH2 0x15D SWAP2 SWAP1 PUSH2 0x46D JUMP JUMPDEST PUSH1 0x40 MLOAD DUP1 SWAP2 SUB SWAP1 RETURN JUMPDEST PUSH1 0x1 DUP1 SLOAD PUSH2 0x173 SWAP1 PUSH2 0x4B7 JUMP JUMPDEST DUP1 PUSH1 0x1F ADD PUSH1 0x20 DUP1 SWAP2 DIV MUL PUSH1 0x20 ADD PUSH1 0x40 MLOAD SWAP1 DUP2 ADD PUSH1 0x40 MSTORE DUP1 SWAP3 SWAP2 SWAP1 DUP2 DUP2 MSTORE PUSH1 0x20 ADD DUP3 DUP1 SLOAD PUSH2 0x19F SWAP1 PUSH2 0x4B7 JUMP JUMPDEST DUP1 ISZERO PUSH2 0x1EC JUMPI DUP1 PUSH1 0x1F LT PUSH2 0x1C1 JUMPI PUSH2 0x100 DUP1 DUP4 SLOAD DIV MUL DUP4 MSTORE SWAP2 PUSH1 0x20 ADD SWAP2 PUSH2 0x1EC JUMP JUMPDEST DUP3 ADD SWAP2 SWAP1 PUSH1 0x0 MSTORE PUSH1 0x20 PUSH1 0x0 KECCAK256 SWAP1 JUMPDEST DUP2 SLOAD DUP2 MSTORE SWAP1 PUSH1 0x1 ADD SWAP1 PUSH1 0x20 ADD DUP1 DUP4 GT PUSH2 0x1CF JUMPI DUP3 SWAP1 SUB PUSH1 0x1F AND DUP3 ADD SWAP2 JUMPDEST POP POP POP POP POP DUP2 JUMP JUMPDEST PUSH1 0x0 PUSH2 0x1FE PUSH2 0x33B JUMP JUMPDEST DUP3 PUSH2 0x209 SWAP2 SWAP1 PUSH2 0x517 JUMP JUMPDEST SWAP1 POP SWAP2 SWAP1 POP JUMP JUMPDEST PUSH1 0x0 DUP1 SLOAD PUSH2 0x21D SWAP1 PUSH2 0x4B7 JUMP JUMPDEST DUP1 PUSH1 0x1F ADD PUSH1 0x20 DUP1 SWAP2 DIV MUL PUSH1 0x20 ADD PUSH1 0x40 MLOAD SWAP1 DUP2 ADD PUSH1 0x40 MSTORE DUP1 SWAP3 SWAP2 SWAP1 DUP2 DUP2 MSTORE PUSH1 0x20 ADD DUP3 DUP1 SLOAD PUSH2 0x249 SWAP1 PUSH2 0x4B7 JUMP JUMPDEST DUP1 ISZERO PUSH2 0x296 JUMPI DUP1 PUSH1 0x1F LT PUSH2 0x26B JUMPI PUSH2 0x100 DUP1 DUP4 SLOAD DIV MUL DUP4 MSTORE SWAP2 PUSH1 0x20 ADD SWAP2 PUSH2 0x296 JUMP JUMPDEST DUP3 ADD SWAP2 SWAP1 PUSH1 0x0 MSTORE PUSH1 0x20 PUSH1 0x0 KECCAK256 SWAP1 JUMPDEST DUP2 SLOAD DUP2 MSTORE SWAP1 PUSH1 0x1 ADD SWAP1 PUSH1 0x20 ADD DUP1 DUP4 GT PUSH2 0x279 JUMPI DUP3 SWAP1 SUB PUSH1 0x1F AND DUP3 ADD SWAP2 JUMPDEST POP POP POP POP POP DUP2 JUMP JUMPDEST PUSH1 0x0 PUSH1 0xB4 SWAP1 POP SWAP1 JUMP JUMPDEST PUSH1 0x3 DUP1 SLOAD PUSH2 0x2B4 SWAP1 PUSH2 0x4B7 JUMP JUMPDEST DUP1 PUSH1 0x1F ADD PUSH1 0x20 DUP1 SWAP2 DIV MUL PUSH1 0x20 ADD PUSH1 0x40 MLOAD SWAP1 DUP2 ADD PUSH1 0x40 MSTORE DUP1 SWAP3 SWAP2 SWAP1 DUP2 DUP2 MSTORE PUSH1 0x20 ADD DUP3 DUP1 SLOAD PUSH2 0x2E0 SWAP1 PUSH2 0x4B7 JUMP JUMPDEST DUP1 ISZERO PUSH2 0x32D JUMPI DUP1 PUSH1 0x1F LT PUSH2 0x302 JUMPI PUSH2 0x100 DUP1 DUP4 SLOAD DIV MUL DUP4 MSTORE SWAP2 PUSH1 0x20 ADD SWAP2 PUSH2 0x32D JUMP JUMPDEST DUP3 ADD SWAP2 SWAP1 PUSH1 0x0 MSTORE PUSH1 0x20 PUSH1 0x0 KECCAK256 SWAP1 JUMPDEST DUP2 SLOAD DUP2 MSTORE SWAP1 PUSH1 0x1 ADD SWAP1 PUSH1 0x20 ADD DUP1 DUP4 GT PUSH2 0x310 JUMPI DUP3 SWAP1 SUB PUSH1 0x1F AND DUP3 ADD SWAP2 JUMPDEST POP POP POP POP POP DUP2 JUMP JUMPDEST PUSH1 0x2 SLOAD DUP2 JUMP JUMPDEST PUSH1 0x0 PUSH1 0xF SWAP1 POP SWAP1 JUMP JUMPDEST PUSH1 0x0 DUP2 MLOAD SWAP1 POP SWAP2 SWAP1 POP JUMP JUMPDEST PUSH1 0x0 DUP3 DUP3 MSTORE PUSH1 0x20 DUP3 ADD SWAP1 POP SWAP3 SWAP2 POP POP JUMP JUMPDEST PUSH1 0x0 JUMPDEST DUP4 DUP2 LT ISZERO PUSH2 0x37E JUMPI DUP1 DUP3 ADD MLOAD DUP2 DUP5 ADD MSTORE PUSH1 0x20 DUP2 ADD SWAP1 POP PUSH2 0x363 JUMP JUMPDEST PUSH1 0x0 DUP5 DUP5 ADD MSTORE POP POP POP POP JUMP JUMPDEST PUSH1 0x0 PUSH1 0x1F NOT PUSH1 0x1F DUP4 ADD AND SWAP1 POP SWAP2 SWAP1 POP JUMP JUMPDEST PUSH1 0x0 PUSH2 0x3A6 DUP3 PUSH2 0x344 JUMP JUMPDEST PUSH2 0x3B0 DUP2 DUP6 PUSH2 0x34F JUMP JUMPDEST SWAP4 POP PUSH2 0x3C0 DUP2 DUP6 PUSH1 0x20 DUP7 ADD PUSH2 0x360 JUMP JUMPDEST PUSH2 0x3C9 DUP2 PUSH2 0x38A JUMP JUMPDEST DUP5 ADD SWAP2 POP POP SWAP3 SWAP2 POP POP JUMP JUMPDEST PUSH1 0x0 PUSH1 0x20 DUP3 ADD SWAP1 POP DUP2 DUP2 SUB PUSH1 0x0 DUP4 ADD MSTORE PUSH2 0x3EE DUP2 DUP5 PUSH2 0x39B JUMP JUMPDEST SWAP1 POP SWAP3 SWAP2 POP POP JUMP JUMPDEST PUSH1 0x0 DUP1 REVERT JUMPDEST PUSH1 0x0 DUP2 SWAP1 POP SWAP2 SWAP1 POP JUMP JUMPDEST PUSH2 0x40E DUP2 PUSH2 0x3FB JUMP JUMPDEST DUP2 EQ PUSH2 0x419 JUMPI PUSH1 0x0 DUP1 REVERT JUMPDEST POP JUMP JUMPDEST PUSH1 0x0 DUP2 CALLDATALOAD SWAP1 POP PUSH2 0x42B DUP2 PUSH2 0x405 JUMP JUMPDEST SWAP3 SWAP2 POP POP JUMP JUMPDEST PUSH1 0x0 PUSH1 0x20 DUP3 DUP5 SUB SLT ISZERO PUSH2 0x447 JUMPI PUSH2 0x446 PUSH2 0x3F6 JUMP JUMPDEST JUMPDEST PUSH1 0x0 PUSH2 0x455 DUP5 DUP3 DUP6 ADD PUSH2 0x41C JUMP JUMPDEST SWAP2 POP POP SWAP3 SWAP2 POP POP JUMP JUMPDEST PUSH2 0x467 DUP2 PUSH2 0x3FB JUMP JUMPDEST DUP3 MSTORE POP POP JUMP JUMPDEST PUSH1 0x0 PUSH1 0x20 DUP3 ADD SWAP1 POP PUSH2 0x482 PUSH1 0x0 DUP4 ADD DUP5 PUSH2 0x45E JUMP JUMPDEST SWAP3 SWAP2 POP POP JUMP JUMPDEST PUSH32 0x4E487B7100000000000000000000000000000000000000000000000000000000 PUSH1 0x0 MSTORE PUSH1 0x22 PUSH1 0x4 MSTORE PUSH1 0x24 PUSH1 0x0 REVERT JUMPDEST PUSH1 0x0 PUSH1 0x2 DUP3 DIV SWAP1 POP PUSH1 0x1 DUP3 AND DUP1 PUSH2 0x4CF JUMPI PUSH1 0x7F DUP3 AND SWAP2 POP JUMPDEST PUSH1 0x20 DUP3 LT DUP2 SUB PUSH2 0x4E2 JUMPI PUSH2 0x4E1 PUSH2 0x488 JUMP JUMPDEST JUMPDEST POP SWAP2 SWAP1 POP JUMP JUMPDEST PUSH32 0x4E487B7100000000000000000000000000000000000000000000000000000000 PUSH1 0x0 MSTORE PUSH1 0x11 PUSH1 0x4 MSTORE PUSH1 0x24 PUSH1 0x0 REVERT JUMPDEST PUSH1 0x0 PUSH2 0x522 DUP3 PUSH2 0x3FB JUMP JUMPDEST SWAP2 POP PUSH2 0x52D DUP4 PUSH2 0x3FB JUMP JUMPDEST SWAP3 POP DUP3 DUP3 MUL PUSH2 0x53B DUP2 PUSH2 0x3FB JUMP JUMPDEST SWAP2 POP DUP3 DUP3 DIV DUP5 EQ DUP4 ISZERO OR PUSH2 0x552 JUMPI PUSH2 0x551 PUSH2 0x4E8 JUMP JUMPDEST JUMPDEST POP SWAP3 SWAP2 POP POP JUMP INVALID LOG2 PUSH5 0x6970667358 0x22 SLT KECCAK256 0xC5 SWAP7 TIMESTAMP SELFBALANCE 0xDA PUSH21 0xC6FDDAFEF3FA831ED11CAF83557DA187170B9DA977 PUSH25 0x1B1EF33664736F6C6343000812003300000000000000000000 "
				},
				"gasEstimates": {
					"creation": {
						"codeDepositCost": "284600",
						"executionCost": "infinite",
						"totalCost": "infinite"
					},
					"external": {
						"distanceTraveled(uint256)": "infinite",
						"fuelEfficiency()": "403",
						"fuelType()": "infinite",
						"make()": "infinite",
						"maxSpeed()": "337",
						"model()": "infinite",
						"year()": "2473"
					}
				},
				"methodIdentifiers": {
					"distanceTraveled(uint256)": "1e006929",
					"fuelEfficiency()": "f64eeab6",
					"fuelType()": "e8311f84",
					"make()": "c6dad082",
					"maxSpeed()": "d21e1993",
					"model()": "0ad9d052",
					"year()": "f3269716"
				}
			},
			"storageLayout": {
				"storage": [
					{
						"astId": 3,
						"contract": "Day-06/D6P2.sol:Car",
						"label": "make",
						"offset": 0,
						"slot": "0",
						"type": "t_string_storage"
					},
					{
						"astId": 5,
						"contract": "Day-06/D6P2.sol:Car",
						"label": "model",
						"offset": 0,
						"slot": "1",
						"type": "t_string_storage"
					},
					{
						"astId": 7,
						"contract": "Day-06/D6P2.sol:Car",
						"label": "year",
						"offset": 0,
						"slot": "2",
						"type": "t_uint256"
					},
					{
						"astId": 9,
						"contract": "Day-06/D6P2.sol:Car",
						"label": "fuelType",
						"offset": 0,
						"slot": "3",
						"type": "t_string_storage"
					}
				],
				"types": {
					"t_string_storage": {
						"encoding": "bytes",
						"label": "string",
						"numberOfBytes": "32"
					},
					"t_uint256": {
						"encoding": "inplace",
						"label": "uint256",
						"numberOfBytes": "32"
					}
				}
			},
			"userdoc": {
				"kind": "user",
				"methods": {},
				"version": 1
			}
		}
	}
}