{
	"Day-06/D6P1.sol": {
		"MathLibrary": {
			"abi": [
				{
					"inputs": [
						{
							"internalType": "uint256",
							"name": "n",
							"type": "uint256"
						}
					],
					"name": "factorial",
					"outputs": [
						{
							"internalType": "uint256",
							"name": "",
							"type": "uint256"
						}
					],
					"stateMutability": "pure",
					"type": "function"
				},
				{
					"inputs": [
						{
							"internalType": "uint256",
							"name": "n",
							"type": "uint256"
						}
					],
					"name": "fibonacci",
					"outputs": [
						{
							"internalType": "uint256",
							"name": "",
							"type": "uint256"
						}
					],
					"stateMutability": "pure",
					"type": "function"
				},
				{
					"inputs": [
						{
							"internalType": "uint256",
							"name": "n",
							"type": "uint256"
						}
					],
					"name": "fibonacciSeries",
					"outputs": [
						{
							"internalType": "uint256[]",
							"name": "",
							"type": "uint256[]"
						}
					],
					"stateMutability": "pure",
					"type": "function"
				},
				{
					"inputs": [
						{
							"internalType": "uint256",
							"name": "n",
							"type": "uint256"
						}
					],
					"name": "isArmstrong",
					"outputs": [
						{
							"internalType": "bool",
							"name": "",
							"type": "bool"
						}
					],
					"stateMutability": "pure",
					"type": "function"
				},
				{
					"inputs": [
						{
							"internalType": "uint256",
							"name": "a",
							"type": "uint256"
						},
						{
							"internalType": "uint256",
							"name": "b",
							"type": "uint256"
						}
					],
					"name": "max",
					"outputs": [
						{
							"internalType": "uint256",
							"name": "",
							"type": "uint256"
						}
					],
					"stateMutability": "pure",
					"type": "function"
				},
				{
					"inputs": [
						{
							"internalType": "uint256",
							"name": "a",
							"type": "uint256"
						},
						{
							"internalType": "uint256",
							"name": "b",
							"type": "uint256"
						}
					],
					"name": "min",
					"outputs": [
						{
							"internalType": "uint256",
							"name": "",
							"type": "uint256"
						}
					],
					"stateMutability": "pure",
					"type": "function"
				}
			],
			"devdoc": {
				"kind": "dev",
				"methods": {},
				"version": 1
			},
			"evm": {
				"assembly": "    /* \"Day-06/D6P1.sol\":104:3405  library MathLibrary {... */\n  dataSize(sub_0)\n  dataOffset(sub_0)\n  0x0b\n  dup3\n  dup3\n  dup3\n  codecopy\n  dup1\n  mload\n  0x00\n  byte\n  0x73\n  eq\n  tag_1\n  jumpi\n  mstore(0x00, 0x4e487b7100000000000000000000000000000000000000000000000000000000)\n  mstore(0x04, 0x00)\n  revert(0x00, 0x24)\ntag_1:\n  mstore(0x00, address)\n  0x73\n  dup2\n  mstore8\n  dup3\n  dup2\n  return\nstop\n\nsub_0: assembly {\n        /* \"Day-06/D6P1.sol\":104:3405  library MathLibrary {... */\n      eq(address, deployTimeAddress())\n      mstore(0x40, 0x80)\n      jumpi(tag_1, lt(calldatasize, 0x04))\n      shr(0xe0, calldataload(0x00))\n      dup1\n      0x1b35b490\n      eq\n      tag_2\n      jumpi\n      dup1\n      0x61047ff4\n      eq\n      tag_3\n      jumpi\n      dup1\n      0x6d5433e6\n      eq\n      tag_4\n      jumpi\n      dup1\n      0x7ae2b5c7\n      eq\n      tag_5\n      jumpi\n      dup1\n      0x83714834\n      eq\n      tag_6\n      jumpi\n      dup1\n      0xfe459d20\n      eq\n      tag_7\n      jumpi\n    tag_1:\n      0x00\n      dup1\n      revert\n        /* \"Day-06/D6P1.sol\":1595:2126  function fibonacciSeries(uint256 n) public pure returns (uint256[] memory) {... */\n    tag_2:\n      tag_8\n      0x04\n      dup1\n      calldatasize\n      sub\n      dup2\n      add\n      swap1\n      tag_9\n      swap2\n      swap1\n      tag_10\n      jump\t// in\n    tag_9:\n      tag_11\n      jump\t// in\n    tag_8:\n      mload(0x40)\n      tag_12\n      swap2\n      swap1\n      tag_13\n      jump\t// in\n    tag_12:\n      mload(0x40)\n      dup1\n      swap2\n      sub\n      swap1\n      return\n        /* \"Day-06/D6P1.sol\":998:1522  function fibonacci(uint256 n) public pure returns (uint256) {... */\n    tag_3:\n      tag_14\n      0x04\n      dup1\n      calldatasize\n      sub\n      dup2\n      add\n      swap1\n      tag_15\n      swap2\n      swap1\n      tag_10\n      jump\t// in\n    tag_15:\n      tag_16\n      jump\t// in\n    tag_14:\n      mload(0x40)\n      tag_17\n      swap2\n      swap1\n      tag_18\n      jump\t// in\n    tag_17:\n      mload(0x40)\n      dup1\n      swap2\n      sub\n      swap1\n      return\n        /* \"Day-06/D6P1.sol\":171:276  function max(uint256 a, uint256 b) public pure returns (uint256) {... */\n    tag_4:\n      tag_19\n      0x04\n      dup1\n      calldatasize\n      sub\n      dup2\n      add\n      swap1\n      tag_20\n      swap2\n      swap1\n      tag_21\n      jump\t// in\n    tag_20:\n      tag_22\n      jump\t// in\n    tag_19:\n      mload(0x40)\n      tag_23\n      swap2\n      swap1\n      tag_18\n      jump\t// in\n    tag_23:\n      mload(0x40)\n      dup1\n      swap2\n      sub\n      swap1\n      return\n        /* \"Day-06/D6P1.sol\":328:433  function min(uint256 a, uint256 b) public pure returns (uint256) {... */\n    tag_5:\n      tag_24\n      0x04\n      dup1\n      calldatasize\n      sub\n      dup2\n      add\n      swap1\n      tag_25\n      swap2\n      swap1\n      tag_21\n      jump\t// in\n    tag_25:\n      tag_26\n      jump\t// in\n    tag_24:\n      mload(0x40)\n      tag_27\n      swap2\n      swap1\n      tag_18\n      jump\t// in\n    tag_27:\n      mload(0x40)\n      dup1\n      swap2\n      sub\n      swap1\n      return\n        /* \"Day-06/D6P1.sol\":489:926  function factorial(uint256 n) public pure returns (uint256) {... */\n    tag_6:\n      tag_28\n      0x04\n      dup1\n      calldatasize\n      sub\n      dup2\n      add\n      swap1\n      tag_29\n      swap2\n      swap1\n      tag_10\n      jump\t// in\n    tag_29:\n      tag_30\n      jump\t// in\n    tag_28:\n      mload(0x40)\n      tag_31\n      swap2\n      swap1\n      tag_18\n      jump\t// in\n    tag_31:\n      mload(0x40)\n      dup1\n      swap2\n      sub\n      swap1\n      return\n        /* \"Day-06/D6P1.sol\":2319:2693  function isArmstrong(uint256 n) public pure returns (bool) {... */\n    tag_7:\n      tag_32\n      0x04\n      dup1\n      calldatasize\n      sub\n      dup2\n      add\n      swap1\n      tag_33\n      swap2\n      swap1\n      tag_10\n      jump\t// in\n    tag_33:\n      tag_34\n      jump\t// in\n    tag_32:\n      mload(0x40)\n      tag_35\n      swap2\n      swap1\n      tag_36\n      jump\t// in\n    tag_35:\n      mload(0x40)\n      dup1\n      swap2\n      sub\n      swap1\n      return\n        /* \"Day-06/D6P1.sol\":1595:2126  function fibonacciSeries(uint256 n) public pure returns (uint256[] memory) {... */\n    tag_11:\n        /* \"Day-06/D6P1.sol\":1652:1668  uint256[] memory */\n      0x60\n        /* \"Day-06/D6P1.sol\":1774:1776  78 */\n      0x4e\n        /* \"Day-06/D6P1.sol\":1769:1770  n */\n      dup3\n        /* \"Day-06/D6P1.sol\":1769:1776  n <= 78 */\n      gt\n      iszero\n        /* \"Day-06/D6P1.sol\":1761:1818  require(n <= 78, \"Input too large, would cause overflow\") */\n      tag_38\n      jumpi\n      mload(0x40)\n      0x08c379a000000000000000000000000000000000000000000000000000000000\n      dup2\n      mstore\n      0x04\n      add\n      tag_39\n      swap1\n      tag_40\n      jump\t// in\n    tag_39:\n      mload(0x40)\n      dup1\n      swap2\n      sub\n      swap1\n      revert\n    tag_38:\n        /* \"Day-06/D6P1.sol\":1839:1862  uint256[] memory series */\n      0x00\n        /* \"Day-06/D6P1.sol\":1883:1884  1 */\n      0x01\n        /* \"Day-06/D6P1.sol\":1879:1880  n */\n      dup4\n        /* \"Day-06/D6P1.sol\":1879:1884  n + 1 */\n      tag_41\n      swap2\n      swap1\n      tag_42\n      jump\t// in\n    tag_41:\n        /* \"Day-06/D6P1.sol\":1865:1885  new uint256[](n + 1) */\n      0xffffffffffffffff\n      dup2\n      gt\n      iszero\n      tag_43\n      jumpi\n      tag_44\n      tag_45\n      jump\t// in\n    tag_44:\n    tag_43:\n      mload(0x40)\n      swap1\n      dup1\n      dup3\n      mstore\n      dup1\n      0x20\n      mul\n      0x20\n      add\n      dup3\n      add\n      0x40\n      mstore\n      dup1\n      iszero\n      tag_46\n      jumpi\n      dup2\n      0x20\n      add\n      0x20\n      dup3\n      mul\n      dup1\n      calldatasize\n      dup4\n      calldatacopy\n      dup1\n      dup3\n      add\n      swap2\n      pop\n      pop\n      swap1\n      pop\n    tag_46:\n      pop\n        /* \"Day-06/D6P1.sol\":1839:1885  uint256[] memory series = new uint256[](n + 1) */\n      swap1\n      pop\n        /* \"Day-06/D6P1.sol\":1915:1916  0 */\n      0x00\n        /* \"Day-06/D6P1.sol\":1910:1911  n */\n      dup4\n        /* \"Day-06/D6P1.sol\":1910:1916  n >= 0 */\n      lt\n        /* \"Day-06/D6P1.sol\":1906:1931  if (n >= 0) series[0] = 0 */\n      tag_47\n      jumpi\n        /* \"Day-06/D6P1.sol\":1930:1931  0 */\n      0x00\n        /* \"Day-06/D6P1.sol\":1918:1924  series */\n      dup2\n        /* \"Day-06/D6P1.sol\":1925:1926  0 */\n      0x00\n        /* \"Day-06/D6P1.sol\":1918:1927  series[0] */\n      dup2\n      mload\n      dup2\n      lt\n      tag_48\n      jumpi\n      tag_49\n      tag_50\n      jump\t// in\n    tag_49:\n    tag_48:\n      0x20\n      mul\n      0x20\n      add\n      add\n        /* \"Day-06/D6P1.sol\":1918:1931  series[0] = 0 */\n      dup2\n      dup2\n      mstore\n      pop\n      pop\n        /* \"Day-06/D6P1.sol\":1906:1931  if (n >= 0) series[0] = 0 */\n    tag_47:\n        /* \"Day-06/D6P1.sol\":1951:1952  1 */\n      0x01\n        /* \"Day-06/D6P1.sol\":1946:1947  n */\n      dup4\n        /* \"Day-06/D6P1.sol\":1946:1952  n >= 1 */\n      lt\n        /* \"Day-06/D6P1.sol\":1942:1967  if (n >= 1) series[1] = 1 */\n      tag_51\n      jumpi\n        /* \"Day-06/D6P1.sol\":1966:1967  1 */\n      0x01\n        /* \"Day-06/D6P1.sol\":1954:1960  series */\n      dup2\n        /* \"Day-06/D6P1.sol\":1961:1962  1 */\n      0x01\n        /* \"Day-06/D6P1.sol\":1954:1963  series[1] */\n      dup2\n      mload\n      dup2\n      lt\n      tag_52\n      jumpi\n      tag_53\n      tag_50\n      jump\t// in\n    tag_53:\n    tag_52:\n      0x20\n      mul\n      0x20\n      add\n      add\n        /* \"Day-06/D6P1.sol\":1954:1967  series[1] = 1 */\n      dup2\n      dup2\n      mstore\n      pop\n      pop\n        /* \"Day-06/D6P1.sol\":1942:1967  if (n >= 1) series[1] = 1 */\n    tag_51:\n        /* \"Day-06/D6P1.sol\":1993:2002  uint256 i */\n      0x00\n        /* \"Day-06/D6P1.sol\":2005:2006  2 */\n      0x02\n        /* \"Day-06/D6P1.sol\":1993:2006  uint256 i = 2 */\n      swap1\n      pop\n        /* \"Day-06/D6P1.sol\":1988:2085  for (uint256 i = 2; i <= n; i++) {... */\n    tag_54:\n        /* \"Day-06/D6P1.sol\":2013:2014  n */\n      dup4\n        /* \"Day-06/D6P1.sol\":2008:2009  i */\n      dup2\n        /* \"Day-06/D6P1.sol\":2008:2014  i <= n */\n      gt\n        /* \"Day-06/D6P1.sol\":1988:2085  for (uint256 i = 2; i <= n; i++) {... */\n      tag_55\n      jumpi\n        /* \"Day-06/D6P1.sol\":2062:2068  series */\n      dup2\n        /* \"Day-06/D6P1.sol\":2071:2072  2 */\n      0x02\n        /* \"Day-06/D6P1.sol\":2069:2070  i */\n      dup3\n        /* \"Day-06/D6P1.sol\":2069:2072  i-2 */\n      tag_57\n      swap2\n      swap1\n      tag_58\n      jump\t// in\n    tag_57:\n        /* \"Day-06/D6P1.sol\":2062:2073  series[i-2] */\n      dup2\n      mload\n      dup2\n      lt\n      tag_59\n      jumpi\n      tag_60\n      tag_50\n      jump\t// in\n    tag_60:\n    tag_59:\n      0x20\n      mul\n      0x20\n      add\n      add\n      mload\n        /* \"Day-06/D6P1.sol\":2048:2054  series */\n      dup3\n        /* \"Day-06/D6P1.sol\":2057:2058  1 */\n      0x01\n        /* \"Day-06/D6P1.sol\":2055:2056  i */\n      dup4\n        /* \"Day-06/D6P1.sol\":2055:2058  i-1 */\n      tag_61\n      swap2\n      swap1\n      tag_58\n      jump\t// in\n    tag_61:\n        /* \"Day-06/D6P1.sol\":2048:2059  series[i-1] */\n      dup2\n      mload\n      dup2\n      lt\n      tag_62\n      jumpi\n      tag_63\n      tag_50\n      jump\t// in\n    tag_63:\n    tag_62:\n      0x20\n      mul\n      0x20\n      add\n      add\n      mload\n        /* \"Day-06/D6P1.sol\":2048:2073  series[i-1] + series[i-2] */\n      tag_64\n      swap2\n      swap1\n      tag_42\n      jump\t// in\n    tag_64:\n        /* \"Day-06/D6P1.sol\":2036:2042  series */\n      dup3\n        /* \"Day-06/D6P1.sol\":2043:2044  i */\n      dup3\n        /* \"Day-06/D6P1.sol\":2036:2045  series[i] */\n      dup2\n      mload\n      dup2\n      lt\n      tag_65\n      jumpi\n      tag_66\n      tag_50\n      jump\t// in\n    tag_66:\n    tag_65:\n      0x20\n      mul\n      0x20\n      add\n      add\n        /* \"Day-06/D6P1.sol\":2036:2073  series[i] = series[i-1] + series[i-2] */\n      dup2\n      dup2\n      mstore\n      pop\n      pop\n        /* \"Day-06/D6P1.sol\":2016:2019  i++ */\n      dup1\n      dup1\n      tag_67\n      swap1\n      tag_68\n      jump\t// in\n    tag_67:\n      swap2\n      pop\n      pop\n        /* \"Day-06/D6P1.sol\":1988:2085  for (uint256 i = 2; i <= n; i++) {... */\n      jump(tag_54)\n    tag_55:\n      pop\n        /* \"Day-06/D6P1.sol\":2112:2118  series */\n      dup1\n        /* \"Day-06/D6P1.sol\":2105:2118  return series */\n      swap2\n      pop\n      pop\n        /* \"Day-06/D6P1.sol\":1595:2126  function fibonacciSeries(uint256 n) public pure returns (uint256[] memory) {... */\n      swap2\n      swap1\n      pop\n      jump\t// out\n        /* \"Day-06/D6P1.sol\":998:1522  function fibonacci(uint256 n) public pure returns (uint256) {... */\n    tag_16:\n        /* \"Day-06/D6P1.sol\":1049:1056  uint256 */\n      0x00\n        /* \"Day-06/D6P1.sol\":1162:1164  78 */\n      0x4e\n        /* \"Day-06/D6P1.sol\":1157:1158  n */\n      dup3\n        /* \"Day-06/D6P1.sol\":1157:1164  n <= 78 */\n      gt\n      iszero\n        /* \"Day-06/D6P1.sol\":1149:1206  require(n <= 78, \"Input too large, would cause overflow\") */\n      tag_70\n      jumpi\n      mload(0x40)\n      0x08c379a000000000000000000000000000000000000000000000000000000000\n      dup2\n      mstore\n      0x04\n      add\n      tag_71\n      swap1\n      tag_40\n      jump\t// in\n    tag_71:\n      mload(0x40)\n      dup1\n      swap2\n      sub\n      swap1\n      revert\n    tag_70:\n        /* \"Day-06/D6P1.sol\":1236:1237  0 */\n      0x00\n        /* \"Day-06/D6P1.sol\":1231:1232  n */\n      dup3\n        /* \"Day-06/D6P1.sol\":1231:1237  n == 0 */\n      sub\n        /* \"Day-06/D6P1.sol\":1227:1247  if (n == 0) return 0 */\n      tag_72\n      jumpi\n        /* \"Day-06/D6P1.sol\":1246:1247  0 */\n      0x00\n        /* \"Day-06/D6P1.sol\":1239:1247  return 0 */\n      swap1\n      pop\n      jump(tag_69)\n        /* \"Day-06/D6P1.sol\":1227:1247  if (n == 0) return 0 */\n    tag_72:\n        /* \"Day-06/D6P1.sol\":1267:1268  1 */\n      0x01\n        /* \"Day-06/D6P1.sol\":1262:1263  n */\n      dup3\n        /* \"Day-06/D6P1.sol\":1262:1268  n == 1 */\n      sub\n        /* \"Day-06/D6P1.sol\":1258:1278  if (n == 1) return 1 */\n      tag_73\n      jumpi\n        /* \"Day-06/D6P1.sol\":1277:1278  1 */\n      0x01\n        /* \"Day-06/D6P1.sol\":1270:1278  return 1 */\n      swap1\n      pop\n      jump(tag_69)\n        /* \"Day-06/D6P1.sol\":1258:1278  if (n == 1) return 1 */\n    tag_73:\n        /* \"Day-06/D6P1.sol\":1299:1308  uint256 a */\n      0x00\n        /* \"Day-06/D6P1.sol\":1323:1332  uint256 b */\n      dup1\n        /* \"Day-06/D6P1.sol\":1335:1336  1 */\n      0x01\n        /* \"Day-06/D6P1.sol\":1323:1336  uint256 b = 1 */\n      swap1\n      pop\n        /* \"Day-06/D6P1.sol\":1347:1356  uint256 c */\n      0x00\n        /* \"Day-06/D6P1.sol\":1382:1391  uint256 i */\n      dup1\n        /* \"Day-06/D6P1.sol\":1394:1395  2 */\n      0x02\n        /* \"Day-06/D6P1.sol\":1382:1395  uint256 i = 2 */\n      swap1\n      pop\n        /* \"Day-06/D6P1.sol\":1377:1486  for (uint256 i = 2; i <= n; i++) {... */\n    tag_74:\n        /* \"Day-06/D6P1.sol\":1402:1403  n */\n      dup6\n        /* \"Day-06/D6P1.sol\":1397:1398  i */\n      dup2\n        /* \"Day-06/D6P1.sol\":1397:1403  i <= n */\n      gt\n        /* \"Day-06/D6P1.sol\":1377:1486  for (uint256 i = 2; i <= n; i++) {... */\n      tag_75\n      jumpi\n        /* \"Day-06/D6P1.sol\":1433:1434  b */\n      dup3\n        /* \"Day-06/D6P1.sol\":1429:1430  a */\n      dup5\n        /* \"Day-06/D6P1.sol\":1429:1434  a + b */\n      tag_77\n      swap2\n      swap1\n      tag_42\n      jump\t// in\n    tag_77:\n        /* \"Day-06/D6P1.sol\":1425:1434  c = a + b */\n      swap2\n      pop\n        /* \"Day-06/D6P1.sol\":1453:1454  b */\n      dup3\n        /* \"Day-06/D6P1.sol\":1449:1454  a = b */\n      swap4\n      pop\n        /* \"Day-06/D6P1.sol\":1473:1474  c */\n      dup2\n        /* \"Day-06/D6P1.sol\":1469:1474  b = c */\n      swap3\n      pop\n        /* \"Day-06/D6P1.sol\":1405:1408  i++ */\n      dup1\n      dup1\n      tag_78\n      swap1\n      tag_68\n      jump\t// in\n    tag_78:\n      swap2\n      pop\n      pop\n        /* \"Day-06/D6P1.sol\":1377:1486  for (uint256 i = 2; i <= n; i++) {... */\n      jump(tag_74)\n    tag_75:\n      pop\n        /* \"Day-06/D6P1.sol\":1513:1514  b */\n      dup2\n        /* \"Day-06/D6P1.sol\":1506:1514  return b */\n      swap4\n      pop\n      pop\n      pop\n      pop\n        /* \"Day-06/D6P1.sol\":998:1522  function fibonacci(uint256 n) public pure returns (uint256) {... */\n    tag_69:\n      swap2\n      swap1\n      pop\n      jump\t// out\n        /* \"Day-06/D6P1.sol\":171:276  function max(uint256 a, uint256 b) public pure returns (uint256) {... */\n    tag_22:\n        /* \"Day-06/D6P1.sol\":227:234  uint256 */\n      0x00\n        /* \"Day-06/D6P1.sol\":259:260  b */\n      dup2\n        /* \"Day-06/D6P1.sol\":254:255  a */\n      dup4\n        /* \"Day-06/D6P1.sol\":254:260  a >= b */\n      lt\n      iszero\n        /* \"Day-06/D6P1.sol\":254:268  a >= b ? a : b */\n      tag_80\n      jumpi\n        /* \"Day-06/D6P1.sol\":267:268  b */\n      dup2\n        /* \"Day-06/D6P1.sol\":254:268  a >= b ? a : b */\n      jump(tag_81)\n    tag_80:\n        /* \"Day-06/D6P1.sol\":263:264  a */\n      dup3\n        /* \"Day-06/D6P1.sol\":254:268  a >= b ? a : b */\n    tag_81:\n        /* \"Day-06/D6P1.sol\":247:268  return a >= b ? a : b */\n      swap1\n      pop\n        /* \"Day-06/D6P1.sol\":171:276  function max(uint256 a, uint256 b) public pure returns (uint256) {... */\n      swap3\n      swap2\n      pop\n      pop\n      jump\t// out\n        /* \"Day-06/D6P1.sol\":328:433  function min(uint256 a, uint256 b) public pure returns (uint256) {... */\n    tag_26:\n        /* \"Day-06/D6P1.sol\":384:391  uint256 */\n      0x00\n        /* \"Day-06/D6P1.sol\":416:417  b */\n      dup2\n        /* \"Day-06/D6P1.sol\":411:412  a */\n      dup4\n        /* \"Day-06/D6P1.sol\":411:417  a <= b */\n      gt\n      iszero\n        /* \"Day-06/D6P1.sol\":411:425  a <= b ? a : b */\n      tag_83\n      jumpi\n        /* \"Day-06/D6P1.sol\":424:425  b */\n      dup2\n        /* \"Day-06/D6P1.sol\":411:425  a <= b ? a : b */\n      jump(tag_84)\n    tag_83:\n        /* \"Day-06/D6P1.sol\":420:421  a */\n      dup3\n        /* \"Day-06/D6P1.sol\":411:425  a <= b ? a : b */\n    tag_84:\n        /* \"Day-06/D6P1.sol\":404:425  return a <= b ? a : b */\n      swap1\n      pop\n        /* \"Day-06/D6P1.sol\":328:433  function min(uint256 a, uint256 b) public pure returns (uint256) {... */\n      swap3\n      swap2\n      pop\n      pop\n      jump\t// out\n        /* \"Day-06/D6P1.sol\":489:926  function factorial(uint256 n) public pure returns (uint256) {... */\n    tag_30:\n        /* \"Day-06/D6P1.sol\":540:547  uint256 */\n      0x00\n        /* \"Day-06/D6P1.sol\":653:655  20 */\n      0x14\n        /* \"Day-06/D6P1.sol\":648:649  n */\n      dup3\n        /* \"Day-06/D6P1.sol\":648:655  n <= 20 */\n      gt\n      iszero\n        /* \"Day-06/D6P1.sol\":640:697  require(n <= 20, \"Input too large, would cause overflow\") */\n      tag_86\n      jumpi\n      mload(0x40)\n      0x08c379a000000000000000000000000000000000000000000000000000000000\n      dup2\n      mstore\n      0x04\n      add\n      tag_87\n      swap1\n      tag_40\n      jump\t// in\n    tag_87:\n      mload(0x40)\n      dup1\n      swap2\n      sub\n      swap1\n      revert\n    tag_86:\n        /* \"Day-06/D6P1.sol\":727:728  1 */\n      0x01\n        /* \"Day-06/D6P1.sol\":722:723  n */\n      dup3\n        /* \"Day-06/D6P1.sol\":722:728  n <= 1 */\n      gt\n        /* \"Day-06/D6P1.sol\":718:765  if (n <= 1) {... */\n      tag_88\n      jumpi\n        /* \"Day-06/D6P1.sol\":752:753  1 */\n      0x01\n        /* \"Day-06/D6P1.sol\":745:753  return 1 */\n      swap1\n      pop\n      jump(tag_85)\n        /* \"Day-06/D6P1.sol\":718:765  if (n <= 1) {... */\n    tag_88:\n        /* \"Day-06/D6P1.sol\":785:799  uint256 result */\n      0x00\n        /* \"Day-06/D6P1.sol\":802:803  1 */\n      0x01\n        /* \"Day-06/D6P1.sol\":785:803  uint256 result = 1 */\n      swap1\n      pop\n        /* \"Day-06/D6P1.sol\":819:828  uint256 i */\n      0x00\n        /* \"Day-06/D6P1.sol\":831:832  2 */\n      0x02\n        /* \"Day-06/D6P1.sol\":819:832  uint256 i = 2 */\n      swap1\n      pop\n        /* \"Day-06/D6P1.sol\":814:885  for (uint256 i = 2; i <= n; i++) {... */\n    tag_89:\n        /* \"Day-06/D6P1.sol\":839:840  n */\n      dup4\n        /* \"Day-06/D6P1.sol\":834:835  i */\n      dup2\n        /* \"Day-06/D6P1.sol\":834:840  i <= n */\n      gt\n        /* \"Day-06/D6P1.sol\":814:885  for (uint256 i = 2; i <= n; i++) {... */\n      tag_90\n      jumpi\n        /* \"Day-06/D6P1.sol\":872:873  i */\n      dup1\n        /* \"Day-06/D6P1.sol\":862:873  result *= i */\n      dup3\n      tag_92\n      swap2\n      swap1\n      tag_93\n      jump\t// in\n    tag_92:\n      swap2\n      pop\n        /* \"Day-06/D6P1.sol\":842:845  i++ */\n      dup1\n      dup1\n      tag_94\n      swap1\n      tag_68\n      jump\t// in\n    tag_94:\n      swap2\n      pop\n      pop\n        /* \"Day-06/D6P1.sol\":814:885  for (uint256 i = 2; i <= n; i++) {... */\n      jump(tag_89)\n    tag_90:\n      pop\n        /* \"Day-06/D6P1.sol\":912:918  result */\n      dup1\n        /* \"Day-06/D6P1.sol\":905:918  return result */\n      swap2\n      pop\n      pop\n        /* \"Day-06/D6P1.sol\":489:926  function factorial(uint256 n) public pure returns (uint256) {... */\n    tag_85:\n      swap2\n      swap1\n      pop\n      jump\t// out\n        /* \"Day-06/D6P1.sol\":2319:2693  function isArmstrong(uint256 n) public pure returns (bool) {... */\n    tag_34:\n        /* \"Day-06/D6P1.sol\":2372:2376  bool */\n      0x00\n        /* \"Day-06/D6P1.sol\":2389:2411  uint256 originalNumber */\n      dup1\n        /* \"Day-06/D6P1.sol\":2414:2415  n */\n      dup3\n        /* \"Day-06/D6P1.sol\":2389:2415  uint256 originalNumber = n */\n      swap1\n      pop\n        /* \"Day-06/D6P1.sol\":2426:2443  uint256 numDigits */\n      0x00\n        /* \"Day-06/D6P1.sol\":2446:2460  countDigits(n) */\n      tag_96\n        /* \"Day-06/D6P1.sol\":2458:2459  n */\n      dup5\n        /* \"Day-06/D6P1.sol\":2446:2457  countDigits */\n      tag_97\n        /* \"Day-06/D6P1.sol\":2446:2460  countDigits(n) */\n      jump\t// in\n    tag_96:\n        /* \"Day-06/D6P1.sol\":2426:2460  uint256 numDigits = countDigits(n) */\n      swap1\n      pop\n        /* \"Day-06/D6P1.sol\":2471:2482  uint256 sum */\n      0x00\n        /* \"Day-06/D6P1.sol\":2507:2637  while (n > 0) {... */\n    tag_98:\n        /* \"Day-06/D6P1.sol\":2518:2519  0 */\n      0x00\n        /* \"Day-06/D6P1.sol\":2514:2515  n */\n      dup6\n        /* \"Day-06/D6P1.sol\":2514:2519  n > 0 */\n      gt\n        /* \"Day-06/D6P1.sol\":2507:2637  while (n > 0) {... */\n      iszero\n      tag_99\n      jumpi\n        /* \"Day-06/D6P1.sol\":2536:2549  uint256 digit */\n      0x00\n        /* \"Day-06/D6P1.sol\":2556:2558  10 */\n      0x0a\n        /* \"Day-06/D6P1.sol\":2552:2553  n */\n      dup7\n        /* \"Day-06/D6P1.sol\":2552:2558  n % 10 */\n      tag_100\n      swap2\n      swap1\n      tag_101\n      jump\t// in\n    tag_100:\n        /* \"Day-06/D6P1.sol\":2536:2558  uint256 digit = n % 10 */\n      swap1\n      pop\n        /* \"Day-06/D6P1.sol\":2580:2603  power(digit, numDigits) */\n      tag_102\n        /* \"Day-06/D6P1.sol\":2586:2591  digit */\n      dup2\n        /* \"Day-06/D6P1.sol\":2593:2602  numDigits */\n      dup5\n        /* \"Day-06/D6P1.sol\":2580:2585  power */\n      tag_103\n        /* \"Day-06/D6P1.sol\":2580:2603  power(digit, numDigits) */\n      jump\t// in\n    tag_102:\n        /* \"Day-06/D6P1.sol\":2573:2603  sum += power(digit, numDigits) */\n      dup3\n      tag_104\n      swap2\n      swap1\n      tag_42\n      jump\t// in\n    tag_104:\n      swap2\n      pop\n        /* \"Day-06/D6P1.sol\":2623:2625  10 */\n      0x0a\n        /* \"Day-06/D6P1.sol\":2618:2625  n /= 10 */\n      dup7\n      tag_105\n      swap2\n      swap1\n      tag_106\n      jump\t// in\n    tag_105:\n      swap6\n      pop\n        /* \"Day-06/D6P1.sol\":2521:2637  {... */\n      pop\n        /* \"Day-06/D6P1.sol\":2507:2637  while (n > 0) {... */\n      jump(tag_98)\n    tag_99:\n        /* \"Day-06/D6P1.sol\":2671:2685  originalNumber */\n      dup3\n        /* \"Day-06/D6P1.sol\":2664:2667  sum */\n      dup2\n        /* \"Day-06/D6P1.sol\":2664:2685  sum == originalNumber */\n      eq\n        /* \"Day-06/D6P1.sol\":2657:2685  return sum == originalNumber */\n      swap4\n      pop\n      pop\n      pop\n      pop\n        /* \"Day-06/D6P1.sol\":2319:2693  function isArmstrong(uint256 n) public pure returns (bool) {... */\n      swap2\n      swap1\n      pop\n      jump\t// out\n        /* \"Day-06/D6P1.sol\":2771:3025  function countDigits(uint256 n) internal pure returns (uint256) {... */\n    tag_97:\n        /* \"Day-06/D6P1.sol\":2826:2833  uint256 */\n      0x00\n        /* \"Day-06/D6P1.sol\":2855:2856  0 */\n      dup1\n        /* \"Day-06/D6P1.sol\":2850:2851  n */\n      dup3\n        /* \"Day-06/D6P1.sol\":2850:2856  n == 0 */\n      sub\n        /* \"Day-06/D6P1.sol\":2846:2866  if (n == 0) return 1 */\n      tag_108\n      jumpi\n        /* \"Day-06/D6P1.sol\":2865:2866  1 */\n      0x01\n        /* \"Day-06/D6P1.sol\":2858:2866  return 1 */\n      swap1\n      pop\n      jump(tag_107)\n        /* \"Day-06/D6P1.sol\":2846:2866  if (n == 0) return 1 */\n    tag_108:\n        /* \"Day-06/D6P1.sol\":2887:2900  uint256 count */\n      0x00\n        /* \"Day-06/D6P1.sol\":2915:2985  while (n > 0) {... */\n    tag_109:\n        /* \"Day-06/D6P1.sol\":2926:2927  0 */\n      0x00\n        /* \"Day-06/D6P1.sol\":2922:2923  n */\n      dup4\n        /* \"Day-06/D6P1.sol\":2922:2927  n > 0 */\n      gt\n        /* \"Day-06/D6P1.sol\":2915:2985  while (n > 0) {... */\n      iszero\n      tag_110\n      jumpi\n        /* \"Day-06/D6P1.sol\":2944:2951  count++ */\n      dup1\n      dup1\n      tag_111\n      swap1\n      tag_68\n      jump\t// in\n    tag_111:\n      swap2\n      pop\n      pop\n        /* \"Day-06/D6P1.sol\":2971:2973  10 */\n      0x0a\n        /* \"Day-06/D6P1.sol\":2966:2973  n /= 10 */\n      dup4\n      tag_112\n      swap2\n      swap1\n      tag_106\n      jump\t// in\n    tag_112:\n      swap3\n      pop\n        /* \"Day-06/D6P1.sol\":2915:2985  while (n > 0) {... */\n      jump(tag_109)\n    tag_110:\n        /* \"Day-06/D6P1.sol\":3012:3017  count */\n      dup1\n        /* \"Day-06/D6P1.sol\":3005:3017  return count */\n      swap2\n      pop\n      pop\n        /* \"Day-06/D6P1.sol\":2771:3025  function countDigits(uint256 n) internal pure returns (uint256) {... */\n    tag_107:\n      swap2\n      swap1\n      pop\n      jump\t// out\n        /* \"Day-06/D6P1.sol\":3080:3402  function power(uint256 base, uint256 exponent) internal pure returns (uint256) {... */\n    tag_103:\n        /* \"Day-06/D6P1.sol\":3150:3157  uint256 */\n      0x00\n        /* \"Day-06/D6P1.sol\":3186:3187  0 */\n      dup1\n        /* \"Day-06/D6P1.sol\":3174:3182  exponent */\n      dup3\n        /* \"Day-06/D6P1.sol\":3174:3187  exponent == 0 */\n      sub\n        /* \"Day-06/D6P1.sol\":3170:3197  if (exponent == 0) return 1 */\n      tag_114\n      jumpi\n        /* \"Day-06/D6P1.sol\":3196:3197  1 */\n      0x01\n        /* \"Day-06/D6P1.sol\":3189:3197  return 1 */\n      swap1\n      pop\n      jump(tag_113)\n        /* \"Day-06/D6P1.sol\":3170:3197  if (exponent == 0) return 1 */\n    tag_114:\n        /* \"Day-06/D6P1.sol\":3220:3221  0 */\n      0x00\n        /* \"Day-06/D6P1.sol\":3212:3216  base */\n      dup4\n        /* \"Day-06/D6P1.sol\":3212:3221  base == 0 */\n      sub\n        /* \"Day-06/D6P1.sol\":3208:3231  if (base == 0) return 0 */\n      tag_115\n      jumpi\n        /* \"Day-06/D6P1.sol\":3230:3231  0 */\n      0x00\n        /* \"Day-06/D6P1.sol\":3223:3231  return 0 */\n      swap1\n      pop\n      jump(tag_113)\n        /* \"Day-06/D6P1.sol\":3208:3231  if (base == 0) return 0 */\n    tag_115:\n        /* \"Day-06/D6P1.sol\":3252:3266  uint256 result */\n      0x00\n        /* \"Day-06/D6P1.sol\":3269:3270  1 */\n      0x01\n        /* \"Day-06/D6P1.sol\":3252:3270  uint256 result = 1 */\n      swap1\n      pop\n        /* \"Day-06/D6P1.sol\":3286:3295  uint256 i */\n      0x00\n        /* \"Day-06/D6P1.sol\":3281:3361  for (uint256 i = 0; i < exponent; i++) {... */\n    tag_116:\n        /* \"Day-06/D6P1.sol\":3305:3313  exponent */\n      dup4\n        /* \"Day-06/D6P1.sol\":3301:3302  i */\n      dup2\n        /* \"Day-06/D6P1.sol\":3301:3313  i < exponent */\n      lt\n        /* \"Day-06/D6P1.sol\":3281:3361  for (uint256 i = 0; i < exponent; i++) {... */\n      iszero\n      tag_117\n      jumpi\n        /* \"Day-06/D6P1.sol\":3345:3349  base */\n      dup5\n        /* \"Day-06/D6P1.sol\":3335:3349  result *= base */\n      dup3\n      tag_119\n      swap2\n      swap1\n      tag_93\n      jump\t// in\n    tag_119:\n      swap2\n      pop\n        /* \"Day-06/D6P1.sol\":3315:3318  i++ */\n      dup1\n      dup1\n      tag_120\n      swap1\n      tag_68\n      jump\t// in\n    tag_120:\n      swap2\n      pop\n      pop\n        /* \"Day-06/D6P1.sol\":3281:3361  for (uint256 i = 0; i < exponent; i++) {... */\n      jump(tag_116)\n    tag_117:\n      pop\n        /* \"Day-06/D6P1.sol\":3388:3394  result */\n      dup1\n        /* \"Day-06/D6P1.sol\":3381:3394  return result */\n      swap2\n      pop\n      pop\n        /* \"Day-06/D6P1.sol\":3080:3402  function power(uint256 base, uint256 exponent) internal pure returns (uint256) {... */\n    tag_113:\n      swap3\n      swap2\n      pop\n      pop\n      jump\t// out\n        /* \"#utility.yul\":88:205   */\n    tag_122:\n        /* \"#utility.yul\":197:198   */\n      0x00\n        /* \"#utility.yul\":194:195   */\n      dup1\n        /* \"#utility.yul\":187:199   */\n      revert\n        /* \"#utility.yul\":334:411   */\n    tag_124:\n        /* \"#utility.yul\":371:378   */\n      0x00\n        /* \"#utility.yul\":400:405   */\n      dup2\n        /* \"#utility.yul\":389:405   */\n      swap1\n      pop\n        /* \"#utility.yul\":334:411   */\n      swap2\n      swap1\n      pop\n      jump\t// out\n        /* \"#utility.yul\":417:539   */\n    tag_125:\n        /* \"#utility.yul\":490:514   */\n      tag_148\n        /* \"#utility.yul\":508:513   */\n      dup2\n        /* \"#utility.yul\":490:514   */\n      tag_124\n      jump\t// in\n    tag_148:\n        /* \"#utility.yul\":483:488   */\n      dup2\n        /* \"#utility.yul\":480:515   */\n      eq\n        /* \"#utility.yul\":470:533   */\n      tag_149\n      jumpi\n        /* \"#utility.yul\":529:530   */\n      0x00\n        /* \"#utility.yul\":526:527   */\n      dup1\n        /* \"#utility.yul\":519:531   */\n      revert\n        /* \"#utility.yul\":470:533   */\n    tag_149:\n        /* \"#utility.yul\":417:539   */\n      pop\n      jump\t// out\n        /* \"#utility.yul\":545:684   */\n    tag_126:\n        /* \"#utility.yul\":591:596   */\n      0x00\n        /* \"#utility.yul\":629:635   */\n      dup2\n        /* \"#utility.yul\":616:636   */\n      calldataload\n        /* \"#utility.yul\":607:636   */\n      swap1\n      pop\n        /* \"#utility.yul\":645:678   */\n      tag_151\n        /* \"#utility.yul\":672:677   */\n      dup2\n        /* \"#utility.yul\":645:678   */\n      tag_125\n      jump\t// in\n    tag_151:\n        /* \"#utility.yul\":545:684   */\n      swap3\n      swap2\n      pop\n      pop\n      jump\t// out\n        /* \"#utility.yul\":690:1019   */\n    tag_10:\n        /* \"#utility.yul\":749:755   */\n      0x00\n        /* \"#utility.yul\":798:800   */\n      0x20\n        /* \"#utility.yul\":786:795   */\n      dup3\n        /* \"#utility.yul\":777:784   */\n      dup5\n        /* \"#utility.yul\":773:796   */\n      sub\n        /* \"#utility.yul\":769:801   */\n      slt\n        /* \"#utility.yul\":766:885   */\n      iszero\n      tag_153\n      jumpi\n        /* \"#utility.yul\":804:883   */\n      tag_154\n      tag_122\n      jump\t// in\n    tag_154:\n        /* \"#utility.yul\":766:885   */\n    tag_153:\n        /* \"#utility.yul\":924:925   */\n      0x00\n        /* \"#utility.yul\":949:1002   */\n      tag_155\n        /* \"#utility.yul\":994:1001   */\n      dup5\n        /* \"#utility.yul\":985:991   */\n      dup3\n        /* \"#utility.yul\":974:983   */\n      dup6\n        /* \"#utility.yul\":970:992   */\n      add\n        /* \"#utility.yul\":949:1002   */\n      tag_126\n      jump\t// in\n    tag_155:\n        /* \"#utility.yul\":939:1002   */\n      swap2\n      pop\n        /* \"#utility.yul\":895:1012   */\n      pop\n        /* \"#utility.yul\":690:1019   */\n      swap3\n      swap2\n      pop\n      pop\n      jump\t// out\n        /* \"#utility.yul\":1025:1139   */\n    tag_127:\n        /* \"#utility.yul\":1092:1098   */\n      0x00\n        /* \"#utility.yul\":1126:1131   */\n      dup2\n        /* \"#utility.yul\":1120:1132   */\n      mload\n        /* \"#utility.yul\":1110:1132   */\n      swap1\n      pop\n        /* \"#utility.yul\":1025:1139   */\n      swap2\n      swap1\n      pop\n      jump\t// out\n        /* \"#utility.yul\":1145:1337   */\n    tag_128:\n        /* \"#utility.yul\":1252:1263   */\n      0x00\n        /* \"#utility.yul\":1286:1292   */\n      dup3\n        /* \"#utility.yul\":1281:1284   */\n      dup3\n        /* \"#utility.yul\":1274:1293   */\n      mstore\n        /* \"#utility.yul\":1326:1330   */\n      0x20\n        /* \"#utility.yul\":1321:1324   */\n      dup3\n        /* \"#utility.yul\":1317:1331   */\n      add\n        /* \"#utility.yul\":1302:1331   */\n      swap1\n      pop\n        /* \"#utility.yul\":1145:1337   */\n      swap3\n      swap2\n      pop\n      pop\n      jump\t// out\n        /* \"#utility.yul\":1343:1475   */\n    tag_129:\n        /* \"#utility.yul\":1410:1414   */\n      0x00\n        /* \"#utility.yul\":1433:1436   */\n      dup2\n        /* \"#utility.yul\":1425:1436   */\n      swap1\n      pop\n        /* \"#utility.yul\":1463:1467   */\n      0x20\n        /* \"#utility.yul\":1458:1461   */\n      dup3\n        /* \"#utility.yul\":1454:1468   */\n      add\n        /* \"#utility.yul\":1446:1468   */\n      swap1\n      pop\n        /* \"#utility.yul\":1343:1475   */\n      swap2\n      swap1\n      pop\n      jump\t// out\n        /* \"#utility.yul\":1481:1597   */\n    tag_130:\n        /* \"#utility.yul\":1566:1590   */\n      tag_160\n        /* \"#utility.yul\":1584:1589   */\n      dup2\n        /* \"#utility.yul\":1566:1590   */\n      tag_124\n      jump\t// in\n    tag_160:\n        /* \"#utility.yul\":1561:1564   */\n      dup3\n        /* \"#utility.yul\":1554:1591   */\n      mstore\n        /* \"#utility.yul\":1481:1597   */\n      pop\n      pop\n      jump\t// out\n        /* \"#utility.yul\":1603:1798   */\n    tag_131:\n        /* \"#utility.yul\":1680:1690   */\n      0x00\n        /* \"#utility.yul\":1701:1755   */\n      tag_162\n        /* \"#utility.yul\":1751:1754   */\n      dup4\n        /* \"#utility.yul\":1743:1749   */\n      dup4\n        /* \"#utility.yul\":1701:1755   */\n      tag_130\n      jump\t// in\n    tag_162:\n        /* \"#utility.yul\":1787:1791   */\n      0x20\n        /* \"#utility.yul\":1782:1785   */\n      dup4\n        /* \"#utility.yul\":1778:1792   */\n      add\n        /* \"#utility.yul\":1764:1792   */\n      swap1\n      pop\n        /* \"#utility.yul\":1603:1798   */\n      swap3\n      swap2\n      pop\n      pop\n      jump\t// out\n        /* \"#utility.yul\":1804:1917   */\n    tag_132:\n        /* \"#utility.yul\":1874:1878   */\n      0x00\n        /* \"#utility.yul\":1906:1910   */\n      0x20\n        /* \"#utility.yul\":1901:1904   */\n      dup3\n        /* \"#utility.yul\":1897:1911   */\n      add\n        /* \"#utility.yul\":1889:1911   */\n      swap1\n      pop\n        /* \"#utility.yul\":1804:1917   */\n      swap2\n      swap1\n      pop\n      jump\t// out\n        /* \"#utility.yul\":1953:2709   */\n    tag_133:\n        /* \"#utility.yul\":2080:2083   */\n      0x00\n        /* \"#utility.yul\":2109:2163   */\n      tag_165\n        /* \"#utility.yul\":2157:2162   */\n      dup3\n        /* \"#utility.yul\":2109:2163   */\n      tag_127\n      jump\t// in\n    tag_165:\n        /* \"#utility.yul\":2179:2273   */\n      tag_166\n        /* \"#utility.yul\":2266:2272   */\n      dup2\n        /* \"#utility.yul\":2261:2264   */\n      dup6\n        /* \"#utility.yul\":2179:2273   */\n      tag_128\n      jump\t// in\n    tag_166:\n        /* \"#utility.yul\":2172:2273   */\n      swap4\n      pop\n        /* \"#utility.yul\":2297:2353   */\n      tag_167\n        /* \"#utility.yul\":2347:2352   */\n      dup4\n        /* \"#utility.yul\":2297:2353   */\n      tag_129\n      jump\t// in\n    tag_167:\n        /* \"#utility.yul\":2376:2383   */\n      dup1\n        /* \"#utility.yul\":2407:2408   */\n      0x00\n        /* \"#utility.yul\":2392:2684   */\n    tag_168:\n        /* \"#utility.yul\":2417:2423   */\n      dup4\n        /* \"#utility.yul\":2414:2415   */\n      dup2\n        /* \"#utility.yul\":2411:2424   */\n      lt\n        /* \"#utility.yul\":2392:2684   */\n      iszero\n      tag_170\n      jumpi\n        /* \"#utility.yul\":2493:2499   */\n      dup2\n        /* \"#utility.yul\":2487:2500   */\n      mload\n        /* \"#utility.yul\":2520:2591   */\n      tag_171\n        /* \"#utility.yul\":2587:2590   */\n      dup9\n        /* \"#utility.yul\":2572:2585   */\n      dup3\n        /* \"#utility.yul\":2520:2591   */\n      tag_131\n      jump\t// in\n    tag_171:\n        /* \"#utility.yul\":2513:2591   */\n      swap8\n      pop\n        /* \"#utility.yul\":2614:2674   */\n      tag_172\n        /* \"#utility.yul\":2667:2673   */\n      dup4\n        /* \"#utility.yul\":2614:2674   */\n      tag_132\n      jump\t// in\n    tag_172:\n        /* \"#utility.yul\":2604:2674   */\n      swap3\n      pop\n        /* \"#utility.yul\":2452:2684   */\n      pop\n        /* \"#utility.yul\":2439:2440   */\n      0x01\n        /* \"#utility.yul\":2436:2437   */\n      dup2\n        /* \"#utility.yul\":2432:2441   */\n      add\n        /* \"#utility.yul\":2427:2441   */\n      swap1\n      pop\n        /* \"#utility.yul\":2392:2684   */\n      jump(tag_168)\n    tag_170:\n        /* \"#utility.yul\":2396:2410   */\n      pop\n        /* \"#utility.yul\":2700:2703   */\n      dup6\n        /* \"#utility.yul\":2693:2703   */\n      swap4\n      pop\n        /* \"#utility.yul\":2085:2709   */\n      pop\n      pop\n      pop\n        /* \"#utility.yul\":1953:2709   */\n      swap3\n      swap2\n      pop\n      pop\n      jump\t// out\n        /* \"#utility.yul\":2715:3104   */\n    tag_13:\n        /* \"#utility.yul\":2866:2870   */\n      0x00\n        /* \"#utility.yul\":2904:2906   */\n      0x20\n        /* \"#utility.yul\":2893:2902   */\n      dup3\n        /* \"#utility.yul\":2889:2907   */\n      add\n        /* \"#utility.yul\":2881:2907   */\n      swap1\n      pop\n        /* \"#utility.yul\":2953:2962   */\n      dup2\n        /* \"#utility.yul\":2947:2951   */\n      dup2\n        /* \"#utility.yul\":2943:2963   */\n      sub\n        /* \"#utility.yul\":2939:2940   */\n      0x00\n        /* \"#utility.yul\":2928:2937   */\n      dup4\n        /* \"#utility.yul\":2924:2941   */\n      add\n        /* \"#utility.yul\":2917:2964   */\n      mstore\n        /* \"#utility.yul\":2981:3097   */\n      tag_174\n        /* \"#utility.yul\":3092:3096   */\n      dup2\n        /* \"#utility.yul\":3083:3089   */\n      dup5\n        /* \"#utility.yul\":2981:3097   */\n      tag_133\n      jump\t// in\n    tag_174:\n        /* \"#utility.yul\":2973:3097   */\n      swap1\n      pop\n        /* \"#utility.yul\":2715:3104   */\n      swap3\n      swap2\n      pop\n      pop\n      jump\t// out\n        /* \"#utility.yul\":3110:3236   */\n    tag_134:\n        /* \"#utility.yul\":3205:3229   */\n      tag_176\n        /* \"#utility.yul\":3223:3228   */\n      dup2\n        /* \"#utility.yul\":3205:3229   */\n      tag_124\n      jump\t// in\n    tag_176:\n        /* \"#utility.yul\":3200:3203   */\n      dup3\n        /* \"#utility.yul\":3193:3230   */\n      mstore\n        /* \"#utility.yul\":3110:3236   */\n      pop\n      pop\n      jump\t// out\n        /* \"#utility.yul\":3242:3480   */\n    tag_18:\n        /* \"#utility.yul\":3343:3347   */\n      0x00\n        /* \"#utility.yul\":3381:3383   */\n      0x20\n        /* \"#utility.yul\":3370:3379   */\n      dup3\n        /* \"#utility.yul\":3366:3384   */\n      add\n        /* \"#utility.yul\":3358:3384   */\n      swap1\n      pop\n        /* \"#utility.yul\":3394:3473   */\n      tag_178\n        /* \"#utility.yul\":3470:3471   */\n      0x00\n        /* \"#utility.yul\":3459:3468   */\n      dup4\n        /* \"#utility.yul\":3455:3472   */\n      add\n        /* \"#utility.yul\":3446:3452   */\n      dup5\n        /* \"#utility.yul\":3394:3473   */\n      tag_134\n      jump\t// in\n    tag_178:\n        /* \"#utility.yul\":3242:3480   */\n      swap3\n      swap2\n      pop\n      pop\n      jump\t// out\n        /* \"#utility.yul\":3486:3960   */\n    tag_21:\n        /* \"#utility.yul\":3554:3560   */\n      0x00\n        /* \"#utility.yul\":3562:3568   */\n      dup1\n        /* \"#utility.yul\":3611:3613   */\n      0x40\n        /* \"#utility.yul\":3599:3608   */\n      dup4\n        /* \"#utility.yul\":3590:3597   */\n      dup6\n        /* \"#utility.yul\":3586:3609   */\n      sub\n        /* \"#utility.yul\":3582:3614   */\n      slt\n        /* \"#utility.yul\":3579:3698   */\n      iszero\n      tag_180\n      jumpi\n        /* \"#utility.yul\":3617:3696   */\n      tag_181\n      tag_122\n      jump\t// in\n    tag_181:\n        /* \"#utility.yul\":3579:3698   */\n    tag_180:\n        /* \"#utility.yul\":3737:3738   */\n      0x00\n        /* \"#utility.yul\":3762:3815   */\n      tag_182\n        /* \"#utility.yul\":3807:3814   */\n      dup6\n        /* \"#utility.yul\":3798:3804   */\n      dup3\n        /* \"#utility.yul\":3787:3796   */\n      dup7\n        /* \"#utility.yul\":3783:3805   */\n      add\n        /* \"#utility.yul\":3762:3815   */\n      tag_126\n      jump\t// in\n    tag_182:\n        /* \"#utility.yul\":3752:3815   */\n      swap3\n      pop\n        /* \"#utility.yul\":3708:3825   */\n      pop\n        /* \"#utility.yul\":3864:3866   */\n      0x20\n        /* \"#utility.yul\":3890:3943   */\n      tag_183\n        /* \"#utility.yul\":3935:3942   */\n      dup6\n        /* \"#utility.yul\":3926:3932   */\n      dup3\n        /* \"#utility.yul\":3915:3924   */\n      dup7\n        /* \"#utility.yul\":3911:3933   */\n      add\n        /* \"#utility.yul\":3890:3943   */\n      tag_126\n      jump\t// in\n    tag_183:\n        /* \"#utility.yul\":3880:3943   */\n      swap2\n      pop\n        /* \"#utility.yul\":3835:3953   */\n      pop\n        /* \"#utility.yul\":3486:3960   */\n      swap3\n      pop\n      swap3\n      swap1\n      pop\n      jump\t// out\n        /* \"#utility.yul\":3966:4056   */\n    tag_135:\n        /* \"#utility.yul\":4000:4007   */\n      0x00\n        /* \"#utility.yul\":4043:4048   */\n      dup2\n        /* \"#utility.yul\":4036:4049   */\n      iszero\n        /* \"#utility.yul\":4029:4050   */\n      iszero\n        /* \"#utility.yul\":4018:4050   */\n      swap1\n      pop\n        /* \"#utility.yul\":3966:4056   */\n      swap2\n      swap1\n      pop\n      jump\t// out\n        /* \"#utility.yul\":4062:4179   */\n    tag_136:\n        /* \"#utility.yul\":4151:4172   */\n      tag_186\n        /* \"#utility.yul\":4166:4171   */\n      dup2\n        /* \"#utility.yul\":4151:4172   */\n      tag_135\n      jump\t// in\n    tag_186:\n        /* \"#utility.yul\":4146:4149   */\n      dup3\n        /* \"#utility.yul\":4139:4173   */\n      mstore\n        /* \"#utility.yul\":4062:4179   */\n      pop\n      pop\n      jump\t// out\n        /* \"#utility.yul\":4185:4411   */\n    tag_36:\n        /* \"#utility.yul\":4280:4284   */\n      0x00\n        /* \"#utility.yul\":4318:4320   */\n      0x20\n        /* \"#utility.yul\":4307:4316   */\n      dup3\n        /* \"#utility.yul\":4303:4321   */\n      add\n        /* \"#utility.yul\":4295:4321   */\n      swap1\n      pop\n        /* \"#utility.yul\":4331:4404   */\n      tag_188\n        /* \"#utility.yul\":4401:4402   */\n      0x00\n        /* \"#utility.yul\":4390:4399   */\n      dup4\n        /* \"#utility.yul\":4386:4403   */\n      add\n        /* \"#utility.yul\":4377:4383   */\n      dup5\n        /* \"#utility.yul\":4331:4404   */\n      tag_136\n      jump\t// in\n    tag_188:\n        /* \"#utility.yul\":4185:4411   */\n      swap3\n      swap2\n      pop\n      pop\n      jump\t// out\n        /* \"#utility.yul\":4417:4586   */\n    tag_137:\n        /* \"#utility.yul\":4501:4512   */\n      0x00\n        /* \"#utility.yul\":4535:4541   */\n      dup3\n        /* \"#utility.yul\":4530:4533   */\n      dup3\n        /* \"#utility.yul\":4523:4542   */\n      mstore\n        /* \"#utility.yul\":4575:4579   */\n      0x20\n        /* \"#utility.yul\":4570:4573   */\n      dup3\n        /* \"#utility.yul\":4566:4580   */\n      add\n        /* \"#utility.yul\":4551:4580   */\n      swap1\n      pop\n        /* \"#utility.yul\":4417:4586   */\n      swap3\n      swap2\n      pop\n      pop\n      jump\t// out\n        /* \"#utility.yul\":4592:4816   */\n    tag_138:\n        /* \"#utility.yul\":4732:4766   */\n      0x496e70757420746f6f206c617267652c20776f756c64206361757365206f7665\n        /* \"#utility.yul\":4728:4729   */\n      0x00\n        /* \"#utility.yul\":4720:4726   */\n      dup3\n        /* \"#utility.yul\":4716:4730   */\n      add\n        /* \"#utility.yul\":4709:4767   */\n      mstore\n        /* \"#utility.yul\":4801:4808   */\n      0x72666c6f77000000000000000000000000000000000000000000000000000000\n        /* \"#utility.yul\":4796:4798   */\n      0x20\n        /* \"#utility.yul\":4788:4794   */\n      dup3\n        /* \"#utility.yul\":4784:4799   */\n      add\n        /* \"#utility.yul\":4777:4809   */\n      mstore\n        /* \"#utility.yul\":4592:4816   */\n      pop\n      jump\t// out\n        /* \"#utility.yul\":4822:5188   */\n    tag_139:\n        /* \"#utility.yul\":4964:4967   */\n      0x00\n        /* \"#utility.yul\":4985:5052   */\n      tag_192\n        /* \"#utility.yul\":5049:5051   */\n      0x25\n        /* \"#utility.yul\":5044:5047   */\n      dup4\n        /* \"#utility.yul\":4985:5052   */\n      tag_137\n      jump\t// in\n    tag_192:\n        /* \"#utility.yul\":4978:5052   */\n      swap2\n      pop\n        /* \"#utility.yul\":5061:5154   */\n      tag_193\n        /* \"#utility.yul\":5150:5153   */\n      dup3\n        /* \"#utility.yul\":5061:5154   */\n      tag_138\n      jump\t// in\n    tag_193:\n        /* \"#utility.yul\":5179:5181   */\n      0x40\n        /* \"#utility.yul\":5174:5177   */\n      dup3\n        /* \"#utility.yul\":5170:5182   */\n      add\n        /* \"#utility.yul\":5163:5182   */\n      swap1\n      pop\n        /* \"#utility.yul\":4822:5188   */\n      swap2\n      swap1\n      pop\n      jump\t// out\n        /* \"#utility.yul\":5194:5613   */\n    tag_40:\n        /* \"#utility.yul\":5360:5364   */\n      0x00\n        /* \"#utility.yul\":5398:5400   */\n      0x20\n        /* \"#utility.yul\":5387:5396   */\n      dup3\n        /* \"#utility.yul\":5383:5401   */\n      add\n        /* \"#utility.yul\":5375:5401   */\n      swap1\n      pop\n        /* \"#utility.yul\":5447:5456   */\n      dup2\n        /* \"#utility.yul\":5441:5445   */\n      dup2\n        /* \"#utility.yul\":5437:5457   */\n      sub\n        /* \"#utility.yul\":5433:5434   */\n      0x00\n        /* \"#utility.yul\":5422:5431   */\n      dup4\n        /* \"#utility.yul\":5418:5435   */\n      add\n        /* \"#utility.yul\":5411:5458   */\n      mstore\n        /* \"#utility.yul\":5475:5606   */\n      tag_195\n        /* \"#utility.yul\":5601:5605   */\n      dup2\n        /* \"#utility.yul\":5475:5606   */\n      tag_139\n      jump\t// in\n    tag_195:\n        /* \"#utility.yul\":5467:5606   */\n      swap1\n      pop\n        /* \"#utility.yul\":5194:5613   */\n      swap2\n      swap1\n      pop\n      jump\t// out\n        /* \"#utility.yul\":5619:5799   */\n    tag_140:\n        /* \"#utility.yul\":5667:5744   */\n      0x4e487b7100000000000000000000000000000000000000000000000000000000\n        /* \"#utility.yul\":5664:5665   */\n      0x00\n        /* \"#utility.yul\":5657:5745   */\n      mstore\n        /* \"#utility.yul\":5764:5768   */\n      0x11\n        /* \"#utility.yul\":5761:5762   */\n      0x04\n        /* \"#utility.yul\":5754:5769   */\n      mstore\n        /* \"#utility.yul\":5788:5792   */\n      0x24\n        /* \"#utility.yul\":5785:5786   */\n      0x00\n        /* \"#utility.yul\":5778:5793   */\n      revert\n        /* \"#utility.yul\":5805:5996   */\n    tag_42:\n        /* \"#utility.yul\":5845:5848   */\n      0x00\n        /* \"#utility.yul\":5864:5884   */\n      tag_198\n        /* \"#utility.yul\":5882:5883   */\n      dup3\n        /* \"#utility.yul\":5864:5884   */\n      tag_124\n      jump\t// in\n    tag_198:\n        /* \"#utility.yul\":5859:5884   */\n      swap2\n      pop\n        /* \"#utility.yul\":5898:5918   */\n      tag_199\n        /* \"#utility.yul\":5916:5917   */\n      dup4\n        /* \"#utility.yul\":5898:5918   */\n      tag_124\n      jump\t// in\n    tag_199:\n        /* \"#utility.yul\":5893:5918   */\n      swap3\n      pop\n        /* \"#utility.yul\":5941:5942   */\n      dup3\n        /* \"#utility.yul\":5938:5939   */\n      dup3\n        /* \"#utility.yul\":5934:5943   */\n      add\n        /* \"#utility.yul\":5927:5943   */\n      swap1\n      pop\n        /* \"#utility.yul\":5962:5965   */\n      dup1\n        /* \"#utility.yul\":5959:5960   */\n      dup3\n        /* \"#utility.yul\":5956:5966   */\n      gt\n        /* \"#utility.yul\":5953:5989   */\n      iszero\n      tag_200\n      jumpi\n        /* \"#utility.yul\":5969:5987   */\n      tag_201\n      tag_140\n      jump\t// in\n    tag_201:\n        /* \"#utility.yul\":5953:5989   */\n    tag_200:\n        /* \"#utility.yul\":5805:5996   */\n      swap3\n      swap2\n      pop\n      pop\n      jump\t// out\n        /* \"#utility.yul\":6002:6182   */\n    tag_45:\n        /* \"#utility.yul\":6050:6127   */\n      0x4e487b7100000000000000000000000000000000000000000000000000000000\n        /* \"#utility.yul\":6047:6048   */\n      0x00\n        /* \"#utility.yul\":6040:6128   */\n      mstore\n        /* \"#utility.yul\":6147:6151   */\n      0x41\n        /* \"#utility.yul\":6144:6145   */\n      0x04\n        /* \"#utility.yul\":6137:6152   */\n      mstore\n        /* \"#utility.yul\":6171:6175   */\n      0x24\n        /* \"#utility.yul\":6168:6169   */\n      0x00\n        /* \"#utility.yul\":6161:6176   */\n      revert\n        /* \"#utility.yul\":6188:6368   */\n    tag_50:\n        /* \"#utility.yul\":6236:6313   */\n      0x4e487b7100000000000000000000000000000000000000000000000000000000\n        /* \"#utility.yul\":6233:6234   */\n      0x00\n        /* \"#utility.yul\":6226:6314   */\n      mstore\n        /* \"#utility.yul\":6333:6337   */\n      0x32\n        /* \"#utility.yul\":6330:6331   */\n      0x04\n        /* \"#utility.yul\":6323:6338   */\n      mstore\n        /* \"#utility.yul\":6357:6361   */\n      0x24\n        /* \"#utility.yul\":6354:6355   */\n      0x00\n        /* \"#utility.yul\":6347:6362   */\n      revert\n        /* \"#utility.yul\":6374:6568   */\n    tag_58:\n        /* \"#utility.yul\":6414:6418   */\n      0x00\n        /* \"#utility.yul\":6434:6454   */\n      tag_205\n        /* \"#utility.yul\":6452:6453   */\n      dup3\n        /* \"#utility.yul\":6434:6454   */\n      tag_124\n      jump\t// in\n    tag_205:\n        /* \"#utility.yul\":6429:6454   */\n      swap2\n      pop\n        /* \"#utility.yul\":6468:6488   */\n      tag_206\n        /* \"#utility.yul\":6486:6487   */\n      dup4\n        /* \"#utility.yul\":6468:6488   */\n      tag_124\n      jump\t// in\n    tag_206:\n        /* \"#utility.yul\":6463:6488   */\n      swap3\n      pop\n        /* \"#utility.yul\":6512:6513   */\n      dup3\n        /* \"#utility.yul\":6509:6510   */\n      dup3\n        /* \"#utility.yul\":6505:6514   */\n      sub\n        /* \"#utility.yul\":6497:6514   */\n      swap1\n      pop\n        /* \"#utility.yul\":6536:6537   */\n      dup2\n        /* \"#utility.yul\":6530:6534   */\n      dup2\n        /* \"#utility.yul\":6527:6538   */\n      gt\n        /* \"#utility.yul\":6524:6561   */\n      iszero\n      tag_207\n      jumpi\n        /* \"#utility.yul\":6541:6559   */\n      tag_208\n      tag_140\n      jump\t// in\n    tag_208:\n        /* \"#utility.yul\":6524:6561   */\n    tag_207:\n        /* \"#utility.yul\":6374:6568   */\n      swap3\n      swap2\n      pop\n      pop\n      jump\t// out\n        /* \"#utility.yul\":6574:6807   */\n    tag_68:\n        /* \"#utility.yul\":6613:6616   */\n      0x00\n        /* \"#utility.yul\":6636:6660   */\n      tag_210\n        /* \"#utility.yul\":6654:6659   */\n      dup3\n        /* \"#utility.yul\":6636:6660   */\n      tag_124\n      jump\t// in\n    tag_210:\n        /* \"#utility.yul\":6627:6660   */\n      swap2\n      pop\n        /* \"#utility.yul\":6682:6748   */\n      0xffffffffffffffffffffffffffffffffffffffffffffffffffffffffffffffff\n        /* \"#utility.yul\":6675:6680   */\n      dup3\n        /* \"#utility.yul\":6672:6749   */\n      sub\n        /* \"#utility.yul\":6669:6772   */\n      tag_211\n      jumpi\n        /* \"#utility.yul\":6752:6770   */\n      tag_212\n      tag_140\n      jump\t// in\n    tag_212:\n        /* \"#utility.yul\":6669:6772   */\n    tag_211:\n        /* \"#utility.yul\":6799:6800   */\n      0x01\n        /* \"#utility.yul\":6792:6797   */\n      dup3\n        /* \"#utility.yul\":6788:6801   */\n      add\n        /* \"#utility.yul\":6781:6801   */\n      swap1\n      pop\n        /* \"#utility.yul\":6574:6807   */\n      swap2\n      swap1\n      pop\n      jump\t// out\n        /* \"#utility.yul\":6813:7223   */\n    tag_93:\n        /* \"#utility.yul\":6853:6860   */\n      0x00\n        /* \"#utility.yul\":6876:6896   */\n      tag_214\n        /* \"#utility.yul\":6894:6895   */\n      dup3\n        /* \"#utility.yul\":6876:6896   */\n      tag_124\n      jump\t// in\n    tag_214:\n        /* \"#utility.yul\":6871:6896   */\n      swap2\n      pop\n        /* \"#utility.yul\":6910:6930   */\n      tag_215\n        /* \"#utility.yul\":6928:6929   */\n      dup4\n        /* \"#utility.yul\":6910:6930   */\n      tag_124\n      jump\t// in\n    tag_215:\n        /* \"#utility.yul\":6905:6930   */\n      swap3\n      pop\n        /* \"#utility.yul\":6965:6966   */\n      dup3\n        /* \"#utility.yul\":6962:6963   */\n      dup3\n        /* \"#utility.yul\":6958:6967   */\n      mul\n        /* \"#utility.yul\":6987:7017   */\n      tag_216\n        /* \"#utility.yul\":7005:7016   */\n      dup2\n        /* \"#utility.yul\":6987:7017   */\n      tag_124\n      jump\t// in\n    tag_216:\n        /* \"#utility.yul\":6976:7017   */\n      swap2\n      pop\n        /* \"#utility.yul\":7166:7167   */\n      dup3\n        /* \"#utility.yul\":7157:7164   */\n      dup3\n        /* \"#utility.yul\":7153:7168   */\n      div\n        /* \"#utility.yul\":7150:7151   */\n      dup5\n        /* \"#utility.yul\":7147:7169   */\n      eq\n        /* \"#utility.yul\":7127:7128   */\n      dup4\n        /* \"#utility.yul\":7120:7129   */\n      iszero\n        /* \"#utility.yul\":7100:7183   */\n      or\n        /* \"#utility.yul\":7077:7216   */\n      tag_217\n      jumpi\n        /* \"#utility.yul\":7196:7214   */\n      tag_218\n      tag_140\n      jump\t// in\n    tag_218:\n        /* \"#utility.yul\":7077:7216   */\n    tag_217:\n        /* \"#utility.yul\":6861:7223   */\n      pop\n        /* \"#utility.yul\":6813:7223   */\n      swap3\n      swap2\n      pop\n      pop\n      jump\t// out\n        /* \"#utility.yul\":7229:7409   */\n    tag_141:\n        /* \"#utility.yul\":7277:7354   */\n      0x4e487b7100000000000000000000000000000000000000000000000000000000\n        /* \"#utility.yul\":7274:7275   */\n      0x00\n        /* \"#utility.yul\":7267:7355   */\n      mstore\n        /* \"#utility.yul\":7374:7378   */\n      0x12\n        /* \"#utility.yul\":7371:7372   */\n      0x04\n        /* \"#utility.yul\":7364:7379   */\n      mstore\n        /* \"#utility.yul\":7398:7402   */\n      0x24\n        /* \"#utility.yul\":7395:7396   */\n      0x00\n        /* \"#utility.yul\":7388:7403   */\n      revert\n        /* \"#utility.yul\":7415:7591   */\n    tag_101:\n        /* \"#utility.yul\":7447:7448   */\n      0x00\n        /* \"#utility.yul\":7464:7484   */\n      tag_221\n        /* \"#utility.yul\":7482:7483   */\n      dup3\n        /* \"#utility.yul\":7464:7484   */\n      tag_124\n      jump\t// in\n    tag_221:\n        /* \"#utility.yul\":7459:7484   */\n      swap2\n      pop\n        /* \"#utility.yul\":7498:7518   */\n      tag_222\n        /* \"#utility.yul\":7516:7517   */\n      dup4\n        /* \"#utility.yul\":7498:7518   */\n      tag_124\n      jump\t// in\n    tag_222:\n        /* \"#utility.yul\":7493:7518   */\n      swap3\n      pop\n        /* \"#utility.yul\":7537:7538   */\n      dup3\n        /* \"#utility.yul\":7527:7562   */\n      tag_223\n      jumpi\n        /* \"#utility.yul\":7542:7560   */\n      tag_224\n      tag_141\n      jump\t// in\n    tag_224:\n        /* \"#utility.yul\":7527:7562   */\n    tag_223:\n        /* \"#utility.yul\":7583:7584   */\n      dup3\n        /* \"#utility.yul\":7580:7581   */\n      dup3\n        /* \"#utility.yul\":7576:7585   */\n      mod\n        /* \"#utility.yul\":7571:7585   */\n      swap1\n      pop\n        /* \"#utility.yul\":7415:7591   */\n      swap3\n      swap2\n      pop\n      pop\n      jump\t// out\n        /* \"#utility.yul\":7597:7782   */\n    tag_106:\n        /* \"#utility.yul\":7637:7638   */\n      0x00\n        /* \"#utility.yul\":7654:7674   */\n      tag_226\n        /* \"#utility.yul\":7672:7673   */\n      dup3\n        /* \"#utility.yul\":7654:7674   */\n      tag_124\n      jump\t// in\n    tag_226:\n        /* \"#utility.yul\":7649:7674   */\n      swap2\n      pop\n        /* \"#utility.yul\":7688:7708   */\n      tag_227\n        /* \"#utility.yul\":7706:7707   */\n      dup4\n        /* \"#utility.yul\":7688:7708   */\n      tag_124\n      jump\t// in\n    tag_227:\n        /* \"#utility.yul\":7683:7708   */\n      swap3\n      pop\n        /* \"#utility.yul\":7727:7728   */\n      dup3\n        /* \"#utility.yul\":7717:7752   */\n      tag_228\n      jumpi\n        /* \"#utility.yul\":7732:7750   */\n      tag_229\n      tag_141\n      jump\t// in\n    tag_229:\n        /* \"#utility.yul\":7717:7752   */\n    tag_228:\n        /* \"#utility.yul\":7774:7775   */\n      dup3\n        /* \"#utility.yul\":7771:7772   */\n      dup3\n        /* \"#utility.yul\":7767:7776   */\n      div\n        /* \"#utility.yul\":7762:7776   */\n      swap1\n      pop\n        /* \"#utility.yul\":7597:7782   */\n      swap3\n      swap2\n      pop\n      pop\n      jump\t// out\n\n    auxdata: 0xa2646970667358221220ac40555844d79eb5ee9781d10d30521aa12c094253bcb7ca1ed9d00ab8928c9364736f6c63430008120033\n}\n",
				"bytecode": {
					"linkReferences": {},
					"object": "610a8a610053600b82828239805160001a607314610046577f4e487b7100000000000000000000000000000000000000000000000000000000600052600060045260246000fd5b30600052607381538281f3fe730000000000000000000000000000000000000000301460806040526004361061006c5760003560e01c80631b35b4901461007157806361047ff4146100a15780636d5433e6146100d15780637ae2b5c7146101015780638371483414610131578063fe459d2014610161575b600080fd5b61008b600480360381019061008691906105f4565b610191565b60405161009891906106df565b60405180910390f35b6100bb60048036038101906100b691906105f4565b610328565b6040516100c89190610710565b60405180910390f35b6100eb60048036038101906100e6919061072b565b6103da565b6040516100f89190610710565b60405180910390f35b61011b6004803603810190610116919061072b565b6103f4565b6040516101289190610710565b60405180910390f35b61014b600480360381019061014691906105f4565b61040e565b6040516101589190610710565b60405180910390f35b61017b600480360381019061017691906105f4565b6104a5565b6040516101889190610786565b60405180910390f35b6060604e8211156101d7576040517f08c379a00000000000000000000000000000000000000000000000000000000081526004016101ce90610824565b60405180910390fd5b60006001836101e69190610873565b67ffffffffffffffff8111156101ff576101fe6108a7565b5b60405190808252806020026020018201604052801561022d5781602001602082028036833780820191505090505b5090506000831061025b5760008160008151811061024e5761024d6108d6565b5b6020026020010181815250505b6001831061028657600181600181518110610279576102786108d6565b5b6020026020010181815250505b6000600290505b83811161031e57816002826102a29190610905565b815181106102b3576102b26108d6565b5b6020026020010151826001836102c99190610905565b815181106102da576102d96108d6565b5b60200260200101516102ec9190610873565b8282815181106102ff576102fe6108d6565b5b602002602001018181525050808061031690610939565b91505061028d565b5080915050919050565b6000604e82111561036e576040517f08c379a000000000000000000000000000000000000000000000000000000000815260040161036590610824565b60405180910390fd5b6000820361037f57600090506103d5565b6001820361039057600190506103d5565b60008060019050600080600290505b8581116103cd5782846103b29190610873565b915082935081925080806103c590610939565b91505061039f565b508193505050505b919050565b6000818310156103ea57816103ec565b825b905092915050565b6000818311156104045781610406565b825b905092915050565b60006014821115610454576040517f08c379a000000000000000000000000000000000000000000000000000000000815260040161044b90610824565b60405180910390fd5b6001821161046557600190506104a0565b6000600190506000600290505b83811161049a5780826104859190610981565b9150808061049290610939565b915050610472565b50809150505b919050565b60008082905060006104b68461050e565b905060005b6000851115610501576000600a866104d391906109f2565b90506104df8184610558565b826104ea9190610873565b9150600a866104f99190610a23565b9550506104bb565b8281149350505050919050565b60008082036105205760019050610553565b60005b600083111561054e57808061053790610939565b915050600a836105479190610a23565b9250610523565b809150505b919050565b600080820361056a57600190506105b3565b6000830361057b57600090506105b3565b60006001905060005b838110156105ad5784826105989190610981565b915080806105a590610939565b915050610584565b50809150505b92915050565b600080fd5b6000819050919050565b6105d1816105be565b81146105dc57600080fd5b50565b6000813590506105ee816105c8565b92915050565b60006020828403121561060a576106096105b9565b5b6000610618848285016105df565b91505092915050565b600081519050919050565b600082825260208201905092915050565b6000819050602082019050919050565b610656816105be565b82525050565b6000610668838361064d565b60208301905092915050565b6000602082019050919050565b600061068c82610621565b610696818561062c565b93506106a18361063d565b8060005b838110156106d25781516106b9888261065c565b97506106c483610674565b9250506001810190506106a5565b5085935050505092915050565b600060208201905081810360008301526106f98184610681565b905092915050565b61070a816105be565b82525050565b60006020820190506107256000830184610701565b92915050565b60008060408385031215610742576107416105b9565b5b6000610750858286016105df565b9250506020610761858286016105df565b9150509250929050565b60008115159050919050565b6107808161076b565b82525050565b600060208201905061079b6000830184610777565b92915050565b600082825260208201905092915050565b7f496e70757420746f6f206c617267652c20776f756c64206361757365206f766560008201527f72666c6f77000000000000000000000000000000000000000000000000000000602082015250565b600061080e6025836107a1565b9150610819826107b2565b604082019050919050565b6000602082019050818103600083015261083d81610801565b9050919050565b7f4e487b7100000000000000000000000000000000000000000000000000000000600052601160045260246000fd5b600061087e826105be565b9150610889836105be565b92508282019050808211156108a1576108a0610844565b5b92915050565b7f4e487b7100000000000000000000000000000000000000000000000000000000600052604160045260246000fd5b7f4e487b7100000000000000000000000000000000000000000000000000000000600052603260045260246000fd5b6000610910826105be565b915061091b836105be565b925082820390508181111561093357610932610844565b5b92915050565b6000610944826105be565b91507fffffffffffffffffffffffffffffffffffffffffffffffffffffffffffffffff820361097657610975610844565b5b600182019050919050565b600061098c826105be565b9150610997836105be565b92508282026109a5816105be565b915082820484148315176109bc576109bb610844565b5b5092915050565b7f4e487b7100000000000000000000000000000000000000000000000000000000600052601260045260246000fd5b60006109fd826105be565b9150610a08836105be565b925082610a1857610a176109c3565b5b828206905092915050565b6000610a2e826105be565b9150610a39836105be565b925082610a4957610a486109c3565b5b82820490509291505056fea2646970667358221220ac40555844d79eb5ee9781d10d30521aa12c094253bcb7ca1ed9d00ab8928c9364736f6c63430008120033",
					"opcodes": "PUSH2 0xA8A PUSH2 0x53 PUSH1 0xB DUP3 DUP3 DUP3 CODECOPY DUP1 MLOAD PUSH1 0x0 BYTE PUSH1 0x73 EQ PUSH2 0x46 JUMPI PUSH32 0x4E487B7100000000000000000000000000000000000000000000000000000000 PUSH1 0x0 MSTORE PUSH1 0x0 PUSH1 0x4 MSTORE PUSH1 0x24 PUSH1 0x0 REVERT JUMPDEST ADDRESS PUSH1 0x0 MSTORE PUSH1 0x73 DUP2 MSTORE8 DUP3 DUP2 RETURN INVALID PUSH20 0x0 ADDRESS EQ PUSH1 0x80 PUSH1 0x40 MSTORE PUSH1 0x4 CALLDATASIZE LT PUSH2 0x6C JUMPI PUSH1 0x0 CALLDATALOAD PUSH1 0xE0 SHR DUP1 PUSH4 0x1B35B490 EQ PUSH2 0x71 JUMPI DUP1 PUSH4 0x61047FF4 EQ PUSH2 0xA1 JUMPI DUP1 PUSH4 0x6D5433E6 EQ PUSH2 0xD1 JUMPI DUP1 PUSH4 0x7AE2B5C7 EQ PUSH2 0x101 JUMPI DUP1 PUSH4 0x83714834 EQ PUSH2 0x131 JUMPI DUP1 PUSH4 0xFE459D20 EQ PUSH2 0x161 JUMPI JUMPDEST PUSH1 0x0 DUP1 REVERT JUMPDEST PUSH2 0x8B PUSH1 0x4 DUP1 CALLDATASIZE SUB DUP2 ADD SWAP1 PUSH2 0x86 SWAP2 SWAP1 PUSH2 0x5F4 JUMP JUMPDEST PUSH2 0x191 JUMP JUMPDEST PUSH1 0x40 MLOAD PUSH2 0x98 SWAP2 SWAP1 PUSH2 0x6DF JUMP JUMPDEST PUSH1 0x40 MLOAD DUP1 SWAP2 SUB SWAP1 RETURN JUMPDEST PUSH2 0xBB PUSH1 0x4 DUP1 CALLDATASIZE SUB DUP2 ADD SWAP1 PUSH2 0xB6 SWAP2 SWAP1 PUSH2 0x5F4 JUMP JUMPDEST PUSH2 0x328 JUMP JUMPDEST PUSH1 0x40 MLOAD PUSH2 0xC8 SWAP2 SWAP1 PUSH2 0x710 JUMP JUMPDEST PUSH1 0x40 MLOAD DUP1 SWAP2 SUB SWAP1 RETURN JUMPDEST PUSH2 0xEB PUSH1 0x4 DUP1 CALLDATASIZE SUB DUP2 ADD SWAP1 PUSH2 0xE6 SWAP2 SWAP1 PUSH2 0x72B JUMP JUMPDEST PUSH2 0x3DA JUMP JUMPDEST PUSH1 0x40 MLOAD PUSH2 0xF8 SWAP2 SWAP1 PUSH2 0x710 JUMP JUMPDEST PUSH1 0x40 MLOAD DUP1 SWAP2 SUB SWAP1 RETURN JUMPDEST PUSH2 0x11B PUSH1 0x4 DUP1 CALLDATASIZE SUB DUP2 ADD SWAP1 PUSH2 0x116 SWAP2 SWAP1 PUSH2 0x72B JUMP JUMPDEST PUSH2 0x3F4 JUMP JUMPDEST PUSH1 0x40 MLOAD PUSH2 0x128 SWAP2 SWAP1 PUSH2 0x710 JUMP JUMPDEST PUSH1 0x40 MLOAD DUP1 SWAP2 SUB SWAP1 RETURN JUMPDEST PUSH2 0x14B PUSH1 0x4 DUP1 CALLDATASIZE SUB DUP2 ADD SWAP1 PUSH2 0x146 SWAP2 SWAP1 PUSH2 0x5F4 JUMP JUMPDEST PUSH2 0x40E JUMP JUMPDEST PUSH1 0x40 MLOAD PUSH2 0x158 SWAP2 SWAP1 PUSH2 0x710 JUMP JUMPDEST PUSH1 0x40 MLOAD DUP1 SWAP2 SUB SWAP1 RETURN JUMPDEST PUSH2 0x17B PUSH1 0x4 DUP1 CALLDATASIZE SUB DUP2 ADD SWAP1 PUSH2 0x176 SWAP2 SWAP1 PUSH2 0x5F4 JUMP JUMPDEST PUSH2 0x4A5 JUMP JUMPDEST PUSH1 0x40 MLOAD PUSH2 0x188 SWAP2 SWAP1 PUSH2 0x786 JUMP JUMPDEST PUSH1 0x40 MLOAD DUP1 SWAP2 SUB SWAP1 RETURN JUMPDEST PUSH1 0x60 PUSH1 0x4E DUP3 GT ISZERO PUSH2 0x1D7 JUMPI PUSH1 0x40 MLOAD PUSH32 0x8C379A000000000000000000000000000000000000000000000000000000000 DUP2 MSTORE PUSH1 0x4 ADD PUSH2 0x1CE SWAP1 PUSH2 0x824 JUMP JUMPDEST PUSH1 0x40 MLOAD DUP1 SWAP2 SUB SWAP1 REVERT JUMPDEST PUSH1 0x0 PUSH1 0x1 DUP4 PUSH2 0x1E6 SWAP2 SWAP1 PUSH2 0x873 JUMP JUMPDEST PUSH8 0xFFFFFFFFFFFFFFFF DUP2 GT ISZERO PUSH2 0x1FF JUMPI PUSH2 0x1FE PUSH2 0x8A7 JUMP JUMPDEST JUMPDEST PUSH1 0x40 MLOAD SWAP1 DUP1 DUP3 MSTORE DUP1 PUSH1 0x20 MUL PUSH1 0x20 ADD DUP3 ADD PUSH1 0x40 MSTORE DUP1 ISZERO PUSH2 0x22D JUMPI DUP2 PUSH1 0x20 ADD PUSH1 0x20 DUP3 MUL DUP1 CALLDATASIZE DUP4 CALLDATACOPY DUP1 DUP3 ADD SWAP2 POP POP SWAP1 POP JUMPDEST POP SWAP1 POP PUSH1 0x0 DUP4 LT PUSH2 0x25B JUMPI PUSH1 0x0 DUP2 PUSH1 0x0 DUP2 MLOAD DUP2 LT PUSH2 0x24E JUMPI PUSH2 0x24D PUSH2 0x8D6 JUMP JUMPDEST JUMPDEST PUSH1 0x20 MUL PUSH1 0x20 ADD ADD DUP2 DUP2 MSTORE POP POP JUMPDEST PUSH1 0x1 DUP4 LT PUSH2 0x286 JUMPI PUSH1 0x1 DUP2 PUSH1 0x1 DUP2 MLOAD DUP2 LT PUSH2 0x279 JUMPI PUSH2 0x278 PUSH2 0x8D6 JUMP JUMPDEST JUMPDEST PUSH1 0x20 MUL PUSH1 0x20 ADD ADD DUP2 DUP2 MSTORE POP POP JUMPDEST PUSH1 0x0 PUSH1 0x2 SWAP1 POP JUMPDEST DUP4 DUP2 GT PUSH2 0x31E JUMPI DUP2 PUSH1 0x2 DUP3 PUSH2 0x2A2 SWAP2 SWAP1 PUSH2 0x905 JUMP JUMPDEST DUP2 MLOAD DUP2 LT PUSH2 0x2B3 JUMPI PUSH2 0x2B2 PUSH2 0x8D6 JUMP JUMPDEST JUMPDEST PUSH1 0x20 MUL PUSH1 0x20 ADD ADD MLOAD DUP3 PUSH1 0x1 DUP4 PUSH2 0x2C9 SWAP2 SWAP1 PUSH2 0x905 JUMP JUMPDEST DUP2 MLOAD DUP2 LT PUSH2 0x2DA JUMPI PUSH2 0x2D9 PUSH2 0x8D6 JUMP JUMPDEST JUMPDEST PUSH1 0x20 MUL PUSH1 0x20 ADD ADD MLOAD PUSH2 0x2EC SWAP2 SWAP1 PUSH2 0x873 JUMP JUMPDEST DUP3 DUP3 DUP2 MLOAD DUP2 LT PUSH2 0x2FF JUMPI PUSH2 0x2FE PUSH2 0x8D6 JUMP JUMPDEST JUMPDEST PUSH1 0x20 MUL PUSH1 0x20 ADD ADD DUP2 DUP2 MSTORE POP POP DUP1 DUP1 PUSH2 0x316 SWAP1 PUSH2 0x939 JUMP JUMPDEST SWAP2 POP POP PUSH2 0x28D JUMP JUMPDEST POP DUP1 SWAP2 POP POP SWAP2 SWAP1 POP JUMP JUMPDEST PUSH1 0x0 PUSH1 0x4E DUP3 GT ISZERO PUSH2 0x36E JUMPI PUSH1 0x40 MLOAD PUSH32 0x8C379A000000000000000000000000000000000000000000000000000000000 DUP2 MSTORE PUSH1 0x4 ADD PUSH2 0x365 SWAP1 PUSH2 0x824 JUMP JUMPDEST PUSH1 0x40 MLOAD DUP1 SWAP2 SUB SWAP1 REVERT JUMPDEST PUSH1 0x0 DUP3 SUB PUSH2 0x37F JUMPI PUSH1 0x0 SWAP1 POP PUSH2 0x3D5 JUMP JUMPDEST PUSH1 0x1 DUP3 SUB PUSH2 0x390 JUMPI PUSH1 0x1 SWAP1 POP PUSH2 0x3D5 JUMP JUMPDEST PUSH1 0x0 DUP1 PUSH1 0x1 SWAP1 POP PUSH1 0x0 DUP1 PUSH1 0x2 SWAP1 POP JUMPDEST DUP6 DUP2 GT PUSH2 0x3CD JUMPI DUP3 DUP5 PUSH2 0x3B2 SWAP2 SWAP1 PUSH2 0x873 JUMP JUMPDEST SWAP2 POP DUP3 SWAP4 POP DUP2 SWAP3 POP DUP1 DUP1 PUSH2 0x3C5 SWAP1 PUSH2 0x939 JUMP JUMPDEST SWAP2 POP POP PUSH2 0x39F JUMP JUMPDEST POP DUP2 SWAP4 POP POP POP POP JUMPDEST SWAP2 SWAP1 POP JUMP JUMPDEST PUSH1 0x0 DUP2 DUP4 LT ISZERO PUSH2 0x3EA JUMPI DUP2 PUSH2 0x3EC JUMP JUMPDEST DUP3 JUMPDEST SWAP1 POP SWAP3 SWAP2 POP POP JUMP JUMPDEST PUSH1 0x0 DUP2 DUP4 GT ISZERO PUSH2 0x404 JUMPI DUP2 PUSH2 0x406 JUMP JUMPDEST DUP3 JUMPDEST SWAP1 POP SWAP3 SWAP2 POP POP JUMP JUMPDEST PUSH1 0x0 PUSH1 0x14 DUP3 GT ISZERO PUSH2 0x454 JUMPI PUSH1 0x40 MLOAD PUSH32 0x8C379A000000000000000000000000000000000000000000000000000000000 DUP2 MSTORE PUSH1 0x4 ADD PUSH2 0x44B SWAP1 PUSH2 0x824 JUMP JUMPDEST PUSH1 0x40 MLOAD DUP1 SWAP2 SUB SWAP1 REVERT JUMPDEST PUSH1 0x1 DUP3 GT PUSH2 0x465 JUMPI PUSH1 0x1 SWAP1 POP PUSH2 0x4A0 JUMP JUMPDEST PUSH1 0x0 PUSH1 0x1 SWAP1 POP PUSH1 0x0 PUSH1 0x2 SWAP1 POP JUMPDEST DUP4 DUP2 GT PUSH2 0x49A JUMPI DUP1 DUP3 PUSH2 0x485 SWAP2 SWAP1 PUSH2 0x981 JUMP JUMPDEST SWAP2 POP DUP1 DUP1 PUSH2 0x492 SWAP1 PUSH2 0x939 JUMP JUMPDEST SWAP2 POP POP PUSH2 0x472 JUMP JUMPDEST POP DUP1 SWAP2 POP POP JUMPDEST SWAP2 SWAP1 POP JUMP JUMPDEST PUSH1 0x0 DUP1 DUP3 SWAP1 POP PUSH1 0x0 PUSH2 0x4B6 DUP5 PUSH2 0x50E JUMP JUMPDEST SWAP1 POP PUSH1 0x0 JUMPDEST PUSH1 0x0 DUP6 GT ISZERO PUSH2 0x501 JUMPI PUSH1 0x0 PUSH1 0xA DUP7 PUSH2 0x4D3 SWAP2 SWAP1 PUSH2 0x9F2 JUMP JUMPDEST SWAP1 POP PUSH2 0x4DF DUP2 DUP5 PUSH2 0x558 JUMP JUMPDEST DUP3 PUSH2 0x4EA SWAP2 SWAP1 PUSH2 0x873 JUMP JUMPDEST SWAP2 POP PUSH1 0xA DUP7 PUSH2 0x4F9 SWAP2 SWAP1 PUSH2 0xA23 JUMP JUMPDEST SWAP6 POP POP PUSH2 0x4BB JUMP JUMPDEST DUP3 DUP2 EQ SWAP4 POP POP POP POP SWAP2 SWAP1 POP JUMP JUMPDEST PUSH1 0x0 DUP1 DUP3 SUB PUSH2 0x520 JUMPI PUSH1 0x1 SWAP1 POP PUSH2 0x553 JUMP JUMPDEST PUSH1 0x0 JUMPDEST PUSH1 0x0 DUP4 GT ISZERO PUSH2 0x54E JUMPI DUP1 DUP1 PUSH2 0x537 SWAP1 PUSH2 0x939 JUMP JUMPDEST SWAP2 POP POP PUSH1 0xA DUP4 PUSH2 0x547 SWAP2 SWAP1 PUSH2 0xA23 JUMP JUMPDEST SWAP3 POP PUSH2 0x523 JUMP JUMPDEST DUP1 SWAP2 POP POP JUMPDEST SWAP2 SWAP1 POP JUMP JUMPDEST PUSH1 0x0 DUP1 DUP3 SUB PUSH2 0x56A JUMPI PUSH1 0x1 SWAP1 POP PUSH2 0x5B3 JUMP JUMPDEST PUSH1 0x0 DUP4 SUB PUSH2 0x57B JUMPI PUSH1 0x0 SWAP1 POP PUSH2 0x5B3 JUMP JUMPDEST PUSH1 0x0 PUSH1 0x1 SWAP1 POP PUSH1 0x0 JUMPDEST DUP4 DUP2 LT ISZERO PUSH2 0x5AD JUMPI DUP5 DUP3 PUSH2 0x598 SWAP2 SWAP1 PUSH2 0x981 JUMP JUMPDEST SWAP2 POP DUP1 DUP1 PUSH2 0x5A5 SWAP1 PUSH2 0x939 JUMP JUMPDEST SWAP2 POP POP PUSH2 0x584 JUMP JUMPDEST POP DUP1 SWAP2 POP POP JUMPDEST SWAP3 SWAP2 POP POP JUMP JUMPDEST PUSH1 0x0 DUP1 REVERT JUMPDEST PUSH1 0x0 DUP2 SWAP1 POP SWAP2 SWAP1 POP JUMP JUMPDEST PUSH2 0x5D1 DUP2 PUSH2 0x5BE JUMP JUMPDEST DUP2 EQ PUSH2 0x5DC JUMPI PUSH1 0x0 DUP1 REVERT JUMPDEST POP JUMP JUMPDEST PUSH1 0x0 DUP2 CALLDATALOAD SWAP1 POP PUSH2 0x5EE DUP2 PUSH2 0x5C8 JUMP JUMPDEST SWAP3 SWAP2 POP POP JUMP JUMPDEST PUSH1 0x0 PUSH1 0x20 DUP3 DUP5 SUB SLT ISZERO PUSH2 0x60A JUMPI PUSH2 0x609 PUSH2 0x5B9 JUMP JUMPDEST JUMPDEST PUSH1 0x0 PUSH2 0x618 DUP5 DUP3 DUP6 ADD PUSH2 0x5DF JUMP JUMPDEST SWAP2 POP POP SWAP3 SWAP2 POP POP JUMP JUMPDEST PUSH1 0x0 DUP2 MLOAD SWAP1 POP SWAP2 SWAP1 POP JUMP JUMPDEST PUSH1 0x0 DUP3 DUP3 MSTORE PUSH1 0x20 DUP3 ADD SWAP1 POP SWAP3 SWAP2 POP POP JUMP JUMPDEST PUSH1 0x0 DUP2 SWAP1 POP PUSH1 0x20 DUP3 ADD SWAP1 POP SWAP2 SWAP1 POP JUMP JUMPDEST PUSH2 0x656 DUP2 PUSH2 0x5BE JUMP JUMPDEST DUP3 MSTORE POP POP JUMP JUMPDEST PUSH1 0x0 PUSH2 0x668 DUP4 DUP4 PUSH2 0x64D JUMP JUMPDEST PUSH1 0x20 DUP4 ADD SWAP1 POP SWAP3 SWAP2 POP POP JUMP JUMPDEST PUSH1 0x0 PUSH1 0x20 DUP3 ADD SWAP1 POP SWAP2 SWAP1 POP JUMP JUMPDEST PUSH1 0x0 PUSH2 0x68C DUP3 PUSH2 0x621 JUMP JUMPDEST PUSH2 0x696 DUP2 DUP6 PUSH2 0x62C JUMP JUMPDEST SWAP4 POP PUSH2 0x6A1 DUP4 PUSH2 0x63D JUMP JUMPDEST DUP1 PUSH1 0x0 JUMPDEST DUP4 DUP2 LT ISZERO PUSH2 0x6D2 JUMPI DUP2 MLOAD PUSH2 0x6B9 DUP9 DUP3 PUSH2 0x65C JUMP JUMPDEST SWAP8 POP PUSH2 0x6C4 DUP4 PUSH2 0x674 JUMP JUMPDEST SWAP3 POP POP PUSH1 0x1 DUP2 ADD SWAP1 POP PUSH2 0x6A5 JUMP JUMPDEST POP DUP6 SWAP4 POP POP POP POP SWAP3 SWAP2 POP POP JUMP JUMPDEST PUSH1 0x0 PUSH1 0x20 DUP3 ADD SWAP1 POP DUP2 DUP2 SUB PUSH1 0x0 DUP4 ADD MSTORE PUSH2 0x6F9 DUP2 DUP5 PUSH2 0x681 JUMP JUMPDEST SWAP1 POP SWAP3 SWAP2 POP POP JUMP JUMPDEST PUSH2 0x70A DUP2 PUSH2 0x5BE JUMP JUMPDEST DUP3 MSTORE POP POP JUMP JUMPDEST PUSH1 0x0 PUSH1 0x20 DUP3 ADD SWAP1 POP PUSH2 0x725 PUSH1 0x0 DUP4 ADD DUP5 PUSH2 0x701 JUMP JUMPDEST SWAP3 SWAP2 POP POP JUMP JUMPDEST PUSH1 0x0 DUP1 PUSH1 0x40 DUP4 DUP6 SUB SLT ISZERO PUSH2 0x742 JUMPI PUSH2 0x741 PUSH2 0x5B9 JUMP JUMPDEST JUMPDEST PUSH1 0x0 PUSH2 0x750 DUP6 DUP3 DUP7 ADD PUSH2 0x5DF JUMP JUMPDEST SWAP3 POP POP PUSH1 0x20 PUSH2 0x761 DUP6 DUP3 DUP7 ADD PUSH2 0x5DF JUMP JUMPDEST SWAP2 POP POP SWAP3 POP SWAP3 SWAP1 POP JUMP JUMPDEST PUSH1 0x0 DUP2 ISZERO ISZERO SWAP1 POP SWAP2 SWAP1 POP JUMP JUMPDEST PUSH2 0x780 DUP2 PUSH2 0x76B JUMP JUMPDEST DUP3 MSTORE POP POP JUMP JUMPDEST PUSH1 0x0 PUSH1 0x20 DUP3 ADD SWAP1 POP PUSH2 0x79B PUSH1 0x0 DUP4 ADD DUP5 PUSH2 0x777 JUMP JUMPDEST SWAP3 SWAP2 POP POP JUMP JUMPDEST PUSH1 0x0 DUP3 DUP3 MSTORE PUSH1 0x20 DUP3 ADD SWAP1 POP SWAP3 SWAP2 POP POP JUMP JUMPDEST PUSH32 0x496E70757420746F6F206C617267652C20776F756C64206361757365206F7665 PUSH1 0x0 DUP3 ADD MSTORE PUSH32 0x72666C6F77000000000000000000000000000000000000000000000000000000 PUSH1 0x20 DUP3 ADD MSTORE POP JUMP JUMPDEST PUSH1 0x0 PUSH2 0x80E PUSH1 0x25 DUP4 PUSH2 0x7A1 JUMP JUMPDEST SWAP2 POP PUSH2 0x819 DUP3 PUSH2 0x7B2 JUMP JUMPDEST PUSH1 0x40 DUP3 ADD SWAP1 POP SWAP2 SWAP1 POP JUMP JUMPDEST PUSH1 0x0 PUSH1 0x20 DUP3 ADD SWAP1 POP DUP2 DUP2 SUB PUSH1 0x0 DUP4 ADD MSTORE PUSH2 0x83D DUP2 PUSH2 0x801 JUMP JUMPDEST SWAP1 POP SWAP2 SWAP1 POP JUMP JUMPDEST PUSH32 0x4E487B7100000000000000000000000000000000000000000000000000000000 PUSH1 0x0 MSTORE PUSH1 0x11 PUSH1 0x4 MSTORE PUSH1 0x24 PUSH1 0x0 REVERT JUMPDEST PUSH1 0x0 PUSH2 0x87E DUP3 PUSH2 0x5BE JUMP JUMPDEST SWAP2 POP PUSH2 0x889 DUP4 PUSH2 0x5BE JUMP JUMPDEST SWAP3 POP DUP3 DUP3 ADD SWAP1 POP DUP1 DUP3 GT ISZERO PUSH2 0x8A1 JUMPI PUSH2 0x8A0 PUSH2 0x844 JUMP JUMPDEST JUMPDEST SWAP3 SWAP2 POP POP JUMP JUMPDEST PUSH32 0x4E487B7100000000000000000000000000000000000000000000000000000000 PUSH1 0x0 MSTORE PUSH1 0x41 PUSH1 0x4 MSTORE PUSH1 0x24 PUSH1 0x0 REVERT JUMPDEST PUSH32 0x4E487B7100000000000000000000000000000000000000000000000000000000 PUSH1 0x0 MSTORE PUSH1 0x32 PUSH1 0x4 MSTORE PUSH1 0x24 PUSH1 0x0 REVERT JUMPDEST PUSH1 0x0 PUSH2 0x910 DUP3 PUSH2 0x5BE JUMP JUMPDEST SWAP2 POP PUSH2 0x91B DUP4 PUSH2 0x5BE JUMP JUMPDEST SWAP3 POP DUP3 DUP3 SUB SWAP1 POP DUP2 DUP2 GT ISZERO PUSH2 0x933 JUMPI PUSH2 0x932 PUSH2 0x844 JUMP JUMPDEST JUMPDEST SWAP3 SWAP2 POP POP JUMP JUMPDEST PUSH1 0x0 PUSH2 0x944 DUP3 PUSH2 0x5BE JUMP JUMPDEST SWAP2 POP PUSH32 0xFFFFFFFFFFFFFFFFFFFFFFFFFFFFFFFFFFFFFFFFFFFFFFFFFFFFFFFFFFFFFFFF DUP3 SUB PUSH2 0x976 JUMPI PUSH2 0x975 PUSH2 0x844 JUMP JUMPDEST JUMPDEST PUSH1 0x1 DUP3 ADD SWAP1 POP SWAP2 SWAP1 POP JUMP JUMPDEST PUSH1 0x0 PUSH2 0x98C DUP3 PUSH2 0x5BE JUMP JUMPDEST SWAP2 POP PUSH2 0x997 DUP4 PUSH2 0x5BE JUMP JUMPDEST SWAP3 POP DUP3 DUP3 MUL PUSH2 0x9A5 DUP2 PUSH2 0x5BE JUMP JUMPDEST SWAP2 POP DUP3 DUP3 DIV DUP5 EQ DUP4 ISZERO OR PUSH2 0x9BC JUMPI PUSH2 0x9BB PUSH2 0x844 JUMP JUMPDEST JUMPDEST POP SWAP3 SWAP2 POP POP JUMP JUMPDEST PUSH32 0x4E487B7100000000000000000000000000000000000000000000000000000000 PUSH1 0x0 MSTORE PUSH1 0x12 PUSH1 0x4 MSTORE PUSH1 0x24 PUSH1 0x0 REVERT JUMPDEST PUSH1 0x0 PUSH2 0x9FD DUP3 PUSH2 0x5BE JUMP JUMPDEST SWAP2 POP PUSH2 0xA08 DUP4 PUSH2 0x5BE JUMP JUMPDEST SWAP3 POP DUP3 PUSH2 0xA18 JUMPI PUSH2 0xA17 PUSH2 0x9C3 JUMP JUMPDEST JUMPDEST DUP3 DUP3 MOD SWAP1 POP SWAP3 SWAP2 POP POP JUMP JUMPDEST PUSH1 0x0 PUSH2 0xA2E DUP3 PUSH2 0x5BE JUMP JUMPDEST SWAP2 POP PUSH2 0xA39 DUP4 PUSH2 0x5BE JUMP JUMPDEST SWAP3 POP DUP3 PUSH2 0xA49 JUMPI PUSH2 0xA48 PUSH2 0x9C3 JUMP JUMPDEST JUMPDEST DUP3 DUP3 DIV SWAP1 POP SWAP3 SWAP2 POP POP JUMP INVALID LOG2 PUSH5 0x6970667358 0x22 SLT KECCAK256 0xAC BLOCKHASH SSTORE PC PREVRANDAO 0xD7 SWAP15 0xB5 0xEE SWAP8 DUP2 0xD1 0xD ADDRESS MSTORE BYTE LOG1 0x2C MULMOD TIMESTAMP MSTORE8 0xBC 0xB7 0xCA 0x1E 0xD9 0xD0 EXP 0xB8 SWAP3 DUP13 SWAP4 PUSH5 0x736F6C6343 STOP ADDMOD SLT STOP CALLER "
				},
				"gasEstimates": {
					"creation": {
						"codeDepositCost": "539600",
						"executionCost": "600",
						"totalCost": "540200"
					},
					"external": {
						"factorial(uint256)": "infinite",
						"fibonacci(uint256)": "infinite",
						"fibonacciSeries(uint256)": "infinite",
						"isArmstrong(uint256)": "infinite",
						"max(uint256,uint256)": "infinite",
						"min(uint256,uint256)": "infinite"
					},
					"internal": {
						"countDigits(uint256)": "infinite",
						"power(uint256,uint256)": "infinite"
					}
				},
				"methodIdentifiers": {
					"factorial(uint256)": "83714834",
					"fibonacci(uint256)": "61047ff4",
					"fibonacciSeries(uint256)": "1b35b490",
					"isArmstrong(uint256)": "fe459d20",
					"max(uint256,uint256)": "6d5433e6",
					"min(uint256,uint256)": "7ae2b5c7"
				}
			},
			"storageLayout": {
				"storage": [],
				"types": null
			},
			"userdoc": {
				"kind": "user",
				"methods": {},
				"version": 1
			}
		}
	}
}