{
	"Day-06/D6P2.sol": {
		"Calculator": {
			"abi": [
				{
					"anonymous": false,
					"inputs": [
						{
							"indexed": false,
							"internalType": "string",
							"name": "operation",
							"type": "string"
						},
						{
							"indexed": false,
							"internalType": "int256",
							"name": "result",
							"type": "int256"
						}
					],
					"name": "CalculationPerformed",
					"type": "event"
				},
				{
					"anonymous": false,
					"inputs": [
						{
							"indexed": false,
							"internalType": "string",
							"name": "operation",
							"type": "string"
						},
						{
							"indexed": false,
							"internalType": "uint256",
							"name": "result",
							"type": "uint256"
						}
					],
					"name": "UintCalculationPerformed",
					"type": "event"
				},
				{
					"inputs": [
						{
							"internalType": "int256",
							"name": "a",
							"type": "int256"
						}
					],
					"name": "absoluteValue",
					"outputs": [
						{
							"internalType": "uint256",
							"name": "",
							"type": "uint256"
						}
					],
					"stateMutability": "nonpayable",
					"type": "function"
				},
				{
					"inputs": [
						{
							"internalType": "int256",
							"name": "a",
							"type": "int256"
						}
					],
					"name": "absoluteValueView",
					"outputs": [
						{
							"internalType": "uint256",
							"name": "",
							"type": "uint256"
						}
					],
					"stateMutability": "pure",
					"type": "function"
				},
				{
					"inputs": [
						{
							"internalType": "int256",
							"name": "a",
							"type": "int256"
						},
						{
							"internalType": "int256",
							"name": "b",
							"type": "int256"
						}
					],
					"name": "add",
					"outputs": [
						{
							"internalType": "int256",
							"name": "",
							"type": "int256"
						}
					],
					"stateMutability": "nonpayable",
					"type": "function"
				},
				{
					"inputs": [
						{
							"internalType": "int256",
							"name": "a",
							"type": "int256"
						},
						{
							"internalType": "int256",
							"name": "b",
							"type": "int256"
						}
					],
					"name": "addView",
					"outputs": [
						{
							"internalType": "int256",
							"name": "",
							"type": "int256"
						}
					],
					"stateMutability": "pure",
					"type": "function"
				},
				{
					"inputs": [
						{
							"internalType": "int256",
							"name": "a",
							"type": "int256"
						},
						{
							"internalType": "int256",
							"name": "b",
							"type": "int256"
						}
					],
					"name": "divide",
					"outputs": [
						{
							"internalType": "int256",
							"name": "",
							"type": "int256"
						}
					],
					"stateMutability": "nonpayable",
					"type": "function"
				},
				{
					"inputs": [
						{
							"internalType": "int256",
							"name": "a",
							"type": "int256"
						},
						{
							"internalType": "int256",
							"name": "b",
							"type": "int256"
						}
					],
					"name": "divideView",
					"outputs": [
						{
							"internalType": "int256",
							"name": "",
							"type": "int256"
						}
					],
					"stateMutability": "pure",
					"type": "function"
				},
				{
					"inputs": [
						{
							"internalType": "uint256",
							"name": "base",
							"type": "uint256"
						},
						{
							"internalType": "uint256",
							"name": "exponent",
							"type": "uint256"
						}
					],
					"name": "exponentiation",
					"outputs": [
						{
							"internalType": "uint256",
							"name": "",
							"type": "uint256"
						}
					],
					"stateMutability": "nonpayable",
					"type": "function"
				},
				{
					"inputs": [
						{
							"internalType": "uint256",
							"name": "base",
							"type": "uint256"
						},
						{
							"internalType": "uint256",
							"name": "exponent",
							"type": "uint256"
						}
					],
					"name": "exponentiationView",
					"outputs": [
						{
							"internalType": "uint256",
							"name": "",
							"type": "uint256"
						}
					],
					"stateMutability": "pure",
					"type": "function"
				},
				{
					"inputs": [
						{
							"internalType": "int256",
							"name": "a",
							"type": "int256"
						},
						{
							"internalType": "int256",
							"name": "b",
							"type": "int256"
						}
					],
					"name": "modulo",
					"outputs": [
						{
							"internalType": "int256",
							"name": "",
							"type": "int256"
						}
					],
					"stateMutability": "nonpayable",
					"type": "function"
				},
				{
					"inputs": [
						{
							"internalType": "int256",
							"name": "a",
							"type": "int256"
						},
						{
							"internalType": "int256",
							"name": "b",
							"type": "int256"
						}
					],
					"name": "moduloView",
					"outputs": [
						{
							"internalType": "int256",
							"name": "",
							"type": "int256"
						}
					],
					"stateMutability": "pure",
					"type": "function"
				},
				{
					"inputs": [
						{
							"internalType": "int256",
							"name": "a",
							"type": "int256"
						},
						{
							"internalType": "int256",
							"name": "b",
							"type": "int256"
						}
					],
					"name": "multiply",
					"outputs": [
						{
							"internalType": "int256",
							"name": "",
							"type": "int256"
						}
					],
					"stateMutability": "nonpayable",
					"type": "function"
				},
				{
					"inputs": [
						{
							"internalType": "int256",
							"name": "a",
							"type": "int256"
						},
						{
							"internalType": "int256",
							"name": "b",
							"type": "int256"
						}
					],
					"name": "multiplyView",
					"outputs": [
						{
							"internalType": "int256",
							"name": "",
							"type": "int256"
						}
					],
					"stateMutability": "pure",
					"type": "function"
				},
				{
					"inputs": [
						{
							"internalType": "uint256",
							"name": "a",
							"type": "uint256"
						}
					],
					"name": "squareRoot",
					"outputs": [
						{
							"internalType": "uint256",
							"name": "",
							"type": "uint256"
						}
					],
					"stateMutability": "nonpayable",
					"type": "function"
				},
				{
					"inputs": [
						{
							"internalType": "uint256",
							"name": "a",
							"type": "uint256"
						}
					],
					"name": "squareRootView",
					"outputs": [
						{
							"internalType": "uint256",
							"name": "",
							"type": "uint256"
						}
					],
					"stateMutability": "pure",
					"type": "function"
				},
				{
					"inputs": [
						{
							"internalType": "int256",
							"name": "a",
							"type": "int256"
						},
						{
							"internalType": "int256",
							"name": "b",
							"type": "int256"
						}
					],
					"name": "subtract",
					"outputs": [
						{
							"internalType": "int256",
							"name": "",
							"type": "int256"
						}
					],
					"stateMutability": "nonpayable",
					"type": "function"
				},
				{
					"inputs": [
						{
							"internalType": "int256",
							"name": "a",
							"type": "int256"
						},
						{
							"internalType": "int256",
							"name": "b",
							"type": "int256"
						}
					],
					"name": "subtractView",
					"outputs": [
						{
							"internalType": "int256",
							"name": "",
							"type": "int256"
						}
					],
					"stateMutability": "pure",
					"type": "function"
				}
			],
			"devdoc": {
				"kind": "dev",
				"methods": {},
				"version": 1
			},
			"evm": {
				"assembly": "    /* \"Day-06/D6P2.sol\":1146:4429  contract Calculator {... */\n  mstore(0x40, 0x80)\n  callvalue\n  dup1\n  iszero\n  tag_1\n  jumpi\n  0x00\n  dup1\n  revert\ntag_1:\n  pop\n  dataSize(sub_0)\n  dup1\n  dataOffset(sub_0)\n  0x00\n  codecopy\n  0x00\n  return\nstop\n\nsub_0: assembly {\n        /* \"Day-06/D6P2.sol\":1146:4429  contract Calculator {... */\n      mstore(0x40, 0x80)\n      callvalue\n      dup1\n      iszero\n      tag_1\n      jumpi\n      0x00\n      dup1\n      revert\n    tag_1:\n      pop\n      jumpi(tag_2, lt(calldatasize, 0x04))\n      shr(0xe0, calldataload(0x00))\n      dup1\n      0x7b23c0a9\n      gt\n      tag_19\n      jumpi\n      dup1\n      0xd03428a6\n      gt\n      tag_20\n      jumpi\n      dup1\n      0xd03428a6\n      eq\n      tag_15\n      jumpi\n      dup1\n      0xe149e7b0\n      eq\n      tag_16\n      jumpi\n      dup1\n      0xf5984236\n      eq\n      tag_17\n      jumpi\n      dup1\n      0xf86b8f30\n      eq\n      tag_18\n      jumpi\n      jump(tag_2)\n    tag_20:\n      dup1\n      0x7b23c0a9\n      eq\n      tag_11\n      jumpi\n      dup1\n      0x97d2b755\n      eq\n      tag_12\n      jumpi\n      dup1\n      0xa5f3c23b\n      eq\n      tag_13\n      jumpi\n      dup1\n      0xb93ea812\n      eq\n      tag_14\n      jumpi\n      jump(tag_2)\n    tag_19:\n      dup1\n      0x4280f8e7\n      gt\n      tag_21\n      jumpi\n      dup1\n      0x4280f8e7\n      eq\n      tag_7\n      jumpi\n      dup1\n      0x6c901184\n      eq\n      tag_8\n      jumpi\n      dup1\n      0x712ec062\n      eq\n      tag_9\n      jumpi\n      dup1\n      0x7b019f89\n      eq\n      tag_10\n      jumpi\n      jump(tag_2)\n    tag_21:\n      dup1\n      0x121c3169\n      eq\n      tag_3\n      jumpi\n      dup1\n      0x15753596\n      eq\n      tag_4\n      jumpi\n      dup1\n      0x24884b64\n      eq\n      tag_5\n      jumpi\n      dup1\n      0x3c4308a8\n      eq\n      tag_6\n      jumpi\n    tag_2:\n      0x00\n      dup1\n      revert\n        /* \"Day-06/D6P2.sol\":2339:2561  function modulo(int256 a, int256 b) public returns (int256) {... */\n    tag_3:\n      tag_22\n      0x04\n      dup1\n      calldatasize\n      sub\n      dup2\n      add\n      swap1\n      tag_23\n      swap2\n      swap1\n      tag_24\n      jump\t// in\n    tag_23:\n      tag_25\n      jump\t// in\n    tag_22:\n      mload(0x40)\n      tag_26\n      swap2\n      swap1\n      tag_27\n      jump\t// in\n    tag_26:\n      mload(0x40)\n      dup1\n      swap2\n      sub\n      swap1\n      return\n        /* \"Day-06/D6P2.sol\":3712:3858  function divideView(int256 a, int256 b) public pure returns (int256) {... */\n    tag_4:\n      tag_28\n      0x04\n      dup1\n      calldatasize\n      sub\n      dup2\n      add\n      swap1\n      tag_29\n      swap2\n      swap1\n      tag_24\n      jump\t// in\n    tag_29:\n      tag_30\n      jump\t// in\n    tag_28:\n      mload(0x40)\n      tag_31\n      swap2\n      swap1\n      tag_27\n      jump\t// in\n    tag_31:\n      mload(0x40)\n      dup1\n      swap2\n      sub\n      swap1\n      return\n        /* \"Day-06/D6P2.sol\":3054:3296  function exponentiation(uint256 base, uint256 exponent) public returns (uint256) {... */\n    tag_5:\n      tag_32\n      0x04\n      dup1\n      calldatasize\n      sub\n      dup2\n      add\n      swap1\n      tag_33\n      swap2\n      swap1\n      tag_34\n      jump\t// in\n    tag_33:\n      tag_35\n      jump\t// in\n    tag_32:\n      mload(0x40)\n      tag_36\n      swap2\n      swap1\n      tag_37\n      jump\t// in\n    tag_36:\n      mload(0x40)\n      dup1\n      swap2\n      sub\n      swap1\n      return\n        /* \"Day-06/D6P2.sol\":1901:2089  function multiply(int256 a, int256 b) public returns (int256) {... */\n    tag_6:\n      tag_38\n      0x04\n      dup1\n      calldatasize\n      sub\n      dup2\n      add\n      swap1\n      tag_39\n      swap2\n      swap1\n      tag_24\n      jump\t// in\n    tag_39:\n      tag_40\n      jump\t// in\n    tag_38:\n      mload(0x40)\n      tag_41\n      swap2\n      swap1\n      tag_27\n      jump\t// in\n    tag_41:\n      mload(0x40)\n      dup1\n      swap2\n      sub\n      swap1\n      return\n        /* \"Day-06/D6P2.sol\":3870:4014  function moduloView(int256 a, int256 b) public pure returns (int256) {... */\n    tag_7:\n      tag_42\n      0x04\n      dup1\n      calldatasize\n      sub\n      dup2\n      add\n      swap1\n      tag_43\n      swap2\n      swap1\n      tag_24\n      jump\t// in\n    tag_43:\n      tag_44\n      jump\t// in\n    tag_42:\n      mload(0x40)\n      tag_45\n      swap2\n      swap1\n      tag_27\n      jump\t// in\n    tag_45:\n      mload(0x40)\n      dup1\n      swap2\n      sub\n      swap1\n      return\n        /* \"Day-06/D6P2.sol\":3598:3700  function multiplyView(int256 a, int256 b) public pure returns (int256) {... */\n    tag_8:\n      tag_46\n      0x04\n      dup1\n      calldatasize\n      sub\n      dup2\n      add\n      swap1\n      tag_47\n      swap2\n      swap1\n      tag_24\n      jump\t// in\n    tag_47:\n      tag_48\n      jump\t// in\n    tag_46:\n      mload(0x40)\n      tag_49\n      swap2\n      swap1\n      tag_27\n      jump\t// in\n    tag_49:\n      mload(0x40)\n      dup1\n      swap2\n      sub\n      swap1\n      return\n        /* \"Day-06/D6P2.sol\":3375:3472  function addView(int256 a, int256 b) public pure returns (int256) {... */\n    tag_9:\n      tag_50\n      0x04\n      dup1\n      calldatasize\n      sub\n      dup2\n      add\n      swap1\n      tag_51\n      swap2\n      swap1\n      tag_24\n      jump\t// in\n    tag_51:\n      tag_52\n      jump\t// in\n    tag_50:\n      mload(0x40)\n      tag_53\n      swap2\n      swap1\n      tag_27\n      jump\t// in\n    tag_53:\n      mload(0x40)\n      dup1\n      swap2\n      sub\n      swap1\n      return\n        /* \"Day-06/D6P2.sol\":2626:2826  function squareRoot(uint256 a) public returns (uint256) {... */\n    tag_10:\n      tag_54\n      0x04\n      dup1\n      calldatasize\n      sub\n      dup2\n      add\n      swap1\n      tag_55\n      swap2\n      swap1\n      tag_56\n      jump\t// in\n    tag_55:\n      tag_57\n      jump\t// in\n    tag_54:\n      mload(0x40)\n      tag_58\n      swap2\n      swap1\n      tag_37\n      jump\t// in\n    tag_58:\n      mload(0x40)\n      dup1\n      swap2\n      sub\n      swap1\n      return\n        /* \"Day-06/D6P2.sol\":4275:4426  function exponentiationView(uint256 base, uint256 exponent) public pure returns (uint256) {... */\n    tag_11:\n      tag_59\n      0x04\n      dup1\n      calldatasize\n      sub\n      dup2\n      add\n      swap1\n      tag_60\n      swap2\n      swap1\n      tag_34\n      jump\t// in\n    tag_60:\n      tag_61\n      jump\t// in\n    tag_59:\n      mload(0x40)\n      tag_62\n      swap2\n      swap1\n      tag_37\n      jump\t// in\n    tag_62:\n      mload(0x40)\n      dup1\n      swap2\n      sub\n      swap1\n      return\n        /* \"Day-06/D6P2.sol\":3484:3586  function subtractView(int256 a, int256 b) public pure returns (int256) {... */\n    tag_12:\n      tag_63\n      0x04\n      dup1\n      calldatasize\n      sub\n      dup2\n      add\n      swap1\n      tag_64\n      swap2\n      swap1\n      tag_24\n      jump\t// in\n    tag_64:\n      tag_65\n      jump\t// in\n    tag_63:\n      mload(0x40)\n      tag_66\n      swap2\n      swap1\n      tag_27\n      jump\t// in\n    tag_66:\n      mload(0x40)\n      dup1\n      swap2\n      sub\n      swap1\n      return\n        /* \"Day-06/D6P2.sol\":1515:1692  function add(int256 a, int256 b) public returns (int256) {... */\n    tag_13:\n      tag_67\n      0x04\n      dup1\n      calldatasize\n      sub\n      dup2\n      add\n      swap1\n      tag_68\n      swap2\n      swap1\n      tag_24\n      jump\t// in\n    tag_68:\n      tag_69\n      jump\t// in\n    tag_67:\n      mload(0x40)\n      tag_70\n      swap2\n      swap1\n      tag_27\n      jump\t// in\n    tag_70:\n      mload(0x40)\n      dup1\n      swap2\n      sub\n      swap1\n      return\n        /* \"Day-06/D6P2.sol\":1704:1889  function subtract(int256 a, int256 b) public returns (int256) {... */\n    tag_14:\n      tag_71\n      0x04\n      dup1\n      calldatasize\n      sub\n      dup2\n      add\n      swap1\n      tag_72\n      swap2\n      swap1\n      tag_24\n      jump\t// in\n    tag_72:\n      tag_73\n      jump\t// in\n    tag_71:\n      mload(0x40)\n      tag_74\n      swap2\n      swap1\n      tag_27\n      jump\t// in\n    tag_74:\n      mload(0x40)\n      dup1\n      swap2\n      sub\n      swap1\n      return\n        /* \"Day-06/D6P2.sol\":4026:4138  function squareRootView(uint256 a) public pure returns (uint256) {... */\n    tag_15:\n      tag_75\n      0x04\n      dup1\n      calldatasize\n      sub\n      dup2\n      add\n      swap1\n      tag_76\n      swap2\n      swap1\n      tag_56\n      jump\t// in\n    tag_76:\n      tag_77\n      jump\t// in\n    tag_75:\n      mload(0x40)\n      tag_78\n      swap2\n      swap1\n      tag_37\n      jump\t// in\n    tag_78:\n      mload(0x40)\n      dup1\n      swap2\n      sub\n      swap1\n      return\n        /* \"Day-06/D6P2.sol\":2838:3042  function absoluteValue(int256 a) public returns (uint256) {... */\n    tag_16:\n      tag_79\n      0x04\n      dup1\n      calldatasize\n      sub\n      dup2\n      add\n      swap1\n      tag_80\n      swap2\n      swap1\n      tag_81\n      jump\t// in\n    tag_80:\n      tag_82\n      jump\t// in\n    tag_79:\n      mload(0x40)\n      tag_83\n      swap2\n      swap1\n      tag_37\n      jump\t// in\n    tag_83:\n      mload(0x40)\n      dup1\n      swap2\n      sub\n      swap1\n      return\n        /* \"Day-06/D6P2.sol\":2101:2327  function divide(int256 a, int256 b) public returns (int256) {... */\n    tag_17:\n      tag_84\n      0x04\n      dup1\n      calldatasize\n      sub\n      dup2\n      add\n      swap1\n      tag_85\n      swap2\n      swap1\n      tag_24\n      jump\t// in\n    tag_85:\n      tag_86\n      jump\t// in\n    tag_84:\n      mload(0x40)\n      tag_87\n      swap2\n      swap1\n      tag_27\n      jump\t// in\n    tag_87:\n      mload(0x40)\n      dup1\n      swap2\n      sub\n      swap1\n      return\n        /* \"Day-06/D6P2.sol\":4150:4263  function absoluteValueView(int256 a) public pure returns (uint256) {... */\n    tag_18:\n      tag_88\n      0x04\n      dup1\n      calldatasize\n      sub\n      dup2\n      add\n      swap1\n      tag_89\n      swap2\n      swap1\n      tag_81\n      jump\t// in\n    tag_89:\n      tag_90\n      jump\t// in\n    tag_88:\n      mload(0x40)\n      tag_91\n      swap2\n      swap1\n      tag_37\n      jump\t// in\n    tag_91:\n      mload(0x40)\n      dup1\n      swap2\n      sub\n      swap1\n      return\n        /* \"Day-06/D6P2.sol\":2339:2561  function modulo(int256 a, int256 b) public returns (int256) {... */\n    tag_25:\n        /* \"Day-06/D6P2.sol\":2391:2397  int256 */\n      0x00\n        /* \"Day-06/D6P2.sol\":2423:2424  0 */\n      dup1\n        /* \"Day-06/D6P2.sol\":2418:2419  b */\n      dup3\n        /* \"Day-06/D6P2.sol\":2418:2424  b != 0 */\n      sub\n        /* \"Day-06/D6P2.sol\":2410:2443  require(b != 0, \"Modulo by zero\") */\n      tag_93\n      jumpi\n      mload(0x40)\n      0x08c379a000000000000000000000000000000000000000000000000000000000\n      dup2\n      mstore\n      0x04\n      add\n      tag_94\n      swap1\n      tag_95\n      jump\t// in\n    tag_94:\n      mload(0x40)\n      dup1\n      swap2\n      sub\n      swap1\n      revert\n    tag_93:\n        /* \"Day-06/D6P2.sol\":2454:2467  int256 result */\n      0x00\n        /* \"Day-06/D6P2.sol\":2474:2475  b */\n      dup3\n        /* \"Day-06/D6P2.sol\":2470:2471  a */\n      dup5\n        /* \"Day-06/D6P2.sol\":2470:2475  a % b */\n      tag_96\n      swap2\n      swap1\n      tag_97\n      jump\t// in\n    tag_96:\n        /* \"Day-06/D6P2.sol\":2454:2475  int256 result = a % b */\n      swap1\n      pop\n        /* \"Day-06/D6P2.sol\":2491:2529  CalculationPerformed(\"modulo\", result) */\n      0xb1ede4725140175d5811351226eb63f079072e4671c51a49c5747806d47f330f\n        /* \"Day-06/D6P2.sol\":2522:2528  result */\n      dup2\n        /* \"Day-06/D6P2.sol\":2491:2529  CalculationPerformed(\"modulo\", result) */\n      mload(0x40)\n      tag_98\n      swap2\n      swap1\n      tag_99\n      jump\t// in\n    tag_98:\n      mload(0x40)\n      dup1\n      swap2\n      sub\n      swap1\n      log1\n        /* \"Day-06/D6P2.sol\":2547:2553  result */\n      dup1\n        /* \"Day-06/D6P2.sol\":2540:2553  return result */\n      swap2\n      pop\n      pop\n        /* \"Day-06/D6P2.sol\":2339:2561  function modulo(int256 a, int256 b) public returns (int256) {... */\n      swap3\n      swap2\n      pop\n      pop\n      jump\t// out\n        /* \"Day-06/D6P2.sol\":3712:3858  function divideView(int256 a, int256 b) public pure returns (int256) {... */\n    tag_30:\n        /* \"Day-06/D6P2.sol\":3773:3779  int256 */\n      0x00\n        /* \"Day-06/D6P2.sol\":3805:3806  0 */\n      dup1\n        /* \"Day-06/D6P2.sol\":3800:3801  b */\n      dup3\n        /* \"Day-06/D6P2.sol\":3800:3806  b != 0 */\n      sub\n        /* \"Day-06/D6P2.sol\":3792:3827  require(b != 0, \"Division by zero\") */\n      tag_101\n      jumpi\n      mload(0x40)\n      0x08c379a000000000000000000000000000000000000000000000000000000000\n      dup2\n      mstore\n      0x04\n      add\n      tag_102\n      swap1\n      tag_103\n      jump\t// in\n    tag_102:\n      mload(0x40)\n      dup1\n      swap2\n      sub\n      swap1\n      revert\n    tag_101:\n        /* \"Day-06/D6P2.sol\":3849:3850  b */\n      dup2\n        /* \"Day-06/D6P2.sol\":3845:3846  a */\n      dup4\n        /* \"Day-06/D6P2.sol\":3845:3850  a / b */\n      tag_104\n      swap2\n      swap1\n      tag_105\n      jump\t// in\n    tag_104:\n        /* \"Day-06/D6P2.sol\":3838:3850  return a / b */\n      swap1\n      pop\n        /* \"Day-06/D6P2.sol\":3712:3858  function divideView(int256 a, int256 b) public pure returns (int256) {... */\n      swap3\n      swap2\n      pop\n      pop\n      jump\t// out\n        /* \"Day-06/D6P2.sol\":3054:3296  function exponentiation(uint256 base, uint256 exponent) public returns (uint256) {... */\n    tag_35:\n        /* \"Day-06/D6P2.sol\":3126:3133  uint256 */\n      0x00\n        /* \"Day-06/D6P2.sol\":3146:3160  uint256 result */\n      dup1\n        /* \"Day-06/D6P2.sol\":3163:3198  MathExtension.power(base, exponent) */\n      tag_107\n        /* \"Day-06/D6P2.sol\":3183:3187  base */\n      dup5\n        /* \"Day-06/D6P2.sol\":3189:3197  exponent */\n      dup5\n        /* \"Day-06/D6P2.sol\":3163:3182  MathExtension.power */\n      tag_108\n        /* \"Day-06/D6P2.sol\":3163:3198  MathExtension.power(base, exponent) */\n      jump\t// in\n    tag_107:\n        /* \"Day-06/D6P2.sol\":3146:3198  uint256 result = MathExtension.power(base, exponent) */\n      swap1\n      pop\n        /* \"Day-06/D6P2.sol\":3214:3264  UintCalculationPerformed(\"exponentiation\", result) */\n      0x762b598214de3220eafb1e898e244847d0f4721035d171d28b752064f42dc828\n        /* \"Day-06/D6P2.sol\":3257:3263  result */\n      dup2\n        /* \"Day-06/D6P2.sol\":3214:3264  UintCalculationPerformed(\"exponentiation\", result) */\n      mload(0x40)\n      tag_109\n      swap2\n      swap1\n      tag_110\n      jump\t// in\n    tag_109:\n      mload(0x40)\n      dup1\n      swap2\n      sub\n      swap1\n      log1\n        /* \"Day-06/D6P2.sol\":3282:3288  result */\n      dup1\n        /* \"Day-06/D6P2.sol\":3275:3288  return result */\n      swap2\n      pop\n      pop\n        /* \"Day-06/D6P2.sol\":3054:3296  function exponentiation(uint256 base, uint256 exponent) public returns (uint256) {... */\n      swap3\n      swap2\n      pop\n      pop\n      jump\t// out\n        /* \"Day-06/D6P2.sol\":1901:2089  function multiply(int256 a, int256 b) public returns (int256) {... */\n    tag_40:\n        /* \"Day-06/D6P2.sol\":1955:1961  int256 */\n      0x00\n        /* \"Day-06/D6P2.sol\":1974:1987  int256 result */\n      dup1\n        /* \"Day-06/D6P2.sol\":1994:1995  b */\n      dup3\n        /* \"Day-06/D6P2.sol\":1990:1991  a */\n      dup5\n        /* \"Day-06/D6P2.sol\":1990:1995  a * b */\n      tag_112\n      swap2\n      swap1\n      tag_113\n      jump\t// in\n    tag_112:\n        /* \"Day-06/D6P2.sol\":1974:1995  int256 result = a * b */\n      swap1\n      pop\n        /* \"Day-06/D6P2.sol\":2011:2057  CalculationPerformed(\"multiplication\", result) */\n      0xb1ede4725140175d5811351226eb63f079072e4671c51a49c5747806d47f330f\n        /* \"Day-06/D6P2.sol\":2050:2056  result */\n      dup2\n        /* \"Day-06/D6P2.sol\":2011:2057  CalculationPerformed(\"multiplication\", result) */\n      mload(0x40)\n      tag_114\n      swap2\n      swap1\n      tag_115\n      jump\t// in\n    tag_114:\n      mload(0x40)\n      dup1\n      swap2\n      sub\n      swap1\n      log1\n        /* \"Day-06/D6P2.sol\":2075:2081  result */\n      dup1\n        /* \"Day-06/D6P2.sol\":2068:2081  return result */\n      swap2\n      pop\n      pop\n        /* \"Day-06/D6P2.sol\":1901:2089  function multiply(int256 a, int256 b) public returns (int256) {... */\n      swap3\n      swap2\n      pop\n      pop\n      jump\t// out\n        /* \"Day-06/D6P2.sol\":3870:4014  function moduloView(int256 a, int256 b) public pure returns (int256) {... */\n    tag_44:\n        /* \"Day-06/D6P2.sol\":3931:3937  int256 */\n      0x00\n        /* \"Day-06/D6P2.sol\":3963:3964  0 */\n      dup1\n        /* \"Day-06/D6P2.sol\":3958:3959  b */\n      dup3\n        /* \"Day-06/D6P2.sol\":3958:3964  b != 0 */\n      sub\n        /* \"Day-06/D6P2.sol\":3950:3983  require(b != 0, \"Modulo by zero\") */\n      tag_117\n      jumpi\n      mload(0x40)\n      0x08c379a000000000000000000000000000000000000000000000000000000000\n      dup2\n      mstore\n      0x04\n      add\n      tag_118\n      swap1\n      tag_95\n      jump\t// in\n    tag_118:\n      mload(0x40)\n      dup1\n      swap2\n      sub\n      swap1\n      revert\n    tag_117:\n        /* \"Day-06/D6P2.sol\":4005:4006  b */\n      dup2\n        /* \"Day-06/D6P2.sol\":4001:4002  a */\n      dup4\n        /* \"Day-06/D6P2.sol\":4001:4006  a % b */\n      tag_119\n      swap2\n      swap1\n      tag_97\n      jump\t// in\n    tag_119:\n        /* \"Day-06/D6P2.sol\":3994:4006  return a % b */\n      swap1\n      pop\n        /* \"Day-06/D6P2.sol\":3870:4014  function moduloView(int256 a, int256 b) public pure returns (int256) {... */\n      swap3\n      swap2\n      pop\n      pop\n      jump\t// out\n        /* \"Day-06/D6P2.sol\":3598:3700  function multiplyView(int256 a, int256 b) public pure returns (int256) {... */\n    tag_48:\n        /* \"Day-06/D6P2.sol\":3661:3667  int256 */\n      0x00\n        /* \"Day-06/D6P2.sol\":3691:3692  b */\n      dup2\n        /* \"Day-06/D6P2.sol\":3687:3688  a */\n      dup4\n        /* \"Day-06/D6P2.sol\":3687:3692  a * b */\n      tag_121\n      swap2\n      swap1\n      tag_113\n      jump\t// in\n    tag_121:\n        /* \"Day-06/D6P2.sol\":3680:3692  return a * b */\n      swap1\n      pop\n        /* \"Day-06/D6P2.sol\":3598:3700  function multiplyView(int256 a, int256 b) public pure returns (int256) {... */\n      swap3\n      swap2\n      pop\n      pop\n      jump\t// out\n        /* \"Day-06/D6P2.sol\":3375:3472  function addView(int256 a, int256 b) public pure returns (int256) {... */\n    tag_52:\n        /* \"Day-06/D6P2.sol\":3433:3439  int256 */\n      0x00\n        /* \"Day-06/D6P2.sol\":3463:3464  b */\n      dup2\n        /* \"Day-06/D6P2.sol\":3459:3460  a */\n      dup4\n        /* \"Day-06/D6P2.sol\":3459:3464  a + b */\n      tag_123\n      swap2\n      swap1\n      tag_124\n      jump\t// in\n    tag_123:\n        /* \"Day-06/D6P2.sol\":3452:3464  return a + b */\n      swap1\n      pop\n        /* \"Day-06/D6P2.sol\":3375:3472  function addView(int256 a, int256 b) public pure returns (int256) {... */\n      swap3\n      swap2\n      pop\n      pop\n      jump\t// out\n        /* \"Day-06/D6P2.sol\":2626:2826  function squareRoot(uint256 a) public returns (uint256) {... */\n    tag_57:\n        /* \"Day-06/D6P2.sol\":2673:2680  uint256 */\n      0x00\n        /* \"Day-06/D6P2.sol\":2693:2707  uint256 result */\n      dup1\n        /* \"Day-06/D6P2.sol\":2710:2731  MathExtension.sqrt(a) */\n      tag_126\n        /* \"Day-06/D6P2.sol\":2729:2730  a */\n      dup4\n        /* \"Day-06/D6P2.sol\":2710:2728  MathExtension.sqrt */\n      tag_127\n        /* \"Day-06/D6P2.sol\":2710:2731  MathExtension.sqrt(a) */\n      jump\t// in\n    tag_126:\n        /* \"Day-06/D6P2.sol\":2693:2731  uint256 result = MathExtension.sqrt(a) */\n      swap1\n      pop\n        /* \"Day-06/D6P2.sol\":2747:2794  UintCalculationPerformed(\"square root\", result) */\n      0x762b598214de3220eafb1e898e244847d0f4721035d171d28b752064f42dc828\n        /* \"Day-06/D6P2.sol\":2787:2793  result */\n      dup2\n        /* \"Day-06/D6P2.sol\":2747:2794  UintCalculationPerformed(\"square root\", result) */\n      mload(0x40)\n      tag_128\n      swap2\n      swap1\n      tag_129\n      jump\t// in\n    tag_128:\n      mload(0x40)\n      dup1\n      swap2\n      sub\n      swap1\n      log1\n        /* \"Day-06/D6P2.sol\":2812:2818  result */\n      dup1\n        /* \"Day-06/D6P2.sol\":2805:2818  return result */\n      swap2\n      pop\n      pop\n        /* \"Day-06/D6P2.sol\":2626:2826  function squareRoot(uint256 a) public returns (uint256) {... */\n      swap2\n      swap1\n      pop\n      jump\t// out\n        /* \"Day-06/D6P2.sol\":4275:4426  function exponentiationView(uint256 base, uint256 exponent) public pure returns (uint256) {... */\n    tag_61:\n        /* \"Day-06/D6P2.sol\":4356:4363  uint256 */\n      0x00\n        /* \"Day-06/D6P2.sol\":4383:4418  MathExtension.power(base, exponent) */\n      tag_131\n        /* \"Day-06/D6P2.sol\":4403:4407  base */\n      dup4\n        /* \"Day-06/D6P2.sol\":4409:4417  exponent */\n      dup4\n        /* \"Day-06/D6P2.sol\":4383:4402  MathExtension.power */\n      tag_108\n        /* \"Day-06/D6P2.sol\":4383:4418  MathExtension.power(base, exponent) */\n      jump\t// in\n    tag_131:\n        /* \"Day-06/D6P2.sol\":4376:4418  return MathExtension.power(base, exponent) */\n      swap1\n      pop\n        /* \"Day-06/D6P2.sol\":4275:4426  function exponentiationView(uint256 base, uint256 exponent) public pure returns (uint256) {... */\n      swap3\n      swap2\n      pop\n      pop\n      jump\t// out\n        /* \"Day-06/D6P2.sol\":3484:3586  function subtractView(int256 a, int256 b) public pure returns (int256) {... */\n    tag_65:\n        /* \"Day-06/D6P2.sol\":3547:3553  int256 */\n      0x00\n        /* \"Day-06/D6P2.sol\":3577:3578  b */\n      dup2\n        /* \"Day-06/D6P2.sol\":3573:3574  a */\n      dup4\n        /* \"Day-06/D6P2.sol\":3573:3578  a - b */\n      tag_133\n      swap2\n      swap1\n      tag_134\n      jump\t// in\n    tag_133:\n        /* \"Day-06/D6P2.sol\":3566:3578  return a - b */\n      swap1\n      pop\n        /* \"Day-06/D6P2.sol\":3484:3586  function subtractView(int256 a, int256 b) public pure returns (int256) {... */\n      swap3\n      swap2\n      pop\n      pop\n      jump\t// out\n        /* \"Day-06/D6P2.sol\":1515:1692  function add(int256 a, int256 b) public returns (int256) {... */\n    tag_69:\n        /* \"Day-06/D6P2.sol\":1564:1570  int256 */\n      0x00\n        /* \"Day-06/D6P2.sol\":1583:1596  int256 result */\n      dup1\n        /* \"Day-06/D6P2.sol\":1603:1604  b */\n      dup3\n        /* \"Day-06/D6P2.sol\":1599:1600  a */\n      dup5\n        /* \"Day-06/D6P2.sol\":1599:1604  a + b */\n      tag_136\n      swap2\n      swap1\n      tag_124\n      jump\t// in\n    tag_136:\n        /* \"Day-06/D6P2.sol\":1583:1604  int256 result = a + b */\n      swap1\n      pop\n        /* \"Day-06/D6P2.sol\":1620:1660  CalculationPerformed(\"addition\", result) */\n      0xb1ede4725140175d5811351226eb63f079072e4671c51a49c5747806d47f330f\n        /* \"Day-06/D6P2.sol\":1653:1659  result */\n      dup2\n        /* \"Day-06/D6P2.sol\":1620:1660  CalculationPerformed(\"addition\", result) */\n      mload(0x40)\n      tag_137\n      swap2\n      swap1\n      tag_138\n      jump\t// in\n    tag_137:\n      mload(0x40)\n      dup1\n      swap2\n      sub\n      swap1\n      log1\n        /* \"Day-06/D6P2.sol\":1678:1684  result */\n      dup1\n        /* \"Day-06/D6P2.sol\":1671:1684  return result */\n      swap2\n      pop\n      pop\n        /* \"Day-06/D6P2.sol\":1515:1692  function add(int256 a, int256 b) public returns (int256) {... */\n      swap3\n      swap2\n      pop\n      pop\n      jump\t// out\n        /* \"Day-06/D6P2.sol\":1704:1889  function subtract(int256 a, int256 b) public returns (int256) {... */\n    tag_73:\n        /* \"Day-06/D6P2.sol\":1758:1764  int256 */\n      0x00\n        /* \"Day-06/D6P2.sol\":1777:1790  int256 result */\n      dup1\n        /* \"Day-06/D6P2.sol\":1797:1798  b */\n      dup3\n        /* \"Day-06/D6P2.sol\":1793:1794  a */\n      dup5\n        /* \"Day-06/D6P2.sol\":1793:1798  a - b */\n      tag_140\n      swap2\n      swap1\n      tag_134\n      jump\t// in\n    tag_140:\n        /* \"Day-06/D6P2.sol\":1777:1798  int256 result = a - b */\n      swap1\n      pop\n        /* \"Day-06/D6P2.sol\":1814:1857  CalculationPerformed(\"subtraction\", result) */\n      0xb1ede4725140175d5811351226eb63f079072e4671c51a49c5747806d47f330f\n        /* \"Day-06/D6P2.sol\":1850:1856  result */\n      dup2\n        /* \"Day-06/D6P2.sol\":1814:1857  CalculationPerformed(\"subtraction\", result) */\n      mload(0x40)\n      tag_141\n      swap2\n      swap1\n      tag_142\n      jump\t// in\n    tag_141:\n      mload(0x40)\n      dup1\n      swap2\n      sub\n      swap1\n      log1\n        /* \"Day-06/D6P2.sol\":1875:1881  result */\n      dup1\n        /* \"Day-06/D6P2.sol\":1868:1881  return result */\n      swap2\n      pop\n      pop\n        /* \"Day-06/D6P2.sol\":1704:1889  function subtract(int256 a, int256 b) public returns (int256) {... */\n      swap3\n      swap2\n      pop\n      pop\n      jump\t// out\n        /* \"Day-06/D6P2.sol\":4026:4138  function squareRootView(uint256 a) public pure returns (uint256) {... */\n    tag_77:\n        /* \"Day-06/D6P2.sol\":4082:4089  uint256 */\n      0x00\n        /* \"Day-06/D6P2.sol\":4109:4130  MathExtension.sqrt(a) */\n      tag_144\n        /* \"Day-06/D6P2.sol\":4128:4129  a */\n      dup3\n        /* \"Day-06/D6P2.sol\":4109:4127  MathExtension.sqrt */\n      tag_127\n        /* \"Day-06/D6P2.sol\":4109:4130  MathExtension.sqrt(a) */\n      jump\t// in\n    tag_144:\n        /* \"Day-06/D6P2.sol\":4102:4130  return MathExtension.sqrt(a) */\n      swap1\n      pop\n        /* \"Day-06/D6P2.sol\":4026:4138  function squareRootView(uint256 a) public pure returns (uint256) {... */\n      swap2\n      swap1\n      pop\n      jump\t// out\n        /* \"Day-06/D6P2.sol\":2838:3042  function absoluteValue(int256 a) public returns (uint256) {... */\n    tag_82:\n        /* \"Day-06/D6P2.sol\":2887:2894  uint256 */\n      0x00\n        /* \"Day-06/D6P2.sol\":2907:2921  uint256 result */\n      dup1\n        /* \"Day-06/D6P2.sol\":2924:2944  MathExtension.abs(a) */\n      tag_146\n        /* \"Day-06/D6P2.sol\":2942:2943  a */\n      dup4\n        /* \"Day-06/D6P2.sol\":2924:2941  MathExtension.abs */\n      tag_147\n        /* \"Day-06/D6P2.sol\":2924:2944  MathExtension.abs(a) */\n      jump\t// in\n    tag_146:\n        /* \"Day-06/D6P2.sol\":2907:2944  uint256 result = MathExtension.abs(a) */\n      swap1\n      pop\n        /* \"Day-06/D6P2.sol\":2960:3010  UintCalculationPerformed(\"absolute value\", result) */\n      0x762b598214de3220eafb1e898e244847d0f4721035d171d28b752064f42dc828\n        /* \"Day-06/D6P2.sol\":3003:3009  result */\n      dup2\n        /* \"Day-06/D6P2.sol\":2960:3010  UintCalculationPerformed(\"absolute value\", result) */\n      mload(0x40)\n      tag_148\n      swap2\n      swap1\n      tag_149\n      jump\t// in\n    tag_148:\n      mload(0x40)\n      dup1\n      swap2\n      sub\n      swap1\n      log1\n        /* \"Day-06/D6P2.sol\":3028:3034  result */\n      dup1\n        /* \"Day-06/D6P2.sol\":3021:3034  return result */\n      swap2\n      pop\n      pop\n        /* \"Day-06/D6P2.sol\":2838:3042  function absoluteValue(int256 a) public returns (uint256) {... */\n      swap2\n      swap1\n      pop\n      jump\t// out\n        /* \"Day-06/D6P2.sol\":2101:2327  function divide(int256 a, int256 b) public returns (int256) {... */\n    tag_86:\n        /* \"Day-06/D6P2.sol\":2153:2159  int256 */\n      0x00\n        /* \"Day-06/D6P2.sol\":2185:2186  0 */\n      dup1\n        /* \"Day-06/D6P2.sol\":2180:2181  b */\n      dup3\n        /* \"Day-06/D6P2.sol\":2180:2186  b != 0 */\n      sub\n        /* \"Day-06/D6P2.sol\":2172:2207  require(b != 0, \"Division by zero\") */\n      tag_151\n      jumpi\n      mload(0x40)\n      0x08c379a000000000000000000000000000000000000000000000000000000000\n      dup2\n      mstore\n      0x04\n      add\n      tag_152\n      swap1\n      tag_103\n      jump\t// in\n    tag_152:\n      mload(0x40)\n      dup1\n      swap2\n      sub\n      swap1\n      revert\n    tag_151:\n        /* \"Day-06/D6P2.sol\":2218:2231  int256 result */\n      0x00\n        /* \"Day-06/D6P2.sol\":2238:2239  b */\n      dup3\n        /* \"Day-06/D6P2.sol\":2234:2235  a */\n      dup5\n        /* \"Day-06/D6P2.sol\":2234:2239  a / b */\n      tag_153\n      swap2\n      swap1\n      tag_105\n      jump\t// in\n    tag_153:\n        /* \"Day-06/D6P2.sol\":2218:2239  int256 result = a / b */\n      swap1\n      pop\n        /* \"Day-06/D6P2.sol\":2255:2295  CalculationPerformed(\"division\", result) */\n      0xb1ede4725140175d5811351226eb63f079072e4671c51a49c5747806d47f330f\n        /* \"Day-06/D6P2.sol\":2288:2294  result */\n      dup2\n        /* \"Day-06/D6P2.sol\":2255:2295  CalculationPerformed(\"division\", result) */\n      mload(0x40)\n      tag_154\n      swap2\n      swap1\n      tag_155\n      jump\t// in\n    tag_154:\n      mload(0x40)\n      dup1\n      swap2\n      sub\n      swap1\n      log1\n        /* \"Day-06/D6P2.sol\":2313:2319  result */\n      dup1\n        /* \"Day-06/D6P2.sol\":2306:2319  return result */\n      swap2\n      pop\n      pop\n        /* \"Day-06/D6P2.sol\":2101:2327  function divide(int256 a, int256 b) public returns (int256) {... */\n      swap3\n      swap2\n      pop\n      pop\n      jump\t// out\n        /* \"Day-06/D6P2.sol\":4150:4263  function absoluteValueView(int256 a) public pure returns (uint256) {... */\n    tag_90:\n        /* \"Day-06/D6P2.sol\":4208:4215  uint256 */\n      0x00\n        /* \"Day-06/D6P2.sol\":4235:4255  MathExtension.abs(a) */\n      tag_157\n        /* \"Day-06/D6P2.sol\":4253:4254  a */\n      dup3\n        /* \"Day-06/D6P2.sol\":4235:4252  MathExtension.abs */\n      tag_147\n        /* \"Day-06/D6P2.sol\":4235:4255  MathExtension.abs(a) */\n      jump\t// in\n    tag_157:\n        /* \"Day-06/D6P2.sol\":4228:4255  return MathExtension.abs(a) */\n      swap1\n      pop\n        /* \"Day-06/D6P2.sol\":4150:4263  function absoluteValueView(int256 a) public pure returns (uint256) {... */\n      swap2\n      swap1\n      pop\n      jump\t// out\n        /* \"Day-06/D6P2.sol\":699:1139  function power(uint256 base, uint256 exponent) internal pure returns (uint256) {... */\n    tag_108:\n        /* \"Day-06/D6P2.sol\":769:776  uint256 */\n      0x00\n        /* \"Day-06/D6P2.sol\":805:806  0 */\n      dup1\n        /* \"Day-06/D6P2.sol\":793:801  exponent */\n      dup3\n        /* \"Day-06/D6P2.sol\":793:806  exponent == 0 */\n      sub\n        /* \"Day-06/D6P2.sol\":789:816  if (exponent == 0) return 1 */\n      tag_159\n      jumpi\n        /* \"Day-06/D6P2.sol\":815:816  1 */\n      0x01\n        /* \"Day-06/D6P2.sol\":808:816  return 1 */\n      swap1\n      pop\n      jump(tag_158)\n        /* \"Day-06/D6P2.sol\":789:816  if (exponent == 0) return 1 */\n    tag_159:\n        /* \"Day-06/D6P2.sol\":839:840  0 */\n      0x00\n        /* \"Day-06/D6P2.sol\":831:835  base */\n      dup4\n        /* \"Day-06/D6P2.sol\":831:840  base == 0 */\n      sub\n        /* \"Day-06/D6P2.sol\":827:850  if (base == 0) return 0 */\n      tag_160\n      jumpi\n        /* \"Day-06/D6P2.sol\":849:850  0 */\n      0x00\n        /* \"Day-06/D6P2.sol\":842:850  return 0 */\n      swap1\n      pop\n      jump(tag_158)\n        /* \"Day-06/D6P2.sol\":827:850  if (base == 0) return 0 */\n    tag_160:\n        /* \"Day-06/D6P2.sol\":871:885  uint256 result */\n      0x00\n        /* \"Day-06/D6P2.sol\":888:889  1 */\n      0x01\n        /* \"Day-06/D6P2.sol\":871:889  uint256 result = 1 */\n      swap1\n      pop\n        /* \"Day-06/D6P2.sol\":900:1098  while (exponent > 0) {... */\n    tag_161:\n        /* \"Day-06/D6P2.sol\":918:919  0 */\n      0x00\n        /* \"Day-06/D6P2.sol\":907:915  exponent */\n      dup4\n        /* \"Day-06/D6P2.sol\":907:919  exponent > 0 */\n      gt\n        /* \"Day-06/D6P2.sol\":900:1098  while (exponent > 0) {... */\n      iszero\n      tag_162\n      jumpi\n        /* \"Day-06/D6P2.sol\":956:957  1 */\n      0x01\n        /* \"Day-06/D6P2.sol\":951:952  2 */\n      0x02\n        /* \"Day-06/D6P2.sol\":940:948  exponent */\n      dup5\n        /* \"Day-06/D6P2.sol\":940:952  exponent % 2 */\n      tag_163\n      swap2\n      swap1\n      tag_164\n      jump\t// in\n    tag_163:\n        /* \"Day-06/D6P2.sol\":940:957  exponent % 2 == 1 */\n      sub\n        /* \"Day-06/D6P2.sol\":936:1016  if (exponent % 2 == 1) {... */\n      tag_165\n      jumpi\n        /* \"Day-06/D6P2.sol\":996:1000  base */\n      dup4\n        /* \"Day-06/D6P2.sol\":987:993  result */\n      dup2\n        /* \"Day-06/D6P2.sol\":987:1000  result * base */\n      tag_166\n      swap2\n      swap1\n      tag_167\n      jump\t// in\n    tag_166:\n        /* \"Day-06/D6P2.sol\":978:1000  result = result * base */\n      swap1\n      pop\n        /* \"Day-06/D6P2.sol\":936:1016  if (exponent % 2 == 1) {... */\n    tag_165:\n        /* \"Day-06/D6P2.sol\":1044:1048  base */\n      dup4\n        /* \"Day-06/D6P2.sol\":1037:1041  base */\n      dup5\n        /* \"Day-06/D6P2.sol\":1037:1048  base * base */\n      tag_168\n      swap2\n      swap1\n      tag_167\n      jump\t// in\n    tag_168:\n        /* \"Day-06/D6P2.sol\":1030:1048  base = base * base */\n      swap4\n      pop\n        /* \"Day-06/D6P2.sol\":1085:1086  2 */\n      0x02\n        /* \"Day-06/D6P2.sol\":1074:1082  exponent */\n      dup4\n        /* \"Day-06/D6P2.sol\":1074:1086  exponent / 2 */\n      tag_169\n      swap2\n      swap1\n      tag_170\n      jump\t// in\n    tag_169:\n        /* \"Day-06/D6P2.sol\":1063:1086  exponent = exponent / 2 */\n      swap3\n      pop\n        /* \"Day-06/D6P2.sol\":900:1098  while (exponent > 0) {... */\n      jump(tag_161)\n    tag_162:\n        /* \"Day-06/D6P2.sol\":1125:1131  result */\n      dup1\n        /* \"Day-06/D6P2.sol\":1118:1131  return result */\n      swap2\n      pop\n      pop\n        /* \"Day-06/D6P2.sol\":699:1139  function power(uint256 base, uint256 exponent) internal pure returns (uint256) {... */\n    tag_158:\n      swap3\n      swap2\n      pop\n      pop\n      jump\t// out\n        /* \"Day-06/D6P2.sol\":196:489  function sqrt(uint256 x) internal pure returns (uint256) {... */\n    tag_127:\n        /* \"Day-06/D6P2.sol\":244:251  uint256 */\n      0x00\n        /* \"Day-06/D6P2.sol\":273:274  0 */\n      dup1\n        /* \"Day-06/D6P2.sol\":268:269  x */\n      dup3\n        /* \"Day-06/D6P2.sol\":268:274  x == 0 */\n      sub\n        /* \"Day-06/D6P2.sol\":264:284  if (x == 0) return 0 */\n      tag_172\n      jumpi\n        /* \"Day-06/D6P2.sol\":283:284  0 */\n      0x00\n        /* \"Day-06/D6P2.sol\":276:284  return 0 */\n      swap1\n      pop\n      jump(tag_171)\n        /* \"Day-06/D6P2.sol\":264:284  if (x == 0) return 0 */\n    tag_172:\n        /* \"Day-06/D6P2.sol\":305:314  uint256 z */\n      0x00\n        /* \"Day-06/D6P2.sol\":327:328  2 */\n      0x02\n        /* \"Day-06/D6P2.sol\":322:323  1 */\n      0x01\n        /* \"Day-06/D6P2.sol\":318:319  x */\n      dup5\n        /* \"Day-06/D6P2.sol\":318:323  x + 1 */\n      tag_173\n      swap2\n      swap1\n      tag_174\n      jump\t// in\n    tag_173:\n        /* \"Day-06/D6P2.sol\":317:328  (x + 1) / 2 */\n      tag_175\n      swap2\n      swap1\n      tag_170\n      jump\t// in\n    tag_175:\n        /* \"Day-06/D6P2.sol\":305:328  uint256 z = (x + 1) / 2 */\n      swap1\n      pop\n        /* \"Day-06/D6P2.sol\":339:348  uint256 y */\n      0x00\n        /* \"Day-06/D6P2.sol\":351:352  x */\n      dup4\n        /* \"Day-06/D6P2.sol\":339:352  uint256 y = x */\n      swap1\n      pop\n        /* \"Day-06/D6P2.sol\":373:453  while (z < y) {... */\n    tag_176:\n        /* \"Day-06/D6P2.sol\":384:385  y */\n      dup1\n        /* \"Day-06/D6P2.sol\":380:381  z */\n      dup3\n        /* \"Day-06/D6P2.sol\":380:385  z < y */\n      lt\n        /* \"Day-06/D6P2.sol\":373:453  while (z < y) {... */\n      iszero\n      tag_177\n      jumpi\n        /* \"Day-06/D6P2.sol\":406:407  z */\n      dup2\n        /* \"Day-06/D6P2.sol\":402:407  y = z */\n      swap1\n      pop\n        /* \"Day-06/D6P2.sol\":440:441  2 */\n      0x02\n        /* \"Day-06/D6P2.sol\":435:436  z */\n      dup3\n        /* \"Day-06/D6P2.sol\":431:432  z */\n      dup4\n        /* \"Day-06/D6P2.sol\":427:428  x */\n      dup7\n        /* \"Day-06/D6P2.sol\":427:432  x / z */\n      tag_178\n      swap2\n      swap1\n      tag_170\n      jump\t// in\n    tag_178:\n        /* \"Day-06/D6P2.sol\":427:436  x / z + z */\n      tag_179\n      swap2\n      swap1\n      tag_174\n      jump\t// in\n    tag_179:\n        /* \"Day-06/D6P2.sol\":426:441  (x / z + z) / 2 */\n      tag_180\n      swap2\n      swap1\n      tag_170\n      jump\t// in\n    tag_180:\n        /* \"Day-06/D6P2.sol\":422:441  z = (x / z + z) / 2 */\n      swap2\n      pop\n        /* \"Day-06/D6P2.sol\":373:453  while (z < y) {... */\n      jump(tag_176)\n    tag_177:\n        /* \"Day-06/D6P2.sol\":480:481  y */\n      dup1\n        /* \"Day-06/D6P2.sol\":473:481  return y */\n      swap3\n      pop\n      pop\n      pop\n        /* \"Day-06/D6P2.sol\":196:489  function sqrt(uint256 x) internal pure returns (uint256) {... */\n    tag_171:\n      swap2\n      swap1\n      pop\n      jump\t// out\n        /* \"Day-06/D6P2.sol\":534:648  function abs(int256 x) internal pure returns (uint256) {... */\n    tag_147:\n        /* \"Day-06/D6P2.sol\":580:587  uint256 */\n      0x00\n        /* \"Day-06/D6P2.sol\":612:613  0 */\n      dup1\n        /* \"Day-06/D6P2.sol\":607:608  x */\n      dup3\n        /* \"Day-06/D6P2.sol\":607:613  x >= 0 */\n      slt\n      iszero\n        /* \"Day-06/D6P2.sol\":607:640  x >= 0 ? uint256(x) : uint256(-x) */\n      tag_182\n      jumpi\n        /* \"Day-06/D6P2.sol\":638:639  x */\n      dup2\n        /* \"Day-06/D6P2.sol\":637:639  -x */\n      tag_183\n      swap1\n      tag_184\n      jump\t// in\n    tag_183:\n        /* \"Day-06/D6P2.sol\":607:640  x >= 0 ? uint256(x) : uint256(-x) */\n      jump(tag_185)\n    tag_182:\n        /* \"Day-06/D6P2.sol\":624:625  x */\n      dup2\n        /* \"Day-06/D6P2.sol\":607:640  x >= 0 ? uint256(x) : uint256(-x) */\n    tag_185:\n        /* \"Day-06/D6P2.sol\":600:640  return x >= 0 ? uint256(x) : uint256(-x) */\n      swap1\n      pop\n        /* \"Day-06/D6P2.sol\":534:648  function abs(int256 x) internal pure returns (uint256) {... */\n      swap2\n      swap1\n      pop\n      jump\t// out\n        /* \"#utility.yul\":88:205   */\n    tag_187:\n        /* \"#utility.yul\":197:198   */\n      0x00\n        /* \"#utility.yul\":194:195   */\n      dup1\n        /* \"#utility.yul\":187:199   */\n      revert\n        /* \"#utility.yul\":334:410   */\n    tag_189:\n        /* \"#utility.yul\":370:377   */\n      0x00\n        /* \"#utility.yul\":399:404   */\n      dup2\n        /* \"#utility.yul\":388:404   */\n      swap1\n      pop\n        /* \"#utility.yul\":334:410   */\n      swap2\n      swap1\n      pop\n      jump\t// out\n        /* \"#utility.yul\":416:536   */\n    tag_190:\n        /* \"#utility.yul\":488:511   */\n      tag_226\n        /* \"#utility.yul\":505:510   */\n      dup2\n        /* \"#utility.yul\":488:511   */\n      tag_189\n      jump\t// in\n    tag_226:\n        /* \"#utility.yul\":481:486   */\n      dup2\n        /* \"#utility.yul\":478:512   */\n      eq\n        /* \"#utility.yul\":468:530   */\n      tag_227\n      jumpi\n        /* \"#utility.yul\":526:527   */\n      0x00\n        /* \"#utility.yul\":523:524   */\n      dup1\n        /* \"#utility.yul\":516:528   */\n      revert\n        /* \"#utility.yul\":468:530   */\n    tag_227:\n        /* \"#utility.yul\":416:536   */\n      pop\n      jump\t// out\n        /* \"#utility.yul\":542:679   */\n    tag_191:\n        /* \"#utility.yul\":587:592   */\n      0x00\n        /* \"#utility.yul\":625:631   */\n      dup2\n        /* \"#utility.yul\":612:632   */\n      calldataload\n        /* \"#utility.yul\":603:632   */\n      swap1\n      pop\n        /* \"#utility.yul\":641:673   */\n      tag_229\n        /* \"#utility.yul\":667:672   */\n      dup2\n        /* \"#utility.yul\":641:673   */\n      tag_190\n      jump\t// in\n    tag_229:\n        /* \"#utility.yul\":542:679   */\n      swap3\n      swap2\n      pop\n      pop\n      jump\t// out\n        /* \"#utility.yul\":685:1155   */\n    tag_24:\n        /* \"#utility.yul\":751:757   */\n      0x00\n        /* \"#utility.yul\":759:765   */\n      dup1\n        /* \"#utility.yul\":808:810   */\n      0x40\n        /* \"#utility.yul\":796:805   */\n      dup4\n        /* \"#utility.yul\":787:794   */\n      dup6\n        /* \"#utility.yul\":783:806   */\n      sub\n        /* \"#utility.yul\":779:811   */\n      slt\n        /* \"#utility.yul\":776:895   */\n      iszero\n      tag_231\n      jumpi\n        /* \"#utility.yul\":814:893   */\n      tag_232\n      tag_187\n      jump\t// in\n    tag_232:\n        /* \"#utility.yul\":776:895   */\n    tag_231:\n        /* \"#utility.yul\":934:935   */\n      0x00\n        /* \"#utility.yul\":959:1011   */\n      tag_233\n        /* \"#utility.yul\":1003:1010   */\n      dup6\n        /* \"#utility.yul\":994:1000   */\n      dup3\n        /* \"#utility.yul\":983:992   */\n      dup7\n        /* \"#utility.yul\":979:1001   */\n      add\n        /* \"#utility.yul\":959:1011   */\n      tag_191\n      jump\t// in\n    tag_233:\n        /* \"#utility.yul\":949:1011   */\n      swap3\n      pop\n        /* \"#utility.yul\":905:1021   */\n      pop\n        /* \"#utility.yul\":1060:1062   */\n      0x20\n        /* \"#utility.yul\":1086:1138   */\n      tag_234\n        /* \"#utility.yul\":1130:1137   */\n      dup6\n        /* \"#utility.yul\":1121:1127   */\n      dup3\n        /* \"#utility.yul\":1110:1119   */\n      dup7\n        /* \"#utility.yul\":1106:1128   */\n      add\n        /* \"#utility.yul\":1086:1138   */\n      tag_191\n      jump\t// in\n    tag_234:\n        /* \"#utility.yul\":1076:1138   */\n      swap2\n      pop\n        /* \"#utility.yul\":1031:1148   */\n      pop\n        /* \"#utility.yul\":685:1155   */\n      swap3\n      pop\n      swap3\n      swap1\n      pop\n      jump\t// out\n        /* \"#utility.yul\":1161:1276   */\n    tag_192:\n        /* \"#utility.yul\":1246:1269   */\n      tag_236\n        /* \"#utility.yul\":1263:1268   */\n      dup2\n        /* \"#utility.yul\":1246:1269   */\n      tag_189\n      jump\t// in\n    tag_236:\n        /* \"#utility.yul\":1241:1244   */\n      dup3\n        /* \"#utility.yul\":1234:1270   */\n      mstore\n        /* \"#utility.yul\":1161:1276   */\n      pop\n      pop\n      jump\t// out\n        /* \"#utility.yul\":1282:1500   */\n    tag_27:\n        /* \"#utility.yul\":1373:1377   */\n      0x00\n        /* \"#utility.yul\":1411:1413   */\n      0x20\n        /* \"#utility.yul\":1400:1409   */\n      dup3\n        /* \"#utility.yul\":1396:1414   */\n      add\n        /* \"#utility.yul\":1388:1414   */\n      swap1\n      pop\n        /* \"#utility.yul\":1424:1493   */\n      tag_238\n        /* \"#utility.yul\":1490:1491   */\n      0x00\n        /* \"#utility.yul\":1479:1488   */\n      dup4\n        /* \"#utility.yul\":1475:1492   */\n      add\n        /* \"#utility.yul\":1466:1472   */\n      dup5\n        /* \"#utility.yul\":1424:1493   */\n      tag_192\n      jump\t// in\n    tag_238:\n        /* \"#utility.yul\":1282:1500   */\n      swap3\n      swap2\n      pop\n      pop\n      jump\t// out\n        /* \"#utility.yul\":1506:1583   */\n    tag_193:\n        /* \"#utility.yul\":1543:1550   */\n      0x00\n        /* \"#utility.yul\":1572:1577   */\n      dup2\n        /* \"#utility.yul\":1561:1577   */\n      swap1\n      pop\n        /* \"#utility.yul\":1506:1583   */\n      swap2\n      swap1\n      pop\n      jump\t// out\n        /* \"#utility.yul\":1589:1711   */\n    tag_194:\n        /* \"#utility.yul\":1662:1686   */\n      tag_241\n        /* \"#utility.yul\":1680:1685   */\n      dup2\n        /* \"#utility.yul\":1662:1686   */\n      tag_193\n      jump\t// in\n    tag_241:\n        /* \"#utility.yul\":1655:1660   */\n      dup2\n        /* \"#utility.yul\":1652:1687   */\n      eq\n        /* \"#utility.yul\":1642:1705   */\n      tag_242\n      jumpi\n        /* \"#utility.yul\":1701:1702   */\n      0x00\n        /* \"#utility.yul\":1698:1699   */\n      dup1\n        /* \"#utility.yul\":1691:1703   */\n      revert\n        /* \"#utility.yul\":1642:1705   */\n    tag_242:\n        /* \"#utility.yul\":1589:1711   */\n      pop\n      jump\t// out\n        /* \"#utility.yul\":1717:1856   */\n    tag_195:\n        /* \"#utility.yul\":1763:1768   */\n      0x00\n        /* \"#utility.yul\":1801:1807   */\n      dup2\n        /* \"#utility.yul\":1788:1808   */\n      calldataload\n        /* \"#utility.yul\":1779:1808   */\n      swap1\n      pop\n        /* \"#utility.yul\":1817:1850   */\n      tag_244\n        /* \"#utility.yul\":1844:1849   */\n      dup2\n        /* \"#utility.yul\":1817:1850   */\n      tag_194\n      jump\t// in\n    tag_244:\n        /* \"#utility.yul\":1717:1856   */\n      swap3\n      swap2\n      pop\n      pop\n      jump\t// out\n        /* \"#utility.yul\":1862:2336   */\n    tag_34:\n        /* \"#utility.yul\":1930:1936   */\n      0x00\n        /* \"#utility.yul\":1938:1944   */\n      dup1\n        /* \"#utility.yul\":1987:1989   */\n      0x40\n        /* \"#utility.yul\":1975:1984   */\n      dup4\n        /* \"#utility.yul\":1966:1973   */\n      dup6\n        /* \"#utility.yul\":1962:1985   */\n      sub\n        /* \"#utility.yul\":1958:1990   */\n      slt\n        /* \"#utility.yul\":1955:2074   */\n      iszero\n      tag_246\n      jumpi\n        /* \"#utility.yul\":1993:2072   */\n      tag_247\n      tag_187\n      jump\t// in\n    tag_247:\n        /* \"#utility.yul\":1955:2074   */\n    tag_246:\n        /* \"#utility.yul\":2113:2114   */\n      0x00\n        /* \"#utility.yul\":2138:2191   */\n      tag_248\n        /* \"#utility.yul\":2183:2190   */\n      dup6\n        /* \"#utility.yul\":2174:2180   */\n      dup3\n        /* \"#utility.yul\":2163:2172   */\n      dup7\n        /* \"#utility.yul\":2159:2181   */\n      add\n        /* \"#utility.yul\":2138:2191   */\n      tag_195\n      jump\t// in\n    tag_248:\n        /* \"#utility.yul\":2128:2191   */\n      swap3\n      pop\n        /* \"#utility.yul\":2084:2201   */\n      pop\n        /* \"#utility.yul\":2240:2242   */\n      0x20\n        /* \"#utility.yul\":2266:2319   */\n      tag_249\n        /* \"#utility.yul\":2311:2318   */\n      dup6\n        /* \"#utility.yul\":2302:2308   */\n      dup3\n        /* \"#utility.yul\":2291:2300   */\n      dup7\n        /* \"#utility.yul\":2287:2309   */\n      add\n        /* \"#utility.yul\":2266:2319   */\n      tag_195\n      jump\t// in\n    tag_249:\n        /* \"#utility.yul\":2256:2319   */\n      swap2\n      pop\n        /* \"#utility.yul\":2211:2329   */\n      pop\n        /* \"#utility.yul\":1862:2336   */\n      swap3\n      pop\n      swap3\n      swap1\n      pop\n      jump\t// out\n        /* \"#utility.yul\":2342:2460   */\n    tag_196:\n        /* \"#utility.yul\":2429:2453   */\n      tag_251\n        /* \"#utility.yul\":2447:2452   */\n      dup2\n        /* \"#utility.yul\":2429:2453   */\n      tag_193\n      jump\t// in\n    tag_251:\n        /* \"#utility.yul\":2424:2427   */\n      dup3\n        /* \"#utility.yul\":2417:2454   */\n      mstore\n        /* \"#utility.yul\":2342:2460   */\n      pop\n      pop\n      jump\t// out\n        /* \"#utility.yul\":2466:2688   */\n    tag_37:\n        /* \"#utility.yul\":2559:2563   */\n      0x00\n        /* \"#utility.yul\":2597:2599   */\n      0x20\n        /* \"#utility.yul\":2586:2595   */\n      dup3\n        /* \"#utility.yul\":2582:2600   */\n      add\n        /* \"#utility.yul\":2574:2600   */\n      swap1\n      pop\n        /* \"#utility.yul\":2610:2681   */\n      tag_253\n        /* \"#utility.yul\":2678:2679   */\n      0x00\n        /* \"#utility.yul\":2667:2676   */\n      dup4\n        /* \"#utility.yul\":2663:2680   */\n      add\n        /* \"#utility.yul\":2654:2660   */\n      dup5\n        /* \"#utility.yul\":2610:2681   */\n      tag_196\n      jump\t// in\n    tag_253:\n        /* \"#utility.yul\":2466:2688   */\n      swap3\n      swap2\n      pop\n      pop\n      jump\t// out\n        /* \"#utility.yul\":2694:3023   */\n    tag_56:\n        /* \"#utility.yul\":2753:2759   */\n      0x00\n        /* \"#utility.yul\":2802:2804   */\n      0x20\n        /* \"#utility.yul\":2790:2799   */\n      dup3\n        /* \"#utility.yul\":2781:2788   */\n      dup5\n        /* \"#utility.yul\":2777:2800   */\n      sub\n        /* \"#utility.yul\":2773:2805   */\n      slt\n        /* \"#utility.yul\":2770:2889   */\n      iszero\n      tag_255\n      jumpi\n        /* \"#utility.yul\":2808:2887   */\n      tag_256\n      tag_187\n      jump\t// in\n    tag_256:\n        /* \"#utility.yul\":2770:2889   */\n    tag_255:\n        /* \"#utility.yul\":2928:2929   */\n      0x00\n        /* \"#utility.yul\":2953:3006   */\n      tag_257\n        /* \"#utility.yul\":2998:3005   */\n      dup5\n        /* \"#utility.yul\":2989:2995   */\n      dup3\n        /* \"#utility.yul\":2978:2987   */\n      dup6\n        /* \"#utility.yul\":2974:2996   */\n      add\n        /* \"#utility.yul\":2953:3006   */\n      tag_195\n      jump\t// in\n    tag_257:\n        /* \"#utility.yul\":2943:3006   */\n      swap2\n      pop\n        /* \"#utility.yul\":2899:3016   */\n      pop\n        /* \"#utility.yul\":2694:3023   */\n      swap3\n      swap2\n      pop\n      pop\n      jump\t// out\n        /* \"#utility.yul\":3029:3356   */\n    tag_81:\n        /* \"#utility.yul\":3087:3093   */\n      0x00\n        /* \"#utility.yul\":3136:3138   */\n      0x20\n        /* \"#utility.yul\":3124:3133   */\n      dup3\n        /* \"#utility.yul\":3115:3122   */\n      dup5\n        /* \"#utility.yul\":3111:3134   */\n      sub\n        /* \"#utility.yul\":3107:3139   */\n      slt\n        /* \"#utility.yul\":3104:3223   */\n      iszero\n      tag_259\n      jumpi\n        /* \"#utility.yul\":3142:3221   */\n      tag_260\n      tag_187\n      jump\t// in\n    tag_260:\n        /* \"#utility.yul\":3104:3223   */\n    tag_259:\n        /* \"#utility.yul\":3262:3263   */\n      0x00\n        /* \"#utility.yul\":3287:3339   */\n      tag_261\n        /* \"#utility.yul\":3331:3338   */\n      dup5\n        /* \"#utility.yul\":3322:3328   */\n      dup3\n        /* \"#utility.yul\":3311:3320   */\n      dup6\n        /* \"#utility.yul\":3307:3329   */\n      add\n        /* \"#utility.yul\":3287:3339   */\n      tag_191\n      jump\t// in\n    tag_261:\n        /* \"#utility.yul\":3277:3339   */\n      swap2\n      pop\n        /* \"#utility.yul\":3233:3349   */\n      pop\n        /* \"#utility.yul\":3029:3356   */\n      swap3\n      swap2\n      pop\n      pop\n      jump\t// out\n        /* \"#utility.yul\":3362:3531   */\n    tag_197:\n        /* \"#utility.yul\":3446:3457   */\n      0x00\n        /* \"#utility.yul\":3480:3486   */\n      dup3\n        /* \"#utility.yul\":3475:3478   */\n      dup3\n        /* \"#utility.yul\":3468:3487   */\n      mstore\n        /* \"#utility.yul\":3520:3524   */\n      0x20\n        /* \"#utility.yul\":3515:3518   */\n      dup3\n        /* \"#utility.yul\":3511:3525   */\n      add\n        /* \"#utility.yul\":3496:3525   */\n      swap1\n      pop\n        /* \"#utility.yul\":3362:3531   */\n      swap3\n      swap2\n      pop\n      pop\n      jump\t// out\n        /* \"#utility.yul\":3537:3701   */\n    tag_198:\n        /* \"#utility.yul\":3677:3693   */\n      0x4d6f64756c6f206279207a65726f000000000000000000000000000000000000\n        /* \"#utility.yul\":3673:3674   */\n      0x00\n        /* \"#utility.yul\":3665:3671   */\n      dup3\n        /* \"#utility.yul\":3661:3675   */\n      add\n        /* \"#utility.yul\":3654:3694   */\n      mstore\n        /* \"#utility.yul\":3537:3701   */\n      pop\n      jump\t// out\n        /* \"#utility.yul\":3707:4073   */\n    tag_199:\n        /* \"#utility.yul\":3849:3852   */\n      0x00\n        /* \"#utility.yul\":3870:3937   */\n      tag_265\n        /* \"#utility.yul\":3934:3936   */\n      0x0e\n        /* \"#utility.yul\":3929:3932   */\n      dup4\n        /* \"#utility.yul\":3870:3937   */\n      tag_197\n      jump\t// in\n    tag_265:\n        /* \"#utility.yul\":3863:3937   */\n      swap2\n      pop\n        /* \"#utility.yul\":3946:4039   */\n      tag_266\n        /* \"#utility.yul\":4035:4038   */\n      dup3\n        /* \"#utility.yul\":3946:4039   */\n      tag_198\n      jump\t// in\n    tag_266:\n        /* \"#utility.yul\":4064:4066   */\n      0x20\n        /* \"#utility.yul\":4059:4062   */\n      dup3\n        /* \"#utility.yul\":4055:4067   */\n      add\n        /* \"#utility.yul\":4048:4067   */\n      swap1\n      pop\n        /* \"#utility.yul\":3707:4073   */\n      swap2\n      swap1\n      pop\n      jump\t// out\n        /* \"#utility.yul\":4079:4498   */\n    tag_95:\n        /* \"#utility.yul\":4245:4249   */\n      0x00\n        /* \"#utility.yul\":4283:4285   */\n      0x20\n        /* \"#utility.yul\":4272:4281   */\n      dup3\n        /* \"#utility.yul\":4268:4286   */\n      add\n        /* \"#utility.yul\":4260:4286   */\n      swap1\n      pop\n        /* \"#utility.yul\":4332:4341   */\n      dup2\n        /* \"#utility.yul\":4326:4330   */\n      dup2\n        /* \"#utility.yul\":4322:4342   */\n      sub\n        /* \"#utility.yul\":4318:4319   */\n      0x00\n        /* \"#utility.yul\":4307:4316   */\n      dup4\n        /* \"#utility.yul\":4303:4320   */\n      add\n        /* \"#utility.yul\":4296:4343   */\n      mstore\n        /* \"#utility.yul\":4360:4491   */\n      tag_268\n        /* \"#utility.yul\":4486:4490   */\n      dup2\n        /* \"#utility.yul\":4360:4491   */\n      tag_199\n      jump\t// in\n    tag_268:\n        /* \"#utility.yul\":4352:4491   */\n      swap1\n      pop\n        /* \"#utility.yul\":4079:4498   */\n      swap2\n      swap1\n      pop\n      jump\t// out\n        /* \"#utility.yul\":4504:4684   */\n    tag_200:\n        /* \"#utility.yul\":4552:4629   */\n      0x4e487b7100000000000000000000000000000000000000000000000000000000\n        /* \"#utility.yul\":4549:4550   */\n      0x00\n        /* \"#utility.yul\":4542:4630   */\n      mstore\n        /* \"#utility.yul\":4649:4653   */\n      0x12\n        /* \"#utility.yul\":4646:4647   */\n      0x04\n        /* \"#utility.yul\":4639:4654   */\n      mstore\n        /* \"#utility.yul\":4673:4677   */\n      0x24\n        /* \"#utility.yul\":4670:4671   */\n      0x00\n        /* \"#utility.yul\":4663:4678   */\n      revert\n        /* \"#utility.yul\":4690:4864   */\n    tag_97:\n        /* \"#utility.yul\":4721:4722   */\n      0x00\n        /* \"#utility.yul\":4738:4757   */\n      tag_271\n        /* \"#utility.yul\":4755:4756   */\n      dup3\n        /* \"#utility.yul\":4738:4757   */\n      tag_189\n      jump\t// in\n    tag_271:\n        /* \"#utility.yul\":4733:4757   */\n      swap2\n      pop\n        /* \"#utility.yul\":4771:4790   */\n      tag_272\n        /* \"#utility.yul\":4788:4789   */\n      dup4\n        /* \"#utility.yul\":4771:4790   */\n      tag_189\n      jump\t// in\n    tag_272:\n        /* \"#utility.yul\":4766:4790   */\n      swap3\n      pop\n        /* \"#utility.yul\":4809:4810   */\n      dup3\n        /* \"#utility.yul\":4799:4834   */\n      tag_273\n      jumpi\n        /* \"#utility.yul\":4814:4832   */\n      tag_274\n      tag_200\n      jump\t// in\n    tag_274:\n        /* \"#utility.yul\":4799:4834   */\n    tag_273:\n        /* \"#utility.yul\":4856:4857   */\n      dup3\n        /* \"#utility.yul\":4853:4854   */\n      dup3\n        /* \"#utility.yul\":4848:4858   */\n      smod\n        /* \"#utility.yul\":4843:4858   */\n      swap1\n      pop\n        /* \"#utility.yul\":4690:4864   */\n      swap3\n      swap2\n      pop\n      pop\n      jump\t// out\n        /* \"#utility.yul\":4870:5026   */\n    tag_201:\n        /* \"#utility.yul\":5010:5018   */\n      0x6d6f64756c6f0000000000000000000000000000000000000000000000000000\n        /* \"#utility.yul\":5006:5007   */\n      0x00\n        /* \"#utility.yul\":4998:5004   */\n      dup3\n        /* \"#utility.yul\":4994:5008   */\n      add\n        /* \"#utility.yul\":4987:5019   */\n      mstore\n        /* \"#utility.yul\":4870:5026   */\n      pop\n      jump\t// out\n        /* \"#utility.yul\":5032:5397   */\n    tag_202:\n        /* \"#utility.yul\":5174:5177   */\n      0x00\n        /* \"#utility.yul\":5195:5261   */\n      tag_277\n        /* \"#utility.yul\":5259:5260   */\n      0x06\n        /* \"#utility.yul\":5254:5257   */\n      dup4\n        /* \"#utility.yul\":5195:5261   */\n      tag_197\n      jump\t// in\n    tag_277:\n        /* \"#utility.yul\":5188:5261   */\n      swap2\n      pop\n        /* \"#utility.yul\":5270:5363   */\n      tag_278\n        /* \"#utility.yul\":5359:5362   */\n      dup3\n        /* \"#utility.yul\":5270:5363   */\n      tag_201\n      jump\t// in\n    tag_278:\n        /* \"#utility.yul\":5388:5390   */\n      0x20\n        /* \"#utility.yul\":5383:5386   */\n      dup3\n        /* \"#utility.yul\":5379:5391   */\n      add\n        /* \"#utility.yul\":5372:5391   */\n      swap1\n      pop\n        /* \"#utility.yul\":5032:5397   */\n      swap2\n      swap1\n      pop\n      jump\t// out\n        /* \"#utility.yul\":5403:5928   */\n    tag_99:\n        /* \"#utility.yul\":5595:5599   */\n      0x00\n        /* \"#utility.yul\":5633:5635   */\n      0x40\n        /* \"#utility.yul\":5622:5631   */\n      dup3\n        /* \"#utility.yul\":5618:5636   */\n      add\n        /* \"#utility.yul\":5610:5636   */\n      swap1\n      pop\n        /* \"#utility.yul\":5682:5691   */\n      dup2\n        /* \"#utility.yul\":5676:5680   */\n      dup2\n        /* \"#utility.yul\":5672:5692   */\n      sub\n        /* \"#utility.yul\":5668:5669   */\n      0x00\n        /* \"#utility.yul\":5657:5666   */\n      dup4\n        /* \"#utility.yul\":5653:5670   */\n      add\n        /* \"#utility.yul\":5646:5693   */\n      mstore\n        /* \"#utility.yul\":5710:5841   */\n      tag_280\n        /* \"#utility.yul\":5836:5840   */\n      dup2\n        /* \"#utility.yul\":5710:5841   */\n      tag_202\n      jump\t// in\n    tag_280:\n        /* \"#utility.yul\":5702:5841   */\n      swap1\n      pop\n        /* \"#utility.yul\":5851:5921   */\n      tag_281\n        /* \"#utility.yul\":5917:5919   */\n      0x20\n        /* \"#utility.yul\":5906:5915   */\n      dup4\n        /* \"#utility.yul\":5902:5920   */\n      add\n        /* \"#utility.yul\":5893:5899   */\n      dup5\n        /* \"#utility.yul\":5851:5921   */\n      tag_192\n      jump\t// in\n    tag_281:\n        /* \"#utility.yul\":5403:5928   */\n      swap3\n      swap2\n      pop\n      pop\n      jump\t// out\n        /* \"#utility.yul\":5934:6100   */\n    tag_203:\n        /* \"#utility.yul\":6074:6092   */\n      0x4469766973696f6e206279207a65726f00000000000000000000000000000000\n        /* \"#utility.yul\":6070:6071   */\n      0x00\n        /* \"#utility.yul\":6062:6068   */\n      dup3\n        /* \"#utility.yul\":6058:6072   */\n      add\n        /* \"#utility.yul\":6051:6093   */\n      mstore\n        /* \"#utility.yul\":5934:6100   */\n      pop\n      jump\t// out\n        /* \"#utility.yul\":6106:6472   */\n    tag_204:\n        /* \"#utility.yul\":6248:6251   */\n      0x00\n        /* \"#utility.yul\":6269:6336   */\n      tag_284\n        /* \"#utility.yul\":6333:6335   */\n      0x10\n        /* \"#utility.yul\":6328:6331   */\n      dup4\n        /* \"#utility.yul\":6269:6336   */\n      tag_197\n      jump\t// in\n    tag_284:\n        /* \"#utility.yul\":6262:6336   */\n      swap2\n      pop\n        /* \"#utility.yul\":6345:6438   */\n      tag_285\n        /* \"#utility.yul\":6434:6437   */\n      dup3\n        /* \"#utility.yul\":6345:6438   */\n      tag_203\n      jump\t// in\n    tag_285:\n        /* \"#utility.yul\":6463:6465   */\n      0x20\n        /* \"#utility.yul\":6458:6461   */\n      dup3\n        /* \"#utility.yul\":6454:6466   */\n      add\n        /* \"#utility.yul\":6447:6466   */\n      swap1\n      pop\n        /* \"#utility.yul\":6106:6472   */\n      swap2\n      swap1\n      pop\n      jump\t// out\n        /* \"#utility.yul\":6478:6897   */\n    tag_103:\n        /* \"#utility.yul\":6644:6648   */\n      0x00\n        /* \"#utility.yul\":6682:6684   */\n      0x20\n        /* \"#utility.yul\":6671:6680   */\n      dup3\n        /* \"#utility.yul\":6667:6685   */\n      add\n        /* \"#utility.yul\":6659:6685   */\n      swap1\n      pop\n        /* \"#utility.yul\":6731:6740   */\n      dup2\n        /* \"#utility.yul\":6725:6729   */\n      dup2\n        /* \"#utility.yul\":6721:6741   */\n      sub\n        /* \"#utility.yul\":6717:6718   */\n      0x00\n        /* \"#utility.yul\":6706:6715   */\n      dup4\n        /* \"#utility.yul\":6702:6719   */\n      add\n        /* \"#utility.yul\":6695:6742   */\n      mstore\n        /* \"#utility.yul\":6759:6890   */\n      tag_287\n        /* \"#utility.yul\":6885:6889   */\n      dup2\n        /* \"#utility.yul\":6759:6890   */\n      tag_204\n      jump\t// in\n    tag_287:\n        /* \"#utility.yul\":6751:6890   */\n      swap1\n      pop\n        /* \"#utility.yul\":6478:6897   */\n      swap2\n      swap1\n      pop\n      jump\t// out\n        /* \"#utility.yul\":6903:7083   */\n    tag_205:\n        /* \"#utility.yul\":6951:7028   */\n      0x4e487b7100000000000000000000000000000000000000000000000000000000\n        /* \"#utility.yul\":6948:6949   */\n      0x00\n        /* \"#utility.yul\":6941:7029   */\n      mstore\n        /* \"#utility.yul\":7048:7052   */\n      0x11\n        /* \"#utility.yul\":7045:7046   */\n      0x04\n        /* \"#utility.yul\":7038:7053   */\n      mstore\n        /* \"#utility.yul\":7072:7076   */\n      0x24\n        /* \"#utility.yul\":7069:7070   */\n      0x00\n        /* \"#utility.yul\":7062:7077   */\n      revert\n        /* \"#utility.yul\":7089:7474   */\n    tag_105:\n        /* \"#utility.yul\":7128:7129   */\n      0x00\n        /* \"#utility.yul\":7145:7164   */\n      tag_290\n        /* \"#utility.yul\":7162:7163   */\n      dup3\n        /* \"#utility.yul\":7145:7164   */\n      tag_189\n      jump\t// in\n    tag_290:\n        /* \"#utility.yul\":7140:7164   */\n      swap2\n      pop\n        /* \"#utility.yul\":7178:7197   */\n      tag_291\n        /* \"#utility.yul\":7195:7196   */\n      dup4\n        /* \"#utility.yul\":7178:7197   */\n      tag_189\n      jump\t// in\n    tag_291:\n        /* \"#utility.yul\":7173:7197   */\n      swap3\n      pop\n        /* \"#utility.yul\":7216:7217   */\n      dup3\n        /* \"#utility.yul\":7206:7241   */\n      tag_292\n      jumpi\n        /* \"#utility.yul\":7221:7239   */\n      tag_293\n      tag_200\n      jump\t// in\n    tag_293:\n        /* \"#utility.yul\":7206:7241   */\n    tag_292:\n        /* \"#utility.yul\":7407:7408   */\n      0x01\n        /* \"#utility.yul\":7404:7405   */\n      0x00\n        /* \"#utility.yul\":7400:7409   */\n      sub\n        /* \"#utility.yul\":7397:7398   */\n      dup4\n        /* \"#utility.yul\":7394:7410   */\n      eq\n        /* \"#utility.yul\":7313:7379   */\n      0x8000000000000000000000000000000000000000000000000000000000000000\n        /* \"#utility.yul\":7310:7311   */\n      dup4\n        /* \"#utility.yul\":7307:7380   */\n      eq\n        /* \"#utility.yul\":7290:7420   */\n      and\n        /* \"#utility.yul\":7287:7443   */\n      iszero\n      tag_294\n      jumpi\n        /* \"#utility.yul\":7423:7441   */\n      tag_295\n      tag_205\n      jump\t// in\n    tag_295:\n        /* \"#utility.yul\":7287:7443   */\n    tag_294:\n        /* \"#utility.yul\":7466:7467   */\n      dup3\n        /* \"#utility.yul\":7463:7464   */\n      dup3\n        /* \"#utility.yul\":7458:7468   */\n      sdiv\n        /* \"#utility.yul\":7453:7468   */\n      swap1\n      pop\n        /* \"#utility.yul\":7089:7474   */\n      swap3\n      swap2\n      pop\n      pop\n      jump\t// out\n        /* \"#utility.yul\":7480:7644   */\n    tag_206:\n        /* \"#utility.yul\":7620:7636   */\n      0x6578706f6e656e74696174696f6e000000000000000000000000000000000000\n        /* \"#utility.yul\":7616:7617   */\n      0x00\n        /* \"#utility.yul\":7608:7614   */\n      dup3\n        /* \"#utility.yul\":7604:7618   */\n      add\n        /* \"#utility.yul\":7597:7637   */\n      mstore\n        /* \"#utility.yul\":7480:7644   */\n      pop\n      jump\t// out\n        /* \"#utility.yul\":7650:8016   */\n    tag_207:\n        /* \"#utility.yul\":7792:7795   */\n      0x00\n        /* \"#utility.yul\":7813:7880   */\n      tag_298\n        /* \"#utility.yul\":7877:7879   */\n      0x0e\n        /* \"#utility.yul\":7872:7875   */\n      dup4\n        /* \"#utility.yul\":7813:7880   */\n      tag_197\n      jump\t// in\n    tag_298:\n        /* \"#utility.yul\":7806:7880   */\n      swap2\n      pop\n        /* \"#utility.yul\":7889:7982   */\n      tag_299\n        /* \"#utility.yul\":7978:7981   */\n      dup3\n        /* \"#utility.yul\":7889:7982   */\n      tag_206\n      jump\t// in\n    tag_299:\n        /* \"#utility.yul\":8007:8009   */\n      0x20\n        /* \"#utility.yul\":8002:8005   */\n      dup3\n        /* \"#utility.yul\":7998:8010   */\n      add\n        /* \"#utility.yul\":7991:8010   */\n      swap1\n      pop\n        /* \"#utility.yul\":7650:8016   */\n      swap2\n      swap1\n      pop\n      jump\t// out\n        /* \"#utility.yul\":8022:8551   */\n    tag_110:\n        /* \"#utility.yul\":8216:8220   */\n      0x00\n        /* \"#utility.yul\":8254:8256   */\n      0x40\n        /* \"#utility.yul\":8243:8252   */\n      dup3\n        /* \"#utility.yul\":8239:8257   */\n      add\n        /* \"#utility.yul\":8231:8257   */\n      swap1\n      pop\n        /* \"#utility.yul\":8303:8312   */\n      dup2\n        /* \"#utility.yul\":8297:8301   */\n      dup2\n        /* \"#utility.yul\":8293:8313   */\n      sub\n        /* \"#utility.yul\":8289:8290   */\n      0x00\n        /* \"#utility.yul\":8278:8287   */\n      dup4\n        /* \"#utility.yul\":8274:8291   */\n      add\n        /* \"#utility.yul\":8267:8314   */\n      mstore\n        /* \"#utility.yul\":8331:8462   */\n      tag_301\n        /* \"#utility.yul\":8457:8461   */\n      dup2\n        /* \"#utility.yul\":8331:8462   */\n      tag_207\n      jump\t// in\n    tag_301:\n        /* \"#utility.yul\":8323:8462   */\n      swap1\n      pop\n        /* \"#utility.yul\":8472:8544   */\n      tag_302\n        /* \"#utility.yul\":8540:8542   */\n      0x20\n        /* \"#utility.yul\":8529:8538   */\n      dup4\n        /* \"#utility.yul\":8525:8543   */\n      add\n        /* \"#utility.yul\":8516:8522   */\n      dup5\n        /* \"#utility.yul\":8472:8544   */\n      tag_196\n      jump\t// in\n    tag_302:\n        /* \"#utility.yul\":8022:8551   */\n      swap3\n      swap2\n      pop\n      pop\n      jump\t// out\n        /* \"#utility.yul\":8557:9113   */\n    tag_113:\n        /* \"#utility.yul\":8596:8603   */\n      0x00\n        /* \"#utility.yul\":8619:8638   */\n      tag_304\n        /* \"#utility.yul\":8636:8637   */\n      dup3\n        /* \"#utility.yul\":8619:8638   */\n      tag_189\n      jump\t// in\n    tag_304:\n        /* \"#utility.yul\":8614:8638   */\n      swap2\n      pop\n        /* \"#utility.yul\":8652:8671   */\n      tag_305\n        /* \"#utility.yul\":8669:8670   */\n      dup4\n        /* \"#utility.yul\":8652:8671   */\n      tag_189\n      jump\t// in\n    tag_305:\n        /* \"#utility.yul\":8647:8671   */\n      swap3\n      pop\n        /* \"#utility.yul\":8706:8707   */\n      dup3\n        /* \"#utility.yul\":8703:8704   */\n      dup3\n        /* \"#utility.yul\":8699:8708   */\n      mul\n        /* \"#utility.yul\":8728:8757   */\n      tag_306\n        /* \"#utility.yul\":8745:8756   */\n      dup2\n        /* \"#utility.yul\":8728:8757   */\n      tag_189\n      jump\t// in\n    tag_306:\n        /* \"#utility.yul\":8717:8757   */\n      swap2\n      pop\n        /* \"#utility.yul\":8815:8881   */\n      0x8000000000000000000000000000000000000000000000000000000000000000\n        /* \"#utility.yul\":8812:8813   */\n      dup5\n        /* \"#utility.yul\":8809:8882   */\n      eq\n        /* \"#utility.yul\":8805:8806   */\n      0x00\n        /* \"#utility.yul\":8802:8803   */\n      dup5\n        /* \"#utility.yul\":8798:8807   */\n      slt\n        /* \"#utility.yul\":8794:8883   */\n      and\n        /* \"#utility.yul\":8791:8906   */\n      iszero\n      tag_307\n      jumpi\n        /* \"#utility.yul\":8886:8904   */\n      tag_308\n      tag_205\n      jump\t// in\n    tag_308:\n        /* \"#utility.yul\":8791:8906   */\n    tag_307:\n        /* \"#utility.yul\":9056:9057   */\n      dup3\n        /* \"#utility.yul\":9047:9054   */\n      dup3\n        /* \"#utility.yul\":9042:9058   */\n      sdiv\n        /* \"#utility.yul\":9039:9040   */\n      dup5\n        /* \"#utility.yul\":9036:9059   */\n      eq\n        /* \"#utility.yul\":9016:9017   */\n      dup4\n        /* \"#utility.yul\":9009:9018   */\n      iszero\n        /* \"#utility.yul\":8989:9073   */\n      or\n        /* \"#utility.yul\":8966:9106   */\n      tag_309\n      jumpi\n        /* \"#utility.yul\":9086:9104   */\n      tag_310\n      tag_205\n      jump\t// in\n    tag_310:\n        /* \"#utility.yul\":8966:9106   */\n    tag_309:\n        /* \"#utility.yul\":8604:9113   */\n      pop\n        /* \"#utility.yul\":8557:9113   */\n      swap3\n      swap2\n      pop\n      pop\n      jump\t// out\n        /* \"#utility.yul\":9119:9283   */\n    tag_208:\n        /* \"#utility.yul\":9259:9275   */\n      0x6d756c7469706c69636174696f6e000000000000000000000000000000000000\n        /* \"#utility.yul\":9255:9256   */\n      0x00\n        /* \"#utility.yul\":9247:9253   */\n      dup3\n        /* \"#utility.yul\":9243:9257   */\n      add\n        /* \"#utility.yul\":9236:9276   */\n      mstore\n        /* \"#utility.yul\":9119:9283   */\n      pop\n      jump\t// out\n        /* \"#utility.yul\":9289:9655   */\n    tag_209:\n        /* \"#utility.yul\":9431:9434   */\n      0x00\n        /* \"#utility.yul\":9452:9519   */\n      tag_313\n        /* \"#utility.yul\":9516:9518   */\n      0x0e\n        /* \"#utility.yul\":9511:9514   */\n      dup4\n        /* \"#utility.yul\":9452:9519   */\n      tag_197\n      jump\t// in\n    tag_313:\n        /* \"#utility.yul\":9445:9519   */\n      swap2\n      pop\n        /* \"#utility.yul\":9528:9621   */\n      tag_314\n        /* \"#utility.yul\":9617:9620   */\n      dup3\n        /* \"#utility.yul\":9528:9621   */\n      tag_208\n      jump\t// in\n    tag_314:\n        /* \"#utility.yul\":9646:9648   */\n      0x20\n        /* \"#utility.yul\":9641:9644   */\n      dup3\n        /* \"#utility.yul\":9637:9649   */\n      add\n        /* \"#utility.yul\":9630:9649   */\n      swap1\n      pop\n        /* \"#utility.yul\":9289:9655   */\n      swap2\n      swap1\n      pop\n      jump\t// out\n        /* \"#utility.yul\":9661:10186   */\n    tag_115:\n        /* \"#utility.yul\":9853:9857   */\n      0x00\n        /* \"#utility.yul\":9891:9893   */\n      0x40\n        /* \"#utility.yul\":9880:9889   */\n      dup3\n        /* \"#utility.yul\":9876:9894   */\n      add\n        /* \"#utility.yul\":9868:9894   */\n      swap1\n      pop\n        /* \"#utility.yul\":9940:9949   */\n      dup2\n        /* \"#utility.yul\":9934:9938   */\n      dup2\n        /* \"#utility.yul\":9930:9950   */\n      sub\n        /* \"#utility.yul\":9926:9927   */\n      0x00\n        /* \"#utility.yul\":9915:9924   */\n      dup4\n        /* \"#utility.yul\":9911:9928   */\n      add\n        /* \"#utility.yul\":9904:9951   */\n      mstore\n        /* \"#utility.yul\":9968:10099   */\n      tag_316\n        /* \"#utility.yul\":10094:10098   */\n      dup2\n        /* \"#utility.yul\":9968:10099   */\n      tag_209\n      jump\t// in\n    tag_316:\n        /* \"#utility.yul\":9960:10099   */\n      swap1\n      pop\n        /* \"#utility.yul\":10109:10179   */\n      tag_317\n        /* \"#utility.yul\":10175:10177   */\n      0x20\n        /* \"#utility.yul\":10164:10173   */\n      dup4\n        /* \"#utility.yul\":10160:10178   */\n      add\n        /* \"#utility.yul\":10151:10157   */\n      dup5\n        /* \"#utility.yul\":10109:10179   */\n      tag_192\n      jump\t// in\n    tag_317:\n        /* \"#utility.yul\":9661:10186   */\n      swap3\n      swap2\n      pop\n      pop\n      jump\t// out\n        /* \"#utility.yul\":10192:10567   */\n    tag_124:\n        /* \"#utility.yul\":10231:10234   */\n      0x00\n        /* \"#utility.yul\":10250:10269   */\n      tag_319\n        /* \"#utility.yul\":10267:10268   */\n      dup3\n        /* \"#utility.yul\":10250:10269   */\n      tag_189\n      jump\t// in\n    tag_319:\n        /* \"#utility.yul\":10245:10269   */\n      swap2\n      pop\n        /* \"#utility.yul\":10283:10302   */\n      tag_320\n        /* \"#utility.yul\":10300:10301   */\n      dup4\n        /* \"#utility.yul\":10283:10302   */\n      tag_189\n      jump\t// in\n    tag_320:\n        /* \"#utility.yul\":10278:10302   */\n      swap3\n      pop\n        /* \"#utility.yul\":10325:10326   */\n      dup3\n        /* \"#utility.yul\":10322:10323   */\n      dup3\n        /* \"#utility.yul\":10318:10327   */\n      add\n        /* \"#utility.yul\":10311:10327   */\n      swap1\n      pop\n        /* \"#utility.yul\":10523:10524   */\n      dup3\n        /* \"#utility.yul\":10518:10521   */\n      dup2\n        /* \"#utility.yul\":10514:10525   */\n      slt\n        /* \"#utility.yul\":10507:10526   */\n      iszero\n        /* \"#utility.yul\":10503:10504   */\n      0x00\n        /* \"#utility.yul\":10500:10501   */\n      dup4\n        /* \"#utility.yul\":10496:10505   */\n      slt\n        /* \"#utility.yul\":10492:10527   */\n      and\n        /* \"#utility.yul\":10475:10476   */\n      dup4\n        /* \"#utility.yul\":10470:10473   */\n      dup3\n        /* \"#utility.yul\":10466:10477   */\n      slt\n        /* \"#utility.yul\":10461:10462   */\n      0x00\n        /* \"#utility.yul\":10458:10459   */\n      dup5\n        /* \"#utility.yul\":10454:10463   */\n      slt\n        /* \"#utility.yul\":10447:10464   */\n      iszero\n        /* \"#utility.yul\":10443:10478   */\n      and\n        /* \"#utility.yul\":10427:10537   */\n      or\n        /* \"#utility.yul\":10424:10560   */\n      iszero\n      tag_321\n      jumpi\n        /* \"#utility.yul\":10540:10558   */\n      tag_322\n      tag_205\n      jump\t// in\n    tag_322:\n        /* \"#utility.yul\":10424:10560   */\n    tag_321:\n        /* \"#utility.yul\":10192:10567   */\n      swap3\n      swap2\n      pop\n      pop\n      jump\t// out\n        /* \"#utility.yul\":10573:10734   */\n    tag_210:\n        /* \"#utility.yul\":10713:10726   */\n      0x73717561726520726f6f74000000000000000000000000000000000000000000\n        /* \"#utility.yul\":10709:10710   */\n      0x00\n        /* \"#utility.yul\":10701:10707   */\n      dup3\n        /* \"#utility.yul\":10697:10711   */\n      add\n        /* \"#utility.yul\":10690:10727   */\n      mstore\n        /* \"#utility.yul\":10573:10734   */\n      pop\n      jump\t// out\n        /* \"#utility.yul\":10740:11106   */\n    tag_211:\n        /* \"#utility.yul\":10882:10885   */\n      0x00\n        /* \"#utility.yul\":10903:10970   */\n      tag_325\n        /* \"#utility.yul\":10967:10969   */\n      0x0b\n        /* \"#utility.yul\":10962:10965   */\n      dup4\n        /* \"#utility.yul\":10903:10970   */\n      tag_197\n      jump\t// in\n    tag_325:\n        /* \"#utility.yul\":10896:10970   */\n      swap2\n      pop\n        /* \"#utility.yul\":10979:11072   */\n      tag_326\n        /* \"#utility.yul\":11068:11071   */\n      dup3\n        /* \"#utility.yul\":10979:11072   */\n      tag_210\n      jump\t// in\n    tag_326:\n        /* \"#utility.yul\":11097:11099   */\n      0x20\n        /* \"#utility.yul\":11092:11095   */\n      dup3\n        /* \"#utility.yul\":11088:11100   */\n      add\n        /* \"#utility.yul\":11081:11100   */\n      swap1\n      pop\n        /* \"#utility.yul\":10740:11106   */\n      swap2\n      swap1\n      pop\n      jump\t// out\n        /* \"#utility.yul\":11112:11641   */\n    tag_129:\n        /* \"#utility.yul\":11306:11310   */\n      0x00\n        /* \"#utility.yul\":11344:11346   */\n      0x40\n        /* \"#utility.yul\":11333:11342   */\n      dup3\n        /* \"#utility.yul\":11329:11347   */\n      add\n        /* \"#utility.yul\":11321:11347   */\n      swap1\n      pop\n        /* \"#utility.yul\":11393:11402   */\n      dup2\n        /* \"#utility.yul\":11387:11391   */\n      dup2\n        /* \"#utility.yul\":11383:11403   */\n      sub\n        /* \"#utility.yul\":11379:11380   */\n      0x00\n        /* \"#utility.yul\":11368:11377   */\n      dup4\n        /* \"#utility.yul\":11364:11381   */\n      add\n        /* \"#utility.yul\":11357:11404   */\n      mstore\n        /* \"#utility.yul\":11421:11552   */\n      tag_328\n        /* \"#utility.yul\":11547:11551   */\n      dup2\n        /* \"#utility.yul\":11421:11552   */\n      tag_211\n      jump\t// in\n    tag_328:\n        /* \"#utility.yul\":11413:11552   */\n      swap1\n      pop\n        /* \"#utility.yul\":11562:11634   */\n      tag_329\n        /* \"#utility.yul\":11630:11632   */\n      0x20\n        /* \"#utility.yul\":11619:11628   */\n      dup4\n        /* \"#utility.yul\":11615:11633   */\n      add\n        /* \"#utility.yul\":11606:11612   */\n      dup5\n        /* \"#utility.yul\":11562:11634   */\n      tag_196\n      jump\t// in\n    tag_329:\n        /* \"#utility.yul\":11112:11641   */\n      swap3\n      swap2\n      pop\n      pop\n      jump\t// out\n        /* \"#utility.yul\":11647:12019   */\n    tag_134:\n        /* \"#utility.yul\":11686:11690   */\n      0x00\n        /* \"#utility.yul\":11706:11725   */\n      tag_331\n        /* \"#utility.yul\":11723:11724   */\n      dup3\n        /* \"#utility.yul\":11706:11725   */\n      tag_189\n      jump\t// in\n    tag_331:\n        /* \"#utility.yul\":11701:11725   */\n      swap2\n      pop\n        /* \"#utility.yul\":11739:11758   */\n      tag_332\n        /* \"#utility.yul\":11756:11757   */\n      dup4\n        /* \"#utility.yul\":11739:11758   */\n      tag_189\n      jump\t// in\n    tag_332:\n        /* \"#utility.yul\":11734:11758   */\n      swap3\n      pop\n        /* \"#utility.yul\":11782:11783   */\n      dup3\n        /* \"#utility.yul\":11779:11780   */\n      dup3\n        /* \"#utility.yul\":11775:11784   */\n      sub\n        /* \"#utility.yul\":11767:11784   */\n      swap1\n      pop\n        /* \"#utility.yul\":11976:11977   */\n      dup2\n        /* \"#utility.yul\":11970:11974   */\n      dup2\n        /* \"#utility.yul\":11966:11978   */\n      slt\n        /* \"#utility.yul\":11962:11963   */\n      0x00\n        /* \"#utility.yul\":11959:11960   */\n      dup5\n        /* \"#utility.yul\":11955:11964   */\n      slt\n        /* \"#utility.yul\":11951:11979   */\n      and\n        /* \"#utility.yul\":11934:11935   */\n      dup3\n        /* \"#utility.yul\":11928:11932   */\n      dup3\n        /* \"#utility.yul\":11924:11936   */\n      sgt\n        /* \"#utility.yul\":11919:11920   */\n      0x00\n        /* \"#utility.yul\":11916:11917   */\n      dup6\n        /* \"#utility.yul\":11912:11921   */\n      slt\n        /* \"#utility.yul\":11905:11922   */\n      iszero\n        /* \"#utility.yul\":11901:11937   */\n      and\n        /* \"#utility.yul\":11885:11989   */\n      or\n        /* \"#utility.yul\":11882:12012   */\n      iszero\n      tag_333\n      jumpi\n        /* \"#utility.yul\":11992:12010   */\n      tag_334\n      tag_205\n      jump\t// in\n    tag_334:\n        /* \"#utility.yul\":11882:12012   */\n    tag_333:\n        /* \"#utility.yul\":11647:12019   */\n      swap3\n      swap2\n      pop\n      pop\n      jump\t// out\n        /* \"#utility.yul\":12025:12183   */\n    tag_212:\n        /* \"#utility.yul\":12165:12175   */\n      0x6164646974696f6e000000000000000000000000000000000000000000000000\n        /* \"#utility.yul\":12161:12162   */\n      0x00\n        /* \"#utility.yul\":12153:12159   */\n      dup3\n        /* \"#utility.yul\":12149:12163   */\n      add\n        /* \"#utility.yul\":12142:12176   */\n      mstore\n        /* \"#utility.yul\":12025:12183   */\n      pop\n      jump\t// out\n        /* \"#utility.yul\":12189:12554   */\n    tag_213:\n        /* \"#utility.yul\":12331:12334   */\n      0x00\n        /* \"#utility.yul\":12352:12418   */\n      tag_337\n        /* \"#utility.yul\":12416:12417   */\n      0x08\n        /* \"#utility.yul\":12411:12414   */\n      dup4\n        /* \"#utility.yul\":12352:12418   */\n      tag_197\n      jump\t// in\n    tag_337:\n        /* \"#utility.yul\":12345:12418   */\n      swap2\n      pop\n        /* \"#utility.yul\":12427:12520   */\n      tag_338\n        /* \"#utility.yul\":12516:12519   */\n      dup3\n        /* \"#utility.yul\":12427:12520   */\n      tag_212\n      jump\t// in\n    tag_338:\n        /* \"#utility.yul\":12545:12547   */\n      0x20\n        /* \"#utility.yul\":12540:12543   */\n      dup3\n        /* \"#utility.yul\":12536:12548   */\n      add\n        /* \"#utility.yul\":12529:12548   */\n      swap1\n      pop\n        /* \"#utility.yul\":12189:12554   */\n      swap2\n      swap1\n      pop\n      jump\t// out\n        /* \"#utility.yul\":12560:13085   */\n    tag_138:\n        /* \"#utility.yul\":12752:12756   */\n      0x00\n        /* \"#utility.yul\":12790:12792   */\n      0x40\n        /* \"#utility.yul\":12779:12788   */\n      dup3\n        /* \"#utility.yul\":12775:12793   */\n      add\n        /* \"#utility.yul\":12767:12793   */\n      swap1\n      pop\n        /* \"#utility.yul\":12839:12848   */\n      dup2\n        /* \"#utility.yul\":12833:12837   */\n      dup2\n        /* \"#utility.yul\":12829:12849   */\n      sub\n        /* \"#utility.yul\":12825:12826   */\n      0x00\n        /* \"#utility.yul\":12814:12823   */\n      dup4\n        /* \"#utility.yul\":12810:12827   */\n      add\n        /* \"#utility.yul\":12803:12850   */\n      mstore\n        /* \"#utility.yul\":12867:12998   */\n      tag_340\n        /* \"#utility.yul\":12993:12997   */\n      dup2\n        /* \"#utility.yul\":12867:12998   */\n      tag_213\n      jump\t// in\n    tag_340:\n        /* \"#utility.yul\":12859:12998   */\n      swap1\n      pop\n        /* \"#utility.yul\":13008:13078   */\n      tag_341\n        /* \"#utility.yul\":13074:13076   */\n      0x20\n        /* \"#utility.yul\":13063:13072   */\n      dup4\n        /* \"#utility.yul\":13059:13077   */\n      add\n        /* \"#utility.yul\":13050:13056   */\n      dup5\n        /* \"#utility.yul\":13008:13078   */\n      tag_192\n      jump\t// in\n    tag_341:\n        /* \"#utility.yul\":12560:13085   */\n      swap3\n      swap2\n      pop\n      pop\n      jump\t// out\n        /* \"#utility.yul\":13091:13252   */\n    tag_214:\n        /* \"#utility.yul\":13231:13244   */\n      0x7375627472616374696f6e000000000000000000000000000000000000000000\n        /* \"#utility.yul\":13227:13228   */\n      0x00\n        /* \"#utility.yul\":13219:13225   */\n      dup3\n        /* \"#utility.yul\":13215:13229   */\n      add\n        /* \"#utility.yul\":13208:13245   */\n      mstore\n        /* \"#utility.yul\":13091:13252   */\n      pop\n      jump\t// out\n        /* \"#utility.yul\":13258:13624   */\n    tag_215:\n        /* \"#utility.yul\":13400:13403   */\n      0x00\n        /* \"#utility.yul\":13421:13488   */\n      tag_344\n        /* \"#utility.yul\":13485:13487   */\n      0x0b\n        /* \"#utility.yul\":13480:13483   */\n      dup4\n        /* \"#utility.yul\":13421:13488   */\n      tag_197\n      jump\t// in\n    tag_344:\n        /* \"#utility.yul\":13414:13488   */\n      swap2\n      pop\n        /* \"#utility.yul\":13497:13590   */\n      tag_345\n        /* \"#utility.yul\":13586:13589   */\n      dup3\n        /* \"#utility.yul\":13497:13590   */\n      tag_214\n      jump\t// in\n    tag_345:\n        /* \"#utility.yul\":13615:13617   */\n      0x20\n        /* \"#utility.yul\":13610:13613   */\n      dup3\n        /* \"#utility.yul\":13606:13618   */\n      add\n        /* \"#utility.yul\":13599:13618   */\n      swap1\n      pop\n        /* \"#utility.yul\":13258:13624   */\n      swap2\n      swap1\n      pop\n      jump\t// out\n        /* \"#utility.yul\":13630:14155   */\n    tag_142:\n        /* \"#utility.yul\":13822:13826   */\n      0x00\n        /* \"#utility.yul\":13860:13862   */\n      0x40\n        /* \"#utility.yul\":13849:13858   */\n      dup3\n        /* \"#utility.yul\":13845:13863   */\n      add\n        /* \"#utility.yul\":13837:13863   */\n      swap1\n      pop\n        /* \"#utility.yul\":13909:13918   */\n      dup2\n        /* \"#utility.yul\":13903:13907   */\n      dup2\n        /* \"#utility.yul\":13899:13919   */\n      sub\n        /* \"#utility.yul\":13895:13896   */\n      0x00\n        /* \"#utility.yul\":13884:13893   */\n      dup4\n        /* \"#utility.yul\":13880:13897   */\n      add\n        /* \"#utility.yul\":13873:13920   */\n      mstore\n        /* \"#utility.yul\":13937:14068   */\n      tag_347\n        /* \"#utility.yul\":14063:14067   */\n      dup2\n        /* \"#utility.yul\":13937:14068   */\n      tag_215\n      jump\t// in\n    tag_347:\n        /* \"#utility.yul\":13929:14068   */\n      swap1\n      pop\n        /* \"#utility.yul\":14078:14148   */\n      tag_348\n        /* \"#utility.yul\":14144:14146   */\n      0x20\n        /* \"#utility.yul\":14133:14142   */\n      dup4\n        /* \"#utility.yul\":14129:14147   */\n      add\n        /* \"#utility.yul\":14120:14126   */\n      dup5\n        /* \"#utility.yul\":14078:14148   */\n      tag_192\n      jump\t// in\n    tag_348:\n        /* \"#utility.yul\":13630:14155   */\n      swap3\n      swap2\n      pop\n      pop\n      jump\t// out\n        /* \"#utility.yul\":14161:14325   */\n    tag_216:\n        /* \"#utility.yul\":14301:14317   */\n      0x6162736f6c7574652076616c7565000000000000000000000000000000000000\n        /* \"#utility.yul\":14297:14298   */\n      0x00\n        /* \"#utility.yul\":14289:14295   */\n      dup3\n        /* \"#utility.yul\":14285:14299   */\n      add\n        /* \"#utility.yul\":14278:14318   */\n      mstore\n        /* \"#utility.yul\":14161:14325   */\n      pop\n      jump\t// out\n        /* \"#utility.yul\":14331:14697   */\n    tag_217:\n        /* \"#utility.yul\":14473:14476   */\n      0x00\n        /* \"#utility.yul\":14494:14561   */\n      tag_351\n        /* \"#utility.yul\":14558:14560   */\n      0x0e\n        /* \"#utility.yul\":14553:14556   */\n      dup4\n        /* \"#utility.yul\":14494:14561   */\n      tag_197\n      jump\t// in\n    tag_351:\n        /* \"#utility.yul\":14487:14561   */\n      swap2\n      pop\n        /* \"#utility.yul\":14570:14663   */\n      tag_352\n        /* \"#utility.yul\":14659:14662   */\n      dup3\n        /* \"#utility.yul\":14570:14663   */\n      tag_216\n      jump\t// in\n    tag_352:\n        /* \"#utility.yul\":14688:14690   */\n      0x20\n        /* \"#utility.yul\":14683:14686   */\n      dup3\n        /* \"#utility.yul\":14679:14691   */\n      add\n        /* \"#utility.yul\":14672:14691   */\n      swap1\n      pop\n        /* \"#utility.yul\":14331:14697   */\n      swap2\n      swap1\n      pop\n      jump\t// out\n        /* \"#utility.yul\":14703:15232   */\n    tag_149:\n        /* \"#utility.yul\":14897:14901   */\n      0x00\n        /* \"#utility.yul\":14935:14937   */\n      0x40\n        /* \"#utility.yul\":14924:14933   */\n      dup3\n        /* \"#utility.yul\":14920:14938   */\n      add\n        /* \"#utility.yul\":14912:14938   */\n      swap1\n      pop\n        /* \"#utility.yul\":14984:14993   */\n      dup2\n        /* \"#utility.yul\":14978:14982   */\n      dup2\n        /* \"#utility.yul\":14974:14994   */\n      sub\n        /* \"#utility.yul\":14970:14971   */\n      0x00\n        /* \"#utility.yul\":14959:14968   */\n      dup4\n        /* \"#utility.yul\":14955:14972   */\n      add\n        /* \"#utility.yul\":14948:14995   */\n      mstore\n        /* \"#utility.yul\":15012:15143   */\n      tag_354\n        /* \"#utility.yul\":15138:15142   */\n      dup2\n        /* \"#utility.yul\":15012:15143   */\n      tag_217\n      jump\t// in\n    tag_354:\n        /* \"#utility.yul\":15004:15143   */\n      swap1\n      pop\n        /* \"#utility.yul\":15153:15225   */\n      tag_355\n        /* \"#utility.yul\":15221:15223   */\n      0x20\n        /* \"#utility.yul\":15210:15219   */\n      dup4\n        /* \"#utility.yul\":15206:15224   */\n      add\n        /* \"#utility.yul\":15197:15203   */\n      dup5\n        /* \"#utility.yul\":15153:15225   */\n      tag_196\n      jump\t// in\n    tag_355:\n        /* \"#utility.yul\":14703:15232   */\n      swap3\n      swap2\n      pop\n      pop\n      jump\t// out\n        /* \"#utility.yul\":15238:15396   */\n    tag_218:\n        /* \"#utility.yul\":15378:15388   */\n      0x6469766973696f6e000000000000000000000000000000000000000000000000\n        /* \"#utility.yul\":15374:15375   */\n      0x00\n        /* \"#utility.yul\":15366:15372   */\n      dup3\n        /* \"#utility.yul\":15362:15376   */\n      add\n        /* \"#utility.yul\":15355:15389   */\n      mstore\n        /* \"#utility.yul\":15238:15396   */\n      pop\n      jump\t// out\n        /* \"#utility.yul\":15402:15767   */\n    tag_219:\n        /* \"#utility.yul\":15544:15547   */\n      0x00\n        /* \"#utility.yul\":15565:15631   */\n      tag_358\n        /* \"#utility.yul\":15629:15630   */\n      0x08\n        /* \"#utility.yul\":15624:15627   */\n      dup4\n        /* \"#utility.yul\":15565:15631   */\n      tag_197\n      jump\t// in\n    tag_358:\n        /* \"#utility.yul\":15558:15631   */\n      swap2\n      pop\n        /* \"#utility.yul\":15640:15733   */\n      tag_359\n        /* \"#utility.yul\":15729:15732   */\n      dup3\n        /* \"#utility.yul\":15640:15733   */\n      tag_218\n      jump\t// in\n    tag_359:\n        /* \"#utility.yul\":15758:15760   */\n      0x20\n        /* \"#utility.yul\":15753:15756   */\n      dup3\n        /* \"#utility.yul\":15749:15761   */\n      add\n        /* \"#utility.yul\":15742:15761   */\n      swap1\n      pop\n        /* \"#utility.yul\":15402:15767   */\n      swap2\n      swap1\n      pop\n      jump\t// out\n        /* \"#utility.yul\":15773:16298   */\n    tag_155:\n        /* \"#utility.yul\":15965:15969   */\n      0x00\n        /* \"#utility.yul\":16003:16005   */\n      0x40\n        /* \"#utility.yul\":15992:16001   */\n      dup3\n        /* \"#utility.yul\":15988:16006   */\n      add\n        /* \"#utility.yul\":15980:16006   */\n      swap1\n      pop\n        /* \"#utility.yul\":16052:16061   */\n      dup2\n        /* \"#utility.yul\":16046:16050   */\n      dup2\n        /* \"#utility.yul\":16042:16062   */\n      sub\n        /* \"#utility.yul\":16038:16039   */\n      0x00\n        /* \"#utility.yul\":16027:16036   */\n      dup4\n        /* \"#utility.yul\":16023:16040   */\n      add\n        /* \"#utility.yul\":16016:16063   */\n      mstore\n        /* \"#utility.yul\":16080:16211   */\n      tag_361\n        /* \"#utility.yul\":16206:16210   */\n      dup2\n        /* \"#utility.yul\":16080:16211   */\n      tag_219\n      jump\t// in\n    tag_361:\n        /* \"#utility.yul\":16072:16211   */\n      swap1\n      pop\n        /* \"#utility.yul\":16221:16291   */\n      tag_362\n        /* \"#utility.yul\":16287:16289   */\n      0x20\n        /* \"#utility.yul\":16276:16285   */\n      dup4\n        /* \"#utility.yul\":16272:16290   */\n      add\n        /* \"#utility.yul\":16263:16269   */\n      dup5\n        /* \"#utility.yul\":16221:16291   */\n      tag_192\n      jump\t// in\n    tag_362:\n        /* \"#utility.yul\":15773:16298   */\n      swap3\n      swap2\n      pop\n      pop\n      jump\t// out\n        /* \"#utility.yul\":16304:16480   */\n    tag_164:\n        /* \"#utility.yul\":16336:16337   */\n      0x00\n        /* \"#utility.yul\":16353:16373   */\n      tag_364\n        /* \"#utility.yul\":16371:16372   */\n      dup3\n        /* \"#utility.yul\":16353:16373   */\n      tag_193\n      jump\t// in\n    tag_364:\n        /* \"#utility.yul\":16348:16373   */\n      swap2\n      pop\n        /* \"#utility.yul\":16387:16407   */\n      tag_365\n        /* \"#utility.yul\":16405:16406   */\n      dup4\n        /* \"#utility.yul\":16387:16407   */\n      tag_193\n      jump\t// in\n    tag_365:\n        /* \"#utility.yul\":16382:16407   */\n      swap3\n      pop\n        /* \"#utility.yul\":16426:16427   */\n      dup3\n        /* \"#utility.yul\":16416:16451   */\n      tag_366\n      jumpi\n        /* \"#utility.yul\":16431:16449   */\n      tag_367\n      tag_200\n      jump\t// in\n    tag_367:\n        /* \"#utility.yul\":16416:16451   */\n    tag_366:\n        /* \"#utility.yul\":16472:16473   */\n      dup3\n        /* \"#utility.yul\":16469:16470   */\n      dup3\n        /* \"#utility.yul\":16465:16474   */\n      mod\n        /* \"#utility.yul\":16460:16474   */\n      swap1\n      pop\n        /* \"#utility.yul\":16304:16480   */\n      swap3\n      swap2\n      pop\n      pop\n      jump\t// out\n        /* \"#utility.yul\":16486:16896   */\n    tag_167:\n        /* \"#utility.yul\":16526:16533   */\n      0x00\n        /* \"#utility.yul\":16549:16569   */\n      tag_369\n        /* \"#utility.yul\":16567:16568   */\n      dup3\n        /* \"#utility.yul\":16549:16569   */\n      tag_193\n      jump\t// in\n    tag_369:\n        /* \"#utility.yul\":16544:16569   */\n      swap2\n      pop\n        /* \"#utility.yul\":16583:16603   */\n      tag_370\n        /* \"#utility.yul\":16601:16602   */\n      dup4\n        /* \"#utility.yul\":16583:16603   */\n      tag_193\n      jump\t// in\n    tag_370:\n        /* \"#utility.yul\":16578:16603   */\n      swap3\n      pop\n        /* \"#utility.yul\":16638:16639   */\n      dup3\n        /* \"#utility.yul\":16635:16636   */\n      dup3\n        /* \"#utility.yul\":16631:16640   */\n      mul\n        /* \"#utility.yul\":16660:16690   */\n      tag_371\n        /* \"#utility.yul\":16678:16689   */\n      dup2\n        /* \"#utility.yul\":16660:16690   */\n      tag_193\n      jump\t// in\n    tag_371:\n        /* \"#utility.yul\":16649:16690   */\n      swap2\n      pop\n        /* \"#utility.yul\":16839:16840   */\n      dup3\n        /* \"#utility.yul\":16830:16837   */\n      dup3\n        /* \"#utility.yul\":16826:16841   */\n      div\n        /* \"#utility.yul\":16823:16824   */\n      dup5\n        /* \"#utility.yul\":16820:16842   */\n      eq\n        /* \"#utility.yul\":16800:16801   */\n      dup4\n        /* \"#utility.yul\":16793:16802   */\n      iszero\n        /* \"#utility.yul\":16773:16856   */\n      or\n        /* \"#utility.yul\":16750:16889   */\n      tag_372\n      jumpi\n        /* \"#utility.yul\":16869:16887   */\n      tag_373\n      tag_205\n      jump\t// in\n    tag_373:\n        /* \"#utility.yul\":16750:16889   */\n    tag_372:\n        /* \"#utility.yul\":16534:16896   */\n      pop\n        /* \"#utility.yul\":16486:16896   */\n      swap3\n      swap2\n      pop\n      pop\n      jump\t// out\n        /* \"#utility.yul\":16902:17087   */\n    tag_170:\n        /* \"#utility.yul\":16942:16943   */\n      0x00\n        /* \"#utility.yul\":16959:16979   */\n      tag_375\n        /* \"#utility.yul\":16977:16978   */\n      dup3\n        /* \"#utility.yul\":16959:16979   */\n      tag_193\n      jump\t// in\n    tag_375:\n        /* \"#utility.yul\":16954:16979   */\n      swap2\n      pop\n        /* \"#utility.yul\":16993:17013   */\n      tag_376\n        /* \"#utility.yul\":17011:17012   */\n      dup4\n        /* \"#utility.yul\":16993:17013   */\n      tag_193\n      jump\t// in\n    tag_376:\n        /* \"#utility.yul\":16988:17013   */\n      swap3\n      pop\n        /* \"#utility.yul\":17032:17033   */\n      dup3\n        /* \"#utility.yul\":17022:17057   */\n      tag_377\n      jumpi\n        /* \"#utility.yul\":17037:17055   */\n      tag_378\n      tag_200\n      jump\t// in\n    tag_378:\n        /* \"#utility.yul\":17022:17057   */\n    tag_377:\n        /* \"#utility.yul\":17079:17080   */\n      dup3\n        /* \"#utility.yul\":17076:17077   */\n      dup3\n        /* \"#utility.yul\":17072:17081   */\n      div\n        /* \"#utility.yul\":17067:17081   */\n      swap1\n      pop\n        /* \"#utility.yul\":16902:17087   */\n      swap3\n      swap2\n      pop\n      pop\n      jump\t// out\n        /* \"#utility.yul\":17093:17284   */\n    tag_174:\n        /* \"#utility.yul\":17133:17136   */\n      0x00\n        /* \"#utility.yul\":17152:17172   */\n      tag_380\n        /* \"#utility.yul\":17170:17171   */\n      dup3\n        /* \"#utility.yul\":17152:17172   */\n      tag_193\n      jump\t// in\n    tag_380:\n        /* \"#utility.yul\":17147:17172   */\n      swap2\n      pop\n        /* \"#utility.yul\":17186:17206   */\n      tag_381\n        /* \"#utility.yul\":17204:17205   */\n      dup4\n        /* \"#utility.yul\":17186:17206   */\n      tag_193\n      jump\t// in\n    tag_381:\n        /* \"#utility.yul\":17181:17206   */\n      swap3\n      pop\n        /* \"#utility.yul\":17229:17230   */\n      dup3\n        /* \"#utility.yul\":17226:17227   */\n      dup3\n        /* \"#utility.yul\":17222:17231   */\n      add\n        /* \"#utility.yul\":17215:17231   */\n      swap1\n      pop\n        /* \"#utility.yul\":17250:17253   */\n      dup1\n        /* \"#utility.yul\":17247:17248   */\n      dup3\n        /* \"#utility.yul\":17244:17254   */\n      gt\n        /* \"#utility.yul\":17241:17277   */\n      iszero\n      tag_382\n      jumpi\n        /* \"#utility.yul\":17257:17275   */\n      tag_383\n      tag_205\n      jump\t// in\n    tag_383:\n        /* \"#utility.yul\":17241:17277   */\n    tag_382:\n        /* \"#utility.yul\":17093:17284   */\n      swap3\n      swap2\n      pop\n      pop\n      jump\t// out\n        /* \"#utility.yul\":17290:17518   */\n    tag_184:\n        /* \"#utility.yul\":17325:17328   */\n      0x00\n        /* \"#utility.yul\":17348:17371   */\n      tag_385\n        /* \"#utility.yul\":17365:17370   */\n      dup3\n        /* \"#utility.yul\":17348:17371   */\n      tag_189\n      jump\t// in\n    tag_385:\n        /* \"#utility.yul\":17339:17371   */\n      swap2\n      pop\n        /* \"#utility.yul\":17393:17459   */\n      0x8000000000000000000000000000000000000000000000000000000000000000\n        /* \"#utility.yul\":17386:17391   */\n      dup3\n        /* \"#utility.yul\":17383:17460   */\n      sub\n        /* \"#utility.yul\":17380:17483   */\n      tag_386\n      jumpi\n        /* \"#utility.yul\":17463:17481   */\n      tag_387\n      tag_205\n      jump\t// in\n    tag_387:\n        /* \"#utility.yul\":17380:17483   */\n    tag_386:\n        /* \"#utility.yul\":17506:17511   */\n      dup2\n        /* \"#utility.yul\":17503:17504   */\n      0x00\n        /* \"#utility.yul\":17499:17512   */\n      sub\n        /* \"#utility.yul\":17492:17512   */\n      swap1\n      pop\n        /* \"#utility.yul\":17290:17518   */\n      swap2\n      swap1\n      pop\n      jump\t// out\n\n    auxdata: 0xa2646970667358221220fae647014aafcdb372db680c0d58b1fc71349896fdbbe7417776e95c2e9bcb8f64736f6c634300081a0033\n}\n",
				"bytecode": {
					"linkReferences": {},
					"object": "6080604052348015600e575f80fd5b5061128b8061001c5f395ff3fe608060405234801561000f575f80fd5b50600436106100fe575f3560e01c80637b23c0a911610095578063d03428a611610064578063d03428a614610342578063e149e7b014610372578063f5984236146103a2578063f86b8f30146103d2576100fe565b80637b23c0a91461028257806397d2b755146102b2578063a5f3c23b146102e2578063b93ea81214610312576100fe565b80634280f8e7116100d15780634280f8e7146101c25780636c901184146101f2578063712ec062146102225780637b019f8914610252576100fe565b8063121c316914610102578063157535961461013257806324884b64146101625780633c4308a814610192575b5f80fd5b61011c6004803603810190610117919061096d565b610402565b60405161012991906109ba565b60405180910390f35b61014c6004803603810190610147919061096d565b610495565b60405161015991906109ba565b60405180910390f35b61017c60048036038101906101779190610a06565b6104ec565b6040516101899190610a53565b60405180910390f35b6101ac60048036038101906101a7919061096d565b61053b565b6040516101b991906109ba565b60405180910390f35b6101dc60048036038101906101d7919061096d565b61058c565b6040516101e991906109ba565b60405180910390f35b61020c6004803603810190610207919061096d565b6105e3565b60405161021991906109ba565b60405180910390f35b61023c6004803603810190610237919061096d565b6105f8565b60405161024991906109ba565b60405180910390f35b61026c60048036038101906102679190610a6c565b61060d565b6040516102799190610a53565b60405180910390f35b61029c60048036038101906102979190610a06565b61065a565b6040516102a99190610a53565b60405180910390f35b6102cc60048036038101906102c7919061096d565b61066d565b6040516102d991906109ba565b60405180910390f35b6102fc60048036038101906102f7919061096d565b610682565b60405161030991906109ba565b60405180910390f35b61032c6004803603810190610327919061096d565b6106d3565b60405161033991906109ba565b60405180910390f35b61035c60048036038101906103579190610a6c565b610724565b6040516103699190610a53565b60405180910390f35b61038c60048036038101906103879190610a97565b610735565b6040516103999190610a53565b60405180910390f35b6103bc60048036038101906103b7919061096d565b610782565b6040516103c991906109ba565b60405180910390f35b6103ec60048036038101906103e79190610a97565b610815565b6040516103f99190610a53565b60405180910390f35b5f808203610445576040517f08c379a000000000000000000000000000000000000000000000000000000000815260040161043c90610b1c565b60405180910390fd5b5f82846104529190610b67565b90507fb1ede4725140175d5811351226eb63f079072e4671c51a49c5747806d47f330f816040516104839190610be1565b60405180910390a18091505092915050565b5f8082036104d8576040517f08c379a00000000000000000000000000000000000000000000000000000000081526004016104cf90610c57565b60405180910390fd5b81836104e49190610ca2565b905092915050565b5f806104f88484610826565b90507f762b598214de3220eafb1e898e244847d0f4721035d171d28b752064f42dc828816040516105299190610d54565b60405180910390a18091505092915050565b5f8082846105499190610d80565b90507fb1ede4725140175d5811351226eb63f079072e4671c51a49c5747806d47f330f8160405161057a9190610e40565b60405180910390a18091505092915050565b5f8082036105cf576040517f08c379a00000000000000000000000000000000000000000000000000000000081526004016105c690610b1c565b60405180910390fd5b81836105db9190610b67565b905092915050565b5f81836105f09190610d80565b905092915050565b5f81836106059190610e6c565b905092915050565b5f80610618836108a4565b90507f762b598214de3220eafb1e898e244847d0f4721035d171d28b752064f42dc828816040516106499190610ef7565b60405180910390a180915050919050565b5f6106658383610826565b905092915050565b5f818361067a9190610f23565b905092915050565b5f8082846106909190610e6c565b90507fb1ede4725140175d5811351226eb63f079072e4671c51a49c5747806d47f330f816040516106c19190610fad565b60405180910390a18091505092915050565b5f8082846106e19190610f23565b90507fb1ede4725140175d5811351226eb63f079072e4671c51a49c5747806d47f330f816040516107129190611023565b60405180910390a18091505092915050565b5f61072e826108a4565b9050919050565b5f8061074083610915565b90507f762b598214de3220eafb1e898e244847d0f4721035d171d28b752064f42dc828816040516107719190611099565b60405180910390a180915050919050565b5f8082036107c5576040517f08c379a00000000000000000000000000000000000000000000000000000000081526004016107bc90610c57565b60405180910390fd5b5f82846107d29190610ca2565b90507fb1ede4725140175d5811351226eb63f079072e4671c51a49c5747806d47f330f81604051610803919061110f565b60405180910390a18091505092915050565b5f61081f82610915565b9050919050565b5f808203610837576001905061089e565b5f8303610846575f905061089e565b5f600190505b5f831115610899576001600284610863919061113b565b03610877578381610874919061116b565b90505b8384610883919061116b565b935060028361089291906111ac565b925061084c565b809150505b92915050565b5f8082036108b4575f9050610910565b5f60026001846108c491906111dc565b6108ce91906111ac565b90505f8390505b8082101561090a5781905060028283866108ef91906111ac565b6108f991906111dc565b61090391906111ac565b91506108d5565b80925050505b919050565b5f8082121561092d57816109289061120f565b61092f565b815b9050919050565b5f80fd5b5f819050919050565b61094c8161093a565b8114610956575f80fd5b50565b5f8135905061096781610943565b92915050565b5f806040838503121561098357610982610936565b5b5f61099085828601610959565b92505060206109a185828601610959565b9150509250929050565b6109b48161093a565b82525050565b5f6020820190506109cd5f8301846109ab565b92915050565b5f819050919050565b6109e5816109d3565b81146109ef575f80fd5b50565b5f81359050610a00816109dc565b92915050565b5f8060408385031215610a1c57610a1b610936565b5b5f610a29858286016109f2565b9250506020610a3a858286016109f2565b9150509250929050565b610a4d816109d3565b82525050565b5f602082019050610a665f830184610a44565b92915050565b5f60208284031215610a8157610a80610936565b5b5f610a8e848285016109f2565b91505092915050565b5f60208284031215610aac57610aab610936565b5b5f610ab984828501610959565b91505092915050565b5f82825260208201905092915050565b7f4d6f64756c6f206279207a65726f0000000000000000000000000000000000005f82015250565b5f610b06600e83610ac2565b9150610b1182610ad2565b602082019050919050565b5f6020820190508181035f830152610b3381610afa565b9050919050565b7f4e487b71000000000000000000000000000000000000000000000000000000005f52601260045260245ffd5b5f610b718261093a565b9150610b7c8361093a565b925082610b8c57610b8b610b3a565b5b828207905092915050565b7f6d6f64756c6f00000000000000000000000000000000000000000000000000005f82015250565b5f610bcb600683610ac2565b9150610bd682610b97565b602082019050919050565b5f6040820190508181035f830152610bf881610bbf565b9050610c0760208301846109ab565b92915050565b7f4469766973696f6e206279207a65726f000000000000000000000000000000005f82015250565b5f610c41601083610ac2565b9150610c4c82610c0d565b602082019050919050565b5f6020820190508181035f830152610c6e81610c35565b9050919050565b7f4e487b71000000000000000000000000000000000000000000000000000000005f52601160045260245ffd5b5f610cac8261093a565b9150610cb78361093a565b925082610cc757610cc6610b3a565b5b60015f0383147f800000000000000000000000000000000000000000000000000000000000000083141615610cff57610cfe610c75565b5b828205905092915050565b7f6578706f6e656e74696174696f6e0000000000000000000000000000000000005f82015250565b5f610d3e600e83610ac2565b9150610d4982610d0a565b602082019050919050565b5f6040820190508181035f830152610d6b81610d32565b9050610d7a6020830184610a44565b92915050565b5f610d8a8261093a565b9150610d958361093a565b9250828202610da38161093a565b91507f800000000000000000000000000000000000000000000000000000000000000084145f84121615610dda57610dd9610c75565b5b8282058414831517610def57610dee610c75565b5b5092915050565b7f6d756c7469706c69636174696f6e0000000000000000000000000000000000005f82015250565b5f610e2a600e83610ac2565b9150610e3582610df6565b602082019050919050565b5f6040820190508181035f830152610e5781610e1e565b9050610e6660208301846109ab565b92915050565b5f610e768261093a565b9150610e818361093a565b92508282019050828112155f8312168382125f841215161715610ea757610ea6610c75565b5b92915050565b7f73717561726520726f6f740000000000000000000000000000000000000000005f82015250565b5f610ee1600b83610ac2565b9150610eec82610ead565b602082019050919050565b5f6040820190508181035f830152610f0e81610ed5565b9050610f1d6020830184610a44565b92915050565b5f610f2d8261093a565b9150610f388361093a565b925082820390508181125f8412168282135f851215161715610f5d57610f5c610c75565b5b92915050565b7f6164646974696f6e0000000000000000000000000000000000000000000000005f82015250565b5f610f97600883610ac2565b9150610fa282610f63565b602082019050919050565b5f6040820190508181035f830152610fc481610f8b565b9050610fd360208301846109ab565b92915050565b7f7375627472616374696f6e0000000000000000000000000000000000000000005f82015250565b5f61100d600b83610ac2565b915061101882610fd9565b602082019050919050565b5f6040820190508181035f83015261103a81611001565b905061104960208301846109ab565b92915050565b7f6162736f6c7574652076616c75650000000000000000000000000000000000005f82015250565b5f611083600e83610ac2565b915061108e8261104f565b602082019050919050565b5f6040820190508181035f8301526110b081611077565b90506110bf6020830184610a44565b92915050565b7f6469766973696f6e0000000000000000000000000000000000000000000000005f82015250565b5f6110f9600883610ac2565b9150611104826110c5565b602082019050919050565b5f6040820190508181035f830152611126816110ed565b905061113560208301846109ab565b92915050565b5f611145826109d3565b9150611150836109d3565b9250826111605761115f610b3a565b5b828206905092915050565b5f611175826109d3565b9150611180836109d3565b925082820261118e816109d3565b915082820484148315176111a5576111a4610c75565b5b5092915050565b5f6111b6826109d3565b91506111c1836109d3565b9250826111d1576111d0610b3a565b5b828204905092915050565b5f6111e6826109d3565b91506111f1836109d3565b925082820190508082111561120957611208610c75565b5b92915050565b5f6112198261093a565b91507f8000000000000000000000000000000000000000000000000000000000000000820361124b5761124a610c75565b5b815f03905091905056fea2646970667358221220fae647014aafcdb372db680c0d58b1fc71349896fdbbe7417776e95c2e9bcb8f64736f6c634300081a0033",
					"opcodes": "PUSH1 0x80 PUSH1 0x40 MSTORE CALLVALUE DUP1 ISZERO PUSH1 0xE JUMPI PUSH0 DUP1 REVERT JUMPDEST POP PUSH2 0x128B DUP1 PUSH2 0x1C PUSH0 CODECOPY PUSH0 RETURN INVALID PUSH1 0x80 PUSH1 0x40 MSTORE CALLVALUE DUP1 ISZERO PUSH2 0xF JUMPI PUSH0 DUP1 REVERT JUMPDEST POP PUSH1 0x4 CALLDATASIZE LT PUSH2 0xFE JUMPI PUSH0 CALLDATALOAD PUSH1 0xE0 SHR DUP1 PUSH4 0x7B23C0A9 GT PUSH2 0x95 JUMPI DUP1 PUSH4 0xD03428A6 GT PUSH2 0x64 JUMPI DUP1 PUSH4 0xD03428A6 EQ PUSH2 0x342 JUMPI DUP1 PUSH4 0xE149E7B0 EQ PUSH2 0x372 JUMPI DUP1 PUSH4 0xF5984236 EQ PUSH2 0x3A2 JUMPI DUP1 PUSH4 0xF86B8F30 EQ PUSH2 0x3D2 JUMPI PUSH2 0xFE JUMP JUMPDEST DUP1 PUSH4 0x7B23C0A9 EQ PUSH2 0x282 JUMPI DUP1 PUSH4 0x97D2B755 EQ PUSH2 0x2B2 JUMPI DUP1 PUSH4 0xA5F3C23B EQ PUSH2 0x2E2 JUMPI DUP1 PUSH4 0xB93EA812 EQ PUSH2 0x312 JUMPI PUSH2 0xFE JUMP JUMPDEST DUP1 PUSH4 0x4280F8E7 GT PUSH2 0xD1 JUMPI DUP1 PUSH4 0x4280F8E7 EQ PUSH2 0x1C2 JUMPI DUP1 PUSH4 0x6C901184 EQ PUSH2 0x1F2 JUMPI DUP1 PUSH4 0x712EC062 EQ PUSH2 0x222 JUMPI DUP1 PUSH4 0x7B019F89 EQ PUSH2 0x252 JUMPI PUSH2 0xFE JUMP JUMPDEST DUP1 PUSH4 0x121C3169 EQ PUSH2 0x102 JUMPI DUP1 PUSH4 0x15753596 EQ PUSH2 0x132 JUMPI DUP1 PUSH4 0x24884B64 EQ PUSH2 0x162 JUMPI DUP1 PUSH4 0x3C4308A8 EQ PUSH2 0x192 JUMPI JUMPDEST PUSH0 DUP1 REVERT JUMPDEST PUSH2 0x11C PUSH1 0x4 DUP1 CALLDATASIZE SUB DUP2 ADD SWAP1 PUSH2 0x117 SWAP2 SWAP1 PUSH2 0x96D JUMP JUMPDEST PUSH2 0x402 JUMP JUMPDEST PUSH1 0x40 MLOAD PUSH2 0x129 SWAP2 SWAP1 PUSH2 0x9BA JUMP JUMPDEST PUSH1 0x40 MLOAD DUP1 SWAP2 SUB SWAP1 RETURN JUMPDEST PUSH2 0x14C PUSH1 0x4 DUP1 CALLDATASIZE SUB DUP2 ADD SWAP1 PUSH2 0x147 SWAP2 SWAP1 PUSH2 0x96D JUMP JUMPDEST PUSH2 0x495 JUMP JUMPDEST PUSH1 0x40 MLOAD PUSH2 0x159 SWAP2 SWAP1 PUSH2 0x9BA JUMP JUMPDEST PUSH1 0x40 MLOAD DUP1 SWAP2 SUB SWAP1 RETURN JUMPDEST PUSH2 0x17C PUSH1 0x4 DUP1 CALLDATASIZE SUB DUP2 ADD SWAP1 PUSH2 0x177 SWAP2 SWAP1 PUSH2 0xA06 JUMP JUMPDEST PUSH2 0x4EC JUMP JUMPDEST PUSH1 0x40 MLOAD PUSH2 0x189 SWAP2 SWAP1 PUSH2 0xA53 JUMP JUMPDEST PUSH1 0x40 MLOAD DUP1 SWAP2 SUB SWAP1 RETURN JUMPDEST PUSH2 0x1AC PUSH1 0x4 DUP1 CALLDATASIZE SUB DUP2 ADD SWAP1 PUSH2 0x1A7 SWAP2 SWAP1 PUSH2 0x96D JUMP JUMPDEST PUSH2 0x53B JUMP JUMPDEST PUSH1 0x40 MLOAD PUSH2 0x1B9 SWAP2 SWAP1 PUSH2 0x9BA JUMP JUMPDEST PUSH1 0x40 MLOAD DUP1 SWAP2 SUB SWAP1 RETURN JUMPDEST PUSH2 0x1DC PUSH1 0x4 DUP1 CALLDATASIZE SUB DUP2 ADD SWAP1 PUSH2 0x1D7 SWAP2 SWAP1 PUSH2 0x96D JUMP JUMPDEST PUSH2 0x58C JUMP JUMPDEST PUSH1 0x40 MLOAD PUSH2 0x1E9 SWAP2 SWAP1 PUSH2 0x9BA JUMP JUMPDEST PUSH1 0x40 MLOAD DUP1 SWAP2 SUB SWAP1 RETURN JUMPDEST PUSH2 0x20C PUSH1 0x4 DUP1 CALLDATASIZE SUB DUP2 ADD SWAP1 PUSH2 0x207 SWAP2 SWAP1 PUSH2 0x96D JUMP JUMPDEST PUSH2 0x5E3 JUMP JUMPDEST PUSH1 0x40 MLOAD PUSH2 0x219 SWAP2 SWAP1 PUSH2 0x9BA JUMP JUMPDEST PUSH1 0x40 MLOAD DUP1 SWAP2 SUB SWAP1 RETURN JUMPDEST PUSH2 0x23C PUSH1 0x4 DUP1 CALLDATASIZE SUB DUP2 ADD SWAP1 PUSH2 0x237 SWAP2 SWAP1 PUSH2 0x96D JUMP JUMPDEST PUSH2 0x5F8 JUMP JUMPDEST PUSH1 0x40 MLOAD PUSH2 0x249 SWAP2 SWAP1 PUSH2 0x9BA JUMP JUMPDEST PUSH1 0x40 MLOAD DUP1 SWAP2 SUB SWAP1 RETURN JUMPDEST PUSH2 0x26C PUSH1 0x4 DUP1 CALLDATASIZE SUB DUP2 ADD SWAP1 PUSH2 0x267 SWAP2 SWAP1 PUSH2 0xA6C JUMP JUMPDEST PUSH2 0x60D JUMP JUMPDEST PUSH1 0x40 MLOAD PUSH2 0x279 SWAP2 SWAP1 PUSH2 0xA53 JUMP JUMPDEST PUSH1 0x40 MLOAD DUP1 SWAP2 SUB SWAP1 RETURN JUMPDEST PUSH2 0x29C PUSH1 0x4 DUP1 CALLDATASIZE SUB DUP2 ADD SWAP1 PUSH2 0x297 SWAP2 SWAP1 PUSH2 0xA06 JUMP JUMPDEST PUSH2 0x65A JUMP JUMPDEST PUSH1 0x40 MLOAD PUSH2 0x2A9 SWAP2 SWAP1 PUSH2 0xA53 JUMP JUMPDEST PUSH1 0x40 MLOAD DUP1 SWAP2 SUB SWAP1 RETURN JUMPDEST PUSH2 0x2CC PUSH1 0x4 DUP1 CALLDATASIZE SUB DUP2 ADD SWAP1 PUSH2 0x2C7 SWAP2 SWAP1 PUSH2 0x96D JUMP JUMPDEST PUSH2 0x66D JUMP JUMPDEST PUSH1 0x40 MLOAD PUSH2 0x2D9 SWAP2 SWAP1 PUSH2 0x9BA JUMP JUMPDEST PUSH1 0x40 MLOAD DUP1 SWAP2 SUB SWAP1 RETURN JUMPDEST PUSH2 0x2FC PUSH1 0x4 DUP1 CALLDATASIZE SUB DUP2 ADD SWAP1 PUSH2 0x2F7 SWAP2 SWAP1 PUSH2 0x96D JUMP JUMPDEST PUSH2 0x682 JUMP JUMPDEST PUSH1 0x40 MLOAD PUSH2 0x309 SWAP2 SWAP1 PUSH2 0x9BA JUMP JUMPDEST PUSH1 0x40 MLOAD DUP1 SWAP2 SUB SWAP1 RETURN JUMPDEST PUSH2 0x32C PUSH1 0x4 DUP1 CALLDATASIZE SUB DUP2 ADD SWAP1 PUSH2 0x327 SWAP2 SWAP1 PUSH2 0x96D JUMP JUMPDEST PUSH2 0x6D3 JUMP JUMPDEST PUSH1 0x40 MLOAD PUSH2 0x339 SWAP2 SWAP1 PUSH2 0x9BA JUMP JUMPDEST PUSH1 0x40 MLOAD DUP1 SWAP2 SUB SWAP1 RETURN JUMPDEST PUSH2 0x35C PUSH1 0x4 DUP1 CALLDATASIZE SUB DUP2 ADD SWAP1 PUSH2 0x357 SWAP2 SWAP1 PUSH2 0xA6C JUMP JUMPDEST PUSH2 0x724 JUMP JUMPDEST PUSH1 0x40 MLOAD PUSH2 0x369 SWAP2 SWAP1 PUSH2 0xA53 JUMP JUMPDEST PUSH1 0x40 MLOAD DUP1 SWAP2 SUB SWAP1 RETURN JUMPDEST PUSH2 0x38C PUSH1 0x4 DUP1 CALLDATASIZE SUB DUP2 ADD SWAP1 PUSH2 0x387 SWAP2 SWAP1 PUSH2 0xA97 JUMP JUMPDEST PUSH2 0x735 JUMP JUMPDEST PUSH1 0x40 MLOAD PUSH2 0x399 SWAP2 SWAP1 PUSH2 0xA53 JUMP JUMPDEST PUSH1 0x40 MLOAD DUP1 SWAP2 SUB SWAP1 RETURN JUMPDEST PUSH2 0x3BC PUSH1 0x4 DUP1 CALLDATASIZE SUB DUP2 ADD SWAP1 PUSH2 0x3B7 SWAP2 SWAP1 PUSH2 0x96D JUMP JUMPDEST PUSH2 0x782 JUMP JUMPDEST PUSH1 0x40 MLOAD PUSH2 0x3C9 SWAP2 SWAP1 PUSH2 0x9BA JUMP JUMPDEST PUSH1 0x40 MLOAD DUP1 SWAP2 SUB SWAP1 RETURN JUMPDEST PUSH2 0x3EC PUSH1 0x4 DUP1 CALLDATASIZE SUB DUP2 ADD SWAP1 PUSH2 0x3E7 SWAP2 SWAP1 PUSH2 0xA97 JUMP JUMPDEST PUSH2 0x815 JUMP JUMPDEST PUSH1 0x40 MLOAD PUSH2 0x3F9 SWAP2 SWAP1 PUSH2 0xA53 JUMP JUMPDEST PUSH1 0x40 MLOAD DUP1 SWAP2 SUB SWAP1 RETURN JUMPDEST PUSH0 DUP1 DUP3 SUB PUSH2 0x445 JUMPI PUSH1 0x40 MLOAD PUSH32 0x8C379A000000000000000000000000000000000000000000000000000000000 DUP2 MSTORE PUSH1 0x4 ADD PUSH2 0x43C SWAP1 PUSH2 0xB1C JUMP JUMPDEST PUSH1 0x40 MLOAD DUP1 SWAP2 SUB SWAP1 REVERT JUMPDEST PUSH0 DUP3 DUP5 PUSH2 0x452 SWAP2 SWAP1 PUSH2 0xB67 JUMP JUMPDEST SWAP1 POP PUSH32 0xB1EDE4725140175D5811351226EB63F079072E4671C51A49C5747806D47F330F DUP2 PUSH1 0x40 MLOAD PUSH2 0x483 SWAP2 SWAP1 PUSH2 0xBE1 JUMP JUMPDEST PUSH1 0x40 MLOAD DUP1 SWAP2 SUB SWAP1 LOG1 DUP1 SWAP2 POP POP SWAP3 SWAP2 POP POP JUMP JUMPDEST PUSH0 DUP1 DUP3 SUB PUSH2 0x4D8 JUMPI PUSH1 0x40 MLOAD PUSH32 0x8C379A000000000000000000000000000000000000000000000000000000000 DUP2 MSTORE PUSH1 0x4 ADD PUSH2 0x4CF SWAP1 PUSH2 0xC57 JUMP JUMPDEST PUSH1 0x40 MLOAD DUP1 SWAP2 SUB SWAP1 REVERT JUMPDEST DUP2 DUP4 PUSH2 0x4E4 SWAP2 SWAP1 PUSH2 0xCA2 JUMP JUMPDEST SWAP1 POP SWAP3 SWAP2 POP POP JUMP JUMPDEST PUSH0 DUP1 PUSH2 0x4F8 DUP5 DUP5 PUSH2 0x826 JUMP JUMPDEST SWAP1 POP PUSH32 0x762B598214DE3220EAFB1E898E244847D0F4721035D171D28B752064F42DC828 DUP2 PUSH1 0x40 MLOAD PUSH2 0x529 SWAP2 SWAP1 PUSH2 0xD54 JUMP JUMPDEST PUSH1 0x40 MLOAD DUP1 SWAP2 SUB SWAP1 LOG1 DUP1 SWAP2 POP POP SWAP3 SWAP2 POP POP JUMP JUMPDEST PUSH0 DUP1 DUP3 DUP5 PUSH2 0x549 SWAP2 SWAP1 PUSH2 0xD80 JUMP JUMPDEST SWAP1 POP PUSH32 0xB1EDE4725140175D5811351226EB63F079072E4671C51A49C5747806D47F330F DUP2 PUSH1 0x40 MLOAD PUSH2 0x57A SWAP2 SWAP1 PUSH2 0xE40 JUMP JUMPDEST PUSH1 0x40 MLOAD DUP1 SWAP2 SUB SWAP1 LOG1 DUP1 SWAP2 POP POP SWAP3 SWAP2 POP POP JUMP JUMPDEST PUSH0 DUP1 DUP3 SUB PUSH2 0x5CF JUMPI PUSH1 0x40 MLOAD PUSH32 0x8C379A000000000000000000000000000000000000000000000000000000000 DUP2 MSTORE PUSH1 0x4 ADD PUSH2 0x5C6 SWAP1 PUSH2 0xB1C JUMP JUMPDEST PUSH1 0x40 MLOAD DUP1 SWAP2 SUB SWAP1 REVERT JUMPDEST DUP2 DUP4 PUSH2 0x5DB SWAP2 SWAP1 PUSH2 0xB67 JUMP JUMPDEST SWAP1 POP SWAP3 SWAP2 POP POP JUMP JUMPDEST PUSH0 DUP2 DUP4 PUSH2 0x5F0 SWAP2 SWAP1 PUSH2 0xD80 JUMP JUMPDEST SWAP1 POP SWAP3 SWAP2 POP POP JUMP JUMPDEST PUSH0 DUP2 DUP4 PUSH2 0x605 SWAP2 SWAP1 PUSH2 0xE6C JUMP JUMPDEST SWAP1 POP SWAP3 SWAP2 POP POP JUMP JUMPDEST PUSH0 DUP1 PUSH2 0x618 DUP4 PUSH2 0x8A4 JUMP JUMPDEST SWAP1 POP PUSH32 0x762B598214DE3220EAFB1E898E244847D0F4721035D171D28B752064F42DC828 DUP2 PUSH1 0x40 MLOAD PUSH2 0x649 SWAP2 SWAP1 PUSH2 0xEF7 JUMP JUMPDEST PUSH1 0x40 MLOAD DUP1 SWAP2 SUB SWAP1 LOG1 DUP1 SWAP2 POP POP SWAP2 SWAP1 POP JUMP JUMPDEST PUSH0 PUSH2 0x665 DUP4 DUP4 PUSH2 0x826 JUMP JUMPDEST SWAP1 POP SWAP3 SWAP2 POP POP JUMP JUMPDEST PUSH0 DUP2 DUP4 PUSH2 0x67A SWAP2 SWAP1 PUSH2 0xF23 JUMP JUMPDEST SWAP1 POP SWAP3 SWAP2 POP POP JUMP JUMPDEST PUSH0 DUP1 DUP3 DUP5 PUSH2 0x690 SWAP2 SWAP1 PUSH2 0xE6C JUMP JUMPDEST SWAP1 POP PUSH32 0xB1EDE4725140175D5811351226EB63F079072E4671C51A49C5747806D47F330F DUP2 PUSH1 0x40 MLOAD PUSH2 0x6C1 SWAP2 SWAP1 PUSH2 0xFAD JUMP JUMPDEST PUSH1 0x40 MLOAD DUP1 SWAP2 SUB SWAP1 LOG1 DUP1 SWAP2 POP POP SWAP3 SWAP2 POP POP JUMP JUMPDEST PUSH0 DUP1 DUP3 DUP5 PUSH2 0x6E1 SWAP2 SWAP1 PUSH2 0xF23 JUMP JUMPDEST SWAP1 POP PUSH32 0xB1EDE4725140175D5811351226EB63F079072E4671C51A49C5747806D47F330F DUP2 PUSH1 0x40 MLOAD PUSH2 0x712 SWAP2 SWAP1 PUSH2 0x1023 JUMP JUMPDEST PUSH1 0x40 MLOAD DUP1 SWAP2 SUB SWAP1 LOG1 DUP1 SWAP2 POP POP SWAP3 SWAP2 POP POP JUMP JUMPDEST PUSH0 PUSH2 0x72E DUP3 PUSH2 0x8A4 JUMP JUMPDEST SWAP1 POP SWAP2 SWAP1 POP JUMP JUMPDEST PUSH0 DUP1 PUSH2 0x740 DUP4 PUSH2 0x915 JUMP JUMPDEST SWAP1 POP PUSH32 0x762B598214DE3220EAFB1E898E244847D0F4721035D171D28B752064F42DC828 DUP2 PUSH1 0x40 MLOAD PUSH2 0x771 SWAP2 SWAP1 PUSH2 0x1099 JUMP JUMPDEST PUSH1 0x40 MLOAD DUP1 SWAP2 SUB SWAP1 LOG1 DUP1 SWAP2 POP POP SWAP2 SWAP1 POP JUMP JUMPDEST PUSH0 DUP1 DUP3 SUB PUSH2 0x7C5 JUMPI PUSH1 0x40 MLOAD PUSH32 0x8C379A000000000000000000000000000000000000000000000000000000000 DUP2 MSTORE PUSH1 0x4 ADD PUSH2 0x7BC SWAP1 PUSH2 0xC57 JUMP JUMPDEST PUSH1 0x40 MLOAD DUP1 SWAP2 SUB SWAP1 REVERT JUMPDEST PUSH0 DUP3 DUP5 PUSH2 0x7D2 SWAP2 SWAP1 PUSH2 0xCA2 JUMP JUMPDEST SWAP1 POP PUSH32 0xB1EDE4725140175D5811351226EB63F079072E4671C51A49C5747806D47F330F DUP2 PUSH1 0x40 MLOAD PUSH2 0x803 SWAP2 SWAP1 PUSH2 0x110F JUMP JUMPDEST PUSH1 0x40 MLOAD DUP1 SWAP2 SUB SWAP1 LOG1 DUP1 SWAP2 POP POP SWAP3 SWAP2 POP POP JUMP JUMPDEST PUSH0 PUSH2 0x81F DUP3 PUSH2 0x915 JUMP JUMPDEST SWAP1 POP SWAP2 SWAP1 POP JUMP JUMPDEST PUSH0 DUP1 DUP3 SUB PUSH2 0x837 JUMPI PUSH1 0x1 SWAP1 POP PUSH2 0x89E JUMP JUMPDEST PUSH0 DUP4 SUB PUSH2 0x846 JUMPI PUSH0 SWAP1 POP PUSH2 0x89E JUMP JUMPDEST PUSH0 PUSH1 0x1 SWAP1 POP JUMPDEST PUSH0 DUP4 GT ISZERO PUSH2 0x899 JUMPI PUSH1 0x1 PUSH1 0x2 DUP5 PUSH2 0x863 SWAP2 SWAP1 PUSH2 0x113B JUMP JUMPDEST SUB PUSH2 0x877 JUMPI DUP4 DUP2 PUSH2 0x874 SWAP2 SWAP1 PUSH2 0x116B JUMP JUMPDEST SWAP1 POP JUMPDEST DUP4 DUP5 PUSH2 0x883 SWAP2 SWAP1 PUSH2 0x116B JUMP JUMPDEST SWAP4 POP PUSH1 0x2 DUP4 PUSH2 0x892 SWAP2 SWAP1 PUSH2 0x11AC JUMP JUMPDEST SWAP3 POP PUSH2 0x84C JUMP JUMPDEST DUP1 SWAP2 POP POP JUMPDEST SWAP3 SWAP2 POP POP JUMP JUMPDEST PUSH0 DUP1 DUP3 SUB PUSH2 0x8B4 JUMPI PUSH0 SWAP1 POP PUSH2 0x910 JUMP JUMPDEST PUSH0 PUSH1 0x2 PUSH1 0x1 DUP5 PUSH2 0x8C4 SWAP2 SWAP1 PUSH2 0x11DC JUMP JUMPDEST PUSH2 0x8CE SWAP2 SWAP1 PUSH2 0x11AC JUMP JUMPDEST SWAP1 POP PUSH0 DUP4 SWAP1 POP JUMPDEST DUP1 DUP3 LT ISZERO PUSH2 0x90A JUMPI DUP2 SWAP1 POP PUSH1 0x2 DUP3 DUP4 DUP7 PUSH2 0x8EF SWAP2 SWAP1 PUSH2 0x11AC JUMP JUMPDEST PUSH2 0x8F9 SWAP2 SWAP1 PUSH2 0x11DC JUMP JUMPDEST PUSH2 0x903 SWAP2 SWAP1 PUSH2 0x11AC JUMP JUMPDEST SWAP2 POP PUSH2 0x8D5 JUMP JUMPDEST DUP1 SWAP3 POP POP POP JUMPDEST SWAP2 SWAP1 POP JUMP JUMPDEST PUSH0 DUP1 DUP3 SLT ISZERO PUSH2 0x92D JUMPI DUP2 PUSH2 0x928 SWAP1 PUSH2 0x120F JUMP JUMPDEST PUSH2 0x92F JUMP JUMPDEST DUP2 JUMPDEST SWAP1 POP SWAP2 SWAP1 POP JUMP JUMPDEST PUSH0 DUP1 REVERT JUMPDEST PUSH0 DUP2 SWAP1 POP SWAP2 SWAP1 POP JUMP JUMPDEST PUSH2 0x94C DUP2 PUSH2 0x93A JUMP JUMPDEST DUP2 EQ PUSH2 0x956 JUMPI PUSH0 DUP1 REVERT JUMPDEST POP JUMP JUMPDEST PUSH0 DUP2 CALLDATALOAD SWAP1 POP PUSH2 0x967 DUP2 PUSH2 0x943 JUMP JUMPDEST SWAP3 SWAP2 POP POP JUMP JUMPDEST PUSH0 DUP1 PUSH1 0x40 DUP4 DUP6 SUB SLT ISZERO PUSH2 0x983 JUMPI PUSH2 0x982 PUSH2 0x936 JUMP JUMPDEST JUMPDEST PUSH0 PUSH2 0x990 DUP6 DUP3 DUP7 ADD PUSH2 0x959 JUMP JUMPDEST SWAP3 POP POP PUSH1 0x20 PUSH2 0x9A1 DUP6 DUP3 DUP7 ADD PUSH2 0x959 JUMP JUMPDEST SWAP2 POP POP SWAP3 POP SWAP3 SWAP1 POP JUMP JUMPDEST PUSH2 0x9B4 DUP2 PUSH2 0x93A JUMP JUMPDEST DUP3 MSTORE POP POP JUMP JUMPDEST PUSH0 PUSH1 0x20 DUP3 ADD SWAP1 POP PUSH2 0x9CD PUSH0 DUP4 ADD DUP5 PUSH2 0x9AB JUMP JUMPDEST SWAP3 SWAP2 POP POP JUMP JUMPDEST PUSH0 DUP2 SWAP1 POP SWAP2 SWAP1 POP JUMP JUMPDEST PUSH2 0x9E5 DUP2 PUSH2 0x9D3 JUMP JUMPDEST DUP2 EQ PUSH2 0x9EF JUMPI PUSH0 DUP1 REVERT JUMPDEST POP JUMP JUMPDEST PUSH0 DUP2 CALLDATALOAD SWAP1 POP PUSH2 0xA00 DUP2 PUSH2 0x9DC JUMP JUMPDEST SWAP3 SWAP2 POP POP JUMP JUMPDEST PUSH0 DUP1 PUSH1 0x40 DUP4 DUP6 SUB SLT ISZERO PUSH2 0xA1C JUMPI PUSH2 0xA1B PUSH2 0x936 JUMP JUMPDEST JUMPDEST PUSH0 PUSH2 0xA29 DUP6 DUP3 DUP7 ADD PUSH2 0x9F2 JUMP JUMPDEST SWAP3 POP POP PUSH1 0x20 PUSH2 0xA3A DUP6 DUP3 DUP7 ADD PUSH2 0x9F2 JUMP JUMPDEST SWAP2 POP POP SWAP3 POP SWAP3 SWAP1 POP JUMP JUMPDEST PUSH2 0xA4D DUP2 PUSH2 0x9D3 JUMP JUMPDEST DUP3 MSTORE POP POP JUMP JUMPDEST PUSH0 PUSH1 0x20 DUP3 ADD SWAP1 POP PUSH2 0xA66 PUSH0 DUP4 ADD DUP5 PUSH2 0xA44 JUMP JUMPDEST SWAP3 SWAP2 POP POP JUMP JUMPDEST PUSH0 PUSH1 0x20 DUP3 DUP5 SUB SLT ISZERO PUSH2 0xA81 JUMPI PUSH2 0xA80 PUSH2 0x936 JUMP JUMPDEST JUMPDEST PUSH0 PUSH2 0xA8E DUP5 DUP3 DUP6 ADD PUSH2 0x9F2 JUMP JUMPDEST SWAP2 POP POP SWAP3 SWAP2 POP POP JUMP JUMPDEST PUSH0 PUSH1 0x20 DUP3 DUP5 SUB SLT ISZERO PUSH2 0xAAC JUMPI PUSH2 0xAAB PUSH2 0x936 JUMP JUMPDEST JUMPDEST PUSH0 PUSH2 0xAB9 DUP5 DUP3 DUP6 ADD PUSH2 0x959 JUMP JUMPDEST SWAP2 POP POP SWAP3 SWAP2 POP POP JUMP JUMPDEST PUSH0 DUP3 DUP3 MSTORE PUSH1 0x20 DUP3 ADD SWAP1 POP SWAP3 SWAP2 POP POP JUMP JUMPDEST PUSH32 0x4D6F64756C6F206279207A65726F000000000000000000000000000000000000 PUSH0 DUP3 ADD MSTORE POP JUMP JUMPDEST PUSH0 PUSH2 0xB06 PUSH1 0xE DUP4 PUSH2 0xAC2 JUMP JUMPDEST SWAP2 POP PUSH2 0xB11 DUP3 PUSH2 0xAD2 JUMP JUMPDEST PUSH1 0x20 DUP3 ADD SWAP1 POP SWAP2 SWAP1 POP JUMP JUMPDEST PUSH0 PUSH1 0x20 DUP3 ADD SWAP1 POP DUP2 DUP2 SUB PUSH0 DUP4 ADD MSTORE PUSH2 0xB33 DUP2 PUSH2 0xAFA JUMP JUMPDEST SWAP1 POP SWAP2 SWAP1 POP JUMP JUMPDEST PUSH32 0x4E487B7100000000000000000000000000000000000000000000000000000000 PUSH0 MSTORE PUSH1 0x12 PUSH1 0x4 MSTORE PUSH1 0x24 PUSH0 REVERT JUMPDEST PUSH0 PUSH2 0xB71 DUP3 PUSH2 0x93A JUMP JUMPDEST SWAP2 POP PUSH2 0xB7C DUP4 PUSH2 0x93A JUMP JUMPDEST SWAP3 POP DUP3 PUSH2 0xB8C JUMPI PUSH2 0xB8B PUSH2 0xB3A JUMP JUMPDEST JUMPDEST DUP3 DUP3 SMOD SWAP1 POP SWAP3 SWAP2 POP POP JUMP JUMPDEST PUSH32 0x6D6F64756C6F0000000000000000000000000000000000000000000000000000 PUSH0 DUP3 ADD MSTORE POP JUMP JUMPDEST PUSH0 PUSH2 0xBCB PUSH1 0x6 DUP4 PUSH2 0xAC2 JUMP JUMPDEST SWAP2 POP PUSH2 0xBD6 DUP3 PUSH2 0xB97 JUMP JUMPDEST PUSH1 0x20 DUP3 ADD SWAP1 POP SWAP2 SWAP1 POP JUMP JUMPDEST PUSH0 PUSH1 0x40 DUP3 ADD SWAP1 POP DUP2 DUP2 SUB PUSH0 DUP4 ADD MSTORE PUSH2 0xBF8 DUP2 PUSH2 0xBBF JUMP JUMPDEST SWAP1 POP PUSH2 0xC07 PUSH1 0x20 DUP4 ADD DUP5 PUSH2 0x9AB JUMP JUMPDEST SWAP3 SWAP2 POP POP JUMP JUMPDEST PUSH32 0x4469766973696F6E206279207A65726F00000000000000000000000000000000 PUSH0 DUP3 ADD MSTORE POP JUMP JUMPDEST PUSH0 PUSH2 0xC41 PUSH1 0x10 DUP4 PUSH2 0xAC2 JUMP JUMPDEST SWAP2 POP PUSH2 0xC4C DUP3 PUSH2 0xC0D JUMP JUMPDEST PUSH1 0x20 DUP3 ADD SWAP1 POP SWAP2 SWAP1 POP JUMP JUMPDEST PUSH0 PUSH1 0x20 DUP3 ADD SWAP1 POP DUP2 DUP2 SUB PUSH0 DUP4 ADD MSTORE PUSH2 0xC6E DUP2 PUSH2 0xC35 JUMP JUMPDEST SWAP1 POP SWAP2 SWAP1 POP JUMP JUMPDEST PUSH32 0x4E487B7100000000000000000000000000000000000000000000000000000000 PUSH0 MSTORE PUSH1 0x11 PUSH1 0x4 MSTORE PUSH1 0x24 PUSH0 REVERT JUMPDEST PUSH0 PUSH2 0xCAC DUP3 PUSH2 0x93A JUMP JUMPDEST SWAP2 POP PUSH2 0xCB7 DUP4 PUSH2 0x93A JUMP JUMPDEST SWAP3 POP DUP3 PUSH2 0xCC7 JUMPI PUSH2 0xCC6 PUSH2 0xB3A JUMP JUMPDEST JUMPDEST PUSH1 0x1 PUSH0 SUB DUP4 EQ PUSH32 0x8000000000000000000000000000000000000000000000000000000000000000 DUP4 EQ AND ISZERO PUSH2 0xCFF JUMPI PUSH2 0xCFE PUSH2 0xC75 JUMP JUMPDEST JUMPDEST DUP3 DUP3 SDIV SWAP1 POP SWAP3 SWAP2 POP POP JUMP JUMPDEST PUSH32 0x6578706F6E656E74696174696F6E000000000000000000000000000000000000 PUSH0 DUP3 ADD MSTORE POP JUMP JUMPDEST PUSH0 PUSH2 0xD3E PUSH1 0xE DUP4 PUSH2 0xAC2 JUMP JUMPDEST SWAP2 POP PUSH2 0xD49 DUP3 PUSH2 0xD0A JUMP JUMPDEST PUSH1 0x20 DUP3 ADD SWAP1 POP SWAP2 SWAP1 POP JUMP JUMPDEST PUSH0 PUSH1 0x40 DUP3 ADD SWAP1 POP DUP2 DUP2 SUB PUSH0 DUP4 ADD MSTORE PUSH2 0xD6B DUP2 PUSH2 0xD32 JUMP JUMPDEST SWAP1 POP PUSH2 0xD7A PUSH1 0x20 DUP4 ADD DUP5 PUSH2 0xA44 JUMP JUMPDEST SWAP3 SWAP2 POP POP JUMP JUMPDEST PUSH0 PUSH2 0xD8A DUP3 PUSH2 0x93A JUMP JUMPDEST SWAP2 POP PUSH2 0xD95 DUP4 PUSH2 0x93A JUMP JUMPDEST SWAP3 POP DUP3 DUP3 MUL PUSH2 0xDA3 DUP2 PUSH2 0x93A JUMP JUMPDEST SWAP2 POP PUSH32 0x8000000000000000000000000000000000000000000000000000000000000000 DUP5 EQ PUSH0 DUP5 SLT AND ISZERO PUSH2 0xDDA JUMPI PUSH2 0xDD9 PUSH2 0xC75 JUMP JUMPDEST JUMPDEST DUP3 DUP3 SDIV DUP5 EQ DUP4 ISZERO OR PUSH2 0xDEF JUMPI PUSH2 0xDEE PUSH2 0xC75 JUMP JUMPDEST JUMPDEST POP SWAP3 SWAP2 POP POP JUMP JUMPDEST PUSH32 0x6D756C7469706C69636174696F6E000000000000000000000000000000000000 PUSH0 DUP3 ADD MSTORE POP JUMP JUMPDEST PUSH0 PUSH2 0xE2A PUSH1 0xE DUP4 PUSH2 0xAC2 JUMP JUMPDEST SWAP2 POP PUSH2 0xE35 DUP3 PUSH2 0xDF6 JUMP JUMPDEST PUSH1 0x20 DUP3 ADD SWAP1 POP SWAP2 SWAP1 POP JUMP JUMPDEST PUSH0 PUSH1 0x40 DUP3 ADD SWAP1 POP DUP2 DUP2 SUB PUSH0 DUP4 ADD MSTORE PUSH2 0xE57 DUP2 PUSH2 0xE1E JUMP JUMPDEST SWAP1 POP PUSH2 0xE66 PUSH1 0x20 DUP4 ADD DUP5 PUSH2 0x9AB JUMP JUMPDEST SWAP3 SWAP2 POP POP JUMP JUMPDEST PUSH0 PUSH2 0xE76 DUP3 PUSH2 0x93A JUMP JUMPDEST SWAP2 POP PUSH2 0xE81 DUP4 PUSH2 0x93A JUMP JUMPDEST SWAP3 POP DUP3 DUP3 ADD SWAP1 POP DUP3 DUP2 SLT ISZERO PUSH0 DUP4 SLT AND DUP4 DUP3 SLT PUSH0 DUP5 SLT ISZERO AND OR ISZERO PUSH2 0xEA7 JUMPI PUSH2 0xEA6 PUSH2 0xC75 JUMP JUMPDEST JUMPDEST SWAP3 SWAP2 POP POP JUMP JUMPDEST PUSH32 0x73717561726520726F6F74000000000000000000000000000000000000000000 PUSH0 DUP3 ADD MSTORE POP JUMP JUMPDEST PUSH0 PUSH2 0xEE1 PUSH1 0xB DUP4 PUSH2 0xAC2 JUMP JUMPDEST SWAP2 POP PUSH2 0xEEC DUP3 PUSH2 0xEAD JUMP JUMPDEST PUSH1 0x20 DUP3 ADD SWAP1 POP SWAP2 SWAP1 POP JUMP JUMPDEST PUSH0 PUSH1 0x40 DUP3 ADD SWAP1 POP DUP2 DUP2 SUB PUSH0 DUP4 ADD MSTORE PUSH2 0xF0E DUP2 PUSH2 0xED5 JUMP JUMPDEST SWAP1 POP PUSH2 0xF1D PUSH1 0x20 DUP4 ADD DUP5 PUSH2 0xA44 JUMP JUMPDEST SWAP3 SWAP2 POP POP JUMP JUMPDEST PUSH0 PUSH2 0xF2D DUP3 PUSH2 0x93A JUMP JUMPDEST SWAP2 POP PUSH2 0xF38 DUP4 PUSH2 0x93A JUMP JUMPDEST SWAP3 POP DUP3 DUP3 SUB SWAP1 POP DUP2 DUP2 SLT PUSH0 DUP5 SLT AND DUP3 DUP3 SGT PUSH0 DUP6 SLT ISZERO AND OR ISZERO PUSH2 0xF5D JUMPI PUSH2 0xF5C PUSH2 0xC75 JUMP JUMPDEST JUMPDEST SWAP3 SWAP2 POP POP JUMP JUMPDEST PUSH32 0x6164646974696F6E000000000000000000000000000000000000000000000000 PUSH0 DUP3 ADD MSTORE POP JUMP JUMPDEST PUSH0 PUSH2 0xF97 PUSH1 0x8 DUP4 PUSH2 0xAC2 JUMP JUMPDEST SWAP2 POP PUSH2 0xFA2 DUP3 PUSH2 0xF63 JUMP JUMPDEST PUSH1 0x20 DUP3 ADD SWAP1 POP SWAP2 SWAP1 POP JUMP JUMPDEST PUSH0 PUSH1 0x40 DUP3 ADD SWAP1 POP DUP2 DUP2 SUB PUSH0 DUP4 ADD MSTORE PUSH2 0xFC4 DUP2 PUSH2 0xF8B JUMP JUMPDEST SWAP1 POP PUSH2 0xFD3 PUSH1 0x20 DUP4 ADD DUP5 PUSH2 0x9AB JUMP JUMPDEST SWAP3 SWAP2 POP POP JUMP JUMPDEST PUSH32 0x7375627472616374696F6E000000000000000000000000000000000000000000 PUSH0 DUP3 ADD MSTORE POP JUMP JUMPDEST PUSH0 PUSH2 0x100D PUSH1 0xB DUP4 PUSH2 0xAC2 JUMP JUMPDEST SWAP2 POP PUSH2 0x1018 DUP3 PUSH2 0xFD9 JUMP JUMPDEST PUSH1 0x20 DUP3 ADD SWAP1 POP SWAP2 SWAP1 POP JUMP JUMPDEST PUSH0 PUSH1 0x40 DUP3 ADD SWAP1 POP DUP2 DUP2 SUB PUSH0 DUP4 ADD MSTORE PUSH2 0x103A DUP2 PUSH2 0x1001 JUMP JUMPDEST SWAP1 POP PUSH2 0x1049 PUSH1 0x20 DUP4 ADD DUP5 PUSH2 0x9AB JUMP JUMPDEST SWAP3 SWAP2 POP POP JUMP JUMPDEST PUSH32 0x6162736F6C7574652076616C7565000000000000000000000000000000000000 PUSH0 DUP3 ADD MSTORE POP JUMP JUMPDEST PUSH0 PUSH2 0x1083 PUSH1 0xE DUP4 PUSH2 0xAC2 JUMP JUMPDEST SWAP2 POP PUSH2 0x108E DUP3 PUSH2 0x104F JUMP JUMPDEST PUSH1 0x20 DUP3 ADD SWAP1 POP SWAP2 SWAP1 POP JUMP JUMPDEST PUSH0 PUSH1 0x40 DUP3 ADD SWAP1 POP DUP2 DUP2 SUB PUSH0 DUP4 ADD MSTORE PUSH2 0x10B0 DUP2 PUSH2 0x1077 JUMP JUMPDEST SWAP1 POP PUSH2 0x10BF PUSH1 0x20 DUP4 ADD DUP5 PUSH2 0xA44 JUMP JUMPDEST SWAP3 SWAP2 POP POP JUMP JUMPDEST PUSH32 0x6469766973696F6E000000000000000000000000000000000000000000000000 PUSH0 DUP3 ADD MSTORE POP JUMP JUMPDEST PUSH0 PUSH2 0x10F9 PUSH1 0x8 DUP4 PUSH2 0xAC2 JUMP JUMPDEST SWAP2 POP PUSH2 0x1104 DUP3 PUSH2 0x10C5 JUMP JUMPDEST PUSH1 0x20 DUP3 ADD SWAP1 POP SWAP2 SWAP1 POP JUMP JUMPDEST PUSH0 PUSH1 0x40 DUP3 ADD SWAP1 POP DUP2 DUP2 SUB PUSH0 DUP4 ADD MSTORE PUSH2 0x1126 DUP2 PUSH2 0x10ED JUMP JUMPDEST SWAP1 POP PUSH2 0x1135 PUSH1 0x20 DUP4 ADD DUP5 PUSH2 0x9AB JUMP JUMPDEST SWAP3 SWAP2 POP POP JUMP JUMPDEST PUSH0 PUSH2 0x1145 DUP3 PUSH2 0x9D3 JUMP JUMPDEST SWAP2 POP PUSH2 0x1150 DUP4 PUSH2 0x9D3 JUMP JUMPDEST SWAP3 POP DUP3 PUSH2 0x1160 JUMPI PUSH2 0x115F PUSH2 0xB3A JUMP JUMPDEST JUMPDEST DUP3 DUP3 MOD SWAP1 POP SWAP3 SWAP2 POP POP JUMP JUMPDEST PUSH0 PUSH2 0x1175 DUP3 PUSH2 0x9D3 JUMP JUMPDEST SWAP2 POP PUSH2 0x1180 DUP4 PUSH2 0x9D3 JUMP JUMPDEST SWAP3 POP DUP3 DUP3 MUL PUSH2 0x118E DUP2 PUSH2 0x9D3 JUMP JUMPDEST SWAP2 POP DUP3 DUP3 DIV DUP5 EQ DUP4 ISZERO OR PUSH2 0x11A5 JUMPI PUSH2 0x11A4 PUSH2 0xC75 JUMP JUMPDEST JUMPDEST POP SWAP3 SWAP2 POP POP JUMP JUMPDEST PUSH0 PUSH2 0x11B6 DUP3 PUSH2 0x9D3 JUMP JUMPDEST SWAP2 POP PUSH2 0x11C1 DUP4 PUSH2 0x9D3 JUMP JUMPDEST SWAP3 POP DUP3 PUSH2 0x11D1 JUMPI PUSH2 0x11D0 PUSH2 0xB3A JUMP JUMPDEST JUMPDEST DUP3 DUP3 DIV SWAP1 POP SWAP3 SWAP2 POP POP JUMP JUMPDEST PUSH0 PUSH2 0x11E6 DUP3 PUSH2 0x9D3 JUMP JUMPDEST SWAP2 POP PUSH2 0x11F1 DUP4 PUSH2 0x9D3 JUMP JUMPDEST SWAP3 POP DUP3 DUP3 ADD SWAP1 POP DUP1 DUP3 GT ISZERO PUSH2 0x1209 JUMPI PUSH2 0x1208 PUSH2 0xC75 JUMP JUMPDEST JUMPDEST SWAP3 SWAP2 POP POP JUMP JUMPDEST PUSH0 PUSH2 0x1219 DUP3 PUSH2 0x93A JUMP JUMPDEST SWAP2 POP PUSH32 0x8000000000000000000000000000000000000000000000000000000000000000 DUP3 SUB PUSH2 0x124B JUMPI PUSH2 0x124A PUSH2 0xC75 JUMP JUMPDEST JUMPDEST DUP2 PUSH0 SUB SWAP1 POP SWAP2 SWAP1 POP JUMP INVALID LOG2 PUSH5 0x6970667358 0x22 SLT KECCAK256 STATICCALL 0xE6 SELFBALANCE ADD BLOBBASEFEE 0xAF 0xCD 0xB3 PUSH19 0xDB680C0D58B1FC71349896FDBBE7417776E95C 0x2E SWAP12 0xCB DUP16 PUSH5 0x736F6C6343 STOP ADDMOD BYTE STOP CALLER "
				},
				"gasEstimates": {
					"creation": {
						"codeDepositCost": "949400",
						"executionCost": "986",
						"totalCost": "950386"
					},
					"external": {
						"absoluteValue(int256)": "infinite",
						"absoluteValueView(int256)": "infinite",
						"add(int256,int256)": "infinite",
						"addView(int256,int256)": "infinite",
						"divide(int256,int256)": "infinite",
						"divideView(int256,int256)": "infinite",
						"exponentiation(uint256,uint256)": "infinite",
						"exponentiationView(uint256,uint256)": "infinite",
						"modulo(int256,int256)": "infinite",
						"moduloView(int256,int256)": "infinite",
						"multiply(int256,int256)": "infinite",
						"multiplyView(int256,int256)": "infinite",
						"squareRoot(uint256)": "infinite",
						"squareRootView(uint256)": "infinite",
						"subtract(int256,int256)": "infinite",
						"subtractView(int256,int256)": "infinite"
					}
				},
				"methodIdentifiers": {
					"absoluteValue(int256)": "e149e7b0",
					"absoluteValueView(int256)": "f86b8f30",
					"add(int256,int256)": "a5f3c23b",
					"addView(int256,int256)": "712ec062",
					"divide(int256,int256)": "f5984236",
					"divideView(int256,int256)": "15753596",
					"exponentiation(uint256,uint256)": "24884b64",
					"exponentiationView(uint256,uint256)": "7b23c0a9",
					"modulo(int256,int256)": "121c3169",
					"moduloView(int256,int256)": "4280f8e7",
					"multiply(int256,int256)": "3c4308a8",
					"multiplyView(int256,int256)": "6c901184",
					"squareRoot(uint256)": "7b019f89",
					"squareRootView(uint256)": "d03428a6",
					"subtract(int256,int256)": "b93ea812",
					"subtractView(int256,int256)": "97d2b755"
				}
			},
			"storageLayout": {
				"storage": [],
				"types": null
			},
			"userdoc": {
				"kind": "user",
				"methods": {},
				"version": 1
			}
		}
	}
}