{
	"Day-06/D6P3.sol": {
		"Circle": {
			"abi": [
				{
					"inputs": [
						{
							"internalType": "uint256",
							"name": "_radius",
							"type": "uint256"
						}
					],
					"stateMutability": "nonpayable",
					"type": "constructor"
				},
				{
					"inputs": [],
					"name": "getArea",
					"outputs": [
						{
							"internalType": "uint256",
							"name": "",
							"type": "uint256"
						}
					],
					"stateMutability": "view",
					"type": "function"
				},
				{
					"inputs": [],
					"name": "getPerimeter",
					"outputs": [
						{
							"internalType": "uint256",
							"name": "",
							"type": "uint256"
						}
					],
					"stateMutability": "view",
					"type": "function"
				},
				{
					"inputs": [],
					"name": "radius",
					"outputs": [
						{
							"internalType": "uint256",
							"name": "",
							"type": "uint256"
						}
					],
					"stateMutability": "view",
					"type": "function"
				}
			],
			"devdoc": {
				"kind": "dev",
				"methods": {},
				"version": 1
			},
			"evm": {
				"assembly": "    /* \"Day-06/D6P3.sol\":456:1338  contract Circle is Shape {... */\n  mstore(0x40, 0x80)\n    /* \"Day-06/D6P3.sol\":673:737  constructor(uint256 _radius) {... */\n  callvalue\n  dup1\n  iszero\n  tag_1\n  jumpi\n  0x00\n  dup1\n  revert\ntag_1:\n  pop\n  mload(0x40)\n  sub(codesize, bytecodeSize)\n  dup1\n  bytecodeSize\n  dup4\n  codecopy\n  dup2\n  dup2\n  add\n  0x40\n  mstore\n  dup2\n  add\n  swap1\n  tag_2\n  swap2\n  swap1\n  tag_3\n  jump\t// in\ntag_2:\n    /* \"Day-06/D6P3.sol\":722:729  _radius */\n  dup1\n    /* \"Day-06/D6P3.sol\":713:719  radius */\n  0x00\n    /* \"Day-06/D6P3.sol\":713:729  radius = _radius */\n  dup2\n  swap1\n  sstore\n  pop\n    /* \"Day-06/D6P3.sol\":673:737  constructor(uint256 _radius) {... */\n  pop\n    /* \"Day-06/D6P3.sol\":456:1338  contract Circle is Shape {... */\n  jump(tag_6)\n    /* \"#utility.yul\":88:205   */\ntag_8:\n    /* \"#utility.yul\":197:198   */\n  0x00\n    /* \"#utility.yul\":194:195   */\n  dup1\n    /* \"#utility.yul\":187:199   */\n  revert\n    /* \"#utility.yul\":334:411   */\ntag_10:\n    /* \"#utility.yul\":371:378   */\n  0x00\n    /* \"#utility.yul\":400:405   */\n  dup2\n    /* \"#utility.yul\":389:405   */\n  swap1\n  pop\n    /* \"#utility.yul\":334:411   */\n  swap2\n  swap1\n  pop\n  jump\t// out\n    /* \"#utility.yul\":417:539   */\ntag_11:\n    /* \"#utility.yul\":490:514   */\n  tag_19\n    /* \"#utility.yul\":508:513   */\n  dup2\n    /* \"#utility.yul\":490:514   */\n  tag_10\n  jump\t// in\ntag_19:\n    /* \"#utility.yul\":483:488   */\n  dup2\n    /* \"#utility.yul\":480:515   */\n  eq\n    /* \"#utility.yul\":470:533   */\n  tag_20\n  jumpi\n    /* \"#utility.yul\":529:530   */\n  0x00\n    /* \"#utility.yul\":526:527   */\n  dup1\n    /* \"#utility.yul\":519:531   */\n  revert\n    /* \"#utility.yul\":470:533   */\ntag_20:\n    /* \"#utility.yul\":417:539   */\n  pop\n  jump\t// out\n    /* \"#utility.yul\":545:688   */\ntag_12:\n    /* \"#utility.yul\":602:607   */\n  0x00\n    /* \"#utility.yul\":633:639   */\n  dup2\n    /* \"#utility.yul\":627:640   */\n  mload\n    /* \"#utility.yul\":618:640   */\n  swap1\n  pop\n    /* \"#utility.yul\":649:682   */\n  tag_22\n    /* \"#utility.yul\":676:681   */\n  dup2\n    /* \"#utility.yul\":649:682   */\n  tag_11\n  jump\t// in\ntag_22:\n    /* \"#utility.yul\":545:688   */\n  swap3\n  swap2\n  pop\n  pop\n  jump\t// out\n    /* \"#utility.yul\":694:1045   */\ntag_3:\n    /* \"#utility.yul\":764:770   */\n  0x00\n    /* \"#utility.yul\":813:815   */\n  0x20\n    /* \"#utility.yul\":801:810   */\n  dup3\n    /* \"#utility.yul\":792:799   */\n  dup5\n    /* \"#utility.yul\":788:811   */\n  sub\n    /* \"#utility.yul\":784:816   */\n  slt\n    /* \"#utility.yul\":781:900   */\n  iszero\n  tag_24\n  jumpi\n    /* \"#utility.yul\":819:898   */\n  tag_25\n  tag_8\n  jump\t// in\ntag_25:\n    /* \"#utility.yul\":781:900   */\ntag_24:\n    /* \"#utility.yul\":939:940   */\n  0x00\n    /* \"#utility.yul\":964:1028   */\n  tag_26\n    /* \"#utility.yul\":1020:1027   */\n  dup5\n    /* \"#utility.yul\":1011:1017   */\n  dup3\n    /* \"#utility.yul\":1000:1009   */\n  dup6\n    /* \"#utility.yul\":996:1018   */\n  add\n    /* \"#utility.yul\":964:1028   */\n  tag_12\n  jump\t// in\ntag_26:\n    /* \"#utility.yul\":954:1028   */\n  swap2\n  pop\n    /* \"#utility.yul\":910:1038   */\n  pop\n    /* \"#utility.yul\":694:1045   */\n  swap3\n  swap2\n  pop\n  pop\n  jump\t// out\n    /* \"Day-06/D6P3.sol\":456:1338  contract Circle is Shape {... */\ntag_6:\n  dataSize(sub_0)\n  dup1\n  dataOffset(sub_0)\n  0x00\n  codecopy\n  0x00\n  return\nstop\n\nsub_0: assembly {\n        /* \"Day-06/D6P3.sol\":456:1338  contract Circle is Shape {... */\n      mstore(0x40, 0x80)\n      callvalue\n      dup1\n      iszero\n      tag_1\n      jumpi\n      0x00\n      dup1\n      revert\n    tag_1:\n      pop\n      jumpi(tag_2, lt(calldatasize, 0x04))\n      shr(0xe0, calldataload(0x00))\n      dup1\n      0x217f4353\n      eq\n      tag_3\n      jumpi\n      dup1\n      0x7ebeb19c\n      eq\n      tag_4\n      jumpi\n      dup1\n      0x85be3e62\n      eq\n      tag_5\n      jumpi\n    tag_2:\n      0x00\n      dup1\n      revert\n        /* \"Day-06/D6P3.sol\":488:509  uint256 public radius */\n    tag_3:\n      tag_6\n      tag_7\n      jump\t// in\n    tag_6:\n      mload(0x40)\n      tag_8\n      swap2\n      swap1\n      tag_9\n      jump\t// in\n    tag_8:\n      mload(0x40)\n      dup1\n      swap2\n      sub\n      swap1\n      return\n        /* \"Day-06/D6P3.sol\":800:1037  function getPerimeter() public view override returns (uint256) {... */\n    tag_4:\n      tag_10\n      tag_11\n      jump\t// in\n    tag_10:\n      mload(0x40)\n      tag_12\n      swap2\n      swap1\n      tag_9\n      jump\t// in\n    tag_12:\n      mload(0x40)\n      dup1\n      swap2\n      sub\n      swap1\n      return\n        /* \"Day-06/D6P3.sol\":1093:1335  function getArea() public view override returns (uint256) {... */\n    tag_5:\n      tag_13\n      tag_14\n      jump\t// in\n    tag_13:\n      mload(0x40)\n      tag_15\n      swap2\n      swap1\n      tag_9\n      jump\t// in\n    tag_15:\n      mload(0x40)\n      dup1\n      swap2\n      sub\n      swap1\n      return\n        /* \"Day-06/D6P3.sol\":488:509  uint256 public radius */\n    tag_7:\n      sload(0x00)\n      dup2\n      jump\t// out\n        /* \"Day-06/D6P3.sol\":800:1037  function getPerimeter() public view override returns (uint256) {... */\n    tag_11:\n        /* \"Day-06/D6P3.sol\":854:861  uint256 */\n      0x00\n        /* \"Day-06/D6P3.sol\":626:636  1000000000 */\n      0x3b9aca00\n        /* \"Day-06/D6P3.sol\":1014:1020  radius */\n      sload(0x00)\n        /* \"Day-06/D6P3.sol\":538:548  3141592653 */\n      0xbb40e64d\n        /* \"Day-06/D6P3.sol\":1005:1006  2 */\n      0x02\n        /* \"Day-06/D6P3.sol\":1005:1011  2 * PI */\n      tag_17\n      swap2\n      swap1\n      tag_18\n      jump\t// in\n    tag_17:\n        /* \"Day-06/D6P3.sol\":1005:1020  2 * PI * radius */\n      tag_19\n      swap2\n      swap1\n      tag_18\n      jump\t// in\n    tag_19:\n        /* \"Day-06/D6P3.sol\":1004:1029  (2 * PI * radius) / SCALE */\n      tag_20\n      swap2\n      swap1\n      tag_21\n      jump\t// in\n    tag_20:\n        /* \"Day-06/D6P3.sol\":997:1029  return (2 * PI * radius) / SCALE */\n      swap1\n      pop\n        /* \"Day-06/D6P3.sol\":800:1037  function getPerimeter() public view override returns (uint256) {... */\n      swap1\n      jump\t// out\n        /* \"Day-06/D6P3.sol\":1093:1335  function getArea() public view override returns (uint256) {... */\n    tag_14:\n        /* \"Day-06/D6P3.sol\":1142:1149  uint256 */\n      0x00\n        /* \"Day-06/D6P3.sol\":626:636  1000000000 */\n      0x3b9aca00\n        /* \"Day-06/D6P3.sol\":1312:1318  radius */\n      sload(0x00)\n        /* \"Day-06/D6P3.sol\":1303:1309  radius */\n      sload(0x00)\n        /* \"Day-06/D6P3.sol\":538:548  3141592653 */\n      0xbb40e64d\n        /* \"Day-06/D6P3.sol\":1298:1309  PI * radius */\n      tag_23\n      swap2\n      swap1\n      tag_18\n      jump\t// in\n    tag_23:\n        /* \"Day-06/D6P3.sol\":1298:1318  PI * radius * radius */\n      tag_24\n      swap2\n      swap1\n      tag_18\n      jump\t// in\n    tag_24:\n        /* \"Day-06/D6P3.sol\":1297:1327  (PI * radius * radius) / SCALE */\n      tag_25\n      swap2\n      swap1\n      tag_21\n      jump\t// in\n    tag_25:\n        /* \"Day-06/D6P3.sol\":1290:1327  return (PI * radius * radius) / SCALE */\n      swap1\n      pop\n        /* \"Day-06/D6P3.sol\":1093:1335  function getArea() public view override returns (uint256) {... */\n      swap1\n      jump\t// out\n        /* \"#utility.yul\":7:84   */\n    tag_26:\n        /* \"#utility.yul\":44:51   */\n      0x00\n        /* \"#utility.yul\":73:78   */\n      dup2\n        /* \"#utility.yul\":62:78   */\n      swap1\n      pop\n        /* \"#utility.yul\":7:84   */\n      swap2\n      swap1\n      pop\n      jump\t// out\n        /* \"#utility.yul\":90:208   */\n    tag_27:\n        /* \"#utility.yul\":177:201   */\n      tag_33\n        /* \"#utility.yul\":195:200   */\n      dup2\n        /* \"#utility.yul\":177:201   */\n      tag_26\n      jump\t// in\n    tag_33:\n        /* \"#utility.yul\":172:175   */\n      dup3\n        /* \"#utility.yul\":165:202   */\n      mstore\n        /* \"#utility.yul\":90:208   */\n      pop\n      pop\n      jump\t// out\n        /* \"#utility.yul\":214:436   */\n    tag_9:\n        /* \"#utility.yul\":307:311   */\n      0x00\n        /* \"#utility.yul\":345:347   */\n      0x20\n        /* \"#utility.yul\":334:343   */\n      dup3\n        /* \"#utility.yul\":330:348   */\n      add\n        /* \"#utility.yul\":322:348   */\n      swap1\n      pop\n        /* \"#utility.yul\":358:429   */\n      tag_35\n        /* \"#utility.yul\":426:427   */\n      0x00\n        /* \"#utility.yul\":415:424   */\n      dup4\n        /* \"#utility.yul\":411:428   */\n      add\n        /* \"#utility.yul\":402:408   */\n      dup5\n        /* \"#utility.yul\":358:429   */\n      tag_27\n      jump\t// in\n    tag_35:\n        /* \"#utility.yul\":214:436   */\n      swap3\n      swap2\n      pop\n      pop\n      jump\t// out\n        /* \"#utility.yul\":442:622   */\n    tag_28:\n        /* \"#utility.yul\":490:567   */\n      0x4e487b7100000000000000000000000000000000000000000000000000000000\n        /* \"#utility.yul\":487:488   */\n      0x00\n        /* \"#utility.yul\":480:568   */\n      mstore\n        /* \"#utility.yul\":587:591   */\n      0x11\n        /* \"#utility.yul\":584:585   */\n      0x04\n        /* \"#utility.yul\":577:592   */\n      mstore\n        /* \"#utility.yul\":611:615   */\n      0x24\n        /* \"#utility.yul\":608:609   */\n      0x00\n        /* \"#utility.yul\":601:616   */\n      revert\n        /* \"#utility.yul\":628:1038   */\n    tag_18:\n        /* \"#utility.yul\":668:675   */\n      0x00\n        /* \"#utility.yul\":691:711   */\n      tag_38\n        /* \"#utility.yul\":709:710   */\n      dup3\n        /* \"#utility.yul\":691:711   */\n      tag_26\n      jump\t// in\n    tag_38:\n        /* \"#utility.yul\":686:711   */\n      swap2\n      pop\n        /* \"#utility.yul\":725:745   */\n      tag_39\n        /* \"#utility.yul\":743:744   */\n      dup4\n        /* \"#utility.yul\":725:745   */\n      tag_26\n      jump\t// in\n    tag_39:\n        /* \"#utility.yul\":720:745   */\n      swap3\n      pop\n        /* \"#utility.yul\":780:781   */\n      dup3\n        /* \"#utility.yul\":777:778   */\n      dup3\n        /* \"#utility.yul\":773:782   */\n      mul\n        /* \"#utility.yul\":802:832   */\n      tag_40\n        /* \"#utility.yul\":820:831   */\n      dup2\n        /* \"#utility.yul\":802:832   */\n      tag_26\n      jump\t// in\n    tag_40:\n        /* \"#utility.yul\":791:832   */\n      swap2\n      pop\n        /* \"#utility.yul\":981:982   */\n      dup3\n        /* \"#utility.yul\":972:979   */\n      dup3\n        /* \"#utility.yul\":968:983   */\n      div\n        /* \"#utility.yul\":965:966   */\n      dup5\n        /* \"#utility.yul\":962:984   */\n      eq\n        /* \"#utility.yul\":942:943   */\n      dup4\n        /* \"#utility.yul\":935:944   */\n      iszero\n        /* \"#utility.yul\":915:998   */\n      or\n        /* \"#utility.yul\":892:1031   */\n      tag_41\n      jumpi\n        /* \"#utility.yul\":1011:1029   */\n      tag_42\n      tag_28\n      jump\t// in\n    tag_42:\n        /* \"#utility.yul\":892:1031   */\n    tag_41:\n        /* \"#utility.yul\":676:1038   */\n      pop\n        /* \"#utility.yul\":628:1038   */\n      swap3\n      swap2\n      pop\n      pop\n      jump\t// out\n        /* \"#utility.yul\":1044:1224   */\n    tag_29:\n        /* \"#utility.yul\":1092:1169   */\n      0x4e487b7100000000000000000000000000000000000000000000000000000000\n        /* \"#utility.yul\":1089:1090   */\n      0x00\n        /* \"#utility.yul\":1082:1170   */\n      mstore\n        /* \"#utility.yul\":1189:1193   */\n      0x12\n        /* \"#utility.yul\":1186:1187   */\n      0x04\n        /* \"#utility.yul\":1179:1194   */\n      mstore\n        /* \"#utility.yul\":1213:1217   */\n      0x24\n        /* \"#utility.yul\":1210:1211   */\n      0x00\n        /* \"#utility.yul\":1203:1218   */\n      revert\n        /* \"#utility.yul\":1230:1415   */\n    tag_21:\n        /* \"#utility.yul\":1270:1271   */\n      0x00\n        /* \"#utility.yul\":1287:1307   */\n      tag_45\n        /* \"#utility.yul\":1305:1306   */\n      dup3\n        /* \"#utility.yul\":1287:1307   */\n      tag_26\n      jump\t// in\n    tag_45:\n        /* \"#utility.yul\":1282:1307   */\n      swap2\n      pop\n        /* \"#utility.yul\":1321:1341   */\n      tag_46\n        /* \"#utility.yul\":1339:1340   */\n      dup4\n        /* \"#utility.yul\":1321:1341   */\n      tag_26\n      jump\t// in\n    tag_46:\n        /* \"#utility.yul\":1316:1341   */\n      swap3\n      pop\n        /* \"#utility.yul\":1360:1361   */\n      dup3\n        /* \"#utility.yul\":1350:1385   */\n      tag_47\n      jumpi\n        /* \"#utility.yul\":1365:1383   */\n      tag_48\n      tag_29\n      jump\t// in\n    tag_48:\n        /* \"#utility.yul\":1350:1385   */\n    tag_47:\n        /* \"#utility.yul\":1407:1408   */\n      dup3\n        /* \"#utility.yul\":1404:1405   */\n      dup3\n        /* \"#utility.yul\":1400:1409   */\n      div\n        /* \"#utility.yul\":1395:1409   */\n      swap1\n      pop\n        /* \"#utility.yul\":1230:1415   */\n      swap3\n      swap2\n      pop\n      pop\n      jump\t// out\n\n    auxdata: 0xa2646970667358221220c9b4ac2e39b8250c3bd216683c13ca0feb02b6e73b6bc6538723f06279cca63a64736f6c63430008120033\n}\n",
				"bytecode": {
					"linkReferences": {},
					"object": "608060405234801561001057600080fd5b506040516103003803806103008339818101604052810190610032919061007a565b80600081905550506100a7565b600080fd5b6000819050919050565b61005781610044565b811461006257600080fd5b50565b6000815190506100748161004e565b92915050565b6000602082840312156100905761008f61003f565b5b600061009e84828501610065565b91505092915050565b61024a806100b66000396000f3fe608060405234801561001057600080fd5b50600436106100415760003560e01c8063217f4353146100465780637ebeb19c1461006457806385be3e6214610082575b600080fd5b61004e6100a0565b60405161005b9190610128565b60405180910390f35b61006c6100a6565b6040516100799190610128565b60405180910390f35b61008a6100da565b6040516100979190610128565b60405180910390f35b60005481565b6000633b9aca0060005463bb40e64d60026100c19190610172565b6100cb9190610172565b6100d591906101e3565b905090565b6000633b9aca0060005460005463bb40e64d6100f69190610172565b6101009190610172565b61010a91906101e3565b905090565b6000819050919050565b6101228161010f565b82525050565b600060208201905061013d6000830184610119565b92915050565b7f4e487b7100000000000000000000000000000000000000000000000000000000600052601160045260246000fd5b600061017d8261010f565b91506101888361010f565b92508282026101968161010f565b915082820484148315176101ad576101ac610143565b5b5092915050565b7f4e487b7100000000000000000000000000000000000000000000000000000000600052601260045260246000fd5b60006101ee8261010f565b91506101f98361010f565b925082610209576102086101b4565b5b82820490509291505056fea2646970667358221220c9b4ac2e39b8250c3bd216683c13ca0feb02b6e73b6bc6538723f06279cca63a64736f6c63430008120033",
					"opcodes": "PUSH1 0x80 PUSH1 0x40 MSTORE CALLVALUE DUP1 ISZERO PUSH2 0x10 JUMPI PUSH1 0x0 DUP1 REVERT JUMPDEST POP PUSH1 0x40 MLOAD PUSH2 0x300 CODESIZE SUB DUP1 PUSH2 0x300 DUP4 CODECOPY DUP2 DUP2 ADD PUSH1 0x40 MSTORE DUP2 ADD SWAP1 PUSH2 0x32 SWAP2 SWAP1 PUSH2 0x7A JUMP JUMPDEST DUP1 PUSH1 0x0 DUP2 SWAP1 SSTORE POP POP PUSH2 0xA7 JUMP JUMPDEST PUSH1 0x0 DUP1 REVERT JUMPDEST PUSH1 0x0 DUP2 SWAP1 POP SWAP2 SWAP1 POP JUMP JUMPDEST PUSH2 0x57 DUP2 PUSH2 0x44 JUMP JUMPDEST DUP2 EQ PUSH2 0x62 JUMPI PUSH1 0x0 DUP1 REVERT JUMPDEST POP JUMP JUMPDEST PUSH1 0x0 DUP2 MLOAD SWAP1 POP PUSH2 0x74 DUP2 PUSH2 0x4E JUMP JUMPDEST SWAP3 SWAP2 POP POP JUMP JUMPDEST PUSH1 0x0 PUSH1 0x20 DUP3 DUP5 SUB SLT ISZERO PUSH2 0x90 JUMPI PUSH2 0x8F PUSH2 0x3F JUMP JUMPDEST JUMPDEST PUSH1 0x0 PUSH2 0x9E DUP5 DUP3 DUP6 ADD PUSH2 0x65 JUMP JUMPDEST SWAP2 POP POP SWAP3 SWAP2 POP POP JUMP JUMPDEST PUSH2 0x24A DUP1 PUSH2 0xB6 PUSH1 0x0 CODECOPY PUSH1 0x0 RETURN INVALID PUSH1 0x80 PUSH1 0x40 MSTORE CALLVALUE DUP1 ISZERO PUSH2 0x10 JUMPI PUSH1 0x0 DUP1 REVERT JUMPDEST POP PUSH1 0x4 CALLDATASIZE LT PUSH2 0x41 JUMPI PUSH1 0x0 CALLDATALOAD PUSH1 0xE0 SHR DUP1 PUSH4 0x217F4353 EQ PUSH2 0x46 JUMPI DUP1 PUSH4 0x7EBEB19C EQ PUSH2 0x64 JUMPI DUP1 PUSH4 0x85BE3E62 EQ PUSH2 0x82 JUMPI JUMPDEST PUSH1 0x0 DUP1 REVERT JUMPDEST PUSH2 0x4E PUSH2 0xA0 JUMP JUMPDEST PUSH1 0x40 MLOAD PUSH2 0x5B SWAP2 SWAP1 PUSH2 0x128 JUMP JUMPDEST PUSH1 0x40 MLOAD DUP1 SWAP2 SUB SWAP1 RETURN JUMPDEST PUSH2 0x6C PUSH2 0xA6 JUMP JUMPDEST PUSH1 0x40 MLOAD PUSH2 0x79 SWAP2 SWAP1 PUSH2 0x128 JUMP JUMPDEST PUSH1 0x40 MLOAD DUP1 SWAP2 SUB SWAP1 RETURN JUMPDEST PUSH2 0x8A PUSH2 0xDA JUMP JUMPDEST PUSH1 0x40 MLOAD PUSH2 0x97 SWAP2 SWAP1 PUSH2 0x128 JUMP JUMPDEST PUSH1 0x40 MLOAD DUP1 SWAP2 SUB SWAP1 RETURN JUMPDEST PUSH1 0x0 SLOAD DUP2 JUMP JUMPDEST PUSH1 0x0 PUSH4 0x3B9ACA00 PUSH1 0x0 SLOAD PUSH4 0xBB40E64D PUSH1 0x2 PUSH2 0xC1 SWAP2 SWAP1 PUSH2 0x172 JUMP JUMPDEST PUSH2 0xCB SWAP2 SWAP1 PUSH2 0x172 JUMP JUMPDEST PUSH2 0xD5 SWAP2 SWAP1 PUSH2 0x1E3 JUMP JUMPDEST SWAP1 POP SWAP1 JUMP JUMPDEST PUSH1 0x0 PUSH4 0x3B9ACA00 PUSH1 0x0 SLOAD PUSH1 0x0 SLOAD PUSH4 0xBB40E64D PUSH2 0xF6 SWAP2 SWAP1 PUSH2 0x172 JUMP JUMPDEST PUSH2 0x100 SWAP2 SWAP1 PUSH2 0x172 JUMP JUMPDEST PUSH2 0x10A SWAP2 SWAP1 PUSH2 0x1E3 JUMP JUMPDEST SWAP1 POP SWAP1 JUMP JUMPDEST PUSH1 0x0 DUP2 SWAP1 POP SWAP2 SWAP1 POP JUMP JUMPDEST PUSH2 0x122 DUP2 PUSH2 0x10F JUMP JUMPDEST DUP3 MSTORE POP POP JUMP JUMPDEST PUSH1 0x0 PUSH1 0x20 DUP3 ADD SWAP1 POP PUSH2 0x13D PUSH1 0x0 DUP4 ADD DUP5 PUSH2 0x119 JUMP JUMPDEST SWAP3 SWAP2 POP POP JUMP JUMPDEST PUSH32 0x4E487B7100000000000000000000000000000000000000000000000000000000 PUSH1 0x0 MSTORE PUSH1 0x11 PUSH1 0x4 MSTORE PUSH1 0x24 PUSH1 0x0 REVERT JUMPDEST PUSH1 0x0 PUSH2 0x17D DUP3 PUSH2 0x10F JUMP JUMPDEST SWAP2 POP PUSH2 0x188 DUP4 PUSH2 0x10F JUMP JUMPDEST SWAP3 POP DUP3 DUP3 MUL PUSH2 0x196 DUP2 PUSH2 0x10F JUMP JUMPDEST SWAP2 POP DUP3 DUP3 DIV DUP5 EQ DUP4 ISZERO OR PUSH2 0x1AD JUMPI PUSH2 0x1AC PUSH2 0x143 JUMP JUMPDEST JUMPDEST POP SWAP3 SWAP2 POP POP JUMP JUMPDEST PUSH32 0x4E487B7100000000000000000000000000000000000000000000000000000000 PUSH1 0x0 MSTORE PUSH1 0x12 PUSH1 0x4 MSTORE PUSH1 0x24 PUSH1 0x0 REVERT JUMPDEST PUSH1 0x0 PUSH2 0x1EE DUP3 PUSH2 0x10F JUMP JUMPDEST SWAP2 POP PUSH2 0x1F9 DUP4 PUSH2 0x10F JUMP JUMPDEST SWAP3 POP DUP3 PUSH2 0x209 JUMPI PUSH2 0x208 PUSH2 0x1B4 JUMP JUMPDEST JUMPDEST DUP3 DUP3 DIV SWAP1 POP SWAP3 SWAP2 POP POP JUMP INVALID LOG2 PUSH5 0x6970667358 0x22 SLT KECCAK256 0xC9 0xB4 0xAC 0x2E CODECOPY 0xB8 0x25 0xC EXTCODESIZE 0xD2 AND PUSH9 0x3C13CA0FEB02B6E73B PUSH12 0xC6538723F06279CCA63A6473 PUSH16 0x6C634300081200330000000000000000 "
				},
				"gasEstimates": {
					"creation": {
						"codeDepositCost": "117200",
						"executionCost": "infinite",
						"totalCost": "infinite"
					},
					"external": {
						"getArea()": "infinite",
						"getPerimeter()": "infinite",
						"radius()": "2407"
					}
				},
				"methodIdentifiers": {
					"getArea()": "85be3e62",
					"getPerimeter()": "7ebeb19c",
					"radius()": "217f4353"
				}
			},
			"storageLayout": {
				"storage": [
					{
						"astId": 22,
						"contract": "Day-06/D6P3.sol:Circle",
						"label": "radius",
						"offset": 0,
						"slot": "0",
						"type": "t_uint256"
					}
				],
				"types": {
					"t_uint256": {
						"encoding": "inplace",
						"label": "uint256",
						"numberOfBytes": "32"
					}
				}
			},
			"userdoc": {
				"kind": "user",
				"methods": {},
				"version": 1
			}
		}
	}
}