{
	"Day-06/D6P3.sol": {
		"Triangle": {
			"abi": [
				{
					"inputs": [
						{
							"internalType": "uint256",
							"name": "_side1",
							"type": "uint256"
						},
						{
							"internalType": "uint256",
							"name": "_side2",
							"type": "uint256"
						},
						{
							"internalType": "uint256",
							"name": "_side3",
							"type": "uint256"
						},
						{
							"internalType": "uint256",
							"name": "_base",
							"type": "uint256"
						},
						{
							"internalType": "uint256",
							"name": "_height",
							"type": "uint256"
						}
					],
					"stateMutability": "nonpayable",
					"type": "constructor"
				},
				{
					"inputs": [],
					"name": "base",
					"outputs": [
						{
							"internalType": "uint256",
							"name": "",
							"type": "uint256"
						}
					],
					"stateMutability": "view",
					"type": "function"
				},
				{
					"inputs": [],
					"name": "getArea",
					"outputs": [
						{
							"internalType": "uint256",
							"name": "",
							"type": "uint256"
						}
					],
					"stateMutability": "view",
					"type": "function"
				},
				{
					"inputs": [],
					"name": "getPerimeter",
					"outputs": [
						{
							"internalType": "uint256",
							"name": "",
							"type": "uint256"
						}
					],
					"stateMutability": "view",
					"type": "function"
				},
				{
					"inputs": [],
					"name": "height",
					"outputs": [
						{
							"internalType": "uint256",
							"name": "",
							"type": "uint256"
						}
					],
					"stateMutability": "view",
					"type": "function"
				},
				{
					"inputs": [],
					"name": "side1",
					"outputs": [
						{
							"internalType": "uint256",
							"name": "",
							"type": "uint256"
						}
					],
					"stateMutability": "view",
					"type": "function"
				},
				{
					"inputs": [],
					"name": "side2",
					"outputs": [
						{
							"internalType": "uint256",
							"name": "",
							"type": "uint256"
						}
					],
					"stateMutability": "view",
					"type": "function"
				},
				{
					"inputs": [],
					"name": "side3",
					"outputs": [
						{
							"internalType": "uint256",
							"name": "",
							"type": "uint256"
						}
					],
					"stateMutability": "view",
					"type": "function"
				}
			],
			"devdoc": {
				"kind": "dev",
				"methods": {},
				"version": 1
			},
			"evm": {
				"assembly": "    /* \"Day-06/D6P3.sol\":1937:2684  contract Triangle is Shape {... */\n  mstore(0x40, 0x80)\n    /* \"Day-06/D6P3.sol\":2108:2333  constructor(uint256 _side1, uint256 _side2, uint256 _side3, uint256 _base, uint256 _height) {... */\n  callvalue\n  dup1\n  iszero\n  tag_1\n  jumpi\n  0x00\n  dup1\n  revert\ntag_1:\n  pop\n  mload(0x40)\n  sub(codesize, bytecodeSize)\n  dup1\n  bytecodeSize\n  dup4\n  codecopy\n  dup2\n  dup2\n  add\n  0x40\n  mstore\n  dup2\n  add\n  swap1\n  tag_2\n  swap2\n  swap1\n  tag_3\n  jump\t// in\ntag_2:\n    /* \"Day-06/D6P3.sol\":2219:2225  _side1 */\n  dup5\n    /* \"Day-06/D6P3.sol\":2211:2216  side1 */\n  0x00\n    /* \"Day-06/D6P3.sol\":2211:2225  side1 = _side1 */\n  dup2\n  swap1\n  sstore\n  pop\n    /* \"Day-06/D6P3.sol\":2244:2250  _side2 */\n  dup4\n    /* \"Day-06/D6P3.sol\":2236:2241  side2 */\n  0x01\n    /* \"Day-06/D6P3.sol\":2236:2250  side2 = _side2 */\n  dup2\n  swap1\n  sstore\n  pop\n    /* \"Day-06/D6P3.sol\":2269:2275  _side3 */\n  dup3\n    /* \"Day-06/D6P3.sol\":2261:2266  side3 */\n  0x02\n    /* \"Day-06/D6P3.sol\":2261:2275  side3 = _side3 */\n  dup2\n  swap1\n  sstore\n  pop\n    /* \"Day-06/D6P3.sol\":2293:2298  _base */\n  dup2\n    /* \"Day-06/D6P3.sol\":2286:2290  base */\n  0x03\n    /* \"Day-06/D6P3.sol\":2286:2298  base = _base */\n  dup2\n  swap1\n  sstore\n  pop\n    /* \"Day-06/D6P3.sol\":2318:2325  _height */\n  dup1\n    /* \"Day-06/D6P3.sol\":2309:2315  height */\n  0x04\n    /* \"Day-06/D6P3.sol\":2309:2325  height = _height */\n  dup2\n  swap1\n  sstore\n  pop\n    /* \"Day-06/D6P3.sol\":2108:2333  constructor(uint256 _side1, uint256 _side2, uint256 _side3, uint256 _base, uint256 _height) {... */\n  pop\n  pop\n  pop\n  pop\n  pop\n    /* \"Day-06/D6P3.sol\":1937:2684  contract Triangle is Shape {... */\n  jump(tag_6)\n    /* \"#utility.yul\":88:205   */\ntag_8:\n    /* \"#utility.yul\":197:198   */\n  0x00\n    /* \"#utility.yul\":194:195   */\n  dup1\n    /* \"#utility.yul\":187:199   */\n  revert\n    /* \"#utility.yul\":334:411   */\ntag_10:\n    /* \"#utility.yul\":371:378   */\n  0x00\n    /* \"#utility.yul\":400:405   */\n  dup2\n    /* \"#utility.yul\":389:405   */\n  swap1\n  pop\n    /* \"#utility.yul\":334:411   */\n  swap2\n  swap1\n  pop\n  jump\t// out\n    /* \"#utility.yul\":417:539   */\ntag_11:\n    /* \"#utility.yul\":490:514   */\n  tag_19\n    /* \"#utility.yul\":508:513   */\n  dup2\n    /* \"#utility.yul\":490:514   */\n  tag_10\n  jump\t// in\ntag_19:\n    /* \"#utility.yul\":483:488   */\n  dup2\n    /* \"#utility.yul\":480:515   */\n  eq\n    /* \"#utility.yul\":470:533   */\n  tag_20\n  jumpi\n    /* \"#utility.yul\":529:530   */\n  0x00\n    /* \"#utility.yul\":526:527   */\n  dup1\n    /* \"#utility.yul\":519:531   */\n  revert\n    /* \"#utility.yul\":470:533   */\ntag_20:\n    /* \"#utility.yul\":417:539   */\n  pop\n  jump\t// out\n    /* \"#utility.yul\":545:688   */\ntag_12:\n    /* \"#utility.yul\":602:607   */\n  0x00\n    /* \"#utility.yul\":633:639   */\n  dup2\n    /* \"#utility.yul\":627:640   */\n  mload\n    /* \"#utility.yul\":618:640   */\n  swap1\n  pop\n    /* \"#utility.yul\":649:682   */\n  tag_22\n    /* \"#utility.yul\":676:681   */\n  dup2\n    /* \"#utility.yul\":649:682   */\n  tag_11\n  jump\t// in\ntag_22:\n    /* \"#utility.yul\":545:688   */\n  swap3\n  swap2\n  pop\n  pop\n  jump\t// out\n    /* \"#utility.yul\":694:1671   */\ntag_3:\n    /* \"#utility.yul\":800:806   */\n  0x00\n    /* \"#utility.yul\":808:814   */\n  dup1\n    /* \"#utility.yul\":816:822   */\n  0x00\n    /* \"#utility.yul\":824:830   */\n  dup1\n    /* \"#utility.yul\":832:838   */\n  0x00\n    /* \"#utility.yul\":881:884   */\n  0xa0\n    /* \"#utility.yul\":869:878   */\n  dup7\n    /* \"#utility.yul\":860:867   */\n  dup9\n    /* \"#utility.yul\":856:879   */\n  sub\n    /* \"#utility.yul\":852:885   */\n  slt\n    /* \"#utility.yul\":849:969   */\n  iszero\n  tag_24\n  jumpi\n    /* \"#utility.yul\":888:967   */\n  tag_25\n  tag_8\n  jump\t// in\ntag_25:\n    /* \"#utility.yul\":849:969   */\ntag_24:\n    /* \"#utility.yul\":1008:1009   */\n  0x00\n    /* \"#utility.yul\":1033:1097   */\n  tag_26\n    /* \"#utility.yul\":1089:1096   */\n  dup9\n    /* \"#utility.yul\":1080:1086   */\n  dup3\n    /* \"#utility.yul\":1069:1078   */\n  dup10\n    /* \"#utility.yul\":1065:1087   */\n  add\n    /* \"#utility.yul\":1033:1097   */\n  tag_12\n  jump\t// in\ntag_26:\n    /* \"#utility.yul\":1023:1097   */\n  swap6\n  pop\n    /* \"#utility.yul\":979:1107   */\n  pop\n    /* \"#utility.yul\":1146:1148   */\n  0x20\n    /* \"#utility.yul\":1172:1236   */\n  tag_27\n    /* \"#utility.yul\":1228:1235   */\n  dup9\n    /* \"#utility.yul\":1219:1225   */\n  dup3\n    /* \"#utility.yul\":1208:1217   */\n  dup10\n    /* \"#utility.yul\":1204:1226   */\n  add\n    /* \"#utility.yul\":1172:1236   */\n  tag_12\n  jump\t// in\ntag_27:\n    /* \"#utility.yul\":1162:1236   */\n  swap5\n  pop\n    /* \"#utility.yul\":1117:1246   */\n  pop\n    /* \"#utility.yul\":1285:1287   */\n  0x40\n    /* \"#utility.yul\":1311:1375   */\n  tag_28\n    /* \"#utility.yul\":1367:1374   */\n  dup9\n    /* \"#utility.yul\":1358:1364   */\n  dup3\n    /* \"#utility.yul\":1347:1356   */\n  dup10\n    /* \"#utility.yul\":1343:1365   */\n  add\n    /* \"#utility.yul\":1311:1375   */\n  tag_12\n  jump\t// in\ntag_28:\n    /* \"#utility.yul\":1301:1375   */\n  swap4\n  pop\n    /* \"#utility.yul\":1256:1385   */\n  pop\n    /* \"#utility.yul\":1424:1426   */\n  0x60\n    /* \"#utility.yul\":1450:1514   */\n  tag_29\n    /* \"#utility.yul\":1506:1513   */\n  dup9\n    /* \"#utility.yul\":1497:1503   */\n  dup3\n    /* \"#utility.yul\":1486:1495   */\n  dup10\n    /* \"#utility.yul\":1482:1504   */\n  add\n    /* \"#utility.yul\":1450:1514   */\n  tag_12\n  jump\t// in\ntag_29:\n    /* \"#utility.yul\":1440:1514   */\n  swap3\n  pop\n    /* \"#utility.yul\":1395:1524   */\n  pop\n    /* \"#utility.yul\":1563:1566   */\n  0x80\n    /* \"#utility.yul\":1590:1654   */\n  tag_30\n    /* \"#utility.yul\":1646:1653   */\n  dup9\n    /* \"#utility.yul\":1637:1643   */\n  dup3\n    /* \"#utility.yul\":1626:1635   */\n  dup10\n    /* \"#utility.yul\":1622:1644   */\n  add\n    /* \"#utility.yul\":1590:1654   */\n  tag_12\n  jump\t// in\ntag_30:\n    /* \"#utility.yul\":1580:1654   */\n  swap2\n  pop\n    /* \"#utility.yul\":1534:1664   */\n  pop\n    /* \"#utility.yul\":694:1671   */\n  swap3\n  swap6\n  pop\n  swap3\n  swap6\n  swap1\n  swap4\n  pop\n  jump\t// out\n    /* \"Day-06/D6P3.sol\":1937:2684  contract Triangle is Shape {... */\ntag_6:\n  dataSize(sub_0)\n  dup1\n  dataOffset(sub_0)\n  0x00\n  codecopy\n  0x00\n  return\nstop\n\nsub_0: assembly {\n        /* \"Day-06/D6P3.sol\":1937:2684  contract Triangle is Shape {... */\n      mstore(0x40, 0x80)\n      callvalue\n      dup1\n      iszero\n      tag_1\n      jumpi\n      0x00\n      dup1\n      revert\n    tag_1:\n      pop\n      jumpi(tag_2, lt(calldatasize, 0x04))\n      shr(0xe0, calldataload(0x00))\n      dup1\n      0x5001f3b5\n      gt\n      tag_10\n      jumpi\n      dup1\n      0x5001f3b5\n      eq\n      tag_6\n      jumpi\n      dup1\n      0x7ebeb19c\n      eq\n      tag_7\n      jumpi\n      dup1\n      0x85be3e62\n      eq\n      tag_8\n      jumpi\n      dup1\n      0xe7bd19d9\n      eq\n      tag_9\n      jumpi\n      jump(tag_2)\n    tag_10:\n      dup1\n      0x0ef26743\n      eq\n      tag_3\n      jumpi\n      dup1\n      0x1cbe93f2\n      eq\n      tag_4\n      jumpi\n      dup1\n      0x32e8be6b\n      eq\n      tag_5\n      jumpi\n    tag_2:\n      0x00\n      dup1\n      revert\n        /* \"Day-06/D6P3.sol\":2078:2099  uint256 public height */\n    tag_3:\n      tag_11\n      tag_12\n      jump\t// in\n    tag_11:\n      mload(0x40)\n      tag_13\n      swap2\n      swap1\n      tag_14\n      jump\t// in\n    tag_13:\n      mload(0x40)\n      dup1\n      swap2\n      sub\n      swap1\n      return\n        /* \"Day-06/D6P3.sol\":2025:2045  uint256 public side3 */\n    tag_4:\n      tag_15\n      tag_16\n      jump\t// in\n    tag_15:\n      mload(0x40)\n      tag_17\n      swap2\n      swap1\n      tag_14\n      jump\t// in\n    tag_17:\n      mload(0x40)\n      dup1\n      swap2\n      sub\n      swap1\n      return\n        /* \"Day-06/D6P3.sol\":1998:2018  uint256 public side2 */\n    tag_5:\n      tag_18\n      tag_19\n      jump\t// in\n    tag_18:\n      mload(0x40)\n      tag_20\n      swap2\n      swap1\n      tag_14\n      jump\t// in\n    tag_20:\n      mload(0x40)\n      dup1\n      swap2\n      sub\n      swap1\n      return\n        /* \"Day-06/D6P3.sol\":2052:2071  uint256 public base */\n    tag_6:\n      tag_21\n      tag_22\n      jump\t// in\n    tag_21:\n      mload(0x40)\n      tag_23\n      swap2\n      swap1\n      tag_14\n      jump\t// in\n    tag_23:\n      mload(0x40)\n      dup1\n      swap2\n      sub\n      swap1\n      return\n        /* \"Day-06/D6P3.sol\":2404:2514  function getPerimeter() public view override returns (uint256) {... */\n    tag_7:\n      tag_24\n      tag_25\n      jump\t// in\n    tag_24:\n      mload(0x40)\n      tag_26\n      swap2\n      swap1\n      tag_14\n      jump\t// in\n    tag_26:\n      mload(0x40)\n      dup1\n      swap2\n      sub\n      swap1\n      return\n        /* \"Day-06/D6P3.sol\":2578:2681  function getArea() public view override returns (uint256) {... */\n    tag_8:\n      tag_27\n      tag_28\n      jump\t// in\n    tag_27:\n      mload(0x40)\n      tag_29\n      swap2\n      swap1\n      tag_14\n      jump\t// in\n    tag_29:\n      mload(0x40)\n      dup1\n      swap2\n      sub\n      swap1\n      return\n        /* \"Day-06/D6P3.sol\":1971:1991  uint256 public side1 */\n    tag_9:\n      tag_30\n      tag_31\n      jump\t// in\n    tag_30:\n      mload(0x40)\n      tag_32\n      swap2\n      swap1\n      tag_14\n      jump\t// in\n    tag_32:\n      mload(0x40)\n      dup1\n      swap2\n      sub\n      swap1\n      return\n        /* \"Day-06/D6P3.sol\":2078:2099  uint256 public height */\n    tag_12:\n      sload(0x04)\n      dup2\n      jump\t// out\n        /* \"Day-06/D6P3.sol\":2025:2045  uint256 public side3 */\n    tag_16:\n      sload(0x02)\n      dup2\n      jump\t// out\n        /* \"Day-06/D6P3.sol\":1998:2018  uint256 public side2 */\n    tag_19:\n      sload(0x01)\n      dup2\n      jump\t// out\n        /* \"Day-06/D6P3.sol\":2052:2071  uint256 public base */\n    tag_22:\n      sload(0x03)\n      dup2\n      jump\t// out\n        /* \"Day-06/D6P3.sol\":2404:2514  function getPerimeter() public view override returns (uint256) {... */\n    tag_25:\n        /* \"Day-06/D6P3.sol\":2458:2465  uint256 */\n      0x00\n        /* \"Day-06/D6P3.sol\":2501:2506  side3 */\n      sload(0x02)\n        /* \"Day-06/D6P3.sol\":2493:2498  side2 */\n      sload(0x01)\n        /* \"Day-06/D6P3.sol\":2485:2490  side1 */\n      sload(0x00)\n        /* \"Day-06/D6P3.sol\":2485:2498  side1 + side2 */\n      tag_34\n      swap2\n      swap1\n      tag_35\n      jump\t// in\n    tag_34:\n        /* \"Day-06/D6P3.sol\":2485:2506  side1 + side2 + side3 */\n      tag_36\n      swap2\n      swap1\n      tag_35\n      jump\t// in\n    tag_36:\n        /* \"Day-06/D6P3.sol\":2478:2506  return side1 + side2 + side3 */\n      swap1\n      pop\n        /* \"Day-06/D6P3.sol\":2404:2514  function getPerimeter() public view override returns (uint256) {... */\n      swap1\n      jump\t// out\n        /* \"Day-06/D6P3.sol\":2578:2681  function getArea() public view override returns (uint256) {... */\n    tag_28:\n        /* \"Day-06/D6P3.sol\":2627:2634  uint256 */\n      0x00\n        /* \"Day-06/D6P3.sol\":2672:2673  2 */\n      0x02\n        /* \"Day-06/D6P3.sol\":2662:2668  height */\n      sload(0x04)\n        /* \"Day-06/D6P3.sol\":2655:2659  base */\n      sload(0x03)\n        /* \"Day-06/D6P3.sol\":2655:2668  base * height */\n      tag_38\n      swap2\n      swap1\n      tag_39\n      jump\t// in\n    tag_38:\n        /* \"Day-06/D6P3.sol\":2654:2673  (base * height) / 2 */\n      tag_40\n      swap2\n      swap1\n      tag_41\n      jump\t// in\n    tag_40:\n        /* \"Day-06/D6P3.sol\":2647:2673  return (base * height) / 2 */\n      swap1\n      pop\n        /* \"Day-06/D6P3.sol\":2578:2681  function getArea() public view override returns (uint256) {... */\n      swap1\n      jump\t// out\n        /* \"Day-06/D6P3.sol\":1971:1991  uint256 public side1 */\n    tag_31:\n      sload(0x00)\n      dup2\n      jump\t// out\n        /* \"#utility.yul\":7:84   */\n    tag_42:\n        /* \"#utility.yul\":44:51   */\n      0x00\n        /* \"#utility.yul\":73:78   */\n      dup2\n        /* \"#utility.yul\":62:78   */\n      swap1\n      pop\n        /* \"#utility.yul\":7:84   */\n      swap2\n      swap1\n      pop\n      jump\t// out\n        /* \"#utility.yul\":90:208   */\n    tag_43:\n        /* \"#utility.yul\":177:201   */\n      tag_49\n        /* \"#utility.yul\":195:200   */\n      dup2\n        /* \"#utility.yul\":177:201   */\n      tag_42\n      jump\t// in\n    tag_49:\n        /* \"#utility.yul\":172:175   */\n      dup3\n        /* \"#utility.yul\":165:202   */\n      mstore\n        /* \"#utility.yul\":90:208   */\n      pop\n      pop\n      jump\t// out\n        /* \"#utility.yul\":214:436   */\n    tag_14:\n        /* \"#utility.yul\":307:311   */\n      0x00\n        /* \"#utility.yul\":345:347   */\n      0x20\n        /* \"#utility.yul\":334:343   */\n      dup3\n        /* \"#utility.yul\":330:348   */\n      add\n        /* \"#utility.yul\":322:348   */\n      swap1\n      pop\n        /* \"#utility.yul\":358:429   */\n      tag_51\n        /* \"#utility.yul\":426:427   */\n      0x00\n        /* \"#utility.yul\":415:424   */\n      dup4\n        /* \"#utility.yul\":411:428   */\n      add\n        /* \"#utility.yul\":402:408   */\n      dup5\n        /* \"#utility.yul\":358:429   */\n      tag_43\n      jump\t// in\n    tag_51:\n        /* \"#utility.yul\":214:436   */\n      swap3\n      swap2\n      pop\n      pop\n      jump\t// out\n        /* \"#utility.yul\":442:622   */\n    tag_44:\n        /* \"#utility.yul\":490:567   */\n      0x4e487b7100000000000000000000000000000000000000000000000000000000\n        /* \"#utility.yul\":487:488   */\n      0x00\n        /* \"#utility.yul\":480:568   */\n      mstore\n        /* \"#utility.yul\":587:591   */\n      0x11\n        /* \"#utility.yul\":584:585   */\n      0x04\n        /* \"#utility.yul\":577:592   */\n      mstore\n        /* \"#utility.yul\":611:615   */\n      0x24\n        /* \"#utility.yul\":608:609   */\n      0x00\n        /* \"#utility.yul\":601:616   */\n      revert\n        /* \"#utility.yul\":628:819   */\n    tag_35:\n        /* \"#utility.yul\":668:671   */\n      0x00\n        /* \"#utility.yul\":687:707   */\n      tag_54\n        /* \"#utility.yul\":705:706   */\n      dup3\n        /* \"#utility.yul\":687:707   */\n      tag_42\n      jump\t// in\n    tag_54:\n        /* \"#utility.yul\":682:707   */\n      swap2\n      pop\n        /* \"#utility.yul\":721:741   */\n      tag_55\n        /* \"#utility.yul\":739:740   */\n      dup4\n        /* \"#utility.yul\":721:741   */\n      tag_42\n      jump\t// in\n    tag_55:\n        /* \"#utility.yul\":716:741   */\n      swap3\n      pop\n        /* \"#utility.yul\":764:765   */\n      dup3\n        /* \"#utility.yul\":761:762   */\n      dup3\n        /* \"#utility.yul\":757:766   */\n      add\n        /* \"#utility.yul\":750:766   */\n      swap1\n      pop\n        /* \"#utility.yul\":785:788   */\n      dup1\n        /* \"#utility.yul\":782:783   */\n      dup3\n        /* \"#utility.yul\":779:789   */\n      gt\n        /* \"#utility.yul\":776:812   */\n      iszero\n      tag_56\n      jumpi\n        /* \"#utility.yul\":792:810   */\n      tag_57\n      tag_44\n      jump\t// in\n    tag_57:\n        /* \"#utility.yul\":776:812   */\n    tag_56:\n        /* \"#utility.yul\":628:819   */\n      swap3\n      swap2\n      pop\n      pop\n      jump\t// out\n        /* \"#utility.yul\":825:1235   */\n    tag_39:\n        /* \"#utility.yul\":865:872   */\n      0x00\n        /* \"#utility.yul\":888:908   */\n      tag_59\n        /* \"#utility.yul\":906:907   */\n      dup3\n        /* \"#utility.yul\":888:908   */\n      tag_42\n      jump\t// in\n    tag_59:\n        /* \"#utility.yul\":883:908   */\n      swap2\n      pop\n        /* \"#utility.yul\":922:942   */\n      tag_60\n        /* \"#utility.yul\":940:941   */\n      dup4\n        /* \"#utility.yul\":922:942   */\n      tag_42\n      jump\t// in\n    tag_60:\n        /* \"#utility.yul\":917:942   */\n      swap3\n      pop\n        /* \"#utility.yul\":977:978   */\n      dup3\n        /* \"#utility.yul\":974:975   */\n      dup3\n        /* \"#utility.yul\":970:979   */\n      mul\n        /* \"#utility.yul\":999:1029   */\n      tag_61\n        /* \"#utility.yul\":1017:1028   */\n      dup2\n        /* \"#utility.yul\":999:1029   */\n      tag_42\n      jump\t// in\n    tag_61:\n        /* \"#utility.yul\":988:1029   */\n      swap2\n      pop\n        /* \"#utility.yul\":1178:1179   */\n      dup3\n        /* \"#utility.yul\":1169:1176   */\n      dup3\n        /* \"#utility.yul\":1165:1180   */\n      div\n        /* \"#utility.yul\":1162:1163   */\n      dup5\n        /* \"#utility.yul\":1159:1181   */\n      eq\n        /* \"#utility.yul\":1139:1140   */\n      dup4\n        /* \"#utility.yul\":1132:1141   */\n      iszero\n        /* \"#utility.yul\":1112:1195   */\n      or\n        /* \"#utility.yul\":1089:1228   */\n      tag_62\n      jumpi\n        /* \"#utility.yul\":1208:1226   */\n      tag_63\n      tag_44\n      jump\t// in\n    tag_63:\n        /* \"#utility.yul\":1089:1228   */\n    tag_62:\n        /* \"#utility.yul\":873:1235   */\n      pop\n        /* \"#utility.yul\":825:1235   */\n      swap3\n      swap2\n      pop\n      pop\n      jump\t// out\n        /* \"#utility.yul\":1241:1421   */\n    tag_45:\n        /* \"#utility.yul\":1289:1366   */\n      0x4e487b7100000000000000000000000000000000000000000000000000000000\n        /* \"#utility.yul\":1286:1287   */\n      0x00\n        /* \"#utility.yul\":1279:1367   */\n      mstore\n        /* \"#utility.yul\":1386:1390   */\n      0x12\n        /* \"#utility.yul\":1383:1384   */\n      0x04\n        /* \"#utility.yul\":1376:1391   */\n      mstore\n        /* \"#utility.yul\":1410:1414   */\n      0x24\n        /* \"#utility.yul\":1407:1408   */\n      0x00\n        /* \"#utility.yul\":1400:1415   */\n      revert\n        /* \"#utility.yul\":1427:1612   */\n    tag_41:\n        /* \"#utility.yul\":1467:1468   */\n      0x00\n        /* \"#utility.yul\":1484:1504   */\n      tag_66\n        /* \"#utility.yul\":1502:1503   */\n      dup3\n        /* \"#utility.yul\":1484:1504   */\n      tag_42\n      jump\t// in\n    tag_66:\n        /* \"#utility.yul\":1479:1504   */\n      swap2\n      pop\n        /* \"#utility.yul\":1518:1538   */\n      tag_67\n        /* \"#utility.yul\":1536:1537   */\n      dup4\n        /* \"#utility.yul\":1518:1538   */\n      tag_42\n      jump\t// in\n    tag_67:\n        /* \"#utility.yul\":1513:1538   */\n      swap3\n      pop\n        /* \"#utility.yul\":1557:1558   */\n      dup3\n        /* \"#utility.yul\":1547:1582   */\n      tag_68\n      jumpi\n        /* \"#utility.yul\":1562:1580   */\n      tag_69\n      tag_45\n      jump\t// in\n    tag_69:\n        /* \"#utility.yul\":1547:1582   */\n    tag_68:\n        /* \"#utility.yul\":1604:1605   */\n      dup3\n        /* \"#utility.yul\":1601:1602   */\n      dup3\n        /* \"#utility.yul\":1597:1606   */\n      div\n        /* \"#utility.yul\":1592:1606   */\n      swap1\n      pop\n        /* \"#utility.yul\":1427:1612   */\n      swap3\n      swap2\n      pop\n      pop\n      jump\t// out\n\n    auxdata: 0xa2646970667358221220b0dc01900994a33591600bcc1a21bdb142547f7d7fdffc92c27bfe08e2b1233064736f6c63430008120033\n}\n",
				"bytecode": {
					"linkReferences": {},
					"object": "608060405234801561001057600080fd5b5060405161044c38038061044c8339818101604052810190610032919061009a565b84600081905550836001819055508260028190555081600381905550806004819055505050505050610115565b600080fd5b6000819050919050565b61007781610064565b811461008257600080fd5b50565b6000815190506100948161006e565b92915050565b600080600080600060a086880312156100b6576100b561005f565b5b60006100c488828901610085565b95505060206100d588828901610085565b94505060406100e688828901610085565b93505060606100f788828901610085565b925050608061010888828901610085565b9150509295509295909350565b610328806101246000396000f3fe608060405234801561001057600080fd5b506004361061007d5760003560e01c80635001f3b51161005b5780635001f3b5146100dc5780637ebeb19c146100fa57806385be3e6214610118578063e7bd19d9146101365761007d565b80630ef26743146100825780631cbe93f2146100a057806332e8be6b146100be575b600080fd5b61008a610154565b60405161009791906101d2565b60405180910390f35b6100a861015a565b6040516100b591906101d2565b60405180910390f35b6100c6610160565b6040516100d391906101d2565b60405180910390f35b6100e4610166565b6040516100f191906101d2565b60405180910390f35b61010261016c565b60405161010f91906101d2565b60405180910390f35b610120610190565b60405161012d91906101d2565b60405180910390f35b61013e6101b3565b60405161014b91906101d2565b60405180910390f35b60045481565b60025481565b60015481565b60035481565b6000600254600154600054610181919061021c565b61018b919061021c565b905090565b600060026004546003546101a49190610250565b6101ae91906102c1565b905090565b60005481565b6000819050919050565b6101cc816101b9565b82525050565b60006020820190506101e760008301846101c3565b92915050565b7f4e487b7100000000000000000000000000000000000000000000000000000000600052601160045260246000fd5b6000610227826101b9565b9150610232836101b9565b925082820190508082111561024a576102496101ed565b5b92915050565b600061025b826101b9565b9150610266836101b9565b9250828202610274816101b9565b9150828204841483151761028b5761028a6101ed565b5b5092915050565b7f4e487b7100000000000000000000000000000000000000000000000000000000600052601260045260246000fd5b60006102cc826101b9565b91506102d7836101b9565b9250826102e7576102e6610292565b5b82820490509291505056fea2646970667358221220b0dc01900994a33591600bcc1a21bdb142547f7d7fdffc92c27bfe08e2b1233064736f6c63430008120033",
					"opcodes": "PUSH1 0x80 PUSH1 0x40 MSTORE CALLVALUE DUP1 ISZERO PUSH2 0x10 JUMPI PUSH1 0x0 DUP1 REVERT JUMPDEST POP PUSH1 0x40 MLOAD PUSH2 0x44C CODESIZE SUB DUP1 PUSH2 0x44C DUP4 CODECOPY DUP2 DUP2 ADD PUSH1 0x40 MSTORE DUP2 ADD SWAP1 PUSH2 0x32 SWAP2 SWAP1 PUSH2 0x9A JUMP JUMPDEST DUP5 PUSH1 0x0 DUP2 SWAP1 SSTORE POP DUP4 PUSH1 0x1 DUP2 SWAP1 SSTORE POP DUP3 PUSH1 0x2 DUP2 SWAP1 SSTORE POP DUP2 PUSH1 0x3 DUP2 SWAP1 SSTORE POP DUP1 PUSH1 0x4 DUP2 SWAP1 SSTORE POP POP POP POP POP POP PUSH2 0x115 JUMP JUMPDEST PUSH1 0x0 DUP1 REVERT JUMPDEST PUSH1 0x0 DUP2 SWAP1 POP SWAP2 SWAP1 POP JUMP JUMPDEST PUSH2 0x77 DUP2 PUSH2 0x64 JUMP JUMPDEST DUP2 EQ PUSH2 0x82 JUMPI PUSH1 0x0 DUP1 REVERT JUMPDEST POP JUMP JUMPDEST PUSH1 0x0 DUP2 MLOAD SWAP1 POP PUSH2 0x94 DUP2 PUSH2 0x6E JUMP JUMPDEST SWAP3 SWAP2 POP POP JUMP JUMPDEST PUSH1 0x0 DUP1 PUSH1 0x0 DUP1 PUSH1 0x0 PUSH1 0xA0 DUP7 DUP9 SUB SLT ISZERO PUSH2 0xB6 JUMPI PUSH2 0xB5 PUSH2 0x5F JUMP JUMPDEST JUMPDEST PUSH1 0x0 PUSH2 0xC4 DUP9 DUP3 DUP10 ADD PUSH2 0x85 JUMP JUMPDEST SWAP6 POP POP PUSH1 0x20 PUSH2 0xD5 DUP9 DUP3 DUP10 ADD PUSH2 0x85 JUMP JUMPDEST SWAP5 POP POP PUSH1 0x40 PUSH2 0xE6 DUP9 DUP3 DUP10 ADD PUSH2 0x85 JUMP JUMPDEST SWAP4 POP POP PUSH1 0x60 PUSH2 0xF7 DUP9 DUP3 DUP10 ADD PUSH2 0x85 JUMP JUMPDEST SWAP3 POP POP PUSH1 0x80 PUSH2 0x108 DUP9 DUP3 DUP10 ADD PUSH2 0x85 JUMP JUMPDEST SWAP2 POP POP SWAP3 SWAP6 POP SWAP3 SWAP6 SWAP1 SWAP4 POP JUMP JUMPDEST PUSH2 0x328 DUP1 PUSH2 0x124 PUSH1 0x0 CODECOPY PUSH1 0x0 RETURN INVALID PUSH1 0x80 PUSH1 0x40 MSTORE CALLVALUE DUP1 ISZERO PUSH2 0x10 JUMPI PUSH1 0x0 DUP1 REVERT JUMPDEST POP PUSH1 0x4 CALLDATASIZE LT PUSH2 0x7D JUMPI PUSH1 0x0 CALLDATALOAD PUSH1 0xE0 SHR DUP1 PUSH4 0x5001F3B5 GT PUSH2 0x5B JUMPI DUP1 PUSH4 0x5001F3B5 EQ PUSH2 0xDC JUMPI DUP1 PUSH4 0x7EBEB19C EQ PUSH2 0xFA JUMPI DUP1 PUSH4 0x85BE3E62 EQ PUSH2 0x118 JUMPI DUP1 PUSH4 0xE7BD19D9 EQ PUSH2 0x136 JUMPI PUSH2 0x7D JUMP JUMPDEST DUP1 PUSH4 0xEF26743 EQ PUSH2 0x82 JUMPI DUP1 PUSH4 0x1CBE93F2 EQ PUSH2 0xA0 JUMPI DUP1 PUSH4 0x32E8BE6B EQ PUSH2 0xBE JUMPI JUMPDEST PUSH1 0x0 DUP1 REVERT JUMPDEST PUSH2 0x8A PUSH2 0x154 JUMP JUMPDEST PUSH1 0x40 MLOAD PUSH2 0x97 SWAP2 SWAP1 PUSH2 0x1D2 JUMP JUMPDEST PUSH1 0x40 MLOAD DUP1 SWAP2 SUB SWAP1 RETURN JUMPDEST PUSH2 0xA8 PUSH2 0x15A JUMP JUMPDEST PUSH1 0x40 MLOAD PUSH2 0xB5 SWAP2 SWAP1 PUSH2 0x1D2 JUMP JUMPDEST PUSH1 0x40 MLOAD DUP1 SWAP2 SUB SWAP1 RETURN JUMPDEST PUSH2 0xC6 PUSH2 0x160 JUMP JUMPDEST PUSH1 0x40 MLOAD PUSH2 0xD3 SWAP2 SWAP1 PUSH2 0x1D2 JUMP JUMPDEST PUSH1 0x40 MLOAD DUP1 SWAP2 SUB SWAP1 RETURN JUMPDEST PUSH2 0xE4 PUSH2 0x166 JUMP JUMPDEST PUSH1 0x40 MLOAD PUSH2 0xF1 SWAP2 SWAP1 PUSH2 0x1D2 JUMP JUMPDEST PUSH1 0x40 MLOAD DUP1 SWAP2 SUB SWAP1 RETURN JUMPDEST PUSH2 0x102 PUSH2 0x16C JUMP JUMPDEST PUSH1 0x40 MLOAD PUSH2 0x10F SWAP2 SWAP1 PUSH2 0x1D2 JUMP JUMPDEST PUSH1 0x40 MLOAD DUP1 SWAP2 SUB SWAP1 RETURN JUMPDEST PUSH2 0x120 PUSH2 0x190 JUMP JUMPDEST PUSH1 0x40 MLOAD PUSH2 0x12D SWAP2 SWAP1 PUSH2 0x1D2 JUMP JUMPDEST PUSH1 0x40 MLOAD DUP1 SWAP2 SUB SWAP1 RETURN JUMPDEST PUSH2 0x13E PUSH2 0x1B3 JUMP JUMPDEST PUSH1 0x40 MLOAD PUSH2 0x14B SWAP2 SWAP1 PUSH2 0x1D2 JUMP JUMPDEST PUSH1 0x40 MLOAD DUP1 SWAP2 SUB SWAP1 RETURN JUMPDEST PUSH1 0x4 SLOAD DUP2 JUMP JUMPDEST PUSH1 0x2 SLOAD DUP2 JUMP JUMPDEST PUSH1 0x1 SLOAD DUP2 JUMP JUMPDEST PUSH1 0x3 SLOAD DUP2 JUMP JUMPDEST PUSH1 0x0 PUSH1 0x2 SLOAD PUSH1 0x1 SLOAD PUSH1 0x0 SLOAD PUSH2 0x181 SWAP2 SWAP1 PUSH2 0x21C JUMP JUMPDEST PUSH2 0x18B SWAP2 SWAP1 PUSH2 0x21C JUMP JUMPDEST SWAP1 POP SWAP1 JUMP JUMPDEST PUSH1 0x0 PUSH1 0x2 PUSH1 0x4 SLOAD PUSH1 0x3 SLOAD PUSH2 0x1A4 SWAP2 SWAP1 PUSH2 0x250 JUMP JUMPDEST PUSH2 0x1AE SWAP2 SWAP1 PUSH2 0x2C1 JUMP JUMPDEST SWAP1 POP SWAP1 JUMP JUMPDEST PUSH1 0x0 SLOAD DUP2 JUMP JUMPDEST PUSH1 0x0 DUP2 SWAP1 POP SWAP2 SWAP1 POP JUMP JUMPDEST PUSH2 0x1CC DUP2 PUSH2 0x1B9 JUMP JUMPDEST DUP3 MSTORE POP POP JUMP JUMPDEST PUSH1 0x0 PUSH1 0x20 DUP3 ADD SWAP1 POP PUSH2 0x1E7 PUSH1 0x0 DUP4 ADD DUP5 PUSH2 0x1C3 JUMP JUMPDEST SWAP3 SWAP2 POP POP JUMP JUMPDEST PUSH32 0x4E487B7100000000000000000000000000000000000000000000000000000000 PUSH1 0x0 MSTORE PUSH1 0x11 PUSH1 0x4 MSTORE PUSH1 0x24 PUSH1 0x0 REVERT JUMPDEST PUSH1 0x0 PUSH2 0x227 DUP3 PUSH2 0x1B9 JUMP JUMPDEST SWAP2 POP PUSH2 0x232 DUP4 PUSH2 0x1B9 JUMP JUMPDEST SWAP3 POP DUP3 DUP3 ADD SWAP1 POP DUP1 DUP3 GT ISZERO PUSH2 0x24A JUMPI PUSH2 0x249 PUSH2 0x1ED JUMP JUMPDEST JUMPDEST SWAP3 SWAP2 POP POP JUMP JUMPDEST PUSH1 0x0 PUSH2 0x25B DUP3 PUSH2 0x1B9 JUMP JUMPDEST SWAP2 POP PUSH2 0x266 DUP4 PUSH2 0x1B9 JUMP JUMPDEST SWAP3 POP DUP3 DUP3 MUL PUSH2 0x274 DUP2 PUSH2 0x1B9 JUMP JUMPDEST SWAP2 POP DUP3 DUP3 DIV DUP5 EQ DUP4 ISZERO OR PUSH2 0x28B JUMPI PUSH2 0x28A PUSH2 0x1ED JUMP JUMPDEST JUMPDEST POP SWAP3 SWAP2 POP POP JUMP JUMPDEST PUSH32 0x4E487B7100000000000000000000000000000000000000000000000000000000 PUSH1 0x0 MSTORE PUSH1 0x12 PUSH1 0x4 MSTORE PUSH1 0x24 PUSH1 0x0 REVERT JUMPDEST PUSH1 0x0 PUSH2 0x2CC DUP3 PUSH2 0x1B9 JUMP JUMPDEST SWAP2 POP PUSH2 0x2D7 DUP4 PUSH2 0x1B9 JUMP JUMPDEST SWAP3 POP DUP3 PUSH2 0x2E7 JUMPI PUSH2 0x2E6 PUSH2 0x292 JUMP JUMPDEST JUMPDEST DUP3 DUP3 DIV SWAP1 POP SWAP3 SWAP2 POP POP JUMP INVALID LOG2 PUSH5 0x6970667358 0x22 SLT KECCAK256 0xB0 0xDC ADD SWAP1 MULMOD SWAP5 LOG3 CALLDATALOAD SWAP2 PUSH1 0xB 0xCC BYTE 0x21 0xBD 0xB1 TIMESTAMP SLOAD PUSH32 0x7D7FDFFC92C27BFE08E2B1233064736F6C634300081200330000000000000000 "
				},
				"gasEstimates": {
					"creation": {
						"codeDepositCost": "161600",
						"executionCost": "infinite",
						"totalCost": "infinite"
					},
					"external": {
						"base()": "2429",
						"getArea()": "infinite",
						"getPerimeter()": "infinite",
						"height()": "2430",
						"side1()": "2495",
						"side2()": "2474",
						"side3()": "2452"
					}
				},
				"methodIdentifiers": {
					"base()": "5001f3b5",
					"getArea()": "85be3e62",
					"getPerimeter()": "7ebeb19c",
					"height()": "0ef26743",
					"side1()": "e7bd19d9",
					"side2()": "32e8be6b",
					"side3()": "1cbe93f2"
				}
			},
			"storageLayout": {
				"storage": [
					{
						"astId": 123,
						"contract": "Day-06/D6P3.sol:Triangle",
						"label": "side1",
						"offset": 0,
						"slot": "0",
						"type": "t_uint256"
					},
					{
						"astId": 125,
						"contract": "Day-06/D6P3.sol:Triangle",
						"label": "side2",
						"offset": 0,
						"slot": "1",
						"type": "t_uint256"
					},
					{
						"astId": 127,
						"contract": "Day-06/D6P3.sol:Triangle",
						"label": "side3",
						"offset": 0,
						"slot": "2",
						"type": "t_uint256"
					},
					{
						"astId": 129,
						"contract": "Day-06/D6P3.sol:Triangle",
						"label": "base",
						"offset": 0,
						"slot": "3",
						"type": "t_uint256"
					},
					{
						"astId": 131,
						"contract": "Day-06/D6P3.sol:Triangle",
						"label": "height",
						"offset": 0,
						"slot": "4",
						"type": "t_uint256"
					}
				],
				"types": {
					"t_uint256": {
						"encoding": "inplace",
						"label": "uint256",
						"numberOfBytes": "32"
					}
				}
			},
			"userdoc": {
				"kind": "user",
				"methods": {},
				"version": 1
			}
		}
	}
}