{
	"Day-01/D1P3.sol": {
		"TemperatureConverter": {
			"abi": [
				{
					"inputs": [
						{
							"internalType": "int256",
							"name": "celsius",
							"type": "int256"
						}
					],
					"name": "celsiusToFahrenheit",
					"outputs": [
						{
							"internalType": "int256",
							"name": "",
							"type": "int256"
						}
					],
					"stateMutability": "view",
					"type": "function"
				},
				{
					"inputs": [],
					"name": "s",
					"outputs": [
						{
							"internalType": "int256",
							"name": "",
							"type": "int256"
						}
					],
					"stateMutability": "view",
					"type": "function"
				}
			],
			"devdoc": {
				"kind": "dev",
				"methods": {},
				"version": 1
			},
			"evm": {
				"assembly": "    /* \"Day-01/D1P3.sol\":99:532  contract TemperatureConverter {... */\n  mstore(0x40, 0x80)\n    /* \"Day-01/D1P3.sol\":154:158  1e18 */\n  0x0de0b6b3a7640000\n    /* \"Day-01/D1P3.sol\":136:158  int256 public s = 1e18 */\n  0x00\n  sstore\n    /* \"Day-01/D1P3.sol\":99:532  contract TemperatureConverter {... */\n  callvalue\n  dup1\n  iszero\n  tag_1\n  jumpi\n  0x00\n  dup1\n  revert\ntag_1:\n  pop\n  dataSize(sub_0)\n  dup1\n  dataOffset(sub_0)\n  0x00\n  codecopy\n  0x00\n  return\nstop\n\nsub_0: assembly {\n        /* \"Day-01/D1P3.sol\":99:532  contract TemperatureConverter {... */\n      mstore(0x40, 0x80)\n      callvalue\n      dup1\n      iszero\n      tag_1\n      jumpi\n      0x00\n      dup1\n      revert\n    tag_1:\n      pop\n      jumpi(tag_2, lt(calldatasize, 0x04))\n      shr(0xe0, calldataload(0x00))\n      dup1\n      0x27793ad7\n      eq\n      tag_3\n      jumpi\n      dup1\n      0x86b714e2\n      eq\n      tag_4\n      jumpi\n    tag_2:\n      0x00\n      dup1\n      revert\n        /* \"Day-01/D1P3.sol\":236:529  function celsiusToFahrenheit(int256 celsius) public view returns (int256) {... */\n    tag_3:\n      tag_5\n      0x04\n      dup1\n      calldatasize\n      sub\n      dup2\n      add\n      swap1\n      tag_6\n      swap2\n      swap1\n      tag_7\n      jump\t// in\n    tag_6:\n      tag_8\n      jump\t// in\n    tag_5:\n      mload(0x40)\n      tag_9\n      swap2\n      swap1\n      tag_10\n      jump\t// in\n    tag_9:\n      mload(0x40)\n      dup1\n      swap2\n      sub\n      swap1\n      return\n        /* \"Day-01/D1P3.sol\":136:158  int256 public s = 1e18 */\n    tag_4:\n      tag_11\n      tag_12\n      jump\t// in\n    tag_11:\n      mload(0x40)\n      tag_13\n      swap2\n      swap1\n      tag_10\n      jump\t// in\n    tag_13:\n      mload(0x40)\n      dup1\n      swap2\n      sub\n      swap1\n      return\n        /* \"Day-01/D1P3.sol\":236:529  function celsiusToFahrenheit(int256 celsius) public view returns (int256) {... */\n    tag_8:\n        /* \"Day-01/D1P3.sol\":302:308  int256 */\n      0x00\n        /* \"Day-01/D1P3.sol\":391:408  int256 fahrenheit */\n      dup1\n        /* \"Day-01/D1P3.sol\":443:444  s */\n      sload(0x00)\n        /* \"Day-01/D1P3.sol\":438:440  32 */\n      0x20\n        /* \"Day-01/D1P3.sol\":438:444  32 * s */\n      tag_15\n      swap2\n      swap1\n      tag_16\n      jump\t// in\n    tag_15:\n        /* \"Day-01/D1P3.sol\":432:433  5 */\n      0x05\n        /* \"Day-01/D1P3.sol\":427:428  s */\n      sload(0x00)\n        /* \"Day-01/D1P3.sol\":423:424  9 */\n      0x09\n        /* \"Day-01/D1P3.sol\":413:420  celsius */\n      dup7\n        /* \"Day-01/D1P3.sol\":413:424  celsius * 9 */\n      tag_17\n      swap2\n      swap1\n      tag_16\n      jump\t// in\n    tag_17:\n        /* \"Day-01/D1P3.sol\":413:428  celsius * 9 * s */\n      tag_18\n      swap2\n      swap1\n      tag_16\n      jump\t// in\n    tag_18:\n        /* \"Day-01/D1P3.sol\":412:433  (celsius * 9 * s) / 5 */\n      tag_19\n      swap2\n      swap1\n      tag_20\n      jump\t// in\n    tag_19:\n        /* \"Day-01/D1P3.sol\":411:445  ((celsius * 9 * s) / 5) + (32 * s) */\n      tag_21\n      swap2\n      swap1\n      tag_22\n      jump\t// in\n    tag_21:\n        /* \"Day-01/D1P3.sol\":391:445  int256 fahrenheit = ((celsius * 9 * s) / 5) + (32 * s) */\n      swap1\n      pop\n        /* \"Day-01/D1P3.sol\":478:488  fahrenheit */\n      dup1\n        /* \"Day-01/D1P3.sol\":471:488  return fahrenheit */\n      swap2\n      pop\n      pop\n        /* \"Day-01/D1P3.sol\":236:529  function celsiusToFahrenheit(int256 celsius) public view returns (int256) {... */\n      swap2\n      swap1\n      pop\n      jump\t// out\n        /* \"Day-01/D1P3.sol\":136:158  int256 public s = 1e18 */\n    tag_12:\n      sload(0x00)\n      dup2\n      jump\t// out\n        /* \"#utility.yul\":88:205   */\n    tag_24:\n        /* \"#utility.yul\":197:198   */\n      0x00\n        /* \"#utility.yul\":194:195   */\n      dup1\n        /* \"#utility.yul\":187:199   */\n      revert\n        /* \"#utility.yul\":334:410   */\n    tag_26:\n        /* \"#utility.yul\":370:377   */\n      0x00\n        /* \"#utility.yul\":399:404   */\n      dup2\n        /* \"#utility.yul\":388:404   */\n      swap1\n      pop\n        /* \"#utility.yul\":334:410   */\n      swap2\n      swap1\n      pop\n      jump\t// out\n        /* \"#utility.yul\":416:536   */\n    tag_27:\n        /* \"#utility.yul\":488:511   */\n      tag_38\n        /* \"#utility.yul\":505:510   */\n      dup2\n        /* \"#utility.yul\":488:511   */\n      tag_26\n      jump\t// in\n    tag_38:\n        /* \"#utility.yul\":481:486   */\n      dup2\n        /* \"#utility.yul\":478:512   */\n      eq\n        /* \"#utility.yul\":468:530   */\n      tag_39\n      jumpi\n        /* \"#utility.yul\":526:527   */\n      0x00\n        /* \"#utility.yul\":523:524   */\n      dup1\n        /* \"#utility.yul\":516:528   */\n      revert\n        /* \"#utility.yul\":468:530   */\n    tag_39:\n        /* \"#utility.yul\":416:536   */\n      pop\n      jump\t// out\n        /* \"#utility.yul\":542:679   */\n    tag_28:\n        /* \"#utility.yul\":587:592   */\n      0x00\n        /* \"#utility.yul\":625:631   */\n      dup2\n        /* \"#utility.yul\":612:632   */\n      calldataload\n        /* \"#utility.yul\":603:632   */\n      swap1\n      pop\n        /* \"#utility.yul\":641:673   */\n      tag_41\n        /* \"#utility.yul\":667:672   */\n      dup2\n        /* \"#utility.yul\":641:673   */\n      tag_27\n      jump\t// in\n    tag_41:\n        /* \"#utility.yul\":542:679   */\n      swap3\n      swap2\n      pop\n      pop\n      jump\t// out\n        /* \"#utility.yul\":685:1012   */\n    tag_7:\n        /* \"#utility.yul\":743:749   */\n      0x00\n        /* \"#utility.yul\":792:794   */\n      0x20\n        /* \"#utility.yul\":780:789   */\n      dup3\n        /* \"#utility.yul\":771:778   */\n      dup5\n        /* \"#utility.yul\":767:790   */\n      sub\n        /* \"#utility.yul\":763:795   */\n      slt\n        /* \"#utility.yul\":760:879   */\n      iszero\n      tag_43\n      jumpi\n        /* \"#utility.yul\":798:877   */\n      tag_44\n      tag_24\n      jump\t// in\n    tag_44:\n        /* \"#utility.yul\":760:879   */\n    tag_43:\n        /* \"#utility.yul\":918:919   */\n      0x00\n        /* \"#utility.yul\":943:995   */\n      tag_45\n        /* \"#utility.yul\":987:994   */\n      dup5\n        /* \"#utility.yul\":978:984   */\n      dup3\n        /* \"#utility.yul\":967:976   */\n      dup6\n        /* \"#utility.yul\":963:985   */\n      add\n        /* \"#utility.yul\":943:995   */\n      tag_28\n      jump\t// in\n    tag_45:\n        /* \"#utility.yul\":933:995   */\n      swap2\n      pop\n        /* \"#utility.yul\":889:1005   */\n      pop\n        /* \"#utility.yul\":685:1012   */\n      swap3\n      swap2\n      pop\n      pop\n      jump\t// out\n        /* \"#utility.yul\":1018:1133   */\n    tag_29:\n        /* \"#utility.yul\":1103:1126   */\n      tag_47\n        /* \"#utility.yul\":1120:1125   */\n      dup2\n        /* \"#utility.yul\":1103:1126   */\n      tag_26\n      jump\t// in\n    tag_47:\n        /* \"#utility.yul\":1098:1101   */\n      dup3\n        /* \"#utility.yul\":1091:1127   */\n      mstore\n        /* \"#utility.yul\":1018:1133   */\n      pop\n      pop\n      jump\t// out\n        /* \"#utility.yul\":1139:1357   */\n    tag_10:\n        /* \"#utility.yul\":1230:1234   */\n      0x00\n        /* \"#utility.yul\":1268:1270   */\n      0x20\n        /* \"#utility.yul\":1257:1266   */\n      dup3\n        /* \"#utility.yul\":1253:1271   */\n      add\n        /* \"#utility.yul\":1245:1271   */\n      swap1\n      pop\n        /* \"#utility.yul\":1281:1350   */\n      tag_49\n        /* \"#utility.yul\":1347:1348   */\n      0x00\n        /* \"#utility.yul\":1336:1345   */\n      dup4\n        /* \"#utility.yul\":1332:1349   */\n      add\n        /* \"#utility.yul\":1323:1329   */\n      dup5\n        /* \"#utility.yul\":1281:1350   */\n      tag_29\n      jump\t// in\n    tag_49:\n        /* \"#utility.yul\":1139:1357   */\n      swap3\n      swap2\n      pop\n      pop\n      jump\t// out\n        /* \"#utility.yul\":1363:1543   */\n    tag_30:\n        /* \"#utility.yul\":1411:1488   */\n      0x4e487b7100000000000000000000000000000000000000000000000000000000\n        /* \"#utility.yul\":1408:1409   */\n      0x00\n        /* \"#utility.yul\":1401:1489   */\n      mstore\n        /* \"#utility.yul\":1508:1512   */\n      0x11\n        /* \"#utility.yul\":1505:1506   */\n      0x04\n        /* \"#utility.yul\":1498:1513   */\n      mstore\n        /* \"#utility.yul\":1532:1536   */\n      0x24\n        /* \"#utility.yul\":1529:1530   */\n      0x00\n        /* \"#utility.yul\":1522:1537   */\n      revert\n        /* \"#utility.yul\":1549:2105   */\n    tag_16:\n        /* \"#utility.yul\":1588:1595   */\n      0x00\n        /* \"#utility.yul\":1611:1630   */\n      tag_52\n        /* \"#utility.yul\":1628:1629   */\n      dup3\n        /* \"#utility.yul\":1611:1630   */\n      tag_26\n      jump\t// in\n    tag_52:\n        /* \"#utility.yul\":1606:1630   */\n      swap2\n      pop\n        /* \"#utility.yul\":1644:1663   */\n      tag_53\n        /* \"#utility.yul\":1661:1662   */\n      dup4\n        /* \"#utility.yul\":1644:1663   */\n      tag_26\n      jump\t// in\n    tag_53:\n        /* \"#utility.yul\":1639:1663   */\n      swap3\n      pop\n        /* \"#utility.yul\":1698:1699   */\n      dup3\n        /* \"#utility.yul\":1695:1696   */\n      dup3\n        /* \"#utility.yul\":1691:1700   */\n      mul\n        /* \"#utility.yul\":1720:1749   */\n      tag_54\n        /* \"#utility.yul\":1737:1748   */\n      dup2\n        /* \"#utility.yul\":1720:1749   */\n      tag_26\n      jump\t// in\n    tag_54:\n        /* \"#utility.yul\":1709:1749   */\n      swap2\n      pop\n        /* \"#utility.yul\":1807:1873   */\n      0x8000000000000000000000000000000000000000000000000000000000000000\n        /* \"#utility.yul\":1804:1805   */\n      dup5\n        /* \"#utility.yul\":1801:1874   */\n      eq\n        /* \"#utility.yul\":1797:1798   */\n      0x00\n        /* \"#utility.yul\":1794:1795   */\n      dup5\n        /* \"#utility.yul\":1790:1799   */\n      slt\n        /* \"#utility.yul\":1786:1875   */\n      and\n        /* \"#utility.yul\":1783:1898   */\n      iszero\n      tag_55\n      jumpi\n        /* \"#utility.yul\":1878:1896   */\n      tag_56\n      tag_30\n      jump\t// in\n    tag_56:\n        /* \"#utility.yul\":1783:1898   */\n    tag_55:\n        /* \"#utility.yul\":2048:2049   */\n      dup3\n        /* \"#utility.yul\":2039:2046   */\n      dup3\n        /* \"#utility.yul\":2034:2050   */\n      sdiv\n        /* \"#utility.yul\":2031:2032   */\n      dup5\n        /* \"#utility.yul\":2028:2051   */\n      eq\n        /* \"#utility.yul\":2008:2009   */\n      dup4\n        /* \"#utility.yul\":2001:2010   */\n      iszero\n        /* \"#utility.yul\":1981:2065   */\n      or\n        /* \"#utility.yul\":1958:2098   */\n      tag_57\n      jumpi\n        /* \"#utility.yul\":2078:2096   */\n      tag_58\n      tag_30\n      jump\t// in\n    tag_58:\n        /* \"#utility.yul\":1958:2098   */\n    tag_57:\n        /* \"#utility.yul\":1596:2105   */\n      pop\n        /* \"#utility.yul\":1549:2105   */\n      swap3\n      swap2\n      pop\n      pop\n      jump\t// out\n        /* \"#utility.yul\":2111:2291   */\n    tag_31:\n        /* \"#utility.yul\":2159:2236   */\n      0x4e487b7100000000000000000000000000000000000000000000000000000000\n        /* \"#utility.yul\":2156:2157   */\n      0x00\n        /* \"#utility.yul\":2149:2237   */\n      mstore\n        /* \"#utility.yul\":2256:2260   */\n      0x12\n        /* \"#utility.yul\":2253:2254   */\n      0x04\n        /* \"#utility.yul\":2246:2261   */\n      mstore\n        /* \"#utility.yul\":2280:2284   */\n      0x24\n        /* \"#utility.yul\":2277:2278   */\n      0x00\n        /* \"#utility.yul\":2270:2285   */\n      revert\n        /* \"#utility.yul\":2297:2682   */\n    tag_20:\n        /* \"#utility.yul\":2336:2337   */\n      0x00\n        /* \"#utility.yul\":2353:2372   */\n      tag_61\n        /* \"#utility.yul\":2370:2371   */\n      dup3\n        /* \"#utility.yul\":2353:2372   */\n      tag_26\n      jump\t// in\n    tag_61:\n        /* \"#utility.yul\":2348:2372   */\n      swap2\n      pop\n        /* \"#utility.yul\":2386:2405   */\n      tag_62\n        /* \"#utility.yul\":2403:2404   */\n      dup4\n        /* \"#utility.yul\":2386:2405   */\n      tag_26\n      jump\t// in\n    tag_62:\n        /* \"#utility.yul\":2381:2405   */\n      swap3\n      pop\n        /* \"#utility.yul\":2424:2425   */\n      dup3\n        /* \"#utility.yul\":2414:2449   */\n      tag_63\n      jumpi\n        /* \"#utility.yul\":2429:2447   */\n      tag_64\n      tag_31\n      jump\t// in\n    tag_64:\n        /* \"#utility.yul\":2414:2449   */\n    tag_63:\n        /* \"#utility.yul\":2615:2616   */\n      0x01\n        /* \"#utility.yul\":2612:2613   */\n      0x00\n        /* \"#utility.yul\":2608:2617   */\n      sub\n        /* \"#utility.yul\":2605:2606   */\n      dup4\n        /* \"#utility.yul\":2602:2618   */\n      eq\n        /* \"#utility.yul\":2521:2587   */\n      0x8000000000000000000000000000000000000000000000000000000000000000\n        /* \"#utility.yul\":2518:2519   */\n      dup4\n        /* \"#utility.yul\":2515:2588   */\n      eq\n        /* \"#utility.yul\":2498:2628   */\n      and\n        /* \"#utility.yul\":2495:2651   */\n      iszero\n      tag_65\n      jumpi\n        /* \"#utility.yul\":2631:2649   */\n      tag_66\n      tag_30\n      jump\t// in\n    tag_66:\n        /* \"#utility.yul\":2495:2651   */\n    tag_65:\n        /* \"#utility.yul\":2674:2675   */\n      dup3\n        /* \"#utility.yul\":2671:2672   */\n      dup3\n        /* \"#utility.yul\":2666:2676   */\n      sdiv\n        /* \"#utility.yul\":2661:2676   */\n      swap1\n      pop\n        /* \"#utility.yul\":2297:2682   */\n      swap3\n      swap2\n      pop\n      pop\n      jump\t// out\n        /* \"#utility.yul\":2688:3063   */\n    tag_22:\n        /* \"#utility.yul\":2727:2730   */\n      0x00\n        /* \"#utility.yul\":2746:2765   */\n      tag_68\n        /* \"#utility.yul\":2763:2764   */\n      dup3\n        /* \"#utility.yul\":2746:2765   */\n      tag_26\n      jump\t// in\n    tag_68:\n        /* \"#utility.yul\":2741:2765   */\n      swap2\n      pop\n        /* \"#utility.yul\":2779:2798   */\n      tag_69\n        /* \"#utility.yul\":2796:2797   */\n      dup4\n        /* \"#utility.yul\":2779:2798   */\n      tag_26\n      jump\t// in\n    tag_69:\n        /* \"#utility.yul\":2774:2798   */\n      swap3\n      pop\n        /* \"#utility.yul\":2821:2822   */\n      dup3\n        /* \"#utility.yul\":2818:2819   */\n      dup3\n        /* \"#utility.yul\":2814:2823   */\n      add\n        /* \"#utility.yul\":2807:2823   */\n      swap1\n      pop\n        /* \"#utility.yul\":3019:3020   */\n      dup3\n        /* \"#utility.yul\":3014:3017   */\n      dup2\n        /* \"#utility.yul\":3010:3021   */\n      slt\n        /* \"#utility.yul\":3003:3022   */\n      iszero\n        /* \"#utility.yul\":2999:3000   */\n      0x00\n        /* \"#utility.yul\":2996:2997   */\n      dup4\n        /* \"#utility.yul\":2992:3001   */\n      slt\n        /* \"#utility.yul\":2988:3023   */\n      and\n        /* \"#utility.yul\":2971:2972   */\n      dup4\n        /* \"#utility.yul\":2966:2969   */\n      dup3\n        /* \"#utility.yul\":2962:2973   */\n      slt\n        /* \"#utility.yul\":2957:2958   */\n      0x00\n        /* \"#utility.yul\":2954:2955   */\n      dup5\n        /* \"#utility.yul\":2950:2959   */\n      slt\n        /* \"#utility.yul\":2943:2960   */\n      iszero\n        /* \"#utility.yul\":2939:2974   */\n      and\n        /* \"#utility.yul\":2923:3033   */\n      or\n        /* \"#utility.yul\":2920:3056   */\n      iszero\n      tag_70\n      jumpi\n        /* \"#utility.yul\":3036:3054   */\n      tag_71\n      tag_30\n      jump\t// in\n    tag_71:\n        /* \"#utility.yul\":2920:3056   */\n    tag_70:\n        /* \"#utility.yul\":2688:3063   */\n      swap3\n      swap2\n      pop\n      pop\n      jump\t// out\n\n    auxdata: 0xa264697066735822122005f2403aa71bef94c9b8ee81ab617d75fb31b8143849c5854ed9a99b0764d53364736f6c63430008140033\n}\n",
				"bytecode": {
					"linkReferences": {},
					"object": "6080604052670de0b6b3a76400005f5534801561001a575f80fd5b5061030e806100285f395ff3fe608060405234801561000f575f80fd5b5060043610610034575f3560e01c806327793ad71461003857806386b714e214610068575b5f80fd5b610052600480360381019061004d919061010c565b610086565b60405161005f9190610146565b60405180910390f35b6100706100d0565b60405161007d9190610146565b60405180910390f35b5f805f546020610096919061018c565b60055f546009866100a7919061018c565b6100b1919061018c565b6100bb919061022f565b6100c59190610297565b905080915050919050565b5f5481565b5f80fd5b5f819050919050565b6100eb816100d9565b81146100f5575f80fd5b50565b5f81359050610106816100e2565b92915050565b5f60208284031215610121576101206100d5565b5b5f61012e848285016100f8565b91505092915050565b610140816100d9565b82525050565b5f6020820190506101595f830184610137565b92915050565b7f4e487b71000000000000000000000000000000000000000000000000000000005f52601160045260245ffd5b5f610196826100d9565b91506101a1836100d9565b92508282026101af816100d9565b91507f800000000000000000000000000000000000000000000000000000000000000084145f841216156101e6576101e561015f565b5b82820584148315176101fb576101fa61015f565b5b5092915050565b7f4e487b71000000000000000000000000000000000000000000000000000000005f52601260045260245ffd5b5f610239826100d9565b9150610244836100d9565b92508261025457610253610202565b5b60015f0383147f80000000000000000000000000000000000000000000000000000000000000008314161561028c5761028b61015f565b5b828205905092915050565b5f6102a1826100d9565b91506102ac836100d9565b92508282019050828112155f8312168382125f8412151617156102d2576102d161015f565b5b9291505056fea264697066735822122005f2403aa71bef94c9b8ee81ab617d75fb31b8143849c5854ed9a99b0764d53364736f6c63430008140033",
					"opcodes": "PUSH1 0x80 PUSH1 0x40 MSTORE PUSH8 0xDE0B6B3A7640000 PUSH0 SSTORE CALLVALUE DUP1 ISZERO PUSH2 0x1A JUMPI PUSH0 DUP1 REVERT JUMPDEST POP PUSH2 0x30E DUP1 PUSH2 0x28 PUSH0 CODECOPY PUSH0 RETURN INVALID PUSH1 0x80 PUSH1 0x40 MSTORE CALLVALUE DUP1 ISZERO PUSH2 0xF JUMPI PUSH0 DUP1 REVERT JUMPDEST POP PUSH1 0x4 CALLDATASIZE LT PUSH2 0x34 JUMPI PUSH0 CALLDATALOAD PUSH1 0xE0 SHR DUP1 PUSH4 0x27793AD7 EQ PUSH2 0x38 JUMPI DUP1 PUSH4 0x86B714E2 EQ PUSH2 0x68 JUMPI JUMPDEST PUSH0 DUP1 REVERT JUMPDEST PUSH2 0x52 PUSH1 0x4 DUP1 CALLDATASIZE SUB DUP2 ADD SWAP1 PUSH2 0x4D SWAP2 SWAP1 PUSH2 0x10C JUMP JUMPDEST PUSH2 0x86 JUMP JUMPDEST PUSH1 0x40 MLOAD PUSH2 0x5F SWAP2 SWAP1 PUSH2 0x146 JUMP JUMPDEST PUSH1 0x40 MLOAD DUP1 SWAP2 SUB SWAP1 RETURN JUMPDEST PUSH2 0x70 PUSH2 0xD0 JUMP JUMPDEST PUSH1 0x40 MLOAD PUSH2 0x7D SWAP2 SWAP1 PUSH2 0x146 JUMP JUMPDEST PUSH1 0x40 MLOAD DUP1 SWAP2 SUB SWAP1 RETURN JUMPDEST PUSH0 DUP1 PUSH0 SLOAD PUSH1 0x20 PUSH2 0x96 SWAP2 SWAP1 PUSH2 0x18C JUMP JUMPDEST PUSH1 0x5 PUSH0 SLOAD PUSH1 0x9 DUP7 PUSH2 0xA7 SWAP2 SWAP1 PUSH2 0x18C JUMP JUMPDEST PUSH2 0xB1 SWAP2 SWAP1 PUSH2 0x18C JUMP JUMPDEST PUSH2 0xBB SWAP2 SWAP1 PUSH2 0x22F JUMP JUMPDEST PUSH2 0xC5 SWAP2 SWAP1 PUSH2 0x297 JUMP JUMPDEST SWAP1 POP DUP1 SWAP2 POP POP SWAP2 SWAP1 POP JUMP JUMPDEST PUSH0 SLOAD DUP2 JUMP JUMPDEST PUSH0 DUP1 REVERT JUMPDEST PUSH0 DUP2 SWAP1 POP SWAP2 SWAP1 POP JUMP JUMPDEST PUSH2 0xEB DUP2 PUSH2 0xD9 JUMP JUMPDEST DUP2 EQ PUSH2 0xF5 JUMPI PUSH0 DUP1 REVERT JUMPDEST POP JUMP JUMPDEST PUSH0 DUP2 CALLDATALOAD SWAP1 POP PUSH2 0x106 DUP2 PUSH2 0xE2 JUMP JUMPDEST SWAP3 SWAP2 POP POP JUMP JUMPDEST PUSH0 PUSH1 0x20 DUP3 DUP5 SUB SLT ISZERO PUSH2 0x121 JUMPI PUSH2 0x120 PUSH2 0xD5 JUMP JUMPDEST JUMPDEST PUSH0 PUSH2 0x12E DUP5 DUP3 DUP6 ADD PUSH2 0xF8 JUMP JUMPDEST SWAP2 POP POP SWAP3 SWAP2 POP POP JUMP JUMPDEST PUSH2 0x140 DUP2 PUSH2 0xD9 JUMP JUMPDEST DUP3 MSTORE POP POP JUMP JUMPDEST PUSH0 PUSH1 0x20 DUP3 ADD SWAP1 POP PUSH2 0x159 PUSH0 DUP4 ADD DUP5 PUSH2 0x137 JUMP JUMPDEST SWAP3 SWAP2 POP POP JUMP JUMPDEST PUSH32 0x4E487B7100000000000000000000000000000000000000000000000000000000 PUSH0 MSTORE PUSH1 0x11 PUSH1 0x4 MSTORE PUSH1 0x24 PUSH0 REVERT JUMPDEST PUSH0 PUSH2 0x196 DUP3 PUSH2 0xD9 JUMP JUMPDEST SWAP2 POP PUSH2 0x1A1 DUP4 PUSH2 0xD9 JUMP JUMPDEST SWAP3 POP DUP3 DUP3 MUL PUSH2 0x1AF DUP2 PUSH2 0xD9 JUMP JUMPDEST SWAP2 POP PUSH32 0x8000000000000000000000000000000000000000000000000000000000000000 DUP5 EQ PUSH0 DUP5 SLT AND ISZERO PUSH2 0x1E6 JUMPI PUSH2 0x1E5 PUSH2 0x15F JUMP JUMPDEST JUMPDEST DUP3 DUP3 SDIV DUP5 EQ DUP4 ISZERO OR PUSH2 0x1FB JUMPI PUSH2 0x1FA PUSH2 0x15F JUMP JUMPDEST JUMPDEST POP SWAP3 SWAP2 POP POP JUMP JUMPDEST PUSH32 0x4E487B7100000000000000000000000000000000000000000000000000000000 PUSH0 MSTORE PUSH1 0x12 PUSH1 0x4 MSTORE PUSH1 0x24 PUSH0 REVERT JUMPDEST PUSH0 PUSH2 0x239 DUP3 PUSH2 0xD9 JUMP JUMPDEST SWAP2 POP PUSH2 0x244 DUP4 PUSH2 0xD9 JUMP JUMPDEST SWAP3 POP DUP3 PUSH2 0x254 JUMPI PUSH2 0x253 PUSH2 0x202 JUMP JUMPDEST JUMPDEST PUSH1 0x1 PUSH0 SUB DUP4 EQ PUSH32 0x8000000000000000000000000000000000000000000000000000000000000000 DUP4 EQ AND ISZERO PUSH2 0x28C JUMPI PUSH2 0x28B PUSH2 0x15F JUMP JUMPDEST JUMPDEST DUP3 DUP3 SDIV SWAP1 POP SWAP3 SWAP2 POP POP JUMP JUMPDEST PUSH0 PUSH2 0x2A1 DUP3 PUSH2 0xD9 JUMP JUMPDEST SWAP2 POP PUSH2 0x2AC DUP4 PUSH2 0xD9 JUMP JUMPDEST SWAP3 POP DUP3 DUP3 ADD SWAP1 POP DUP3 DUP2 SLT ISZERO PUSH0 DUP4 SLT AND DUP4 DUP3 SLT PUSH0 DUP5 SLT ISZERO AND OR ISZERO PUSH2 0x2D2 JUMPI PUSH2 0x2D1 PUSH2 0x15F JUMP JUMPDEST JUMPDEST SWAP3 SWAP2 POP POP JUMP INVALID LOG2 PUSH5 0x6970667358 0x22 SLT KECCAK256 SDIV CALLCODE BLOCKHASH GASPRICE 0xA7 SHL 0xEF SWAP5 0xC9 0xB8 0xEE DUP2 0xAB PUSH2 0x7D75 0xFB BALANCE 0xB8 EQ CODESIZE 0x49 0xC5 DUP6 0x4E 0xD9 0xA9 SWAP12 SMOD PUSH5 0xD53364736F PUSH13 0x63430008140033000000000000 "
				},
				"gasEstimates": {
					"creation": {
						"codeDepositCost": "156400",
						"executionCost": "22305",
						"totalCost": "178705"
					},
					"external": {
						"celsiusToFahrenheit(int256)": "infinite",
						"s()": "2424"
					}
				},
				"methodIdentifiers": {
					"celsiusToFahrenheit(int256)": "27793ad7",
					"s()": "86b714e2"
				}
			},
			"storageLayout": {
				"storage": [
					{
						"astId": 4,
						"contract": "Day-01/D1P3.sol:TemperatureConverter",
						"label": "s",
						"offset": 0,
						"slot": "0",
						"type": "t_int256"
					}
				],
				"types": {
					"t_int256": {
						"encoding": "inplace",
						"label": "int256",
						"numberOfBytes": "32"
					}
				}
			},
			"userdoc": {
				"kind": "user",
				"methods": {},
				"version": 1
			}
		}
	}
}