{
	"Day-01/D1P5.sol": {
		"SwapValues": {
			"abi": [
				{
					"inputs": [],
					"name": "a",
					"outputs": [
						{
							"internalType": "int256",
							"name": "",
							"type": "int256"
						}
					],
					"stateMutability": "view",
					"type": "function"
				},
				{
					"inputs": [],
					"name": "b",
					"outputs": [
						{
							"internalType": "int256",
							"name": "",
							"type": "int256"
						}
					],
					"stateMutability": "view",
					"type": "function"
				},
				{
					"inputs": [
						{
							"internalType": "int256",
							"name": "_a",
							"type": "int256"
						},
						{
							"internalType": "int256",
							"name": "_b",
							"type": "int256"
						}
					],
					"name": "setValues",
					"outputs": [],
					"stateMutability": "nonpayable",
					"type": "function"
				},
				{
					"inputs": [],
					"name": "swapUsingThirdVariable",
					"outputs": [],
					"stateMutability": "nonpayable",
					"type": "function"
				},
				{
					"inputs": [],
					"name": "swapWithoutThirdVariable",
					"outputs": [],
					"stateMutability": "nonpayable",
					"type": "function"
				}
			],
			"devdoc": {
				"kind": "dev",
				"methods": {},
				"version": 1
			},
			"evm": {
				"assembly": "    /* \"Day-01/D1P5.sol\":74:925  contract SwapValues {... */\n  mstore(0x40, 0x80)\n  callvalue\n  dup1\n  iszero\n  tag_1\n  jumpi\n  0x00\n  dup1\n  revert\ntag_1:\n  pop\n  dataSize(sub_0)\n  dup1\n  dataOffset(sub_0)\n  0x00\n  codecopy\n  0x00\n  return\nstop\n\nsub_0: assembly {\n        /* \"Day-01/D1P5.sol\":74:925  contract SwapValues {... */\n      mstore(0x40, 0x80)\n      callvalue\n      dup1\n      iszero\n      tag_1\n      jumpi\n      0x00\n      dup1\n      revert\n    tag_1:\n      pop\n      jumpi(tag_2, lt(calldatasize, 0x04))\n      shr(0xe0, calldataload(0x00))\n      dup1\n      0x0dbe671f\n      eq\n      tag_3\n      jumpi\n      dup1\n      0x2534080f\n      eq\n      tag_4\n      jumpi\n      dup1\n      0x37d08d42\n      eq\n      tag_5\n      jumpi\n      dup1\n      0x4df7e3d0\n      eq\n      tag_6\n      jumpi\n      dup1\n      0xc515f924\n      eq\n      tag_7\n      jumpi\n    tag_2:\n      0x00\n      dup1\n      revert\n        /* \"Day-01/D1P5.sol\":107:122  int256 public a */\n    tag_3:\n      tag_8\n      tag_9\n      jump\t// in\n    tag_8:\n      mload(0x40)\n      tag_10\n      swap2\n      swap1\n      tag_11\n      jump\t// in\n    tag_10:\n      mload(0x40)\n      dup1\n      swap2\n      sub\n      swap1\n      return\n        /* \"Day-01/D1P5.sol\":681:922  function swapWithoutThirdVariable() public {... */\n    tag_4:\n      tag_12\n      tag_13\n      jump\t// in\n    tag_12:\n      stop\n        /* \"Day-01/D1P5.sol\":204:294  function setValues(int256 _a, int256 _b) public {... */\n    tag_5:\n      tag_14\n      0x04\n      dup1\n      calldatasize\n      sub\n      dup2\n      add\n      swap1\n      tag_15\n      swap2\n      swap1\n      tag_16\n      jump\t// in\n    tag_15:\n      tag_17\n      jump\t// in\n    tag_14:\n      stop\n        /* \"Day-01/D1P5.sol\":129:144  int256 public b */\n    tag_6:\n      tag_18\n      tag_19\n      jump\t// in\n    tag_18:\n      mload(0x40)\n      tag_20\n      swap2\n      swap1\n      tag_11\n      jump\t// in\n    tag_20:\n      mload(0x40)\n      dup1\n      swap2\n      sub\n      swap1\n      return\n        /* \"Day-01/D1P5.sol\":372:595  function swapUsingThirdVariable() public {... */\n    tag_7:\n      tag_21\n      tag_22\n      jump\t// in\n    tag_21:\n      stop\n        /* \"Day-01/D1P5.sol\":107:122  int256 public a */\n    tag_9:\n      sload(0x00)\n      dup2\n      jump\t// out\n        /* \"Day-01/D1P5.sol\":681:922  function swapWithoutThirdVariable() public {... */\n    tag_13:\n        /* \"Day-01/D1P5.sol\":743:744  b */\n      sload(0x01)\n        /* \"Day-01/D1P5.sol\":739:740  a */\n      sload(0x00)\n        /* \"Day-01/D1P5.sol\":739:744  a + b */\n      tag_24\n      swap2\n      swap1\n      tag_25\n      jump\t// in\n    tag_24:\n        /* \"Day-01/D1P5.sol\":735:736  a */\n      0x00\n        /* \"Day-01/D1P5.sol\":735:744  a = a + b */\n      dup2\n      swap1\n      sstore\n      pop\n        /* \"Day-01/D1P5.sol\":803:804  b */\n      sload(0x01)\n        /* \"Day-01/D1P5.sol\":799:800  a */\n      sload(0x00)\n        /* \"Day-01/D1P5.sol\":799:804  a - b */\n      tag_26\n      swap2\n      swap1\n      tag_27\n      jump\t// in\n    tag_26:\n        /* \"Day-01/D1P5.sol\":795:796  b */\n      0x01\n        /* \"Day-01/D1P5.sol\":795:804  b = a - b */\n      dup2\n      swap1\n      sstore\n      pop\n        /* \"Day-01/D1P5.sol\":868:869  b */\n      sload(0x01)\n        /* \"Day-01/D1P5.sol\":864:865  a */\n      sload(0x00)\n        /* \"Day-01/D1P5.sol\":864:869  a - b */\n      tag_28\n      swap2\n      swap1\n      tag_27\n      jump\t// in\n    tag_28:\n        /* \"Day-01/D1P5.sol\":860:861  a */\n      0x00\n        /* \"Day-01/D1P5.sol\":860:869  a = a - b */\n      dup2\n      swap1\n      sstore\n      pop\n        /* \"Day-01/D1P5.sol\":681:922  function swapWithoutThirdVariable() public {... */\n      jump\t// out\n        /* \"Day-01/D1P5.sol\":204:294  function setValues(int256 _a, int256 _b) public {... */\n    tag_17:\n        /* \"Day-01/D1P5.sol\":267:269  _a */\n      dup2\n        /* \"Day-01/D1P5.sol\":263:264  a */\n      0x00\n        /* \"Day-01/D1P5.sol\":263:269  a = _a */\n      dup2\n      swap1\n      sstore\n      pop\n        /* \"Day-01/D1P5.sol\":284:286  _b */\n      dup1\n        /* \"Day-01/D1P5.sol\":280:281  b */\n      0x01\n        /* \"Day-01/D1P5.sol\":280:286  b = _b */\n      dup2\n      swap1\n      sstore\n      pop\n        /* \"Day-01/D1P5.sol\":204:294  function setValues(int256 _a, int256 _b) public {... */\n      pop\n      pop\n      jump\t// out\n        /* \"Day-01/D1P5.sol\":129:144  int256 public b */\n    tag_19:\n      sload(0x01)\n      dup2\n      jump\t// out\n        /* \"Day-01/D1P5.sol\":372:595  function swapUsingThirdVariable() public {... */\n    tag_22:\n        /* \"Day-01/D1P5.sol\":424:435  int256 temp */\n      0x00\n        /* \"Day-01/D1P5.sol\":438:439  a */\n      dup1\n      sload\n        /* \"Day-01/D1P5.sol\":424:439  int256 temp = a */\n      swap1\n      pop\n        /* \"Day-01/D1P5.sol\":482:483  b */\n      sload(0x01)\n        /* \"Day-01/D1P5.sol\":478:479  a */\n      0x00\n        /* \"Day-01/D1P5.sol\":478:483  a = b */\n      dup2\n      swap1\n      sstore\n      pop\n        /* \"Day-01/D1P5.sol\":534:538  temp */\n      dup1\n        /* \"Day-01/D1P5.sol\":530:531  b */\n      0x01\n        /* \"Day-01/D1P5.sol\":530:538  b = temp */\n      dup2\n      swap1\n      sstore\n      pop\n        /* \"Day-01/D1P5.sol\":413:595  {... */\n      pop\n        /* \"Day-01/D1P5.sol\":372:595  function swapUsingThirdVariable() public {... */\n      jump\t// out\n        /* \"#utility.yul\":7:83   */\n    tag_31:\n        /* \"#utility.yul\":43:50   */\n      0x00\n        /* \"#utility.yul\":72:77   */\n      dup2\n        /* \"#utility.yul\":61:77   */\n      swap1\n      pop\n        /* \"#utility.yul\":7:83   */\n      swap2\n      swap1\n      pop\n      jump\t// out\n        /* \"#utility.yul\":89:204   */\n    tag_32:\n        /* \"#utility.yul\":174:197   */\n      tag_42\n        /* \"#utility.yul\":191:196   */\n      dup2\n        /* \"#utility.yul\":174:197   */\n      tag_31\n      jump\t// in\n    tag_42:\n        /* \"#utility.yul\":169:172   */\n      dup3\n        /* \"#utility.yul\":162:198   */\n      mstore\n        /* \"#utility.yul\":89:204   */\n      pop\n      pop\n      jump\t// out\n        /* \"#utility.yul\":210:428   */\n    tag_11:\n        /* \"#utility.yul\":301:305   */\n      0x00\n        /* \"#utility.yul\":339:341   */\n      0x20\n        /* \"#utility.yul\":328:337   */\n      dup3\n        /* \"#utility.yul\":324:342   */\n      add\n        /* \"#utility.yul\":316:342   */\n      swap1\n      pop\n        /* \"#utility.yul\":352:421   */\n      tag_44\n        /* \"#utility.yul\":418:419   */\n      0x00\n        /* \"#utility.yul\":407:416   */\n      dup4\n        /* \"#utility.yul\":403:420   */\n      add\n        /* \"#utility.yul\":394:400   */\n      dup5\n        /* \"#utility.yul\":352:421   */\n      tag_32\n      jump\t// in\n    tag_44:\n        /* \"#utility.yul\":210:428   */\n      swap3\n      swap2\n      pop\n      pop\n      jump\t// out\n        /* \"#utility.yul\":515:632   */\n    tag_34:\n        /* \"#utility.yul\":624:625   */\n      0x00\n        /* \"#utility.yul\":621:622   */\n      dup1\n        /* \"#utility.yul\":614:626   */\n      revert\n        /* \"#utility.yul\":761:881   */\n    tag_36:\n        /* \"#utility.yul\":833:856   */\n      tag_49\n        /* \"#utility.yul\":850:855   */\n      dup2\n        /* \"#utility.yul\":833:856   */\n      tag_31\n      jump\t// in\n    tag_49:\n        /* \"#utility.yul\":826:831   */\n      dup2\n        /* \"#utility.yul\":823:857   */\n      eq\n        /* \"#utility.yul\":813:875   */\n      tag_50\n      jumpi\n        /* \"#utility.yul\":871:872   */\n      0x00\n        /* \"#utility.yul\":868:869   */\n      dup1\n        /* \"#utility.yul\":861:873   */\n      revert\n        /* \"#utility.yul\":813:875   */\n    tag_50:\n        /* \"#utility.yul\":761:881   */\n      pop\n      jump\t// out\n        /* \"#utility.yul\":887:1024   */\n    tag_37:\n        /* \"#utility.yul\":932:937   */\n      0x00\n        /* \"#utility.yul\":970:976   */\n      dup2\n        /* \"#utility.yul\":957:977   */\n      calldataload\n        /* \"#utility.yul\":948:977   */\n      swap1\n      pop\n        /* \"#utility.yul\":986:1018   */\n      tag_52\n        /* \"#utility.yul\":1012:1017   */\n      dup2\n        /* \"#utility.yul\":986:1018   */\n      tag_36\n      jump\t// in\n    tag_52:\n        /* \"#utility.yul\":887:1024   */\n      swap3\n      swap2\n      pop\n      pop\n      jump\t// out\n        /* \"#utility.yul\":1030:1500   */\n    tag_16:\n        /* \"#utility.yul\":1096:1102   */\n      0x00\n        /* \"#utility.yul\":1104:1110   */\n      dup1\n        /* \"#utility.yul\":1153:1155   */\n      0x40\n        /* \"#utility.yul\":1141:1150   */\n      dup4\n        /* \"#utility.yul\":1132:1139   */\n      dup6\n        /* \"#utility.yul\":1128:1151   */\n      sub\n        /* \"#utility.yul\":1124:1156   */\n      slt\n        /* \"#utility.yul\":1121:1240   */\n      iszero\n      tag_54\n      jumpi\n        /* \"#utility.yul\":1159:1238   */\n      tag_55\n      tag_34\n      jump\t// in\n    tag_55:\n        /* \"#utility.yul\":1121:1240   */\n    tag_54:\n        /* \"#utility.yul\":1279:1280   */\n      0x00\n        /* \"#utility.yul\":1304:1356   */\n      tag_56\n        /* \"#utility.yul\":1348:1355   */\n      dup6\n        /* \"#utility.yul\":1339:1345   */\n      dup3\n        /* \"#utility.yul\":1328:1337   */\n      dup7\n        /* \"#utility.yul\":1324:1346   */\n      add\n        /* \"#utility.yul\":1304:1356   */\n      tag_37\n      jump\t// in\n    tag_56:\n        /* \"#utility.yul\":1294:1356   */\n      swap3\n      pop\n        /* \"#utility.yul\":1250:1366   */\n      pop\n        /* \"#utility.yul\":1405:1407   */\n      0x20\n        /* \"#utility.yul\":1431:1483   */\n      tag_57\n        /* \"#utility.yul\":1475:1482   */\n      dup6\n        /* \"#utility.yul\":1466:1472   */\n      dup3\n        /* \"#utility.yul\":1455:1464   */\n      dup7\n        /* \"#utility.yul\":1451:1473   */\n      add\n        /* \"#utility.yul\":1431:1483   */\n      tag_37\n      jump\t// in\n    tag_57:\n        /* \"#utility.yul\":1421:1483   */\n      swap2\n      pop\n        /* \"#utility.yul\":1376:1493   */\n      pop\n        /* \"#utility.yul\":1030:1500   */\n      swap3\n      pop\n      swap3\n      swap1\n      pop\n      jump\t// out\n        /* \"#utility.yul\":1506:1686   */\n    tag_38:\n        /* \"#utility.yul\":1554:1631   */\n      0x4e487b7100000000000000000000000000000000000000000000000000000000\n        /* \"#utility.yul\":1551:1552   */\n      0x00\n        /* \"#utility.yul\":1544:1632   */\n      mstore\n        /* \"#utility.yul\":1651:1655   */\n      0x11\n        /* \"#utility.yul\":1648:1649   */\n      0x04\n        /* \"#utility.yul\":1641:1656   */\n      mstore\n        /* \"#utility.yul\":1675:1679   */\n      0x24\n        /* \"#utility.yul\":1672:1673   */\n      0x00\n        /* \"#utility.yul\":1665:1680   */\n      revert\n        /* \"#utility.yul\":1692:2067   */\n    tag_25:\n        /* \"#utility.yul\":1731:1734   */\n      0x00\n        /* \"#utility.yul\":1750:1769   */\n      tag_60\n        /* \"#utility.yul\":1767:1768   */\n      dup3\n        /* \"#utility.yul\":1750:1769   */\n      tag_31\n      jump\t// in\n    tag_60:\n        /* \"#utility.yul\":1745:1769   */\n      swap2\n      pop\n        /* \"#utility.yul\":1783:1802   */\n      tag_61\n        /* \"#utility.yul\":1800:1801   */\n      dup4\n        /* \"#utility.yul\":1783:1802   */\n      tag_31\n      jump\t// in\n    tag_61:\n        /* \"#utility.yul\":1778:1802   */\n      swap3\n      pop\n        /* \"#utility.yul\":1825:1826   */\n      dup3\n        /* \"#utility.yul\":1822:1823   */\n      dup3\n        /* \"#utility.yul\":1818:1827   */\n      add\n        /* \"#utility.yul\":1811:1827   */\n      swap1\n      pop\n        /* \"#utility.yul\":2023:2024   */\n      dup3\n        /* \"#utility.yul\":2018:2021   */\n      dup2\n        /* \"#utility.yul\":2014:2025   */\n      slt\n        /* \"#utility.yul\":2007:2026   */\n      iszero\n        /* \"#utility.yul\":2003:2004   */\n      0x00\n        /* \"#utility.yul\":2000:2001   */\n      dup4\n        /* \"#utility.yul\":1996:2005   */\n      slt\n        /* \"#utility.yul\":1992:2027   */\n      and\n        /* \"#utility.yul\":1975:1976   */\n      dup4\n        /* \"#utility.yul\":1970:1973   */\n      dup3\n        /* \"#utility.yul\":1966:1977   */\n      slt\n        /* \"#utility.yul\":1961:1962   */\n      0x00\n        /* \"#utility.yul\":1958:1959   */\n      dup5\n        /* \"#utility.yul\":1954:1963   */\n      slt\n        /* \"#utility.yul\":1947:1964   */\n      iszero\n        /* \"#utility.yul\":1943:1978   */\n      and\n        /* \"#utility.yul\":1927:2037   */\n      or\n        /* \"#utility.yul\":1924:2060   */\n      iszero\n      tag_62\n      jumpi\n        /* \"#utility.yul\":2040:2058   */\n      tag_63\n      tag_38\n      jump\t// in\n    tag_63:\n        /* \"#utility.yul\":1924:2060   */\n    tag_62:\n        /* \"#utility.yul\":1692:2067   */\n      swap3\n      swap2\n      pop\n      pop\n      jump\t// out\n        /* \"#utility.yul\":2073:2445   */\n    tag_27:\n        /* \"#utility.yul\":2112:2116   */\n      0x00\n        /* \"#utility.yul\":2132:2151   */\n      tag_65\n        /* \"#utility.yul\":2149:2150   */\n      dup3\n        /* \"#utility.yul\":2132:2151   */\n      tag_31\n      jump\t// in\n    tag_65:\n        /* \"#utility.yul\":2127:2151   */\n      swap2\n      pop\n        /* \"#utility.yul\":2165:2184   */\n      tag_66\n        /* \"#utility.yul\":2182:2183   */\n      dup4\n        /* \"#utility.yul\":2165:2184   */\n      tag_31\n      jump\t// in\n    tag_66:\n        /* \"#utility.yul\":2160:2184   */\n      swap3\n      pop\n        /* \"#utility.yul\":2208:2209   */\n      dup3\n        /* \"#utility.yul\":2205:2206   */\n      dup3\n        /* \"#utility.yul\":2201:2210   */\n      sub\n        /* \"#utility.yul\":2193:2210   */\n      swap1\n      pop\n        /* \"#utility.yul\":2402:2403   */\n      dup2\n        /* \"#utility.yul\":2396:2400   */\n      dup2\n        /* \"#utility.yul\":2392:2404   */\n      slt\n        /* \"#utility.yul\":2388:2389   */\n      0x00\n        /* \"#utility.yul\":2385:2386   */\n      dup5\n        /* \"#utility.yul\":2381:2390   */\n      slt\n        /* \"#utility.yul\":2377:2405   */\n      and\n        /* \"#utility.yul\":2360:2361   */\n      dup3\n        /* \"#utility.yul\":2354:2358   */\n      dup3\n        /* \"#utility.yul\":2350:2362   */\n      sgt\n        /* \"#utility.yul\":2345:2346   */\n      0x00\n        /* \"#utility.yul\":2342:2343   */\n      dup6\n        /* \"#utility.yul\":2338:2347   */\n      slt\n        /* \"#utility.yul\":2331:2348   */\n      iszero\n        /* \"#utility.yul\":2327:2363   */\n      and\n        /* \"#utility.yul\":2311:2415   */\n      or\n        /* \"#utility.yul\":2308:2438   */\n      iszero\n      tag_67\n      jumpi\n        /* \"#utility.yul\":2418:2436   */\n      tag_68\n      tag_38\n      jump\t// in\n    tag_68:\n        /* \"#utility.yul\":2308:2438   */\n    tag_67:\n        /* \"#utility.yul\":2073:2445   */\n      swap3\n      swap2\n      pop\n      pop\n      jump\t// out\n\n    auxdata: 0xa2646970667358221220d348d9213150b7663c41485013c9536eb698a4929f1b2ad698a8ce227c02ab6f64736f6c63430008140033\n}\n",
				"bytecode": {
					"linkReferences": {},
					"object": "608060405234801561000f575f80fd5b506102b88061001d5f395ff3fe608060405234801561000f575f80fd5b5060043610610055575f3560e01c80630dbe671f146100595780632534080f1461007757806337d08d42146100815780634df7e3d01461009d578063c515f924146100bb575b5f80fd5b6100616100c5565b60405161006e919061014f565b60405180910390f35b61007f6100ca565b005b61009b60048036038101906100969190610196565b610109565b005b6100a561011a565b6040516100b2919061014f565b60405180910390f35b6100c3610120565b005b5f5481565b6001545f546100d99190610201565b5f819055506001545f546100ed9190610242565b6001819055506001545f546101029190610242565b5f81905550565b815f81905550806001819055505050565b60015481565b5f805490506001545f819055508060018190555050565b5f819050919050565b61014981610137565b82525050565b5f6020820190506101625f830184610140565b92915050565b5f80fd5b61017581610137565b811461017f575f80fd5b50565b5f813590506101908161016c565b92915050565b5f80604083850312156101ac576101ab610168565b5b5f6101b985828601610182565b92505060206101ca85828601610182565b9150509250929050565b7f4e487b71000000000000000000000000000000000000000000000000000000005f52601160045260245ffd5b5f61020b82610137565b915061021683610137565b92508282019050828112155f8312168382125f84121516171561023c5761023b6101d4565b5b92915050565b5f61024c82610137565b915061025783610137565b925082820390508181125f8412168282135f85121516171561027c5761027b6101d4565b5b9291505056fea2646970667358221220d348d9213150b7663c41485013c9536eb698a4929f1b2ad698a8ce227c02ab6f64736f6c63430008140033",
					"opcodes": "PUSH1 0x80 PUSH1 0x40 MSTORE CALLVALUE DUP1 ISZERO PUSH2 0xF JUMPI PUSH0 DUP1 REVERT JUMPDEST POP PUSH2 0x2B8 DUP1 PUSH2 0x1D PUSH0 CODECOPY PUSH0 RETURN INVALID PUSH1 0x80 PUSH1 0x40 MSTORE CALLVALUE DUP1 ISZERO PUSH2 0xF JUMPI PUSH0 DUP1 REVERT JUMPDEST POP PUSH1 0x4 CALLDATASIZE LT PUSH2 0x55 JUMPI PUSH0 CALLDATALOAD PUSH1 0xE0 SHR DUP1 PUSH4 0xDBE671F EQ PUSH2 0x59 JUMPI DUP1 PUSH4 0x2534080F EQ PUSH2 0x77 JUMPI DUP1 PUSH4 0x37D08D42 EQ PUSH2 0x81 JUMPI DUP1 PUSH4 0x4DF7E3D0 EQ PUSH2 0x9D JUMPI DUP1 PUSH4 0xC515F924 EQ PUSH2 0xBB JUMPI JUMPDEST PUSH0 DUP1 REVERT JUMPDEST PUSH2 0x61 PUSH2 0xC5 JUMP JUMPDEST PUSH1 0x40 MLOAD PUSH2 0x6E SWAP2 SWAP1 PUSH2 0x14F JUMP JUMPDEST PUSH1 0x40 MLOAD DUP1 SWAP2 SUB SWAP1 RETURN JUMPDEST PUSH2 0x7F PUSH2 0xCA JUMP JUMPDEST STOP JUMPDEST PUSH2 0x9B PUSH1 0x4 DUP1 CALLDATASIZE SUB DUP2 ADD SWAP1 PUSH2 0x96 SWAP2 SWAP1 PUSH2 0x196 JUMP JUMPDEST PUSH2 0x109 JUMP JUMPDEST STOP JUMPDEST PUSH2 0xA5 PUSH2 0x11A JUMP JUMPDEST PUSH1 0x40 MLOAD PUSH2 0xB2 SWAP2 SWAP1 PUSH2 0x14F JUMP JUMPDEST PUSH1 0x40 MLOAD DUP1 SWAP2 SUB SWAP1 RETURN JUMPDEST PUSH2 0xC3 PUSH2 0x120 JUMP JUMPDEST STOP JUMPDEST PUSH0 SLOAD DUP2 JUMP JUMPDEST PUSH1 0x1 SLOAD PUSH0 SLOAD PUSH2 0xD9 SWAP2 SWAP1 PUSH2 0x201 JUMP JUMPDEST PUSH0 DUP2 SWAP1 SSTORE POP PUSH1 0x1 SLOAD PUSH0 SLOAD PUSH2 0xED SWAP2 SWAP1 PUSH2 0x242 JUMP JUMPDEST PUSH1 0x1 DUP2 SWAP1 SSTORE POP PUSH1 0x1 SLOAD PUSH0 SLOAD PUSH2 0x102 SWAP2 SWAP1 PUSH2 0x242 JUMP JUMPDEST PUSH0 DUP2 SWAP1 SSTORE POP JUMP JUMPDEST DUP2 PUSH0 DUP2 SWAP1 SSTORE POP DUP1 PUSH1 0x1 DUP2 SWAP1 SSTORE POP POP POP JUMP JUMPDEST PUSH1 0x1 SLOAD DUP2 JUMP JUMPDEST PUSH0 DUP1 SLOAD SWAP1 POP PUSH1 0x1 SLOAD PUSH0 DUP2 SWAP1 SSTORE POP DUP1 PUSH1 0x1 DUP2 SWAP1 SSTORE POP POP JUMP JUMPDEST PUSH0 DUP2 SWAP1 POP SWAP2 SWAP1 POP JUMP JUMPDEST PUSH2 0x149 DUP2 PUSH2 0x137 JUMP JUMPDEST DUP3 MSTORE POP POP JUMP JUMPDEST PUSH0 PUSH1 0x20 DUP3 ADD SWAP1 POP PUSH2 0x162 PUSH0 DUP4 ADD DUP5 PUSH2 0x140 JUMP JUMPDEST SWAP3 SWAP2 POP POP JUMP JUMPDEST PUSH0 DUP1 REVERT JUMPDEST PUSH2 0x175 DUP2 PUSH2 0x137 JUMP JUMPDEST DUP2 EQ PUSH2 0x17F JUMPI PUSH0 DUP1 REVERT JUMPDEST POP JUMP JUMPDEST PUSH0 DUP2 CALLDATALOAD SWAP1 POP PUSH2 0x190 DUP2 PUSH2 0x16C JUMP JUMPDEST SWAP3 SWAP2 POP POP JUMP JUMPDEST PUSH0 DUP1 PUSH1 0x40 DUP4 DUP6 SUB SLT ISZERO PUSH2 0x1AC JUMPI PUSH2 0x1AB PUSH2 0x168 JUMP JUMPDEST JUMPDEST PUSH0 PUSH2 0x1B9 DUP6 DUP3 DUP7 ADD PUSH2 0x182 JUMP JUMPDEST SWAP3 POP POP PUSH1 0x20 PUSH2 0x1CA DUP6 DUP3 DUP7 ADD PUSH2 0x182 JUMP JUMPDEST SWAP2 POP POP SWAP3 POP SWAP3 SWAP1 POP JUMP JUMPDEST PUSH32 0x4E487B7100000000000000000000000000000000000000000000000000000000 PUSH0 MSTORE PUSH1 0x11 PUSH1 0x4 MSTORE PUSH1 0x24 PUSH0 REVERT JUMPDEST PUSH0 PUSH2 0x20B DUP3 PUSH2 0x137 JUMP JUMPDEST SWAP2 POP PUSH2 0x216 DUP4 PUSH2 0x137 JUMP JUMPDEST SWAP3 POP DUP3 DUP3 ADD SWAP1 POP DUP3 DUP2 SLT ISZERO PUSH0 DUP4 SLT AND DUP4 DUP3 SLT PUSH0 DUP5 SLT ISZERO AND OR ISZERO PUSH2 0x23C JUMPI PUSH2 0x23B PUSH2 0x1D4 JUMP JUMPDEST JUMPDEST SWAP3 SWAP2 POP POP JUMP JUMPDEST PUSH0 PUSH2 0x24C DUP3 PUSH2 0x137 JUMP JUMPDEST SWAP2 POP PUSH2 0x257 DUP4 PUSH2 0x137 JUMP JUMPDEST SWAP3 POP DUP3 DUP3 SUB SWAP1 POP DUP2 DUP2 SLT PUSH0 DUP5 SLT AND DUP3 DUP3 SGT PUSH0 DUP6 SLT ISZERO AND OR ISZERO PUSH2 0x27C JUMPI PUSH2 0x27B PUSH2 0x1D4 JUMP JUMPDEST JUMPDEST SWAP3 SWAP2 POP POP JUMP INVALID LOG2 PUSH5 0x6970667358 0x22 SLT KECCAK256 0xD3 BASEFEE 0xD9 0x21 BALANCE POP 0xB7 PUSH7 0x3C41485013C953 PUSH15 0xB698A4929F1B2AD698A8CE227C02AB PUSH16 0x64736F6C634300081400330000000000 "
				},
				"gasEstimates": {
					"creation": {
						"codeDepositCost": "139200",
						"executionCost": "181",
						"totalCost": "139381"
					},
					"external": {
						"a()": "2402",
						"b()": "2469",
						"setValues(int256,int256)": "infinite",
						"swapUsingThirdVariable()": "48648",
						"swapWithoutThirdVariable()": "infinite"
					}
				},
				"methodIdentifiers": {
					"a()": "0dbe671f",
					"b()": "4df7e3d0",
					"setValues(int256,int256)": "37d08d42",
					"swapUsingThirdVariable()": "c515f924",
					"swapWithoutThirdVariable()": "2534080f"
				}
			},
			"storageLayout": {
				"storage": [
					{
						"astId": 3,
						"contract": "Day-01/D1P5.sol:SwapValues",
						"label": "a",
						"offset": 0,
						"slot": "0",
						"type": "t_int256"
					},
					{
						"astId": 5,
						"contract": "Day-01/D1P5.sol:SwapValues",
						"label": "b",
						"offset": 0,
						"slot": "1",
						"type": "t_int256"
					}
				],
				"types": {
					"t_int256": {
						"encoding": "inplace",
						"label": "int256",
						"numberOfBytes": "32"
					}
				}
			},
			"userdoc": {
				"kind": "user",
				"methods": {},
				"version": 1
			}
		}
	}
}